{
	"contracts/auction1.sol": {
		"Auction": {
			"abi": [
				{
					"inputs": [],
					"stateMutability": "nonpayable",
					"type": "constructor"
				},
				{
					"inputs": [],
					"name": "auctionState",
					"outputs": [
						{
							"internalType": "enum Auction.State",
							"name": "",
							"type": "uint8"
						}
					],
					"stateMutability": "view",
					"type": "function"
				},
				{
					"inputs": [
						{
							"internalType": "address",
							"name": "",
							"type": "address"
						}
					],
					"name": "bids",
					"outputs": [
						{
							"internalType": "uint256",
							"name": "",
							"type": "uint256"
						}
					],
					"stateMutability": "view",
					"type": "function"
				},
				{
					"inputs": [],
					"name": "endBlock",
					"outputs": [
						{
							"internalType": "uint256",
							"name": "",
							"type": "uint256"
						}
					],
					"stateMutability": "view",
					"type": "function"
				},
				{
					"inputs": [],
					"name": "highestBidder",
					"outputs": [
						{
							"internalType": "address payable",
							"name": "",
							"type": "address"
						}
					],
					"stateMutability": "view",
					"type": "function"
				},
				{
					"inputs": [],
					"name": "highestBindingBid",
					"outputs": [
						{
							"internalType": "uint256",
							"name": "",
							"type": "uint256"
						}
					],
					"stateMutability": "view",
					"type": "function"
				},
				{
					"inputs": [],
					"name": "ipfsHash",
					"outputs": [
						{
							"internalType": "string",
							"name": "",
							"type": "string"
						}
					],
					"stateMutability": "view",
					"type": "function"
				},
				{
					"inputs": [],
					"name": "owner",
					"outputs": [
						{
							"internalType": "address payable",
							"name": "",
							"type": "address"
						}
					],
					"stateMutability": "view",
					"type": "function"
				},
				{
					"inputs": [],
					"name": "startBlock",
					"outputs": [
						{
							"internalType": "uint256",
							"name": "",
							"type": "uint256"
						}
					],
					"stateMutability": "view",
					"type": "function"
				}
			],
			"devdoc": {
				"kind": "dev",
				"methods": {},
				"version": 1
			},
			"evm": {
				"assembly": "    /* \"contracts/auction1.sol\":73:1241  contract Auction{\r... */\n  mstore(0x40, 0x80)\n    /* \"contracts/auction1.sol\":1038:1236  constructor(){\r... */\n  callvalue\n  dup1\n  iszero\n  tag_1\n  jumpi\n  0x00\n  dup1\n  revert\ntag_1:\n  pop\n    /* \"contracts/auction1.sol\":1129:1139  msg.sender */\n  caller\n    /* \"contracts/auction1.sol\":1113:1118  owner */\n  0x00\n  dup1\n    /* \"contracts/auction1.sol\":1113:1140  owner = payable(msg.sender) */\n  0x0100\n  exp\n  dup2\n  sload\n  dup2\n  0xffffffffffffffffffffffffffffffffffffffff\n  mul\n  not\n  and\n  swap1\n  dup4\n  0xffffffffffffffffffffffffffffffffffffffff\n  and\n  mul\n  or\n  swap1\n  sstore\n  pop\n    /* \"contracts/auction1.sol\":1215:1228  State.Running */\n  0x01\n    /* \"contracts/auction1.sol\":1200:1212  auctionState */\n  0x04\n  0x00\n    /* \"contracts/auction1.sol\":1200:1228  auctionState = State.Running */\n  0x0100\n  exp\n  dup2\n  sload\n  dup2\n  0xff\n  mul\n  not\n  and\n  swap1\n  dup4\n  0x03\n  dup2\n  gt\n  iszero\n  tag_4\n  jumpi\n  tag_5\n  tag_6\n  jump\t// in\ntag_5:\ntag_4:\n  mul\n  or\n  swap1\n  sstore\n  pop\n    /* \"contracts/auction1.sol\":73:1241  contract Auction{\r... */\n  jump(tag_7)\n    /* \"#utility.yul\":7:187   */\ntag_6:\n    /* \"#utility.yul\":55:132   */\n  0x4e487b7100000000000000000000000000000000000000000000000000000000\n    /* \"#utility.yul\":52:53   */\n  0x00\n    /* \"#utility.yul\":45:133   */\n  mstore\n    /* \"#utility.yul\":152:156   */\n  0x21\n    /* \"#utility.yul\":149:150   */\n  0x04\n    /* \"#utility.yul\":142:157   */\n  mstore\n    /* \"#utility.yul\":176:180   */\n  0x24\n    /* \"#utility.yul\":173:174   */\n  0x00\n    /* \"#utility.yul\":166:181   */\n  revert\n    /* \"contracts/auction1.sol\":73:1241  contract Auction{\r... */\ntag_7:\n  dataSize(sub_0)\n  dup1\n  dataOffset(sub_0)\n  0x00\n  codecopy\n  0x00\n  return\nstop\n\nsub_0: assembly {\n        /* \"contracts/auction1.sol\":73:1241  contract Auction{\r... */\n      mstore(0x40, 0x80)\n      callvalue\n      dup1\n      iszero\n      tag_1\n      jumpi\n      0x00\n      dup1\n      revert\n    tag_1:\n      pop\n      jumpi(tag_2, lt(calldatasize, 0x04))\n      shr(0xe0, calldataload(0x00))\n      dup1\n      0x8da5cb5b\n      gt\n      tag_11\n      jumpi\n      dup1\n      0x8da5cb5b\n      eq\n      tag_7\n      jumpi\n      dup1\n      0x91f90157\n      eq\n      tag_8\n      jumpi\n      dup1\n      0xc623674f\n      eq\n      tag_9\n      jumpi\n      dup1\n      0xf5b56c56\n      eq\n      tag_10\n      jumpi\n      jump(tag_2)\n    tag_11:\n      dup1\n      0x083c6323\n      eq\n      tag_3\n      jumpi\n      dup1\n      0x48cd4cb1\n      eq\n      tag_4\n      jumpi\n      dup1\n      0x62ea82db\n      eq\n      tag_5\n      jumpi\n      dup1\n      0x7fb45099\n      eq\n      tag_6\n      jumpi\n    tag_2:\n      0x00\n      dup1\n      revert\n        /* \"contracts/auction1.sol\":262:282  uint public endBlock */\n    tag_3:\n      tag_12\n      tag_13\n      jump\t// in\n    tag_12:\n      mload(0x40)\n      tag_14\n      swap2\n      swap1\n      tag_15\n      jump\t// in\n    tag_14:\n      mload(0x40)\n      dup1\n      swap2\n      sub\n      swap1\n      return\n        /* \"contracts/auction1.sol\":233:255  uint public startBlock */\n    tag_4:\n      tag_16\n      tag_17\n      jump\t// in\n    tag_16:\n      mload(0x40)\n      tag_18\n      swap2\n      swap1\n      tag_15\n      jump\t// in\n    tag_18:\n      mload(0x40)\n      dup1\n      swap2\n      sub\n      swap1\n      return\n        /* \"contracts/auction1.sol\":866:902  mapping(address => uint) public bids */\n    tag_5:\n      tag_19\n      0x04\n      dup1\n      calldatasize\n      sub\n      dup2\n      add\n      swap1\n      tag_20\n      swap2\n      swap1\n      tag_21\n      jump\t// in\n    tag_20:\n      tag_22\n      jump\t// in\n    tag_19:\n      mload(0x40)\n      tag_23\n      swap2\n      swap1\n      tag_15\n      jump\t// in\n    tag_23:\n      mload(0x40)\n      dup1\n      swap2\n      sub\n      swap1\n      return\n        /* \"contracts/auction1.sol\":576:601  State public auctionState */\n    tag_6:\n      tag_24\n      tag_25\n      jump\t// in\n    tag_24:\n      mload(0x40)\n      tag_26\n      swap2\n      swap1\n      tag_27\n      jump\t// in\n    tag_26:\n      mload(0x40)\n      dup1\n      swap2\n      sub\n      swap1\n      return\n        /* \"contracts/auction1.sol\":140:168  address payable public owner */\n    tag_7:\n      tag_28\n      tag_29\n      jump\t// in\n    tag_28:\n      mload(0x40)\n      tag_30\n      swap2\n      swap1\n      tag_31\n      jump\t// in\n    tag_30:\n      mload(0x40)\n      dup1\n      swap2\n      sub\n      swap1\n      return\n        /* \"contracts/auction1.sol\":761:797  address payable public highestBidder */\n    tag_8:\n      tag_32\n      tag_33\n      jump\t// in\n    tag_32:\n      mload(0x40)\n      tag_34\n      swap2\n      swap1\n      tag_31\n      jump\t// in\n    tag_34:\n      mload(0x40)\n      dup1\n      swap2\n      sub\n      swap1\n      return\n        /* \"contracts/auction1.sol\":353:375  string public ipfsHash */\n    tag_9:\n      tag_35\n      tag_36\n      jump\t// in\n    tag_35:\n      mload(0x40)\n      tag_37\n      swap2\n      swap1\n      tag_38\n      jump\t// in\n    tag_37:\n      mload(0x40)\n      dup1\n      swap2\n      sub\n      swap1\n      return\n        /* \"contracts/auction1.sol\":660:689  uint public highestBindingBid */\n    tag_10:\n      tag_39\n      tag_40\n      jump\t// in\n    tag_39:\n      mload(0x40)\n      tag_41\n      swap2\n      swap1\n      tag_15\n      jump\t// in\n    tag_41:\n      mload(0x40)\n      dup1\n      swap2\n      sub\n      swap1\n      return\n        /* \"contracts/auction1.sol\":262:282  uint public endBlock */\n    tag_13:\n      sload(0x02)\n      dup2\n      jump\t// out\n        /* \"contracts/auction1.sol\":233:255  uint public startBlock */\n    tag_17:\n      sload(0x01)\n      dup2\n      jump\t// out\n        /* \"contracts/auction1.sol\":866:902  mapping(address => uint) public bids */\n    tag_22:\n      mstore(0x20, 0x07)\n      dup1\n      0x00\n      mstore\n      keccak256(0x00, 0x40)\n      0x00\n      swap2\n      pop\n      swap1\n      pop\n      sload\n      dup2\n      jump\t// out\n        /* \"contracts/auction1.sol\":576:601  State public auctionState */\n    tag_25:\n      0x04\n      0x00\n      swap1\n      sload\n      swap1\n      0x0100\n      exp\n      swap1\n      div\n      0xff\n      and\n      dup2\n      jump\t// out\n        /* \"contracts/auction1.sol\":140:168  address payable public owner */\n    tag_29:\n      0x00\n      dup1\n      sload\n      swap1\n      0x0100\n      exp\n      swap1\n      div\n      0xffffffffffffffffffffffffffffffffffffffff\n      and\n      dup2\n      jump\t// out\n        /* \"contracts/auction1.sol\":761:797  address payable public highestBidder */\n    tag_33:\n      0x06\n      0x00\n      swap1\n      sload\n      swap1\n      0x0100\n      exp\n      swap1\n      div\n      0xffffffffffffffffffffffffffffffffffffffff\n      and\n      dup2\n      jump\t// out\n        /* \"contracts/auction1.sol\":353:375  string public ipfsHash */\n    tag_36:\n      0x03\n      dup1\n      sload\n      tag_42\n      swap1\n      tag_43\n      jump\t// in\n    tag_42:\n      dup1\n      0x1f\n      add\n      0x20\n      dup1\n      swap2\n      div\n      mul\n      0x20\n      add\n      mload(0x40)\n      swap1\n      dup2\n      add\n      0x40\n      mstore\n      dup1\n      swap3\n      swap2\n      swap1\n      dup2\n      dup2\n      mstore\n      0x20\n      add\n      dup3\n      dup1\n      sload\n      tag_44\n      swap1\n      tag_43\n      jump\t// in\n    tag_44:\n      dup1\n      iszero\n      tag_45\n      jumpi\n      dup1\n      0x1f\n      lt\n      tag_46\n      jumpi\n      0x0100\n      dup1\n      dup4\n      sload\n      div\n      mul\n      dup4\n      mstore\n      swap2\n      0x20\n      add\n      swap2\n      jump(tag_45)\n    tag_46:\n      dup3\n      add\n      swap2\n      swap1\n      0x00\n      mstore\n      keccak256(0x00, 0x20)\n      swap1\n    tag_47:\n      dup2\n      sload\n      dup2\n      mstore\n      swap1\n      0x01\n      add\n      swap1\n      0x20\n      add\n      dup1\n      dup4\n      gt\n      tag_47\n      jumpi\n      dup3\n      swap1\n      sub\n      0x1f\n      and\n      dup3\n      add\n      swap2\n    tag_45:\n      pop\n      pop\n      pop\n      pop\n      pop\n      dup2\n      jump\t// out\n        /* \"contracts/auction1.sol\":660:689  uint public highestBindingBid */\n    tag_40:\n      sload(0x05)\n      dup2\n      jump\t// out\n        /* \"#utility.yul\":7:146   */\n    tag_49:\n        /* \"#utility.yul\":53:58   */\n      0x00\n        /* \"#utility.yul\":91:97   */\n      dup2\n        /* \"#utility.yul\":78:98   */\n      calldataload\n        /* \"#utility.yul\":69:98   */\n      swap1\n      pop\n        /* \"#utility.yul\":107:140   */\n      tag_51\n        /* \"#utility.yul\":134:139   */\n      dup2\n        /* \"#utility.yul\":107:140   */\n      tag_52\n      jump\t// in\n    tag_51:\n        /* \"#utility.yul\":7:146   */\n      swap3\n      swap2\n      pop\n      pop\n      jump\t// out\n        /* \"#utility.yul\":152:481   */\n    tag_21:\n        /* \"#utility.yul\":211:217   */\n      0x00\n        /* \"#utility.yul\":260:262   */\n      0x20\n        /* \"#utility.yul\":248:257   */\n      dup3\n        /* \"#utility.yul\":239:246   */\n      dup5\n        /* \"#utility.yul\":235:258   */\n      sub\n        /* \"#utility.yul\":231:263   */\n      slt\n        /* \"#utility.yul\":228:347   */\n      iszero\n      tag_54\n      jumpi\n        /* \"#utility.yul\":266:345   */\n      tag_55\n      tag_56\n      jump\t// in\n    tag_55:\n        /* \"#utility.yul\":228:347   */\n    tag_54:\n        /* \"#utility.yul\":386:387   */\n      0x00\n        /* \"#utility.yul\":411:464   */\n      tag_57\n        /* \"#utility.yul\":456:463   */\n      dup5\n        /* \"#utility.yul\":447:453   */\n      dup3\n        /* \"#utility.yul\":436:445   */\n      dup6\n        /* \"#utility.yul\":432:454   */\n      add\n        /* \"#utility.yul\":411:464   */\n      tag_49\n      jump\t// in\n    tag_57:\n        /* \"#utility.yul\":401:464   */\n      swap2\n      pop\n        /* \"#utility.yul\":357:474   */\n      pop\n        /* \"#utility.yul\":152:481   */\n      swap3\n      swap2\n      pop\n      pop\n      jump\t// out\n        /* \"#utility.yul\":487:629   */\n    tag_58:\n        /* \"#utility.yul\":590:622   */\n      tag_60\n        /* \"#utility.yul\":616:621   */\n      dup2\n        /* \"#utility.yul\":590:622   */\n      tag_61\n      jump\t// in\n    tag_60:\n        /* \"#utility.yul\":585:588   */\n      dup3\n        /* \"#utility.yul\":578:623   */\n      mstore\n        /* \"#utility.yul\":487:629   */\n      pop\n      pop\n      jump\t// out\n        /* \"#utility.yul\":635:778   */\n    tag_62:\n        /* \"#utility.yul\":728:771   */\n      tag_64\n        /* \"#utility.yul\":765:770   */\n      dup2\n        /* \"#utility.yul\":728:771   */\n      tag_65\n      jump\t// in\n    tag_64:\n        /* \"#utility.yul\":723:726   */\n      dup3\n        /* \"#utility.yul\":716:772   */\n      mstore\n        /* \"#utility.yul\":635:778   */\n      pop\n      pop\n      jump\t// out\n        /* \"#utility.yul\":784:1148   */\n    tag_66:\n        /* \"#utility.yul\":872:875   */\n      0x00\n        /* \"#utility.yul\":900:939   */\n      tag_68\n        /* \"#utility.yul\":933:938   */\n      dup3\n        /* \"#utility.yul\":900:939   */\n      tag_69\n      jump\t// in\n    tag_68:\n        /* \"#utility.yul\":955:1026   */\n      tag_70\n        /* \"#utility.yul\":1019:1025   */\n      dup2\n        /* \"#utility.yul\":1014:1017   */\n      dup6\n        /* \"#utility.yul\":955:1026   */\n      tag_71\n      jump\t// in\n    tag_70:\n        /* \"#utility.yul\":948:1026   */\n      swap4\n      pop\n        /* \"#utility.yul\":1035:1087   */\n      tag_72\n        /* \"#utility.yul\":1080:1086   */\n      dup2\n        /* \"#utility.yul\":1075:1078   */\n      dup6\n        /* \"#utility.yul\":1068:1072   */\n      0x20\n        /* \"#utility.yul\":1061:1066   */\n      dup7\n        /* \"#utility.yul\":1057:1073   */\n      add\n        /* \"#utility.yul\":1035:1087   */\n      tag_73\n      jump\t// in\n    tag_72:\n        /* \"#utility.yul\":1112:1141   */\n      tag_74\n        /* \"#utility.yul\":1134:1140   */\n      dup2\n        /* \"#utility.yul\":1112:1141   */\n      tag_75\n      jump\t// in\n    tag_74:\n        /* \"#utility.yul\":1107:1110   */\n      dup5\n        /* \"#utility.yul\":1103:1142   */\n      add\n        /* \"#utility.yul\":1096:1142   */\n      swap2\n      pop\n        /* \"#utility.yul\":876:1148   */\n      pop\n        /* \"#utility.yul\":784:1148   */\n      swap3\n      swap2\n      pop\n      pop\n      jump\t// out\n        /* \"#utility.yul\":1154:1272   */\n    tag_76:\n        /* \"#utility.yul\":1241:1265   */\n      tag_78\n        /* \"#utility.yul\":1259:1264   */\n      dup2\n        /* \"#utility.yul\":1241:1265   */\n      tag_79\n      jump\t// in\n    tag_78:\n        /* \"#utility.yul\":1236:1239   */\n      dup3\n        /* \"#utility.yul\":1229:1266   */\n      mstore\n        /* \"#utility.yul\":1154:1272   */\n      pop\n      pop\n      jump\t// out\n        /* \"#utility.yul\":1278:1532   */\n    tag_31:\n        /* \"#utility.yul\":1387:1391   */\n      0x00\n        /* \"#utility.yul\":1425:1427   */\n      0x20\n        /* \"#utility.yul\":1414:1423   */\n      dup3\n        /* \"#utility.yul\":1410:1428   */\n      add\n        /* \"#utility.yul\":1402:1428   */\n      swap1\n      pop\n        /* \"#utility.yul\":1438:1525   */\n      tag_81\n        /* \"#utility.yul\":1522:1523   */\n      0x00\n        /* \"#utility.yul\":1511:1520   */\n      dup4\n        /* \"#utility.yul\":1507:1524   */\n      add\n        /* \"#utility.yul\":1498:1504   */\n      dup5\n        /* \"#utility.yul\":1438:1525   */\n      tag_58\n      jump\t// in\n    tag_81:\n        /* \"#utility.yul\":1278:1532   */\n      swap3\n      swap2\n      pop\n      pop\n      jump\t// out\n        /* \"#utility.yul\":1538:1772   */\n    tag_27:\n        /* \"#utility.yul\":1637:1641   */\n      0x00\n        /* \"#utility.yul\":1675:1677   */\n      0x20\n        /* \"#utility.yul\":1664:1673   */\n      dup3\n        /* \"#utility.yul\":1660:1678   */\n      add\n        /* \"#utility.yul\":1652:1678   */\n      swap1\n      pop\n        /* \"#utility.yul\":1688:1765   */\n      tag_83\n        /* \"#utility.yul\":1762:1763   */\n      0x00\n        /* \"#utility.yul\":1751:1760   */\n      dup4\n        /* \"#utility.yul\":1747:1764   */\n      add\n        /* \"#utility.yul\":1738:1744   */\n      dup5\n        /* \"#utility.yul\":1688:1765   */\n      tag_62\n      jump\t// in\n    tag_83:\n        /* \"#utility.yul\":1538:1772   */\n      swap3\n      swap2\n      pop\n      pop\n      jump\t// out\n        /* \"#utility.yul\":1778:2091   */\n    tag_38:\n        /* \"#utility.yul\":1891:1895   */\n      0x00\n        /* \"#utility.yul\":1929:1931   */\n      0x20\n        /* \"#utility.yul\":1918:1927   */\n      dup3\n        /* \"#utility.yul\":1914:1932   */\n      add\n        /* \"#utility.yul\":1906:1932   */\n      swap1\n      pop\n        /* \"#utility.yul\":1978:1987   */\n      dup2\n        /* \"#utility.yul\":1972:1976   */\n      dup2\n        /* \"#utility.yul\":1968:1988   */\n      sub\n        /* \"#utility.yul\":1964:1965   */\n      0x00\n        /* \"#utility.yul\":1953:1962   */\n      dup4\n        /* \"#utility.yul\":1949:1966   */\n      add\n        /* \"#utility.yul\":1942:1989   */\n      mstore\n        /* \"#utility.yul\":2006:2084   */\n      tag_85\n        /* \"#utility.yul\":2079:2083   */\n      dup2\n        /* \"#utility.yul\":2070:2076   */\n      dup5\n        /* \"#utility.yul\":2006:2084   */\n      tag_66\n      jump\t// in\n    tag_85:\n        /* \"#utility.yul\":1998:2084   */\n      swap1\n      pop\n        /* \"#utility.yul\":1778:2091   */\n      swap3\n      swap2\n      pop\n      pop\n      jump\t// out\n        /* \"#utility.yul\":2097:2319   */\n    tag_15:\n        /* \"#utility.yul\":2190:2194   */\n      0x00\n        /* \"#utility.yul\":2228:2230   */\n      0x20\n        /* \"#utility.yul\":2217:2226   */\n      dup3\n        /* \"#utility.yul\":2213:2231   */\n      add\n        /* \"#utility.yul\":2205:2231   */\n      swap1\n      pop\n        /* \"#utility.yul\":2241:2312   */\n      tag_87\n        /* \"#utility.yul\":2309:2310   */\n      0x00\n        /* \"#utility.yul\":2298:2307   */\n      dup4\n        /* \"#utility.yul\":2294:2311   */\n      add\n        /* \"#utility.yul\":2285:2291   */\n      dup5\n        /* \"#utility.yul\":2241:2312   */\n      tag_76\n      jump\t// in\n    tag_87:\n        /* \"#utility.yul\":2097:2319   */\n      swap3\n      swap2\n      pop\n      pop\n      jump\t// out\n        /* \"#utility.yul\":2406:2505   */\n    tag_69:\n        /* \"#utility.yul\":2458:2464   */\n      0x00\n        /* \"#utility.yul\":2492:2497   */\n      dup2\n        /* \"#utility.yul\":2486:2498   */\n      mload\n        /* \"#utility.yul\":2476:2498   */\n      swap1\n      pop\n        /* \"#utility.yul\":2406:2505   */\n      swap2\n      swap1\n      pop\n      jump\t// out\n        /* \"#utility.yul\":2511:2680   */\n    tag_71:\n        /* \"#utility.yul\":2595:2606   */\n      0x00\n        /* \"#utility.yul\":2629:2635   */\n      dup3\n        /* \"#utility.yul\":2624:2627   */\n      dup3\n        /* \"#utility.yul\":2617:2636   */\n      mstore\n        /* \"#utility.yul\":2669:2673   */\n      0x20\n        /* \"#utility.yul\":2664:2667   */\n      dup3\n        /* \"#utility.yul\":2660:2674   */\n      add\n        /* \"#utility.yul\":2645:2674   */\n      swap1\n      pop\n        /* \"#utility.yul\":2511:2680   */\n      swap3\n      swap2\n      pop\n      pop\n      jump\t// out\n        /* \"#utility.yul\":2686:2782   */\n    tag_92:\n        /* \"#utility.yul\":2723:2730   */\n      0x00\n        /* \"#utility.yul\":2752:2776   */\n      tag_94\n        /* \"#utility.yul\":2770:2775   */\n      dup3\n        /* \"#utility.yul\":2752:2776   */\n      tag_95\n      jump\t// in\n    tag_94:\n        /* \"#utility.yul\":2741:2776   */\n      swap1\n      pop\n        /* \"#utility.yul\":2686:2782   */\n      swap2\n      swap1\n      pop\n      jump\t// out\n        /* \"#utility.yul\":2788:2892   */\n    tag_61:\n        /* \"#utility.yul\":2833:2840   */\n      0x00\n        /* \"#utility.yul\":2862:2886   */\n      tag_97\n        /* \"#utility.yul\":2880:2885   */\n      dup3\n        /* \"#utility.yul\":2862:2886   */\n      tag_95\n      jump\t// in\n    tag_97:\n        /* \"#utility.yul\":2851:2886   */\n      swap1\n      pop\n        /* \"#utility.yul\":2788:2892   */\n      swap2\n      swap1\n      pop\n      jump\t// out\n        /* \"#utility.yul\":2898:3025   */\n    tag_98:\n        /* \"#utility.yul\":2943:2950   */\n      0x00\n        /* \"#utility.yul\":2972:2977   */\n      dup2\n        /* \"#utility.yul\":2961:2977   */\n      swap1\n      pop\n        /* \"#utility.yul\":2978:3019   */\n      tag_100\n        /* \"#utility.yul\":3013:3018   */\n      dup3\n        /* \"#utility.yul\":2978:3019   */\n      tag_101\n      jump\t// in\n    tag_100:\n        /* \"#utility.yul\":2898:3025   */\n      swap2\n      swap1\n      pop\n      jump\t// out\n        /* \"#utility.yul\":3031:3157   */\n    tag_95:\n        /* \"#utility.yul\":3068:3075   */\n      0x00\n        /* \"#utility.yul\":3108:3150   */\n      0xffffffffffffffffffffffffffffffffffffffff\n        /* \"#utility.yul\":3101:3106   */\n      dup3\n        /* \"#utility.yul\":3097:3151   */\n      and\n        /* \"#utility.yul\":3086:3151   */\n      swap1\n      pop\n        /* \"#utility.yul\":3031:3157   */\n      swap2\n      swap1\n      pop\n      jump\t// out\n        /* \"#utility.yul\":3163:3240   */\n    tag_79:\n        /* \"#utility.yul\":3200:3207   */\n      0x00\n        /* \"#utility.yul\":3229:3234   */\n      dup2\n        /* \"#utility.yul\":3218:3234   */\n      swap1\n      pop\n        /* \"#utility.yul\":3163:3240   */\n      swap2\n      swap1\n      pop\n      jump\t// out\n        /* \"#utility.yul\":3246:3373   */\n    tag_65:\n        /* \"#utility.yul\":3302:3311   */\n      0x00\n        /* \"#utility.yul\":3335:3367   */\n      tag_105\n        /* \"#utility.yul\":3361:3366   */\n      dup3\n        /* \"#utility.yul\":3335:3367   */\n      tag_98\n      jump\t// in\n    tag_105:\n        /* \"#utility.yul\":3322:3367   */\n      swap1\n      pop\n        /* \"#utility.yul\":3246:3373   */\n      swap2\n      swap1\n      pop\n      jump\t// out\n        /* \"#utility.yul\":3379:3686   */\n    tag_73:\n        /* \"#utility.yul\":3447:3448   */\n      0x00\n        /* \"#utility.yul\":3457:3570   */\n    tag_107:\n        /* \"#utility.yul\":3471:3477   */\n      dup4\n        /* \"#utility.yul\":3468:3469   */\n      dup2\n        /* \"#utility.yul\":3465:3478   */\n      lt\n        /* \"#utility.yul\":3457:3570   */\n      iszero\n      tag_109\n      jumpi\n        /* \"#utility.yul\":3556:3557   */\n      dup1\n        /* \"#utility.yul\":3551:3554   */\n      dup3\n        /* \"#utility.yul\":3547:3558   */\n      add\n        /* \"#utility.yul\":3541:3559   */\n      mload\n        /* \"#utility.yul\":3537:3538   */\n      dup2\n        /* \"#utility.yul\":3532:3535   */\n      dup5\n        /* \"#utility.yul\":3528:3539   */\n      add\n        /* \"#utility.yul\":3521:3560   */\n      mstore\n        /* \"#utility.yul\":3493:3495   */\n      0x20\n        /* \"#utility.yul\":3490:3491   */\n      dup2\n        /* \"#utility.yul\":3486:3496   */\n      add\n        /* \"#utility.yul\":3481:3496   */\n      swap1\n      pop\n        /* \"#utility.yul\":3457:3570   */\n      jump(tag_107)\n    tag_109:\n        /* \"#utility.yul\":3588:3594   */\n      dup4\n        /* \"#utility.yul\":3585:3586   */\n      dup2\n        /* \"#utility.yul\":3582:3595   */\n      gt\n        /* \"#utility.yul\":3579:3680   */\n      iszero\n      tag_110\n      jumpi\n        /* \"#utility.yul\":3668:3669   */\n      0x00\n        /* \"#utility.yul\":3659:3665   */\n      dup5\n        /* \"#utility.yul\":3654:3657   */\n      dup5\n        /* \"#utility.yul\":3650:3666   */\n      add\n        /* \"#utility.yul\":3643:3670   */\n      mstore\n        /* \"#utility.yul\":3579:3680   */\n    tag_110:\n        /* \"#utility.yul\":3428:3686   */\n      pop\n        /* \"#utility.yul\":3379:3686   */\n      pop\n      pop\n      pop\n      jump\t// out\n        /* \"#utility.yul\":3692:4012   */\n    tag_43:\n        /* \"#utility.yul\":3736:3742   */\n      0x00\n        /* \"#utility.yul\":3773:3774   */\n      0x02\n        /* \"#utility.yul\":3767:3771   */\n      dup3\n        /* \"#utility.yul\":3763:3775   */\n      div\n        /* \"#utility.yul\":3753:3775   */\n      swap1\n      pop\n        /* \"#utility.yul\":3820:3821   */\n      0x01\n        /* \"#utility.yul\":3814:3818   */\n      dup3\n        /* \"#utility.yul\":3810:3822   */\n      and\n        /* \"#utility.yul\":3841:3859   */\n      dup1\n        /* \"#utility.yul\":3831:3912   */\n      tag_112\n      jumpi\n        /* \"#utility.yul\":3897:3901   */\n      0x7f\n        /* \"#utility.yul\":3889:3895   */\n      dup3\n        /* \"#utility.yul\":3885:3902   */\n      and\n        /* \"#utility.yul\":3875:3902   */\n      swap2\n      pop\n        /* \"#utility.yul\":3831:3912   */\n    tag_112:\n        /* \"#utility.yul\":3959:3961   */\n      0x20\n        /* \"#utility.yul\":3951:3957   */\n      dup3\n        /* \"#utility.yul\":3948:3962   */\n      lt\n        /* \"#utility.yul\":3928:3946   */\n      dup2\n        /* \"#utility.yul\":3925:3963   */\n      eq\n        /* \"#utility.yul\":3922:4006   */\n      iszero\n      tag_113\n      jumpi\n        /* \"#utility.yul\":3978:3996   */\n      tag_114\n      tag_115\n      jump\t// in\n    tag_114:\n        /* \"#utility.yul\":3922:4006   */\n    tag_113:\n        /* \"#utility.yul\":3743:4012   */\n      pop\n        /* \"#utility.yul\":3692:4012   */\n      swap2\n      swap1\n      pop\n      jump\t// out\n        /* \"#utility.yul\":4018:4198   */\n    tag_116:\n        /* \"#utility.yul\":4066:4143   */\n      0x4e487b7100000000000000000000000000000000000000000000000000000000\n        /* \"#utility.yul\":4063:4064   */\n      0x00\n        /* \"#utility.yul\":4056:4144   */\n      mstore\n        /* \"#utility.yul\":4163:4167   */\n      0x21\n        /* \"#utility.yul\":4160:4161   */\n      0x04\n        /* \"#utility.yul\":4153:4168   */\n      mstore\n        /* \"#utility.yul\":4187:4191   */\n      0x24\n        /* \"#utility.yul\":4184:4185   */\n      0x00\n        /* \"#utility.yul\":4177:4192   */\n      revert\n        /* \"#utility.yul\":4204:4384   */\n    tag_115:\n        /* \"#utility.yul\":4252:4329   */\n      0x4e487b7100000000000000000000000000000000000000000000000000000000\n        /* \"#utility.yul\":4249:4250   */\n      0x00\n        /* \"#utility.yul\":4242:4330   */\n      mstore\n        /* \"#utility.yul\":4349:4353   */\n      0x22\n        /* \"#utility.yul\":4346:4347   */\n      0x04\n        /* \"#utility.yul\":4339:4354   */\n      mstore\n        /* \"#utility.yul\":4373:4377   */\n      0x24\n        /* \"#utility.yul\":4370:4371   */\n      0x00\n        /* \"#utility.yul\":4363:4378   */\n      revert\n        /* \"#utility.yul\":4513:4630   */\n    tag_56:\n        /* \"#utility.yul\":4622:4623   */\n      0x00\n        /* \"#utility.yul\":4619:4620   */\n      dup1\n        /* \"#utility.yul\":4612:4624   */\n      revert\n        /* \"#utility.yul\":4636:4738   */\n    tag_75:\n        /* \"#utility.yul\":4677:4683   */\n      0x00\n        /* \"#utility.yul\":4728:4730   */\n      0x1f\n        /* \"#utility.yul\":4724:4731   */\n      not\n        /* \"#utility.yul\":4719:4721   */\n      0x1f\n        /* \"#utility.yul\":4712:4717   */\n      dup4\n        /* \"#utility.yul\":4708:4722   */\n      add\n        /* \"#utility.yul\":4704:4732   */\n      and\n        /* \"#utility.yul\":4694:4732   */\n      swap1\n      pop\n        /* \"#utility.yul\":4636:4738   */\n      swap2\n      swap1\n      pop\n      jump\t// out\n        /* \"#utility.yul\":4744:4857   */\n    tag_101:\n        /* \"#utility.yul\":4825:4826   */\n      0x04\n        /* \"#utility.yul\":4818:4823   */\n      dup2\n        /* \"#utility.yul\":4815:4827   */\n      lt\n        /* \"#utility.yul\":4805:4851   */\n      tag_124\n      jumpi\n        /* \"#utility.yul\":4831:4849   */\n      tag_125\n      tag_116\n      jump\t// in\n    tag_125:\n        /* \"#utility.yul\":4805:4851   */\n    tag_124:\n        /* \"#utility.yul\":4744:4857   */\n      pop\n      jump\t// out\n        /* \"#utility.yul\":4863:4985   */\n    tag_52:\n        /* \"#utility.yul\":4936:4960   */\n      tag_127\n        /* \"#utility.yul\":4954:4959   */\n      dup2\n        /* \"#utility.yul\":4936:4960   */\n      tag_92\n      jump\t// in\n    tag_127:\n        /* \"#utility.yul\":4929:4934   */\n      dup2\n        /* \"#utility.yul\":4926:4961   */\n      eq\n        /* \"#utility.yul\":4916:4979   */\n      tag_128\n      jumpi\n        /* \"#utility.yul\":4975:4976   */\n      0x00\n        /* \"#utility.yul\":4972:4973   */\n      dup1\n        /* \"#utility.yul\":4965:4977   */\n      revert\n        /* \"#utility.yul\":4916:4979   */\n    tag_128:\n        /* \"#utility.yul\":4863:4985   */\n      pop\n      jump\t// out\n\n    auxdata: 0xa2646970667358221220301d13c25a10849388c71f5e0986b4b928ce28eed703264935424a13af3abb6e64736f6c63430008070033\n}\n",
				"bytecode": {
					"linkReferences": {},
					"object": "608060405234801561001057600080fd5b50336000806101000a81548173ffffffffffffffffffffffffffffffffffffffff021916908373ffffffffffffffffffffffffffffffffffffffff1602179055506001600460006101000a81548160ff0219169083600381111561007757610076610081565b5b02179055506100b0565b7f4e487b7100000000000000000000000000000000000000000000000000000000600052602160045260246000fd5b610588806100bf6000396000f3fe608060405234801561001057600080fd5b50600436106100885760003560e01c80638da5cb5b1161005b5780638da5cb5b1461011757806391f9015714610135578063c623674f14610153578063f5b56c561461017157610088565b8063083c63231461008d57806348cd4cb1146100ab57806362ea82db146100c95780637fb45099146100f9575b600080fd5b61009561018f565b6040516100a291906103a4565b60405180910390f35b6100b3610195565b6040516100c091906103a4565b60405180910390f35b6100e360048036038101906100de91906102b9565b61019b565b6040516100f091906103a4565b60405180910390f35b6101016101b3565b60405161010e9190610367565b60405180910390f35b61011f6101c6565b60405161012c919061034c565b60405180910390f35b61013d6101ea565b60405161014a919061034c565b60405180910390f35b61015b610210565b6040516101689190610382565b60405180910390f35b61017961029e565b60405161018691906103a4565b60405180910390f35b60025481565b60015481565b60076020528060005260406000206000915090505481565b600460009054906101000a900460ff1681565b60008054906101000a900473ffffffffffffffffffffffffffffffffffffffff1681565b600660009054906101000a900473ffffffffffffffffffffffffffffffffffffffff1681565b6003805461021d90610481565b80601f016020809104026020016040519081016040528092919081815260200182805461024990610481565b80156102965780601f1061026b57610100808354040283529160200191610296565b820191906000526020600020905b81548152906001019060200180831161027957829003601f168201915b505050505081565b60055481565b6000813590506102b38161053b565b92915050565b6000602082840312156102cf576102ce610511565b5b60006102dd848285016102a4565b91505092915050565b6102ef816103ed565b82525050565b6102fe8161043c565b82525050565b600061030f826103bf565b61031981856103ca565b935061032981856020860161044e565b61033281610516565b840191505092915050565b61034681610432565b82525050565b600060208201905061036160008301846102e6565b92915050565b600060208201905061037c60008301846102f5565b92915050565b6000602082019050818103600083015261039c8184610304565b905092915050565b60006020820190506103b9600083018461033d565b92915050565b600081519050919050565b600082825260208201905092915050565b60006103e682610412565b9050919050565b60006103f882610412565b9050919050565b600081905061040d82610527565b919050565b600073ffffffffffffffffffffffffffffffffffffffff82169050919050565b6000819050919050565b6000610447826103ff565b9050919050565b60005b8381101561046c578082015181840152602081019050610451565b8381111561047b576000848401525b50505050565b6000600282049050600182168061049957607f821691505b602082108114156104ad576104ac6104e2565b5b50919050565b7f4e487b7100000000000000000000000000000000000000000000000000000000600052602160045260246000fd5b7f4e487b7100000000000000000000000000000000000000000000000000000000600052602260045260246000fd5b600080fd5b6000601f19601f8301169050919050565b60048110610538576105376104b3565b5b50565b610544816103db565b811461054f57600080fd5b5056fea2646970667358221220301d13c25a10849388c71f5e0986b4b928ce28eed703264935424a13af3abb6e64736f6c63430008070033",
					"opcodes": "PUSH1 0x80 PUSH1 0x40 MSTORE CALLVALUE DUP1 ISZERO PUSH2 0x10 JUMPI PUSH1 0x0 DUP1 REVERT JUMPDEST POP CALLER PUSH1 0x0 DUP1 PUSH2 0x100 EXP DUP2 SLOAD DUP2 PUSH20 0xFFFFFFFFFFFFFFFFFFFFFFFFFFFFFFFFFFFFFFFF MUL NOT AND SWAP1 DUP4 PUSH20 0xFFFFFFFFFFFFFFFFFFFFFFFFFFFFFFFFFFFFFFFF AND MUL OR SWAP1 SSTORE POP PUSH1 0x1 PUSH1 0x4 PUSH1 0x0 PUSH2 0x100 EXP DUP2 SLOAD DUP2 PUSH1 0xFF MUL NOT AND SWAP1 DUP4 PUSH1 0x3 DUP2 GT ISZERO PUSH2 0x77 JUMPI PUSH2 0x76 PUSH2 0x81 JUMP JUMPDEST JUMPDEST MUL OR SWAP1 SSTORE POP PUSH2 0xB0 JUMP JUMPDEST PUSH32 0x4E487B7100000000000000000000000000000000000000000000000000000000 PUSH1 0x0 MSTORE PUSH1 0x21 PUSH1 0x4 MSTORE PUSH1 0x24 PUSH1 0x0 REVERT JUMPDEST PUSH2 0x588 DUP1 PUSH2 0xBF PUSH1 0x0 CODECOPY PUSH1 0x0 RETURN INVALID PUSH1 0x80 PUSH1 0x40 MSTORE CALLVALUE DUP1 ISZERO PUSH2 0x10 JUMPI PUSH1 0x0 DUP1 REVERT JUMPDEST POP PUSH1 0x4 CALLDATASIZE LT PUSH2 0x88 JUMPI PUSH1 0x0 CALLDATALOAD PUSH1 0xE0 SHR DUP1 PUSH4 0x8DA5CB5B GT PUSH2 0x5B JUMPI DUP1 PUSH4 0x8DA5CB5B EQ PUSH2 0x117 JUMPI DUP1 PUSH4 0x91F90157 EQ PUSH2 0x135 JUMPI DUP1 PUSH4 0xC623674F EQ PUSH2 0x153 JUMPI DUP1 PUSH4 0xF5B56C56 EQ PUSH2 0x171 JUMPI PUSH2 0x88 JUMP JUMPDEST DUP1 PUSH4 0x83C6323 EQ PUSH2 0x8D JUMPI DUP1 PUSH4 0x48CD4CB1 EQ PUSH2 0xAB JUMPI DUP1 PUSH4 0x62EA82DB EQ PUSH2 0xC9 JUMPI DUP1 PUSH4 0x7FB45099 EQ PUSH2 0xF9 JUMPI JUMPDEST PUSH1 0x0 DUP1 REVERT JUMPDEST PUSH2 0x95 PUSH2 0x18F JUMP JUMPDEST PUSH1 0x40 MLOAD PUSH2 0xA2 SWAP2 SWAP1 PUSH2 0x3A4 JUMP JUMPDEST PUSH1 0x40 MLOAD DUP1 SWAP2 SUB SWAP1 RETURN JUMPDEST PUSH2 0xB3 PUSH2 0x195 JUMP JUMPDEST PUSH1 0x40 MLOAD PUSH2 0xC0 SWAP2 SWAP1 PUSH2 0x3A4 JUMP JUMPDEST PUSH1 0x40 MLOAD DUP1 SWAP2 SUB SWAP1 RETURN JUMPDEST PUSH2 0xE3 PUSH1 0x4 DUP1 CALLDATASIZE SUB DUP2 ADD SWAP1 PUSH2 0xDE SWAP2 SWAP1 PUSH2 0x2B9 JUMP JUMPDEST PUSH2 0x19B JUMP JUMPDEST PUSH1 0x40 MLOAD PUSH2 0xF0 SWAP2 SWAP1 PUSH2 0x3A4 JUMP JUMPDEST PUSH1 0x40 MLOAD DUP1 SWAP2 SUB SWAP1 RETURN JUMPDEST PUSH2 0x101 PUSH2 0x1B3 JUMP JUMPDEST PUSH1 0x40 MLOAD PUSH2 0x10E SWAP2 SWAP1 PUSH2 0x367 JUMP JUMPDEST PUSH1 0x40 MLOAD DUP1 SWAP2 SUB SWAP1 RETURN JUMPDEST PUSH2 0x11F PUSH2 0x1C6 JUMP JUMPDEST PUSH1 0x40 MLOAD PUSH2 0x12C SWAP2 SWAP1 PUSH2 0x34C JUMP JUMPDEST PUSH1 0x40 MLOAD DUP1 SWAP2 SUB SWAP1 RETURN JUMPDEST PUSH2 0x13D PUSH2 0x1EA JUMP JUMPDEST PUSH1 0x40 MLOAD PUSH2 0x14A SWAP2 SWAP1 PUSH2 0x34C JUMP JUMPDEST PUSH1 0x40 MLOAD DUP1 SWAP2 SUB SWAP1 RETURN JUMPDEST PUSH2 0x15B PUSH2 0x210 JUMP JUMPDEST PUSH1 0x40 MLOAD PUSH2 0x168 SWAP2 SWAP1 PUSH2 0x382 JUMP JUMPDEST PUSH1 0x40 MLOAD DUP1 SWAP2 SUB SWAP1 RETURN JUMPDEST PUSH2 0x179 PUSH2 0x29E JUMP JUMPDEST PUSH1 0x40 MLOAD PUSH2 0x186 SWAP2 SWAP1 PUSH2 0x3A4 JUMP JUMPDEST PUSH1 0x40 MLOAD DUP1 SWAP2 SUB SWAP1 RETURN JUMPDEST PUSH1 0x2 SLOAD DUP2 JUMP JUMPDEST PUSH1 0x1 SLOAD DUP2 JUMP JUMPDEST PUSH1 0x7 PUSH1 0x20 MSTORE DUP1 PUSH1 0x0 MSTORE PUSH1 0x40 PUSH1 0x0 KECCAK256 PUSH1 0x0 SWAP2 POP SWAP1 POP SLOAD DUP2 JUMP JUMPDEST PUSH1 0x4 PUSH1 0x0 SWAP1 SLOAD SWAP1 PUSH2 0x100 EXP SWAP1 DIV PUSH1 0xFF AND DUP2 JUMP JUMPDEST PUSH1 0x0 DUP1 SLOAD SWAP1 PUSH2 0x100 EXP SWAP1 DIV PUSH20 0xFFFFFFFFFFFFFFFFFFFFFFFFFFFFFFFFFFFFFFFF AND DUP2 JUMP JUMPDEST PUSH1 0x6 PUSH1 0x0 SWAP1 SLOAD SWAP1 PUSH2 0x100 EXP SWAP1 DIV PUSH20 0xFFFFFFFFFFFFFFFFFFFFFFFFFFFFFFFFFFFFFFFF AND DUP2 JUMP JUMPDEST PUSH1 0x3 DUP1 SLOAD PUSH2 0x21D SWAP1 PUSH2 0x481 JUMP JUMPDEST DUP1 PUSH1 0x1F ADD PUSH1 0x20 DUP1 SWAP2 DIV MUL PUSH1 0x20 ADD PUSH1 0x40 MLOAD SWAP1 DUP2 ADD PUSH1 0x40 MSTORE DUP1 SWAP3 SWAP2 SWAP1 DUP2 DUP2 MSTORE PUSH1 0x20 ADD DUP3 DUP1 SLOAD PUSH2 0x249 SWAP1 PUSH2 0x481 JUMP JUMPDEST DUP1 ISZERO PUSH2 0x296 JUMPI DUP1 PUSH1 0x1F LT PUSH2 0x26B JUMPI PUSH2 0x100 DUP1 DUP4 SLOAD DIV MUL DUP4 MSTORE SWAP2 PUSH1 0x20 ADD SWAP2 PUSH2 0x296 JUMP JUMPDEST DUP3 ADD SWAP2 SWAP1 PUSH1 0x0 MSTORE PUSH1 0x20 PUSH1 0x0 KECCAK256 SWAP1 JUMPDEST DUP2 SLOAD DUP2 MSTORE SWAP1 PUSH1 0x1 ADD SWAP1 PUSH1 0x20 ADD DUP1 DUP4 GT PUSH2 0x279 JUMPI DUP3 SWAP1 SUB PUSH1 0x1F AND DUP3 ADD SWAP2 JUMPDEST POP POP POP POP POP DUP2 JUMP JUMPDEST PUSH1 0x5 SLOAD DUP2 JUMP JUMPDEST PUSH1 0x0 DUP2 CALLDATALOAD SWAP1 POP PUSH2 0x2B3 DUP2 PUSH2 0x53B JUMP JUMPDEST SWAP3 SWAP2 POP POP JUMP JUMPDEST PUSH1 0x0 PUSH1 0x20 DUP3 DUP5 SUB SLT ISZERO PUSH2 0x2CF JUMPI PUSH2 0x2CE PUSH2 0x511 JUMP JUMPDEST JUMPDEST PUSH1 0x0 PUSH2 0x2DD DUP5 DUP3 DUP6 ADD PUSH2 0x2A4 JUMP JUMPDEST SWAP2 POP POP SWAP3 SWAP2 POP POP JUMP JUMPDEST PUSH2 0x2EF DUP2 PUSH2 0x3ED JUMP JUMPDEST DUP3 MSTORE POP POP JUMP JUMPDEST PUSH2 0x2FE DUP2 PUSH2 0x43C JUMP JUMPDEST DUP3 MSTORE POP POP JUMP JUMPDEST PUSH1 0x0 PUSH2 0x30F DUP3 PUSH2 0x3BF JUMP JUMPDEST PUSH2 0x319 DUP2 DUP6 PUSH2 0x3CA JUMP JUMPDEST SWAP4 POP PUSH2 0x329 DUP2 DUP6 PUSH1 0x20 DUP7 ADD PUSH2 0x44E JUMP JUMPDEST PUSH2 0x332 DUP2 PUSH2 0x516 JUMP JUMPDEST DUP5 ADD SWAP2 POP POP SWAP3 SWAP2 POP POP JUMP JUMPDEST PUSH2 0x346 DUP2 PUSH2 0x432 JUMP JUMPDEST DUP3 MSTORE POP POP JUMP JUMPDEST PUSH1 0x0 PUSH1 0x20 DUP3 ADD SWAP1 POP PUSH2 0x361 PUSH1 0x0 DUP4 ADD DUP5 PUSH2 0x2E6 JUMP JUMPDEST SWAP3 SWAP2 POP POP JUMP JUMPDEST PUSH1 0x0 PUSH1 0x20 DUP3 ADD SWAP1 POP PUSH2 0x37C PUSH1 0x0 DUP4 ADD DUP5 PUSH2 0x2F5 JUMP JUMPDEST SWAP3 SWAP2 POP POP JUMP JUMPDEST PUSH1 0x0 PUSH1 0x20 DUP3 ADD SWAP1 POP DUP2 DUP2 SUB PUSH1 0x0 DUP4 ADD MSTORE PUSH2 0x39C DUP2 DUP5 PUSH2 0x304 JUMP JUMPDEST SWAP1 POP SWAP3 SWAP2 POP POP JUMP JUMPDEST PUSH1 0x0 PUSH1 0x20 DUP3 ADD SWAP1 POP PUSH2 0x3B9 PUSH1 0x0 DUP4 ADD DUP5 PUSH2 0x33D JUMP JUMPDEST SWAP3 SWAP2 POP POP JUMP JUMPDEST PUSH1 0x0 DUP2 MLOAD SWAP1 POP SWAP2 SWAP1 POP JUMP JUMPDEST PUSH1 0x0 DUP3 DUP3 MSTORE PUSH1 0x20 DUP3 ADD SWAP1 POP SWAP3 SWAP2 POP POP JUMP JUMPDEST PUSH1 0x0 PUSH2 0x3E6 DUP3 PUSH2 0x412 JUMP JUMPDEST SWAP1 POP SWAP2 SWAP1 POP JUMP JUMPDEST PUSH1 0x0 PUSH2 0x3F8 DUP3 PUSH2 0x412 JUMP JUMPDEST SWAP1 POP SWAP2 SWAP1 POP JUMP JUMPDEST PUSH1 0x0 DUP2 SWAP1 POP PUSH2 0x40D DUP3 PUSH2 0x527 JUMP JUMPDEST SWAP2 SWAP1 POP JUMP JUMPDEST PUSH1 0x0 PUSH20 0xFFFFFFFFFFFFFFFFFFFFFFFFFFFFFFFFFFFFFFFF DUP3 AND SWAP1 POP SWAP2 SWAP1 POP JUMP JUMPDEST PUSH1 0x0 DUP2 SWAP1 POP SWAP2 SWAP1 POP JUMP JUMPDEST PUSH1 0x0 PUSH2 0x447 DUP3 PUSH2 0x3FF JUMP JUMPDEST SWAP1 POP SWAP2 SWAP1 POP JUMP JUMPDEST PUSH1 0x0 JUMPDEST DUP4 DUP2 LT ISZERO PUSH2 0x46C JUMPI DUP1 DUP3 ADD MLOAD DUP2 DUP5 ADD MSTORE PUSH1 0x20 DUP2 ADD SWAP1 POP PUSH2 0x451 JUMP JUMPDEST DUP4 DUP2 GT ISZERO PUSH2 0x47B JUMPI PUSH1 0x0 DUP5 DUP5 ADD MSTORE JUMPDEST POP POP POP POP JUMP JUMPDEST PUSH1 0x0 PUSH1 0x2 DUP3 DIV SWAP1 POP PUSH1 0x1 DUP3 AND DUP1 PUSH2 0x499 JUMPI PUSH1 0x7F DUP3 AND SWAP2 POP JUMPDEST PUSH1 0x20 DUP3 LT DUP2 EQ ISZERO PUSH2 0x4AD JUMPI PUSH2 0x4AC PUSH2 0x4E2 JUMP JUMPDEST JUMPDEST POP SWAP2 SWAP1 POP JUMP JUMPDEST PUSH32 0x4E487B7100000000000000000000000000000000000000000000000000000000 PUSH1 0x0 MSTORE PUSH1 0x21 PUSH1 0x4 MSTORE PUSH1 0x24 PUSH1 0x0 REVERT JUMPDEST PUSH32 0x4E487B7100000000000000000000000000000000000000000000000000000000 PUSH1 0x0 MSTORE PUSH1 0x22 PUSH1 0x4 MSTORE PUSH1 0x24 PUSH1 0x0 REVERT JUMPDEST PUSH1 0x0 DUP1 REVERT JUMPDEST PUSH1 0x0 PUSH1 0x1F NOT PUSH1 0x1F DUP4 ADD AND SWAP1 POP SWAP2 SWAP1 POP JUMP JUMPDEST PUSH1 0x4 DUP2 LT PUSH2 0x538 JUMPI PUSH2 0x537 PUSH2 0x4B3 JUMP JUMPDEST JUMPDEST POP JUMP JUMPDEST PUSH2 0x544 DUP2 PUSH2 0x3DB JUMP JUMPDEST DUP2 EQ PUSH2 0x54F JUMPI PUSH1 0x0 DUP1 REVERT JUMPDEST POP JUMP INVALID LOG2 PUSH5 0x6970667358 0x22 SLT KECCAK256 ADDRESS SAR SGT 0xC2 GAS LT DUP5 SWAP4 DUP9 0xC7 0x1F 0x5E MULMOD DUP7 0xB4 0xB9 0x28 0xCE 0x28 0xEE 0xD7 SUB 0x26 0x49 CALLDATALOAD TIMESTAMP 0x4A SGT 0xAF GASPRICE 0xBB PUSH15 0x64736F6C6343000807003300000000 "
				},
				"gasEstimates": {
					"creation": {
						"codeDepositCost": "283200",
						"executionCost": "48889",
						"totalCost": "332089"
					},
					"external": {
						"auctionState()": "2627",
						"bids(address)": "2859",
						"endBlock()": "2430",
						"highestBidder()": "2536",
						"highestBindingBid()": "2495",
						"ipfsHash()": "infinite",
						"owner()": "2511",
						"startBlock()": "2452"
					}
				},
				"methodIdentifiers": {
					"auctionState()": "7fb45099",
					"bids(address)": "62ea82db",
					"endBlock()": "083c6323",
					"highestBidder()": "91f90157",
					"highestBindingBid()": "f5b56c56",
					"ipfsHash()": "c623674f",
					"owner()": "8da5cb5b",
					"startBlock()": "48cd4cb1"
				}
			},
			"storageLayout": {
				"storage": [
					{
						"astId": 3,
						"contract": "contracts/auction1.sol:Auction",
						"label": "owner",
						"offset": 0,
						"slot": "0",
						"type": "t_address_payable"
					},
					{
						"astId": 5,
						"contract": "contracts/auction1.sol:Auction",
						"label": "startBlock",
						"offset": 0,
						"slot": "1",
						"type": "t_uint256"
					},
					{
						"astId": 7,
						"contract": "contracts/auction1.sol:Auction",
						"label": "endBlock",
						"offset": 0,
						"slot": "2",
						"type": "t_uint256"
					},
					{
						"astId": 9,
						"contract": "contracts/auction1.sol:Auction",
						"label": "ipfsHash",
						"offset": 0,
						"slot": "3",
						"type": "t_string_storage"
					},
					{
						"astId": 17,
						"contract": "contracts/auction1.sol:Auction",
						"label": "auctionState",
						"offset": 0,
						"slot": "4",
						"type": "t_enum(State)14"
					},
					{
						"astId": 19,
						"contract": "contracts/auction1.sol:Auction",
						"label": "highestBindingBid",
						"offset": 0,
						"slot": "5",
						"type": "t_uint256"
					},
					{
						"astId": 21,
						"contract": "contracts/auction1.sol:Auction",
						"label": "highestBidder",
						"offset": 0,
						"slot": "6",
						"type": "t_address_payable"
					},
					{
						"astId": 25,
						"contract": "contracts/auction1.sol:Auction",
						"label": "bids",
						"offset": 0,
						"slot": "7",
						"type": "t_mapping(t_address,t_uint256)"
					},
					{
						"astId": 27,
						"contract": "contracts/auction1.sol:Auction",
						"label": "bidIncrement",
						"offset": 0,
						"slot": "8",
						"type": "t_uint256"
					}
				],
				"types": {
					"t_address": {
						"encoding": "inplace",
						"label": "address",
						"numberOfBytes": "20"
					},
					"t_address_payable": {
						"encoding": "inplace",
						"label": "address payable",
						"numberOfBytes": "20"
					},
					"t_enum(State)14": {
						"encoding": "inplace",
						"label": "enum Auction.State",
						"numberOfBytes": "1"
					},
					"t_mapping(t_address,t_uint256)": {
						"encoding": "mapping",
						"key": "t_address",
						"label": "mapping(address => uint256)",
						"numberOfBytes": "32",
						"value": "t_uint256"
					},
					"t_string_storage": {
						"encoding": "bytes",
						"label": "string",
						"numberOfBytes": "32"
					},
					"t_uint256": {
						"encoding": "inplace",
						"label": "uint256",
						"numberOfBytes": "32"
					}
				}
			},
			"userdoc": {
				"kind": "user",
				"methods": {},
				"version": 1
			}
		}
	}
}