{
	"contracts/erc20_state_vars.sol": {
		"PennyICO": {
			"abi": [
				{
					"inputs": [
						{
							"internalType": "address payable",
							"name": "_deposit",
							"type": "address"
						}
					],
					"stateMutability": "nonpayable",
					"type": "constructor"
				},
				{
					"anonymous": false,
					"inputs": [
						{
							"indexed": true,
							"internalType": "address",
							"name": "tokenOwner",
							"type": "address"
						},
						{
							"indexed": true,
							"internalType": "address",
							"name": "spender",
							"type": "address"
						},
						{
							"indexed": false,
							"internalType": "uint256",
							"name": "tokens",
							"type": "uint256"
						}
					],
					"name": "Approval",
					"type": "event"
				},
				{
					"anonymous": false,
					"inputs": [
						{
							"indexed": false,
							"internalType": "address",
							"name": "investor",
							"type": "address"
						},
						{
							"indexed": false,
							"internalType": "uint256",
							"name": "value",
							"type": "uint256"
						},
						{
							"indexed": false,
							"internalType": "uint256",
							"name": "tokens",
							"type": "uint256"
						}
					],
					"name": "Invest",
					"type": "event"
				},
				{
					"anonymous": false,
					"inputs": [
						{
							"indexed": true,
							"internalType": "address",
							"name": "from",
							"type": "address"
						},
						{
							"indexed": true,
							"internalType": "address",
							"name": "to",
							"type": "address"
						},
						{
							"indexed": false,
							"internalType": "uint256",
							"name": "tokens",
							"type": "uint256"
						}
					],
					"name": "Transfer",
					"type": "event"
				},
				{
					"inputs": [],
					"name": "ICOstate",
					"outputs": [
						{
							"internalType": "enum PennyICO.State",
							"name": "",
							"type": "uint8"
						}
					],
					"stateMutability": "view",
					"type": "function"
				},
				{
					"inputs": [],
					"name": "admin",
					"outputs": [
						{
							"internalType": "address",
							"name": "",
							"type": "address"
						}
					],
					"stateMutability": "view",
					"type": "function"
				},
				{
					"inputs": [
						{
							"internalType": "address",
							"name": "tokenOwner",
							"type": "address"
						},
						{
							"internalType": "address",
							"name": "spender",
							"type": "address"
						}
					],
					"name": "allowance",
					"outputs": [
						{
							"internalType": "uint256",
							"name": "",
							"type": "uint256"
						}
					],
					"stateMutability": "view",
					"type": "function"
				},
				{
					"inputs": [
						{
							"internalType": "address",
							"name": "spender",
							"type": "address"
						},
						{
							"internalType": "uint256",
							"name": "tokens",
							"type": "uint256"
						}
					],
					"name": "approve",
					"outputs": [
						{
							"internalType": "bool",
							"name": "success",
							"type": "bool"
						}
					],
					"stateMutability": "nonpayable",
					"type": "function"
				},
				{
					"inputs": [
						{
							"internalType": "address",
							"name": "tokenOwner",
							"type": "address"
						}
					],
					"name": "balanceOf",
					"outputs": [
						{
							"internalType": "uint256",
							"name": "balance",
							"type": "uint256"
						}
					],
					"stateMutability": "view",
					"type": "function"
				},
				{
					"inputs": [
						{
							"internalType": "address",
							"name": "",
							"type": "address"
						}
					],
					"name": "balances",
					"outputs": [
						{
							"internalType": "uint256",
							"name": "",
							"type": "uint256"
						}
					],
					"stateMutability": "view",
					"type": "function"
				},
				{
					"inputs": [
						{
							"internalType": "address payable",
							"name": "newDeposit",
							"type": "address"
						}
					],
					"name": "changeDepositAddress",
					"outputs": [],
					"stateMutability": "nonpayable",
					"type": "function"
				},
				{
					"inputs": [],
					"name": "decimals",
					"outputs": [
						{
							"internalType": "uint256",
							"name": "",
							"type": "uint256"
						}
					],
					"stateMutability": "view",
					"type": "function"
				},
				{
					"inputs": [],
					"name": "deposit",
					"outputs": [
						{
							"internalType": "address payable",
							"name": "",
							"type": "address"
						}
					],
					"stateMutability": "view",
					"type": "function"
				},
				{
					"inputs": [],
					"name": "founder",
					"outputs": [
						{
							"internalType": "address",
							"name": "",
							"type": "address"
						}
					],
					"stateMutability": "view",
					"type": "function"
				},
				{
					"inputs": [],
					"name": "getCurrentState",
					"outputs": [
						{
							"internalType": "enum PennyICO.State",
							"name": "",
							"type": "uint8"
						}
					],
					"stateMutability": "view",
					"type": "function"
				},
				{
					"inputs": [],
					"name": "halt",
					"outputs": [],
					"stateMutability": "nonpayable",
					"type": "function"
				},
				{
					"inputs": [],
					"name": "hardCap",
					"outputs": [
						{
							"internalType": "uint256",
							"name": "",
							"type": "uint256"
						}
					],
					"stateMutability": "view",
					"type": "function"
				},
				{
					"inputs": [],
					"name": "invest",
					"outputs": [
						{
							"internalType": "bool",
							"name": "",
							"type": "bool"
						}
					],
					"stateMutability": "payable",
					"type": "function"
				},
				{
					"inputs": [],
					"name": "maxInvestment",
					"outputs": [
						{
							"internalType": "uint256",
							"name": "",
							"type": "uint256"
						}
					],
					"stateMutability": "view",
					"type": "function"
				},
				{
					"inputs": [],
					"name": "minInvestment",
					"outputs": [
						{
							"internalType": "uint256",
							"name": "",
							"type": "uint256"
						}
					],
					"stateMutability": "view",
					"type": "function"
				},
				{
					"inputs": [],
					"name": "name",
					"outputs": [
						{
							"internalType": "string",
							"name": "",
							"type": "string"
						}
					],
					"stateMutability": "view",
					"type": "function"
				},
				{
					"inputs": [],
					"name": "raisedAmount",
					"outputs": [
						{
							"internalType": "uint256",
							"name": "",
							"type": "uint256"
						}
					],
					"stateMutability": "view",
					"type": "function"
				},
				{
					"inputs": [],
					"name": "resume",
					"outputs": [],
					"stateMutability": "nonpayable",
					"type": "function"
				},
				{
					"inputs": [],
					"name": "saleEnd",
					"outputs": [
						{
							"internalType": "uint256",
							"name": "",
							"type": "uint256"
						}
					],
					"stateMutability": "view",
					"type": "function"
				},
				{
					"inputs": [],
					"name": "saleStart",
					"outputs": [
						{
							"internalType": "uint256",
							"name": "",
							"type": "uint256"
						}
					],
					"stateMutability": "view",
					"type": "function"
				},
				{
					"inputs": [],
					"name": "symbol",
					"outputs": [
						{
							"internalType": "string",
							"name": "",
							"type": "string"
						}
					],
					"stateMutability": "view",
					"type": "function"
				},
				{
					"inputs": [],
					"name": "tokenTradeStart",
					"outputs": [
						{
							"internalType": "uint256",
							"name": "",
							"type": "uint256"
						}
					],
					"stateMutability": "view",
					"type": "function"
				},
				{
					"inputs": [],
					"name": "totalSupply",
					"outputs": [
						{
							"internalType": "uint256",
							"name": "",
							"type": "uint256"
						}
					],
					"stateMutability": "view",
					"type": "function"
				},
				{
					"inputs": [
						{
							"internalType": "address",
							"name": "to",
							"type": "address"
						},
						{
							"internalType": "uint256",
							"name": "tokens",
							"type": "uint256"
						}
					],
					"name": "transfer",
					"outputs": [
						{
							"internalType": "bool",
							"name": "success",
							"type": "bool"
						}
					],
					"stateMutability": "nonpayable",
					"type": "function"
				},
				{
					"inputs": [
						{
							"internalType": "address",
							"name": "from",
							"type": "address"
						},
						{
							"internalType": "address",
							"name": "to",
							"type": "address"
						},
						{
							"internalType": "uint256",
							"name": "tokens",
							"type": "uint256"
						}
					],
					"name": "transferFrom",
					"outputs": [
						{
							"internalType": "bool",
							"name": "",
							"type": "bool"
						}
					],
					"stateMutability": "nonpayable",
					"type": "function"
				},
				{
					"stateMutability": "payable",
					"type": "receive"
				}
			],
			"devdoc": {
				"kind": "dev",
				"methods": {},
				"version": 1
			},
			"evm": {
				"assembly": "    /* \"contracts/erc20_state_vars.sol\":4684:9269  contract PennyICO is Pennies {\r... */\n  mstore(0x40, 0x80)\n    /* \"contracts/erc20_state_vars.sol\":1144:1180  string public name = \"Penny Pennies\" */\n  mload(0x40)\n  dup1\n  0x40\n  add\n  0x40\n  mstore\n  dup1\n  0x0d\n  dup2\n  mstore\n  0x20\n  add\n  0x50656e6e792050656e6e69657300000000000000000000000000000000000000\n  dup2\n  mstore\n  pop\n  0x00\n  swap1\n  dup1\n  mload\n  swap1\n  0x20\n  add\n  swap1\n  tag_1\n  swap3\n  swap2\n  swap1\n  tag_2\n  jump\t// in\ntag_1:\n  pop\n    /* \"contracts/erc20_state_vars.sol\":1187:1217  string public symbol = \"PENNY\" */\n  mload(0x40)\n  dup1\n  0x40\n  add\n  0x40\n  mstore\n  dup1\n  0x05\n  dup2\n  mstore\n  0x20\n  add\n  0x50454e4e59000000000000000000000000000000000000000000000000000000\n  dup2\n  mstore\n  pop\n  0x01\n  swap1\n  dup1\n  mload\n  swap1\n  0x20\n  add\n  swap1\n  tag_3\n  swap3\n  swap2\n  swap1\n  tag_2\n  jump\t// in\ntag_3:\n  pop\n    /* \"contracts/erc20_state_vars.sol\":1247:1248  0 */\n  0x00\n    /* \"contracts/erc20_state_vars.sol\":1224:1248  uint public decimals = 0 */\n  0x02\n  sstore\n    /* \"contracts/erc20_state_vars.sol\":4884:4898  0.000001 ether */\n  0xe8d4a51000\n    /* \"contracts/erc20_state_vars.sol\":4866:4898  uint tokenPrice = 0.000001 ether */\n  0x09\n  sstore\n    /* \"contracts/erc20_state_vars.sol\":4982:4991  300 ether */\n  0x1043561a8829300000\n    /* \"contracts/erc20_state_vars.sol\":4960:4991  uint public hardCap = 300 ether */\n  0x0a\n  sstore\n    /* \"contracts/erc20_state_vars.sol\":5132:5134  10 */\n  0x0a\n    /* \"contracts/erc20_state_vars.sol\":5114:5129  block.timestamp */\n  timestamp\n    /* \"contracts/erc20_state_vars.sol\":5114:5134  block.timestamp + 10 */\n  tag_4\n  swap2\n  swap1\n  tag_5\n  jump\t// in\ntag_4:\n    /* \"contracts/erc20_state_vars.sol\":5090:5134  uint public saleStart = block.timestamp + 10 */\n  0x0c\n  sstore\n    /* \"contracts/erc20_state_vars.sol\":5219:5232  3600 * 24 * 7 */\n  0x093a80\n    /* \"contracts/erc20_state_vars.sol\":5201:5216  block.timestamp */\n  timestamp\n    /* \"contracts/erc20_state_vars.sol\":5201:5232  block.timestamp + 3600 * 24 * 7 */\n  tag_6\n  swap2\n  swap1\n  tag_5\n  jump\t// in\ntag_6:\n    /* \"contracts/erc20_state_vars.sol\":5179:5232  uint public saleEnd = block.timestamp + 3600 * 24 * 7 */\n  0x0d\n  sstore\n    /* \"contracts/erc20_state_vars.sol\":5373:5379  604800 */\n  0x093a80\n    /* \"contracts/erc20_state_vars.sol\":5363:5370  saleEnd */\n  sload(0x0d)\n    /* \"contracts/erc20_state_vars.sol\":5363:5379  saleEnd + 604800 */\n  tag_7\n  swap2\n  swap1\n  tag_5\n  jump\t// in\ntag_7:\n    /* \"contracts/erc20_state_vars.sol\":5333:5379  uint public tokenTradeStart = saleEnd + 604800 */\n  0x0e\n  sstore\n    /* \"contracts/erc20_state_vars.sol\":5463:5470  5 ether */\n  0x4563918244f40000\n    /* \"contracts/erc20_state_vars.sol\":5435:5470  uint public maxInvestment = 5 ether */\n  0x0f\n  sstore\n    /* \"contracts/erc20_state_vars.sol\":5505:5518  0.00001 ether */\n  0x09184e72a000\n    /* \"contracts/erc20_state_vars.sol\":5477:5518  uint public minInvestment = 0.00001 ether */\n  0x10\n  sstore\n    /* \"contracts/erc20_state_vars.sol\":5777:5919  constructor(address payable _deposit){\r... */\n  callvalue\n  dup1\n  iszero\n  tag_8\n  jumpi\n  0x00\n  dup1\n  revert\ntag_8:\n  pop\n  mload(0x40)\n  sub(codesize, bytecodeSize)\n  dup1\n  bytecodeSize\n  dup4\n  codecopy\n  dup2\n  dup2\n  add\n  0x40\n  mstore\n  dup2\n  add\n  swap1\n  tag_9\n  swap2\n  swap1\n  tag_10\n  jump\t// in\ntag_9:\n    /* \"contracts/erc20_state_vars.sol\":1930:1937  1000000 */\n  0x0f4240\n    /* \"contracts/erc20_state_vars.sol\":1916:1927  totalSupply */\n  0x03\n    /* \"contracts/erc20_state_vars.sol\":1916:1937  totalSupply = 1000000 */\n  dup2\n  swap1\n  sstore\n  pop\n    /* \"contracts/erc20_state_vars.sol\":2013:2023  msg.sender */\n  caller\n    /* \"contracts/erc20_state_vars.sol\":2003:2010  founder */\n  0x04\n  0x00\n    /* \"contracts/erc20_state_vars.sol\":2003:2023  founder = msg.sender */\n  0x0100\n  exp\n  dup2\n  sload\n  dup2\n  0xffffffffffffffffffffffffffffffffffffffff\n  mul\n  not\n  and\n  swap1\n  dup4\n  0xffffffffffffffffffffffffffffffffffffffff\n  and\n  mul\n  or\n  swap1\n  sstore\n  pop\n    /* \"contracts/erc20_state_vars.sol\":2133:2144  totalSupply */\n  sload(0x03)\n    /* \"contracts/erc20_state_vars.sol\":2113:2121  balances */\n  0x05\n    /* \"contracts/erc20_state_vars.sol\":2113:2130  balances[founder] */\n  0x00\n    /* \"contracts/erc20_state_vars.sol\":2122:2129  founder */\n  0x04\n  0x00\n  swap1\n  sload\n  swap1\n  0x0100\n  exp\n  swap1\n  div\n  0xffffffffffffffffffffffffffffffffffffffff\n  and\n    /* \"contracts/erc20_state_vars.sol\":2113:2130  balances[founder] */\n  0xffffffffffffffffffffffffffffffffffffffff\n  and\n  0xffffffffffffffffffffffffffffffffffffffff\n  and\n  dup2\n  mstore\n  0x20\n  add\n  swap1\n  dup2\n  mstore\n  0x20\n  add\n  0x00\n  keccak256\n    /* \"contracts/erc20_state_vars.sol\":2113:2144  balances[founder] = totalSupply */\n  dup2\n  swap1\n  sstore\n  pop\n    /* \"contracts/erc20_state_vars.sol\":5835:5843  _deposit */\n  dup1\n    /* \"contracts/erc20_state_vars.sol\":5825:5832  deposit */\n  0x08\n  0x00\n    /* \"contracts/erc20_state_vars.sol\":5825:5843  deposit = _deposit */\n  0x0100\n  exp\n  dup2\n  sload\n  dup2\n  0xffffffffffffffffffffffffffffffffffffffff\n  mul\n  not\n  and\n  swap1\n  dup4\n  0xffffffffffffffffffffffffffffffffffffffff\n  and\n  mul\n  or\n  swap1\n  sstore\n  pop\n    /* \"contracts/erc20_state_vars.sol\":5862:5872  msg.sender */\n  caller\n    /* \"contracts/erc20_state_vars.sol\":5854:5859  admin */\n  0x07\n  0x00\n    /* \"contracts/erc20_state_vars.sol\":5854:5872  admin = msg.sender */\n  0x0100\n  exp\n  dup2\n  sload\n  dup2\n  0xffffffffffffffffffffffffffffffffffffffff\n  mul\n  not\n  and\n  swap1\n  dup4\n  0xffffffffffffffffffffffffffffffffffffffff\n  and\n  mul\n  or\n  swap1\n  sstore\n  pop\n    /* \"contracts/erc20_state_vars.sol\":5894:5911  State.beforeStart */\n  0x00\n    /* \"contracts/erc20_state_vars.sol\":5883:5891  ICOstate */\n  0x11\n  0x00\n    /* \"contracts/erc20_state_vars.sol\":5883:5911  ICOstate = State.beforeStart */\n  0x0100\n  exp\n  dup2\n  sload\n  dup2\n  0xff\n  mul\n  not\n  and\n  swap1\n  dup4\n  0x03\n  dup2\n  gt\n  iszero\n  tag_15\n  jumpi\n  tag_16\n  tag_17\n  jump\t// in\ntag_16:\ntag_15:\n  mul\n  or\n  swap1\n  sstore\n  pop\n    /* \"contracts/erc20_state_vars.sol\":5777:5919  constructor(address payable _deposit){\r... */\n  pop\n    /* \"contracts/erc20_state_vars.sol\":4684:9269  contract PennyICO is Pennies {\r... */\n  jump(tag_18)\ntag_2:\n  dup3\n  dup1\n  sload\n  tag_19\n  swap1\n  tag_20\n  jump\t// in\ntag_19:\n  swap1\n  0x00\n  mstore\n  keccak256(0x00, 0x20)\n  swap1\n  0x1f\n  add\n  0x20\n  swap1\n  div\n  dup2\n  add\n  swap3\n  dup3\n  tag_22\n  jumpi\n  0x00\n  dup6\n  sstore\n  jump(tag_21)\ntag_22:\n  dup3\n  0x1f\n  lt\n  tag_23\n  jumpi\n  dup1\n  mload\n  not(0xff)\n  and\n  dup4\n  dup1\n  add\n  or\n  dup6\n  sstore\n  jump(tag_21)\ntag_23:\n  dup3\n  dup1\n  add\n  0x01\n  add\n  dup6\n  sstore\n  dup3\n  iszero\n  tag_21\n  jumpi\n  swap2\n  dup3\n  add\ntag_24:\n  dup3\n  dup2\n  gt\n  iszero\n  tag_25\n  jumpi\n  dup3\n  mload\n  dup3\n  sstore\n  swap2\n  0x20\n  add\n  swap2\n  swap1\n  0x01\n  add\n  swap1\n  jump(tag_24)\ntag_25:\ntag_21:\n  pop\n  swap1\n  pop\n  tag_26\n  swap2\n  swap1\n  tag_27\n  jump\t// in\ntag_26:\n  pop\n  swap1\n  jump\t// out\ntag_27:\ntag_28:\n  dup1\n  dup3\n  gt\n  iszero\n  tag_29\n  jumpi\n  0x00\n  dup2\n  0x00\n  swap1\n  sstore\n  pop\n  0x01\n  add\n  jump(tag_28)\ntag_29:\n  pop\n  swap1\n  jump\t// out\n    /* \"#utility.yul\":7:166   */\ntag_31:\n    /* \"#utility.yul\":72:77   */\n  0x00\n    /* \"#utility.yul\":103:109   */\n  dup2\n    /* \"#utility.yul\":97:110   */\n  mload\n    /* \"#utility.yul\":88:110   */\n  swap1\n  pop\n    /* \"#utility.yul\":119:160   */\n  tag_33\n    /* \"#utility.yul\":154:159   */\n  dup2\n    /* \"#utility.yul\":119:160   */\n  tag_34\n  jump\t// in\ntag_33:\n    /* \"#utility.yul\":7:166   */\n  swap3\n  swap2\n  pop\n  pop\n  jump\t// out\n    /* \"#utility.yul\":172:539   */\ntag_10:\n    /* \"#utility.yul\":250:256   */\n  0x00\n    /* \"#utility.yul\":299:301   */\n  0x20\n    /* \"#utility.yul\":287:296   */\n  dup3\n    /* \"#utility.yul\":278:285   */\n  dup5\n    /* \"#utility.yul\":274:297   */\n  sub\n    /* \"#utility.yul\":270:302   */\n  slt\n    /* \"#utility.yul\":267:386   */\n  iszero\n  tag_36\n  jumpi\n    /* \"#utility.yul\":305:384   */\n  tag_37\n  tag_38\n  jump\t// in\ntag_37:\n    /* \"#utility.yul\":267:386   */\ntag_36:\n    /* \"#utility.yul\":425:426   */\n  0x00\n    /* \"#utility.yul\":450:522   */\n  tag_39\n    /* \"#utility.yul\":514:521   */\n  dup5\n    /* \"#utility.yul\":505:511   */\n  dup3\n    /* \"#utility.yul\":494:503   */\n  dup6\n    /* \"#utility.yul\":490:512   */\n  add\n    /* \"#utility.yul\":450:522   */\n  tag_31\n  jump\t// in\ntag_39:\n    /* \"#utility.yul\":440:522   */\n  swap2\n  pop\n    /* \"#utility.yul\":396:532   */\n  pop\n    /* \"#utility.yul\":172:539   */\n  swap3\n  swap2\n  pop\n  pop\n  jump\t// out\n    /* \"#utility.yul\":626:931   */\ntag_5:\n    /* \"#utility.yul\":666:669   */\n  0x00\n    /* \"#utility.yul\":685:705   */\n  tag_43\n    /* \"#utility.yul\":703:704   */\n  dup3\n    /* \"#utility.yul\":685:705   */\n  tag_44\n  jump\t// in\ntag_43:\n    /* \"#utility.yul\":680:705   */\n  swap2\n  pop\n    /* \"#utility.yul\":719:739   */\n  tag_45\n    /* \"#utility.yul\":737:738   */\n  dup4\n    /* \"#utility.yul\":719:739   */\n  tag_44\n  jump\t// in\ntag_45:\n    /* \"#utility.yul\":714:739   */\n  swap3\n  pop\n    /* \"#utility.yul\":873:874   */\n  dup3\n    /* \"#utility.yul\":805:871   */\n  0xffffffffffffffffffffffffffffffffffffffffffffffffffffffffffffffff\n    /* \"#utility.yul\":801:875   */\n  sub\n    /* \"#utility.yul\":798:799   */\n  dup3\n    /* \"#utility.yul\":795:876   */\n  gt\n    /* \"#utility.yul\":792:899   */\n  iszero\n  tag_46\n  jumpi\n    /* \"#utility.yul\":879:897   */\n  tag_47\n  tag_48\n  jump\t// in\ntag_47:\n    /* \"#utility.yul\":792:899   */\ntag_46:\n    /* \"#utility.yul\":923:924   */\n  dup3\n    /* \"#utility.yul\":920:921   */\n  dup3\n    /* \"#utility.yul\":916:925   */\n  add\n    /* \"#utility.yul\":909:925   */\n  swap1\n  pop\n    /* \"#utility.yul\":626:931   */\n  swap3\n  swap2\n  pop\n  pop\n  jump\t// out\n    /* \"#utility.yul\":937:1041   */\ntag_49:\n    /* \"#utility.yul\":982:989   */\n  0x00\n    /* \"#utility.yul\":1011:1035   */\n  tag_51\n    /* \"#utility.yul\":1029:1034   */\n  dup3\n    /* \"#utility.yul\":1011:1035   */\n  tag_52\n  jump\t// in\ntag_51:\n    /* \"#utility.yul\":1000:1035   */\n  swap1\n  pop\n    /* \"#utility.yul\":937:1041   */\n  swap2\n  swap1\n  pop\n  jump\t// out\n    /* \"#utility.yul\":1047:1173   */\ntag_52:\n    /* \"#utility.yul\":1084:1091   */\n  0x00\n    /* \"#utility.yul\":1124:1166   */\n  0xffffffffffffffffffffffffffffffffffffffff\n    /* \"#utility.yul\":1117:1122   */\n  dup3\n    /* \"#utility.yul\":1113:1167   */\n  and\n    /* \"#utility.yul\":1102:1167   */\n  swap1\n  pop\n    /* \"#utility.yul\":1047:1173   */\n  swap2\n  swap1\n  pop\n  jump\t// out\n    /* \"#utility.yul\":1179:1256   */\ntag_44:\n    /* \"#utility.yul\":1216:1223   */\n  0x00\n    /* \"#utility.yul\":1245:1250   */\n  dup2\n    /* \"#utility.yul\":1234:1250   */\n  swap1\n  pop\n    /* \"#utility.yul\":1179:1256   */\n  swap2\n  swap1\n  pop\n  jump\t// out\n    /* \"#utility.yul\":1262:1582   */\ntag_20:\n    /* \"#utility.yul\":1306:1312   */\n  0x00\n    /* \"#utility.yul\":1343:1344   */\n  0x02\n    /* \"#utility.yul\":1337:1341   */\n  dup3\n    /* \"#utility.yul\":1333:1345   */\n  div\n    /* \"#utility.yul\":1323:1345   */\n  swap1\n  pop\n    /* \"#utility.yul\":1390:1391   */\n  0x01\n    /* \"#utility.yul\":1384:1388   */\n  dup3\n    /* \"#utility.yul\":1380:1392   */\n  and\n    /* \"#utility.yul\":1411:1429   */\n  dup1\n    /* \"#utility.yul\":1401:1482   */\n  tag_56\n  jumpi\n    /* \"#utility.yul\":1467:1471   */\n  0x7f\n    /* \"#utility.yul\":1459:1465   */\n  dup3\n    /* \"#utility.yul\":1455:1472   */\n  and\n    /* \"#utility.yul\":1445:1472   */\n  swap2\n  pop\n    /* \"#utility.yul\":1401:1482   */\ntag_56:\n    /* \"#utility.yul\":1529:1531   */\n  0x20\n    /* \"#utility.yul\":1521:1527   */\n  dup3\n    /* \"#utility.yul\":1518:1532   */\n  lt\n    /* \"#utility.yul\":1498:1516   */\n  dup2\n    /* \"#utility.yul\":1495:1533   */\n  eq\n    /* \"#utility.yul\":1492:1576   */\n  iszero\n  tag_57\n  jumpi\n    /* \"#utility.yul\":1548:1566   */\n  tag_58\n  tag_59\n  jump\t// in\ntag_58:\n    /* \"#utility.yul\":1492:1576   */\ntag_57:\n    /* \"#utility.yul\":1313:1582   */\n  pop\n    /* \"#utility.yul\":1262:1582   */\n  swap2\n  swap1\n  pop\n  jump\t// out\n    /* \"#utility.yul\":1588:1768   */\ntag_48:\n    /* \"#utility.yul\":1636:1713   */\n  0x4e487b7100000000000000000000000000000000000000000000000000000000\n    /* \"#utility.yul\":1633:1634   */\n  0x00\n    /* \"#utility.yul\":1626:1714   */\n  mstore\n    /* \"#utility.yul\":1733:1737   */\n  0x11\n    /* \"#utility.yul\":1730:1731   */\n  0x04\n    /* \"#utility.yul\":1723:1738   */\n  mstore\n    /* \"#utility.yul\":1757:1761   */\n  0x24\n    /* \"#utility.yul\":1754:1755   */\n  0x00\n    /* \"#utility.yul\":1747:1762   */\n  revert\n    /* \"#utility.yul\":1774:1954   */\ntag_17:\n    /* \"#utility.yul\":1822:1899   */\n  0x4e487b7100000000000000000000000000000000000000000000000000000000\n    /* \"#utility.yul\":1819:1820   */\n  0x00\n    /* \"#utility.yul\":1812:1900   */\n  mstore\n    /* \"#utility.yul\":1919:1923   */\n  0x21\n    /* \"#utility.yul\":1916:1917   */\n  0x04\n    /* \"#utility.yul\":1909:1924   */\n  mstore\n    /* \"#utility.yul\":1943:1947   */\n  0x24\n    /* \"#utility.yul\":1940:1941   */\n  0x00\n    /* \"#utility.yul\":1933:1948   */\n  revert\n    /* \"#utility.yul\":1960:2140   */\ntag_59:\n    /* \"#utility.yul\":2008:2085   */\n  0x4e487b7100000000000000000000000000000000000000000000000000000000\n    /* \"#utility.yul\":2005:2006   */\n  0x00\n    /* \"#utility.yul\":1998:2086   */\n  mstore\n    /* \"#utility.yul\":2105:2109   */\n  0x22\n    /* \"#utility.yul\":2102:2103   */\n  0x04\n    /* \"#utility.yul\":2095:2110   */\n  mstore\n    /* \"#utility.yul\":2129:2133   */\n  0x24\n    /* \"#utility.yul\":2126:2127   */\n  0x00\n    /* \"#utility.yul\":2119:2134   */\n  revert\n    /* \"#utility.yul\":2269:2386   */\ntag_38:\n    /* \"#utility.yul\":2378:2379   */\n  0x00\n    /* \"#utility.yul\":2375:2376   */\n  dup1\n    /* \"#utility.yul\":2368:2380   */\n  revert\n    /* \"#utility.yul\":2392:2530   */\ntag_34:\n    /* \"#utility.yul\":2473:2505   */\n  tag_67\n    /* \"#utility.yul\":2499:2504   */\n  dup2\n    /* \"#utility.yul\":2473:2505   */\n  tag_49\n  jump\t// in\ntag_67:\n    /* \"#utility.yul\":2466:2471   */\n  dup2\n    /* \"#utility.yul\":2463:2506   */\n  eq\n    /* \"#utility.yul\":2453:2524   */\n  tag_68\n  jumpi\n    /* \"#utility.yul\":2520:2521   */\n  0x00\n    /* \"#utility.yul\":2517:2518   */\n  dup1\n    /* \"#utility.yul\":2510:2522   */\n  revert\n    /* \"#utility.yul\":2453:2524   */\ntag_68:\n    /* \"#utility.yul\":2392:2530   */\n  pop\n  jump\t// out\n    /* \"contracts/erc20_state_vars.sol\":4684:9269  contract PennyICO is Pennies {\r... */\ntag_18:\n  dataSize(sub_0)\n  dup1\n  dataOffset(sub_0)\n  0x00\n  codecopy\n  0x00\n  return\nstop\n\nsub_0: assembly {\n        /* \"contracts/erc20_state_vars.sol\":4684:9269  contract PennyICO is Pennies {\r... */\n      mstore(0x40, 0x80)\n      jumpi(tag_1, lt(calldatasize, 0x04))\n      shr(0xe0, calldataload(0x00))\n      dup1\n      0x70a08231\n      gt\n      tag_29\n      jumpi\n      dup1\n      0xc59ee1dc\n      gt\n      tag_30\n      jumpi\n      dup1\n      0xdd62ed3e\n      gt\n      tag_31\n      jumpi\n      dup1\n      0xdd62ed3e\n      eq\n      tag_25\n      jumpi\n      dup1\n      0xe8b5e51f\n      eq\n      tag_26\n      jumpi\n      dup1\n      0xf851a440\n      eq\n      tag_27\n      jumpi\n      dup1\n      0xfb86a404\n      eq\n      tag_28\n      jumpi\n      jump(tag_2)\n    tag_31:\n      dup1\n      0xc59ee1dc\n      eq\n      tag_22\n      jumpi\n      dup1\n      0xcc9ba583\n      eq\n      tag_23\n      jumpi\n      dup1\n      0xd0e30db0\n      eq\n      tag_24\n      jumpi\n      jump(tag_2)\n    tag_30:\n      dup1\n      0x70a08231\n      eq\n      tag_16\n      jumpi\n      dup1\n      0x8ac2c680\n      eq\n      tag_17\n      jumpi\n      dup1\n      0x95d89b41\n      eq\n      tag_18\n      jumpi\n      dup1\n      0xa9059cbb\n      eq\n      tag_19\n      jumpi\n      dup1\n      0xab0bcc41\n      eq\n      tag_20\n      jumpi\n      dup1\n      0xc10b9358\n      eq\n      tag_21\n      jumpi\n      jump(tag_2)\n    tag_29:\n      dup1\n      0x27e235e3\n      gt\n      tag_32\n      jumpi\n      dup1\n      0x3a2c7a37\n      gt\n      tag_33\n      jumpi\n      dup1\n      0x3a2c7a37\n      eq\n      tag_12\n      jumpi\n      dup1\n      0x4d853ee5\n      eq\n      tag_13\n      jumpi\n      dup1\n      0x5ed7ca5b\n      eq\n      tag_14\n      jumpi\n      dup1\n      0x6d58c88f\n      eq\n      tag_15\n      jumpi\n      jump(tag_2)\n    tag_33:\n      dup1\n      0x27e235e3\n      eq\n      tag_9\n      jumpi\n      dup1\n      0x313ce567\n      eq\n      tag_10\n      jumpi\n      dup1\n      0x378aa701\n      eq\n      tag_11\n      jumpi\n      jump(tag_2)\n    tag_32:\n      dup1\n      0x2e1316\n      eq\n      tag_3\n      jumpi\n      dup1\n      0x046f7da2\n      eq\n      tag_4\n      jumpi\n      dup1\n      0x06fdde03\n      eq\n      tag_5\n      jumpi\n      dup1\n      0x095ea7b3\n      eq\n      tag_6\n      jumpi\n      dup1\n      0x18160ddd\n      eq\n      tag_7\n      jumpi\n      dup1\n      0x23b872dd\n      eq\n      tag_8\n      jumpi\n      jump(tag_2)\n    tag_1:\n      jumpi(tag_2, calldatasize)\n        /* \"contracts/erc20_state_vars.sol\":8440:8448  invest() */\n      tag_36\n        /* \"contracts/erc20_state_vars.sol\":8440:8446  invest */\n      tag_37\n        /* \"contracts/erc20_state_vars.sol\":8440:8448  invest() */\n      jump\t// in\n    tag_36:\n      pop\n        /* \"contracts/erc20_state_vars.sol\":4684:9269  contract PennyICO is Pennies {\r... */\n      stop\n    tag_2:\n      0x00\n      dup1\n      revert\n        /* \"contracts/erc20_state_vars.sol\":5435:5470  uint public maxInvestment = 5 ether */\n    tag_3:\n      callvalue\n      dup1\n      iszero\n      tag_38\n      jumpi\n      0x00\n      dup1\n      revert\n    tag_38:\n      pop\n      tag_39\n      tag_40\n      jump\t// in\n    tag_39:\n      mload(0x40)\n      tag_41\n      swap2\n      swap1\n      tag_42\n      jump\t// in\n    tag_41:\n      mload(0x40)\n      dup1\n      swap2\n      sub\n      swap1\n      return\n        /* \"contracts/erc20_state_vars.sol\":6241:6318  function resume() public onlyAdmin{\r... */\n    tag_4:\n      callvalue\n      dup1\n      iszero\n      tag_43\n      jumpi\n      0x00\n      dup1\n      revert\n    tag_43:\n      pop\n      tag_44\n      tag_45\n      jump\t// in\n    tag_44:\n      stop\n        /* \"contracts/erc20_state_vars.sol\":1144:1180  string public name = \"Penny Pennies\" */\n    tag_5:\n      callvalue\n      dup1\n      iszero\n      tag_46\n      jumpi\n      0x00\n      dup1\n      revert\n    tag_46:\n      pop\n      tag_47\n      tag_48\n      jump\t// in\n    tag_47:\n      mload(0x40)\n      tag_49\n      swap2\n      swap1\n      tag_50\n      jump\t// in\n    tag_49:\n      mload(0x40)\n      dup1\n      swap2\n      sub\n      swap1\n      return\n        /* \"contracts/erc20_state_vars.sol\":3271:3883  function approve(address spender, uint tokens) public override returns (bool success){\r... */\n    tag_6:\n      callvalue\n      dup1\n      iszero\n      tag_51\n      jumpi\n      0x00\n      dup1\n      revert\n    tag_51:\n      pop\n      tag_52\n      0x04\n      dup1\n      calldatasize\n      sub\n      dup2\n      add\n      swap1\n      tag_53\n      swap2\n      swap1\n      tag_54\n      jump\t// in\n    tag_53:\n      tag_55\n      jump\t// in\n    tag_52:\n      mload(0x40)\n      tag_56\n      swap2\n      swap1\n      tag_57\n      jump\t// in\n    tag_56:\n      mload(0x40)\n      dup1\n      swap2\n      sub\n      swap1\n      return\n        /* \"contracts/erc20_state_vars.sol\":1333:1365  uint public override totalSupply */\n    tag_7:\n      callvalue\n      dup1\n      iszero\n      tag_58\n      jumpi\n      0x00\n      dup1\n      revert\n    tag_58:\n      pop\n      tag_59\n      tag_60\n      jump\t// in\n    tag_59:\n      mload(0x40)\n      tag_61\n      swap2\n      swap1\n      tag_42\n      jump\t// in\n    tag_61:\n      mload(0x40)\n      dup1\n      swap2\n      sub\n      swap1\n      return\n        /* \"contracts/erc20_state_vars.sol\":8958:9185  function transferFrom(address from, address to, uint tokens) public override returns (bool){\r... */\n    tag_8:\n      callvalue\n      dup1\n      iszero\n      tag_62\n      jumpi\n      0x00\n      dup1\n      revert\n    tag_62:\n      pop\n      tag_63\n      0x04\n      dup1\n      calldatasize\n      sub\n      dup2\n      add\n      swap1\n      tag_64\n      swap2\n      swap1\n      tag_65\n      jump\t// in\n    tag_64:\n      tag_66\n      jump\t// in\n    tag_63:\n      mload(0x40)\n      tag_67\n      swap2\n      swap1\n      tag_57\n      jump\t// in\n    tag_67:\n      mload(0x40)\n      dup1\n      swap2\n      sub\n      swap1\n      return\n        /* \"contracts/erc20_state_vars.sol\":1503:1544  mapping (address => uint) public balances */\n    tag_9:\n      callvalue\n      dup1\n      iszero\n      tag_68\n      jumpi\n      0x00\n      dup1\n      revert\n    tag_68:\n      pop\n      tag_69\n      0x04\n      dup1\n      calldatasize\n      sub\n      dup2\n      add\n      swap1\n      tag_70\n      swap2\n      swap1\n      tag_71\n      jump\t// in\n    tag_70:\n      tag_72\n      jump\t// in\n    tag_69:\n      mload(0x40)\n      tag_73\n      swap2\n      swap1\n      tag_42\n      jump\t// in\n    tag_73:\n      mload(0x40)\n      dup1\n      swap2\n      sub\n      swap1\n      return\n        /* \"contracts/erc20_state_vars.sol\":1224:1248  uint public decimals = 0 */\n    tag_10:\n      callvalue\n      dup1\n      iszero\n      tag_74\n      jumpi\n      0x00\n      dup1\n      revert\n    tag_74:\n      pop\n      tag_75\n      tag_76\n      jump\t// in\n    tag_75:\n      mload(0x40)\n      tag_77\n      swap2\n      swap1\n      tag_42\n      jump\t// in\n    tag_77:\n      mload(0x40)\n      dup1\n      swap2\n      sub\n      swap1\n      return\n        /* \"contracts/erc20_state_vars.sol\":6575:7014  function getCurrentState() public view returns(State){\r... */\n    tag_11:\n      callvalue\n      dup1\n      iszero\n      tag_78\n      jumpi\n      0x00\n      dup1\n      revert\n    tag_78:\n      pop\n      tag_79\n      tag_80\n      jump\t// in\n    tag_79:\n      mload(0x40)\n      tag_81\n      swap2\n      swap1\n      tag_82\n      jump\t// in\n    tag_81:\n      mload(0x40)\n      dup1\n      swap2\n      sub\n      swap1\n      return\n        /* \"contracts/erc20_state_vars.sol\":5707:5728  State public ICOstate */\n    tag_12:\n      callvalue\n      dup1\n      iszero\n      tag_83\n      jumpi\n      0x00\n      dup1\n      revert\n    tag_83:\n      pop\n      tag_84\n      tag_85\n      jump\t// in\n    tag_84:\n      mload(0x40)\n      tag_86\n      swap2\n      swap1\n      tag_82\n      jump\t// in\n    tag_86:\n      mload(0x40)\n      dup1\n      swap2\n      sub\n      swap1\n      return\n        /* \"contracts/erc20_state_vars.sol\":1403:1425  address public founder */\n    tag_13:\n      callvalue\n      dup1\n      iszero\n      tag_87\n      jumpi\n      0x00\n      dup1\n      revert\n    tag_87:\n      pop\n      tag_88\n      tag_89\n      jump\t// in\n    tag_88:\n      mload(0x40)\n      tag_90\n      swap2\n      swap1\n      tag_91\n      jump\t// in\n    tag_90:\n      mload(0x40)\n      dup1\n      swap2\n      sub\n      swap1\n      return\n        /* \"contracts/erc20_state_vars.sol\":6130:6204  function halt() public onlyAdmin{\r... */\n    tag_14:\n      callvalue\n      dup1\n      iszero\n      tag_92\n      jumpi\n      0x00\n      dup1\n      revert\n    tag_92:\n      pop\n      tag_93\n      tag_94\n      jump\t// in\n    tag_93:\n      stop\n        /* \"contracts/erc20_state_vars.sol\":6393:6510  function changeDepositAddress(address payable newDeposit) public onlyAdmin{\r... */\n    tag_15:\n      callvalue\n      dup1\n      iszero\n      tag_95\n      jumpi\n      0x00\n      dup1\n      revert\n    tag_95:\n      pop\n      tag_96\n      0x04\n      dup1\n      calldatasize\n      sub\n      dup2\n      add\n      swap1\n      tag_97\n      swap2\n      swap1\n      tag_98\n      jump\t// in\n    tag_97:\n      tag_99\n      jump\t// in\n    tag_96:\n      stop\n        /* \"contracts/erc20_state_vars.sol\":2215:2347  function balanceOf(address tokenOwner) public view override returns (uint balance){\r... */\n    tag_16:\n      callvalue\n      dup1\n      iszero\n      tag_100\n      jumpi\n      0x00\n      dup1\n      revert\n    tag_100:\n      pop\n      tag_101\n      0x04\n      dup1\n      calldatasize\n      sub\n      dup2\n      add\n      swap1\n      tag_102\n      swap2\n      swap1\n      tag_71\n      jump\t// in\n    tag_102:\n      tag_103\n      jump\t// in\n    tag_101:\n      mload(0x40)\n      tag_104\n      swap2\n      swap1\n      tag_42\n      jump\t// in\n    tag_104:\n      mload(0x40)\n      dup1\n      swap2\n      sub\n      swap1\n      return\n        /* \"contracts/erc20_state_vars.sol\":5477:5518  uint public minInvestment = 0.00001 ether */\n    tag_17:\n      callvalue\n      dup1\n      iszero\n      tag_105\n      jumpi\n      0x00\n      dup1\n      revert\n    tag_105:\n      pop\n      tag_106\n      tag_107\n      jump\t// in\n    tag_106:\n      mload(0x40)\n      tag_108\n      swap2\n      swap1\n      tag_42\n      jump\t// in\n    tag_108:\n      mload(0x40)\n      dup1\n      swap2\n      sub\n      swap1\n      return\n        /* \"contracts/erc20_state_vars.sol\":1187:1217  string public symbol = \"PENNY\" */\n    tag_18:\n      callvalue\n      dup1\n      iszero\n      tag_109\n      jumpi\n      0x00\n      dup1\n      revert\n    tag_109:\n      pop\n      tag_110\n      tag_111\n      jump\t// in\n    tag_110:\n      mload(0x40)\n      tag_112\n      swap2\n      swap1\n      tag_50\n      jump\t// in\n    tag_112:\n      mload(0x40)\n      dup1\n      swap2\n      sub\n      swap1\n      return\n        /* \"contracts/erc20_state_vars.sol\":8596:8950  function transfer(address to, uint tokens) public override returns (bool success){\r... */\n    tag_19:\n      callvalue\n      dup1\n      iszero\n      tag_113\n      jumpi\n      0x00\n      dup1\n      revert\n    tag_113:\n      pop\n      tag_114\n      0x04\n      dup1\n      calldatasize\n      sub\n      dup2\n      add\n      swap1\n      tag_115\n      swap2\n      swap1\n      tag_54\n      jump\t// in\n    tag_115:\n      tag_116\n      jump\t// in\n    tag_114:\n      mload(0x40)\n      tag_117\n      swap2\n      swap1\n      tag_57\n      jump\t// in\n    tag_117:\n      mload(0x40)\n      dup1\n      swap2\n      sub\n      swap1\n      return\n        /* \"contracts/erc20_state_vars.sol\":5090:5134  uint public saleStart = block.timestamp + 10 */\n    tag_20:\n      callvalue\n      dup1\n      iszero\n      tag_118\n      jumpi\n      0x00\n      dup1\n      revert\n    tag_118:\n      pop\n      tag_119\n      tag_120\n      jump\t// in\n    tag_119:\n      mload(0x40)\n      tag_121\n      swap2\n      swap1\n      tag_42\n      jump\t// in\n    tag_121:\n      mload(0x40)\n      dup1\n      swap2\n      sub\n      swap1\n      return\n        /* \"contracts/erc20_state_vars.sol\":5179:5232  uint public saleEnd = block.timestamp + 3600 * 24 * 7 */\n    tag_21:\n      callvalue\n      dup1\n      iszero\n      tag_122\n      jumpi\n      0x00\n      dup1\n      revert\n    tag_122:\n      pop\n      tag_123\n      tag_124\n      jump\t// in\n    tag_123:\n      mload(0x40)\n      tag_125\n      swap2\n      swap1\n      tag_42\n      jump\t// in\n    tag_125:\n      mload(0x40)\n      dup1\n      swap2\n      sub\n      swap1\n      return\n        /* \"contracts/erc20_state_vars.sol\":5038:5062  uint public raisedAmount */\n    tag_22:\n      callvalue\n      dup1\n      iszero\n      tag_126\n      jumpi\n      0x00\n      dup1\n      revert\n    tag_126:\n      pop\n      tag_127\n      tag_128\n      jump\t// in\n    tag_127:\n      mload(0x40)\n      tag_129\n      swap2\n      swap1\n      tag_42\n      jump\t// in\n    tag_129:\n      mload(0x40)\n      dup1\n      swap2\n      sub\n      swap1\n      return\n        /* \"contracts/erc20_state_vars.sol\":5333:5379  uint public tokenTradeStart = saleEnd + 604800 */\n    tag_23:\n      callvalue\n      dup1\n      iszero\n      tag_130\n      jumpi\n      0x00\n      dup1\n      revert\n    tag_130:\n      pop\n      tag_131\n      tag_132\n      jump\t// in\n    tag_131:\n      mload(0x40)\n      tag_133\n      swap2\n      swap1\n      tag_42\n      jump\t// in\n    tag_133:\n      mload(0x40)\n      dup1\n      swap2\n      sub\n      swap1\n      return\n        /* \"contracts/erc20_state_vars.sol\":4803:4833  address payable public deposit */\n    tag_24:\n      callvalue\n      dup1\n      iszero\n      tag_134\n      jumpi\n      0x00\n      dup1\n      revert\n    tag_134:\n      pop\n      tag_135\n      tag_136\n      jump\t// in\n    tag_135:\n      mload(0x40)\n      tag_137\n      swap2\n      swap1\n      tag_138\n      jump\t// in\n    tag_137:\n      mload(0x40)\n      dup1\n      swap2\n      sub\n      swap1\n      return\n        /* \"contracts/erc20_state_vars.sol\":3118:3263  function allowance(address tokenOwner, address spender) public view override returns (uint){\r... */\n    tag_25:\n      callvalue\n      dup1\n      iszero\n      tag_139\n      jumpi\n      0x00\n      dup1\n      revert\n    tag_139:\n      pop\n      tag_140\n      0x04\n      dup1\n      calldatasize\n      sub\n      dup2\n      add\n      swap1\n      tag_141\n      swap2\n      swap1\n      tag_142\n      jump\t// in\n    tag_141:\n      tag_143\n      jump\t// in\n    tag_140:\n      mload(0x40)\n      tag_144\n      swap2\n      swap1\n      tag_42\n      jump\t// in\n    tag_144:\n      mload(0x40)\n      dup1\n      swap2\n      sub\n      swap1\n      return\n        /* \"contracts/erc20_state_vars.sol\":7194:8258  function invest() payable public returns(bool){\r... */\n    tag_26:\n      tag_145\n      tag_37\n      jump\t// in\n    tag_145:\n      mload(0x40)\n      tag_146\n      swap2\n      swap1\n      tag_57\n      jump\t// in\n    tag_146:\n      mload(0x40)\n      dup1\n      swap2\n      sub\n      swap1\n      return\n        /* \"contracts/erc20_state_vars.sol\":4744:4764  address public admin */\n    tag_27:\n      callvalue\n      dup1\n      iszero\n      tag_147\n      jumpi\n      0x00\n      dup1\n      revert\n    tag_147:\n      pop\n      tag_148\n      tag_149\n      jump\t// in\n    tag_148:\n      mload(0x40)\n      tag_150\n      swap2\n      swap1\n      tag_91\n      jump\t// in\n    tag_150:\n      mload(0x40)\n      dup1\n      swap2\n      sub\n      swap1\n      return\n        /* \"contracts/erc20_state_vars.sol\":4960:4991  uint public hardCap = 300 ether */\n    tag_28:\n      callvalue\n      dup1\n      iszero\n      tag_151\n      jumpi\n      0x00\n      dup1\n      revert\n    tag_151:\n      pop\n      tag_152\n      tag_153\n      jump\t// in\n    tag_152:\n      mload(0x40)\n      tag_154\n      swap2\n      swap1\n      tag_42\n      jump\t// in\n    tag_154:\n      mload(0x40)\n      dup1\n      swap2\n      sub\n      swap1\n      return\n        /* \"contracts/erc20_state_vars.sol\":7194:8258  function invest() payable public returns(bool){\r... */\n    tag_37:\n        /* \"contracts/erc20_state_vars.sol\":7235:7239  bool */\n      0x00\n        /* \"contracts/erc20_state_vars.sol\":7333:7350  getCurrentState() */\n      tag_156\n        /* \"contracts/erc20_state_vars.sol\":7333:7348  getCurrentState */\n      tag_80\n        /* \"contracts/erc20_state_vars.sol\":7333:7350  getCurrentState() */\n      jump\t// in\n    tag_156:\n        /* \"contracts/erc20_state_vars.sol\":7322:7330  ICOstate */\n      0x11\n      0x00\n        /* \"contracts/erc20_state_vars.sol\":7322:7350  ICOstate = getCurrentState() */\n      0x0100\n      exp\n      dup2\n      sload\n      dup2\n      0xff\n      mul\n      not\n      and\n      swap1\n      dup4\n      0x03\n      dup2\n      gt\n      iszero\n      tag_157\n      jumpi\n      tag_158\n      tag_159\n      jump\t// in\n    tag_158:\n    tag_157:\n      mul\n      or\n      swap1\n      sstore\n      pop\n        /* \"contracts/erc20_state_vars.sol\":7418:7431  State.running */\n      0x01\n        /* \"contracts/erc20_state_vars.sol\":7406:7431  ICOstate == State.running */\n      0x03\n      dup2\n      gt\n      iszero\n      tag_160\n      jumpi\n      tag_161\n      tag_159\n      jump\t// in\n    tag_161:\n    tag_160:\n        /* \"contracts/erc20_state_vars.sol\":7406:7414  ICOstate */\n      0x11\n      0x00\n      swap1\n      sload\n      swap1\n      0x0100\n      exp\n      swap1\n      div\n      0xff\n      and\n        /* \"contracts/erc20_state_vars.sol\":7406:7431  ICOstate == State.running */\n      0x03\n      dup2\n      gt\n      iszero\n      tag_162\n      jumpi\n      tag_163\n      tag_159\n      jump\t// in\n    tag_163:\n    tag_162:\n      eq\n        /* \"contracts/erc20_state_vars.sol\":7398:7432  require(ICOstate == State.running) */\n      tag_164\n      jumpi\n      0x00\n      dup1\n      revert\n    tag_164:\n        /* \"contracts/erc20_state_vars.sol\":7537:7550  minInvestment */\n      sload(0x10)\n        /* \"contracts/erc20_state_vars.sol\":7524:7533  msg.value */\n      callvalue\n        /* \"contracts/erc20_state_vars.sol\":7524:7550  msg.value >= minInvestment */\n      lt\n      iszero\n        /* \"contracts/erc20_state_vars.sol\":7524:7580  msg.value >= minInvestment && msg.value <= maxInvestment */\n      dup1\n      iszero\n      tag_165\n      jumpi\n      pop\n        /* \"contracts/erc20_state_vars.sol\":7567:7580  maxInvestment */\n      sload(0x0f)\n        /* \"contracts/erc20_state_vars.sol\":7554:7563  msg.value */\n      callvalue\n        /* \"contracts/erc20_state_vars.sol\":7554:7580  msg.value <= maxInvestment */\n      gt\n      iszero\n        /* \"contracts/erc20_state_vars.sol\":7524:7580  msg.value >= minInvestment && msg.value <= maxInvestment */\n    tag_165:\n        /* \"contracts/erc20_state_vars.sol\":7516:7581  require(msg.value >= minInvestment && msg.value <= maxInvestment) */\n      tag_166\n      jumpi\n      0x00\n      dup1\n      revert\n    tag_166:\n        /* \"contracts/erc20_state_vars.sol\":7646:7655  msg.value */\n      callvalue\n        /* \"contracts/erc20_state_vars.sol\":7630:7642  raisedAmount */\n      0x0b\n      0x00\n        /* \"contracts/erc20_state_vars.sol\":7630:7655  raisedAmount += msg.value */\n      dup3\n      dup3\n      sload\n      tag_167\n      swap2\n      swap1\n      tag_168\n      jump\t// in\n    tag_167:\n      swap3\n      pop\n      pop\n      dup2\n      swap1\n      sstore\n      pop\n        /* \"contracts/erc20_state_vars.sol\":7753:7760  hardCap */\n      sload(0x0a)\n        /* \"contracts/erc20_state_vars.sol\":7737:7749  raisedAmount */\n      sload(0x0b)\n        /* \"contracts/erc20_state_vars.sol\":7737:7760  raisedAmount <= hardCap */\n      gt\n      iszero\n        /* \"contracts/erc20_state_vars.sol\":7729:7761  require(raisedAmount <= hardCap) */\n      tag_169\n      jumpi\n      0x00\n      dup1\n      revert\n    tag_169:\n        /* \"contracts/erc20_state_vars.sol\":7833:7844  uint tokens */\n      0x00\n        /* \"contracts/erc20_state_vars.sol\":7859:7869  tokenPrice */\n      sload(0x09)\n        /* \"contracts/erc20_state_vars.sol\":7847:7856  msg.value */\n      callvalue\n        /* \"contracts/erc20_state_vars.sol\":7847:7869  msg.value / tokenPrice */\n      tag_170\n      swap2\n      swap1\n      tag_171\n      jump\t// in\n    tag_170:\n        /* \"contracts/erc20_state_vars.sol\":7833:7869  uint tokens = msg.value / tokenPrice */\n      swap1\n      pop\n        /* \"contracts/erc20_state_vars.sol\":7963:7969  tokens */\n      dup1\n        /* \"contracts/erc20_state_vars.sol\":7939:7947  balances */\n      0x05\n        /* \"contracts/erc20_state_vars.sol\":7939:7959  balances[msg.sender] */\n      0x00\n        /* \"contracts/erc20_state_vars.sol\":7948:7958  msg.sender */\n      caller\n        /* \"contracts/erc20_state_vars.sol\":7939:7959  balances[msg.sender] */\n      0xffffffffffffffffffffffffffffffffffffffff\n      and\n      0xffffffffffffffffffffffffffffffffffffffff\n      and\n      dup2\n      mstore\n      0x20\n      add\n      swap1\n      dup2\n      mstore\n      0x20\n      add\n      0x00\n      keccak256\n      0x00\n        /* \"contracts/erc20_state_vars.sol\":7939:7969  balances[msg.sender] += tokens */\n      dup3\n      dup3\n      sload\n      tag_172\n      swap2\n      swap1\n      tag_168\n      jump\t// in\n    tag_172:\n      swap3\n      pop\n      pop\n      dup2\n      swap1\n      sstore\n      pop\n        /* \"contracts/erc20_state_vars.sol\":8001:8007  tokens */\n      dup1\n        /* \"contracts/erc20_state_vars.sol\":7980:7988  balances */\n      0x05\n        /* \"contracts/erc20_state_vars.sol\":7980:7997  balances[founder] */\n      0x00\n        /* \"contracts/erc20_state_vars.sol\":7989:7996  founder */\n      0x04\n      0x00\n      swap1\n      sload\n      swap1\n      0x0100\n      exp\n      swap1\n      div\n      0xffffffffffffffffffffffffffffffffffffffff\n      and\n        /* \"contracts/erc20_state_vars.sol\":7980:7997  balances[founder] */\n      0xffffffffffffffffffffffffffffffffffffffff\n      and\n      0xffffffffffffffffffffffffffffffffffffffff\n      and\n      dup2\n      mstore\n      0x20\n      add\n      swap1\n      dup2\n      mstore\n      0x20\n      add\n      0x00\n      keccak256\n      0x00\n        /* \"contracts/erc20_state_vars.sol\":7980:8007  balances[founder] -= tokens */\n      dup3\n      dup3\n      sload\n      tag_173\n      swap2\n      swap1\n      tag_174\n      jump\t// in\n    tag_173:\n      swap3\n      pop\n      pop\n      dup2\n      swap1\n      sstore\n      pop\n        /* \"contracts/erc20_state_vars.sol\":8069:8076  deposit */\n      0x08\n      0x00\n      swap1\n      sload\n      swap1\n      0x0100\n      exp\n      swap1\n      div\n      0xffffffffffffffffffffffffffffffffffffffff\n      and\n        /* \"contracts/erc20_state_vars.sol\":8069:8085  deposit.transfer */\n      0xffffffffffffffffffffffffffffffffffffffff\n      and\n        /* \"contracts/erc20_state_vars.sol\":8069:8096  deposit.transfer(msg.value) */\n      0x08fc\n        /* \"contracts/erc20_state_vars.sol\":8086:8095  msg.value */\n      callvalue\n        /* \"contracts/erc20_state_vars.sol\":8069:8096  deposit.transfer(msg.value) */\n      swap1\n      dup2\n      iszero\n      mul\n      swap1\n      mload(0x40)\n      0x00\n      mload(0x40)\n      dup1\n      dup4\n      sub\n      dup2\n      dup6\n      dup9\n      dup9\n      call\n      swap4\n      pop\n      pop\n      pop\n      pop\n      iszero\n      dup1\n      iszero\n      tag_176\n      jumpi\n      returndatasize\n      0x00\n      dup1\n      returndatacopy\n      revert(0x00, returndatasize)\n    tag_176:\n      pop\n        /* \"contracts/erc20_state_vars.sol\":8150:8187  Invest(msg.sender, msg.value, tokens) */\n      0x4ae4bd7655e0d350876a23cd90c4227b13db560e34435c6a488150a9c844bf5f\n        /* \"contracts/erc20_state_vars.sol\":8157:8167  msg.sender */\n      caller\n        /* \"contracts/erc20_state_vars.sol\":8169:8178  msg.value */\n      callvalue\n        /* \"contracts/erc20_state_vars.sol\":8180:8186  tokens */\n      dup4\n        /* \"contracts/erc20_state_vars.sol\":8150:8187  Invest(msg.sender, msg.value, tokens) */\n      mload(0x40)\n      tag_177\n      swap4\n      swap3\n      swap2\n      swap1\n      tag_178\n      jump\t// in\n    tag_177:\n      mload(0x40)\n      dup1\n      swap2\n      sub\n      swap1\n      log1\n        /* \"contracts/erc20_state_vars.sol\":8244:8248  true */\n      0x01\n        /* \"contracts/erc20_state_vars.sol\":8237:8248  return true */\n      swap2\n      pop\n      pop\n        /* \"contracts/erc20_state_vars.sol\":7194:8258  function invest() payable public returns(bool){\r... */\n      swap1\n      jump\t// out\n        /* \"contracts/erc20_state_vars.sol\":5435:5470  uint public maxInvestment = 5 ether */\n    tag_40:\n      sload(0x0f)\n      dup2\n      jump\t// out\n        /* \"contracts/erc20_state_vars.sol\":6241:6318  function resume() public onlyAdmin{\r... */\n    tag_45:\n        /* \"contracts/erc20_state_vars.sol\":6069:6074  admin */\n      0x07\n      0x00\n      swap1\n      sload\n      swap1\n      0x0100\n      exp\n      swap1\n      div\n      0xffffffffffffffffffffffffffffffffffffffff\n      and\n        /* \"contracts/erc20_state_vars.sol\":6055:6074  msg.sender == admin */\n      0xffffffffffffffffffffffffffffffffffffffff\n      and\n        /* \"contracts/erc20_state_vars.sol\":6055:6065  msg.sender */\n      caller\n        /* \"contracts/erc20_state_vars.sol\":6055:6074  msg.sender == admin */\n      0xffffffffffffffffffffffffffffffffffffffff\n      and\n      eq\n        /* \"contracts/erc20_state_vars.sol\":6047:6075  require(msg.sender == admin) */\n      tag_180\n      jumpi\n      0x00\n      dup1\n      revert\n    tag_180:\n        /* \"contracts/erc20_state_vars.sol\":6297:6310  State.running */\n      0x01\n        /* \"contracts/erc20_state_vars.sol\":6286:6294  ICOstate */\n      0x11\n      0x00\n        /* \"contracts/erc20_state_vars.sol\":6286:6310  ICOstate = State.running */\n      0x0100\n      exp\n      dup2\n      sload\n      dup2\n      0xff\n      mul\n      not\n      and\n      swap1\n      dup4\n      0x03\n      dup2\n      gt\n      iszero\n      tag_182\n      jumpi\n      tag_183\n      tag_159\n      jump\t// in\n    tag_183:\n    tag_182:\n      mul\n      or\n      swap1\n      sstore\n      pop\n        /* \"contracts/erc20_state_vars.sol\":6241:6318  function resume() public onlyAdmin{\r... */\n      jump\t// out\n        /* \"contracts/erc20_state_vars.sol\":1144:1180  string public name = \"Penny Pennies\" */\n    tag_48:\n      0x00\n      dup1\n      sload\n      tag_184\n      swap1\n      tag_185\n      jump\t// in\n    tag_184:\n      dup1\n      0x1f\n      add\n      0x20\n      dup1\n      swap2\n      div\n      mul\n      0x20\n      add\n      mload(0x40)\n      swap1\n      dup2\n      add\n      0x40\n      mstore\n      dup1\n      swap3\n      swap2\n      swap1\n      dup2\n      dup2\n      mstore\n      0x20\n      add\n      dup3\n      dup1\n      sload\n      tag_186\n      swap1\n      tag_185\n      jump\t// in\n    tag_186:\n      dup1\n      iszero\n      tag_187\n      jumpi\n      dup1\n      0x1f\n      lt\n      tag_188\n      jumpi\n      0x0100\n      dup1\n      dup4\n      sload\n      div\n      mul\n      dup4\n      mstore\n      swap2\n      0x20\n      add\n      swap2\n      jump(tag_187)\n    tag_188:\n      dup3\n      add\n      swap2\n      swap1\n      0x00\n      mstore\n      keccak256(0x00, 0x20)\n      swap1\n    tag_189:\n      dup2\n      sload\n      dup2\n      mstore\n      swap1\n      0x01\n      add\n      swap1\n      0x20\n      add\n      dup1\n      dup4\n      gt\n      tag_189\n      jumpi\n      dup3\n      swap1\n      sub\n      0x1f\n      and\n      dup3\n      add\n      swap2\n    tag_187:\n      pop\n      pop\n      pop\n      pop\n      pop\n      dup2\n      jump\t// out\n        /* \"contracts/erc20_state_vars.sol\":3271:3883  function approve(address spender, uint tokens) public override returns (bool success){\r... */\n    tag_55:\n        /* \"contracts/erc20_state_vars.sol\":3343:3355  bool success */\n      0x00\n        /* \"contracts/erc20_state_vars.sol\":3487:3493  tokens */\n      dup2\n        /* \"contracts/erc20_state_vars.sol\":3463:3471  balances */\n      0x05\n        /* \"contracts/erc20_state_vars.sol\":3463:3483  balances[msg.sender] */\n      0x00\n        /* \"contracts/erc20_state_vars.sol\":3472:3482  msg.sender */\n      caller\n        /* \"contracts/erc20_state_vars.sol\":3463:3483  balances[msg.sender] */\n      0xffffffffffffffffffffffffffffffffffffffff\n      and\n      0xffffffffffffffffffffffffffffffffffffffff\n      and\n      dup2\n      mstore\n      0x20\n      add\n      swap1\n      dup2\n      mstore\n      0x20\n      add\n      0x00\n      keccak256\n      sload\n        /* \"contracts/erc20_state_vars.sol\":3463:3493  balances[msg.sender] >= tokens */\n      lt\n      iszero\n        /* \"contracts/erc20_state_vars.sol\":3455:3494  require(balances[msg.sender] >= tokens) */\n      tag_191\n      jumpi\n      0x00\n      dup1\n      revert\n    tag_191:\n        /* \"contracts/erc20_state_vars.sol\":3564:3565  0 */\n      0x00\n        /* \"contracts/erc20_state_vars.sol\":3555:3561  tokens */\n      dup3\n        /* \"contracts/erc20_state_vars.sol\":3555:3565  tokens > 0 */\n      gt\n        /* \"contracts/erc20_state_vars.sol\":3547:3566  require(tokens > 0) */\n      tag_192\n      jumpi\n      0x00\n      dup1\n      revert\n    tag_192:\n        /* \"contracts/erc20_state_vars.sol\":3725:3731  tokens */\n      dup2\n        /* \"contracts/erc20_state_vars.sol\":3694:3701  allowed */\n      0x06\n        /* \"contracts/erc20_state_vars.sol\":3694:3713  allowed[msg.sender] */\n      0x00\n        /* \"contracts/erc20_state_vars.sol\":3702:3712  msg.sender */\n      caller\n        /* \"contracts/erc20_state_vars.sol\":3694:3713  allowed[msg.sender] */\n      0xffffffffffffffffffffffffffffffffffffffff\n      and\n      0xffffffffffffffffffffffffffffffffffffffff\n      and\n      dup2\n      mstore\n      0x20\n      add\n      swap1\n      dup2\n      mstore\n      0x20\n      add\n      0x00\n      keccak256\n        /* \"contracts/erc20_state_vars.sol\":3694:3722  allowed[msg.sender][spender] */\n      0x00\n        /* \"contracts/erc20_state_vars.sol\":3714:3721  spender */\n      dup6\n        /* \"contracts/erc20_state_vars.sol\":3694:3722  allowed[msg.sender][spender] */\n      0xffffffffffffffffffffffffffffffffffffffff\n      and\n      0xffffffffffffffffffffffffffffffffffffffff\n      and\n      dup2\n      mstore\n      0x20\n      add\n      swap1\n      dup2\n      mstore\n      0x20\n      add\n      0x00\n      keccak256\n        /* \"contracts/erc20_state_vars.sol\":3694:3731  allowed[msg.sender][spender] = tokens */\n      dup2\n      swap1\n      sstore\n      pop\n        /* \"contracts/erc20_state_vars.sol\":3808:3815  spender */\n      dup3\n        /* \"contracts/erc20_state_vars.sol\":3787:3824  Approval(msg.sender, spender, tokens) */\n      0xffffffffffffffffffffffffffffffffffffffff\n      and\n        /* \"contracts/erc20_state_vars.sol\":3796:3806  msg.sender */\n      caller\n        /* \"contracts/erc20_state_vars.sol\":3787:3824  Approval(msg.sender, spender, tokens) */\n      0xffffffffffffffffffffffffffffffffffffffff\n      and\n      0x8c5be1e5ebec7d5bd14f71427d1e84f3dd0314c0f7b2291e5b200ac8c7c3b925\n        /* \"contracts/erc20_state_vars.sol\":3817:3823  tokens */\n      dup5\n        /* \"contracts/erc20_state_vars.sol\":3787:3824  Approval(msg.sender, spender, tokens) */\n      mload(0x40)\n      tag_193\n      swap2\n      swap1\n      tag_42\n      jump\t// in\n    tag_193:\n      mload(0x40)\n      dup1\n      swap2\n      sub\n      swap1\n      log3\n        /* \"contracts/erc20_state_vars.sol\":3869:3873  true */\n      0x01\n        /* \"contracts/erc20_state_vars.sol\":3862:3873  return true */\n      swap1\n      pop\n        /* \"contracts/erc20_state_vars.sol\":3271:3883  function approve(address spender, uint tokens) public override returns (bool success){\r... */\n      swap3\n      swap2\n      pop\n      pop\n      jump\t// out\n        /* \"contracts/erc20_state_vars.sol\":1333:1365  uint public override totalSupply */\n    tag_60:\n      sload(0x03)\n      dup2\n      jump\t// out\n        /* \"contracts/erc20_state_vars.sol\":8958:9185  function transferFrom(address from, address to, uint tokens) public override returns (bool){\r... */\n    tag_66:\n        /* \"contracts/erc20_state_vars.sol\":9044:9048  bool */\n      0x00\n        /* \"contracts/erc20_state_vars.sol\":9088:9103  tokenTradeStart */\n      sload(0x0e)\n        /* \"contracts/erc20_state_vars.sol\":9070:9085  block.timestamp */\n      timestamp\n        /* \"contracts/erc20_state_vars.sol\":9070:9103  block.timestamp > tokenTradeStart */\n      gt\n        /* \"contracts/erc20_state_vars.sol\":9062:9104  require(block.timestamp > tokenTradeStart) */\n      tag_195\n      jumpi\n      0x00\n      dup1\n      revert\n    tag_195:\n        /* \"contracts/erc20_state_vars.sol\":9115:9153  Pennies.transferFrom(from, to, tokens) */\n      tag_196\n        /* \"contracts/erc20_state_vars.sol\":9136:9140  from */\n      dup5\n        /* \"contracts/erc20_state_vars.sol\":9142:9144  to */\n      dup5\n        /* \"contracts/erc20_state_vars.sol\":9146:9152  tokens */\n      dup5\n        /* \"contracts/erc20_state_vars.sol\":9115:9135  Pennies.transferFrom */\n      tag_197\n        /* \"contracts/erc20_state_vars.sol\":9115:9153  Pennies.transferFrom(from, to, tokens) */\n      jump\t// in\n    tag_196:\n      pop\n        /* \"contracts/erc20_state_vars.sol\":9171:9175  true */\n      0x01\n        /* \"contracts/erc20_state_vars.sol\":9164:9175  return true */\n      swap1\n      pop\n        /* \"contracts/erc20_state_vars.sol\":8958:9185  function transferFrom(address from, address to, uint tokens) public override returns (bool){\r... */\n      swap4\n      swap3\n      pop\n      pop\n      pop\n      jump\t// out\n        /* \"contracts/erc20_state_vars.sol\":1503:1544  mapping (address => uint) public balances */\n    tag_72:\n      mstore(0x20, 0x05)\n      dup1\n      0x00\n      mstore\n      keccak256(0x00, 0x40)\n      0x00\n      swap2\n      pop\n      swap1\n      pop\n      sload\n      dup2\n      jump\t// out\n        /* \"contracts/erc20_state_vars.sol\":1224:1248  uint public decimals = 0 */\n    tag_76:\n      sload(0x02)\n      dup2\n      jump\t// out\n        /* \"contracts/erc20_state_vars.sol\":6575:7014  function getCurrentState() public view returns(State){\r... */\n    tag_80:\n        /* \"contracts/erc20_state_vars.sol\":6622:6627  State */\n      0x00\n        /* \"contracts/erc20_state_vars.sol\":6655:6667  State.halted */\n      0x03\n        /* \"contracts/erc20_state_vars.sol\":6643:6667  ICOstate == State.halted */\n      dup1\n      dup2\n      gt\n      iszero\n      tag_199\n      jumpi\n      tag_200\n      tag_159\n      jump\t// in\n    tag_200:\n    tag_199:\n        /* \"contracts/erc20_state_vars.sol\":6643:6651  ICOstate */\n      0x11\n      0x00\n      swap1\n      sload\n      swap1\n      0x0100\n      exp\n      swap1\n      div\n      0xff\n      and\n        /* \"contracts/erc20_state_vars.sol\":6643:6667  ICOstate == State.halted */\n      0x03\n      dup2\n      gt\n      iszero\n      tag_201\n      jumpi\n      tag_202\n      tag_159\n      jump\t// in\n    tag_202:\n    tag_201:\n      eq\n        /* \"contracts/erc20_state_vars.sol\":6639:7001  if (ICOstate == State.halted){\r... */\n      iszero\n      tag_203\n      jumpi\n        /* \"contracts/erc20_state_vars.sol\":6690:6702  State.halted */\n      0x03\n        /* \"contracts/erc20_state_vars.sol\":6683:6702  return State.halted */\n      swap1\n      pop\n      jump(tag_198)\n        /* \"contracts/erc20_state_vars.sol\":6639:7001  if (ICOstate == State.halted){\r... */\n    tag_203:\n        /* \"contracts/erc20_state_vars.sol\":6746:6755  saleStart */\n      sload(0x0c)\n        /* \"contracts/erc20_state_vars.sol\":6728:6743  block.timestamp */\n      timestamp\n        /* \"contracts/erc20_state_vars.sol\":6728:6755  block.timestamp < saleStart */\n      lt\n        /* \"contracts/erc20_state_vars.sol\":6724:7001  if (block.timestamp < saleStart){\r... */\n      iszero\n      tag_205\n      jumpi\n        /* \"contracts/erc20_state_vars.sol\":6782:6799  State.beforeStart */\n      0x00\n        /* \"contracts/erc20_state_vars.sol\":6775:6799  return State.beforeStart */\n      swap1\n      pop\n      jump(tag_198)\n        /* \"contracts/erc20_state_vars.sol\":6724:7001  if (block.timestamp < saleStart){\r... */\n    tag_205:\n        /* \"contracts/erc20_state_vars.sol\":6844:6853  saleStart */\n      sload(0x0c)\n        /* \"contracts/erc20_state_vars.sol\":6825:6840  block.timestamp */\n      timestamp\n        /* \"contracts/erc20_state_vars.sol\":6825:6853  block.timestamp >= saleStart */\n      lt\n      iszero\n        /* \"contracts/erc20_state_vars.sol\":6825:6883  block.timestamp >= saleStart && block.timestamp <= saleEnd */\n      dup1\n      iszero\n      tag_207\n      jumpi\n      pop\n        /* \"contracts/erc20_state_vars.sol\":6876:6883  saleEnd */\n      sload(0x0d)\n        /* \"contracts/erc20_state_vars.sol\":6857:6872  block.timestamp */\n      timestamp\n        /* \"contracts/erc20_state_vars.sol\":6857:6883  block.timestamp <= saleEnd */\n      gt\n      iszero\n        /* \"contracts/erc20_state_vars.sol\":6825:6883  block.timestamp >= saleStart && block.timestamp <= saleEnd */\n    tag_207:\n        /* \"contracts/erc20_state_vars.sol\":6821:7001  if (block.timestamp >= saleStart && block.timestamp <= saleEnd){\r... */\n      iszero\n      tag_208\n      jumpi\n        /* \"contracts/erc20_state_vars.sol\":6910:6923  State.running */\n      0x01\n        /* \"contracts/erc20_state_vars.sol\":6903:6923  return State.running */\n      swap1\n      pop\n      jump(tag_198)\n        /* \"contracts/erc20_state_vars.sol\":6821:7001  if (block.timestamp >= saleStart && block.timestamp <= saleEnd){\r... */\n    tag_208:\n        /* \"contracts/erc20_state_vars.sol\":6971:6985  State.afterEnd */\n      0x02\n        /* \"contracts/erc20_state_vars.sol\":6964:6985  return State.afterEnd */\n      swap1\n      pop\n        /* \"contracts/erc20_state_vars.sol\":6575:7014  function getCurrentState() public view returns(State){\r... */\n    tag_198:\n      swap1\n      jump\t// out\n        /* \"contracts/erc20_state_vars.sol\":5707:5728  State public ICOstate */\n    tag_85:\n      0x11\n      0x00\n      swap1\n      sload\n      swap1\n      0x0100\n      exp\n      swap1\n      div\n      0xff\n      and\n      dup2\n      jump\t// out\n        /* \"contracts/erc20_state_vars.sol\":1403:1425  address public founder */\n    tag_89:\n      0x04\n      0x00\n      swap1\n      sload\n      swap1\n      0x0100\n      exp\n      swap1\n      div\n      0xffffffffffffffffffffffffffffffffffffffff\n      and\n      dup2\n      jump\t// out\n        /* \"contracts/erc20_state_vars.sol\":6130:6204  function halt() public onlyAdmin{\r... */\n    tag_94:\n        /* \"contracts/erc20_state_vars.sol\":6069:6074  admin */\n      0x07\n      0x00\n      swap1\n      sload\n      swap1\n      0x0100\n      exp\n      swap1\n      div\n      0xffffffffffffffffffffffffffffffffffffffff\n      and\n        /* \"contracts/erc20_state_vars.sol\":6055:6074  msg.sender == admin */\n      0xffffffffffffffffffffffffffffffffffffffff\n      and\n        /* \"contracts/erc20_state_vars.sol\":6055:6065  msg.sender */\n      caller\n        /* \"contracts/erc20_state_vars.sol\":6055:6074  msg.sender == admin */\n      0xffffffffffffffffffffffffffffffffffffffff\n      and\n      eq\n        /* \"contracts/erc20_state_vars.sol\":6047:6075  require(msg.sender == admin) */\n      tag_211\n      jumpi\n      0x00\n      dup1\n      revert\n    tag_211:\n        /* \"contracts/erc20_state_vars.sol\":6184:6196  State.halted */\n      0x03\n        /* \"contracts/erc20_state_vars.sol\":6173:6181  ICOstate */\n      0x11\n      0x00\n        /* \"contracts/erc20_state_vars.sol\":6173:6196  ICOstate = State.halted */\n      0x0100\n      exp\n      dup2\n      sload\n      dup2\n      0xff\n      mul\n      not\n      and\n      swap1\n      dup4\n      0x03\n      dup2\n      gt\n      iszero\n      tag_213\n      jumpi\n      tag_214\n      tag_159\n      jump\t// in\n    tag_214:\n    tag_213:\n      mul\n      or\n      swap1\n      sstore\n      pop\n        /* \"contracts/erc20_state_vars.sol\":6130:6204  function halt() public onlyAdmin{\r... */\n      jump\t// out\n        /* \"contracts/erc20_state_vars.sol\":6393:6510  function changeDepositAddress(address payable newDeposit) public onlyAdmin{\r... */\n    tag_99:\n        /* \"contracts/erc20_state_vars.sol\":6069:6074  admin */\n      0x07\n      0x00\n      swap1\n      sload\n      swap1\n      0x0100\n      exp\n      swap1\n      div\n      0xffffffffffffffffffffffffffffffffffffffff\n      and\n        /* \"contracts/erc20_state_vars.sol\":6055:6074  msg.sender == admin */\n      0xffffffffffffffffffffffffffffffffffffffff\n      and\n        /* \"contracts/erc20_state_vars.sol\":6055:6065  msg.sender */\n      caller\n        /* \"contracts/erc20_state_vars.sol\":6055:6074  msg.sender == admin */\n      0xffffffffffffffffffffffffffffffffffffffff\n      and\n      eq\n        /* \"contracts/erc20_state_vars.sol\":6047:6075  require(msg.sender == admin) */\n      tag_216\n      jumpi\n      0x00\n      dup1\n      revert\n    tag_216:\n        /* \"contracts/erc20_state_vars.sol\":6490:6500  newDeposit */\n      dup1\n        /* \"contracts/erc20_state_vars.sol\":6480:6487  deposit */\n      0x08\n      0x00\n        /* \"contracts/erc20_state_vars.sol\":6480:6500  deposit = newDeposit */\n      0x0100\n      exp\n      dup2\n      sload\n      dup2\n      0xffffffffffffffffffffffffffffffffffffffff\n      mul\n      not\n      and\n      swap1\n      dup4\n      0xffffffffffffffffffffffffffffffffffffffff\n      and\n      mul\n      or\n      swap1\n      sstore\n      pop\n        /* \"contracts/erc20_state_vars.sol\":6393:6510  function changeDepositAddress(address payable newDeposit) public onlyAdmin{\r... */\n      pop\n      jump\t// out\n        /* \"contracts/erc20_state_vars.sol\":2215:2347  function balanceOf(address tokenOwner) public view override returns (uint balance){\r... */\n    tag_103:\n        /* \"contracts/erc20_state_vars.sol\":2284:2296  uint balance */\n      0x00\n        /* \"contracts/erc20_state_vars.sol\":2317:2325  balances */\n      0x05\n        /* \"contracts/erc20_state_vars.sol\":2317:2337  balances[tokenOwner] */\n      0x00\n        /* \"contracts/erc20_state_vars.sol\":2326:2336  tokenOwner */\n      dup4\n        /* \"contracts/erc20_state_vars.sol\":2317:2337  balances[tokenOwner] */\n      0xffffffffffffffffffffffffffffffffffffffff\n      and\n      0xffffffffffffffffffffffffffffffffffffffff\n      and\n      dup2\n      mstore\n      0x20\n      add\n      swap1\n      dup2\n      mstore\n      0x20\n      add\n      0x00\n      keccak256\n      sload\n        /* \"contracts/erc20_state_vars.sol\":2310:2337  return balances[tokenOwner] */\n      swap1\n      pop\n        /* \"contracts/erc20_state_vars.sol\":2215:2347  function balanceOf(address tokenOwner) public view override returns (uint balance){\r... */\n      swap2\n      swap1\n      pop\n      jump\t// out\n        /* \"contracts/erc20_state_vars.sol\":5477:5518  uint public minInvestment = 0.00001 ether */\n    tag_107:\n      sload(0x10)\n      dup2\n      jump\t// out\n        /* \"contracts/erc20_state_vars.sol\":1187:1217  string public symbol = \"PENNY\" */\n    tag_111:\n      0x01\n      dup1\n      sload\n      tag_219\n      swap1\n      tag_185\n      jump\t// in\n    tag_219:\n      dup1\n      0x1f\n      add\n      0x20\n      dup1\n      swap2\n      div\n      mul\n      0x20\n      add\n      mload(0x40)\n      swap1\n      dup2\n      add\n      0x40\n      mstore\n      dup1\n      swap3\n      swap2\n      swap1\n      dup2\n      dup2\n      mstore\n      0x20\n      add\n      dup3\n      dup1\n      sload\n      tag_220\n      swap1\n      tag_185\n      jump\t// in\n    tag_220:\n      dup1\n      iszero\n      tag_221\n      jumpi\n      dup1\n      0x1f\n      lt\n      tag_222\n      jumpi\n      0x0100\n      dup1\n      dup4\n      sload\n      div\n      mul\n      dup4\n      mstore\n      swap2\n      0x20\n      add\n      swap2\n      jump(tag_221)\n    tag_222:\n      dup3\n      add\n      swap2\n      swap1\n      0x00\n      mstore\n      keccak256(0x00, 0x20)\n      swap1\n    tag_223:\n      dup2\n      sload\n      dup2\n      mstore\n      swap1\n      0x01\n      add\n      swap1\n      0x20\n      add\n      dup1\n      dup4\n      gt\n      tag_223\n      jumpi\n      dup3\n      swap1\n      sub\n      0x1f\n      and\n      dup3\n      add\n      swap2\n    tag_221:\n      pop\n      pop\n      pop\n      pop\n      pop\n      dup2\n      jump\t// out\n        /* \"contracts/erc20_state_vars.sol\":8596:8950  function transfer(address to, uint tokens) public override returns (bool success){\r... */\n    tag_116:\n        /* \"contracts/erc20_state_vars.sol\":8664:8676  bool success */\n      0x00\n        /* \"contracts/erc20_state_vars.sol\":8775:8790  tokenTradeStart */\n      sload(0x0e)\n        /* \"contracts/erc20_state_vars.sol\":8757:8772  block.timestamp */\n      timestamp\n        /* \"contracts/erc20_state_vars.sol\":8757:8790  block.timestamp > tokenTradeStart */\n      gt\n        /* \"contracts/erc20_state_vars.sol\":8749:8791  require(block.timestamp > tokenTradeStart) */\n      tag_225\n      jumpi\n      0x00\n      dup1\n      revert\n    tag_225:\n        /* \"contracts/erc20_state_vars.sol\":8853:8881  Pennies.transfer(to, tokens) */\n      tag_226\n        /* \"contracts/erc20_state_vars.sol\":8870:8872  to */\n      dup4\n        /* \"contracts/erc20_state_vars.sol\":8874:8880  tokens */\n      dup4\n        /* \"contracts/erc20_state_vars.sol\":8853:8869  Pennies.transfer */\n      tag_227\n        /* \"contracts/erc20_state_vars.sol\":8853:8881  Pennies.transfer(to, tokens) */\n      jump\t// in\n    tag_226:\n      pop\n        /* \"contracts/erc20_state_vars.sol\":8936:8940  true */\n      0x01\n        /* \"contracts/erc20_state_vars.sol\":8929:8940  return true */\n      swap1\n      pop\n        /* \"contracts/erc20_state_vars.sol\":8596:8950  function transfer(address to, uint tokens) public override returns (bool success){\r... */\n      swap3\n      swap2\n      pop\n      pop\n      jump\t// out\n        /* \"contracts/erc20_state_vars.sol\":5090:5134  uint public saleStart = block.timestamp + 10 */\n    tag_120:\n      sload(0x0c)\n      dup2\n      jump\t// out\n        /* \"contracts/erc20_state_vars.sol\":5179:5232  uint public saleEnd = block.timestamp + 3600 * 24 * 7 */\n    tag_124:\n      sload(0x0d)\n      dup2\n      jump\t// out\n        /* \"contracts/erc20_state_vars.sol\":5038:5062  uint public raisedAmount */\n    tag_128:\n      sload(0x0b)\n      dup2\n      jump\t// out\n        /* \"contracts/erc20_state_vars.sol\":5333:5379  uint public tokenTradeStart = saleEnd + 604800 */\n    tag_132:\n      sload(0x0e)\n      dup2\n      jump\t// out\n        /* \"contracts/erc20_state_vars.sol\":4803:4833  address payable public deposit */\n    tag_136:\n      0x08\n      0x00\n      swap1\n      sload\n      swap1\n      0x0100\n      exp\n      swap1\n      div\n      0xffffffffffffffffffffffffffffffffffffffff\n      and\n      dup2\n      jump\t// out\n        /* \"contracts/erc20_state_vars.sol\":3118:3263  function allowance(address tokenOwner, address spender) public view override returns (uint){\r... */\n    tag_143:\n        /* \"contracts/erc20_state_vars.sol\":3204:3208  uint */\n      0x00\n        /* \"contracts/erc20_state_vars.sol\":3227:3234  allowed */\n      0x06\n        /* \"contracts/erc20_state_vars.sol\":3227:3246  allowed[tokenOwner] */\n      0x00\n        /* \"contracts/erc20_state_vars.sol\":3235:3245  tokenOwner */\n      dup5\n        /* \"contracts/erc20_state_vars.sol\":3227:3246  allowed[tokenOwner] */\n      0xffffffffffffffffffffffffffffffffffffffff\n      and\n      0xffffffffffffffffffffffffffffffffffffffff\n      and\n      dup2\n      mstore\n      0x20\n      add\n      swap1\n      dup2\n      mstore\n      0x20\n      add\n      0x00\n      keccak256\n        /* \"contracts/erc20_state_vars.sol\":3227:3255  allowed[tokenOwner][spender] */\n      0x00\n        /* \"contracts/erc20_state_vars.sol\":3247:3254  spender */\n      dup4\n        /* \"contracts/erc20_state_vars.sol\":3227:3255  allowed[tokenOwner][spender] */\n      0xffffffffffffffffffffffffffffffffffffffff\n      and\n      0xffffffffffffffffffffffffffffffffffffffff\n      and\n      dup2\n      mstore\n      0x20\n      add\n      swap1\n      dup2\n      mstore\n      0x20\n      add\n      0x00\n      keccak256\n      sload\n        /* \"contracts/erc20_state_vars.sol\":3220:3255  return allowed[tokenOwner][spender] */\n      swap1\n      pop\n        /* \"contracts/erc20_state_vars.sol\":3118:3263  function allowance(address tokenOwner, address spender) public view override returns (uint){\r... */\n      swap3\n      swap2\n      pop\n      pop\n      jump\t// out\n        /* \"contracts/erc20_state_vars.sol\":4744:4764  address public admin */\n    tag_149:\n      0x07\n      0x00\n      swap1\n      sload\n      swap1\n      0x0100\n      exp\n      swap1\n      div\n      0xffffffffffffffffffffffffffffffffffffffff\n      and\n      dup2\n      jump\t// out\n        /* \"contracts/erc20_state_vars.sol\":4960:4991  uint public hardCap = 300 ether */\n    tag_153:\n      sload(0x0a)\n      dup2\n      jump\t// out\n        /* \"contracts/erc20_state_vars.sol\":3891:4658  function transferFrom(address from, address to, uint tokens) public virtual override returns (bool){\r... */\n    tag_197:\n        /* \"contracts/erc20_state_vars.sol\":3985:3989  bool */\n      0x00\n        /* \"contracts/erc20_state_vars.sol\":4122:4128  tokens */\n      dup2\n        /* \"contracts/erc20_state_vars.sol\":4093:4100  allowed */\n      0x06\n        /* \"contracts/erc20_state_vars.sol\":4093:4106  allowed[from] */\n      0x00\n        /* \"contracts/erc20_state_vars.sol\":4101:4105  from */\n      dup7\n        /* \"contracts/erc20_state_vars.sol\":4093:4106  allowed[from] */\n      0xffffffffffffffffffffffffffffffffffffffff\n      and\n      0xffffffffffffffffffffffffffffffffffffffff\n      and\n      dup2\n      mstore\n      0x20\n      add\n      swap1\n      dup2\n      mstore\n      0x20\n      add\n      0x00\n      keccak256\n        /* \"contracts/erc20_state_vars.sol\":4093:4118  allowed[from][msg.sender] */\n      0x00\n        /* \"contracts/erc20_state_vars.sol\":4107:4117  msg.sender */\n      caller\n        /* \"contracts/erc20_state_vars.sol\":4093:4118  allowed[from][msg.sender] */\n      0xffffffffffffffffffffffffffffffffffffffff\n      and\n      0xffffffffffffffffffffffffffffffffffffffff\n      and\n      dup2\n      mstore\n      0x20\n      add\n      swap1\n      dup2\n      mstore\n      0x20\n      add\n      0x00\n      keccak256\n      sload\n        /* \"contracts/erc20_state_vars.sol\":4093:4128  allowed[from][msg.sender] >= tokens */\n      lt\n      iszero\n        /* \"contracts/erc20_state_vars.sol\":4085:4129  require(allowed[from][msg.sender] >= tokens) */\n      tag_230\n      jumpi\n      0x00\n      dup1\n      revert\n    tag_230:\n        /* \"contracts/erc20_state_vars.sol\":4241:4247  tokens */\n      dup2\n        /* \"contracts/erc20_state_vars.sol\":4223:4231  balances */\n      0x05\n        /* \"contracts/erc20_state_vars.sol\":4223:4237  balances[from] */\n      0x00\n        /* \"contracts/erc20_state_vars.sol\":4232:4236  from */\n      dup7\n        /* \"contracts/erc20_state_vars.sol\":4223:4237  balances[from] */\n      0xffffffffffffffffffffffffffffffffffffffff\n      and\n      0xffffffffffffffffffffffffffffffffffffffff\n      and\n      dup2\n      mstore\n      0x20\n      add\n      swap1\n      dup2\n      mstore\n      0x20\n      add\n      0x00\n      keccak256\n      sload\n        /* \"contracts/erc20_state_vars.sol\":4223:4247  balances[from] >= tokens */\n      lt\n      iszero\n        /* \"contracts/erc20_state_vars.sol\":4215:4248  require(balances[from] >= tokens) */\n      tag_231\n      jumpi\n      0x00\n      dup1\n      revert\n    tag_231:\n        /* \"contracts/erc20_state_vars.sol\":4334:4340  tokens */\n      dup2\n        /* \"contracts/erc20_state_vars.sol\":4316:4324  balances */\n      0x05\n        /* \"contracts/erc20_state_vars.sol\":4316:4330  balances[from] */\n      0x00\n        /* \"contracts/erc20_state_vars.sol\":4325:4329  from */\n      dup7\n        /* \"contracts/erc20_state_vars.sol\":4316:4330  balances[from] */\n      0xffffffffffffffffffffffffffffffffffffffff\n      and\n      0xffffffffffffffffffffffffffffffffffffffff\n      and\n      dup2\n      mstore\n      0x20\n      add\n      swap1\n      dup2\n      mstore\n      0x20\n      add\n      0x00\n      keccak256\n      0x00\n        /* \"contracts/erc20_state_vars.sol\":4316:4340  balances[from] -= tokens */\n      dup3\n      dup3\n      sload\n      tag_232\n      swap2\n      swap1\n      tag_174\n      jump\t// in\n    tag_232:\n      swap3\n      pop\n      pop\n      dup2\n      swap1\n      sstore\n      pop\n        /* \"contracts/erc20_state_vars.sol\":4441:4447  tokens */\n      dup2\n        /* \"contracts/erc20_state_vars.sol\":4412:4419  allowed */\n      0x06\n        /* \"contracts/erc20_state_vars.sol\":4412:4425  allowed[from] */\n      0x00\n        /* \"contracts/erc20_state_vars.sol\":4420:4424  from */\n      dup7\n        /* \"contracts/erc20_state_vars.sol\":4412:4425  allowed[from] */\n      0xffffffffffffffffffffffffffffffffffffffff\n      and\n      0xffffffffffffffffffffffffffffffffffffffff\n      and\n      dup2\n      mstore\n      0x20\n      add\n      swap1\n      dup2\n      mstore\n      0x20\n      add\n      0x00\n      keccak256\n        /* \"contracts/erc20_state_vars.sol\":4412:4437  allowed[from][msg.sender] */\n      0x00\n        /* \"contracts/erc20_state_vars.sol\":4426:4436  msg.sender */\n      caller\n        /* \"contracts/erc20_state_vars.sol\":4412:4437  allowed[from][msg.sender] */\n      0xffffffffffffffffffffffffffffffffffffffff\n      and\n      0xffffffffffffffffffffffffffffffffffffffff\n      and\n      dup2\n      mstore\n      0x20\n      add\n      swap1\n      dup2\n      mstore\n      0x20\n      add\n      0x00\n      keccak256\n      0x00\n        /* \"contracts/erc20_state_vars.sol\":4412:4447  allowed[from][msg.sender] -= tokens */\n      dup3\n      dup3\n      sload\n      tag_233\n      swap2\n      swap1\n      tag_174\n      jump\t// in\n    tag_233:\n      swap3\n      pop\n      pop\n      dup2\n      swap1\n      sstore\n      pop\n        /* \"contracts/erc20_state_vars.sol\":4523:4529  tokens */\n      dup2\n        /* \"contracts/erc20_state_vars.sol\":4507:4515  balances */\n      0x05\n        /* \"contracts/erc20_state_vars.sol\":4507:4519  balances[to] */\n      0x00\n        /* \"contracts/erc20_state_vars.sol\":4516:4518  to */\n      dup6\n        /* \"contracts/erc20_state_vars.sol\":4507:4519  balances[to] */\n      0xffffffffffffffffffffffffffffffffffffffff\n      and\n      0xffffffffffffffffffffffffffffffffffffffff\n      and\n      dup2\n      mstore\n      0x20\n      add\n      swap1\n      dup2\n      mstore\n      0x20\n      add\n      0x00\n      keccak256\n      0x00\n        /* \"contracts/erc20_state_vars.sol\":4507:4529  balances[to] += tokens */\n      dup3\n      dup3\n      sload\n      tag_234\n      swap2\n      swap1\n      tag_168\n      jump\t// in\n    tag_234:\n      swap3\n      pop\n      pop\n      dup2\n      swap1\n      sstore\n      pop\n        /* \"contracts/erc20_state_vars.sol\":4587:4589  to */\n      dup3\n        /* \"contracts/erc20_state_vars.sol\":4572:4598  Transfer(from, to, tokens) */\n      0xffffffffffffffffffffffffffffffffffffffff\n      and\n        /* \"contracts/erc20_state_vars.sol\":4581:4585  from */\n      dup5\n        /* \"contracts/erc20_state_vars.sol\":4572:4598  Transfer(from, to, tokens) */\n      0xffffffffffffffffffffffffffffffffffffffff\n      and\n      0xddf252ad1be2c89b69c2b068fc378daa952ba7f163c4a11628f55a4df523b3ef\n        /* \"contracts/erc20_state_vars.sol\":4591:4597  tokens */\n      dup5\n        /* \"contracts/erc20_state_vars.sol\":4572:4598  Transfer(from, to, tokens) */\n      mload(0x40)\n      tag_235\n      swap2\n      swap1\n      tag_42\n      jump\t// in\n    tag_235:\n      mload(0x40)\n      dup1\n      swap2\n      sub\n      swap1\n      log3\n        /* \"contracts/erc20_state_vars.sol\":4644:4648  true */\n      0x01\n        /* \"contracts/erc20_state_vars.sol\":4637:4648  return true */\n      swap1\n      pop\n        /* \"contracts/erc20_state_vars.sol\":3891:4658  function transferFrom(address from, address to, uint tokens) public virtual override returns (bool){\r... */\n      swap4\n      swap3\n      pop\n      pop\n      pop\n      jump\t// out\n        /* \"contracts/erc20_state_vars.sol\":2405:2988  function transfer(address to, uint tokens) public virtual override returns (bool success){\r... */\n    tag_227:\n        /* \"contracts/erc20_state_vars.sol\":2481:2493  bool success */\n      0x00\n        /* \"contracts/erc20_state_vars.sol\":2623:2629  tokens */\n      dup2\n        /* \"contracts/erc20_state_vars.sol\":2599:2607  balances */\n      0x05\n        /* \"contracts/erc20_state_vars.sol\":2599:2619  balances[msg.sender] */\n      0x00\n        /* \"contracts/erc20_state_vars.sol\":2608:2618  msg.sender */\n      caller\n        /* \"contracts/erc20_state_vars.sol\":2599:2619  balances[msg.sender] */\n      0xffffffffffffffffffffffffffffffffffffffff\n      and\n      0xffffffffffffffffffffffffffffffffffffffff\n      and\n      dup2\n      mstore\n      0x20\n      add\n      swap1\n      dup2\n      mstore\n      0x20\n      add\n      0x00\n      keccak256\n      sload\n        /* \"contracts/erc20_state_vars.sol\":2599:2629  balances[msg.sender] >= tokens */\n      lt\n      iszero\n        /* \"contracts/erc20_state_vars.sol\":2591:2630  require(balances[msg.sender] >= tokens) */\n      tag_237\n      jumpi\n      0x00\n      dup1\n      revert\n    tag_237:\n        /* \"contracts/erc20_state_vars.sol\":2721:2727  tokens */\n      dup2\n        /* \"contracts/erc20_state_vars.sol\":2705:2713  balances */\n      0x05\n        /* \"contracts/erc20_state_vars.sol\":2705:2717  balances[to] */\n      0x00\n        /* \"contracts/erc20_state_vars.sol\":2714:2716  to */\n      dup6\n        /* \"contracts/erc20_state_vars.sol\":2705:2717  balances[to] */\n      0xffffffffffffffffffffffffffffffffffffffff\n      and\n      0xffffffffffffffffffffffffffffffffffffffff\n      and\n      dup2\n      mstore\n      0x20\n      add\n      swap1\n      dup2\n      mstore\n      0x20\n      add\n      0x00\n      keccak256\n      0x00\n        /* \"contracts/erc20_state_vars.sol\":2705:2727  balances[to] += tokens */\n      dup3\n      dup3\n      sload\n      tag_238\n      swap2\n      swap1\n      tag_168\n      jump\t// in\n    tag_238:\n      swap3\n      pop\n      pop\n      dup2\n      swap1\n      sstore\n      pop\n        /* \"contracts/erc20_state_vars.sol\":2822:2828  tokens */\n      dup2\n        /* \"contracts/erc20_state_vars.sol\":2798:2806  balances */\n      0x05\n        /* \"contracts/erc20_state_vars.sol\":2798:2818  balances[msg.sender] */\n      0x00\n        /* \"contracts/erc20_state_vars.sol\":2807:2817  msg.sender */\n      caller\n        /* \"contracts/erc20_state_vars.sol\":2798:2818  balances[msg.sender] */\n      0xffffffffffffffffffffffffffffffffffffffff\n      and\n      0xffffffffffffffffffffffffffffffffffffffff\n      and\n      dup2\n      mstore\n      0x20\n      add\n      swap1\n      dup2\n      mstore\n      0x20\n      add\n      0x00\n      keccak256\n      0x00\n        /* \"contracts/erc20_state_vars.sol\":2798:2828  balances[msg.sender] -= tokens */\n      dup3\n      dup3\n      sload\n      tag_239\n      swap2\n      swap1\n      tag_174\n      jump\t// in\n    tag_239:\n      swap3\n      pop\n      pop\n      dup2\n      swap1\n      sstore\n      pop\n        /* \"contracts/erc20_state_vars.sol\":2916:2918  to */\n      dup3\n        /* \"contracts/erc20_state_vars.sol\":2895:2927  Transfer(msg.sender, to, tokens) */\n      0xffffffffffffffffffffffffffffffffffffffff\n      and\n        /* \"contracts/erc20_state_vars.sol\":2904:2914  msg.sender */\n      caller\n        /* \"contracts/erc20_state_vars.sol\":2895:2927  Transfer(msg.sender, to, tokens) */\n      0xffffffffffffffffffffffffffffffffffffffff\n      and\n      0xddf252ad1be2c89b69c2b068fc378daa952ba7f163c4a11628f55a4df523b3ef\n        /* \"contracts/erc20_state_vars.sol\":2920:2926  tokens */\n      dup5\n        /* \"contracts/erc20_state_vars.sol\":2895:2927  Transfer(msg.sender, to, tokens) */\n      mload(0x40)\n      tag_240\n      swap2\n      swap1\n      tag_42\n      jump\t// in\n    tag_240:\n      mload(0x40)\n      dup1\n      swap2\n      sub\n      swap1\n      log3\n        /* \"contracts/erc20_state_vars.sol\":2974:2978  true */\n      0x01\n        /* \"contracts/erc20_state_vars.sol\":2967:2978  return true */\n      swap1\n      pop\n        /* \"contracts/erc20_state_vars.sol\":2405:2988  function transfer(address to, uint tokens) public virtual override returns (bool success){\r... */\n      swap3\n      swap2\n      pop\n      pop\n      jump\t// out\n        /* \"#utility.yul\":7:146   */\n    tag_242:\n        /* \"#utility.yul\":53:58   */\n      0x00\n        /* \"#utility.yul\":91:97   */\n      dup2\n        /* \"#utility.yul\":78:98   */\n      calldataload\n        /* \"#utility.yul\":69:98   */\n      swap1\n      pop\n        /* \"#utility.yul\":107:140   */\n      tag_244\n        /* \"#utility.yul\":134:139   */\n      dup2\n        /* \"#utility.yul\":107:140   */\n      tag_245\n      jump\t// in\n    tag_244:\n        /* \"#utility.yul\":7:146   */\n      swap3\n      swap2\n      pop\n      pop\n      jump\t// out\n        /* \"#utility.yul\":152:307   */\n    tag_246:\n        /* \"#utility.yul\":206:211   */\n      0x00\n        /* \"#utility.yul\":244:250   */\n      dup2\n        /* \"#utility.yul\":231:251   */\n      calldataload\n        /* \"#utility.yul\":222:251   */\n      swap1\n      pop\n        /* \"#utility.yul\":260:301   */\n      tag_248\n        /* \"#utility.yul\":295:300   */\n      dup2\n        /* \"#utility.yul\":260:301   */\n      tag_249\n      jump\t// in\n    tag_248:\n        /* \"#utility.yul\":152:307   */\n      swap3\n      swap2\n      pop\n      pop\n      jump\t// out\n        /* \"#utility.yul\":313:452   */\n    tag_250:\n        /* \"#utility.yul\":359:364   */\n      0x00\n        /* \"#utility.yul\":397:403   */\n      dup2\n        /* \"#utility.yul\":384:404   */\n      calldataload\n        /* \"#utility.yul\":375:404   */\n      swap1\n      pop\n        /* \"#utility.yul\":413:446   */\n      tag_252\n        /* \"#utility.yul\":440:445   */\n      dup2\n        /* \"#utility.yul\":413:446   */\n      tag_253\n      jump\t// in\n    tag_252:\n        /* \"#utility.yul\":313:452   */\n      swap3\n      swap2\n      pop\n      pop\n      jump\t// out\n        /* \"#utility.yul\":458:787   */\n    tag_71:\n        /* \"#utility.yul\":517:523   */\n      0x00\n        /* \"#utility.yul\":566:568   */\n      0x20\n        /* \"#utility.yul\":554:563   */\n      dup3\n        /* \"#utility.yul\":545:552   */\n      dup5\n        /* \"#utility.yul\":541:564   */\n      sub\n        /* \"#utility.yul\":537:569   */\n      slt\n        /* \"#utility.yul\":534:653   */\n      iszero\n      tag_255\n      jumpi\n        /* \"#utility.yul\":572:651   */\n      tag_256\n      tag_257\n      jump\t// in\n    tag_256:\n        /* \"#utility.yul\":534:653   */\n    tag_255:\n        /* \"#utility.yul\":692:693   */\n      0x00\n        /* \"#utility.yul\":717:770   */\n      tag_258\n        /* \"#utility.yul\":762:769   */\n      dup5\n        /* \"#utility.yul\":753:759   */\n      dup3\n        /* \"#utility.yul\":742:751   */\n      dup6\n        /* \"#utility.yul\":738:760   */\n      add\n        /* \"#utility.yul\":717:770   */\n      tag_242\n      jump\t// in\n    tag_258:\n        /* \"#utility.yul\":707:770   */\n      swap2\n      pop\n        /* \"#utility.yul\":663:780   */\n      pop\n        /* \"#utility.yul\":458:787   */\n      swap3\n      swap2\n      pop\n      pop\n      jump\t// out\n        /* \"#utility.yul\":793:1138   */\n    tag_98:\n        /* \"#utility.yul\":860:866   */\n      0x00\n        /* \"#utility.yul\":909:911   */\n      0x20\n        /* \"#utility.yul\":897:906   */\n      dup3\n        /* \"#utility.yul\":888:895   */\n      dup5\n        /* \"#utility.yul\":884:907   */\n      sub\n        /* \"#utility.yul\":880:912   */\n      slt\n        /* \"#utility.yul\":877:996   */\n      iszero\n      tag_260\n      jumpi\n        /* \"#utility.yul\":915:994   */\n      tag_261\n      tag_257\n      jump\t// in\n    tag_261:\n        /* \"#utility.yul\":877:996   */\n    tag_260:\n        /* \"#utility.yul\":1035:1036   */\n      0x00\n        /* \"#utility.yul\":1060:1121   */\n      tag_262\n        /* \"#utility.yul\":1113:1120   */\n      dup5\n        /* \"#utility.yul\":1104:1110   */\n      dup3\n        /* \"#utility.yul\":1093:1102   */\n      dup6\n        /* \"#utility.yul\":1089:1111   */\n      add\n        /* \"#utility.yul\":1060:1121   */\n      tag_246\n      jump\t// in\n    tag_262:\n        /* \"#utility.yul\":1050:1121   */\n      swap2\n      pop\n        /* \"#utility.yul\":1006:1131   */\n      pop\n        /* \"#utility.yul\":793:1138   */\n      swap3\n      swap2\n      pop\n      pop\n      jump\t// out\n        /* \"#utility.yul\":1144:1618   */\n    tag_142:\n        /* \"#utility.yul\":1212:1218   */\n      0x00\n        /* \"#utility.yul\":1220:1226   */\n      dup1\n        /* \"#utility.yul\":1269:1271   */\n      0x40\n        /* \"#utility.yul\":1257:1266   */\n      dup4\n        /* \"#utility.yul\":1248:1255   */\n      dup6\n        /* \"#utility.yul\":1244:1267   */\n      sub\n        /* \"#utility.yul\":1240:1272   */\n      slt\n        /* \"#utility.yul\":1237:1356   */\n      iszero\n      tag_264\n      jumpi\n        /* \"#utility.yul\":1275:1354   */\n      tag_265\n      tag_257\n      jump\t// in\n    tag_265:\n        /* \"#utility.yul\":1237:1356   */\n    tag_264:\n        /* \"#utility.yul\":1395:1396   */\n      0x00\n        /* \"#utility.yul\":1420:1473   */\n      tag_266\n        /* \"#utility.yul\":1465:1472   */\n      dup6\n        /* \"#utility.yul\":1456:1462   */\n      dup3\n        /* \"#utility.yul\":1445:1454   */\n      dup7\n        /* \"#utility.yul\":1441:1463   */\n      add\n        /* \"#utility.yul\":1420:1473   */\n      tag_242\n      jump\t// in\n    tag_266:\n        /* \"#utility.yul\":1410:1473   */\n      swap3\n      pop\n        /* \"#utility.yul\":1366:1483   */\n      pop\n        /* \"#utility.yul\":1522:1524   */\n      0x20\n        /* \"#utility.yul\":1548:1601   */\n      tag_267\n        /* \"#utility.yul\":1593:1600   */\n      dup6\n        /* \"#utility.yul\":1584:1590   */\n      dup3\n        /* \"#utility.yul\":1573:1582   */\n      dup7\n        /* \"#utility.yul\":1569:1591   */\n      add\n        /* \"#utility.yul\":1548:1601   */\n      tag_242\n      jump\t// in\n    tag_267:\n        /* \"#utility.yul\":1538:1601   */\n      swap2\n      pop\n        /* \"#utility.yul\":1493:1611   */\n      pop\n        /* \"#utility.yul\":1144:1618   */\n      swap3\n      pop\n      swap3\n      swap1\n      pop\n      jump\t// out\n        /* \"#utility.yul\":1624:2243   */\n    tag_65:\n        /* \"#utility.yul\":1701:1707   */\n      0x00\n        /* \"#utility.yul\":1709:1715   */\n      dup1\n        /* \"#utility.yul\":1717:1723   */\n      0x00\n        /* \"#utility.yul\":1766:1768   */\n      0x60\n        /* \"#utility.yul\":1754:1763   */\n      dup5\n        /* \"#utility.yul\":1745:1752   */\n      dup7\n        /* \"#utility.yul\":1741:1764   */\n      sub\n        /* \"#utility.yul\":1737:1769   */\n      slt\n        /* \"#utility.yul\":1734:1853   */\n      iszero\n      tag_269\n      jumpi\n        /* \"#utility.yul\":1772:1851   */\n      tag_270\n      tag_257\n      jump\t// in\n    tag_270:\n        /* \"#utility.yul\":1734:1853   */\n    tag_269:\n        /* \"#utility.yul\":1892:1893   */\n      0x00\n        /* \"#utility.yul\":1917:1970   */\n      tag_271\n        /* \"#utility.yul\":1962:1969   */\n      dup7\n        /* \"#utility.yul\":1953:1959   */\n      dup3\n        /* \"#utility.yul\":1942:1951   */\n      dup8\n        /* \"#utility.yul\":1938:1960   */\n      add\n        /* \"#utility.yul\":1917:1970   */\n      tag_242\n      jump\t// in\n    tag_271:\n        /* \"#utility.yul\":1907:1970   */\n      swap4\n      pop\n        /* \"#utility.yul\":1863:1980   */\n      pop\n        /* \"#utility.yul\":2019:2021   */\n      0x20\n        /* \"#utility.yul\":2045:2098   */\n      tag_272\n        /* \"#utility.yul\":2090:2097   */\n      dup7\n        /* \"#utility.yul\":2081:2087   */\n      dup3\n        /* \"#utility.yul\":2070:2079   */\n      dup8\n        /* \"#utility.yul\":2066:2088   */\n      add\n        /* \"#utility.yul\":2045:2098   */\n      tag_242\n      jump\t// in\n    tag_272:\n        /* \"#utility.yul\":2035:2098   */\n      swap3\n      pop\n        /* \"#utility.yul\":1990:2108   */\n      pop\n        /* \"#utility.yul\":2147:2149   */\n      0x40\n        /* \"#utility.yul\":2173:2226   */\n      tag_273\n        /* \"#utility.yul\":2218:2225   */\n      dup7\n        /* \"#utility.yul\":2209:2215   */\n      dup3\n        /* \"#utility.yul\":2198:2207   */\n      dup8\n        /* \"#utility.yul\":2194:2216   */\n      add\n        /* \"#utility.yul\":2173:2226   */\n      tag_250\n      jump\t// in\n    tag_273:\n        /* \"#utility.yul\":2163:2226   */\n      swap2\n      pop\n        /* \"#utility.yul\":2118:2236   */\n      pop\n        /* \"#utility.yul\":1624:2243   */\n      swap3\n      pop\n      swap3\n      pop\n      swap3\n      jump\t// out\n        /* \"#utility.yul\":2249:2723   */\n    tag_54:\n        /* \"#utility.yul\":2317:2323   */\n      0x00\n        /* \"#utility.yul\":2325:2331   */\n      dup1\n        /* \"#utility.yul\":2374:2376   */\n      0x40\n        /* \"#utility.yul\":2362:2371   */\n      dup4\n        /* \"#utility.yul\":2353:2360   */\n      dup6\n        /* \"#utility.yul\":2349:2372   */\n      sub\n        /* \"#utility.yul\":2345:2377   */\n      slt\n        /* \"#utility.yul\":2342:2461   */\n      iszero\n      tag_275\n      jumpi\n        /* \"#utility.yul\":2380:2459   */\n      tag_276\n      tag_257\n      jump\t// in\n    tag_276:\n        /* \"#utility.yul\":2342:2461   */\n    tag_275:\n        /* \"#utility.yul\":2500:2501   */\n      0x00\n        /* \"#utility.yul\":2525:2578   */\n      tag_277\n        /* \"#utility.yul\":2570:2577   */\n      dup6\n        /* \"#utility.yul\":2561:2567   */\n      dup3\n        /* \"#utility.yul\":2550:2559   */\n      dup7\n        /* \"#utility.yul\":2546:2568   */\n      add\n        /* \"#utility.yul\":2525:2578   */\n      tag_242\n      jump\t// in\n    tag_277:\n        /* \"#utility.yul\":2515:2578   */\n      swap3\n      pop\n        /* \"#utility.yul\":2471:2588   */\n      pop\n        /* \"#utility.yul\":2627:2629   */\n      0x20\n        /* \"#utility.yul\":2653:2706   */\n      tag_278\n        /* \"#utility.yul\":2698:2705   */\n      dup6\n        /* \"#utility.yul\":2689:2695   */\n      dup3\n        /* \"#utility.yul\":2678:2687   */\n      dup7\n        /* \"#utility.yul\":2674:2696   */\n      add\n        /* \"#utility.yul\":2653:2706   */\n      tag_250\n      jump\t// in\n    tag_278:\n        /* \"#utility.yul\":2643:2706   */\n      swap2\n      pop\n        /* \"#utility.yul\":2598:2716   */\n      pop\n        /* \"#utility.yul\":2249:2723   */\n      swap3\n      pop\n      swap3\n      swap1\n      pop\n      jump\t// out\n        /* \"#utility.yul\":2729:2871   */\n    tag_279:\n        /* \"#utility.yul\":2832:2864   */\n      tag_281\n        /* \"#utility.yul\":2858:2863   */\n      dup2\n        /* \"#utility.yul\":2832:2864   */\n      tag_282\n      jump\t// in\n    tag_281:\n        /* \"#utility.yul\":2827:2830   */\n      dup3\n        /* \"#utility.yul\":2820:2865   */\n      mstore\n        /* \"#utility.yul\":2729:2871   */\n      pop\n      pop\n      jump\t// out\n        /* \"#utility.yul\":2877:2995   */\n    tag_283:\n        /* \"#utility.yul\":2964:2988   */\n      tag_285\n        /* \"#utility.yul\":2982:2987   */\n      dup2\n        /* \"#utility.yul\":2964:2988   */\n      tag_286\n      jump\t// in\n    tag_285:\n        /* \"#utility.yul\":2959:2962   */\n      dup3\n        /* \"#utility.yul\":2952:2989   */\n      mstore\n        /* \"#utility.yul\":2877:2995   */\n      pop\n      pop\n      jump\t// out\n        /* \"#utility.yul\":3001:3110   */\n    tag_287:\n        /* \"#utility.yul\":3082:3103   */\n      tag_289\n        /* \"#utility.yul\":3097:3102   */\n      dup2\n        /* \"#utility.yul\":3082:3103   */\n      tag_290\n      jump\t// in\n    tag_289:\n        /* \"#utility.yul\":3077:3080   */\n      dup3\n        /* \"#utility.yul\":3070:3104   */\n      mstore\n        /* \"#utility.yul\":3001:3110   */\n      pop\n      pop\n      jump\t// out\n        /* \"#utility.yul\":3116:3261   */\n    tag_291:\n        /* \"#utility.yul\":3210:3254   */\n      tag_293\n        /* \"#utility.yul\":3248:3253   */\n      dup2\n        /* \"#utility.yul\":3210:3254   */\n      tag_294\n      jump\t// in\n    tag_293:\n        /* \"#utility.yul\":3205:3208   */\n      dup3\n        /* \"#utility.yul\":3198:3255   */\n      mstore\n        /* \"#utility.yul\":3116:3261   */\n      pop\n      pop\n      jump\t// out\n        /* \"#utility.yul\":3267:3631   */\n    tag_295:\n        /* \"#utility.yul\":3355:3358   */\n      0x00\n        /* \"#utility.yul\":3383:3422   */\n      tag_297\n        /* \"#utility.yul\":3416:3421   */\n      dup3\n        /* \"#utility.yul\":3383:3422   */\n      tag_298\n      jump\t// in\n    tag_297:\n        /* \"#utility.yul\":3438:3509   */\n      tag_299\n        /* \"#utility.yul\":3502:3508   */\n      dup2\n        /* \"#utility.yul\":3497:3500   */\n      dup6\n        /* \"#utility.yul\":3438:3509   */\n      tag_300\n      jump\t// in\n    tag_299:\n        /* \"#utility.yul\":3431:3509   */\n      swap4\n      pop\n        /* \"#utility.yul\":3518:3570   */\n      tag_301\n        /* \"#utility.yul\":3563:3569   */\n      dup2\n        /* \"#utility.yul\":3558:3561   */\n      dup6\n        /* \"#utility.yul\":3551:3555   */\n      0x20\n        /* \"#utility.yul\":3544:3549   */\n      dup7\n        /* \"#utility.yul\":3540:3556   */\n      add\n        /* \"#utility.yul\":3518:3570   */\n      tag_302\n      jump\t// in\n    tag_301:\n        /* \"#utility.yul\":3595:3624   */\n      tag_303\n        /* \"#utility.yul\":3617:3623   */\n      dup2\n        /* \"#utility.yul\":3595:3624   */\n      tag_304\n      jump\t// in\n    tag_303:\n        /* \"#utility.yul\":3590:3593   */\n      dup5\n        /* \"#utility.yul\":3586:3625   */\n      add\n        /* \"#utility.yul\":3579:3625   */\n      swap2\n      pop\n        /* \"#utility.yul\":3359:3631   */\n      pop\n        /* \"#utility.yul\":3267:3631   */\n      swap3\n      swap2\n      pop\n      pop\n      jump\t// out\n        /* \"#utility.yul\":3637:3755   */\n    tag_305:\n        /* \"#utility.yul\":3724:3748   */\n      tag_307\n        /* \"#utility.yul\":3742:3747   */\n      dup2\n        /* \"#utility.yul\":3724:3748   */\n      tag_308\n      jump\t// in\n    tag_307:\n        /* \"#utility.yul\":3719:3722   */\n      dup3\n        /* \"#utility.yul\":3712:3749   */\n      mstore\n        /* \"#utility.yul\":3637:3755   */\n      pop\n      pop\n      jump\t// out\n        /* \"#utility.yul\":3761:3983   */\n    tag_91:\n        /* \"#utility.yul\":3854:3858   */\n      0x00\n        /* \"#utility.yul\":3892:3894   */\n      0x20\n        /* \"#utility.yul\":3881:3890   */\n      dup3\n        /* \"#utility.yul\":3877:3895   */\n      add\n        /* \"#utility.yul\":3869:3895   */\n      swap1\n      pop\n        /* \"#utility.yul\":3905:3976   */\n      tag_310\n        /* \"#utility.yul\":3973:3974   */\n      0x00\n        /* \"#utility.yul\":3962:3971   */\n      dup4\n        /* \"#utility.yul\":3958:3975   */\n      add\n        /* \"#utility.yul\":3949:3955   */\n      dup5\n        /* \"#utility.yul\":3905:3976   */\n      tag_283\n      jump\t// in\n    tag_310:\n        /* \"#utility.yul\":3761:3983   */\n      swap3\n      swap2\n      pop\n      pop\n      jump\t// out\n        /* \"#utility.yul\":3989:4243   */\n    tag_138:\n        /* \"#utility.yul\":4098:4102   */\n      0x00\n        /* \"#utility.yul\":4136:4138   */\n      0x20\n        /* \"#utility.yul\":4125:4134   */\n      dup3\n        /* \"#utility.yul\":4121:4139   */\n      add\n        /* \"#utility.yul\":4113:4139   */\n      swap1\n      pop\n        /* \"#utility.yul\":4149:4236   */\n      tag_312\n        /* \"#utility.yul\":4233:4234   */\n      0x00\n        /* \"#utility.yul\":4222:4231   */\n      dup4\n        /* \"#utility.yul\":4218:4235   */\n      add\n        /* \"#utility.yul\":4209:4215   */\n      dup5\n        /* \"#utility.yul\":4149:4236   */\n      tag_279\n      jump\t// in\n    tag_312:\n        /* \"#utility.yul\":3989:4243   */\n      swap3\n      swap2\n      pop\n      pop\n      jump\t// out\n        /* \"#utility.yul\":4249:4691   */\n    tag_178:\n        /* \"#utility.yul\":4398:4402   */\n      0x00\n        /* \"#utility.yul\":4436:4438   */\n      0x60\n        /* \"#utility.yul\":4425:4434   */\n      dup3\n        /* \"#utility.yul\":4421:4439   */\n      add\n        /* \"#utility.yul\":4413:4439   */\n      swap1\n      pop\n        /* \"#utility.yul\":4449:4520   */\n      tag_314\n        /* \"#utility.yul\":4517:4518   */\n      0x00\n        /* \"#utility.yul\":4506:4515   */\n      dup4\n        /* \"#utility.yul\":4502:4519   */\n      add\n        /* \"#utility.yul\":4493:4499   */\n      dup7\n        /* \"#utility.yul\":4449:4520   */\n      tag_283\n      jump\t// in\n    tag_314:\n        /* \"#utility.yul\":4530:4602   */\n      tag_315\n        /* \"#utility.yul\":4598:4600   */\n      0x20\n        /* \"#utility.yul\":4587:4596   */\n      dup4\n        /* \"#utility.yul\":4583:4601   */\n      add\n        /* \"#utility.yul\":4574:4580   */\n      dup6\n        /* \"#utility.yul\":4530:4602   */\n      tag_305\n      jump\t// in\n    tag_315:\n        /* \"#utility.yul\":4612:4684   */\n      tag_316\n        /* \"#utility.yul\":4680:4682   */\n      0x40\n        /* \"#utility.yul\":4669:4678   */\n      dup4\n        /* \"#utility.yul\":4665:4683   */\n      add\n        /* \"#utility.yul\":4656:4662   */\n      dup5\n        /* \"#utility.yul\":4612:4684   */\n      tag_305\n      jump\t// in\n    tag_316:\n        /* \"#utility.yul\":4249:4691   */\n      swap5\n      swap4\n      pop\n      pop\n      pop\n      pop\n      jump\t// out\n        /* \"#utility.yul\":4697:4907   */\n    tag_57:\n        /* \"#utility.yul\":4784:4788   */\n      0x00\n        /* \"#utility.yul\":4822:4824   */\n      0x20\n        /* \"#utility.yul\":4811:4820   */\n      dup3\n        /* \"#utility.yul\":4807:4825   */\n      add\n        /* \"#utility.yul\":4799:4825   */\n      swap1\n      pop\n        /* \"#utility.yul\":4835:4900   */\n      tag_318\n        /* \"#utility.yul\":4897:4898   */\n      0x00\n        /* \"#utility.yul\":4886:4895   */\n      dup4\n        /* \"#utility.yul\":4882:4899   */\n      add\n        /* \"#utility.yul\":4873:4879   */\n      dup5\n        /* \"#utility.yul\":4835:4900   */\n      tag_287\n      jump\t// in\n    tag_318:\n        /* \"#utility.yul\":4697:4907   */\n      swap3\n      swap2\n      pop\n      pop\n      jump\t// out\n        /* \"#utility.yul\":4913:5149   */\n    tag_82:\n        /* \"#utility.yul\":5013:5017   */\n      0x00\n        /* \"#utility.yul\":5051:5053   */\n      0x20\n        /* \"#utility.yul\":5040:5049   */\n      dup3\n        /* \"#utility.yul\":5036:5054   */\n      add\n        /* \"#utility.yul\":5028:5054   */\n      swap1\n      pop\n        /* \"#utility.yul\":5064:5142   */\n      tag_320\n        /* \"#utility.yul\":5139:5140   */\n      0x00\n        /* \"#utility.yul\":5128:5137   */\n      dup4\n        /* \"#utility.yul\":5124:5141   */\n      add\n        /* \"#utility.yul\":5115:5121   */\n      dup5\n        /* \"#utility.yul\":5064:5142   */\n      tag_291\n      jump\t// in\n    tag_320:\n        /* \"#utility.yul\":4913:5149   */\n      swap3\n      swap2\n      pop\n      pop\n      jump\t// out\n        /* \"#utility.yul\":5155:5468   */\n    tag_50:\n        /* \"#utility.yul\":5268:5272   */\n      0x00\n        /* \"#utility.yul\":5306:5308   */\n      0x20\n        /* \"#utility.yul\":5295:5304   */\n      dup3\n        /* \"#utility.yul\":5291:5309   */\n      add\n        /* \"#utility.yul\":5283:5309   */\n      swap1\n      pop\n        /* \"#utility.yul\":5355:5364   */\n      dup2\n        /* \"#utility.yul\":5349:5353   */\n      dup2\n        /* \"#utility.yul\":5345:5365   */\n      sub\n        /* \"#utility.yul\":5341:5342   */\n      0x00\n        /* \"#utility.yul\":5330:5339   */\n      dup4\n        /* \"#utility.yul\":5326:5343   */\n      add\n        /* \"#utility.yul\":5319:5366   */\n      mstore\n        /* \"#utility.yul\":5383:5461   */\n      tag_322\n        /* \"#utility.yul\":5456:5460   */\n      dup2\n        /* \"#utility.yul\":5447:5453   */\n      dup5\n        /* \"#utility.yul\":5383:5461   */\n      tag_295\n      jump\t// in\n    tag_322:\n        /* \"#utility.yul\":5375:5461   */\n      swap1\n      pop\n        /* \"#utility.yul\":5155:5468   */\n      swap3\n      swap2\n      pop\n      pop\n      jump\t// out\n        /* \"#utility.yul\":5474:5696   */\n    tag_42:\n        /* \"#utility.yul\":5567:5571   */\n      0x00\n        /* \"#utility.yul\":5605:5607   */\n      0x20\n        /* \"#utility.yul\":5594:5603   */\n      dup3\n        /* \"#utility.yul\":5590:5608   */\n      add\n        /* \"#utility.yul\":5582:5608   */\n      swap1\n      pop\n        /* \"#utility.yul\":5618:5689   */\n      tag_324\n        /* \"#utility.yul\":5686:5687   */\n      0x00\n        /* \"#utility.yul\":5675:5684   */\n      dup4\n        /* \"#utility.yul\":5671:5688   */\n      add\n        /* \"#utility.yul\":5662:5668   */\n      dup5\n        /* \"#utility.yul\":5618:5689   */\n      tag_305\n      jump\t// in\n    tag_324:\n        /* \"#utility.yul\":5474:5696   */\n      swap3\n      swap2\n      pop\n      pop\n      jump\t// out\n        /* \"#utility.yul\":5783:5882   */\n    tag_298:\n        /* \"#utility.yul\":5835:5841   */\n      0x00\n        /* \"#utility.yul\":5869:5874   */\n      dup2\n        /* \"#utility.yul\":5863:5875   */\n      mload\n        /* \"#utility.yul\":5853:5875   */\n      swap1\n      pop\n        /* \"#utility.yul\":5783:5882   */\n      swap2\n      swap1\n      pop\n      jump\t// out\n        /* \"#utility.yul\":5888:6057   */\n    tag_300:\n        /* \"#utility.yul\":5972:5983   */\n      0x00\n        /* \"#utility.yul\":6006:6012   */\n      dup3\n        /* \"#utility.yul\":6001:6004   */\n      dup3\n        /* \"#utility.yul\":5994:6013   */\n      mstore\n        /* \"#utility.yul\":6046:6050   */\n      0x20\n        /* \"#utility.yul\":6041:6044   */\n      dup3\n        /* \"#utility.yul\":6037:6051   */\n      add\n        /* \"#utility.yul\":6022:6051   */\n      swap1\n      pop\n        /* \"#utility.yul\":5888:6057   */\n      swap3\n      swap2\n      pop\n      pop\n      jump\t// out\n        /* \"#utility.yul\":6063:6368   */\n    tag_168:\n        /* \"#utility.yul\":6103:6106   */\n      0x00\n        /* \"#utility.yul\":6122:6142   */\n      tag_330\n        /* \"#utility.yul\":6140:6141   */\n      dup3\n        /* \"#utility.yul\":6122:6142   */\n      tag_308\n      jump\t// in\n    tag_330:\n        /* \"#utility.yul\":6117:6142   */\n      swap2\n      pop\n        /* \"#utility.yul\":6156:6176   */\n      tag_331\n        /* \"#utility.yul\":6174:6175   */\n      dup4\n        /* \"#utility.yul\":6156:6176   */\n      tag_308\n      jump\t// in\n    tag_331:\n        /* \"#utility.yul\":6151:6176   */\n      swap3\n      pop\n        /* \"#utility.yul\":6310:6311   */\n      dup3\n        /* \"#utility.yul\":6242:6308   */\n      0xffffffffffffffffffffffffffffffffffffffffffffffffffffffffffffffff\n        /* \"#utility.yul\":6238:6312   */\n      sub\n        /* \"#utility.yul\":6235:6236   */\n      dup3\n        /* \"#utility.yul\":6232:6313   */\n      gt\n        /* \"#utility.yul\":6229:6336   */\n      iszero\n      tag_332\n      jumpi\n        /* \"#utility.yul\":6316:6334   */\n      tag_333\n      tag_334\n      jump\t// in\n    tag_333:\n        /* \"#utility.yul\":6229:6336   */\n    tag_332:\n        /* \"#utility.yul\":6360:6361   */\n      dup3\n        /* \"#utility.yul\":6357:6358   */\n      dup3\n        /* \"#utility.yul\":6353:6362   */\n      add\n        /* \"#utility.yul\":6346:6362   */\n      swap1\n      pop\n        /* \"#utility.yul\":6063:6368   */\n      swap3\n      swap2\n      pop\n      pop\n      jump\t// out\n        /* \"#utility.yul\":6374:6559   */\n    tag_171:\n        /* \"#utility.yul\":6414:6415   */\n      0x00\n        /* \"#utility.yul\":6431:6451   */\n      tag_336\n        /* \"#utility.yul\":6449:6450   */\n      dup3\n        /* \"#utility.yul\":6431:6451   */\n      tag_308\n      jump\t// in\n    tag_336:\n        /* \"#utility.yul\":6426:6451   */\n      swap2\n      pop\n        /* \"#utility.yul\":6465:6485   */\n      tag_337\n        /* \"#utility.yul\":6483:6484   */\n      dup4\n        /* \"#utility.yul\":6465:6485   */\n      tag_308\n      jump\t// in\n    tag_337:\n        /* \"#utility.yul\":6460:6485   */\n      swap3\n      pop\n        /* \"#utility.yul\":6504:6505   */\n      dup3\n        /* \"#utility.yul\":6494:6529   */\n      tag_338\n      jumpi\n        /* \"#utility.yul\":6509:6527   */\n      tag_339\n      tag_340\n      jump\t// in\n    tag_339:\n        /* \"#utility.yul\":6494:6529   */\n    tag_338:\n        /* \"#utility.yul\":6551:6552   */\n      dup3\n        /* \"#utility.yul\":6548:6549   */\n      dup3\n        /* \"#utility.yul\":6544:6553   */\n      div\n        /* \"#utility.yul\":6539:6553   */\n      swap1\n      pop\n        /* \"#utility.yul\":6374:6559   */\n      swap3\n      swap2\n      pop\n      pop\n      jump\t// out\n        /* \"#utility.yul\":6565:6756   */\n    tag_174:\n        /* \"#utility.yul\":6605:6609   */\n      0x00\n        /* \"#utility.yul\":6625:6645   */\n      tag_342\n        /* \"#utility.yul\":6643:6644   */\n      dup3\n        /* \"#utility.yul\":6625:6645   */\n      tag_308\n      jump\t// in\n    tag_342:\n        /* \"#utility.yul\":6620:6645   */\n      swap2\n      pop\n        /* \"#utility.yul\":6659:6679   */\n      tag_343\n        /* \"#utility.yul\":6677:6678   */\n      dup4\n        /* \"#utility.yul\":6659:6679   */\n      tag_308\n      jump\t// in\n    tag_343:\n        /* \"#utility.yul\":6654:6679   */\n      swap3\n      pop\n        /* \"#utility.yul\":6698:6699   */\n      dup3\n        /* \"#utility.yul\":6695:6696   */\n      dup3\n        /* \"#utility.yul\":6692:6700   */\n      lt\n        /* \"#utility.yul\":6689:6723   */\n      iszero\n      tag_344\n      jumpi\n        /* \"#utility.yul\":6703:6721   */\n      tag_345\n      tag_334\n      jump\t// in\n    tag_345:\n        /* \"#utility.yul\":6689:6723   */\n    tag_344:\n        /* \"#utility.yul\":6748:6749   */\n      dup3\n        /* \"#utility.yul\":6745:6746   */\n      dup3\n        /* \"#utility.yul\":6741:6750   */\n      sub\n        /* \"#utility.yul\":6733:6750   */\n      swap1\n      pop\n        /* \"#utility.yul\":6565:6756   */\n      swap3\n      swap2\n      pop\n      pop\n      jump\t// out\n        /* \"#utility.yul\":6762:6858   */\n    tag_286:\n        /* \"#utility.yul\":6799:6806   */\n      0x00\n        /* \"#utility.yul\":6828:6852   */\n      tag_347\n        /* \"#utility.yul\":6846:6851   */\n      dup3\n        /* \"#utility.yul\":6828:6852   */\n      tag_348\n      jump\t// in\n    tag_347:\n        /* \"#utility.yul\":6817:6852   */\n      swap1\n      pop\n        /* \"#utility.yul\":6762:6858   */\n      swap2\n      swap1\n      pop\n      jump\t// out\n        /* \"#utility.yul\":6864:6968   */\n    tag_282:\n        /* \"#utility.yul\":6909:6916   */\n      0x00\n        /* \"#utility.yul\":6938:6962   */\n      tag_350\n        /* \"#utility.yul\":6956:6961   */\n      dup3\n        /* \"#utility.yul\":6938:6962   */\n      tag_348\n      jump\t// in\n    tag_350:\n        /* \"#utility.yul\":6927:6962   */\n      swap1\n      pop\n        /* \"#utility.yul\":6864:6968   */\n      swap2\n      swap1\n      pop\n      jump\t// out\n        /* \"#utility.yul\":6974:7064   */\n    tag_290:\n        /* \"#utility.yul\":7008:7015   */\n      0x00\n        /* \"#utility.yul\":7051:7056   */\n      dup2\n        /* \"#utility.yul\":7044:7057   */\n      iszero\n        /* \"#utility.yul\":7037:7058   */\n      iszero\n        /* \"#utility.yul\":7026:7058   */\n      swap1\n      pop\n        /* \"#utility.yul\":6974:7064   */\n      swap2\n      swap1\n      pop\n      jump\t// out\n        /* \"#utility.yul\":7070:7199   */\n    tag_352:\n        /* \"#utility.yul\":7116:7123   */\n      0x00\n        /* \"#utility.yul\":7145:7150   */\n      dup2\n        /* \"#utility.yul\":7134:7150   */\n      swap1\n      pop\n        /* \"#utility.yul\":7151:7193   */\n      tag_354\n        /* \"#utility.yul\":7187:7192   */\n      dup3\n        /* \"#utility.yul\":7151:7193   */\n      tag_355\n      jump\t// in\n    tag_354:\n        /* \"#utility.yul\":7070:7199   */\n      swap2\n      swap1\n      pop\n      jump\t// out\n        /* \"#utility.yul\":7205:7331   */\n    tag_348:\n        /* \"#utility.yul\":7242:7249   */\n      0x00\n        /* \"#utility.yul\":7282:7324   */\n      0xffffffffffffffffffffffffffffffffffffffff\n        /* \"#utility.yul\":7275:7280   */\n      dup3\n        /* \"#utility.yul\":7271:7325   */\n      and\n        /* \"#utility.yul\":7260:7325   */\n      swap1\n      pop\n        /* \"#utility.yul\":7205:7331   */\n      swap2\n      swap1\n      pop\n      jump\t// out\n        /* \"#utility.yul\":7337:7414   */\n    tag_308:\n        /* \"#utility.yul\":7374:7381   */\n      0x00\n        /* \"#utility.yul\":7403:7408   */\n      dup2\n        /* \"#utility.yul\":7392:7408   */\n      swap1\n      pop\n        /* \"#utility.yul\":7337:7414   */\n      swap2\n      swap1\n      pop\n      jump\t// out\n        /* \"#utility.yul\":7420:7549   */\n    tag_294:\n        /* \"#utility.yul\":7477:7486   */\n      0x00\n        /* \"#utility.yul\":7510:7543   */\n      tag_359\n        /* \"#utility.yul\":7537:7542   */\n      dup3\n        /* \"#utility.yul\":7510:7543   */\n      tag_352\n      jump\t// in\n    tag_359:\n        /* \"#utility.yul\":7497:7543   */\n      swap1\n      pop\n        /* \"#utility.yul\":7420:7549   */\n      swap2\n      swap1\n      pop\n      jump\t// out\n        /* \"#utility.yul\":7555:7862   */\n    tag_302:\n        /* \"#utility.yul\":7623:7624   */\n      0x00\n        /* \"#utility.yul\":7633:7746   */\n    tag_361:\n        /* \"#utility.yul\":7647:7653   */\n      dup4\n        /* \"#utility.yul\":7644:7645   */\n      dup2\n        /* \"#utility.yul\":7641:7654   */\n      lt\n        /* \"#utility.yul\":7633:7746   */\n      iszero\n      tag_363\n      jumpi\n        /* \"#utility.yul\":7732:7733   */\n      dup1\n        /* \"#utility.yul\":7727:7730   */\n      dup3\n        /* \"#utility.yul\":7723:7734   */\n      add\n        /* \"#utility.yul\":7717:7735   */\n      mload\n        /* \"#utility.yul\":7713:7714   */\n      dup2\n        /* \"#utility.yul\":7708:7711   */\n      dup5\n        /* \"#utility.yul\":7704:7715   */\n      add\n        /* \"#utility.yul\":7697:7736   */\n      mstore\n        /* \"#utility.yul\":7669:7671   */\n      0x20\n        /* \"#utility.yul\":7666:7667   */\n      dup2\n        /* \"#utility.yul\":7662:7672   */\n      add\n        /* \"#utility.yul\":7657:7672   */\n      swap1\n      pop\n        /* \"#utility.yul\":7633:7746   */\n      jump(tag_361)\n    tag_363:\n        /* \"#utility.yul\":7764:7770   */\n      dup4\n        /* \"#utility.yul\":7761:7762   */\n      dup2\n        /* \"#utility.yul\":7758:7771   */\n      gt\n        /* \"#utility.yul\":7755:7856   */\n      iszero\n      tag_364\n      jumpi\n        /* \"#utility.yul\":7844:7845   */\n      0x00\n        /* \"#utility.yul\":7835:7841   */\n      dup5\n        /* \"#utility.yul\":7830:7833   */\n      dup5\n        /* \"#utility.yul\":7826:7842   */\n      add\n        /* \"#utility.yul\":7819:7846   */\n      mstore\n        /* \"#utility.yul\":7755:7856   */\n    tag_364:\n        /* \"#utility.yul\":7604:7862   */\n      pop\n        /* \"#utility.yul\":7555:7862   */\n      pop\n      pop\n      pop\n      jump\t// out\n        /* \"#utility.yul\":7868:8188   */\n    tag_185:\n        /* \"#utility.yul\":7912:7918   */\n      0x00\n        /* \"#utility.yul\":7949:7950   */\n      0x02\n        /* \"#utility.yul\":7943:7947   */\n      dup3\n        /* \"#utility.yul\":7939:7951   */\n      div\n        /* \"#utility.yul\":7929:7951   */\n      swap1\n      pop\n        /* \"#utility.yul\":7996:7997   */\n      0x01\n        /* \"#utility.yul\":7990:7994   */\n      dup3\n        /* \"#utility.yul\":7986:7998   */\n      and\n        /* \"#utility.yul\":8017:8035   */\n      dup1\n        /* \"#utility.yul\":8007:8088   */\n      tag_366\n      jumpi\n        /* \"#utility.yul\":8073:8077   */\n      0x7f\n        /* \"#utility.yul\":8065:8071   */\n      dup3\n        /* \"#utility.yul\":8061:8078   */\n      and\n        /* \"#utility.yul\":8051:8078   */\n      swap2\n      pop\n        /* \"#utility.yul\":8007:8088   */\n    tag_366:\n        /* \"#utility.yul\":8135:8137   */\n      0x20\n        /* \"#utility.yul\":8127:8133   */\n      dup3\n        /* \"#utility.yul\":8124:8138   */\n      lt\n        /* \"#utility.yul\":8104:8122   */\n      dup2\n        /* \"#utility.yul\":8101:8139   */\n      eq\n        /* \"#utility.yul\":8098:8182   */\n      iszero\n      tag_367\n      jumpi\n        /* \"#utility.yul\":8154:8172   */\n      tag_368\n      tag_369\n      jump\t// in\n    tag_368:\n        /* \"#utility.yul\":8098:8182   */\n    tag_367:\n        /* \"#utility.yul\":7919:8188   */\n      pop\n        /* \"#utility.yul\":7868:8188   */\n      swap2\n      swap1\n      pop\n      jump\t// out\n        /* \"#utility.yul\":8194:8374   */\n    tag_334:\n        /* \"#utility.yul\":8242:8319   */\n      0x4e487b7100000000000000000000000000000000000000000000000000000000\n        /* \"#utility.yul\":8239:8240   */\n      0x00\n        /* \"#utility.yul\":8232:8320   */\n      mstore\n        /* \"#utility.yul\":8339:8343   */\n      0x11\n        /* \"#utility.yul\":8336:8337   */\n      0x04\n        /* \"#utility.yul\":8329:8344   */\n      mstore\n        /* \"#utility.yul\":8363:8367   */\n      0x24\n        /* \"#utility.yul\":8360:8361   */\n      0x00\n        /* \"#utility.yul\":8353:8368   */\n      revert\n        /* \"#utility.yul\":8380:8560   */\n    tag_340:\n        /* \"#utility.yul\":8428:8505   */\n      0x4e487b7100000000000000000000000000000000000000000000000000000000\n        /* \"#utility.yul\":8425:8426   */\n      0x00\n        /* \"#utility.yul\":8418:8506   */\n      mstore\n        /* \"#utility.yul\":8525:8529   */\n      0x12\n        /* \"#utility.yul\":8522:8523   */\n      0x04\n        /* \"#utility.yul\":8515:8530   */\n      mstore\n        /* \"#utility.yul\":8549:8553   */\n      0x24\n        /* \"#utility.yul\":8546:8547   */\n      0x00\n        /* \"#utility.yul\":8539:8554   */\n      revert\n        /* \"#utility.yul\":8566:8746   */\n    tag_159:\n        /* \"#utility.yul\":8614:8691   */\n      0x4e487b7100000000000000000000000000000000000000000000000000000000\n        /* \"#utility.yul\":8611:8612   */\n      0x00\n        /* \"#utility.yul\":8604:8692   */\n      mstore\n        /* \"#utility.yul\":8711:8715   */\n      0x21\n        /* \"#utility.yul\":8708:8709   */\n      0x04\n        /* \"#utility.yul\":8701:8716   */\n      mstore\n        /* \"#utility.yul\":8735:8739   */\n      0x24\n        /* \"#utility.yul\":8732:8733   */\n      0x00\n        /* \"#utility.yul\":8725:8740   */\n      revert\n        /* \"#utility.yul\":8752:8932   */\n    tag_369:\n        /* \"#utility.yul\":8800:8877   */\n      0x4e487b7100000000000000000000000000000000000000000000000000000000\n        /* \"#utility.yul\":8797:8798   */\n      0x00\n        /* \"#utility.yul\":8790:8878   */\n      mstore\n        /* \"#utility.yul\":8897:8901   */\n      0x22\n        /* \"#utility.yul\":8894:8895   */\n      0x04\n        /* \"#utility.yul\":8887:8902   */\n      mstore\n        /* \"#utility.yul\":8921:8925   */\n      0x24\n        /* \"#utility.yul\":8918:8919   */\n      0x00\n        /* \"#utility.yul\":8911:8926   */\n      revert\n        /* \"#utility.yul\":9061:9178   */\n    tag_257:\n        /* \"#utility.yul\":9170:9171   */\n      0x00\n        /* \"#utility.yul\":9167:9168   */\n      dup1\n        /* \"#utility.yul\":9160:9172   */\n      revert\n        /* \"#utility.yul\":9184:9286   */\n    tag_304:\n        /* \"#utility.yul\":9225:9231   */\n      0x00\n        /* \"#utility.yul\":9276:9278   */\n      0x1f\n        /* \"#utility.yul\":9272:9279   */\n      not\n        /* \"#utility.yul\":9267:9269   */\n      0x1f\n        /* \"#utility.yul\":9260:9265   */\n      dup4\n        /* \"#utility.yul\":9256:9270   */\n      add\n        /* \"#utility.yul\":9252:9280   */\n      and\n        /* \"#utility.yul\":9242:9280   */\n      swap1\n      pop\n        /* \"#utility.yul\":9184:9286   */\n      swap2\n      swap1\n      pop\n      jump\t// out\n        /* \"#utility.yul\":9292:9406   */\n    tag_355:\n        /* \"#utility.yul\":9374:9375   */\n      0x04\n        /* \"#utility.yul\":9367:9372   */\n      dup2\n        /* \"#utility.yul\":9364:9376   */\n      lt\n        /* \"#utility.yul\":9354:9400   */\n      tag_379\n      jumpi\n        /* \"#utility.yul\":9380:9398   */\n      tag_380\n      tag_159\n      jump\t// in\n    tag_380:\n        /* \"#utility.yul\":9354:9400   */\n    tag_379:\n        /* \"#utility.yul\":9292:9406   */\n      pop\n      jump\t// out\n        /* \"#utility.yul\":9412:9534   */\n    tag_245:\n        /* \"#utility.yul\":9485:9509   */\n      tag_382\n        /* \"#utility.yul\":9503:9508   */\n      dup2\n        /* \"#utility.yul\":9485:9509   */\n      tag_286\n      jump\t// in\n    tag_382:\n        /* \"#utility.yul\":9478:9483   */\n      dup2\n        /* \"#utility.yul\":9475:9510   */\n      eq\n        /* \"#utility.yul\":9465:9528   */\n      tag_383\n      jumpi\n        /* \"#utility.yul\":9524:9525   */\n      0x00\n        /* \"#utility.yul\":9521:9522   */\n      dup1\n        /* \"#utility.yul\":9514:9526   */\n      revert\n        /* \"#utility.yul\":9465:9528   */\n    tag_383:\n        /* \"#utility.yul\":9412:9534   */\n      pop\n      jump\t// out\n        /* \"#utility.yul\":9540:9678   */\n    tag_249:\n        /* \"#utility.yul\":9621:9653   */\n      tag_385\n        /* \"#utility.yul\":9647:9652   */\n      dup2\n        /* \"#utility.yul\":9621:9653   */\n      tag_282\n      jump\t// in\n    tag_385:\n        /* \"#utility.yul\":9614:9619   */\n      dup2\n        /* \"#utility.yul\":9611:9654   */\n      eq\n        /* \"#utility.yul\":9601:9672   */\n      tag_386\n      jumpi\n        /* \"#utility.yul\":9668:9669   */\n      0x00\n        /* \"#utility.yul\":9665:9666   */\n      dup1\n        /* \"#utility.yul\":9658:9670   */\n      revert\n        /* \"#utility.yul\":9601:9672   */\n    tag_386:\n        /* \"#utility.yul\":9540:9678   */\n      pop\n      jump\t// out\n        /* \"#utility.yul\":9684:9806   */\n    tag_253:\n        /* \"#utility.yul\":9757:9781   */\n      tag_388\n        /* \"#utility.yul\":9775:9780   */\n      dup2\n        /* \"#utility.yul\":9757:9781   */\n      tag_308\n      jump\t// in\n    tag_388:\n        /* \"#utility.yul\":9750:9755   */\n      dup2\n        /* \"#utility.yul\":9747:9782   */\n      eq\n        /* \"#utility.yul\":9737:9800   */\n      tag_389\n      jumpi\n        /* \"#utility.yul\":9796:9797   */\n      0x00\n        /* \"#utility.yul\":9793:9794   */\n      dup1\n        /* \"#utility.yul\":9786:9798   */\n      revert\n        /* \"#utility.yul\":9737:9800   */\n    tag_389:\n        /* \"#utility.yul\":9684:9806   */\n      pop\n      jump\t// out\n\n    auxdata: 0xa264697066735822122081b5d06bb368b06ef1847a0338c8a972da9677470d7272e7db5f42f7c6bd005464736f6c63430008070033\n}\n",
				"bytecode": {
					"linkReferences": {},
					"object": "60806040526040518060400160405280600d81526020017f50656e6e792050656e6e696573000000000000000000000000000000000000008152506000908051906020019062000051929190620002aa565b506040518060400160405280600581526020017f50454e4e59000000000000000000000000000000000000000000000000000000815250600190805190602001906200009f929190620002aa565b50600060025564e8d4a51000600955681043561a8829300000600a55600a42620000ca9190620003a3565b600c5562093a8042620000de9190620003a3565b600d5562093a80600d54620000f49190620003a3565b600e55674563918244f40000600f556509184e72a0006010553480156200011a57600080fd5b5060405162001e0238038062001e02833981810160405281019062000140919062000371565b620f424060038190555033600460006101000a81548173ffffffffffffffffffffffffffffffffffffffff021916908373ffffffffffffffffffffffffffffffffffffffff16021790555060035460056000600460009054906101000a900473ffffffffffffffffffffffffffffffffffffffff1673ffffffffffffffffffffffffffffffffffffffff1673ffffffffffffffffffffffffffffffffffffffff1681526020019081526020016000208190555080600860006101000a81548173ffffffffffffffffffffffffffffffffffffffff021916908373ffffffffffffffffffffffffffffffffffffffff16021790555033600760006101000a81548173ffffffffffffffffffffffffffffffffffffffff021916908373ffffffffffffffffffffffffffffffffffffffff1602179055506000601160006101000a81548160ff021916908360038111156200029e576200029d620004a3565b5b02179055505062000520565b828054620002b8906200043e565b90600052602060002090601f016020900481019282620002dc576000855562000328565b82601f10620002f757805160ff191683800117855562000328565b8280016001018555821562000328579182015b82811115620003275782518255916020019190600101906200030a565b5b5090506200033791906200033b565b5090565b5b80821115620003565760008160009055506001016200033c565b5090565b6000815190506200036b8162000506565b92915050565b6000602082840312156200038a576200038962000501565b5b60006200039a848285016200035a565b91505092915050565b6000620003b08262000434565b9150620003bd8362000434565b9250827fffffffffffffffffffffffffffffffffffffffffffffffffffffffffffffffff03821115620003f557620003f462000474565b5b828201905092915050565b60006200040d8262000414565b9050919050565b600073ffffffffffffffffffffffffffffffffffffffff82169050919050565b6000819050919050565b600060028204905060018216806200045757607f821691505b602082108114156200046e576200046d620004d2565b5b50919050565b7f4e487b7100000000000000000000000000000000000000000000000000000000600052601160045260246000fd5b7f4e487b7100000000000000000000000000000000000000000000000000000000600052602160045260246000fd5b7f4e487b7100000000000000000000000000000000000000000000000000000000600052602260045260246000fd5b600080fd5b620005118162000400565b81146200051d57600080fd5b50565b6118d280620005306000396000f3fe6080604052600436106101845760003560e01c806370a08231116100d1578063c59ee1dc1161008a578063dd62ed3e11610064578063dd62ed3e1461057b578063e8b5e51f146105b8578063f851a440146105d6578063fb86a4041461060157610194565b8063c59ee1dc146104fa578063cc9ba58314610525578063d0e30db01461055057610194565b806370a08231146103d45780638ac2c6801461041157806395d89b411461043c578063a9059cbb14610467578063ab0bcc41146104a4578063c10b9358146104cf57610194565b806327e235e31161013e5780633a2c7a37116101185780633a2c7a371461033e5780634d853ee5146103695780635ed7ca5b146103945780636d58c88f146103ab57610194565b806327e235e3146102ab578063313ce567146102e8578063378aa7011461031357610194565b80622e131614610199578063046f7da2146101c457806306fdde03146101db578063095ea7b31461020657806318160ddd1461024357806323b872dd1461026e57610194565b366101945761019161062c565b50005b600080fd5b3480156101a557600080fd5b506101ae610872565b6040516101bb919061159b565b60405180910390f35b3480156101d057600080fd5b506101d9610878565b005b3480156101e757600080fd5b506101f06108ff565b6040516101fd9190611579565b60405180910390f35b34801561021257600080fd5b5061022d60048036038101906102289190611412565b61098d565b60405161023a9190611543565b60405180910390f35b34801561024f57600080fd5b50610258610ad8565b604051610265919061159b565b60405180910390f35b34801561027a57600080fd5b50610295600480360381019061029091906113bf565b610ade565b6040516102a29190611543565b60405180910390f35b3480156102b757600080fd5b506102d260048036038101906102cd9190611325565b610b05565b6040516102df919061159b565b60405180910390f35b3480156102f457600080fd5b506102fd610b1d565b60405161030a919061159b565b60405180910390f35b34801561031f57600080fd5b50610328610b23565b604051610335919061155e565b60405180910390f35b34801561034a57600080fd5b50610353610ba6565b604051610360919061155e565b60405180910390f35b34801561037557600080fd5b5061037e610bb9565b60405161038b91906114d6565b60405180910390f35b3480156103a057600080fd5b506103a9610bdf565b005b3480156103b757600080fd5b506103d260048036038101906103cd9190611352565b610c66565b005b3480156103e057600080fd5b506103fb60048036038101906103f69190611325565b610d04565b604051610408919061159b565b60405180910390f35b34801561041d57600080fd5b50610426610d4d565b604051610433919061159b565b60405180910390f35b34801561044857600080fd5b50610451610d53565b60405161045e9190611579565b60405180910390f35b34801561047357600080fd5b5061048e60048036038101906104899190611412565b610de1565b60405161049b9190611543565b60405180910390f35b3480156104b057600080fd5b506104b9610e06565b6040516104c6919061159b565b60405180910390f35b3480156104db57600080fd5b506104e4610e0c565b6040516104f1919061159b565b60405180910390f35b34801561050657600080fd5b5061050f610e12565b60405161051c919061159b565b60405180910390f35b34801561053157600080fd5b5061053a610e18565b604051610547919061159b565b60405180910390f35b34801561055c57600080fd5b50610565610e1e565b60405161057291906114f1565b60405180910390f35b34801561058757600080fd5b506105a2600480360381019061059d919061137f565b610e44565b6040516105af919061159b565b60405180910390f35b6105c061062c565b6040516105cd9190611543565b60405180910390f35b3480156105e257600080fd5b506105eb610ecb565b6040516105f891906114d6565b60405180910390f35b34801561060d57600080fd5b50610616610ef1565b604051610623919061159b565b60405180910390f35b6000610636610b23565b601160006101000a81548160ff0219169083600381111561065a576106596117cf565b5b021790555060016003811115610673576106726117cf565b5b601160009054906101000a900460ff166003811115610695576106946117cf565b5b1461069f57600080fd5b60105434101580156106b35750600f543411155b6106bc57600080fd5b34600b60008282546106ce91906115d2565b92505081905550600a54600b5411156106e657600080fd5b6000600954346106f69190611628565b905080600560003373ffffffffffffffffffffffffffffffffffffffff1673ffffffffffffffffffffffffffffffffffffffff168152602001908152602001600020600082825461074791906115d2565b925050819055508060056000600460009054906101000a900473ffffffffffffffffffffffffffffffffffffffff1673ffffffffffffffffffffffffffffffffffffffff1673ffffffffffffffffffffffffffffffffffffffff16815260200190815260200160002060008282546107bf9190611659565b92505081905550600860009054906101000a900473ffffffffffffffffffffffffffffffffffffffff1673ffffffffffffffffffffffffffffffffffffffff166108fc349081150290604051600060405180830381858888f1935050505015801561082e573d6000803e3d6000fd5b507f4ae4bd7655e0d350876a23cd90c4227b13db560e34435c6a488150a9c844bf5f3334836040516108629392919061150c565b60405180910390a1600191505090565b600f5481565b600760009054906101000a900473ffffffffffffffffffffffffffffffffffffffff1673ffffffffffffffffffffffffffffffffffffffff163373ffffffffffffffffffffffffffffffffffffffff16146108d257600080fd5b6001601160006101000a81548160ff021916908360038111156108f8576108f76117cf565b5b0217905550565b6000805461090c9061173f565b80601f01602080910402602001604051908101604052809291908181526020018280546109389061173f565b80156109855780601f1061095a57610100808354040283529160200191610985565b820191906000526020600020905b81548152906001019060200180831161096857829003601f168201915b505050505081565b600081600560003373ffffffffffffffffffffffffffffffffffffffff1673ffffffffffffffffffffffffffffffffffffffff1681526020019081526020016000205410156109db57600080fd5b600082116109e857600080fd5b81600660003373ffffffffffffffffffffffffffffffffffffffff1673ffffffffffffffffffffffffffffffffffffffff16815260200190815260200160002060008573ffffffffffffffffffffffffffffffffffffffff1673ffffffffffffffffffffffffffffffffffffffff168152602001908152602001600020819055508273ffffffffffffffffffffffffffffffffffffffff163373ffffffffffffffffffffffffffffffffffffffff167f8c5be1e5ebec7d5bd14f71427d1e84f3dd0314c0f7b2291e5b200ac8c7c3b92584604051610ac6919061159b565b60405180910390a36001905092915050565b60035481565b6000600e544211610aee57600080fd5b610af9848484610ef7565b50600190509392505050565b60056020528060005260406000206000915090505481565b60025481565b6000600380811115610b3857610b376117cf565b5b601160009054906101000a900460ff166003811115610b5a57610b596117cf565b5b1415610b695760039050610ba3565b600c54421015610b7c5760009050610ba3565b600c544210158015610b905750600d544211155b15610b9e5760019050610ba3565b600290505b90565b601160009054906101000a900460ff1681565b600460009054906101000a900473ffffffffffffffffffffffffffffffffffffffff1681565b600760009054906101000a900473ffffffffffffffffffffffffffffffffffffffff1673ffffffffffffffffffffffffffffffffffffffff163373ffffffffffffffffffffffffffffffffffffffff1614610c3957600080fd5b6003601160006101000a81548160ff02191690836003811115610c5f57610c5e6117cf565b5b0217905550565b600760009054906101000a900473ffffffffffffffffffffffffffffffffffffffff1673ffffffffffffffffffffffffffffffffffffffff163373ffffffffffffffffffffffffffffffffffffffff1614610cc057600080fd5b80600860006101000a81548173ffffffffffffffffffffffffffffffffffffffff021916908373ffffffffffffffffffffffffffffffffffffffff16021790555050565b6000600560008373ffffffffffffffffffffffffffffffffffffffff1673ffffffffffffffffffffffffffffffffffffffff168152602001908152602001600020549050919050565b60105481565b60018054610d609061173f565b80601f0160208091040260200160405190810160405280929190818152602001828054610d8c9061173f565b8015610dd95780601f10610dae57610100808354040283529160200191610dd9565b820191906000526020600020905b815481529060010190602001808311610dbc57829003601f168201915b505050505081565b6000600e544211610df157600080fd5b610dfb838361117d565b506001905092915050565b600c5481565b600d5481565b600b5481565b600e5481565b600860009054906101000a900473ffffffffffffffffffffffffffffffffffffffff1681565b6000600660008473ffffffffffffffffffffffffffffffffffffffff1673ffffffffffffffffffffffffffffffffffffffff16815260200190815260200160002060008373ffffffffffffffffffffffffffffffffffffffff1673ffffffffffffffffffffffffffffffffffffffff16815260200190815260200160002054905092915050565b600760009054906101000a900473ffffffffffffffffffffffffffffffffffffffff1681565b600a5481565b600081600660008673ffffffffffffffffffffffffffffffffffffffff1673ffffffffffffffffffffffffffffffffffffffff16815260200190815260200160002060003373ffffffffffffffffffffffffffffffffffffffff1673ffffffffffffffffffffffffffffffffffffffff168152602001908152602001600020541015610f8257600080fd5b81600560008673ffffffffffffffffffffffffffffffffffffffff1673ffffffffffffffffffffffffffffffffffffffff168152602001908152602001600020541015610fce57600080fd5b81600560008673ffffffffffffffffffffffffffffffffffffffff1673ffffffffffffffffffffffffffffffffffffffff168152602001908152602001600020600082825461101d9190611659565b9250508190555081600660008673ffffffffffffffffffffffffffffffffffffffff1673ffffffffffffffffffffffffffffffffffffffff16815260200190815260200160002060003373ffffffffffffffffffffffffffffffffffffffff1673ffffffffffffffffffffffffffffffffffffffff16815260200190815260200160002060008282546110b09190611659565b9250508190555081600560008573ffffffffffffffffffffffffffffffffffffffff1673ffffffffffffffffffffffffffffffffffffffff168152602001908152602001600020600082825461110691906115d2565b925050819055508273ffffffffffffffffffffffffffffffffffffffff168473ffffffffffffffffffffffffffffffffffffffff167fddf252ad1be2c89b69c2b068fc378daa952ba7f163c4a11628f55a4df523b3ef8460405161116a919061159b565b60405180910390a3600190509392505050565b600081600560003373ffffffffffffffffffffffffffffffffffffffff1673ffffffffffffffffffffffffffffffffffffffff1681526020019081526020016000205410156111cb57600080fd5b81600560008573ffffffffffffffffffffffffffffffffffffffff1673ffffffffffffffffffffffffffffffffffffffff168152602001908152602001600020600082825461121a91906115d2565b9250508190555081600560003373ffffffffffffffffffffffffffffffffffffffff1673ffffffffffffffffffffffffffffffffffffffff16815260200190815260200160002060008282546112709190611659565b925050819055508273ffffffffffffffffffffffffffffffffffffffff163373ffffffffffffffffffffffffffffffffffffffff167fddf252ad1be2c89b69c2b068fc378daa952ba7f163c4a11628f55a4df523b3ef846040516112d4919061159b565b60405180910390a36001905092915050565b6000813590506112f581611857565b92915050565b60008135905061130a8161186e565b92915050565b60008135905061131f81611885565b92915050565b60006020828403121561133b5761133a61182d565b5b6000611349848285016112e6565b91505092915050565b6000602082840312156113685761136761182d565b5b6000611376848285016112fb565b91505092915050565b600080604083850312156113965761139561182d565b5b60006113a4858286016112e6565b92505060206113b5858286016112e6565b9150509250929050565b6000806000606084860312156113d8576113d761182d565b5b60006113e6868287016112e6565b93505060206113f7868287016112e6565b925050604061140886828701611310565b9150509250925092565b600080604083850312156114295761142861182d565b5b6000611437858286016112e6565b925050602061144885828601611310565b9150509250929050565b61145b8161169f565b82525050565b61146a8161168d565b82525050565b611479816116b1565b82525050565b611488816116fa565b82525050565b6000611499826115b6565b6114a381856115c1565b93506114b381856020860161170c565b6114bc81611832565b840191505092915050565b6114d0816116f0565b82525050565b60006020820190506114eb6000830184611461565b92915050565b60006020820190506115066000830184611452565b92915050565b60006060820190506115216000830186611461565b61152e60208301856114c7565b61153b60408301846114c7565b949350505050565b60006020820190506115586000830184611470565b92915050565b6000602082019050611573600083018461147f565b92915050565b60006020820190508181036000830152611593818461148e565b905092915050565b60006020820190506115b060008301846114c7565b92915050565b600081519050919050565b600082825260208201905092915050565b60006115dd826116f0565b91506115e8836116f0565b9250827fffffffffffffffffffffffffffffffffffffffffffffffffffffffffffffffff0382111561161d5761161c611771565b5b828201905092915050565b6000611633826116f0565b915061163e836116f0565b92508261164e5761164d6117a0565b5b828204905092915050565b6000611664826116f0565b915061166f836116f0565b92508282101561168257611681611771565b5b828203905092915050565b6000611698826116d0565b9050919050565b60006116aa826116d0565b9050919050565b60008115159050919050565b60008190506116cb82611843565b919050565b600073ffffffffffffffffffffffffffffffffffffffff82169050919050565b6000819050919050565b6000611705826116bd565b9050919050565b60005b8381101561172a57808201518184015260208101905061170f565b83811115611739576000848401525b50505050565b6000600282049050600182168061175757607f821691505b6020821081141561176b5761176a6117fe565b5b50919050565b7f4e487b7100000000000000000000000000000000000000000000000000000000600052601160045260246000fd5b7f4e487b7100000000000000000000000000000000000000000000000000000000600052601260045260246000fd5b7f4e487b7100000000000000000000000000000000000000000000000000000000600052602160045260246000fd5b7f4e487b7100000000000000000000000000000000000000000000000000000000600052602260045260246000fd5b600080fd5b6000601f19601f8301169050919050565b60048110611854576118536117cf565b5b50565b6118608161168d565b811461186b57600080fd5b50565b6118778161169f565b811461188257600080fd5b50565b61188e816116f0565b811461189957600080fd5b5056fea264697066735822122081b5d06bb368b06ef1847a0338c8a972da9677470d7272e7db5f42f7c6bd005464736f6c63430008070033",
					"opcodes": "PUSH1 0x80 PUSH1 0x40 MSTORE PUSH1 0x40 MLOAD DUP1 PUSH1 0x40 ADD PUSH1 0x40 MSTORE DUP1 PUSH1 0xD DUP2 MSTORE PUSH1 0x20 ADD PUSH32 0x50656E6E792050656E6E69657300000000000000000000000000000000000000 DUP2 MSTORE POP PUSH1 0x0 SWAP1 DUP1 MLOAD SWAP1 PUSH1 0x20 ADD SWAP1 PUSH3 0x51 SWAP3 SWAP2 SWAP1 PUSH3 0x2AA JUMP JUMPDEST POP PUSH1 0x40 MLOAD DUP1 PUSH1 0x40 ADD PUSH1 0x40 MSTORE DUP1 PUSH1 0x5 DUP2 MSTORE PUSH1 0x20 ADD PUSH32 0x50454E4E59000000000000000000000000000000000000000000000000000000 DUP2 MSTORE POP PUSH1 0x1 SWAP1 DUP1 MLOAD SWAP1 PUSH1 0x20 ADD SWAP1 PUSH3 0x9F SWAP3 SWAP2 SWAP1 PUSH3 0x2AA JUMP JUMPDEST POP PUSH1 0x0 PUSH1 0x2 SSTORE PUSH5 0xE8D4A51000 PUSH1 0x9 SSTORE PUSH9 0x1043561A8829300000 PUSH1 0xA SSTORE PUSH1 0xA TIMESTAMP PUSH3 0xCA SWAP2 SWAP1 PUSH3 0x3A3 JUMP JUMPDEST PUSH1 0xC SSTORE PUSH3 0x93A80 TIMESTAMP PUSH3 0xDE SWAP2 SWAP1 PUSH3 0x3A3 JUMP JUMPDEST PUSH1 0xD SSTORE PUSH3 0x93A80 PUSH1 0xD SLOAD PUSH3 0xF4 SWAP2 SWAP1 PUSH3 0x3A3 JUMP JUMPDEST PUSH1 0xE SSTORE PUSH8 0x4563918244F40000 PUSH1 0xF SSTORE PUSH6 0x9184E72A000 PUSH1 0x10 SSTORE CALLVALUE DUP1 ISZERO PUSH3 0x11A JUMPI PUSH1 0x0 DUP1 REVERT JUMPDEST POP PUSH1 0x40 MLOAD PUSH3 0x1E02 CODESIZE SUB DUP1 PUSH3 0x1E02 DUP4 CODECOPY DUP2 DUP2 ADD PUSH1 0x40 MSTORE DUP2 ADD SWAP1 PUSH3 0x140 SWAP2 SWAP1 PUSH3 0x371 JUMP JUMPDEST PUSH3 0xF4240 PUSH1 0x3 DUP2 SWAP1 SSTORE POP CALLER PUSH1 0x4 PUSH1 0x0 PUSH2 0x100 EXP DUP2 SLOAD DUP2 PUSH20 0xFFFFFFFFFFFFFFFFFFFFFFFFFFFFFFFFFFFFFFFF MUL NOT AND SWAP1 DUP4 PUSH20 0xFFFFFFFFFFFFFFFFFFFFFFFFFFFFFFFFFFFFFFFF AND MUL OR SWAP1 SSTORE POP PUSH1 0x3 SLOAD PUSH1 0x5 PUSH1 0x0 PUSH1 0x4 PUSH1 0x0 SWAP1 SLOAD SWAP1 PUSH2 0x100 EXP SWAP1 DIV PUSH20 0xFFFFFFFFFFFFFFFFFFFFFFFFFFFFFFFFFFFFFFFF AND PUSH20 0xFFFFFFFFFFFFFFFFFFFFFFFFFFFFFFFFFFFFFFFF AND PUSH20 0xFFFFFFFFFFFFFFFFFFFFFFFFFFFFFFFFFFFFFFFF AND DUP2 MSTORE PUSH1 0x20 ADD SWAP1 DUP2 MSTORE PUSH1 0x20 ADD PUSH1 0x0 KECCAK256 DUP2 SWAP1 SSTORE POP DUP1 PUSH1 0x8 PUSH1 0x0 PUSH2 0x100 EXP DUP2 SLOAD DUP2 PUSH20 0xFFFFFFFFFFFFFFFFFFFFFFFFFFFFFFFFFFFFFFFF MUL NOT AND SWAP1 DUP4 PUSH20 0xFFFFFFFFFFFFFFFFFFFFFFFFFFFFFFFFFFFFFFFF AND MUL OR SWAP1 SSTORE POP CALLER PUSH1 0x7 PUSH1 0x0 PUSH2 0x100 EXP DUP2 SLOAD DUP2 PUSH20 0xFFFFFFFFFFFFFFFFFFFFFFFFFFFFFFFFFFFFFFFF MUL NOT AND SWAP1 DUP4 PUSH20 0xFFFFFFFFFFFFFFFFFFFFFFFFFFFFFFFFFFFFFFFF AND MUL OR SWAP1 SSTORE POP PUSH1 0x0 PUSH1 0x11 PUSH1 0x0 PUSH2 0x100 EXP DUP2 SLOAD DUP2 PUSH1 0xFF MUL NOT AND SWAP1 DUP4 PUSH1 0x3 DUP2 GT ISZERO PUSH3 0x29E JUMPI PUSH3 0x29D PUSH3 0x4A3 JUMP JUMPDEST JUMPDEST MUL OR SWAP1 SSTORE POP POP PUSH3 0x520 JUMP JUMPDEST DUP3 DUP1 SLOAD PUSH3 0x2B8 SWAP1 PUSH3 0x43E JUMP JUMPDEST SWAP1 PUSH1 0x0 MSTORE PUSH1 0x20 PUSH1 0x0 KECCAK256 SWAP1 PUSH1 0x1F ADD PUSH1 0x20 SWAP1 DIV DUP2 ADD SWAP3 DUP3 PUSH3 0x2DC JUMPI PUSH1 0x0 DUP6 SSTORE PUSH3 0x328 JUMP JUMPDEST DUP3 PUSH1 0x1F LT PUSH3 0x2F7 JUMPI DUP1 MLOAD PUSH1 0xFF NOT AND DUP4 DUP1 ADD OR DUP6 SSTORE PUSH3 0x328 JUMP JUMPDEST DUP3 DUP1 ADD PUSH1 0x1 ADD DUP6 SSTORE DUP3 ISZERO PUSH3 0x328 JUMPI SWAP2 DUP3 ADD JUMPDEST DUP3 DUP2 GT ISZERO PUSH3 0x327 JUMPI DUP3 MLOAD DUP3 SSTORE SWAP2 PUSH1 0x20 ADD SWAP2 SWAP1 PUSH1 0x1 ADD SWAP1 PUSH3 0x30A JUMP JUMPDEST JUMPDEST POP SWAP1 POP PUSH3 0x337 SWAP2 SWAP1 PUSH3 0x33B JUMP JUMPDEST POP SWAP1 JUMP JUMPDEST JUMPDEST DUP1 DUP3 GT ISZERO PUSH3 0x356 JUMPI PUSH1 0x0 DUP2 PUSH1 0x0 SWAP1 SSTORE POP PUSH1 0x1 ADD PUSH3 0x33C JUMP JUMPDEST POP SWAP1 JUMP JUMPDEST PUSH1 0x0 DUP2 MLOAD SWAP1 POP PUSH3 0x36B DUP2 PUSH3 0x506 JUMP JUMPDEST SWAP3 SWAP2 POP POP JUMP JUMPDEST PUSH1 0x0 PUSH1 0x20 DUP3 DUP5 SUB SLT ISZERO PUSH3 0x38A JUMPI PUSH3 0x389 PUSH3 0x501 JUMP JUMPDEST JUMPDEST PUSH1 0x0 PUSH3 0x39A DUP5 DUP3 DUP6 ADD PUSH3 0x35A JUMP JUMPDEST SWAP2 POP POP SWAP3 SWAP2 POP POP JUMP JUMPDEST PUSH1 0x0 PUSH3 0x3B0 DUP3 PUSH3 0x434 JUMP JUMPDEST SWAP2 POP PUSH3 0x3BD DUP4 PUSH3 0x434 JUMP JUMPDEST SWAP3 POP DUP3 PUSH32 0xFFFFFFFFFFFFFFFFFFFFFFFFFFFFFFFFFFFFFFFFFFFFFFFFFFFFFFFFFFFFFFFF SUB DUP3 GT ISZERO PUSH3 0x3F5 JUMPI PUSH3 0x3F4 PUSH3 0x474 JUMP JUMPDEST JUMPDEST DUP3 DUP3 ADD SWAP1 POP SWAP3 SWAP2 POP POP JUMP JUMPDEST PUSH1 0x0 PUSH3 0x40D DUP3 PUSH3 0x414 JUMP JUMPDEST SWAP1 POP SWAP2 SWAP1 POP JUMP JUMPDEST PUSH1 0x0 PUSH20 0xFFFFFFFFFFFFFFFFFFFFFFFFFFFFFFFFFFFFFFFF DUP3 AND SWAP1 POP SWAP2 SWAP1 POP JUMP JUMPDEST PUSH1 0x0 DUP2 SWAP1 POP SWAP2 SWAP1 POP JUMP JUMPDEST PUSH1 0x0 PUSH1 0x2 DUP3 DIV SWAP1 POP PUSH1 0x1 DUP3 AND DUP1 PUSH3 0x457 JUMPI PUSH1 0x7F DUP3 AND SWAP2 POP JUMPDEST PUSH1 0x20 DUP3 LT DUP2 EQ ISZERO PUSH3 0x46E JUMPI PUSH3 0x46D PUSH3 0x4D2 JUMP JUMPDEST JUMPDEST POP SWAP2 SWAP1 POP JUMP JUMPDEST PUSH32 0x4E487B7100000000000000000000000000000000000000000000000000000000 PUSH1 0x0 MSTORE PUSH1 0x11 PUSH1 0x4 MSTORE PUSH1 0x24 PUSH1 0x0 REVERT JUMPDEST PUSH32 0x4E487B7100000000000000000000000000000000000000000000000000000000 PUSH1 0x0 MSTORE PUSH1 0x21 PUSH1 0x4 MSTORE PUSH1 0x24 PUSH1 0x0 REVERT JUMPDEST PUSH32 0x4E487B7100000000000000000000000000000000000000000000000000000000 PUSH1 0x0 MSTORE PUSH1 0x22 PUSH1 0x4 MSTORE PUSH1 0x24 PUSH1 0x0 REVERT JUMPDEST PUSH1 0x0 DUP1 REVERT JUMPDEST PUSH3 0x511 DUP2 PUSH3 0x400 JUMP JUMPDEST DUP2 EQ PUSH3 0x51D JUMPI PUSH1 0x0 DUP1 REVERT JUMPDEST POP JUMP JUMPDEST PUSH2 0x18D2 DUP1 PUSH3 0x530 PUSH1 0x0 CODECOPY PUSH1 0x0 RETURN INVALID PUSH1 0x80 PUSH1 0x40 MSTORE PUSH1 0x4 CALLDATASIZE LT PUSH2 0x184 JUMPI PUSH1 0x0 CALLDATALOAD PUSH1 0xE0 SHR DUP1 PUSH4 0x70A08231 GT PUSH2 0xD1 JUMPI DUP1 PUSH4 0xC59EE1DC GT PUSH2 0x8A JUMPI DUP1 PUSH4 0xDD62ED3E GT PUSH2 0x64 JUMPI DUP1 PUSH4 0xDD62ED3E EQ PUSH2 0x57B JUMPI DUP1 PUSH4 0xE8B5E51F EQ PUSH2 0x5B8 JUMPI DUP1 PUSH4 0xF851A440 EQ PUSH2 0x5D6 JUMPI DUP1 PUSH4 0xFB86A404 EQ PUSH2 0x601 JUMPI PUSH2 0x194 JUMP JUMPDEST DUP1 PUSH4 0xC59EE1DC EQ PUSH2 0x4FA JUMPI DUP1 PUSH4 0xCC9BA583 EQ PUSH2 0x525 JUMPI DUP1 PUSH4 0xD0E30DB0 EQ PUSH2 0x550 JUMPI PUSH2 0x194 JUMP JUMPDEST DUP1 PUSH4 0x70A08231 EQ PUSH2 0x3D4 JUMPI DUP1 PUSH4 0x8AC2C680 EQ PUSH2 0x411 JUMPI DUP1 PUSH4 0x95D89B41 EQ PUSH2 0x43C JUMPI DUP1 PUSH4 0xA9059CBB EQ PUSH2 0x467 JUMPI DUP1 PUSH4 0xAB0BCC41 EQ PUSH2 0x4A4 JUMPI DUP1 PUSH4 0xC10B9358 EQ PUSH2 0x4CF JUMPI PUSH2 0x194 JUMP JUMPDEST DUP1 PUSH4 0x27E235E3 GT PUSH2 0x13E JUMPI DUP1 PUSH4 0x3A2C7A37 GT PUSH2 0x118 JUMPI DUP1 PUSH4 0x3A2C7A37 EQ PUSH2 0x33E JUMPI DUP1 PUSH4 0x4D853EE5 EQ PUSH2 0x369 JUMPI DUP1 PUSH4 0x5ED7CA5B EQ PUSH2 0x394 JUMPI DUP1 PUSH4 0x6D58C88F EQ PUSH2 0x3AB JUMPI PUSH2 0x194 JUMP JUMPDEST DUP1 PUSH4 0x27E235E3 EQ PUSH2 0x2AB JUMPI DUP1 PUSH4 0x313CE567 EQ PUSH2 0x2E8 JUMPI DUP1 PUSH4 0x378AA701 EQ PUSH2 0x313 JUMPI PUSH2 0x194 JUMP JUMPDEST DUP1 PUSH3 0x2E1316 EQ PUSH2 0x199 JUMPI DUP1 PUSH4 0x46F7DA2 EQ PUSH2 0x1C4 JUMPI DUP1 PUSH4 0x6FDDE03 EQ PUSH2 0x1DB JUMPI DUP1 PUSH4 0x95EA7B3 EQ PUSH2 0x206 JUMPI DUP1 PUSH4 0x18160DDD EQ PUSH2 0x243 JUMPI DUP1 PUSH4 0x23B872DD EQ PUSH2 0x26E JUMPI PUSH2 0x194 JUMP JUMPDEST CALLDATASIZE PUSH2 0x194 JUMPI PUSH2 0x191 PUSH2 0x62C JUMP JUMPDEST POP STOP JUMPDEST PUSH1 0x0 DUP1 REVERT JUMPDEST CALLVALUE DUP1 ISZERO PUSH2 0x1A5 JUMPI PUSH1 0x0 DUP1 REVERT JUMPDEST POP PUSH2 0x1AE PUSH2 0x872 JUMP JUMPDEST PUSH1 0x40 MLOAD PUSH2 0x1BB SWAP2 SWAP1 PUSH2 0x159B JUMP JUMPDEST PUSH1 0x40 MLOAD DUP1 SWAP2 SUB SWAP1 RETURN JUMPDEST CALLVALUE DUP1 ISZERO PUSH2 0x1D0 JUMPI PUSH1 0x0 DUP1 REVERT JUMPDEST POP PUSH2 0x1D9 PUSH2 0x878 JUMP JUMPDEST STOP JUMPDEST CALLVALUE DUP1 ISZERO PUSH2 0x1E7 JUMPI PUSH1 0x0 DUP1 REVERT JUMPDEST POP PUSH2 0x1F0 PUSH2 0x8FF JUMP JUMPDEST PUSH1 0x40 MLOAD PUSH2 0x1FD SWAP2 SWAP1 PUSH2 0x1579 JUMP JUMPDEST PUSH1 0x40 MLOAD DUP1 SWAP2 SUB SWAP1 RETURN JUMPDEST CALLVALUE DUP1 ISZERO PUSH2 0x212 JUMPI PUSH1 0x0 DUP1 REVERT JUMPDEST POP PUSH2 0x22D PUSH1 0x4 DUP1 CALLDATASIZE SUB DUP2 ADD SWAP1 PUSH2 0x228 SWAP2 SWAP1 PUSH2 0x1412 JUMP JUMPDEST PUSH2 0x98D JUMP JUMPDEST PUSH1 0x40 MLOAD PUSH2 0x23A SWAP2 SWAP1 PUSH2 0x1543 JUMP JUMPDEST PUSH1 0x40 MLOAD DUP1 SWAP2 SUB SWAP1 RETURN JUMPDEST CALLVALUE DUP1 ISZERO PUSH2 0x24F JUMPI PUSH1 0x0 DUP1 REVERT JUMPDEST POP PUSH2 0x258 PUSH2 0xAD8 JUMP JUMPDEST PUSH1 0x40 MLOAD PUSH2 0x265 SWAP2 SWAP1 PUSH2 0x159B JUMP JUMPDEST PUSH1 0x40 MLOAD DUP1 SWAP2 SUB SWAP1 RETURN JUMPDEST CALLVALUE DUP1 ISZERO PUSH2 0x27A JUMPI PUSH1 0x0 DUP1 REVERT JUMPDEST POP PUSH2 0x295 PUSH1 0x4 DUP1 CALLDATASIZE SUB DUP2 ADD SWAP1 PUSH2 0x290 SWAP2 SWAP1 PUSH2 0x13BF JUMP JUMPDEST PUSH2 0xADE JUMP JUMPDEST PUSH1 0x40 MLOAD PUSH2 0x2A2 SWAP2 SWAP1 PUSH2 0x1543 JUMP JUMPDEST PUSH1 0x40 MLOAD DUP1 SWAP2 SUB SWAP1 RETURN JUMPDEST CALLVALUE DUP1 ISZERO PUSH2 0x2B7 JUMPI PUSH1 0x0 DUP1 REVERT JUMPDEST POP PUSH2 0x2D2 PUSH1 0x4 DUP1 CALLDATASIZE SUB DUP2 ADD SWAP1 PUSH2 0x2CD SWAP2 SWAP1 PUSH2 0x1325 JUMP JUMPDEST PUSH2 0xB05 JUMP JUMPDEST PUSH1 0x40 MLOAD PUSH2 0x2DF SWAP2 SWAP1 PUSH2 0x159B JUMP JUMPDEST PUSH1 0x40 MLOAD DUP1 SWAP2 SUB SWAP1 RETURN JUMPDEST CALLVALUE DUP1 ISZERO PUSH2 0x2F4 JUMPI PUSH1 0x0 DUP1 REVERT JUMPDEST POP PUSH2 0x2FD PUSH2 0xB1D JUMP JUMPDEST PUSH1 0x40 MLOAD PUSH2 0x30A SWAP2 SWAP1 PUSH2 0x159B JUMP JUMPDEST PUSH1 0x40 MLOAD DUP1 SWAP2 SUB SWAP1 RETURN JUMPDEST CALLVALUE DUP1 ISZERO PUSH2 0x31F JUMPI PUSH1 0x0 DUP1 REVERT JUMPDEST POP PUSH2 0x328 PUSH2 0xB23 JUMP JUMPDEST PUSH1 0x40 MLOAD PUSH2 0x335 SWAP2 SWAP1 PUSH2 0x155E JUMP JUMPDEST PUSH1 0x40 MLOAD DUP1 SWAP2 SUB SWAP1 RETURN JUMPDEST CALLVALUE DUP1 ISZERO PUSH2 0x34A JUMPI PUSH1 0x0 DUP1 REVERT JUMPDEST POP PUSH2 0x353 PUSH2 0xBA6 JUMP JUMPDEST PUSH1 0x40 MLOAD PUSH2 0x360 SWAP2 SWAP1 PUSH2 0x155E JUMP JUMPDEST PUSH1 0x40 MLOAD DUP1 SWAP2 SUB SWAP1 RETURN JUMPDEST CALLVALUE DUP1 ISZERO PUSH2 0x375 JUMPI PUSH1 0x0 DUP1 REVERT JUMPDEST POP PUSH2 0x37E PUSH2 0xBB9 JUMP JUMPDEST PUSH1 0x40 MLOAD PUSH2 0x38B SWAP2 SWAP1 PUSH2 0x14D6 JUMP JUMPDEST PUSH1 0x40 MLOAD DUP1 SWAP2 SUB SWAP1 RETURN JUMPDEST CALLVALUE DUP1 ISZERO PUSH2 0x3A0 JUMPI PUSH1 0x0 DUP1 REVERT JUMPDEST POP PUSH2 0x3A9 PUSH2 0xBDF JUMP JUMPDEST STOP JUMPDEST CALLVALUE DUP1 ISZERO PUSH2 0x3B7 JUMPI PUSH1 0x0 DUP1 REVERT JUMPDEST POP PUSH2 0x3D2 PUSH1 0x4 DUP1 CALLDATASIZE SUB DUP2 ADD SWAP1 PUSH2 0x3CD SWAP2 SWAP1 PUSH2 0x1352 JUMP JUMPDEST PUSH2 0xC66 JUMP JUMPDEST STOP JUMPDEST CALLVALUE DUP1 ISZERO PUSH2 0x3E0 JUMPI PUSH1 0x0 DUP1 REVERT JUMPDEST POP PUSH2 0x3FB PUSH1 0x4 DUP1 CALLDATASIZE SUB DUP2 ADD SWAP1 PUSH2 0x3F6 SWAP2 SWAP1 PUSH2 0x1325 JUMP JUMPDEST PUSH2 0xD04 JUMP JUMPDEST PUSH1 0x40 MLOAD PUSH2 0x408 SWAP2 SWAP1 PUSH2 0x159B JUMP JUMPDEST PUSH1 0x40 MLOAD DUP1 SWAP2 SUB SWAP1 RETURN JUMPDEST CALLVALUE DUP1 ISZERO PUSH2 0x41D JUMPI PUSH1 0x0 DUP1 REVERT JUMPDEST POP PUSH2 0x426 PUSH2 0xD4D JUMP JUMPDEST PUSH1 0x40 MLOAD PUSH2 0x433 SWAP2 SWAP1 PUSH2 0x159B JUMP JUMPDEST PUSH1 0x40 MLOAD DUP1 SWAP2 SUB SWAP1 RETURN JUMPDEST CALLVALUE DUP1 ISZERO PUSH2 0x448 JUMPI PUSH1 0x0 DUP1 REVERT JUMPDEST POP PUSH2 0x451 PUSH2 0xD53 JUMP JUMPDEST PUSH1 0x40 MLOAD PUSH2 0x45E SWAP2 SWAP1 PUSH2 0x1579 JUMP JUMPDEST PUSH1 0x40 MLOAD DUP1 SWAP2 SUB SWAP1 RETURN JUMPDEST CALLVALUE DUP1 ISZERO PUSH2 0x473 JUMPI PUSH1 0x0 DUP1 REVERT JUMPDEST POP PUSH2 0x48E PUSH1 0x4 DUP1 CALLDATASIZE SUB DUP2 ADD SWAP1 PUSH2 0x489 SWAP2 SWAP1 PUSH2 0x1412 JUMP JUMPDEST PUSH2 0xDE1 JUMP JUMPDEST PUSH1 0x40 MLOAD PUSH2 0x49B SWAP2 SWAP1 PUSH2 0x1543 JUMP JUMPDEST PUSH1 0x40 MLOAD DUP1 SWAP2 SUB SWAP1 RETURN JUMPDEST CALLVALUE DUP1 ISZERO PUSH2 0x4B0 JUMPI PUSH1 0x0 DUP1 REVERT JUMPDEST POP PUSH2 0x4B9 PUSH2 0xE06 JUMP JUMPDEST PUSH1 0x40 MLOAD PUSH2 0x4C6 SWAP2 SWAP1 PUSH2 0x159B JUMP JUMPDEST PUSH1 0x40 MLOAD DUP1 SWAP2 SUB SWAP1 RETURN JUMPDEST CALLVALUE DUP1 ISZERO PUSH2 0x4DB JUMPI PUSH1 0x0 DUP1 REVERT JUMPDEST POP PUSH2 0x4E4 PUSH2 0xE0C JUMP JUMPDEST PUSH1 0x40 MLOAD PUSH2 0x4F1 SWAP2 SWAP1 PUSH2 0x159B JUMP JUMPDEST PUSH1 0x40 MLOAD DUP1 SWAP2 SUB SWAP1 RETURN JUMPDEST CALLVALUE DUP1 ISZERO PUSH2 0x506 JUMPI PUSH1 0x0 DUP1 REVERT JUMPDEST POP PUSH2 0x50F PUSH2 0xE12 JUMP JUMPDEST PUSH1 0x40 MLOAD PUSH2 0x51C SWAP2 SWAP1 PUSH2 0x159B JUMP JUMPDEST PUSH1 0x40 MLOAD DUP1 SWAP2 SUB SWAP1 RETURN JUMPDEST CALLVALUE DUP1 ISZERO PUSH2 0x531 JUMPI PUSH1 0x0 DUP1 REVERT JUMPDEST POP PUSH2 0x53A PUSH2 0xE18 JUMP JUMPDEST PUSH1 0x40 MLOAD PUSH2 0x547 SWAP2 SWAP1 PUSH2 0x159B JUMP JUMPDEST PUSH1 0x40 MLOAD DUP1 SWAP2 SUB SWAP1 RETURN JUMPDEST CALLVALUE DUP1 ISZERO PUSH2 0x55C JUMPI PUSH1 0x0 DUP1 REVERT JUMPDEST POP PUSH2 0x565 PUSH2 0xE1E JUMP JUMPDEST PUSH1 0x40 MLOAD PUSH2 0x572 SWAP2 SWAP1 PUSH2 0x14F1 JUMP JUMPDEST PUSH1 0x40 MLOAD DUP1 SWAP2 SUB SWAP1 RETURN JUMPDEST CALLVALUE DUP1 ISZERO PUSH2 0x587 JUMPI PUSH1 0x0 DUP1 REVERT JUMPDEST POP PUSH2 0x5A2 PUSH1 0x4 DUP1 CALLDATASIZE SUB DUP2 ADD SWAP1 PUSH2 0x59D SWAP2 SWAP1 PUSH2 0x137F JUMP JUMPDEST PUSH2 0xE44 JUMP JUMPDEST PUSH1 0x40 MLOAD PUSH2 0x5AF SWAP2 SWAP1 PUSH2 0x159B JUMP JUMPDEST PUSH1 0x40 MLOAD DUP1 SWAP2 SUB SWAP1 RETURN JUMPDEST PUSH2 0x5C0 PUSH2 0x62C JUMP JUMPDEST PUSH1 0x40 MLOAD PUSH2 0x5CD SWAP2 SWAP1 PUSH2 0x1543 JUMP JUMPDEST PUSH1 0x40 MLOAD DUP1 SWAP2 SUB SWAP1 RETURN JUMPDEST CALLVALUE DUP1 ISZERO PUSH2 0x5E2 JUMPI PUSH1 0x0 DUP1 REVERT JUMPDEST POP PUSH2 0x5EB PUSH2 0xECB JUMP JUMPDEST PUSH1 0x40 MLOAD PUSH2 0x5F8 SWAP2 SWAP1 PUSH2 0x14D6 JUMP JUMPDEST PUSH1 0x40 MLOAD DUP1 SWAP2 SUB SWAP1 RETURN JUMPDEST CALLVALUE DUP1 ISZERO PUSH2 0x60D JUMPI PUSH1 0x0 DUP1 REVERT JUMPDEST POP PUSH2 0x616 PUSH2 0xEF1 JUMP JUMPDEST PUSH1 0x40 MLOAD PUSH2 0x623 SWAP2 SWAP1 PUSH2 0x159B JUMP JUMPDEST PUSH1 0x40 MLOAD DUP1 SWAP2 SUB SWAP1 RETURN JUMPDEST PUSH1 0x0 PUSH2 0x636 PUSH2 0xB23 JUMP JUMPDEST PUSH1 0x11 PUSH1 0x0 PUSH2 0x100 EXP DUP2 SLOAD DUP2 PUSH1 0xFF MUL NOT AND SWAP1 DUP4 PUSH1 0x3 DUP2 GT ISZERO PUSH2 0x65A JUMPI PUSH2 0x659 PUSH2 0x17CF JUMP JUMPDEST JUMPDEST MUL OR SWAP1 SSTORE POP PUSH1 0x1 PUSH1 0x3 DUP2 GT ISZERO PUSH2 0x673 JUMPI PUSH2 0x672 PUSH2 0x17CF JUMP JUMPDEST JUMPDEST PUSH1 0x11 PUSH1 0x0 SWAP1 SLOAD SWAP1 PUSH2 0x100 EXP SWAP1 DIV PUSH1 0xFF AND PUSH1 0x3 DUP2 GT ISZERO PUSH2 0x695 JUMPI PUSH2 0x694 PUSH2 0x17CF JUMP JUMPDEST JUMPDEST EQ PUSH2 0x69F JUMPI PUSH1 0x0 DUP1 REVERT JUMPDEST PUSH1 0x10 SLOAD CALLVALUE LT ISZERO DUP1 ISZERO PUSH2 0x6B3 JUMPI POP PUSH1 0xF SLOAD CALLVALUE GT ISZERO JUMPDEST PUSH2 0x6BC JUMPI PUSH1 0x0 DUP1 REVERT JUMPDEST CALLVALUE PUSH1 0xB PUSH1 0x0 DUP3 DUP3 SLOAD PUSH2 0x6CE SWAP2 SWAP1 PUSH2 0x15D2 JUMP JUMPDEST SWAP3 POP POP DUP2 SWAP1 SSTORE POP PUSH1 0xA SLOAD PUSH1 0xB SLOAD GT ISZERO PUSH2 0x6E6 JUMPI PUSH1 0x0 DUP1 REVERT JUMPDEST PUSH1 0x0 PUSH1 0x9 SLOAD CALLVALUE PUSH2 0x6F6 SWAP2 SWAP1 PUSH2 0x1628 JUMP JUMPDEST SWAP1 POP DUP1 PUSH1 0x5 PUSH1 0x0 CALLER PUSH20 0xFFFFFFFFFFFFFFFFFFFFFFFFFFFFFFFFFFFFFFFF AND PUSH20 0xFFFFFFFFFFFFFFFFFFFFFFFFFFFFFFFFFFFFFFFF AND DUP2 MSTORE PUSH1 0x20 ADD SWAP1 DUP2 MSTORE PUSH1 0x20 ADD PUSH1 0x0 KECCAK256 PUSH1 0x0 DUP3 DUP3 SLOAD PUSH2 0x747 SWAP2 SWAP1 PUSH2 0x15D2 JUMP JUMPDEST SWAP3 POP POP DUP2 SWAP1 SSTORE POP DUP1 PUSH1 0x5 PUSH1 0x0 PUSH1 0x4 PUSH1 0x0 SWAP1 SLOAD SWAP1 PUSH2 0x100 EXP SWAP1 DIV PUSH20 0xFFFFFFFFFFFFFFFFFFFFFFFFFFFFFFFFFFFFFFFF AND PUSH20 0xFFFFFFFFFFFFFFFFFFFFFFFFFFFFFFFFFFFFFFFF AND PUSH20 0xFFFFFFFFFFFFFFFFFFFFFFFFFFFFFFFFFFFFFFFF AND DUP2 MSTORE PUSH1 0x20 ADD SWAP1 DUP2 MSTORE PUSH1 0x20 ADD PUSH1 0x0 KECCAK256 PUSH1 0x0 DUP3 DUP3 SLOAD PUSH2 0x7BF SWAP2 SWAP1 PUSH2 0x1659 JUMP JUMPDEST SWAP3 POP POP DUP2 SWAP1 SSTORE POP PUSH1 0x8 PUSH1 0x0 SWAP1 SLOAD SWAP1 PUSH2 0x100 EXP SWAP1 DIV PUSH20 0xFFFFFFFFFFFFFFFFFFFFFFFFFFFFFFFFFFFFFFFF AND PUSH20 0xFFFFFFFFFFFFFFFFFFFFFFFFFFFFFFFFFFFFFFFF AND PUSH2 0x8FC CALLVALUE SWAP1 DUP2 ISZERO MUL SWAP1 PUSH1 0x40 MLOAD PUSH1 0x0 PUSH1 0x40 MLOAD DUP1 DUP4 SUB DUP2 DUP6 DUP9 DUP9 CALL SWAP4 POP POP POP POP ISZERO DUP1 ISZERO PUSH2 0x82E JUMPI RETURNDATASIZE PUSH1 0x0 DUP1 RETURNDATACOPY RETURNDATASIZE PUSH1 0x0 REVERT JUMPDEST POP PUSH32 0x4AE4BD7655E0D350876A23CD90C4227B13DB560E34435C6A488150A9C844BF5F CALLER CALLVALUE DUP4 PUSH1 0x40 MLOAD PUSH2 0x862 SWAP4 SWAP3 SWAP2 SWAP1 PUSH2 0x150C JUMP JUMPDEST PUSH1 0x40 MLOAD DUP1 SWAP2 SUB SWAP1 LOG1 PUSH1 0x1 SWAP2 POP POP SWAP1 JUMP JUMPDEST PUSH1 0xF SLOAD DUP2 JUMP JUMPDEST PUSH1 0x7 PUSH1 0x0 SWAP1 SLOAD SWAP1 PUSH2 0x100 EXP SWAP1 DIV PUSH20 0xFFFFFFFFFFFFFFFFFFFFFFFFFFFFFFFFFFFFFFFF AND PUSH20 0xFFFFFFFFFFFFFFFFFFFFFFFFFFFFFFFFFFFFFFFF AND CALLER PUSH20 0xFFFFFFFFFFFFFFFFFFFFFFFFFFFFFFFFFFFFFFFF AND EQ PUSH2 0x8D2 JUMPI PUSH1 0x0 DUP1 REVERT JUMPDEST PUSH1 0x1 PUSH1 0x11 PUSH1 0x0 PUSH2 0x100 EXP DUP2 SLOAD DUP2 PUSH1 0xFF MUL NOT AND SWAP1 DUP4 PUSH1 0x3 DUP2 GT ISZERO PUSH2 0x8F8 JUMPI PUSH2 0x8F7 PUSH2 0x17CF JUMP JUMPDEST JUMPDEST MUL OR SWAP1 SSTORE POP JUMP JUMPDEST PUSH1 0x0 DUP1 SLOAD PUSH2 0x90C SWAP1 PUSH2 0x173F JUMP JUMPDEST DUP1 PUSH1 0x1F ADD PUSH1 0x20 DUP1 SWAP2 DIV MUL PUSH1 0x20 ADD PUSH1 0x40 MLOAD SWAP1 DUP2 ADD PUSH1 0x40 MSTORE DUP1 SWAP3 SWAP2 SWAP1 DUP2 DUP2 MSTORE PUSH1 0x20 ADD DUP3 DUP1 SLOAD PUSH2 0x938 SWAP1 PUSH2 0x173F JUMP JUMPDEST DUP1 ISZERO PUSH2 0x985 JUMPI DUP1 PUSH1 0x1F LT PUSH2 0x95A JUMPI PUSH2 0x100 DUP1 DUP4 SLOAD DIV MUL DUP4 MSTORE SWAP2 PUSH1 0x20 ADD SWAP2 PUSH2 0x985 JUMP JUMPDEST DUP3 ADD SWAP2 SWAP1 PUSH1 0x0 MSTORE PUSH1 0x20 PUSH1 0x0 KECCAK256 SWAP1 JUMPDEST DUP2 SLOAD DUP2 MSTORE SWAP1 PUSH1 0x1 ADD SWAP1 PUSH1 0x20 ADD DUP1 DUP4 GT PUSH2 0x968 JUMPI DUP3 SWAP1 SUB PUSH1 0x1F AND DUP3 ADD SWAP2 JUMPDEST POP POP POP POP POP DUP2 JUMP JUMPDEST PUSH1 0x0 DUP2 PUSH1 0x5 PUSH1 0x0 CALLER PUSH20 0xFFFFFFFFFFFFFFFFFFFFFFFFFFFFFFFFFFFFFFFF AND PUSH20 0xFFFFFFFFFFFFFFFFFFFFFFFFFFFFFFFFFFFFFFFF AND DUP2 MSTORE PUSH1 0x20 ADD SWAP1 DUP2 MSTORE PUSH1 0x20 ADD PUSH1 0x0 KECCAK256 SLOAD LT ISZERO PUSH2 0x9DB JUMPI PUSH1 0x0 DUP1 REVERT JUMPDEST PUSH1 0x0 DUP3 GT PUSH2 0x9E8 JUMPI PUSH1 0x0 DUP1 REVERT JUMPDEST DUP2 PUSH1 0x6 PUSH1 0x0 CALLER PUSH20 0xFFFFFFFFFFFFFFFFFFFFFFFFFFFFFFFFFFFFFFFF AND PUSH20 0xFFFFFFFFFFFFFFFFFFFFFFFFFFFFFFFFFFFFFFFF AND DUP2 MSTORE PUSH1 0x20 ADD SWAP1 DUP2 MSTORE PUSH1 0x20 ADD PUSH1 0x0 KECCAK256 PUSH1 0x0 DUP6 PUSH20 0xFFFFFFFFFFFFFFFFFFFFFFFFFFFFFFFFFFFFFFFF AND PUSH20 0xFFFFFFFFFFFFFFFFFFFFFFFFFFFFFFFFFFFFFFFF AND DUP2 MSTORE PUSH1 0x20 ADD SWAP1 DUP2 MSTORE PUSH1 0x20 ADD PUSH1 0x0 KECCAK256 DUP2 SWAP1 SSTORE POP DUP3 PUSH20 0xFFFFFFFFFFFFFFFFFFFFFFFFFFFFFFFFFFFFFFFF AND CALLER PUSH20 0xFFFFFFFFFFFFFFFFFFFFFFFFFFFFFFFFFFFFFFFF AND PUSH32 0x8C5BE1E5EBEC7D5BD14F71427D1E84F3DD0314C0F7B2291E5B200AC8C7C3B925 DUP5 PUSH1 0x40 MLOAD PUSH2 0xAC6 SWAP2 SWAP1 PUSH2 0x159B JUMP JUMPDEST PUSH1 0x40 MLOAD DUP1 SWAP2 SUB SWAP1 LOG3 PUSH1 0x1 SWAP1 POP SWAP3 SWAP2 POP POP JUMP JUMPDEST PUSH1 0x3 SLOAD DUP2 JUMP JUMPDEST PUSH1 0x0 PUSH1 0xE SLOAD TIMESTAMP GT PUSH2 0xAEE JUMPI PUSH1 0x0 DUP1 REVERT JUMPDEST PUSH2 0xAF9 DUP5 DUP5 DUP5 PUSH2 0xEF7 JUMP JUMPDEST POP PUSH1 0x1 SWAP1 POP SWAP4 SWAP3 POP POP POP JUMP JUMPDEST PUSH1 0x5 PUSH1 0x20 MSTORE DUP1 PUSH1 0x0 MSTORE PUSH1 0x40 PUSH1 0x0 KECCAK256 PUSH1 0x0 SWAP2 POP SWAP1 POP SLOAD DUP2 JUMP JUMPDEST PUSH1 0x2 SLOAD DUP2 JUMP JUMPDEST PUSH1 0x0 PUSH1 0x3 DUP1 DUP2 GT ISZERO PUSH2 0xB38 JUMPI PUSH2 0xB37 PUSH2 0x17CF JUMP JUMPDEST JUMPDEST PUSH1 0x11 PUSH1 0x0 SWAP1 SLOAD SWAP1 PUSH2 0x100 EXP SWAP1 DIV PUSH1 0xFF AND PUSH1 0x3 DUP2 GT ISZERO PUSH2 0xB5A JUMPI PUSH2 0xB59 PUSH2 0x17CF JUMP JUMPDEST JUMPDEST EQ ISZERO PUSH2 0xB69 JUMPI PUSH1 0x3 SWAP1 POP PUSH2 0xBA3 JUMP JUMPDEST PUSH1 0xC SLOAD TIMESTAMP LT ISZERO PUSH2 0xB7C JUMPI PUSH1 0x0 SWAP1 POP PUSH2 0xBA3 JUMP JUMPDEST PUSH1 0xC SLOAD TIMESTAMP LT ISZERO DUP1 ISZERO PUSH2 0xB90 JUMPI POP PUSH1 0xD SLOAD TIMESTAMP GT ISZERO JUMPDEST ISZERO PUSH2 0xB9E JUMPI PUSH1 0x1 SWAP1 POP PUSH2 0xBA3 JUMP JUMPDEST PUSH1 0x2 SWAP1 POP JUMPDEST SWAP1 JUMP JUMPDEST PUSH1 0x11 PUSH1 0x0 SWAP1 SLOAD SWAP1 PUSH2 0x100 EXP SWAP1 DIV PUSH1 0xFF AND DUP2 JUMP JUMPDEST PUSH1 0x4 PUSH1 0x0 SWAP1 SLOAD SWAP1 PUSH2 0x100 EXP SWAP1 DIV PUSH20 0xFFFFFFFFFFFFFFFFFFFFFFFFFFFFFFFFFFFFFFFF AND DUP2 JUMP JUMPDEST PUSH1 0x7 PUSH1 0x0 SWAP1 SLOAD SWAP1 PUSH2 0x100 EXP SWAP1 DIV PUSH20 0xFFFFFFFFFFFFFFFFFFFFFFFFFFFFFFFFFFFFFFFF AND PUSH20 0xFFFFFFFFFFFFFFFFFFFFFFFFFFFFFFFFFFFFFFFF AND CALLER PUSH20 0xFFFFFFFFFFFFFFFFFFFFFFFFFFFFFFFFFFFFFFFF AND EQ PUSH2 0xC39 JUMPI PUSH1 0x0 DUP1 REVERT JUMPDEST PUSH1 0x3 PUSH1 0x11 PUSH1 0x0 PUSH2 0x100 EXP DUP2 SLOAD DUP2 PUSH1 0xFF MUL NOT AND SWAP1 DUP4 PUSH1 0x3 DUP2 GT ISZERO PUSH2 0xC5F JUMPI PUSH2 0xC5E PUSH2 0x17CF JUMP JUMPDEST JUMPDEST MUL OR SWAP1 SSTORE POP JUMP JUMPDEST PUSH1 0x7 PUSH1 0x0 SWAP1 SLOAD SWAP1 PUSH2 0x100 EXP SWAP1 DIV PUSH20 0xFFFFFFFFFFFFFFFFFFFFFFFFFFFFFFFFFFFFFFFF AND PUSH20 0xFFFFFFFFFFFFFFFFFFFFFFFFFFFFFFFFFFFFFFFF AND CALLER PUSH20 0xFFFFFFFFFFFFFFFFFFFFFFFFFFFFFFFFFFFFFFFF AND EQ PUSH2 0xCC0 JUMPI PUSH1 0x0 DUP1 REVERT JUMPDEST DUP1 PUSH1 0x8 PUSH1 0x0 PUSH2 0x100 EXP DUP2 SLOAD DUP2 PUSH20 0xFFFFFFFFFFFFFFFFFFFFFFFFFFFFFFFFFFFFFFFF MUL NOT AND SWAP1 DUP4 PUSH20 0xFFFFFFFFFFFFFFFFFFFFFFFFFFFFFFFFFFFFFFFF AND MUL OR SWAP1 SSTORE POP POP JUMP JUMPDEST PUSH1 0x0 PUSH1 0x5 PUSH1 0x0 DUP4 PUSH20 0xFFFFFFFFFFFFFFFFFFFFFFFFFFFFFFFFFFFFFFFF AND PUSH20 0xFFFFFFFFFFFFFFFFFFFFFFFFFFFFFFFFFFFFFFFF AND DUP2 MSTORE PUSH1 0x20 ADD SWAP1 DUP2 MSTORE PUSH1 0x20 ADD PUSH1 0x0 KECCAK256 SLOAD SWAP1 POP SWAP2 SWAP1 POP JUMP JUMPDEST PUSH1 0x10 SLOAD DUP2 JUMP JUMPDEST PUSH1 0x1 DUP1 SLOAD PUSH2 0xD60 SWAP1 PUSH2 0x173F JUMP JUMPDEST DUP1 PUSH1 0x1F ADD PUSH1 0x20 DUP1 SWAP2 DIV MUL PUSH1 0x20 ADD PUSH1 0x40 MLOAD SWAP1 DUP2 ADD PUSH1 0x40 MSTORE DUP1 SWAP3 SWAP2 SWAP1 DUP2 DUP2 MSTORE PUSH1 0x20 ADD DUP3 DUP1 SLOAD PUSH2 0xD8C SWAP1 PUSH2 0x173F JUMP JUMPDEST DUP1 ISZERO PUSH2 0xDD9 JUMPI DUP1 PUSH1 0x1F LT PUSH2 0xDAE JUMPI PUSH2 0x100 DUP1 DUP4 SLOAD DIV MUL DUP4 MSTORE SWAP2 PUSH1 0x20 ADD SWAP2 PUSH2 0xDD9 JUMP JUMPDEST DUP3 ADD SWAP2 SWAP1 PUSH1 0x0 MSTORE PUSH1 0x20 PUSH1 0x0 KECCAK256 SWAP1 JUMPDEST DUP2 SLOAD DUP2 MSTORE SWAP1 PUSH1 0x1 ADD SWAP1 PUSH1 0x20 ADD DUP1 DUP4 GT PUSH2 0xDBC JUMPI DUP3 SWAP1 SUB PUSH1 0x1F AND DUP3 ADD SWAP2 JUMPDEST POP POP POP POP POP DUP2 JUMP JUMPDEST PUSH1 0x0 PUSH1 0xE SLOAD TIMESTAMP GT PUSH2 0xDF1 JUMPI PUSH1 0x0 DUP1 REVERT JUMPDEST PUSH2 0xDFB DUP4 DUP4 PUSH2 0x117D JUMP JUMPDEST POP PUSH1 0x1 SWAP1 POP SWAP3 SWAP2 POP POP JUMP JUMPDEST PUSH1 0xC SLOAD DUP2 JUMP JUMPDEST PUSH1 0xD SLOAD DUP2 JUMP JUMPDEST PUSH1 0xB SLOAD DUP2 JUMP JUMPDEST PUSH1 0xE SLOAD DUP2 JUMP JUMPDEST PUSH1 0x8 PUSH1 0x0 SWAP1 SLOAD SWAP1 PUSH2 0x100 EXP SWAP1 DIV PUSH20 0xFFFFFFFFFFFFFFFFFFFFFFFFFFFFFFFFFFFFFFFF AND DUP2 JUMP JUMPDEST PUSH1 0x0 PUSH1 0x6 PUSH1 0x0 DUP5 PUSH20 0xFFFFFFFFFFFFFFFFFFFFFFFFFFFFFFFFFFFFFFFF AND PUSH20 0xFFFFFFFFFFFFFFFFFFFFFFFFFFFFFFFFFFFFFFFF AND DUP2 MSTORE PUSH1 0x20 ADD SWAP1 DUP2 MSTORE PUSH1 0x20 ADD PUSH1 0x0 KECCAK256 PUSH1 0x0 DUP4 PUSH20 0xFFFFFFFFFFFFFFFFFFFFFFFFFFFFFFFFFFFFFFFF AND PUSH20 0xFFFFFFFFFFFFFFFFFFFFFFFFFFFFFFFFFFFFFFFF AND DUP2 MSTORE PUSH1 0x20 ADD SWAP1 DUP2 MSTORE PUSH1 0x20 ADD PUSH1 0x0 KECCAK256 SLOAD SWAP1 POP SWAP3 SWAP2 POP POP JUMP JUMPDEST PUSH1 0x7 PUSH1 0x0 SWAP1 SLOAD SWAP1 PUSH2 0x100 EXP SWAP1 DIV PUSH20 0xFFFFFFFFFFFFFFFFFFFFFFFFFFFFFFFFFFFFFFFF AND DUP2 JUMP JUMPDEST PUSH1 0xA SLOAD DUP2 JUMP JUMPDEST PUSH1 0x0 DUP2 PUSH1 0x6 PUSH1 0x0 DUP7 PUSH20 0xFFFFFFFFFFFFFFFFFFFFFFFFFFFFFFFFFFFFFFFF AND PUSH20 0xFFFFFFFFFFFFFFFFFFFFFFFFFFFFFFFFFFFFFFFF AND DUP2 MSTORE PUSH1 0x20 ADD SWAP1 DUP2 MSTORE PUSH1 0x20 ADD PUSH1 0x0 KECCAK256 PUSH1 0x0 CALLER PUSH20 0xFFFFFFFFFFFFFFFFFFFFFFFFFFFFFFFFFFFFFFFF AND PUSH20 0xFFFFFFFFFFFFFFFFFFFFFFFFFFFFFFFFFFFFFFFF AND DUP2 MSTORE PUSH1 0x20 ADD SWAP1 DUP2 MSTORE PUSH1 0x20 ADD PUSH1 0x0 KECCAK256 SLOAD LT ISZERO PUSH2 0xF82 JUMPI PUSH1 0x0 DUP1 REVERT JUMPDEST DUP2 PUSH1 0x5 PUSH1 0x0 DUP7 PUSH20 0xFFFFFFFFFFFFFFFFFFFFFFFFFFFFFFFFFFFFFFFF AND PUSH20 0xFFFFFFFFFFFFFFFFFFFFFFFFFFFFFFFFFFFFFFFF AND DUP2 MSTORE PUSH1 0x20 ADD SWAP1 DUP2 MSTORE PUSH1 0x20 ADD PUSH1 0x0 KECCAK256 SLOAD LT ISZERO PUSH2 0xFCE JUMPI PUSH1 0x0 DUP1 REVERT JUMPDEST DUP2 PUSH1 0x5 PUSH1 0x0 DUP7 PUSH20 0xFFFFFFFFFFFFFFFFFFFFFFFFFFFFFFFFFFFFFFFF AND PUSH20 0xFFFFFFFFFFFFFFFFFFFFFFFFFFFFFFFFFFFFFFFF AND DUP2 MSTORE PUSH1 0x20 ADD SWAP1 DUP2 MSTORE PUSH1 0x20 ADD PUSH1 0x0 KECCAK256 PUSH1 0x0 DUP3 DUP3 SLOAD PUSH2 0x101D SWAP2 SWAP1 PUSH2 0x1659 JUMP JUMPDEST SWAP3 POP POP DUP2 SWAP1 SSTORE POP DUP2 PUSH1 0x6 PUSH1 0x0 DUP7 PUSH20 0xFFFFFFFFFFFFFFFFFFFFFFFFFFFFFFFFFFFFFFFF AND PUSH20 0xFFFFFFFFFFFFFFFFFFFFFFFFFFFFFFFFFFFFFFFF AND DUP2 MSTORE PUSH1 0x20 ADD SWAP1 DUP2 MSTORE PUSH1 0x20 ADD PUSH1 0x0 KECCAK256 PUSH1 0x0 CALLER PUSH20 0xFFFFFFFFFFFFFFFFFFFFFFFFFFFFFFFFFFFFFFFF AND PUSH20 0xFFFFFFFFFFFFFFFFFFFFFFFFFFFFFFFFFFFFFFFF AND DUP2 MSTORE PUSH1 0x20 ADD SWAP1 DUP2 MSTORE PUSH1 0x20 ADD PUSH1 0x0 KECCAK256 PUSH1 0x0 DUP3 DUP3 SLOAD PUSH2 0x10B0 SWAP2 SWAP1 PUSH2 0x1659 JUMP JUMPDEST SWAP3 POP POP DUP2 SWAP1 SSTORE POP DUP2 PUSH1 0x5 PUSH1 0x0 DUP6 PUSH20 0xFFFFFFFFFFFFFFFFFFFFFFFFFFFFFFFFFFFFFFFF AND PUSH20 0xFFFFFFFFFFFFFFFFFFFFFFFFFFFFFFFFFFFFFFFF AND DUP2 MSTORE PUSH1 0x20 ADD SWAP1 DUP2 MSTORE PUSH1 0x20 ADD PUSH1 0x0 KECCAK256 PUSH1 0x0 DUP3 DUP3 SLOAD PUSH2 0x1106 SWAP2 SWAP1 PUSH2 0x15D2 JUMP JUMPDEST SWAP3 POP POP DUP2 SWAP1 SSTORE POP DUP3 PUSH20 0xFFFFFFFFFFFFFFFFFFFFFFFFFFFFFFFFFFFFFFFF AND DUP5 PUSH20 0xFFFFFFFFFFFFFFFFFFFFFFFFFFFFFFFFFFFFFFFF AND PUSH32 0xDDF252AD1BE2C89B69C2B068FC378DAA952BA7F163C4A11628F55A4DF523B3EF DUP5 PUSH1 0x40 MLOAD PUSH2 0x116A SWAP2 SWAP1 PUSH2 0x159B JUMP JUMPDEST PUSH1 0x40 MLOAD DUP1 SWAP2 SUB SWAP1 LOG3 PUSH1 0x1 SWAP1 POP SWAP4 SWAP3 POP POP POP JUMP JUMPDEST PUSH1 0x0 DUP2 PUSH1 0x5 PUSH1 0x0 CALLER PUSH20 0xFFFFFFFFFFFFFFFFFFFFFFFFFFFFFFFFFFFFFFFF AND PUSH20 0xFFFFFFFFFFFFFFFFFFFFFFFFFFFFFFFFFFFFFFFF AND DUP2 MSTORE PUSH1 0x20 ADD SWAP1 DUP2 MSTORE PUSH1 0x20 ADD PUSH1 0x0 KECCAK256 SLOAD LT ISZERO PUSH2 0x11CB JUMPI PUSH1 0x0 DUP1 REVERT JUMPDEST DUP2 PUSH1 0x5 PUSH1 0x0 DUP6 PUSH20 0xFFFFFFFFFFFFFFFFFFFFFFFFFFFFFFFFFFFFFFFF AND PUSH20 0xFFFFFFFFFFFFFFFFFFFFFFFFFFFFFFFFFFFFFFFF AND DUP2 MSTORE PUSH1 0x20 ADD SWAP1 DUP2 MSTORE PUSH1 0x20 ADD PUSH1 0x0 KECCAK256 PUSH1 0x0 DUP3 DUP3 SLOAD PUSH2 0x121A SWAP2 SWAP1 PUSH2 0x15D2 JUMP JUMPDEST SWAP3 POP POP DUP2 SWAP1 SSTORE POP DUP2 PUSH1 0x5 PUSH1 0x0 CALLER PUSH20 0xFFFFFFFFFFFFFFFFFFFFFFFFFFFFFFFFFFFFFFFF AND PUSH20 0xFFFFFFFFFFFFFFFFFFFFFFFFFFFFFFFFFFFFFFFF AND DUP2 MSTORE PUSH1 0x20 ADD SWAP1 DUP2 MSTORE PUSH1 0x20 ADD PUSH1 0x0 KECCAK256 PUSH1 0x0 DUP3 DUP3 SLOAD PUSH2 0x1270 SWAP2 SWAP1 PUSH2 0x1659 JUMP JUMPDEST SWAP3 POP POP DUP2 SWAP1 SSTORE POP DUP3 PUSH20 0xFFFFFFFFFFFFFFFFFFFFFFFFFFFFFFFFFFFFFFFF AND CALLER PUSH20 0xFFFFFFFFFFFFFFFFFFFFFFFFFFFFFFFFFFFFFFFF AND PUSH32 0xDDF252AD1BE2C89B69C2B068FC378DAA952BA7F163C4A11628F55A4DF523B3EF DUP5 PUSH1 0x40 MLOAD PUSH2 0x12D4 SWAP2 SWAP1 PUSH2 0x159B JUMP JUMPDEST PUSH1 0x40 MLOAD DUP1 SWAP2 SUB SWAP1 LOG3 PUSH1 0x1 SWAP1 POP SWAP3 SWAP2 POP POP JUMP JUMPDEST PUSH1 0x0 DUP2 CALLDATALOAD SWAP1 POP PUSH2 0x12F5 DUP2 PUSH2 0x1857 JUMP JUMPDEST SWAP3 SWAP2 POP POP JUMP JUMPDEST PUSH1 0x0 DUP2 CALLDATALOAD SWAP1 POP PUSH2 0x130A DUP2 PUSH2 0x186E JUMP JUMPDEST SWAP3 SWAP2 POP POP JUMP JUMPDEST PUSH1 0x0 DUP2 CALLDATALOAD SWAP1 POP PUSH2 0x131F DUP2 PUSH2 0x1885 JUMP JUMPDEST SWAP3 SWAP2 POP POP JUMP JUMPDEST PUSH1 0x0 PUSH1 0x20 DUP3 DUP5 SUB SLT ISZERO PUSH2 0x133B JUMPI PUSH2 0x133A PUSH2 0x182D JUMP JUMPDEST JUMPDEST PUSH1 0x0 PUSH2 0x1349 DUP5 DUP3 DUP6 ADD PUSH2 0x12E6 JUMP JUMPDEST SWAP2 POP POP SWAP3 SWAP2 POP POP JUMP JUMPDEST PUSH1 0x0 PUSH1 0x20 DUP3 DUP5 SUB SLT ISZERO PUSH2 0x1368 JUMPI PUSH2 0x1367 PUSH2 0x182D JUMP JUMPDEST JUMPDEST PUSH1 0x0 PUSH2 0x1376 DUP5 DUP3 DUP6 ADD PUSH2 0x12FB JUMP JUMPDEST SWAP2 POP POP SWAP3 SWAP2 POP POP JUMP JUMPDEST PUSH1 0x0 DUP1 PUSH1 0x40 DUP4 DUP6 SUB SLT ISZERO PUSH2 0x1396 JUMPI PUSH2 0x1395 PUSH2 0x182D JUMP JUMPDEST JUMPDEST PUSH1 0x0 PUSH2 0x13A4 DUP6 DUP3 DUP7 ADD PUSH2 0x12E6 JUMP JUMPDEST SWAP3 POP POP PUSH1 0x20 PUSH2 0x13B5 DUP6 DUP3 DUP7 ADD PUSH2 0x12E6 JUMP JUMPDEST SWAP2 POP POP SWAP3 POP SWAP3 SWAP1 POP JUMP JUMPDEST PUSH1 0x0 DUP1 PUSH1 0x0 PUSH1 0x60 DUP5 DUP7 SUB SLT ISZERO PUSH2 0x13D8 JUMPI PUSH2 0x13D7 PUSH2 0x182D JUMP JUMPDEST JUMPDEST PUSH1 0x0 PUSH2 0x13E6 DUP7 DUP3 DUP8 ADD PUSH2 0x12E6 JUMP JUMPDEST SWAP4 POP POP PUSH1 0x20 PUSH2 0x13F7 DUP7 DUP3 DUP8 ADD PUSH2 0x12E6 JUMP JUMPDEST SWAP3 POP POP PUSH1 0x40 PUSH2 0x1408 DUP7 DUP3 DUP8 ADD PUSH2 0x1310 JUMP JUMPDEST SWAP2 POP POP SWAP3 POP SWAP3 POP SWAP3 JUMP JUMPDEST PUSH1 0x0 DUP1 PUSH1 0x40 DUP4 DUP6 SUB SLT ISZERO PUSH2 0x1429 JUMPI PUSH2 0x1428 PUSH2 0x182D JUMP JUMPDEST JUMPDEST PUSH1 0x0 PUSH2 0x1437 DUP6 DUP3 DUP7 ADD PUSH2 0x12E6 JUMP JUMPDEST SWAP3 POP POP PUSH1 0x20 PUSH2 0x1448 DUP6 DUP3 DUP7 ADD PUSH2 0x1310 JUMP JUMPDEST SWAP2 POP POP SWAP3 POP SWAP3 SWAP1 POP JUMP JUMPDEST PUSH2 0x145B DUP2 PUSH2 0x169F JUMP JUMPDEST DUP3 MSTORE POP POP JUMP JUMPDEST PUSH2 0x146A DUP2 PUSH2 0x168D JUMP JUMPDEST DUP3 MSTORE POP POP JUMP JUMPDEST PUSH2 0x1479 DUP2 PUSH2 0x16B1 JUMP JUMPDEST DUP3 MSTORE POP POP JUMP JUMPDEST PUSH2 0x1488 DUP2 PUSH2 0x16FA JUMP JUMPDEST DUP3 MSTORE POP POP JUMP JUMPDEST PUSH1 0x0 PUSH2 0x1499 DUP3 PUSH2 0x15B6 JUMP JUMPDEST PUSH2 0x14A3 DUP2 DUP6 PUSH2 0x15C1 JUMP JUMPDEST SWAP4 POP PUSH2 0x14B3 DUP2 DUP6 PUSH1 0x20 DUP7 ADD PUSH2 0x170C JUMP JUMPDEST PUSH2 0x14BC DUP2 PUSH2 0x1832 JUMP JUMPDEST DUP5 ADD SWAP2 POP POP SWAP3 SWAP2 POP POP JUMP JUMPDEST PUSH2 0x14D0 DUP2 PUSH2 0x16F0 JUMP JUMPDEST DUP3 MSTORE POP POP JUMP JUMPDEST PUSH1 0x0 PUSH1 0x20 DUP3 ADD SWAP1 POP PUSH2 0x14EB PUSH1 0x0 DUP4 ADD DUP5 PUSH2 0x1461 JUMP JUMPDEST SWAP3 SWAP2 POP POP JUMP JUMPDEST PUSH1 0x0 PUSH1 0x20 DUP3 ADD SWAP1 POP PUSH2 0x1506 PUSH1 0x0 DUP4 ADD DUP5 PUSH2 0x1452 JUMP JUMPDEST SWAP3 SWAP2 POP POP JUMP JUMPDEST PUSH1 0x0 PUSH1 0x60 DUP3 ADD SWAP1 POP PUSH2 0x1521 PUSH1 0x0 DUP4 ADD DUP7 PUSH2 0x1461 JUMP JUMPDEST PUSH2 0x152E PUSH1 0x20 DUP4 ADD DUP6 PUSH2 0x14C7 JUMP JUMPDEST PUSH2 0x153B PUSH1 0x40 DUP4 ADD DUP5 PUSH2 0x14C7 JUMP JUMPDEST SWAP5 SWAP4 POP POP POP POP JUMP JUMPDEST PUSH1 0x0 PUSH1 0x20 DUP3 ADD SWAP1 POP PUSH2 0x1558 PUSH1 0x0 DUP4 ADD DUP5 PUSH2 0x1470 JUMP JUMPDEST SWAP3 SWAP2 POP POP JUMP JUMPDEST PUSH1 0x0 PUSH1 0x20 DUP3 ADD SWAP1 POP PUSH2 0x1573 PUSH1 0x0 DUP4 ADD DUP5 PUSH2 0x147F JUMP JUMPDEST SWAP3 SWAP2 POP POP JUMP JUMPDEST PUSH1 0x0 PUSH1 0x20 DUP3 ADD SWAP1 POP DUP2 DUP2 SUB PUSH1 0x0 DUP4 ADD MSTORE PUSH2 0x1593 DUP2 DUP5 PUSH2 0x148E JUMP JUMPDEST SWAP1 POP SWAP3 SWAP2 POP POP JUMP JUMPDEST PUSH1 0x0 PUSH1 0x20 DUP3 ADD SWAP1 POP PUSH2 0x15B0 PUSH1 0x0 DUP4 ADD DUP5 PUSH2 0x14C7 JUMP JUMPDEST SWAP3 SWAP2 POP POP JUMP JUMPDEST PUSH1 0x0 DUP2 MLOAD SWAP1 POP SWAP2 SWAP1 POP JUMP JUMPDEST PUSH1 0x0 DUP3 DUP3 MSTORE PUSH1 0x20 DUP3 ADD SWAP1 POP SWAP3 SWAP2 POP POP JUMP JUMPDEST PUSH1 0x0 PUSH2 0x15DD DUP3 PUSH2 0x16F0 JUMP JUMPDEST SWAP2 POP PUSH2 0x15E8 DUP4 PUSH2 0x16F0 JUMP JUMPDEST SWAP3 POP DUP3 PUSH32 0xFFFFFFFFFFFFFFFFFFFFFFFFFFFFFFFFFFFFFFFFFFFFFFFFFFFFFFFFFFFFFFFF SUB DUP3 GT ISZERO PUSH2 0x161D JUMPI PUSH2 0x161C PUSH2 0x1771 JUMP JUMPDEST JUMPDEST DUP3 DUP3 ADD SWAP1 POP SWAP3 SWAP2 POP POP JUMP JUMPDEST PUSH1 0x0 PUSH2 0x1633 DUP3 PUSH2 0x16F0 JUMP JUMPDEST SWAP2 POP PUSH2 0x163E DUP4 PUSH2 0x16F0 JUMP JUMPDEST SWAP3 POP DUP3 PUSH2 0x164E JUMPI PUSH2 0x164D PUSH2 0x17A0 JUMP JUMPDEST JUMPDEST DUP3 DUP3 DIV SWAP1 POP SWAP3 SWAP2 POP POP JUMP JUMPDEST PUSH1 0x0 PUSH2 0x1664 DUP3 PUSH2 0x16F0 JUMP JUMPDEST SWAP2 POP PUSH2 0x166F DUP4 PUSH2 0x16F0 JUMP JUMPDEST SWAP3 POP DUP3 DUP3 LT ISZERO PUSH2 0x1682 JUMPI PUSH2 0x1681 PUSH2 0x1771 JUMP JUMPDEST JUMPDEST DUP3 DUP3 SUB SWAP1 POP SWAP3 SWAP2 POP POP JUMP JUMPDEST PUSH1 0x0 PUSH2 0x1698 DUP3 PUSH2 0x16D0 JUMP JUMPDEST SWAP1 POP SWAP2 SWAP1 POP JUMP JUMPDEST PUSH1 0x0 PUSH2 0x16AA DUP3 PUSH2 0x16D0 JUMP JUMPDEST SWAP1 POP SWAP2 SWAP1 POP JUMP JUMPDEST PUSH1 0x0 DUP2 ISZERO ISZERO SWAP1 POP SWAP2 SWAP1 POP JUMP JUMPDEST PUSH1 0x0 DUP2 SWAP1 POP PUSH2 0x16CB DUP3 PUSH2 0x1843 JUMP JUMPDEST SWAP2 SWAP1 POP JUMP JUMPDEST PUSH1 0x0 PUSH20 0xFFFFFFFFFFFFFFFFFFFFFFFFFFFFFFFFFFFFFFFF DUP3 AND SWAP1 POP SWAP2 SWAP1 POP JUMP JUMPDEST PUSH1 0x0 DUP2 SWAP1 POP SWAP2 SWAP1 POP JUMP JUMPDEST PUSH1 0x0 PUSH2 0x1705 DUP3 PUSH2 0x16BD JUMP JUMPDEST SWAP1 POP SWAP2 SWAP1 POP JUMP JUMPDEST PUSH1 0x0 JUMPDEST DUP4 DUP2 LT ISZERO PUSH2 0x172A JUMPI DUP1 DUP3 ADD MLOAD DUP2 DUP5 ADD MSTORE PUSH1 0x20 DUP2 ADD SWAP1 POP PUSH2 0x170F JUMP JUMPDEST DUP4 DUP2 GT ISZERO PUSH2 0x1739 JUMPI PUSH1 0x0 DUP5 DUP5 ADD MSTORE JUMPDEST POP POP POP POP JUMP JUMPDEST PUSH1 0x0 PUSH1 0x2 DUP3 DIV SWAP1 POP PUSH1 0x1 DUP3 AND DUP1 PUSH2 0x1757 JUMPI PUSH1 0x7F DUP3 AND SWAP2 POP JUMPDEST PUSH1 0x20 DUP3 LT DUP2 EQ ISZERO PUSH2 0x176B JUMPI PUSH2 0x176A PUSH2 0x17FE JUMP JUMPDEST JUMPDEST POP SWAP2 SWAP1 POP JUMP JUMPDEST PUSH32 0x4E487B7100000000000000000000000000000000000000000000000000000000 PUSH1 0x0 MSTORE PUSH1 0x11 PUSH1 0x4 MSTORE PUSH1 0x24 PUSH1 0x0 REVERT JUMPDEST PUSH32 0x4E487B7100000000000000000000000000000000000000000000000000000000 PUSH1 0x0 MSTORE PUSH1 0x12 PUSH1 0x4 MSTORE PUSH1 0x24 PUSH1 0x0 REVERT JUMPDEST PUSH32 0x4E487B7100000000000000000000000000000000000000000000000000000000 PUSH1 0x0 MSTORE PUSH1 0x21 PUSH1 0x4 MSTORE PUSH1 0x24 PUSH1 0x0 REVERT JUMPDEST PUSH32 0x4E487B7100000000000000000000000000000000000000000000000000000000 PUSH1 0x0 MSTORE PUSH1 0x22 PUSH1 0x4 MSTORE PUSH1 0x24 PUSH1 0x0 REVERT JUMPDEST PUSH1 0x0 DUP1 REVERT JUMPDEST PUSH1 0x0 PUSH1 0x1F NOT PUSH1 0x1F DUP4 ADD AND SWAP1 POP SWAP2 SWAP1 POP JUMP JUMPDEST PUSH1 0x4 DUP2 LT PUSH2 0x1854 JUMPI PUSH2 0x1853 PUSH2 0x17CF JUMP JUMPDEST JUMPDEST POP JUMP JUMPDEST PUSH2 0x1860 DUP2 PUSH2 0x168D JUMP JUMPDEST DUP2 EQ PUSH2 0x186B JUMPI PUSH1 0x0 DUP1 REVERT JUMPDEST POP JUMP JUMPDEST PUSH2 0x1877 DUP2 PUSH2 0x169F JUMP JUMPDEST DUP2 EQ PUSH2 0x1882 JUMPI PUSH1 0x0 DUP1 REVERT JUMPDEST POP JUMP JUMPDEST PUSH2 0x188E DUP2 PUSH2 0x16F0 JUMP JUMPDEST DUP2 EQ PUSH2 0x1899 JUMPI PUSH1 0x0 DUP1 REVERT JUMPDEST POP JUMP INVALID LOG2 PUSH5 0x6970667358 0x22 SLT KECCAK256 DUP2 0xB5 0xD0 PUSH12 0xB368B06EF1847A0338C8A972 0xDA SWAP7 PUSH24 0x470D7272E7DB5F42F7C6BD005464736F6C63430008070033 "
				},
				"gasEstimates": {
					"creation": {
						"codeDepositCost": "1270800",
						"executionCost": "infinite",
						"totalCost": "infinite"
					},
					"external": {
						"ICOstate()": "2605",
						"admin()": "2602",
						"allowance(address,address)": "infinite",
						"approve(address,uint256)": "infinite",
						"balanceOf(address)": "2864",
						"balances(address)": "2860",
						"changeDepositAddress(address)": "27003",
						"decimals()": "2497",
						"deposit()": "2603",
						"founder()": "2581",
						"getCurrentState()": "9133",
						"halt()": "26690",
						"hardCap()": "2539",
						"invest()": "infinite",
						"maxInvestment()": "2453",
						"minInvestment()": "2474",
						"name()": "infinite",
						"raisedAmount()": "2474",
						"resume()": "26647",
						"saleEnd()": "2562",
						"saleStart()": "2540",
						"symbol()": "infinite",
						"tokenTradeStart()": "2496",
						"totalSupply()": "2541",
						"transfer(address,uint256)": "infinite",
						"transferFrom(address,address,uint256)": "infinite"
					}
				},
				"methodIdentifiers": {
					"ICOstate()": "3a2c7a37",
					"admin()": "f851a440",
					"allowance(address,address)": "dd62ed3e",
					"approve(address,uint256)": "095ea7b3",
					"balanceOf(address)": "70a08231",
					"balances(address)": "27e235e3",
					"changeDepositAddress(address)": "6d58c88f",
					"decimals()": "313ce567",
					"deposit()": "d0e30db0",
					"founder()": "4d853ee5",
					"getCurrentState()": "378aa701",
					"halt()": "5ed7ca5b",
					"hardCap()": "fb86a404",
					"invest()": "e8b5e51f",
					"maxInvestment()": "002e1316",
					"minInvestment()": "8ac2c680",
					"name()": "06fdde03",
					"raisedAmount()": "c59ee1dc",
					"resume()": "046f7da2",
					"saleEnd()": "c10b9358",
					"saleStart()": "ab0bcc41",
					"symbol()": "95d89b41",
					"tokenTradeStart()": "cc9ba583",
					"totalSupply()": "18160ddd",
					"transfer(address,uint256)": "a9059cbb",
					"transferFrom(address,address,uint256)": "23b872dd"
				}
			},
			"storageLayout": {
				"storage": [
					{
						"astId": 73,
						"contract": "contracts/erc20_state_vars.sol:PennyICO",
						"label": "name",
						"offset": 0,
						"slot": "0",
						"type": "t_string_storage"
					},
					{
						"astId": 76,
						"contract": "contracts/erc20_state_vars.sol:PennyICO",
						"label": "symbol",
						"offset": 0,
						"slot": "1",
						"type": "t_string_storage"
					},
					{
						"astId": 79,
						"contract": "contracts/erc20_state_vars.sol:PennyICO",
						"label": "decimals",
						"offset": 0,
						"slot": "2",
						"type": "t_uint256"
					},
					{
						"astId": 82,
						"contract": "contracts/erc20_state_vars.sol:PennyICO",
						"label": "totalSupply",
						"offset": 0,
						"slot": "3",
						"type": "t_uint256"
					},
					{
						"astId": 84,
						"contract": "contracts/erc20_state_vars.sol:PennyICO",
						"label": "founder",
						"offset": 0,
						"slot": "4",
						"type": "t_address"
					},
					{
						"astId": 88,
						"contract": "contracts/erc20_state_vars.sol:PennyICO",
						"label": "balances",
						"offset": 0,
						"slot": "5",
						"type": "t_mapping(t_address,t_uint256)"
					},
					{
						"astId": 94,
						"contract": "contracts/erc20_state_vars.sol:PennyICO",
						"label": "allowed",
						"offset": 0,
						"slot": "6",
						"type": "t_mapping(t_address,t_mapping(t_address,t_uint256))"
					},
					{
						"astId": 295,
						"contract": "contracts/erc20_state_vars.sol:PennyICO",
						"label": "admin",
						"offset": 0,
						"slot": "7",
						"type": "t_address"
					},
					{
						"astId": 297,
						"contract": "contracts/erc20_state_vars.sol:PennyICO",
						"label": "deposit",
						"offset": 0,
						"slot": "8",
						"type": "t_address_payable"
					},
					{
						"astId": 300,
						"contract": "contracts/erc20_state_vars.sol:PennyICO",
						"label": "tokenPrice",
						"offset": 0,
						"slot": "9",
						"type": "t_uint256"
					},
					{
						"astId": 303,
						"contract": "contracts/erc20_state_vars.sol:PennyICO",
						"label": "hardCap",
						"offset": 0,
						"slot": "10",
						"type": "t_uint256"
					},
					{
						"astId": 305,
						"contract": "contracts/erc20_state_vars.sol:PennyICO",
						"label": "raisedAmount",
						"offset": 0,
						"slot": "11",
						"type": "t_uint256"
					},
					{
						"astId": 311,
						"contract": "contracts/erc20_state_vars.sol:PennyICO",
						"label": "saleStart",
						"offset": 0,
						"slot": "12",
						"type": "t_uint256"
					},
					{
						"astId": 321,
						"contract": "contracts/erc20_state_vars.sol:PennyICO",
						"label": "saleEnd",
						"offset": 0,
						"slot": "13",
						"type": "t_uint256"
					},
					{
						"astId": 326,
						"contract": "contracts/erc20_state_vars.sol:PennyICO",
						"label": "tokenTradeStart",
						"offset": 0,
						"slot": "14",
						"type": "t_uint256"
					},
					{
						"astId": 329,
						"contract": "contracts/erc20_state_vars.sol:PennyICO",
						"label": "maxInvestment",
						"offset": 0,
						"slot": "15",
						"type": "t_uint256"
					},
					{
						"astId": 332,
						"contract": "contracts/erc20_state_vars.sol:PennyICO",
						"label": "minInvestment",
						"offset": 0,
						"slot": "16",
						"type": "t_uint256"
					},
					{
						"astId": 340,
						"contract": "contracts/erc20_state_vars.sol:PennyICO",
						"label": "ICOstate",
						"offset": 0,
						"slot": "17",
						"type": "t_enum(State)337"
					}
				],
				"types": {
					"t_address": {
						"encoding": "inplace",
						"label": "address",
						"numberOfBytes": "20"
					},
					"t_address_payable": {
						"encoding": "inplace",
						"label": "address payable",
						"numberOfBytes": "20"
					},
					"t_enum(State)337": {
						"encoding": "inplace",
						"label": "enum PennyICO.State",
						"numberOfBytes": "1"
					},
					"t_mapping(t_address,t_mapping(t_address,t_uint256))": {
						"encoding": "mapping",
						"key": "t_address",
						"label": "mapping(address => mapping(address => uint256))",
						"numberOfBytes": "32",
						"value": "t_mapping(t_address,t_uint256)"
					},
					"t_mapping(t_address,t_uint256)": {
						"encoding": "mapping",
						"key": "t_address",
						"label": "mapping(address => uint256)",
						"numberOfBytes": "32",
						"value": "t_uint256"
					},
					"t_string_storage": {
						"encoding": "bytes",
						"label": "string",
						"numberOfBytes": "32"
					},
					"t_uint256": {
						"encoding": "inplace",
						"label": "uint256",
						"numberOfBytes": "32"
					}
				}
			},
			"userdoc": {
				"kind": "user",
				"methods": {},
				"version": 1
			}
		}
	}
}