{
	"contracts/crowdfunding.sol": {
		"CrowdFunding": {
			"abi": [
				{
					"inputs": [
						{
							"internalType": "uint256",
							"name": "_goal",
							"type": "uint256"
						},
						{
							"internalType": "uint256",
							"name": "_deadline",
							"type": "uint256"
						}
					],
					"stateMutability": "nonpayable",
					"type": "constructor"
				},
				{
					"inputs": [],
					"name": "admin",
					"outputs": [
						{
							"internalType": "address",
							"name": "",
							"type": "address"
						}
					],
					"stateMutability": "view",
					"type": "function"
				},
				{
					"inputs": [],
					"name": "contribute",
					"outputs": [],
					"stateMutability": "payable",
					"type": "function"
				},
				{
					"inputs": [
						{
							"internalType": "address",
							"name": "",
							"type": "address"
						}
					],
					"name": "contributors",
					"outputs": [
						{
							"internalType": "uint256",
							"name": "",
							"type": "uint256"
						}
					],
					"stateMutability": "view",
					"type": "function"
				},
				{
					"inputs": [
						{
							"internalType": "string",
							"name": "_description",
							"type": "string"
						},
						{
							"internalType": "address payable",
							"name": "recipient",
							"type": "address"
						},
						{
							"internalType": "uint256",
							"name": "_value",
							"type": "uint256"
						}
					],
					"name": "createRequest",
					"outputs": [],
					"stateMutability": "nonpayable",
					"type": "function"
				},
				{
					"inputs": [],
					"name": "deadline",
					"outputs": [
						{
							"internalType": "uint256",
							"name": "",
							"type": "uint256"
						}
					],
					"stateMutability": "view",
					"type": "function"
				},
				{
					"inputs": [],
					"name": "getBalance",
					"outputs": [
						{
							"internalType": "uint256",
							"name": "",
							"type": "uint256"
						}
					],
					"stateMutability": "view",
					"type": "function"
				},
				{
					"inputs": [],
					"name": "getRefund",
					"outputs": [],
					"stateMutability": "nonpayable",
					"type": "function"
				},
				{
					"inputs": [],
					"name": "goal",
					"outputs": [
						{
							"internalType": "uint256",
							"name": "",
							"type": "uint256"
						}
					],
					"stateMutability": "view",
					"type": "function"
				},
				{
					"inputs": [],
					"name": "minimumContribution",
					"outputs": [
						{
							"internalType": "uint256",
							"name": "",
							"type": "uint256"
						}
					],
					"stateMutability": "view",
					"type": "function"
				},
				{
					"inputs": [],
					"name": "numberContributors",
					"outputs": [
						{
							"internalType": "uint256",
							"name": "",
							"type": "uint256"
						}
					],
					"stateMutability": "view",
					"type": "function"
				},
				{
					"inputs": [],
					"name": "numberRequests",
					"outputs": [
						{
							"internalType": "uint256",
							"name": "",
							"type": "uint256"
						}
					],
					"stateMutability": "view",
					"type": "function"
				},
				{
					"inputs": [],
					"name": "raisedAmount",
					"outputs": [
						{
							"internalType": "uint256",
							"name": "",
							"type": "uint256"
						}
					],
					"stateMutability": "view",
					"type": "function"
				},
				{
					"inputs": [
						{
							"internalType": "uint256",
							"name": "",
							"type": "uint256"
						}
					],
					"name": "requests",
					"outputs": [
						{
							"internalType": "string",
							"name": "description",
							"type": "string"
						},
						{
							"internalType": "address payable",
							"name": "recipient",
							"type": "address"
						},
						{
							"internalType": "uint256",
							"name": "value",
							"type": "uint256"
						},
						{
							"internalType": "bool",
							"name": "completed",
							"type": "bool"
						},
						{
							"internalType": "uint256",
							"name": "numberVoters",
							"type": "uint256"
						}
					],
					"stateMutability": "view",
					"type": "function"
				},
				{
					"stateMutability": "payable",
					"type": "receive"
				}
			],
			"devdoc": {
				"kind": "dev",
				"methods": {},
				"version": 1
			},
			"evm": {
				"assembly": "    /* \"contracts/crowdfunding.sol\":73:3691  contract CrowdFunding{\r... */\n  mstore(0x40, 0x80)\n    /* \"contracts/crowdfunding.sol\":1378:1653  constructor(uint _goal, uint _deadline){\r... */\n  callvalue\n  dup1\n  iszero\n  tag_1\n  jumpi\n  0x00\n  dup1\n  revert\ntag_1:\n  pop\n  mload(0x40)\n  sub(codesize, bytecodeSize)\n  dup1\n  bytecodeSize\n  dup4\n  codecopy\n  dup2\n  dup2\n  add\n  0x40\n  mstore\n  dup2\n  add\n  swap1\n  tag_2\n  swap2\n  swap1\n  tag_3\n  jump\t// in\ntag_2:\n    /* \"contracts/crowdfunding.sol\":1435:1440  _goal */\n  dup2\n    /* \"contracts/crowdfunding.sol\":1428:1432  goal */\n  0x05\n    /* \"contracts/crowdfunding.sol\":1428:1440  goal = _goal */\n  dup2\n  swap1\n  sstore\n  pop\n    /* \"contracts/crowdfunding.sol\":1502:1511  _deadline */\n  dup1\n    /* \"contracts/crowdfunding.sol\":1484:1499  block.timestamp */\n  timestamp\n    /* \"contracts/crowdfunding.sol\":1484:1511  block.timestamp + _deadline */\n  tag_6\n  swap2\n  swap1\n  tag_7\n  jump\t// in\ntag_6:\n    /* \"contracts/crowdfunding.sol\":1473:1481  deadline */\n  0x04\n    /* \"contracts/crowdfunding.sol\":1473:1511  deadline = block.timestamp + _deadline */\n  dup2\n  swap1\n  sstore\n  pop\n    /* \"contracts/crowdfunding.sol\":1576:1583  100 wei */\n  0x64\n    /* \"contracts/crowdfunding.sol\":1554:1573  minimumContribution */\n  0x03\n    /* \"contracts/crowdfunding.sol\":1554:1583  minimumContribution = 100 wei */\n  dup2\n  swap1\n  sstore\n  pop\n    /* \"contracts/crowdfunding.sol\":1622:1632  msg.sender */\n  caller\n    /* \"contracts/crowdfunding.sol\":1614:1619  admin */\n  0x01\n  0x00\n    /* \"contracts/crowdfunding.sol\":1614:1632  admin = msg.sender */\n  0x0100\n  exp\n  dup2\n  sload\n  dup2\n  0xffffffffffffffffffffffffffffffffffffffff\n  mul\n  not\n  and\n  swap1\n  dup4\n  0xffffffffffffffffffffffffffffffffffffffff\n  and\n  mul\n  or\n  swap1\n  sstore\n  pop\n    /* \"contracts/crowdfunding.sol\":1378:1653  constructor(uint _goal, uint _deadline){\r... */\n  pop\n  pop\n    /* \"contracts/crowdfunding.sol\":73:3691  contract CrowdFunding{\r... */\n  jump(tag_8)\n    /* \"#utility.yul\":7:150   */\ntag_10:\n    /* \"#utility.yul\":64:69   */\n  0x00\n    /* \"#utility.yul\":95:101   */\n  dup2\n    /* \"#utility.yul\":89:102   */\n  mload\n    /* \"#utility.yul\":80:102   */\n  swap1\n  pop\n    /* \"#utility.yul\":111:144   */\n  tag_12\n    /* \"#utility.yul\":138:143   */\n  dup2\n    /* \"#utility.yul\":111:144   */\n  tag_13\n  jump\t// in\ntag_12:\n    /* \"#utility.yul\":7:150   */\n  swap3\n  swap2\n  pop\n  pop\n  jump\t// out\n    /* \"#utility.yul\":156:663   */\ntag_3:\n    /* \"#utility.yul\":235:241   */\n  0x00\n    /* \"#utility.yul\":243:249   */\n  dup1\n    /* \"#utility.yul\":292:294   */\n  0x40\n    /* \"#utility.yul\":280:289   */\n  dup4\n    /* \"#utility.yul\":271:278   */\n  dup6\n    /* \"#utility.yul\":267:290   */\n  sub\n    /* \"#utility.yul\":263:295   */\n  slt\n    /* \"#utility.yul\":260:379   */\n  iszero\n  tag_15\n  jumpi\n    /* \"#utility.yul\":298:377   */\n  tag_16\n  tag_17\n  jump\t// in\ntag_16:\n    /* \"#utility.yul\":260:379   */\ntag_15:\n    /* \"#utility.yul\":418:419   */\n  0x00\n    /* \"#utility.yul\":443:507   */\n  tag_18\n    /* \"#utility.yul\":499:506   */\n  dup6\n    /* \"#utility.yul\":490:496   */\n  dup3\n    /* \"#utility.yul\":479:488   */\n  dup7\n    /* \"#utility.yul\":475:497   */\n  add\n    /* \"#utility.yul\":443:507   */\n  tag_10\n  jump\t// in\ntag_18:\n    /* \"#utility.yul\":433:507   */\n  swap3\n  pop\n    /* \"#utility.yul\":389:517   */\n  pop\n    /* \"#utility.yul\":556:558   */\n  0x20\n    /* \"#utility.yul\":582:646   */\n  tag_19\n    /* \"#utility.yul\":638:645   */\n  dup6\n    /* \"#utility.yul\":629:635   */\n  dup3\n    /* \"#utility.yul\":618:627   */\n  dup7\n    /* \"#utility.yul\":614:636   */\n  add\n    /* \"#utility.yul\":582:646   */\n  tag_10\n  jump\t// in\ntag_19:\n    /* \"#utility.yul\":572:646   */\n  swap2\n  pop\n    /* \"#utility.yul\":527:656   */\n  pop\n    /* \"#utility.yul\":156:663   */\n  swap3\n  pop\n  swap3\n  swap1\n  pop\n  jump\t// out\n    /* \"#utility.yul\":750:1055   */\ntag_7:\n    /* \"#utility.yul\":790:793   */\n  0x00\n    /* \"#utility.yul\":809:829   */\n  tag_23\n    /* \"#utility.yul\":827:828   */\n  dup3\n    /* \"#utility.yul\":809:829   */\n  tag_24\n  jump\t// in\ntag_23:\n    /* \"#utility.yul\":804:829   */\n  swap2\n  pop\n    /* \"#utility.yul\":843:863   */\n  tag_25\n    /* \"#utility.yul\":861:862   */\n  dup4\n    /* \"#utility.yul\":843:863   */\n  tag_24\n  jump\t// in\ntag_25:\n    /* \"#utility.yul\":838:863   */\n  swap3\n  pop\n    /* \"#utility.yul\":997:998   */\n  dup3\n    /* \"#utility.yul\":929:995   */\n  0xffffffffffffffffffffffffffffffffffffffffffffffffffffffffffffffff\n    /* \"#utility.yul\":925:999   */\n  sub\n    /* \"#utility.yul\":922:923   */\n  dup3\n    /* \"#utility.yul\":919:1000   */\n  gt\n    /* \"#utility.yul\":916:1023   */\n  iszero\n  tag_26\n  jumpi\n    /* \"#utility.yul\":1003:1021   */\n  tag_27\n  tag_28\n  jump\t// in\ntag_27:\n    /* \"#utility.yul\":916:1023   */\ntag_26:\n    /* \"#utility.yul\":1047:1048   */\n  dup3\n    /* \"#utility.yul\":1044:1045   */\n  dup3\n    /* \"#utility.yul\":1040:1049   */\n  add\n    /* \"#utility.yul\":1033:1049   */\n  swap1\n  pop\n    /* \"#utility.yul\":750:1055   */\n  swap3\n  swap2\n  pop\n  pop\n  jump\t// out\n    /* \"#utility.yul\":1061:1138   */\ntag_24:\n    /* \"#utility.yul\":1098:1105   */\n  0x00\n    /* \"#utility.yul\":1127:1132   */\n  dup2\n    /* \"#utility.yul\":1116:1132   */\n  swap1\n  pop\n    /* \"#utility.yul\":1061:1138   */\n  swap2\n  swap1\n  pop\n  jump\t// out\n    /* \"#utility.yul\":1144:1324   */\ntag_28:\n    /* \"#utility.yul\":1192:1269   */\n  0x4e487b7100000000000000000000000000000000000000000000000000000000\n    /* \"#utility.yul\":1189:1190   */\n  0x00\n    /* \"#utility.yul\":1182:1270   */\n  mstore\n    /* \"#utility.yul\":1289:1293   */\n  0x11\n    /* \"#utility.yul\":1286:1287   */\n  0x04\n    /* \"#utility.yul\":1279:1294   */\n  mstore\n    /* \"#utility.yul\":1313:1317   */\n  0x24\n    /* \"#utility.yul\":1310:1311   */\n  0x00\n    /* \"#utility.yul\":1303:1318   */\n  revert\n    /* \"#utility.yul\":1453:1570   */\ntag_17:\n    /* \"#utility.yul\":1562:1563   */\n  0x00\n    /* \"#utility.yul\":1559:1560   */\n  dup1\n    /* \"#utility.yul\":1552:1564   */\n  revert\n    /* \"#utility.yul\":1576:1698   */\ntag_13:\n    /* \"#utility.yul\":1649:1673   */\n  tag_35\n    /* \"#utility.yul\":1667:1672   */\n  dup2\n    /* \"#utility.yul\":1649:1673   */\n  tag_24\n  jump\t// in\ntag_35:\n    /* \"#utility.yul\":1642:1647   */\n  dup2\n    /* \"#utility.yul\":1639:1674   */\n  eq\n    /* \"#utility.yul\":1629:1692   */\n  tag_36\n  jumpi\n    /* \"#utility.yul\":1688:1689   */\n  0x00\n    /* \"#utility.yul\":1685:1686   */\n  dup1\n    /* \"#utility.yul\":1678:1690   */\n  revert\n    /* \"#utility.yul\":1629:1692   */\ntag_36:\n    /* \"#utility.yul\":1576:1698   */\n  pop\n  jump\t// out\n    /* \"contracts/crowdfunding.sol\":73:3691  contract CrowdFunding{\r... */\ntag_8:\n  dataSize(sub_0)\n  dup1\n  dataOffset(sub_0)\n  0x00\n  codecopy\n  0x00\n  return\nstop\n\nsub_0: assembly {\n        /* \"contracts/crowdfunding.sol\":73:3691  contract CrowdFunding{\r... */\n      mstore(0x40, 0x80)\n      jumpi(tag_1, lt(calldatasize, 0x04))\n      shr(0xe0, calldataload(0x00))\n      dup1\n      0x937e09b1\n      gt\n      tag_16\n      jumpi\n      dup1\n      0xd3a9d4ea\n      gt\n      tag_17\n      jumpi\n      dup1\n      0xd3a9d4ea\n      eq\n      tag_12\n      jumpi\n      dup1\n      0xd7bb99ba\n      eq\n      tag_13\n      jumpi\n      dup1\n      0xf3740daf\n      eq\n      tag_14\n      jumpi\n      dup1\n      0xf851a440\n      eq\n      tag_15\n      jumpi\n      jump(tag_2)\n    tag_17:\n      dup1\n      0x937e09b1\n      eq\n      tag_9\n      jumpi\n      dup1\n      0xb2d5ae44\n      eq\n      tag_10\n      jumpi\n      dup1\n      0xc59ee1dc\n      eq\n      tag_11\n      jumpi\n      jump(tag_2)\n    tag_16:\n      dup1\n      0x12065fe0\n      eq\n      tag_3\n      jumpi\n      dup1\n      0x1b16bb5c\n      eq\n      tag_4\n      jumpi\n      dup1\n      0x1f6d4942\n      eq\n      tag_5\n      jumpi\n      dup1\n      0x29dcb0cf\n      eq\n      tag_6\n      jumpi\n      dup1\n      0x40193883\n      eq\n      tag_7\n      jumpi\n      dup1\n      0x81d12c58\n      eq\n      tag_8\n      jumpi\n      jump(tag_2)\n    tag_1:\n      jumpi(tag_2, calldatasize)\n        /* \"contracts/crowdfunding.sol\":2515:2527  contribute() */\n      tag_20\n        /* \"contracts/crowdfunding.sol\":2515:2525  contribute */\n      tag_21\n        /* \"contracts/crowdfunding.sol\":2515:2527  contribute() */\n      jump\t// in\n    tag_20:\n        /* \"contracts/crowdfunding.sol\":73:3691  contract CrowdFunding{\r... */\n      stop\n    tag_2:\n      0x00\n      dup1\n      revert\n        /* \"contracts/crowdfunding.sol\":2586:2684  function getBalance() public view returns(uint){\r... */\n    tag_3:\n      callvalue\n      dup1\n      iszero\n      tag_22\n      jumpi\n      0x00\n      dup1\n      revert\n    tag_22:\n      pop\n      tag_23\n      tag_24\n      jump\t// in\n    tag_23:\n      mload(0x40)\n      tag_25\n      swap2\n      swap1\n      tag_26\n      jump\t// in\n    tag_25:\n      mload(0x40)\n      dup1\n      swap2\n      sub\n      swap1\n      return\n        /* \"contracts/crowdfunding.sol\":3561:3680  function createRequest(string memory _description, address payable recipient, uint _value) public{\r... */\n    tag_4:\n      callvalue\n      dup1\n      iszero\n      tag_27\n      jumpi\n      0x00\n      dup1\n      revert\n    tag_27:\n      pop\n      tag_28\n      0x04\n      dup1\n      calldatasize\n      sub\n      dup2\n      add\n      swap1\n      tag_29\n      swap2\n      swap1\n      tag_30\n      jump\t// in\n    tag_29:\n      tag_31\n      jump\t// in\n    tag_28:\n      stop\n        /* \"contracts/crowdfunding.sol\":161:205  mapping(address => uint) public contributors */\n    tag_5:\n      callvalue\n      dup1\n      iszero\n      tag_32\n      jumpi\n      0x00\n      dup1\n      revert\n    tag_32:\n      pop\n      tag_33\n      0x04\n      dup1\n      calldatasize\n      sub\n      dup2\n      add\n      swap1\n      tag_34\n      swap2\n      swap1\n      tag_35\n      jump\t// in\n    tag_34:\n      tag_36\n      jump\t// in\n    tag_33:\n      mload(0x40)\n      tag_37\n      swap2\n      swap1\n      tag_26\n      jump\t// in\n    tag_37:\n      mload(0x40)\n      dup1\n      swap2\n      sub\n      swap1\n      return\n        /* \"contracts/crowdfunding.sol\":465:485  uint public deadline */\n    tag_6:\n      callvalue\n      dup1\n      iszero\n      tag_38\n      jumpi\n      0x00\n      dup1\n      revert\n    tag_38:\n      pop\n      tag_39\n      tag_40\n      jump\t// in\n    tag_39:\n      mload(0x40)\n      tag_41\n      swap2\n      swap1\n      tag_26\n      jump\t// in\n    tag_41:\n      mload(0x40)\n      dup1\n      swap2\n      sub\n      swap1\n      return\n        /* \"contracts/crowdfunding.sol\":505:521  uint public goal */\n    tag_7:\n      callvalue\n      dup1\n      iszero\n      tag_42\n      jumpi\n      0x00\n      dup1\n      revert\n    tag_42:\n      pop\n      tag_43\n      tag_44\n      jump\t// in\n    tag_43:\n      mload(0x40)\n      tag_45\n      swap2\n      swap1\n      tag_26\n      jump\t// in\n    tag_45:\n      mload(0x40)\n      dup1\n      swap2\n      sub\n      swap1\n      return\n        /* \"contracts/crowdfunding.sol\":1215:1255  mapping(uint => Request) public requests */\n    tag_8:\n      callvalue\n      dup1\n      iszero\n      tag_46\n      jumpi\n      0x00\n      dup1\n      revert\n    tag_46:\n      pop\n      tag_47\n      0x04\n      dup1\n      calldatasize\n      sub\n      dup2\n      add\n      swap1\n      tag_48\n      swap2\n      swap1\n      tag_49\n      jump\t// in\n    tag_48:\n      tag_50\n      jump\t// in\n    tag_47:\n      mload(0x40)\n      tag_51\n      swap6\n      swap5\n      swap4\n      swap3\n      swap2\n      swap1\n      tag_52\n      jump\t// in\n    tag_51:\n      mload(0x40)\n      dup1\n      swap2\n      sub\n      swap1\n      return\n        /* \"contracts/crowdfunding.sol\":399:430  uint public minimumContribution */\n    tag_9:\n      callvalue\n      dup1\n      iszero\n      tag_53\n      jumpi\n      0x00\n      dup1\n      revert\n    tag_53:\n      pop\n      tag_54\n      tag_55\n      jump\t// in\n    tag_54:\n      mload(0x40)\n      tag_56\n      swap2\n      swap1\n      tag_26\n      jump\t// in\n    tag_56:\n      mload(0x40)\n      dup1\n      swap2\n      sub\n      swap1\n      return\n        /* \"contracts/crowdfunding.sol\":2733:3329  function getRefund() public{\r... */\n    tag_10:\n      callvalue\n      dup1\n      iszero\n      tag_57\n      jumpi\n      0x00\n      dup1\n      revert\n    tag_57:\n      pop\n      tag_58\n      tag_59\n      jump\t// in\n    tag_58:\n      stop\n        /* \"contracts/crowdfunding.sol\":544:568  uint public raisedAmount */\n    tag_11:\n      callvalue\n      dup1\n      iszero\n      tag_60\n      jumpi\n      0x00\n      dup1\n      revert\n    tag_60:\n      pop\n      tag_61\n      tag_62\n      jump\t// in\n    tag_61:\n      mload(0x40)\n      tag_63\n      swap2\n      swap1\n      tag_26\n      jump\t// in\n    tag_63:\n      mload(0x40)\n      dup1\n      swap2\n      sub\n      swap1\n      return\n        /* \"contracts/crowdfunding.sol\":1341:1367  uint public numberRequests */\n    tag_12:\n      callvalue\n      dup1\n      iszero\n      tag_64\n      jumpi\n      0x00\n      dup1\n      revert\n    tag_64:\n      pop\n      tag_65\n      tag_66\n      jump\t// in\n    tag_65:\n      mload(0x40)\n      tag_67\n      swap2\n      swap1\n      tag_26\n      jump\t// in\n    tag_67:\n      mload(0x40)\n      dup1\n      swap2\n      sub\n      swap1\n      return\n        /* \"contracts/crowdfunding.sol\":1696:2358  function contribute() public payable{\r... */\n    tag_13:\n      tag_68\n      tag_21\n      jump\t// in\n    tag_68:\n      stop\n        /* \"contracts/crowdfunding.sol\":360:390  uint public numberContributors */\n    tag_14:\n      callvalue\n      dup1\n      iszero\n      tag_69\n      jumpi\n      0x00\n      dup1\n      revert\n    tag_69:\n      pop\n      tag_70\n      tag_71\n      jump\t// in\n    tag_70:\n      mload(0x40)\n      tag_72\n      swap2\n      swap1\n      tag_26\n      jump\t// in\n    tag_72:\n      mload(0x40)\n      dup1\n      swap2\n      sub\n      swap1\n      return\n        /* \"contracts/crowdfunding.sol\":275:295  address public admin */\n    tag_15:\n      callvalue\n      dup1\n      iszero\n      tag_73\n      jumpi\n      0x00\n      dup1\n      revert\n    tag_73:\n      pop\n      tag_74\n      tag_75\n      jump\t// in\n    tag_74:\n      mload(0x40)\n      tag_76\n      swap2\n      swap1\n      tag_77\n      jump\t// in\n    tag_76:\n      mload(0x40)\n      dup1\n      swap2\n      sub\n      swap1\n      return\n        /* \"contracts/crowdfunding.sol\":1696:2358  function contribute() public payable{\r... */\n    tag_21:\n        /* \"contracts/crowdfunding.sol\":1814:1822  deadline */\n      sload(0x04)\n        /* \"contracts/crowdfunding.sol\":1796:1811  block.timestamp */\n      timestamp\n        /* \"contracts/crowdfunding.sol\":1796:1822  block.timestamp < deadline */\n      lt\n        /* \"contracts/crowdfunding.sol\":1788:1847  require(block.timestamp < deadline, \"Deadline has passed.\") */\n      tag_79\n      jumpi\n      mload(0x40)\n      0x08c379a000000000000000000000000000000000000000000000000000000000\n      dup2\n      mstore\n      0x04\n      add\n      tag_80\n      swap1\n      tag_81\n      jump\t// in\n    tag_80:\n      mload(0x40)\n      dup1\n      swap2\n      sub\n      swap1\n      revert\n    tag_79:\n        /* \"contracts/crowdfunding.sol\":1944:1963  minimumContribution */\n      sload(0x03)\n        /* \"contracts/crowdfunding.sol\":1931:1940  msg.value */\n      callvalue\n        /* \"contracts/crowdfunding.sol\":1931:1963  msg.value >= minimumContribution */\n      lt\n      iszero\n        /* \"contracts/crowdfunding.sol\":1923:1997  require(msg.value >= minimumContribution, \"Minimum contribution not met.\") */\n      tag_82\n      jumpi\n      mload(0x40)\n      0x08c379a000000000000000000000000000000000000000000000000000000000\n      dup2\n      mstore\n      0x04\n      add\n      tag_83\n      swap1\n      tag_84\n      jump\t// in\n    tag_83:\n      mload(0x40)\n      dup1\n      swap2\n      sub\n      swap1\n      revert\n    tag_82:\n        /* \"contracts/crowdfunding.sol\":2137:2138  0 */\n      0x00\n        /* \"contracts/crowdfunding.sol\":2109:2121  contributors */\n      dup1\n        /* \"contracts/crowdfunding.sol\":2109:2133  contributors[msg.sender] */\n      0x00\n        /* \"contracts/crowdfunding.sol\":2122:2132  msg.sender */\n      caller\n        /* \"contracts/crowdfunding.sol\":2109:2133  contributors[msg.sender] */\n      0xffffffffffffffffffffffffffffffffffffffff\n      and\n      0xffffffffffffffffffffffffffffffffffffffff\n      and\n      dup2\n      mstore\n      0x20\n      add\n      swap1\n      dup2\n      mstore\n      0x20\n      add\n      0x00\n      keccak256\n      sload\n        /* \"contracts/crowdfunding.sol\":2109:2138  contributors[msg.sender] == 0 */\n      eq\n        /* \"contracts/crowdfunding.sol\":2105:2186  if (contributors[msg.sender] == 0){\r... */\n      iszero\n      tag_85\n      jumpi\n        /* \"contracts/crowdfunding.sol\":2154:2172  numberContributors */\n      0x02\n      0x00\n        /* \"contracts/crowdfunding.sol\":2154:2174  numberContributors++ */\n      dup2\n      sload\n      dup1\n      swap3\n      swap2\n      swap1\n      tag_86\n      swap1\n      tag_87\n      jump\t// in\n    tag_86:\n      swap2\n      swap1\n      pop\n      sstore\n      pop\n        /* \"contracts/crowdfunding.sol\":2105:2186  if (contributors[msg.sender] == 0){\r... */\n    tag_85:\n        /* \"contracts/crowdfunding.sol\":2263:2272  msg.value */\n      callvalue\n        /* \"contracts/crowdfunding.sol\":2235:2247  contributors */\n      0x00\n        /* \"contracts/crowdfunding.sol\":2235:2259  contributors[msg.sender] */\n      dup1\n        /* \"contracts/crowdfunding.sol\":2248:2258  msg.sender */\n      caller\n        /* \"contracts/crowdfunding.sol\":2235:2259  contributors[msg.sender] */\n      0xffffffffffffffffffffffffffffffffffffffff\n      and\n      0xffffffffffffffffffffffffffffffffffffffff\n      and\n      dup2\n      mstore\n      0x20\n      add\n      swap1\n      dup2\n      mstore\n      0x20\n      add\n      0x00\n      keccak256\n      0x00\n        /* \"contracts/crowdfunding.sol\":2235:2272  contributors[msg.sender] += msg.value */\n      dup3\n      dup3\n      sload\n      tag_88\n      swap2\n      swap1\n      tag_89\n      jump\t// in\n    tag_88:\n      swap3\n      pop\n      pop\n      dup2\n      swap1\n      sstore\n      pop\n        /* \"contracts/crowdfunding.sol\":2339:2348  msg.value */\n      callvalue\n        /* \"contracts/crowdfunding.sol\":2323:2335  raisedAmount */\n      0x06\n      0x00\n        /* \"contracts/crowdfunding.sol\":2323:2348  raisedAmount += msg.value */\n      dup3\n      dup3\n      sload\n      tag_90\n      swap2\n      swap1\n      tag_89\n      jump\t// in\n    tag_90:\n      swap3\n      pop\n      pop\n      dup2\n      swap1\n      sstore\n      pop\n        /* \"contracts/crowdfunding.sol\":1696:2358  function contribute() public payable{\r... */\n      jump\t// out\n        /* \"contracts/crowdfunding.sol\":2586:2684  function getBalance() public view returns(uint){\r... */\n    tag_24:\n        /* \"contracts/crowdfunding.sol\":2628:2632  uint */\n      0x00\n        /* \"contracts/crowdfunding.sol\":2653:2674  address(this).balance */\n      selfbalance\n        /* \"contracts/crowdfunding.sol\":2646:2674  return address(this).balance */\n      swap1\n      pop\n        /* \"contracts/crowdfunding.sol\":2586:2684  function getBalance() public view returns(uint){\r... */\n      swap1\n      jump\t// out\n        /* \"contracts/crowdfunding.sol\":3561:3680  function createRequest(string memory _description, address payable recipient, uint _value) public{\r... */\n    tag_31:\n      pop\n      pop\n      pop\n      jump\t// out\n        /* \"contracts/crowdfunding.sol\":161:205  mapping(address => uint) public contributors */\n    tag_36:\n      mstore(0x20, 0x00)\n      dup1\n      0x00\n      mstore\n      keccak256(0x00, 0x40)\n      0x00\n      swap2\n      pop\n      swap1\n      pop\n      sload\n      dup2\n      jump\t// out\n        /* \"contracts/crowdfunding.sol\":465:485  uint public deadline */\n    tag_40:\n      sload(0x04)\n      dup2\n      jump\t// out\n        /* \"contracts/crowdfunding.sol\":505:521  uint public goal */\n    tag_44:\n      sload(0x05)\n      dup2\n      jump\t// out\n        /* \"contracts/crowdfunding.sol\":1215:1255  mapping(uint => Request) public requests */\n    tag_50:\n      mstore(0x20, 0x07)\n      dup1\n      0x00\n      mstore\n      keccak256(0x00, 0x40)\n      0x00\n      swap2\n      pop\n      swap1\n      pop\n      dup1\n      0x00\n      add\n      dup1\n      sload\n      tag_93\n      swap1\n      tag_94\n      jump\t// in\n    tag_93:\n      dup1\n      0x1f\n      add\n      0x20\n      dup1\n      swap2\n      div\n      mul\n      0x20\n      add\n      mload(0x40)\n      swap1\n      dup2\n      add\n      0x40\n      mstore\n      dup1\n      swap3\n      swap2\n      swap1\n      dup2\n      dup2\n      mstore\n      0x20\n      add\n      dup3\n      dup1\n      sload\n      tag_95\n      swap1\n      tag_94\n      jump\t// in\n    tag_95:\n      dup1\n      iszero\n      tag_96\n      jumpi\n      dup1\n      0x1f\n      lt\n      tag_97\n      jumpi\n      0x0100\n      dup1\n      dup4\n      sload\n      div\n      mul\n      dup4\n      mstore\n      swap2\n      0x20\n      add\n      swap2\n      jump(tag_96)\n    tag_97:\n      dup3\n      add\n      swap2\n      swap1\n      0x00\n      mstore\n      keccak256(0x00, 0x20)\n      swap1\n    tag_98:\n      dup2\n      sload\n      dup2\n      mstore\n      swap1\n      0x01\n      add\n      swap1\n      0x20\n      add\n      dup1\n      dup4\n      gt\n      tag_98\n      jumpi\n      dup3\n      swap1\n      sub\n      0x1f\n      and\n      dup3\n      add\n      swap2\n    tag_96:\n      pop\n      pop\n      pop\n      pop\n      pop\n      swap1\n      dup1\n      0x01\n      add\n      0x00\n      swap1\n      sload\n      swap1\n      0x0100\n      exp\n      swap1\n      div\n      0xffffffffffffffffffffffffffffffffffffffff\n      and\n      swap1\n      dup1\n      0x02\n      add\n      sload\n      swap1\n      dup1\n      0x03\n      add\n      0x00\n      swap1\n      sload\n      swap1\n      0x0100\n      exp\n      swap1\n      div\n      0xff\n      and\n      swap1\n      dup1\n      0x04\n      add\n      sload\n      swap1\n      pop\n      dup6\n      jump\t// out\n        /* \"contracts/crowdfunding.sol\":399:430  uint public minimumContribution */\n    tag_55:\n      sload(0x03)\n      dup2\n      jump\t// out\n        /* \"contracts/crowdfunding.sol\":2733:3329  function getRefund() public{\r... */\n    tag_59:\n        /* \"contracts/crowdfunding.sol\":2855:2863  deadline */\n      sload(0x04)\n        /* \"contracts/crowdfunding.sol\":2837:2852  block.timestamp */\n      timestamp\n        /* \"contracts/crowdfunding.sol\":2837:2863  block.timestamp > deadline */\n      gt\n        /* \"contracts/crowdfunding.sol\":2837:2886  block.timestamp > deadline && raisedAmount < goal */\n      dup1\n      iszero\n      tag_100\n      jumpi\n      pop\n        /* \"contracts/crowdfunding.sol\":2882:2886  goal */\n      sload(0x05)\n        /* \"contracts/crowdfunding.sol\":2867:2879  raisedAmount */\n      sload(0x06)\n        /* \"contracts/crowdfunding.sol\":2867:2886  raisedAmount < goal */\n      lt\n        /* \"contracts/crowdfunding.sol\":2837:2886  block.timestamp > deadline && raisedAmount < goal */\n    tag_100:\n        /* \"contracts/crowdfunding.sol\":2829:2887  require(block.timestamp > deadline && raisedAmount < goal) */\n      tag_101\n      jumpi\n      0x00\n      dup1\n      revert\n    tag_101:\n        /* \"contracts/crowdfunding.sol\":2977:2978  0 */\n      0x00\n        /* \"contracts/crowdfunding.sol\":2950:2962  contributors */\n      dup1\n        /* \"contracts/crowdfunding.sol\":2950:2974  contributors[msg.sender] */\n      0x00\n        /* \"contracts/crowdfunding.sol\":2963:2973  msg.sender */\n      caller\n        /* \"contracts/crowdfunding.sol\":2950:2974  contributors[msg.sender] */\n      0xffffffffffffffffffffffffffffffffffffffff\n      and\n      0xffffffffffffffffffffffffffffffffffffffff\n      and\n      dup2\n      mstore\n      0x20\n      add\n      swap1\n      dup2\n      mstore\n      0x20\n      add\n      0x00\n      keccak256\n      sload\n        /* \"contracts/crowdfunding.sol\":2950:2978  contributors[msg.sender] > 0 */\n      gt\n        /* \"contracts/crowdfunding.sol\":2942:2979  require(contributors[msg.sender] > 0) */\n      tag_102\n      jumpi\n      0x00\n      dup1\n      revert\n    tag_102:\n        /* \"contracts/crowdfunding.sol\":3021:3046  address payable recipient */\n      0x00\n        /* \"contracts/crowdfunding.sol\":3057:3067  msg.sender */\n      caller\n        /* \"contracts/crowdfunding.sol\":3021:3068  address payable recipient = payable(msg.sender) */\n      swap1\n      pop\n        /* \"contracts/crowdfunding.sol\":3115:3125  uint value */\n      0x00\n        /* \"contracts/crowdfunding.sol\":3128:3140  contributors */\n      dup1\n        /* \"contracts/crowdfunding.sol\":3128:3152  contributors[msg.sender] */\n      0x00\n        /* \"contracts/crowdfunding.sol\":3141:3151  msg.sender */\n      caller\n        /* \"contracts/crowdfunding.sol\":3128:3152  contributors[msg.sender] */\n      0xffffffffffffffffffffffffffffffffffffffff\n      and\n      0xffffffffffffffffffffffffffffffffffffffff\n      and\n      dup2\n      mstore\n      0x20\n      add\n      swap1\n      dup2\n      mstore\n      0x20\n      add\n      0x00\n      keccak256\n      sload\n        /* \"contracts/crowdfunding.sol\":3115:3152  uint value = contributors[msg.sender] */\n      swap1\n      pop\n        /* \"contracts/crowdfunding.sol\":3211:3220  recipient */\n      dup2\n        /* \"contracts/crowdfunding.sol\":3211:3229  recipient.transfer */\n      0xffffffffffffffffffffffffffffffffffffffff\n      and\n        /* \"contracts/crowdfunding.sol\":3211:3236  recipient.transfer(value) */\n      0x08fc\n        /* \"contracts/crowdfunding.sol\":3230:3235  value */\n      dup3\n        /* \"contracts/crowdfunding.sol\":3211:3236  recipient.transfer(value) */\n      swap1\n      dup2\n      iszero\n      mul\n      swap1\n      mload(0x40)\n      0x00\n      mload(0x40)\n      dup1\n      dup4\n      sub\n      dup2\n      dup6\n      dup9\n      dup9\n      call\n      swap4\n      pop\n      pop\n      pop\n      pop\n      iszero\n      dup1\n      iszero\n      tag_104\n      jumpi\n      returndatasize\n      0x00\n      dup1\n      returndatacopy\n      revert(0x00, returndatasize)\n    tag_104:\n      pop\n        /* \"contracts/crowdfunding.sol\":3318:3319  0 */\n      0x00\n        /* \"contracts/crowdfunding.sol\":3291:3303  contributors */\n      dup1\n        /* \"contracts/crowdfunding.sol\":3291:3315  contributors[msg.sender] */\n      0x00\n        /* \"contracts/crowdfunding.sol\":3304:3314  msg.sender */\n      caller\n        /* \"contracts/crowdfunding.sol\":3291:3315  contributors[msg.sender] */\n      0xffffffffffffffffffffffffffffffffffffffff\n      and\n      0xffffffffffffffffffffffffffffffffffffffff\n      and\n      dup2\n      mstore\n      0x20\n      add\n      swap1\n      dup2\n      mstore\n      0x20\n      add\n      0x00\n      keccak256\n        /* \"contracts/crowdfunding.sol\":3291:3319  contributors[msg.sender] = 0 */\n      dup2\n      swap1\n      sstore\n      pop\n        /* \"contracts/crowdfunding.sol\":2760:3329  {\r... */\n      pop\n      pop\n        /* \"contracts/crowdfunding.sol\":2733:3329  function getRefund() public{\r... */\n      jump\t// out\n        /* \"contracts/crowdfunding.sol\":544:568  uint public raisedAmount */\n    tag_62:\n      sload(0x06)\n      dup2\n      jump\t// out\n        /* \"contracts/crowdfunding.sol\":1341:1367  uint public numberRequests */\n    tag_66:\n      sload(0x08)\n      dup2\n      jump\t// out\n        /* \"contracts/crowdfunding.sol\":360:390  uint public numberContributors */\n    tag_71:\n      sload(0x02)\n      dup2\n      jump\t// out\n        /* \"contracts/crowdfunding.sol\":275:295  address public admin */\n    tag_75:\n      0x01\n      0x00\n      swap1\n      sload\n      swap1\n      0x0100\n      exp\n      swap1\n      div\n      0xffffffffffffffffffffffffffffffffffffffff\n      and\n      dup2\n      jump\t// out\n        /* \"#utility.yul\":7:419   */\n    tag_106:\n        /* \"#utility.yul\":85:90   */\n      0x00\n        /* \"#utility.yul\":110:176   */\n      tag_108\n        /* \"#utility.yul\":126:175   */\n      tag_109\n        /* \"#utility.yul\":168:174   */\n      dup5\n        /* \"#utility.yul\":126:175   */\n      tag_110\n      jump\t// in\n    tag_109:\n        /* \"#utility.yul\":110:176   */\n      tag_111\n      jump\t// in\n    tag_108:\n        /* \"#utility.yul\":101:176   */\n      swap1\n      pop\n        /* \"#utility.yul\":199:205   */\n      dup3\n        /* \"#utility.yul\":192:197   */\n      dup2\n        /* \"#utility.yul\":185:206   */\n      mstore\n        /* \"#utility.yul\":237:241   */\n      0x20\n        /* \"#utility.yul\":230:235   */\n      dup2\n        /* \"#utility.yul\":226:242   */\n      add\n        /* \"#utility.yul\":275:278   */\n      dup5\n        /* \"#utility.yul\":266:272   */\n      dup5\n        /* \"#utility.yul\":261:264   */\n      dup5\n        /* \"#utility.yul\":257:273   */\n      add\n        /* \"#utility.yul\":254:279   */\n      gt\n        /* \"#utility.yul\":251:363   */\n      iszero\n      tag_112\n      jumpi\n        /* \"#utility.yul\":282:361   */\n      tag_113\n      tag_114\n      jump\t// in\n    tag_113:\n        /* \"#utility.yul\":251:363   */\n    tag_112:\n        /* \"#utility.yul\":372:413   */\n      tag_115\n        /* \"#utility.yul\":406:412   */\n      dup5\n        /* \"#utility.yul\":401:404   */\n      dup3\n        /* \"#utility.yul\":396:399   */\n      dup6\n        /* \"#utility.yul\":372:413   */\n      tag_116\n      jump\t// in\n    tag_115:\n        /* \"#utility.yul\":91:419   */\n      pop\n        /* \"#utility.yul\":7:419   */\n      swap4\n      swap3\n      pop\n      pop\n      pop\n      jump\t// out\n        /* \"#utility.yul\":425:564   */\n    tag_117:\n        /* \"#utility.yul\":471:476   */\n      0x00\n        /* \"#utility.yul\":509:515   */\n      dup2\n        /* \"#utility.yul\":496:516   */\n      calldataload\n        /* \"#utility.yul\":487:516   */\n      swap1\n      pop\n        /* \"#utility.yul\":525:558   */\n      tag_119\n        /* \"#utility.yul\":552:557   */\n      dup2\n        /* \"#utility.yul\":525:558   */\n      tag_120\n      jump\t// in\n    tag_119:\n        /* \"#utility.yul\":425:564   */\n      swap3\n      swap2\n      pop\n      pop\n      jump\t// out\n        /* \"#utility.yul\":570:725   */\n    tag_121:\n        /* \"#utility.yul\":624:629   */\n      0x00\n        /* \"#utility.yul\":662:668   */\n      dup2\n        /* \"#utility.yul\":649:669   */\n      calldataload\n        /* \"#utility.yul\":640:669   */\n      swap1\n      pop\n        /* \"#utility.yul\":678:719   */\n      tag_123\n        /* \"#utility.yul\":713:718   */\n      dup2\n        /* \"#utility.yul\":678:719   */\n      tag_124\n      jump\t// in\n    tag_123:\n        /* \"#utility.yul\":570:725   */\n      swap3\n      swap2\n      pop\n      pop\n      jump\t// out\n        /* \"#utility.yul\":745:1085   */\n    tag_125:\n        /* \"#utility.yul\":801:806   */\n      0x00\n        /* \"#utility.yul\":850:853   */\n      dup3\n        /* \"#utility.yul\":843:847   */\n      0x1f\n        /* \"#utility.yul\":835:841   */\n      dup4\n        /* \"#utility.yul\":831:848   */\n      add\n        /* \"#utility.yul\":827:854   */\n      slt\n        /* \"#utility.yul\":817:939   */\n      tag_127\n      jumpi\n        /* \"#utility.yul\":858:937   */\n      tag_128\n      tag_129\n      jump\t// in\n    tag_128:\n        /* \"#utility.yul\":817:939   */\n    tag_127:\n        /* \"#utility.yul\":975:981   */\n      dup2\n        /* \"#utility.yul\":962:982   */\n      calldataload\n        /* \"#utility.yul\":1000:1079   */\n      tag_130\n        /* \"#utility.yul\":1075:1078   */\n      dup5\n        /* \"#utility.yul\":1067:1073   */\n      dup3\n        /* \"#utility.yul\":1060:1064   */\n      0x20\n        /* \"#utility.yul\":1052:1058   */\n      dup7\n        /* \"#utility.yul\":1048:1065   */\n      add\n        /* \"#utility.yul\":1000:1079   */\n      tag_106\n      jump\t// in\n    tag_130:\n        /* \"#utility.yul\":991:1079   */\n      swap2\n      pop\n        /* \"#utility.yul\":807:1085   */\n      pop\n        /* \"#utility.yul\":745:1085   */\n      swap3\n      swap2\n      pop\n      pop\n      jump\t// out\n        /* \"#utility.yul\":1091:1230   */\n    tag_131:\n        /* \"#utility.yul\":1137:1142   */\n      0x00\n        /* \"#utility.yul\":1175:1181   */\n      dup2\n        /* \"#utility.yul\":1162:1182   */\n      calldataload\n        /* \"#utility.yul\":1153:1182   */\n      swap1\n      pop\n        /* \"#utility.yul\":1191:1224   */\n      tag_133\n        /* \"#utility.yul\":1218:1223   */\n      dup2\n        /* \"#utility.yul\":1191:1224   */\n      tag_134\n      jump\t// in\n    tag_133:\n        /* \"#utility.yul\":1091:1230   */\n      swap3\n      swap2\n      pop\n      pop\n      jump\t// out\n        /* \"#utility.yul\":1236:1565   */\n    tag_35:\n        /* \"#utility.yul\":1295:1301   */\n      0x00\n        /* \"#utility.yul\":1344:1346   */\n      0x20\n        /* \"#utility.yul\":1332:1341   */\n      dup3\n        /* \"#utility.yul\":1323:1330   */\n      dup5\n        /* \"#utility.yul\":1319:1342   */\n      sub\n        /* \"#utility.yul\":1315:1347   */\n      slt\n        /* \"#utility.yul\":1312:1431   */\n      iszero\n      tag_136\n      jumpi\n        /* \"#utility.yul\":1350:1429   */\n      tag_137\n      tag_138\n      jump\t// in\n    tag_137:\n        /* \"#utility.yul\":1312:1431   */\n    tag_136:\n        /* \"#utility.yul\":1470:1471   */\n      0x00\n        /* \"#utility.yul\":1495:1548   */\n      tag_139\n        /* \"#utility.yul\":1540:1547   */\n      dup5\n        /* \"#utility.yul\":1531:1537   */\n      dup3\n        /* \"#utility.yul\":1520:1529   */\n      dup6\n        /* \"#utility.yul\":1516:1538   */\n      add\n        /* \"#utility.yul\":1495:1548   */\n      tag_117\n      jump\t// in\n    tag_139:\n        /* \"#utility.yul\":1485:1548   */\n      swap2\n      pop\n        /* \"#utility.yul\":1441:1558   */\n      pop\n        /* \"#utility.yul\":1236:1565   */\n      swap3\n      swap2\n      pop\n      pop\n      jump\t// out\n        /* \"#utility.yul\":1571:2386   */\n    tag_30:\n        /* \"#utility.yul\":1666:1672   */\n      0x00\n        /* \"#utility.yul\":1674:1680   */\n      dup1\n        /* \"#utility.yul\":1682:1688   */\n      0x00\n        /* \"#utility.yul\":1731:1733   */\n      0x60\n        /* \"#utility.yul\":1719:1728   */\n      dup5\n        /* \"#utility.yul\":1710:1717   */\n      dup7\n        /* \"#utility.yul\":1706:1729   */\n      sub\n        /* \"#utility.yul\":1702:1734   */\n      slt\n        /* \"#utility.yul\":1699:1818   */\n      iszero\n      tag_141\n      jumpi\n        /* \"#utility.yul\":1737:1816   */\n      tag_142\n      tag_138\n      jump\t// in\n    tag_142:\n        /* \"#utility.yul\":1699:1818   */\n    tag_141:\n        /* \"#utility.yul\":1885:1886   */\n      0x00\n        /* \"#utility.yul\":1874:1883   */\n      dup5\n        /* \"#utility.yul\":1870:1887   */\n      add\n        /* \"#utility.yul\":1857:1888   */\n      calldataload\n        /* \"#utility.yul\":1915:1933   */\n      0xffffffffffffffff\n        /* \"#utility.yul\":1907:1913   */\n      dup2\n        /* \"#utility.yul\":1904:1934   */\n      gt\n        /* \"#utility.yul\":1901:2018   */\n      iszero\n      tag_143\n      jumpi\n        /* \"#utility.yul\":1937:2016   */\n      tag_144\n      tag_145\n      jump\t// in\n    tag_144:\n        /* \"#utility.yul\":1901:2018   */\n    tag_143:\n        /* \"#utility.yul\":2042:2105   */\n      tag_146\n        /* \"#utility.yul\":2097:2104   */\n      dup7\n        /* \"#utility.yul\":2088:2094   */\n      dup3\n        /* \"#utility.yul\":2077:2086   */\n      dup8\n        /* \"#utility.yul\":2073:2095   */\n      add\n        /* \"#utility.yul\":2042:2105   */\n      tag_125\n      jump\t// in\n    tag_146:\n        /* \"#utility.yul\":2032:2105   */\n      swap4\n      pop\n        /* \"#utility.yul\":1828:2115   */\n      pop\n        /* \"#utility.yul\":2154:2156   */\n      0x20\n        /* \"#utility.yul\":2180:2241   */\n      tag_147\n        /* \"#utility.yul\":2233:2240   */\n      dup7\n        /* \"#utility.yul\":2224:2230   */\n      dup3\n        /* \"#utility.yul\":2213:2222   */\n      dup8\n        /* \"#utility.yul\":2209:2231   */\n      add\n        /* \"#utility.yul\":2180:2241   */\n      tag_121\n      jump\t// in\n    tag_147:\n        /* \"#utility.yul\":2170:2241   */\n      swap3\n      pop\n        /* \"#utility.yul\":2125:2251   */\n      pop\n        /* \"#utility.yul\":2290:2292   */\n      0x40\n        /* \"#utility.yul\":2316:2369   */\n      tag_148\n        /* \"#utility.yul\":2361:2368   */\n      dup7\n        /* \"#utility.yul\":2352:2358   */\n      dup3\n        /* \"#utility.yul\":2341:2350   */\n      dup8\n        /* \"#utility.yul\":2337:2359   */\n      add\n        /* \"#utility.yul\":2316:2369   */\n      tag_131\n      jump\t// in\n    tag_148:\n        /* \"#utility.yul\":2306:2369   */\n      swap2\n      pop\n        /* \"#utility.yul\":2261:2379   */\n      pop\n        /* \"#utility.yul\":1571:2386   */\n      swap3\n      pop\n      swap3\n      pop\n      swap3\n      jump\t// out\n        /* \"#utility.yul\":2392:2721   */\n    tag_49:\n        /* \"#utility.yul\":2451:2457   */\n      0x00\n        /* \"#utility.yul\":2500:2502   */\n      0x20\n        /* \"#utility.yul\":2488:2497   */\n      dup3\n        /* \"#utility.yul\":2479:2486   */\n      dup5\n        /* \"#utility.yul\":2475:2498   */\n      sub\n        /* \"#utility.yul\":2471:2503   */\n      slt\n        /* \"#utility.yul\":2468:2587   */\n      iszero\n      tag_150\n      jumpi\n        /* \"#utility.yul\":2506:2585   */\n      tag_151\n      tag_138\n      jump\t// in\n    tag_151:\n        /* \"#utility.yul\":2468:2587   */\n    tag_150:\n        /* \"#utility.yul\":2626:2627   */\n      0x00\n        /* \"#utility.yul\":2651:2704   */\n      tag_152\n        /* \"#utility.yul\":2696:2703   */\n      dup5\n        /* \"#utility.yul\":2687:2693   */\n      dup3\n        /* \"#utility.yul\":2676:2685   */\n      dup6\n        /* \"#utility.yul\":2672:2694   */\n      add\n        /* \"#utility.yul\":2651:2704   */\n      tag_131\n      jump\t// in\n    tag_152:\n        /* \"#utility.yul\":2641:2704   */\n      swap2\n      pop\n        /* \"#utility.yul\":2597:2714   */\n      pop\n        /* \"#utility.yul\":2392:2721   */\n      swap3\n      swap2\n      pop\n      pop\n      jump\t// out\n        /* \"#utility.yul\":2727:2869   */\n    tag_153:\n        /* \"#utility.yul\":2830:2862   */\n      tag_155\n        /* \"#utility.yul\":2856:2861   */\n      dup2\n        /* \"#utility.yul\":2830:2862   */\n      tag_156\n      jump\t// in\n    tag_155:\n        /* \"#utility.yul\":2825:2828   */\n      dup3\n        /* \"#utility.yul\":2818:2863   */\n      mstore\n        /* \"#utility.yul\":2727:2869   */\n      pop\n      pop\n      jump\t// out\n        /* \"#utility.yul\":2875:2993   */\n    tag_157:\n        /* \"#utility.yul\":2962:2986   */\n      tag_159\n        /* \"#utility.yul\":2980:2985   */\n      dup2\n        /* \"#utility.yul\":2962:2986   */\n      tag_160\n      jump\t// in\n    tag_159:\n        /* \"#utility.yul\":2957:2960   */\n      dup3\n        /* \"#utility.yul\":2950:2987   */\n      mstore\n        /* \"#utility.yul\":2875:2993   */\n      pop\n      pop\n      jump\t// out\n        /* \"#utility.yul\":2999:3108   */\n    tag_161:\n        /* \"#utility.yul\":3080:3101   */\n      tag_163\n        /* \"#utility.yul\":3095:3100   */\n      dup2\n        /* \"#utility.yul\":3080:3101   */\n      tag_164\n      jump\t// in\n    tag_163:\n        /* \"#utility.yul\":3075:3078   */\n      dup3\n        /* \"#utility.yul\":3068:3102   */\n      mstore\n        /* \"#utility.yul\":2999:3108   */\n      pop\n      pop\n      jump\t// out\n        /* \"#utility.yul\":3114:3478   */\n    tag_165:\n        /* \"#utility.yul\":3202:3205   */\n      0x00\n        /* \"#utility.yul\":3230:3269   */\n      tag_167\n        /* \"#utility.yul\":3263:3268   */\n      dup3\n        /* \"#utility.yul\":3230:3269   */\n      tag_168\n      jump\t// in\n    tag_167:\n        /* \"#utility.yul\":3285:3356   */\n      tag_169\n        /* \"#utility.yul\":3349:3355   */\n      dup2\n        /* \"#utility.yul\":3344:3347   */\n      dup6\n        /* \"#utility.yul\":3285:3356   */\n      tag_170\n      jump\t// in\n    tag_169:\n        /* \"#utility.yul\":3278:3356   */\n      swap4\n      pop\n        /* \"#utility.yul\":3365:3417   */\n      tag_171\n        /* \"#utility.yul\":3410:3416   */\n      dup2\n        /* \"#utility.yul\":3405:3408   */\n      dup6\n        /* \"#utility.yul\":3398:3402   */\n      0x20\n        /* \"#utility.yul\":3391:3396   */\n      dup7\n        /* \"#utility.yul\":3387:3403   */\n      add\n        /* \"#utility.yul\":3365:3417   */\n      tag_172\n      jump\t// in\n    tag_171:\n        /* \"#utility.yul\":3442:3471   */\n      tag_173\n        /* \"#utility.yul\":3464:3470   */\n      dup2\n        /* \"#utility.yul\":3442:3471   */\n      tag_174\n      jump\t// in\n    tag_173:\n        /* \"#utility.yul\":3437:3440   */\n      dup5\n        /* \"#utility.yul\":3433:3472   */\n      add\n        /* \"#utility.yul\":3426:3472   */\n      swap2\n      pop\n        /* \"#utility.yul\":3206:3478   */\n      pop\n        /* \"#utility.yul\":3114:3478   */\n      swap3\n      swap2\n      pop\n      pop\n      jump\t// out\n        /* \"#utility.yul\":3484:3850   */\n    tag_175:\n        /* \"#utility.yul\":3626:3629   */\n      0x00\n        /* \"#utility.yul\":3647:3714   */\n      tag_177\n        /* \"#utility.yul\":3711:3713   */\n      0x14\n        /* \"#utility.yul\":3706:3709   */\n      dup4\n        /* \"#utility.yul\":3647:3714   */\n      tag_170\n      jump\t// in\n    tag_177:\n        /* \"#utility.yul\":3640:3714   */\n      swap2\n      pop\n        /* \"#utility.yul\":3723:3816   */\n      tag_178\n        /* \"#utility.yul\":3812:3815   */\n      dup3\n        /* \"#utility.yul\":3723:3816   */\n      tag_179\n      jump\t// in\n    tag_178:\n        /* \"#utility.yul\":3841:3843   */\n      0x20\n        /* \"#utility.yul\":3836:3839   */\n      dup3\n        /* \"#utility.yul\":3832:3844   */\n      add\n        /* \"#utility.yul\":3825:3844   */\n      swap1\n      pop\n        /* \"#utility.yul\":3484:3850   */\n      swap2\n      swap1\n      pop\n      jump\t// out\n        /* \"#utility.yul\":3856:4222   */\n    tag_180:\n        /* \"#utility.yul\":3998:4001   */\n      0x00\n        /* \"#utility.yul\":4019:4086   */\n      tag_182\n        /* \"#utility.yul\":4083:4085   */\n      0x1d\n        /* \"#utility.yul\":4078:4081   */\n      dup4\n        /* \"#utility.yul\":4019:4086   */\n      tag_170\n      jump\t// in\n    tag_182:\n        /* \"#utility.yul\":4012:4086   */\n      swap2\n      pop\n        /* \"#utility.yul\":4095:4188   */\n      tag_183\n        /* \"#utility.yul\":4184:4187   */\n      dup3\n        /* \"#utility.yul\":4095:4188   */\n      tag_184\n      jump\t// in\n    tag_183:\n        /* \"#utility.yul\":4213:4215   */\n      0x20\n        /* \"#utility.yul\":4208:4211   */\n      dup3\n        /* \"#utility.yul\":4204:4216   */\n      add\n        /* \"#utility.yul\":4197:4216   */\n      swap1\n      pop\n        /* \"#utility.yul\":3856:4222   */\n      swap2\n      swap1\n      pop\n      jump\t// out\n        /* \"#utility.yul\":4228:4346   */\n    tag_185:\n        /* \"#utility.yul\":4315:4339   */\n      tag_187\n        /* \"#utility.yul\":4333:4338   */\n      dup2\n        /* \"#utility.yul\":4315:4339   */\n      tag_188\n      jump\t// in\n    tag_187:\n        /* \"#utility.yul\":4310:4313   */\n      dup3\n        /* \"#utility.yul\":4303:4340   */\n      mstore\n        /* \"#utility.yul\":4228:4346   */\n      pop\n      pop\n      jump\t// out\n        /* \"#utility.yul\":4352:4574   */\n    tag_77:\n        /* \"#utility.yul\":4445:4449   */\n      0x00\n        /* \"#utility.yul\":4483:4485   */\n      0x20\n        /* \"#utility.yul\":4472:4481   */\n      dup3\n        /* \"#utility.yul\":4468:4486   */\n      add\n        /* \"#utility.yul\":4460:4486   */\n      swap1\n      pop\n        /* \"#utility.yul\":4496:4567   */\n      tag_190\n        /* \"#utility.yul\":4564:4565   */\n      0x00\n        /* \"#utility.yul\":4553:4562   */\n      dup4\n        /* \"#utility.yul\":4549:4566   */\n      add\n        /* \"#utility.yul\":4540:4546   */\n      dup5\n        /* \"#utility.yul\":4496:4567   */\n      tag_157\n      jump\t// in\n    tag_190:\n        /* \"#utility.yul\":4352:4574   */\n      swap3\n      swap2\n      pop\n      pop\n      jump\t// out\n        /* \"#utility.yul\":4580:5355   */\n    tag_52:\n        /* \"#utility.yul\":4815:4819   */\n      0x00\n        /* \"#utility.yul\":4853:4856   */\n      0xa0\n        /* \"#utility.yul\":4842:4851   */\n      dup3\n        /* \"#utility.yul\":4838:4857   */\n      add\n        /* \"#utility.yul\":4830:4857   */\n      swap1\n      pop\n        /* \"#utility.yul\":4903:4912   */\n      dup2\n        /* \"#utility.yul\":4897:4901   */\n      dup2\n        /* \"#utility.yul\":4893:4913   */\n      sub\n        /* \"#utility.yul\":4889:4890   */\n      0x00\n        /* \"#utility.yul\":4878:4887   */\n      dup4\n        /* \"#utility.yul\":4874:4891   */\n      add\n        /* \"#utility.yul\":4867:4914   */\n      mstore\n        /* \"#utility.yul\":4931:5009   */\n      tag_192\n        /* \"#utility.yul\":5004:5008   */\n      dup2\n        /* \"#utility.yul\":4995:5001   */\n      dup9\n        /* \"#utility.yul\":4931:5009   */\n      tag_165\n      jump\t// in\n    tag_192:\n        /* \"#utility.yul\":4923:5009   */\n      swap1\n      pop\n        /* \"#utility.yul\":5019:5107   */\n      tag_193\n        /* \"#utility.yul\":5103:5105   */\n      0x20\n        /* \"#utility.yul\":5092:5101   */\n      dup4\n        /* \"#utility.yul\":5088:5106   */\n      add\n        /* \"#utility.yul\":5079:5085   */\n      dup8\n        /* \"#utility.yul\":5019:5107   */\n      tag_153\n      jump\t// in\n    tag_193:\n        /* \"#utility.yul\":5117:5189   */\n      tag_194\n        /* \"#utility.yul\":5185:5187   */\n      0x40\n        /* \"#utility.yul\":5174:5183   */\n      dup4\n        /* \"#utility.yul\":5170:5188   */\n      add\n        /* \"#utility.yul\":5161:5167   */\n      dup7\n        /* \"#utility.yul\":5117:5189   */\n      tag_185\n      jump\t// in\n    tag_194:\n        /* \"#utility.yul\":5199:5265   */\n      tag_195\n        /* \"#utility.yul\":5261:5263   */\n      0x60\n        /* \"#utility.yul\":5250:5259   */\n      dup4\n        /* \"#utility.yul\":5246:5264   */\n      add\n        /* \"#utility.yul\":5237:5243   */\n      dup6\n        /* \"#utility.yul\":5199:5265   */\n      tag_161\n      jump\t// in\n    tag_195:\n        /* \"#utility.yul\":5275:5348   */\n      tag_196\n        /* \"#utility.yul\":5343:5346   */\n      0x80\n        /* \"#utility.yul\":5332:5341   */\n      dup4\n        /* \"#utility.yul\":5328:5347   */\n      add\n        /* \"#utility.yul\":5319:5325   */\n      dup5\n        /* \"#utility.yul\":5275:5348   */\n      tag_185\n      jump\t// in\n    tag_196:\n        /* \"#utility.yul\":4580:5355   */\n      swap7\n      swap6\n      pop\n      pop\n      pop\n      pop\n      pop\n      pop\n      jump\t// out\n        /* \"#utility.yul\":5361:5780   */\n    tag_81:\n        /* \"#utility.yul\":5527:5531   */\n      0x00\n        /* \"#utility.yul\":5565:5567   */\n      0x20\n        /* \"#utility.yul\":5554:5563   */\n      dup3\n        /* \"#utility.yul\":5550:5568   */\n      add\n        /* \"#utility.yul\":5542:5568   */\n      swap1\n      pop\n        /* \"#utility.yul\":5614:5623   */\n      dup2\n        /* \"#utility.yul\":5608:5612   */\n      dup2\n        /* \"#utility.yul\":5604:5624   */\n      sub\n        /* \"#utility.yul\":5600:5601   */\n      0x00\n        /* \"#utility.yul\":5589:5598   */\n      dup4\n        /* \"#utility.yul\":5585:5602   */\n      add\n        /* \"#utility.yul\":5578:5625   */\n      mstore\n        /* \"#utility.yul\":5642:5773   */\n      tag_198\n        /* \"#utility.yul\":5768:5772   */\n      dup2\n        /* \"#utility.yul\":5642:5773   */\n      tag_175\n      jump\t// in\n    tag_198:\n        /* \"#utility.yul\":5634:5773   */\n      swap1\n      pop\n        /* \"#utility.yul\":5361:5780   */\n      swap2\n      swap1\n      pop\n      jump\t// out\n        /* \"#utility.yul\":5786:6205   */\n    tag_84:\n        /* \"#utility.yul\":5952:5956   */\n      0x00\n        /* \"#utility.yul\":5990:5992   */\n      0x20\n        /* \"#utility.yul\":5979:5988   */\n      dup3\n        /* \"#utility.yul\":5975:5993   */\n      add\n        /* \"#utility.yul\":5967:5993   */\n      swap1\n      pop\n        /* \"#utility.yul\":6039:6048   */\n      dup2\n        /* \"#utility.yul\":6033:6037   */\n      dup2\n        /* \"#utility.yul\":6029:6049   */\n      sub\n        /* \"#utility.yul\":6025:6026   */\n      0x00\n        /* \"#utility.yul\":6014:6023   */\n      dup4\n        /* \"#utility.yul\":6010:6027   */\n      add\n        /* \"#utility.yul\":6003:6050   */\n      mstore\n        /* \"#utility.yul\":6067:6198   */\n      tag_200\n        /* \"#utility.yul\":6193:6197   */\n      dup2\n        /* \"#utility.yul\":6067:6198   */\n      tag_180\n      jump\t// in\n    tag_200:\n        /* \"#utility.yul\":6059:6198   */\n      swap1\n      pop\n        /* \"#utility.yul\":5786:6205   */\n      swap2\n      swap1\n      pop\n      jump\t// out\n        /* \"#utility.yul\":6211:6433   */\n    tag_26:\n        /* \"#utility.yul\":6304:6308   */\n      0x00\n        /* \"#utility.yul\":6342:6344   */\n      0x20\n        /* \"#utility.yul\":6331:6340   */\n      dup3\n        /* \"#utility.yul\":6327:6345   */\n      add\n        /* \"#utility.yul\":6319:6345   */\n      swap1\n      pop\n        /* \"#utility.yul\":6355:6426   */\n      tag_202\n        /* \"#utility.yul\":6423:6424   */\n      0x00\n        /* \"#utility.yul\":6412:6421   */\n      dup4\n        /* \"#utility.yul\":6408:6425   */\n      add\n        /* \"#utility.yul\":6399:6405   */\n      dup5\n        /* \"#utility.yul\":6355:6426   */\n      tag_185\n      jump\t// in\n    tag_202:\n        /* \"#utility.yul\":6211:6433   */\n      swap3\n      swap2\n      pop\n      pop\n      jump\t// out\n        /* \"#utility.yul\":6439:6568   */\n    tag_111:\n        /* \"#utility.yul\":6473:6479   */\n      0x00\n        /* \"#utility.yul\":6500:6520   */\n      tag_204\n      tag_205\n      jump\t// in\n    tag_204:\n        /* \"#utility.yul\":6490:6520   */\n      swap1\n      pop\n        /* \"#utility.yul\":6529:6562   */\n      tag_206\n        /* \"#utility.yul\":6557:6561   */\n      dup3\n        /* \"#utility.yul\":6549:6555   */\n      dup3\n        /* \"#utility.yul\":6529:6562   */\n      tag_207\n      jump\t// in\n    tag_206:\n        /* \"#utility.yul\":6439:6568   */\n      swap2\n      swap1\n      pop\n      jump\t// out\n        /* \"#utility.yul\":6574:6649   */\n    tag_205:\n        /* \"#utility.yul\":6607:6613   */\n      0x00\n        /* \"#utility.yul\":6640:6642   */\n      0x40\n        /* \"#utility.yul\":6634:6643   */\n      mload\n        /* \"#utility.yul\":6624:6643   */\n      swap1\n      pop\n        /* \"#utility.yul\":6574:6649   */\n      swap1\n      jump\t// out\n        /* \"#utility.yul\":6655:6963   */\n    tag_110:\n        /* \"#utility.yul\":6717:6721   */\n      0x00\n        /* \"#utility.yul\":6807:6825   */\n      0xffffffffffffffff\n        /* \"#utility.yul\":6799:6805   */\n      dup3\n        /* \"#utility.yul\":6796:6826   */\n      gt\n        /* \"#utility.yul\":6793:6849   */\n      iszero\n      tag_210\n      jumpi\n        /* \"#utility.yul\":6829:6847   */\n      tag_211\n      tag_212\n      jump\t// in\n    tag_211:\n        /* \"#utility.yul\":6793:6849   */\n    tag_210:\n        /* \"#utility.yul\":6867:6896   */\n      tag_213\n        /* \"#utility.yul\":6889:6895   */\n      dup3\n        /* \"#utility.yul\":6867:6896   */\n      tag_174\n      jump\t// in\n    tag_213:\n        /* \"#utility.yul\":6859:6896   */\n      swap1\n      pop\n        /* \"#utility.yul\":6951:6955   */\n      0x20\n        /* \"#utility.yul\":6945:6949   */\n      dup2\n        /* \"#utility.yul\":6941:6956   */\n      add\n        /* \"#utility.yul\":6933:6956   */\n      swap1\n      pop\n        /* \"#utility.yul\":6655:6963   */\n      swap2\n      swap1\n      pop\n      jump\t// out\n        /* \"#utility.yul\":6969:7068   */\n    tag_168:\n        /* \"#utility.yul\":7021:7027   */\n      0x00\n        /* \"#utility.yul\":7055:7060   */\n      dup2\n        /* \"#utility.yul\":7049:7061   */\n      mload\n        /* \"#utility.yul\":7039:7061   */\n      swap1\n      pop\n        /* \"#utility.yul\":6969:7068   */\n      swap2\n      swap1\n      pop\n      jump\t// out\n        /* \"#utility.yul\":7074:7243   */\n    tag_170:\n        /* \"#utility.yul\":7158:7169   */\n      0x00\n        /* \"#utility.yul\":7192:7198   */\n      dup3\n        /* \"#utility.yul\":7187:7190   */\n      dup3\n        /* \"#utility.yul\":7180:7199   */\n      mstore\n        /* \"#utility.yul\":7232:7236   */\n      0x20\n        /* \"#utility.yul\":7227:7230   */\n      dup3\n        /* \"#utility.yul\":7223:7237   */\n      add\n        /* \"#utility.yul\":7208:7237   */\n      swap1\n      pop\n        /* \"#utility.yul\":7074:7243   */\n      swap3\n      swap2\n      pop\n      pop\n      jump\t// out\n        /* \"#utility.yul\":7249:7554   */\n    tag_89:\n        /* \"#utility.yul\":7289:7292   */\n      0x00\n        /* \"#utility.yul\":7308:7328   */\n      tag_217\n        /* \"#utility.yul\":7326:7327   */\n      dup3\n        /* \"#utility.yul\":7308:7328   */\n      tag_188\n      jump\t// in\n    tag_217:\n        /* \"#utility.yul\":7303:7328   */\n      swap2\n      pop\n        /* \"#utility.yul\":7342:7362   */\n      tag_218\n        /* \"#utility.yul\":7360:7361   */\n      dup4\n        /* \"#utility.yul\":7342:7362   */\n      tag_188\n      jump\t// in\n    tag_218:\n        /* \"#utility.yul\":7337:7362   */\n      swap3\n      pop\n        /* \"#utility.yul\":7496:7497   */\n      dup3\n        /* \"#utility.yul\":7428:7494   */\n      0xffffffffffffffffffffffffffffffffffffffffffffffffffffffffffffffff\n        /* \"#utility.yul\":7424:7498   */\n      sub\n        /* \"#utility.yul\":7421:7422   */\n      dup3\n        /* \"#utility.yul\":7418:7499   */\n      gt\n        /* \"#utility.yul\":7415:7522   */\n      iszero\n      tag_219\n      jumpi\n        /* \"#utility.yul\":7502:7520   */\n      tag_220\n      tag_221\n      jump\t// in\n    tag_220:\n        /* \"#utility.yul\":7415:7522   */\n    tag_219:\n        /* \"#utility.yul\":7546:7547   */\n      dup3\n        /* \"#utility.yul\":7543:7544   */\n      dup3\n        /* \"#utility.yul\":7539:7548   */\n      add\n        /* \"#utility.yul\":7532:7548   */\n      swap1\n      pop\n        /* \"#utility.yul\":7249:7554   */\n      swap3\n      swap2\n      pop\n      pop\n      jump\t// out\n        /* \"#utility.yul\":7560:7656   */\n    tag_160:\n        /* \"#utility.yul\":7597:7604   */\n      0x00\n        /* \"#utility.yul\":7626:7650   */\n      tag_223\n        /* \"#utility.yul\":7644:7649   */\n      dup3\n        /* \"#utility.yul\":7626:7650   */\n      tag_224\n      jump\t// in\n    tag_223:\n        /* \"#utility.yul\":7615:7650   */\n      swap1\n      pop\n        /* \"#utility.yul\":7560:7656   */\n      swap2\n      swap1\n      pop\n      jump\t// out\n        /* \"#utility.yul\":7662:7766   */\n    tag_156:\n        /* \"#utility.yul\":7707:7714   */\n      0x00\n        /* \"#utility.yul\":7736:7760   */\n      tag_226\n        /* \"#utility.yul\":7754:7759   */\n      dup3\n        /* \"#utility.yul\":7736:7760   */\n      tag_224\n      jump\t// in\n    tag_226:\n        /* \"#utility.yul\":7725:7760   */\n      swap1\n      pop\n        /* \"#utility.yul\":7662:7766   */\n      swap2\n      swap1\n      pop\n      jump\t// out\n        /* \"#utility.yul\":7772:7862   */\n    tag_164:\n        /* \"#utility.yul\":7806:7813   */\n      0x00\n        /* \"#utility.yul\":7849:7854   */\n      dup2\n        /* \"#utility.yul\":7842:7855   */\n      iszero\n        /* \"#utility.yul\":7835:7856   */\n      iszero\n        /* \"#utility.yul\":7824:7856   */\n      swap1\n      pop\n        /* \"#utility.yul\":7772:7862   */\n      swap2\n      swap1\n      pop\n      jump\t// out\n        /* \"#utility.yul\":7868:7994   */\n    tag_224:\n        /* \"#utility.yul\":7905:7912   */\n      0x00\n        /* \"#utility.yul\":7945:7987   */\n      0xffffffffffffffffffffffffffffffffffffffff\n        /* \"#utility.yul\":7938:7943   */\n      dup3\n        /* \"#utility.yul\":7934:7988   */\n      and\n        /* \"#utility.yul\":7923:7988   */\n      swap1\n      pop\n        /* \"#utility.yul\":7868:7994   */\n      swap2\n      swap1\n      pop\n      jump\t// out\n        /* \"#utility.yul\":8000:8077   */\n    tag_188:\n        /* \"#utility.yul\":8037:8044   */\n      0x00\n        /* \"#utility.yul\":8066:8071   */\n      dup2\n        /* \"#utility.yul\":8055:8071   */\n      swap1\n      pop\n        /* \"#utility.yul\":8000:8077   */\n      swap2\n      swap1\n      pop\n      jump\t// out\n        /* \"#utility.yul\":8083:8237   */\n    tag_116:\n        /* \"#utility.yul\":8167:8173   */\n      dup3\n        /* \"#utility.yul\":8162:8165   */\n      dup2\n        /* \"#utility.yul\":8157:8160   */\n      dup4\n        /* \"#utility.yul\":8144:8174   */\n      calldatacopy\n        /* \"#utility.yul\":8229:8230   */\n      0x00\n        /* \"#utility.yul\":8220:8226   */\n      dup4\n        /* \"#utility.yul\":8215:8218   */\n      dup4\n        /* \"#utility.yul\":8211:8227   */\n      add\n        /* \"#utility.yul\":8204:8231   */\n      mstore\n        /* \"#utility.yul\":8083:8237   */\n      pop\n      pop\n      pop\n      jump\t// out\n        /* \"#utility.yul\":8243:8550   */\n    tag_172:\n        /* \"#utility.yul\":8311:8312   */\n      0x00\n        /* \"#utility.yul\":8321:8434   */\n    tag_232:\n        /* \"#utility.yul\":8335:8341   */\n      dup4\n        /* \"#utility.yul\":8332:8333   */\n      dup2\n        /* \"#utility.yul\":8329:8342   */\n      lt\n        /* \"#utility.yul\":8321:8434   */\n      iszero\n      tag_234\n      jumpi\n        /* \"#utility.yul\":8420:8421   */\n      dup1\n        /* \"#utility.yul\":8415:8418   */\n      dup3\n        /* \"#utility.yul\":8411:8422   */\n      add\n        /* \"#utility.yul\":8405:8423   */\n      mload\n        /* \"#utility.yul\":8401:8402   */\n      dup2\n        /* \"#utility.yul\":8396:8399   */\n      dup5\n        /* \"#utility.yul\":8392:8403   */\n      add\n        /* \"#utility.yul\":8385:8424   */\n      mstore\n        /* \"#utility.yul\":8357:8359   */\n      0x20\n        /* \"#utility.yul\":8354:8355   */\n      dup2\n        /* \"#utility.yul\":8350:8360   */\n      add\n        /* \"#utility.yul\":8345:8360   */\n      swap1\n      pop\n        /* \"#utility.yul\":8321:8434   */\n      jump(tag_232)\n    tag_234:\n        /* \"#utility.yul\":8452:8458   */\n      dup4\n        /* \"#utility.yul\":8449:8450   */\n      dup2\n        /* \"#utility.yul\":8446:8459   */\n      gt\n        /* \"#utility.yul\":8443:8544   */\n      iszero\n      tag_235\n      jumpi\n        /* \"#utility.yul\":8532:8533   */\n      0x00\n        /* \"#utility.yul\":8523:8529   */\n      dup5\n        /* \"#utility.yul\":8518:8521   */\n      dup5\n        /* \"#utility.yul\":8514:8530   */\n      add\n        /* \"#utility.yul\":8507:8534   */\n      mstore\n        /* \"#utility.yul\":8443:8544   */\n    tag_235:\n        /* \"#utility.yul\":8292:8550   */\n      pop\n        /* \"#utility.yul\":8243:8550   */\n      pop\n      pop\n      pop\n      jump\t// out\n        /* \"#utility.yul\":8556:8876   */\n    tag_94:\n        /* \"#utility.yul\":8600:8606   */\n      0x00\n        /* \"#utility.yul\":8637:8638   */\n      0x02\n        /* \"#utility.yul\":8631:8635   */\n      dup3\n        /* \"#utility.yul\":8627:8639   */\n      div\n        /* \"#utility.yul\":8617:8639   */\n      swap1\n      pop\n        /* \"#utility.yul\":8684:8685   */\n      0x01\n        /* \"#utility.yul\":8678:8682   */\n      dup3\n        /* \"#utility.yul\":8674:8686   */\n      and\n        /* \"#utility.yul\":8705:8723   */\n      dup1\n        /* \"#utility.yul\":8695:8776   */\n      tag_237\n      jumpi\n        /* \"#utility.yul\":8761:8765   */\n      0x7f\n        /* \"#utility.yul\":8753:8759   */\n      dup3\n        /* \"#utility.yul\":8749:8766   */\n      and\n        /* \"#utility.yul\":8739:8766   */\n      swap2\n      pop\n        /* \"#utility.yul\":8695:8776   */\n    tag_237:\n        /* \"#utility.yul\":8823:8825   */\n      0x20\n        /* \"#utility.yul\":8815:8821   */\n      dup3\n        /* \"#utility.yul\":8812:8826   */\n      lt\n        /* \"#utility.yul\":8792:8810   */\n      dup2\n        /* \"#utility.yul\":8789:8827   */\n      eq\n        /* \"#utility.yul\":8786:8870   */\n      iszero\n      tag_238\n      jumpi\n        /* \"#utility.yul\":8842:8860   */\n      tag_239\n      tag_240\n      jump\t// in\n    tag_239:\n        /* \"#utility.yul\":8786:8870   */\n    tag_238:\n        /* \"#utility.yul\":8607:8876   */\n      pop\n        /* \"#utility.yul\":8556:8876   */\n      swap2\n      swap1\n      pop\n      jump\t// out\n        /* \"#utility.yul\":8882:9163   */\n    tag_207:\n        /* \"#utility.yul\":8965:8992   */\n      tag_242\n        /* \"#utility.yul\":8987:8991   */\n      dup3\n        /* \"#utility.yul\":8965:8992   */\n      tag_174\n      jump\t// in\n    tag_242:\n        /* \"#utility.yul\":8957:8963   */\n      dup2\n        /* \"#utility.yul\":8953:8993   */\n      add\n        /* \"#utility.yul\":9095:9101   */\n      dup2\n        /* \"#utility.yul\":9083:9093   */\n      dup2\n        /* \"#utility.yul\":9080:9102   */\n      lt\n        /* \"#utility.yul\":9059:9077   */\n      0xffffffffffffffff\n        /* \"#utility.yul\":9047:9057   */\n      dup3\n        /* \"#utility.yul\":9044:9078   */\n      gt\n        /* \"#utility.yul\":9041:9103   */\n      or\n        /* \"#utility.yul\":9038:9126   */\n      iszero\n      tag_243\n      jumpi\n        /* \"#utility.yul\":9106:9124   */\n      tag_244\n      tag_212\n      jump\t// in\n    tag_244:\n        /* \"#utility.yul\":9038:9126   */\n    tag_243:\n        /* \"#utility.yul\":9146:9156   */\n      dup1\n        /* \"#utility.yul\":9142:9144   */\n      0x40\n        /* \"#utility.yul\":9135:9157   */\n      mstore\n        /* \"#utility.yul\":8925:9163   */\n      pop\n        /* \"#utility.yul\":8882:9163   */\n      pop\n      pop\n      jump\t// out\n        /* \"#utility.yul\":9169:9402   */\n    tag_87:\n        /* \"#utility.yul\":9208:9211   */\n      0x00\n        /* \"#utility.yul\":9231:9255   */\n      tag_246\n        /* \"#utility.yul\":9249:9254   */\n      dup3\n        /* \"#utility.yul\":9231:9255   */\n      tag_188\n      jump\t// in\n    tag_246:\n        /* \"#utility.yul\":9222:9255   */\n      swap2\n      pop\n        /* \"#utility.yul\":9277:9343   */\n      0xffffffffffffffffffffffffffffffffffffffffffffffffffffffffffffffff\n        /* \"#utility.yul\":9270:9275   */\n      dup3\n        /* \"#utility.yul\":9267:9344   */\n      eq\n        /* \"#utility.yul\":9264:9367   */\n      iszero\n      tag_247\n      jumpi\n        /* \"#utility.yul\":9347:9365   */\n      tag_248\n      tag_221\n      jump\t// in\n    tag_248:\n        /* \"#utility.yul\":9264:9367   */\n    tag_247:\n        /* \"#utility.yul\":9394:9395   */\n      0x01\n        /* \"#utility.yul\":9387:9392   */\n      dup3\n        /* \"#utility.yul\":9383:9396   */\n      add\n        /* \"#utility.yul\":9376:9396   */\n      swap1\n      pop\n        /* \"#utility.yul\":9169:9402   */\n      swap2\n      swap1\n      pop\n      jump\t// out\n        /* \"#utility.yul\":9408:9588   */\n    tag_221:\n        /* \"#utility.yul\":9456:9533   */\n      0x4e487b7100000000000000000000000000000000000000000000000000000000\n        /* \"#utility.yul\":9453:9454   */\n      0x00\n        /* \"#utility.yul\":9446:9534   */\n      mstore\n        /* \"#utility.yul\":9553:9557   */\n      0x11\n        /* \"#utility.yul\":9550:9551   */\n      0x04\n        /* \"#utility.yul\":9543:9558   */\n      mstore\n        /* \"#utility.yul\":9577:9581   */\n      0x24\n        /* \"#utility.yul\":9574:9575   */\n      0x00\n        /* \"#utility.yul\":9567:9582   */\n      revert\n        /* \"#utility.yul\":9594:9774   */\n    tag_240:\n        /* \"#utility.yul\":9642:9719   */\n      0x4e487b7100000000000000000000000000000000000000000000000000000000\n        /* \"#utility.yul\":9639:9640   */\n      0x00\n        /* \"#utility.yul\":9632:9720   */\n      mstore\n        /* \"#utility.yul\":9739:9743   */\n      0x22\n        /* \"#utility.yul\":9736:9737   */\n      0x04\n        /* \"#utility.yul\":9729:9744   */\n      mstore\n        /* \"#utility.yul\":9763:9767   */\n      0x24\n        /* \"#utility.yul\":9760:9761   */\n      0x00\n        /* \"#utility.yul\":9753:9768   */\n      revert\n        /* \"#utility.yul\":9780:9960   */\n    tag_212:\n        /* \"#utility.yul\":9828:9905   */\n      0x4e487b7100000000000000000000000000000000000000000000000000000000\n        /* \"#utility.yul\":9825:9826   */\n      0x00\n        /* \"#utility.yul\":9818:9906   */\n      mstore\n        /* \"#utility.yul\":9925:9929   */\n      0x41\n        /* \"#utility.yul\":9922:9923   */\n      0x04\n        /* \"#utility.yul\":9915:9930   */\n      mstore\n        /* \"#utility.yul\":9949:9953   */\n      0x24\n        /* \"#utility.yul\":9946:9947   */\n      0x00\n        /* \"#utility.yul\":9939:9954   */\n      revert\n        /* \"#utility.yul\":9966:10083   */\n    tag_129:\n        /* \"#utility.yul\":10075:10076   */\n      0x00\n        /* \"#utility.yul\":10072:10073   */\n      dup1\n        /* \"#utility.yul\":10065:10077   */\n      revert\n        /* \"#utility.yul\":10089:10206   */\n    tag_114:\n        /* \"#utility.yul\":10198:10199   */\n      0x00\n        /* \"#utility.yul\":10195:10196   */\n      dup1\n        /* \"#utility.yul\":10188:10200   */\n      revert\n        /* \"#utility.yul\":10212:10329   */\n    tag_145:\n        /* \"#utility.yul\":10321:10322   */\n      0x00\n        /* \"#utility.yul\":10318:10319   */\n      dup1\n        /* \"#utility.yul\":10311:10323   */\n      revert\n        /* \"#utility.yul\":10335:10452   */\n    tag_138:\n        /* \"#utility.yul\":10444:10445   */\n      0x00\n        /* \"#utility.yul\":10441:10442   */\n      dup1\n        /* \"#utility.yul\":10434:10446   */\n      revert\n        /* \"#utility.yul\":10458:10560   */\n    tag_174:\n        /* \"#utility.yul\":10499:10505   */\n      0x00\n        /* \"#utility.yul\":10550:10552   */\n      0x1f\n        /* \"#utility.yul\":10546:10553   */\n      not\n        /* \"#utility.yul\":10541:10543   */\n      0x1f\n        /* \"#utility.yul\":10534:10539   */\n      dup4\n        /* \"#utility.yul\":10530:10544   */\n      add\n        /* \"#utility.yul\":10526:10554   */\n      and\n        /* \"#utility.yul\":10516:10554   */\n      swap1\n      pop\n        /* \"#utility.yul\":10458:10560   */\n      swap2\n      swap1\n      pop\n      jump\t// out\n        /* \"#utility.yul\":10566:10736   */\n    tag_179:\n        /* \"#utility.yul\":10706:10728   */\n      0x446561646c696e6520686173207061737365642e000000000000000000000000\n        /* \"#utility.yul\":10702:10703   */\n      0x00\n        /* \"#utility.yul\":10694:10700   */\n      dup3\n        /* \"#utility.yul\":10690:10704   */\n      add\n        /* \"#utility.yul\":10683:10729   */\n      mstore\n        /* \"#utility.yul\":10566:10736   */\n      pop\n      jump\t// out\n        /* \"#utility.yul\":10742:10921   */\n    tag_184:\n        /* \"#utility.yul\":10882:10913   */\n      0x4d696e696d756d20636f6e747269627574696f6e206e6f74206d65742e000000\n        /* \"#utility.yul\":10878:10879   */\n      0x00\n        /* \"#utility.yul\":10870:10876   */\n      dup3\n        /* \"#utility.yul\":10866:10880   */\n      add\n        /* \"#utility.yul\":10859:10914   */\n      mstore\n        /* \"#utility.yul\":10742:10921   */\n      pop\n      jump\t// out\n        /* \"#utility.yul\":10927:11049   */\n    tag_120:\n        /* \"#utility.yul\":11000:11024   */\n      tag_260\n        /* \"#utility.yul\":11018:11023   */\n      dup2\n        /* \"#utility.yul\":11000:11024   */\n      tag_160\n      jump\t// in\n    tag_260:\n        /* \"#utility.yul\":10993:10998   */\n      dup2\n        /* \"#utility.yul\":10990:11025   */\n      eq\n        /* \"#utility.yul\":10980:11043   */\n      tag_261\n      jumpi\n        /* \"#utility.yul\":11039:11040   */\n      0x00\n        /* \"#utility.yul\":11036:11037   */\n      dup1\n        /* \"#utility.yul\":11029:11041   */\n      revert\n        /* \"#utility.yul\":10980:11043   */\n    tag_261:\n        /* \"#utility.yul\":10927:11049   */\n      pop\n      jump\t// out\n        /* \"#utility.yul\":11055:11193   */\n    tag_124:\n        /* \"#utility.yul\":11136:11168   */\n      tag_263\n        /* \"#utility.yul\":11162:11167   */\n      dup2\n        /* \"#utility.yul\":11136:11168   */\n      tag_156\n      jump\t// in\n    tag_263:\n        /* \"#utility.yul\":11129:11134   */\n      dup2\n        /* \"#utility.yul\":11126:11169   */\n      eq\n        /* \"#utility.yul\":11116:11187   */\n      tag_264\n      jumpi\n        /* \"#utility.yul\":11183:11184   */\n      0x00\n        /* \"#utility.yul\":11180:11181   */\n      dup1\n        /* \"#utility.yul\":11173:11185   */\n      revert\n        /* \"#utility.yul\":11116:11187   */\n    tag_264:\n        /* \"#utility.yul\":11055:11193   */\n      pop\n      jump\t// out\n        /* \"#utility.yul\":11199:11321   */\n    tag_134:\n        /* \"#utility.yul\":11272:11296   */\n      tag_266\n        /* \"#utility.yul\":11290:11295   */\n      dup2\n        /* \"#utility.yul\":11272:11296   */\n      tag_188\n      jump\t// in\n    tag_266:\n        /* \"#utility.yul\":11265:11270   */\n      dup2\n        /* \"#utility.yul\":11262:11297   */\n      eq\n        /* \"#utility.yul\":11252:11315   */\n      tag_267\n      jumpi\n        /* \"#utility.yul\":11311:11312   */\n      0x00\n        /* \"#utility.yul\":11308:11309   */\n      dup1\n        /* \"#utility.yul\":11301:11313   */\n      revert\n        /* \"#utility.yul\":11252:11315   */\n    tag_267:\n        /* \"#utility.yul\":11199:11321   */\n      pop\n      jump\t// out\n\n    auxdata: 0xa2646970667358221220b7a4eafbf4b67d50c2dc76e209a3f5f25bbafed42ca07e9b17ca0d39ea82c05764736f6c63430008070033\n}\n",
				"bytecode": {
					"linkReferences": {},
					"object": "60806040523480156200001157600080fd5b5060405162000f4438038062000f448339818101604052810190620000379190620000ba565b8160058190555080426200004c919062000101565b600481905550606460038190555033600160006101000a81548173ffffffffffffffffffffffffffffffffffffffff021916908373ffffffffffffffffffffffffffffffffffffffff1602179055505050620001b6565b600081519050620000b4816200019c565b92915050565b60008060408385031215620000d457620000d362000197565b5b6000620000e485828601620000a3565b9250506020620000f785828601620000a3565b9150509250929050565b60006200010e826200015e565b91506200011b836200015e565b9250827fffffffffffffffffffffffffffffffffffffffffffffffffffffffffffffffff0382111562000153576200015262000168565b5b828201905092915050565b6000819050919050565b7f4e487b7100000000000000000000000000000000000000000000000000000000600052601160045260246000fd5b600080fd5b620001a7816200015e565b8114620001b357600080fd5b50565b610d7e80620001c66000396000f3fe6080604052600436106100c65760003560e01c8063937e09b11161007f578063d3a9d4ea11610059578063d3a9d4ea1461026f578063d7bb99ba1461029a578063f3740daf146102a4578063f851a440146102cf576100d5565b8063937e09b114610202578063b2d5ae441461022d578063c59ee1dc14610244576100d5565b806312065fe0146100da5780631b16bb5c146101055780631f6d49421461012e57806329dcb0cf1461016b578063401938831461019657806381d12c58146101c1576100d5565b366100d5576100d36102fa565b005b600080fd5b3480156100e657600080fd5b506100ef610453565b6040516100fc91906109d4565b60405180910390f35b34801561011157600080fd5b5061012c600480360381019061012791906107c8565b61045b565b005b34801561013a57600080fd5b506101556004803603810190610150919061079b565b610460565b60405161016291906109d4565b60405180910390f35b34801561017757600080fd5b50610180610478565b60405161018d91906109d4565b60405180910390f35b3480156101a257600080fd5b506101ab61047e565b6040516101b891906109d4565b60405180910390f35b3480156101cd57600080fd5b506101e860048036038101906101e39190610837565b610484565b6040516101f995949392919061093a565b60405180910390f35b34801561020e57600080fd5b5061021761056f565b60405161022491906109d4565b60405180910390f35b34801561023957600080fd5b50610242610575565b005b34801561025057600080fd5b506102596106b4565b60405161026691906109d4565b60405180910390f35b34801561027b57600080fd5b506102846106ba565b60405161029191906109d4565b60405180910390f35b6102a26102fa565b005b3480156102b057600080fd5b506102b96106c0565b6040516102c691906109d4565b60405180910390f35b3480156102db57600080fd5b506102e46106c6565b6040516102f1919061091f565b60405180910390f35b600454421061033e576040517f08c379a000000000000000000000000000000000000000000000000000000000815260040161033590610994565b60405180910390fd5b600354341015610383576040517f08c379a000000000000000000000000000000000000000000000000000000000815260040161037a906109b4565b60405180910390fd5b60008060003373ffffffffffffffffffffffffffffffffffffffff1673ffffffffffffffffffffffffffffffffffffffff1681526020019081526020016000205414156103e357600260008154809291906103dd90610bb6565b91905055505b346000803373ffffffffffffffffffffffffffffffffffffffff1673ffffffffffffffffffffffffffffffffffffffff16815260200190815260200160002060008282546104319190610a61565b92505081905550346006600082825461044a9190610a61565b92505081905550565b600047905090565b505050565b60006020528060005260406000206000915090505481565b60045481565b60055481565b60076020528060005260406000206000915090508060000180546104a790610b53565b80601f01602080910402602001604051908101604052809291908181526020018280546104d390610b53565b80156105205780601f106104f557610100808354040283529160200191610520565b820191906000526020600020905b81548152906001019060200180831161050357829003601f168201915b5050505050908060010160009054906101000a900473ffffffffffffffffffffffffffffffffffffffff16908060020154908060030160009054906101000a900460ff16908060040154905085565b60035481565b600454421180156105895750600554600654105b61059257600080fd5b60008060003373ffffffffffffffffffffffffffffffffffffffff1673ffffffffffffffffffffffffffffffffffffffff16815260200190815260200160002054116105dd57600080fd5b600033905060008060003373ffffffffffffffffffffffffffffffffffffffff1673ffffffffffffffffffffffffffffffffffffffff1681526020019081526020016000205490508173ffffffffffffffffffffffffffffffffffffffff166108fc829081150290604051600060405180830381858888f1935050505015801561066b573d6000803e3d6000fd5b5060008060003373ffffffffffffffffffffffffffffffffffffffff1673ffffffffffffffffffffffffffffffffffffffff168152602001908152602001600020819055505050565b60065481565b60085481565b60025481565b600160009054906101000a900473ffffffffffffffffffffffffffffffffffffffff1681565b60006106ff6106fa84610a14565b6109ef565b90508281526020810184848401111561071b5761071a610c91565b5b610726848285610b11565b509392505050565b60008135905061073d81610d03565b92915050565b60008135905061075281610d1a565b92915050565b600082601f83011261076d5761076c610c8c565b5b813561077d8482602086016106ec565b91505092915050565b60008135905061079581610d31565b92915050565b6000602082840312156107b1576107b0610c9b565b5b60006107bf8482850161072e565b91505092915050565b6000806000606084860312156107e1576107e0610c9b565b5b600084013567ffffffffffffffff8111156107ff576107fe610c96565b5b61080b86828701610758565b935050602061081c86828701610743565b925050604061082d86828701610786565b9150509250925092565b60006020828403121561084d5761084c610c9b565b5b600061085b84828501610786565b91505092915050565b61086d81610ac9565b82525050565b61087c81610ab7565b82525050565b61088b81610adb565b82525050565b600061089c82610a45565b6108a68185610a50565b93506108b6818560208601610b20565b6108bf81610ca0565b840191505092915050565b60006108d7601483610a50565b91506108e282610cb1565b602082019050919050565b60006108fa601d83610a50565b915061090582610cda565b602082019050919050565b61091981610b07565b82525050565b60006020820190506109346000830184610873565b92915050565b600060a08201905081810360008301526109548188610891565b90506109636020830187610864565b6109706040830186610910565b61097d6060830185610882565b61098a6080830184610910565b9695505050505050565b600060208201905081810360008301526109ad816108ca565b9050919050565b600060208201905081810360008301526109cd816108ed565b9050919050565b60006020820190506109e96000830184610910565b92915050565b60006109f9610a0a565b9050610a058282610b85565b919050565b6000604051905090565b600067ffffffffffffffff821115610a2f57610a2e610c5d565b5b610a3882610ca0565b9050602081019050919050565b600081519050919050565b600082825260208201905092915050565b6000610a6c82610b07565b9150610a7783610b07565b9250827fffffffffffffffffffffffffffffffffffffffffffffffffffffffffffffffff03821115610aac57610aab610bff565b5b828201905092915050565b6000610ac282610ae7565b9050919050565b6000610ad482610ae7565b9050919050565b60008115159050919050565b600073ffffffffffffffffffffffffffffffffffffffff82169050919050565b6000819050919050565b82818337600083830152505050565b60005b83811015610b3e578082015181840152602081019050610b23565b83811115610b4d576000848401525b50505050565b60006002820490506001821680610b6b57607f821691505b60208210811415610b7f57610b7e610c2e565b5b50919050565b610b8e82610ca0565b810181811067ffffffffffffffff82111715610bad57610bac610c5d565b5b80604052505050565b6000610bc182610b07565b91507fffffffffffffffffffffffffffffffffffffffffffffffffffffffffffffffff821415610bf457610bf3610bff565b5b600182019050919050565b7f4e487b7100000000000000000000000000000000000000000000000000000000600052601160045260246000fd5b7f4e487b7100000000000000000000000000000000000000000000000000000000600052602260045260246000fd5b7f4e487b7100000000000000000000000000000000000000000000000000000000600052604160045260246000fd5b600080fd5b600080fd5b600080fd5b600080fd5b6000601f19601f8301169050919050565b7f446561646c696e6520686173207061737365642e000000000000000000000000600082015250565b7f4d696e696d756d20636f6e747269627574696f6e206e6f74206d65742e000000600082015250565b610d0c81610ab7565b8114610d1757600080fd5b50565b610d2381610ac9565b8114610d2e57600080fd5b50565b610d3a81610b07565b8114610d4557600080fd5b5056fea2646970667358221220b7a4eafbf4b67d50c2dc76e209a3f5f25bbafed42ca07e9b17ca0d39ea82c05764736f6c63430008070033",
					"opcodes": "PUSH1 0x80 PUSH1 0x40 MSTORE CALLVALUE DUP1 ISZERO PUSH3 0x11 JUMPI PUSH1 0x0 DUP1 REVERT JUMPDEST POP PUSH1 0x40 MLOAD PUSH3 0xF44 CODESIZE SUB DUP1 PUSH3 0xF44 DUP4 CODECOPY DUP2 DUP2 ADD PUSH1 0x40 MSTORE DUP2 ADD SWAP1 PUSH3 0x37 SWAP2 SWAP1 PUSH3 0xBA JUMP JUMPDEST DUP2 PUSH1 0x5 DUP2 SWAP1 SSTORE POP DUP1 TIMESTAMP PUSH3 0x4C SWAP2 SWAP1 PUSH3 0x101 JUMP JUMPDEST PUSH1 0x4 DUP2 SWAP1 SSTORE POP PUSH1 0x64 PUSH1 0x3 DUP2 SWAP1 SSTORE POP CALLER PUSH1 0x1 PUSH1 0x0 PUSH2 0x100 EXP DUP2 SLOAD DUP2 PUSH20 0xFFFFFFFFFFFFFFFFFFFFFFFFFFFFFFFFFFFFFFFF MUL NOT AND SWAP1 DUP4 PUSH20 0xFFFFFFFFFFFFFFFFFFFFFFFFFFFFFFFFFFFFFFFF AND MUL OR SWAP1 SSTORE POP POP POP PUSH3 0x1B6 JUMP JUMPDEST PUSH1 0x0 DUP2 MLOAD SWAP1 POP PUSH3 0xB4 DUP2 PUSH3 0x19C JUMP JUMPDEST SWAP3 SWAP2 POP POP JUMP JUMPDEST PUSH1 0x0 DUP1 PUSH1 0x40 DUP4 DUP6 SUB SLT ISZERO PUSH3 0xD4 JUMPI PUSH3 0xD3 PUSH3 0x197 JUMP JUMPDEST JUMPDEST PUSH1 0x0 PUSH3 0xE4 DUP6 DUP3 DUP7 ADD PUSH3 0xA3 JUMP JUMPDEST SWAP3 POP POP PUSH1 0x20 PUSH3 0xF7 DUP6 DUP3 DUP7 ADD PUSH3 0xA3 JUMP JUMPDEST SWAP2 POP POP SWAP3 POP SWAP3 SWAP1 POP JUMP JUMPDEST PUSH1 0x0 PUSH3 0x10E DUP3 PUSH3 0x15E JUMP JUMPDEST SWAP2 POP PUSH3 0x11B DUP4 PUSH3 0x15E JUMP JUMPDEST SWAP3 POP DUP3 PUSH32 0xFFFFFFFFFFFFFFFFFFFFFFFFFFFFFFFFFFFFFFFFFFFFFFFFFFFFFFFFFFFFFFFF SUB DUP3 GT ISZERO PUSH3 0x153 JUMPI PUSH3 0x152 PUSH3 0x168 JUMP JUMPDEST JUMPDEST DUP3 DUP3 ADD SWAP1 POP SWAP3 SWAP2 POP POP JUMP JUMPDEST PUSH1 0x0 DUP2 SWAP1 POP SWAP2 SWAP1 POP JUMP JUMPDEST PUSH32 0x4E487B7100000000000000000000000000000000000000000000000000000000 PUSH1 0x0 MSTORE PUSH1 0x11 PUSH1 0x4 MSTORE PUSH1 0x24 PUSH1 0x0 REVERT JUMPDEST PUSH1 0x0 DUP1 REVERT JUMPDEST PUSH3 0x1A7 DUP2 PUSH3 0x15E JUMP JUMPDEST DUP2 EQ PUSH3 0x1B3 JUMPI PUSH1 0x0 DUP1 REVERT JUMPDEST POP JUMP JUMPDEST PUSH2 0xD7E DUP1 PUSH3 0x1C6 PUSH1 0x0 CODECOPY PUSH1 0x0 RETURN INVALID PUSH1 0x80 PUSH1 0x40 MSTORE PUSH1 0x4 CALLDATASIZE LT PUSH2 0xC6 JUMPI PUSH1 0x0 CALLDATALOAD PUSH1 0xE0 SHR DUP1 PUSH4 0x937E09B1 GT PUSH2 0x7F JUMPI DUP1 PUSH4 0xD3A9D4EA GT PUSH2 0x59 JUMPI DUP1 PUSH4 0xD3A9D4EA EQ PUSH2 0x26F JUMPI DUP1 PUSH4 0xD7BB99BA EQ PUSH2 0x29A JUMPI DUP1 PUSH4 0xF3740DAF EQ PUSH2 0x2A4 JUMPI DUP1 PUSH4 0xF851A440 EQ PUSH2 0x2CF JUMPI PUSH2 0xD5 JUMP JUMPDEST DUP1 PUSH4 0x937E09B1 EQ PUSH2 0x202 JUMPI DUP1 PUSH4 0xB2D5AE44 EQ PUSH2 0x22D JUMPI DUP1 PUSH4 0xC59EE1DC EQ PUSH2 0x244 JUMPI PUSH2 0xD5 JUMP JUMPDEST DUP1 PUSH4 0x12065FE0 EQ PUSH2 0xDA JUMPI DUP1 PUSH4 0x1B16BB5C EQ PUSH2 0x105 JUMPI DUP1 PUSH4 0x1F6D4942 EQ PUSH2 0x12E JUMPI DUP1 PUSH4 0x29DCB0CF EQ PUSH2 0x16B JUMPI DUP1 PUSH4 0x40193883 EQ PUSH2 0x196 JUMPI DUP1 PUSH4 0x81D12C58 EQ PUSH2 0x1C1 JUMPI PUSH2 0xD5 JUMP JUMPDEST CALLDATASIZE PUSH2 0xD5 JUMPI PUSH2 0xD3 PUSH2 0x2FA JUMP JUMPDEST STOP JUMPDEST PUSH1 0x0 DUP1 REVERT JUMPDEST CALLVALUE DUP1 ISZERO PUSH2 0xE6 JUMPI PUSH1 0x0 DUP1 REVERT JUMPDEST POP PUSH2 0xEF PUSH2 0x453 JUMP JUMPDEST PUSH1 0x40 MLOAD PUSH2 0xFC SWAP2 SWAP1 PUSH2 0x9D4 JUMP JUMPDEST PUSH1 0x40 MLOAD DUP1 SWAP2 SUB SWAP1 RETURN JUMPDEST CALLVALUE DUP1 ISZERO PUSH2 0x111 JUMPI PUSH1 0x0 DUP1 REVERT JUMPDEST POP PUSH2 0x12C PUSH1 0x4 DUP1 CALLDATASIZE SUB DUP2 ADD SWAP1 PUSH2 0x127 SWAP2 SWAP1 PUSH2 0x7C8 JUMP JUMPDEST PUSH2 0x45B JUMP JUMPDEST STOP JUMPDEST CALLVALUE DUP1 ISZERO PUSH2 0x13A JUMPI PUSH1 0x0 DUP1 REVERT JUMPDEST POP PUSH2 0x155 PUSH1 0x4 DUP1 CALLDATASIZE SUB DUP2 ADD SWAP1 PUSH2 0x150 SWAP2 SWAP1 PUSH2 0x79B JUMP JUMPDEST PUSH2 0x460 JUMP JUMPDEST PUSH1 0x40 MLOAD PUSH2 0x162 SWAP2 SWAP1 PUSH2 0x9D4 JUMP JUMPDEST PUSH1 0x40 MLOAD DUP1 SWAP2 SUB SWAP1 RETURN JUMPDEST CALLVALUE DUP1 ISZERO PUSH2 0x177 JUMPI PUSH1 0x0 DUP1 REVERT JUMPDEST POP PUSH2 0x180 PUSH2 0x478 JUMP JUMPDEST PUSH1 0x40 MLOAD PUSH2 0x18D SWAP2 SWAP1 PUSH2 0x9D4 JUMP JUMPDEST PUSH1 0x40 MLOAD DUP1 SWAP2 SUB SWAP1 RETURN JUMPDEST CALLVALUE DUP1 ISZERO PUSH2 0x1A2 JUMPI PUSH1 0x0 DUP1 REVERT JUMPDEST POP PUSH2 0x1AB PUSH2 0x47E JUMP JUMPDEST PUSH1 0x40 MLOAD PUSH2 0x1B8 SWAP2 SWAP1 PUSH2 0x9D4 JUMP JUMPDEST PUSH1 0x40 MLOAD DUP1 SWAP2 SUB SWAP1 RETURN JUMPDEST CALLVALUE DUP1 ISZERO PUSH2 0x1CD JUMPI PUSH1 0x0 DUP1 REVERT JUMPDEST POP PUSH2 0x1E8 PUSH1 0x4 DUP1 CALLDATASIZE SUB DUP2 ADD SWAP1 PUSH2 0x1E3 SWAP2 SWAP1 PUSH2 0x837 JUMP JUMPDEST PUSH2 0x484 JUMP JUMPDEST PUSH1 0x40 MLOAD PUSH2 0x1F9 SWAP6 SWAP5 SWAP4 SWAP3 SWAP2 SWAP1 PUSH2 0x93A JUMP JUMPDEST PUSH1 0x40 MLOAD DUP1 SWAP2 SUB SWAP1 RETURN JUMPDEST CALLVALUE DUP1 ISZERO PUSH2 0x20E JUMPI PUSH1 0x0 DUP1 REVERT JUMPDEST POP PUSH2 0x217 PUSH2 0x56F JUMP JUMPDEST PUSH1 0x40 MLOAD PUSH2 0x224 SWAP2 SWAP1 PUSH2 0x9D4 JUMP JUMPDEST PUSH1 0x40 MLOAD DUP1 SWAP2 SUB SWAP1 RETURN JUMPDEST CALLVALUE DUP1 ISZERO PUSH2 0x239 JUMPI PUSH1 0x0 DUP1 REVERT JUMPDEST POP PUSH2 0x242 PUSH2 0x575 JUMP JUMPDEST STOP JUMPDEST CALLVALUE DUP1 ISZERO PUSH2 0x250 JUMPI PUSH1 0x0 DUP1 REVERT JUMPDEST POP PUSH2 0x259 PUSH2 0x6B4 JUMP JUMPDEST PUSH1 0x40 MLOAD PUSH2 0x266 SWAP2 SWAP1 PUSH2 0x9D4 JUMP JUMPDEST PUSH1 0x40 MLOAD DUP1 SWAP2 SUB SWAP1 RETURN JUMPDEST CALLVALUE DUP1 ISZERO PUSH2 0x27B JUMPI PUSH1 0x0 DUP1 REVERT JUMPDEST POP PUSH2 0x284 PUSH2 0x6BA JUMP JUMPDEST PUSH1 0x40 MLOAD PUSH2 0x291 SWAP2 SWAP1 PUSH2 0x9D4 JUMP JUMPDEST PUSH1 0x40 MLOAD DUP1 SWAP2 SUB SWAP1 RETURN JUMPDEST PUSH2 0x2A2 PUSH2 0x2FA JUMP JUMPDEST STOP JUMPDEST CALLVALUE DUP1 ISZERO PUSH2 0x2B0 JUMPI PUSH1 0x0 DUP1 REVERT JUMPDEST POP PUSH2 0x2B9 PUSH2 0x6C0 JUMP JUMPDEST PUSH1 0x40 MLOAD PUSH2 0x2C6 SWAP2 SWAP1 PUSH2 0x9D4 JUMP JUMPDEST PUSH1 0x40 MLOAD DUP1 SWAP2 SUB SWAP1 RETURN JUMPDEST CALLVALUE DUP1 ISZERO PUSH2 0x2DB JUMPI PUSH1 0x0 DUP1 REVERT JUMPDEST POP PUSH2 0x2E4 PUSH2 0x6C6 JUMP JUMPDEST PUSH1 0x40 MLOAD PUSH2 0x2F1 SWAP2 SWAP1 PUSH2 0x91F JUMP JUMPDEST PUSH1 0x40 MLOAD DUP1 SWAP2 SUB SWAP1 RETURN JUMPDEST PUSH1 0x4 SLOAD TIMESTAMP LT PUSH2 0x33E JUMPI PUSH1 0x40 MLOAD PUSH32 0x8C379A000000000000000000000000000000000000000000000000000000000 DUP2 MSTORE PUSH1 0x4 ADD PUSH2 0x335 SWAP1 PUSH2 0x994 JUMP JUMPDEST PUSH1 0x40 MLOAD DUP1 SWAP2 SUB SWAP1 REVERT JUMPDEST PUSH1 0x3 SLOAD CALLVALUE LT ISZERO PUSH2 0x383 JUMPI PUSH1 0x40 MLOAD PUSH32 0x8C379A000000000000000000000000000000000000000000000000000000000 DUP2 MSTORE PUSH1 0x4 ADD PUSH2 0x37A SWAP1 PUSH2 0x9B4 JUMP JUMPDEST PUSH1 0x40 MLOAD DUP1 SWAP2 SUB SWAP1 REVERT JUMPDEST PUSH1 0x0 DUP1 PUSH1 0x0 CALLER PUSH20 0xFFFFFFFFFFFFFFFFFFFFFFFFFFFFFFFFFFFFFFFF AND PUSH20 0xFFFFFFFFFFFFFFFFFFFFFFFFFFFFFFFFFFFFFFFF AND DUP2 MSTORE PUSH1 0x20 ADD SWAP1 DUP2 MSTORE PUSH1 0x20 ADD PUSH1 0x0 KECCAK256 SLOAD EQ ISZERO PUSH2 0x3E3 JUMPI PUSH1 0x2 PUSH1 0x0 DUP2 SLOAD DUP1 SWAP3 SWAP2 SWAP1 PUSH2 0x3DD SWAP1 PUSH2 0xBB6 JUMP JUMPDEST SWAP2 SWAP1 POP SSTORE POP JUMPDEST CALLVALUE PUSH1 0x0 DUP1 CALLER PUSH20 0xFFFFFFFFFFFFFFFFFFFFFFFFFFFFFFFFFFFFFFFF AND PUSH20 0xFFFFFFFFFFFFFFFFFFFFFFFFFFFFFFFFFFFFFFFF AND DUP2 MSTORE PUSH1 0x20 ADD SWAP1 DUP2 MSTORE PUSH1 0x20 ADD PUSH1 0x0 KECCAK256 PUSH1 0x0 DUP3 DUP3 SLOAD PUSH2 0x431 SWAP2 SWAP1 PUSH2 0xA61 JUMP JUMPDEST SWAP3 POP POP DUP2 SWAP1 SSTORE POP CALLVALUE PUSH1 0x6 PUSH1 0x0 DUP3 DUP3 SLOAD PUSH2 0x44A SWAP2 SWAP1 PUSH2 0xA61 JUMP JUMPDEST SWAP3 POP POP DUP2 SWAP1 SSTORE POP JUMP JUMPDEST PUSH1 0x0 SELFBALANCE SWAP1 POP SWAP1 JUMP JUMPDEST POP POP POP JUMP JUMPDEST PUSH1 0x0 PUSH1 0x20 MSTORE DUP1 PUSH1 0x0 MSTORE PUSH1 0x40 PUSH1 0x0 KECCAK256 PUSH1 0x0 SWAP2 POP SWAP1 POP SLOAD DUP2 JUMP JUMPDEST PUSH1 0x4 SLOAD DUP2 JUMP JUMPDEST PUSH1 0x5 SLOAD DUP2 JUMP JUMPDEST PUSH1 0x7 PUSH1 0x20 MSTORE DUP1 PUSH1 0x0 MSTORE PUSH1 0x40 PUSH1 0x0 KECCAK256 PUSH1 0x0 SWAP2 POP SWAP1 POP DUP1 PUSH1 0x0 ADD DUP1 SLOAD PUSH2 0x4A7 SWAP1 PUSH2 0xB53 JUMP JUMPDEST DUP1 PUSH1 0x1F ADD PUSH1 0x20 DUP1 SWAP2 DIV MUL PUSH1 0x20 ADD PUSH1 0x40 MLOAD SWAP1 DUP2 ADD PUSH1 0x40 MSTORE DUP1 SWAP3 SWAP2 SWAP1 DUP2 DUP2 MSTORE PUSH1 0x20 ADD DUP3 DUP1 SLOAD PUSH2 0x4D3 SWAP1 PUSH2 0xB53 JUMP JUMPDEST DUP1 ISZERO PUSH2 0x520 JUMPI DUP1 PUSH1 0x1F LT PUSH2 0x4F5 JUMPI PUSH2 0x100 DUP1 DUP4 SLOAD DIV MUL DUP4 MSTORE SWAP2 PUSH1 0x20 ADD SWAP2 PUSH2 0x520 JUMP JUMPDEST DUP3 ADD SWAP2 SWAP1 PUSH1 0x0 MSTORE PUSH1 0x20 PUSH1 0x0 KECCAK256 SWAP1 JUMPDEST DUP2 SLOAD DUP2 MSTORE SWAP1 PUSH1 0x1 ADD SWAP1 PUSH1 0x20 ADD DUP1 DUP4 GT PUSH2 0x503 JUMPI DUP3 SWAP1 SUB PUSH1 0x1F AND DUP3 ADD SWAP2 JUMPDEST POP POP POP POP POP SWAP1 DUP1 PUSH1 0x1 ADD PUSH1 0x0 SWAP1 SLOAD SWAP1 PUSH2 0x100 EXP SWAP1 DIV PUSH20 0xFFFFFFFFFFFFFFFFFFFFFFFFFFFFFFFFFFFFFFFF AND SWAP1 DUP1 PUSH1 0x2 ADD SLOAD SWAP1 DUP1 PUSH1 0x3 ADD PUSH1 0x0 SWAP1 SLOAD SWAP1 PUSH2 0x100 EXP SWAP1 DIV PUSH1 0xFF AND SWAP1 DUP1 PUSH1 0x4 ADD SLOAD SWAP1 POP DUP6 JUMP JUMPDEST PUSH1 0x3 SLOAD DUP2 JUMP JUMPDEST PUSH1 0x4 SLOAD TIMESTAMP GT DUP1 ISZERO PUSH2 0x589 JUMPI POP PUSH1 0x5 SLOAD PUSH1 0x6 SLOAD LT JUMPDEST PUSH2 0x592 JUMPI PUSH1 0x0 DUP1 REVERT JUMPDEST PUSH1 0x0 DUP1 PUSH1 0x0 CALLER PUSH20 0xFFFFFFFFFFFFFFFFFFFFFFFFFFFFFFFFFFFFFFFF AND PUSH20 0xFFFFFFFFFFFFFFFFFFFFFFFFFFFFFFFFFFFFFFFF AND DUP2 MSTORE PUSH1 0x20 ADD SWAP1 DUP2 MSTORE PUSH1 0x20 ADD PUSH1 0x0 KECCAK256 SLOAD GT PUSH2 0x5DD JUMPI PUSH1 0x0 DUP1 REVERT JUMPDEST PUSH1 0x0 CALLER SWAP1 POP PUSH1 0x0 DUP1 PUSH1 0x0 CALLER PUSH20 0xFFFFFFFFFFFFFFFFFFFFFFFFFFFFFFFFFFFFFFFF AND PUSH20 0xFFFFFFFFFFFFFFFFFFFFFFFFFFFFFFFFFFFFFFFF AND DUP2 MSTORE PUSH1 0x20 ADD SWAP1 DUP2 MSTORE PUSH1 0x20 ADD PUSH1 0x0 KECCAK256 SLOAD SWAP1 POP DUP2 PUSH20 0xFFFFFFFFFFFFFFFFFFFFFFFFFFFFFFFFFFFFFFFF AND PUSH2 0x8FC DUP3 SWAP1 DUP2 ISZERO MUL SWAP1 PUSH1 0x40 MLOAD PUSH1 0x0 PUSH1 0x40 MLOAD DUP1 DUP4 SUB DUP2 DUP6 DUP9 DUP9 CALL SWAP4 POP POP POP POP ISZERO DUP1 ISZERO PUSH2 0x66B JUMPI RETURNDATASIZE PUSH1 0x0 DUP1 RETURNDATACOPY RETURNDATASIZE PUSH1 0x0 REVERT JUMPDEST POP PUSH1 0x0 DUP1 PUSH1 0x0 CALLER PUSH20 0xFFFFFFFFFFFFFFFFFFFFFFFFFFFFFFFFFFFFFFFF AND PUSH20 0xFFFFFFFFFFFFFFFFFFFFFFFFFFFFFFFFFFFFFFFF AND DUP2 MSTORE PUSH1 0x20 ADD SWAP1 DUP2 MSTORE PUSH1 0x20 ADD PUSH1 0x0 KECCAK256 DUP2 SWAP1 SSTORE POP POP POP JUMP JUMPDEST PUSH1 0x6 SLOAD DUP2 JUMP JUMPDEST PUSH1 0x8 SLOAD DUP2 JUMP JUMPDEST PUSH1 0x2 SLOAD DUP2 JUMP JUMPDEST PUSH1 0x1 PUSH1 0x0 SWAP1 SLOAD SWAP1 PUSH2 0x100 EXP SWAP1 DIV PUSH20 0xFFFFFFFFFFFFFFFFFFFFFFFFFFFFFFFFFFFFFFFF AND DUP2 JUMP JUMPDEST PUSH1 0x0 PUSH2 0x6FF PUSH2 0x6FA DUP5 PUSH2 0xA14 JUMP JUMPDEST PUSH2 0x9EF JUMP JUMPDEST SWAP1 POP DUP3 DUP2 MSTORE PUSH1 0x20 DUP2 ADD DUP5 DUP5 DUP5 ADD GT ISZERO PUSH2 0x71B JUMPI PUSH2 0x71A PUSH2 0xC91 JUMP JUMPDEST JUMPDEST PUSH2 0x726 DUP5 DUP3 DUP6 PUSH2 0xB11 JUMP JUMPDEST POP SWAP4 SWAP3 POP POP POP JUMP JUMPDEST PUSH1 0x0 DUP2 CALLDATALOAD SWAP1 POP PUSH2 0x73D DUP2 PUSH2 0xD03 JUMP JUMPDEST SWAP3 SWAP2 POP POP JUMP JUMPDEST PUSH1 0x0 DUP2 CALLDATALOAD SWAP1 POP PUSH2 0x752 DUP2 PUSH2 0xD1A JUMP JUMPDEST SWAP3 SWAP2 POP POP JUMP JUMPDEST PUSH1 0x0 DUP3 PUSH1 0x1F DUP4 ADD SLT PUSH2 0x76D JUMPI PUSH2 0x76C PUSH2 0xC8C JUMP JUMPDEST JUMPDEST DUP2 CALLDATALOAD PUSH2 0x77D DUP5 DUP3 PUSH1 0x20 DUP7 ADD PUSH2 0x6EC JUMP JUMPDEST SWAP2 POP POP SWAP3 SWAP2 POP POP JUMP JUMPDEST PUSH1 0x0 DUP2 CALLDATALOAD SWAP1 POP PUSH2 0x795 DUP2 PUSH2 0xD31 JUMP JUMPDEST SWAP3 SWAP2 POP POP JUMP JUMPDEST PUSH1 0x0 PUSH1 0x20 DUP3 DUP5 SUB SLT ISZERO PUSH2 0x7B1 JUMPI PUSH2 0x7B0 PUSH2 0xC9B JUMP JUMPDEST JUMPDEST PUSH1 0x0 PUSH2 0x7BF DUP5 DUP3 DUP6 ADD PUSH2 0x72E JUMP JUMPDEST SWAP2 POP POP SWAP3 SWAP2 POP POP JUMP JUMPDEST PUSH1 0x0 DUP1 PUSH1 0x0 PUSH1 0x60 DUP5 DUP7 SUB SLT ISZERO PUSH2 0x7E1 JUMPI PUSH2 0x7E0 PUSH2 0xC9B JUMP JUMPDEST JUMPDEST PUSH1 0x0 DUP5 ADD CALLDATALOAD PUSH8 0xFFFFFFFFFFFFFFFF DUP2 GT ISZERO PUSH2 0x7FF JUMPI PUSH2 0x7FE PUSH2 0xC96 JUMP JUMPDEST JUMPDEST PUSH2 0x80B DUP7 DUP3 DUP8 ADD PUSH2 0x758 JUMP JUMPDEST SWAP4 POP POP PUSH1 0x20 PUSH2 0x81C DUP7 DUP3 DUP8 ADD PUSH2 0x743 JUMP JUMPDEST SWAP3 POP POP PUSH1 0x40 PUSH2 0x82D DUP7 DUP3 DUP8 ADD PUSH2 0x786 JUMP JUMPDEST SWAP2 POP POP SWAP3 POP SWAP3 POP SWAP3 JUMP JUMPDEST PUSH1 0x0 PUSH1 0x20 DUP3 DUP5 SUB SLT ISZERO PUSH2 0x84D JUMPI PUSH2 0x84C PUSH2 0xC9B JUMP JUMPDEST JUMPDEST PUSH1 0x0 PUSH2 0x85B DUP5 DUP3 DUP6 ADD PUSH2 0x786 JUMP JUMPDEST SWAP2 POP POP SWAP3 SWAP2 POP POP JUMP JUMPDEST PUSH2 0x86D DUP2 PUSH2 0xAC9 JUMP JUMPDEST DUP3 MSTORE POP POP JUMP JUMPDEST PUSH2 0x87C DUP2 PUSH2 0xAB7 JUMP JUMPDEST DUP3 MSTORE POP POP JUMP JUMPDEST PUSH2 0x88B DUP2 PUSH2 0xADB JUMP JUMPDEST DUP3 MSTORE POP POP JUMP JUMPDEST PUSH1 0x0 PUSH2 0x89C DUP3 PUSH2 0xA45 JUMP JUMPDEST PUSH2 0x8A6 DUP2 DUP6 PUSH2 0xA50 JUMP JUMPDEST SWAP4 POP PUSH2 0x8B6 DUP2 DUP6 PUSH1 0x20 DUP7 ADD PUSH2 0xB20 JUMP JUMPDEST PUSH2 0x8BF DUP2 PUSH2 0xCA0 JUMP JUMPDEST DUP5 ADD SWAP2 POP POP SWAP3 SWAP2 POP POP JUMP JUMPDEST PUSH1 0x0 PUSH2 0x8D7 PUSH1 0x14 DUP4 PUSH2 0xA50 JUMP JUMPDEST SWAP2 POP PUSH2 0x8E2 DUP3 PUSH2 0xCB1 JUMP JUMPDEST PUSH1 0x20 DUP3 ADD SWAP1 POP SWAP2 SWAP1 POP JUMP JUMPDEST PUSH1 0x0 PUSH2 0x8FA PUSH1 0x1D DUP4 PUSH2 0xA50 JUMP JUMPDEST SWAP2 POP PUSH2 0x905 DUP3 PUSH2 0xCDA JUMP JUMPDEST PUSH1 0x20 DUP3 ADD SWAP1 POP SWAP2 SWAP1 POP JUMP JUMPDEST PUSH2 0x919 DUP2 PUSH2 0xB07 JUMP JUMPDEST DUP3 MSTORE POP POP JUMP JUMPDEST PUSH1 0x0 PUSH1 0x20 DUP3 ADD SWAP1 POP PUSH2 0x934 PUSH1 0x0 DUP4 ADD DUP5 PUSH2 0x873 JUMP JUMPDEST SWAP3 SWAP2 POP POP JUMP JUMPDEST PUSH1 0x0 PUSH1 0xA0 DUP3 ADD SWAP1 POP DUP2 DUP2 SUB PUSH1 0x0 DUP4 ADD MSTORE PUSH2 0x954 DUP2 DUP9 PUSH2 0x891 JUMP JUMPDEST SWAP1 POP PUSH2 0x963 PUSH1 0x20 DUP4 ADD DUP8 PUSH2 0x864 JUMP JUMPDEST PUSH2 0x970 PUSH1 0x40 DUP4 ADD DUP7 PUSH2 0x910 JUMP JUMPDEST PUSH2 0x97D PUSH1 0x60 DUP4 ADD DUP6 PUSH2 0x882 JUMP JUMPDEST PUSH2 0x98A PUSH1 0x80 DUP4 ADD DUP5 PUSH2 0x910 JUMP JUMPDEST SWAP7 SWAP6 POP POP POP POP POP POP JUMP JUMPDEST PUSH1 0x0 PUSH1 0x20 DUP3 ADD SWAP1 POP DUP2 DUP2 SUB PUSH1 0x0 DUP4 ADD MSTORE PUSH2 0x9AD DUP2 PUSH2 0x8CA JUMP JUMPDEST SWAP1 POP SWAP2 SWAP1 POP JUMP JUMPDEST PUSH1 0x0 PUSH1 0x20 DUP3 ADD SWAP1 POP DUP2 DUP2 SUB PUSH1 0x0 DUP4 ADD MSTORE PUSH2 0x9CD DUP2 PUSH2 0x8ED JUMP JUMPDEST SWAP1 POP SWAP2 SWAP1 POP JUMP JUMPDEST PUSH1 0x0 PUSH1 0x20 DUP3 ADD SWAP1 POP PUSH2 0x9E9 PUSH1 0x0 DUP4 ADD DUP5 PUSH2 0x910 JUMP JUMPDEST SWAP3 SWAP2 POP POP JUMP JUMPDEST PUSH1 0x0 PUSH2 0x9F9 PUSH2 0xA0A JUMP JUMPDEST SWAP1 POP PUSH2 0xA05 DUP3 DUP3 PUSH2 0xB85 JUMP JUMPDEST SWAP2 SWAP1 POP JUMP JUMPDEST PUSH1 0x0 PUSH1 0x40 MLOAD SWAP1 POP SWAP1 JUMP JUMPDEST PUSH1 0x0 PUSH8 0xFFFFFFFFFFFFFFFF DUP3 GT ISZERO PUSH2 0xA2F JUMPI PUSH2 0xA2E PUSH2 0xC5D JUMP JUMPDEST JUMPDEST PUSH2 0xA38 DUP3 PUSH2 0xCA0 JUMP JUMPDEST SWAP1 POP PUSH1 0x20 DUP2 ADD SWAP1 POP SWAP2 SWAP1 POP JUMP JUMPDEST PUSH1 0x0 DUP2 MLOAD SWAP1 POP SWAP2 SWAP1 POP JUMP JUMPDEST PUSH1 0x0 DUP3 DUP3 MSTORE PUSH1 0x20 DUP3 ADD SWAP1 POP SWAP3 SWAP2 POP POP JUMP JUMPDEST PUSH1 0x0 PUSH2 0xA6C DUP3 PUSH2 0xB07 JUMP JUMPDEST SWAP2 POP PUSH2 0xA77 DUP4 PUSH2 0xB07 JUMP JUMPDEST SWAP3 POP DUP3 PUSH32 0xFFFFFFFFFFFFFFFFFFFFFFFFFFFFFFFFFFFFFFFFFFFFFFFFFFFFFFFFFFFFFFFF SUB DUP3 GT ISZERO PUSH2 0xAAC JUMPI PUSH2 0xAAB PUSH2 0xBFF JUMP JUMPDEST JUMPDEST DUP3 DUP3 ADD SWAP1 POP SWAP3 SWAP2 POP POP JUMP JUMPDEST PUSH1 0x0 PUSH2 0xAC2 DUP3 PUSH2 0xAE7 JUMP JUMPDEST SWAP1 POP SWAP2 SWAP1 POP JUMP JUMPDEST PUSH1 0x0 PUSH2 0xAD4 DUP3 PUSH2 0xAE7 JUMP JUMPDEST SWAP1 POP SWAP2 SWAP1 POP JUMP JUMPDEST PUSH1 0x0 DUP2 ISZERO ISZERO SWAP1 POP SWAP2 SWAP1 POP JUMP JUMPDEST PUSH1 0x0 PUSH20 0xFFFFFFFFFFFFFFFFFFFFFFFFFFFFFFFFFFFFFFFF DUP3 AND SWAP1 POP SWAP2 SWAP1 POP JUMP JUMPDEST PUSH1 0x0 DUP2 SWAP1 POP SWAP2 SWAP1 POP JUMP JUMPDEST DUP3 DUP2 DUP4 CALLDATACOPY PUSH1 0x0 DUP4 DUP4 ADD MSTORE POP POP POP JUMP JUMPDEST PUSH1 0x0 JUMPDEST DUP4 DUP2 LT ISZERO PUSH2 0xB3E JUMPI DUP1 DUP3 ADD MLOAD DUP2 DUP5 ADD MSTORE PUSH1 0x20 DUP2 ADD SWAP1 POP PUSH2 0xB23 JUMP JUMPDEST DUP4 DUP2 GT ISZERO PUSH2 0xB4D JUMPI PUSH1 0x0 DUP5 DUP5 ADD MSTORE JUMPDEST POP POP POP POP JUMP JUMPDEST PUSH1 0x0 PUSH1 0x2 DUP3 DIV SWAP1 POP PUSH1 0x1 DUP3 AND DUP1 PUSH2 0xB6B JUMPI PUSH1 0x7F DUP3 AND SWAP2 POP JUMPDEST PUSH1 0x20 DUP3 LT DUP2 EQ ISZERO PUSH2 0xB7F JUMPI PUSH2 0xB7E PUSH2 0xC2E JUMP JUMPDEST JUMPDEST POP SWAP2 SWAP1 POP JUMP JUMPDEST PUSH2 0xB8E DUP3 PUSH2 0xCA0 JUMP JUMPDEST DUP2 ADD DUP2 DUP2 LT PUSH8 0xFFFFFFFFFFFFFFFF DUP3 GT OR ISZERO PUSH2 0xBAD JUMPI PUSH2 0xBAC PUSH2 0xC5D JUMP JUMPDEST JUMPDEST DUP1 PUSH1 0x40 MSTORE POP POP POP JUMP JUMPDEST PUSH1 0x0 PUSH2 0xBC1 DUP3 PUSH2 0xB07 JUMP JUMPDEST SWAP2 POP PUSH32 0xFFFFFFFFFFFFFFFFFFFFFFFFFFFFFFFFFFFFFFFFFFFFFFFFFFFFFFFFFFFFFFFF DUP3 EQ ISZERO PUSH2 0xBF4 JUMPI PUSH2 0xBF3 PUSH2 0xBFF JUMP JUMPDEST JUMPDEST PUSH1 0x1 DUP3 ADD SWAP1 POP SWAP2 SWAP1 POP JUMP JUMPDEST PUSH32 0x4E487B7100000000000000000000000000000000000000000000000000000000 PUSH1 0x0 MSTORE PUSH1 0x11 PUSH1 0x4 MSTORE PUSH1 0x24 PUSH1 0x0 REVERT JUMPDEST PUSH32 0x4E487B7100000000000000000000000000000000000000000000000000000000 PUSH1 0x0 MSTORE PUSH1 0x22 PUSH1 0x4 MSTORE PUSH1 0x24 PUSH1 0x0 REVERT JUMPDEST PUSH32 0x4E487B7100000000000000000000000000000000000000000000000000000000 PUSH1 0x0 MSTORE PUSH1 0x41 PUSH1 0x4 MSTORE PUSH1 0x24 PUSH1 0x0 REVERT JUMPDEST PUSH1 0x0 DUP1 REVERT JUMPDEST PUSH1 0x0 DUP1 REVERT JUMPDEST PUSH1 0x0 DUP1 REVERT JUMPDEST PUSH1 0x0 DUP1 REVERT JUMPDEST PUSH1 0x0 PUSH1 0x1F NOT PUSH1 0x1F DUP4 ADD AND SWAP1 POP SWAP2 SWAP1 POP JUMP JUMPDEST PUSH32 0x446561646C696E6520686173207061737365642E000000000000000000000000 PUSH1 0x0 DUP3 ADD MSTORE POP JUMP JUMPDEST PUSH32 0x4D696E696D756D20636F6E747269627574696F6E206E6F74206D65742E000000 PUSH1 0x0 DUP3 ADD MSTORE POP JUMP JUMPDEST PUSH2 0xD0C DUP2 PUSH2 0xAB7 JUMP JUMPDEST DUP2 EQ PUSH2 0xD17 JUMPI PUSH1 0x0 DUP1 REVERT JUMPDEST POP JUMP JUMPDEST PUSH2 0xD23 DUP2 PUSH2 0xAC9 JUMP JUMPDEST DUP2 EQ PUSH2 0xD2E JUMPI PUSH1 0x0 DUP1 REVERT JUMPDEST POP JUMP JUMPDEST PUSH2 0xD3A DUP2 PUSH2 0xB07 JUMP JUMPDEST DUP2 EQ PUSH2 0xD45 JUMPI PUSH1 0x0 DUP1 REVERT JUMPDEST POP JUMP INVALID LOG2 PUSH5 0x6970667358 0x22 SLT KECCAK256 0xB7 LOG4 0xEA 0xFB DELEGATECALL 0xB6 PUSH30 0x50C2DC76E209A3F5F25BBAFED42CA07E9B17CA0D39EA82C05764736F6C63 NUMBER STOP ADDMOD SMOD STOP CALLER "
				},
				"gasEstimates": {
					"creation": {
						"codeDepositCost": "690800",
						"executionCost": "infinite",
						"totalCost": "infinite"
					},
					"external": {
						"admin()": "2602",
						"contribute()": "infinite",
						"contributors(address)": "2859",
						"createRequest(string,address,uint256)": "infinite",
						"deadline()": "2496",
						"getBalance()": "340",
						"getRefund()": "infinite",
						"goal()": "2518",
						"minimumContribution()": "2452",
						"numberContributors()": "2495",
						"numberRequests()": "2451",
						"raisedAmount()": "2496",
						"requests(uint256)": "infinite"
					}
				},
				"methodIdentifiers": {
					"admin()": "f851a440",
					"contribute()": "d7bb99ba",
					"contributors(address)": "1f6d4942",
					"createRequest(string,address,uint256)": "1b16bb5c",
					"deadline()": "29dcb0cf",
					"getBalance()": "12065fe0",
					"getRefund()": "b2d5ae44",
					"goal()": "40193883",
					"minimumContribution()": "937e09b1",
					"numberContributors()": "f3740daf",
					"numberRequests()": "d3a9d4ea",
					"raisedAmount()": "c59ee1dc",
					"requests(uint256)": "81d12c58"
				}
			},
			"storageLayout": {
				"storage": [
					{
						"astId": 5,
						"contract": "contracts/crowdfunding.sol:CrowdFunding",
						"label": "contributors",
						"offset": 0,
						"slot": "0",
						"type": "t_mapping(t_address,t_uint256)"
					},
					{
						"astId": 7,
						"contract": "contracts/crowdfunding.sol:CrowdFunding",
						"label": "admin",
						"offset": 0,
						"slot": "1",
						"type": "t_address"
					},
					{
						"astId": 9,
						"contract": "contracts/crowdfunding.sol:CrowdFunding",
						"label": "numberContributors",
						"offset": 0,
						"slot": "2",
						"type": "t_uint256"
					},
					{
						"astId": 11,
						"contract": "contracts/crowdfunding.sol:CrowdFunding",
						"label": "minimumContribution",
						"offset": 0,
						"slot": "3",
						"type": "t_uint256"
					},
					{
						"astId": 13,
						"contract": "contracts/crowdfunding.sol:CrowdFunding",
						"label": "deadline",
						"offset": 0,
						"slot": "4",
						"type": "t_uint256"
					},
					{
						"astId": 15,
						"contract": "contracts/crowdfunding.sol:CrowdFunding",
						"label": "goal",
						"offset": 0,
						"slot": "5",
						"type": "t_uint256"
					},
					{
						"astId": 17,
						"contract": "contracts/crowdfunding.sol:CrowdFunding",
						"label": "raisedAmount",
						"offset": 0,
						"slot": "6",
						"type": "t_uint256"
					},
					{
						"astId": 37,
						"contract": "contracts/crowdfunding.sol:CrowdFunding",
						"label": "requests",
						"offset": 0,
						"slot": "7",
						"type": "t_mapping(t_uint256,t_struct(Request)32_storage)"
					},
					{
						"astId": 39,
						"contract": "contracts/crowdfunding.sol:CrowdFunding",
						"label": "numberRequests",
						"offset": 0,
						"slot": "8",
						"type": "t_uint256"
					}
				],
				"types": {
					"t_address": {
						"encoding": "inplace",
						"label": "address",
						"numberOfBytes": "20"
					},
					"t_address_payable": {
						"encoding": "inplace",
						"label": "address payable",
						"numberOfBytes": "20"
					},
					"t_bool": {
						"encoding": "inplace",
						"label": "bool",
						"numberOfBytes": "1"
					},
					"t_mapping(t_address,t_bool)": {
						"encoding": "mapping",
						"key": "t_address",
						"label": "mapping(address => bool)",
						"numberOfBytes": "32",
						"value": "t_bool"
					},
					"t_mapping(t_address,t_uint256)": {
						"encoding": "mapping",
						"key": "t_address",
						"label": "mapping(address => uint256)",
						"numberOfBytes": "32",
						"value": "t_uint256"
					},
					"t_mapping(t_uint256,t_struct(Request)32_storage)": {
						"encoding": "mapping",
						"key": "t_uint256",
						"label": "mapping(uint256 => struct CrowdFunding.Request)",
						"numberOfBytes": "32",
						"value": "t_struct(Request)32_storage"
					},
					"t_string_storage": {
						"encoding": "bytes",
						"label": "string",
						"numberOfBytes": "32"
					},
					"t_struct(Request)32_storage": {
						"encoding": "inplace",
						"label": "struct CrowdFunding.Request",
						"members": [
							{
								"astId": 19,
								"contract": "contracts/crowdfunding.sol:CrowdFunding",
								"label": "description",
								"offset": 0,
								"slot": "0",
								"type": "t_string_storage"
							},
							{
								"astId": 21,
								"contract": "contracts/crowdfunding.sol:CrowdFunding",
								"label": "recipient",
								"offset": 0,
								"slot": "1",
								"type": "t_address_payable"
							},
							{
								"astId": 23,
								"contract": "contracts/crowdfunding.sol:CrowdFunding",
								"label": "value",
								"offset": 0,
								"slot": "2",
								"type": "t_uint256"
							},
							{
								"astId": 25,
								"contract": "contracts/crowdfunding.sol:CrowdFunding",
								"label": "completed",
								"offset": 0,
								"slot": "3",
								"type": "t_bool"
							},
							{
								"astId": 27,
								"contract": "contracts/crowdfunding.sol:CrowdFunding",
								"label": "numberVoters",
								"offset": 0,
								"slot": "4",
								"type": "t_uint256"
							},
							{
								"astId": 31,
								"contract": "contracts/crowdfunding.sol:CrowdFunding",
								"label": "voters",
								"offset": 0,
								"slot": "5",
								"type": "t_mapping(t_address,t_bool)"
							}
						],
						"numberOfBytes": "192"
					},
					"t_uint256": {
						"encoding": "inplace",
						"label": "uint256",
						"numberOfBytes": "32"
					}
				}
			},
			"userdoc": {
				"kind": "user",
				"methods": {},
				"version": 1
			}
		}
	}
}