{
	"contracts/erc20_state_vars.sol": {
		"PennyICO": {
			"abi": [
				{
					"anonymous": false,
					"inputs": [
						{
							"indexed": true,
							"internalType": "address",
							"name": "tokenOwner",
							"type": "address"
						},
						{
							"indexed": true,
							"internalType": "address",
							"name": "spender",
							"type": "address"
						},
						{
							"indexed": false,
							"internalType": "uint256",
							"name": "tokens",
							"type": "uint256"
						}
					],
					"name": "Approval",
					"type": "event"
				},
				{
					"anonymous": false,
					"inputs": [
						{
							"indexed": true,
							"internalType": "address",
							"name": "from",
							"type": "address"
						},
						{
							"indexed": true,
							"internalType": "address",
							"name": "to",
							"type": "address"
						},
						{
							"indexed": false,
							"internalType": "uint256",
							"name": "tokens",
							"type": "uint256"
						}
					],
					"name": "Transfer",
					"type": "event"
				},
				{
					"inputs": [],
					"name": "admin",
					"outputs": [
						{
							"internalType": "address",
							"name": "",
							"type": "address"
						}
					],
					"stateMutability": "view",
					"type": "function"
				},
				{
					"inputs": [
						{
							"internalType": "address",
							"name": "tokenOwner",
							"type": "address"
						},
						{
							"internalType": "address",
							"name": "spender",
							"type": "address"
						}
					],
					"name": "allowance",
					"outputs": [
						{
							"internalType": "uint256",
							"name": "",
							"type": "uint256"
						}
					],
					"stateMutability": "view",
					"type": "function"
				},
				{
					"inputs": [
						{
							"internalType": "address",
							"name": "spender",
							"type": "address"
						},
						{
							"internalType": "uint256",
							"name": "tokens",
							"type": "uint256"
						}
					],
					"name": "approve",
					"outputs": [
						{
							"internalType": "bool",
							"name": "success",
							"type": "bool"
						}
					],
					"stateMutability": "nonpayable",
					"type": "function"
				},
				{
					"inputs": [
						{
							"internalType": "address",
							"name": "tokenOwner",
							"type": "address"
						}
					],
					"name": "balanceOf",
					"outputs": [
						{
							"internalType": "uint256",
							"name": "balance",
							"type": "uint256"
						}
					],
					"stateMutability": "view",
					"type": "function"
				},
				{
					"inputs": [
						{
							"internalType": "address",
							"name": "",
							"type": "address"
						}
					],
					"name": "balances",
					"outputs": [
						{
							"internalType": "uint256",
							"name": "",
							"type": "uint256"
						}
					],
					"stateMutability": "view",
					"type": "function"
				},
				{
					"inputs": [],
					"name": "decimals",
					"outputs": [
						{
							"internalType": "uint256",
							"name": "",
							"type": "uint256"
						}
					],
					"stateMutability": "view",
					"type": "function"
				},
				{
					"inputs": [],
					"name": "deposit",
					"outputs": [
						{
							"internalType": "address payable",
							"name": "",
							"type": "address"
						}
					],
					"stateMutability": "view",
					"type": "function"
				},
				{
					"inputs": [],
					"name": "founder",
					"outputs": [
						{
							"internalType": "address",
							"name": "",
							"type": "address"
						}
					],
					"stateMutability": "view",
					"type": "function"
				},
				{
					"inputs": [],
					"name": "hardCap",
					"outputs": [
						{
							"internalType": "uint256",
							"name": "",
							"type": "uint256"
						}
					],
					"stateMutability": "view",
					"type": "function"
				},
				{
					"inputs": [],
					"name": "name",
					"outputs": [
						{
							"internalType": "string",
							"name": "",
							"type": "string"
						}
					],
					"stateMutability": "view",
					"type": "function"
				},
				{
					"inputs": [],
					"name": "raisedAmount",
					"outputs": [
						{
							"internalType": "uint256",
							"name": "",
							"type": "uint256"
						}
					],
					"stateMutability": "view",
					"type": "function"
				},
				{
					"inputs": [],
					"name": "saleEnd",
					"outputs": [
						{
							"internalType": "uint256",
							"name": "",
							"type": "uint256"
						}
					],
					"stateMutability": "view",
					"type": "function"
				},
				{
					"inputs": [],
					"name": "saleStart",
					"outputs": [
						{
							"internalType": "uint256",
							"name": "",
							"type": "uint256"
						}
					],
					"stateMutability": "view",
					"type": "function"
				},
				{
					"inputs": [],
					"name": "symbol",
					"outputs": [
						{
							"internalType": "string",
							"name": "",
							"type": "string"
						}
					],
					"stateMutability": "view",
					"type": "function"
				},
				{
					"inputs": [],
					"name": "tokenTradeStart",
					"outputs": [
						{
							"internalType": "uint256",
							"name": "",
							"type": "uint256"
						}
					],
					"stateMutability": "view",
					"type": "function"
				},
				{
					"inputs": [],
					"name": "totalSupply",
					"outputs": [
						{
							"internalType": "uint256",
							"name": "",
							"type": "uint256"
						}
					],
					"stateMutability": "view",
					"type": "function"
				},
				{
					"inputs": [
						{
							"internalType": "address",
							"name": "to",
							"type": "address"
						},
						{
							"internalType": "uint256",
							"name": "tokens",
							"type": "uint256"
						}
					],
					"name": "transfer",
					"outputs": [
						{
							"internalType": "bool",
							"name": "success",
							"type": "bool"
						}
					],
					"stateMutability": "nonpayable",
					"type": "function"
				},
				{
					"inputs": [
						{
							"internalType": "address",
							"name": "from",
							"type": "address"
						},
						{
							"internalType": "address",
							"name": "to",
							"type": "address"
						},
						{
							"internalType": "uint256",
							"name": "tokens",
							"type": "uint256"
						}
					],
					"name": "transferFrom",
					"outputs": [
						{
							"internalType": "bool",
							"name": "",
							"type": "bool"
						}
					],
					"stateMutability": "nonpayable",
					"type": "function"
				}
			],
			"devdoc": {
				"kind": "dev",
				"methods": {},
				"version": 1
			},
			"evm": {
				"assembly": "    /* \"contracts/erc20_state_vars.sol\":4667:5394  contract PennyICO is Pennies{\r... */\n  mstore(0x40, 0x80)\n    /* \"contracts/erc20_state_vars.sol\":1143:1179  string public name = \"Penny Pennies\" */\n  mload(0x40)\n  dup1\n  0x40\n  add\n  0x40\n  mstore\n  dup1\n  0x0d\n  dup2\n  mstore\n  0x20\n  add\n  0x50656e6e792050656e6e69657300000000000000000000000000000000000000\n  dup2\n  mstore\n  pop\n  0x00\n  swap1\n  dup1\n  mload\n  swap1\n  0x20\n  add\n  swap1\n  tag_1\n  swap3\n  swap2\n  swap1\n  tag_2\n  jump\t// in\ntag_1:\n  pop\n    /* \"contracts/erc20_state_vars.sol\":1186:1216  string public symbol = \"PENNY\" */\n  mload(0x40)\n  dup1\n  0x40\n  add\n  0x40\n  mstore\n  dup1\n  0x05\n  dup2\n  mstore\n  0x20\n  add\n  0x50454e4e59000000000000000000000000000000000000000000000000000000\n  dup2\n  mstore\n  pop\n  0x01\n  swap1\n  dup1\n  mload\n  swap1\n  0x20\n  add\n  swap1\n  tag_3\n  swap3\n  swap2\n  swap1\n  tag_2\n  jump\t// in\ntag_3:\n  pop\n    /* \"contracts/erc20_state_vars.sol\":1246:1247  0 */\n  0x00\n    /* \"contracts/erc20_state_vars.sol\":1223:1247  uint public decimals = 0 */\n  0x02\n  sstore\n    /* \"contracts/erc20_state_vars.sol\":4866:4880  0.000001 ether */\n  0xe8d4a51000\n    /* \"contracts/erc20_state_vars.sol\":4848:4880  uint tokenPrice = 0.000001 ether */\n  0x09\n  sstore\n    /* \"contracts/erc20_state_vars.sol\":4964:4973  300 ether */\n  0x1043561a8829300000\n    /* \"contracts/erc20_state_vars.sol\":4942:4973  uint public hardCap = 300 ether */\n  0x0a\n  sstore\n    /* \"contracts/erc20_state_vars.sol\":5114:5116  10 */\n  0x0a\n    /* \"contracts/erc20_state_vars.sol\":5096:5111  block.timestamp */\n  timestamp\n    /* \"contracts/erc20_state_vars.sol\":5096:5116  block.timestamp + 10 */\n  tag_4\n  swap2\n  swap1\n  tag_5\n  jump\t// in\ntag_4:\n    /* \"contracts/erc20_state_vars.sol\":5072:5116  uint public saleStart = block.timestamp + 10 */\n  0x0c\n  sstore\n    /* \"contracts/erc20_state_vars.sol\":5201:5214  3600 * 24 * 7 */\n  0x093a80\n    /* \"contracts/erc20_state_vars.sol\":5183:5198  block.timestamp */\n  timestamp\n    /* \"contracts/erc20_state_vars.sol\":5183:5214  block.timestamp + 3600 * 24 * 7 */\n  tag_6\n  swap2\n  swap1\n  tag_5\n  jump\t// in\ntag_6:\n    /* \"contracts/erc20_state_vars.sol\":5161:5214  uint public saleEnd = block.timestamp + 3600 * 24 * 7 */\n  0x0d\n  sstore\n    /* \"contracts/erc20_state_vars.sol\":5355:5361  604800 */\n  0x093a80\n    /* \"contracts/erc20_state_vars.sol\":5345:5352  saleEnd */\n  sload(0x0d)\n    /* \"contracts/erc20_state_vars.sol\":5345:5361  saleEnd + 604800 */\n  tag_7\n  swap2\n  swap1\n  tag_5\n  jump\t// in\ntag_7:\n    /* \"contracts/erc20_state_vars.sol\":5315:5361  uint public tokenTradeStart = saleEnd + 604800 */\n  0x0e\n  sstore\n    /* \"contracts/erc20_state_vars.sol\":4667:5394  contract PennyICO is Pennies{\r... */\n  callvalue\n  dup1\n  iszero\n  tag_8\n  jumpi\n  0x00\n  dup1\n  revert\ntag_8:\n  pop\n    /* \"contracts/erc20_state_vars.sol\":1929:1936  1000000 */\n  0x0f4240\n    /* \"contracts/erc20_state_vars.sol\":1915:1926  totalSupply */\n  0x03\n    /* \"contracts/erc20_state_vars.sol\":1915:1936  totalSupply = 1000000 */\n  dup2\n  swap1\n  sstore\n  pop\n    /* \"contracts/erc20_state_vars.sol\":2012:2022  msg.sender */\n  caller\n    /* \"contracts/erc20_state_vars.sol\":2002:2009  founder */\n  0x04\n  0x00\n    /* \"contracts/erc20_state_vars.sol\":2002:2022  founder = msg.sender */\n  0x0100\n  exp\n  dup2\n  sload\n  dup2\n  0xffffffffffffffffffffffffffffffffffffffff\n  mul\n  not\n  and\n  swap1\n  dup4\n  0xffffffffffffffffffffffffffffffffffffffff\n  and\n  mul\n  or\n  swap1\n  sstore\n  pop\n    /* \"contracts/erc20_state_vars.sol\":2132:2143  totalSupply */\n  sload(0x03)\n    /* \"contracts/erc20_state_vars.sol\":2112:2120  balances */\n  0x05\n    /* \"contracts/erc20_state_vars.sol\":2112:2129  balances[founder] */\n  0x00\n    /* \"contracts/erc20_state_vars.sol\":2121:2128  founder */\n  0x04\n  0x00\n  swap1\n  sload\n  swap1\n  0x0100\n  exp\n  swap1\n  div\n  0xffffffffffffffffffffffffffffffffffffffff\n  and\n    /* \"contracts/erc20_state_vars.sol\":2112:2129  balances[founder] */\n  0xffffffffffffffffffffffffffffffffffffffff\n  and\n  0xffffffffffffffffffffffffffffffffffffffff\n  and\n  dup2\n  mstore\n  0x20\n  add\n  swap1\n  dup2\n  mstore\n  0x20\n  add\n  0x00\n  keccak256\n    /* \"contracts/erc20_state_vars.sol\":2112:2143  balances[founder] = totalSupply */\n  dup2\n  swap1\n  sstore\n  pop\n    /* \"contracts/erc20_state_vars.sol\":4667:5394  contract PennyICO is Pennies{\r... */\n  jump(tag_11)\ntag_2:\n  dup3\n  dup1\n  sload\n  tag_12\n  swap1\n  tag_13\n  jump\t// in\ntag_12:\n  swap1\n  0x00\n  mstore\n  keccak256(0x00, 0x20)\n  swap1\n  0x1f\n  add\n  0x20\n  swap1\n  div\n  dup2\n  add\n  swap3\n  dup3\n  tag_15\n  jumpi\n  0x00\n  dup6\n  sstore\n  jump(tag_14)\ntag_15:\n  dup3\n  0x1f\n  lt\n  tag_16\n  jumpi\n  dup1\n  mload\n  not(0xff)\n  and\n  dup4\n  dup1\n  add\n  or\n  dup6\n  sstore\n  jump(tag_14)\ntag_16:\n  dup3\n  dup1\n  add\n  0x01\n  add\n  dup6\n  sstore\n  dup3\n  iszero\n  tag_14\n  jumpi\n  swap2\n  dup3\n  add\ntag_17:\n  dup3\n  dup2\n  gt\n  iszero\n  tag_18\n  jumpi\n  dup3\n  mload\n  dup3\n  sstore\n  swap2\n  0x20\n  add\n  swap2\n  swap1\n  0x01\n  add\n  swap1\n  jump(tag_17)\ntag_18:\ntag_14:\n  pop\n  swap1\n  pop\n  tag_19\n  swap2\n  swap1\n  tag_20\n  jump\t// in\ntag_19:\n  pop\n  swap1\n  jump\t// out\ntag_20:\ntag_21:\n  dup1\n  dup3\n  gt\n  iszero\n  tag_22\n  jumpi\n  0x00\n  dup2\n  0x00\n  swap1\n  sstore\n  pop\n  0x01\n  add\n  jump(tag_21)\ntag_22:\n  pop\n  swap1\n  jump\t// out\n    /* \"#utility.yul\":7:312   */\ntag_5:\n    /* \"#utility.yul\":47:50   */\n  0x00\n    /* \"#utility.yul\":66:86   */\n  tag_25\n    /* \"#utility.yul\":84:85   */\n  dup3\n    /* \"#utility.yul\":66:86   */\n  tag_26\n  jump\t// in\ntag_25:\n    /* \"#utility.yul\":61:86   */\n  swap2\n  pop\n    /* \"#utility.yul\":100:120   */\n  tag_27\n    /* \"#utility.yul\":118:119   */\n  dup4\n    /* \"#utility.yul\":100:120   */\n  tag_26\n  jump\t// in\ntag_27:\n    /* \"#utility.yul\":95:120   */\n  swap3\n  pop\n    /* \"#utility.yul\":254:255   */\n  dup3\n    /* \"#utility.yul\":186:252   */\n  0xffffffffffffffffffffffffffffffffffffffffffffffffffffffffffffffff\n    /* \"#utility.yul\":182:256   */\n  sub\n    /* \"#utility.yul\":179:180   */\n  dup3\n    /* \"#utility.yul\":176:257   */\n  gt\n    /* \"#utility.yul\":173:280   */\n  iszero\n  tag_28\n  jumpi\n    /* \"#utility.yul\":260:278   */\n  tag_29\n  tag_30\n  jump\t// in\ntag_29:\n    /* \"#utility.yul\":173:280   */\ntag_28:\n    /* \"#utility.yul\":304:305   */\n  dup3\n    /* \"#utility.yul\":301:302   */\n  dup3\n    /* \"#utility.yul\":297:306   */\n  add\n    /* \"#utility.yul\":290:306   */\n  swap1\n  pop\n    /* \"#utility.yul\":7:312   */\n  swap3\n  swap2\n  pop\n  pop\n  jump\t// out\n    /* \"#utility.yul\":318:395   */\ntag_26:\n    /* \"#utility.yul\":355:362   */\n  0x00\n    /* \"#utility.yul\":384:389   */\n  dup2\n    /* \"#utility.yul\":373:389   */\n  swap1\n  pop\n    /* \"#utility.yul\":318:395   */\n  swap2\n  swap1\n  pop\n  jump\t// out\n    /* \"#utility.yul\":401:721   */\ntag_13:\n    /* \"#utility.yul\":445:451   */\n  0x00\n    /* \"#utility.yul\":482:483   */\n  0x02\n    /* \"#utility.yul\":476:480   */\n  dup3\n    /* \"#utility.yul\":472:484   */\n  div\n    /* \"#utility.yul\":462:484   */\n  swap1\n  pop\n    /* \"#utility.yul\":529:530   */\n  0x01\n    /* \"#utility.yul\":523:527   */\n  dup3\n    /* \"#utility.yul\":519:531   */\n  and\n    /* \"#utility.yul\":550:568   */\n  dup1\n    /* \"#utility.yul\":540:621   */\n  tag_33\n  jumpi\n    /* \"#utility.yul\":606:610   */\n  0x7f\n    /* \"#utility.yul\":598:604   */\n  dup3\n    /* \"#utility.yul\":594:611   */\n  and\n    /* \"#utility.yul\":584:611   */\n  swap2\n  pop\n    /* \"#utility.yul\":540:621   */\ntag_33:\n    /* \"#utility.yul\":668:670   */\n  0x20\n    /* \"#utility.yul\":660:666   */\n  dup3\n    /* \"#utility.yul\":657:671   */\n  lt\n    /* \"#utility.yul\":637:655   */\n  dup2\n    /* \"#utility.yul\":634:672   */\n  eq\n    /* \"#utility.yul\":631:715   */\n  iszero\n  tag_34\n  jumpi\n    /* \"#utility.yul\":687:705   */\n  tag_35\n  tag_36\n  jump\t// in\ntag_35:\n    /* \"#utility.yul\":631:715   */\ntag_34:\n    /* \"#utility.yul\":452:721   */\n  pop\n    /* \"#utility.yul\":401:721   */\n  swap2\n  swap1\n  pop\n  jump\t// out\n    /* \"#utility.yul\":727:907   */\ntag_30:\n    /* \"#utility.yul\":775:852   */\n  0x4e487b7100000000000000000000000000000000000000000000000000000000\n    /* \"#utility.yul\":772:773   */\n  0x00\n    /* \"#utility.yul\":765:853   */\n  mstore\n    /* \"#utility.yul\":872:876   */\n  0x11\n    /* \"#utility.yul\":869:870   */\n  0x04\n    /* \"#utility.yul\":862:877   */\n  mstore\n    /* \"#utility.yul\":896:900   */\n  0x24\n    /* \"#utility.yul\":893:894   */\n  0x00\n    /* \"#utility.yul\":886:901   */\n  revert\n    /* \"#utility.yul\":913:1093   */\ntag_36:\n    /* \"#utility.yul\":961:1038   */\n  0x4e487b7100000000000000000000000000000000000000000000000000000000\n    /* \"#utility.yul\":958:959   */\n  0x00\n    /* \"#utility.yul\":951:1039   */\n  mstore\n    /* \"#utility.yul\":1058:1062   */\n  0x22\n    /* \"#utility.yul\":1055:1056   */\n  0x04\n    /* \"#utility.yul\":1048:1063   */\n  mstore\n    /* \"#utility.yul\":1082:1086   */\n  0x24\n    /* \"#utility.yul\":1079:1080   */\n  0x00\n    /* \"#utility.yul\":1072:1087   */\n  revert\n    /* \"contracts/erc20_state_vars.sol\":4667:5394  contract PennyICO is Pennies{\r... */\ntag_11:\n  dataSize(sub_0)\n  dup1\n  dataOffset(sub_0)\n  0x00\n  codecopy\n  0x00\n  return\nstop\n\nsub_0: assembly {\n        /* \"contracts/erc20_state_vars.sol\":4667:5394  contract PennyICO is Pennies{\r... */\n      mstore(0x40, 0x80)\n      callvalue\n      dup1\n      iszero\n      tag_1\n      jumpi\n      0x00\n      dup1\n      revert\n    tag_1:\n      pop\n      jumpi(tag_2, lt(calldatasize, 0x04))\n      shr(0xe0, calldataload(0x00))\n      dup1\n      0xa9059cbb\n      gt\n      tag_21\n      jumpi\n      dup1\n      0xcc9ba583\n      gt\n      tag_22\n      jumpi\n      dup1\n      0xcc9ba583\n      eq\n      tag_16\n      jumpi\n      dup1\n      0xd0e30db0\n      eq\n      tag_17\n      jumpi\n      dup1\n      0xdd62ed3e\n      eq\n      tag_18\n      jumpi\n      dup1\n      0xf851a440\n      eq\n      tag_19\n      jumpi\n      dup1\n      0xfb86a404\n      eq\n      tag_20\n      jumpi\n      jump(tag_2)\n    tag_22:\n      dup1\n      0xa9059cbb\n      eq\n      tag_12\n      jumpi\n      dup1\n      0xab0bcc41\n      eq\n      tag_13\n      jumpi\n      dup1\n      0xc10b9358\n      eq\n      tag_14\n      jumpi\n      dup1\n      0xc59ee1dc\n      eq\n      tag_15\n      jumpi\n      jump(tag_2)\n    tag_21:\n      dup1\n      0x27e235e3\n      gt\n      tag_23\n      jumpi\n      dup1\n      0x27e235e3\n      eq\n      tag_7\n      jumpi\n      dup1\n      0x313ce567\n      eq\n      tag_8\n      jumpi\n      dup1\n      0x4d853ee5\n      eq\n      tag_9\n      jumpi\n      dup1\n      0x70a08231\n      eq\n      tag_10\n      jumpi\n      dup1\n      0x95d89b41\n      eq\n      tag_11\n      jumpi\n      jump(tag_2)\n    tag_23:\n      dup1\n      0x06fdde03\n      eq\n      tag_3\n      jumpi\n      dup1\n      0x095ea7b3\n      eq\n      tag_4\n      jumpi\n      dup1\n      0x18160ddd\n      eq\n      tag_5\n      jumpi\n      dup1\n      0x23b872dd\n      eq\n      tag_6\n      jumpi\n    tag_2:\n      0x00\n      dup1\n      revert\n        /* \"contracts/erc20_state_vars.sol\":1143:1179  string public name = \"Penny Pennies\" */\n    tag_3:\n      tag_24\n      tag_25\n      jump\t// in\n    tag_24:\n      mload(0x40)\n      tag_26\n      swap2\n      swap1\n      tag_27\n      jump\t// in\n    tag_26:\n      mload(0x40)\n      dup1\n      swap2\n      sub\n      swap1\n      return\n        /* \"contracts/erc20_state_vars.sol\":3262:3874  function approve(address spender, uint tokens) public override returns (bool success){\r... */\n    tag_4:\n      tag_28\n      0x04\n      dup1\n      calldatasize\n      sub\n      dup2\n      add\n      swap1\n      tag_29\n      swap2\n      swap1\n      tag_30\n      jump\t// in\n    tag_29:\n      tag_31\n      jump\t// in\n    tag_28:\n      mload(0x40)\n      tag_32\n      swap2\n      swap1\n      tag_33\n      jump\t// in\n    tag_32:\n      mload(0x40)\n      dup1\n      swap2\n      sub\n      swap1\n      return\n        /* \"contracts/erc20_state_vars.sol\":1332:1364  uint public override totalSupply */\n    tag_5:\n      tag_34\n      tag_35\n      jump\t// in\n    tag_34:\n      mload(0x40)\n      tag_36\n      swap2\n      swap1\n      tag_37\n      jump\t// in\n    tag_36:\n      mload(0x40)\n      dup1\n      swap2\n      sub\n      swap1\n      return\n        /* \"contracts/erc20_state_vars.sol\":3882:4641  function transferFrom(address from, address to, uint tokens) public override returns (bool){\r... */\n    tag_6:\n      tag_38\n      0x04\n      dup1\n      calldatasize\n      sub\n      dup2\n      add\n      swap1\n      tag_39\n      swap2\n      swap1\n      tag_40\n      jump\t// in\n    tag_39:\n      tag_41\n      jump\t// in\n    tag_38:\n      mload(0x40)\n      tag_42\n      swap2\n      swap1\n      tag_33\n      jump\t// in\n    tag_42:\n      mload(0x40)\n      dup1\n      swap2\n      sub\n      swap1\n      return\n        /* \"contracts/erc20_state_vars.sol\":1502:1543  mapping (address => uint) public balances */\n    tag_7:\n      tag_43\n      0x04\n      dup1\n      calldatasize\n      sub\n      dup2\n      add\n      swap1\n      tag_44\n      swap2\n      swap1\n      tag_45\n      jump\t// in\n    tag_44:\n      tag_46\n      jump\t// in\n    tag_43:\n      mload(0x40)\n      tag_47\n      swap2\n      swap1\n      tag_37\n      jump\t// in\n    tag_47:\n      mload(0x40)\n      dup1\n      swap2\n      sub\n      swap1\n      return\n        /* \"contracts/erc20_state_vars.sol\":1223:1247  uint public decimals = 0 */\n    tag_8:\n      tag_48\n      tag_49\n      jump\t// in\n    tag_48:\n      mload(0x40)\n      tag_50\n      swap2\n      swap1\n      tag_37\n      jump\t// in\n    tag_50:\n      mload(0x40)\n      dup1\n      swap2\n      sub\n      swap1\n      return\n        /* \"contracts/erc20_state_vars.sol\":1402:1424  address public founder */\n    tag_9:\n      tag_51\n      tag_52\n      jump\t// in\n    tag_51:\n      mload(0x40)\n      tag_53\n      swap2\n      swap1\n      tag_54\n      jump\t// in\n    tag_53:\n      mload(0x40)\n      dup1\n      swap2\n      sub\n      swap1\n      return\n        /* \"contracts/erc20_state_vars.sol\":2214:2346  function balanceOf(address tokenOwner) public view override returns (uint balance){\r... */\n    tag_10:\n      tag_55\n      0x04\n      dup1\n      calldatasize\n      sub\n      dup2\n      add\n      swap1\n      tag_56\n      swap2\n      swap1\n      tag_45\n      jump\t// in\n    tag_56:\n      tag_57\n      jump\t// in\n    tag_55:\n      mload(0x40)\n      tag_58\n      swap2\n      swap1\n      tag_37\n      jump\t// in\n    tag_58:\n      mload(0x40)\n      dup1\n      swap2\n      sub\n      swap1\n      return\n        /* \"contracts/erc20_state_vars.sol\":1186:1216  string public symbol = \"PENNY\" */\n    tag_11:\n      tag_59\n      tag_60\n      jump\t// in\n    tag_59:\n      mload(0x40)\n      tag_61\n      swap2\n      swap1\n      tag_27\n      jump\t// in\n    tag_61:\n      mload(0x40)\n      dup1\n      swap2\n      sub\n      swap1\n      return\n        /* \"contracts/erc20_state_vars.sol\":2404:2979  function transfer(address to, uint tokens) public override returns (bool success){\r... */\n    tag_12:\n      tag_62\n      0x04\n      dup1\n      calldatasize\n      sub\n      dup2\n      add\n      swap1\n      tag_63\n      swap2\n      swap1\n      tag_30\n      jump\t// in\n    tag_63:\n      tag_64\n      jump\t// in\n    tag_62:\n      mload(0x40)\n      tag_65\n      swap2\n      swap1\n      tag_33\n      jump\t// in\n    tag_65:\n      mload(0x40)\n      dup1\n      swap2\n      sub\n      swap1\n      return\n        /* \"contracts/erc20_state_vars.sol\":5072:5116  uint public saleStart = block.timestamp + 10 */\n    tag_13:\n      tag_66\n      tag_67\n      jump\t// in\n    tag_66:\n      mload(0x40)\n      tag_68\n      swap2\n      swap1\n      tag_37\n      jump\t// in\n    tag_68:\n      mload(0x40)\n      dup1\n      swap2\n      sub\n      swap1\n      return\n        /* \"contracts/erc20_state_vars.sol\":5161:5214  uint public saleEnd = block.timestamp + 3600 * 24 * 7 */\n    tag_14:\n      tag_69\n      tag_70\n      jump\t// in\n    tag_69:\n      mload(0x40)\n      tag_71\n      swap2\n      swap1\n      tag_37\n      jump\t// in\n    tag_71:\n      mload(0x40)\n      dup1\n      swap2\n      sub\n      swap1\n      return\n        /* \"contracts/erc20_state_vars.sol\":5020:5044  uint public raisedAmount */\n    tag_15:\n      tag_72\n      tag_73\n      jump\t// in\n    tag_72:\n      mload(0x40)\n      tag_74\n      swap2\n      swap1\n      tag_37\n      jump\t// in\n    tag_74:\n      mload(0x40)\n      dup1\n      swap2\n      sub\n      swap1\n      return\n        /* \"contracts/erc20_state_vars.sol\":5315:5361  uint public tokenTradeStart = saleEnd + 604800 */\n    tag_16:\n      tag_75\n      tag_76\n      jump\t// in\n    tag_75:\n      mload(0x40)\n      tag_77\n      swap2\n      swap1\n      tag_37\n      jump\t// in\n    tag_77:\n      mload(0x40)\n      dup1\n      swap2\n      sub\n      swap1\n      return\n        /* \"contracts/erc20_state_vars.sol\":4785:4815  address payable public deposit */\n    tag_17:\n      tag_78\n      tag_79\n      jump\t// in\n    tag_78:\n      mload(0x40)\n      tag_80\n      swap2\n      swap1\n      tag_81\n      jump\t// in\n    tag_80:\n      mload(0x40)\n      dup1\n      swap2\n      sub\n      swap1\n      return\n        /* \"contracts/erc20_state_vars.sol\":3109:3254  function allowance(address tokenOwner, address spender) public view override returns (uint){\r... */\n    tag_18:\n      tag_82\n      0x04\n      dup1\n      calldatasize\n      sub\n      dup2\n      add\n      swap1\n      tag_83\n      swap2\n      swap1\n      tag_84\n      jump\t// in\n    tag_83:\n      tag_85\n      jump\t// in\n    tag_82:\n      mload(0x40)\n      tag_86\n      swap2\n      swap1\n      tag_37\n      jump\t// in\n    tag_86:\n      mload(0x40)\n      dup1\n      swap2\n      sub\n      swap1\n      return\n        /* \"contracts/erc20_state_vars.sol\":4726:4746  address public admin */\n    tag_19:\n      tag_87\n      tag_88\n      jump\t// in\n    tag_87:\n      mload(0x40)\n      tag_89\n      swap2\n      swap1\n      tag_54\n      jump\t// in\n    tag_89:\n      mload(0x40)\n      dup1\n      swap2\n      sub\n      swap1\n      return\n        /* \"contracts/erc20_state_vars.sol\":4942:4973  uint public hardCap = 300 ether */\n    tag_20:\n      tag_90\n      tag_91\n      jump\t// in\n    tag_90:\n      mload(0x40)\n      tag_92\n      swap2\n      swap1\n      tag_37\n      jump\t// in\n    tag_92:\n      mload(0x40)\n      dup1\n      swap2\n      sub\n      swap1\n      return\n        /* \"contracts/erc20_state_vars.sol\":1143:1179  string public name = \"Penny Pennies\" */\n    tag_25:\n      0x00\n      dup1\n      sload\n      tag_93\n      swap1\n      tag_94\n      jump\t// in\n    tag_93:\n      dup1\n      0x1f\n      add\n      0x20\n      dup1\n      swap2\n      div\n      mul\n      0x20\n      add\n      mload(0x40)\n      swap1\n      dup2\n      add\n      0x40\n      mstore\n      dup1\n      swap3\n      swap2\n      swap1\n      dup2\n      dup2\n      mstore\n      0x20\n      add\n      dup3\n      dup1\n      sload\n      tag_95\n      swap1\n      tag_94\n      jump\t// in\n    tag_95:\n      dup1\n      iszero\n      tag_96\n      jumpi\n      dup1\n      0x1f\n      lt\n      tag_97\n      jumpi\n      0x0100\n      dup1\n      dup4\n      sload\n      div\n      mul\n      dup4\n      mstore\n      swap2\n      0x20\n      add\n      swap2\n      jump(tag_96)\n    tag_97:\n      dup3\n      add\n      swap2\n      swap1\n      0x00\n      mstore\n      keccak256(0x00, 0x20)\n      swap1\n    tag_98:\n      dup2\n      sload\n      dup2\n      mstore\n      swap1\n      0x01\n      add\n      swap1\n      0x20\n      add\n      dup1\n      dup4\n      gt\n      tag_98\n      jumpi\n      dup3\n      swap1\n      sub\n      0x1f\n      and\n      dup3\n      add\n      swap2\n    tag_96:\n      pop\n      pop\n      pop\n      pop\n      pop\n      dup2\n      jump\t// out\n        /* \"contracts/erc20_state_vars.sol\":3262:3874  function approve(address spender, uint tokens) public override returns (bool success){\r... */\n    tag_31:\n        /* \"contracts/erc20_state_vars.sol\":3334:3346  bool success */\n      0x00\n        /* \"contracts/erc20_state_vars.sol\":3478:3484  tokens */\n      dup2\n        /* \"contracts/erc20_state_vars.sol\":3454:3462  balances */\n      0x05\n        /* \"contracts/erc20_state_vars.sol\":3454:3474  balances[msg.sender] */\n      0x00\n        /* \"contracts/erc20_state_vars.sol\":3463:3473  msg.sender */\n      caller\n        /* \"contracts/erc20_state_vars.sol\":3454:3474  balances[msg.sender] */\n      0xffffffffffffffffffffffffffffffffffffffff\n      and\n      0xffffffffffffffffffffffffffffffffffffffff\n      and\n      dup2\n      mstore\n      0x20\n      add\n      swap1\n      dup2\n      mstore\n      0x20\n      add\n      0x00\n      keccak256\n      sload\n        /* \"contracts/erc20_state_vars.sol\":3454:3484  balances[msg.sender] >= tokens */\n      lt\n      iszero\n        /* \"contracts/erc20_state_vars.sol\":3446:3485  require(balances[msg.sender] >= tokens) */\n      tag_100\n      jumpi\n      0x00\n      dup1\n      revert\n    tag_100:\n        /* \"contracts/erc20_state_vars.sol\":3555:3556  0 */\n      0x00\n        /* \"contracts/erc20_state_vars.sol\":3546:3552  tokens */\n      dup3\n        /* \"contracts/erc20_state_vars.sol\":3546:3556  tokens > 0 */\n      gt\n        /* \"contracts/erc20_state_vars.sol\":3538:3557  require(tokens > 0) */\n      tag_101\n      jumpi\n      0x00\n      dup1\n      revert\n    tag_101:\n        /* \"contracts/erc20_state_vars.sol\":3716:3722  tokens */\n      dup2\n        /* \"contracts/erc20_state_vars.sol\":3685:3692  allowed */\n      0x06\n        /* \"contracts/erc20_state_vars.sol\":3685:3704  allowed[msg.sender] */\n      0x00\n        /* \"contracts/erc20_state_vars.sol\":3693:3703  msg.sender */\n      caller\n        /* \"contracts/erc20_state_vars.sol\":3685:3704  allowed[msg.sender] */\n      0xffffffffffffffffffffffffffffffffffffffff\n      and\n      0xffffffffffffffffffffffffffffffffffffffff\n      and\n      dup2\n      mstore\n      0x20\n      add\n      swap1\n      dup2\n      mstore\n      0x20\n      add\n      0x00\n      keccak256\n        /* \"contracts/erc20_state_vars.sol\":3685:3713  allowed[msg.sender][spender] */\n      0x00\n        /* \"contracts/erc20_state_vars.sol\":3705:3712  spender */\n      dup6\n        /* \"contracts/erc20_state_vars.sol\":3685:3713  allowed[msg.sender][spender] */\n      0xffffffffffffffffffffffffffffffffffffffff\n      and\n      0xffffffffffffffffffffffffffffffffffffffff\n      and\n      dup2\n      mstore\n      0x20\n      add\n      swap1\n      dup2\n      mstore\n      0x20\n      add\n      0x00\n      keccak256\n        /* \"contracts/erc20_state_vars.sol\":3685:3722  allowed[msg.sender][spender] = tokens */\n      dup2\n      swap1\n      sstore\n      pop\n        /* \"contracts/erc20_state_vars.sol\":3799:3806  spender */\n      dup3\n        /* \"contracts/erc20_state_vars.sol\":3778:3815  Approval(msg.sender, spender, tokens) */\n      0xffffffffffffffffffffffffffffffffffffffff\n      and\n        /* \"contracts/erc20_state_vars.sol\":3787:3797  msg.sender */\n      caller\n        /* \"contracts/erc20_state_vars.sol\":3778:3815  Approval(msg.sender, spender, tokens) */\n      0xffffffffffffffffffffffffffffffffffffffff\n      and\n      0x8c5be1e5ebec7d5bd14f71427d1e84f3dd0314c0f7b2291e5b200ac8c7c3b925\n        /* \"contracts/erc20_state_vars.sol\":3808:3814  tokens */\n      dup5\n        /* \"contracts/erc20_state_vars.sol\":3778:3815  Approval(msg.sender, spender, tokens) */\n      mload(0x40)\n      tag_102\n      swap2\n      swap1\n      tag_37\n      jump\t// in\n    tag_102:\n      mload(0x40)\n      dup1\n      swap2\n      sub\n      swap1\n      log3\n        /* \"contracts/erc20_state_vars.sol\":3860:3864  true */\n      0x01\n        /* \"contracts/erc20_state_vars.sol\":3853:3864  return true */\n      swap1\n      pop\n        /* \"contracts/erc20_state_vars.sol\":3262:3874  function approve(address spender, uint tokens) public override returns (bool success){\r... */\n      swap3\n      swap2\n      pop\n      pop\n      jump\t// out\n        /* \"contracts/erc20_state_vars.sol\":1332:1364  uint public override totalSupply */\n    tag_35:\n      sload(0x03)\n      dup2\n      jump\t// out\n        /* \"contracts/erc20_state_vars.sol\":3882:4641  function transferFrom(address from, address to, uint tokens) public override returns (bool){\r... */\n    tag_41:\n        /* \"contracts/erc20_state_vars.sol\":3968:3972  bool */\n      0x00\n        /* \"contracts/erc20_state_vars.sol\":4105:4111  tokens */\n      dup2\n        /* \"contracts/erc20_state_vars.sol\":4076:4083  allowed */\n      0x06\n        /* \"contracts/erc20_state_vars.sol\":4076:4089  allowed[from] */\n      0x00\n        /* \"contracts/erc20_state_vars.sol\":4084:4088  from */\n      dup7\n        /* \"contracts/erc20_state_vars.sol\":4076:4089  allowed[from] */\n      0xffffffffffffffffffffffffffffffffffffffff\n      and\n      0xffffffffffffffffffffffffffffffffffffffff\n      and\n      dup2\n      mstore\n      0x20\n      add\n      swap1\n      dup2\n      mstore\n      0x20\n      add\n      0x00\n      keccak256\n        /* \"contracts/erc20_state_vars.sol\":4076:4101  allowed[from][msg.sender] */\n      0x00\n        /* \"contracts/erc20_state_vars.sol\":4090:4100  msg.sender */\n      caller\n        /* \"contracts/erc20_state_vars.sol\":4076:4101  allowed[from][msg.sender] */\n      0xffffffffffffffffffffffffffffffffffffffff\n      and\n      0xffffffffffffffffffffffffffffffffffffffff\n      and\n      dup2\n      mstore\n      0x20\n      add\n      swap1\n      dup2\n      mstore\n      0x20\n      add\n      0x00\n      keccak256\n      sload\n        /* \"contracts/erc20_state_vars.sol\":4076:4111  allowed[from][msg.sender] >= tokens */\n      lt\n      iszero\n        /* \"contracts/erc20_state_vars.sol\":4068:4112  require(allowed[from][msg.sender] >= tokens) */\n      tag_104\n      jumpi\n      0x00\n      dup1\n      revert\n    tag_104:\n        /* \"contracts/erc20_state_vars.sol\":4224:4230  tokens */\n      dup2\n        /* \"contracts/erc20_state_vars.sol\":4206:4214  balances */\n      0x05\n        /* \"contracts/erc20_state_vars.sol\":4206:4220  balances[from] */\n      0x00\n        /* \"contracts/erc20_state_vars.sol\":4215:4219  from */\n      dup7\n        /* \"contracts/erc20_state_vars.sol\":4206:4220  balances[from] */\n      0xffffffffffffffffffffffffffffffffffffffff\n      and\n      0xffffffffffffffffffffffffffffffffffffffff\n      and\n      dup2\n      mstore\n      0x20\n      add\n      swap1\n      dup2\n      mstore\n      0x20\n      add\n      0x00\n      keccak256\n      sload\n        /* \"contracts/erc20_state_vars.sol\":4206:4230  balances[from] >= tokens */\n      lt\n      iszero\n        /* \"contracts/erc20_state_vars.sol\":4198:4231  require(balances[from] >= tokens) */\n      tag_105\n      jumpi\n      0x00\n      dup1\n      revert\n    tag_105:\n        /* \"contracts/erc20_state_vars.sol\":4317:4323  tokens */\n      dup2\n        /* \"contracts/erc20_state_vars.sol\":4299:4307  balances */\n      0x05\n        /* \"contracts/erc20_state_vars.sol\":4299:4313  balances[from] */\n      0x00\n        /* \"contracts/erc20_state_vars.sol\":4308:4312  from */\n      dup7\n        /* \"contracts/erc20_state_vars.sol\":4299:4313  balances[from] */\n      0xffffffffffffffffffffffffffffffffffffffff\n      and\n      0xffffffffffffffffffffffffffffffffffffffff\n      and\n      dup2\n      mstore\n      0x20\n      add\n      swap1\n      dup2\n      mstore\n      0x20\n      add\n      0x00\n      keccak256\n      0x00\n        /* \"contracts/erc20_state_vars.sol\":4299:4323  balances[from] -= tokens */\n      dup3\n      dup3\n      sload\n      tag_106\n      swap2\n      swap1\n      tag_107\n      jump\t// in\n    tag_106:\n      swap3\n      pop\n      pop\n      dup2\n      swap1\n      sstore\n      pop\n        /* \"contracts/erc20_state_vars.sol\":4424:4430  tokens */\n      dup2\n        /* \"contracts/erc20_state_vars.sol\":4395:4402  allowed */\n      0x06\n        /* \"contracts/erc20_state_vars.sol\":4395:4408  allowed[from] */\n      0x00\n        /* \"contracts/erc20_state_vars.sol\":4403:4407  from */\n      dup7\n        /* \"contracts/erc20_state_vars.sol\":4395:4408  allowed[from] */\n      0xffffffffffffffffffffffffffffffffffffffff\n      and\n      0xffffffffffffffffffffffffffffffffffffffff\n      and\n      dup2\n      mstore\n      0x20\n      add\n      swap1\n      dup2\n      mstore\n      0x20\n      add\n      0x00\n      keccak256\n        /* \"contracts/erc20_state_vars.sol\":4395:4420  allowed[from][msg.sender] */\n      0x00\n        /* \"contracts/erc20_state_vars.sol\":4409:4419  msg.sender */\n      caller\n        /* \"contracts/erc20_state_vars.sol\":4395:4420  allowed[from][msg.sender] */\n      0xffffffffffffffffffffffffffffffffffffffff\n      and\n      0xffffffffffffffffffffffffffffffffffffffff\n      and\n      dup2\n      mstore\n      0x20\n      add\n      swap1\n      dup2\n      mstore\n      0x20\n      add\n      0x00\n      keccak256\n      0x00\n        /* \"contracts/erc20_state_vars.sol\":4395:4430  allowed[from][msg.sender] -= tokens */\n      dup3\n      dup3\n      sload\n      tag_108\n      swap2\n      swap1\n      tag_107\n      jump\t// in\n    tag_108:\n      swap3\n      pop\n      pop\n      dup2\n      swap1\n      sstore\n      pop\n        /* \"contracts/erc20_state_vars.sol\":4506:4512  tokens */\n      dup2\n        /* \"contracts/erc20_state_vars.sol\":4490:4498  balances */\n      0x05\n        /* \"contracts/erc20_state_vars.sol\":4490:4502  balances[to] */\n      0x00\n        /* \"contracts/erc20_state_vars.sol\":4499:4501  to */\n      dup6\n        /* \"contracts/erc20_state_vars.sol\":4490:4502  balances[to] */\n      0xffffffffffffffffffffffffffffffffffffffff\n      and\n      0xffffffffffffffffffffffffffffffffffffffff\n      and\n      dup2\n      mstore\n      0x20\n      add\n      swap1\n      dup2\n      mstore\n      0x20\n      add\n      0x00\n      keccak256\n      0x00\n        /* \"contracts/erc20_state_vars.sol\":4490:4512  balances[to] += tokens */\n      dup3\n      dup3\n      sload\n      tag_109\n      swap2\n      swap1\n      tag_110\n      jump\t// in\n    tag_109:\n      swap3\n      pop\n      pop\n      dup2\n      swap1\n      sstore\n      pop\n        /* \"contracts/erc20_state_vars.sol\":4570:4572  to */\n      dup3\n        /* \"contracts/erc20_state_vars.sol\":4555:4581  Transfer(from, to, tokens) */\n      0xffffffffffffffffffffffffffffffffffffffff\n      and\n        /* \"contracts/erc20_state_vars.sol\":4564:4568  from */\n      dup5\n        /* \"contracts/erc20_state_vars.sol\":4555:4581  Transfer(from, to, tokens) */\n      0xffffffffffffffffffffffffffffffffffffffff\n      and\n      0xddf252ad1be2c89b69c2b068fc378daa952ba7f163c4a11628f55a4df523b3ef\n        /* \"contracts/erc20_state_vars.sol\":4574:4580  tokens */\n      dup5\n        /* \"contracts/erc20_state_vars.sol\":4555:4581  Transfer(from, to, tokens) */\n      mload(0x40)\n      tag_111\n      swap2\n      swap1\n      tag_37\n      jump\t// in\n    tag_111:\n      mload(0x40)\n      dup1\n      swap2\n      sub\n      swap1\n      log3\n        /* \"contracts/erc20_state_vars.sol\":4627:4631  true */\n      0x01\n        /* \"contracts/erc20_state_vars.sol\":4620:4631  return true */\n      swap1\n      pop\n        /* \"contracts/erc20_state_vars.sol\":3882:4641  function transferFrom(address from, address to, uint tokens) public override returns (bool){\r... */\n      swap4\n      swap3\n      pop\n      pop\n      pop\n      jump\t// out\n        /* \"contracts/erc20_state_vars.sol\":1502:1543  mapping (address => uint) public balances */\n    tag_46:\n      mstore(0x20, 0x05)\n      dup1\n      0x00\n      mstore\n      keccak256(0x00, 0x40)\n      0x00\n      swap2\n      pop\n      swap1\n      pop\n      sload\n      dup2\n      jump\t// out\n        /* \"contracts/erc20_state_vars.sol\":1223:1247  uint public decimals = 0 */\n    tag_49:\n      sload(0x02)\n      dup2\n      jump\t// out\n        /* \"contracts/erc20_state_vars.sol\":1402:1424  address public founder */\n    tag_52:\n      0x04\n      0x00\n      swap1\n      sload\n      swap1\n      0x0100\n      exp\n      swap1\n      div\n      0xffffffffffffffffffffffffffffffffffffffff\n      and\n      dup2\n      jump\t// out\n        /* \"contracts/erc20_state_vars.sol\":2214:2346  function balanceOf(address tokenOwner) public view override returns (uint balance){\r... */\n    tag_57:\n        /* \"contracts/erc20_state_vars.sol\":2283:2295  uint balance */\n      0x00\n        /* \"contracts/erc20_state_vars.sol\":2316:2324  balances */\n      0x05\n        /* \"contracts/erc20_state_vars.sol\":2316:2336  balances[tokenOwner] */\n      0x00\n        /* \"contracts/erc20_state_vars.sol\":2325:2335  tokenOwner */\n      dup4\n        /* \"contracts/erc20_state_vars.sol\":2316:2336  balances[tokenOwner] */\n      0xffffffffffffffffffffffffffffffffffffffff\n      and\n      0xffffffffffffffffffffffffffffffffffffffff\n      and\n      dup2\n      mstore\n      0x20\n      add\n      swap1\n      dup2\n      mstore\n      0x20\n      add\n      0x00\n      keccak256\n      sload\n        /* \"contracts/erc20_state_vars.sol\":2309:2336  return balances[tokenOwner] */\n      swap1\n      pop\n        /* \"contracts/erc20_state_vars.sol\":2214:2346  function balanceOf(address tokenOwner) public view override returns (uint balance){\r... */\n      swap2\n      swap1\n      pop\n      jump\t// out\n        /* \"contracts/erc20_state_vars.sol\":1186:1216  string public symbol = \"PENNY\" */\n    tag_60:\n      0x01\n      dup1\n      sload\n      tag_113\n      swap1\n      tag_94\n      jump\t// in\n    tag_113:\n      dup1\n      0x1f\n      add\n      0x20\n      dup1\n      swap2\n      div\n      mul\n      0x20\n      add\n      mload(0x40)\n      swap1\n      dup2\n      add\n      0x40\n      mstore\n      dup1\n      swap3\n      swap2\n      swap1\n      dup2\n      dup2\n      mstore\n      0x20\n      add\n      dup3\n      dup1\n      sload\n      tag_114\n      swap1\n      tag_94\n      jump\t// in\n    tag_114:\n      dup1\n      iszero\n      tag_115\n      jumpi\n      dup1\n      0x1f\n      lt\n      tag_116\n      jumpi\n      0x0100\n      dup1\n      dup4\n      sload\n      div\n      mul\n      dup4\n      mstore\n      swap2\n      0x20\n      add\n      swap2\n      jump(tag_115)\n    tag_116:\n      dup3\n      add\n      swap2\n      swap1\n      0x00\n      mstore\n      keccak256(0x00, 0x20)\n      swap1\n    tag_117:\n      dup2\n      sload\n      dup2\n      mstore\n      swap1\n      0x01\n      add\n      swap1\n      0x20\n      add\n      dup1\n      dup4\n      gt\n      tag_117\n      jumpi\n      dup3\n      swap1\n      sub\n      0x1f\n      and\n      dup3\n      add\n      swap2\n    tag_115:\n      pop\n      pop\n      pop\n      pop\n      pop\n      dup2\n      jump\t// out\n        /* \"contracts/erc20_state_vars.sol\":2404:2979  function transfer(address to, uint tokens) public override returns (bool success){\r... */\n    tag_64:\n        /* \"contracts/erc20_state_vars.sol\":2472:2484  bool success */\n      0x00\n        /* \"contracts/erc20_state_vars.sol\":2614:2620  tokens */\n      dup2\n        /* \"contracts/erc20_state_vars.sol\":2590:2598  balances */\n      0x05\n        /* \"contracts/erc20_state_vars.sol\":2590:2610  balances[msg.sender] */\n      0x00\n        /* \"contracts/erc20_state_vars.sol\":2599:2609  msg.sender */\n      caller\n        /* \"contracts/erc20_state_vars.sol\":2590:2610  balances[msg.sender] */\n      0xffffffffffffffffffffffffffffffffffffffff\n      and\n      0xffffffffffffffffffffffffffffffffffffffff\n      and\n      dup2\n      mstore\n      0x20\n      add\n      swap1\n      dup2\n      mstore\n      0x20\n      add\n      0x00\n      keccak256\n      sload\n        /* \"contracts/erc20_state_vars.sol\":2590:2620  balances[msg.sender] >= tokens */\n      lt\n      iszero\n        /* \"contracts/erc20_state_vars.sol\":2582:2621  require(balances[msg.sender] >= tokens) */\n      tag_119\n      jumpi\n      0x00\n      dup1\n      revert\n    tag_119:\n        /* \"contracts/erc20_state_vars.sol\":2712:2718  tokens */\n      dup2\n        /* \"contracts/erc20_state_vars.sol\":2696:2704  balances */\n      0x05\n        /* \"contracts/erc20_state_vars.sol\":2696:2708  balances[to] */\n      0x00\n        /* \"contracts/erc20_state_vars.sol\":2705:2707  to */\n      dup6\n        /* \"contracts/erc20_state_vars.sol\":2696:2708  balances[to] */\n      0xffffffffffffffffffffffffffffffffffffffff\n      and\n      0xffffffffffffffffffffffffffffffffffffffff\n      and\n      dup2\n      mstore\n      0x20\n      add\n      swap1\n      dup2\n      mstore\n      0x20\n      add\n      0x00\n      keccak256\n      0x00\n        /* \"contracts/erc20_state_vars.sol\":2696:2718  balances[to] += tokens */\n      dup3\n      dup3\n      sload\n      tag_120\n      swap2\n      swap1\n      tag_110\n      jump\t// in\n    tag_120:\n      swap3\n      pop\n      pop\n      dup2\n      swap1\n      sstore\n      pop\n        /* \"contracts/erc20_state_vars.sol\":2813:2819  tokens */\n      dup2\n        /* \"contracts/erc20_state_vars.sol\":2789:2797  balances */\n      0x05\n        /* \"contracts/erc20_state_vars.sol\":2789:2809  balances[msg.sender] */\n      0x00\n        /* \"contracts/erc20_state_vars.sol\":2798:2808  msg.sender */\n      caller\n        /* \"contracts/erc20_state_vars.sol\":2789:2809  balances[msg.sender] */\n      0xffffffffffffffffffffffffffffffffffffffff\n      and\n      0xffffffffffffffffffffffffffffffffffffffff\n      and\n      dup2\n      mstore\n      0x20\n      add\n      swap1\n      dup2\n      mstore\n      0x20\n      add\n      0x00\n      keccak256\n      0x00\n        /* \"contracts/erc20_state_vars.sol\":2789:2819  balances[msg.sender] -= tokens */\n      dup3\n      dup3\n      sload\n      tag_121\n      swap2\n      swap1\n      tag_107\n      jump\t// in\n    tag_121:\n      swap3\n      pop\n      pop\n      dup2\n      swap1\n      sstore\n      pop\n        /* \"contracts/erc20_state_vars.sol\":2907:2909  to */\n      dup3\n        /* \"contracts/erc20_state_vars.sol\":2886:2918  Transfer(msg.sender, to, tokens) */\n      0xffffffffffffffffffffffffffffffffffffffff\n      and\n        /* \"contracts/erc20_state_vars.sol\":2895:2905  msg.sender */\n      caller\n        /* \"contracts/erc20_state_vars.sol\":2886:2918  Transfer(msg.sender, to, tokens) */\n      0xffffffffffffffffffffffffffffffffffffffff\n      and\n      0xddf252ad1be2c89b69c2b068fc378daa952ba7f163c4a11628f55a4df523b3ef\n        /* \"contracts/erc20_state_vars.sol\":2911:2917  tokens */\n      dup5\n        /* \"contracts/erc20_state_vars.sol\":2886:2918  Transfer(msg.sender, to, tokens) */\n      mload(0x40)\n      tag_122\n      swap2\n      swap1\n      tag_37\n      jump\t// in\n    tag_122:\n      mload(0x40)\n      dup1\n      swap2\n      sub\n      swap1\n      log3\n        /* \"contracts/erc20_state_vars.sol\":2965:2969  true */\n      0x01\n        /* \"contracts/erc20_state_vars.sol\":2958:2969  return true */\n      swap1\n      pop\n        /* \"contracts/erc20_state_vars.sol\":2404:2979  function transfer(address to, uint tokens) public override returns (bool success){\r... */\n      swap3\n      swap2\n      pop\n      pop\n      jump\t// out\n        /* \"contracts/erc20_state_vars.sol\":5072:5116  uint public saleStart = block.timestamp + 10 */\n    tag_67:\n      sload(0x0c)\n      dup2\n      jump\t// out\n        /* \"contracts/erc20_state_vars.sol\":5161:5214  uint public saleEnd = block.timestamp + 3600 * 24 * 7 */\n    tag_70:\n      sload(0x0d)\n      dup2\n      jump\t// out\n        /* \"contracts/erc20_state_vars.sol\":5020:5044  uint public raisedAmount */\n    tag_73:\n      sload(0x0b)\n      dup2\n      jump\t// out\n        /* \"contracts/erc20_state_vars.sol\":5315:5361  uint public tokenTradeStart = saleEnd + 604800 */\n    tag_76:\n      sload(0x0e)\n      dup2\n      jump\t// out\n        /* \"contracts/erc20_state_vars.sol\":4785:4815  address payable public deposit */\n    tag_79:\n      0x08\n      0x00\n      swap1\n      sload\n      swap1\n      0x0100\n      exp\n      swap1\n      div\n      0xffffffffffffffffffffffffffffffffffffffff\n      and\n      dup2\n      jump\t// out\n        /* \"contracts/erc20_state_vars.sol\":3109:3254  function allowance(address tokenOwner, address spender) public view override returns (uint){\r... */\n    tag_85:\n        /* \"contracts/erc20_state_vars.sol\":3195:3199  uint */\n      0x00\n        /* \"contracts/erc20_state_vars.sol\":3218:3225  allowed */\n      0x06\n        /* \"contracts/erc20_state_vars.sol\":3218:3237  allowed[tokenOwner] */\n      0x00\n        /* \"contracts/erc20_state_vars.sol\":3226:3236  tokenOwner */\n      dup5\n        /* \"contracts/erc20_state_vars.sol\":3218:3237  allowed[tokenOwner] */\n      0xffffffffffffffffffffffffffffffffffffffff\n      and\n      0xffffffffffffffffffffffffffffffffffffffff\n      and\n      dup2\n      mstore\n      0x20\n      add\n      swap1\n      dup2\n      mstore\n      0x20\n      add\n      0x00\n      keccak256\n        /* \"contracts/erc20_state_vars.sol\":3218:3246  allowed[tokenOwner][spender] */\n      0x00\n        /* \"contracts/erc20_state_vars.sol\":3238:3245  spender */\n      dup4\n        /* \"contracts/erc20_state_vars.sol\":3218:3246  allowed[tokenOwner][spender] */\n      0xffffffffffffffffffffffffffffffffffffffff\n      and\n      0xffffffffffffffffffffffffffffffffffffffff\n      and\n      dup2\n      mstore\n      0x20\n      add\n      swap1\n      dup2\n      mstore\n      0x20\n      add\n      0x00\n      keccak256\n      sload\n        /* \"contracts/erc20_state_vars.sol\":3211:3246  return allowed[tokenOwner][spender] */\n      swap1\n      pop\n        /* \"contracts/erc20_state_vars.sol\":3109:3254  function allowance(address tokenOwner, address spender) public view override returns (uint){\r... */\n      swap3\n      swap2\n      pop\n      pop\n      jump\t// out\n        /* \"contracts/erc20_state_vars.sol\":4726:4746  address public admin */\n    tag_88:\n      0x07\n      0x00\n      swap1\n      sload\n      swap1\n      0x0100\n      exp\n      swap1\n      div\n      0xffffffffffffffffffffffffffffffffffffffff\n      and\n      dup2\n      jump\t// out\n        /* \"contracts/erc20_state_vars.sol\":4942:4973  uint public hardCap = 300 ether */\n    tag_91:\n      sload(0x0a)\n      dup2\n      jump\t// out\n        /* \"#utility.yul\":7:146   */\n    tag_125:\n        /* \"#utility.yul\":53:58   */\n      0x00\n        /* \"#utility.yul\":91:97   */\n      dup2\n        /* \"#utility.yul\":78:98   */\n      calldataload\n        /* \"#utility.yul\":69:98   */\n      swap1\n      pop\n        /* \"#utility.yul\":107:140   */\n      tag_127\n        /* \"#utility.yul\":134:139   */\n      dup2\n        /* \"#utility.yul\":107:140   */\n      tag_128\n      jump\t// in\n    tag_127:\n        /* \"#utility.yul\":7:146   */\n      swap3\n      swap2\n      pop\n      pop\n      jump\t// out\n        /* \"#utility.yul\":152:291   */\n    tag_129:\n        /* \"#utility.yul\":198:203   */\n      0x00\n        /* \"#utility.yul\":236:242   */\n      dup2\n        /* \"#utility.yul\":223:243   */\n      calldataload\n        /* \"#utility.yul\":214:243   */\n      swap1\n      pop\n        /* \"#utility.yul\":252:285   */\n      tag_131\n        /* \"#utility.yul\":279:284   */\n      dup2\n        /* \"#utility.yul\":252:285   */\n      tag_132\n      jump\t// in\n    tag_131:\n        /* \"#utility.yul\":152:291   */\n      swap3\n      swap2\n      pop\n      pop\n      jump\t// out\n        /* \"#utility.yul\":297:626   */\n    tag_45:\n        /* \"#utility.yul\":356:362   */\n      0x00\n        /* \"#utility.yul\":405:407   */\n      0x20\n        /* \"#utility.yul\":393:402   */\n      dup3\n        /* \"#utility.yul\":384:391   */\n      dup5\n        /* \"#utility.yul\":380:403   */\n      sub\n        /* \"#utility.yul\":376:408   */\n      slt\n        /* \"#utility.yul\":373:492   */\n      iszero\n      tag_134\n      jumpi\n        /* \"#utility.yul\":411:490   */\n      tag_135\n      tag_136\n      jump\t// in\n    tag_135:\n        /* \"#utility.yul\":373:492   */\n    tag_134:\n        /* \"#utility.yul\":531:532   */\n      0x00\n        /* \"#utility.yul\":556:609   */\n      tag_137\n        /* \"#utility.yul\":601:608   */\n      dup5\n        /* \"#utility.yul\":592:598   */\n      dup3\n        /* \"#utility.yul\":581:590   */\n      dup6\n        /* \"#utility.yul\":577:599   */\n      add\n        /* \"#utility.yul\":556:609   */\n      tag_125\n      jump\t// in\n    tag_137:\n        /* \"#utility.yul\":546:609   */\n      swap2\n      pop\n        /* \"#utility.yul\":502:619   */\n      pop\n        /* \"#utility.yul\":297:626   */\n      swap3\n      swap2\n      pop\n      pop\n      jump\t// out\n        /* \"#utility.yul\":632:1106   */\n    tag_84:\n        /* \"#utility.yul\":700:706   */\n      0x00\n        /* \"#utility.yul\":708:714   */\n      dup1\n        /* \"#utility.yul\":757:759   */\n      0x40\n        /* \"#utility.yul\":745:754   */\n      dup4\n        /* \"#utility.yul\":736:743   */\n      dup6\n        /* \"#utility.yul\":732:755   */\n      sub\n        /* \"#utility.yul\":728:760   */\n      slt\n        /* \"#utility.yul\":725:844   */\n      iszero\n      tag_139\n      jumpi\n        /* \"#utility.yul\":763:842   */\n      tag_140\n      tag_136\n      jump\t// in\n    tag_140:\n        /* \"#utility.yul\":725:844   */\n    tag_139:\n        /* \"#utility.yul\":883:884   */\n      0x00\n        /* \"#utility.yul\":908:961   */\n      tag_141\n        /* \"#utility.yul\":953:960   */\n      dup6\n        /* \"#utility.yul\":944:950   */\n      dup3\n        /* \"#utility.yul\":933:942   */\n      dup7\n        /* \"#utility.yul\":929:951   */\n      add\n        /* \"#utility.yul\":908:961   */\n      tag_125\n      jump\t// in\n    tag_141:\n        /* \"#utility.yul\":898:961   */\n      swap3\n      pop\n        /* \"#utility.yul\":854:971   */\n      pop\n        /* \"#utility.yul\":1010:1012   */\n      0x20\n        /* \"#utility.yul\":1036:1089   */\n      tag_142\n        /* \"#utility.yul\":1081:1088   */\n      dup6\n        /* \"#utility.yul\":1072:1078   */\n      dup3\n        /* \"#utility.yul\":1061:1070   */\n      dup7\n        /* \"#utility.yul\":1057:1079   */\n      add\n        /* \"#utility.yul\":1036:1089   */\n      tag_125\n      jump\t// in\n    tag_142:\n        /* \"#utility.yul\":1026:1089   */\n      swap2\n      pop\n        /* \"#utility.yul\":981:1099   */\n      pop\n        /* \"#utility.yul\":632:1106   */\n      swap3\n      pop\n      swap3\n      swap1\n      pop\n      jump\t// out\n        /* \"#utility.yul\":1112:1731   */\n    tag_40:\n        /* \"#utility.yul\":1189:1195   */\n      0x00\n        /* \"#utility.yul\":1197:1203   */\n      dup1\n        /* \"#utility.yul\":1205:1211   */\n      0x00\n        /* \"#utility.yul\":1254:1256   */\n      0x60\n        /* \"#utility.yul\":1242:1251   */\n      dup5\n        /* \"#utility.yul\":1233:1240   */\n      dup7\n        /* \"#utility.yul\":1229:1252   */\n      sub\n        /* \"#utility.yul\":1225:1257   */\n      slt\n        /* \"#utility.yul\":1222:1341   */\n      iszero\n      tag_144\n      jumpi\n        /* \"#utility.yul\":1260:1339   */\n      tag_145\n      tag_136\n      jump\t// in\n    tag_145:\n        /* \"#utility.yul\":1222:1341   */\n    tag_144:\n        /* \"#utility.yul\":1380:1381   */\n      0x00\n        /* \"#utility.yul\":1405:1458   */\n      tag_146\n        /* \"#utility.yul\":1450:1457   */\n      dup7\n        /* \"#utility.yul\":1441:1447   */\n      dup3\n        /* \"#utility.yul\":1430:1439   */\n      dup8\n        /* \"#utility.yul\":1426:1448   */\n      add\n        /* \"#utility.yul\":1405:1458   */\n      tag_125\n      jump\t// in\n    tag_146:\n        /* \"#utility.yul\":1395:1458   */\n      swap4\n      pop\n        /* \"#utility.yul\":1351:1468   */\n      pop\n        /* \"#utility.yul\":1507:1509   */\n      0x20\n        /* \"#utility.yul\":1533:1586   */\n      tag_147\n        /* \"#utility.yul\":1578:1585   */\n      dup7\n        /* \"#utility.yul\":1569:1575   */\n      dup3\n        /* \"#utility.yul\":1558:1567   */\n      dup8\n        /* \"#utility.yul\":1554:1576   */\n      add\n        /* \"#utility.yul\":1533:1586   */\n      tag_125\n      jump\t// in\n    tag_147:\n        /* \"#utility.yul\":1523:1586   */\n      swap3\n      pop\n        /* \"#utility.yul\":1478:1596   */\n      pop\n        /* \"#utility.yul\":1635:1637   */\n      0x40\n        /* \"#utility.yul\":1661:1714   */\n      tag_148\n        /* \"#utility.yul\":1706:1713   */\n      dup7\n        /* \"#utility.yul\":1697:1703   */\n      dup3\n        /* \"#utility.yul\":1686:1695   */\n      dup8\n        /* \"#utility.yul\":1682:1704   */\n      add\n        /* \"#utility.yul\":1661:1714   */\n      tag_129\n      jump\t// in\n    tag_148:\n        /* \"#utility.yul\":1651:1714   */\n      swap2\n      pop\n        /* \"#utility.yul\":1606:1724   */\n      pop\n        /* \"#utility.yul\":1112:1731   */\n      swap3\n      pop\n      swap3\n      pop\n      swap3\n      jump\t// out\n        /* \"#utility.yul\":1737:2211   */\n    tag_30:\n        /* \"#utility.yul\":1805:1811   */\n      0x00\n        /* \"#utility.yul\":1813:1819   */\n      dup1\n        /* \"#utility.yul\":1862:1864   */\n      0x40\n        /* \"#utility.yul\":1850:1859   */\n      dup4\n        /* \"#utility.yul\":1841:1848   */\n      dup6\n        /* \"#utility.yul\":1837:1860   */\n      sub\n        /* \"#utility.yul\":1833:1865   */\n      slt\n        /* \"#utility.yul\":1830:1949   */\n      iszero\n      tag_150\n      jumpi\n        /* \"#utility.yul\":1868:1947   */\n      tag_151\n      tag_136\n      jump\t// in\n    tag_151:\n        /* \"#utility.yul\":1830:1949   */\n    tag_150:\n        /* \"#utility.yul\":1988:1989   */\n      0x00\n        /* \"#utility.yul\":2013:2066   */\n      tag_152\n        /* \"#utility.yul\":2058:2065   */\n      dup6\n        /* \"#utility.yul\":2049:2055   */\n      dup3\n        /* \"#utility.yul\":2038:2047   */\n      dup7\n        /* \"#utility.yul\":2034:2056   */\n      add\n        /* \"#utility.yul\":2013:2066   */\n      tag_125\n      jump\t// in\n    tag_152:\n        /* \"#utility.yul\":2003:2066   */\n      swap3\n      pop\n        /* \"#utility.yul\":1959:2076   */\n      pop\n        /* \"#utility.yul\":2115:2117   */\n      0x20\n        /* \"#utility.yul\":2141:2194   */\n      tag_153\n        /* \"#utility.yul\":2186:2193   */\n      dup6\n        /* \"#utility.yul\":2177:2183   */\n      dup3\n        /* \"#utility.yul\":2166:2175   */\n      dup7\n        /* \"#utility.yul\":2162:2184   */\n      add\n        /* \"#utility.yul\":2141:2194   */\n      tag_129\n      jump\t// in\n    tag_153:\n        /* \"#utility.yul\":2131:2194   */\n      swap2\n      pop\n        /* \"#utility.yul\":2086:2204   */\n      pop\n        /* \"#utility.yul\":1737:2211   */\n      swap3\n      pop\n      swap3\n      swap1\n      pop\n      jump\t// out\n        /* \"#utility.yul\":2217:2359   */\n    tag_154:\n        /* \"#utility.yul\":2320:2352   */\n      tag_156\n        /* \"#utility.yul\":2346:2351   */\n      dup2\n        /* \"#utility.yul\":2320:2352   */\n      tag_157\n      jump\t// in\n    tag_156:\n        /* \"#utility.yul\":2315:2318   */\n      dup3\n        /* \"#utility.yul\":2308:2353   */\n      mstore\n        /* \"#utility.yul\":2217:2359   */\n      pop\n      pop\n      jump\t// out\n        /* \"#utility.yul\":2365:2483   */\n    tag_158:\n        /* \"#utility.yul\":2452:2476   */\n      tag_160\n        /* \"#utility.yul\":2470:2475   */\n      dup2\n        /* \"#utility.yul\":2452:2476   */\n      tag_161\n      jump\t// in\n    tag_160:\n        /* \"#utility.yul\":2447:2450   */\n      dup3\n        /* \"#utility.yul\":2440:2477   */\n      mstore\n        /* \"#utility.yul\":2365:2483   */\n      pop\n      pop\n      jump\t// out\n        /* \"#utility.yul\":2489:2598   */\n    tag_162:\n        /* \"#utility.yul\":2570:2591   */\n      tag_164\n        /* \"#utility.yul\":2585:2590   */\n      dup2\n        /* \"#utility.yul\":2570:2591   */\n      tag_165\n      jump\t// in\n    tag_164:\n        /* \"#utility.yul\":2565:2568   */\n      dup3\n        /* \"#utility.yul\":2558:2592   */\n      mstore\n        /* \"#utility.yul\":2489:2598   */\n      pop\n      pop\n      jump\t// out\n        /* \"#utility.yul\":2604:2968   */\n    tag_166:\n        /* \"#utility.yul\":2692:2695   */\n      0x00\n        /* \"#utility.yul\":2720:2759   */\n      tag_168\n        /* \"#utility.yul\":2753:2758   */\n      dup3\n        /* \"#utility.yul\":2720:2759   */\n      tag_169\n      jump\t// in\n    tag_168:\n        /* \"#utility.yul\":2775:2846   */\n      tag_170\n        /* \"#utility.yul\":2839:2845   */\n      dup2\n        /* \"#utility.yul\":2834:2837   */\n      dup6\n        /* \"#utility.yul\":2775:2846   */\n      tag_171\n      jump\t// in\n    tag_170:\n        /* \"#utility.yul\":2768:2846   */\n      swap4\n      pop\n        /* \"#utility.yul\":2855:2907   */\n      tag_172\n        /* \"#utility.yul\":2900:2906   */\n      dup2\n        /* \"#utility.yul\":2895:2898   */\n      dup6\n        /* \"#utility.yul\":2888:2892   */\n      0x20\n        /* \"#utility.yul\":2881:2886   */\n      dup7\n        /* \"#utility.yul\":2877:2893   */\n      add\n        /* \"#utility.yul\":2855:2907   */\n      tag_173\n      jump\t// in\n    tag_172:\n        /* \"#utility.yul\":2932:2961   */\n      tag_174\n        /* \"#utility.yul\":2954:2960   */\n      dup2\n        /* \"#utility.yul\":2932:2961   */\n      tag_175\n      jump\t// in\n    tag_174:\n        /* \"#utility.yul\":2927:2930   */\n      dup5\n        /* \"#utility.yul\":2923:2962   */\n      add\n        /* \"#utility.yul\":2916:2962   */\n      swap2\n      pop\n        /* \"#utility.yul\":2696:2968   */\n      pop\n        /* \"#utility.yul\":2604:2968   */\n      swap3\n      swap2\n      pop\n      pop\n      jump\t// out\n        /* \"#utility.yul\":2974:3092   */\n    tag_176:\n        /* \"#utility.yul\":3061:3085   */\n      tag_178\n        /* \"#utility.yul\":3079:3084   */\n      dup2\n        /* \"#utility.yul\":3061:3085   */\n      tag_179\n      jump\t// in\n    tag_178:\n        /* \"#utility.yul\":3056:3059   */\n      dup3\n        /* \"#utility.yul\":3049:3086   */\n      mstore\n        /* \"#utility.yul\":2974:3092   */\n      pop\n      pop\n      jump\t// out\n        /* \"#utility.yul\":3098:3320   */\n    tag_54:\n        /* \"#utility.yul\":3191:3195   */\n      0x00\n        /* \"#utility.yul\":3229:3231   */\n      0x20\n        /* \"#utility.yul\":3218:3227   */\n      dup3\n        /* \"#utility.yul\":3214:3232   */\n      add\n        /* \"#utility.yul\":3206:3232   */\n      swap1\n      pop\n        /* \"#utility.yul\":3242:3313   */\n      tag_181\n        /* \"#utility.yul\":3310:3311   */\n      0x00\n        /* \"#utility.yul\":3299:3308   */\n      dup4\n        /* \"#utility.yul\":3295:3312   */\n      add\n        /* \"#utility.yul\":3286:3292   */\n      dup5\n        /* \"#utility.yul\":3242:3313   */\n      tag_158\n      jump\t// in\n    tag_181:\n        /* \"#utility.yul\":3098:3320   */\n      swap3\n      swap2\n      pop\n      pop\n      jump\t// out\n        /* \"#utility.yul\":3326:3580   */\n    tag_81:\n        /* \"#utility.yul\":3435:3439   */\n      0x00\n        /* \"#utility.yul\":3473:3475   */\n      0x20\n        /* \"#utility.yul\":3462:3471   */\n      dup3\n        /* \"#utility.yul\":3458:3476   */\n      add\n        /* \"#utility.yul\":3450:3476   */\n      swap1\n      pop\n        /* \"#utility.yul\":3486:3573   */\n      tag_183\n        /* \"#utility.yul\":3570:3571   */\n      0x00\n        /* \"#utility.yul\":3559:3568   */\n      dup4\n        /* \"#utility.yul\":3555:3572   */\n      add\n        /* \"#utility.yul\":3546:3552   */\n      dup5\n        /* \"#utility.yul\":3486:3573   */\n      tag_154\n      jump\t// in\n    tag_183:\n        /* \"#utility.yul\":3326:3580   */\n      swap3\n      swap2\n      pop\n      pop\n      jump\t// out\n        /* \"#utility.yul\":3586:3796   */\n    tag_33:\n        /* \"#utility.yul\":3673:3677   */\n      0x00\n        /* \"#utility.yul\":3711:3713   */\n      0x20\n        /* \"#utility.yul\":3700:3709   */\n      dup3\n        /* \"#utility.yul\":3696:3714   */\n      add\n        /* \"#utility.yul\":3688:3714   */\n      swap1\n      pop\n        /* \"#utility.yul\":3724:3789   */\n      tag_185\n        /* \"#utility.yul\":3786:3787   */\n      0x00\n        /* \"#utility.yul\":3775:3784   */\n      dup4\n        /* \"#utility.yul\":3771:3788   */\n      add\n        /* \"#utility.yul\":3762:3768   */\n      dup5\n        /* \"#utility.yul\":3724:3789   */\n      tag_162\n      jump\t// in\n    tag_185:\n        /* \"#utility.yul\":3586:3796   */\n      swap3\n      swap2\n      pop\n      pop\n      jump\t// out\n        /* \"#utility.yul\":3802:4115   */\n    tag_27:\n        /* \"#utility.yul\":3915:3919   */\n      0x00\n        /* \"#utility.yul\":3953:3955   */\n      0x20\n        /* \"#utility.yul\":3942:3951   */\n      dup3\n        /* \"#utility.yul\":3938:3956   */\n      add\n        /* \"#utility.yul\":3930:3956   */\n      swap1\n      pop\n        /* \"#utility.yul\":4002:4011   */\n      dup2\n        /* \"#utility.yul\":3996:4000   */\n      dup2\n        /* \"#utility.yul\":3992:4012   */\n      sub\n        /* \"#utility.yul\":3988:3989   */\n      0x00\n        /* \"#utility.yul\":3977:3986   */\n      dup4\n        /* \"#utility.yul\":3973:3990   */\n      add\n        /* \"#utility.yul\":3966:4013   */\n      mstore\n        /* \"#utility.yul\":4030:4108   */\n      tag_187\n        /* \"#utility.yul\":4103:4107   */\n      dup2\n        /* \"#utility.yul\":4094:4100   */\n      dup5\n        /* \"#utility.yul\":4030:4108   */\n      tag_166\n      jump\t// in\n    tag_187:\n        /* \"#utility.yul\":4022:4108   */\n      swap1\n      pop\n        /* \"#utility.yul\":3802:4115   */\n      swap3\n      swap2\n      pop\n      pop\n      jump\t// out\n        /* \"#utility.yul\":4121:4343   */\n    tag_37:\n        /* \"#utility.yul\":4214:4218   */\n      0x00\n        /* \"#utility.yul\":4252:4254   */\n      0x20\n        /* \"#utility.yul\":4241:4250   */\n      dup3\n        /* \"#utility.yul\":4237:4255   */\n      add\n        /* \"#utility.yul\":4229:4255   */\n      swap1\n      pop\n        /* \"#utility.yul\":4265:4336   */\n      tag_189\n        /* \"#utility.yul\":4333:4334   */\n      0x00\n        /* \"#utility.yul\":4322:4331   */\n      dup4\n        /* \"#utility.yul\":4318:4335   */\n      add\n        /* \"#utility.yul\":4309:4315   */\n      dup5\n        /* \"#utility.yul\":4265:4336   */\n      tag_176\n      jump\t// in\n    tag_189:\n        /* \"#utility.yul\":4121:4343   */\n      swap3\n      swap2\n      pop\n      pop\n      jump\t// out\n        /* \"#utility.yul\":4430:4529   */\n    tag_169:\n        /* \"#utility.yul\":4482:4488   */\n      0x00\n        /* \"#utility.yul\":4516:4521   */\n      dup2\n        /* \"#utility.yul\":4510:4522   */\n      mload\n        /* \"#utility.yul\":4500:4522   */\n      swap1\n      pop\n        /* \"#utility.yul\":4430:4529   */\n      swap2\n      swap1\n      pop\n      jump\t// out\n        /* \"#utility.yul\":4535:4704   */\n    tag_171:\n        /* \"#utility.yul\":4619:4630   */\n      0x00\n        /* \"#utility.yul\":4653:4659   */\n      dup3\n        /* \"#utility.yul\":4648:4651   */\n      dup3\n        /* \"#utility.yul\":4641:4660   */\n      mstore\n        /* \"#utility.yul\":4693:4697   */\n      0x20\n        /* \"#utility.yul\":4688:4691   */\n      dup3\n        /* \"#utility.yul\":4684:4698   */\n      add\n        /* \"#utility.yul\":4669:4698   */\n      swap1\n      pop\n        /* \"#utility.yul\":4535:4704   */\n      swap3\n      swap2\n      pop\n      pop\n      jump\t// out\n        /* \"#utility.yul\":4710:5015   */\n    tag_110:\n        /* \"#utility.yul\":4750:4753   */\n      0x00\n        /* \"#utility.yul\":4769:4789   */\n      tag_195\n        /* \"#utility.yul\":4787:4788   */\n      dup3\n        /* \"#utility.yul\":4769:4789   */\n      tag_179\n      jump\t// in\n    tag_195:\n        /* \"#utility.yul\":4764:4789   */\n      swap2\n      pop\n        /* \"#utility.yul\":4803:4823   */\n      tag_196\n        /* \"#utility.yul\":4821:4822   */\n      dup4\n        /* \"#utility.yul\":4803:4823   */\n      tag_179\n      jump\t// in\n    tag_196:\n        /* \"#utility.yul\":4798:4823   */\n      swap3\n      pop\n        /* \"#utility.yul\":4957:4958   */\n      dup3\n        /* \"#utility.yul\":4889:4955   */\n      0xffffffffffffffffffffffffffffffffffffffffffffffffffffffffffffffff\n        /* \"#utility.yul\":4885:4959   */\n      sub\n        /* \"#utility.yul\":4882:4883   */\n      dup3\n        /* \"#utility.yul\":4879:4960   */\n      gt\n        /* \"#utility.yul\":4876:4983   */\n      iszero\n      tag_197\n      jumpi\n        /* \"#utility.yul\":4963:4981   */\n      tag_198\n      tag_199\n      jump\t// in\n    tag_198:\n        /* \"#utility.yul\":4876:4983   */\n    tag_197:\n        /* \"#utility.yul\":5007:5008   */\n      dup3\n        /* \"#utility.yul\":5004:5005   */\n      dup3\n        /* \"#utility.yul\":5000:5009   */\n      add\n        /* \"#utility.yul\":4993:5009   */\n      swap1\n      pop\n        /* \"#utility.yul\":4710:5015   */\n      swap3\n      swap2\n      pop\n      pop\n      jump\t// out\n        /* \"#utility.yul\":5021:5212   */\n    tag_107:\n        /* \"#utility.yul\":5061:5065   */\n      0x00\n        /* \"#utility.yul\":5081:5101   */\n      tag_201\n        /* \"#utility.yul\":5099:5100   */\n      dup3\n        /* \"#utility.yul\":5081:5101   */\n      tag_179\n      jump\t// in\n    tag_201:\n        /* \"#utility.yul\":5076:5101   */\n      swap2\n      pop\n        /* \"#utility.yul\":5115:5135   */\n      tag_202\n        /* \"#utility.yul\":5133:5134   */\n      dup4\n        /* \"#utility.yul\":5115:5135   */\n      tag_179\n      jump\t// in\n    tag_202:\n        /* \"#utility.yul\":5110:5135   */\n      swap3\n      pop\n        /* \"#utility.yul\":5154:5155   */\n      dup3\n        /* \"#utility.yul\":5151:5152   */\n      dup3\n        /* \"#utility.yul\":5148:5156   */\n      lt\n        /* \"#utility.yul\":5145:5179   */\n      iszero\n      tag_203\n      jumpi\n        /* \"#utility.yul\":5159:5177   */\n      tag_204\n      tag_199\n      jump\t// in\n    tag_204:\n        /* \"#utility.yul\":5145:5179   */\n    tag_203:\n        /* \"#utility.yul\":5204:5205   */\n      dup3\n        /* \"#utility.yul\":5201:5202   */\n      dup3\n        /* \"#utility.yul\":5197:5206   */\n      sub\n        /* \"#utility.yul\":5189:5206   */\n      swap1\n      pop\n        /* \"#utility.yul\":5021:5212   */\n      swap3\n      swap2\n      pop\n      pop\n      jump\t// out\n        /* \"#utility.yul\":5218:5314   */\n    tag_161:\n        /* \"#utility.yul\":5255:5262   */\n      0x00\n        /* \"#utility.yul\":5284:5308   */\n      tag_206\n        /* \"#utility.yul\":5302:5307   */\n      dup3\n        /* \"#utility.yul\":5284:5308   */\n      tag_207\n      jump\t// in\n    tag_206:\n        /* \"#utility.yul\":5273:5308   */\n      swap1\n      pop\n        /* \"#utility.yul\":5218:5314   */\n      swap2\n      swap1\n      pop\n      jump\t// out\n        /* \"#utility.yul\":5320:5424   */\n    tag_157:\n        /* \"#utility.yul\":5365:5372   */\n      0x00\n        /* \"#utility.yul\":5394:5418   */\n      tag_209\n        /* \"#utility.yul\":5412:5417   */\n      dup3\n        /* \"#utility.yul\":5394:5418   */\n      tag_207\n      jump\t// in\n    tag_209:\n        /* \"#utility.yul\":5383:5418   */\n      swap1\n      pop\n        /* \"#utility.yul\":5320:5424   */\n      swap2\n      swap1\n      pop\n      jump\t// out\n        /* \"#utility.yul\":5430:5520   */\n    tag_165:\n        /* \"#utility.yul\":5464:5471   */\n      0x00\n        /* \"#utility.yul\":5507:5512   */\n      dup2\n        /* \"#utility.yul\":5500:5513   */\n      iszero\n        /* \"#utility.yul\":5493:5514   */\n      iszero\n        /* \"#utility.yul\":5482:5514   */\n      swap1\n      pop\n        /* \"#utility.yul\":5430:5520   */\n      swap2\n      swap1\n      pop\n      jump\t// out\n        /* \"#utility.yul\":5526:5652   */\n    tag_207:\n        /* \"#utility.yul\":5563:5570   */\n      0x00\n        /* \"#utility.yul\":5603:5645   */\n      0xffffffffffffffffffffffffffffffffffffffff\n        /* \"#utility.yul\":5596:5601   */\n      dup3\n        /* \"#utility.yul\":5592:5646   */\n      and\n        /* \"#utility.yul\":5581:5646   */\n      swap1\n      pop\n        /* \"#utility.yul\":5526:5652   */\n      swap2\n      swap1\n      pop\n      jump\t// out\n        /* \"#utility.yul\":5658:5735   */\n    tag_179:\n        /* \"#utility.yul\":5695:5702   */\n      0x00\n        /* \"#utility.yul\":5724:5729   */\n      dup2\n        /* \"#utility.yul\":5713:5729   */\n      swap1\n      pop\n        /* \"#utility.yul\":5658:5735   */\n      swap2\n      swap1\n      pop\n      jump\t// out\n        /* \"#utility.yul\":5741:6048   */\n    tag_173:\n        /* \"#utility.yul\":5809:5810   */\n      0x00\n        /* \"#utility.yul\":5819:5932   */\n    tag_214:\n        /* \"#utility.yul\":5833:5839   */\n      dup4\n        /* \"#utility.yul\":5830:5831   */\n      dup2\n        /* \"#utility.yul\":5827:5840   */\n      lt\n        /* \"#utility.yul\":5819:5932   */\n      iszero\n      tag_216\n      jumpi\n        /* \"#utility.yul\":5918:5919   */\n      dup1\n        /* \"#utility.yul\":5913:5916   */\n      dup3\n        /* \"#utility.yul\":5909:5920   */\n      add\n        /* \"#utility.yul\":5903:5921   */\n      mload\n        /* \"#utility.yul\":5899:5900   */\n      dup2\n        /* \"#utility.yul\":5894:5897   */\n      dup5\n        /* \"#utility.yul\":5890:5901   */\n      add\n        /* \"#utility.yul\":5883:5922   */\n      mstore\n        /* \"#utility.yul\":5855:5857   */\n      0x20\n        /* \"#utility.yul\":5852:5853   */\n      dup2\n        /* \"#utility.yul\":5848:5858   */\n      add\n        /* \"#utility.yul\":5843:5858   */\n      swap1\n      pop\n        /* \"#utility.yul\":5819:5932   */\n      jump(tag_214)\n    tag_216:\n        /* \"#utility.yul\":5950:5956   */\n      dup4\n        /* \"#utility.yul\":5947:5948   */\n      dup2\n        /* \"#utility.yul\":5944:5957   */\n      gt\n        /* \"#utility.yul\":5941:6042   */\n      iszero\n      tag_217\n      jumpi\n        /* \"#utility.yul\":6030:6031   */\n      0x00\n        /* \"#utility.yul\":6021:6027   */\n      dup5\n        /* \"#utility.yul\":6016:6019   */\n      dup5\n        /* \"#utility.yul\":6012:6028   */\n      add\n        /* \"#utility.yul\":6005:6032   */\n      mstore\n        /* \"#utility.yul\":5941:6042   */\n    tag_217:\n        /* \"#utility.yul\":5790:6048   */\n      pop\n        /* \"#utility.yul\":5741:6048   */\n      pop\n      pop\n      pop\n      jump\t// out\n        /* \"#utility.yul\":6054:6374   */\n    tag_94:\n        /* \"#utility.yul\":6098:6104   */\n      0x00\n        /* \"#utility.yul\":6135:6136   */\n      0x02\n        /* \"#utility.yul\":6129:6133   */\n      dup3\n        /* \"#utility.yul\":6125:6137   */\n      div\n        /* \"#utility.yul\":6115:6137   */\n      swap1\n      pop\n        /* \"#utility.yul\":6182:6183   */\n      0x01\n        /* \"#utility.yul\":6176:6180   */\n      dup3\n        /* \"#utility.yul\":6172:6184   */\n      and\n        /* \"#utility.yul\":6203:6221   */\n      dup1\n        /* \"#utility.yul\":6193:6274   */\n      tag_219\n      jumpi\n        /* \"#utility.yul\":6259:6263   */\n      0x7f\n        /* \"#utility.yul\":6251:6257   */\n      dup3\n        /* \"#utility.yul\":6247:6264   */\n      and\n        /* \"#utility.yul\":6237:6264   */\n      swap2\n      pop\n        /* \"#utility.yul\":6193:6274   */\n    tag_219:\n        /* \"#utility.yul\":6321:6323   */\n      0x20\n        /* \"#utility.yul\":6313:6319   */\n      dup3\n        /* \"#utility.yul\":6310:6324   */\n      lt\n        /* \"#utility.yul\":6290:6308   */\n      dup2\n        /* \"#utility.yul\":6287:6325   */\n      eq\n        /* \"#utility.yul\":6284:6368   */\n      iszero\n      tag_220\n      jumpi\n        /* \"#utility.yul\":6340:6358   */\n      tag_221\n      tag_222\n      jump\t// in\n    tag_221:\n        /* \"#utility.yul\":6284:6368   */\n    tag_220:\n        /* \"#utility.yul\":6105:6374   */\n      pop\n        /* \"#utility.yul\":6054:6374   */\n      swap2\n      swap1\n      pop\n      jump\t// out\n        /* \"#utility.yul\":6380:6560   */\n    tag_199:\n        /* \"#utility.yul\":6428:6505   */\n      0x4e487b7100000000000000000000000000000000000000000000000000000000\n        /* \"#utility.yul\":6425:6426   */\n      0x00\n        /* \"#utility.yul\":6418:6506   */\n      mstore\n        /* \"#utility.yul\":6525:6529   */\n      0x11\n        /* \"#utility.yul\":6522:6523   */\n      0x04\n        /* \"#utility.yul\":6515:6530   */\n      mstore\n        /* \"#utility.yul\":6549:6553   */\n      0x24\n        /* \"#utility.yul\":6546:6547   */\n      0x00\n        /* \"#utility.yul\":6539:6554   */\n      revert\n        /* \"#utility.yul\":6566:6746   */\n    tag_222:\n        /* \"#utility.yul\":6614:6691   */\n      0x4e487b7100000000000000000000000000000000000000000000000000000000\n        /* \"#utility.yul\":6611:6612   */\n      0x00\n        /* \"#utility.yul\":6604:6692   */\n      mstore\n        /* \"#utility.yul\":6711:6715   */\n      0x22\n        /* \"#utility.yul\":6708:6709   */\n      0x04\n        /* \"#utility.yul\":6701:6716   */\n      mstore\n        /* \"#utility.yul\":6735:6739   */\n      0x24\n        /* \"#utility.yul\":6732:6733   */\n      0x00\n        /* \"#utility.yul\":6725:6740   */\n      revert\n        /* \"#utility.yul\":6875:6992   */\n    tag_136:\n        /* \"#utility.yul\":6984:6985   */\n      0x00\n        /* \"#utility.yul\":6981:6982   */\n      dup1\n        /* \"#utility.yul\":6974:6986   */\n      revert\n        /* \"#utility.yul\":6998:7100   */\n    tag_175:\n        /* \"#utility.yul\":7039:7045   */\n      0x00\n        /* \"#utility.yul\":7090:7092   */\n      0x1f\n        /* \"#utility.yul\":7086:7093   */\n      not\n        /* \"#utility.yul\":7081:7083   */\n      0x1f\n        /* \"#utility.yul\":7074:7079   */\n      dup4\n        /* \"#utility.yul\":7070:7084   */\n      add\n        /* \"#utility.yul\":7066:7094   */\n      and\n        /* \"#utility.yul\":7056:7094   */\n      swap1\n      pop\n        /* \"#utility.yul\":6998:7100   */\n      swap2\n      swap1\n      pop\n      jump\t// out\n        /* \"#utility.yul\":7106:7228   */\n    tag_128:\n        /* \"#utility.yul\":7179:7203   */\n      tag_230\n        /* \"#utility.yul\":7197:7202   */\n      dup2\n        /* \"#utility.yul\":7179:7203   */\n      tag_161\n      jump\t// in\n    tag_230:\n        /* \"#utility.yul\":7172:7177   */\n      dup2\n        /* \"#utility.yul\":7169:7204   */\n      eq\n        /* \"#utility.yul\":7159:7222   */\n      tag_231\n      jumpi\n        /* \"#utility.yul\":7218:7219   */\n      0x00\n        /* \"#utility.yul\":7215:7216   */\n      dup1\n        /* \"#utility.yul\":7208:7220   */\n      revert\n        /* \"#utility.yul\":7159:7222   */\n    tag_231:\n        /* \"#utility.yul\":7106:7228   */\n      pop\n      jump\t// out\n        /* \"#utility.yul\":7234:7356   */\n    tag_132:\n        /* \"#utility.yul\":7307:7331   */\n      tag_233\n        /* \"#utility.yul\":7325:7330   */\n      dup2\n        /* \"#utility.yul\":7307:7331   */\n      tag_179\n      jump\t// in\n    tag_233:\n        /* \"#utility.yul\":7300:7305   */\n      dup2\n        /* \"#utility.yul\":7297:7332   */\n      eq\n        /* \"#utility.yul\":7287:7350   */\n      tag_234\n      jumpi\n        /* \"#utility.yul\":7346:7347   */\n      0x00\n        /* \"#utility.yul\":7343:7344   */\n      dup1\n        /* \"#utility.yul\":7336:7348   */\n      revert\n        /* \"#utility.yul\":7287:7350   */\n    tag_234:\n        /* \"#utility.yul\":7234:7356   */\n      pop\n      jump\t// out\n\n    auxdata: 0xa2646970667358221220b953350a0778f024987b9c3fea8e081f1c9f096acc80f76db854f8018289c96264736f6c63430008070033\n}\n",
				"bytecode": {
					"linkReferences": {},
					"object": "60806040526040518060400160405280600d81526020017f50656e6e792050656e6e696573000000000000000000000000000000000000008152506000908051906020019062000051929190620001be565b506040518060400160405280600581526020017f50454e4e59000000000000000000000000000000000000000000000000000000815250600190805190602001906200009f929190620001be565b50600060025564e8d4a51000600955681043561a8829300000600a55600a42620000ca91906200026e565b600c5562093a8042620000de91906200026e565b600d5562093a80600d54620000f491906200026e565b600e553480156200010457600080fd5b50620f424060038190555033600460006101000a81548173ffffffffffffffffffffffffffffffffffffffff021916908373ffffffffffffffffffffffffffffffffffffffff16021790555060035460056000600460009054906101000a900473ffffffffffffffffffffffffffffffffffffffff1673ffffffffffffffffffffffffffffffffffffffff1673ffffffffffffffffffffffffffffffffffffffff1681526020019081526020016000208190555062000369565b828054620001cc90620002d5565b90600052602060002090601f016020900481019282620001f057600085556200023c565b82601f106200020b57805160ff19168380011785556200023c565b828001600101855582156200023c579182015b828111156200023b5782518255916020019190600101906200021e565b5b5090506200024b91906200024f565b5090565b5b808211156200026a57600081600090555060010162000250565b5090565b60006200027b82620002cb565b91506200028883620002cb565b9250827fffffffffffffffffffffffffffffffffffffffffffffffffffffffffffffffff03821115620002c057620002bf6200030b565b5b828201905092915050565b6000819050919050565b60006002820490506001821680620002ee57607f821691505b602082108114156200030557620003046200033a565b5b50919050565b7f4e487b7100000000000000000000000000000000000000000000000000000000600052601160045260246000fd5b7f4e487b7100000000000000000000000000000000000000000000000000000000600052602260045260246000fd5b610fe780620003796000396000f3fe608060405234801561001057600080fd5b50600436106101165760003560e01c8063a9059cbb116100a2578063cc9ba58311610071578063cc9ba583146102fb578063d0e30db014610319578063dd62ed3e14610337578063f851a44014610367578063fb86a4041461038557610116565b8063a9059cbb14610271578063ab0bcc41146102a1578063c10b9358146102bf578063c59ee1dc146102dd57610116565b806327e235e3116100e957806327e235e3146101b7578063313ce567146101e75780634d853ee51461020557806370a082311461022357806395d89b411461025357610116565b806306fdde031461011b578063095ea7b31461013957806318160ddd1461016957806323b872dd14610187575b600080fd5b6101236103a3565b6040516101309190610d6d565b60405180910390f35b610153600480360381019061014e9190610c67565b610431565b6040516101609190610d52565b60405180910390f35b61017161057c565b60405161017e9190610d8f565b60405180910390f35b6101a1600480360381019061019c9190610c14565b610582565b6040516101ae9190610d52565b60405180910390f35b6101d160048036038101906101cc9190610ba7565b610808565b6040516101de9190610d8f565b60405180910390f35b6101ef610820565b6040516101fc9190610d8f565b60405180910390f35b61020d610826565b60405161021a9190610d1c565b60405180910390f35b61023d60048036038101906102389190610ba7565b61084c565b60405161024a9190610d8f565b60405180910390f35b61025b610895565b6040516102689190610d6d565b60405180910390f35b61028b60048036038101906102869190610c67565b610923565b6040516102989190610d52565b60405180910390f35b6102a9610a8c565b6040516102b69190610d8f565b60405180910390f35b6102c7610a92565b6040516102d49190610d8f565b60405180910390f35b6102e5610a98565b6040516102f29190610d8f565b60405180910390f35b610303610a9e565b6040516103109190610d8f565b60405180910390f35b610321610aa4565b60405161032e9190610d37565b60405180910390f35b610351600480360381019061034c9190610bd4565b610aca565b60405161035e9190610d8f565b60405180910390f35b61036f610b51565b60405161037c9190610d1c565b60405180910390f35b61038d610b77565b60405161039a9190610d8f565b60405180910390f35b600080546103b090610edd565b80601f01602080910402602001604051908101604052809291908181526020018280546103dc90610edd565b80156104295780601f106103fe57610100808354040283529160200191610429565b820191906000526020600020905b81548152906001019060200180831161040c57829003601f168201915b505050505081565b600081600560003373ffffffffffffffffffffffffffffffffffffffff1673ffffffffffffffffffffffffffffffffffffffff16815260200190815260200160002054101561047f57600080fd5b6000821161048c57600080fd5b81600660003373ffffffffffffffffffffffffffffffffffffffff1673ffffffffffffffffffffffffffffffffffffffff16815260200190815260200160002060008573ffffffffffffffffffffffffffffffffffffffff1673ffffffffffffffffffffffffffffffffffffffff168152602001908152602001600020819055508273ffffffffffffffffffffffffffffffffffffffff163373ffffffffffffffffffffffffffffffffffffffff167f8c5be1e5ebec7d5bd14f71427d1e84f3dd0314c0f7b2291e5b200ac8c7c3b9258460405161056a9190610d8f565b60405180910390a36001905092915050565b60035481565b600081600660008673ffffffffffffffffffffffffffffffffffffffff1673ffffffffffffffffffffffffffffffffffffffff16815260200190815260200160002060003373ffffffffffffffffffffffffffffffffffffffff1673ffffffffffffffffffffffffffffffffffffffff16815260200190815260200160002054101561060d57600080fd5b81600560008673ffffffffffffffffffffffffffffffffffffffff1673ffffffffffffffffffffffffffffffffffffffff16815260200190815260200160002054101561065957600080fd5b81600560008673ffffffffffffffffffffffffffffffffffffffff1673ffffffffffffffffffffffffffffffffffffffff16815260200190815260200160002060008282546106a89190610e1c565b9250508190555081600660008673ffffffffffffffffffffffffffffffffffffffff1673ffffffffffffffffffffffffffffffffffffffff16815260200190815260200160002060003373ffffffffffffffffffffffffffffffffffffffff1673ffffffffffffffffffffffffffffffffffffffff168152602001908152602001600020600082825461073b9190610e1c565b9250508190555081600560008573ffffffffffffffffffffffffffffffffffffffff1673ffffffffffffffffffffffffffffffffffffffff16815260200190815260200160002060008282546107919190610dc6565b925050819055508273ffffffffffffffffffffffffffffffffffffffff168473ffffffffffffffffffffffffffffffffffffffff167fddf252ad1be2c89b69c2b068fc378daa952ba7f163c4a11628f55a4df523b3ef846040516107f59190610d8f565b60405180910390a3600190509392505050565b60056020528060005260406000206000915090505481565b60025481565b600460009054906101000a900473ffffffffffffffffffffffffffffffffffffffff1681565b6000600560008373ffffffffffffffffffffffffffffffffffffffff1673ffffffffffffffffffffffffffffffffffffffff168152602001908152602001600020549050919050565b600180546108a290610edd565b80601f01602080910402602001604051908101604052809291908181526020018280546108ce90610edd565b801561091b5780601f106108f05761010080835404028352916020019161091b565b820191906000526020600020905b8154815290600101906020018083116108fe57829003601f168201915b505050505081565b600081600560003373ffffffffffffffffffffffffffffffffffffffff1673ffffffffffffffffffffffffffffffffffffffff16815260200190815260200160002054101561097157600080fd5b81600560008573ffffffffffffffffffffffffffffffffffffffff1673ffffffffffffffffffffffffffffffffffffffff16815260200190815260200160002060008282546109c09190610dc6565b9250508190555081600560003373ffffffffffffffffffffffffffffffffffffffff1673ffffffffffffffffffffffffffffffffffffffff1681526020019081526020016000206000828254610a169190610e1c565b925050819055508273ffffffffffffffffffffffffffffffffffffffff163373ffffffffffffffffffffffffffffffffffffffff167fddf252ad1be2c89b69c2b068fc378daa952ba7f163c4a11628f55a4df523b3ef84604051610a7a9190610d8f565b60405180910390a36001905092915050565b600c5481565b600d5481565b600b5481565b600e5481565b600860009054906101000a900473ffffffffffffffffffffffffffffffffffffffff1681565b6000600660008473ffffffffffffffffffffffffffffffffffffffff1673ffffffffffffffffffffffffffffffffffffffff16815260200190815260200160002060008373ffffffffffffffffffffffffffffffffffffffff1673ffffffffffffffffffffffffffffffffffffffff16815260200190815260200160002054905092915050565b600760009054906101000a900473ffffffffffffffffffffffffffffffffffffffff1681565b600a5481565b600081359050610b8c81610f83565b92915050565b600081359050610ba181610f9a565b92915050565b600060208284031215610bbd57610bbc610f6d565b5b6000610bcb84828501610b7d565b91505092915050565b60008060408385031215610beb57610bea610f6d565b5b6000610bf985828601610b7d565b9250506020610c0a85828601610b7d565b9150509250929050565b600080600060608486031215610c2d57610c2c610f6d565b5b6000610c3b86828701610b7d565b9350506020610c4c86828701610b7d565b9250506040610c5d86828701610b92565b9150509250925092565b60008060408385031215610c7e57610c7d610f6d565b5b6000610c8c85828601610b7d565b9250506020610c9d85828601610b92565b9150509250929050565b610cb081610e62565b82525050565b610cbf81610e50565b82525050565b610cce81610e74565b82525050565b6000610cdf82610daa565b610ce98185610db5565b9350610cf9818560208601610eaa565b610d0281610f72565b840191505092915050565b610d1681610ea0565b82525050565b6000602082019050610d316000830184610cb6565b92915050565b6000602082019050610d4c6000830184610ca7565b92915050565b6000602082019050610d676000830184610cc5565b92915050565b60006020820190508181036000830152610d878184610cd4565b905092915050565b6000602082019050610da46000830184610d0d565b92915050565b600081519050919050565b600082825260208201905092915050565b6000610dd182610ea0565b9150610ddc83610ea0565b9250827fffffffffffffffffffffffffffffffffffffffffffffffffffffffffffffffff03821115610e1157610e10610f0f565b5b828201905092915050565b6000610e2782610ea0565b9150610e3283610ea0565b925082821015610e4557610e44610f0f565b5b828203905092915050565b6000610e5b82610e80565b9050919050565b6000610e6d82610e80565b9050919050565b60008115159050919050565b600073ffffffffffffffffffffffffffffffffffffffff82169050919050565b6000819050919050565b60005b83811015610ec8578082015181840152602081019050610ead565b83811115610ed7576000848401525b50505050565b60006002820490506001821680610ef557607f821691505b60208210811415610f0957610f08610f3e565b5b50919050565b7f4e487b7100000000000000000000000000000000000000000000000000000000600052601160045260246000fd5b7f4e487b7100000000000000000000000000000000000000000000000000000000600052602260045260246000fd5b600080fd5b6000601f19601f8301169050919050565b610f8c81610e50565b8114610f9757600080fd5b50565b610fa381610ea0565b8114610fae57600080fd5b5056fea2646970667358221220b953350a0778f024987b9c3fea8e081f1c9f096acc80f76db854f8018289c96264736f6c63430008070033",
					"opcodes": "PUSH1 0x80 PUSH1 0x40 MSTORE PUSH1 0x40 MLOAD DUP1 PUSH1 0x40 ADD PUSH1 0x40 MSTORE DUP1 PUSH1 0xD DUP2 MSTORE PUSH1 0x20 ADD PUSH32 0x50656E6E792050656E6E69657300000000000000000000000000000000000000 DUP2 MSTORE POP PUSH1 0x0 SWAP1 DUP1 MLOAD SWAP1 PUSH1 0x20 ADD SWAP1 PUSH3 0x51 SWAP3 SWAP2 SWAP1 PUSH3 0x1BE JUMP JUMPDEST POP PUSH1 0x40 MLOAD DUP1 PUSH1 0x40 ADD PUSH1 0x40 MSTORE DUP1 PUSH1 0x5 DUP2 MSTORE PUSH1 0x20 ADD PUSH32 0x50454E4E59000000000000000000000000000000000000000000000000000000 DUP2 MSTORE POP PUSH1 0x1 SWAP1 DUP1 MLOAD SWAP1 PUSH1 0x20 ADD SWAP1 PUSH3 0x9F SWAP3 SWAP2 SWAP1 PUSH3 0x1BE JUMP JUMPDEST POP PUSH1 0x0 PUSH1 0x2 SSTORE PUSH5 0xE8D4A51000 PUSH1 0x9 SSTORE PUSH9 0x1043561A8829300000 PUSH1 0xA SSTORE PUSH1 0xA TIMESTAMP PUSH3 0xCA SWAP2 SWAP1 PUSH3 0x26E JUMP JUMPDEST PUSH1 0xC SSTORE PUSH3 0x93A80 TIMESTAMP PUSH3 0xDE SWAP2 SWAP1 PUSH3 0x26E JUMP JUMPDEST PUSH1 0xD SSTORE PUSH3 0x93A80 PUSH1 0xD SLOAD PUSH3 0xF4 SWAP2 SWAP1 PUSH3 0x26E JUMP JUMPDEST PUSH1 0xE SSTORE CALLVALUE DUP1 ISZERO PUSH3 0x104 JUMPI PUSH1 0x0 DUP1 REVERT JUMPDEST POP PUSH3 0xF4240 PUSH1 0x3 DUP2 SWAP1 SSTORE POP CALLER PUSH1 0x4 PUSH1 0x0 PUSH2 0x100 EXP DUP2 SLOAD DUP2 PUSH20 0xFFFFFFFFFFFFFFFFFFFFFFFFFFFFFFFFFFFFFFFF MUL NOT AND SWAP1 DUP4 PUSH20 0xFFFFFFFFFFFFFFFFFFFFFFFFFFFFFFFFFFFFFFFF AND MUL OR SWAP1 SSTORE POP PUSH1 0x3 SLOAD PUSH1 0x5 PUSH1 0x0 PUSH1 0x4 PUSH1 0x0 SWAP1 SLOAD SWAP1 PUSH2 0x100 EXP SWAP1 DIV PUSH20 0xFFFFFFFFFFFFFFFFFFFFFFFFFFFFFFFFFFFFFFFF AND PUSH20 0xFFFFFFFFFFFFFFFFFFFFFFFFFFFFFFFFFFFFFFFF AND PUSH20 0xFFFFFFFFFFFFFFFFFFFFFFFFFFFFFFFFFFFFFFFF AND DUP2 MSTORE PUSH1 0x20 ADD SWAP1 DUP2 MSTORE PUSH1 0x20 ADD PUSH1 0x0 KECCAK256 DUP2 SWAP1 SSTORE POP PUSH3 0x369 JUMP JUMPDEST DUP3 DUP1 SLOAD PUSH3 0x1CC SWAP1 PUSH3 0x2D5 JUMP JUMPDEST SWAP1 PUSH1 0x0 MSTORE PUSH1 0x20 PUSH1 0x0 KECCAK256 SWAP1 PUSH1 0x1F ADD PUSH1 0x20 SWAP1 DIV DUP2 ADD SWAP3 DUP3 PUSH3 0x1F0 JUMPI PUSH1 0x0 DUP6 SSTORE PUSH3 0x23C JUMP JUMPDEST DUP3 PUSH1 0x1F LT PUSH3 0x20B JUMPI DUP1 MLOAD PUSH1 0xFF NOT AND DUP4 DUP1 ADD OR DUP6 SSTORE PUSH3 0x23C JUMP JUMPDEST DUP3 DUP1 ADD PUSH1 0x1 ADD DUP6 SSTORE DUP3 ISZERO PUSH3 0x23C JUMPI SWAP2 DUP3 ADD JUMPDEST DUP3 DUP2 GT ISZERO PUSH3 0x23B JUMPI DUP3 MLOAD DUP3 SSTORE SWAP2 PUSH1 0x20 ADD SWAP2 SWAP1 PUSH1 0x1 ADD SWAP1 PUSH3 0x21E JUMP JUMPDEST JUMPDEST POP SWAP1 POP PUSH3 0x24B SWAP2 SWAP1 PUSH3 0x24F JUMP JUMPDEST POP SWAP1 JUMP JUMPDEST JUMPDEST DUP1 DUP3 GT ISZERO PUSH3 0x26A JUMPI PUSH1 0x0 DUP2 PUSH1 0x0 SWAP1 SSTORE POP PUSH1 0x1 ADD PUSH3 0x250 JUMP JUMPDEST POP SWAP1 JUMP JUMPDEST PUSH1 0x0 PUSH3 0x27B DUP3 PUSH3 0x2CB JUMP JUMPDEST SWAP2 POP PUSH3 0x288 DUP4 PUSH3 0x2CB JUMP JUMPDEST SWAP3 POP DUP3 PUSH32 0xFFFFFFFFFFFFFFFFFFFFFFFFFFFFFFFFFFFFFFFFFFFFFFFFFFFFFFFFFFFFFFFF SUB DUP3 GT ISZERO PUSH3 0x2C0 JUMPI PUSH3 0x2BF PUSH3 0x30B JUMP JUMPDEST JUMPDEST DUP3 DUP3 ADD SWAP1 POP SWAP3 SWAP2 POP POP JUMP JUMPDEST PUSH1 0x0 DUP2 SWAP1 POP SWAP2 SWAP1 POP JUMP JUMPDEST PUSH1 0x0 PUSH1 0x2 DUP3 DIV SWAP1 POP PUSH1 0x1 DUP3 AND DUP1 PUSH3 0x2EE JUMPI PUSH1 0x7F DUP3 AND SWAP2 POP JUMPDEST PUSH1 0x20 DUP3 LT DUP2 EQ ISZERO PUSH3 0x305 JUMPI PUSH3 0x304 PUSH3 0x33A JUMP JUMPDEST JUMPDEST POP SWAP2 SWAP1 POP JUMP JUMPDEST PUSH32 0x4E487B7100000000000000000000000000000000000000000000000000000000 PUSH1 0x0 MSTORE PUSH1 0x11 PUSH1 0x4 MSTORE PUSH1 0x24 PUSH1 0x0 REVERT JUMPDEST PUSH32 0x4E487B7100000000000000000000000000000000000000000000000000000000 PUSH1 0x0 MSTORE PUSH1 0x22 PUSH1 0x4 MSTORE PUSH1 0x24 PUSH1 0x0 REVERT JUMPDEST PUSH2 0xFE7 DUP1 PUSH3 0x379 PUSH1 0x0 CODECOPY PUSH1 0x0 RETURN INVALID PUSH1 0x80 PUSH1 0x40 MSTORE CALLVALUE DUP1 ISZERO PUSH2 0x10 JUMPI PUSH1 0x0 DUP1 REVERT JUMPDEST POP PUSH1 0x4 CALLDATASIZE LT PUSH2 0x116 JUMPI PUSH1 0x0 CALLDATALOAD PUSH1 0xE0 SHR DUP1 PUSH4 0xA9059CBB GT PUSH2 0xA2 JUMPI DUP1 PUSH4 0xCC9BA583 GT PUSH2 0x71 JUMPI DUP1 PUSH4 0xCC9BA583 EQ PUSH2 0x2FB JUMPI DUP1 PUSH4 0xD0E30DB0 EQ PUSH2 0x319 JUMPI DUP1 PUSH4 0xDD62ED3E EQ PUSH2 0x337 JUMPI DUP1 PUSH4 0xF851A440 EQ PUSH2 0x367 JUMPI DUP1 PUSH4 0xFB86A404 EQ PUSH2 0x385 JUMPI PUSH2 0x116 JUMP JUMPDEST DUP1 PUSH4 0xA9059CBB EQ PUSH2 0x271 JUMPI DUP1 PUSH4 0xAB0BCC41 EQ PUSH2 0x2A1 JUMPI DUP1 PUSH4 0xC10B9358 EQ PUSH2 0x2BF JUMPI DUP1 PUSH4 0xC59EE1DC EQ PUSH2 0x2DD JUMPI PUSH2 0x116 JUMP JUMPDEST DUP1 PUSH4 0x27E235E3 GT PUSH2 0xE9 JUMPI DUP1 PUSH4 0x27E235E3 EQ PUSH2 0x1B7 JUMPI DUP1 PUSH4 0x313CE567 EQ PUSH2 0x1E7 JUMPI DUP1 PUSH4 0x4D853EE5 EQ PUSH2 0x205 JUMPI DUP1 PUSH4 0x70A08231 EQ PUSH2 0x223 JUMPI DUP1 PUSH4 0x95D89B41 EQ PUSH2 0x253 JUMPI PUSH2 0x116 JUMP JUMPDEST DUP1 PUSH4 0x6FDDE03 EQ PUSH2 0x11B JUMPI DUP1 PUSH4 0x95EA7B3 EQ PUSH2 0x139 JUMPI DUP1 PUSH4 0x18160DDD EQ PUSH2 0x169 JUMPI DUP1 PUSH4 0x23B872DD EQ PUSH2 0x187 JUMPI JUMPDEST PUSH1 0x0 DUP1 REVERT JUMPDEST PUSH2 0x123 PUSH2 0x3A3 JUMP JUMPDEST PUSH1 0x40 MLOAD PUSH2 0x130 SWAP2 SWAP1 PUSH2 0xD6D JUMP JUMPDEST PUSH1 0x40 MLOAD DUP1 SWAP2 SUB SWAP1 RETURN JUMPDEST PUSH2 0x153 PUSH1 0x4 DUP1 CALLDATASIZE SUB DUP2 ADD SWAP1 PUSH2 0x14E SWAP2 SWAP1 PUSH2 0xC67 JUMP JUMPDEST PUSH2 0x431 JUMP JUMPDEST PUSH1 0x40 MLOAD PUSH2 0x160 SWAP2 SWAP1 PUSH2 0xD52 JUMP JUMPDEST PUSH1 0x40 MLOAD DUP1 SWAP2 SUB SWAP1 RETURN JUMPDEST PUSH2 0x171 PUSH2 0x57C JUMP JUMPDEST PUSH1 0x40 MLOAD PUSH2 0x17E SWAP2 SWAP1 PUSH2 0xD8F JUMP JUMPDEST PUSH1 0x40 MLOAD DUP1 SWAP2 SUB SWAP1 RETURN JUMPDEST PUSH2 0x1A1 PUSH1 0x4 DUP1 CALLDATASIZE SUB DUP2 ADD SWAP1 PUSH2 0x19C SWAP2 SWAP1 PUSH2 0xC14 JUMP JUMPDEST PUSH2 0x582 JUMP JUMPDEST PUSH1 0x40 MLOAD PUSH2 0x1AE SWAP2 SWAP1 PUSH2 0xD52 JUMP JUMPDEST PUSH1 0x40 MLOAD DUP1 SWAP2 SUB SWAP1 RETURN JUMPDEST PUSH2 0x1D1 PUSH1 0x4 DUP1 CALLDATASIZE SUB DUP2 ADD SWAP1 PUSH2 0x1CC SWAP2 SWAP1 PUSH2 0xBA7 JUMP JUMPDEST PUSH2 0x808 JUMP JUMPDEST PUSH1 0x40 MLOAD PUSH2 0x1DE SWAP2 SWAP1 PUSH2 0xD8F JUMP JUMPDEST PUSH1 0x40 MLOAD DUP1 SWAP2 SUB SWAP1 RETURN JUMPDEST PUSH2 0x1EF PUSH2 0x820 JUMP JUMPDEST PUSH1 0x40 MLOAD PUSH2 0x1FC SWAP2 SWAP1 PUSH2 0xD8F JUMP JUMPDEST PUSH1 0x40 MLOAD DUP1 SWAP2 SUB SWAP1 RETURN JUMPDEST PUSH2 0x20D PUSH2 0x826 JUMP JUMPDEST PUSH1 0x40 MLOAD PUSH2 0x21A SWAP2 SWAP1 PUSH2 0xD1C JUMP JUMPDEST PUSH1 0x40 MLOAD DUP1 SWAP2 SUB SWAP1 RETURN JUMPDEST PUSH2 0x23D PUSH1 0x4 DUP1 CALLDATASIZE SUB DUP2 ADD SWAP1 PUSH2 0x238 SWAP2 SWAP1 PUSH2 0xBA7 JUMP JUMPDEST PUSH2 0x84C JUMP JUMPDEST PUSH1 0x40 MLOAD PUSH2 0x24A SWAP2 SWAP1 PUSH2 0xD8F JUMP JUMPDEST PUSH1 0x40 MLOAD DUP1 SWAP2 SUB SWAP1 RETURN JUMPDEST PUSH2 0x25B PUSH2 0x895 JUMP JUMPDEST PUSH1 0x40 MLOAD PUSH2 0x268 SWAP2 SWAP1 PUSH2 0xD6D JUMP JUMPDEST PUSH1 0x40 MLOAD DUP1 SWAP2 SUB SWAP1 RETURN JUMPDEST PUSH2 0x28B PUSH1 0x4 DUP1 CALLDATASIZE SUB DUP2 ADD SWAP1 PUSH2 0x286 SWAP2 SWAP1 PUSH2 0xC67 JUMP JUMPDEST PUSH2 0x923 JUMP JUMPDEST PUSH1 0x40 MLOAD PUSH2 0x298 SWAP2 SWAP1 PUSH2 0xD52 JUMP JUMPDEST PUSH1 0x40 MLOAD DUP1 SWAP2 SUB SWAP1 RETURN JUMPDEST PUSH2 0x2A9 PUSH2 0xA8C JUMP JUMPDEST PUSH1 0x40 MLOAD PUSH2 0x2B6 SWAP2 SWAP1 PUSH2 0xD8F JUMP JUMPDEST PUSH1 0x40 MLOAD DUP1 SWAP2 SUB SWAP1 RETURN JUMPDEST PUSH2 0x2C7 PUSH2 0xA92 JUMP JUMPDEST PUSH1 0x40 MLOAD PUSH2 0x2D4 SWAP2 SWAP1 PUSH2 0xD8F JUMP JUMPDEST PUSH1 0x40 MLOAD DUP1 SWAP2 SUB SWAP1 RETURN JUMPDEST PUSH2 0x2E5 PUSH2 0xA98 JUMP JUMPDEST PUSH1 0x40 MLOAD PUSH2 0x2F2 SWAP2 SWAP1 PUSH2 0xD8F JUMP JUMPDEST PUSH1 0x40 MLOAD DUP1 SWAP2 SUB SWAP1 RETURN JUMPDEST PUSH2 0x303 PUSH2 0xA9E JUMP JUMPDEST PUSH1 0x40 MLOAD PUSH2 0x310 SWAP2 SWAP1 PUSH2 0xD8F JUMP JUMPDEST PUSH1 0x40 MLOAD DUP1 SWAP2 SUB SWAP1 RETURN JUMPDEST PUSH2 0x321 PUSH2 0xAA4 JUMP JUMPDEST PUSH1 0x40 MLOAD PUSH2 0x32E SWAP2 SWAP1 PUSH2 0xD37 JUMP JUMPDEST PUSH1 0x40 MLOAD DUP1 SWAP2 SUB SWAP1 RETURN JUMPDEST PUSH2 0x351 PUSH1 0x4 DUP1 CALLDATASIZE SUB DUP2 ADD SWAP1 PUSH2 0x34C SWAP2 SWAP1 PUSH2 0xBD4 JUMP JUMPDEST PUSH2 0xACA JUMP JUMPDEST PUSH1 0x40 MLOAD PUSH2 0x35E SWAP2 SWAP1 PUSH2 0xD8F JUMP JUMPDEST PUSH1 0x40 MLOAD DUP1 SWAP2 SUB SWAP1 RETURN JUMPDEST PUSH2 0x36F PUSH2 0xB51 JUMP JUMPDEST PUSH1 0x40 MLOAD PUSH2 0x37C SWAP2 SWAP1 PUSH2 0xD1C JUMP JUMPDEST PUSH1 0x40 MLOAD DUP1 SWAP2 SUB SWAP1 RETURN JUMPDEST PUSH2 0x38D PUSH2 0xB77 JUMP JUMPDEST PUSH1 0x40 MLOAD PUSH2 0x39A SWAP2 SWAP1 PUSH2 0xD8F JUMP JUMPDEST PUSH1 0x40 MLOAD DUP1 SWAP2 SUB SWAP1 RETURN JUMPDEST PUSH1 0x0 DUP1 SLOAD PUSH2 0x3B0 SWAP1 PUSH2 0xEDD JUMP JUMPDEST DUP1 PUSH1 0x1F ADD PUSH1 0x20 DUP1 SWAP2 DIV MUL PUSH1 0x20 ADD PUSH1 0x40 MLOAD SWAP1 DUP2 ADD PUSH1 0x40 MSTORE DUP1 SWAP3 SWAP2 SWAP1 DUP2 DUP2 MSTORE PUSH1 0x20 ADD DUP3 DUP1 SLOAD PUSH2 0x3DC SWAP1 PUSH2 0xEDD JUMP JUMPDEST DUP1 ISZERO PUSH2 0x429 JUMPI DUP1 PUSH1 0x1F LT PUSH2 0x3FE JUMPI PUSH2 0x100 DUP1 DUP4 SLOAD DIV MUL DUP4 MSTORE SWAP2 PUSH1 0x20 ADD SWAP2 PUSH2 0x429 JUMP JUMPDEST DUP3 ADD SWAP2 SWAP1 PUSH1 0x0 MSTORE PUSH1 0x20 PUSH1 0x0 KECCAK256 SWAP1 JUMPDEST DUP2 SLOAD DUP2 MSTORE SWAP1 PUSH1 0x1 ADD SWAP1 PUSH1 0x20 ADD DUP1 DUP4 GT PUSH2 0x40C JUMPI DUP3 SWAP1 SUB PUSH1 0x1F AND DUP3 ADD SWAP2 JUMPDEST POP POP POP POP POP DUP2 JUMP JUMPDEST PUSH1 0x0 DUP2 PUSH1 0x5 PUSH1 0x0 CALLER PUSH20 0xFFFFFFFFFFFFFFFFFFFFFFFFFFFFFFFFFFFFFFFF AND PUSH20 0xFFFFFFFFFFFFFFFFFFFFFFFFFFFFFFFFFFFFFFFF AND DUP2 MSTORE PUSH1 0x20 ADD SWAP1 DUP2 MSTORE PUSH1 0x20 ADD PUSH1 0x0 KECCAK256 SLOAD LT ISZERO PUSH2 0x47F JUMPI PUSH1 0x0 DUP1 REVERT JUMPDEST PUSH1 0x0 DUP3 GT PUSH2 0x48C JUMPI PUSH1 0x0 DUP1 REVERT JUMPDEST DUP2 PUSH1 0x6 PUSH1 0x0 CALLER PUSH20 0xFFFFFFFFFFFFFFFFFFFFFFFFFFFFFFFFFFFFFFFF AND PUSH20 0xFFFFFFFFFFFFFFFFFFFFFFFFFFFFFFFFFFFFFFFF AND DUP2 MSTORE PUSH1 0x20 ADD SWAP1 DUP2 MSTORE PUSH1 0x20 ADD PUSH1 0x0 KECCAK256 PUSH1 0x0 DUP6 PUSH20 0xFFFFFFFFFFFFFFFFFFFFFFFFFFFFFFFFFFFFFFFF AND PUSH20 0xFFFFFFFFFFFFFFFFFFFFFFFFFFFFFFFFFFFFFFFF AND DUP2 MSTORE PUSH1 0x20 ADD SWAP1 DUP2 MSTORE PUSH1 0x20 ADD PUSH1 0x0 KECCAK256 DUP2 SWAP1 SSTORE POP DUP3 PUSH20 0xFFFFFFFFFFFFFFFFFFFFFFFFFFFFFFFFFFFFFFFF AND CALLER PUSH20 0xFFFFFFFFFFFFFFFFFFFFFFFFFFFFFFFFFFFFFFFF AND PUSH32 0x8C5BE1E5EBEC7D5BD14F71427D1E84F3DD0314C0F7B2291E5B200AC8C7C3B925 DUP5 PUSH1 0x40 MLOAD PUSH2 0x56A SWAP2 SWAP1 PUSH2 0xD8F JUMP JUMPDEST PUSH1 0x40 MLOAD DUP1 SWAP2 SUB SWAP1 LOG3 PUSH1 0x1 SWAP1 POP SWAP3 SWAP2 POP POP JUMP JUMPDEST PUSH1 0x3 SLOAD DUP2 JUMP JUMPDEST PUSH1 0x0 DUP2 PUSH1 0x6 PUSH1 0x0 DUP7 PUSH20 0xFFFFFFFFFFFFFFFFFFFFFFFFFFFFFFFFFFFFFFFF AND PUSH20 0xFFFFFFFFFFFFFFFFFFFFFFFFFFFFFFFFFFFFFFFF AND DUP2 MSTORE PUSH1 0x20 ADD SWAP1 DUP2 MSTORE PUSH1 0x20 ADD PUSH1 0x0 KECCAK256 PUSH1 0x0 CALLER PUSH20 0xFFFFFFFFFFFFFFFFFFFFFFFFFFFFFFFFFFFFFFFF AND PUSH20 0xFFFFFFFFFFFFFFFFFFFFFFFFFFFFFFFFFFFFFFFF AND DUP2 MSTORE PUSH1 0x20 ADD SWAP1 DUP2 MSTORE PUSH1 0x20 ADD PUSH1 0x0 KECCAK256 SLOAD LT ISZERO PUSH2 0x60D JUMPI PUSH1 0x0 DUP1 REVERT JUMPDEST DUP2 PUSH1 0x5 PUSH1 0x0 DUP7 PUSH20 0xFFFFFFFFFFFFFFFFFFFFFFFFFFFFFFFFFFFFFFFF AND PUSH20 0xFFFFFFFFFFFFFFFFFFFFFFFFFFFFFFFFFFFFFFFF AND DUP2 MSTORE PUSH1 0x20 ADD SWAP1 DUP2 MSTORE PUSH1 0x20 ADD PUSH1 0x0 KECCAK256 SLOAD LT ISZERO PUSH2 0x659 JUMPI PUSH1 0x0 DUP1 REVERT JUMPDEST DUP2 PUSH1 0x5 PUSH1 0x0 DUP7 PUSH20 0xFFFFFFFFFFFFFFFFFFFFFFFFFFFFFFFFFFFFFFFF AND PUSH20 0xFFFFFFFFFFFFFFFFFFFFFFFFFFFFFFFFFFFFFFFF AND DUP2 MSTORE PUSH1 0x20 ADD SWAP1 DUP2 MSTORE PUSH1 0x20 ADD PUSH1 0x0 KECCAK256 PUSH1 0x0 DUP3 DUP3 SLOAD PUSH2 0x6A8 SWAP2 SWAP1 PUSH2 0xE1C JUMP JUMPDEST SWAP3 POP POP DUP2 SWAP1 SSTORE POP DUP2 PUSH1 0x6 PUSH1 0x0 DUP7 PUSH20 0xFFFFFFFFFFFFFFFFFFFFFFFFFFFFFFFFFFFFFFFF AND PUSH20 0xFFFFFFFFFFFFFFFFFFFFFFFFFFFFFFFFFFFFFFFF AND DUP2 MSTORE PUSH1 0x20 ADD SWAP1 DUP2 MSTORE PUSH1 0x20 ADD PUSH1 0x0 KECCAK256 PUSH1 0x0 CALLER PUSH20 0xFFFFFFFFFFFFFFFFFFFFFFFFFFFFFFFFFFFFFFFF AND PUSH20 0xFFFFFFFFFFFFFFFFFFFFFFFFFFFFFFFFFFFFFFFF AND DUP2 MSTORE PUSH1 0x20 ADD SWAP1 DUP2 MSTORE PUSH1 0x20 ADD PUSH1 0x0 KECCAK256 PUSH1 0x0 DUP3 DUP3 SLOAD PUSH2 0x73B SWAP2 SWAP1 PUSH2 0xE1C JUMP JUMPDEST SWAP3 POP POP DUP2 SWAP1 SSTORE POP DUP2 PUSH1 0x5 PUSH1 0x0 DUP6 PUSH20 0xFFFFFFFFFFFFFFFFFFFFFFFFFFFFFFFFFFFFFFFF AND PUSH20 0xFFFFFFFFFFFFFFFFFFFFFFFFFFFFFFFFFFFFFFFF AND DUP2 MSTORE PUSH1 0x20 ADD SWAP1 DUP2 MSTORE PUSH1 0x20 ADD PUSH1 0x0 KECCAK256 PUSH1 0x0 DUP3 DUP3 SLOAD PUSH2 0x791 SWAP2 SWAP1 PUSH2 0xDC6 JUMP JUMPDEST SWAP3 POP POP DUP2 SWAP1 SSTORE POP DUP3 PUSH20 0xFFFFFFFFFFFFFFFFFFFFFFFFFFFFFFFFFFFFFFFF AND DUP5 PUSH20 0xFFFFFFFFFFFFFFFFFFFFFFFFFFFFFFFFFFFFFFFF AND PUSH32 0xDDF252AD1BE2C89B69C2B068FC378DAA952BA7F163C4A11628F55A4DF523B3EF DUP5 PUSH1 0x40 MLOAD PUSH2 0x7F5 SWAP2 SWAP1 PUSH2 0xD8F JUMP JUMPDEST PUSH1 0x40 MLOAD DUP1 SWAP2 SUB SWAP1 LOG3 PUSH1 0x1 SWAP1 POP SWAP4 SWAP3 POP POP POP JUMP JUMPDEST PUSH1 0x5 PUSH1 0x20 MSTORE DUP1 PUSH1 0x0 MSTORE PUSH1 0x40 PUSH1 0x0 KECCAK256 PUSH1 0x0 SWAP2 POP SWAP1 POP SLOAD DUP2 JUMP JUMPDEST PUSH1 0x2 SLOAD DUP2 JUMP JUMPDEST PUSH1 0x4 PUSH1 0x0 SWAP1 SLOAD SWAP1 PUSH2 0x100 EXP SWAP1 DIV PUSH20 0xFFFFFFFFFFFFFFFFFFFFFFFFFFFFFFFFFFFFFFFF AND DUP2 JUMP JUMPDEST PUSH1 0x0 PUSH1 0x5 PUSH1 0x0 DUP4 PUSH20 0xFFFFFFFFFFFFFFFFFFFFFFFFFFFFFFFFFFFFFFFF AND PUSH20 0xFFFFFFFFFFFFFFFFFFFFFFFFFFFFFFFFFFFFFFFF AND DUP2 MSTORE PUSH1 0x20 ADD SWAP1 DUP2 MSTORE PUSH1 0x20 ADD PUSH1 0x0 KECCAK256 SLOAD SWAP1 POP SWAP2 SWAP1 POP JUMP JUMPDEST PUSH1 0x1 DUP1 SLOAD PUSH2 0x8A2 SWAP1 PUSH2 0xEDD JUMP JUMPDEST DUP1 PUSH1 0x1F ADD PUSH1 0x20 DUP1 SWAP2 DIV MUL PUSH1 0x20 ADD PUSH1 0x40 MLOAD SWAP1 DUP2 ADD PUSH1 0x40 MSTORE DUP1 SWAP3 SWAP2 SWAP1 DUP2 DUP2 MSTORE PUSH1 0x20 ADD DUP3 DUP1 SLOAD PUSH2 0x8CE SWAP1 PUSH2 0xEDD JUMP JUMPDEST DUP1 ISZERO PUSH2 0x91B JUMPI DUP1 PUSH1 0x1F LT PUSH2 0x8F0 JUMPI PUSH2 0x100 DUP1 DUP4 SLOAD DIV MUL DUP4 MSTORE SWAP2 PUSH1 0x20 ADD SWAP2 PUSH2 0x91B JUMP JUMPDEST DUP3 ADD SWAP2 SWAP1 PUSH1 0x0 MSTORE PUSH1 0x20 PUSH1 0x0 KECCAK256 SWAP1 JUMPDEST DUP2 SLOAD DUP2 MSTORE SWAP1 PUSH1 0x1 ADD SWAP1 PUSH1 0x20 ADD DUP1 DUP4 GT PUSH2 0x8FE JUMPI DUP3 SWAP1 SUB PUSH1 0x1F AND DUP3 ADD SWAP2 JUMPDEST POP POP POP POP POP DUP2 JUMP JUMPDEST PUSH1 0x0 DUP2 PUSH1 0x5 PUSH1 0x0 CALLER PUSH20 0xFFFFFFFFFFFFFFFFFFFFFFFFFFFFFFFFFFFFFFFF AND PUSH20 0xFFFFFFFFFFFFFFFFFFFFFFFFFFFFFFFFFFFFFFFF AND DUP2 MSTORE PUSH1 0x20 ADD SWAP1 DUP2 MSTORE PUSH1 0x20 ADD PUSH1 0x0 KECCAK256 SLOAD LT ISZERO PUSH2 0x971 JUMPI PUSH1 0x0 DUP1 REVERT JUMPDEST DUP2 PUSH1 0x5 PUSH1 0x0 DUP6 PUSH20 0xFFFFFFFFFFFFFFFFFFFFFFFFFFFFFFFFFFFFFFFF AND PUSH20 0xFFFFFFFFFFFFFFFFFFFFFFFFFFFFFFFFFFFFFFFF AND DUP2 MSTORE PUSH1 0x20 ADD SWAP1 DUP2 MSTORE PUSH1 0x20 ADD PUSH1 0x0 KECCAK256 PUSH1 0x0 DUP3 DUP3 SLOAD PUSH2 0x9C0 SWAP2 SWAP1 PUSH2 0xDC6 JUMP JUMPDEST SWAP3 POP POP DUP2 SWAP1 SSTORE POP DUP2 PUSH1 0x5 PUSH1 0x0 CALLER PUSH20 0xFFFFFFFFFFFFFFFFFFFFFFFFFFFFFFFFFFFFFFFF AND PUSH20 0xFFFFFFFFFFFFFFFFFFFFFFFFFFFFFFFFFFFFFFFF AND DUP2 MSTORE PUSH1 0x20 ADD SWAP1 DUP2 MSTORE PUSH1 0x20 ADD PUSH1 0x0 KECCAK256 PUSH1 0x0 DUP3 DUP3 SLOAD PUSH2 0xA16 SWAP2 SWAP1 PUSH2 0xE1C JUMP JUMPDEST SWAP3 POP POP DUP2 SWAP1 SSTORE POP DUP3 PUSH20 0xFFFFFFFFFFFFFFFFFFFFFFFFFFFFFFFFFFFFFFFF AND CALLER PUSH20 0xFFFFFFFFFFFFFFFFFFFFFFFFFFFFFFFFFFFFFFFF AND PUSH32 0xDDF252AD1BE2C89B69C2B068FC378DAA952BA7F163C4A11628F55A4DF523B3EF DUP5 PUSH1 0x40 MLOAD PUSH2 0xA7A SWAP2 SWAP1 PUSH2 0xD8F JUMP JUMPDEST PUSH1 0x40 MLOAD DUP1 SWAP2 SUB SWAP1 LOG3 PUSH1 0x1 SWAP1 POP SWAP3 SWAP2 POP POP JUMP JUMPDEST PUSH1 0xC SLOAD DUP2 JUMP JUMPDEST PUSH1 0xD SLOAD DUP2 JUMP JUMPDEST PUSH1 0xB SLOAD DUP2 JUMP JUMPDEST PUSH1 0xE SLOAD DUP2 JUMP JUMPDEST PUSH1 0x8 PUSH1 0x0 SWAP1 SLOAD SWAP1 PUSH2 0x100 EXP SWAP1 DIV PUSH20 0xFFFFFFFFFFFFFFFFFFFFFFFFFFFFFFFFFFFFFFFF AND DUP2 JUMP JUMPDEST PUSH1 0x0 PUSH1 0x6 PUSH1 0x0 DUP5 PUSH20 0xFFFFFFFFFFFFFFFFFFFFFFFFFFFFFFFFFFFFFFFF AND PUSH20 0xFFFFFFFFFFFFFFFFFFFFFFFFFFFFFFFFFFFFFFFF AND DUP2 MSTORE PUSH1 0x20 ADD SWAP1 DUP2 MSTORE PUSH1 0x20 ADD PUSH1 0x0 KECCAK256 PUSH1 0x0 DUP4 PUSH20 0xFFFFFFFFFFFFFFFFFFFFFFFFFFFFFFFFFFFFFFFF AND PUSH20 0xFFFFFFFFFFFFFFFFFFFFFFFFFFFFFFFFFFFFFFFF AND DUP2 MSTORE PUSH1 0x20 ADD SWAP1 DUP2 MSTORE PUSH1 0x20 ADD PUSH1 0x0 KECCAK256 SLOAD SWAP1 POP SWAP3 SWAP2 POP POP JUMP JUMPDEST PUSH1 0x7 PUSH1 0x0 SWAP1 SLOAD SWAP1 PUSH2 0x100 EXP SWAP1 DIV PUSH20 0xFFFFFFFFFFFFFFFFFFFFFFFFFFFFFFFFFFFFFFFF AND DUP2 JUMP JUMPDEST PUSH1 0xA SLOAD DUP2 JUMP JUMPDEST PUSH1 0x0 DUP2 CALLDATALOAD SWAP1 POP PUSH2 0xB8C DUP2 PUSH2 0xF83 JUMP JUMPDEST SWAP3 SWAP2 POP POP JUMP JUMPDEST PUSH1 0x0 DUP2 CALLDATALOAD SWAP1 POP PUSH2 0xBA1 DUP2 PUSH2 0xF9A JUMP JUMPDEST SWAP3 SWAP2 POP POP JUMP JUMPDEST PUSH1 0x0 PUSH1 0x20 DUP3 DUP5 SUB SLT ISZERO PUSH2 0xBBD JUMPI PUSH2 0xBBC PUSH2 0xF6D JUMP JUMPDEST JUMPDEST PUSH1 0x0 PUSH2 0xBCB DUP5 DUP3 DUP6 ADD PUSH2 0xB7D JUMP JUMPDEST SWAP2 POP POP SWAP3 SWAP2 POP POP JUMP JUMPDEST PUSH1 0x0 DUP1 PUSH1 0x40 DUP4 DUP6 SUB SLT ISZERO PUSH2 0xBEB JUMPI PUSH2 0xBEA PUSH2 0xF6D JUMP JUMPDEST JUMPDEST PUSH1 0x0 PUSH2 0xBF9 DUP6 DUP3 DUP7 ADD PUSH2 0xB7D JUMP JUMPDEST SWAP3 POP POP PUSH1 0x20 PUSH2 0xC0A DUP6 DUP3 DUP7 ADD PUSH2 0xB7D JUMP JUMPDEST SWAP2 POP POP SWAP3 POP SWAP3 SWAP1 POP JUMP JUMPDEST PUSH1 0x0 DUP1 PUSH1 0x0 PUSH1 0x60 DUP5 DUP7 SUB SLT ISZERO PUSH2 0xC2D JUMPI PUSH2 0xC2C PUSH2 0xF6D JUMP JUMPDEST JUMPDEST PUSH1 0x0 PUSH2 0xC3B DUP7 DUP3 DUP8 ADD PUSH2 0xB7D JUMP JUMPDEST SWAP4 POP POP PUSH1 0x20 PUSH2 0xC4C DUP7 DUP3 DUP8 ADD PUSH2 0xB7D JUMP JUMPDEST SWAP3 POP POP PUSH1 0x40 PUSH2 0xC5D DUP7 DUP3 DUP8 ADD PUSH2 0xB92 JUMP JUMPDEST SWAP2 POP POP SWAP3 POP SWAP3 POP SWAP3 JUMP JUMPDEST PUSH1 0x0 DUP1 PUSH1 0x40 DUP4 DUP6 SUB SLT ISZERO PUSH2 0xC7E JUMPI PUSH2 0xC7D PUSH2 0xF6D JUMP JUMPDEST JUMPDEST PUSH1 0x0 PUSH2 0xC8C DUP6 DUP3 DUP7 ADD PUSH2 0xB7D JUMP JUMPDEST SWAP3 POP POP PUSH1 0x20 PUSH2 0xC9D DUP6 DUP3 DUP7 ADD PUSH2 0xB92 JUMP JUMPDEST SWAP2 POP POP SWAP3 POP SWAP3 SWAP1 POP JUMP JUMPDEST PUSH2 0xCB0 DUP2 PUSH2 0xE62 JUMP JUMPDEST DUP3 MSTORE POP POP JUMP JUMPDEST PUSH2 0xCBF DUP2 PUSH2 0xE50 JUMP JUMPDEST DUP3 MSTORE POP POP JUMP JUMPDEST PUSH2 0xCCE DUP2 PUSH2 0xE74 JUMP JUMPDEST DUP3 MSTORE POP POP JUMP JUMPDEST PUSH1 0x0 PUSH2 0xCDF DUP3 PUSH2 0xDAA JUMP JUMPDEST PUSH2 0xCE9 DUP2 DUP6 PUSH2 0xDB5 JUMP JUMPDEST SWAP4 POP PUSH2 0xCF9 DUP2 DUP6 PUSH1 0x20 DUP7 ADD PUSH2 0xEAA JUMP JUMPDEST PUSH2 0xD02 DUP2 PUSH2 0xF72 JUMP JUMPDEST DUP5 ADD SWAP2 POP POP SWAP3 SWAP2 POP POP JUMP JUMPDEST PUSH2 0xD16 DUP2 PUSH2 0xEA0 JUMP JUMPDEST DUP3 MSTORE POP POP JUMP JUMPDEST PUSH1 0x0 PUSH1 0x20 DUP3 ADD SWAP1 POP PUSH2 0xD31 PUSH1 0x0 DUP4 ADD DUP5 PUSH2 0xCB6 JUMP JUMPDEST SWAP3 SWAP2 POP POP JUMP JUMPDEST PUSH1 0x0 PUSH1 0x20 DUP3 ADD SWAP1 POP PUSH2 0xD4C PUSH1 0x0 DUP4 ADD DUP5 PUSH2 0xCA7 JUMP JUMPDEST SWAP3 SWAP2 POP POP JUMP JUMPDEST PUSH1 0x0 PUSH1 0x20 DUP3 ADD SWAP1 POP PUSH2 0xD67 PUSH1 0x0 DUP4 ADD DUP5 PUSH2 0xCC5 JUMP JUMPDEST SWAP3 SWAP2 POP POP JUMP JUMPDEST PUSH1 0x0 PUSH1 0x20 DUP3 ADD SWAP1 POP DUP2 DUP2 SUB PUSH1 0x0 DUP4 ADD MSTORE PUSH2 0xD87 DUP2 DUP5 PUSH2 0xCD4 JUMP JUMPDEST SWAP1 POP SWAP3 SWAP2 POP POP JUMP JUMPDEST PUSH1 0x0 PUSH1 0x20 DUP3 ADD SWAP1 POP PUSH2 0xDA4 PUSH1 0x0 DUP4 ADD DUP5 PUSH2 0xD0D JUMP JUMPDEST SWAP3 SWAP2 POP POP JUMP JUMPDEST PUSH1 0x0 DUP2 MLOAD SWAP1 POP SWAP2 SWAP1 POP JUMP JUMPDEST PUSH1 0x0 DUP3 DUP3 MSTORE PUSH1 0x20 DUP3 ADD SWAP1 POP SWAP3 SWAP2 POP POP JUMP JUMPDEST PUSH1 0x0 PUSH2 0xDD1 DUP3 PUSH2 0xEA0 JUMP JUMPDEST SWAP2 POP PUSH2 0xDDC DUP4 PUSH2 0xEA0 JUMP JUMPDEST SWAP3 POP DUP3 PUSH32 0xFFFFFFFFFFFFFFFFFFFFFFFFFFFFFFFFFFFFFFFFFFFFFFFFFFFFFFFFFFFFFFFF SUB DUP3 GT ISZERO PUSH2 0xE11 JUMPI PUSH2 0xE10 PUSH2 0xF0F JUMP JUMPDEST JUMPDEST DUP3 DUP3 ADD SWAP1 POP SWAP3 SWAP2 POP POP JUMP JUMPDEST PUSH1 0x0 PUSH2 0xE27 DUP3 PUSH2 0xEA0 JUMP JUMPDEST SWAP2 POP PUSH2 0xE32 DUP4 PUSH2 0xEA0 JUMP JUMPDEST SWAP3 POP DUP3 DUP3 LT ISZERO PUSH2 0xE45 JUMPI PUSH2 0xE44 PUSH2 0xF0F JUMP JUMPDEST JUMPDEST DUP3 DUP3 SUB SWAP1 POP SWAP3 SWAP2 POP POP JUMP JUMPDEST PUSH1 0x0 PUSH2 0xE5B DUP3 PUSH2 0xE80 JUMP JUMPDEST SWAP1 POP SWAP2 SWAP1 POP JUMP JUMPDEST PUSH1 0x0 PUSH2 0xE6D DUP3 PUSH2 0xE80 JUMP JUMPDEST SWAP1 POP SWAP2 SWAP1 POP JUMP JUMPDEST PUSH1 0x0 DUP2 ISZERO ISZERO SWAP1 POP SWAP2 SWAP1 POP JUMP JUMPDEST PUSH1 0x0 PUSH20 0xFFFFFFFFFFFFFFFFFFFFFFFFFFFFFFFFFFFFFFFF DUP3 AND SWAP1 POP SWAP2 SWAP1 POP JUMP JUMPDEST PUSH1 0x0 DUP2 SWAP1 POP SWAP2 SWAP1 POP JUMP JUMPDEST PUSH1 0x0 JUMPDEST DUP4 DUP2 LT ISZERO PUSH2 0xEC8 JUMPI DUP1 DUP3 ADD MLOAD DUP2 DUP5 ADD MSTORE PUSH1 0x20 DUP2 ADD SWAP1 POP PUSH2 0xEAD JUMP JUMPDEST DUP4 DUP2 GT ISZERO PUSH2 0xED7 JUMPI PUSH1 0x0 DUP5 DUP5 ADD MSTORE JUMPDEST POP POP POP POP JUMP JUMPDEST PUSH1 0x0 PUSH1 0x2 DUP3 DIV SWAP1 POP PUSH1 0x1 DUP3 AND DUP1 PUSH2 0xEF5 JUMPI PUSH1 0x7F DUP3 AND SWAP2 POP JUMPDEST PUSH1 0x20 DUP3 LT DUP2 EQ ISZERO PUSH2 0xF09 JUMPI PUSH2 0xF08 PUSH2 0xF3E JUMP JUMPDEST JUMPDEST POP SWAP2 SWAP1 POP JUMP JUMPDEST PUSH32 0x4E487B7100000000000000000000000000000000000000000000000000000000 PUSH1 0x0 MSTORE PUSH1 0x11 PUSH1 0x4 MSTORE PUSH1 0x24 PUSH1 0x0 REVERT JUMPDEST PUSH32 0x4E487B7100000000000000000000000000000000000000000000000000000000 PUSH1 0x0 MSTORE PUSH1 0x22 PUSH1 0x4 MSTORE PUSH1 0x24 PUSH1 0x0 REVERT JUMPDEST PUSH1 0x0 DUP1 REVERT JUMPDEST PUSH1 0x0 PUSH1 0x1F NOT PUSH1 0x1F DUP4 ADD AND SWAP1 POP SWAP2 SWAP1 POP JUMP JUMPDEST PUSH2 0xF8C DUP2 PUSH2 0xE50 JUMP JUMPDEST DUP2 EQ PUSH2 0xF97 JUMPI PUSH1 0x0 DUP1 REVERT JUMPDEST POP JUMP JUMPDEST PUSH2 0xFA3 DUP2 PUSH2 0xEA0 JUMP JUMPDEST DUP2 EQ PUSH2 0xFAE JUMPI PUSH1 0x0 DUP1 REVERT JUMPDEST POP JUMP INVALID LOG2 PUSH5 0x6970667358 0x22 SLT KECCAK256 0xB9 MSTORE8 CALLDATALOAD EXP SMOD PUSH25 0xF024987B9C3FEA8E081F1C9F096ACC80F76DB854F8018289C9 PUSH3 0x64736F PUSH13 0x63430008070033000000000000 "
				},
				"gasEstimates": {
					"creation": {
						"codeDepositCost": "814200",
						"executionCost": "infinite",
						"totalCost": "infinite"
					},
					"external": {
						"admin()": "2602",
						"allowance(address,address)": "infinite",
						"approve(address,uint256)": "infinite",
						"balanceOf(address)": "2930",
						"balances(address)": "2837",
						"decimals()": "2474",
						"deposit()": "2558",
						"founder()": "2581",
						"hardCap()": "2539",
						"name()": "infinite",
						"raisedAmount()": "2518",
						"saleEnd()": "2496",
						"saleStart()": "2474",
						"symbol()": "infinite",
						"tokenTradeStart()": "2451",
						"totalSupply()": "2497",
						"transfer(address,uint256)": "infinite",
						"transferFrom(address,address,uint256)": "infinite"
					}
				},
				"methodIdentifiers": {
					"admin()": "f851a440",
					"allowance(address,address)": "dd62ed3e",
					"approve(address,uint256)": "095ea7b3",
					"balanceOf(address)": "70a08231",
					"balances(address)": "27e235e3",
					"decimals()": "313ce567",
					"deposit()": "d0e30db0",
					"founder()": "4d853ee5",
					"hardCap()": "fb86a404",
					"name()": "06fdde03",
					"raisedAmount()": "c59ee1dc",
					"saleEnd()": "c10b9358",
					"saleStart()": "ab0bcc41",
					"symbol()": "95d89b41",
					"tokenTradeStart()": "cc9ba583",
					"totalSupply()": "18160ddd",
					"transfer(address,uint256)": "a9059cbb",
					"transferFrom(address,address,uint256)": "23b872dd"
				}
			},
			"storageLayout": {
				"storage": [
					{
						"astId": 73,
						"contract": "contracts/erc20_state_vars.sol:PennyICO",
						"label": "name",
						"offset": 0,
						"slot": "0",
						"type": "t_string_storage"
					},
					{
						"astId": 76,
						"contract": "contracts/erc20_state_vars.sol:PennyICO",
						"label": "symbol",
						"offset": 0,
						"slot": "1",
						"type": "t_string_storage"
					},
					{
						"astId": 79,
						"contract": "contracts/erc20_state_vars.sol:PennyICO",
						"label": "decimals",
						"offset": 0,
						"slot": "2",
						"type": "t_uint256"
					},
					{
						"astId": 82,
						"contract": "contracts/erc20_state_vars.sol:PennyICO",
						"label": "totalSupply",
						"offset": 0,
						"slot": "3",
						"type": "t_uint256"
					},
					{
						"astId": 84,
						"contract": "contracts/erc20_state_vars.sol:PennyICO",
						"label": "founder",
						"offset": 0,
						"slot": "4",
						"type": "t_address"
					},
					{
						"astId": 88,
						"contract": "contracts/erc20_state_vars.sol:PennyICO",
						"label": "balances",
						"offset": 0,
						"slot": "5",
						"type": "t_mapping(t_address,t_uint256)"
					},
					{
						"astId": 94,
						"contract": "contracts/erc20_state_vars.sol:PennyICO",
						"label": "allowed",
						"offset": 0,
						"slot": "6",
						"type": "t_mapping(t_address,t_mapping(t_address,t_uint256))"
					},
					{
						"astId": 295,
						"contract": "contracts/erc20_state_vars.sol:PennyICO",
						"label": "admin",
						"offset": 0,
						"slot": "7",
						"type": "t_address"
					},
					{
						"astId": 297,
						"contract": "contracts/erc20_state_vars.sol:PennyICO",
						"label": "deposit",
						"offset": 0,
						"slot": "8",
						"type": "t_address_payable"
					},
					{
						"astId": 300,
						"contract": "contracts/erc20_state_vars.sol:PennyICO",
						"label": "tokenPrice",
						"offset": 0,
						"slot": "9",
						"type": "t_uint256"
					},
					{
						"astId": 303,
						"contract": "contracts/erc20_state_vars.sol:PennyICO",
						"label": "hardCap",
						"offset": 0,
						"slot": "10",
						"type": "t_uint256"
					},
					{
						"astId": 305,
						"contract": "contracts/erc20_state_vars.sol:PennyICO",
						"label": "raisedAmount",
						"offset": 0,
						"slot": "11",
						"type": "t_uint256"
					},
					{
						"astId": 311,
						"contract": "contracts/erc20_state_vars.sol:PennyICO",
						"label": "saleStart",
						"offset": 0,
						"slot": "12",
						"type": "t_uint256"
					},
					{
						"astId": 321,
						"contract": "contracts/erc20_state_vars.sol:PennyICO",
						"label": "saleEnd",
						"offset": 0,
						"slot": "13",
						"type": "t_uint256"
					},
					{
						"astId": 326,
						"contract": "contracts/erc20_state_vars.sol:PennyICO",
						"label": "tokenTradeStart",
						"offset": 0,
						"slot": "14",
						"type": "t_uint256"
					}
				],
				"types": {
					"t_address": {
						"encoding": "inplace",
						"label": "address",
						"numberOfBytes": "20"
					},
					"t_address_payable": {
						"encoding": "inplace",
						"label": "address payable",
						"numberOfBytes": "20"
					},
					"t_mapping(t_address,t_mapping(t_address,t_uint256))": {
						"encoding": "mapping",
						"key": "t_address",
						"label": "mapping(address => mapping(address => uint256))",
						"numberOfBytes": "32",
						"value": "t_mapping(t_address,t_uint256)"
					},
					"t_mapping(t_address,t_uint256)": {
						"encoding": "mapping",
						"key": "t_address",
						"label": "mapping(address => uint256)",
						"numberOfBytes": "32",
						"value": "t_uint256"
					},
					"t_string_storage": {
						"encoding": "bytes",
						"label": "string",
						"numberOfBytes": "32"
					},
					"t_uint256": {
						"encoding": "inplace",
						"label": "uint256",
						"numberOfBytes": "32"
					}
				}
			},
			"userdoc": {
				"kind": "user",
				"methods": {},
				"version": 1
			}
		}
	}
}