{
	"contracts/contract_address_balance.sol": {
		"Deposit": {
			"abi": [
				{
					"stateMutability": "payable",
					"type": "fallback"
				},
				{
					"inputs": [],
					"name": "getBalance",
					"outputs": [
						{
							"internalType": "uint256",
							"name": "",
							"type": "uint256"
						}
					],
					"stateMutability": "view",
					"type": "function"
				},
				{
					"inputs": [],
					"name": "sendEther",
					"outputs": [],
					"stateMutability": "payable",
					"type": "function"
				},
				{
					"inputs": [
						{
							"internalType": "address payable",
							"name": "recipient",
							"type": "address"
						},
						{
							"internalType": "uint256",
							"name": "amount",
							"type": "uint256"
						}
					],
					"name": "transferEther",
					"outputs": [
						{
							"internalType": "bool",
							"name": "",
							"type": "bool"
						}
					],
					"stateMutability": "nonpayable",
					"type": "function"
				},
				{
					"stateMutability": "payable",
					"type": "receive"
				}
			],
			"devdoc": {
				"kind": "dev",
				"methods": {},
				"version": 1
			},
			"evm": {
				"assembly": "    /* \"contracts/contract_address_balance.sol\":197:880  contract Deposit{\r... */\n  mstore(0x40, 0x80)\n  callvalue\n  dup1\n  iszero\n  tag_1\n  jumpi\n  0x00\n  dup1\n  revert\ntag_1:\n  pop\n  dataSize(sub_0)\n  dup1\n  dataOffset(sub_0)\n  0x00\n  codecopy\n  0x00\n  return\nstop\n\nsub_0: assembly {\n        /* \"contracts/contract_address_balance.sol\":197:880  contract Deposit{\r... */\n      mstore(0x40, 0x80)\n      jumpi(tag_1, lt(calldatasize, 0x04))\n      shr(0xe0, calldataload(0x00))\n      dup1\n      0x05b1137b\n      eq\n      tag_3\n      jumpi\n      dup1\n      0x0e29df22\n      eq\n      tag_4\n      jumpi\n      dup1\n      0x12065fe0\n      eq\n      tag_5\n      jumpi\n      jump(tag_2)\n    tag_1:\n      jumpi(tag_2, calldatasize)\n      stop\n    tag_2:\n      stop\n        /* \"contracts/contract_address_balance.sol\":682:877  function transferEther(address payable recipient, uint amount) public returns(bool){\r... */\n    tag_3:\n      callvalue\n      dup1\n      iszero\n      tag_10\n      jumpi\n      0x00\n      dup1\n      revert\n    tag_10:\n      pop\n      tag_11\n      0x04\n      dup1\n      calldatasize\n      sub\n      dup2\n      add\n      swap1\n      tag_12\n      swap2\n      swap1\n      tag_13\n      jump\t// in\n    tag_12:\n      tag_14\n      jump\t// in\n    tag_11:\n      mload(0x40)\n      tag_15\n      swap2\n      swap1\n      tag_16\n      jump\t// in\n    tag_15:\n      mload(0x40)\n      dup1\n      swap2\n      sub\n      swap1\n      return\n        /* \"contracts/contract_address_balance.sol\":600:674  function sendEther() public payable{\r... */\n    tag_4:\n      tag_17\n      tag_18\n      jump\t// in\n    tag_17:\n      stop\n        /* \"contracts/contract_address_balance.sol\":498:592  function getBalance() public view returns(uint){\r... */\n    tag_5:\n      callvalue\n      dup1\n      iszero\n      tag_19\n      jumpi\n      0x00\n      dup1\n      revert\n    tag_19:\n      pop\n      tag_20\n      tag_21\n      jump\t// in\n    tag_20:\n      mload(0x40)\n      tag_22\n      swap2\n      swap1\n      tag_23\n      jump\t// in\n    tag_22:\n      mload(0x40)\n      dup1\n      swap2\n      sub\n      swap1\n      return\n        /* \"contracts/contract_address_balance.sol\":682:877  function transferEther(address payable recipient, uint amount) public returns(bool){\r... */\n    tag_14:\n        /* \"contracts/contract_address_balance.sol\":760:764  bool */\n      0x00\n        /* \"contracts/contract_address_balance.sol\":790:802  getBalance() */\n      tag_25\n        /* \"contracts/contract_address_balance.sol\":790:800  getBalance */\n      tag_21\n        /* \"contracts/contract_address_balance.sol\":790:802  getBalance() */\n      jump\t// in\n    tag_25:\n        /* \"contracts/contract_address_balance.sol\":780:786  amount */\n      dup3\n        /* \"contracts/contract_address_balance.sol\":780:802  amount <= getBalance() */\n      gt\n        /* \"contracts/contract_address_balance.sol\":776:870  if (amount <= getBalance()){\r... */\n      tag_26\n      jumpi\n        /* \"contracts/contract_address_balance.sol\":818:827  recipient */\n      dup3\n        /* \"contracts/contract_address_balance.sol\":818:836  recipient.transfer */\n      0xffffffffffffffffffffffffffffffffffffffff\n      and\n        /* \"contracts/contract_address_balance.sol\":818:844  recipient.transfer(amount) */\n      0x08fc\n        /* \"contracts/contract_address_balance.sol\":837:843  amount */\n      dup4\n        /* \"contracts/contract_address_balance.sol\":818:844  recipient.transfer(amount) */\n      swap1\n      dup2\n      iszero\n      mul\n      swap1\n      mload(0x40)\n      0x00\n      mload(0x40)\n      dup1\n      dup4\n      sub\n      dup2\n      dup6\n      dup9\n      dup9\n      call\n      swap4\n      pop\n      pop\n      pop\n      pop\n      iszero\n      dup1\n      iszero\n      tag_28\n      jumpi\n      returndatasize\n      0x00\n      dup1\n      returndatacopy\n      revert(0x00, returndatasize)\n    tag_28:\n      pop\n        /* \"contracts/contract_address_balance.sol\":776:870  if (amount <= getBalance()){\r... */\n    tag_26:\n        /* \"contracts/contract_address_balance.sol\":682:877  function transferEther(address payable recipient, uint amount) public returns(bool){\r... */\n      swap3\n      swap2\n      pop\n      pop\n      jump\t// out\n        /* \"contracts/contract_address_balance.sol\":600:674  function sendEther() public payable{\r... */\n    tag_18:\n        /* \"contracts/contract_address_balance.sol\":646:652  uint x */\n      0x00\n        /* \"contracts/contract_address_balance.sol\":663:666  x++ */\n      dup1\n      dup1\n      tag_30\n      swap1\n      tag_31\n      jump\t// in\n    tag_30:\n      swap2\n      pop\n      pop\n        /* \"contracts/contract_address_balance.sol\":635:674  {\r... */\n      pop\n        /* \"contracts/contract_address_balance.sol\":600:674  function sendEther() public payable{\r... */\n      jump\t// out\n        /* \"contracts/contract_address_balance.sol\":498:592  function getBalance() public view returns(uint){\r... */\n    tag_21:\n        /* \"contracts/contract_address_balance.sol\":540:544  uint */\n      0x00\n        /* \"contracts/contract_address_balance.sol\":563:584  address(this).balance */\n      selfbalance\n        /* \"contracts/contract_address_balance.sol\":556:584  return address(this).balance */\n      swap1\n      pop\n        /* \"contracts/contract_address_balance.sol\":498:592  function getBalance() public view returns(uint){\r... */\n      swap1\n      jump\t// out\n        /* \"#utility.yul\":7:162   */\n    tag_34:\n        /* \"#utility.yul\":61:66   */\n      0x00\n        /* \"#utility.yul\":99:105   */\n      dup2\n        /* \"#utility.yul\":86:106   */\n      calldataload\n        /* \"#utility.yul\":77:106   */\n      swap1\n      pop\n        /* \"#utility.yul\":115:156   */\n      tag_36\n        /* \"#utility.yul\":150:155   */\n      dup2\n        /* \"#utility.yul\":115:156   */\n      tag_37\n      jump\t// in\n    tag_36:\n        /* \"#utility.yul\":7:162   */\n      swap3\n      swap2\n      pop\n      pop\n      jump\t// out\n        /* \"#utility.yul\":168:307   */\n    tag_38:\n        /* \"#utility.yul\":214:219   */\n      0x00\n        /* \"#utility.yul\":252:258   */\n      dup2\n        /* \"#utility.yul\":239:259   */\n      calldataload\n        /* \"#utility.yul\":230:259   */\n      swap1\n      pop\n        /* \"#utility.yul\":268:301   */\n      tag_40\n        /* \"#utility.yul\":295:300   */\n      dup2\n        /* \"#utility.yul\":268:301   */\n      tag_41\n      jump\t// in\n    tag_40:\n        /* \"#utility.yul\":168:307   */\n      swap3\n      swap2\n      pop\n      pop\n      jump\t// out\n        /* \"#utility.yul\":313:803   */\n    tag_13:\n        /* \"#utility.yul\":389:395   */\n      0x00\n        /* \"#utility.yul\":397:403   */\n      dup1\n        /* \"#utility.yul\":446:448   */\n      0x40\n        /* \"#utility.yul\":434:443   */\n      dup4\n        /* \"#utility.yul\":425:432   */\n      dup6\n        /* \"#utility.yul\":421:444   */\n      sub\n        /* \"#utility.yul\":417:449   */\n      slt\n        /* \"#utility.yul\":414:533   */\n      iszero\n      tag_43\n      jumpi\n        /* \"#utility.yul\":452:531   */\n      tag_44\n      tag_45\n      jump\t// in\n    tag_44:\n        /* \"#utility.yul\":414:533   */\n    tag_43:\n        /* \"#utility.yul\":572:573   */\n      0x00\n        /* \"#utility.yul\":597:658   */\n      tag_46\n        /* \"#utility.yul\":650:657   */\n      dup6\n        /* \"#utility.yul\":641:647   */\n      dup3\n        /* \"#utility.yul\":630:639   */\n      dup7\n        /* \"#utility.yul\":626:648   */\n      add\n        /* \"#utility.yul\":597:658   */\n      tag_34\n      jump\t// in\n    tag_46:\n        /* \"#utility.yul\":587:658   */\n      swap3\n      pop\n        /* \"#utility.yul\":543:668   */\n      pop\n        /* \"#utility.yul\":707:709   */\n      0x20\n        /* \"#utility.yul\":733:786   */\n      tag_47\n        /* \"#utility.yul\":778:785   */\n      dup6\n        /* \"#utility.yul\":769:775   */\n      dup3\n        /* \"#utility.yul\":758:767   */\n      dup7\n        /* \"#utility.yul\":754:776   */\n      add\n        /* \"#utility.yul\":733:786   */\n      tag_38\n      jump\t// in\n    tag_47:\n        /* \"#utility.yul\":723:786   */\n      swap2\n      pop\n        /* \"#utility.yul\":678:796   */\n      pop\n        /* \"#utility.yul\":313:803   */\n      swap3\n      pop\n      swap3\n      swap1\n      pop\n      jump\t// out\n        /* \"#utility.yul\":809:918   */\n    tag_48:\n        /* \"#utility.yul\":890:911   */\n      tag_50\n        /* \"#utility.yul\":905:910   */\n      dup2\n        /* \"#utility.yul\":890:911   */\n      tag_51\n      jump\t// in\n    tag_50:\n        /* \"#utility.yul\":885:888   */\n      dup3\n        /* \"#utility.yul\":878:912   */\n      mstore\n        /* \"#utility.yul\":809:918   */\n      pop\n      pop\n      jump\t// out\n        /* \"#utility.yul\":924:1042   */\n    tag_52:\n        /* \"#utility.yul\":1011:1035   */\n      tag_54\n        /* \"#utility.yul\":1029:1034   */\n      dup2\n        /* \"#utility.yul\":1011:1035   */\n      tag_55\n      jump\t// in\n    tag_54:\n        /* \"#utility.yul\":1006:1009   */\n      dup3\n        /* \"#utility.yul\":999:1036   */\n      mstore\n        /* \"#utility.yul\":924:1042   */\n      pop\n      pop\n      jump\t// out\n        /* \"#utility.yul\":1048:1258   */\n    tag_16:\n        /* \"#utility.yul\":1135:1139   */\n      0x00\n        /* \"#utility.yul\":1173:1175   */\n      0x20\n        /* \"#utility.yul\":1162:1171   */\n      dup3\n        /* \"#utility.yul\":1158:1176   */\n      add\n        /* \"#utility.yul\":1150:1176   */\n      swap1\n      pop\n        /* \"#utility.yul\":1186:1251   */\n      tag_57\n        /* \"#utility.yul\":1248:1249   */\n      0x00\n        /* \"#utility.yul\":1237:1246   */\n      dup4\n        /* \"#utility.yul\":1233:1250   */\n      add\n        /* \"#utility.yul\":1224:1230   */\n      dup5\n        /* \"#utility.yul\":1186:1251   */\n      tag_48\n      jump\t// in\n    tag_57:\n        /* \"#utility.yul\":1048:1258   */\n      swap3\n      swap2\n      pop\n      pop\n      jump\t// out\n        /* \"#utility.yul\":1264:1486   */\n    tag_23:\n        /* \"#utility.yul\":1357:1361   */\n      0x00\n        /* \"#utility.yul\":1395:1397   */\n      0x20\n        /* \"#utility.yul\":1384:1393   */\n      dup3\n        /* \"#utility.yul\":1380:1398   */\n      add\n        /* \"#utility.yul\":1372:1398   */\n      swap1\n      pop\n        /* \"#utility.yul\":1408:1479   */\n      tag_59\n        /* \"#utility.yul\":1476:1477   */\n      0x00\n        /* \"#utility.yul\":1465:1474   */\n      dup4\n        /* \"#utility.yul\":1461:1478   */\n      add\n        /* \"#utility.yul\":1452:1458   */\n      dup5\n        /* \"#utility.yul\":1408:1479   */\n      tag_52\n      jump\t// in\n    tag_59:\n        /* \"#utility.yul\":1264:1486   */\n      swap3\n      swap2\n      pop\n      pop\n      jump\t// out\n        /* \"#utility.yul\":1573:1677   */\n    tag_62:\n        /* \"#utility.yul\":1618:1625   */\n      0x00\n        /* \"#utility.yul\":1647:1671   */\n      tag_64\n        /* \"#utility.yul\":1665:1670   */\n      dup3\n        /* \"#utility.yul\":1647:1671   */\n      tag_65\n      jump\t// in\n    tag_64:\n        /* \"#utility.yul\":1636:1671   */\n      swap1\n      pop\n        /* \"#utility.yul\":1573:1677   */\n      swap2\n      swap1\n      pop\n      jump\t// out\n        /* \"#utility.yul\":1683:1773   */\n    tag_51:\n        /* \"#utility.yul\":1717:1724   */\n      0x00\n        /* \"#utility.yul\":1760:1765   */\n      dup2\n        /* \"#utility.yul\":1753:1766   */\n      iszero\n        /* \"#utility.yul\":1746:1767   */\n      iszero\n        /* \"#utility.yul\":1735:1767   */\n      swap1\n      pop\n        /* \"#utility.yul\":1683:1773   */\n      swap2\n      swap1\n      pop\n      jump\t// out\n        /* \"#utility.yul\":1779:1905   */\n    tag_65:\n        /* \"#utility.yul\":1816:1823   */\n      0x00\n        /* \"#utility.yul\":1856:1898   */\n      0xffffffffffffffffffffffffffffffffffffffff\n        /* \"#utility.yul\":1849:1854   */\n      dup3\n        /* \"#utility.yul\":1845:1899   */\n      and\n        /* \"#utility.yul\":1834:1899   */\n      swap1\n      pop\n        /* \"#utility.yul\":1779:1905   */\n      swap2\n      swap1\n      pop\n      jump\t// out\n        /* \"#utility.yul\":1911:1988   */\n    tag_55:\n        /* \"#utility.yul\":1948:1955   */\n      0x00\n        /* \"#utility.yul\":1977:1982   */\n      dup2\n        /* \"#utility.yul\":1966:1982   */\n      swap1\n      pop\n        /* \"#utility.yul\":1911:1988   */\n      swap2\n      swap1\n      pop\n      jump\t// out\n        /* \"#utility.yul\":1994:2227   */\n    tag_31:\n        /* \"#utility.yul\":2033:2036   */\n      0x00\n        /* \"#utility.yul\":2056:2080   */\n      tag_70\n        /* \"#utility.yul\":2074:2079   */\n      dup3\n        /* \"#utility.yul\":2056:2080   */\n      tag_55\n      jump\t// in\n    tag_70:\n        /* \"#utility.yul\":2047:2080   */\n      swap2\n      pop\n        /* \"#utility.yul\":2102:2168   */\n      0xffffffffffffffffffffffffffffffffffffffffffffffffffffffffffffffff\n        /* \"#utility.yul\":2095:2100   */\n      dup3\n        /* \"#utility.yul\":2092:2169   */\n      eq\n        /* \"#utility.yul\":2089:2192   */\n      iszero\n      tag_71\n      jumpi\n        /* \"#utility.yul\":2172:2190   */\n      tag_72\n      tag_73\n      jump\t// in\n    tag_72:\n        /* \"#utility.yul\":2089:2192   */\n    tag_71:\n        /* \"#utility.yul\":2219:2220   */\n      0x01\n        /* \"#utility.yul\":2212:2217   */\n      dup3\n        /* \"#utility.yul\":2208:2221   */\n      add\n        /* \"#utility.yul\":2201:2221   */\n      swap1\n      pop\n        /* \"#utility.yul\":1994:2227   */\n      swap2\n      swap1\n      pop\n      jump\t// out\n        /* \"#utility.yul\":2233:2413   */\n    tag_73:\n        /* \"#utility.yul\":2281:2358   */\n      0x4e487b7100000000000000000000000000000000000000000000000000000000\n        /* \"#utility.yul\":2278:2279   */\n      0x00\n        /* \"#utility.yul\":2271:2359   */\n      mstore\n        /* \"#utility.yul\":2378:2382   */\n      0x11\n        /* \"#utility.yul\":2375:2376   */\n      0x04\n        /* \"#utility.yul\":2368:2383   */\n      mstore\n        /* \"#utility.yul\":2402:2406   */\n      0x24\n        /* \"#utility.yul\":2399:2400   */\n      0x00\n        /* \"#utility.yul\":2392:2407   */\n      revert\n        /* \"#utility.yul\":2542:2659   */\n    tag_45:\n        /* \"#utility.yul\":2651:2652   */\n      0x00\n        /* \"#utility.yul\":2648:2649   */\n      dup1\n        /* \"#utility.yul\":2641:2653   */\n      revert\n        /* \"#utility.yul\":2665:2803   */\n    tag_37:\n        /* \"#utility.yul\":2746:2778   */\n      tag_79\n        /* \"#utility.yul\":2772:2777   */\n      dup2\n        /* \"#utility.yul\":2746:2778   */\n      tag_62\n      jump\t// in\n    tag_79:\n        /* \"#utility.yul\":2739:2744   */\n      dup2\n        /* \"#utility.yul\":2736:2779   */\n      eq\n        /* \"#utility.yul\":2726:2797   */\n      tag_80\n      jumpi\n        /* \"#utility.yul\":2793:2794   */\n      0x00\n        /* \"#utility.yul\":2790:2791   */\n      dup1\n        /* \"#utility.yul\":2783:2795   */\n      revert\n        /* \"#utility.yul\":2726:2797   */\n    tag_80:\n        /* \"#utility.yul\":2665:2803   */\n      pop\n      jump\t// out\n        /* \"#utility.yul\":2809:2931   */\n    tag_41:\n        /* \"#utility.yul\":2882:2906   */\n      tag_82\n        /* \"#utility.yul\":2900:2905   */\n      dup2\n        /* \"#utility.yul\":2882:2906   */\n      tag_55\n      jump\t// in\n    tag_82:\n        /* \"#utility.yul\":2875:2880   */\n      dup2\n        /* \"#utility.yul\":2872:2907   */\n      eq\n        /* \"#utility.yul\":2862:2925   */\n      tag_83\n      jumpi\n        /* \"#utility.yul\":2921:2922   */\n      0x00\n        /* \"#utility.yul\":2918:2919   */\n      dup1\n        /* \"#utility.yul\":2911:2923   */\n      revert\n        /* \"#utility.yul\":2862:2925   */\n    tag_83:\n        /* \"#utility.yul\":2809:2931   */\n      pop\n      jump\t// out\n\n    auxdata: 0xa2646970667358221220764dcfc5574a4a24cbac3b9cd7a114ace2eedc411f0d7bb0c48f0b2ac0d7b8b364736f6c63430008070033\n}\n",
				"bytecode": {
					"linkReferences": {},
					"object": "608060405234801561001057600080fd5b50610313806100206000396000f3fe6080604052600436106100385760003560e01c806305b1137b146100415780630e29df221461007e57806312065fe0146100885761003f565b3661003f57005b005b34801561004d57600080fd5b5061006860048036038101906100639190610156565b6100b3565b60405161007591906101b4565b60405180910390f35b610086610111565b005b34801561009457600080fd5b5061009d610124565b6040516100aa91906101cf565b60405180910390f35b60006100bd610124565b821161010b578273ffffffffffffffffffffffffffffffffffffffff166108fc839081150290604051600060405180830381858888f19350505050158015610109573d6000803e3d6000fd5b505b92915050565b6000808061011e90610232565b91505050565b600047905090565b60008135905061013b816102af565b92915050565b600081359050610150816102c6565b92915050565b6000806040838503121561016d5761016c6102aa565b5b600061017b8582860161012c565b925050602061018c85828601610141565b9150509250929050565b61019f816101fc565b82525050565b6101ae81610228565b82525050565b60006020820190506101c96000830184610196565b92915050565b60006020820190506101e460008301846101a5565b92915050565b60006101f582610208565b9050919050565b60008115159050919050565b600073ffffffffffffffffffffffffffffffffffffffff82169050919050565b6000819050919050565b600061023d82610228565b91507fffffffffffffffffffffffffffffffffffffffffffffffffffffffffffffffff8214156102705761026f61027b565b5b600182019050919050565b7f4e487b7100000000000000000000000000000000000000000000000000000000600052601160045260246000fd5b600080fd5b6102b8816101ea565b81146102c357600080fd5b50565b6102cf81610228565b81146102da57600080fd5b5056fea2646970667358221220764dcfc5574a4a24cbac3b9cd7a114ace2eedc411f0d7bb0c48f0b2ac0d7b8b364736f6c63430008070033",
					"opcodes": "PUSH1 0x80 PUSH1 0x40 MSTORE CALLVALUE DUP1 ISZERO PUSH2 0x10 JUMPI PUSH1 0x0 DUP1 REVERT JUMPDEST POP PUSH2 0x313 DUP1 PUSH2 0x20 PUSH1 0x0 CODECOPY PUSH1 0x0 RETURN INVALID PUSH1 0x80 PUSH1 0x40 MSTORE PUSH1 0x4 CALLDATASIZE LT PUSH2 0x38 JUMPI PUSH1 0x0 CALLDATALOAD PUSH1 0xE0 SHR DUP1 PUSH4 0x5B1137B EQ PUSH2 0x41 JUMPI DUP1 PUSH4 0xE29DF22 EQ PUSH2 0x7E JUMPI DUP1 PUSH4 0x12065FE0 EQ PUSH2 0x88 JUMPI PUSH2 0x3F JUMP JUMPDEST CALLDATASIZE PUSH2 0x3F JUMPI STOP JUMPDEST STOP JUMPDEST CALLVALUE DUP1 ISZERO PUSH2 0x4D JUMPI PUSH1 0x0 DUP1 REVERT JUMPDEST POP PUSH2 0x68 PUSH1 0x4 DUP1 CALLDATASIZE SUB DUP2 ADD SWAP1 PUSH2 0x63 SWAP2 SWAP1 PUSH2 0x156 JUMP JUMPDEST PUSH2 0xB3 JUMP JUMPDEST PUSH1 0x40 MLOAD PUSH2 0x75 SWAP2 SWAP1 PUSH2 0x1B4 JUMP JUMPDEST PUSH1 0x40 MLOAD DUP1 SWAP2 SUB SWAP1 RETURN JUMPDEST PUSH2 0x86 PUSH2 0x111 JUMP JUMPDEST STOP JUMPDEST CALLVALUE DUP1 ISZERO PUSH2 0x94 JUMPI PUSH1 0x0 DUP1 REVERT JUMPDEST POP PUSH2 0x9D PUSH2 0x124 JUMP JUMPDEST PUSH1 0x40 MLOAD PUSH2 0xAA SWAP2 SWAP1 PUSH2 0x1CF JUMP JUMPDEST PUSH1 0x40 MLOAD DUP1 SWAP2 SUB SWAP1 RETURN JUMPDEST PUSH1 0x0 PUSH2 0xBD PUSH2 0x124 JUMP JUMPDEST DUP3 GT PUSH2 0x10B JUMPI DUP3 PUSH20 0xFFFFFFFFFFFFFFFFFFFFFFFFFFFFFFFFFFFFFFFF AND PUSH2 0x8FC DUP4 SWAP1 DUP2 ISZERO MUL SWAP1 PUSH1 0x40 MLOAD PUSH1 0x0 PUSH1 0x40 MLOAD DUP1 DUP4 SUB DUP2 DUP6 DUP9 DUP9 CALL SWAP4 POP POP POP POP ISZERO DUP1 ISZERO PUSH2 0x109 JUMPI RETURNDATASIZE PUSH1 0x0 DUP1 RETURNDATACOPY RETURNDATASIZE PUSH1 0x0 REVERT JUMPDEST POP JUMPDEST SWAP3 SWAP2 POP POP JUMP JUMPDEST PUSH1 0x0 DUP1 DUP1 PUSH2 0x11E SWAP1 PUSH2 0x232 JUMP JUMPDEST SWAP2 POP POP POP JUMP JUMPDEST PUSH1 0x0 SELFBALANCE SWAP1 POP SWAP1 JUMP JUMPDEST PUSH1 0x0 DUP2 CALLDATALOAD SWAP1 POP PUSH2 0x13B DUP2 PUSH2 0x2AF JUMP JUMPDEST SWAP3 SWAP2 POP POP JUMP JUMPDEST PUSH1 0x0 DUP2 CALLDATALOAD SWAP1 POP PUSH2 0x150 DUP2 PUSH2 0x2C6 JUMP JUMPDEST SWAP3 SWAP2 POP POP JUMP JUMPDEST PUSH1 0x0 DUP1 PUSH1 0x40 DUP4 DUP6 SUB SLT ISZERO PUSH2 0x16D JUMPI PUSH2 0x16C PUSH2 0x2AA JUMP JUMPDEST JUMPDEST PUSH1 0x0 PUSH2 0x17B DUP6 DUP3 DUP7 ADD PUSH2 0x12C JUMP JUMPDEST SWAP3 POP POP PUSH1 0x20 PUSH2 0x18C DUP6 DUP3 DUP7 ADD PUSH2 0x141 JUMP JUMPDEST SWAP2 POP POP SWAP3 POP SWAP3 SWAP1 POP JUMP JUMPDEST PUSH2 0x19F DUP2 PUSH2 0x1FC JUMP JUMPDEST DUP3 MSTORE POP POP JUMP JUMPDEST PUSH2 0x1AE DUP2 PUSH2 0x228 JUMP JUMPDEST DUP3 MSTORE POP POP JUMP JUMPDEST PUSH1 0x0 PUSH1 0x20 DUP3 ADD SWAP1 POP PUSH2 0x1C9 PUSH1 0x0 DUP4 ADD DUP5 PUSH2 0x196 JUMP JUMPDEST SWAP3 SWAP2 POP POP JUMP JUMPDEST PUSH1 0x0 PUSH1 0x20 DUP3 ADD SWAP1 POP PUSH2 0x1E4 PUSH1 0x0 DUP4 ADD DUP5 PUSH2 0x1A5 JUMP JUMPDEST SWAP3 SWAP2 POP POP JUMP JUMPDEST PUSH1 0x0 PUSH2 0x1F5 DUP3 PUSH2 0x208 JUMP JUMPDEST SWAP1 POP SWAP2 SWAP1 POP JUMP JUMPDEST PUSH1 0x0 DUP2 ISZERO ISZERO SWAP1 POP SWAP2 SWAP1 POP JUMP JUMPDEST PUSH1 0x0 PUSH20 0xFFFFFFFFFFFFFFFFFFFFFFFFFFFFFFFFFFFFFFFF DUP3 AND SWAP1 POP SWAP2 SWAP1 POP JUMP JUMPDEST PUSH1 0x0 DUP2 SWAP1 POP SWAP2 SWAP1 POP JUMP JUMPDEST PUSH1 0x0 PUSH2 0x23D DUP3 PUSH2 0x228 JUMP JUMPDEST SWAP2 POP PUSH32 0xFFFFFFFFFFFFFFFFFFFFFFFFFFFFFFFFFFFFFFFFFFFFFFFFFFFFFFFFFFFFFFFF DUP3 EQ ISZERO PUSH2 0x270 JUMPI PUSH2 0x26F PUSH2 0x27B JUMP JUMPDEST JUMPDEST PUSH1 0x1 DUP3 ADD SWAP1 POP SWAP2 SWAP1 POP JUMP JUMPDEST PUSH32 0x4E487B7100000000000000000000000000000000000000000000000000000000 PUSH1 0x0 MSTORE PUSH1 0x11 PUSH1 0x4 MSTORE PUSH1 0x24 PUSH1 0x0 REVERT JUMPDEST PUSH1 0x0 DUP1 REVERT JUMPDEST PUSH2 0x2B8 DUP2 PUSH2 0x1EA JUMP JUMPDEST DUP2 EQ PUSH2 0x2C3 JUMPI PUSH1 0x0 DUP1 REVERT JUMPDEST POP JUMP JUMPDEST PUSH2 0x2CF DUP2 PUSH2 0x228 JUMP JUMPDEST DUP2 EQ PUSH2 0x2DA JUMPI PUSH1 0x0 DUP1 REVERT JUMPDEST POP JUMP INVALID LOG2 PUSH5 0x6970667358 0x22 SLT KECCAK256 PUSH23 0x4DCFC5574A4A24CBAC3B9CD7A114ACE2EEDC411F0D7BB0 0xC4 DUP16 SIGNEXTEND 0x2A 0xC0 0xD7 0xB8 0xB3 PUSH5 0x736F6C6343 STOP ADDMOD SMOD STOP CALLER "
				},
				"gasEstimates": {
					"creation": {
						"codeDepositCost": "157400",
						"executionCost": "202",
						"totalCost": "157602"
					},
					"external": {
						"": "129",
						"getBalance()": "361",
						"sendEther()": "267",
						"transferEther(address,uint256)": "infinite"
					}
				},
				"methodIdentifiers": {
					"getBalance()": "12065fe0",
					"sendEther()": "0e29df22",
					"transferEther(address,uint256)": "05b1137b"
				}
			},
			"storageLayout": {
				"storage": [],
				"types": null
			},
			"userdoc": {
				"kind": "user",
				"methods": {},
				"version": 1
			}
		}
	}
}