{
	"contracts/variables_and_functions_visibility.sol": {
		"A": {
			"abi": [
				{
					"inputs": [],
					"name": "f2",
					"outputs": [
						{
							"internalType": "int256",
							"name": "",
							"type": "int256"
						}
					],
					"stateMutability": "view",
					"type": "function"
				},
				{
					"inputs": [],
					"name": "f4",
					"outputs": [
						{
							"internalType": "int256",
							"name": "",
							"type": "int256"
						}
					],
					"stateMutability": "view",
					"type": "function"
				},
				{
					"inputs": [],
					"name": "f5",
					"outputs": [
						{
							"internalType": "int256",
							"name": "",
							"type": "int256"
						}
					],
					"stateMutability": "pure",
					"type": "function"
				},
				{
					"inputs": [],
					"name": "getY",
					"outputs": [
						{
							"internalType": "int256",
							"name": "",
							"type": "int256"
						}
					],
					"stateMutability": "view",
					"type": "function"
				},
				{
					"inputs": [],
					"name": "x",
					"outputs": [
						{
							"internalType": "int256",
							"name": "",
							"type": "int256"
						}
					],
					"stateMutability": "view",
					"type": "function"
				}
			],
			"devdoc": {
				"kind": "dev",
				"methods": {},
				"version": 1
			},
			"evm": {
				"assembly": "    /* \"contracts/variables_and_functions_visibility.sol\":73:1280  contract A{\r... */\n  mstore(0x40, 0x80)\n    /* \"contracts/variables_and_functions_visibility.sol\":178:180  10 */\n  0x0a\n    /* \"contracts/variables_and_functions_visibility.sol\":163:180  int public x = 10 */\n  0x00\n  sstore\n    /* \"contracts/variables_and_functions_visibility.sol\":296:298  20 */\n  0x14\n    /* \"contracts/variables_and_functions_visibility.sol\":288:298  int y = 20 */\n  0x01\n  sstore\n    /* \"contracts/variables_and_functions_visibility.sol\":73:1280  contract A{\r... */\n  callvalue\n  dup1\n  iszero\n  tag_1\n  jumpi\n  0x00\n  dup1\n  revert\ntag_1:\n  pop\n  dataSize(sub_0)\n  dup1\n  dataOffset(sub_0)\n  0x00\n  codecopy\n  0x00\n  return\nstop\n\nsub_0: assembly {\n        /* \"contracts/variables_and_functions_visibility.sol\":73:1280  contract A{\r... */\n      mstore(0x40, 0x80)\n      callvalue\n      dup1\n      iszero\n      tag_1\n      jumpi\n      0x00\n      dup1\n      revert\n    tag_1:\n      pop\n      jumpi(tag_2, lt(calldatasize, 0x04))\n      shr(0xe0, calldataload(0x00))\n      dup1\n      0x0b7f1665\n      eq\n      tag_3\n      jumpi\n      dup1\n      0x0c55699c\n      eq\n      tag_4\n      jumpi\n      dup1\n      0x3c9d377d\n      eq\n      tag_5\n      jumpi\n      dup1\n      0x9942ec6f\n      eq\n      tag_6\n      jumpi\n      dup1\n      0xc3f90202\n      eq\n      tag_7\n      jumpi\n    tag_2:\n      0x00\n      dup1\n      revert\n        /* \"contracts/variables_and_functions_visibility.sol\":383:450  function getY() public view returns(int){\r... */\n    tag_3:\n      tag_8\n      tag_9\n      jump\t// in\n    tag_8:\n      mload(0x40)\n      tag_10\n      swap2\n      swap1\n      tag_11\n      jump\t// in\n    tag_10:\n      mload(0x40)\n      dup1\n      swap2\n      sub\n      swap1\n      return\n        /* \"contracts/variables_and_functions_visibility.sol\":163:180  int public x = 10 */\n    tag_4:\n      tag_12\n      tag_13\n      jump\t// in\n    tag_12:\n      mload(0x40)\n      tag_14\n      swap2\n      swap1\n      tag_11\n      jump\t// in\n    tag_14:\n      mload(0x40)\n      dup1\n      swap2\n      sub\n      swap1\n      return\n        /* \"contracts/variables_and_functions_visibility.sol\":1152:1275  function f5() public pure returns(int){\r... */\n    tag_5:\n      tag_15\n      tag_16\n      jump\t// in\n    tag_15:\n      mload(0x40)\n      tag_17\n      swap2\n      swap1\n      tag_11\n      jump\t// in\n    tag_17:\n      mload(0x40)\n      dup1\n      swap2\n      sub\n      swap1\n      return\n        /* \"contracts/variables_and_functions_visibility.sol\":787:887  function f2() public view returns(int){\r... */\n    tag_6:\n      tag_18\n      tag_19\n      jump\t// in\n    tag_18:\n      mload(0x40)\n      tag_20\n      swap2\n      swap1\n      tag_11\n      jump\t// in\n    tag_20:\n      mload(0x40)\n      dup1\n      swap2\n      sub\n      swap1\n      return\n        /* \"contracts/variables_and_functions_visibility.sol\":1077:1144  function f4() external view returns(int){\r... */\n    tag_7:\n      tag_21\n      tag_22\n      jump\t// in\n    tag_21:\n      mload(0x40)\n      tag_23\n      swap2\n      swap1\n      tag_11\n      jump\t// in\n    tag_23:\n      mload(0x40)\n      dup1\n      swap2\n      sub\n      swap1\n      return\n        /* \"contracts/variables_and_functions_visibility.sol\":383:450  function getY() public view returns(int){\r... */\n    tag_9:\n        /* \"contracts/variables_and_functions_visibility.sol\":419:422  int */\n      0x00\n        /* \"contracts/variables_and_functions_visibility.sol\":441:442  y */\n      sload(0x01)\n        /* \"contracts/variables_and_functions_visibility.sol\":434:442  return y */\n      swap1\n      pop\n        /* \"contracts/variables_and_functions_visibility.sol\":383:450  function getY() public view returns(int){\r... */\n      swap1\n      jump\t// out\n        /* \"contracts/variables_and_functions_visibility.sol\":163:180  int public x = 10 */\n    tag_13:\n      sload(0x00)\n      dup2\n      jump\t// out\n        /* \"contracts/variables_and_functions_visibility.sol\":1152:1275  function f5() public pure returns(int){\r... */\n    tag_16:\n        /* \"contracts/variables_and_functions_visibility.sol\":1186:1189  int */\n      0x00\n        /* \"contracts/variables_and_functions_visibility.sol\":1201:1206  int b */\n      dup1\n        /* \"contracts/variables_and_functions_visibility.sol\":1266:1267  b */\n      dup1\n        /* \"contracts/variables_and_functions_visibility.sol\":1259:1267  return b */\n      swap2\n      pop\n      pop\n        /* \"contracts/variables_and_functions_visibility.sol\":1152:1275  function f5() public pure returns(int){\r... */\n      swap1\n      jump\t// out\n        /* \"contracts/variables_and_functions_visibility.sol\":787:887  function f2() public view returns(int){\r... */\n    tag_19:\n        /* \"contracts/variables_and_functions_visibility.sol\":821:824  int */\n      0x00\n        /* \"contracts/variables_and_functions_visibility.sol\":836:841  int a */\n      dup1\n        /* \"contracts/variables_and_functions_visibility.sol\":856:860  f1() */\n      tag_27\n        /* \"contracts/variables_and_functions_visibility.sol\":856:858  f1 */\n      tag_28\n        /* \"contracts/variables_and_functions_visibility.sol\":856:860  f1() */\n      jump\t// in\n    tag_27:\n        /* \"contracts/variables_and_functions_visibility.sol\":852:860  a = f1() */\n      swap1\n      pop\n        /* \"contracts/variables_and_functions_visibility.sol\":878:879  a */\n      dup1\n        /* \"contracts/variables_and_functions_visibility.sol\":871:879  return a */\n      swap2\n      pop\n      pop\n        /* \"contracts/variables_and_functions_visibility.sol\":787:887  function f2() public view returns(int){\r... */\n      swap1\n      jump\t// out\n        /* \"contracts/variables_and_functions_visibility.sol\":1077:1144  function f4() external view returns(int){\r... */\n    tag_22:\n        /* \"contracts/variables_and_functions_visibility.sol\":1113:1116  int */\n      0x00\n        /* \"contracts/variables_and_functions_visibility.sol\":1135:1136  x */\n      dup1\n      sload\n        /* \"contracts/variables_and_functions_visibility.sol\":1128:1136  return x */\n      swap1\n      pop\n        /* \"contracts/variables_and_functions_visibility.sol\":1077:1144  function f4() external view returns(int){\r... */\n      swap1\n      jump\t// out\n        /* \"contracts/variables_and_functions_visibility.sol\":620:686  function f1() private view returns(int){\r... */\n    tag_28:\n        /* \"contracts/variables_and_functions_visibility.sol\":655:658  int */\n      0x00\n        /* \"contracts/variables_and_functions_visibility.sol\":677:678  x */\n      dup1\n      sload\n        /* \"contracts/variables_and_functions_visibility.sol\":670:678  return x */\n      swap1\n      pop\n        /* \"contracts/variables_and_functions_visibility.sol\":620:686  function f1() private view returns(int){\r... */\n      swap1\n      jump\t// out\n        /* \"#utility.yul\":7:122   */\n    tag_32:\n        /* \"#utility.yul\":92:115   */\n      tag_34\n        /* \"#utility.yul\":109:114   */\n      dup2\n        /* \"#utility.yul\":92:115   */\n      tag_35\n      jump\t// in\n    tag_34:\n        /* \"#utility.yul\":87:90   */\n      dup3\n        /* \"#utility.yul\":80:116   */\n      mstore\n        /* \"#utility.yul\":70:122   */\n      pop\n      pop\n      jump\t// out\n        /* \"#utility.yul\":128:346   */\n    tag_11:\n      0x00\n        /* \"#utility.yul\":257:259   */\n      0x20\n        /* \"#utility.yul\":246:255   */\n      dup3\n        /* \"#utility.yul\":242:260   */\n      add\n        /* \"#utility.yul\":234:260   */\n      swap1\n      pop\n        /* \"#utility.yul\":270:339   */\n      tag_37\n        /* \"#utility.yul\":336:337   */\n      0x00\n        /* \"#utility.yul\":325:334   */\n      dup4\n        /* \"#utility.yul\":321:338   */\n      add\n        /* \"#utility.yul\":312:318   */\n      dup5\n        /* \"#utility.yul\":270:339   */\n      tag_32\n      jump\t// in\n    tag_37:\n        /* \"#utility.yul\":224:346   */\n      swap3\n      swap2\n      pop\n      pop\n      jump\t// out\n        /* \"#utility.yul\":352:428   */\n    tag_35:\n      0x00\n        /* \"#utility.yul\":417:422   */\n      dup2\n        /* \"#utility.yul\":406:422   */\n      swap1\n      pop\n        /* \"#utility.yul\":396:428   */\n      swap2\n      swap1\n      pop\n      jump\t// out\n\n    auxdata: 0xa264697066735822122074db3f87c5272cb5d14323bb7a7c71deffbb92bb8af9fc425b615945949b64a764736f6c63430008000033\n}\n",
				"bytecode": {
					"linkReferences": {},
					"object": "6080604052600a600055601460015534801561001a57600080fd5b5061019c8061002a6000396000f3fe608060405234801561001057600080fd5b50600436106100575760003560e01c80630b7f16651461005c5780630c55699c1461007a5780633c9d377d146100985780639942ec6f146100b6578063c3f90202146100d4575b600080fd5b6100646100f2565b6040516100719190610141565b60405180910390f35b6100826100fc565b60405161008f9190610141565b60405180910390f35b6100a0610102565b6040516100ad9190610141565b60405180910390f35b6100be61010c565b6040516100cb9190610141565b60405180910390f35b6100dc610120565b6040516100e99190610141565b60405180910390f35b6000600154905090565b60005481565b6000808091505090565b600080610117610129565b90508091505090565b60008054905090565b60008054905090565b61013b8161015c565b82525050565b60006020820190506101566000830184610132565b92915050565b600081905091905056fea264697066735822122074db3f87c5272cb5d14323bb7a7c71deffbb92bb8af9fc425b615945949b64a764736f6c63430008000033",
					"opcodes": "PUSH1 0x80 PUSH1 0x40 MSTORE PUSH1 0xA PUSH1 0x0 SSTORE PUSH1 0x14 PUSH1 0x1 SSTORE CALLVALUE DUP1 ISZERO PUSH2 0x1A JUMPI PUSH1 0x0 DUP1 REVERT JUMPDEST POP PUSH2 0x19C DUP1 PUSH2 0x2A PUSH1 0x0 CODECOPY PUSH1 0x0 RETURN INVALID PUSH1 0x80 PUSH1 0x40 MSTORE CALLVALUE DUP1 ISZERO PUSH2 0x10 JUMPI PUSH1 0x0 DUP1 REVERT JUMPDEST POP PUSH1 0x4 CALLDATASIZE LT PUSH2 0x57 JUMPI PUSH1 0x0 CALLDATALOAD PUSH1 0xE0 SHR DUP1 PUSH4 0xB7F1665 EQ PUSH2 0x5C JUMPI DUP1 PUSH4 0xC55699C EQ PUSH2 0x7A JUMPI DUP1 PUSH4 0x3C9D377D EQ PUSH2 0x98 JUMPI DUP1 PUSH4 0x9942EC6F EQ PUSH2 0xB6 JUMPI DUP1 PUSH4 0xC3F90202 EQ PUSH2 0xD4 JUMPI JUMPDEST PUSH1 0x0 DUP1 REVERT JUMPDEST PUSH2 0x64 PUSH2 0xF2 JUMP JUMPDEST PUSH1 0x40 MLOAD PUSH2 0x71 SWAP2 SWAP1 PUSH2 0x141 JUMP JUMPDEST PUSH1 0x40 MLOAD DUP1 SWAP2 SUB SWAP1 RETURN JUMPDEST PUSH2 0x82 PUSH2 0xFC JUMP JUMPDEST PUSH1 0x40 MLOAD PUSH2 0x8F SWAP2 SWAP1 PUSH2 0x141 JUMP JUMPDEST PUSH1 0x40 MLOAD DUP1 SWAP2 SUB SWAP1 RETURN JUMPDEST PUSH2 0xA0 PUSH2 0x102 JUMP JUMPDEST PUSH1 0x40 MLOAD PUSH2 0xAD SWAP2 SWAP1 PUSH2 0x141 JUMP JUMPDEST PUSH1 0x40 MLOAD DUP1 SWAP2 SUB SWAP1 RETURN JUMPDEST PUSH2 0xBE PUSH2 0x10C JUMP JUMPDEST PUSH1 0x40 MLOAD PUSH2 0xCB SWAP2 SWAP1 PUSH2 0x141 JUMP JUMPDEST PUSH1 0x40 MLOAD DUP1 SWAP2 SUB SWAP1 RETURN JUMPDEST PUSH2 0xDC PUSH2 0x120 JUMP JUMPDEST PUSH1 0x40 MLOAD PUSH2 0xE9 SWAP2 SWAP1 PUSH2 0x141 JUMP JUMPDEST PUSH1 0x40 MLOAD DUP1 SWAP2 SUB SWAP1 RETURN JUMPDEST PUSH1 0x0 PUSH1 0x1 SLOAD SWAP1 POP SWAP1 JUMP JUMPDEST PUSH1 0x0 SLOAD DUP2 JUMP JUMPDEST PUSH1 0x0 DUP1 DUP1 SWAP2 POP POP SWAP1 JUMP JUMPDEST PUSH1 0x0 DUP1 PUSH2 0x117 PUSH2 0x129 JUMP JUMPDEST SWAP1 POP DUP1 SWAP2 POP POP SWAP1 JUMP JUMPDEST PUSH1 0x0 DUP1 SLOAD SWAP1 POP SWAP1 JUMP JUMPDEST PUSH1 0x0 DUP1 SLOAD SWAP1 POP SWAP1 JUMP JUMPDEST PUSH2 0x13B DUP2 PUSH2 0x15C JUMP JUMPDEST DUP3 MSTORE POP POP JUMP JUMPDEST PUSH1 0x0 PUSH1 0x20 DUP3 ADD SWAP1 POP PUSH2 0x156 PUSH1 0x0 DUP4 ADD DUP5 PUSH2 0x132 JUMP JUMPDEST SWAP3 SWAP2 POP POP JUMP JUMPDEST PUSH1 0x0 DUP2 SWAP1 POP SWAP2 SWAP1 POP JUMP INVALID LOG2 PUSH5 0x6970667358 0x22 SLT KECCAK256 PUSH21 0xDB3F87C5272CB5D14323BB7A7C71DEFFBB92BB8AF9 0xFC TIMESTAMP JUMPDEST PUSH2 0x5945 SWAP5 SWAP12 PUSH5 0xA764736F6C PUSH4 0x43000800 STOP CALLER "
				},
				"gasEstimates": {
					"creation": {
						"codeDepositCost": "82400",
						"executionCost": "40141",
						"totalCost": "122541"
					},
					"external": {
						"f2()": "1229",
						"f4()": "1203",
						"f5()": "364",
						"getY()": "1115",
						"x()": "1129"
					},
					"internal": {
						"f1()": "823",
						"f3()": "infinite"
					}
				},
				"methodIdentifiers": {
					"f2()": "9942ec6f",
					"f4()": "c3f90202",
					"f5()": "3c9d377d",
					"getY()": "0b7f1665",
					"x()": "0c55699c"
				}
			},
			"storageLayout": {
				"storage": [
					{
						"astId": 4,
						"contract": "contracts/variables_and_functions_visibility.sol:A",
						"label": "x",
						"offset": 0,
						"slot": "0",
						"type": "t_int256"
					},
					{
						"astId": 7,
						"contract": "contracts/variables_and_functions_visibility.sol:A",
						"label": "y",
						"offset": 0,
						"slot": "1",
						"type": "t_int256"
					}
				],
				"types": {
					"t_int256": {
						"encoding": "inplace",
						"label": "int256",
						"numberOfBytes": "32"
					}
				}
			},
			"userdoc": {
				"kind": "user",
				"methods": {},
				"version": 1
			}
		}
	}
}