{
	"contracts/crowdfunding.sol": {
		"CrowdFunding": {
			"abi": [
				{
					"inputs": [
						{
							"internalType": "uint256",
							"name": "_goal",
							"type": "uint256"
						},
						{
							"internalType": "uint256",
							"name": "_deadline",
							"type": "uint256"
						}
					],
					"stateMutability": "nonpayable",
					"type": "constructor"
				},
				{
					"anonymous": false,
					"inputs": [
						{
							"indexed": false,
							"internalType": "address",
							"name": "_sender",
							"type": "address"
						},
						{
							"indexed": false,
							"internalType": "uint256",
							"name": "_value",
							"type": "uint256"
						}
					],
					"name": "ContributEvent",
					"type": "event"
				},
				{
					"anonymous": false,
					"inputs": [
						{
							"indexed": false,
							"internalType": "string",
							"name": "_description",
							"type": "string"
						},
						{
							"indexed": false,
							"internalType": "address",
							"name": "_recipient",
							"type": "address"
						},
						{
							"indexed": false,
							"internalType": "uint256",
							"name": "_value",
							"type": "uint256"
						}
					],
					"name": "CreateRequestEvent",
					"type": "event"
				},
				{
					"anonymous": false,
					"inputs": [
						{
							"indexed": false,
							"internalType": "address",
							"name": "_recipient",
							"type": "address"
						},
						{
							"indexed": false,
							"internalType": "uint256",
							"name": "_value",
							"type": "uint256"
						}
					],
					"name": "MakePaymentEvent",
					"type": "event"
				},
				{
					"inputs": [],
					"name": "admin",
					"outputs": [
						{
							"internalType": "address",
							"name": "",
							"type": "address"
						}
					],
					"stateMutability": "view",
					"type": "function"
				},
				{
					"inputs": [],
					"name": "contribute",
					"outputs": [],
					"stateMutability": "payable",
					"type": "function"
				},
				{
					"inputs": [
						{
							"internalType": "address",
							"name": "",
							"type": "address"
						}
					],
					"name": "contributors",
					"outputs": [
						{
							"internalType": "uint256",
							"name": "",
							"type": "uint256"
						}
					],
					"stateMutability": "view",
					"type": "function"
				},
				{
					"inputs": [
						{
							"internalType": "string",
							"name": "_description",
							"type": "string"
						},
						{
							"internalType": "address payable",
							"name": "_recipient",
							"type": "address"
						},
						{
							"internalType": "uint256",
							"name": "_value",
							"type": "uint256"
						}
					],
					"name": "createRequest",
					"outputs": [],
					"stateMutability": "nonpayable",
					"type": "function"
				},
				{
					"inputs": [],
					"name": "deadline",
					"outputs": [
						{
							"internalType": "uint256",
							"name": "",
							"type": "uint256"
						}
					],
					"stateMutability": "view",
					"type": "function"
				},
				{
					"inputs": [],
					"name": "getBalance",
					"outputs": [
						{
							"internalType": "uint256",
							"name": "",
							"type": "uint256"
						}
					],
					"stateMutability": "view",
					"type": "function"
				},
				{
					"inputs": [],
					"name": "getRefund",
					"outputs": [],
					"stateMutability": "nonpayable",
					"type": "function"
				},
				{
					"inputs": [],
					"name": "goal",
					"outputs": [
						{
							"internalType": "uint256",
							"name": "",
							"type": "uint256"
						}
					],
					"stateMutability": "view",
					"type": "function"
				},
				{
					"inputs": [
						{
							"internalType": "uint256",
							"name": "_requestNumber",
							"type": "uint256"
						}
					],
					"name": "makePayment",
					"outputs": [],
					"stateMutability": "nonpayable",
					"type": "function"
				},
				{
					"inputs": [],
					"name": "minimumContribution",
					"outputs": [
						{
							"internalType": "uint256",
							"name": "",
							"type": "uint256"
						}
					],
					"stateMutability": "view",
					"type": "function"
				},
				{
					"inputs": [],
					"name": "numberContributors",
					"outputs": [
						{
							"internalType": "uint256",
							"name": "",
							"type": "uint256"
						}
					],
					"stateMutability": "view",
					"type": "function"
				},
				{
					"inputs": [],
					"name": "numberRequests",
					"outputs": [
						{
							"internalType": "uint256",
							"name": "",
							"type": "uint256"
						}
					],
					"stateMutability": "view",
					"type": "function"
				},
				{
					"inputs": [],
					"name": "raisedAmount",
					"outputs": [
						{
							"internalType": "uint256",
							"name": "",
							"type": "uint256"
						}
					],
					"stateMutability": "view",
					"type": "function"
				},
				{
					"inputs": [
						{
							"internalType": "uint256",
							"name": "",
							"type": "uint256"
						}
					],
					"name": "requests",
					"outputs": [
						{
							"internalType": "string",
							"name": "description",
							"type": "string"
						},
						{
							"internalType": "address payable",
							"name": "recipient",
							"type": "address"
						},
						{
							"internalType": "uint256",
							"name": "value",
							"type": "uint256"
						},
						{
							"internalType": "bool",
							"name": "completed",
							"type": "bool"
						},
						{
							"internalType": "uint256",
							"name": "numberVoters",
							"type": "uint256"
						}
					],
					"stateMutability": "view",
					"type": "function"
				},
				{
					"inputs": [
						{
							"internalType": "uint256",
							"name": "_requestNumber",
							"type": "uint256"
						}
					],
					"name": "voteRequest",
					"outputs": [],
					"stateMutability": "nonpayable",
					"type": "function"
				},
				{
					"stateMutability": "payable",
					"type": "receive"
				}
			],
			"devdoc": {
				"kind": "dev",
				"methods": {},
				"version": 1
			},
			"evm": {
				"assembly": "    /* \"contracts/crowdfunding.sol\":73:6006  contract CrowdFunding{\r... */\n  mstore(0x40, 0x80)\n    /* \"contracts/crowdfunding.sol\":1378:1653  constructor(uint _goal, uint _deadline){\r... */\n  callvalue\n  dup1\n  iszero\n  tag_1\n  jumpi\n  0x00\n  dup1\n  revert\ntag_1:\n  pop\n  mload(0x40)\n  sub(codesize, bytecodeSize)\n  dup1\n  bytecodeSize\n  dup4\n  codecopy\n  dup2\n  dup2\n  add\n  0x40\n  mstore\n  dup2\n  add\n  swap1\n  tag_2\n  swap2\n  swap1\n  tag_3\n  jump\t// in\ntag_2:\n    /* \"contracts/crowdfunding.sol\":1435:1440  _goal */\n  dup2\n    /* \"contracts/crowdfunding.sol\":1428:1432  goal */\n  0x05\n    /* \"contracts/crowdfunding.sol\":1428:1440  goal = _goal */\n  dup2\n  swap1\n  sstore\n  pop\n    /* \"contracts/crowdfunding.sol\":1502:1511  _deadline */\n  dup1\n    /* \"contracts/crowdfunding.sol\":1484:1499  block.timestamp */\n  timestamp\n    /* \"contracts/crowdfunding.sol\":1484:1511  block.timestamp + _deadline */\n  tag_6\n  swap2\n  swap1\n  tag_7\n  jump\t// in\ntag_6:\n    /* \"contracts/crowdfunding.sol\":1473:1481  deadline */\n  0x04\n    /* \"contracts/crowdfunding.sol\":1473:1511  deadline = block.timestamp + _deadline */\n  dup2\n  swap1\n  sstore\n  pop\n    /* \"contracts/crowdfunding.sol\":1576:1583  100 wei */\n  0x64\n    /* \"contracts/crowdfunding.sol\":1554:1573  minimumContribution */\n  0x03\n    /* \"contracts/crowdfunding.sol\":1554:1583  minimumContribution = 100 wei */\n  dup2\n  swap1\n  sstore\n  pop\n    /* \"contracts/crowdfunding.sol\":1622:1632  msg.sender */\n  caller\n    /* \"contracts/crowdfunding.sol\":1614:1619  admin */\n  0x01\n  0x00\n    /* \"contracts/crowdfunding.sol\":1614:1632  admin = msg.sender */\n  0x0100\n  exp\n  dup2\n  sload\n  dup2\n  0xffffffffffffffffffffffffffffffffffffffff\n  mul\n  not\n  and\n  swap1\n  dup4\n  0xffffffffffffffffffffffffffffffffffffffff\n  and\n  mul\n  or\n  swap1\n  sstore\n  pop\n    /* \"contracts/crowdfunding.sol\":1378:1653  constructor(uint _goal, uint _deadline){\r... */\n  pop\n  pop\n    /* \"contracts/crowdfunding.sol\":73:6006  contract CrowdFunding{\r... */\n  jump(tag_8)\n    /* \"#utility.yul\":7:150   */\ntag_10:\n    /* \"#utility.yul\":64:69   */\n  0x00\n    /* \"#utility.yul\":95:101   */\n  dup2\n    /* \"#utility.yul\":89:102   */\n  mload\n    /* \"#utility.yul\":80:102   */\n  swap1\n  pop\n    /* \"#utility.yul\":111:144   */\n  tag_12\n    /* \"#utility.yul\":138:143   */\n  dup2\n    /* \"#utility.yul\":111:144   */\n  tag_13\n  jump\t// in\ntag_12:\n    /* \"#utility.yul\":7:150   */\n  swap3\n  swap2\n  pop\n  pop\n  jump\t// out\n    /* \"#utility.yul\":156:663   */\ntag_3:\n    /* \"#utility.yul\":235:241   */\n  0x00\n    /* \"#utility.yul\":243:249   */\n  dup1\n    /* \"#utility.yul\":292:294   */\n  0x40\n    /* \"#utility.yul\":280:289   */\n  dup4\n    /* \"#utility.yul\":271:278   */\n  dup6\n    /* \"#utility.yul\":267:290   */\n  sub\n    /* \"#utility.yul\":263:295   */\n  slt\n    /* \"#utility.yul\":260:379   */\n  iszero\n  tag_15\n  jumpi\n    /* \"#utility.yul\":298:377   */\n  tag_16\n  tag_17\n  jump\t// in\ntag_16:\n    /* \"#utility.yul\":260:379   */\ntag_15:\n    /* \"#utility.yul\":418:419   */\n  0x00\n    /* \"#utility.yul\":443:507   */\n  tag_18\n    /* \"#utility.yul\":499:506   */\n  dup6\n    /* \"#utility.yul\":490:496   */\n  dup3\n    /* \"#utility.yul\":479:488   */\n  dup7\n    /* \"#utility.yul\":475:497   */\n  add\n    /* \"#utility.yul\":443:507   */\n  tag_10\n  jump\t// in\ntag_18:\n    /* \"#utility.yul\":433:507   */\n  swap3\n  pop\n    /* \"#utility.yul\":389:517   */\n  pop\n    /* \"#utility.yul\":556:558   */\n  0x20\n    /* \"#utility.yul\":582:646   */\n  tag_19\n    /* \"#utility.yul\":638:645   */\n  dup6\n    /* \"#utility.yul\":629:635   */\n  dup3\n    /* \"#utility.yul\":618:627   */\n  dup7\n    /* \"#utility.yul\":614:636   */\n  add\n    /* \"#utility.yul\":582:646   */\n  tag_10\n  jump\t// in\ntag_19:\n    /* \"#utility.yul\":572:646   */\n  swap2\n  pop\n    /* \"#utility.yul\":527:656   */\n  pop\n    /* \"#utility.yul\":156:663   */\n  swap3\n  pop\n  swap3\n  swap1\n  pop\n  jump\t// out\n    /* \"#utility.yul\":750:1055   */\ntag_7:\n    /* \"#utility.yul\":790:793   */\n  0x00\n    /* \"#utility.yul\":809:829   */\n  tag_23\n    /* \"#utility.yul\":827:828   */\n  dup3\n    /* \"#utility.yul\":809:829   */\n  tag_24\n  jump\t// in\ntag_23:\n    /* \"#utility.yul\":804:829   */\n  swap2\n  pop\n    /* \"#utility.yul\":843:863   */\n  tag_25\n    /* \"#utility.yul\":861:862   */\n  dup4\n    /* \"#utility.yul\":843:863   */\n  tag_24\n  jump\t// in\ntag_25:\n    /* \"#utility.yul\":838:863   */\n  swap3\n  pop\n    /* \"#utility.yul\":997:998   */\n  dup3\n    /* \"#utility.yul\":929:995   */\n  0xffffffffffffffffffffffffffffffffffffffffffffffffffffffffffffffff\n    /* \"#utility.yul\":925:999   */\n  sub\n    /* \"#utility.yul\":922:923   */\n  dup3\n    /* \"#utility.yul\":919:1000   */\n  gt\n    /* \"#utility.yul\":916:1023   */\n  iszero\n  tag_26\n  jumpi\n    /* \"#utility.yul\":1003:1021   */\n  tag_27\n  tag_28\n  jump\t// in\ntag_27:\n    /* \"#utility.yul\":916:1023   */\ntag_26:\n    /* \"#utility.yul\":1047:1048   */\n  dup3\n    /* \"#utility.yul\":1044:1045   */\n  dup3\n    /* \"#utility.yul\":1040:1049   */\n  add\n    /* \"#utility.yul\":1033:1049   */\n  swap1\n  pop\n    /* \"#utility.yul\":750:1055   */\n  swap3\n  swap2\n  pop\n  pop\n  jump\t// out\n    /* \"#utility.yul\":1061:1138   */\ntag_24:\n    /* \"#utility.yul\":1098:1105   */\n  0x00\n    /* \"#utility.yul\":1127:1132   */\n  dup2\n    /* \"#utility.yul\":1116:1132   */\n  swap1\n  pop\n    /* \"#utility.yul\":1061:1138   */\n  swap2\n  swap1\n  pop\n  jump\t// out\n    /* \"#utility.yul\":1144:1324   */\ntag_28:\n    /* \"#utility.yul\":1192:1269   */\n  0x4e487b7100000000000000000000000000000000000000000000000000000000\n    /* \"#utility.yul\":1189:1190   */\n  0x00\n    /* \"#utility.yul\":1182:1270   */\n  mstore\n    /* \"#utility.yul\":1289:1293   */\n  0x11\n    /* \"#utility.yul\":1286:1287   */\n  0x04\n    /* \"#utility.yul\":1279:1294   */\n  mstore\n    /* \"#utility.yul\":1313:1317   */\n  0x24\n    /* \"#utility.yul\":1310:1311   */\n  0x00\n    /* \"#utility.yul\":1303:1318   */\n  revert\n    /* \"#utility.yul\":1453:1570   */\ntag_17:\n    /* \"#utility.yul\":1562:1563   */\n  0x00\n    /* \"#utility.yul\":1559:1560   */\n  dup1\n    /* \"#utility.yul\":1552:1564   */\n  revert\n    /* \"#utility.yul\":1576:1698   */\ntag_13:\n    /* \"#utility.yul\":1649:1673   */\n  tag_35\n    /* \"#utility.yul\":1667:1672   */\n  dup2\n    /* \"#utility.yul\":1649:1673   */\n  tag_24\n  jump\t// in\ntag_35:\n    /* \"#utility.yul\":1642:1647   */\n  dup2\n    /* \"#utility.yul\":1639:1674   */\n  eq\n    /* \"#utility.yul\":1629:1692   */\n  tag_36\n  jumpi\n    /* \"#utility.yul\":1688:1689   */\n  0x00\n    /* \"#utility.yul\":1685:1686   */\n  dup1\n    /* \"#utility.yul\":1678:1690   */\n  revert\n    /* \"#utility.yul\":1629:1692   */\ntag_36:\n    /* \"#utility.yul\":1576:1698   */\n  pop\n  jump\t// out\n    /* \"contracts/crowdfunding.sol\":73:6006  contract CrowdFunding{\r... */\ntag_8:\n  dataSize(sub_0)\n  dup1\n  dataOffset(sub_0)\n  0x00\n  codecopy\n  0x00\n  return\nstop\n\nsub_0: assembly {\n        /* \"contracts/crowdfunding.sol\":73:6006  contract CrowdFunding{\r... */\n      mstore(0x40, 0x80)\n      jumpi(tag_1, lt(calldatasize, 0x04))\n      shr(0xe0, calldataload(0x00))\n      dup1\n      0x81d12c58\n      gt\n      tag_18\n      jumpi\n      dup1\n      0xd3a9d4ea\n      gt\n      tag_19\n      jumpi\n      dup1\n      0xd3a9d4ea\n      eq\n      tag_14\n      jumpi\n      dup1\n      0xd7bb99ba\n      eq\n      tag_15\n      jumpi\n      dup1\n      0xf3740daf\n      eq\n      tag_16\n      jumpi\n      dup1\n      0xf851a440\n      eq\n      tag_17\n      jumpi\n      jump(tag_2)\n    tag_19:\n      dup1\n      0x81d12c58\n      eq\n      tag_10\n      jumpi\n      dup1\n      0x937e09b1\n      eq\n      tag_11\n      jumpi\n      dup1\n      0xb2d5ae44\n      eq\n      tag_12\n      jumpi\n      dup1\n      0xc59ee1dc\n      eq\n      tag_13\n      jumpi\n      jump(tag_2)\n    tag_18:\n      dup1\n      0x29dcb0cf\n      gt\n      tag_20\n      jumpi\n      dup1\n      0x29dcb0cf\n      eq\n      tag_6\n      jumpi\n      dup1\n      0x40193883\n      eq\n      tag_7\n      jumpi\n      dup1\n      0x4cb6f4a5\n      eq\n      tag_8\n      jumpi\n      dup1\n      0x5114cb52\n      eq\n      tag_9\n      jumpi\n      jump(tag_2)\n    tag_20:\n      dup1\n      0x12065fe0\n      eq\n      tag_3\n      jumpi\n      dup1\n      0x1b16bb5c\n      eq\n      tag_4\n      jumpi\n      dup1\n      0x1f6d4942\n      eq\n      tag_5\n      jumpi\n      jump(tag_2)\n    tag_1:\n      jumpi(tag_2, calldatasize)\n        /* \"contracts/crowdfunding.sol\":2893:2905  contribute() */\n      tag_23\n        /* \"contracts/crowdfunding.sol\":2893:2903  contribute */\n      tag_24\n        /* \"contracts/crowdfunding.sol\":2893:2905  contribute() */\n      jump\t// in\n    tag_23:\n        /* \"contracts/crowdfunding.sol\":73:6006  contract CrowdFunding{\r... */\n      stop\n    tag_2:\n      0x00\n      dup1\n      revert\n        /* \"contracts/crowdfunding.sol\":2964:3062  function getBalance() public view returns(uint){\r... */\n    tag_3:\n      callvalue\n      dup1\n      iszero\n      tag_25\n      jumpi\n      0x00\n      dup1\n      revert\n    tag_25:\n      pop\n      tag_26\n      tag_27\n      jump\t// in\n    tag_26:\n      mload(0x40)\n      tag_28\n      swap2\n      swap1\n      tag_29\n      jump\t// in\n    tag_28:\n      mload(0x40)\n      dup1\n      swap2\n      sub\n      swap1\n      return\n        /* \"contracts/crowdfunding.sol\":3939:4613  function createRequest(string memory _description, address payable _recipient, uint _value) public onlyAdmin{\r... */\n    tag_4:\n      callvalue\n      dup1\n      iszero\n      tag_30\n      jumpi\n      0x00\n      dup1\n      revert\n    tag_30:\n      pop\n      tag_31\n      0x04\n      dup1\n      calldatasize\n      sub\n      dup2\n      add\n      swap1\n      tag_32\n      swap2\n      swap1\n      tag_33\n      jump\t// in\n    tag_32:\n      tag_34\n      jump\t// in\n    tag_31:\n      stop\n        /* \"contracts/crowdfunding.sol\":161:205  mapping(address => uint) public contributors */\n    tag_5:\n      callvalue\n      dup1\n      iszero\n      tag_35\n      jumpi\n      0x00\n      dup1\n      revert\n    tag_35:\n      pop\n      tag_36\n      0x04\n      dup1\n      calldatasize\n      sub\n      dup2\n      add\n      swap1\n      tag_37\n      swap2\n      swap1\n      tag_38\n      jump\t// in\n    tag_37:\n      tag_39\n      jump\t// in\n    tag_36:\n      mload(0x40)\n      tag_40\n      swap2\n      swap1\n      tag_29\n      jump\t// in\n    tag_40:\n      mload(0x40)\n      dup1\n      swap2\n      sub\n      swap1\n      return\n        /* \"contracts/crowdfunding.sol\":465:485  uint public deadline */\n    tag_6:\n      callvalue\n      dup1\n      iszero\n      tag_41\n      jumpi\n      0x00\n      dup1\n      revert\n    tag_41:\n      pop\n      tag_42\n      tag_43\n      jump\t// in\n    tag_42:\n      mload(0x40)\n      tag_44\n      swap2\n      swap1\n      tag_29\n      jump\t// in\n    tag_44:\n      mload(0x40)\n      dup1\n      swap2\n      sub\n      swap1\n      return\n        /* \"contracts/crowdfunding.sol\":505:521  uint public goal */\n    tag_7:\n      callvalue\n      dup1\n      iszero\n      tag_45\n      jumpi\n      0x00\n      dup1\n      revert\n    tag_45:\n      pop\n      tag_46\n      tag_47\n      jump\t// in\n    tag_46:\n      mload(0x40)\n      tag_48\n      swap2\n      swap1\n      tag_29\n      jump\t// in\n    tag_48:\n      mload(0x40)\n      dup1\n      swap2\n      sub\n      swap1\n      return\n        /* \"contracts/crowdfunding.sol\":4645:5221  function voteRequest(uint _requestNumber) public {\r... */\n    tag_8:\n      callvalue\n      dup1\n      iszero\n      tag_49\n      jumpi\n      0x00\n      dup1\n      revert\n    tag_49:\n      pop\n      tag_50\n      0x04\n      dup1\n      calldatasize\n      sub\n      dup2\n      add\n      swap1\n      tag_51\n      swap2\n      swap1\n      tag_52\n      jump\t// in\n    tag_51:\n      tag_53\n      jump\t// in\n    tag_50:\n      stop\n        /* \"contracts/crowdfunding.sol\":5286:5995  function makePayment(uint _requestNumber) public onlyAdmin{\r... */\n    tag_9:\n      callvalue\n      dup1\n      iszero\n      tag_54\n      jumpi\n      0x00\n      dup1\n      revert\n    tag_54:\n      pop\n      tag_55\n      0x04\n      dup1\n      calldatasize\n      sub\n      dup2\n      add\n      swap1\n      tag_56\n      swap2\n      swap1\n      tag_52\n      jump\t// in\n    tag_56:\n      tag_57\n      jump\t// in\n    tag_55:\n      stop\n        /* \"contracts/crowdfunding.sol\":1215:1255  mapping(uint => Request) public requests */\n    tag_10:\n      callvalue\n      dup1\n      iszero\n      tag_58\n      jumpi\n      0x00\n      dup1\n      revert\n    tag_58:\n      pop\n      tag_59\n      0x04\n      dup1\n      calldatasize\n      sub\n      dup2\n      add\n      swap1\n      tag_60\n      swap2\n      swap1\n      tag_52\n      jump\t// in\n    tag_60:\n      tag_61\n      jump\t// in\n    tag_59:\n      mload(0x40)\n      tag_62\n      swap6\n      swap5\n      swap4\n      swap3\n      swap2\n      swap1\n      tag_63\n      jump\t// in\n    tag_62:\n      mload(0x40)\n      dup1\n      swap2\n      sub\n      swap1\n      return\n        /* \"contracts/crowdfunding.sol\":399:430  uint public minimumContribution */\n    tag_11:\n      callvalue\n      dup1\n      iszero\n      tag_64\n      jumpi\n      0x00\n      dup1\n      revert\n    tag_64:\n      pop\n      tag_65\n      tag_66\n      jump\t// in\n    tag_65:\n      mload(0x40)\n      tag_67\n      swap2\n      swap1\n      tag_29\n      jump\t// in\n    tag_67:\n      mload(0x40)\n      dup1\n      swap2\n      sub\n      swap1\n      return\n        /* \"contracts/crowdfunding.sol\":3111:3707  function getRefund() public{\r... */\n    tag_12:\n      callvalue\n      dup1\n      iszero\n      tag_68\n      jumpi\n      0x00\n      dup1\n      revert\n    tag_68:\n      pop\n      tag_69\n      tag_70\n      jump\t// in\n    tag_69:\n      stop\n        /* \"contracts/crowdfunding.sol\":544:568  uint public raisedAmount */\n    tag_13:\n      callvalue\n      dup1\n      iszero\n      tag_71\n      jumpi\n      0x00\n      dup1\n      revert\n    tag_71:\n      pop\n      tag_72\n      tag_73\n      jump\t// in\n    tag_72:\n      mload(0x40)\n      tag_74\n      swap2\n      swap1\n      tag_29\n      jump\t// in\n    tag_74:\n      mload(0x40)\n      dup1\n      swap2\n      sub\n      swap1\n      return\n        /* \"contracts/crowdfunding.sol\":1341:1367  uint public numberRequests */\n    tag_14:\n      callvalue\n      dup1\n      iszero\n      tag_75\n      jumpi\n      0x00\n      dup1\n      revert\n    tag_75:\n      pop\n      tag_76\n      tag_77\n      jump\t// in\n    tag_76:\n      mload(0x40)\n      tag_78\n      swap2\n      swap1\n      tag_29\n      jump\t// in\n    tag_78:\n      mload(0x40)\n      dup1\n      swap2\n      sub\n      swap1\n      return\n        /* \"contracts/crowdfunding.sol\":1973:2736  function contribute() public payable{\r... */\n    tag_15:\n      tag_79\n      tag_24\n      jump\t// in\n    tag_79:\n      stop\n        /* \"contracts/crowdfunding.sol\":360:390  uint public numberContributors */\n    tag_16:\n      callvalue\n      dup1\n      iszero\n      tag_80\n      jumpi\n      0x00\n      dup1\n      revert\n    tag_80:\n      pop\n      tag_81\n      tag_82\n      jump\t// in\n    tag_81:\n      mload(0x40)\n      tag_83\n      swap2\n      swap1\n      tag_29\n      jump\t// in\n    tag_83:\n      mload(0x40)\n      dup1\n      swap2\n      sub\n      swap1\n      return\n        /* \"contracts/crowdfunding.sol\":275:295  address public admin */\n    tag_17:\n      callvalue\n      dup1\n      iszero\n      tag_84\n      jumpi\n      0x00\n      dup1\n      revert\n    tag_84:\n      pop\n      tag_85\n      tag_86\n      jump\t// in\n    tag_85:\n      mload(0x40)\n      tag_87\n      swap2\n      swap1\n      tag_88\n      jump\t// in\n    tag_87:\n      mload(0x40)\n      dup1\n      swap2\n      sub\n      swap1\n      return\n        /* \"contracts/crowdfunding.sol\":1973:2736  function contribute() public payable{\r... */\n    tag_24:\n        /* \"contracts/crowdfunding.sol\":2091:2099  deadline */\n      sload(0x04)\n        /* \"contracts/crowdfunding.sol\":2073:2088  block.timestamp */\n      timestamp\n        /* \"contracts/crowdfunding.sol\":2073:2099  block.timestamp < deadline */\n      lt\n        /* \"contracts/crowdfunding.sol\":2065:2124  require(block.timestamp < deadline, \"Deadline has passed.\") */\n      tag_90\n      jumpi\n      mload(0x40)\n      0x08c379a000000000000000000000000000000000000000000000000000000000\n      dup2\n      mstore\n      0x04\n      add\n      tag_91\n      swap1\n      tag_92\n      jump\t// in\n    tag_91:\n      mload(0x40)\n      dup1\n      swap2\n      sub\n      swap1\n      revert\n    tag_90:\n        /* \"contracts/crowdfunding.sol\":2221:2240  minimumContribution */\n      sload(0x03)\n        /* \"contracts/crowdfunding.sol\":2208:2217  msg.value */\n      callvalue\n        /* \"contracts/crowdfunding.sol\":2208:2240  msg.value >= minimumContribution */\n      lt\n      iszero\n        /* \"contracts/crowdfunding.sol\":2200:2274  require(msg.value >= minimumContribution, \"Minimum contribution not met.\") */\n      tag_93\n      jumpi\n      mload(0x40)\n      0x08c379a000000000000000000000000000000000000000000000000000000000\n      dup2\n      mstore\n      0x04\n      add\n      tag_94\n      swap1\n      tag_95\n      jump\t// in\n    tag_94:\n      mload(0x40)\n      dup1\n      swap2\n      sub\n      swap1\n      revert\n    tag_93:\n        /* \"contracts/crowdfunding.sol\":2414:2415  0 */\n      0x00\n        /* \"contracts/crowdfunding.sol\":2386:2398  contributors */\n      dup1\n        /* \"contracts/crowdfunding.sol\":2386:2410  contributors[msg.sender] */\n      0x00\n        /* \"contracts/crowdfunding.sol\":2399:2409  msg.sender */\n      caller\n        /* \"contracts/crowdfunding.sol\":2386:2410  contributors[msg.sender] */\n      0xffffffffffffffffffffffffffffffffffffffff\n      and\n      0xffffffffffffffffffffffffffffffffffffffff\n      and\n      dup2\n      mstore\n      0x20\n      add\n      swap1\n      dup2\n      mstore\n      0x20\n      add\n      0x00\n      keccak256\n      sload\n        /* \"contracts/crowdfunding.sol\":2386:2415  contributors[msg.sender] == 0 */\n      eq\n        /* \"contracts/crowdfunding.sol\":2382:2463  if (contributors[msg.sender] == 0){\r... */\n      iszero\n      tag_96\n      jumpi\n        /* \"contracts/crowdfunding.sol\":2431:2449  numberContributors */\n      0x02\n      0x00\n        /* \"contracts/crowdfunding.sol\":2431:2451  numberContributors++ */\n      dup2\n      sload\n      dup1\n      swap3\n      swap2\n      swap1\n      tag_97\n      swap1\n      tag_98\n      jump\t// in\n    tag_97:\n      swap2\n      swap1\n      pop\n      sstore\n      pop\n        /* \"contracts/crowdfunding.sol\":2382:2463  if (contributors[msg.sender] == 0){\r... */\n    tag_96:\n        /* \"contracts/crowdfunding.sol\":2540:2549  msg.value */\n      callvalue\n        /* \"contracts/crowdfunding.sol\":2512:2524  contributors */\n      0x00\n        /* \"contracts/crowdfunding.sol\":2512:2536  contributors[msg.sender] */\n      dup1\n        /* \"contracts/crowdfunding.sol\":2525:2535  msg.sender */\n      caller\n        /* \"contracts/crowdfunding.sol\":2512:2536  contributors[msg.sender] */\n      0xffffffffffffffffffffffffffffffffffffffff\n      and\n      0xffffffffffffffffffffffffffffffffffffffff\n      and\n      dup2\n      mstore\n      0x20\n      add\n      swap1\n      dup2\n      mstore\n      0x20\n      add\n      0x00\n      keccak256\n      0x00\n        /* \"contracts/crowdfunding.sol\":2512:2549  contributors[msg.sender] += msg.value */\n      dup3\n      dup3\n      sload\n      tag_99\n      swap2\n      swap1\n      tag_100\n      jump\t// in\n    tag_99:\n      swap3\n      pop\n      pop\n      dup2\n      swap1\n      sstore\n      pop\n        /* \"contracts/crowdfunding.sol\":2616:2625  msg.value */\n      callvalue\n        /* \"contracts/crowdfunding.sol\":2600:2612  raisedAmount */\n      0x06\n      0x00\n        /* \"contracts/crowdfunding.sol\":2600:2625  raisedAmount += msg.value */\n      dup3\n      dup3\n      sload\n      tag_101\n      swap2\n      swap1\n      tag_100\n      jump\t// in\n    tag_101:\n      swap3\n      pop\n      pop\n      dup2\n      swap1\n      sstore\n      pop\n        /* \"contracts/crowdfunding.sol\":2689:2726  ContributEvent(msg.sender, msg.value) */\n      0x44c7d71aa3a0dca1ae622fe7fa2c5d9abb4d4c6a4cfccd326791b7f7fbb88a70\n        /* \"contracts/crowdfunding.sol\":2704:2714  msg.sender */\n      caller\n        /* \"contracts/crowdfunding.sol\":2716:2725  msg.value */\n      callvalue\n        /* \"contracts/crowdfunding.sol\":2689:2726  ContributEvent(msg.sender, msg.value) */\n      mload(0x40)\n      tag_102\n      swap3\n      swap2\n      swap1\n      tag_103\n      jump\t// in\n    tag_102:\n      mload(0x40)\n      dup1\n      swap2\n      sub\n      swap1\n      log1\n        /* \"contracts/crowdfunding.sol\":1973:2736  function contribute() public payable{\r... */\n      jump\t// out\n        /* \"contracts/crowdfunding.sol\":2964:3062  function getBalance() public view returns(uint){\r... */\n    tag_27:\n        /* \"contracts/crowdfunding.sol\":3006:3010  uint */\n      0x00\n        /* \"contracts/crowdfunding.sol\":3031:3052  address(this).balance */\n      selfbalance\n        /* \"contracts/crowdfunding.sol\":3024:3052  return address(this).balance */\n      swap1\n      pop\n        /* \"contracts/crowdfunding.sol\":2964:3062  function getBalance() public view returns(uint){\r... */\n      swap1\n      jump\t// out\n        /* \"contracts/crowdfunding.sol\":3939:4613  function createRequest(string memory _description, address payable _recipient, uint _value) public onlyAdmin{\r... */\n    tag_34:\n        /* \"contracts/crowdfunding.sol\":3814:3819  admin */\n      0x01\n      0x00\n      swap1\n      sload\n      swap1\n      0x0100\n      exp\n      swap1\n      div\n      0xffffffffffffffffffffffffffffffffffffffff\n      and\n        /* \"contracts/crowdfunding.sol\":3800:3819  msg.sender == admin */\n      0xffffffffffffffffffffffffffffffffffffffff\n      and\n        /* \"contracts/crowdfunding.sol\":3800:3810  msg.sender */\n      caller\n        /* \"contracts/crowdfunding.sol\":3800:3819  msg.sender == admin */\n      0xffffffffffffffffffffffffffffffffffffffff\n      and\n      eq\n        /* \"contracts/crowdfunding.sol\":3792:3850  require(msg.sender == admin, \"Admin priveleges required.\") */\n      tag_106\n      jumpi\n      mload(0x40)\n      0x08c379a000000000000000000000000000000000000000000000000000000000\n      dup2\n      mstore\n      0x04\n      add\n      tag_107\n      swap1\n      tag_108\n      jump\t// in\n    tag_107:\n      mload(0x40)\n      dup1\n      swap2\n      sub\n      swap1\n      revert\n    tag_106:\n        /* \"contracts/crowdfunding.sol\":4152:4178  Request storage newRequest */\n      0x00\n        /* \"contracts/crowdfunding.sol\":4181:4189  requests */\n      0x07\n        /* \"contracts/crowdfunding.sol\":4181:4205  requests[numberRequests] */\n      0x00\n        /* \"contracts/crowdfunding.sol\":4190:4204  numberRequests */\n      sload(0x08)\n        /* \"contracts/crowdfunding.sol\":4181:4205  requests[numberRequests] */\n      dup2\n      mstore\n      0x20\n      add\n      swap1\n      dup2\n      mstore\n      0x20\n      add\n      0x00\n      keccak256\n        /* \"contracts/crowdfunding.sol\":4152:4205  Request storage newRequest = requests[numberRequests] */\n      swap1\n      pop\n        /* \"contracts/crowdfunding.sol\":4316:4330  numberRequests */\n      0x08\n      0x00\n        /* \"contracts/crowdfunding.sol\":4316:4332  numberRequests++ */\n      dup2\n      sload\n      dup1\n      swap3\n      swap2\n      swap1\n      tag_110\n      swap1\n      tag_98\n      jump\t// in\n    tag_110:\n      swap2\n      swap1\n      pop\n      sstore\n      pop\n        /* \"contracts/crowdfunding.sol\":4422:4434  _description */\n      dup4\n        /* \"contracts/crowdfunding.sol\":4397:4407  newRequest */\n      dup2\n        /* \"contracts/crowdfunding.sol\":4397:4419  newRequest.description */\n      0x00\n      add\n        /* \"contracts/crowdfunding.sol\":4397:4434  newRequest.description = _description */\n      swap1\n      dup1\n      mload\n      swap1\n      0x20\n      add\n      swap1\n      tag_111\n      swap3\n      swap2\n      swap1\n      tag_112\n      jump\t// in\n    tag_111:\n      pop\n        /* \"contracts/crowdfunding.sol\":4468:4478  _recipient */\n      dup3\n        /* \"contracts/crowdfunding.sol\":4445:4455  newRequest */\n      dup2\n        /* \"contracts/crowdfunding.sol\":4445:4465  newRequest.recipient */\n      0x01\n      add\n      0x00\n        /* \"contracts/crowdfunding.sol\":4445:4478  newRequest.recipient = _recipient */\n      0x0100\n      exp\n      dup2\n      sload\n      dup2\n      0xffffffffffffffffffffffffffffffffffffffff\n      mul\n      not\n      and\n      swap1\n      dup4\n      0xffffffffffffffffffffffffffffffffffffffff\n      and\n      mul\n      or\n      swap1\n      sstore\n      pop\n        /* \"contracts/crowdfunding.sol\":4508:4514  _value */\n      dup2\n        /* \"contracts/crowdfunding.sol\":4489:4499  newRequest */\n      dup2\n        /* \"contracts/crowdfunding.sol\":4489:4505  newRequest.value */\n      0x02\n      add\n        /* \"contracts/crowdfunding.sol\":4489:4514  newRequest.value = _value */\n      dup2\n      swap1\n      sstore\n      pop\n        /* \"contracts/crowdfunding.sol\":4548:4553  false */\n      0x00\n        /* \"contracts/crowdfunding.sol\":4525:4535  newRequest */\n      dup2\n        /* \"contracts/crowdfunding.sol\":4525:4545  newRequest.completed */\n      0x03\n      add\n      0x00\n        /* \"contracts/crowdfunding.sol\":4525:4553  newRequest.completed = false */\n      0x0100\n      exp\n      dup2\n      sload\n      dup2\n      0xff\n      mul\n      not\n      and\n      swap1\n      dup4\n      iszero\n      iszero\n      mul\n      or\n      swap1\n      sstore\n      pop\n        /* \"contracts/crowdfunding.sol\":4590:4591  0 */\n      0x00\n        /* \"contracts/crowdfunding.sol\":4564:4574  newRequest */\n      dup2\n        /* \"contracts/crowdfunding.sol\":4564:4587  newRequest.numberVoters */\n      0x04\n      add\n        /* \"contracts/crowdfunding.sol\":4564:4591  newRequest.numberVoters = 0 */\n      dup2\n      swap1\n      sstore\n      pop\n        /* \"contracts/crowdfunding.sol\":4047:4613  {\r... */\n      pop\n        /* \"contracts/crowdfunding.sol\":3939:4613  function createRequest(string memory _description, address payable _recipient, uint _value) public onlyAdmin{\r... */\n      pop\n      pop\n      pop\n      jump\t// out\n        /* \"contracts/crowdfunding.sol\":161:205  mapping(address => uint) public contributors */\n    tag_39:\n      mstore(0x20, 0x00)\n      dup1\n      0x00\n      mstore\n      keccak256(0x00, 0x40)\n      0x00\n      swap2\n      pop\n      swap1\n      pop\n      sload\n      dup2\n      jump\t// out\n        /* \"contracts/crowdfunding.sol\":465:485  uint public deadline */\n    tag_43:\n      sload(0x04)\n      dup2\n      jump\t// out\n        /* \"contracts/crowdfunding.sol\":505:521  uint public goal */\n    tag_47:\n      sload(0x05)\n      dup2\n      jump\t// out\n        /* \"contracts/crowdfunding.sol\":4645:5221  function voteRequest(uint _requestNumber) public {\r... */\n    tag_53:\n        /* \"contracts/crowdfunding.sol\":4780:4781  0 */\n      0x00\n        /* \"contracts/crowdfunding.sol\":4753:4765  contributors */\n      dup1\n        /* \"contracts/crowdfunding.sol\":4753:4777  contributors[msg.sender] */\n      0x00\n        /* \"contracts/crowdfunding.sol\":4766:4776  msg.sender */\n      caller\n        /* \"contracts/crowdfunding.sol\":4753:4777  contributors[msg.sender] */\n      0xffffffffffffffffffffffffffffffffffffffff\n      and\n      0xffffffffffffffffffffffffffffffffffffffff\n      and\n      dup2\n      mstore\n      0x20\n      add\n      swap1\n      dup2\n      mstore\n      0x20\n      add\n      0x00\n      keccak256\n      sload\n        /* \"contracts/crowdfunding.sol\":4753:4781  contributors[msg.sender] > 0 */\n      gt\n        /* \"contracts/crowdfunding.sol\":4745:4813  require(contributors[msg.sender] > 0, \"You must be a user to vote.\") */\n      tag_114\n      jumpi\n      mload(0x40)\n      0x08c379a000000000000000000000000000000000000000000000000000000000\n      dup2\n      mstore\n      0x04\n      add\n      tag_115\n      swap1\n      tag_116\n      jump\t// in\n    tag_115:\n      mload(0x40)\n      dup1\n      swap2\n      sub\n      swap1\n      revert\n    tag_114:\n        /* \"contracts/crowdfunding.sol\":4839:4866  Request storage thisRequest */\n      0x00\n        /* \"contracts/crowdfunding.sol\":4869:4877  requests */\n      0x07\n        /* \"contracts/crowdfunding.sol\":4869:4893  requests[_requestNumber] */\n      0x00\n        /* \"contracts/crowdfunding.sol\":4878:4892  _requestNumber */\n      dup4\n        /* \"contracts/crowdfunding.sol\":4869:4893  requests[_requestNumber] */\n      dup2\n      mstore\n      0x20\n      add\n      swap1\n      dup2\n      mstore\n      0x20\n      add\n      0x00\n      keccak256\n        /* \"contracts/crowdfunding.sol\":4839:4893  Request storage thisRequest = requests[_requestNumber] */\n      swap1\n      pop\n        /* \"contracts/crowdfunding.sol\":4999:5004  false */\n      0x00\n        /* \"contracts/crowdfunding.sol\":4965:5004  thisRequest.voters[msg.sender] == false */\n      iszero\n      iszero\n        /* \"contracts/crowdfunding.sol\":4965:4976  thisRequest */\n      dup2\n        /* \"contracts/crowdfunding.sol\":4965:4983  thisRequest.voters */\n      0x05\n      add\n        /* \"contracts/crowdfunding.sol\":4965:4995  thisRequest.voters[msg.sender] */\n      0x00\n        /* \"contracts/crowdfunding.sol\":4984:4994  msg.sender */\n      caller\n        /* \"contracts/crowdfunding.sol\":4965:4995  thisRequest.voters[msg.sender] */\n      0xffffffffffffffffffffffffffffffffffffffff\n      and\n      0xffffffffffffffffffffffffffffffffffffffff\n      and\n      dup2\n      mstore\n      0x20\n      add\n      swap1\n      dup2\n      mstore\n      0x20\n      add\n      0x00\n      keccak256\n      0x00\n      swap1\n      sload\n      swap1\n      0x0100\n      exp\n      swap1\n      div\n      0xff\n      and\n        /* \"contracts/crowdfunding.sol\":4965:5004  thisRequest.voters[msg.sender] == false */\n      iszero\n      iszero\n      eq\n        /* \"contracts/crowdfunding.sol\":4957:5032  require(thisRequest.voters[msg.sender] == false, \"You may only vote once.\") */\n      tag_117\n      jumpi\n      mload(0x40)\n      0x08c379a000000000000000000000000000000000000000000000000000000000\n      dup2\n      mstore\n      0x04\n      add\n      tag_118\n      swap1\n      tag_119\n      jump\t// in\n    tag_118:\n      mload(0x40)\n      dup1\n      swap2\n      sub\n      swap1\n      revert\n    tag_117:\n        /* \"contracts/crowdfunding.sol\":5129:5133  true */\n      0x01\n        /* \"contracts/crowdfunding.sol\":5096:5107  thisRequest */\n      dup2\n        /* \"contracts/crowdfunding.sol\":5096:5114  thisRequest.voters */\n      0x05\n      add\n        /* \"contracts/crowdfunding.sol\":5096:5126  thisRequest.voters[msg.sender] */\n      0x00\n        /* \"contracts/crowdfunding.sol\":5115:5125  msg.sender */\n      caller\n        /* \"contracts/crowdfunding.sol\":5096:5126  thisRequest.voters[msg.sender] */\n      0xffffffffffffffffffffffffffffffffffffffff\n      and\n      0xffffffffffffffffffffffffffffffffffffffff\n      and\n      dup2\n      mstore\n      0x20\n      add\n      swap1\n      dup2\n      mstore\n      0x20\n      add\n      0x00\n      keccak256\n      0x00\n        /* \"contracts/crowdfunding.sol\":5096:5133  thisRequest.voters[msg.sender] = true */\n      0x0100\n      exp\n      dup2\n      sload\n      dup2\n      0xff\n      mul\n      not\n      and\n      swap1\n      dup4\n      iszero\n      iszero\n      mul\n      or\n      swap1\n      sstore\n      pop\n        /* \"contracts/crowdfunding.sol\":5185:5196  thisRequest */\n      dup1\n        /* \"contracts/crowdfunding.sol\":5185:5209  thisRequest.numberVoters */\n      0x04\n      add\n      0x00\n        /* \"contracts/crowdfunding.sol\":5185:5211  thisRequest.numberVoters++ */\n      dup2\n      sload\n      dup1\n      swap3\n      swap2\n      swap1\n      tag_120\n      swap1\n      tag_98\n      jump\t// in\n    tag_120:\n      swap2\n      swap1\n      pop\n      sstore\n      pop\n        /* \"contracts/crowdfunding.sol\":4694:5221  {\r... */\n      pop\n        /* \"contracts/crowdfunding.sol\":4645:5221  function voteRequest(uint _requestNumber) public {\r... */\n      pop\n      jump\t// out\n        /* \"contracts/crowdfunding.sol\":5286:5995  function makePayment(uint _requestNumber) public onlyAdmin{\r... */\n    tag_57:\n        /* \"contracts/crowdfunding.sol\":3814:3819  admin */\n      0x01\n      0x00\n      swap1\n      sload\n      swap1\n      0x0100\n      exp\n      swap1\n      div\n      0xffffffffffffffffffffffffffffffffffffffff\n      and\n        /* \"contracts/crowdfunding.sol\":3800:3819  msg.sender == admin */\n      0xffffffffffffffffffffffffffffffffffffffff\n      and\n        /* \"contracts/crowdfunding.sol\":3800:3810  msg.sender */\n      caller\n        /* \"contracts/crowdfunding.sol\":3800:3819  msg.sender == admin */\n      0xffffffffffffffffffffffffffffffffffffffff\n      and\n      eq\n        /* \"contracts/crowdfunding.sol\":3792:3850  require(msg.sender == admin, \"Admin priveleges required.\") */\n      tag_122\n      jumpi\n      mload(0x40)\n      0x08c379a000000000000000000000000000000000000000000000000000000000\n      dup2\n      mstore\n      0x04\n      add\n      tag_123\n      swap1\n      tag_108\n      jump\t// in\n    tag_123:\n      mload(0x40)\n      dup1\n      swap2\n      sub\n      swap1\n      revert\n    tag_122:\n        /* \"contracts/crowdfunding.sol\":5418:5422  goal */\n      sload(0x05)\n        /* \"contracts/crowdfunding.sol\":5402:5414  raisedAmount */\n      sload(0x06)\n        /* \"contracts/crowdfunding.sol\":5402:5422  raisedAmount >= goal */\n      lt\n      iszero\n        /* \"contracts/crowdfunding.sol\":5394:5423  require(raisedAmount >= goal) */\n      tag_125\n      jumpi\n      0x00\n      dup1\n      revert\n    tag_125:\n        /* \"contracts/crowdfunding.sol\":5490:5517  Request storage thisRequest */\n      0x00\n        /* \"contracts/crowdfunding.sol\":5520:5528  requests */\n      0x07\n        /* \"contracts/crowdfunding.sol\":5520:5544  requests[_requestNumber] */\n      0x00\n        /* \"contracts/crowdfunding.sol\":5529:5543  _requestNumber */\n      dup4\n        /* \"contracts/crowdfunding.sol\":5520:5544  requests[_requestNumber] */\n      dup2\n      mstore\n      0x20\n      add\n      swap1\n      dup2\n      mstore\n      0x20\n      add\n      0x00\n      keccak256\n        /* \"contracts/crowdfunding.sol\":5490:5544  Request storage thisRequest = requests[_requestNumber] */\n      swap1\n      pop\n        /* \"contracts/crowdfunding.sol\":5647:5652  false */\n      0x00\n        /* \"contracts/crowdfunding.sol\":5622:5652  thisRequest.completed == false */\n      iszero\n      iszero\n        /* \"contracts/crowdfunding.sol\":5622:5633  thisRequest */\n      dup2\n        /* \"contracts/crowdfunding.sol\":5622:5643  thisRequest.completed */\n      0x03\n      add\n      0x00\n      swap1\n      sload\n      swap1\n      0x0100\n      exp\n      swap1\n      div\n      0xff\n      and\n        /* \"contracts/crowdfunding.sol\":5622:5652  thisRequest.completed == false */\n      iszero\n      iszero\n      eq\n        /* \"contracts/crowdfunding.sol\":5614:5688  require(thisRequest.completed == false, \"The request has been completed.\") */\n      tag_126\n      jumpi\n      mload(0x40)\n      0x08c379a000000000000000000000000000000000000000000000000000000000\n      dup2\n      mstore\n      0x04\n      add\n      tag_127\n      swap1\n      tag_128\n      jump\t// in\n    tag_127:\n      mload(0x40)\n      dup1\n      swap2\n      sub\n      swap1\n      revert\n    tag_126:\n        /* \"contracts/crowdfunding.sol\":5757:5758  2 */\n      0x02\n        /* \"contracts/crowdfunding.sol\":5736:5754  numberContributors */\n      dup1\n      sload\n        /* \"contracts/crowdfunding.sol\":5736:5758  numberContributors / 2 */\n      tag_129\n      swap2\n      swap1\n      tag_130\n      jump\t// in\n    tag_129:\n        /* \"contracts/crowdfunding.sol\":5709:5720  thisRequest */\n      dup2\n        /* \"contracts/crowdfunding.sol\":5709:5733  thisRequest.numberVoters */\n      0x04\n      add\n      sload\n        /* \"contracts/crowdfunding.sol\":5709:5758  thisRequest.numberVoters > numberContributors / 2 */\n      gt\n        /* \"contracts/crowdfunding.sol\":5701:5759  require(thisRequest.numberVoters > numberContributors / 2) */\n      tag_131\n      jumpi\n      0x00\n      dup1\n      revert\n    tag_131:\n        /* \"contracts/crowdfunding.sol\":5848:5859  thisRequest */\n      dup1\n        /* \"contracts/crowdfunding.sol\":5848:5869  thisRequest.recipient */\n      0x01\n      add\n      0x00\n      swap1\n      sload\n      swap1\n      0x0100\n      exp\n      swap1\n      div\n      0xffffffffffffffffffffffffffffffffffffffff\n      and\n        /* \"contracts/crowdfunding.sol\":5848:5878  thisRequest.recipient.transfer */\n      0xffffffffffffffffffffffffffffffffffffffff\n      and\n        /* \"contracts/crowdfunding.sol\":5848:5897  thisRequest.recipient.transfer(thisRequest.value) */\n      0x08fc\n        /* \"contracts/crowdfunding.sol\":5879:5890  thisRequest */\n      dup3\n        /* \"contracts/crowdfunding.sol\":5879:5896  thisRequest.value */\n      0x02\n      add\n      sload\n        /* \"contracts/crowdfunding.sol\":5848:5897  thisRequest.recipient.transfer(thisRequest.value) */\n      swap1\n      dup2\n      iszero\n      mul\n      swap1\n      mload(0x40)\n      0x00\n      mload(0x40)\n      dup1\n      dup4\n      sub\n      dup2\n      dup6\n      dup9\n      dup9\n      call\n      swap4\n      pop\n      pop\n      pop\n      pop\n      iszero\n      dup1\n      iszero\n      tag_133\n      jumpi\n      returndatasize\n      0x00\n      dup1\n      returndatacopy\n      revert(0x00, returndatasize)\n    tag_133:\n      pop\n        /* \"contracts/crowdfunding.sol\":5981:5985  true */\n      0x01\n        /* \"contracts/crowdfunding.sol\":5957:5968  thisRequest */\n      dup2\n        /* \"contracts/crowdfunding.sol\":5957:5978  thisRequest.completed */\n      0x03\n      add\n      0x00\n        /* \"contracts/crowdfunding.sol\":5957:5985  thisRequest.completed = true */\n      0x0100\n      exp\n      dup2\n      sload\n      dup2\n      0xff\n      mul\n      not\n      and\n      swap1\n      dup4\n      iszero\n      iszero\n      mul\n      or\n      swap1\n      sstore\n      pop\n        /* \"contracts/crowdfunding.sol\":5344:5995  {\r... */\n      pop\n        /* \"contracts/crowdfunding.sol\":5286:5995  function makePayment(uint _requestNumber) public onlyAdmin{\r... */\n      pop\n      jump\t// out\n        /* \"contracts/crowdfunding.sol\":1215:1255  mapping(uint => Request) public requests */\n    tag_61:\n      mstore(0x20, 0x07)\n      dup1\n      0x00\n      mstore\n      keccak256(0x00, 0x40)\n      0x00\n      swap2\n      pop\n      swap1\n      pop\n      dup1\n      0x00\n      add\n      dup1\n      sload\n      tag_134\n      swap1\n      tag_135\n      jump\t// in\n    tag_134:\n      dup1\n      0x1f\n      add\n      0x20\n      dup1\n      swap2\n      div\n      mul\n      0x20\n      add\n      mload(0x40)\n      swap1\n      dup2\n      add\n      0x40\n      mstore\n      dup1\n      swap3\n      swap2\n      swap1\n      dup2\n      dup2\n      mstore\n      0x20\n      add\n      dup3\n      dup1\n      sload\n      tag_136\n      swap1\n      tag_135\n      jump\t// in\n    tag_136:\n      dup1\n      iszero\n      tag_137\n      jumpi\n      dup1\n      0x1f\n      lt\n      tag_138\n      jumpi\n      0x0100\n      dup1\n      dup4\n      sload\n      div\n      mul\n      dup4\n      mstore\n      swap2\n      0x20\n      add\n      swap2\n      jump(tag_137)\n    tag_138:\n      dup3\n      add\n      swap2\n      swap1\n      0x00\n      mstore\n      keccak256(0x00, 0x20)\n      swap1\n    tag_139:\n      dup2\n      sload\n      dup2\n      mstore\n      swap1\n      0x01\n      add\n      swap1\n      0x20\n      add\n      dup1\n      dup4\n      gt\n      tag_139\n      jumpi\n      dup3\n      swap1\n      sub\n      0x1f\n      and\n      dup3\n      add\n      swap2\n    tag_137:\n      pop\n      pop\n      pop\n      pop\n      pop\n      swap1\n      dup1\n      0x01\n      add\n      0x00\n      swap1\n      sload\n      swap1\n      0x0100\n      exp\n      swap1\n      div\n      0xffffffffffffffffffffffffffffffffffffffff\n      and\n      swap1\n      dup1\n      0x02\n      add\n      sload\n      swap1\n      dup1\n      0x03\n      add\n      0x00\n      swap1\n      sload\n      swap1\n      0x0100\n      exp\n      swap1\n      div\n      0xff\n      and\n      swap1\n      dup1\n      0x04\n      add\n      sload\n      swap1\n      pop\n      dup6\n      jump\t// out\n        /* \"contracts/crowdfunding.sol\":399:430  uint public minimumContribution */\n    tag_66:\n      sload(0x03)\n      dup2\n      jump\t// out\n        /* \"contracts/crowdfunding.sol\":3111:3707  function getRefund() public{\r... */\n    tag_70:\n        /* \"contracts/crowdfunding.sol\":3233:3241  deadline */\n      sload(0x04)\n        /* \"contracts/crowdfunding.sol\":3215:3230  block.timestamp */\n      timestamp\n        /* \"contracts/crowdfunding.sol\":3215:3241  block.timestamp > deadline */\n      gt\n        /* \"contracts/crowdfunding.sol\":3215:3264  block.timestamp > deadline && raisedAmount < goal */\n      dup1\n      iszero\n      tag_141\n      jumpi\n      pop\n        /* \"contracts/crowdfunding.sol\":3260:3264  goal */\n      sload(0x05)\n        /* \"contracts/crowdfunding.sol\":3245:3257  raisedAmount */\n      sload(0x06)\n        /* \"contracts/crowdfunding.sol\":3245:3264  raisedAmount < goal */\n      lt\n        /* \"contracts/crowdfunding.sol\":3215:3264  block.timestamp > deadline && raisedAmount < goal */\n    tag_141:\n        /* \"contracts/crowdfunding.sol\":3207:3265  require(block.timestamp > deadline && raisedAmount < goal) */\n      tag_142\n      jumpi\n      0x00\n      dup1\n      revert\n    tag_142:\n        /* \"contracts/crowdfunding.sol\":3355:3356  0 */\n      0x00\n        /* \"contracts/crowdfunding.sol\":3328:3340  contributors */\n      dup1\n        /* \"contracts/crowdfunding.sol\":3328:3352  contributors[msg.sender] */\n      0x00\n        /* \"contracts/crowdfunding.sol\":3341:3351  msg.sender */\n      caller\n        /* \"contracts/crowdfunding.sol\":3328:3352  contributors[msg.sender] */\n      0xffffffffffffffffffffffffffffffffffffffff\n      and\n      0xffffffffffffffffffffffffffffffffffffffff\n      and\n      dup2\n      mstore\n      0x20\n      add\n      swap1\n      dup2\n      mstore\n      0x20\n      add\n      0x00\n      keccak256\n      sload\n        /* \"contracts/crowdfunding.sol\":3328:3356  contributors[msg.sender] > 0 */\n      gt\n        /* \"contracts/crowdfunding.sol\":3320:3357  require(contributors[msg.sender] > 0) */\n      tag_143\n      jumpi\n      0x00\n      dup1\n      revert\n    tag_143:\n        /* \"contracts/crowdfunding.sol\":3399:3424  address payable recipient */\n      0x00\n        /* \"contracts/crowdfunding.sol\":3435:3445  msg.sender */\n      caller\n        /* \"contracts/crowdfunding.sol\":3399:3446  address payable recipient = payable(msg.sender) */\n      swap1\n      pop\n        /* \"contracts/crowdfunding.sol\":3493:3503  uint value */\n      0x00\n        /* \"contracts/crowdfunding.sol\":3506:3518  contributors */\n      dup1\n        /* \"contracts/crowdfunding.sol\":3506:3530  contributors[msg.sender] */\n      0x00\n        /* \"contracts/crowdfunding.sol\":3519:3529  msg.sender */\n      caller\n        /* \"contracts/crowdfunding.sol\":3506:3530  contributors[msg.sender] */\n      0xffffffffffffffffffffffffffffffffffffffff\n      and\n      0xffffffffffffffffffffffffffffffffffffffff\n      and\n      dup2\n      mstore\n      0x20\n      add\n      swap1\n      dup2\n      mstore\n      0x20\n      add\n      0x00\n      keccak256\n      sload\n        /* \"contracts/crowdfunding.sol\":3493:3530  uint value = contributors[msg.sender] */\n      swap1\n      pop\n        /* \"contracts/crowdfunding.sol\":3589:3598  recipient */\n      dup2\n        /* \"contracts/crowdfunding.sol\":3589:3607  recipient.transfer */\n      0xffffffffffffffffffffffffffffffffffffffff\n      and\n        /* \"contracts/crowdfunding.sol\":3589:3614  recipient.transfer(value) */\n      0x08fc\n        /* \"contracts/crowdfunding.sol\":3608:3613  value */\n      dup3\n        /* \"contracts/crowdfunding.sol\":3589:3614  recipient.transfer(value) */\n      swap1\n      dup2\n      iszero\n      mul\n      swap1\n      mload(0x40)\n      0x00\n      mload(0x40)\n      dup1\n      dup4\n      sub\n      dup2\n      dup6\n      dup9\n      dup9\n      call\n      swap4\n      pop\n      pop\n      pop\n      pop\n      iszero\n      dup1\n      iszero\n      tag_145\n      jumpi\n      returndatasize\n      0x00\n      dup1\n      returndatacopy\n      revert(0x00, returndatasize)\n    tag_145:\n      pop\n        /* \"contracts/crowdfunding.sol\":3696:3697  0 */\n      0x00\n        /* \"contracts/crowdfunding.sol\":3669:3681  contributors */\n      dup1\n        /* \"contracts/crowdfunding.sol\":3669:3693  contributors[msg.sender] */\n      0x00\n        /* \"contracts/crowdfunding.sol\":3682:3692  msg.sender */\n      caller\n        /* \"contracts/crowdfunding.sol\":3669:3693  contributors[msg.sender] */\n      0xffffffffffffffffffffffffffffffffffffffff\n      and\n      0xffffffffffffffffffffffffffffffffffffffff\n      and\n      dup2\n      mstore\n      0x20\n      add\n      swap1\n      dup2\n      mstore\n      0x20\n      add\n      0x00\n      keccak256\n        /* \"contracts/crowdfunding.sol\":3669:3697  contributors[msg.sender] = 0 */\n      dup2\n      swap1\n      sstore\n      pop\n        /* \"contracts/crowdfunding.sol\":3138:3707  {\r... */\n      pop\n      pop\n        /* \"contracts/crowdfunding.sol\":3111:3707  function getRefund() public{\r... */\n      jump\t// out\n        /* \"contracts/crowdfunding.sol\":544:568  uint public raisedAmount */\n    tag_73:\n      sload(0x06)\n      dup2\n      jump\t// out\n        /* \"contracts/crowdfunding.sol\":1341:1367  uint public numberRequests */\n    tag_77:\n      sload(0x08)\n      dup2\n      jump\t// out\n        /* \"contracts/crowdfunding.sol\":360:390  uint public numberContributors */\n    tag_82:\n      sload(0x02)\n      dup2\n      jump\t// out\n        /* \"contracts/crowdfunding.sol\":275:295  address public admin */\n    tag_86:\n      0x01\n      0x00\n      swap1\n      sload\n      swap1\n      0x0100\n      exp\n      swap1\n      div\n      0xffffffffffffffffffffffffffffffffffffffff\n      and\n      dup2\n      jump\t// out\n    tag_112:\n      dup3\n      dup1\n      sload\n      tag_146\n      swap1\n      tag_135\n      jump\t// in\n    tag_146:\n      swap1\n      0x00\n      mstore\n      keccak256(0x00, 0x20)\n      swap1\n      0x1f\n      add\n      0x20\n      swap1\n      div\n      dup2\n      add\n      swap3\n      dup3\n      tag_148\n      jumpi\n      0x00\n      dup6\n      sstore\n      jump(tag_147)\n    tag_148:\n      dup3\n      0x1f\n      lt\n      tag_149\n      jumpi\n      dup1\n      mload\n      not(0xff)\n      and\n      dup4\n      dup1\n      add\n      or\n      dup6\n      sstore\n      jump(tag_147)\n    tag_149:\n      dup3\n      dup1\n      add\n      0x01\n      add\n      dup6\n      sstore\n      dup3\n      iszero\n      tag_147\n      jumpi\n      swap2\n      dup3\n      add\n    tag_150:\n      dup3\n      dup2\n      gt\n      iszero\n      tag_151\n      jumpi\n      dup3\n      mload\n      dup3\n      sstore\n      swap2\n      0x20\n      add\n      swap2\n      swap1\n      0x01\n      add\n      swap1\n      jump(tag_150)\n    tag_151:\n    tag_147:\n      pop\n      swap1\n      pop\n      tag_152\n      swap2\n      swap1\n      tag_153\n      jump\t// in\n    tag_152:\n      pop\n      swap1\n      jump\t// out\n    tag_153:\n    tag_154:\n      dup1\n      dup3\n      gt\n      iszero\n      tag_155\n      jumpi\n      0x00\n      dup2\n      0x00\n      swap1\n      sstore\n      pop\n      0x01\n      add\n      jump(tag_154)\n    tag_155:\n      pop\n      swap1\n      jump\t// out\n        /* \"#utility.yul\":7:419   */\n    tag_157:\n        /* \"#utility.yul\":85:90   */\n      0x00\n        /* \"#utility.yul\":110:176   */\n      tag_159\n        /* \"#utility.yul\":126:175   */\n      tag_160\n        /* \"#utility.yul\":168:174   */\n      dup5\n        /* \"#utility.yul\":126:175   */\n      tag_161\n      jump\t// in\n    tag_160:\n        /* \"#utility.yul\":110:176   */\n      tag_162\n      jump\t// in\n    tag_159:\n        /* \"#utility.yul\":101:176   */\n      swap1\n      pop\n        /* \"#utility.yul\":199:205   */\n      dup3\n        /* \"#utility.yul\":192:197   */\n      dup2\n        /* \"#utility.yul\":185:206   */\n      mstore\n        /* \"#utility.yul\":237:241   */\n      0x20\n        /* \"#utility.yul\":230:235   */\n      dup2\n        /* \"#utility.yul\":226:242   */\n      add\n        /* \"#utility.yul\":275:278   */\n      dup5\n        /* \"#utility.yul\":266:272   */\n      dup5\n        /* \"#utility.yul\":261:264   */\n      dup5\n        /* \"#utility.yul\":257:273   */\n      add\n        /* \"#utility.yul\":254:279   */\n      gt\n        /* \"#utility.yul\":251:363   */\n      iszero\n      tag_163\n      jumpi\n        /* \"#utility.yul\":282:361   */\n      tag_164\n      tag_165\n      jump\t// in\n    tag_164:\n        /* \"#utility.yul\":251:363   */\n    tag_163:\n        /* \"#utility.yul\":372:413   */\n      tag_166\n        /* \"#utility.yul\":406:412   */\n      dup5\n        /* \"#utility.yul\":401:404   */\n      dup3\n        /* \"#utility.yul\":396:399   */\n      dup6\n        /* \"#utility.yul\":372:413   */\n      tag_167\n      jump\t// in\n    tag_166:\n        /* \"#utility.yul\":91:419   */\n      pop\n        /* \"#utility.yul\":7:419   */\n      swap4\n      swap3\n      pop\n      pop\n      pop\n      jump\t// out\n        /* \"#utility.yul\":425:564   */\n    tag_168:\n        /* \"#utility.yul\":471:476   */\n      0x00\n        /* \"#utility.yul\":509:515   */\n      dup2\n        /* \"#utility.yul\":496:516   */\n      calldataload\n        /* \"#utility.yul\":487:516   */\n      swap1\n      pop\n        /* \"#utility.yul\":525:558   */\n      tag_170\n        /* \"#utility.yul\":552:557   */\n      dup2\n        /* \"#utility.yul\":525:558   */\n      tag_171\n      jump\t// in\n    tag_170:\n        /* \"#utility.yul\":425:564   */\n      swap3\n      swap2\n      pop\n      pop\n      jump\t// out\n        /* \"#utility.yul\":570:725   */\n    tag_172:\n        /* \"#utility.yul\":624:629   */\n      0x00\n        /* \"#utility.yul\":662:668   */\n      dup2\n        /* \"#utility.yul\":649:669   */\n      calldataload\n        /* \"#utility.yul\":640:669   */\n      swap1\n      pop\n        /* \"#utility.yul\":678:719   */\n      tag_174\n        /* \"#utility.yul\":713:718   */\n      dup2\n        /* \"#utility.yul\":678:719   */\n      tag_175\n      jump\t// in\n    tag_174:\n        /* \"#utility.yul\":570:725   */\n      swap3\n      swap2\n      pop\n      pop\n      jump\t// out\n        /* \"#utility.yul\":745:1085   */\n    tag_176:\n        /* \"#utility.yul\":801:806   */\n      0x00\n        /* \"#utility.yul\":850:853   */\n      dup3\n        /* \"#utility.yul\":843:847   */\n      0x1f\n        /* \"#utility.yul\":835:841   */\n      dup4\n        /* \"#utility.yul\":831:848   */\n      add\n        /* \"#utility.yul\":827:854   */\n      slt\n        /* \"#utility.yul\":817:939   */\n      tag_178\n      jumpi\n        /* \"#utility.yul\":858:937   */\n      tag_179\n      tag_180\n      jump\t// in\n    tag_179:\n        /* \"#utility.yul\":817:939   */\n    tag_178:\n        /* \"#utility.yul\":975:981   */\n      dup2\n        /* \"#utility.yul\":962:982   */\n      calldataload\n        /* \"#utility.yul\":1000:1079   */\n      tag_181\n        /* \"#utility.yul\":1075:1078   */\n      dup5\n        /* \"#utility.yul\":1067:1073   */\n      dup3\n        /* \"#utility.yul\":1060:1064   */\n      0x20\n        /* \"#utility.yul\":1052:1058   */\n      dup7\n        /* \"#utility.yul\":1048:1065   */\n      add\n        /* \"#utility.yul\":1000:1079   */\n      tag_157\n      jump\t// in\n    tag_181:\n        /* \"#utility.yul\":991:1079   */\n      swap2\n      pop\n        /* \"#utility.yul\":807:1085   */\n      pop\n        /* \"#utility.yul\":745:1085   */\n      swap3\n      swap2\n      pop\n      pop\n      jump\t// out\n        /* \"#utility.yul\":1091:1230   */\n    tag_182:\n        /* \"#utility.yul\":1137:1142   */\n      0x00\n        /* \"#utility.yul\":1175:1181   */\n      dup2\n        /* \"#utility.yul\":1162:1182   */\n      calldataload\n        /* \"#utility.yul\":1153:1182   */\n      swap1\n      pop\n        /* \"#utility.yul\":1191:1224   */\n      tag_184\n        /* \"#utility.yul\":1218:1223   */\n      dup2\n        /* \"#utility.yul\":1191:1224   */\n      tag_185\n      jump\t// in\n    tag_184:\n        /* \"#utility.yul\":1091:1230   */\n      swap3\n      swap2\n      pop\n      pop\n      jump\t// out\n        /* \"#utility.yul\":1236:1565   */\n    tag_38:\n        /* \"#utility.yul\":1295:1301   */\n      0x00\n        /* \"#utility.yul\":1344:1346   */\n      0x20\n        /* \"#utility.yul\":1332:1341   */\n      dup3\n        /* \"#utility.yul\":1323:1330   */\n      dup5\n        /* \"#utility.yul\":1319:1342   */\n      sub\n        /* \"#utility.yul\":1315:1347   */\n      slt\n        /* \"#utility.yul\":1312:1431   */\n      iszero\n      tag_187\n      jumpi\n        /* \"#utility.yul\":1350:1429   */\n      tag_188\n      tag_189\n      jump\t// in\n    tag_188:\n        /* \"#utility.yul\":1312:1431   */\n    tag_187:\n        /* \"#utility.yul\":1470:1471   */\n      0x00\n        /* \"#utility.yul\":1495:1548   */\n      tag_190\n        /* \"#utility.yul\":1540:1547   */\n      dup5\n        /* \"#utility.yul\":1531:1537   */\n      dup3\n        /* \"#utility.yul\":1520:1529   */\n      dup6\n        /* \"#utility.yul\":1516:1538   */\n      add\n        /* \"#utility.yul\":1495:1548   */\n      tag_168\n      jump\t// in\n    tag_190:\n        /* \"#utility.yul\":1485:1548   */\n      swap2\n      pop\n        /* \"#utility.yul\":1441:1558   */\n      pop\n        /* \"#utility.yul\":1236:1565   */\n      swap3\n      swap2\n      pop\n      pop\n      jump\t// out\n        /* \"#utility.yul\":1571:2386   */\n    tag_33:\n        /* \"#utility.yul\":1666:1672   */\n      0x00\n        /* \"#utility.yul\":1674:1680   */\n      dup1\n        /* \"#utility.yul\":1682:1688   */\n      0x00\n        /* \"#utility.yul\":1731:1733   */\n      0x60\n        /* \"#utility.yul\":1719:1728   */\n      dup5\n        /* \"#utility.yul\":1710:1717   */\n      dup7\n        /* \"#utility.yul\":1706:1729   */\n      sub\n        /* \"#utility.yul\":1702:1734   */\n      slt\n        /* \"#utility.yul\":1699:1818   */\n      iszero\n      tag_192\n      jumpi\n        /* \"#utility.yul\":1737:1816   */\n      tag_193\n      tag_189\n      jump\t// in\n    tag_193:\n        /* \"#utility.yul\":1699:1818   */\n    tag_192:\n        /* \"#utility.yul\":1885:1886   */\n      0x00\n        /* \"#utility.yul\":1874:1883   */\n      dup5\n        /* \"#utility.yul\":1870:1887   */\n      add\n        /* \"#utility.yul\":1857:1888   */\n      calldataload\n        /* \"#utility.yul\":1915:1933   */\n      0xffffffffffffffff\n        /* \"#utility.yul\":1907:1913   */\n      dup2\n        /* \"#utility.yul\":1904:1934   */\n      gt\n        /* \"#utility.yul\":1901:2018   */\n      iszero\n      tag_194\n      jumpi\n        /* \"#utility.yul\":1937:2016   */\n      tag_195\n      tag_196\n      jump\t// in\n    tag_195:\n        /* \"#utility.yul\":1901:2018   */\n    tag_194:\n        /* \"#utility.yul\":2042:2105   */\n      tag_197\n        /* \"#utility.yul\":2097:2104   */\n      dup7\n        /* \"#utility.yul\":2088:2094   */\n      dup3\n        /* \"#utility.yul\":2077:2086   */\n      dup8\n        /* \"#utility.yul\":2073:2095   */\n      add\n        /* \"#utility.yul\":2042:2105   */\n      tag_176\n      jump\t// in\n    tag_197:\n        /* \"#utility.yul\":2032:2105   */\n      swap4\n      pop\n        /* \"#utility.yul\":1828:2115   */\n      pop\n        /* \"#utility.yul\":2154:2156   */\n      0x20\n        /* \"#utility.yul\":2180:2241   */\n      tag_198\n        /* \"#utility.yul\":2233:2240   */\n      dup7\n        /* \"#utility.yul\":2224:2230   */\n      dup3\n        /* \"#utility.yul\":2213:2222   */\n      dup8\n        /* \"#utility.yul\":2209:2231   */\n      add\n        /* \"#utility.yul\":2180:2241   */\n      tag_172\n      jump\t// in\n    tag_198:\n        /* \"#utility.yul\":2170:2241   */\n      swap3\n      pop\n        /* \"#utility.yul\":2125:2251   */\n      pop\n        /* \"#utility.yul\":2290:2292   */\n      0x40\n        /* \"#utility.yul\":2316:2369   */\n      tag_199\n        /* \"#utility.yul\":2361:2368   */\n      dup7\n        /* \"#utility.yul\":2352:2358   */\n      dup3\n        /* \"#utility.yul\":2341:2350   */\n      dup8\n        /* \"#utility.yul\":2337:2359   */\n      add\n        /* \"#utility.yul\":2316:2369   */\n      tag_182\n      jump\t// in\n    tag_199:\n        /* \"#utility.yul\":2306:2369   */\n      swap2\n      pop\n        /* \"#utility.yul\":2261:2379   */\n      pop\n        /* \"#utility.yul\":1571:2386   */\n      swap3\n      pop\n      swap3\n      pop\n      swap3\n      jump\t// out\n        /* \"#utility.yul\":2392:2721   */\n    tag_52:\n        /* \"#utility.yul\":2451:2457   */\n      0x00\n        /* \"#utility.yul\":2500:2502   */\n      0x20\n        /* \"#utility.yul\":2488:2497   */\n      dup3\n        /* \"#utility.yul\":2479:2486   */\n      dup5\n        /* \"#utility.yul\":2475:2498   */\n      sub\n        /* \"#utility.yul\":2471:2503   */\n      slt\n        /* \"#utility.yul\":2468:2587   */\n      iszero\n      tag_201\n      jumpi\n        /* \"#utility.yul\":2506:2585   */\n      tag_202\n      tag_189\n      jump\t// in\n    tag_202:\n        /* \"#utility.yul\":2468:2587   */\n    tag_201:\n        /* \"#utility.yul\":2626:2627   */\n      0x00\n        /* \"#utility.yul\":2651:2704   */\n      tag_203\n        /* \"#utility.yul\":2696:2703   */\n      dup5\n        /* \"#utility.yul\":2687:2693   */\n      dup3\n        /* \"#utility.yul\":2676:2685   */\n      dup6\n        /* \"#utility.yul\":2672:2694   */\n      add\n        /* \"#utility.yul\":2651:2704   */\n      tag_182\n      jump\t// in\n    tag_203:\n        /* \"#utility.yul\":2641:2704   */\n      swap2\n      pop\n        /* \"#utility.yul\":2597:2714   */\n      pop\n        /* \"#utility.yul\":2392:2721   */\n      swap3\n      swap2\n      pop\n      pop\n      jump\t// out\n        /* \"#utility.yul\":2727:2869   */\n    tag_204:\n        /* \"#utility.yul\":2830:2862   */\n      tag_206\n        /* \"#utility.yul\":2856:2861   */\n      dup2\n        /* \"#utility.yul\":2830:2862   */\n      tag_207\n      jump\t// in\n    tag_206:\n        /* \"#utility.yul\":2825:2828   */\n      dup3\n        /* \"#utility.yul\":2818:2863   */\n      mstore\n        /* \"#utility.yul\":2727:2869   */\n      pop\n      pop\n      jump\t// out\n        /* \"#utility.yul\":2875:2993   */\n    tag_208:\n        /* \"#utility.yul\":2962:2986   */\n      tag_210\n        /* \"#utility.yul\":2980:2985   */\n      dup2\n        /* \"#utility.yul\":2962:2986   */\n      tag_211\n      jump\t// in\n    tag_210:\n        /* \"#utility.yul\":2957:2960   */\n      dup3\n        /* \"#utility.yul\":2950:2987   */\n      mstore\n        /* \"#utility.yul\":2875:2993   */\n      pop\n      pop\n      jump\t// out\n        /* \"#utility.yul\":2999:3108   */\n    tag_212:\n        /* \"#utility.yul\":3080:3101   */\n      tag_214\n        /* \"#utility.yul\":3095:3100   */\n      dup2\n        /* \"#utility.yul\":3080:3101   */\n      tag_215\n      jump\t// in\n    tag_214:\n        /* \"#utility.yul\":3075:3078   */\n      dup3\n        /* \"#utility.yul\":3068:3102   */\n      mstore\n        /* \"#utility.yul\":2999:3108   */\n      pop\n      pop\n      jump\t// out\n        /* \"#utility.yul\":3114:3478   */\n    tag_216:\n        /* \"#utility.yul\":3202:3205   */\n      0x00\n        /* \"#utility.yul\":3230:3269   */\n      tag_218\n        /* \"#utility.yul\":3263:3268   */\n      dup3\n        /* \"#utility.yul\":3230:3269   */\n      tag_219\n      jump\t// in\n    tag_218:\n        /* \"#utility.yul\":3285:3356   */\n      tag_220\n        /* \"#utility.yul\":3349:3355   */\n      dup2\n        /* \"#utility.yul\":3344:3347   */\n      dup6\n        /* \"#utility.yul\":3285:3356   */\n      tag_221\n      jump\t// in\n    tag_220:\n        /* \"#utility.yul\":3278:3356   */\n      swap4\n      pop\n        /* \"#utility.yul\":3365:3417   */\n      tag_222\n        /* \"#utility.yul\":3410:3416   */\n      dup2\n        /* \"#utility.yul\":3405:3408   */\n      dup6\n        /* \"#utility.yul\":3398:3402   */\n      0x20\n        /* \"#utility.yul\":3391:3396   */\n      dup7\n        /* \"#utility.yul\":3387:3403   */\n      add\n        /* \"#utility.yul\":3365:3417   */\n      tag_223\n      jump\t// in\n    tag_222:\n        /* \"#utility.yul\":3442:3471   */\n      tag_224\n        /* \"#utility.yul\":3464:3470   */\n      dup2\n        /* \"#utility.yul\":3442:3471   */\n      tag_225\n      jump\t// in\n    tag_224:\n        /* \"#utility.yul\":3437:3440   */\n      dup5\n        /* \"#utility.yul\":3433:3472   */\n      add\n        /* \"#utility.yul\":3426:3472   */\n      swap2\n      pop\n        /* \"#utility.yul\":3206:3478   */\n      pop\n        /* \"#utility.yul\":3114:3478   */\n      swap3\n      swap2\n      pop\n      pop\n      jump\t// out\n        /* \"#utility.yul\":3484:3850   */\n    tag_226:\n        /* \"#utility.yul\":3626:3629   */\n      0x00\n        /* \"#utility.yul\":3647:3714   */\n      tag_228\n        /* \"#utility.yul\":3711:3713   */\n      0x17\n        /* \"#utility.yul\":3706:3709   */\n      dup4\n        /* \"#utility.yul\":3647:3714   */\n      tag_221\n      jump\t// in\n    tag_228:\n        /* \"#utility.yul\":3640:3714   */\n      swap2\n      pop\n        /* \"#utility.yul\":3723:3816   */\n      tag_229\n        /* \"#utility.yul\":3812:3815   */\n      dup3\n        /* \"#utility.yul\":3723:3816   */\n      tag_230\n      jump\t// in\n    tag_229:\n        /* \"#utility.yul\":3841:3843   */\n      0x20\n        /* \"#utility.yul\":3836:3839   */\n      dup3\n        /* \"#utility.yul\":3832:3844   */\n      add\n        /* \"#utility.yul\":3825:3844   */\n      swap1\n      pop\n        /* \"#utility.yul\":3484:3850   */\n      swap2\n      swap1\n      pop\n      jump\t// out\n        /* \"#utility.yul\":3856:4222   */\n    tag_231:\n        /* \"#utility.yul\":3998:4001   */\n      0x00\n        /* \"#utility.yul\":4019:4086   */\n      tag_233\n        /* \"#utility.yul\":4083:4085   */\n      0x14\n        /* \"#utility.yul\":4078:4081   */\n      dup4\n        /* \"#utility.yul\":4019:4086   */\n      tag_221\n      jump\t// in\n    tag_233:\n        /* \"#utility.yul\":4012:4086   */\n      swap2\n      pop\n        /* \"#utility.yul\":4095:4188   */\n      tag_234\n        /* \"#utility.yul\":4184:4187   */\n      dup3\n        /* \"#utility.yul\":4095:4188   */\n      tag_235\n      jump\t// in\n    tag_234:\n        /* \"#utility.yul\":4213:4215   */\n      0x20\n        /* \"#utility.yul\":4208:4211   */\n      dup3\n        /* \"#utility.yul\":4204:4216   */\n      add\n        /* \"#utility.yul\":4197:4216   */\n      swap1\n      pop\n        /* \"#utility.yul\":3856:4222   */\n      swap2\n      swap1\n      pop\n      jump\t// out\n        /* \"#utility.yul\":4228:4594   */\n    tag_236:\n        /* \"#utility.yul\":4370:4373   */\n      0x00\n        /* \"#utility.yul\":4391:4458   */\n      tag_238\n        /* \"#utility.yul\":4455:4457   */\n      0x1a\n        /* \"#utility.yul\":4450:4453   */\n      dup4\n        /* \"#utility.yul\":4391:4458   */\n      tag_221\n      jump\t// in\n    tag_238:\n        /* \"#utility.yul\":4384:4458   */\n      swap2\n      pop\n        /* \"#utility.yul\":4467:4560   */\n      tag_239\n        /* \"#utility.yul\":4556:4559   */\n      dup3\n        /* \"#utility.yul\":4467:4560   */\n      tag_240\n      jump\t// in\n    tag_239:\n        /* \"#utility.yul\":4585:4587   */\n      0x20\n        /* \"#utility.yul\":4580:4583   */\n      dup3\n        /* \"#utility.yul\":4576:4588   */\n      add\n        /* \"#utility.yul\":4569:4588   */\n      swap1\n      pop\n        /* \"#utility.yul\":4228:4594   */\n      swap2\n      swap1\n      pop\n      jump\t// out\n        /* \"#utility.yul\":4600:4966   */\n    tag_241:\n        /* \"#utility.yul\":4742:4745   */\n      0x00\n        /* \"#utility.yul\":4763:4830   */\n      tag_243\n        /* \"#utility.yul\":4827:4829   */\n      0x1d\n        /* \"#utility.yul\":4822:4825   */\n      dup4\n        /* \"#utility.yul\":4763:4830   */\n      tag_221\n      jump\t// in\n    tag_243:\n        /* \"#utility.yul\":4756:4830   */\n      swap2\n      pop\n        /* \"#utility.yul\":4839:4932   */\n      tag_244\n        /* \"#utility.yul\":4928:4931   */\n      dup3\n        /* \"#utility.yul\":4839:4932   */\n      tag_245\n      jump\t// in\n    tag_244:\n        /* \"#utility.yul\":4957:4959   */\n      0x20\n        /* \"#utility.yul\":4952:4955   */\n      dup3\n        /* \"#utility.yul\":4948:4960   */\n      add\n        /* \"#utility.yul\":4941:4960   */\n      swap1\n      pop\n        /* \"#utility.yul\":4600:4966   */\n      swap2\n      swap1\n      pop\n      jump\t// out\n        /* \"#utility.yul\":4972:5338   */\n    tag_246:\n        /* \"#utility.yul\":5114:5117   */\n      0x00\n        /* \"#utility.yul\":5135:5202   */\n      tag_248\n        /* \"#utility.yul\":5199:5201   */\n      0x1f\n        /* \"#utility.yul\":5194:5197   */\n      dup4\n        /* \"#utility.yul\":5135:5202   */\n      tag_221\n      jump\t// in\n    tag_248:\n        /* \"#utility.yul\":5128:5202   */\n      swap2\n      pop\n        /* \"#utility.yul\":5211:5304   */\n      tag_249\n        /* \"#utility.yul\":5300:5303   */\n      dup3\n        /* \"#utility.yul\":5211:5304   */\n      tag_250\n      jump\t// in\n    tag_249:\n        /* \"#utility.yul\":5329:5331   */\n      0x20\n        /* \"#utility.yul\":5324:5327   */\n      dup3\n        /* \"#utility.yul\":5320:5332   */\n      add\n        /* \"#utility.yul\":5313:5332   */\n      swap1\n      pop\n        /* \"#utility.yul\":4972:5338   */\n      swap2\n      swap1\n      pop\n      jump\t// out\n        /* \"#utility.yul\":5344:5710   */\n    tag_251:\n        /* \"#utility.yul\":5486:5489   */\n      0x00\n        /* \"#utility.yul\":5507:5574   */\n      tag_253\n        /* \"#utility.yul\":5571:5573   */\n      0x1b\n        /* \"#utility.yul\":5566:5569   */\n      dup4\n        /* \"#utility.yul\":5507:5574   */\n      tag_221\n      jump\t// in\n    tag_253:\n        /* \"#utility.yul\":5500:5574   */\n      swap2\n      pop\n        /* \"#utility.yul\":5583:5676   */\n      tag_254\n        /* \"#utility.yul\":5672:5675   */\n      dup3\n        /* \"#utility.yul\":5583:5676   */\n      tag_255\n      jump\t// in\n    tag_254:\n        /* \"#utility.yul\":5701:5703   */\n      0x20\n        /* \"#utility.yul\":5696:5699   */\n      dup3\n        /* \"#utility.yul\":5692:5704   */\n      add\n        /* \"#utility.yul\":5685:5704   */\n      swap1\n      pop\n        /* \"#utility.yul\":5344:5710   */\n      swap2\n      swap1\n      pop\n      jump\t// out\n        /* \"#utility.yul\":5716:5834   */\n    tag_256:\n        /* \"#utility.yul\":5803:5827   */\n      tag_258\n        /* \"#utility.yul\":5821:5826   */\n      dup2\n        /* \"#utility.yul\":5803:5827   */\n      tag_259\n      jump\t// in\n    tag_258:\n        /* \"#utility.yul\":5798:5801   */\n      dup3\n        /* \"#utility.yul\":5791:5828   */\n      mstore\n        /* \"#utility.yul\":5716:5834   */\n      pop\n      pop\n      jump\t// out\n        /* \"#utility.yul\":5840:6062   */\n    tag_88:\n        /* \"#utility.yul\":5933:5937   */\n      0x00\n        /* \"#utility.yul\":5971:5973   */\n      0x20\n        /* \"#utility.yul\":5960:5969   */\n      dup3\n        /* \"#utility.yul\":5956:5974   */\n      add\n        /* \"#utility.yul\":5948:5974   */\n      swap1\n      pop\n        /* \"#utility.yul\":5984:6055   */\n      tag_261\n        /* \"#utility.yul\":6052:6053   */\n      0x00\n        /* \"#utility.yul\":6041:6050   */\n      dup4\n        /* \"#utility.yul\":6037:6054   */\n      add\n        /* \"#utility.yul\":6028:6034   */\n      dup5\n        /* \"#utility.yul\":5984:6055   */\n      tag_208\n      jump\t// in\n    tag_261:\n        /* \"#utility.yul\":5840:6062   */\n      swap3\n      swap2\n      pop\n      pop\n      jump\t// out\n        /* \"#utility.yul\":6068:6400   */\n    tag_103:\n        /* \"#utility.yul\":6189:6193   */\n      0x00\n        /* \"#utility.yul\":6227:6229   */\n      0x40\n        /* \"#utility.yul\":6216:6225   */\n      dup3\n        /* \"#utility.yul\":6212:6230   */\n      add\n        /* \"#utility.yul\":6204:6230   */\n      swap1\n      pop\n        /* \"#utility.yul\":6240:6311   */\n      tag_263\n        /* \"#utility.yul\":6308:6309   */\n      0x00\n        /* \"#utility.yul\":6297:6306   */\n      dup4\n        /* \"#utility.yul\":6293:6310   */\n      add\n        /* \"#utility.yul\":6284:6290   */\n      dup6\n        /* \"#utility.yul\":6240:6311   */\n      tag_208\n      jump\t// in\n    tag_263:\n        /* \"#utility.yul\":6321:6393   */\n      tag_264\n        /* \"#utility.yul\":6389:6391   */\n      0x20\n        /* \"#utility.yul\":6378:6387   */\n      dup4\n        /* \"#utility.yul\":6374:6392   */\n      add\n        /* \"#utility.yul\":6365:6371   */\n      dup5\n        /* \"#utility.yul\":6321:6393   */\n      tag_256\n      jump\t// in\n    tag_264:\n        /* \"#utility.yul\":6068:6400   */\n      swap4\n      swap3\n      pop\n      pop\n      pop\n      jump\t// out\n        /* \"#utility.yul\":6406:7181   */\n    tag_63:\n        /* \"#utility.yul\":6641:6645   */\n      0x00\n        /* \"#utility.yul\":6679:6682   */\n      0xa0\n        /* \"#utility.yul\":6668:6677   */\n      dup3\n        /* \"#utility.yul\":6664:6683   */\n      add\n        /* \"#utility.yul\":6656:6683   */\n      swap1\n      pop\n        /* \"#utility.yul\":6729:6738   */\n      dup2\n        /* \"#utility.yul\":6723:6727   */\n      dup2\n        /* \"#utility.yul\":6719:6739   */\n      sub\n        /* \"#utility.yul\":6715:6716   */\n      0x00\n        /* \"#utility.yul\":6704:6713   */\n      dup4\n        /* \"#utility.yul\":6700:6717   */\n      add\n        /* \"#utility.yul\":6693:6740   */\n      mstore\n        /* \"#utility.yul\":6757:6835   */\n      tag_266\n        /* \"#utility.yul\":6830:6834   */\n      dup2\n        /* \"#utility.yul\":6821:6827   */\n      dup9\n        /* \"#utility.yul\":6757:6835   */\n      tag_216\n      jump\t// in\n    tag_266:\n        /* \"#utility.yul\":6749:6835   */\n      swap1\n      pop\n        /* \"#utility.yul\":6845:6933   */\n      tag_267\n        /* \"#utility.yul\":6929:6931   */\n      0x20\n        /* \"#utility.yul\":6918:6927   */\n      dup4\n        /* \"#utility.yul\":6914:6932   */\n      add\n        /* \"#utility.yul\":6905:6911   */\n      dup8\n        /* \"#utility.yul\":6845:6933   */\n      tag_204\n      jump\t// in\n    tag_267:\n        /* \"#utility.yul\":6943:7015   */\n      tag_268\n        /* \"#utility.yul\":7011:7013   */\n      0x40\n        /* \"#utility.yul\":7000:7009   */\n      dup4\n        /* \"#utility.yul\":6996:7014   */\n      add\n        /* \"#utility.yul\":6987:6993   */\n      dup7\n        /* \"#utility.yul\":6943:7015   */\n      tag_256\n      jump\t// in\n    tag_268:\n        /* \"#utility.yul\":7025:7091   */\n      tag_269\n        /* \"#utility.yul\":7087:7089   */\n      0x60\n        /* \"#utility.yul\":7076:7085   */\n      dup4\n        /* \"#utility.yul\":7072:7090   */\n      add\n        /* \"#utility.yul\":7063:7069   */\n      dup6\n        /* \"#utility.yul\":7025:7091   */\n      tag_212\n      jump\t// in\n    tag_269:\n        /* \"#utility.yul\":7101:7174   */\n      tag_270\n        /* \"#utility.yul\":7169:7172   */\n      0x80\n        /* \"#utility.yul\":7158:7167   */\n      dup4\n        /* \"#utility.yul\":7154:7173   */\n      add\n        /* \"#utility.yul\":7145:7151   */\n      dup5\n        /* \"#utility.yul\":7101:7174   */\n      tag_256\n      jump\t// in\n    tag_270:\n        /* \"#utility.yul\":6406:7181   */\n      swap7\n      swap6\n      pop\n      pop\n      pop\n      pop\n      pop\n      pop\n      jump\t// out\n        /* \"#utility.yul\":7187:7606   */\n    tag_119:\n        /* \"#utility.yul\":7353:7357   */\n      0x00\n        /* \"#utility.yul\":7391:7393   */\n      0x20\n        /* \"#utility.yul\":7380:7389   */\n      dup3\n        /* \"#utility.yul\":7376:7394   */\n      add\n        /* \"#utility.yul\":7368:7394   */\n      swap1\n      pop\n        /* \"#utility.yul\":7440:7449   */\n      dup2\n        /* \"#utility.yul\":7434:7438   */\n      dup2\n        /* \"#utility.yul\":7430:7450   */\n      sub\n        /* \"#utility.yul\":7426:7427   */\n      0x00\n        /* \"#utility.yul\":7415:7424   */\n      dup4\n        /* \"#utility.yul\":7411:7428   */\n      add\n        /* \"#utility.yul\":7404:7451   */\n      mstore\n        /* \"#utility.yul\":7468:7599   */\n      tag_272\n        /* \"#utility.yul\":7594:7598   */\n      dup2\n        /* \"#utility.yul\":7468:7599   */\n      tag_226\n      jump\t// in\n    tag_272:\n        /* \"#utility.yul\":7460:7599   */\n      swap1\n      pop\n        /* \"#utility.yul\":7187:7606   */\n      swap2\n      swap1\n      pop\n      jump\t// out\n        /* \"#utility.yul\":7612:8031   */\n    tag_92:\n        /* \"#utility.yul\":7778:7782   */\n      0x00\n        /* \"#utility.yul\":7816:7818   */\n      0x20\n        /* \"#utility.yul\":7805:7814   */\n      dup3\n        /* \"#utility.yul\":7801:7819   */\n      add\n        /* \"#utility.yul\":7793:7819   */\n      swap1\n      pop\n        /* \"#utility.yul\":7865:7874   */\n      dup2\n        /* \"#utility.yul\":7859:7863   */\n      dup2\n        /* \"#utility.yul\":7855:7875   */\n      sub\n        /* \"#utility.yul\":7851:7852   */\n      0x00\n        /* \"#utility.yul\":7840:7849   */\n      dup4\n        /* \"#utility.yul\":7836:7853   */\n      add\n        /* \"#utility.yul\":7829:7876   */\n      mstore\n        /* \"#utility.yul\":7893:8024   */\n      tag_274\n        /* \"#utility.yul\":8019:8023   */\n      dup2\n        /* \"#utility.yul\":7893:8024   */\n      tag_231\n      jump\t// in\n    tag_274:\n        /* \"#utility.yul\":7885:8024   */\n      swap1\n      pop\n        /* \"#utility.yul\":7612:8031   */\n      swap2\n      swap1\n      pop\n      jump\t// out\n        /* \"#utility.yul\":8037:8456   */\n    tag_108:\n        /* \"#utility.yul\":8203:8207   */\n      0x00\n        /* \"#utility.yul\":8241:8243   */\n      0x20\n        /* \"#utility.yul\":8230:8239   */\n      dup3\n        /* \"#utility.yul\":8226:8244   */\n      add\n        /* \"#utility.yul\":8218:8244   */\n      swap1\n      pop\n        /* \"#utility.yul\":8290:8299   */\n      dup2\n        /* \"#utility.yul\":8284:8288   */\n      dup2\n        /* \"#utility.yul\":8280:8300   */\n      sub\n        /* \"#utility.yul\":8276:8277   */\n      0x00\n        /* \"#utility.yul\":8265:8274   */\n      dup4\n        /* \"#utility.yul\":8261:8278   */\n      add\n        /* \"#utility.yul\":8254:8301   */\n      mstore\n        /* \"#utility.yul\":8318:8449   */\n      tag_276\n        /* \"#utility.yul\":8444:8448   */\n      dup2\n        /* \"#utility.yul\":8318:8449   */\n      tag_236\n      jump\t// in\n    tag_276:\n        /* \"#utility.yul\":8310:8449   */\n      swap1\n      pop\n        /* \"#utility.yul\":8037:8456   */\n      swap2\n      swap1\n      pop\n      jump\t// out\n        /* \"#utility.yul\":8462:8881   */\n    tag_95:\n        /* \"#utility.yul\":8628:8632   */\n      0x00\n        /* \"#utility.yul\":8666:8668   */\n      0x20\n        /* \"#utility.yul\":8655:8664   */\n      dup3\n        /* \"#utility.yul\":8651:8669   */\n      add\n        /* \"#utility.yul\":8643:8669   */\n      swap1\n      pop\n        /* \"#utility.yul\":8715:8724   */\n      dup2\n        /* \"#utility.yul\":8709:8713   */\n      dup2\n        /* \"#utility.yul\":8705:8725   */\n      sub\n        /* \"#utility.yul\":8701:8702   */\n      0x00\n        /* \"#utility.yul\":8690:8699   */\n      dup4\n        /* \"#utility.yul\":8686:8703   */\n      add\n        /* \"#utility.yul\":8679:8726   */\n      mstore\n        /* \"#utility.yul\":8743:8874   */\n      tag_278\n        /* \"#utility.yul\":8869:8873   */\n      dup2\n        /* \"#utility.yul\":8743:8874   */\n      tag_241\n      jump\t// in\n    tag_278:\n        /* \"#utility.yul\":8735:8874   */\n      swap1\n      pop\n        /* \"#utility.yul\":8462:8881   */\n      swap2\n      swap1\n      pop\n      jump\t// out\n        /* \"#utility.yul\":8887:9306   */\n    tag_128:\n        /* \"#utility.yul\":9053:9057   */\n      0x00\n        /* \"#utility.yul\":9091:9093   */\n      0x20\n        /* \"#utility.yul\":9080:9089   */\n      dup3\n        /* \"#utility.yul\":9076:9094   */\n      add\n        /* \"#utility.yul\":9068:9094   */\n      swap1\n      pop\n        /* \"#utility.yul\":9140:9149   */\n      dup2\n        /* \"#utility.yul\":9134:9138   */\n      dup2\n        /* \"#utility.yul\":9130:9150   */\n      sub\n        /* \"#utility.yul\":9126:9127   */\n      0x00\n        /* \"#utility.yul\":9115:9124   */\n      dup4\n        /* \"#utility.yul\":9111:9128   */\n      add\n        /* \"#utility.yul\":9104:9151   */\n      mstore\n        /* \"#utility.yul\":9168:9299   */\n      tag_280\n        /* \"#utility.yul\":9294:9298   */\n      dup2\n        /* \"#utility.yul\":9168:9299   */\n      tag_246\n      jump\t// in\n    tag_280:\n        /* \"#utility.yul\":9160:9299   */\n      swap1\n      pop\n        /* \"#utility.yul\":8887:9306   */\n      swap2\n      swap1\n      pop\n      jump\t// out\n        /* \"#utility.yul\":9312:9731   */\n    tag_116:\n        /* \"#utility.yul\":9478:9482   */\n      0x00\n        /* \"#utility.yul\":9516:9518   */\n      0x20\n        /* \"#utility.yul\":9505:9514   */\n      dup3\n        /* \"#utility.yul\":9501:9519   */\n      add\n        /* \"#utility.yul\":9493:9519   */\n      swap1\n      pop\n        /* \"#utility.yul\":9565:9574   */\n      dup2\n        /* \"#utility.yul\":9559:9563   */\n      dup2\n        /* \"#utility.yul\":9555:9575   */\n      sub\n        /* \"#utility.yul\":9551:9552   */\n      0x00\n        /* \"#utility.yul\":9540:9549   */\n      dup4\n        /* \"#utility.yul\":9536:9553   */\n      add\n        /* \"#utility.yul\":9529:9576   */\n      mstore\n        /* \"#utility.yul\":9593:9724   */\n      tag_282\n        /* \"#utility.yul\":9719:9723   */\n      dup2\n        /* \"#utility.yul\":9593:9724   */\n      tag_251\n      jump\t// in\n    tag_282:\n        /* \"#utility.yul\":9585:9724   */\n      swap1\n      pop\n        /* \"#utility.yul\":9312:9731   */\n      swap2\n      swap1\n      pop\n      jump\t// out\n        /* \"#utility.yul\":9737:9959   */\n    tag_29:\n        /* \"#utility.yul\":9830:9834   */\n      0x00\n        /* \"#utility.yul\":9868:9870   */\n      0x20\n        /* \"#utility.yul\":9857:9866   */\n      dup3\n        /* \"#utility.yul\":9853:9871   */\n      add\n        /* \"#utility.yul\":9845:9871   */\n      swap1\n      pop\n        /* \"#utility.yul\":9881:9952   */\n      tag_284\n        /* \"#utility.yul\":9949:9950   */\n      0x00\n        /* \"#utility.yul\":9938:9947   */\n      dup4\n        /* \"#utility.yul\":9934:9951   */\n      add\n        /* \"#utility.yul\":9925:9931   */\n      dup5\n        /* \"#utility.yul\":9881:9952   */\n      tag_256\n      jump\t// in\n    tag_284:\n        /* \"#utility.yul\":9737:9959   */\n      swap3\n      swap2\n      pop\n      pop\n      jump\t// out\n        /* \"#utility.yul\":9965:10094   */\n    tag_162:\n        /* \"#utility.yul\":9999:10005   */\n      0x00\n        /* \"#utility.yul\":10026:10046   */\n      tag_286\n      tag_287\n      jump\t// in\n    tag_286:\n        /* \"#utility.yul\":10016:10046   */\n      swap1\n      pop\n        /* \"#utility.yul\":10055:10088   */\n      tag_288\n        /* \"#utility.yul\":10083:10087   */\n      dup3\n        /* \"#utility.yul\":10075:10081   */\n      dup3\n        /* \"#utility.yul\":10055:10088   */\n      tag_289\n      jump\t// in\n    tag_288:\n        /* \"#utility.yul\":9965:10094   */\n      swap2\n      swap1\n      pop\n      jump\t// out\n        /* \"#utility.yul\":10100:10175   */\n    tag_287:\n        /* \"#utility.yul\":10133:10139   */\n      0x00\n        /* \"#utility.yul\":10166:10168   */\n      0x40\n        /* \"#utility.yul\":10160:10169   */\n      mload\n        /* \"#utility.yul\":10150:10169   */\n      swap1\n      pop\n        /* \"#utility.yul\":10100:10175   */\n      swap1\n      jump\t// out\n        /* \"#utility.yul\":10181:10489   */\n    tag_161:\n        /* \"#utility.yul\":10243:10247   */\n      0x00\n        /* \"#utility.yul\":10333:10351   */\n      0xffffffffffffffff\n        /* \"#utility.yul\":10325:10331   */\n      dup3\n        /* \"#utility.yul\":10322:10352   */\n      gt\n        /* \"#utility.yul\":10319:10375   */\n      iszero\n      tag_292\n      jumpi\n        /* \"#utility.yul\":10355:10373   */\n      tag_293\n      tag_294\n      jump\t// in\n    tag_293:\n        /* \"#utility.yul\":10319:10375   */\n    tag_292:\n        /* \"#utility.yul\":10393:10422   */\n      tag_295\n        /* \"#utility.yul\":10415:10421   */\n      dup3\n        /* \"#utility.yul\":10393:10422   */\n      tag_225\n      jump\t// in\n    tag_295:\n        /* \"#utility.yul\":10385:10422   */\n      swap1\n      pop\n        /* \"#utility.yul\":10477:10481   */\n      0x20\n        /* \"#utility.yul\":10471:10475   */\n      dup2\n        /* \"#utility.yul\":10467:10482   */\n      add\n        /* \"#utility.yul\":10459:10482   */\n      swap1\n      pop\n        /* \"#utility.yul\":10181:10489   */\n      swap2\n      swap1\n      pop\n      jump\t// out\n        /* \"#utility.yul\":10495:10594   */\n    tag_219:\n        /* \"#utility.yul\":10547:10553   */\n      0x00\n        /* \"#utility.yul\":10581:10586   */\n      dup2\n        /* \"#utility.yul\":10575:10587   */\n      mload\n        /* \"#utility.yul\":10565:10587   */\n      swap1\n      pop\n        /* \"#utility.yul\":10495:10594   */\n      swap2\n      swap1\n      pop\n      jump\t// out\n        /* \"#utility.yul\":10600:10769   */\n    tag_221:\n        /* \"#utility.yul\":10684:10695   */\n      0x00\n        /* \"#utility.yul\":10718:10724   */\n      dup3\n        /* \"#utility.yul\":10713:10716   */\n      dup3\n        /* \"#utility.yul\":10706:10725   */\n      mstore\n        /* \"#utility.yul\":10758:10762   */\n      0x20\n        /* \"#utility.yul\":10753:10756   */\n      dup3\n        /* \"#utility.yul\":10749:10763   */\n      add\n        /* \"#utility.yul\":10734:10763   */\n      swap1\n      pop\n        /* \"#utility.yul\":10600:10769   */\n      swap3\n      swap2\n      pop\n      pop\n      jump\t// out\n        /* \"#utility.yul\":10775:11080   */\n    tag_100:\n        /* \"#utility.yul\":10815:10818   */\n      0x00\n        /* \"#utility.yul\":10834:10854   */\n      tag_299\n        /* \"#utility.yul\":10852:10853   */\n      dup3\n        /* \"#utility.yul\":10834:10854   */\n      tag_259\n      jump\t// in\n    tag_299:\n        /* \"#utility.yul\":10829:10854   */\n      swap2\n      pop\n        /* \"#utility.yul\":10868:10888   */\n      tag_300\n        /* \"#utility.yul\":10886:10887   */\n      dup4\n        /* \"#utility.yul\":10868:10888   */\n      tag_259\n      jump\t// in\n    tag_300:\n        /* \"#utility.yul\":10863:10888   */\n      swap3\n      pop\n        /* \"#utility.yul\":11022:11023   */\n      dup3\n        /* \"#utility.yul\":10954:11020   */\n      0xffffffffffffffffffffffffffffffffffffffffffffffffffffffffffffffff\n        /* \"#utility.yul\":10950:11024   */\n      sub\n        /* \"#utility.yul\":10947:10948   */\n      dup3\n        /* \"#utility.yul\":10944:11025   */\n      gt\n        /* \"#utility.yul\":10941:11048   */\n      iszero\n      tag_301\n      jumpi\n        /* \"#utility.yul\":11028:11046   */\n      tag_302\n      tag_303\n      jump\t// in\n    tag_302:\n        /* \"#utility.yul\":10941:11048   */\n    tag_301:\n        /* \"#utility.yul\":11072:11073   */\n      dup3\n        /* \"#utility.yul\":11069:11070   */\n      dup3\n        /* \"#utility.yul\":11065:11074   */\n      add\n        /* \"#utility.yul\":11058:11074   */\n      swap1\n      pop\n        /* \"#utility.yul\":10775:11080   */\n      swap3\n      swap2\n      pop\n      pop\n      jump\t// out\n        /* \"#utility.yul\":11086:11271   */\n    tag_130:\n        /* \"#utility.yul\":11126:11127   */\n      0x00\n        /* \"#utility.yul\":11143:11163   */\n      tag_305\n        /* \"#utility.yul\":11161:11162   */\n      dup3\n        /* \"#utility.yul\":11143:11163   */\n      tag_259\n      jump\t// in\n    tag_305:\n        /* \"#utility.yul\":11138:11163   */\n      swap2\n      pop\n        /* \"#utility.yul\":11177:11197   */\n      tag_306\n        /* \"#utility.yul\":11195:11196   */\n      dup4\n        /* \"#utility.yul\":11177:11197   */\n      tag_259\n      jump\t// in\n    tag_306:\n        /* \"#utility.yul\":11172:11197   */\n      swap3\n      pop\n        /* \"#utility.yul\":11216:11217   */\n      dup3\n        /* \"#utility.yul\":11206:11241   */\n      tag_307\n      jumpi\n        /* \"#utility.yul\":11221:11239   */\n      tag_308\n      tag_309\n      jump\t// in\n    tag_308:\n        /* \"#utility.yul\":11206:11241   */\n    tag_307:\n        /* \"#utility.yul\":11263:11264   */\n      dup3\n        /* \"#utility.yul\":11260:11261   */\n      dup3\n        /* \"#utility.yul\":11256:11265   */\n      div\n        /* \"#utility.yul\":11251:11265   */\n      swap1\n      pop\n        /* \"#utility.yul\":11086:11271   */\n      swap3\n      swap2\n      pop\n      pop\n      jump\t// out\n        /* \"#utility.yul\":11277:11373   */\n    tag_211:\n        /* \"#utility.yul\":11314:11321   */\n      0x00\n        /* \"#utility.yul\":11343:11367   */\n      tag_311\n        /* \"#utility.yul\":11361:11366   */\n      dup3\n        /* \"#utility.yul\":11343:11367   */\n      tag_312\n      jump\t// in\n    tag_311:\n        /* \"#utility.yul\":11332:11367   */\n      swap1\n      pop\n        /* \"#utility.yul\":11277:11373   */\n      swap2\n      swap1\n      pop\n      jump\t// out\n        /* \"#utility.yul\":11379:11483   */\n    tag_207:\n        /* \"#utility.yul\":11424:11431   */\n      0x00\n        /* \"#utility.yul\":11453:11477   */\n      tag_314\n        /* \"#utility.yul\":11471:11476   */\n      dup3\n        /* \"#utility.yul\":11453:11477   */\n      tag_312\n      jump\t// in\n    tag_314:\n        /* \"#utility.yul\":11442:11477   */\n      swap1\n      pop\n        /* \"#utility.yul\":11379:11483   */\n      swap2\n      swap1\n      pop\n      jump\t// out\n        /* \"#utility.yul\":11489:11579   */\n    tag_215:\n        /* \"#utility.yul\":11523:11530   */\n      0x00\n        /* \"#utility.yul\":11566:11571   */\n      dup2\n        /* \"#utility.yul\":11559:11572   */\n      iszero\n        /* \"#utility.yul\":11552:11573   */\n      iszero\n        /* \"#utility.yul\":11541:11573   */\n      swap1\n      pop\n        /* \"#utility.yul\":11489:11579   */\n      swap2\n      swap1\n      pop\n      jump\t// out\n        /* \"#utility.yul\":11585:11711   */\n    tag_312:\n        /* \"#utility.yul\":11622:11629   */\n      0x00\n        /* \"#utility.yul\":11662:11704   */\n      0xffffffffffffffffffffffffffffffffffffffff\n        /* \"#utility.yul\":11655:11660   */\n      dup3\n        /* \"#utility.yul\":11651:11705   */\n      and\n        /* \"#utility.yul\":11640:11705   */\n      swap1\n      pop\n        /* \"#utility.yul\":11585:11711   */\n      swap2\n      swap1\n      pop\n      jump\t// out\n        /* \"#utility.yul\":11717:11794   */\n    tag_259:\n        /* \"#utility.yul\":11754:11761   */\n      0x00\n        /* \"#utility.yul\":11783:11788   */\n      dup2\n        /* \"#utility.yul\":11772:11788   */\n      swap1\n      pop\n        /* \"#utility.yul\":11717:11794   */\n      swap2\n      swap1\n      pop\n      jump\t// out\n        /* \"#utility.yul\":11800:11954   */\n    tag_167:\n        /* \"#utility.yul\":11884:11890   */\n      dup3\n        /* \"#utility.yul\":11879:11882   */\n      dup2\n        /* \"#utility.yul\":11874:11877   */\n      dup4\n        /* \"#utility.yul\":11861:11891   */\n      calldatacopy\n        /* \"#utility.yul\":11946:11947   */\n      0x00\n        /* \"#utility.yul\":11937:11943   */\n      dup4\n        /* \"#utility.yul\":11932:11935   */\n      dup4\n        /* \"#utility.yul\":11928:11944   */\n      add\n        /* \"#utility.yul\":11921:11948   */\n      mstore\n        /* \"#utility.yul\":11800:11954   */\n      pop\n      pop\n      pop\n      jump\t// out\n        /* \"#utility.yul\":11960:12267   */\n    tag_223:\n        /* \"#utility.yul\":12028:12029   */\n      0x00\n        /* \"#utility.yul\":12038:12151   */\n    tag_320:\n        /* \"#utility.yul\":12052:12058   */\n      dup4\n        /* \"#utility.yul\":12049:12050   */\n      dup2\n        /* \"#utility.yul\":12046:12059   */\n      lt\n        /* \"#utility.yul\":12038:12151   */\n      iszero\n      tag_322\n      jumpi\n        /* \"#utility.yul\":12137:12138   */\n      dup1\n        /* \"#utility.yul\":12132:12135   */\n      dup3\n        /* \"#utility.yul\":12128:12139   */\n      add\n        /* \"#utility.yul\":12122:12140   */\n      mload\n        /* \"#utility.yul\":12118:12119   */\n      dup2\n        /* \"#utility.yul\":12113:12116   */\n      dup5\n        /* \"#utility.yul\":12109:12120   */\n      add\n        /* \"#utility.yul\":12102:12141   */\n      mstore\n        /* \"#utility.yul\":12074:12076   */\n      0x20\n        /* \"#utility.yul\":12071:12072   */\n      dup2\n        /* \"#utility.yul\":12067:12077   */\n      add\n        /* \"#utility.yul\":12062:12077   */\n      swap1\n      pop\n        /* \"#utility.yul\":12038:12151   */\n      jump(tag_320)\n    tag_322:\n        /* \"#utility.yul\":12169:12175   */\n      dup4\n        /* \"#utility.yul\":12166:12167   */\n      dup2\n        /* \"#utility.yul\":12163:12176   */\n      gt\n        /* \"#utility.yul\":12160:12261   */\n      iszero\n      tag_323\n      jumpi\n        /* \"#utility.yul\":12249:12250   */\n      0x00\n        /* \"#utility.yul\":12240:12246   */\n      dup5\n        /* \"#utility.yul\":12235:12238   */\n      dup5\n        /* \"#utility.yul\":12231:12247   */\n      add\n        /* \"#utility.yul\":12224:12251   */\n      mstore\n        /* \"#utility.yul\":12160:12261   */\n    tag_323:\n        /* \"#utility.yul\":12009:12267   */\n      pop\n        /* \"#utility.yul\":11960:12267   */\n      pop\n      pop\n      pop\n      jump\t// out\n        /* \"#utility.yul\":12273:12593   */\n    tag_135:\n        /* \"#utility.yul\":12317:12323   */\n      0x00\n        /* \"#utility.yul\":12354:12355   */\n      0x02\n        /* \"#utility.yul\":12348:12352   */\n      dup3\n        /* \"#utility.yul\":12344:12356   */\n      div\n        /* \"#utility.yul\":12334:12356   */\n      swap1\n      pop\n        /* \"#utility.yul\":12401:12402   */\n      0x01\n        /* \"#utility.yul\":12395:12399   */\n      dup3\n        /* \"#utility.yul\":12391:12403   */\n      and\n        /* \"#utility.yul\":12422:12440   */\n      dup1\n        /* \"#utility.yul\":12412:12493   */\n      tag_325\n      jumpi\n        /* \"#utility.yul\":12478:12482   */\n      0x7f\n        /* \"#utility.yul\":12470:12476   */\n      dup3\n        /* \"#utility.yul\":12466:12483   */\n      and\n        /* \"#utility.yul\":12456:12483   */\n      swap2\n      pop\n        /* \"#utility.yul\":12412:12493   */\n    tag_325:\n        /* \"#utility.yul\":12540:12542   */\n      0x20\n        /* \"#utility.yul\":12532:12538   */\n      dup3\n        /* \"#utility.yul\":12529:12543   */\n      lt\n        /* \"#utility.yul\":12509:12527   */\n      dup2\n        /* \"#utility.yul\":12506:12544   */\n      eq\n        /* \"#utility.yul\":12503:12587   */\n      iszero\n      tag_326\n      jumpi\n        /* \"#utility.yul\":12559:12577   */\n      tag_327\n      tag_328\n      jump\t// in\n    tag_327:\n        /* \"#utility.yul\":12503:12587   */\n    tag_326:\n        /* \"#utility.yul\":12324:12593   */\n      pop\n        /* \"#utility.yul\":12273:12593   */\n      swap2\n      swap1\n      pop\n      jump\t// out\n        /* \"#utility.yul\":12599:12880   */\n    tag_289:\n        /* \"#utility.yul\":12682:12709   */\n      tag_330\n        /* \"#utility.yul\":12704:12708   */\n      dup3\n        /* \"#utility.yul\":12682:12709   */\n      tag_225\n      jump\t// in\n    tag_330:\n        /* \"#utility.yul\":12674:12680   */\n      dup2\n        /* \"#utility.yul\":12670:12710   */\n      add\n        /* \"#utility.yul\":12812:12818   */\n      dup2\n        /* \"#utility.yul\":12800:12810   */\n      dup2\n        /* \"#utility.yul\":12797:12819   */\n      lt\n        /* \"#utility.yul\":12776:12794   */\n      0xffffffffffffffff\n        /* \"#utility.yul\":12764:12774   */\n      dup3\n        /* \"#utility.yul\":12761:12795   */\n      gt\n        /* \"#utility.yul\":12758:12820   */\n      or\n        /* \"#utility.yul\":12755:12843   */\n      iszero\n      tag_331\n      jumpi\n        /* \"#utility.yul\":12823:12841   */\n      tag_332\n      tag_294\n      jump\t// in\n    tag_332:\n        /* \"#utility.yul\":12755:12843   */\n    tag_331:\n        /* \"#utility.yul\":12863:12873   */\n      dup1\n        /* \"#utility.yul\":12859:12861   */\n      0x40\n        /* \"#utility.yul\":12852:12874   */\n      mstore\n        /* \"#utility.yul\":12642:12880   */\n      pop\n        /* \"#utility.yul\":12599:12880   */\n      pop\n      pop\n      jump\t// out\n        /* \"#utility.yul\":12886:13119   */\n    tag_98:\n        /* \"#utility.yul\":12925:12928   */\n      0x00\n        /* \"#utility.yul\":12948:12972   */\n      tag_334\n        /* \"#utility.yul\":12966:12971   */\n      dup3\n        /* \"#utility.yul\":12948:12972   */\n      tag_259\n      jump\t// in\n    tag_334:\n        /* \"#utility.yul\":12939:12972   */\n      swap2\n      pop\n        /* \"#utility.yul\":12994:13060   */\n      0xffffffffffffffffffffffffffffffffffffffffffffffffffffffffffffffff\n        /* \"#utility.yul\":12987:12992   */\n      dup3\n        /* \"#utility.yul\":12984:13061   */\n      eq\n        /* \"#utility.yul\":12981:13084   */\n      iszero\n      tag_335\n      jumpi\n        /* \"#utility.yul\":13064:13082   */\n      tag_336\n      tag_303\n      jump\t// in\n    tag_336:\n        /* \"#utility.yul\":12981:13084   */\n    tag_335:\n        /* \"#utility.yul\":13111:13112   */\n      0x01\n        /* \"#utility.yul\":13104:13109   */\n      dup3\n        /* \"#utility.yul\":13100:13113   */\n      add\n        /* \"#utility.yul\":13093:13113   */\n      swap1\n      pop\n        /* \"#utility.yul\":12886:13119   */\n      swap2\n      swap1\n      pop\n      jump\t// out\n        /* \"#utility.yul\":13125:13305   */\n    tag_303:\n        /* \"#utility.yul\":13173:13250   */\n      0x4e487b7100000000000000000000000000000000000000000000000000000000\n        /* \"#utility.yul\":13170:13171   */\n      0x00\n        /* \"#utility.yul\":13163:13251   */\n      mstore\n        /* \"#utility.yul\":13270:13274   */\n      0x11\n        /* \"#utility.yul\":13267:13268   */\n      0x04\n        /* \"#utility.yul\":13260:13275   */\n      mstore\n        /* \"#utility.yul\":13294:13298   */\n      0x24\n        /* \"#utility.yul\":13291:13292   */\n      0x00\n        /* \"#utility.yul\":13284:13299   */\n      revert\n        /* \"#utility.yul\":13311:13491   */\n    tag_309:\n        /* \"#utility.yul\":13359:13436   */\n      0x4e487b7100000000000000000000000000000000000000000000000000000000\n        /* \"#utility.yul\":13356:13357   */\n      0x00\n        /* \"#utility.yul\":13349:13437   */\n      mstore\n        /* \"#utility.yul\":13456:13460   */\n      0x12\n        /* \"#utility.yul\":13453:13454   */\n      0x04\n        /* \"#utility.yul\":13446:13461   */\n      mstore\n        /* \"#utility.yul\":13480:13484   */\n      0x24\n        /* \"#utility.yul\":13477:13478   */\n      0x00\n        /* \"#utility.yul\":13470:13485   */\n      revert\n        /* \"#utility.yul\":13497:13677   */\n    tag_328:\n        /* \"#utility.yul\":13545:13622   */\n      0x4e487b7100000000000000000000000000000000000000000000000000000000\n        /* \"#utility.yul\":13542:13543   */\n      0x00\n        /* \"#utility.yul\":13535:13623   */\n      mstore\n        /* \"#utility.yul\":13642:13646   */\n      0x22\n        /* \"#utility.yul\":13639:13640   */\n      0x04\n        /* \"#utility.yul\":13632:13647   */\n      mstore\n        /* \"#utility.yul\":13666:13670   */\n      0x24\n        /* \"#utility.yul\":13663:13664   */\n      0x00\n        /* \"#utility.yul\":13656:13671   */\n      revert\n        /* \"#utility.yul\":13683:13863   */\n    tag_294:\n        /* \"#utility.yul\":13731:13808   */\n      0x4e487b7100000000000000000000000000000000000000000000000000000000\n        /* \"#utility.yul\":13728:13729   */\n      0x00\n        /* \"#utility.yul\":13721:13809   */\n      mstore\n        /* \"#utility.yul\":13828:13832   */\n      0x41\n        /* \"#utility.yul\":13825:13826   */\n      0x04\n        /* \"#utility.yul\":13818:13833   */\n      mstore\n        /* \"#utility.yul\":13852:13856   */\n      0x24\n        /* \"#utility.yul\":13849:13850   */\n      0x00\n        /* \"#utility.yul\":13842:13857   */\n      revert\n        /* \"#utility.yul\":13869:13986   */\n    tag_180:\n        /* \"#utility.yul\":13978:13979   */\n      0x00\n        /* \"#utility.yul\":13975:13976   */\n      dup1\n        /* \"#utility.yul\":13968:13980   */\n      revert\n        /* \"#utility.yul\":13992:14109   */\n    tag_165:\n        /* \"#utility.yul\":14101:14102   */\n      0x00\n        /* \"#utility.yul\":14098:14099   */\n      dup1\n        /* \"#utility.yul\":14091:14103   */\n      revert\n        /* \"#utility.yul\":14115:14232   */\n    tag_196:\n        /* \"#utility.yul\":14224:14225   */\n      0x00\n        /* \"#utility.yul\":14221:14222   */\n      dup1\n        /* \"#utility.yul\":14214:14226   */\n      revert\n        /* \"#utility.yul\":14238:14355   */\n    tag_189:\n        /* \"#utility.yul\":14347:14348   */\n      0x00\n        /* \"#utility.yul\":14344:14345   */\n      dup1\n        /* \"#utility.yul\":14337:14349   */\n      revert\n        /* \"#utility.yul\":14361:14463   */\n    tag_225:\n        /* \"#utility.yul\":14402:14408   */\n      0x00\n        /* \"#utility.yul\":14453:14455   */\n      0x1f\n        /* \"#utility.yul\":14449:14456   */\n      not\n        /* \"#utility.yul\":14444:14446   */\n      0x1f\n        /* \"#utility.yul\":14437:14442   */\n      dup4\n        /* \"#utility.yul\":14433:14447   */\n      add\n        /* \"#utility.yul\":14429:14457   */\n      and\n        /* \"#utility.yul\":14419:14457   */\n      swap1\n      pop\n        /* \"#utility.yul\":14361:14463   */\n      swap2\n      swap1\n      pop\n      jump\t// out\n        /* \"#utility.yul\":14469:14642   */\n    tag_230:\n        /* \"#utility.yul\":14609:14634   */\n      0x596f75206d6179206f6e6c7920766f7465206f6e63652e000000000000000000\n        /* \"#utility.yul\":14605:14606   */\n      0x00\n        /* \"#utility.yul\":14597:14603   */\n      dup3\n        /* \"#utility.yul\":14593:14607   */\n      add\n        /* \"#utility.yul\":14586:14635   */\n      mstore\n        /* \"#utility.yul\":14469:14642   */\n      pop\n      jump\t// out\n        /* \"#utility.yul\":14648:14818   */\n    tag_235:\n        /* \"#utility.yul\":14788:14810   */\n      0x446561646c696e6520686173207061737365642e000000000000000000000000\n        /* \"#utility.yul\":14784:14785   */\n      0x00\n        /* \"#utility.yul\":14776:14782   */\n      dup3\n        /* \"#utility.yul\":14772:14786   */\n      add\n        /* \"#utility.yul\":14765:14811   */\n      mstore\n        /* \"#utility.yul\":14648:14818   */\n      pop\n      jump\t// out\n        /* \"#utility.yul\":14824:15000   */\n    tag_240:\n        /* \"#utility.yul\":14964:14992   */\n      0x41646d696e2070726976656c656765732072657175697265642e000000000000\n        /* \"#utility.yul\":14960:14961   */\n      0x00\n        /* \"#utility.yul\":14952:14958   */\n      dup3\n        /* \"#utility.yul\":14948:14962   */\n      add\n        /* \"#utility.yul\":14941:14993   */\n      mstore\n        /* \"#utility.yul\":14824:15000   */\n      pop\n      jump\t// out\n        /* \"#utility.yul\":15006:15185   */\n    tag_245:\n        /* \"#utility.yul\":15146:15177   */\n      0x4d696e696d756d20636f6e747269627574696f6e206e6f74206d65742e000000\n        /* \"#utility.yul\":15142:15143   */\n      0x00\n        /* \"#utility.yul\":15134:15140   */\n      dup3\n        /* \"#utility.yul\":15130:15144   */\n      add\n        /* \"#utility.yul\":15123:15178   */\n      mstore\n        /* \"#utility.yul\":15006:15185   */\n      pop\n      jump\t// out\n        /* \"#utility.yul\":15191:15372   */\n    tag_250:\n        /* \"#utility.yul\":15331:15364   */\n      0x546865207265717565737420686173206265656e20636f6d706c657465642e00\n        /* \"#utility.yul\":15327:15328   */\n      0x00\n        /* \"#utility.yul\":15319:15325   */\n      dup3\n        /* \"#utility.yul\":15315:15329   */\n      add\n        /* \"#utility.yul\":15308:15365   */\n      mstore\n        /* \"#utility.yul\":15191:15372   */\n      pop\n      jump\t// out\n        /* \"#utility.yul\":15378:15555   */\n    tag_255:\n        /* \"#utility.yul\":15518:15547   */\n      0x596f75206d7573742062652061207573657220746f20766f74652e0000000000\n        /* \"#utility.yul\":15514:15515   */\n      0x00\n        /* \"#utility.yul\":15506:15512   */\n      dup3\n        /* \"#utility.yul\":15502:15516   */\n      add\n        /* \"#utility.yul\":15495:15548   */\n      mstore\n        /* \"#utility.yul\":15378:15555   */\n      pop\n      jump\t// out\n        /* \"#utility.yul\":15561:15683   */\n    tag_171:\n        /* \"#utility.yul\":15634:15658   */\n      tag_353\n        /* \"#utility.yul\":15652:15657   */\n      dup2\n        /* \"#utility.yul\":15634:15658   */\n      tag_211\n      jump\t// in\n    tag_353:\n        /* \"#utility.yul\":15627:15632   */\n      dup2\n        /* \"#utility.yul\":15624:15659   */\n      eq\n        /* \"#utility.yul\":15614:15677   */\n      tag_354\n      jumpi\n        /* \"#utility.yul\":15673:15674   */\n      0x00\n        /* \"#utility.yul\":15670:15671   */\n      dup1\n        /* \"#utility.yul\":15663:15675   */\n      revert\n        /* \"#utility.yul\":15614:15677   */\n    tag_354:\n        /* \"#utility.yul\":15561:15683   */\n      pop\n      jump\t// out\n        /* \"#utility.yul\":15689:15827   */\n    tag_175:\n        /* \"#utility.yul\":15770:15802   */\n      tag_356\n        /* \"#utility.yul\":15796:15801   */\n      dup2\n        /* \"#utility.yul\":15770:15802   */\n      tag_207\n      jump\t// in\n    tag_356:\n        /* \"#utility.yul\":15763:15768   */\n      dup2\n        /* \"#utility.yul\":15760:15803   */\n      eq\n        /* \"#utility.yul\":15750:15821   */\n      tag_357\n      jumpi\n        /* \"#utility.yul\":15817:15818   */\n      0x00\n        /* \"#utility.yul\":15814:15815   */\n      dup1\n        /* \"#utility.yul\":15807:15819   */\n      revert\n        /* \"#utility.yul\":15750:15821   */\n    tag_357:\n        /* \"#utility.yul\":15689:15827   */\n      pop\n      jump\t// out\n        /* \"#utility.yul\":15833:15955   */\n    tag_185:\n        /* \"#utility.yul\":15906:15930   */\n      tag_359\n        /* \"#utility.yul\":15924:15929   */\n      dup2\n        /* \"#utility.yul\":15906:15930   */\n      tag_259\n      jump\t// in\n    tag_359:\n        /* \"#utility.yul\":15899:15904   */\n      dup2\n        /* \"#utility.yul\":15896:15931   */\n      eq\n        /* \"#utility.yul\":15886:15949   */\n      tag_360\n      jumpi\n        /* \"#utility.yul\":15945:15946   */\n      0x00\n        /* \"#utility.yul\":15942:15943   */\n      dup1\n        /* \"#utility.yul\":15935:15947   */\n      revert\n        /* \"#utility.yul\":15886:15949   */\n    tag_360:\n        /* \"#utility.yul\":15833:15955   */\n      pop\n      jump\t// out\n\n    auxdata: 0xa26469706673582212206cc8c14ef507acbb9e75bfc725310cca6bc34383a702f5019f2bf2c81999c40564736f6c63430008070033\n}\n",
				"bytecode": {
					"linkReferences": {},
					"object": "60806040523480156200001157600080fd5b5060405162001781380380620017818339818101604052810190620000379190620000ba565b8160058190555080426200004c919062000101565b600481905550606460038190555033600160006101000a81548173ffffffffffffffffffffffffffffffffffffffff021916908373ffffffffffffffffffffffffffffffffffffffff1602179055505050620001b6565b600081519050620000b4816200019c565b92915050565b60008060408385031215620000d457620000d362000197565b5b6000620000e485828601620000a3565b9250506020620000f785828601620000a3565b9150509250929050565b60006200010e826200015e565b91506200011b836200015e565b9250827fffffffffffffffffffffffffffffffffffffffffffffffffffffffffffffffff0382111562000153576200015262000168565b5b828201905092915050565b6000819050919050565b7f4e487b7100000000000000000000000000000000000000000000000000000000600052601160045260246000fd5b600080fd5b620001a7816200015e565b8114620001b357600080fd5b50565b6115bb80620001c66000396000f3fe6080604052600436106100ec5760003560e01c806381d12c581161008a578063d3a9d4ea11610059578063d3a9d4ea146102e7578063d7bb99ba14610312578063f3740daf1461031c578063f851a44014610347576100fb565b806381d12c5814610239578063937e09b11461027a578063b2d5ae44146102a5578063c59ee1dc146102bc576100fb565b806329dcb0cf116100c657806329dcb0cf1461019157806340193883146101bc5780634cb6f4a5146101e75780635114cb5214610210576100fb565b806312065fe0146101005780631b16bb5c1461012b5780631f6d494214610154576100fb565b366100fb576100f9610372565b005b600080fd5b34801561010c57600080fd5b50610115610504565b604051610122919061110d565b60405180910390f35b34801561013757600080fd5b50610152600480360381019061014d9190610dcc565b61050c565b005b34801561016057600080fd5b5061017b60048036038101906101769190610d9f565b61065f565b604051610188919061110d565b60405180910390f35b34801561019d57600080fd5b506101a6610677565b6040516101b3919061110d565b60405180910390f35b3480156101c857600080fd5b506101d161067d565b6040516101de919061110d565b60405180910390f35b3480156101f357600080fd5b5061020e60048036038101906102099190610e3b565b610683565b005b34801561021c57600080fd5b5061023760048036038101906102329190610e3b565b610828565b005b34801561024557600080fd5b50610260600480360381019061025b9190610e3b565b6109e5565b604051610271959493929190610ff3565b60405180910390f35b34801561028657600080fd5b5061028f610ad0565b60405161029c919061110d565b60405180910390f35b3480156102b157600080fd5b506102ba610ad6565b005b3480156102c857600080fd5b506102d1610c15565b6040516102de919061110d565b60405180910390f35b3480156102f357600080fd5b506102fc610c1b565b604051610309919061110d565b60405180910390f35b61031a610372565b005b34801561032857600080fd5b50610331610c21565b60405161033e919061110d565b60405180910390f35b34801561035357600080fd5b5061035c610c27565b6040516103699190610faf565b60405180910390f35b60045442106103b6576040517f08c379a00000000000000000000000000000000000000000000000000000000081526004016103ad9061106d565b60405180910390fd5b6003543410156103fb576040517f08c379a00000000000000000000000000000000000000000000000000000000081526004016103f2906110ad565b60405180910390fd5b60008060003373ffffffffffffffffffffffffffffffffffffffff1673ffffffffffffffffffffffffffffffffffffffff16815260200190815260200160002054141561045b576002600081548092919061045590611320565b91905055505b346000803373ffffffffffffffffffffffffffffffffffffffff1673ffffffffffffffffffffffffffffffffffffffff16815260200190815260200160002060008282546104a9919061119a565b9250508190555034600660008282546104c2919061119a565b925050819055507f44c7d71aa3a0dca1ae622fe7fa2c5d9abb4d4c6a4cfccd326791b7f7fbb88a7033346040516104fa929190610fca565b60405180910390a1565b600047905090565b600160009054906101000a900473ffffffffffffffffffffffffffffffffffffffff1673ffffffffffffffffffffffffffffffffffffffff163373ffffffffffffffffffffffffffffffffffffffff161461059c576040517f08c379a00000000000000000000000000000000000000000000000000000000081526004016105939061108d565b60405180910390fd5b60006007600060085481526020019081526020016000209050600860008154809291906105c890611320565b9190505550838160000190805190602001906105e5929190610c4d565b50828160010160006101000a81548173ffffffffffffffffffffffffffffffffffffffff021916908373ffffffffffffffffffffffffffffffffffffffff16021790555081816002018190555060008160030160006101000a81548160ff0219169083151502179055506000816004018190555050505050565b60006020528060005260406000206000915090505481565b60045481565b60055481565b60008060003373ffffffffffffffffffffffffffffffffffffffff1673ffffffffffffffffffffffffffffffffffffffff1681526020019081526020016000205411610704576040517f08c379a00000000000000000000000000000000000000000000000000000000081526004016106fb906110ed565b60405180910390fd5b6000600760008381526020019081526020016000209050600015158160050160003373ffffffffffffffffffffffffffffffffffffffff1673ffffffffffffffffffffffffffffffffffffffff16815260200190815260200160002060009054906101000a900460ff161515146107b0576040517f08c379a00000000000000000000000000000000000000000000000000000000081526004016107a79061104d565b60405180910390fd5b60018160050160003373ffffffffffffffffffffffffffffffffffffffff1673ffffffffffffffffffffffffffffffffffffffff16815260200190815260200160002060006101000a81548160ff02191690831515021790555080600401600081548092919061081f90611320565b91905055505050565b600160009054906101000a900473ffffffffffffffffffffffffffffffffffffffff1673ffffffffffffffffffffffffffffffffffffffff163373ffffffffffffffffffffffffffffffffffffffff16146108b8576040517f08c379a00000000000000000000000000000000000000000000000000000000081526004016108af9061108d565b60405180910390fd5b60055460065410156108c957600080fd5b6000600760008381526020019081526020016000209050600015158160030160009054906101000a900460ff16151514610938576040517f08c379a000000000000000000000000000000000000000000000000000000000815260040161092f906110cd565b60405180910390fd5b6002805461094691906111f0565b81600401541161095557600080fd5b8060010160009054906101000a900473ffffffffffffffffffffffffffffffffffffffff1673ffffffffffffffffffffffffffffffffffffffff166108fc82600201549081150290604051600060405180830381858888f193505050501580156109c3573d6000803e3d6000fd5b5060018160030160006101000a81548160ff0219169083151502179055505050565b6007602052806000526040600020600091509050806000018054610a08906112bd565b80601f0160208091040260200160405190810160405280929190818152602001828054610a34906112bd565b8015610a815780601f10610a5657610100808354040283529160200191610a81565b820191906000526020600020905b815481529060010190602001808311610a6457829003601f168201915b5050505050908060010160009054906101000a900473ffffffffffffffffffffffffffffffffffffffff16908060020154908060030160009054906101000a900460ff16908060040154905085565b60035481565b60045442118015610aea5750600554600654105b610af357600080fd5b60008060003373ffffffffffffffffffffffffffffffffffffffff1673ffffffffffffffffffffffffffffffffffffffff1681526020019081526020016000205411610b3e57600080fd5b600033905060008060003373ffffffffffffffffffffffffffffffffffffffff1673ffffffffffffffffffffffffffffffffffffffff1681526020019081526020016000205490508173ffffffffffffffffffffffffffffffffffffffff166108fc829081150290604051600060405180830381858888f19350505050158015610bcc573d6000803e3d6000fd5b5060008060003373ffffffffffffffffffffffffffffffffffffffff1673ffffffffffffffffffffffffffffffffffffffff168152602001908152602001600020819055505050565b60065481565b60085481565b60025481565b600160009054906101000a900473ffffffffffffffffffffffffffffffffffffffff1681565b828054610c59906112bd565b90600052602060002090601f016020900481019282610c7b5760008555610cc2565b82601f10610c9457805160ff1916838001178555610cc2565b82800160010185558215610cc2579182015b82811115610cc1578251825591602001919060010190610ca6565b5b509050610ccf9190610cd3565b5090565b5b80821115610cec576000816000905550600101610cd4565b5090565b6000610d03610cfe8461114d565b611128565b905082815260208101848484011115610d1f57610d1e61142a565b5b610d2a84828561127b565b509392505050565b600081359050610d4181611540565b92915050565b600081359050610d5681611557565b92915050565b600082601f830112610d7157610d70611425565b5b8135610d81848260208601610cf0565b91505092915050565b600081359050610d998161156e565b92915050565b600060208284031215610db557610db4611434565b5b6000610dc384828501610d32565b91505092915050565b600080600060608486031215610de557610de4611434565b5b600084013567ffffffffffffffff811115610e0357610e0261142f565b5b610e0f86828701610d5c565b9350506020610e2086828701610d47565b9250506040610e3186828701610d8a565b9150509250925092565b600060208284031215610e5157610e50611434565b5b6000610e5f84828501610d8a565b91505092915050565b610e7181611233565b82525050565b610e8081611221565b82525050565b610e8f81611245565b82525050565b6000610ea08261117e565b610eaa8185611189565b9350610eba81856020860161128a565b610ec381611439565b840191505092915050565b6000610edb601783611189565b9150610ee68261144a565b602082019050919050565b6000610efe601483611189565b9150610f0982611473565b602082019050919050565b6000610f21601a83611189565b9150610f2c8261149c565b602082019050919050565b6000610f44601d83611189565b9150610f4f826114c5565b602082019050919050565b6000610f67601f83611189565b9150610f72826114ee565b602082019050919050565b6000610f8a601b83611189565b9150610f9582611517565b602082019050919050565b610fa981611271565b82525050565b6000602082019050610fc46000830184610e77565b92915050565b6000604082019050610fdf6000830185610e77565b610fec6020830184610fa0565b9392505050565b600060a082019050818103600083015261100d8188610e95565b905061101c6020830187610e68565b6110296040830186610fa0565b6110366060830185610e86565b6110436080830184610fa0565b9695505050505050565b6000602082019050818103600083015261106681610ece565b9050919050565b6000602082019050818103600083015261108681610ef1565b9050919050565b600060208201905081810360008301526110a681610f14565b9050919050565b600060208201905081810360008301526110c681610f37565b9050919050565b600060208201905081810360008301526110e681610f5a565b9050919050565b6000602082019050818103600083015261110681610f7d565b9050919050565b60006020820190506111226000830184610fa0565b92915050565b6000611132611143565b905061113e82826112ef565b919050565b6000604051905090565b600067ffffffffffffffff821115611168576111676113f6565b5b61117182611439565b9050602081019050919050565b600081519050919050565b600082825260208201905092915050565b60006111a582611271565b91506111b083611271565b9250827fffffffffffffffffffffffffffffffffffffffffffffffffffffffffffffffff038211156111e5576111e4611369565b5b828201905092915050565b60006111fb82611271565b915061120683611271565b92508261121657611215611398565b5b828204905092915050565b600061122c82611251565b9050919050565b600061123e82611251565b9050919050565b60008115159050919050565b600073ffffffffffffffffffffffffffffffffffffffff82169050919050565b6000819050919050565b82818337600083830152505050565b60005b838110156112a857808201518184015260208101905061128d565b838111156112b7576000848401525b50505050565b600060028204905060018216806112d557607f821691505b602082108114156112e9576112e86113c7565b5b50919050565b6112f882611439565b810181811067ffffffffffffffff82111715611317576113166113f6565b5b80604052505050565b600061132b82611271565b91507fffffffffffffffffffffffffffffffffffffffffffffffffffffffffffffffff82141561135e5761135d611369565b5b600182019050919050565b7f4e487b7100000000000000000000000000000000000000000000000000000000600052601160045260246000fd5b7f4e487b7100000000000000000000000000000000000000000000000000000000600052601260045260246000fd5b7f4e487b7100000000000000000000000000000000000000000000000000000000600052602260045260246000fd5b7f4e487b7100000000000000000000000000000000000000000000000000000000600052604160045260246000fd5b600080fd5b600080fd5b600080fd5b600080fd5b6000601f19601f8301169050919050565b7f596f75206d6179206f6e6c7920766f7465206f6e63652e000000000000000000600082015250565b7f446561646c696e6520686173207061737365642e000000000000000000000000600082015250565b7f41646d696e2070726976656c656765732072657175697265642e000000000000600082015250565b7f4d696e696d756d20636f6e747269627574696f6e206e6f74206d65742e000000600082015250565b7f546865207265717565737420686173206265656e20636f6d706c657465642e00600082015250565b7f596f75206d7573742062652061207573657220746f20766f74652e0000000000600082015250565b61154981611221565b811461155457600080fd5b50565b61156081611233565b811461156b57600080fd5b50565b61157781611271565b811461158257600080fd5b5056fea26469706673582212206cc8c14ef507acbb9e75bfc725310cca6bc34383a702f5019f2bf2c81999c40564736f6c63430008070033",
					"opcodes": "PUSH1 0x80 PUSH1 0x40 MSTORE CALLVALUE DUP1 ISZERO PUSH3 0x11 JUMPI PUSH1 0x0 DUP1 REVERT JUMPDEST POP PUSH1 0x40 MLOAD PUSH3 0x1781 CODESIZE SUB DUP1 PUSH3 0x1781 DUP4 CODECOPY DUP2 DUP2 ADD PUSH1 0x40 MSTORE DUP2 ADD SWAP1 PUSH3 0x37 SWAP2 SWAP1 PUSH3 0xBA JUMP JUMPDEST DUP2 PUSH1 0x5 DUP2 SWAP1 SSTORE POP DUP1 TIMESTAMP PUSH3 0x4C SWAP2 SWAP1 PUSH3 0x101 JUMP JUMPDEST PUSH1 0x4 DUP2 SWAP1 SSTORE POP PUSH1 0x64 PUSH1 0x3 DUP2 SWAP1 SSTORE POP CALLER PUSH1 0x1 PUSH1 0x0 PUSH2 0x100 EXP DUP2 SLOAD DUP2 PUSH20 0xFFFFFFFFFFFFFFFFFFFFFFFFFFFFFFFFFFFFFFFF MUL NOT AND SWAP1 DUP4 PUSH20 0xFFFFFFFFFFFFFFFFFFFFFFFFFFFFFFFFFFFFFFFF AND MUL OR SWAP1 SSTORE POP POP POP PUSH3 0x1B6 JUMP JUMPDEST PUSH1 0x0 DUP2 MLOAD SWAP1 POP PUSH3 0xB4 DUP2 PUSH3 0x19C JUMP JUMPDEST SWAP3 SWAP2 POP POP JUMP JUMPDEST PUSH1 0x0 DUP1 PUSH1 0x40 DUP4 DUP6 SUB SLT ISZERO PUSH3 0xD4 JUMPI PUSH3 0xD3 PUSH3 0x197 JUMP JUMPDEST JUMPDEST PUSH1 0x0 PUSH3 0xE4 DUP6 DUP3 DUP7 ADD PUSH3 0xA3 JUMP JUMPDEST SWAP3 POP POP PUSH1 0x20 PUSH3 0xF7 DUP6 DUP3 DUP7 ADD PUSH3 0xA3 JUMP JUMPDEST SWAP2 POP POP SWAP3 POP SWAP3 SWAP1 POP JUMP JUMPDEST PUSH1 0x0 PUSH3 0x10E DUP3 PUSH3 0x15E JUMP JUMPDEST SWAP2 POP PUSH3 0x11B DUP4 PUSH3 0x15E JUMP JUMPDEST SWAP3 POP DUP3 PUSH32 0xFFFFFFFFFFFFFFFFFFFFFFFFFFFFFFFFFFFFFFFFFFFFFFFFFFFFFFFFFFFFFFFF SUB DUP3 GT ISZERO PUSH3 0x153 JUMPI PUSH3 0x152 PUSH3 0x168 JUMP JUMPDEST JUMPDEST DUP3 DUP3 ADD SWAP1 POP SWAP3 SWAP2 POP POP JUMP JUMPDEST PUSH1 0x0 DUP2 SWAP1 POP SWAP2 SWAP1 POP JUMP JUMPDEST PUSH32 0x4E487B7100000000000000000000000000000000000000000000000000000000 PUSH1 0x0 MSTORE PUSH1 0x11 PUSH1 0x4 MSTORE PUSH1 0x24 PUSH1 0x0 REVERT JUMPDEST PUSH1 0x0 DUP1 REVERT JUMPDEST PUSH3 0x1A7 DUP2 PUSH3 0x15E JUMP JUMPDEST DUP2 EQ PUSH3 0x1B3 JUMPI PUSH1 0x0 DUP1 REVERT JUMPDEST POP JUMP JUMPDEST PUSH2 0x15BB DUP1 PUSH3 0x1C6 PUSH1 0x0 CODECOPY PUSH1 0x0 RETURN INVALID PUSH1 0x80 PUSH1 0x40 MSTORE PUSH1 0x4 CALLDATASIZE LT PUSH2 0xEC JUMPI PUSH1 0x0 CALLDATALOAD PUSH1 0xE0 SHR DUP1 PUSH4 0x81D12C58 GT PUSH2 0x8A JUMPI DUP1 PUSH4 0xD3A9D4EA GT PUSH2 0x59 JUMPI DUP1 PUSH4 0xD3A9D4EA EQ PUSH2 0x2E7 JUMPI DUP1 PUSH4 0xD7BB99BA EQ PUSH2 0x312 JUMPI DUP1 PUSH4 0xF3740DAF EQ PUSH2 0x31C JUMPI DUP1 PUSH4 0xF851A440 EQ PUSH2 0x347 JUMPI PUSH2 0xFB JUMP JUMPDEST DUP1 PUSH4 0x81D12C58 EQ PUSH2 0x239 JUMPI DUP1 PUSH4 0x937E09B1 EQ PUSH2 0x27A JUMPI DUP1 PUSH4 0xB2D5AE44 EQ PUSH2 0x2A5 JUMPI DUP1 PUSH4 0xC59EE1DC EQ PUSH2 0x2BC JUMPI PUSH2 0xFB JUMP JUMPDEST DUP1 PUSH4 0x29DCB0CF GT PUSH2 0xC6 JUMPI DUP1 PUSH4 0x29DCB0CF EQ PUSH2 0x191 JUMPI DUP1 PUSH4 0x40193883 EQ PUSH2 0x1BC JUMPI DUP1 PUSH4 0x4CB6F4A5 EQ PUSH2 0x1E7 JUMPI DUP1 PUSH4 0x5114CB52 EQ PUSH2 0x210 JUMPI PUSH2 0xFB JUMP JUMPDEST DUP1 PUSH4 0x12065FE0 EQ PUSH2 0x100 JUMPI DUP1 PUSH4 0x1B16BB5C EQ PUSH2 0x12B JUMPI DUP1 PUSH4 0x1F6D4942 EQ PUSH2 0x154 JUMPI PUSH2 0xFB JUMP JUMPDEST CALLDATASIZE PUSH2 0xFB JUMPI PUSH2 0xF9 PUSH2 0x372 JUMP JUMPDEST STOP JUMPDEST PUSH1 0x0 DUP1 REVERT JUMPDEST CALLVALUE DUP1 ISZERO PUSH2 0x10C JUMPI PUSH1 0x0 DUP1 REVERT JUMPDEST POP PUSH2 0x115 PUSH2 0x504 JUMP JUMPDEST PUSH1 0x40 MLOAD PUSH2 0x122 SWAP2 SWAP1 PUSH2 0x110D JUMP JUMPDEST PUSH1 0x40 MLOAD DUP1 SWAP2 SUB SWAP1 RETURN JUMPDEST CALLVALUE DUP1 ISZERO PUSH2 0x137 JUMPI PUSH1 0x0 DUP1 REVERT JUMPDEST POP PUSH2 0x152 PUSH1 0x4 DUP1 CALLDATASIZE SUB DUP2 ADD SWAP1 PUSH2 0x14D SWAP2 SWAP1 PUSH2 0xDCC JUMP JUMPDEST PUSH2 0x50C JUMP JUMPDEST STOP JUMPDEST CALLVALUE DUP1 ISZERO PUSH2 0x160 JUMPI PUSH1 0x0 DUP1 REVERT JUMPDEST POP PUSH2 0x17B PUSH1 0x4 DUP1 CALLDATASIZE SUB DUP2 ADD SWAP1 PUSH2 0x176 SWAP2 SWAP1 PUSH2 0xD9F JUMP JUMPDEST PUSH2 0x65F JUMP JUMPDEST PUSH1 0x40 MLOAD PUSH2 0x188 SWAP2 SWAP1 PUSH2 0x110D JUMP JUMPDEST PUSH1 0x40 MLOAD DUP1 SWAP2 SUB SWAP1 RETURN JUMPDEST CALLVALUE DUP1 ISZERO PUSH2 0x19D JUMPI PUSH1 0x0 DUP1 REVERT JUMPDEST POP PUSH2 0x1A6 PUSH2 0x677 JUMP JUMPDEST PUSH1 0x40 MLOAD PUSH2 0x1B3 SWAP2 SWAP1 PUSH2 0x110D JUMP JUMPDEST PUSH1 0x40 MLOAD DUP1 SWAP2 SUB SWAP1 RETURN JUMPDEST CALLVALUE DUP1 ISZERO PUSH2 0x1C8 JUMPI PUSH1 0x0 DUP1 REVERT JUMPDEST POP PUSH2 0x1D1 PUSH2 0x67D JUMP JUMPDEST PUSH1 0x40 MLOAD PUSH2 0x1DE SWAP2 SWAP1 PUSH2 0x110D JUMP JUMPDEST PUSH1 0x40 MLOAD DUP1 SWAP2 SUB SWAP1 RETURN JUMPDEST CALLVALUE DUP1 ISZERO PUSH2 0x1F3 JUMPI PUSH1 0x0 DUP1 REVERT JUMPDEST POP PUSH2 0x20E PUSH1 0x4 DUP1 CALLDATASIZE SUB DUP2 ADD SWAP1 PUSH2 0x209 SWAP2 SWAP1 PUSH2 0xE3B JUMP JUMPDEST PUSH2 0x683 JUMP JUMPDEST STOP JUMPDEST CALLVALUE DUP1 ISZERO PUSH2 0x21C JUMPI PUSH1 0x0 DUP1 REVERT JUMPDEST POP PUSH2 0x237 PUSH1 0x4 DUP1 CALLDATASIZE SUB DUP2 ADD SWAP1 PUSH2 0x232 SWAP2 SWAP1 PUSH2 0xE3B JUMP JUMPDEST PUSH2 0x828 JUMP JUMPDEST STOP JUMPDEST CALLVALUE DUP1 ISZERO PUSH2 0x245 JUMPI PUSH1 0x0 DUP1 REVERT JUMPDEST POP PUSH2 0x260 PUSH1 0x4 DUP1 CALLDATASIZE SUB DUP2 ADD SWAP1 PUSH2 0x25B SWAP2 SWAP1 PUSH2 0xE3B JUMP JUMPDEST PUSH2 0x9E5 JUMP JUMPDEST PUSH1 0x40 MLOAD PUSH2 0x271 SWAP6 SWAP5 SWAP4 SWAP3 SWAP2 SWAP1 PUSH2 0xFF3 JUMP JUMPDEST PUSH1 0x40 MLOAD DUP1 SWAP2 SUB SWAP1 RETURN JUMPDEST CALLVALUE DUP1 ISZERO PUSH2 0x286 JUMPI PUSH1 0x0 DUP1 REVERT JUMPDEST POP PUSH2 0x28F PUSH2 0xAD0 JUMP JUMPDEST PUSH1 0x40 MLOAD PUSH2 0x29C SWAP2 SWAP1 PUSH2 0x110D JUMP JUMPDEST PUSH1 0x40 MLOAD DUP1 SWAP2 SUB SWAP1 RETURN JUMPDEST CALLVALUE DUP1 ISZERO PUSH2 0x2B1 JUMPI PUSH1 0x0 DUP1 REVERT JUMPDEST POP PUSH2 0x2BA PUSH2 0xAD6 JUMP JUMPDEST STOP JUMPDEST CALLVALUE DUP1 ISZERO PUSH2 0x2C8 JUMPI PUSH1 0x0 DUP1 REVERT JUMPDEST POP PUSH2 0x2D1 PUSH2 0xC15 JUMP JUMPDEST PUSH1 0x40 MLOAD PUSH2 0x2DE SWAP2 SWAP1 PUSH2 0x110D JUMP JUMPDEST PUSH1 0x40 MLOAD DUP1 SWAP2 SUB SWAP1 RETURN JUMPDEST CALLVALUE DUP1 ISZERO PUSH2 0x2F3 JUMPI PUSH1 0x0 DUP1 REVERT JUMPDEST POP PUSH2 0x2FC PUSH2 0xC1B JUMP JUMPDEST PUSH1 0x40 MLOAD PUSH2 0x309 SWAP2 SWAP1 PUSH2 0x110D JUMP JUMPDEST PUSH1 0x40 MLOAD DUP1 SWAP2 SUB SWAP1 RETURN JUMPDEST PUSH2 0x31A PUSH2 0x372 JUMP JUMPDEST STOP JUMPDEST CALLVALUE DUP1 ISZERO PUSH2 0x328 JUMPI PUSH1 0x0 DUP1 REVERT JUMPDEST POP PUSH2 0x331 PUSH2 0xC21 JUMP JUMPDEST PUSH1 0x40 MLOAD PUSH2 0x33E SWAP2 SWAP1 PUSH2 0x110D JUMP JUMPDEST PUSH1 0x40 MLOAD DUP1 SWAP2 SUB SWAP1 RETURN JUMPDEST CALLVALUE DUP1 ISZERO PUSH2 0x353 JUMPI PUSH1 0x0 DUP1 REVERT JUMPDEST POP PUSH2 0x35C PUSH2 0xC27 JUMP JUMPDEST PUSH1 0x40 MLOAD PUSH2 0x369 SWAP2 SWAP1 PUSH2 0xFAF JUMP JUMPDEST PUSH1 0x40 MLOAD DUP1 SWAP2 SUB SWAP1 RETURN JUMPDEST PUSH1 0x4 SLOAD TIMESTAMP LT PUSH2 0x3B6 JUMPI PUSH1 0x40 MLOAD PUSH32 0x8C379A000000000000000000000000000000000000000000000000000000000 DUP2 MSTORE PUSH1 0x4 ADD PUSH2 0x3AD SWAP1 PUSH2 0x106D JUMP JUMPDEST PUSH1 0x40 MLOAD DUP1 SWAP2 SUB SWAP1 REVERT JUMPDEST PUSH1 0x3 SLOAD CALLVALUE LT ISZERO PUSH2 0x3FB JUMPI PUSH1 0x40 MLOAD PUSH32 0x8C379A000000000000000000000000000000000000000000000000000000000 DUP2 MSTORE PUSH1 0x4 ADD PUSH2 0x3F2 SWAP1 PUSH2 0x10AD JUMP JUMPDEST PUSH1 0x40 MLOAD DUP1 SWAP2 SUB SWAP1 REVERT JUMPDEST PUSH1 0x0 DUP1 PUSH1 0x0 CALLER PUSH20 0xFFFFFFFFFFFFFFFFFFFFFFFFFFFFFFFFFFFFFFFF AND PUSH20 0xFFFFFFFFFFFFFFFFFFFFFFFFFFFFFFFFFFFFFFFF AND DUP2 MSTORE PUSH1 0x20 ADD SWAP1 DUP2 MSTORE PUSH1 0x20 ADD PUSH1 0x0 KECCAK256 SLOAD EQ ISZERO PUSH2 0x45B JUMPI PUSH1 0x2 PUSH1 0x0 DUP2 SLOAD DUP1 SWAP3 SWAP2 SWAP1 PUSH2 0x455 SWAP1 PUSH2 0x1320 JUMP JUMPDEST SWAP2 SWAP1 POP SSTORE POP JUMPDEST CALLVALUE PUSH1 0x0 DUP1 CALLER PUSH20 0xFFFFFFFFFFFFFFFFFFFFFFFFFFFFFFFFFFFFFFFF AND PUSH20 0xFFFFFFFFFFFFFFFFFFFFFFFFFFFFFFFFFFFFFFFF AND DUP2 MSTORE PUSH1 0x20 ADD SWAP1 DUP2 MSTORE PUSH1 0x20 ADD PUSH1 0x0 KECCAK256 PUSH1 0x0 DUP3 DUP3 SLOAD PUSH2 0x4A9 SWAP2 SWAP1 PUSH2 0x119A JUMP JUMPDEST SWAP3 POP POP DUP2 SWAP1 SSTORE POP CALLVALUE PUSH1 0x6 PUSH1 0x0 DUP3 DUP3 SLOAD PUSH2 0x4C2 SWAP2 SWAP1 PUSH2 0x119A JUMP JUMPDEST SWAP3 POP POP DUP2 SWAP1 SSTORE POP PUSH32 0x44C7D71AA3A0DCA1AE622FE7FA2C5D9ABB4D4C6A4CFCCD326791B7F7FBB88A70 CALLER CALLVALUE PUSH1 0x40 MLOAD PUSH2 0x4FA SWAP3 SWAP2 SWAP1 PUSH2 0xFCA JUMP JUMPDEST PUSH1 0x40 MLOAD DUP1 SWAP2 SUB SWAP1 LOG1 JUMP JUMPDEST PUSH1 0x0 SELFBALANCE SWAP1 POP SWAP1 JUMP JUMPDEST PUSH1 0x1 PUSH1 0x0 SWAP1 SLOAD SWAP1 PUSH2 0x100 EXP SWAP1 DIV PUSH20 0xFFFFFFFFFFFFFFFFFFFFFFFFFFFFFFFFFFFFFFFF AND PUSH20 0xFFFFFFFFFFFFFFFFFFFFFFFFFFFFFFFFFFFFFFFF AND CALLER PUSH20 0xFFFFFFFFFFFFFFFFFFFFFFFFFFFFFFFFFFFFFFFF AND EQ PUSH2 0x59C JUMPI PUSH1 0x40 MLOAD PUSH32 0x8C379A000000000000000000000000000000000000000000000000000000000 DUP2 MSTORE PUSH1 0x4 ADD PUSH2 0x593 SWAP1 PUSH2 0x108D JUMP JUMPDEST PUSH1 0x40 MLOAD DUP1 SWAP2 SUB SWAP1 REVERT JUMPDEST PUSH1 0x0 PUSH1 0x7 PUSH1 0x0 PUSH1 0x8 SLOAD DUP2 MSTORE PUSH1 0x20 ADD SWAP1 DUP2 MSTORE PUSH1 0x20 ADD PUSH1 0x0 KECCAK256 SWAP1 POP PUSH1 0x8 PUSH1 0x0 DUP2 SLOAD DUP1 SWAP3 SWAP2 SWAP1 PUSH2 0x5C8 SWAP1 PUSH2 0x1320 JUMP JUMPDEST SWAP2 SWAP1 POP SSTORE POP DUP4 DUP2 PUSH1 0x0 ADD SWAP1 DUP1 MLOAD SWAP1 PUSH1 0x20 ADD SWAP1 PUSH2 0x5E5 SWAP3 SWAP2 SWAP1 PUSH2 0xC4D JUMP JUMPDEST POP DUP3 DUP2 PUSH1 0x1 ADD PUSH1 0x0 PUSH2 0x100 EXP DUP2 SLOAD DUP2 PUSH20 0xFFFFFFFFFFFFFFFFFFFFFFFFFFFFFFFFFFFFFFFF MUL NOT AND SWAP1 DUP4 PUSH20 0xFFFFFFFFFFFFFFFFFFFFFFFFFFFFFFFFFFFFFFFF AND MUL OR SWAP1 SSTORE POP DUP2 DUP2 PUSH1 0x2 ADD DUP2 SWAP1 SSTORE POP PUSH1 0x0 DUP2 PUSH1 0x3 ADD PUSH1 0x0 PUSH2 0x100 EXP DUP2 SLOAD DUP2 PUSH1 0xFF MUL NOT AND SWAP1 DUP4 ISZERO ISZERO MUL OR SWAP1 SSTORE POP PUSH1 0x0 DUP2 PUSH1 0x4 ADD DUP2 SWAP1 SSTORE POP POP POP POP POP JUMP JUMPDEST PUSH1 0x0 PUSH1 0x20 MSTORE DUP1 PUSH1 0x0 MSTORE PUSH1 0x40 PUSH1 0x0 KECCAK256 PUSH1 0x0 SWAP2 POP SWAP1 POP SLOAD DUP2 JUMP JUMPDEST PUSH1 0x4 SLOAD DUP2 JUMP JUMPDEST PUSH1 0x5 SLOAD DUP2 JUMP JUMPDEST PUSH1 0x0 DUP1 PUSH1 0x0 CALLER PUSH20 0xFFFFFFFFFFFFFFFFFFFFFFFFFFFFFFFFFFFFFFFF AND PUSH20 0xFFFFFFFFFFFFFFFFFFFFFFFFFFFFFFFFFFFFFFFF AND DUP2 MSTORE PUSH1 0x20 ADD SWAP1 DUP2 MSTORE PUSH1 0x20 ADD PUSH1 0x0 KECCAK256 SLOAD GT PUSH2 0x704 JUMPI PUSH1 0x40 MLOAD PUSH32 0x8C379A000000000000000000000000000000000000000000000000000000000 DUP2 MSTORE PUSH1 0x4 ADD PUSH2 0x6FB SWAP1 PUSH2 0x10ED JUMP JUMPDEST PUSH1 0x40 MLOAD DUP1 SWAP2 SUB SWAP1 REVERT JUMPDEST PUSH1 0x0 PUSH1 0x7 PUSH1 0x0 DUP4 DUP2 MSTORE PUSH1 0x20 ADD SWAP1 DUP2 MSTORE PUSH1 0x20 ADD PUSH1 0x0 KECCAK256 SWAP1 POP PUSH1 0x0 ISZERO ISZERO DUP2 PUSH1 0x5 ADD PUSH1 0x0 CALLER PUSH20 0xFFFFFFFFFFFFFFFFFFFFFFFFFFFFFFFFFFFFFFFF AND PUSH20 0xFFFFFFFFFFFFFFFFFFFFFFFFFFFFFFFFFFFFFFFF AND DUP2 MSTORE PUSH1 0x20 ADD SWAP1 DUP2 MSTORE PUSH1 0x20 ADD PUSH1 0x0 KECCAK256 PUSH1 0x0 SWAP1 SLOAD SWAP1 PUSH2 0x100 EXP SWAP1 DIV PUSH1 0xFF AND ISZERO ISZERO EQ PUSH2 0x7B0 JUMPI PUSH1 0x40 MLOAD PUSH32 0x8C379A000000000000000000000000000000000000000000000000000000000 DUP2 MSTORE PUSH1 0x4 ADD PUSH2 0x7A7 SWAP1 PUSH2 0x104D JUMP JUMPDEST PUSH1 0x40 MLOAD DUP1 SWAP2 SUB SWAP1 REVERT JUMPDEST PUSH1 0x1 DUP2 PUSH1 0x5 ADD PUSH1 0x0 CALLER PUSH20 0xFFFFFFFFFFFFFFFFFFFFFFFFFFFFFFFFFFFFFFFF AND PUSH20 0xFFFFFFFFFFFFFFFFFFFFFFFFFFFFFFFFFFFFFFFF AND DUP2 MSTORE PUSH1 0x20 ADD SWAP1 DUP2 MSTORE PUSH1 0x20 ADD PUSH1 0x0 KECCAK256 PUSH1 0x0 PUSH2 0x100 EXP DUP2 SLOAD DUP2 PUSH1 0xFF MUL NOT AND SWAP1 DUP4 ISZERO ISZERO MUL OR SWAP1 SSTORE POP DUP1 PUSH1 0x4 ADD PUSH1 0x0 DUP2 SLOAD DUP1 SWAP3 SWAP2 SWAP1 PUSH2 0x81F SWAP1 PUSH2 0x1320 JUMP JUMPDEST SWAP2 SWAP1 POP SSTORE POP POP POP JUMP JUMPDEST PUSH1 0x1 PUSH1 0x0 SWAP1 SLOAD SWAP1 PUSH2 0x100 EXP SWAP1 DIV PUSH20 0xFFFFFFFFFFFFFFFFFFFFFFFFFFFFFFFFFFFFFFFF AND PUSH20 0xFFFFFFFFFFFFFFFFFFFFFFFFFFFFFFFFFFFFFFFF AND CALLER PUSH20 0xFFFFFFFFFFFFFFFFFFFFFFFFFFFFFFFFFFFFFFFF AND EQ PUSH2 0x8B8 JUMPI PUSH1 0x40 MLOAD PUSH32 0x8C379A000000000000000000000000000000000000000000000000000000000 DUP2 MSTORE PUSH1 0x4 ADD PUSH2 0x8AF SWAP1 PUSH2 0x108D JUMP JUMPDEST PUSH1 0x40 MLOAD DUP1 SWAP2 SUB SWAP1 REVERT JUMPDEST PUSH1 0x5 SLOAD PUSH1 0x6 SLOAD LT ISZERO PUSH2 0x8C9 JUMPI PUSH1 0x0 DUP1 REVERT JUMPDEST PUSH1 0x0 PUSH1 0x7 PUSH1 0x0 DUP4 DUP2 MSTORE PUSH1 0x20 ADD SWAP1 DUP2 MSTORE PUSH1 0x20 ADD PUSH1 0x0 KECCAK256 SWAP1 POP PUSH1 0x0 ISZERO ISZERO DUP2 PUSH1 0x3 ADD PUSH1 0x0 SWAP1 SLOAD SWAP1 PUSH2 0x100 EXP SWAP1 DIV PUSH1 0xFF AND ISZERO ISZERO EQ PUSH2 0x938 JUMPI PUSH1 0x40 MLOAD PUSH32 0x8C379A000000000000000000000000000000000000000000000000000000000 DUP2 MSTORE PUSH1 0x4 ADD PUSH2 0x92F SWAP1 PUSH2 0x10CD JUMP JUMPDEST PUSH1 0x40 MLOAD DUP1 SWAP2 SUB SWAP1 REVERT JUMPDEST PUSH1 0x2 DUP1 SLOAD PUSH2 0x946 SWAP2 SWAP1 PUSH2 0x11F0 JUMP JUMPDEST DUP2 PUSH1 0x4 ADD SLOAD GT PUSH2 0x955 JUMPI PUSH1 0x0 DUP1 REVERT JUMPDEST DUP1 PUSH1 0x1 ADD PUSH1 0x0 SWAP1 SLOAD SWAP1 PUSH2 0x100 EXP SWAP1 DIV PUSH20 0xFFFFFFFFFFFFFFFFFFFFFFFFFFFFFFFFFFFFFFFF AND PUSH20 0xFFFFFFFFFFFFFFFFFFFFFFFFFFFFFFFFFFFFFFFF AND PUSH2 0x8FC DUP3 PUSH1 0x2 ADD SLOAD SWAP1 DUP2 ISZERO MUL SWAP1 PUSH1 0x40 MLOAD PUSH1 0x0 PUSH1 0x40 MLOAD DUP1 DUP4 SUB DUP2 DUP6 DUP9 DUP9 CALL SWAP4 POP POP POP POP ISZERO DUP1 ISZERO PUSH2 0x9C3 JUMPI RETURNDATASIZE PUSH1 0x0 DUP1 RETURNDATACOPY RETURNDATASIZE PUSH1 0x0 REVERT JUMPDEST POP PUSH1 0x1 DUP2 PUSH1 0x3 ADD PUSH1 0x0 PUSH2 0x100 EXP DUP2 SLOAD DUP2 PUSH1 0xFF MUL NOT AND SWAP1 DUP4 ISZERO ISZERO MUL OR SWAP1 SSTORE POP POP POP JUMP JUMPDEST PUSH1 0x7 PUSH1 0x20 MSTORE DUP1 PUSH1 0x0 MSTORE PUSH1 0x40 PUSH1 0x0 KECCAK256 PUSH1 0x0 SWAP2 POP SWAP1 POP DUP1 PUSH1 0x0 ADD DUP1 SLOAD PUSH2 0xA08 SWAP1 PUSH2 0x12BD JUMP JUMPDEST DUP1 PUSH1 0x1F ADD PUSH1 0x20 DUP1 SWAP2 DIV MUL PUSH1 0x20 ADD PUSH1 0x40 MLOAD SWAP1 DUP2 ADD PUSH1 0x40 MSTORE DUP1 SWAP3 SWAP2 SWAP1 DUP2 DUP2 MSTORE PUSH1 0x20 ADD DUP3 DUP1 SLOAD PUSH2 0xA34 SWAP1 PUSH2 0x12BD JUMP JUMPDEST DUP1 ISZERO PUSH2 0xA81 JUMPI DUP1 PUSH1 0x1F LT PUSH2 0xA56 JUMPI PUSH2 0x100 DUP1 DUP4 SLOAD DIV MUL DUP4 MSTORE SWAP2 PUSH1 0x20 ADD SWAP2 PUSH2 0xA81 JUMP JUMPDEST DUP3 ADD SWAP2 SWAP1 PUSH1 0x0 MSTORE PUSH1 0x20 PUSH1 0x0 KECCAK256 SWAP1 JUMPDEST DUP2 SLOAD DUP2 MSTORE SWAP1 PUSH1 0x1 ADD SWAP1 PUSH1 0x20 ADD DUP1 DUP4 GT PUSH2 0xA64 JUMPI DUP3 SWAP1 SUB PUSH1 0x1F AND DUP3 ADD SWAP2 JUMPDEST POP POP POP POP POP SWAP1 DUP1 PUSH1 0x1 ADD PUSH1 0x0 SWAP1 SLOAD SWAP1 PUSH2 0x100 EXP SWAP1 DIV PUSH20 0xFFFFFFFFFFFFFFFFFFFFFFFFFFFFFFFFFFFFFFFF AND SWAP1 DUP1 PUSH1 0x2 ADD SLOAD SWAP1 DUP1 PUSH1 0x3 ADD PUSH1 0x0 SWAP1 SLOAD SWAP1 PUSH2 0x100 EXP SWAP1 DIV PUSH1 0xFF AND SWAP1 DUP1 PUSH1 0x4 ADD SLOAD SWAP1 POP DUP6 JUMP JUMPDEST PUSH1 0x3 SLOAD DUP2 JUMP JUMPDEST PUSH1 0x4 SLOAD TIMESTAMP GT DUP1 ISZERO PUSH2 0xAEA JUMPI POP PUSH1 0x5 SLOAD PUSH1 0x6 SLOAD LT JUMPDEST PUSH2 0xAF3 JUMPI PUSH1 0x0 DUP1 REVERT JUMPDEST PUSH1 0x0 DUP1 PUSH1 0x0 CALLER PUSH20 0xFFFFFFFFFFFFFFFFFFFFFFFFFFFFFFFFFFFFFFFF AND PUSH20 0xFFFFFFFFFFFFFFFFFFFFFFFFFFFFFFFFFFFFFFFF AND DUP2 MSTORE PUSH1 0x20 ADD SWAP1 DUP2 MSTORE PUSH1 0x20 ADD PUSH1 0x0 KECCAK256 SLOAD GT PUSH2 0xB3E JUMPI PUSH1 0x0 DUP1 REVERT JUMPDEST PUSH1 0x0 CALLER SWAP1 POP PUSH1 0x0 DUP1 PUSH1 0x0 CALLER PUSH20 0xFFFFFFFFFFFFFFFFFFFFFFFFFFFFFFFFFFFFFFFF AND PUSH20 0xFFFFFFFFFFFFFFFFFFFFFFFFFFFFFFFFFFFFFFFF AND DUP2 MSTORE PUSH1 0x20 ADD SWAP1 DUP2 MSTORE PUSH1 0x20 ADD PUSH1 0x0 KECCAK256 SLOAD SWAP1 POP DUP2 PUSH20 0xFFFFFFFFFFFFFFFFFFFFFFFFFFFFFFFFFFFFFFFF AND PUSH2 0x8FC DUP3 SWAP1 DUP2 ISZERO MUL SWAP1 PUSH1 0x40 MLOAD PUSH1 0x0 PUSH1 0x40 MLOAD DUP1 DUP4 SUB DUP2 DUP6 DUP9 DUP9 CALL SWAP4 POP POP POP POP ISZERO DUP1 ISZERO PUSH2 0xBCC JUMPI RETURNDATASIZE PUSH1 0x0 DUP1 RETURNDATACOPY RETURNDATASIZE PUSH1 0x0 REVERT JUMPDEST POP PUSH1 0x0 DUP1 PUSH1 0x0 CALLER PUSH20 0xFFFFFFFFFFFFFFFFFFFFFFFFFFFFFFFFFFFFFFFF AND PUSH20 0xFFFFFFFFFFFFFFFFFFFFFFFFFFFFFFFFFFFFFFFF AND DUP2 MSTORE PUSH1 0x20 ADD SWAP1 DUP2 MSTORE PUSH1 0x20 ADD PUSH1 0x0 KECCAK256 DUP2 SWAP1 SSTORE POP POP POP JUMP JUMPDEST PUSH1 0x6 SLOAD DUP2 JUMP JUMPDEST PUSH1 0x8 SLOAD DUP2 JUMP JUMPDEST PUSH1 0x2 SLOAD DUP2 JUMP JUMPDEST PUSH1 0x1 PUSH1 0x0 SWAP1 SLOAD SWAP1 PUSH2 0x100 EXP SWAP1 DIV PUSH20 0xFFFFFFFFFFFFFFFFFFFFFFFFFFFFFFFFFFFFFFFF AND DUP2 JUMP JUMPDEST DUP3 DUP1 SLOAD PUSH2 0xC59 SWAP1 PUSH2 0x12BD JUMP JUMPDEST SWAP1 PUSH1 0x0 MSTORE PUSH1 0x20 PUSH1 0x0 KECCAK256 SWAP1 PUSH1 0x1F ADD PUSH1 0x20 SWAP1 DIV DUP2 ADD SWAP3 DUP3 PUSH2 0xC7B JUMPI PUSH1 0x0 DUP6 SSTORE PUSH2 0xCC2 JUMP JUMPDEST DUP3 PUSH1 0x1F LT PUSH2 0xC94 JUMPI DUP1 MLOAD PUSH1 0xFF NOT AND DUP4 DUP1 ADD OR DUP6 SSTORE PUSH2 0xCC2 JUMP JUMPDEST DUP3 DUP1 ADD PUSH1 0x1 ADD DUP6 SSTORE DUP3 ISZERO PUSH2 0xCC2 JUMPI SWAP2 DUP3 ADD JUMPDEST DUP3 DUP2 GT ISZERO PUSH2 0xCC1 JUMPI DUP3 MLOAD DUP3 SSTORE SWAP2 PUSH1 0x20 ADD SWAP2 SWAP1 PUSH1 0x1 ADD SWAP1 PUSH2 0xCA6 JUMP JUMPDEST JUMPDEST POP SWAP1 POP PUSH2 0xCCF SWAP2 SWAP1 PUSH2 0xCD3 JUMP JUMPDEST POP SWAP1 JUMP JUMPDEST JUMPDEST DUP1 DUP3 GT ISZERO PUSH2 0xCEC JUMPI PUSH1 0x0 DUP2 PUSH1 0x0 SWAP1 SSTORE POP PUSH1 0x1 ADD PUSH2 0xCD4 JUMP JUMPDEST POP SWAP1 JUMP JUMPDEST PUSH1 0x0 PUSH2 0xD03 PUSH2 0xCFE DUP5 PUSH2 0x114D JUMP JUMPDEST PUSH2 0x1128 JUMP JUMPDEST SWAP1 POP DUP3 DUP2 MSTORE PUSH1 0x20 DUP2 ADD DUP5 DUP5 DUP5 ADD GT ISZERO PUSH2 0xD1F JUMPI PUSH2 0xD1E PUSH2 0x142A JUMP JUMPDEST JUMPDEST PUSH2 0xD2A DUP5 DUP3 DUP6 PUSH2 0x127B JUMP JUMPDEST POP SWAP4 SWAP3 POP POP POP JUMP JUMPDEST PUSH1 0x0 DUP2 CALLDATALOAD SWAP1 POP PUSH2 0xD41 DUP2 PUSH2 0x1540 JUMP JUMPDEST SWAP3 SWAP2 POP POP JUMP JUMPDEST PUSH1 0x0 DUP2 CALLDATALOAD SWAP1 POP PUSH2 0xD56 DUP2 PUSH2 0x1557 JUMP JUMPDEST SWAP3 SWAP2 POP POP JUMP JUMPDEST PUSH1 0x0 DUP3 PUSH1 0x1F DUP4 ADD SLT PUSH2 0xD71 JUMPI PUSH2 0xD70 PUSH2 0x1425 JUMP JUMPDEST JUMPDEST DUP2 CALLDATALOAD PUSH2 0xD81 DUP5 DUP3 PUSH1 0x20 DUP7 ADD PUSH2 0xCF0 JUMP JUMPDEST SWAP2 POP POP SWAP3 SWAP2 POP POP JUMP JUMPDEST PUSH1 0x0 DUP2 CALLDATALOAD SWAP1 POP PUSH2 0xD99 DUP2 PUSH2 0x156E JUMP JUMPDEST SWAP3 SWAP2 POP POP JUMP JUMPDEST PUSH1 0x0 PUSH1 0x20 DUP3 DUP5 SUB SLT ISZERO PUSH2 0xDB5 JUMPI PUSH2 0xDB4 PUSH2 0x1434 JUMP JUMPDEST JUMPDEST PUSH1 0x0 PUSH2 0xDC3 DUP5 DUP3 DUP6 ADD PUSH2 0xD32 JUMP JUMPDEST SWAP2 POP POP SWAP3 SWAP2 POP POP JUMP JUMPDEST PUSH1 0x0 DUP1 PUSH1 0x0 PUSH1 0x60 DUP5 DUP7 SUB SLT ISZERO PUSH2 0xDE5 JUMPI PUSH2 0xDE4 PUSH2 0x1434 JUMP JUMPDEST JUMPDEST PUSH1 0x0 DUP5 ADD CALLDATALOAD PUSH8 0xFFFFFFFFFFFFFFFF DUP2 GT ISZERO PUSH2 0xE03 JUMPI PUSH2 0xE02 PUSH2 0x142F JUMP JUMPDEST JUMPDEST PUSH2 0xE0F DUP7 DUP3 DUP8 ADD PUSH2 0xD5C JUMP JUMPDEST SWAP4 POP POP PUSH1 0x20 PUSH2 0xE20 DUP7 DUP3 DUP8 ADD PUSH2 0xD47 JUMP JUMPDEST SWAP3 POP POP PUSH1 0x40 PUSH2 0xE31 DUP7 DUP3 DUP8 ADD PUSH2 0xD8A JUMP JUMPDEST SWAP2 POP POP SWAP3 POP SWAP3 POP SWAP3 JUMP JUMPDEST PUSH1 0x0 PUSH1 0x20 DUP3 DUP5 SUB SLT ISZERO PUSH2 0xE51 JUMPI PUSH2 0xE50 PUSH2 0x1434 JUMP JUMPDEST JUMPDEST PUSH1 0x0 PUSH2 0xE5F DUP5 DUP3 DUP6 ADD PUSH2 0xD8A JUMP JUMPDEST SWAP2 POP POP SWAP3 SWAP2 POP POP JUMP JUMPDEST PUSH2 0xE71 DUP2 PUSH2 0x1233 JUMP JUMPDEST DUP3 MSTORE POP POP JUMP JUMPDEST PUSH2 0xE80 DUP2 PUSH2 0x1221 JUMP JUMPDEST DUP3 MSTORE POP POP JUMP JUMPDEST PUSH2 0xE8F DUP2 PUSH2 0x1245 JUMP JUMPDEST DUP3 MSTORE POP POP JUMP JUMPDEST PUSH1 0x0 PUSH2 0xEA0 DUP3 PUSH2 0x117E JUMP JUMPDEST PUSH2 0xEAA DUP2 DUP6 PUSH2 0x1189 JUMP JUMPDEST SWAP4 POP PUSH2 0xEBA DUP2 DUP6 PUSH1 0x20 DUP7 ADD PUSH2 0x128A JUMP JUMPDEST PUSH2 0xEC3 DUP2 PUSH2 0x1439 JUMP JUMPDEST DUP5 ADD SWAP2 POP POP SWAP3 SWAP2 POP POP JUMP JUMPDEST PUSH1 0x0 PUSH2 0xEDB PUSH1 0x17 DUP4 PUSH2 0x1189 JUMP JUMPDEST SWAP2 POP PUSH2 0xEE6 DUP3 PUSH2 0x144A JUMP JUMPDEST PUSH1 0x20 DUP3 ADD SWAP1 POP SWAP2 SWAP1 POP JUMP JUMPDEST PUSH1 0x0 PUSH2 0xEFE PUSH1 0x14 DUP4 PUSH2 0x1189 JUMP JUMPDEST SWAP2 POP PUSH2 0xF09 DUP3 PUSH2 0x1473 JUMP JUMPDEST PUSH1 0x20 DUP3 ADD SWAP1 POP SWAP2 SWAP1 POP JUMP JUMPDEST PUSH1 0x0 PUSH2 0xF21 PUSH1 0x1A DUP4 PUSH2 0x1189 JUMP JUMPDEST SWAP2 POP PUSH2 0xF2C DUP3 PUSH2 0x149C JUMP JUMPDEST PUSH1 0x20 DUP3 ADD SWAP1 POP SWAP2 SWAP1 POP JUMP JUMPDEST PUSH1 0x0 PUSH2 0xF44 PUSH1 0x1D DUP4 PUSH2 0x1189 JUMP JUMPDEST SWAP2 POP PUSH2 0xF4F DUP3 PUSH2 0x14C5 JUMP JUMPDEST PUSH1 0x20 DUP3 ADD SWAP1 POP SWAP2 SWAP1 POP JUMP JUMPDEST PUSH1 0x0 PUSH2 0xF67 PUSH1 0x1F DUP4 PUSH2 0x1189 JUMP JUMPDEST SWAP2 POP PUSH2 0xF72 DUP3 PUSH2 0x14EE JUMP JUMPDEST PUSH1 0x20 DUP3 ADD SWAP1 POP SWAP2 SWAP1 POP JUMP JUMPDEST PUSH1 0x0 PUSH2 0xF8A PUSH1 0x1B DUP4 PUSH2 0x1189 JUMP JUMPDEST SWAP2 POP PUSH2 0xF95 DUP3 PUSH2 0x1517 JUMP JUMPDEST PUSH1 0x20 DUP3 ADD SWAP1 POP SWAP2 SWAP1 POP JUMP JUMPDEST PUSH2 0xFA9 DUP2 PUSH2 0x1271 JUMP JUMPDEST DUP3 MSTORE POP POP JUMP JUMPDEST PUSH1 0x0 PUSH1 0x20 DUP3 ADD SWAP1 POP PUSH2 0xFC4 PUSH1 0x0 DUP4 ADD DUP5 PUSH2 0xE77 JUMP JUMPDEST SWAP3 SWAP2 POP POP JUMP JUMPDEST PUSH1 0x0 PUSH1 0x40 DUP3 ADD SWAP1 POP PUSH2 0xFDF PUSH1 0x0 DUP4 ADD DUP6 PUSH2 0xE77 JUMP JUMPDEST PUSH2 0xFEC PUSH1 0x20 DUP4 ADD DUP5 PUSH2 0xFA0 JUMP JUMPDEST SWAP4 SWAP3 POP POP POP JUMP JUMPDEST PUSH1 0x0 PUSH1 0xA0 DUP3 ADD SWAP1 POP DUP2 DUP2 SUB PUSH1 0x0 DUP4 ADD MSTORE PUSH2 0x100D DUP2 DUP9 PUSH2 0xE95 JUMP JUMPDEST SWAP1 POP PUSH2 0x101C PUSH1 0x20 DUP4 ADD DUP8 PUSH2 0xE68 JUMP JUMPDEST PUSH2 0x1029 PUSH1 0x40 DUP4 ADD DUP7 PUSH2 0xFA0 JUMP JUMPDEST PUSH2 0x1036 PUSH1 0x60 DUP4 ADD DUP6 PUSH2 0xE86 JUMP JUMPDEST PUSH2 0x1043 PUSH1 0x80 DUP4 ADD DUP5 PUSH2 0xFA0 JUMP JUMPDEST SWAP7 SWAP6 POP POP POP POP POP POP JUMP JUMPDEST PUSH1 0x0 PUSH1 0x20 DUP3 ADD SWAP1 POP DUP2 DUP2 SUB PUSH1 0x0 DUP4 ADD MSTORE PUSH2 0x1066 DUP2 PUSH2 0xECE JUMP JUMPDEST SWAP1 POP SWAP2 SWAP1 POP JUMP JUMPDEST PUSH1 0x0 PUSH1 0x20 DUP3 ADD SWAP1 POP DUP2 DUP2 SUB PUSH1 0x0 DUP4 ADD MSTORE PUSH2 0x1086 DUP2 PUSH2 0xEF1 JUMP JUMPDEST SWAP1 POP SWAP2 SWAP1 POP JUMP JUMPDEST PUSH1 0x0 PUSH1 0x20 DUP3 ADD SWAP1 POP DUP2 DUP2 SUB PUSH1 0x0 DUP4 ADD MSTORE PUSH2 0x10A6 DUP2 PUSH2 0xF14 JUMP JUMPDEST SWAP1 POP SWAP2 SWAP1 POP JUMP JUMPDEST PUSH1 0x0 PUSH1 0x20 DUP3 ADD SWAP1 POP DUP2 DUP2 SUB PUSH1 0x0 DUP4 ADD MSTORE PUSH2 0x10C6 DUP2 PUSH2 0xF37 JUMP JUMPDEST SWAP1 POP SWAP2 SWAP1 POP JUMP JUMPDEST PUSH1 0x0 PUSH1 0x20 DUP3 ADD SWAP1 POP DUP2 DUP2 SUB PUSH1 0x0 DUP4 ADD MSTORE PUSH2 0x10E6 DUP2 PUSH2 0xF5A JUMP JUMPDEST SWAP1 POP SWAP2 SWAP1 POP JUMP JUMPDEST PUSH1 0x0 PUSH1 0x20 DUP3 ADD SWAP1 POP DUP2 DUP2 SUB PUSH1 0x0 DUP4 ADD MSTORE PUSH2 0x1106 DUP2 PUSH2 0xF7D JUMP JUMPDEST SWAP1 POP SWAP2 SWAP1 POP JUMP JUMPDEST PUSH1 0x0 PUSH1 0x20 DUP3 ADD SWAP1 POP PUSH2 0x1122 PUSH1 0x0 DUP4 ADD DUP5 PUSH2 0xFA0 JUMP JUMPDEST SWAP3 SWAP2 POP POP JUMP JUMPDEST PUSH1 0x0 PUSH2 0x1132 PUSH2 0x1143 JUMP JUMPDEST SWAP1 POP PUSH2 0x113E DUP3 DUP3 PUSH2 0x12EF JUMP JUMPDEST SWAP2 SWAP1 POP JUMP JUMPDEST PUSH1 0x0 PUSH1 0x40 MLOAD SWAP1 POP SWAP1 JUMP JUMPDEST PUSH1 0x0 PUSH8 0xFFFFFFFFFFFFFFFF DUP3 GT ISZERO PUSH2 0x1168 JUMPI PUSH2 0x1167 PUSH2 0x13F6 JUMP JUMPDEST JUMPDEST PUSH2 0x1171 DUP3 PUSH2 0x1439 JUMP JUMPDEST SWAP1 POP PUSH1 0x20 DUP2 ADD SWAP1 POP SWAP2 SWAP1 POP JUMP JUMPDEST PUSH1 0x0 DUP2 MLOAD SWAP1 POP SWAP2 SWAP1 POP JUMP JUMPDEST PUSH1 0x0 DUP3 DUP3 MSTORE PUSH1 0x20 DUP3 ADD SWAP1 POP SWAP3 SWAP2 POP POP JUMP JUMPDEST PUSH1 0x0 PUSH2 0x11A5 DUP3 PUSH2 0x1271 JUMP JUMPDEST SWAP2 POP PUSH2 0x11B0 DUP4 PUSH2 0x1271 JUMP JUMPDEST SWAP3 POP DUP3 PUSH32 0xFFFFFFFFFFFFFFFFFFFFFFFFFFFFFFFFFFFFFFFFFFFFFFFFFFFFFFFFFFFFFFFF SUB DUP3 GT ISZERO PUSH2 0x11E5 JUMPI PUSH2 0x11E4 PUSH2 0x1369 JUMP JUMPDEST JUMPDEST DUP3 DUP3 ADD SWAP1 POP SWAP3 SWAP2 POP POP JUMP JUMPDEST PUSH1 0x0 PUSH2 0x11FB DUP3 PUSH2 0x1271 JUMP JUMPDEST SWAP2 POP PUSH2 0x1206 DUP4 PUSH2 0x1271 JUMP JUMPDEST SWAP3 POP DUP3 PUSH2 0x1216 JUMPI PUSH2 0x1215 PUSH2 0x1398 JUMP JUMPDEST JUMPDEST DUP3 DUP3 DIV SWAP1 POP SWAP3 SWAP2 POP POP JUMP JUMPDEST PUSH1 0x0 PUSH2 0x122C DUP3 PUSH2 0x1251 JUMP JUMPDEST SWAP1 POP SWAP2 SWAP1 POP JUMP JUMPDEST PUSH1 0x0 PUSH2 0x123E DUP3 PUSH2 0x1251 JUMP JUMPDEST SWAP1 POP SWAP2 SWAP1 POP JUMP JUMPDEST PUSH1 0x0 DUP2 ISZERO ISZERO SWAP1 POP SWAP2 SWAP1 POP JUMP JUMPDEST PUSH1 0x0 PUSH20 0xFFFFFFFFFFFFFFFFFFFFFFFFFFFFFFFFFFFFFFFF DUP3 AND SWAP1 POP SWAP2 SWAP1 POP JUMP JUMPDEST PUSH1 0x0 DUP2 SWAP1 POP SWAP2 SWAP1 POP JUMP JUMPDEST DUP3 DUP2 DUP4 CALLDATACOPY PUSH1 0x0 DUP4 DUP4 ADD MSTORE POP POP POP JUMP JUMPDEST PUSH1 0x0 JUMPDEST DUP4 DUP2 LT ISZERO PUSH2 0x12A8 JUMPI DUP1 DUP3 ADD MLOAD DUP2 DUP5 ADD MSTORE PUSH1 0x20 DUP2 ADD SWAP1 POP PUSH2 0x128D JUMP JUMPDEST DUP4 DUP2 GT ISZERO PUSH2 0x12B7 JUMPI PUSH1 0x0 DUP5 DUP5 ADD MSTORE JUMPDEST POP POP POP POP JUMP JUMPDEST PUSH1 0x0 PUSH1 0x2 DUP3 DIV SWAP1 POP PUSH1 0x1 DUP3 AND DUP1 PUSH2 0x12D5 JUMPI PUSH1 0x7F DUP3 AND SWAP2 POP JUMPDEST PUSH1 0x20 DUP3 LT DUP2 EQ ISZERO PUSH2 0x12E9 JUMPI PUSH2 0x12E8 PUSH2 0x13C7 JUMP JUMPDEST JUMPDEST POP SWAP2 SWAP1 POP JUMP JUMPDEST PUSH2 0x12F8 DUP3 PUSH2 0x1439 JUMP JUMPDEST DUP2 ADD DUP2 DUP2 LT PUSH8 0xFFFFFFFFFFFFFFFF DUP3 GT OR ISZERO PUSH2 0x1317 JUMPI PUSH2 0x1316 PUSH2 0x13F6 JUMP JUMPDEST JUMPDEST DUP1 PUSH1 0x40 MSTORE POP POP POP JUMP JUMPDEST PUSH1 0x0 PUSH2 0x132B DUP3 PUSH2 0x1271 JUMP JUMPDEST SWAP2 POP PUSH32 0xFFFFFFFFFFFFFFFFFFFFFFFFFFFFFFFFFFFFFFFFFFFFFFFFFFFFFFFFFFFFFFFF DUP3 EQ ISZERO PUSH2 0x135E JUMPI PUSH2 0x135D PUSH2 0x1369 JUMP JUMPDEST JUMPDEST PUSH1 0x1 DUP3 ADD SWAP1 POP SWAP2 SWAP1 POP JUMP JUMPDEST PUSH32 0x4E487B7100000000000000000000000000000000000000000000000000000000 PUSH1 0x0 MSTORE PUSH1 0x11 PUSH1 0x4 MSTORE PUSH1 0x24 PUSH1 0x0 REVERT JUMPDEST PUSH32 0x4E487B7100000000000000000000000000000000000000000000000000000000 PUSH1 0x0 MSTORE PUSH1 0x12 PUSH1 0x4 MSTORE PUSH1 0x24 PUSH1 0x0 REVERT JUMPDEST PUSH32 0x4E487B7100000000000000000000000000000000000000000000000000000000 PUSH1 0x0 MSTORE PUSH1 0x22 PUSH1 0x4 MSTORE PUSH1 0x24 PUSH1 0x0 REVERT JUMPDEST PUSH32 0x4E487B7100000000000000000000000000000000000000000000000000000000 PUSH1 0x0 MSTORE PUSH1 0x41 PUSH1 0x4 MSTORE PUSH1 0x24 PUSH1 0x0 REVERT JUMPDEST PUSH1 0x0 DUP1 REVERT JUMPDEST PUSH1 0x0 DUP1 REVERT JUMPDEST PUSH1 0x0 DUP1 REVERT JUMPDEST PUSH1 0x0 DUP1 REVERT JUMPDEST PUSH1 0x0 PUSH1 0x1F NOT PUSH1 0x1F DUP4 ADD AND SWAP1 POP SWAP2 SWAP1 POP JUMP JUMPDEST PUSH32 0x596F75206D6179206F6E6C7920766F7465206F6E63652E000000000000000000 PUSH1 0x0 DUP3 ADD MSTORE POP JUMP JUMPDEST PUSH32 0x446561646C696E6520686173207061737365642E000000000000000000000000 PUSH1 0x0 DUP3 ADD MSTORE POP JUMP JUMPDEST PUSH32 0x41646D696E2070726976656C656765732072657175697265642E000000000000 PUSH1 0x0 DUP3 ADD MSTORE POP JUMP JUMPDEST PUSH32 0x4D696E696D756D20636F6E747269627574696F6E206E6F74206D65742E000000 PUSH1 0x0 DUP3 ADD MSTORE POP JUMP JUMPDEST PUSH32 0x546865207265717565737420686173206265656E20636F6D706C657465642E00 PUSH1 0x0 DUP3 ADD MSTORE POP JUMP JUMPDEST PUSH32 0x596F75206D7573742062652061207573657220746F20766F74652E0000000000 PUSH1 0x0 DUP3 ADD MSTORE POP JUMP JUMPDEST PUSH2 0x1549 DUP2 PUSH2 0x1221 JUMP JUMPDEST DUP2 EQ PUSH2 0x1554 JUMPI PUSH1 0x0 DUP1 REVERT JUMPDEST POP JUMP JUMPDEST PUSH2 0x1560 DUP2 PUSH2 0x1233 JUMP JUMPDEST DUP2 EQ PUSH2 0x156B JUMPI PUSH1 0x0 DUP1 REVERT JUMPDEST POP JUMP JUMPDEST PUSH2 0x1577 DUP2 PUSH2 0x1271 JUMP JUMPDEST DUP2 EQ PUSH2 0x1582 JUMPI PUSH1 0x0 DUP1 REVERT JUMPDEST POP JUMP INVALID LOG2 PUSH5 0x6970667358 0x22 SLT KECCAK256 PUSH13 0xC8C14EF507ACBB9E75BFC72531 0xC 0xCA PUSH12 0xC34383A702F5019F2BF2C819 SWAP10 0xC4 SDIV PUSH5 0x736F6C6343 STOP ADDMOD SMOD STOP CALLER "
				},
				"gasEstimates": {
					"creation": {
						"codeDepositCost": "1112600",
						"executionCost": "infinite",
						"totalCost": "infinite"
					},
					"external": {
						"admin()": "2602",
						"contribute()": "infinite",
						"contributors(address)": "2882",
						"createRequest(string,address,uint256)": "infinite",
						"deadline()": "2452",
						"getBalance()": "363",
						"getRefund()": "infinite",
						"goal()": "2474",
						"makePayment(uint256)": "infinite",
						"minimumContribution()": "2474",
						"numberContributors()": "2495",
						"numberRequests()": "2451",
						"raisedAmount()": "2518",
						"requests(uint256)": "infinite",
						"voteRequest(uint256)": "infinite"
					}
				},
				"methodIdentifiers": {
					"admin()": "f851a440",
					"contribute()": "d7bb99ba",
					"contributors(address)": "1f6d4942",
					"createRequest(string,address,uint256)": "1b16bb5c",
					"deadline()": "29dcb0cf",
					"getBalance()": "12065fe0",
					"getRefund()": "b2d5ae44",
					"goal()": "40193883",
					"makePayment(uint256)": "5114cb52",
					"minimumContribution()": "937e09b1",
					"numberContributors()": "f3740daf",
					"numberRequests()": "d3a9d4ea",
					"raisedAmount()": "c59ee1dc",
					"requests(uint256)": "81d12c58",
					"voteRequest(uint256)": "4cb6f4a5"
				}
			},
			"storageLayout": {
				"storage": [
					{
						"astId": 5,
						"contract": "contracts/crowdfunding.sol:CrowdFunding",
						"label": "contributors",
						"offset": 0,
						"slot": "0",
						"type": "t_mapping(t_address,t_uint256)"
					},
					{
						"astId": 7,
						"contract": "contracts/crowdfunding.sol:CrowdFunding",
						"label": "admin",
						"offset": 0,
						"slot": "1",
						"type": "t_address"
					},
					{
						"astId": 9,
						"contract": "contracts/crowdfunding.sol:CrowdFunding",
						"label": "numberContributors",
						"offset": 0,
						"slot": "2",
						"type": "t_uint256"
					},
					{
						"astId": 11,
						"contract": "contracts/crowdfunding.sol:CrowdFunding",
						"label": "minimumContribution",
						"offset": 0,
						"slot": "3",
						"type": "t_uint256"
					},
					{
						"astId": 13,
						"contract": "contracts/crowdfunding.sol:CrowdFunding",
						"label": "deadline",
						"offset": 0,
						"slot": "4",
						"type": "t_uint256"
					},
					{
						"astId": 15,
						"contract": "contracts/crowdfunding.sol:CrowdFunding",
						"label": "goal",
						"offset": 0,
						"slot": "5",
						"type": "t_uint256"
					},
					{
						"astId": 17,
						"contract": "contracts/crowdfunding.sol:CrowdFunding",
						"label": "raisedAmount",
						"offset": 0,
						"slot": "6",
						"type": "t_uint256"
					},
					{
						"astId": 37,
						"contract": "contracts/crowdfunding.sol:CrowdFunding",
						"label": "requests",
						"offset": 0,
						"slot": "7",
						"type": "t_mapping(t_uint256,t_struct(Request)32_storage)"
					},
					{
						"astId": 39,
						"contract": "contracts/crowdfunding.sol:CrowdFunding",
						"label": "numberRequests",
						"offset": 0,
						"slot": "8",
						"type": "t_uint256"
					}
				],
				"types": {
					"t_address": {
						"encoding": "inplace",
						"label": "address",
						"numberOfBytes": "20"
					},
					"t_address_payable": {
						"encoding": "inplace",
						"label": "address payable",
						"numberOfBytes": "20"
					},
					"t_bool": {
						"encoding": "inplace",
						"label": "bool",
						"numberOfBytes": "1"
					},
					"t_mapping(t_address,t_bool)": {
						"encoding": "mapping",
						"key": "t_address",
						"label": "mapping(address => bool)",
						"numberOfBytes": "32",
						"value": "t_bool"
					},
					"t_mapping(t_address,t_uint256)": {
						"encoding": "mapping",
						"key": "t_address",
						"label": "mapping(address => uint256)",
						"numberOfBytes": "32",
						"value": "t_uint256"
					},
					"t_mapping(t_uint256,t_struct(Request)32_storage)": {
						"encoding": "mapping",
						"key": "t_uint256",
						"label": "mapping(uint256 => struct CrowdFunding.Request)",
						"numberOfBytes": "32",
						"value": "t_struct(Request)32_storage"
					},
					"t_string_storage": {
						"encoding": "bytes",
						"label": "string",
						"numberOfBytes": "32"
					},
					"t_struct(Request)32_storage": {
						"encoding": "inplace",
						"label": "struct CrowdFunding.Request",
						"members": [
							{
								"astId": 19,
								"contract": "contracts/crowdfunding.sol:CrowdFunding",
								"label": "description",
								"offset": 0,
								"slot": "0",
								"type": "t_string_storage"
							},
							{
								"astId": 21,
								"contract": "contracts/crowdfunding.sol:CrowdFunding",
								"label": "recipient",
								"offset": 0,
								"slot": "1",
								"type": "t_address_payable"
							},
							{
								"astId": 23,
								"contract": "contracts/crowdfunding.sol:CrowdFunding",
								"label": "value",
								"offset": 0,
								"slot": "2",
								"type": "t_uint256"
							},
							{
								"astId": 25,
								"contract": "contracts/crowdfunding.sol:CrowdFunding",
								"label": "completed",
								"offset": 0,
								"slot": "3",
								"type": "t_bool"
							},
							{
								"astId": 27,
								"contract": "contracts/crowdfunding.sol:CrowdFunding",
								"label": "numberVoters",
								"offset": 0,
								"slot": "4",
								"type": "t_uint256"
							},
							{
								"astId": 31,
								"contract": "contracts/crowdfunding.sol:CrowdFunding",
								"label": "voters",
								"offset": 0,
								"slot": "5",
								"type": "t_mapping(t_address,t_bool)"
							}
						],
						"numberOfBytes": "192"
					},
					"t_uint256": {
						"encoding": "inplace",
						"label": "uint256",
						"numberOfBytes": "32"
					}
				}
			},
			"userdoc": {
				"kind": "user",
				"methods": {},
				"version": 1
			}
		}
	}
}