{
	"contracts/challenge1.sol": {
		"CryptosToken2": {
			"abi": [
				{
					"inputs": [],
					"name": "name",
					"outputs": [
						{
							"internalType": "string",
							"name": "",
							"type": "string"
						}
					],
					"stateMutability": "view",
					"type": "function"
				},
				{
					"inputs": [
						{
							"internalType": "uint256",
							"name": "_supply",
							"type": "uint256"
						}
					],
					"name": "setSupply",
					"outputs": [],
					"stateMutability": "nonpayable",
					"type": "function"
				}
			],
			"devdoc": {
				"kind": "dev",
				"methods": {},
				"version": 1
			},
			"evm": {
				"assembly": "    /* \"contracts/challenge1.sol\":248:430  contract CryptosToken2{\r... */\n  mstore(0x40, 0x80)\n  callvalue\n  dup1\n  iszero\n  tag_1\n  jumpi\n  0x00\n  dup1\n  revert\ntag_1:\n  pop\n  dataSize(sub_0)\n  dup1\n  dataOffset(sub_0)\n  0x00\n  codecopy\n  0x00\n  return\nstop\n\nsub_0: assembly {\n        /* \"contracts/challenge1.sol\":248:430  contract CryptosToken2{\r... */\n      mstore(0x40, 0x80)\n      callvalue\n      dup1\n      iszero\n      tag_1\n      jumpi\n      0x00\n      dup1\n      revert\n    tag_1:\n      pop\n      jumpi(tag_2, lt(calldatasize, 0x04))\n      shr(0xe0, calldataload(0x00))\n      dup1\n      0x06fdde03\n      eq\n      tag_3\n      jumpi\n      dup1\n      0x3b4c4b25\n      eq\n      tag_4\n      jumpi\n    tag_2:\n      0x00\n      dup1\n      revert\n        /* \"contracts/challenge1.sol\":277:316  string public constant name = \"Cryptos\" */\n    tag_3:\n      tag_5\n      tag_6\n      jump\t// in\n    tag_5:\n      mload(0x40)\n      tag_7\n      swap2\n      swap1\n      tag_8\n      jump\t// in\n    tag_7:\n      mload(0x40)\n      dup1\n      swap2\n      sub\n      swap1\n      return\n        /* \"contracts/challenge1.sol\":349:427  function setSupply(uint _supply) public{\r... */\n    tag_4:\n      tag_9\n      0x04\n      dup1\n      calldatasize\n      sub\n      dup2\n      add\n      swap1\n      tag_10\n      swap2\n      swap1\n      tag_11\n      jump\t// in\n    tag_10:\n      tag_12\n      jump\t// in\n    tag_9:\n      stop\n        /* \"contracts/challenge1.sol\":277:316  string public constant name = \"Cryptos\" */\n    tag_6:\n      mload(0x40)\n      dup1\n      0x40\n      add\n      0x40\n      mstore\n      dup1\n      0x07\n      dup2\n      mstore\n      0x20\n      add\n      0x43727970746f7300000000000000000000000000000000000000000000000000\n      dup2\n      mstore\n      pop\n      dup2\n      jump\t// out\n        /* \"contracts/challenge1.sol\":349:427  function setSupply(uint _supply) public{\r... */\n    tag_12:\n        /* \"contracts/challenge1.sol\":410:417  _supply */\n      dup1\n        /* \"contracts/challenge1.sol\":401:407  supply */\n      0x00\n        /* \"contracts/challenge1.sol\":401:417  supply = _supply */\n      dup2\n      swap1\n      sstore\n      pop\n        /* \"contracts/challenge1.sol\":349:427  function setSupply(uint _supply) public{\r... */\n      pop\n      jump\t// out\n        /* \"#utility.yul\":7:146   */\n    tag_15:\n        /* \"#utility.yul\":53:58   */\n      0x00\n        /* \"#utility.yul\":91:97   */\n      dup2\n        /* \"#utility.yul\":78:98   */\n      calldataload\n        /* \"#utility.yul\":69:98   */\n      swap1\n      pop\n        /* \"#utility.yul\":107:140   */\n      tag_17\n        /* \"#utility.yul\":134:139   */\n      dup2\n        /* \"#utility.yul\":107:140   */\n      tag_18\n      jump\t// in\n    tag_17:\n        /* \"#utility.yul\":7:146   */\n      swap3\n      swap2\n      pop\n      pop\n      jump\t// out\n        /* \"#utility.yul\":152:481   */\n    tag_11:\n        /* \"#utility.yul\":211:217   */\n      0x00\n        /* \"#utility.yul\":260:262   */\n      0x20\n        /* \"#utility.yul\":248:257   */\n      dup3\n        /* \"#utility.yul\":239:246   */\n      dup5\n        /* \"#utility.yul\":235:258   */\n      sub\n        /* \"#utility.yul\":231:263   */\n      slt\n        /* \"#utility.yul\":228:347   */\n      iszero\n      tag_20\n      jumpi\n        /* \"#utility.yul\":266:345   */\n      tag_21\n      tag_22\n      jump\t// in\n    tag_21:\n        /* \"#utility.yul\":228:347   */\n    tag_20:\n        /* \"#utility.yul\":386:387   */\n      0x00\n        /* \"#utility.yul\":411:464   */\n      tag_23\n        /* \"#utility.yul\":456:463   */\n      dup5\n        /* \"#utility.yul\":447:453   */\n      dup3\n        /* \"#utility.yul\":436:445   */\n      dup6\n        /* \"#utility.yul\":432:454   */\n      add\n        /* \"#utility.yul\":411:464   */\n      tag_15\n      jump\t// in\n    tag_23:\n        /* \"#utility.yul\":401:464   */\n      swap2\n      pop\n        /* \"#utility.yul\":357:474   */\n      pop\n        /* \"#utility.yul\":152:481   */\n      swap3\n      swap2\n      pop\n      pop\n      jump\t// out\n        /* \"#utility.yul\":487:851   */\n    tag_24:\n        /* \"#utility.yul\":575:578   */\n      0x00\n        /* \"#utility.yul\":603:642   */\n      tag_26\n        /* \"#utility.yul\":636:641   */\n      dup3\n        /* \"#utility.yul\":603:642   */\n      tag_27\n      jump\t// in\n    tag_26:\n        /* \"#utility.yul\":658:729   */\n      tag_28\n        /* \"#utility.yul\":722:728   */\n      dup2\n        /* \"#utility.yul\":717:720   */\n      dup6\n        /* \"#utility.yul\":658:729   */\n      tag_29\n      jump\t// in\n    tag_28:\n        /* \"#utility.yul\":651:729   */\n      swap4\n      pop\n        /* \"#utility.yul\":738:790   */\n      tag_30\n        /* \"#utility.yul\":783:789   */\n      dup2\n        /* \"#utility.yul\":778:781   */\n      dup6\n        /* \"#utility.yul\":771:775   */\n      0x20\n        /* \"#utility.yul\":764:769   */\n      dup7\n        /* \"#utility.yul\":760:776   */\n      add\n        /* \"#utility.yul\":738:790   */\n      tag_31\n      jump\t// in\n    tag_30:\n        /* \"#utility.yul\":815:844   */\n      tag_32\n        /* \"#utility.yul\":837:843   */\n      dup2\n        /* \"#utility.yul\":815:844   */\n      tag_33\n      jump\t// in\n    tag_32:\n        /* \"#utility.yul\":810:813   */\n      dup5\n        /* \"#utility.yul\":806:845   */\n      add\n        /* \"#utility.yul\":799:845   */\n      swap2\n      pop\n        /* \"#utility.yul\":579:851   */\n      pop\n        /* \"#utility.yul\":487:851   */\n      swap3\n      swap2\n      pop\n      pop\n      jump\t// out\n        /* \"#utility.yul\":857:1170   */\n    tag_8:\n        /* \"#utility.yul\":970:974   */\n      0x00\n        /* \"#utility.yul\":1008:1010   */\n      0x20\n        /* \"#utility.yul\":997:1006   */\n      dup3\n        /* \"#utility.yul\":993:1011   */\n      add\n        /* \"#utility.yul\":985:1011   */\n      swap1\n      pop\n        /* \"#utility.yul\":1057:1066   */\n      dup2\n        /* \"#utility.yul\":1051:1055   */\n      dup2\n        /* \"#utility.yul\":1047:1067   */\n      sub\n        /* \"#utility.yul\":1043:1044   */\n      0x00\n        /* \"#utility.yul\":1032:1041   */\n      dup4\n        /* \"#utility.yul\":1028:1045   */\n      add\n        /* \"#utility.yul\":1021:1068   */\n      mstore\n        /* \"#utility.yul\":1085:1163   */\n      tag_35\n        /* \"#utility.yul\":1158:1162   */\n      dup2\n        /* \"#utility.yul\":1149:1155   */\n      dup5\n        /* \"#utility.yul\":1085:1163   */\n      tag_24\n      jump\t// in\n    tag_35:\n        /* \"#utility.yul\":1077:1163   */\n      swap1\n      pop\n        /* \"#utility.yul\":857:1170   */\n      swap3\n      swap2\n      pop\n      pop\n      jump\t// out\n        /* \"#utility.yul\":1257:1356   */\n    tag_27:\n        /* \"#utility.yul\":1309:1315   */\n      0x00\n        /* \"#utility.yul\":1343:1348   */\n      dup2\n        /* \"#utility.yul\":1337:1349   */\n      mload\n        /* \"#utility.yul\":1327:1349   */\n      swap1\n      pop\n        /* \"#utility.yul\":1257:1356   */\n      swap2\n      swap1\n      pop\n      jump\t// out\n        /* \"#utility.yul\":1362:1531   */\n    tag_29:\n        /* \"#utility.yul\":1446:1457   */\n      0x00\n        /* \"#utility.yul\":1480:1486   */\n      dup3\n        /* \"#utility.yul\":1475:1478   */\n      dup3\n        /* \"#utility.yul\":1468:1487   */\n      mstore\n        /* \"#utility.yul\":1520:1524   */\n      0x20\n        /* \"#utility.yul\":1515:1518   */\n      dup3\n        /* \"#utility.yul\":1511:1525   */\n      add\n        /* \"#utility.yul\":1496:1525   */\n      swap1\n      pop\n        /* \"#utility.yul\":1362:1531   */\n      swap3\n      swap2\n      pop\n      pop\n      jump\t// out\n        /* \"#utility.yul\":1537:1614   */\n    tag_40:\n        /* \"#utility.yul\":1574:1581   */\n      0x00\n        /* \"#utility.yul\":1603:1608   */\n      dup2\n        /* \"#utility.yul\":1592:1608   */\n      swap1\n      pop\n        /* \"#utility.yul\":1537:1614   */\n      swap2\n      swap1\n      pop\n      jump\t// out\n        /* \"#utility.yul\":1620:1927   */\n    tag_31:\n        /* \"#utility.yul\":1688:1689   */\n      0x00\n        /* \"#utility.yul\":1698:1811   */\n    tag_43:\n        /* \"#utility.yul\":1712:1718   */\n      dup4\n        /* \"#utility.yul\":1709:1710   */\n      dup2\n        /* \"#utility.yul\":1706:1719   */\n      lt\n        /* \"#utility.yul\":1698:1811   */\n      iszero\n      tag_45\n      jumpi\n        /* \"#utility.yul\":1797:1798   */\n      dup1\n        /* \"#utility.yul\":1792:1795   */\n      dup3\n        /* \"#utility.yul\":1788:1799   */\n      add\n        /* \"#utility.yul\":1782:1800   */\n      mload\n        /* \"#utility.yul\":1778:1779   */\n      dup2\n        /* \"#utility.yul\":1773:1776   */\n      dup5\n        /* \"#utility.yul\":1769:1780   */\n      add\n        /* \"#utility.yul\":1762:1801   */\n      mstore\n        /* \"#utility.yul\":1734:1736   */\n      0x20\n        /* \"#utility.yul\":1731:1732   */\n      dup2\n        /* \"#utility.yul\":1727:1737   */\n      add\n        /* \"#utility.yul\":1722:1737   */\n      swap1\n      pop\n        /* \"#utility.yul\":1698:1811   */\n      jump(tag_43)\n    tag_45:\n        /* \"#utility.yul\":1829:1835   */\n      dup4\n        /* \"#utility.yul\":1826:1827   */\n      dup2\n        /* \"#utility.yul\":1823:1836   */\n      gt\n        /* \"#utility.yul\":1820:1921   */\n      iszero\n      tag_46\n      jumpi\n        /* \"#utility.yul\":1909:1910   */\n      0x00\n        /* \"#utility.yul\":1900:1906   */\n      dup5\n        /* \"#utility.yul\":1895:1898   */\n      dup5\n        /* \"#utility.yul\":1891:1907   */\n      add\n        /* \"#utility.yul\":1884:1911   */\n      mstore\n        /* \"#utility.yul\":1820:1921   */\n    tag_46:\n        /* \"#utility.yul\":1669:1927   */\n      pop\n        /* \"#utility.yul\":1620:1927   */\n      pop\n      pop\n      pop\n      jump\t// out\n        /* \"#utility.yul\":2056:2173   */\n    tag_22:\n        /* \"#utility.yul\":2165:2166   */\n      0x00\n        /* \"#utility.yul\":2162:2163   */\n      dup1\n        /* \"#utility.yul\":2155:2167   */\n      revert\n        /* \"#utility.yul\":2179:2281   */\n    tag_33:\n        /* \"#utility.yul\":2220:2226   */\n      0x00\n        /* \"#utility.yul\":2271:2273   */\n      0x1f\n        /* \"#utility.yul\":2267:2274   */\n      not\n        /* \"#utility.yul\":2262:2264   */\n      0x1f\n        /* \"#utility.yul\":2255:2260   */\n      dup4\n        /* \"#utility.yul\":2251:2265   */\n      add\n        /* \"#utility.yul\":2247:2275   */\n      and\n        /* \"#utility.yul\":2237:2275   */\n      swap1\n      pop\n        /* \"#utility.yul\":2179:2281   */\n      swap2\n      swap1\n      pop\n      jump\t// out\n        /* \"#utility.yul\":2287:2409   */\n    tag_18:\n        /* \"#utility.yul\":2360:2384   */\n      tag_52\n        /* \"#utility.yul\":2378:2383   */\n      dup2\n        /* \"#utility.yul\":2360:2384   */\n      tag_40\n      jump\t// in\n    tag_52:\n        /* \"#utility.yul\":2353:2358   */\n      dup2\n        /* \"#utility.yul\":2350:2385   */\n      eq\n        /* \"#utility.yul\":2340:2403   */\n      tag_53\n      jumpi\n        /* \"#utility.yul\":2399:2400   */\n      0x00\n        /* \"#utility.yul\":2396:2397   */\n      dup1\n        /* \"#utility.yul\":2389:2401   */\n      revert\n        /* \"#utility.yul\":2340:2403   */\n    tag_53:\n        /* \"#utility.yul\":2287:2409   */\n      pop\n      jump\t// out\n\n    auxdata: 0xa26469706673582212208a209fb816501b59944d4487c7541cb284c790f84adc638562db260eb9cf3b0864736f6c63430008070033\n}\n",
				"bytecode": {
					"linkReferences": {},
					"object": "608060405234801561001057600080fd5b50610211806100206000396000f3fe608060405234801561001057600080fd5b50600436106100365760003560e01c806306fdde031461003b5780633b4c4b2514610059575b600080fd5b610043610075565b6040516100509190610133565b60405180910390f35b610073600480360381019061006e91906100cd565b6100ae565b005b6040518060400160405280600781526020017f43727970746f730000000000000000000000000000000000000000000000000081525081565b8060008190555050565b6000813590506100c7816101c4565b92915050565b6000602082840312156100e3576100e26101ae565b5b60006100f1848285016100b8565b91505092915050565b600061010582610155565b61010f8185610160565b935061011f81856020860161017b565b610128816101b3565b840191505092915050565b6000602082019050818103600083015261014d81846100fa565b905092915050565b600081519050919050565b600082825260208201905092915050565b6000819050919050565b60005b8381101561019957808201518184015260208101905061017e565b838111156101a8576000848401525b50505050565b600080fd5b6000601f19601f8301169050919050565b6101cd81610171565b81146101d857600080fd5b5056fea26469706673582212208a209fb816501b59944d4487c7541cb284c790f84adc638562db260eb9cf3b0864736f6c63430008070033",
					"opcodes": "PUSH1 0x80 PUSH1 0x40 MSTORE CALLVALUE DUP1 ISZERO PUSH2 0x10 JUMPI PUSH1 0x0 DUP1 REVERT JUMPDEST POP PUSH2 0x211 DUP1 PUSH2 0x20 PUSH1 0x0 CODECOPY PUSH1 0x0 RETURN INVALID PUSH1 0x80 PUSH1 0x40 MSTORE CALLVALUE DUP1 ISZERO PUSH2 0x10 JUMPI PUSH1 0x0 DUP1 REVERT JUMPDEST POP PUSH1 0x4 CALLDATASIZE LT PUSH2 0x36 JUMPI PUSH1 0x0 CALLDATALOAD PUSH1 0xE0 SHR DUP1 PUSH4 0x6FDDE03 EQ PUSH2 0x3B JUMPI DUP1 PUSH4 0x3B4C4B25 EQ PUSH2 0x59 JUMPI JUMPDEST PUSH1 0x0 DUP1 REVERT JUMPDEST PUSH2 0x43 PUSH2 0x75 JUMP JUMPDEST PUSH1 0x40 MLOAD PUSH2 0x50 SWAP2 SWAP1 PUSH2 0x133 JUMP JUMPDEST PUSH1 0x40 MLOAD DUP1 SWAP2 SUB SWAP1 RETURN JUMPDEST PUSH2 0x73 PUSH1 0x4 DUP1 CALLDATASIZE SUB DUP2 ADD SWAP1 PUSH2 0x6E SWAP2 SWAP1 PUSH2 0xCD JUMP JUMPDEST PUSH2 0xAE JUMP JUMPDEST STOP JUMPDEST PUSH1 0x40 MLOAD DUP1 PUSH1 0x40 ADD PUSH1 0x40 MSTORE DUP1 PUSH1 0x7 DUP2 MSTORE PUSH1 0x20 ADD PUSH32 0x43727970746F7300000000000000000000000000000000000000000000000000 DUP2 MSTORE POP DUP2 JUMP JUMPDEST DUP1 PUSH1 0x0 DUP2 SWAP1 SSTORE POP POP JUMP JUMPDEST PUSH1 0x0 DUP2 CALLDATALOAD SWAP1 POP PUSH2 0xC7 DUP2 PUSH2 0x1C4 JUMP JUMPDEST SWAP3 SWAP2 POP POP JUMP JUMPDEST PUSH1 0x0 PUSH1 0x20 DUP3 DUP5 SUB SLT ISZERO PUSH2 0xE3 JUMPI PUSH2 0xE2 PUSH2 0x1AE JUMP JUMPDEST JUMPDEST PUSH1 0x0 PUSH2 0xF1 DUP5 DUP3 DUP6 ADD PUSH2 0xB8 JUMP JUMPDEST SWAP2 POP POP SWAP3 SWAP2 POP POP JUMP JUMPDEST PUSH1 0x0 PUSH2 0x105 DUP3 PUSH2 0x155 JUMP JUMPDEST PUSH2 0x10F DUP2 DUP6 PUSH2 0x160 JUMP JUMPDEST SWAP4 POP PUSH2 0x11F DUP2 DUP6 PUSH1 0x20 DUP7 ADD PUSH2 0x17B JUMP JUMPDEST PUSH2 0x128 DUP2 PUSH2 0x1B3 JUMP JUMPDEST DUP5 ADD SWAP2 POP POP SWAP3 SWAP2 POP POP JUMP JUMPDEST PUSH1 0x0 PUSH1 0x20 DUP3 ADD SWAP1 POP DUP2 DUP2 SUB PUSH1 0x0 DUP4 ADD MSTORE PUSH2 0x14D DUP2 DUP5 PUSH2 0xFA JUMP JUMPDEST SWAP1 POP SWAP3 SWAP2 POP POP JUMP JUMPDEST PUSH1 0x0 DUP2 MLOAD SWAP1 POP SWAP2 SWAP1 POP JUMP JUMPDEST PUSH1 0x0 DUP3 DUP3 MSTORE PUSH1 0x20 DUP3 ADD SWAP1 POP SWAP3 SWAP2 POP POP JUMP JUMPDEST PUSH1 0x0 DUP2 SWAP1 POP SWAP2 SWAP1 POP JUMP JUMPDEST PUSH1 0x0 JUMPDEST DUP4 DUP2 LT ISZERO PUSH2 0x199 JUMPI DUP1 DUP3 ADD MLOAD DUP2 DUP5 ADD MSTORE PUSH1 0x20 DUP2 ADD SWAP1 POP PUSH2 0x17E JUMP JUMPDEST DUP4 DUP2 GT ISZERO PUSH2 0x1A8 JUMPI PUSH1 0x0 DUP5 DUP5 ADD MSTORE JUMPDEST POP POP POP POP JUMP JUMPDEST PUSH1 0x0 DUP1 REVERT JUMPDEST PUSH1 0x0 PUSH1 0x1F NOT PUSH1 0x1F DUP4 ADD AND SWAP1 POP SWAP2 SWAP1 POP JUMP JUMPDEST PUSH2 0x1CD DUP2 PUSH2 0x171 JUMP JUMPDEST DUP2 EQ PUSH2 0x1D8 JUMPI PUSH1 0x0 DUP1 REVERT JUMPDEST POP JUMP INVALID LOG2 PUSH5 0x6970667358 0x22 SLT KECCAK256 DUP11 KECCAK256 SWAP16 0xB8 AND POP SHL MSIZE SWAP5 0x4D DIFFICULTY DUP8 0xC7 SLOAD SHR 0xB2 DUP5 0xC7 SWAP1 0xF8 0x4A 0xDC PUSH4 0x8562DB26 0xE 0xB9 0xCF EXTCODESIZE ADDMOD PUSH5 0x736F6C6343 STOP ADDMOD SMOD STOP CALLER "
				},
				"gasEstimates": {
					"creation": {
						"codeDepositCost": "105800",
						"executionCost": "153",
						"totalCost": "105953"
					},
					"external": {
						"name()": "infinite",
						"setSupply(uint256)": "22520"
					}
				},
				"methodIdentifiers": {
					"name()": "06fdde03",
					"setSupply(uint256)": "3b4c4b25"
				}
			},
			"storageLayout": {
				"storage": [
					{
						"astId": 12,
						"contract": "contracts/challenge1.sol:CryptosToken2",
						"label": "supply",
						"offset": 0,
						"slot": "0",
						"type": "t_uint256"
					}
				],
				"types": {
					"t_uint256": {
						"encoding": "inplace",
						"label": "uint256",
						"numberOfBytes": "32"
					}
				}
			},
			"userdoc": {
				"kind": "user",
				"methods": {},
				"version": 1
			}
		}
	}
}