{
	"contracts/newContract.sol": {
		"Property": {
			"abi": [
				{
					"inputs": [
						{
							"internalType": "int256",
							"name": "_price",
							"type": "int256"
						},
						{
							"internalType": "string",
							"name": "_location",
							"type": "string"
						}
					],
					"stateMutability": "nonpayable",
					"type": "constructor"
				},
				{
					"inputs": [],
					"name": "location",
					"outputs": [
						{
							"internalType": "string",
							"name": "",
							"type": "string"
						}
					],
					"stateMutability": "view",
					"type": "function"
				},
				{
					"inputs": [],
					"name": "owner",
					"outputs": [
						{
							"internalType": "address",
							"name": "",
							"type": "address"
						}
					],
					"stateMutability": "view",
					"type": "function"
				},
				{
					"inputs": [],
					"name": "price",
					"outputs": [
						{
							"internalType": "int256",
							"name": "",
							"type": "int256"
						}
					],
					"stateMutability": "view",
					"type": "function"
				},
				{
					"inputs": [
						{
							"internalType": "string",
							"name": "_location",
							"type": "string"
						}
					],
					"name": "setLocation",
					"outputs": [],
					"stateMutability": "nonpayable",
					"type": "function"
				},
				{
					"inputs": [
						{
							"internalType": "int256",
							"name": "_price",
							"type": "int256"
						}
					],
					"name": "setPrice",
					"outputs": [],
					"stateMutability": "nonpayable",
					"type": "function"
				}
			],
			"devdoc": {
				"kind": "dev",
				"methods": {},
				"version": 1
			},
			"evm": {
				"assembly": "    /* \"contracts/newContract.sol\":63:588  contract Property {\r... */\n  mstore(0x40, 0x80)\n    /* \"contracts/newContract.sol\":113:116  100 */\n  0x64\n    /* \"contracts/newContract.sol\":94:116  int public price = 100 */\n  0x00\n  sstore\n    /* \"contracts/newContract.sol\":123:156  string public location = \"London\" */\n  mload(0x40)\n  dup1\n  0x40\n  add\n  0x40\n  mstore\n  dup1\n  0x06\n  dup2\n  mstore\n  0x20\n  add\n  0x4c6f6e646f6e0000000000000000000000000000000000000000000000000000\n  dup2\n  mstore\n  pop\n  0x01\n  swap1\n  dup1\n  mload\n  swap1\n  0x20\n  add\n  swap1\n  tag_1\n  swap3\n  swap2\n  swap1\n  tag_2\n  jump\t// in\ntag_1:\n  pop\n    /* \"contracts/newContract.sol\":266:407  constructor(int _price, string memory _location){\r... */\n  callvalue\n  dup1\n  iszero\n  tag_3\n  jumpi\n  0x00\n  dup1\n  revert\ntag_3:\n  pop\n  mload(0x40)\n  sub(codesize, bytecodeSize)\n  dup1\n  bytecodeSize\n  dup4\n  codecopy\n  dup2\n  dup2\n  add\n  0x40\n  mstore\n  dup2\n  add\n  swap1\n  tag_4\n  swap2\n  swap1\n  tag_5\n  jump\t// in\ntag_4:\n    /* \"contracts/newContract.sol\":333:339  _price */\n  dup2\n    /* \"contracts/newContract.sol\":325:330  price */\n  0x00\n    /* \"contracts/newContract.sol\":325:339  price = _price */\n  dup2\n  swap1\n  sstore\n  pop\n    /* \"contracts/newContract.sol\":361:370  _location */\n  dup1\n    /* \"contracts/newContract.sol\":350:358  location */\n  0x01\n    /* \"contracts/newContract.sol\":350:370  location = _location */\n  swap1\n  dup1\n  mload\n  swap1\n  0x20\n  add\n  swap1\n  tag_8\n  swap3\n  swap2\n  swap1\n  tag_2\n  jump\t// in\ntag_8:\n  pop\n    /* \"contracts/newContract.sol\":389:399  msg.sender */\n  caller\n    /* \"contracts/newContract.sol\":381:386  owner */\n  0x02\n  0x00\n    /* \"contracts/newContract.sol\":381:399  owner = msg.sender */\n  0x0100\n  exp\n  dup2\n  sload\n  dup2\n  0xffffffffffffffffffffffffffffffffffffffff\n  mul\n  not\n  and\n  swap1\n  dup4\n  0xffffffffffffffffffffffffffffffffffffffff\n  and\n  mul\n  or\n  swap1\n  sstore\n  pop\n    /* \"contracts/newContract.sol\":266:407  constructor(int _price, string memory _location){\r... */\n  pop\n  pop\n    /* \"contracts/newContract.sol\":63:588  contract Property {\r... */\n  jump(tag_9)\ntag_2:\n  dup3\n  dup1\n  sload\n  tag_10\n  swap1\n  tag_11\n  jump\t// in\ntag_10:\n  swap1\n  0x00\n  mstore\n  keccak256(0x00, 0x20)\n  swap1\n  0x1f\n  add\n  0x20\n  swap1\n  div\n  dup2\n  add\n  swap3\n  dup3\n  tag_13\n  jumpi\n  0x00\n  dup6\n  sstore\n  jump(tag_12)\ntag_13:\n  dup3\n  0x1f\n  lt\n  tag_14\n  jumpi\n  dup1\n  mload\n  not(0xff)\n  and\n  dup4\n  dup1\n  add\n  or\n  dup6\n  sstore\n  jump(tag_12)\ntag_14:\n  dup3\n  dup1\n  add\n  0x01\n  add\n  dup6\n  sstore\n  dup3\n  iszero\n  tag_12\n  jumpi\n  swap2\n  dup3\n  add\ntag_15:\n  dup3\n  dup2\n  gt\n  iszero\n  tag_16\n  jumpi\n  dup3\n  mload\n  dup3\n  sstore\n  swap2\n  0x20\n  add\n  swap2\n  swap1\n  0x01\n  add\n  swap1\n  jump(tag_15)\ntag_16:\ntag_12:\n  pop\n  swap1\n  pop\n  tag_17\n  swap2\n  swap1\n  tag_18\n  jump\t// in\ntag_17:\n  pop\n  swap1\n  jump\t// out\ntag_18:\ntag_19:\n  dup1\n  dup3\n  gt\n  iszero\n  tag_20\n  jumpi\n  0x00\n  dup2\n  0x00\n  swap1\n  sstore\n  pop\n  0x01\n  add\n  jump(tag_19)\ntag_20:\n  pop\n  swap1\n  jump\t// out\n    /* \"#utility.yul\":7:360   */\ntag_22:\n  0x00\n    /* \"#utility.yul\":121:186   */\n  tag_24\n    /* \"#utility.yul\":136:185   */\n  tag_25\n    /* \"#utility.yul\":178:184   */\n  dup5\n    /* \"#utility.yul\":136:185   */\n  tag_26\n  jump\t// in\ntag_25:\n    /* \"#utility.yul\":121:186   */\n  tag_27\n  jump\t// in\ntag_24:\n    /* \"#utility.yul\":112:186   */\n  swap1\n  pop\n    /* \"#utility.yul\":209:215   */\n  dup3\n    /* \"#utility.yul\":202:207   */\n  dup2\n    /* \"#utility.yul\":195:216   */\n  mstore\n    /* \"#utility.yul\":247:251   */\n  0x20\n    /* \"#utility.yul\":240:245   */\n  dup2\n    /* \"#utility.yul\":236:252   */\n  add\n    /* \"#utility.yul\":285:288   */\n  dup5\n    /* \"#utility.yul\":276:282   */\n  dup5\n    /* \"#utility.yul\":271:274   */\n  dup5\n    /* \"#utility.yul\":267:283   */\n  add\n    /* \"#utility.yul\":264:289   */\n  gt\n    /* \"#utility.yul\":261:263   */\n  iszero\n  tag_28\n  jumpi\n    /* \"#utility.yul\":302:303   */\n  0x00\n    /* \"#utility.yul\":299:300   */\n  dup1\n    /* \"#utility.yul\":292:304   */\n  revert\n    /* \"#utility.yul\":261:263   */\ntag_28:\n    /* \"#utility.yul\":315:354   */\n  tag_29\n    /* \"#utility.yul\":347:353   */\n  dup5\n    /* \"#utility.yul\":342:345   */\n  dup3\n    /* \"#utility.yul\":337:340   */\n  dup6\n    /* \"#utility.yul\":315:354   */\n  tag_30\n  jump\t// in\ntag_29:\n    /* \"#utility.yul\":102:360   */\n  pop\n  swap4\n  swap3\n  pop\n  pop\n  pop\n  jump\t// out\n    /* \"#utility.yul\":366:507   */\ntag_31:\n  0x00\n    /* \"#utility.yul\":453:459   */\n  dup2\n    /* \"#utility.yul\":447:460   */\n  mload\n    /* \"#utility.yul\":438:460   */\n  swap1\n  pop\n    /* \"#utility.yul\":469:501   */\n  tag_33\n    /* \"#utility.yul\":495:500   */\n  dup2\n    /* \"#utility.yul\":469:501   */\n  tag_34\n  jump\t// in\ntag_33:\n    /* \"#utility.yul\":428:507   */\n  swap3\n  swap2\n  pop\n  pop\n  jump\t// out\n    /* \"#utility.yul\":527:815   */\ntag_35:\n  0x00\n    /* \"#utility.yul\":643:646   */\n  dup3\n    /* \"#utility.yul\":636:640   */\n  0x1f\n    /* \"#utility.yul\":628:634   */\n  dup4\n    /* \"#utility.yul\":624:641   */\n  add\n    /* \"#utility.yul\":620:647   */\n  slt\n    /* \"#utility.yul\":610:612   */\n  tag_37\n  jumpi\n    /* \"#utility.yul\":661:662   */\n  0x00\n    /* \"#utility.yul\":658:659   */\n  dup1\n    /* \"#utility.yul\":651:663   */\n  revert\n    /* \"#utility.yul\":610:612   */\ntag_37:\n    /* \"#utility.yul\":694:700   */\n  dup2\n    /* \"#utility.yul\":688:701   */\n  mload\n    /* \"#utility.yul\":719:809   */\n  tag_38\n    /* \"#utility.yul\":805:808   */\n  dup5\n    /* \"#utility.yul\":797:803   */\n  dup3\n    /* \"#utility.yul\":790:794   */\n  0x20\n    /* \"#utility.yul\":782:788   */\n  dup7\n    /* \"#utility.yul\":778:795   */\n  add\n    /* \"#utility.yul\":719:809   */\n  tag_22\n  jump\t// in\ntag_38:\n    /* \"#utility.yul\":710:809   */\n  swap2\n  pop\n    /* \"#utility.yul\":600:815   */\n  pop\n  swap3\n  swap2\n  pop\n  pop\n  jump\t// out\n    /* \"#utility.yul\":821:1365   */\ntag_5:\n  0x00\n  dup1\n    /* \"#utility.yul\":966:968   */\n  0x40\n    /* \"#utility.yul\":954:963   */\n  dup4\n    /* \"#utility.yul\":945:952   */\n  dup6\n    /* \"#utility.yul\":941:964   */\n  sub\n    /* \"#utility.yul\":937:969   */\n  slt\n    /* \"#utility.yul\":934:936   */\n  iszero\n  tag_40\n  jumpi\n    /* \"#utility.yul\":982:983   */\n  0x00\n    /* \"#utility.yul\":979:980   */\n  dup1\n    /* \"#utility.yul\":972:984   */\n  revert\n    /* \"#utility.yul\":934:936   */\ntag_40:\n    /* \"#utility.yul\":1025:1026   */\n  0x00\n    /* \"#utility.yul\":1050:1113   */\n  tag_41\n    /* \"#utility.yul\":1105:1112   */\n  dup6\n    /* \"#utility.yul\":1096:1102   */\n  dup3\n    /* \"#utility.yul\":1085:1094   */\n  dup7\n    /* \"#utility.yul\":1081:1103   */\n  add\n    /* \"#utility.yul\":1050:1113   */\n  tag_31\n  jump\t// in\ntag_41:\n    /* \"#utility.yul\":1040:1113   */\n  swap3\n  pop\n    /* \"#utility.yul\":996:1123   */\n  pop\n    /* \"#utility.yul\":1183:1185   */\n  0x20\n    /* \"#utility.yul\":1172:1181   */\n  dup4\n    /* \"#utility.yul\":1168:1186   */\n  add\n    /* \"#utility.yul\":1162:1187   */\n  mload\n    /* \"#utility.yul\":1214:1232   */\n  0xffffffffffffffff\n    /* \"#utility.yul\":1206:1212   */\n  dup2\n    /* \"#utility.yul\":1203:1233   */\n  gt\n    /* \"#utility.yul\":1200:1202   */\n  iszero\n  tag_42\n  jumpi\n    /* \"#utility.yul\":1246:1247   */\n  0x00\n    /* \"#utility.yul\":1243:1244   */\n  dup1\n    /* \"#utility.yul\":1236:1248   */\n  revert\n    /* \"#utility.yul\":1200:1202   */\ntag_42:\n    /* \"#utility.yul\":1274:1348   */\n  tag_43\n    /* \"#utility.yul\":1340:1347   */\n  dup6\n    /* \"#utility.yul\":1331:1337   */\n  dup3\n    /* \"#utility.yul\":1320:1329   */\n  dup7\n    /* \"#utility.yul\":1316:1338   */\n  add\n    /* \"#utility.yul\":1274:1348   */\n  tag_35\n  jump\t// in\ntag_43:\n    /* \"#utility.yul\":1264:1348   */\n  swap2\n  pop\n    /* \"#utility.yul\":1133:1358   */\n  pop\n    /* \"#utility.yul\":924:1365   */\n  swap3\n  pop\n  swap3\n  swap1\n  pop\n  jump\t// out\n    /* \"#utility.yul\":1371:1654   */\ntag_27:\n  0x00\n    /* \"#utility.yul\":1437:1439   */\n  0x40\n    /* \"#utility.yul\":1431:1440   */\n  mload\n    /* \"#utility.yul\":1421:1440   */\n  swap1\n  pop\n    /* \"#utility.yul\":1479:1483   */\n  dup2\n    /* \"#utility.yul\":1471:1477   */\n  dup2\n    /* \"#utility.yul\":1467:1484   */\n  add\n    /* \"#utility.yul\":1586:1592   */\n  dup2\n    /* \"#utility.yul\":1574:1584   */\n  dup2\n    /* \"#utility.yul\":1571:1593   */\n  lt\n    /* \"#utility.yul\":1550:1568   */\n  0xffffffffffffffff\n    /* \"#utility.yul\":1538:1548   */\n  dup3\n    /* \"#utility.yul\":1535:1569   */\n  gt\n    /* \"#utility.yul\":1532:1594   */\n  or\n    /* \"#utility.yul\":1529:1531   */\n  iszero\n  tag_45\n  jumpi\n    /* \"#utility.yul\":1597:1615   */\n  tag_46\n  tag_47\n  jump\t// in\ntag_46:\n    /* \"#utility.yul\":1529:1531   */\ntag_45:\n    /* \"#utility.yul\":1637:1647   */\n  dup1\n    /* \"#utility.yul\":1633:1635   */\n  0x40\n    /* \"#utility.yul\":1626:1648   */\n  mstore\n    /* \"#utility.yul\":1411:1654   */\n  pop\n  swap2\n  swap1\n  pop\n  jump\t// out\n    /* \"#utility.yul\":1660:1992   */\ntag_26:\n  0x00\n    /* \"#utility.yul\":1812:1830   */\n  0xffffffffffffffff\n    /* \"#utility.yul\":1804:1810   */\n  dup3\n    /* \"#utility.yul\":1801:1831   */\n  gt\n    /* \"#utility.yul\":1798:1800   */\n  iszero\n  tag_49\n  jumpi\n    /* \"#utility.yul\":1834:1852   */\n  tag_50\n  tag_47\n  jump\t// in\ntag_50:\n    /* \"#utility.yul\":1798:1800   */\ntag_49:\n    /* \"#utility.yul\":1919:1923   */\n  0x1f\n    /* \"#utility.yul\":1915:1924   */\n  not\n    /* \"#utility.yul\":1908:1912   */\n  0x1f\n    /* \"#utility.yul\":1900:1906   */\n  dup4\n    /* \"#utility.yul\":1896:1913   */\n  add\n    /* \"#utility.yul\":1892:1925   */\n  and\n    /* \"#utility.yul\":1884:1925   */\n  swap1\n  pop\n    /* \"#utility.yul\":1980:1984   */\n  0x20\n    /* \"#utility.yul\":1974:1978   */\n  dup2\n    /* \"#utility.yul\":1970:1985   */\n  add\n    /* \"#utility.yul\":1962:1985   */\n  swap1\n  pop\n    /* \"#utility.yul\":1727:1992   */\n  swap2\n  swap1\n  pop\n  jump\t// out\n    /* \"#utility.yul\":1998:2074   */\ntag_51:\n  0x00\n    /* \"#utility.yul\":2063:2068   */\n  dup2\n    /* \"#utility.yul\":2052:2068   */\n  swap1\n  pop\n    /* \"#utility.yul\":2042:2074   */\n  swap2\n  swap1\n  pop\n  jump\t// out\n    /* \"#utility.yul\":2080:2387   */\ntag_30:\n    /* \"#utility.yul\":2148:2149   */\n  0x00\n    /* \"#utility.yul\":2158:2271   */\ntag_54:\n    /* \"#utility.yul\":2172:2178   */\n  dup4\n    /* \"#utility.yul\":2169:2170   */\n  dup2\n    /* \"#utility.yul\":2166:2179   */\n  lt\n    /* \"#utility.yul\":2158:2271   */\n  iszero\n  tag_56\n  jumpi\n    /* \"#utility.yul\":2257:2258   */\n  dup1\n    /* \"#utility.yul\":2252:2255   */\n  dup3\n    /* \"#utility.yul\":2248:2259   */\n  add\n    /* \"#utility.yul\":2242:2260   */\n  mload\n    /* \"#utility.yul\":2238:2239   */\n  dup2\n    /* \"#utility.yul\":2233:2236   */\n  dup5\n    /* \"#utility.yul\":2229:2240   */\n  add\n    /* \"#utility.yul\":2222:2261   */\n  mstore\n    /* \"#utility.yul\":2194:2196   */\n  0x20\n    /* \"#utility.yul\":2191:2192   */\n  dup2\n    /* \"#utility.yul\":2187:2197   */\n  add\n    /* \"#utility.yul\":2182:2197   */\n  swap1\n  pop\n    /* \"#utility.yul\":2158:2271   */\n  jump(tag_54)\ntag_56:\n    /* \"#utility.yul\":2289:2295   */\n  dup4\n    /* \"#utility.yul\":2286:2287   */\n  dup2\n    /* \"#utility.yul\":2283:2296   */\n  gt\n    /* \"#utility.yul\":2280:2282   */\n  iszero\n  tag_57\n  jumpi\n    /* \"#utility.yul\":2369:2370   */\n  0x00\n    /* \"#utility.yul\":2360:2366   */\n  dup5\n    /* \"#utility.yul\":2355:2358   */\n  dup5\n    /* \"#utility.yul\":2351:2367   */\n  add\n    /* \"#utility.yul\":2344:2371   */\n  mstore\n    /* \"#utility.yul\":2280:2282   */\ntag_57:\n    /* \"#utility.yul\":2129:2387   */\n  pop\n  pop\n  pop\n  pop\n  jump\t// out\n    /* \"#utility.yul\":2393:2713   */\ntag_11:\n  0x00\n    /* \"#utility.yul\":2474:2475   */\n  0x02\n    /* \"#utility.yul\":2468:2472   */\n  dup3\n    /* \"#utility.yul\":2464:2476   */\n  div\n    /* \"#utility.yul\":2454:2476   */\n  swap1\n  pop\n    /* \"#utility.yul\":2521:2522   */\n  0x01\n    /* \"#utility.yul\":2515:2519   */\n  dup3\n    /* \"#utility.yul\":2511:2523   */\n  and\n    /* \"#utility.yul\":2542:2560   */\n  dup1\n    /* \"#utility.yul\":2532:2534   */\n  tag_59\n  jumpi\n    /* \"#utility.yul\":2598:2602   */\n  0x7f\n    /* \"#utility.yul\":2590:2596   */\n  dup3\n    /* \"#utility.yul\":2586:2603   */\n  and\n    /* \"#utility.yul\":2576:2603   */\n  swap2\n  pop\n    /* \"#utility.yul\":2532:2534   */\ntag_59:\n    /* \"#utility.yul\":2660:2662   */\n  0x20\n    /* \"#utility.yul\":2652:2658   */\n  dup3\n    /* \"#utility.yul\":2649:2663   */\n  lt\n    /* \"#utility.yul\":2629:2647   */\n  dup2\n    /* \"#utility.yul\":2626:2664   */\n  eq\n    /* \"#utility.yul\":2623:2625   */\n  iszero\n  tag_60\n  jumpi\n    /* \"#utility.yul\":2679:2697   */\n  tag_61\n  tag_62\n  jump\t// in\ntag_61:\n    /* \"#utility.yul\":2623:2625   */\ntag_60:\n    /* \"#utility.yul\":2444:2713   */\n  pop\n  swap2\n  swap1\n  pop\n  jump\t// out\n    /* \"#utility.yul\":2719:2899   */\ntag_62:\n    /* \"#utility.yul\":2767:2844   */\n  0x4e487b7100000000000000000000000000000000000000000000000000000000\n    /* \"#utility.yul\":2764:2765   */\n  0x00\n    /* \"#utility.yul\":2757:2845   */\n  mstore\n    /* \"#utility.yul\":2864:2868   */\n  0x22\n    /* \"#utility.yul\":2861:2862   */\n  0x04\n    /* \"#utility.yul\":2854:2869   */\n  mstore\n    /* \"#utility.yul\":2888:2892   */\n  0x24\n    /* \"#utility.yul\":2885:2886   */\n  0x00\n    /* \"#utility.yul\":2878:2893   */\n  revert\n    /* \"#utility.yul\":2905:3085   */\ntag_47:\n    /* \"#utility.yul\":2953:3030   */\n  0x4e487b7100000000000000000000000000000000000000000000000000000000\n    /* \"#utility.yul\":2950:2951   */\n  0x00\n    /* \"#utility.yul\":2943:3031   */\n  mstore\n    /* \"#utility.yul\":3050:3054   */\n  0x41\n    /* \"#utility.yul\":3047:3048   */\n  0x04\n    /* \"#utility.yul\":3040:3055   */\n  mstore\n    /* \"#utility.yul\":3074:3078   */\n  0x24\n    /* \"#utility.yul\":3071:3072   */\n  0x00\n    /* \"#utility.yul\":3064:3079   */\n  revert\n    /* \"#utility.yul\":3091:3211   */\ntag_34:\n    /* \"#utility.yul\":3163:3186   */\n  tag_66\n    /* \"#utility.yul\":3180:3185   */\n  dup2\n    /* \"#utility.yul\":3163:3186   */\n  tag_51\n  jump\t// in\ntag_66:\n    /* \"#utility.yul\":3156:3161   */\n  dup2\n    /* \"#utility.yul\":3153:3187   */\n  eq\n    /* \"#utility.yul\":3143:3145   */\n  tag_67\n  jumpi\n    /* \"#utility.yul\":3201:3202   */\n  0x00\n    /* \"#utility.yul\":3198:3199   */\n  dup1\n    /* \"#utility.yul\":3191:3203   */\n  revert\n    /* \"#utility.yul\":3143:3145   */\ntag_67:\n    /* \"#utility.yul\":3133:3211   */\n  pop\n  jump\t// out\n    /* \"contracts/newContract.sol\":63:588  contract Property {\r... */\ntag_9:\n  dataSize(sub_0)\n  dup1\n  dataOffset(sub_0)\n  0x00\n  codecopy\n  0x00\n  return\nstop\n\nsub_0: assembly {\n        /* \"contracts/newContract.sol\":63:588  contract Property {\r... */\n      mstore(0x40, 0x80)\n      callvalue\n      dup1\n      iszero\n      tag_1\n      jumpi\n      0x00\n      dup1\n      revert\n    tag_1:\n      pop\n      jumpi(tag_2, lt(calldatasize, 0x04))\n      shr(0xe0, calldataload(0x00))\n      dup1\n      0x516f279e\n      eq\n      tag_3\n      jumpi\n      dup1\n      0x827bfbdf\n      eq\n      tag_4\n      jumpi\n      dup1\n      0x8da5cb5b\n      eq\n      tag_5\n      jumpi\n      dup1\n      0xa035b1fe\n      eq\n      tag_6\n      jumpi\n      dup1\n      0xf7a30806\n      eq\n      tag_7\n      jumpi\n    tag_2:\n      0x00\n      dup1\n      revert\n        /* \"contracts/newContract.sol\":123:156  string public location = \"London\" */\n    tag_3:\n      tag_8\n      tag_9\n      jump\t// in\n    tag_8:\n      mload(0x40)\n      tag_10\n      swap2\n      swap1\n      tag_11\n      jump\t// in\n    tag_10:\n      mload(0x40)\n      dup1\n      swap2\n      sub\n      swap1\n      return\n        /* \"contracts/newContract.sol\":492:583  function setLocation(string memory _location) public{\r... */\n    tag_4:\n      tag_12\n      0x04\n      dup1\n      calldatasize\n      sub\n      dup2\n      add\n      swap1\n      tag_13\n      swap2\n      swap1\n      tag_14\n      jump\t// in\n    tag_13:\n      tag_15\n      jump\t// in\n    tag_12:\n      stop\n        /* \"contracts/newContract.sol\":163:183  address public owner */\n    tag_5:\n      tag_16\n      tag_17\n      jump\t// in\n    tag_16:\n      mload(0x40)\n      tag_18\n      swap2\n      swap1\n      tag_19\n      jump\t// in\n    tag_18:\n      mload(0x40)\n      dup1\n      swap2\n      sub\n      swap1\n      return\n        /* \"contracts/newContract.sol\":94:116  int public price = 100 */\n    tag_6:\n      tag_20\n      tag_21\n      jump\t// in\n    tag_20:\n      mload(0x40)\n      tag_22\n      swap2\n      swap1\n      tag_23\n      jump\t// in\n    tag_22:\n      mload(0x40)\n      dup1\n      swap2\n      sub\n      swap1\n      return\n        /* \"contracts/newContract.sol\":415:484  function setPrice(int _price) public{\r... */\n    tag_7:\n      tag_24\n      0x04\n      dup1\n      calldatasize\n      sub\n      dup2\n      add\n      swap1\n      tag_25\n      swap2\n      swap1\n      tag_26\n      jump\t// in\n    tag_25:\n      tag_27\n      jump\t// in\n    tag_24:\n      stop\n        /* \"contracts/newContract.sol\":123:156  string public location = \"London\" */\n    tag_9:\n      0x01\n      dup1\n      sload\n      tag_28\n      swap1\n      tag_29\n      jump\t// in\n    tag_28:\n      dup1\n      0x1f\n      add\n      0x20\n      dup1\n      swap2\n      div\n      mul\n      0x20\n      add\n      mload(0x40)\n      swap1\n      dup2\n      add\n      0x40\n      mstore\n      dup1\n      swap3\n      swap2\n      swap1\n      dup2\n      dup2\n      mstore\n      0x20\n      add\n      dup3\n      dup1\n      sload\n      tag_30\n      swap1\n      tag_29\n      jump\t// in\n    tag_30:\n      dup1\n      iszero\n      tag_31\n      jumpi\n      dup1\n      0x1f\n      lt\n      tag_32\n      jumpi\n      0x0100\n      dup1\n      dup4\n      sload\n      div\n      mul\n      dup4\n      mstore\n      swap2\n      0x20\n      add\n      swap2\n      jump(tag_31)\n    tag_32:\n      dup3\n      add\n      swap2\n      swap1\n      0x00\n      mstore\n      keccak256(0x00, 0x20)\n      swap1\n    tag_33:\n      dup2\n      sload\n      dup2\n      mstore\n      swap1\n      0x01\n      add\n      swap1\n      0x20\n      add\n      dup1\n      dup4\n      gt\n      tag_33\n      jumpi\n      dup3\n      swap1\n      sub\n      0x1f\n      and\n      dup3\n      add\n      swap2\n    tag_31:\n      pop\n      pop\n      pop\n      pop\n      pop\n      dup2\n      jump\t// out\n        /* \"contracts/newContract.sol\":492:583  function setLocation(string memory _location) public{\r... */\n    tag_15:\n        /* \"contracts/newContract.sol\":566:575  _location */\n      dup1\n        /* \"contracts/newContract.sol\":555:563  location */\n      0x01\n        /* \"contracts/newContract.sol\":555:575  location = _location */\n      swap1\n      dup1\n      mload\n      swap1\n      0x20\n      add\n      swap1\n      tag_35\n      swap3\n      swap2\n      swap1\n      tag_36\n      jump\t// in\n    tag_35:\n      pop\n        /* \"contracts/newContract.sol\":492:583  function setLocation(string memory _location) public{\r... */\n      pop\n      jump\t// out\n        /* \"contracts/newContract.sol\":163:183  address public owner */\n    tag_17:\n      0x02\n      0x00\n      swap1\n      sload\n      swap1\n      0x0100\n      exp\n      swap1\n      div\n      0xffffffffffffffffffffffffffffffffffffffff\n      and\n      dup2\n      jump\t// out\n        /* \"contracts/newContract.sol\":94:116  int public price = 100 */\n    tag_21:\n      sload(0x00)\n      dup2\n      jump\t// out\n        /* \"contracts/newContract.sol\":415:484  function setPrice(int _price) public{\r... */\n    tag_27:\n        /* \"contracts/newContract.sol\":470:476  _price */\n      dup1\n        /* \"contracts/newContract.sol\":462:467  price */\n      0x00\n        /* \"contracts/newContract.sol\":462:476  price = _price */\n      dup2\n      swap1\n      sstore\n      pop\n        /* \"contracts/newContract.sol\":415:484  function setPrice(int _price) public{\r... */\n      pop\n      jump\t// out\n    tag_36:\n      dup3\n      dup1\n      sload\n      tag_38\n      swap1\n      tag_29\n      jump\t// in\n    tag_38:\n      swap1\n      0x00\n      mstore\n      keccak256(0x00, 0x20)\n      swap1\n      0x1f\n      add\n      0x20\n      swap1\n      div\n      dup2\n      add\n      swap3\n      dup3\n      tag_40\n      jumpi\n      0x00\n      dup6\n      sstore\n      jump(tag_39)\n    tag_40:\n      dup3\n      0x1f\n      lt\n      tag_41\n      jumpi\n      dup1\n      mload\n      not(0xff)\n      and\n      dup4\n      dup1\n      add\n      or\n      dup6\n      sstore\n      jump(tag_39)\n    tag_41:\n      dup3\n      dup1\n      add\n      0x01\n      add\n      dup6\n      sstore\n      dup3\n      iszero\n      tag_39\n      jumpi\n      swap2\n      dup3\n      add\n    tag_42:\n      dup3\n      dup2\n      gt\n      iszero\n      tag_43\n      jumpi\n      dup3\n      mload\n      dup3\n      sstore\n      swap2\n      0x20\n      add\n      swap2\n      swap1\n      0x01\n      add\n      swap1\n      jump(tag_42)\n    tag_43:\n    tag_39:\n      pop\n      swap1\n      pop\n      tag_44\n      swap2\n      swap1\n      tag_45\n      jump\t// in\n    tag_44:\n      pop\n      swap1\n      jump\t// out\n    tag_45:\n    tag_46:\n      dup1\n      dup3\n      gt\n      iszero\n      tag_47\n      jumpi\n      0x00\n      dup2\n      0x00\n      swap1\n      sstore\n      pop\n      0x01\n      add\n      jump(tag_46)\n    tag_47:\n      pop\n      swap1\n      jump\t// out\n        /* \"#utility.yul\":7:351   */\n    tag_49:\n      0x00\n        /* \"#utility.yul\":110:175   */\n      tag_51\n        /* \"#utility.yul\":125:174   */\n      tag_52\n        /* \"#utility.yul\":167:173   */\n      dup5\n        /* \"#utility.yul\":125:174   */\n      tag_53\n      jump\t// in\n    tag_52:\n        /* \"#utility.yul\":110:175   */\n      tag_54\n      jump\t// in\n    tag_51:\n        /* \"#utility.yul\":101:175   */\n      swap1\n      pop\n        /* \"#utility.yul\":198:204   */\n      dup3\n        /* \"#utility.yul\":191:196   */\n      dup2\n        /* \"#utility.yul\":184:205   */\n      mstore\n        /* \"#utility.yul\":236:240   */\n      0x20\n        /* \"#utility.yul\":229:234   */\n      dup2\n        /* \"#utility.yul\":225:241   */\n      add\n        /* \"#utility.yul\":274:277   */\n      dup5\n        /* \"#utility.yul\":265:271   */\n      dup5\n        /* \"#utility.yul\":260:263   */\n      dup5\n        /* \"#utility.yul\":256:272   */\n      add\n        /* \"#utility.yul\":253:278   */\n      gt\n        /* \"#utility.yul\":250:252   */\n      iszero\n      tag_55\n      jumpi\n        /* \"#utility.yul\":291:292   */\n      0x00\n        /* \"#utility.yul\":288:289   */\n      dup1\n        /* \"#utility.yul\":281:293   */\n      revert\n        /* \"#utility.yul\":250:252   */\n    tag_55:\n        /* \"#utility.yul\":304:345   */\n      tag_56\n        /* \"#utility.yul\":338:344   */\n      dup5\n        /* \"#utility.yul\":333:336   */\n      dup3\n        /* \"#utility.yul\":328:331   */\n      dup6\n        /* \"#utility.yul\":304:345   */\n      tag_57\n      jump\t// in\n    tag_56:\n        /* \"#utility.yul\":91:351   */\n      pop\n      swap4\n      swap3\n      pop\n      pop\n      pop\n      jump\t// out\n        /* \"#utility.yul\":357:494   */\n    tag_58:\n      0x00\n        /* \"#utility.yul\":440:446   */\n      dup2\n        /* \"#utility.yul\":427:447   */\n      calldataload\n        /* \"#utility.yul\":418:447   */\n      swap1\n      pop\n        /* \"#utility.yul\":456:488   */\n      tag_60\n        /* \"#utility.yul\":482:487   */\n      dup2\n        /* \"#utility.yul\":456:488   */\n      tag_61\n      jump\t// in\n    tag_60:\n        /* \"#utility.yul\":408:494   */\n      swap3\n      swap2\n      pop\n      pop\n      jump\t// out\n        /* \"#utility.yul\":514:787   */\n    tag_62:\n      0x00\n        /* \"#utility.yul\":619:622   */\n      dup3\n        /* \"#utility.yul\":612:616   */\n      0x1f\n        /* \"#utility.yul\":604:610   */\n      dup4\n        /* \"#utility.yul\":600:617   */\n      add\n        /* \"#utility.yul\":596:623   */\n      slt\n        /* \"#utility.yul\":586:588   */\n      tag_64\n      jumpi\n        /* \"#utility.yul\":637:638   */\n      0x00\n        /* \"#utility.yul\":634:635   */\n      dup1\n        /* \"#utility.yul\":627:639   */\n      revert\n        /* \"#utility.yul\":586:588   */\n    tag_64:\n        /* \"#utility.yul\":677:683   */\n      dup2\n        /* \"#utility.yul\":664:684   */\n      calldataload\n        /* \"#utility.yul\":702:781   */\n      tag_65\n        /* \"#utility.yul\":777:780   */\n      dup5\n        /* \"#utility.yul\":769:775   */\n      dup3\n        /* \"#utility.yul\":762:766   */\n      0x20\n        /* \"#utility.yul\":754:760   */\n      dup7\n        /* \"#utility.yul\":750:767   */\n      add\n        /* \"#utility.yul\":702:781   */\n      tag_49\n      jump\t// in\n    tag_65:\n        /* \"#utility.yul\":693:781   */\n      swap2\n      pop\n        /* \"#utility.yul\":576:787   */\n      pop\n      swap3\n      swap2\n      pop\n      pop\n      jump\t// out\n        /* \"#utility.yul\":793:1053   */\n    tag_26:\n      0x00\n        /* \"#utility.yul\":900:902   */\n      0x20\n        /* \"#utility.yul\":888:897   */\n      dup3\n        /* \"#utility.yul\":879:886   */\n      dup5\n        /* \"#utility.yul\":875:898   */\n      sub\n        /* \"#utility.yul\":871:903   */\n      slt\n        /* \"#utility.yul\":868:870   */\n      iszero\n      tag_67\n      jumpi\n        /* \"#utility.yul\":916:917   */\n      0x00\n        /* \"#utility.yul\":913:914   */\n      dup1\n        /* \"#utility.yul\":906:918   */\n      revert\n        /* \"#utility.yul\":868:870   */\n    tag_67:\n        /* \"#utility.yul\":959:960   */\n      0x00\n        /* \"#utility.yul\":984:1036   */\n      tag_68\n        /* \"#utility.yul\":1028:1035   */\n      dup5\n        /* \"#utility.yul\":1019:1025   */\n      dup3\n        /* \"#utility.yul\":1008:1017   */\n      dup6\n        /* \"#utility.yul\":1004:1026   */\n      add\n        /* \"#utility.yul\":984:1036   */\n      tag_58\n      jump\t// in\n    tag_68:\n        /* \"#utility.yul\":974:1036   */\n      swap2\n      pop\n        /* \"#utility.yul\":930:1046   */\n      pop\n        /* \"#utility.yul\":858:1053   */\n      swap3\n      swap2\n      pop\n      pop\n      jump\t// out\n        /* \"#utility.yul\":1059:1434   */\n    tag_14:\n      0x00\n        /* \"#utility.yul\":1177:1179   */\n      0x20\n        /* \"#utility.yul\":1165:1174   */\n      dup3\n        /* \"#utility.yul\":1156:1163   */\n      dup5\n        /* \"#utility.yul\":1152:1175   */\n      sub\n        /* \"#utility.yul\":1148:1180   */\n      slt\n        /* \"#utility.yul\":1145:1147   */\n      iszero\n      tag_70\n      jumpi\n        /* \"#utility.yul\":1193:1194   */\n      0x00\n        /* \"#utility.yul\":1190:1191   */\n      dup1\n        /* \"#utility.yul\":1183:1195   */\n      revert\n        /* \"#utility.yul\":1145:1147   */\n    tag_70:\n        /* \"#utility.yul\":1264:1265   */\n      0x00\n        /* \"#utility.yul\":1253:1262   */\n      dup3\n        /* \"#utility.yul\":1249:1266   */\n      add\n        /* \"#utility.yul\":1236:1267   */\n      calldataload\n        /* \"#utility.yul\":1294:1312   */\n      0xffffffffffffffff\n        /* \"#utility.yul\":1286:1292   */\n      dup2\n        /* \"#utility.yul\":1283:1313   */\n      gt\n        /* \"#utility.yul\":1280:1282   */\n      iszero\n      tag_71\n      jumpi\n        /* \"#utility.yul\":1326:1327   */\n      0x00\n        /* \"#utility.yul\":1323:1324   */\n      dup1\n        /* \"#utility.yul\":1316:1328   */\n      revert\n        /* \"#utility.yul\":1280:1282   */\n    tag_71:\n        /* \"#utility.yul\":1354:1417   */\n      tag_72\n        /* \"#utility.yul\":1409:1416   */\n      dup5\n        /* \"#utility.yul\":1400:1406   */\n      dup3\n        /* \"#utility.yul\":1389:1398   */\n      dup6\n        /* \"#utility.yul\":1385:1407   */\n      add\n        /* \"#utility.yul\":1354:1417   */\n      tag_62\n      jump\t// in\n    tag_72:\n        /* \"#utility.yul\":1344:1417   */\n      swap2\n      pop\n        /* \"#utility.yul\":1207:1427   */\n      pop\n        /* \"#utility.yul\":1135:1434   */\n      swap3\n      swap2\n      pop\n      pop\n      jump\t// out\n        /* \"#utility.yul\":1440:1558   */\n    tag_73:\n        /* \"#utility.yul\":1527:1551   */\n      tag_75\n        /* \"#utility.yul\":1545:1550   */\n      dup2\n        /* \"#utility.yul\":1527:1551   */\n      tag_76\n      jump\t// in\n    tag_75:\n        /* \"#utility.yul\":1522:1525   */\n      dup3\n        /* \"#utility.yul\":1515:1552   */\n      mstore\n        /* \"#utility.yul\":1505:1558   */\n      pop\n      pop\n      jump\t// out\n        /* \"#utility.yul\":1564:1679   */\n    tag_77:\n        /* \"#utility.yul\":1649:1672   */\n      tag_79\n        /* \"#utility.yul\":1666:1671   */\n      dup2\n        /* \"#utility.yul\":1649:1672   */\n      tag_80\n      jump\t// in\n    tag_79:\n        /* \"#utility.yul\":1644:1647   */\n      dup3\n        /* \"#utility.yul\":1637:1673   */\n      mstore\n        /* \"#utility.yul\":1627:1679   */\n      pop\n      pop\n      jump\t// out\n        /* \"#utility.yul\":1685:2049   */\n    tag_81:\n      0x00\n        /* \"#utility.yul\":1801:1840   */\n      tag_83\n        /* \"#utility.yul\":1834:1839   */\n      dup3\n        /* \"#utility.yul\":1801:1840   */\n      tag_84\n      jump\t// in\n    tag_83:\n        /* \"#utility.yul\":1856:1927   */\n      tag_85\n        /* \"#utility.yul\":1920:1926   */\n      dup2\n        /* \"#utility.yul\":1915:1918   */\n      dup6\n        /* \"#utility.yul\":1856:1927   */\n      tag_86\n      jump\t// in\n    tag_85:\n        /* \"#utility.yul\":1849:1927   */\n      swap4\n      pop\n        /* \"#utility.yul\":1936:1988   */\n      tag_87\n        /* \"#utility.yul\":1981:1987   */\n      dup2\n        /* \"#utility.yul\":1976:1979   */\n      dup6\n        /* \"#utility.yul\":1969:1973   */\n      0x20\n        /* \"#utility.yul\":1962:1967   */\n      dup7\n        /* \"#utility.yul\":1958:1974   */\n      add\n        /* \"#utility.yul\":1936:1988   */\n      tag_88\n      jump\t// in\n    tag_87:\n        /* \"#utility.yul\":2013:2042   */\n      tag_89\n        /* \"#utility.yul\":2035:2041   */\n      dup2\n        /* \"#utility.yul\":2013:2042   */\n      tag_90\n      jump\t// in\n    tag_89:\n        /* \"#utility.yul\":2008:2011   */\n      dup5\n        /* \"#utility.yul\":2004:2043   */\n      add\n        /* \"#utility.yul\":1997:2043   */\n      swap2\n      pop\n        /* \"#utility.yul\":1777:2049   */\n      pop\n      swap3\n      swap2\n      pop\n      pop\n      jump\t// out\n        /* \"#utility.yul\":2055:2277   */\n    tag_19:\n      0x00\n        /* \"#utility.yul\":2186:2188   */\n      0x20\n        /* \"#utility.yul\":2175:2184   */\n      dup3\n        /* \"#utility.yul\":2171:2189   */\n      add\n        /* \"#utility.yul\":2163:2189   */\n      swap1\n      pop\n        /* \"#utility.yul\":2199:2270   */\n      tag_92\n        /* \"#utility.yul\":2267:2268   */\n      0x00\n        /* \"#utility.yul\":2256:2265   */\n      dup4\n        /* \"#utility.yul\":2252:2269   */\n      add\n        /* \"#utility.yul\":2243:2249   */\n      dup5\n        /* \"#utility.yul\":2199:2270   */\n      tag_73\n      jump\t// in\n    tag_92:\n        /* \"#utility.yul\":2153:2277   */\n      swap3\n      swap2\n      pop\n      pop\n      jump\t// out\n        /* \"#utility.yul\":2283:2501   */\n    tag_23:\n      0x00\n        /* \"#utility.yul\":2412:2414   */\n      0x20\n        /* \"#utility.yul\":2401:2410   */\n      dup3\n        /* \"#utility.yul\":2397:2415   */\n      add\n        /* \"#utility.yul\":2389:2415   */\n      swap1\n      pop\n        /* \"#utility.yul\":2425:2494   */\n      tag_94\n        /* \"#utility.yul\":2491:2492   */\n      0x00\n        /* \"#utility.yul\":2480:2489   */\n      dup4\n        /* \"#utility.yul\":2476:2493   */\n      add\n        /* \"#utility.yul\":2467:2473   */\n      dup5\n        /* \"#utility.yul\":2425:2494   */\n      tag_77\n      jump\t// in\n    tag_94:\n        /* \"#utility.yul\":2379:2501   */\n      swap3\n      swap2\n      pop\n      pop\n      jump\t// out\n        /* \"#utility.yul\":2507:2820   */\n    tag_11:\n      0x00\n        /* \"#utility.yul\":2658:2660   */\n      0x20\n        /* \"#utility.yul\":2647:2656   */\n      dup3\n        /* \"#utility.yul\":2643:2661   */\n      add\n        /* \"#utility.yul\":2635:2661   */\n      swap1\n      pop\n        /* \"#utility.yul\":2707:2716   */\n      dup2\n        /* \"#utility.yul\":2701:2705   */\n      dup2\n        /* \"#utility.yul\":2697:2717   */\n      sub\n        /* \"#utility.yul\":2693:2694   */\n      0x00\n        /* \"#utility.yul\":2682:2691   */\n      dup4\n        /* \"#utility.yul\":2678:2695   */\n      add\n        /* \"#utility.yul\":2671:2718   */\n      mstore\n        /* \"#utility.yul\":2735:2813   */\n      tag_96\n        /* \"#utility.yul\":2808:2812   */\n      dup2\n        /* \"#utility.yul\":2799:2805   */\n      dup5\n        /* \"#utility.yul\":2735:2813   */\n      tag_81\n      jump\t// in\n    tag_96:\n        /* \"#utility.yul\":2727:2813   */\n      swap1\n      pop\n        /* \"#utility.yul\":2625:2820   */\n      swap3\n      swap2\n      pop\n      pop\n      jump\t// out\n        /* \"#utility.yul\":2826:3109   */\n    tag_54:\n      0x00\n        /* \"#utility.yul\":2892:2894   */\n      0x40\n        /* \"#utility.yul\":2886:2895   */\n      mload\n        /* \"#utility.yul\":2876:2895   */\n      swap1\n      pop\n        /* \"#utility.yul\":2934:2938   */\n      dup2\n        /* \"#utility.yul\":2926:2932   */\n      dup2\n        /* \"#utility.yul\":2922:2939   */\n      add\n        /* \"#utility.yul\":3041:3047   */\n      dup2\n        /* \"#utility.yul\":3029:3039   */\n      dup2\n        /* \"#utility.yul\":3026:3048   */\n      lt\n        /* \"#utility.yul\":3005:3023   */\n      0xffffffffffffffff\n        /* \"#utility.yul\":2993:3003   */\n      dup3\n        /* \"#utility.yul\":2990:3024   */\n      gt\n        /* \"#utility.yul\":2987:3049   */\n      or\n        /* \"#utility.yul\":2984:2986   */\n      iszero\n      tag_98\n      jumpi\n        /* \"#utility.yul\":3052:3070   */\n      tag_99\n      tag_100\n      jump\t// in\n    tag_99:\n        /* \"#utility.yul\":2984:2986   */\n    tag_98:\n        /* \"#utility.yul\":3092:3102   */\n      dup1\n        /* \"#utility.yul\":3088:3090   */\n      0x40\n        /* \"#utility.yul\":3081:3103   */\n      mstore\n        /* \"#utility.yul\":2866:3109   */\n      pop\n      swap2\n      swap1\n      pop\n      jump\t// out\n        /* \"#utility.yul\":3115:3447   */\n    tag_53:\n      0x00\n        /* \"#utility.yul\":3267:3285   */\n      0xffffffffffffffff\n        /* \"#utility.yul\":3259:3265   */\n      dup3\n        /* \"#utility.yul\":3256:3286   */\n      gt\n        /* \"#utility.yul\":3253:3255   */\n      iszero\n      tag_102\n      jumpi\n        /* \"#utility.yul\":3289:3307   */\n      tag_103\n      tag_100\n      jump\t// in\n    tag_103:\n        /* \"#utility.yul\":3253:3255   */\n    tag_102:\n        /* \"#utility.yul\":3374:3378   */\n      0x1f\n        /* \"#utility.yul\":3370:3379   */\n      not\n        /* \"#utility.yul\":3363:3367   */\n      0x1f\n        /* \"#utility.yul\":3355:3361   */\n      dup4\n        /* \"#utility.yul\":3351:3368   */\n      add\n        /* \"#utility.yul\":3347:3380   */\n      and\n        /* \"#utility.yul\":3339:3380   */\n      swap1\n      pop\n        /* \"#utility.yul\":3435:3439   */\n      0x20\n        /* \"#utility.yul\":3429:3433   */\n      dup2\n        /* \"#utility.yul\":3425:3440   */\n      add\n        /* \"#utility.yul\":3417:3440   */\n      swap1\n      pop\n        /* \"#utility.yul\":3182:3447   */\n      swap2\n      swap1\n      pop\n      jump\t// out\n        /* \"#utility.yul\":3453:3552   */\n    tag_84:\n      0x00\n        /* \"#utility.yul\":3539:3544   */\n      dup2\n        /* \"#utility.yul\":3533:3545   */\n      mload\n        /* \"#utility.yul\":3523:3545   */\n      swap1\n      pop\n        /* \"#utility.yul\":3512:3552   */\n      swap2\n      swap1\n      pop\n      jump\t// out\n        /* \"#utility.yul\":3558:3727   */\n    tag_86:\n      0x00\n        /* \"#utility.yul\":3676:3682   */\n      dup3\n        /* \"#utility.yul\":3671:3674   */\n      dup3\n        /* \"#utility.yul\":3664:3683   */\n      mstore\n        /* \"#utility.yul\":3716:3720   */\n      0x20\n        /* \"#utility.yul\":3711:3714   */\n      dup3\n        /* \"#utility.yul\":3707:3721   */\n      add\n        /* \"#utility.yul\":3692:3721   */\n      swap1\n      pop\n        /* \"#utility.yul\":3654:3727   */\n      swap3\n      swap2\n      pop\n      pop\n      jump\t// out\n        /* \"#utility.yul\":3733:3829   */\n    tag_76:\n      0x00\n        /* \"#utility.yul\":3799:3823   */\n      tag_107\n        /* \"#utility.yul\":3817:3822   */\n      dup3\n        /* \"#utility.yul\":3799:3823   */\n      tag_108\n      jump\t// in\n    tag_107:\n        /* \"#utility.yul\":3788:3823   */\n      swap1\n      pop\n        /* \"#utility.yul\":3778:3829   */\n      swap2\n      swap1\n      pop\n      jump\t// out\n        /* \"#utility.yul\":3835:3911   */\n    tag_80:\n      0x00\n        /* \"#utility.yul\":3900:3905   */\n      dup2\n        /* \"#utility.yul\":3889:3905   */\n      swap1\n      pop\n        /* \"#utility.yul\":3879:3911   */\n      swap2\n      swap1\n      pop\n      jump\t// out\n        /* \"#utility.yul\":3917:4043   */\n    tag_108:\n      0x00\n        /* \"#utility.yul\":3994:4036   */\n      0xffffffffffffffffffffffffffffffffffffffff\n        /* \"#utility.yul\":3987:3992   */\n      dup3\n        /* \"#utility.yul\":3983:4037   */\n      and\n        /* \"#utility.yul\":3972:4037   */\n      swap1\n      pop\n        /* \"#utility.yul\":3962:4043   */\n      swap2\n      swap1\n      pop\n      jump\t// out\n        /* \"#utility.yul\":4049:4203   */\n    tag_57:\n        /* \"#utility.yul\":4133:4139   */\n      dup3\n        /* \"#utility.yul\":4128:4131   */\n      dup2\n        /* \"#utility.yul\":4123:4126   */\n      dup4\n        /* \"#utility.yul\":4110:4140   */\n      calldatacopy\n        /* \"#utility.yul\":4195:4196   */\n      0x00\n        /* \"#utility.yul\":4186:4192   */\n      dup4\n        /* \"#utility.yul\":4181:4184   */\n      dup4\n        /* \"#utility.yul\":4177:4193   */\n      add\n        /* \"#utility.yul\":4170:4197   */\n      mstore\n        /* \"#utility.yul\":4100:4203   */\n      pop\n      pop\n      pop\n      jump\t// out\n        /* \"#utility.yul\":4209:4516   */\n    tag_88:\n        /* \"#utility.yul\":4277:4278   */\n      0x00\n        /* \"#utility.yul\":4287:4400   */\n    tag_113:\n        /* \"#utility.yul\":4301:4307   */\n      dup4\n        /* \"#utility.yul\":4298:4299   */\n      dup2\n        /* \"#utility.yul\":4295:4308   */\n      lt\n        /* \"#utility.yul\":4287:4400   */\n      iszero\n      tag_115\n      jumpi\n        /* \"#utility.yul\":4386:4387   */\n      dup1\n        /* \"#utility.yul\":4381:4384   */\n      dup3\n        /* \"#utility.yul\":4377:4388   */\n      add\n        /* \"#utility.yul\":4371:4389   */\n      mload\n        /* \"#utility.yul\":4367:4368   */\n      dup2\n        /* \"#utility.yul\":4362:4365   */\n      dup5\n        /* \"#utility.yul\":4358:4369   */\n      add\n        /* \"#utility.yul\":4351:4390   */\n      mstore\n        /* \"#utility.yul\":4323:4325   */\n      0x20\n        /* \"#utility.yul\":4320:4321   */\n      dup2\n        /* \"#utility.yul\":4316:4326   */\n      add\n        /* \"#utility.yul\":4311:4326   */\n      swap1\n      pop\n        /* \"#utility.yul\":4287:4400   */\n      jump(tag_113)\n    tag_115:\n        /* \"#utility.yul\":4418:4424   */\n      dup4\n        /* \"#utility.yul\":4415:4416   */\n      dup2\n        /* \"#utility.yul\":4412:4425   */\n      gt\n        /* \"#utility.yul\":4409:4411   */\n      iszero\n      tag_116\n      jumpi\n        /* \"#utility.yul\":4498:4499   */\n      0x00\n        /* \"#utility.yul\":4489:4495   */\n      dup5\n        /* \"#utility.yul\":4484:4487   */\n      dup5\n        /* \"#utility.yul\":4480:4496   */\n      add\n        /* \"#utility.yul\":4473:4500   */\n      mstore\n        /* \"#utility.yul\":4409:4411   */\n    tag_116:\n        /* \"#utility.yul\":4258:4516   */\n      pop\n      pop\n      pop\n      pop\n      jump\t// out\n        /* \"#utility.yul\":4522:4842   */\n    tag_29:\n      0x00\n        /* \"#utility.yul\":4603:4604   */\n      0x02\n        /* \"#utility.yul\":4597:4601   */\n      dup3\n        /* \"#utility.yul\":4593:4605   */\n      div\n        /* \"#utility.yul\":4583:4605   */\n      swap1\n      pop\n        /* \"#utility.yul\":4650:4651   */\n      0x01\n        /* \"#utility.yul\":4644:4648   */\n      dup3\n        /* \"#utility.yul\":4640:4652   */\n      and\n        /* \"#utility.yul\":4671:4689   */\n      dup1\n        /* \"#utility.yul\":4661:4663   */\n      tag_118\n      jumpi\n        /* \"#utility.yul\":4727:4731   */\n      0x7f\n        /* \"#utility.yul\":4719:4725   */\n      dup3\n        /* \"#utility.yul\":4715:4732   */\n      and\n        /* \"#utility.yul\":4705:4732   */\n      swap2\n      pop\n        /* \"#utility.yul\":4661:4663   */\n    tag_118:\n        /* \"#utility.yul\":4789:4791   */\n      0x20\n        /* \"#utility.yul\":4781:4787   */\n      dup3\n        /* \"#utility.yul\":4778:4792   */\n      lt\n        /* \"#utility.yul\":4758:4776   */\n      dup2\n        /* \"#utility.yul\":4755:4793   */\n      eq\n        /* \"#utility.yul\":4752:4754   */\n      iszero\n      tag_119\n      jumpi\n        /* \"#utility.yul\":4808:4826   */\n      tag_120\n      tag_121\n      jump\t// in\n    tag_120:\n        /* \"#utility.yul\":4752:4754   */\n    tag_119:\n        /* \"#utility.yul\":4573:4842   */\n      pop\n      swap2\n      swap1\n      pop\n      jump\t// out\n        /* \"#utility.yul\":4848:5028   */\n    tag_121:\n        /* \"#utility.yul\":4896:4973   */\n      0x4e487b7100000000000000000000000000000000000000000000000000000000\n        /* \"#utility.yul\":4893:4894   */\n      0x00\n        /* \"#utility.yul\":4886:4974   */\n      mstore\n        /* \"#utility.yul\":4993:4997   */\n      0x22\n        /* \"#utility.yul\":4990:4991   */\n      0x04\n        /* \"#utility.yul\":4983:4998   */\n      mstore\n        /* \"#utility.yul\":5017:5021   */\n      0x24\n        /* \"#utility.yul\":5014:5015   */\n      0x00\n        /* \"#utility.yul\":5007:5022   */\n      revert\n        /* \"#utility.yul\":5034:5214   */\n    tag_100:\n        /* \"#utility.yul\":5082:5159   */\n      0x4e487b7100000000000000000000000000000000000000000000000000000000\n        /* \"#utility.yul\":5079:5080   */\n      0x00\n        /* \"#utility.yul\":5072:5160   */\n      mstore\n        /* \"#utility.yul\":5179:5183   */\n      0x41\n        /* \"#utility.yul\":5176:5177   */\n      0x04\n        /* \"#utility.yul\":5169:5184   */\n      mstore\n        /* \"#utility.yul\":5203:5207   */\n      0x24\n        /* \"#utility.yul\":5200:5201   */\n      0x00\n        /* \"#utility.yul\":5193:5208   */\n      revert\n        /* \"#utility.yul\":5220:5322   */\n    tag_90:\n      0x00\n        /* \"#utility.yul\":5312:5314   */\n      0x1f\n        /* \"#utility.yul\":5308:5315   */\n      not\n        /* \"#utility.yul\":5303:5305   */\n      0x1f\n        /* \"#utility.yul\":5296:5301   */\n      dup4\n        /* \"#utility.yul\":5292:5306   */\n      add\n        /* \"#utility.yul\":5288:5316   */\n      and\n        /* \"#utility.yul\":5278:5316   */\n      swap1\n      pop\n        /* \"#utility.yul\":5268:5322   */\n      swap2\n      swap1\n      pop\n      jump\t// out\n        /* \"#utility.yul\":5328:5448   */\n    tag_61:\n        /* \"#utility.yul\":5400:5423   */\n      tag_126\n        /* \"#utility.yul\":5417:5422   */\n      dup2\n        /* \"#utility.yul\":5400:5423   */\n      tag_80\n      jump\t// in\n    tag_126:\n        /* \"#utility.yul\":5393:5398   */\n      dup2\n        /* \"#utility.yul\":5390:5424   */\n      eq\n        /* \"#utility.yul\":5380:5382   */\n      tag_127\n      jumpi\n        /* \"#utility.yul\":5438:5439   */\n      0x00\n        /* \"#utility.yul\":5435:5436   */\n      dup1\n        /* \"#utility.yul\":5428:5440   */\n      revert\n        /* \"#utility.yul\":5380:5382   */\n    tag_127:\n        /* \"#utility.yul\":5370:5448   */\n      pop\n      jump\t// out\n\n    auxdata: 0xa26469706673582212206e89a6a079a27f911ce5bac60463bc524e880c6a34eb6ea95a8bdd14905739c364736f6c63430008000033\n}\n",
				"bytecode": {
					"linkReferences": {},
					"object": "608060405260646000556040518060400160405280600681526020017f4c6f6e646f6e00000000000000000000000000000000000000000000000000008152506001908051906020019062000056929190620000f3565b503480156200006457600080fd5b50604051620009d9380380620009d983398181016040528101906200008a91906200022c565b816000819055508060019080519060200190620000a9929190620000f3565b5033600260006101000a81548173ffffffffffffffffffffffffffffffffffffffff021916908373ffffffffffffffffffffffffffffffffffffffff1602179055505050620003db565b82805462000101906200032d565b90600052602060002090601f01602090048101928262000125576000855562000171565b82601f106200014057805160ff191683800117855562000171565b8280016001018555821562000171579182015b828111156200017057825182559160200191906001019062000153565b5b50905062000180919062000184565b5090565b5b808211156200019f57600081600090555060010162000185565b5090565b6000620001ba620001b484620002ba565b62000286565b905082815260208101848484011115620001d357600080fd5b620001e0848285620002f7565b509392505050565b600081519050620001f981620003c1565b92915050565b600082601f8301126200021157600080fd5b815162000223848260208601620001a3565b91505092915050565b600080604083850312156200024057600080fd5b60006200025085828601620001e8565b925050602083015167ffffffffffffffff8111156200026e57600080fd5b6200027c85828601620001ff565b9150509250929050565b6000604051905081810181811067ffffffffffffffff82111715620002b057620002af62000392565b5b8060405250919050565b600067ffffffffffffffff821115620002d857620002d762000392565b5b601f19601f8301169050602081019050919050565b6000819050919050565b60005b8381101562000317578082015181840152602081019050620002fa565b8381111562000327576000848401525b50505050565b600060028204905060018216806200034657607f821691505b602082108114156200035d576200035c62000363565b5b50919050565b7f4e487b7100000000000000000000000000000000000000000000000000000000600052602260045260246000fd5b7f4e487b7100000000000000000000000000000000000000000000000000000000600052604160045260246000fd5b620003cc81620002ed565b8114620003d857600080fd5b50565b6105ee80620003eb6000396000f3fe608060405234801561001057600080fd5b50600436106100575760003560e01c8063516f279e1461005c578063827bfbdf1461007a5780638da5cb5b14610096578063a035b1fe146100b4578063f7a30806146100d2575b600080fd5b6100646100ee565b60405161007191906103e3565b60405180910390f35b610094600480360381019061008f9190610315565b61017c565b005b61009e610196565b6040516100ab91906103ad565b60405180910390f35b6100bc6101bc565b6040516100c991906103c8565b60405180910390f35b6100ec60048036038101906100e791906102ec565b6101c2565b005b600180546100fb90610500565b80601f016020809104026020016040519081016040528092919081815260200182805461012790610500565b80156101745780601f1061014957610100808354040283529160200191610174565b820191906000526020600020905b81548152906001019060200180831161015757829003601f168201915b505050505081565b80600190805190602001906101929291906101cc565b5050565b600260009054906101000a900473ffffffffffffffffffffffffffffffffffffffff1681565b60005481565b8060008190555050565b8280546101d890610500565b90600052602060002090601f0160209004810192826101fa5760008555610241565b82601f1061021357805160ff1916838001178555610241565b82800160010185558215610241579182015b82811115610240578251825591602001919060010190610225565b5b50905061024e9190610252565b5090565b5b8082111561026b576000816000905550600101610253565b5090565b600061028261027d84610436565b610405565b90508281526020810184848401111561029a57600080fd5b6102a58482856104be565b509392505050565b6000813590506102bc816105a1565b92915050565b600082601f8301126102d357600080fd5b81356102e384826020860161026f565b91505092915050565b6000602082840312156102fe57600080fd5b600061030c848285016102ad565b91505092915050565b60006020828403121561032757600080fd5b600082013567ffffffffffffffff81111561034157600080fd5b61034d848285016102c2565b91505092915050565b61035f81610482565b82525050565b61036e81610494565b82525050565b600061037f82610466565b6103898185610471565b93506103998185602086016104cd565b6103a281610590565b840191505092915050565b60006020820190506103c26000830184610356565b92915050565b60006020820190506103dd6000830184610365565b92915050565b600060208201905081810360008301526103fd8184610374565b905092915050565b6000604051905081810181811067ffffffffffffffff8211171561042c5761042b610561565b5b8060405250919050565b600067ffffffffffffffff82111561045157610450610561565b5b601f19601f8301169050602081019050919050565b600081519050919050565b600082825260208201905092915050565b600061048d8261049e565b9050919050565b6000819050919050565b600073ffffffffffffffffffffffffffffffffffffffff82169050919050565b82818337600083830152505050565b60005b838110156104eb5780820151818401526020810190506104d0565b838111156104fa576000848401525b50505050565b6000600282049050600182168061051857607f821691505b6020821081141561052c5761052b610532565b5b50919050565b7f4e487b7100000000000000000000000000000000000000000000000000000000600052602260045260246000fd5b7f4e487b7100000000000000000000000000000000000000000000000000000000600052604160045260246000fd5b6000601f19601f8301169050919050565b6105aa81610494565b81146105b557600080fd5b5056fea26469706673582212206e89a6a079a27f911ce5bac60463bc524e880c6a34eb6ea95a8bdd14905739c364736f6c63430008000033",
					"opcodes": "PUSH1 0x80 PUSH1 0x40 MSTORE PUSH1 0x64 PUSH1 0x0 SSTORE PUSH1 0x40 MLOAD DUP1 PUSH1 0x40 ADD PUSH1 0x40 MSTORE DUP1 PUSH1 0x6 DUP2 MSTORE PUSH1 0x20 ADD PUSH32 0x4C6F6E646F6E0000000000000000000000000000000000000000000000000000 DUP2 MSTORE POP PUSH1 0x1 SWAP1 DUP1 MLOAD SWAP1 PUSH1 0x20 ADD SWAP1 PUSH3 0x56 SWAP3 SWAP2 SWAP1 PUSH3 0xF3 JUMP JUMPDEST POP CALLVALUE DUP1 ISZERO PUSH3 0x64 JUMPI PUSH1 0x0 DUP1 REVERT JUMPDEST POP PUSH1 0x40 MLOAD PUSH3 0x9D9 CODESIZE SUB DUP1 PUSH3 0x9D9 DUP4 CODECOPY DUP2 DUP2 ADD PUSH1 0x40 MSTORE DUP2 ADD SWAP1 PUSH3 0x8A SWAP2 SWAP1 PUSH3 0x22C JUMP JUMPDEST DUP2 PUSH1 0x0 DUP2 SWAP1 SSTORE POP DUP1 PUSH1 0x1 SWAP1 DUP1 MLOAD SWAP1 PUSH1 0x20 ADD SWAP1 PUSH3 0xA9 SWAP3 SWAP2 SWAP1 PUSH3 0xF3 JUMP JUMPDEST POP CALLER PUSH1 0x2 PUSH1 0x0 PUSH2 0x100 EXP DUP2 SLOAD DUP2 PUSH20 0xFFFFFFFFFFFFFFFFFFFFFFFFFFFFFFFFFFFFFFFF MUL NOT AND SWAP1 DUP4 PUSH20 0xFFFFFFFFFFFFFFFFFFFFFFFFFFFFFFFFFFFFFFFF AND MUL OR SWAP1 SSTORE POP POP POP PUSH3 0x3DB JUMP JUMPDEST DUP3 DUP1 SLOAD PUSH3 0x101 SWAP1 PUSH3 0x32D JUMP JUMPDEST SWAP1 PUSH1 0x0 MSTORE PUSH1 0x20 PUSH1 0x0 KECCAK256 SWAP1 PUSH1 0x1F ADD PUSH1 0x20 SWAP1 DIV DUP2 ADD SWAP3 DUP3 PUSH3 0x125 JUMPI PUSH1 0x0 DUP6 SSTORE PUSH3 0x171 JUMP JUMPDEST DUP3 PUSH1 0x1F LT PUSH3 0x140 JUMPI DUP1 MLOAD PUSH1 0xFF NOT AND DUP4 DUP1 ADD OR DUP6 SSTORE PUSH3 0x171 JUMP JUMPDEST DUP3 DUP1 ADD PUSH1 0x1 ADD DUP6 SSTORE DUP3 ISZERO PUSH3 0x171 JUMPI SWAP2 DUP3 ADD JUMPDEST DUP3 DUP2 GT ISZERO PUSH3 0x170 JUMPI DUP3 MLOAD DUP3 SSTORE SWAP2 PUSH1 0x20 ADD SWAP2 SWAP1 PUSH1 0x1 ADD SWAP1 PUSH3 0x153 JUMP JUMPDEST JUMPDEST POP SWAP1 POP PUSH3 0x180 SWAP2 SWAP1 PUSH3 0x184 JUMP JUMPDEST POP SWAP1 JUMP JUMPDEST JUMPDEST DUP1 DUP3 GT ISZERO PUSH3 0x19F JUMPI PUSH1 0x0 DUP2 PUSH1 0x0 SWAP1 SSTORE POP PUSH1 0x1 ADD PUSH3 0x185 JUMP JUMPDEST POP SWAP1 JUMP JUMPDEST PUSH1 0x0 PUSH3 0x1BA PUSH3 0x1B4 DUP5 PUSH3 0x2BA JUMP JUMPDEST PUSH3 0x286 JUMP JUMPDEST SWAP1 POP DUP3 DUP2 MSTORE PUSH1 0x20 DUP2 ADD DUP5 DUP5 DUP5 ADD GT ISZERO PUSH3 0x1D3 JUMPI PUSH1 0x0 DUP1 REVERT JUMPDEST PUSH3 0x1E0 DUP5 DUP3 DUP6 PUSH3 0x2F7 JUMP JUMPDEST POP SWAP4 SWAP3 POP POP POP JUMP JUMPDEST PUSH1 0x0 DUP2 MLOAD SWAP1 POP PUSH3 0x1F9 DUP2 PUSH3 0x3C1 JUMP JUMPDEST SWAP3 SWAP2 POP POP JUMP JUMPDEST PUSH1 0x0 DUP3 PUSH1 0x1F DUP4 ADD SLT PUSH3 0x211 JUMPI PUSH1 0x0 DUP1 REVERT JUMPDEST DUP2 MLOAD PUSH3 0x223 DUP5 DUP3 PUSH1 0x20 DUP7 ADD PUSH3 0x1A3 JUMP JUMPDEST SWAP2 POP POP SWAP3 SWAP2 POP POP JUMP JUMPDEST PUSH1 0x0 DUP1 PUSH1 0x40 DUP4 DUP6 SUB SLT ISZERO PUSH3 0x240 JUMPI PUSH1 0x0 DUP1 REVERT JUMPDEST PUSH1 0x0 PUSH3 0x250 DUP6 DUP3 DUP7 ADD PUSH3 0x1E8 JUMP JUMPDEST SWAP3 POP POP PUSH1 0x20 DUP4 ADD MLOAD PUSH8 0xFFFFFFFFFFFFFFFF DUP2 GT ISZERO PUSH3 0x26E JUMPI PUSH1 0x0 DUP1 REVERT JUMPDEST PUSH3 0x27C DUP6 DUP3 DUP7 ADD PUSH3 0x1FF JUMP JUMPDEST SWAP2 POP POP SWAP3 POP SWAP3 SWAP1 POP JUMP JUMPDEST PUSH1 0x0 PUSH1 0x40 MLOAD SWAP1 POP DUP2 DUP2 ADD DUP2 DUP2 LT PUSH8 0xFFFFFFFFFFFFFFFF DUP3 GT OR ISZERO PUSH3 0x2B0 JUMPI PUSH3 0x2AF PUSH3 0x392 JUMP JUMPDEST JUMPDEST DUP1 PUSH1 0x40 MSTORE POP SWAP2 SWAP1 POP JUMP JUMPDEST PUSH1 0x0 PUSH8 0xFFFFFFFFFFFFFFFF DUP3 GT ISZERO PUSH3 0x2D8 JUMPI PUSH3 0x2D7 PUSH3 0x392 JUMP JUMPDEST JUMPDEST PUSH1 0x1F NOT PUSH1 0x1F DUP4 ADD AND SWAP1 POP PUSH1 0x20 DUP2 ADD SWAP1 POP SWAP2 SWAP1 POP JUMP JUMPDEST PUSH1 0x0 DUP2 SWAP1 POP SWAP2 SWAP1 POP JUMP JUMPDEST PUSH1 0x0 JUMPDEST DUP4 DUP2 LT ISZERO PUSH3 0x317 JUMPI DUP1 DUP3 ADD MLOAD DUP2 DUP5 ADD MSTORE PUSH1 0x20 DUP2 ADD SWAP1 POP PUSH3 0x2FA JUMP JUMPDEST DUP4 DUP2 GT ISZERO PUSH3 0x327 JUMPI PUSH1 0x0 DUP5 DUP5 ADD MSTORE JUMPDEST POP POP POP POP JUMP JUMPDEST PUSH1 0x0 PUSH1 0x2 DUP3 DIV SWAP1 POP PUSH1 0x1 DUP3 AND DUP1 PUSH3 0x346 JUMPI PUSH1 0x7F DUP3 AND SWAP2 POP JUMPDEST PUSH1 0x20 DUP3 LT DUP2 EQ ISZERO PUSH3 0x35D JUMPI PUSH3 0x35C PUSH3 0x363 JUMP JUMPDEST JUMPDEST POP SWAP2 SWAP1 POP JUMP JUMPDEST PUSH32 0x4E487B7100000000000000000000000000000000000000000000000000000000 PUSH1 0x0 MSTORE PUSH1 0x22 PUSH1 0x4 MSTORE PUSH1 0x24 PUSH1 0x0 REVERT JUMPDEST PUSH32 0x4E487B7100000000000000000000000000000000000000000000000000000000 PUSH1 0x0 MSTORE PUSH1 0x41 PUSH1 0x4 MSTORE PUSH1 0x24 PUSH1 0x0 REVERT JUMPDEST PUSH3 0x3CC DUP2 PUSH3 0x2ED JUMP JUMPDEST DUP2 EQ PUSH3 0x3D8 JUMPI PUSH1 0x0 DUP1 REVERT JUMPDEST POP JUMP JUMPDEST PUSH2 0x5EE DUP1 PUSH3 0x3EB PUSH1 0x0 CODECOPY PUSH1 0x0 RETURN INVALID PUSH1 0x80 PUSH1 0x40 MSTORE CALLVALUE DUP1 ISZERO PUSH2 0x10 JUMPI PUSH1 0x0 DUP1 REVERT JUMPDEST POP PUSH1 0x4 CALLDATASIZE LT PUSH2 0x57 JUMPI PUSH1 0x0 CALLDATALOAD PUSH1 0xE0 SHR DUP1 PUSH4 0x516F279E EQ PUSH2 0x5C JUMPI DUP1 PUSH4 0x827BFBDF EQ PUSH2 0x7A JUMPI DUP1 PUSH4 0x8DA5CB5B EQ PUSH2 0x96 JUMPI DUP1 PUSH4 0xA035B1FE EQ PUSH2 0xB4 JUMPI DUP1 PUSH4 0xF7A30806 EQ PUSH2 0xD2 JUMPI JUMPDEST PUSH1 0x0 DUP1 REVERT JUMPDEST PUSH2 0x64 PUSH2 0xEE JUMP JUMPDEST PUSH1 0x40 MLOAD PUSH2 0x71 SWAP2 SWAP1 PUSH2 0x3E3 JUMP JUMPDEST PUSH1 0x40 MLOAD DUP1 SWAP2 SUB SWAP1 RETURN JUMPDEST PUSH2 0x94 PUSH1 0x4 DUP1 CALLDATASIZE SUB DUP2 ADD SWAP1 PUSH2 0x8F SWAP2 SWAP1 PUSH2 0x315 JUMP JUMPDEST PUSH2 0x17C JUMP JUMPDEST STOP JUMPDEST PUSH2 0x9E PUSH2 0x196 JUMP JUMPDEST PUSH1 0x40 MLOAD PUSH2 0xAB SWAP2 SWAP1 PUSH2 0x3AD JUMP JUMPDEST PUSH1 0x40 MLOAD DUP1 SWAP2 SUB SWAP1 RETURN JUMPDEST PUSH2 0xBC PUSH2 0x1BC JUMP JUMPDEST PUSH1 0x40 MLOAD PUSH2 0xC9 SWAP2 SWAP1 PUSH2 0x3C8 JUMP JUMPDEST PUSH1 0x40 MLOAD DUP1 SWAP2 SUB SWAP1 RETURN JUMPDEST PUSH2 0xEC PUSH1 0x4 DUP1 CALLDATASIZE SUB DUP2 ADD SWAP1 PUSH2 0xE7 SWAP2 SWAP1 PUSH2 0x2EC JUMP JUMPDEST PUSH2 0x1C2 JUMP JUMPDEST STOP JUMPDEST PUSH1 0x1 DUP1 SLOAD PUSH2 0xFB SWAP1 PUSH2 0x500 JUMP JUMPDEST DUP1 PUSH1 0x1F ADD PUSH1 0x20 DUP1 SWAP2 DIV MUL PUSH1 0x20 ADD PUSH1 0x40 MLOAD SWAP1 DUP2 ADD PUSH1 0x40 MSTORE DUP1 SWAP3 SWAP2 SWAP1 DUP2 DUP2 MSTORE PUSH1 0x20 ADD DUP3 DUP1 SLOAD PUSH2 0x127 SWAP1 PUSH2 0x500 JUMP JUMPDEST DUP1 ISZERO PUSH2 0x174 JUMPI DUP1 PUSH1 0x1F LT PUSH2 0x149 JUMPI PUSH2 0x100 DUP1 DUP4 SLOAD DIV MUL DUP4 MSTORE SWAP2 PUSH1 0x20 ADD SWAP2 PUSH2 0x174 JUMP JUMPDEST DUP3 ADD SWAP2 SWAP1 PUSH1 0x0 MSTORE PUSH1 0x20 PUSH1 0x0 KECCAK256 SWAP1 JUMPDEST DUP2 SLOAD DUP2 MSTORE SWAP1 PUSH1 0x1 ADD SWAP1 PUSH1 0x20 ADD DUP1 DUP4 GT PUSH2 0x157 JUMPI DUP3 SWAP1 SUB PUSH1 0x1F AND DUP3 ADD SWAP2 JUMPDEST POP POP POP POP POP DUP2 JUMP JUMPDEST DUP1 PUSH1 0x1 SWAP1 DUP1 MLOAD SWAP1 PUSH1 0x20 ADD SWAP1 PUSH2 0x192 SWAP3 SWAP2 SWAP1 PUSH2 0x1CC JUMP JUMPDEST POP POP JUMP JUMPDEST PUSH1 0x2 PUSH1 0x0 SWAP1 SLOAD SWAP1 PUSH2 0x100 EXP SWAP1 DIV PUSH20 0xFFFFFFFFFFFFFFFFFFFFFFFFFFFFFFFFFFFFFFFF AND DUP2 JUMP JUMPDEST PUSH1 0x0 SLOAD DUP2 JUMP JUMPDEST DUP1 PUSH1 0x0 DUP2 SWAP1 SSTORE POP POP JUMP JUMPDEST DUP3 DUP1 SLOAD PUSH2 0x1D8 SWAP1 PUSH2 0x500 JUMP JUMPDEST SWAP1 PUSH1 0x0 MSTORE PUSH1 0x20 PUSH1 0x0 KECCAK256 SWAP1 PUSH1 0x1F ADD PUSH1 0x20 SWAP1 DIV DUP2 ADD SWAP3 DUP3 PUSH2 0x1FA JUMPI PUSH1 0x0 DUP6 SSTORE PUSH2 0x241 JUMP JUMPDEST DUP3 PUSH1 0x1F LT PUSH2 0x213 JUMPI DUP1 MLOAD PUSH1 0xFF NOT AND DUP4 DUP1 ADD OR DUP6 SSTORE PUSH2 0x241 JUMP JUMPDEST DUP3 DUP1 ADD PUSH1 0x1 ADD DUP6 SSTORE DUP3 ISZERO PUSH2 0x241 JUMPI SWAP2 DUP3 ADD JUMPDEST DUP3 DUP2 GT ISZERO PUSH2 0x240 JUMPI DUP3 MLOAD DUP3 SSTORE SWAP2 PUSH1 0x20 ADD SWAP2 SWAP1 PUSH1 0x1 ADD SWAP1 PUSH2 0x225 JUMP JUMPDEST JUMPDEST POP SWAP1 POP PUSH2 0x24E SWAP2 SWAP1 PUSH2 0x252 JUMP JUMPDEST POP SWAP1 JUMP JUMPDEST JUMPDEST DUP1 DUP3 GT ISZERO PUSH2 0x26B JUMPI PUSH1 0x0 DUP2 PUSH1 0x0 SWAP1 SSTORE POP PUSH1 0x1 ADD PUSH2 0x253 JUMP JUMPDEST POP SWAP1 JUMP JUMPDEST PUSH1 0x0 PUSH2 0x282 PUSH2 0x27D DUP5 PUSH2 0x436 JUMP JUMPDEST PUSH2 0x405 JUMP JUMPDEST SWAP1 POP DUP3 DUP2 MSTORE PUSH1 0x20 DUP2 ADD DUP5 DUP5 DUP5 ADD GT ISZERO PUSH2 0x29A JUMPI PUSH1 0x0 DUP1 REVERT JUMPDEST PUSH2 0x2A5 DUP5 DUP3 DUP6 PUSH2 0x4BE JUMP JUMPDEST POP SWAP4 SWAP3 POP POP POP JUMP JUMPDEST PUSH1 0x0 DUP2 CALLDATALOAD SWAP1 POP PUSH2 0x2BC DUP2 PUSH2 0x5A1 JUMP JUMPDEST SWAP3 SWAP2 POP POP JUMP JUMPDEST PUSH1 0x0 DUP3 PUSH1 0x1F DUP4 ADD SLT PUSH2 0x2D3 JUMPI PUSH1 0x0 DUP1 REVERT JUMPDEST DUP2 CALLDATALOAD PUSH2 0x2E3 DUP5 DUP3 PUSH1 0x20 DUP7 ADD PUSH2 0x26F JUMP JUMPDEST SWAP2 POP POP SWAP3 SWAP2 POP POP JUMP JUMPDEST PUSH1 0x0 PUSH1 0x20 DUP3 DUP5 SUB SLT ISZERO PUSH2 0x2FE JUMPI PUSH1 0x0 DUP1 REVERT JUMPDEST PUSH1 0x0 PUSH2 0x30C DUP5 DUP3 DUP6 ADD PUSH2 0x2AD JUMP JUMPDEST SWAP2 POP POP SWAP3 SWAP2 POP POP JUMP JUMPDEST PUSH1 0x0 PUSH1 0x20 DUP3 DUP5 SUB SLT ISZERO PUSH2 0x327 JUMPI PUSH1 0x0 DUP1 REVERT JUMPDEST PUSH1 0x0 DUP3 ADD CALLDATALOAD PUSH8 0xFFFFFFFFFFFFFFFF DUP2 GT ISZERO PUSH2 0x341 JUMPI PUSH1 0x0 DUP1 REVERT JUMPDEST PUSH2 0x34D DUP5 DUP3 DUP6 ADD PUSH2 0x2C2 JUMP JUMPDEST SWAP2 POP POP SWAP3 SWAP2 POP POP JUMP JUMPDEST PUSH2 0x35F DUP2 PUSH2 0x482 JUMP JUMPDEST DUP3 MSTORE POP POP JUMP JUMPDEST PUSH2 0x36E DUP2 PUSH2 0x494 JUMP JUMPDEST DUP3 MSTORE POP POP JUMP JUMPDEST PUSH1 0x0 PUSH2 0x37F DUP3 PUSH2 0x466 JUMP JUMPDEST PUSH2 0x389 DUP2 DUP6 PUSH2 0x471 JUMP JUMPDEST SWAP4 POP PUSH2 0x399 DUP2 DUP6 PUSH1 0x20 DUP7 ADD PUSH2 0x4CD JUMP JUMPDEST PUSH2 0x3A2 DUP2 PUSH2 0x590 JUMP JUMPDEST DUP5 ADD SWAP2 POP POP SWAP3 SWAP2 POP POP JUMP JUMPDEST PUSH1 0x0 PUSH1 0x20 DUP3 ADD SWAP1 POP PUSH2 0x3C2 PUSH1 0x0 DUP4 ADD DUP5 PUSH2 0x356 JUMP JUMPDEST SWAP3 SWAP2 POP POP JUMP JUMPDEST PUSH1 0x0 PUSH1 0x20 DUP3 ADD SWAP1 POP PUSH2 0x3DD PUSH1 0x0 DUP4 ADD DUP5 PUSH2 0x365 JUMP JUMPDEST SWAP3 SWAP2 POP POP JUMP JUMPDEST PUSH1 0x0 PUSH1 0x20 DUP3 ADD SWAP1 POP DUP2 DUP2 SUB PUSH1 0x0 DUP4 ADD MSTORE PUSH2 0x3FD DUP2 DUP5 PUSH2 0x374 JUMP JUMPDEST SWAP1 POP SWAP3 SWAP2 POP POP JUMP JUMPDEST PUSH1 0x0 PUSH1 0x40 MLOAD SWAP1 POP DUP2 DUP2 ADD DUP2 DUP2 LT PUSH8 0xFFFFFFFFFFFFFFFF DUP3 GT OR ISZERO PUSH2 0x42C JUMPI PUSH2 0x42B PUSH2 0x561 JUMP JUMPDEST JUMPDEST DUP1 PUSH1 0x40 MSTORE POP SWAP2 SWAP1 POP JUMP JUMPDEST PUSH1 0x0 PUSH8 0xFFFFFFFFFFFFFFFF DUP3 GT ISZERO PUSH2 0x451 JUMPI PUSH2 0x450 PUSH2 0x561 JUMP JUMPDEST JUMPDEST PUSH1 0x1F NOT PUSH1 0x1F DUP4 ADD AND SWAP1 POP PUSH1 0x20 DUP2 ADD SWAP1 POP SWAP2 SWAP1 POP JUMP JUMPDEST PUSH1 0x0 DUP2 MLOAD SWAP1 POP SWAP2 SWAP1 POP JUMP JUMPDEST PUSH1 0x0 DUP3 DUP3 MSTORE PUSH1 0x20 DUP3 ADD SWAP1 POP SWAP3 SWAP2 POP POP JUMP JUMPDEST PUSH1 0x0 PUSH2 0x48D DUP3 PUSH2 0x49E JUMP JUMPDEST SWAP1 POP SWAP2 SWAP1 POP JUMP JUMPDEST PUSH1 0x0 DUP2 SWAP1 POP SWAP2 SWAP1 POP JUMP JUMPDEST PUSH1 0x0 PUSH20 0xFFFFFFFFFFFFFFFFFFFFFFFFFFFFFFFFFFFFFFFF DUP3 AND SWAP1 POP SWAP2 SWAP1 POP JUMP JUMPDEST DUP3 DUP2 DUP4 CALLDATACOPY PUSH1 0x0 DUP4 DUP4 ADD MSTORE POP POP POP JUMP JUMPDEST PUSH1 0x0 JUMPDEST DUP4 DUP2 LT ISZERO PUSH2 0x4EB JUMPI DUP1 DUP3 ADD MLOAD DUP2 DUP5 ADD MSTORE PUSH1 0x20 DUP2 ADD SWAP1 POP PUSH2 0x4D0 JUMP JUMPDEST DUP4 DUP2 GT ISZERO PUSH2 0x4FA JUMPI PUSH1 0x0 DUP5 DUP5 ADD MSTORE JUMPDEST POP POP POP POP JUMP JUMPDEST PUSH1 0x0 PUSH1 0x2 DUP3 DIV SWAP1 POP PUSH1 0x1 DUP3 AND DUP1 PUSH2 0x518 JUMPI PUSH1 0x7F DUP3 AND SWAP2 POP JUMPDEST PUSH1 0x20 DUP3 LT DUP2 EQ ISZERO PUSH2 0x52C JUMPI PUSH2 0x52B PUSH2 0x532 JUMP JUMPDEST JUMPDEST POP SWAP2 SWAP1 POP JUMP JUMPDEST PUSH32 0x4E487B7100000000000000000000000000000000000000000000000000000000 PUSH1 0x0 MSTORE PUSH1 0x22 PUSH1 0x4 MSTORE PUSH1 0x24 PUSH1 0x0 REVERT JUMPDEST PUSH32 0x4E487B7100000000000000000000000000000000000000000000000000000000 PUSH1 0x0 MSTORE PUSH1 0x41 PUSH1 0x4 MSTORE PUSH1 0x24 PUSH1 0x0 REVERT JUMPDEST PUSH1 0x0 PUSH1 0x1F NOT PUSH1 0x1F DUP4 ADD AND SWAP1 POP SWAP2 SWAP1 POP JUMP JUMPDEST PUSH2 0x5AA DUP2 PUSH2 0x494 JUMP JUMPDEST DUP2 EQ PUSH2 0x5B5 JUMPI PUSH1 0x0 DUP1 REVERT JUMPDEST POP JUMP INVALID LOG2 PUSH5 0x6970667358 0x22 SLT KECCAK256 PUSH15 0x89A6A079A27F911CE5BAC60463BC52 0x4E DUP9 0xC PUSH11 0x34EB6EA95A8BDD14905739 0xC3 PUSH5 0x736F6C6343 STOP ADDMOD STOP STOP CALLER "
				},
				"gasEstimates": {
					"creation": {
						"codeDepositCost": "303600",
						"executionCost": "infinite",
						"totalCost": "infinite"
					},
					"external": {
						"location()": "infinite",
						"owner()": "1236",
						"price()": "1173",
						"setLocation(string)": "infinite",
						"setPrice(int256)": "20486"
					}
				},
				"methodIdentifiers": {
					"location()": "516f279e",
					"owner()": "8da5cb5b",
					"price()": "a035b1fe",
					"setLocation(string)": "827bfbdf",
					"setPrice(int256)": "f7a30806"
				}
			},
			"storageLayout": {
				"storage": [
					{
						"astId": 4,
						"contract": "contracts/newContract.sol:Property",
						"label": "price",
						"offset": 0,
						"slot": "0",
						"type": "t_int256"
					},
					{
						"astId": 7,
						"contract": "contracts/newContract.sol:Property",
						"label": "location",
						"offset": 0,
						"slot": "1",
						"type": "t_string_storage"
					},
					{
						"astId": 9,
						"contract": "contracts/newContract.sol:Property",
						"label": "owner",
						"offset": 0,
						"slot": "2",
						"type": "t_address"
					}
				],
				"types": {
					"t_address": {
						"encoding": "inplace",
						"label": "address",
						"numberOfBytes": "20"
					},
					"t_int256": {
						"encoding": "inplace",
						"label": "int256",
						"numberOfBytes": "32"
					},
					"t_string_storage": {
						"encoding": "bytes",
						"label": "string",
						"numberOfBytes": "32"
					}
				}
			},
			"userdoc": {
				"kind": "user",
				"methods": {},
				"version": 1
			}
		}
	}
}