{
	"contracts/crowdfunding.sol": {
		"CrowdFunding": {
			"abi": [
				{
					"inputs": [
						{
							"internalType": "uint256",
							"name": "_goal",
							"type": "uint256"
						},
						{
							"internalType": "uint256",
							"name": "_deadline",
							"type": "uint256"
						}
					],
					"stateMutability": "nonpayable",
					"type": "constructor"
				},
				{
					"inputs": [],
					"name": "admin",
					"outputs": [
						{
							"internalType": "address",
							"name": "",
							"type": "address"
						}
					],
					"stateMutability": "view",
					"type": "function"
				},
				{
					"inputs": [],
					"name": "contribute",
					"outputs": [],
					"stateMutability": "payable",
					"type": "function"
				},
				{
					"inputs": [
						{
							"internalType": "address",
							"name": "",
							"type": "address"
						}
					],
					"name": "contributors",
					"outputs": [
						{
							"internalType": "uint256",
							"name": "",
							"type": "uint256"
						}
					],
					"stateMutability": "view",
					"type": "function"
				},
				{
					"inputs": [],
					"name": "deadline",
					"outputs": [
						{
							"internalType": "uint256",
							"name": "",
							"type": "uint256"
						}
					],
					"stateMutability": "view",
					"type": "function"
				},
				{
					"inputs": [],
					"name": "getBalance",
					"outputs": [
						{
							"internalType": "uint256",
							"name": "",
							"type": "uint256"
						}
					],
					"stateMutability": "view",
					"type": "function"
				},
				{
					"inputs": [],
					"name": "getRefund",
					"outputs": [],
					"stateMutability": "nonpayable",
					"type": "function"
				},
				{
					"inputs": [],
					"name": "goal",
					"outputs": [
						{
							"internalType": "uint256",
							"name": "",
							"type": "uint256"
						}
					],
					"stateMutability": "view",
					"type": "function"
				},
				{
					"inputs": [],
					"name": "minimumContribution",
					"outputs": [
						{
							"internalType": "uint256",
							"name": "",
							"type": "uint256"
						}
					],
					"stateMutability": "view",
					"type": "function"
				},
				{
					"inputs": [],
					"name": "numberContributors",
					"outputs": [
						{
							"internalType": "uint256",
							"name": "",
							"type": "uint256"
						}
					],
					"stateMutability": "view",
					"type": "function"
				},
				{
					"inputs": [],
					"name": "raisedAmount",
					"outputs": [
						{
							"internalType": "uint256",
							"name": "",
							"type": "uint256"
						}
					],
					"stateMutability": "view",
					"type": "function"
				},
				{
					"stateMutability": "payable",
					"type": "receive"
				}
			],
			"devdoc": {
				"kind": "dev",
				"methods": {},
				"version": 1
			},
			"evm": {
				"assembly": "    /* \"contracts/crowdfunding.sol\":73:3138  contract CrowdFunding{\r... */\n  mstore(0x40, 0x80)\n    /* \"contracts/crowdfunding.sol\":1176:1451  constructor(uint _goal, uint _deadline){\r... */\n  callvalue\n  dup1\n  iszero\n  tag_1\n  jumpi\n  0x00\n  dup1\n  revert\ntag_1:\n  pop\n  mload(0x40)\n  sub(codesize, bytecodeSize)\n  dup1\n  bytecodeSize\n  dup4\n  codecopy\n  dup2\n  dup2\n  add\n  0x40\n  mstore\n  dup2\n  add\n  swap1\n  tag_2\n  swap2\n  swap1\n  tag_3\n  jump\t// in\ntag_2:\n    /* \"contracts/crowdfunding.sol\":1233:1238  _goal */\n  dup2\n    /* \"contracts/crowdfunding.sol\":1226:1230  goal */\n  0x05\n    /* \"contracts/crowdfunding.sol\":1226:1238  goal = _goal */\n  dup2\n  swap1\n  sstore\n  pop\n    /* \"contracts/crowdfunding.sol\":1300:1309  _deadline */\n  dup1\n    /* \"contracts/crowdfunding.sol\":1282:1297  block.timestamp */\n  timestamp\n    /* \"contracts/crowdfunding.sol\":1282:1309  block.timestamp + _deadline */\n  tag_6\n  swap2\n  swap1\n  tag_7\n  jump\t// in\ntag_6:\n    /* \"contracts/crowdfunding.sol\":1271:1279  deadline */\n  0x04\n    /* \"contracts/crowdfunding.sol\":1271:1309  deadline = block.timestamp + _deadline */\n  dup2\n  swap1\n  sstore\n  pop\n    /* \"contracts/crowdfunding.sol\":1374:1381  100 wei */\n  0x64\n    /* \"contracts/crowdfunding.sol\":1352:1371  minimumContribution */\n  0x03\n    /* \"contracts/crowdfunding.sol\":1352:1381  minimumContribution = 100 wei */\n  dup2\n  swap1\n  sstore\n  pop\n    /* \"contracts/crowdfunding.sol\":1420:1430  msg.sender */\n  caller\n    /* \"contracts/crowdfunding.sol\":1412:1417  admin */\n  0x01\n  0x00\n    /* \"contracts/crowdfunding.sol\":1412:1430  admin = msg.sender */\n  0x0100\n  exp\n  dup2\n  sload\n  dup2\n  0xffffffffffffffffffffffffffffffffffffffff\n  mul\n  not\n  and\n  swap1\n  dup4\n  0xffffffffffffffffffffffffffffffffffffffff\n  and\n  mul\n  or\n  swap1\n  sstore\n  pop\n    /* \"contracts/crowdfunding.sol\":1176:1451  constructor(uint _goal, uint _deadline){\r... */\n  pop\n  pop\n    /* \"contracts/crowdfunding.sol\":73:3138  contract CrowdFunding{\r... */\n  jump(tag_8)\n    /* \"#utility.yul\":7:150   */\ntag_10:\n    /* \"#utility.yul\":64:69   */\n  0x00\n    /* \"#utility.yul\":95:101   */\n  dup2\n    /* \"#utility.yul\":89:102   */\n  mload\n    /* \"#utility.yul\":80:102   */\n  swap1\n  pop\n    /* \"#utility.yul\":111:144   */\n  tag_12\n    /* \"#utility.yul\":138:143   */\n  dup2\n    /* \"#utility.yul\":111:144   */\n  tag_13\n  jump\t// in\ntag_12:\n    /* \"#utility.yul\":7:150   */\n  swap3\n  swap2\n  pop\n  pop\n  jump\t// out\n    /* \"#utility.yul\":156:663   */\ntag_3:\n    /* \"#utility.yul\":235:241   */\n  0x00\n    /* \"#utility.yul\":243:249   */\n  dup1\n    /* \"#utility.yul\":292:294   */\n  0x40\n    /* \"#utility.yul\":280:289   */\n  dup4\n    /* \"#utility.yul\":271:278   */\n  dup6\n    /* \"#utility.yul\":267:290   */\n  sub\n    /* \"#utility.yul\":263:295   */\n  slt\n    /* \"#utility.yul\":260:379   */\n  iszero\n  tag_15\n  jumpi\n    /* \"#utility.yul\":298:377   */\n  tag_16\n  tag_17\n  jump\t// in\ntag_16:\n    /* \"#utility.yul\":260:379   */\ntag_15:\n    /* \"#utility.yul\":418:419   */\n  0x00\n    /* \"#utility.yul\":443:507   */\n  tag_18\n    /* \"#utility.yul\":499:506   */\n  dup6\n    /* \"#utility.yul\":490:496   */\n  dup3\n    /* \"#utility.yul\":479:488   */\n  dup7\n    /* \"#utility.yul\":475:497   */\n  add\n    /* \"#utility.yul\":443:507   */\n  tag_10\n  jump\t// in\ntag_18:\n    /* \"#utility.yul\":433:507   */\n  swap3\n  pop\n    /* \"#utility.yul\":389:517   */\n  pop\n    /* \"#utility.yul\":556:558   */\n  0x20\n    /* \"#utility.yul\":582:646   */\n  tag_19\n    /* \"#utility.yul\":638:645   */\n  dup6\n    /* \"#utility.yul\":629:635   */\n  dup3\n    /* \"#utility.yul\":618:627   */\n  dup7\n    /* \"#utility.yul\":614:636   */\n  add\n    /* \"#utility.yul\":582:646   */\n  tag_10\n  jump\t// in\ntag_19:\n    /* \"#utility.yul\":572:646   */\n  swap2\n  pop\n    /* \"#utility.yul\":527:656   */\n  pop\n    /* \"#utility.yul\":156:663   */\n  swap3\n  pop\n  swap3\n  swap1\n  pop\n  jump\t// out\n    /* \"#utility.yul\":750:1055   */\ntag_7:\n    /* \"#utility.yul\":790:793   */\n  0x00\n    /* \"#utility.yul\":809:829   */\n  tag_23\n    /* \"#utility.yul\":827:828   */\n  dup3\n    /* \"#utility.yul\":809:829   */\n  tag_24\n  jump\t// in\ntag_23:\n    /* \"#utility.yul\":804:829   */\n  swap2\n  pop\n    /* \"#utility.yul\":843:863   */\n  tag_25\n    /* \"#utility.yul\":861:862   */\n  dup4\n    /* \"#utility.yul\":843:863   */\n  tag_24\n  jump\t// in\ntag_25:\n    /* \"#utility.yul\":838:863   */\n  swap3\n  pop\n    /* \"#utility.yul\":997:998   */\n  dup3\n    /* \"#utility.yul\":929:995   */\n  0xffffffffffffffffffffffffffffffffffffffffffffffffffffffffffffffff\n    /* \"#utility.yul\":925:999   */\n  sub\n    /* \"#utility.yul\":922:923   */\n  dup3\n    /* \"#utility.yul\":919:1000   */\n  gt\n    /* \"#utility.yul\":916:1023   */\n  iszero\n  tag_26\n  jumpi\n    /* \"#utility.yul\":1003:1021   */\n  tag_27\n  tag_28\n  jump\t// in\ntag_27:\n    /* \"#utility.yul\":916:1023   */\ntag_26:\n    /* \"#utility.yul\":1047:1048   */\n  dup3\n    /* \"#utility.yul\":1044:1045   */\n  dup3\n    /* \"#utility.yul\":1040:1049   */\n  add\n    /* \"#utility.yul\":1033:1049   */\n  swap1\n  pop\n    /* \"#utility.yul\":750:1055   */\n  swap3\n  swap2\n  pop\n  pop\n  jump\t// out\n    /* \"#utility.yul\":1061:1138   */\ntag_24:\n    /* \"#utility.yul\":1098:1105   */\n  0x00\n    /* \"#utility.yul\":1127:1132   */\n  dup2\n    /* \"#utility.yul\":1116:1132   */\n  swap1\n  pop\n    /* \"#utility.yul\":1061:1138   */\n  swap2\n  swap1\n  pop\n  jump\t// out\n    /* \"#utility.yul\":1144:1324   */\ntag_28:\n    /* \"#utility.yul\":1192:1269   */\n  0x4e487b7100000000000000000000000000000000000000000000000000000000\n    /* \"#utility.yul\":1189:1190   */\n  0x00\n    /* \"#utility.yul\":1182:1270   */\n  mstore\n    /* \"#utility.yul\":1289:1293   */\n  0x11\n    /* \"#utility.yul\":1286:1287   */\n  0x04\n    /* \"#utility.yul\":1279:1294   */\n  mstore\n    /* \"#utility.yul\":1313:1317   */\n  0x24\n    /* \"#utility.yul\":1310:1311   */\n  0x00\n    /* \"#utility.yul\":1303:1318   */\n  revert\n    /* \"#utility.yul\":1453:1570   */\ntag_17:\n    /* \"#utility.yul\":1562:1563   */\n  0x00\n    /* \"#utility.yul\":1559:1560   */\n  dup1\n    /* \"#utility.yul\":1552:1564   */\n  revert\n    /* \"#utility.yul\":1576:1698   */\ntag_13:\n    /* \"#utility.yul\":1649:1673   */\n  tag_35\n    /* \"#utility.yul\":1667:1672   */\n  dup2\n    /* \"#utility.yul\":1649:1673   */\n  tag_24\n  jump\t// in\ntag_35:\n    /* \"#utility.yul\":1642:1647   */\n  dup2\n    /* \"#utility.yul\":1639:1674   */\n  eq\n    /* \"#utility.yul\":1629:1692   */\n  tag_36\n  jumpi\n    /* \"#utility.yul\":1688:1689   */\n  0x00\n    /* \"#utility.yul\":1685:1686   */\n  dup1\n    /* \"#utility.yul\":1678:1690   */\n  revert\n    /* \"#utility.yul\":1629:1692   */\ntag_36:\n    /* \"#utility.yul\":1576:1698   */\n  pop\n  jump\t// out\n    /* \"contracts/crowdfunding.sol\":73:3138  contract CrowdFunding{\r... */\ntag_8:\n  dataSize(sub_0)\n  dup1\n  dataOffset(sub_0)\n  0x00\n  codecopy\n  0x00\n  return\nstop\n\nsub_0: assembly {\n        /* \"contracts/crowdfunding.sol\":73:3138  contract CrowdFunding{\r... */\n      mstore(0x40, 0x80)\n      jumpi(tag_1, lt(calldatasize, 0x04))\n      shr(0xe0, calldataload(0x00))\n      dup1\n      0xb2d5ae44\n      gt\n      tag_13\n      jumpi\n      dup1\n      0xb2d5ae44\n      eq\n      tag_8\n      jumpi\n      dup1\n      0xc59ee1dc\n      eq\n      tag_9\n      jumpi\n      dup1\n      0xd7bb99ba\n      eq\n      tag_10\n      jumpi\n      dup1\n      0xf3740daf\n      eq\n      tag_11\n      jumpi\n      dup1\n      0xf851a440\n      eq\n      tag_12\n      jumpi\n      jump(tag_2)\n    tag_13:\n      dup1\n      0x12065fe0\n      eq\n      tag_3\n      jumpi\n      dup1\n      0x1f6d4942\n      eq\n      tag_4\n      jumpi\n      dup1\n      0x29dcb0cf\n      eq\n      tag_5\n      jumpi\n      dup1\n      0x40193883\n      eq\n      tag_6\n      jumpi\n      dup1\n      0x937e09b1\n      eq\n      tag_7\n      jumpi\n      jump(tag_2)\n    tag_1:\n      jumpi(tag_2, calldatasize)\n        /* \"contracts/crowdfunding.sol\":2313:2325  contribute() */\n      tag_16\n        /* \"contracts/crowdfunding.sol\":2313:2323  contribute */\n      tag_17\n        /* \"contracts/crowdfunding.sol\":2313:2325  contribute() */\n      jump\t// in\n    tag_16:\n        /* \"contracts/crowdfunding.sol\":73:3138  contract CrowdFunding{\r... */\n      stop\n    tag_2:\n      0x00\n      dup1\n      revert\n        /* \"contracts/crowdfunding.sol\":2384:2482  function getBalance() public view returns(uint){\r... */\n    tag_3:\n      callvalue\n      dup1\n      iszero\n      tag_18\n      jumpi\n      0x00\n      dup1\n      revert\n    tag_18:\n      pop\n      tag_19\n      tag_20\n      jump\t// in\n    tag_19:\n      mload(0x40)\n      tag_21\n      swap2\n      swap1\n      tag_22\n      jump\t// in\n    tag_21:\n      mload(0x40)\n      dup1\n      swap2\n      sub\n      swap1\n      return\n        /* \"contracts/crowdfunding.sol\":161:205  mapping(address => uint) public contributors */\n    tag_4:\n      callvalue\n      dup1\n      iszero\n      tag_23\n      jumpi\n      0x00\n      dup1\n      revert\n    tag_23:\n      pop\n      tag_24\n      0x04\n      dup1\n      calldatasize\n      sub\n      dup2\n      add\n      swap1\n      tag_25\n      swap2\n      swap1\n      tag_26\n      jump\t// in\n    tag_25:\n      tag_27\n      jump\t// in\n    tag_24:\n      mload(0x40)\n      tag_28\n      swap2\n      swap1\n      tag_22\n      jump\t// in\n    tag_28:\n      mload(0x40)\n      dup1\n      swap2\n      sub\n      swap1\n      return\n        /* \"contracts/crowdfunding.sol\":465:485  uint public deadline */\n    tag_5:\n      callvalue\n      dup1\n      iszero\n      tag_29\n      jumpi\n      0x00\n      dup1\n      revert\n    tag_29:\n      pop\n      tag_30\n      tag_31\n      jump\t// in\n    tag_30:\n      mload(0x40)\n      tag_32\n      swap2\n      swap1\n      tag_22\n      jump\t// in\n    tag_32:\n      mload(0x40)\n      dup1\n      swap2\n      sub\n      swap1\n      return\n        /* \"contracts/crowdfunding.sol\":505:521  uint public goal */\n    tag_6:\n      callvalue\n      dup1\n      iszero\n      tag_33\n      jumpi\n      0x00\n      dup1\n      revert\n    tag_33:\n      pop\n      tag_34\n      tag_35\n      jump\t// in\n    tag_34:\n      mload(0x40)\n      tag_36\n      swap2\n      swap1\n      tag_22\n      jump\t// in\n    tag_36:\n      mload(0x40)\n      dup1\n      swap2\n      sub\n      swap1\n      return\n        /* \"contracts/crowdfunding.sol\":399:430  uint public minimumContribution */\n    tag_7:\n      callvalue\n      dup1\n      iszero\n      tag_37\n      jumpi\n      0x00\n      dup1\n      revert\n    tag_37:\n      pop\n      tag_38\n      tag_39\n      jump\t// in\n    tag_38:\n      mload(0x40)\n      tag_40\n      swap2\n      swap1\n      tag_22\n      jump\t// in\n    tag_40:\n      mload(0x40)\n      dup1\n      swap2\n      sub\n      swap1\n      return\n        /* \"contracts/crowdfunding.sol\":2531:3127  function getRefund() public{\r... */\n    tag_8:\n      callvalue\n      dup1\n      iszero\n      tag_41\n      jumpi\n      0x00\n      dup1\n      revert\n    tag_41:\n      pop\n      tag_42\n      tag_43\n      jump\t// in\n    tag_42:\n      stop\n        /* \"contracts/crowdfunding.sol\":544:568  uint public raisedAmount */\n    tag_9:\n      callvalue\n      dup1\n      iszero\n      tag_44\n      jumpi\n      0x00\n      dup1\n      revert\n    tag_44:\n      pop\n      tag_45\n      tag_46\n      jump\t// in\n    tag_45:\n      mload(0x40)\n      tag_47\n      swap2\n      swap1\n      tag_22\n      jump\t// in\n    tag_47:\n      mload(0x40)\n      dup1\n      swap2\n      sub\n      swap1\n      return\n        /* \"contracts/crowdfunding.sol\":1494:2156  function contribute() public payable{\r... */\n    tag_10:\n      tag_48\n      tag_17\n      jump\t// in\n    tag_48:\n      stop\n        /* \"contracts/crowdfunding.sol\":360:390  uint public numberContributors */\n    tag_11:\n      callvalue\n      dup1\n      iszero\n      tag_49\n      jumpi\n      0x00\n      dup1\n      revert\n    tag_49:\n      pop\n      tag_50\n      tag_51\n      jump\t// in\n    tag_50:\n      mload(0x40)\n      tag_52\n      swap2\n      swap1\n      tag_22\n      jump\t// in\n    tag_52:\n      mload(0x40)\n      dup1\n      swap2\n      sub\n      swap1\n      return\n        /* \"contracts/crowdfunding.sol\":275:295  address public admin */\n    tag_12:\n      callvalue\n      dup1\n      iszero\n      tag_53\n      jumpi\n      0x00\n      dup1\n      revert\n    tag_53:\n      pop\n      tag_54\n      tag_55\n      jump\t// in\n    tag_54:\n      mload(0x40)\n      tag_56\n      swap2\n      swap1\n      tag_57\n      jump\t// in\n    tag_56:\n      mload(0x40)\n      dup1\n      swap2\n      sub\n      swap1\n      return\n        /* \"contracts/crowdfunding.sol\":1494:2156  function contribute() public payable{\r... */\n    tag_17:\n        /* \"contracts/crowdfunding.sol\":1612:1620  deadline */\n      sload(0x04)\n        /* \"contracts/crowdfunding.sol\":1594:1609  block.timestamp */\n      timestamp\n        /* \"contracts/crowdfunding.sol\":1594:1620  block.timestamp < deadline */\n      lt\n        /* \"contracts/crowdfunding.sol\":1586:1645  require(block.timestamp < deadline, \"Deadline has passed.\") */\n      tag_59\n      jumpi\n      mload(0x40)\n      0x08c379a000000000000000000000000000000000000000000000000000000000\n      dup2\n      mstore\n      0x04\n      add\n      tag_60\n      swap1\n      tag_61\n      jump\t// in\n    tag_60:\n      mload(0x40)\n      dup1\n      swap2\n      sub\n      swap1\n      revert\n    tag_59:\n        /* \"contracts/crowdfunding.sol\":1742:1761  minimumContribution */\n      sload(0x03)\n        /* \"contracts/crowdfunding.sol\":1729:1738  msg.value */\n      callvalue\n        /* \"contracts/crowdfunding.sol\":1729:1761  msg.value >= minimumContribution */\n      lt\n      iszero\n        /* \"contracts/crowdfunding.sol\":1721:1795  require(msg.value >= minimumContribution, \"Minimum contribution not met.\") */\n      tag_62\n      jumpi\n      mload(0x40)\n      0x08c379a000000000000000000000000000000000000000000000000000000000\n      dup2\n      mstore\n      0x04\n      add\n      tag_63\n      swap1\n      tag_64\n      jump\t// in\n    tag_63:\n      mload(0x40)\n      dup1\n      swap2\n      sub\n      swap1\n      revert\n    tag_62:\n        /* \"contracts/crowdfunding.sol\":1935:1936  0 */\n      0x00\n        /* \"contracts/crowdfunding.sol\":1907:1919  contributors */\n      dup1\n        /* \"contracts/crowdfunding.sol\":1907:1931  contributors[msg.sender] */\n      0x00\n        /* \"contracts/crowdfunding.sol\":1920:1930  msg.sender */\n      caller\n        /* \"contracts/crowdfunding.sol\":1907:1931  contributors[msg.sender] */\n      0xffffffffffffffffffffffffffffffffffffffff\n      and\n      0xffffffffffffffffffffffffffffffffffffffff\n      and\n      dup2\n      mstore\n      0x20\n      add\n      swap1\n      dup2\n      mstore\n      0x20\n      add\n      0x00\n      keccak256\n      sload\n        /* \"contracts/crowdfunding.sol\":1907:1936  contributors[msg.sender] == 0 */\n      eq\n        /* \"contracts/crowdfunding.sol\":1903:1984  if (contributors[msg.sender] == 0){\r... */\n      iszero\n      tag_65\n      jumpi\n        /* \"contracts/crowdfunding.sol\":1952:1970  numberContributors */\n      0x02\n      0x00\n        /* \"contracts/crowdfunding.sol\":1952:1972  numberContributors++ */\n      dup2\n      sload\n      dup1\n      swap3\n      swap2\n      swap1\n      tag_66\n      swap1\n      tag_67\n      jump\t// in\n    tag_66:\n      swap2\n      swap1\n      pop\n      sstore\n      pop\n        /* \"contracts/crowdfunding.sol\":1903:1984  if (contributors[msg.sender] == 0){\r... */\n    tag_65:\n        /* \"contracts/crowdfunding.sol\":2061:2070  msg.value */\n      callvalue\n        /* \"contracts/crowdfunding.sol\":2033:2045  contributors */\n      0x00\n        /* \"contracts/crowdfunding.sol\":2033:2057  contributors[msg.sender] */\n      dup1\n        /* \"contracts/crowdfunding.sol\":2046:2056  msg.sender */\n      caller\n        /* \"contracts/crowdfunding.sol\":2033:2057  contributors[msg.sender] */\n      0xffffffffffffffffffffffffffffffffffffffff\n      and\n      0xffffffffffffffffffffffffffffffffffffffff\n      and\n      dup2\n      mstore\n      0x20\n      add\n      swap1\n      dup2\n      mstore\n      0x20\n      add\n      0x00\n      keccak256\n      0x00\n        /* \"contracts/crowdfunding.sol\":2033:2070  contributors[msg.sender] += msg.value */\n      dup3\n      dup3\n      sload\n      tag_68\n      swap2\n      swap1\n      tag_69\n      jump\t// in\n    tag_68:\n      swap3\n      pop\n      pop\n      dup2\n      swap1\n      sstore\n      pop\n        /* \"contracts/crowdfunding.sol\":2137:2146  msg.value */\n      callvalue\n        /* \"contracts/crowdfunding.sol\":2121:2133  raisedAmount */\n      0x06\n      0x00\n        /* \"contracts/crowdfunding.sol\":2121:2146  raisedAmount += msg.value */\n      dup3\n      dup3\n      sload\n      tag_70\n      swap2\n      swap1\n      tag_69\n      jump\t// in\n    tag_70:\n      swap3\n      pop\n      pop\n      dup2\n      swap1\n      sstore\n      pop\n        /* \"contracts/crowdfunding.sol\":1494:2156  function contribute() public payable{\r... */\n      jump\t// out\n        /* \"contracts/crowdfunding.sol\":2384:2482  function getBalance() public view returns(uint){\r... */\n    tag_20:\n        /* \"contracts/crowdfunding.sol\":2426:2430  uint */\n      0x00\n        /* \"contracts/crowdfunding.sol\":2451:2472  address(this).balance */\n      selfbalance\n        /* \"contracts/crowdfunding.sol\":2444:2472  return address(this).balance */\n      swap1\n      pop\n        /* \"contracts/crowdfunding.sol\":2384:2482  function getBalance() public view returns(uint){\r... */\n      swap1\n      jump\t// out\n        /* \"contracts/crowdfunding.sol\":161:205  mapping(address => uint) public contributors */\n    tag_27:\n      mstore(0x20, 0x00)\n      dup1\n      0x00\n      mstore\n      keccak256(0x00, 0x40)\n      0x00\n      swap2\n      pop\n      swap1\n      pop\n      sload\n      dup2\n      jump\t// out\n        /* \"contracts/crowdfunding.sol\":465:485  uint public deadline */\n    tag_31:\n      sload(0x04)\n      dup2\n      jump\t// out\n        /* \"contracts/crowdfunding.sol\":505:521  uint public goal */\n    tag_35:\n      sload(0x05)\n      dup2\n      jump\t// out\n        /* \"contracts/crowdfunding.sol\":399:430  uint public minimumContribution */\n    tag_39:\n      sload(0x03)\n      dup2\n      jump\t// out\n        /* \"contracts/crowdfunding.sol\":2531:3127  function getRefund() public{\r... */\n    tag_43:\n        /* \"contracts/crowdfunding.sol\":2653:2661  deadline */\n      sload(0x04)\n        /* \"contracts/crowdfunding.sol\":2635:2650  block.timestamp */\n      timestamp\n        /* \"contracts/crowdfunding.sol\":2635:2661  block.timestamp > deadline */\n      gt\n        /* \"contracts/crowdfunding.sol\":2635:2684  block.timestamp > deadline && raisedAmount < goal */\n      dup1\n      iszero\n      tag_73\n      jumpi\n      pop\n        /* \"contracts/crowdfunding.sol\":2680:2684  goal */\n      sload(0x05)\n        /* \"contracts/crowdfunding.sol\":2665:2677  raisedAmount */\n      sload(0x06)\n        /* \"contracts/crowdfunding.sol\":2665:2684  raisedAmount < goal */\n      lt\n        /* \"contracts/crowdfunding.sol\":2635:2684  block.timestamp > deadline && raisedAmount < goal */\n    tag_73:\n        /* \"contracts/crowdfunding.sol\":2627:2685  require(block.timestamp > deadline && raisedAmount < goal) */\n      tag_74\n      jumpi\n      0x00\n      dup1\n      revert\n    tag_74:\n        /* \"contracts/crowdfunding.sol\":2775:2776  0 */\n      0x00\n        /* \"contracts/crowdfunding.sol\":2748:2760  contributors */\n      dup1\n        /* \"contracts/crowdfunding.sol\":2748:2772  contributors[msg.sender] */\n      0x00\n        /* \"contracts/crowdfunding.sol\":2761:2771  msg.sender */\n      caller\n        /* \"contracts/crowdfunding.sol\":2748:2772  contributors[msg.sender] */\n      0xffffffffffffffffffffffffffffffffffffffff\n      and\n      0xffffffffffffffffffffffffffffffffffffffff\n      and\n      dup2\n      mstore\n      0x20\n      add\n      swap1\n      dup2\n      mstore\n      0x20\n      add\n      0x00\n      keccak256\n      sload\n        /* \"contracts/crowdfunding.sol\":2748:2776  contributors[msg.sender] > 0 */\n      gt\n        /* \"contracts/crowdfunding.sol\":2740:2777  require(contributors[msg.sender] > 0) */\n      tag_75\n      jumpi\n      0x00\n      dup1\n      revert\n    tag_75:\n        /* \"contracts/crowdfunding.sol\":2819:2844  address payable recipient */\n      0x00\n        /* \"contracts/crowdfunding.sol\":2855:2865  msg.sender */\n      caller\n        /* \"contracts/crowdfunding.sol\":2819:2866  address payable recipient = payable(msg.sender) */\n      swap1\n      pop\n        /* \"contracts/crowdfunding.sol\":2913:2923  uint value */\n      0x00\n        /* \"contracts/crowdfunding.sol\":2926:2938  contributors */\n      dup1\n        /* \"contracts/crowdfunding.sol\":2926:2950  contributors[msg.sender] */\n      0x00\n        /* \"contracts/crowdfunding.sol\":2939:2949  msg.sender */\n      caller\n        /* \"contracts/crowdfunding.sol\":2926:2950  contributors[msg.sender] */\n      0xffffffffffffffffffffffffffffffffffffffff\n      and\n      0xffffffffffffffffffffffffffffffffffffffff\n      and\n      dup2\n      mstore\n      0x20\n      add\n      swap1\n      dup2\n      mstore\n      0x20\n      add\n      0x00\n      keccak256\n      sload\n        /* \"contracts/crowdfunding.sol\":2913:2950  uint value = contributors[msg.sender] */\n      swap1\n      pop\n        /* \"contracts/crowdfunding.sol\":3009:3018  recipient */\n      dup2\n        /* \"contracts/crowdfunding.sol\":3009:3027  recipient.transfer */\n      0xffffffffffffffffffffffffffffffffffffffff\n      and\n        /* \"contracts/crowdfunding.sol\":3009:3034  recipient.transfer(value) */\n      0x08fc\n        /* \"contracts/crowdfunding.sol\":3028:3033  value */\n      dup3\n        /* \"contracts/crowdfunding.sol\":3009:3034  recipient.transfer(value) */\n      swap1\n      dup2\n      iszero\n      mul\n      swap1\n      mload(0x40)\n      0x00\n      mload(0x40)\n      dup1\n      dup4\n      sub\n      dup2\n      dup6\n      dup9\n      dup9\n      call\n      swap4\n      pop\n      pop\n      pop\n      pop\n      iszero\n      dup1\n      iszero\n      tag_77\n      jumpi\n      returndatasize\n      0x00\n      dup1\n      returndatacopy\n      revert(0x00, returndatasize)\n    tag_77:\n      pop\n        /* \"contracts/crowdfunding.sol\":3116:3117  0 */\n      0x00\n        /* \"contracts/crowdfunding.sol\":3089:3101  contributors */\n      dup1\n        /* \"contracts/crowdfunding.sol\":3089:3113  contributors[msg.sender] */\n      0x00\n        /* \"contracts/crowdfunding.sol\":3102:3112  msg.sender */\n      caller\n        /* \"contracts/crowdfunding.sol\":3089:3113  contributors[msg.sender] */\n      0xffffffffffffffffffffffffffffffffffffffff\n      and\n      0xffffffffffffffffffffffffffffffffffffffff\n      and\n      dup2\n      mstore\n      0x20\n      add\n      swap1\n      dup2\n      mstore\n      0x20\n      add\n      0x00\n      keccak256\n        /* \"contracts/crowdfunding.sol\":3089:3117  contributors[msg.sender] = 0 */\n      dup2\n      swap1\n      sstore\n      pop\n        /* \"contracts/crowdfunding.sol\":2558:3127  {\r... */\n      pop\n      pop\n        /* \"contracts/crowdfunding.sol\":2531:3127  function getRefund() public{\r... */\n      jump\t// out\n        /* \"contracts/crowdfunding.sol\":544:568  uint public raisedAmount */\n    tag_46:\n      sload(0x06)\n      dup2\n      jump\t// out\n        /* \"contracts/crowdfunding.sol\":360:390  uint public numberContributors */\n    tag_51:\n      sload(0x02)\n      dup2\n      jump\t// out\n        /* \"contracts/crowdfunding.sol\":275:295  address public admin */\n    tag_55:\n      0x01\n      0x00\n      swap1\n      sload\n      swap1\n      0x0100\n      exp\n      swap1\n      div\n      0xffffffffffffffffffffffffffffffffffffffff\n      and\n      dup2\n      jump\t// out\n        /* \"#utility.yul\":7:146   */\n    tag_79:\n        /* \"#utility.yul\":53:58   */\n      0x00\n        /* \"#utility.yul\":91:97   */\n      dup2\n        /* \"#utility.yul\":78:98   */\n      calldataload\n        /* \"#utility.yul\":69:98   */\n      swap1\n      pop\n        /* \"#utility.yul\":107:140   */\n      tag_81\n        /* \"#utility.yul\":134:139   */\n      dup2\n        /* \"#utility.yul\":107:140   */\n      tag_82\n      jump\t// in\n    tag_81:\n        /* \"#utility.yul\":7:146   */\n      swap3\n      swap2\n      pop\n      pop\n      jump\t// out\n        /* \"#utility.yul\":152:481   */\n    tag_26:\n        /* \"#utility.yul\":211:217   */\n      0x00\n        /* \"#utility.yul\":260:262   */\n      0x20\n        /* \"#utility.yul\":248:257   */\n      dup3\n        /* \"#utility.yul\":239:246   */\n      dup5\n        /* \"#utility.yul\":235:258   */\n      sub\n        /* \"#utility.yul\":231:263   */\n      slt\n        /* \"#utility.yul\":228:347   */\n      iszero\n      tag_84\n      jumpi\n        /* \"#utility.yul\":266:345   */\n      tag_85\n      tag_86\n      jump\t// in\n    tag_85:\n        /* \"#utility.yul\":228:347   */\n    tag_84:\n        /* \"#utility.yul\":386:387   */\n      0x00\n        /* \"#utility.yul\":411:464   */\n      tag_87\n        /* \"#utility.yul\":456:463   */\n      dup5\n        /* \"#utility.yul\":447:453   */\n      dup3\n        /* \"#utility.yul\":436:445   */\n      dup6\n        /* \"#utility.yul\":432:454   */\n      add\n        /* \"#utility.yul\":411:464   */\n      tag_79\n      jump\t// in\n    tag_87:\n        /* \"#utility.yul\":401:464   */\n      swap2\n      pop\n        /* \"#utility.yul\":357:474   */\n      pop\n        /* \"#utility.yul\":152:481   */\n      swap3\n      swap2\n      pop\n      pop\n      jump\t// out\n        /* \"#utility.yul\":487:605   */\n    tag_88:\n        /* \"#utility.yul\":574:598   */\n      tag_90\n        /* \"#utility.yul\":592:597   */\n      dup2\n        /* \"#utility.yul\":574:598   */\n      tag_91\n      jump\t// in\n    tag_90:\n        /* \"#utility.yul\":569:572   */\n      dup3\n        /* \"#utility.yul\":562:599   */\n      mstore\n        /* \"#utility.yul\":487:605   */\n      pop\n      pop\n      jump\t// out\n        /* \"#utility.yul\":611:977   */\n    tag_92:\n        /* \"#utility.yul\":753:756   */\n      0x00\n        /* \"#utility.yul\":774:841   */\n      tag_94\n        /* \"#utility.yul\":838:840   */\n      0x14\n        /* \"#utility.yul\":833:836   */\n      dup4\n        /* \"#utility.yul\":774:841   */\n      tag_95\n      jump\t// in\n    tag_94:\n        /* \"#utility.yul\":767:841   */\n      swap2\n      pop\n        /* \"#utility.yul\":850:943   */\n      tag_96\n        /* \"#utility.yul\":939:942   */\n      dup3\n        /* \"#utility.yul\":850:943   */\n      tag_97\n      jump\t// in\n    tag_96:\n        /* \"#utility.yul\":968:970   */\n      0x20\n        /* \"#utility.yul\":963:966   */\n      dup3\n        /* \"#utility.yul\":959:971   */\n      add\n        /* \"#utility.yul\":952:971   */\n      swap1\n      pop\n        /* \"#utility.yul\":611:977   */\n      swap2\n      swap1\n      pop\n      jump\t// out\n        /* \"#utility.yul\":983:1349   */\n    tag_98:\n        /* \"#utility.yul\":1125:1128   */\n      0x00\n        /* \"#utility.yul\":1146:1213   */\n      tag_100\n        /* \"#utility.yul\":1210:1212   */\n      0x1d\n        /* \"#utility.yul\":1205:1208   */\n      dup4\n        /* \"#utility.yul\":1146:1213   */\n      tag_95\n      jump\t// in\n    tag_100:\n        /* \"#utility.yul\":1139:1213   */\n      swap2\n      pop\n        /* \"#utility.yul\":1222:1315   */\n      tag_101\n        /* \"#utility.yul\":1311:1314   */\n      dup3\n        /* \"#utility.yul\":1222:1315   */\n      tag_102\n      jump\t// in\n    tag_101:\n        /* \"#utility.yul\":1340:1342   */\n      0x20\n        /* \"#utility.yul\":1335:1338   */\n      dup3\n        /* \"#utility.yul\":1331:1343   */\n      add\n        /* \"#utility.yul\":1324:1343   */\n      swap1\n      pop\n        /* \"#utility.yul\":983:1349   */\n      swap2\n      swap1\n      pop\n      jump\t// out\n        /* \"#utility.yul\":1355:1473   */\n    tag_103:\n        /* \"#utility.yul\":1442:1466   */\n      tag_105\n        /* \"#utility.yul\":1460:1465   */\n      dup2\n        /* \"#utility.yul\":1442:1466   */\n      tag_106\n      jump\t// in\n    tag_105:\n        /* \"#utility.yul\":1437:1440   */\n      dup3\n        /* \"#utility.yul\":1430:1467   */\n      mstore\n        /* \"#utility.yul\":1355:1473   */\n      pop\n      pop\n      jump\t// out\n        /* \"#utility.yul\":1479:1701   */\n    tag_57:\n        /* \"#utility.yul\":1572:1576   */\n      0x00\n        /* \"#utility.yul\":1610:1612   */\n      0x20\n        /* \"#utility.yul\":1599:1608   */\n      dup3\n        /* \"#utility.yul\":1595:1613   */\n      add\n        /* \"#utility.yul\":1587:1613   */\n      swap1\n      pop\n        /* \"#utility.yul\":1623:1694   */\n      tag_108\n        /* \"#utility.yul\":1691:1692   */\n      0x00\n        /* \"#utility.yul\":1680:1689   */\n      dup4\n        /* \"#utility.yul\":1676:1693   */\n      add\n        /* \"#utility.yul\":1667:1673   */\n      dup5\n        /* \"#utility.yul\":1623:1694   */\n      tag_88\n      jump\t// in\n    tag_108:\n        /* \"#utility.yul\":1479:1701   */\n      swap3\n      swap2\n      pop\n      pop\n      jump\t// out\n        /* \"#utility.yul\":1707:2126   */\n    tag_61:\n        /* \"#utility.yul\":1873:1877   */\n      0x00\n        /* \"#utility.yul\":1911:1913   */\n      0x20\n        /* \"#utility.yul\":1900:1909   */\n      dup3\n        /* \"#utility.yul\":1896:1914   */\n      add\n        /* \"#utility.yul\":1888:1914   */\n      swap1\n      pop\n        /* \"#utility.yul\":1960:1969   */\n      dup2\n        /* \"#utility.yul\":1954:1958   */\n      dup2\n        /* \"#utility.yul\":1950:1970   */\n      sub\n        /* \"#utility.yul\":1946:1947   */\n      0x00\n        /* \"#utility.yul\":1935:1944   */\n      dup4\n        /* \"#utility.yul\":1931:1948   */\n      add\n        /* \"#utility.yul\":1924:1971   */\n      mstore\n        /* \"#utility.yul\":1988:2119   */\n      tag_110\n        /* \"#utility.yul\":2114:2118   */\n      dup2\n        /* \"#utility.yul\":1988:2119   */\n      tag_92\n      jump\t// in\n    tag_110:\n        /* \"#utility.yul\":1980:2119   */\n      swap1\n      pop\n        /* \"#utility.yul\":1707:2126   */\n      swap2\n      swap1\n      pop\n      jump\t// out\n        /* \"#utility.yul\":2132:2551   */\n    tag_64:\n        /* \"#utility.yul\":2298:2302   */\n      0x00\n        /* \"#utility.yul\":2336:2338   */\n      0x20\n        /* \"#utility.yul\":2325:2334   */\n      dup3\n        /* \"#utility.yul\":2321:2339   */\n      add\n        /* \"#utility.yul\":2313:2339   */\n      swap1\n      pop\n        /* \"#utility.yul\":2385:2394   */\n      dup2\n        /* \"#utility.yul\":2379:2383   */\n      dup2\n        /* \"#utility.yul\":2375:2395   */\n      sub\n        /* \"#utility.yul\":2371:2372   */\n      0x00\n        /* \"#utility.yul\":2360:2369   */\n      dup4\n        /* \"#utility.yul\":2356:2373   */\n      add\n        /* \"#utility.yul\":2349:2396   */\n      mstore\n        /* \"#utility.yul\":2413:2544   */\n      tag_112\n        /* \"#utility.yul\":2539:2543   */\n      dup2\n        /* \"#utility.yul\":2413:2544   */\n      tag_98\n      jump\t// in\n    tag_112:\n        /* \"#utility.yul\":2405:2544   */\n      swap1\n      pop\n        /* \"#utility.yul\":2132:2551   */\n      swap2\n      swap1\n      pop\n      jump\t// out\n        /* \"#utility.yul\":2557:2779   */\n    tag_22:\n        /* \"#utility.yul\":2650:2654   */\n      0x00\n        /* \"#utility.yul\":2688:2690   */\n      0x20\n        /* \"#utility.yul\":2677:2686   */\n      dup3\n        /* \"#utility.yul\":2673:2691   */\n      add\n        /* \"#utility.yul\":2665:2691   */\n      swap1\n      pop\n        /* \"#utility.yul\":2701:2772   */\n      tag_114\n        /* \"#utility.yul\":2769:2770   */\n      0x00\n        /* \"#utility.yul\":2758:2767   */\n      dup4\n        /* \"#utility.yul\":2754:2771   */\n      add\n        /* \"#utility.yul\":2745:2751   */\n      dup5\n        /* \"#utility.yul\":2701:2772   */\n      tag_103\n      jump\t// in\n    tag_114:\n        /* \"#utility.yul\":2557:2779   */\n      swap3\n      swap2\n      pop\n      pop\n      jump\t// out\n        /* \"#utility.yul\":2866:3035   */\n    tag_95:\n        /* \"#utility.yul\":2950:2961   */\n      0x00\n        /* \"#utility.yul\":2984:2990   */\n      dup3\n        /* \"#utility.yul\":2979:2982   */\n      dup3\n        /* \"#utility.yul\":2972:2991   */\n      mstore\n        /* \"#utility.yul\":3024:3028   */\n      0x20\n        /* \"#utility.yul\":3019:3022   */\n      dup3\n        /* \"#utility.yul\":3015:3029   */\n      add\n        /* \"#utility.yul\":3000:3029   */\n      swap1\n      pop\n        /* \"#utility.yul\":2866:3035   */\n      swap3\n      swap2\n      pop\n      pop\n      jump\t// out\n        /* \"#utility.yul\":3041:3346   */\n    tag_69:\n        /* \"#utility.yul\":3081:3084   */\n      0x00\n        /* \"#utility.yul\":3100:3120   */\n      tag_119\n        /* \"#utility.yul\":3118:3119   */\n      dup3\n        /* \"#utility.yul\":3100:3120   */\n      tag_106\n      jump\t// in\n    tag_119:\n        /* \"#utility.yul\":3095:3120   */\n      swap2\n      pop\n        /* \"#utility.yul\":3134:3154   */\n      tag_120\n        /* \"#utility.yul\":3152:3153   */\n      dup4\n        /* \"#utility.yul\":3134:3154   */\n      tag_106\n      jump\t// in\n    tag_120:\n        /* \"#utility.yul\":3129:3154   */\n      swap3\n      pop\n        /* \"#utility.yul\":3288:3289   */\n      dup3\n        /* \"#utility.yul\":3220:3286   */\n      0xffffffffffffffffffffffffffffffffffffffffffffffffffffffffffffffff\n        /* \"#utility.yul\":3216:3290   */\n      sub\n        /* \"#utility.yul\":3213:3214   */\n      dup3\n        /* \"#utility.yul\":3210:3291   */\n      gt\n        /* \"#utility.yul\":3207:3314   */\n      iszero\n      tag_121\n      jumpi\n        /* \"#utility.yul\":3294:3312   */\n      tag_122\n      tag_123\n      jump\t// in\n    tag_122:\n        /* \"#utility.yul\":3207:3314   */\n    tag_121:\n        /* \"#utility.yul\":3338:3339   */\n      dup3\n        /* \"#utility.yul\":3335:3336   */\n      dup3\n        /* \"#utility.yul\":3331:3340   */\n      add\n        /* \"#utility.yul\":3324:3340   */\n      swap1\n      pop\n        /* \"#utility.yul\":3041:3346   */\n      swap3\n      swap2\n      pop\n      pop\n      jump\t// out\n        /* \"#utility.yul\":3352:3448   */\n    tag_91:\n        /* \"#utility.yul\":3389:3396   */\n      0x00\n        /* \"#utility.yul\":3418:3442   */\n      tag_125\n        /* \"#utility.yul\":3436:3441   */\n      dup3\n        /* \"#utility.yul\":3418:3442   */\n      tag_126\n      jump\t// in\n    tag_125:\n        /* \"#utility.yul\":3407:3442   */\n      swap1\n      pop\n        /* \"#utility.yul\":3352:3448   */\n      swap2\n      swap1\n      pop\n      jump\t// out\n        /* \"#utility.yul\":3454:3580   */\n    tag_126:\n        /* \"#utility.yul\":3491:3498   */\n      0x00\n        /* \"#utility.yul\":3531:3573   */\n      0xffffffffffffffffffffffffffffffffffffffff\n        /* \"#utility.yul\":3524:3529   */\n      dup3\n        /* \"#utility.yul\":3520:3574   */\n      and\n        /* \"#utility.yul\":3509:3574   */\n      swap1\n      pop\n        /* \"#utility.yul\":3454:3580   */\n      swap2\n      swap1\n      pop\n      jump\t// out\n        /* \"#utility.yul\":3586:3663   */\n    tag_106:\n        /* \"#utility.yul\":3623:3630   */\n      0x00\n        /* \"#utility.yul\":3652:3657   */\n      dup2\n        /* \"#utility.yul\":3641:3657   */\n      swap1\n      pop\n        /* \"#utility.yul\":3586:3663   */\n      swap2\n      swap1\n      pop\n      jump\t// out\n        /* \"#utility.yul\":3669:3902   */\n    tag_67:\n        /* \"#utility.yul\":3708:3711   */\n      0x00\n        /* \"#utility.yul\":3731:3755   */\n      tag_130\n        /* \"#utility.yul\":3749:3754   */\n      dup3\n        /* \"#utility.yul\":3731:3755   */\n      tag_106\n      jump\t// in\n    tag_130:\n        /* \"#utility.yul\":3722:3755   */\n      swap2\n      pop\n        /* \"#utility.yul\":3777:3843   */\n      0xffffffffffffffffffffffffffffffffffffffffffffffffffffffffffffffff\n        /* \"#utility.yul\":3770:3775   */\n      dup3\n        /* \"#utility.yul\":3767:3844   */\n      eq\n        /* \"#utility.yul\":3764:3867   */\n      iszero\n      tag_131\n      jumpi\n        /* \"#utility.yul\":3847:3865   */\n      tag_132\n      tag_123\n      jump\t// in\n    tag_132:\n        /* \"#utility.yul\":3764:3867   */\n    tag_131:\n        /* \"#utility.yul\":3894:3895   */\n      0x01\n        /* \"#utility.yul\":3887:3892   */\n      dup3\n        /* \"#utility.yul\":3883:3896   */\n      add\n        /* \"#utility.yul\":3876:3896   */\n      swap1\n      pop\n        /* \"#utility.yul\":3669:3902   */\n      swap2\n      swap1\n      pop\n      jump\t// out\n        /* \"#utility.yul\":3908:4088   */\n    tag_123:\n        /* \"#utility.yul\":3956:4033   */\n      0x4e487b7100000000000000000000000000000000000000000000000000000000\n        /* \"#utility.yul\":3953:3954   */\n      0x00\n        /* \"#utility.yul\":3946:4034   */\n      mstore\n        /* \"#utility.yul\":4053:4057   */\n      0x11\n        /* \"#utility.yul\":4050:4051   */\n      0x04\n        /* \"#utility.yul\":4043:4058   */\n      mstore\n        /* \"#utility.yul\":4077:4081   */\n      0x24\n        /* \"#utility.yul\":4074:4075   */\n      0x00\n        /* \"#utility.yul\":4067:4082   */\n      revert\n        /* \"#utility.yul\":4217:4334   */\n    tag_86:\n        /* \"#utility.yul\":4326:4327   */\n      0x00\n        /* \"#utility.yul\":4323:4324   */\n      dup1\n        /* \"#utility.yul\":4316:4328   */\n      revert\n        /* \"#utility.yul\":4340:4510   */\n    tag_97:\n        /* \"#utility.yul\":4480:4502   */\n      0x446561646c696e6520686173207061737365642e000000000000000000000000\n        /* \"#utility.yul\":4476:4477   */\n      0x00\n        /* \"#utility.yul\":4468:4474   */\n      dup3\n        /* \"#utility.yul\":4464:4478   */\n      add\n        /* \"#utility.yul\":4457:4503   */\n      mstore\n        /* \"#utility.yul\":4340:4510   */\n      pop\n      jump\t// out\n        /* \"#utility.yul\":4516:4695   */\n    tag_102:\n        /* \"#utility.yul\":4656:4687   */\n      0x4d696e696d756d20636f6e747269627574696f6e206e6f74206d65742e000000\n        /* \"#utility.yul\":4652:4653   */\n      0x00\n        /* \"#utility.yul\":4644:4650   */\n      dup3\n        /* \"#utility.yul\":4640:4654   */\n      add\n        /* \"#utility.yul\":4633:4688   */\n      mstore\n        /* \"#utility.yul\":4516:4695   */\n      pop\n      jump\t// out\n        /* \"#utility.yul\":4701:4823   */\n    tag_82:\n        /* \"#utility.yul\":4774:4798   */\n      tag_140\n        /* \"#utility.yul\":4792:4797   */\n      dup2\n        /* \"#utility.yul\":4774:4798   */\n      tag_91\n      jump\t// in\n    tag_140:\n        /* \"#utility.yul\":4767:4772   */\n      dup2\n        /* \"#utility.yul\":4764:4799   */\n      eq\n        /* \"#utility.yul\":4754:4817   */\n      tag_141\n      jumpi\n        /* \"#utility.yul\":4813:4814   */\n      0x00\n        /* \"#utility.yul\":4810:4811   */\n      dup1\n        /* \"#utility.yul\":4803:4815   */\n      revert\n        /* \"#utility.yul\":4754:4817   */\n    tag_141:\n        /* \"#utility.yul\":4701:4823   */\n      pop\n      jump\t// out\n\n    auxdata: 0xa2646970667358221220052aaccdef56b57e978302d19557619420e908cfc821406f28934f4956579eac64736f6c63430008070033\n}\n",
				"bytecode": {
					"linkReferences": {},
					"object": "608060405234801561001057600080fd5b506040516109b53803806109b5833981810160405281019061003291906100b0565b81600581905550804261004591906100f0565b600481905550606460038190555033600160006101000a81548173ffffffffffffffffffffffffffffffffffffffff021916908373ffffffffffffffffffffffffffffffffffffffff160217905550505061019b565b6000815190506100aa81610184565b92915050565b600080604083850312156100c7576100c661017f565b5b60006100d58582860161009b565b92505060206100e68582860161009b565b9150509250929050565b60006100fb82610146565b915061010683610146565b9250827fffffffffffffffffffffffffffffffffffffffffffffffffffffffffffffffff0382111561013b5761013a610150565b5b828201905092915050565b6000819050919050565b7f4e487b7100000000000000000000000000000000000000000000000000000000600052601160045260246000fd5b600080fd5b61018d81610146565b811461019857600080fd5b50565b61080b806101aa6000396000f3fe6080604052600436106100955760003560e01c8063b2d5ae4411610059578063b2d5ae4414610192578063c59ee1dc146101a9578063d7bb99ba146101d4578063f3740daf146101de578063f851a44014610209576100a4565b806312065fe0146100a95780631f6d4942146100d457806329dcb0cf14610111578063401938831461013c578063937e09b114610167576100a4565b366100a4576100a2610234565b005b600080fd5b3480156100b557600080fd5b506100be61038d565b6040516100cb9190610631565b60405180910390f35b3480156100e057600080fd5b506100fb60048036038101906100f69190610545565b610395565b6040516101089190610631565b60405180910390f35b34801561011d57600080fd5b506101266103ad565b6040516101339190610631565b60405180910390f35b34801561014857600080fd5b506101516103b3565b60405161015e9190610631565b60405180910390f35b34801561017357600080fd5b5061017c6103b9565b6040516101899190610631565b60405180910390f35b34801561019e57600080fd5b506101a76103bf565b005b3480156101b557600080fd5b506101be6104fe565b6040516101cb9190610631565b60405180910390f35b6101dc610234565b005b3480156101ea57600080fd5b506101f3610504565b6040516102009190610631565b60405180910390f35b34801561021557600080fd5b5061021e61050a565b60405161022b91906105d6565b60405180910390f35b6004544210610278576040517f08c379a000000000000000000000000000000000000000000000000000000000815260040161026f906105f1565b60405180910390fd5b6003543410156102bd576040517f08c379a00000000000000000000000000000000000000000000000000000000081526004016102b490610611565b60405180910390fd5b60008060003373ffffffffffffffffffffffffffffffffffffffff1673ffffffffffffffffffffffffffffffffffffffff16815260200190815260200160002054141561031d5760026000815480929190610317906106ef565b91905055505b346000803373ffffffffffffffffffffffffffffffffffffffff1673ffffffffffffffffffffffffffffffffffffffff168152602001908152602001600020600082825461036b919061065d565b925050819055503460066000828254610384919061065d565b92505081905550565b600047905090565b60006020528060005260406000206000915090505481565b60045481565b60055481565b60035481565b600454421180156103d35750600554600654105b6103dc57600080fd5b60008060003373ffffffffffffffffffffffffffffffffffffffff1673ffffffffffffffffffffffffffffffffffffffff168152602001908152602001600020541161042757600080fd5b600033905060008060003373ffffffffffffffffffffffffffffffffffffffff1673ffffffffffffffffffffffffffffffffffffffff1681526020019081526020016000205490508173ffffffffffffffffffffffffffffffffffffffff166108fc829081150290604051600060405180830381858888f193505050501580156104b5573d6000803e3d6000fd5b5060008060003373ffffffffffffffffffffffffffffffffffffffff1673ffffffffffffffffffffffffffffffffffffffff168152602001908152602001600020819055505050565b60065481565b60025481565b600160009054906101000a900473ffffffffffffffffffffffffffffffffffffffff1681565b60008135905061053f816107be565b92915050565b60006020828403121561055b5761055a610767565b5b600061056984828501610530565b91505092915050565b61057b816106b3565b82525050565b600061058e60148361064c565b91506105998261076c565b602082019050919050565b60006105b1601d8361064c565b91506105bc82610795565b602082019050919050565b6105d0816106e5565b82525050565b60006020820190506105eb6000830184610572565b92915050565b6000602082019050818103600083015261060a81610581565b9050919050565b6000602082019050818103600083015261062a816105a4565b9050919050565b600060208201905061064660008301846105c7565b92915050565b600082825260208201905092915050565b6000610668826106e5565b9150610673836106e5565b9250827fffffffffffffffffffffffffffffffffffffffffffffffffffffffffffffffff038211156106a8576106a7610738565b5b828201905092915050565b60006106be826106c5565b9050919050565b600073ffffffffffffffffffffffffffffffffffffffff82169050919050565b6000819050919050565b60006106fa826106e5565b91507fffffffffffffffffffffffffffffffffffffffffffffffffffffffffffffffff82141561072d5761072c610738565b5b600182019050919050565b7f4e487b7100000000000000000000000000000000000000000000000000000000600052601160045260246000fd5b600080fd5b7f446561646c696e6520686173207061737365642e000000000000000000000000600082015250565b7f4d696e696d756d20636f6e747269627574696f6e206e6f74206d65742e000000600082015250565b6107c7816106b3565b81146107d257600080fd5b5056fea2646970667358221220052aaccdef56b57e978302d19557619420e908cfc821406f28934f4956579eac64736f6c63430008070033",
					"opcodes": "PUSH1 0x80 PUSH1 0x40 MSTORE CALLVALUE DUP1 ISZERO PUSH2 0x10 JUMPI PUSH1 0x0 DUP1 REVERT JUMPDEST POP PUSH1 0x40 MLOAD PUSH2 0x9B5 CODESIZE SUB DUP1 PUSH2 0x9B5 DUP4 CODECOPY DUP2 DUP2 ADD PUSH1 0x40 MSTORE DUP2 ADD SWAP1 PUSH2 0x32 SWAP2 SWAP1 PUSH2 0xB0 JUMP JUMPDEST DUP2 PUSH1 0x5 DUP2 SWAP1 SSTORE POP DUP1 TIMESTAMP PUSH2 0x45 SWAP2 SWAP1 PUSH2 0xF0 JUMP JUMPDEST PUSH1 0x4 DUP2 SWAP1 SSTORE POP PUSH1 0x64 PUSH1 0x3 DUP2 SWAP1 SSTORE POP CALLER PUSH1 0x1 PUSH1 0x0 PUSH2 0x100 EXP DUP2 SLOAD DUP2 PUSH20 0xFFFFFFFFFFFFFFFFFFFFFFFFFFFFFFFFFFFFFFFF MUL NOT AND SWAP1 DUP4 PUSH20 0xFFFFFFFFFFFFFFFFFFFFFFFFFFFFFFFFFFFFFFFF AND MUL OR SWAP1 SSTORE POP POP POP PUSH2 0x19B JUMP JUMPDEST PUSH1 0x0 DUP2 MLOAD SWAP1 POP PUSH2 0xAA DUP2 PUSH2 0x184 JUMP JUMPDEST SWAP3 SWAP2 POP POP JUMP JUMPDEST PUSH1 0x0 DUP1 PUSH1 0x40 DUP4 DUP6 SUB SLT ISZERO PUSH2 0xC7 JUMPI PUSH2 0xC6 PUSH2 0x17F JUMP JUMPDEST JUMPDEST PUSH1 0x0 PUSH2 0xD5 DUP6 DUP3 DUP7 ADD PUSH2 0x9B JUMP JUMPDEST SWAP3 POP POP PUSH1 0x20 PUSH2 0xE6 DUP6 DUP3 DUP7 ADD PUSH2 0x9B JUMP JUMPDEST SWAP2 POP POP SWAP3 POP SWAP3 SWAP1 POP JUMP JUMPDEST PUSH1 0x0 PUSH2 0xFB DUP3 PUSH2 0x146 JUMP JUMPDEST SWAP2 POP PUSH2 0x106 DUP4 PUSH2 0x146 JUMP JUMPDEST SWAP3 POP DUP3 PUSH32 0xFFFFFFFFFFFFFFFFFFFFFFFFFFFFFFFFFFFFFFFFFFFFFFFFFFFFFFFFFFFFFFFF SUB DUP3 GT ISZERO PUSH2 0x13B JUMPI PUSH2 0x13A PUSH2 0x150 JUMP JUMPDEST JUMPDEST DUP3 DUP3 ADD SWAP1 POP SWAP3 SWAP2 POP POP JUMP JUMPDEST PUSH1 0x0 DUP2 SWAP1 POP SWAP2 SWAP1 POP JUMP JUMPDEST PUSH32 0x4E487B7100000000000000000000000000000000000000000000000000000000 PUSH1 0x0 MSTORE PUSH1 0x11 PUSH1 0x4 MSTORE PUSH1 0x24 PUSH1 0x0 REVERT JUMPDEST PUSH1 0x0 DUP1 REVERT JUMPDEST PUSH2 0x18D DUP2 PUSH2 0x146 JUMP JUMPDEST DUP2 EQ PUSH2 0x198 JUMPI PUSH1 0x0 DUP1 REVERT JUMPDEST POP JUMP JUMPDEST PUSH2 0x80B DUP1 PUSH2 0x1AA PUSH1 0x0 CODECOPY PUSH1 0x0 RETURN INVALID PUSH1 0x80 PUSH1 0x40 MSTORE PUSH1 0x4 CALLDATASIZE LT PUSH2 0x95 JUMPI PUSH1 0x0 CALLDATALOAD PUSH1 0xE0 SHR DUP1 PUSH4 0xB2D5AE44 GT PUSH2 0x59 JUMPI DUP1 PUSH4 0xB2D5AE44 EQ PUSH2 0x192 JUMPI DUP1 PUSH4 0xC59EE1DC EQ PUSH2 0x1A9 JUMPI DUP1 PUSH4 0xD7BB99BA EQ PUSH2 0x1D4 JUMPI DUP1 PUSH4 0xF3740DAF EQ PUSH2 0x1DE JUMPI DUP1 PUSH4 0xF851A440 EQ PUSH2 0x209 JUMPI PUSH2 0xA4 JUMP JUMPDEST DUP1 PUSH4 0x12065FE0 EQ PUSH2 0xA9 JUMPI DUP1 PUSH4 0x1F6D4942 EQ PUSH2 0xD4 JUMPI DUP1 PUSH4 0x29DCB0CF EQ PUSH2 0x111 JUMPI DUP1 PUSH4 0x40193883 EQ PUSH2 0x13C JUMPI DUP1 PUSH4 0x937E09B1 EQ PUSH2 0x167 JUMPI PUSH2 0xA4 JUMP JUMPDEST CALLDATASIZE PUSH2 0xA4 JUMPI PUSH2 0xA2 PUSH2 0x234 JUMP JUMPDEST STOP JUMPDEST PUSH1 0x0 DUP1 REVERT JUMPDEST CALLVALUE DUP1 ISZERO PUSH2 0xB5 JUMPI PUSH1 0x0 DUP1 REVERT JUMPDEST POP PUSH2 0xBE PUSH2 0x38D JUMP JUMPDEST PUSH1 0x40 MLOAD PUSH2 0xCB SWAP2 SWAP1 PUSH2 0x631 JUMP JUMPDEST PUSH1 0x40 MLOAD DUP1 SWAP2 SUB SWAP1 RETURN JUMPDEST CALLVALUE DUP1 ISZERO PUSH2 0xE0 JUMPI PUSH1 0x0 DUP1 REVERT JUMPDEST POP PUSH2 0xFB PUSH1 0x4 DUP1 CALLDATASIZE SUB DUP2 ADD SWAP1 PUSH2 0xF6 SWAP2 SWAP1 PUSH2 0x545 JUMP JUMPDEST PUSH2 0x395 JUMP JUMPDEST PUSH1 0x40 MLOAD PUSH2 0x108 SWAP2 SWAP1 PUSH2 0x631 JUMP JUMPDEST PUSH1 0x40 MLOAD DUP1 SWAP2 SUB SWAP1 RETURN JUMPDEST CALLVALUE DUP1 ISZERO PUSH2 0x11D JUMPI PUSH1 0x0 DUP1 REVERT JUMPDEST POP PUSH2 0x126 PUSH2 0x3AD JUMP JUMPDEST PUSH1 0x40 MLOAD PUSH2 0x133 SWAP2 SWAP1 PUSH2 0x631 JUMP JUMPDEST PUSH1 0x40 MLOAD DUP1 SWAP2 SUB SWAP1 RETURN JUMPDEST CALLVALUE DUP1 ISZERO PUSH2 0x148 JUMPI PUSH1 0x0 DUP1 REVERT JUMPDEST POP PUSH2 0x151 PUSH2 0x3B3 JUMP JUMPDEST PUSH1 0x40 MLOAD PUSH2 0x15E SWAP2 SWAP1 PUSH2 0x631 JUMP JUMPDEST PUSH1 0x40 MLOAD DUP1 SWAP2 SUB SWAP1 RETURN JUMPDEST CALLVALUE DUP1 ISZERO PUSH2 0x173 JUMPI PUSH1 0x0 DUP1 REVERT JUMPDEST POP PUSH2 0x17C PUSH2 0x3B9 JUMP JUMPDEST PUSH1 0x40 MLOAD PUSH2 0x189 SWAP2 SWAP1 PUSH2 0x631 JUMP JUMPDEST PUSH1 0x40 MLOAD DUP1 SWAP2 SUB SWAP1 RETURN JUMPDEST CALLVALUE DUP1 ISZERO PUSH2 0x19E JUMPI PUSH1 0x0 DUP1 REVERT JUMPDEST POP PUSH2 0x1A7 PUSH2 0x3BF JUMP JUMPDEST STOP JUMPDEST CALLVALUE DUP1 ISZERO PUSH2 0x1B5 JUMPI PUSH1 0x0 DUP1 REVERT JUMPDEST POP PUSH2 0x1BE PUSH2 0x4FE JUMP JUMPDEST PUSH1 0x40 MLOAD PUSH2 0x1CB SWAP2 SWAP1 PUSH2 0x631 JUMP JUMPDEST PUSH1 0x40 MLOAD DUP1 SWAP2 SUB SWAP1 RETURN JUMPDEST PUSH2 0x1DC PUSH2 0x234 JUMP JUMPDEST STOP JUMPDEST CALLVALUE DUP1 ISZERO PUSH2 0x1EA JUMPI PUSH1 0x0 DUP1 REVERT JUMPDEST POP PUSH2 0x1F3 PUSH2 0x504 JUMP JUMPDEST PUSH1 0x40 MLOAD PUSH2 0x200 SWAP2 SWAP1 PUSH2 0x631 JUMP JUMPDEST PUSH1 0x40 MLOAD DUP1 SWAP2 SUB SWAP1 RETURN JUMPDEST CALLVALUE DUP1 ISZERO PUSH2 0x215 JUMPI PUSH1 0x0 DUP1 REVERT JUMPDEST POP PUSH2 0x21E PUSH2 0x50A JUMP JUMPDEST PUSH1 0x40 MLOAD PUSH2 0x22B SWAP2 SWAP1 PUSH2 0x5D6 JUMP JUMPDEST PUSH1 0x40 MLOAD DUP1 SWAP2 SUB SWAP1 RETURN JUMPDEST PUSH1 0x4 SLOAD TIMESTAMP LT PUSH2 0x278 JUMPI PUSH1 0x40 MLOAD PUSH32 0x8C379A000000000000000000000000000000000000000000000000000000000 DUP2 MSTORE PUSH1 0x4 ADD PUSH2 0x26F SWAP1 PUSH2 0x5F1 JUMP JUMPDEST PUSH1 0x40 MLOAD DUP1 SWAP2 SUB SWAP1 REVERT JUMPDEST PUSH1 0x3 SLOAD CALLVALUE LT ISZERO PUSH2 0x2BD JUMPI PUSH1 0x40 MLOAD PUSH32 0x8C379A000000000000000000000000000000000000000000000000000000000 DUP2 MSTORE PUSH1 0x4 ADD PUSH2 0x2B4 SWAP1 PUSH2 0x611 JUMP JUMPDEST PUSH1 0x40 MLOAD DUP1 SWAP2 SUB SWAP1 REVERT JUMPDEST PUSH1 0x0 DUP1 PUSH1 0x0 CALLER PUSH20 0xFFFFFFFFFFFFFFFFFFFFFFFFFFFFFFFFFFFFFFFF AND PUSH20 0xFFFFFFFFFFFFFFFFFFFFFFFFFFFFFFFFFFFFFFFF AND DUP2 MSTORE PUSH1 0x20 ADD SWAP1 DUP2 MSTORE PUSH1 0x20 ADD PUSH1 0x0 KECCAK256 SLOAD EQ ISZERO PUSH2 0x31D JUMPI PUSH1 0x2 PUSH1 0x0 DUP2 SLOAD DUP1 SWAP3 SWAP2 SWAP1 PUSH2 0x317 SWAP1 PUSH2 0x6EF JUMP JUMPDEST SWAP2 SWAP1 POP SSTORE POP JUMPDEST CALLVALUE PUSH1 0x0 DUP1 CALLER PUSH20 0xFFFFFFFFFFFFFFFFFFFFFFFFFFFFFFFFFFFFFFFF AND PUSH20 0xFFFFFFFFFFFFFFFFFFFFFFFFFFFFFFFFFFFFFFFF AND DUP2 MSTORE PUSH1 0x20 ADD SWAP1 DUP2 MSTORE PUSH1 0x20 ADD PUSH1 0x0 KECCAK256 PUSH1 0x0 DUP3 DUP3 SLOAD PUSH2 0x36B SWAP2 SWAP1 PUSH2 0x65D JUMP JUMPDEST SWAP3 POP POP DUP2 SWAP1 SSTORE POP CALLVALUE PUSH1 0x6 PUSH1 0x0 DUP3 DUP3 SLOAD PUSH2 0x384 SWAP2 SWAP1 PUSH2 0x65D JUMP JUMPDEST SWAP3 POP POP DUP2 SWAP1 SSTORE POP JUMP JUMPDEST PUSH1 0x0 SELFBALANCE SWAP1 POP SWAP1 JUMP JUMPDEST PUSH1 0x0 PUSH1 0x20 MSTORE DUP1 PUSH1 0x0 MSTORE PUSH1 0x40 PUSH1 0x0 KECCAK256 PUSH1 0x0 SWAP2 POP SWAP1 POP SLOAD DUP2 JUMP JUMPDEST PUSH1 0x4 SLOAD DUP2 JUMP JUMPDEST PUSH1 0x5 SLOAD DUP2 JUMP JUMPDEST PUSH1 0x3 SLOAD DUP2 JUMP JUMPDEST PUSH1 0x4 SLOAD TIMESTAMP GT DUP1 ISZERO PUSH2 0x3D3 JUMPI POP PUSH1 0x5 SLOAD PUSH1 0x6 SLOAD LT JUMPDEST PUSH2 0x3DC JUMPI PUSH1 0x0 DUP1 REVERT JUMPDEST PUSH1 0x0 DUP1 PUSH1 0x0 CALLER PUSH20 0xFFFFFFFFFFFFFFFFFFFFFFFFFFFFFFFFFFFFFFFF AND PUSH20 0xFFFFFFFFFFFFFFFFFFFFFFFFFFFFFFFFFFFFFFFF AND DUP2 MSTORE PUSH1 0x20 ADD SWAP1 DUP2 MSTORE PUSH1 0x20 ADD PUSH1 0x0 KECCAK256 SLOAD GT PUSH2 0x427 JUMPI PUSH1 0x0 DUP1 REVERT JUMPDEST PUSH1 0x0 CALLER SWAP1 POP PUSH1 0x0 DUP1 PUSH1 0x0 CALLER PUSH20 0xFFFFFFFFFFFFFFFFFFFFFFFFFFFFFFFFFFFFFFFF AND PUSH20 0xFFFFFFFFFFFFFFFFFFFFFFFFFFFFFFFFFFFFFFFF AND DUP2 MSTORE PUSH1 0x20 ADD SWAP1 DUP2 MSTORE PUSH1 0x20 ADD PUSH1 0x0 KECCAK256 SLOAD SWAP1 POP DUP2 PUSH20 0xFFFFFFFFFFFFFFFFFFFFFFFFFFFFFFFFFFFFFFFF AND PUSH2 0x8FC DUP3 SWAP1 DUP2 ISZERO MUL SWAP1 PUSH1 0x40 MLOAD PUSH1 0x0 PUSH1 0x40 MLOAD DUP1 DUP4 SUB DUP2 DUP6 DUP9 DUP9 CALL SWAP4 POP POP POP POP ISZERO DUP1 ISZERO PUSH2 0x4B5 JUMPI RETURNDATASIZE PUSH1 0x0 DUP1 RETURNDATACOPY RETURNDATASIZE PUSH1 0x0 REVERT JUMPDEST POP PUSH1 0x0 DUP1 PUSH1 0x0 CALLER PUSH20 0xFFFFFFFFFFFFFFFFFFFFFFFFFFFFFFFFFFFFFFFF AND PUSH20 0xFFFFFFFFFFFFFFFFFFFFFFFFFFFFFFFFFFFFFFFF AND DUP2 MSTORE PUSH1 0x20 ADD SWAP1 DUP2 MSTORE PUSH1 0x20 ADD PUSH1 0x0 KECCAK256 DUP2 SWAP1 SSTORE POP POP POP JUMP JUMPDEST PUSH1 0x6 SLOAD DUP2 JUMP JUMPDEST PUSH1 0x2 SLOAD DUP2 JUMP JUMPDEST PUSH1 0x1 PUSH1 0x0 SWAP1 SLOAD SWAP1 PUSH2 0x100 EXP SWAP1 DIV PUSH20 0xFFFFFFFFFFFFFFFFFFFFFFFFFFFFFFFFFFFFFFFF AND DUP2 JUMP JUMPDEST PUSH1 0x0 DUP2 CALLDATALOAD SWAP1 POP PUSH2 0x53F DUP2 PUSH2 0x7BE JUMP JUMPDEST SWAP3 SWAP2 POP POP JUMP JUMPDEST PUSH1 0x0 PUSH1 0x20 DUP3 DUP5 SUB SLT ISZERO PUSH2 0x55B JUMPI PUSH2 0x55A PUSH2 0x767 JUMP JUMPDEST JUMPDEST PUSH1 0x0 PUSH2 0x569 DUP5 DUP3 DUP6 ADD PUSH2 0x530 JUMP JUMPDEST SWAP2 POP POP SWAP3 SWAP2 POP POP JUMP JUMPDEST PUSH2 0x57B DUP2 PUSH2 0x6B3 JUMP JUMPDEST DUP3 MSTORE POP POP JUMP JUMPDEST PUSH1 0x0 PUSH2 0x58E PUSH1 0x14 DUP4 PUSH2 0x64C JUMP JUMPDEST SWAP2 POP PUSH2 0x599 DUP3 PUSH2 0x76C JUMP JUMPDEST PUSH1 0x20 DUP3 ADD SWAP1 POP SWAP2 SWAP1 POP JUMP JUMPDEST PUSH1 0x0 PUSH2 0x5B1 PUSH1 0x1D DUP4 PUSH2 0x64C JUMP JUMPDEST SWAP2 POP PUSH2 0x5BC DUP3 PUSH2 0x795 JUMP JUMPDEST PUSH1 0x20 DUP3 ADD SWAP1 POP SWAP2 SWAP1 POP JUMP JUMPDEST PUSH2 0x5D0 DUP2 PUSH2 0x6E5 JUMP JUMPDEST DUP3 MSTORE POP POP JUMP JUMPDEST PUSH1 0x0 PUSH1 0x20 DUP3 ADD SWAP1 POP PUSH2 0x5EB PUSH1 0x0 DUP4 ADD DUP5 PUSH2 0x572 JUMP JUMPDEST SWAP3 SWAP2 POP POP JUMP JUMPDEST PUSH1 0x0 PUSH1 0x20 DUP3 ADD SWAP1 POP DUP2 DUP2 SUB PUSH1 0x0 DUP4 ADD MSTORE PUSH2 0x60A DUP2 PUSH2 0x581 JUMP JUMPDEST SWAP1 POP SWAP2 SWAP1 POP JUMP JUMPDEST PUSH1 0x0 PUSH1 0x20 DUP3 ADD SWAP1 POP DUP2 DUP2 SUB PUSH1 0x0 DUP4 ADD MSTORE PUSH2 0x62A DUP2 PUSH2 0x5A4 JUMP JUMPDEST SWAP1 POP SWAP2 SWAP1 POP JUMP JUMPDEST PUSH1 0x0 PUSH1 0x20 DUP3 ADD SWAP1 POP PUSH2 0x646 PUSH1 0x0 DUP4 ADD DUP5 PUSH2 0x5C7 JUMP JUMPDEST SWAP3 SWAP2 POP POP JUMP JUMPDEST PUSH1 0x0 DUP3 DUP3 MSTORE PUSH1 0x20 DUP3 ADD SWAP1 POP SWAP3 SWAP2 POP POP JUMP JUMPDEST PUSH1 0x0 PUSH2 0x668 DUP3 PUSH2 0x6E5 JUMP JUMPDEST SWAP2 POP PUSH2 0x673 DUP4 PUSH2 0x6E5 JUMP JUMPDEST SWAP3 POP DUP3 PUSH32 0xFFFFFFFFFFFFFFFFFFFFFFFFFFFFFFFFFFFFFFFFFFFFFFFFFFFFFFFFFFFFFFFF SUB DUP3 GT ISZERO PUSH2 0x6A8 JUMPI PUSH2 0x6A7 PUSH2 0x738 JUMP JUMPDEST JUMPDEST DUP3 DUP3 ADD SWAP1 POP SWAP3 SWAP2 POP POP JUMP JUMPDEST PUSH1 0x0 PUSH2 0x6BE DUP3 PUSH2 0x6C5 JUMP JUMPDEST SWAP1 POP SWAP2 SWAP1 POP JUMP JUMPDEST PUSH1 0x0 PUSH20 0xFFFFFFFFFFFFFFFFFFFFFFFFFFFFFFFFFFFFFFFF DUP3 AND SWAP1 POP SWAP2 SWAP1 POP JUMP JUMPDEST PUSH1 0x0 DUP2 SWAP1 POP SWAP2 SWAP1 POP JUMP JUMPDEST PUSH1 0x0 PUSH2 0x6FA DUP3 PUSH2 0x6E5 JUMP JUMPDEST SWAP2 POP PUSH32 0xFFFFFFFFFFFFFFFFFFFFFFFFFFFFFFFFFFFFFFFFFFFFFFFFFFFFFFFFFFFFFFFF DUP3 EQ ISZERO PUSH2 0x72D JUMPI PUSH2 0x72C PUSH2 0x738 JUMP JUMPDEST JUMPDEST PUSH1 0x1 DUP3 ADD SWAP1 POP SWAP2 SWAP1 POP JUMP JUMPDEST PUSH32 0x4E487B7100000000000000000000000000000000000000000000000000000000 PUSH1 0x0 MSTORE PUSH1 0x11 PUSH1 0x4 MSTORE PUSH1 0x24 PUSH1 0x0 REVERT JUMPDEST PUSH1 0x0 DUP1 REVERT JUMPDEST PUSH32 0x446561646C696E6520686173207061737365642E000000000000000000000000 PUSH1 0x0 DUP3 ADD MSTORE POP JUMP JUMPDEST PUSH32 0x4D696E696D756D20636F6E747269627574696F6E206E6F74206D65742E000000 PUSH1 0x0 DUP3 ADD MSTORE POP JUMP JUMPDEST PUSH2 0x7C7 DUP2 PUSH2 0x6B3 JUMP JUMPDEST DUP2 EQ PUSH2 0x7D2 JUMPI PUSH1 0x0 DUP1 REVERT JUMPDEST POP JUMP INVALID LOG2 PUSH5 0x6970667358 0x22 SLT KECCAK256 SDIV 0x2A 0xAC 0xCD 0xEF JUMP 0xB5 PUSH31 0x978302D19557619420E908CFC821406F28934F4956579EAC64736F6C634300 ADDMOD SMOD STOP CALLER "
				},
				"gasEstimates": {
					"creation": {
						"codeDepositCost": "411800",
						"executionCost": "infinite",
						"totalCost": "infinite"
					},
					"external": {
						"admin()": "2602",
						"contribute()": "infinite",
						"contributors(address)": "2837",
						"deadline()": "2474",
						"getBalance()": "340",
						"getRefund()": "infinite",
						"goal()": "2496",
						"minimumContribution()": "2518",
						"numberContributors()": "2495",
						"raisedAmount()": "2451"
					}
				},
				"methodIdentifiers": {
					"admin()": "f851a440",
					"contribute()": "d7bb99ba",
					"contributors(address)": "1f6d4942",
					"deadline()": "29dcb0cf",
					"getBalance()": "12065fe0",
					"getRefund()": "b2d5ae44",
					"goal()": "40193883",
					"minimumContribution()": "937e09b1",
					"numberContributors()": "f3740daf",
					"raisedAmount()": "c59ee1dc"
				}
			},
			"storageLayout": {
				"storage": [
					{
						"astId": 5,
						"contract": "contracts/crowdfunding.sol:CrowdFunding",
						"label": "contributors",
						"offset": 0,
						"slot": "0",
						"type": "t_mapping(t_address,t_uint256)"
					},
					{
						"astId": 7,
						"contract": "contracts/crowdfunding.sol:CrowdFunding",
						"label": "admin",
						"offset": 0,
						"slot": "1",
						"type": "t_address"
					},
					{
						"astId": 9,
						"contract": "contracts/crowdfunding.sol:CrowdFunding",
						"label": "numberContributors",
						"offset": 0,
						"slot": "2",
						"type": "t_uint256"
					},
					{
						"astId": 11,
						"contract": "contracts/crowdfunding.sol:CrowdFunding",
						"label": "minimumContribution",
						"offset": 0,
						"slot": "3",
						"type": "t_uint256"
					},
					{
						"astId": 13,
						"contract": "contracts/crowdfunding.sol:CrowdFunding",
						"label": "deadline",
						"offset": 0,
						"slot": "4",
						"type": "t_uint256"
					},
					{
						"astId": 15,
						"contract": "contracts/crowdfunding.sol:CrowdFunding",
						"label": "goal",
						"offset": 0,
						"slot": "5",
						"type": "t_uint256"
					},
					{
						"astId": 17,
						"contract": "contracts/crowdfunding.sol:CrowdFunding",
						"label": "raisedAmount",
						"offset": 0,
						"slot": "6",
						"type": "t_uint256"
					}
				],
				"types": {
					"t_address": {
						"encoding": "inplace",
						"label": "address",
						"numberOfBytes": "20"
					},
					"t_mapping(t_address,t_uint256)": {
						"encoding": "mapping",
						"key": "t_address",
						"label": "mapping(address => uint256)",
						"numberOfBytes": "32",
						"value": "t_uint256"
					},
					"t_uint256": {
						"encoding": "inplace",
						"label": "uint256",
						"numberOfBytes": "32"
					}
				}
			},
			"userdoc": {
				"kind": "user",
				"methods": {},
				"version": 1
			}
		}
	}
}