{
	"contracts/variables_and_functions_visibility.sol": {
		"B": {
			"abi": [
				{
					"inputs": [],
					"name": "f2",
					"outputs": [
						{
							"internalType": "int256",
							"name": "",
							"type": "int256"
						}
					],
					"stateMutability": "view",
					"type": "function"
				},
				{
					"inputs": [],
					"name": "getY",
					"outputs": [
						{
							"internalType": "int256",
							"name": "",
							"type": "int256"
						}
					],
					"stateMutability": "view",
					"type": "function"
				},
				{
					"inputs": [],
					"name": "x",
					"outputs": [
						{
							"internalType": "int256",
							"name": "",
							"type": "int256"
						}
					],
					"stateMutability": "view",
					"type": "function"
				},
				{
					"inputs": [],
					"name": "xx",
					"outputs": [
						{
							"internalType": "int256",
							"name": "",
							"type": "int256"
						}
					],
					"stateMutability": "view",
					"type": "function"
				}
			],
			"devdoc": {
				"kind": "dev",
				"methods": {},
				"version": 1
			},
			"evm": {
				"assembly": "    /* \"contracts/variables_and_functions_visibility.sol\":1044:1153  contract B is A{\r... */\n  mstore(0x40, 0x80)\n    /* \"contracts/variables_and_functions_visibility.sol\":178:180  10 */\n  0x0a\n    /* \"contracts/variables_and_functions_visibility.sol\":163:180  int public x = 10 */\n  0x00\n  sstore\n    /* \"contracts/variables_and_functions_visibility.sol\":296:298  20 */\n  0x14\n    /* \"contracts/variables_and_functions_visibility.sol\":288:298  int y = 20 */\n  0x01\n  sstore\n    /* \"contracts/variables_and_functions_visibility.sol\":1082:1086  f3() */\n  tag_1\n    /* \"contracts/variables_and_functions_visibility.sol\":1082:1084  f3 */\n  shl(0x20, tag_2)\n    /* \"contracts/variables_and_functions_visibility.sol\":1082:1086  f3() */\n  0x20\n  shr\n  jump\t// in\ntag_1:\n    /* \"contracts/variables_and_functions_visibility.sol\":1066:1086  int public xx = f3() */\n  0x02\n  sstore\n    /* \"contracts/variables_and_functions_visibility.sol\":1044:1153  contract B is A{\r... */\n  callvalue\n  dup1\n  iszero\n  tag_3\n  jumpi\n  0x00\n  dup1\n  revert\ntag_3:\n  pop\n  jump(tag_4)\n    /* \"contracts/variables_and_functions_visibility.sol\":921:988  function f3() internal view returns(int){\r... */\ntag_2:\n    /* \"contracts/variables_and_functions_visibility.sol\":957:960  int */\n  0x00\n    /* \"contracts/variables_and_functions_visibility.sol\":979:980  x */\n  dup1\n  sload\n    /* \"contracts/variables_and_functions_visibility.sol\":972:980  return x */\n  swap1\n  pop\n    /* \"contracts/variables_and_functions_visibility.sol\":921:988  function f3() internal view returns(int){\r... */\n  swap1\n  jump\t// out\n    /* \"contracts/variables_and_functions_visibility.sol\":1044:1153  contract B is A{\r... */\ntag_4:\n  dataSize(sub_0)\n  dup1\n  dataOffset(sub_0)\n  0x00\n  codecopy\n  0x00\n  return\nstop\n\nsub_0: assembly {\n        /* \"contracts/variables_and_functions_visibility.sol\":1044:1153  contract B is A{\r... */\n      mstore(0x40, 0x80)\n      callvalue\n      dup1\n      iszero\n      tag_1\n      jumpi\n      0x00\n      dup1\n      revert\n    tag_1:\n      pop\n      jumpi(tag_2, lt(calldatasize, 0x04))\n      shr(0xe0, calldataload(0x00))\n      dup1\n      0x0b7f1665\n      eq\n      tag_3\n      jumpi\n      dup1\n      0x0c55699c\n      eq\n      tag_4\n      jumpi\n      dup1\n      0x9942ec6f\n      eq\n      tag_5\n      jumpi\n      dup1\n      0xece57b04\n      eq\n      tag_6\n      jumpi\n    tag_2:\n      0x00\n      dup1\n      revert\n        /* \"contracts/variables_and_functions_visibility.sol\":383:450  function getY() public view returns(int){\r... */\n    tag_3:\n      tag_7\n      tag_8\n      jump\t// in\n    tag_7:\n      mload(0x40)\n      tag_9\n      swap2\n      swap1\n      tag_10\n      jump\t// in\n    tag_9:\n      mload(0x40)\n      dup1\n      swap2\n      sub\n      swap1\n      return\n        /* \"contracts/variables_and_functions_visibility.sol\":163:180  int public x = 10 */\n    tag_4:\n      tag_11\n      tag_12\n      jump\t// in\n    tag_11:\n      mload(0x40)\n      tag_13\n      swap2\n      swap1\n      tag_10\n      jump\t// in\n    tag_13:\n      mload(0x40)\n      dup1\n      swap2\n      sub\n      swap1\n      return\n        /* \"contracts/variables_and_functions_visibility.sol\":787:887  function f2() public view returns(int){\r... */\n    tag_5:\n      tag_14\n      tag_15\n      jump\t// in\n    tag_14:\n      mload(0x40)\n      tag_16\n      swap2\n      swap1\n      tag_10\n      jump\t// in\n    tag_16:\n      mload(0x40)\n      dup1\n      swap2\n      sub\n      swap1\n      return\n        /* \"contracts/variables_and_functions_visibility.sol\":1066:1086  int public xx = f3() */\n    tag_6:\n      tag_17\n      tag_18\n      jump\t// in\n    tag_17:\n      mload(0x40)\n      tag_19\n      swap2\n      swap1\n      tag_10\n      jump\t// in\n    tag_19:\n      mload(0x40)\n      dup1\n      swap2\n      sub\n      swap1\n      return\n        /* \"contracts/variables_and_functions_visibility.sol\":383:450  function getY() public view returns(int){\r... */\n    tag_8:\n        /* \"contracts/variables_and_functions_visibility.sol\":419:422  int */\n      0x00\n        /* \"contracts/variables_and_functions_visibility.sol\":441:442  y */\n      sload(0x01)\n        /* \"contracts/variables_and_functions_visibility.sol\":434:442  return y */\n      swap1\n      pop\n        /* \"contracts/variables_and_functions_visibility.sol\":383:450  function getY() public view returns(int){\r... */\n      swap1\n      jump\t// out\n        /* \"contracts/variables_and_functions_visibility.sol\":163:180  int public x = 10 */\n    tag_12:\n      sload(0x00)\n      dup2\n      jump\t// out\n        /* \"contracts/variables_and_functions_visibility.sol\":787:887  function f2() public view returns(int){\r... */\n    tag_15:\n        /* \"contracts/variables_and_functions_visibility.sol\":821:824  int */\n      0x00\n        /* \"contracts/variables_and_functions_visibility.sol\":836:841  int a */\n      dup1\n        /* \"contracts/variables_and_functions_visibility.sol\":856:860  f1() */\n      tag_22\n        /* \"contracts/variables_and_functions_visibility.sol\":856:858  f1 */\n      tag_23\n        /* \"contracts/variables_and_functions_visibility.sol\":856:860  f1() */\n      jump\t// in\n    tag_22:\n        /* \"contracts/variables_and_functions_visibility.sol\":852:860  a = f1() */\n      swap1\n      pop\n        /* \"contracts/variables_and_functions_visibility.sol\":878:879  a */\n      dup1\n        /* \"contracts/variables_and_functions_visibility.sol\":871:879  return a */\n      swap2\n      pop\n      pop\n        /* \"contracts/variables_and_functions_visibility.sol\":787:887  function f2() public view returns(int){\r... */\n      swap1\n      jump\t// out\n        /* \"contracts/variables_and_functions_visibility.sol\":1066:1086  int public xx = f3() */\n    tag_18:\n      sload(0x02)\n      dup2\n      jump\t// out\n        /* \"contracts/variables_and_functions_visibility.sol\":620:686  function f1() private view returns(int){\r... */\n    tag_23:\n        /* \"contracts/variables_and_functions_visibility.sol\":655:658  int */\n      0x00\n        /* \"contracts/variables_and_functions_visibility.sol\":677:678  x */\n      dup1\n      sload\n        /* \"contracts/variables_and_functions_visibility.sol\":670:678  return x */\n      swap1\n      pop\n        /* \"contracts/variables_and_functions_visibility.sol\":620:686  function f1() private view returns(int){\r... */\n      swap1\n      jump\t// out\n        /* \"#utility.yul\":7:122   */\n    tag_26:\n        /* \"#utility.yul\":92:115   */\n      tag_28\n        /* \"#utility.yul\":109:114   */\n      dup2\n        /* \"#utility.yul\":92:115   */\n      tag_29\n      jump\t// in\n    tag_28:\n        /* \"#utility.yul\":87:90   */\n      dup3\n        /* \"#utility.yul\":80:116   */\n      mstore\n        /* \"#utility.yul\":7:122   */\n      pop\n      pop\n      jump\t// out\n        /* \"#utility.yul\":128:346   */\n    tag_10:\n        /* \"#utility.yul\":219:223   */\n      0x00\n        /* \"#utility.yul\":257:259   */\n      0x20\n        /* \"#utility.yul\":246:255   */\n      dup3\n        /* \"#utility.yul\":242:260   */\n      add\n        /* \"#utility.yul\":234:260   */\n      swap1\n      pop\n        /* \"#utility.yul\":270:339   */\n      tag_31\n        /* \"#utility.yul\":336:337   */\n      0x00\n        /* \"#utility.yul\":325:334   */\n      dup4\n        /* \"#utility.yul\":321:338   */\n      add\n        /* \"#utility.yul\":312:318   */\n      dup5\n        /* \"#utility.yul\":270:339   */\n      tag_26\n      jump\t// in\n    tag_31:\n        /* \"#utility.yul\":128:346   */\n      swap3\n      swap2\n      pop\n      pop\n      jump\t// out\n        /* \"#utility.yul\":352:428   */\n    tag_29:\n        /* \"#utility.yul\":388:395   */\n      0x00\n        /* \"#utility.yul\":417:422   */\n      dup2\n        /* \"#utility.yul\":406:422   */\n      swap1\n      pop\n        /* \"#utility.yul\":352:428   */\n      swap2\n      swap1\n      pop\n      jump\t// out\n\n    auxdata: 0xa26469706673582212205ed93f56eb219e9f2ebcc2b176783defb85e9fe4b8b92b158c39a069f706617b64736f6c63430008070033\n}\n",
				"bytecode": {
					"linkReferences": {},
					"object": "6080604052600a600055601460015561001c61003160201b60201c565b60025534801561002b57600080fd5b5061003a565b60008054905090565b610166806100496000396000f3fe608060405234801561001057600080fd5b506004361061004c5760003560e01c80630b7f1665146100515780630c55699c1461006f5780639942ec6f1461008d578063ece57b04146100ab575b600080fd5b6100596100c9565b604051610066919061010b565b60405180910390f35b6100776100d3565b604051610084919061010b565b60405180910390f35b6100956100d9565b6040516100a2919061010b565b60405180910390f35b6100b36100ed565b6040516100c0919061010b565b60405180910390f35b6000600154905090565b60005481565b6000806100e46100f3565b90508091505090565b60025481565b60008054905090565b61010581610126565b82525050565b600060208201905061012060008301846100fc565b92915050565b600081905091905056fea26469706673582212205ed93f56eb219e9f2ebcc2b176783defb85e9fe4b8b92b158c39a069f706617b64736f6c63430008070033",
					"opcodes": "PUSH1 0x80 PUSH1 0x40 MSTORE PUSH1 0xA PUSH1 0x0 SSTORE PUSH1 0x14 PUSH1 0x1 SSTORE PUSH2 0x1C PUSH2 0x31 PUSH1 0x20 SHL PUSH1 0x20 SHR JUMP JUMPDEST PUSH1 0x2 SSTORE CALLVALUE DUP1 ISZERO PUSH2 0x2B JUMPI PUSH1 0x0 DUP1 REVERT JUMPDEST POP PUSH2 0x3A JUMP JUMPDEST PUSH1 0x0 DUP1 SLOAD SWAP1 POP SWAP1 JUMP JUMPDEST PUSH2 0x166 DUP1 PUSH2 0x49 PUSH1 0x0 CODECOPY PUSH1 0x0 RETURN INVALID PUSH1 0x80 PUSH1 0x40 MSTORE CALLVALUE DUP1 ISZERO PUSH2 0x10 JUMPI PUSH1 0x0 DUP1 REVERT JUMPDEST POP PUSH1 0x4 CALLDATASIZE LT PUSH2 0x4C JUMPI PUSH1 0x0 CALLDATALOAD PUSH1 0xE0 SHR DUP1 PUSH4 0xB7F1665 EQ PUSH2 0x51 JUMPI DUP1 PUSH4 0xC55699C EQ PUSH2 0x6F JUMPI DUP1 PUSH4 0x9942EC6F EQ PUSH2 0x8D JUMPI DUP1 PUSH4 0xECE57B04 EQ PUSH2 0xAB JUMPI JUMPDEST PUSH1 0x0 DUP1 REVERT JUMPDEST PUSH2 0x59 PUSH2 0xC9 JUMP JUMPDEST PUSH1 0x40 MLOAD PUSH2 0x66 SWAP2 SWAP1 PUSH2 0x10B JUMP JUMPDEST PUSH1 0x40 MLOAD DUP1 SWAP2 SUB SWAP1 RETURN JUMPDEST PUSH2 0x77 PUSH2 0xD3 JUMP JUMPDEST PUSH1 0x40 MLOAD PUSH2 0x84 SWAP2 SWAP1 PUSH2 0x10B JUMP JUMPDEST PUSH1 0x40 MLOAD DUP1 SWAP2 SUB SWAP1 RETURN JUMPDEST PUSH2 0x95 PUSH2 0xD9 JUMP JUMPDEST PUSH1 0x40 MLOAD PUSH2 0xA2 SWAP2 SWAP1 PUSH2 0x10B JUMP JUMPDEST PUSH1 0x40 MLOAD DUP1 SWAP2 SUB SWAP1 RETURN JUMPDEST PUSH2 0xB3 PUSH2 0xED JUMP JUMPDEST PUSH1 0x40 MLOAD PUSH2 0xC0 SWAP2 SWAP1 PUSH2 0x10B JUMP JUMPDEST PUSH1 0x40 MLOAD DUP1 SWAP2 SUB SWAP1 RETURN JUMPDEST PUSH1 0x0 PUSH1 0x1 SLOAD SWAP1 POP SWAP1 JUMP JUMPDEST PUSH1 0x0 SLOAD DUP2 JUMP JUMPDEST PUSH1 0x0 DUP1 PUSH2 0xE4 PUSH2 0xF3 JUMP JUMPDEST SWAP1 POP DUP1 SWAP2 POP POP SWAP1 JUMP JUMPDEST PUSH1 0x2 SLOAD DUP2 JUMP JUMPDEST PUSH1 0x0 DUP1 SLOAD SWAP1 POP SWAP1 JUMP JUMPDEST PUSH2 0x105 DUP2 PUSH2 0x126 JUMP JUMPDEST DUP3 MSTORE POP POP JUMP JUMPDEST PUSH1 0x0 PUSH1 0x20 DUP3 ADD SWAP1 POP PUSH2 0x120 PUSH1 0x0 DUP4 ADD DUP5 PUSH2 0xFC JUMP JUMPDEST SWAP3 SWAP2 POP POP JUMP JUMPDEST PUSH1 0x0 DUP2 SWAP1 POP SWAP2 SWAP1 POP JUMP INVALID LOG2 PUSH5 0x6970667358 0x22 SLT KECCAK256 0x5E 0xD9 EXTCODEHASH JUMP 0xEB 0x21 SWAP15 SWAP16 0x2E 0xBC 0xC2 0xB1 PUSH23 0x783DEFB85E9FE4B8B92B158C39A069F706617B64736F6C PUSH4 0x43000807 STOP CALLER "
				},
				"gasEstimates": {
					"creation": {
						"codeDepositCost": "71600",
						"executionCost": "infinite",
						"totalCost": "infinite"
					},
					"external": {
						"f2()": "2507",
						"getY()": "2415",
						"x()": "2429",
						"xx()": "2473"
					}
				},
				"methodIdentifiers": {
					"f2()": "9942ec6f",
					"getY()": "0b7f1665",
					"x()": "0c55699c",
					"xx()": "ece57b04"
				}
			},
			"storageLayout": {
				"storage": [
					{
						"astId": 4,
						"contract": "contracts/variables_and_functions_visibility.sol:B",
						"label": "x",
						"offset": 0,
						"slot": "0",
						"type": "t_int256"
					},
					{
						"astId": 7,
						"contract": "contracts/variables_and_functions_visibility.sol:B",
						"label": "y",
						"offset": 0,
						"slot": "1",
						"type": "t_int256"
					},
					{
						"astId": 54,
						"contract": "contracts/variables_and_functions_visibility.sol:B",
						"label": "xx",
						"offset": 0,
						"slot": "2",
						"type": "t_int256"
					}
				],
				"types": {
					"t_int256": {
						"encoding": "inplace",
						"label": "int256",
						"numberOfBytes": "32"
					}
				}
			},
			"userdoc": {
				"kind": "user",
				"methods": {},
				"version": 1
			}
		}
	}
}