{
	"contracts/boolTypes.sol": {
		"Property2": {
			"abi": [
				{
					"inputs": [],
					"name": "f1",
					"outputs": [],
					"stateMutability": "nonpayable",
					"type": "function"
				},
				{
					"inputs": [],
					"name": "sold",
					"outputs": [
						{
							"internalType": "bool",
							"name": "",
							"type": "bool"
						}
					],
					"stateMutability": "view",
					"type": "function"
				},
				{
					"inputs": [],
					"name": "x",
					"outputs": [
						{
							"internalType": "uint8",
							"name": "",
							"type": "uint8"
						}
					],
					"stateMutability": "view",
					"type": "function"
				},
				{
					"inputs": [],
					"name": "y",
					"outputs": [
						{
							"internalType": "int8",
							"name": "",
							"type": "int8"
						}
					],
					"stateMutability": "view",
					"type": "function"
				}
			],
			"devdoc": {
				"kind": "dev",
				"methods": {},
				"version": 1
			},
			"evm": {
				"assembly": "    /* \"contracts/boolTypes.sol\":73:234  contract Property2{\r... */\n  mstore(0x40, 0x80)\n    /* \"contracts/boolTypes.sol\":140:143  255 */\n  0xff\n    /* \"contracts/boolTypes.sol\":123:143  uint8 public x = 255 */\n  0x00\n  exp(0x0100, 0x01)\n  dup2\n  sload\n  dup2\n  0xff\n  mul\n  not\n  and\n  swap1\n  dup4\n  0xff\n  and\n  mul\n  or\n  swap1\n  sstore\n  pop\n    /* \"contracts/boolTypes.sol\":168:171  -10 */\n  0xfffffffffffffffffffffffffffffffffffffffffffffffffffffffffffffff6\n    /* \"contracts/boolTypes.sol\":152:171  int8 public y = -10 */\n  0x00\n  exp(0x0100, 0x02)\n  dup2\n  sload\n  dup2\n  0xff\n  mul\n  not\n  and\n  swap1\n  dup4\n  0x00\n  signextend\n  0xff\n  and\n  mul\n  or\n  swap1\n  sstore\n  pop\n    /* \"contracts/boolTypes.sol\":73:234  contract Property2{\r... */\n  callvalue\n  dup1\n  iszero\n  tag_1\n  jumpi\n  0x00\n  dup1\n  revert\ntag_1:\n  pop\n  dataSize(sub_0)\n  dup1\n  dataOffset(sub_0)\n  0x00\n  codecopy\n  0x00\n  return\nstop\n\nsub_0: assembly {\n        /* \"contracts/boolTypes.sol\":73:234  contract Property2{\r... */\n      mstore(0x40, 0x80)\n      callvalue\n      dup1\n      iszero\n      tag_1\n      jumpi\n      0x00\n      dup1\n      revert\n    tag_1:\n      pop\n      jumpi(tag_2, lt(calldatasize, 0x04))\n      shr(0xe0, calldataload(0x00))\n      dup1\n      0x02c7e7af\n      eq\n      tag_3\n      jumpi\n      dup1\n      0x0c55699c\n      eq\n      tag_4\n      jumpi\n      dup1\n      0xa56dfe4a\n      eq\n      tag_5\n      jumpi\n      dup1\n      0xc27fc305\n      eq\n      tag_6\n      jumpi\n    tag_2:\n      0x00\n      dup1\n      revert\n        /* \"contracts/boolTypes.sol\":98:114  bool public sold */\n    tag_3:\n      tag_7\n      tag_8\n      jump\t// in\n    tag_7:\n      mload(0x40)\n      tag_9\n      swap2\n      swap1\n      tag_10\n      jump\t// in\n    tag_9:\n      mload(0x40)\n      dup1\n      swap2\n      sub\n      swap1\n      return\n        /* \"contracts/boolTypes.sol\":123:143  uint8 public x = 255 */\n    tag_4:\n      tag_11\n      tag_12\n      jump\t// in\n    tag_11:\n      mload(0x40)\n      tag_13\n      swap2\n      swap1\n      tag_14\n      jump\t// in\n    tag_13:\n      mload(0x40)\n      dup1\n      swap2\n      sub\n      swap1\n      return\n        /* \"contracts/boolTypes.sol\":152:171  int8 public y = -10 */\n    tag_5:\n      tag_15\n      tag_16\n      jump\t// in\n    tag_15:\n      mload(0x40)\n      tag_17\n      swap2\n      swap1\n      tag_18\n      jump\t// in\n    tag_17:\n      mload(0x40)\n      dup1\n      swap2\n      sub\n      swap1\n      return\n        /* \"contracts/boolTypes.sol\":180:227  function f1() public{\r... */\n    tag_6:\n      tag_19\n      tag_20\n      jump\t// in\n    tag_19:\n      stop\n        /* \"contracts/boolTypes.sol\":98:114  bool public sold */\n    tag_8:\n      0x00\n      dup1\n      sload\n      swap1\n      0x0100\n      exp\n      swap1\n      div\n      0xff\n      and\n      dup2\n      jump\t// out\n        /* \"contracts/boolTypes.sol\":123:143  uint8 public x = 255 */\n    tag_12:\n      0x00\n      0x01\n      swap1\n      sload\n      swap1\n      0x0100\n      exp\n      swap1\n      div\n      0xff\n      and\n      dup2\n      jump\t// out\n        /* \"contracts/boolTypes.sol\":152:171  int8 public y = -10 */\n    tag_16:\n      0x00\n      0x02\n      swap1\n      sload\n      swap1\n      0x0100\n      exp\n      swap1\n      div\n      0x00\n      signextend\n      dup2\n      jump\t// out\n        /* \"contracts/boolTypes.sol\":180:227  function f1() public{\r... */\n    tag_20:\n        /* \"contracts/boolTypes.sol\":217:218  1 */\n      0x01\n        /* \"contracts/boolTypes.sol\":212:213  x */\n      0x00\n      0x01\n        /* \"contracts/boolTypes.sol\":212:218  x += 1 */\n      dup3\n      dup3\n      dup3\n      swap1\n      sload\n      swap1\n      0x0100\n      exp\n      swap1\n      div\n      0xff\n      and\n      tag_22\n      swap2\n      swap1\n      tag_23\n      jump\t// in\n    tag_22:\n      swap3\n      pop\n      0x0100\n      exp\n      dup2\n      sload\n      dup2\n      0xff\n      mul\n      not\n      and\n      swap1\n      dup4\n      0xff\n      and\n      mul\n      or\n      swap1\n      sstore\n      pop\n        /* \"contracts/boolTypes.sol\":180:227  function f1() public{\r... */\n      jump\t// out\n        /* \"#utility.yul\":7:116   */\n    tag_25:\n        /* \"#utility.yul\":88:109   */\n      tag_27\n        /* \"#utility.yul\":103:108   */\n      dup2\n        /* \"#utility.yul\":88:109   */\n      tag_28\n      jump\t// in\n    tag_27:\n        /* \"#utility.yul\":83:86   */\n      dup3\n        /* \"#utility.yul\":76:110   */\n      mstore\n        /* \"#utility.yul\":66:116   */\n      pop\n      pop\n      jump\t// out\n        /* \"#utility.yul\":122:231   */\n    tag_29:\n        /* \"#utility.yul\":203:224   */\n      tag_31\n        /* \"#utility.yul\":218:223   */\n      dup2\n        /* \"#utility.yul\":203:224   */\n      tag_32\n      jump\t// in\n    tag_31:\n        /* \"#utility.yul\":198:201   */\n      dup3\n        /* \"#utility.yul\":191:225   */\n      mstore\n        /* \"#utility.yul\":181:231   */\n      pop\n      pop\n      jump\t// out\n        /* \"#utility.yul\":237:349   */\n    tag_33:\n        /* \"#utility.yul\":320:342   */\n      tag_35\n        /* \"#utility.yul\":336:341   */\n      dup2\n        /* \"#utility.yul\":320:342   */\n      tag_36\n      jump\t// in\n    tag_35:\n        /* \"#utility.yul\":315:318   */\n      dup3\n        /* \"#utility.yul\":308:343   */\n      mstore\n        /* \"#utility.yul\":298:349   */\n      pop\n      pop\n      jump\t// out\n        /* \"#utility.yul\":355:565   */\n    tag_10:\n      0x00\n        /* \"#utility.yul\":480:482   */\n      0x20\n        /* \"#utility.yul\":469:478   */\n      dup3\n        /* \"#utility.yul\":465:483   */\n      add\n        /* \"#utility.yul\":457:483   */\n      swap1\n      pop\n        /* \"#utility.yul\":493:558   */\n      tag_38\n        /* \"#utility.yul\":555:556   */\n      0x00\n        /* \"#utility.yul\":544:553   */\n      dup4\n        /* \"#utility.yul\":540:557   */\n      add\n        /* \"#utility.yul\":531:537   */\n      dup5\n        /* \"#utility.yul\":493:558   */\n      tag_25\n      jump\t// in\n    tag_38:\n        /* \"#utility.yul\":447:565   */\n      swap3\n      swap2\n      pop\n      pop\n      jump\t// out\n        /* \"#utility.yul\":571:781   */\n    tag_18:\n      0x00\n        /* \"#utility.yul\":696:698   */\n      0x20\n        /* \"#utility.yul\":685:694   */\n      dup3\n        /* \"#utility.yul\":681:699   */\n      add\n        /* \"#utility.yul\":673:699   */\n      swap1\n      pop\n        /* \"#utility.yul\":709:774   */\n      tag_40\n        /* \"#utility.yul\":771:772   */\n      0x00\n        /* \"#utility.yul\":760:769   */\n      dup4\n        /* \"#utility.yul\":756:773   */\n      add\n        /* \"#utility.yul\":747:753   */\n      dup5\n        /* \"#utility.yul\":709:774   */\n      tag_29\n      jump\t// in\n    tag_40:\n        /* \"#utility.yul\":663:781   */\n      swap3\n      swap2\n      pop\n      pop\n      jump\t// out\n        /* \"#utility.yul\":787:1001   */\n    tag_14:\n      0x00\n        /* \"#utility.yul\":914:916   */\n      0x20\n        /* \"#utility.yul\":903:912   */\n      dup3\n        /* \"#utility.yul\":899:917   */\n      add\n        /* \"#utility.yul\":891:917   */\n      swap1\n      pop\n        /* \"#utility.yul\":927:994   */\n      tag_42\n        /* \"#utility.yul\":991:992   */\n      0x00\n        /* \"#utility.yul\":980:989   */\n      dup4\n        /* \"#utility.yul\":976:993   */\n      add\n        /* \"#utility.yul\":967:973   */\n      dup5\n        /* \"#utility.yul\":927:994   */\n      tag_33\n      jump\t// in\n    tag_42:\n        /* \"#utility.yul\":881:1001   */\n      swap3\n      swap2\n      pop\n      pop\n      jump\t// out\n        /* \"#utility.yul\":1007:1244   */\n    tag_23:\n      0x00\n        /* \"#utility.yul\":1064:1082   */\n      tag_44\n        /* \"#utility.yul\":1080:1081   */\n      dup3\n        /* \"#utility.yul\":1064:1082   */\n      tag_36\n      jump\t// in\n    tag_44:\n        /* \"#utility.yul\":1059:1082   */\n      swap2\n      pop\n        /* \"#utility.yul\":1096:1114   */\n      tag_45\n        /* \"#utility.yul\":1112:1113   */\n      dup4\n        /* \"#utility.yul\":1096:1114   */\n      tag_36\n      jump\t// in\n    tag_45:\n        /* \"#utility.yul\":1091:1114   */\n      swap3\n      pop\n        /* \"#utility.yul\":1186:1187   */\n      dup3\n        /* \"#utility.yul\":1180:1184   */\n      0xff\n        /* \"#utility.yul\":1176:1188   */\n      sub\n        /* \"#utility.yul\":1173:1174   */\n      dup3\n        /* \"#utility.yul\":1170:1189   */\n      gt\n        /* \"#utility.yul\":1167:1169   */\n      iszero\n      tag_46\n      jumpi\n        /* \"#utility.yul\":1192:1210   */\n      tag_47\n      tag_48\n      jump\t// in\n    tag_47:\n        /* \"#utility.yul\":1167:1169   */\n    tag_46:\n        /* \"#utility.yul\":1236:1237   */\n      dup3\n        /* \"#utility.yul\":1233:1234   */\n      dup3\n        /* \"#utility.yul\":1229:1238   */\n      add\n        /* \"#utility.yul\":1222:1238   */\n      swap1\n      pop\n        /* \"#utility.yul\":1049:1244   */\n      swap3\n      swap2\n      pop\n      pop\n      jump\t// out\n        /* \"#utility.yul\":1250:1340   */\n    tag_28:\n      0x00\n        /* \"#utility.yul\":1327:1332   */\n      dup2\n        /* \"#utility.yul\":1320:1333   */\n      iszero\n        /* \"#utility.yul\":1313:1334   */\n      iszero\n        /* \"#utility.yul\":1302:1334   */\n      swap1\n      pop\n        /* \"#utility.yul\":1292:1340   */\n      swap2\n      swap1\n      pop\n      jump\t// out\n        /* \"#utility.yul\":1346:1435   */\n    tag_32:\n      0x00\n        /* \"#utility.yul\":1423:1428   */\n      dup2\n        /* \"#utility.yul\":1420:1421   */\n      0x00\n        /* \"#utility.yul\":1409:1429   */\n      signextend\n        /* \"#utility.yul\":1398:1429   */\n      swap1\n      pop\n        /* \"#utility.yul\":1388:1435   */\n      swap2\n      swap1\n      pop\n      jump\t// out\n        /* \"#utility.yul\":1441:1527   */\n    tag_36:\n      0x00\n        /* \"#utility.yul\":1516:1520   */\n      0xff\n        /* \"#utility.yul\":1509:1514   */\n      dup3\n        /* \"#utility.yul\":1505:1521   */\n      and\n        /* \"#utility.yul\":1494:1521   */\n      swap1\n      pop\n        /* \"#utility.yul\":1484:1527   */\n      swap2\n      swap1\n      pop\n      jump\t// out\n        /* \"#utility.yul\":1533:1713   */\n    tag_48:\n        /* \"#utility.yul\":1581:1658   */\n      0x4e487b7100000000000000000000000000000000000000000000000000000000\n        /* \"#utility.yul\":1578:1579   */\n      0x00\n        /* \"#utility.yul\":1571:1659   */\n      mstore\n        /* \"#utility.yul\":1678:1682   */\n      0x11\n        /* \"#utility.yul\":1675:1676   */\n      0x04\n        /* \"#utility.yul\":1668:1683   */\n      mstore\n        /* \"#utility.yul\":1702:1706   */\n      0x24\n        /* \"#utility.yul\":1699:1700   */\n      0x00\n        /* \"#utility.yul\":1692:1707   */\n      revert\n\n    auxdata: 0xa26469706673582212203f8199807f480b34153760982d5fc069d03f799da82e56637acad3758346348364736f6c63430008000033\n}\n",
				"bytecode": {
					"linkReferences": {},
					"object": "608060405260ff600060016101000a81548160ff021916908360ff1602179055507ffffffffffffffffffffffffffffffffffffffffffffffffffffffffffffffff6600060026101000a81548160ff021916908360000b60ff16021790555034801561006a57600080fd5b506102658061007a6000396000f3fe608060405234801561001057600080fd5b506004361061004c5760003560e01c806302c7e7af146100515780630c55699c1461006f578063a56dfe4a1461008d578063c27fc305146100ab575b600080fd5b6100596100b5565b6040516100669190610152565b60405180910390f35b6100776100c6565b6040516100849190610188565b60405180910390f35b6100956100d9565b6040516100a2919061016d565b60405180910390f35b6100b36100ec565b005b60008054906101000a900460ff1681565b600060019054906101000a900460ff1681565b600060029054906101000a900460000b81565b6001600060018282829054906101000a900460ff1661010b91906101a3565b92506101000a81548160ff021916908360ff160217905550565b61012e816101da565b82525050565b61013d816101e6565b82525050565b61014c816101f3565b82525050565b60006020820190506101676000830184610125565b92915050565b60006020820190506101826000830184610134565b92915050565b600060208201905061019d6000830184610143565b92915050565b60006101ae826101f3565b91506101b9836101f3565b92508260ff038211156101cf576101ce610200565b5b828201905092915050565b60008115159050919050565b60008160000b9050919050565b600060ff82169050919050565b7f4e487b7100000000000000000000000000000000000000000000000000000000600052601160045260246000fdfea26469706673582212203f8199807f480b34153760982d5fc069d03f799da82e56637acad3758346348364736f6c63430008000033",
					"opcodes": "PUSH1 0x80 PUSH1 0x40 MSTORE PUSH1 0xFF PUSH1 0x0 PUSH1 0x1 PUSH2 0x100 EXP DUP2 SLOAD DUP2 PUSH1 0xFF MUL NOT AND SWAP1 DUP4 PUSH1 0xFF AND MUL OR SWAP1 SSTORE POP PUSH32 0xFFFFFFFFFFFFFFFFFFFFFFFFFFFFFFFFFFFFFFFFFFFFFFFFFFFFFFFFFFFFFFF6 PUSH1 0x0 PUSH1 0x2 PUSH2 0x100 EXP DUP2 SLOAD DUP2 PUSH1 0xFF MUL NOT AND SWAP1 DUP4 PUSH1 0x0 SIGNEXTEND PUSH1 0xFF AND MUL OR SWAP1 SSTORE POP CALLVALUE DUP1 ISZERO PUSH2 0x6A JUMPI PUSH1 0x0 DUP1 REVERT JUMPDEST POP PUSH2 0x265 DUP1 PUSH2 0x7A PUSH1 0x0 CODECOPY PUSH1 0x0 RETURN INVALID PUSH1 0x80 PUSH1 0x40 MSTORE CALLVALUE DUP1 ISZERO PUSH2 0x10 JUMPI PUSH1 0x0 DUP1 REVERT JUMPDEST POP PUSH1 0x4 CALLDATASIZE LT PUSH2 0x4C JUMPI PUSH1 0x0 CALLDATALOAD PUSH1 0xE0 SHR DUP1 PUSH4 0x2C7E7AF EQ PUSH2 0x51 JUMPI DUP1 PUSH4 0xC55699C EQ PUSH2 0x6F JUMPI DUP1 PUSH4 0xA56DFE4A EQ PUSH2 0x8D JUMPI DUP1 PUSH4 0xC27FC305 EQ PUSH2 0xAB JUMPI JUMPDEST PUSH1 0x0 DUP1 REVERT JUMPDEST PUSH2 0x59 PUSH2 0xB5 JUMP JUMPDEST PUSH1 0x40 MLOAD PUSH2 0x66 SWAP2 SWAP1 PUSH2 0x152 JUMP JUMPDEST PUSH1 0x40 MLOAD DUP1 SWAP2 SUB SWAP1 RETURN JUMPDEST PUSH2 0x77 PUSH2 0xC6 JUMP JUMPDEST PUSH1 0x40 MLOAD PUSH2 0x84 SWAP2 SWAP1 PUSH2 0x188 JUMP JUMPDEST PUSH1 0x40 MLOAD DUP1 SWAP2 SUB SWAP1 RETURN JUMPDEST PUSH2 0x95 PUSH2 0xD9 JUMP JUMPDEST PUSH1 0x40 MLOAD PUSH2 0xA2 SWAP2 SWAP1 PUSH2 0x16D JUMP JUMPDEST PUSH1 0x40 MLOAD DUP1 SWAP2 SUB SWAP1 RETURN JUMPDEST PUSH2 0xB3 PUSH2 0xEC JUMP JUMPDEST STOP JUMPDEST PUSH1 0x0 DUP1 SLOAD SWAP1 PUSH2 0x100 EXP SWAP1 DIV PUSH1 0xFF AND DUP2 JUMP JUMPDEST PUSH1 0x0 PUSH1 0x1 SWAP1 SLOAD SWAP1 PUSH2 0x100 EXP SWAP1 DIV PUSH1 0xFF AND DUP2 JUMP JUMPDEST PUSH1 0x0 PUSH1 0x2 SWAP1 SLOAD SWAP1 PUSH2 0x100 EXP SWAP1 DIV PUSH1 0x0 SIGNEXTEND DUP2 JUMP JUMPDEST PUSH1 0x1 PUSH1 0x0 PUSH1 0x1 DUP3 DUP3 DUP3 SWAP1 SLOAD SWAP1 PUSH2 0x100 EXP SWAP1 DIV PUSH1 0xFF AND PUSH2 0x10B SWAP2 SWAP1 PUSH2 0x1A3 JUMP JUMPDEST SWAP3 POP PUSH2 0x100 EXP DUP2 SLOAD DUP2 PUSH1 0xFF MUL NOT AND SWAP1 DUP4 PUSH1 0xFF AND MUL OR SWAP1 SSTORE POP JUMP JUMPDEST PUSH2 0x12E DUP2 PUSH2 0x1DA JUMP JUMPDEST DUP3 MSTORE POP POP JUMP JUMPDEST PUSH2 0x13D DUP2 PUSH2 0x1E6 JUMP JUMPDEST DUP3 MSTORE POP POP JUMP JUMPDEST PUSH2 0x14C DUP2 PUSH2 0x1F3 JUMP JUMPDEST DUP3 MSTORE POP POP JUMP JUMPDEST PUSH1 0x0 PUSH1 0x20 DUP3 ADD SWAP1 POP PUSH2 0x167 PUSH1 0x0 DUP4 ADD DUP5 PUSH2 0x125 JUMP JUMPDEST SWAP3 SWAP2 POP POP JUMP JUMPDEST PUSH1 0x0 PUSH1 0x20 DUP3 ADD SWAP1 POP PUSH2 0x182 PUSH1 0x0 DUP4 ADD DUP5 PUSH2 0x134 JUMP JUMPDEST SWAP3 SWAP2 POP POP JUMP JUMPDEST PUSH1 0x0 PUSH1 0x20 DUP3 ADD SWAP1 POP PUSH2 0x19D PUSH1 0x0 DUP4 ADD DUP5 PUSH2 0x143 JUMP JUMPDEST SWAP3 SWAP2 POP POP JUMP JUMPDEST PUSH1 0x0 PUSH2 0x1AE DUP3 PUSH2 0x1F3 JUMP JUMPDEST SWAP2 POP PUSH2 0x1B9 DUP4 PUSH2 0x1F3 JUMP JUMPDEST SWAP3 POP DUP3 PUSH1 0xFF SUB DUP3 GT ISZERO PUSH2 0x1CF JUMPI PUSH2 0x1CE PUSH2 0x200 JUMP JUMPDEST JUMPDEST DUP3 DUP3 ADD SWAP1 POP SWAP3 SWAP2 POP POP JUMP JUMPDEST PUSH1 0x0 DUP2 ISZERO ISZERO SWAP1 POP SWAP2 SWAP1 POP JUMP JUMPDEST PUSH1 0x0 DUP2 PUSH1 0x0 SIGNEXTEND SWAP1 POP SWAP2 SWAP1 POP JUMP JUMPDEST PUSH1 0x0 PUSH1 0xFF DUP3 AND SWAP1 POP SWAP2 SWAP1 POP JUMP JUMPDEST PUSH32 0x4E487B7100000000000000000000000000000000000000000000000000000000 PUSH1 0x0 MSTORE PUSH1 0x11 PUSH1 0x4 MSTORE PUSH1 0x24 PUSH1 0x0 REVERT INVALID LOG2 PUSH5 0x6970667358 0x22 SLT KECCAK256 EXTCODEHASH DUP2 SWAP10 DUP1 PUSH32 0x480B34153760982D5FC069D03F799DA82E56637ACAD3758346348364736F6C63 NUMBER STOP ADDMOD STOP STOP CALLER "
				},
				"gasEstimates": {
					"creation": {
						"codeDepositCost": "122600",
						"executionCost": "42013",
						"totalCost": "164613"
					},
					"external": {
						"f1()": "infinite",
						"sold()": "1146",
						"x()": "1221",
						"y()": "1247"
					}
				},
				"methodIdentifiers": {
					"f1()": "c27fc305",
					"sold()": "02c7e7af",
					"x()": "0c55699c",
					"y()": "a56dfe4a"
				}
			},
			"storageLayout": {
				"storage": [
					{
						"astId": 3,
						"contract": "contracts/boolTypes.sol:Property2",
						"label": "sold",
						"offset": 0,
						"slot": "0",
						"type": "t_bool"
					},
					{
						"astId": 6,
						"contract": "contracts/boolTypes.sol:Property2",
						"label": "x",
						"offset": 1,
						"slot": "0",
						"type": "t_uint8"
					},
					{
						"astId": 10,
						"contract": "contracts/boolTypes.sol:Property2",
						"label": "y",
						"offset": 2,
						"slot": "0",
						"type": "t_int8"
					}
				],
				"types": {
					"t_bool": {
						"encoding": "inplace",
						"label": "bool",
						"numberOfBytes": "1"
					},
					"t_int8": {
						"encoding": "inplace",
						"label": "int8",
						"numberOfBytes": "1"
					},
					"t_uint8": {
						"encoding": "inplace",
						"label": "uint8",
						"numberOfBytes": "1"
					}
				}
			},
			"userdoc": {
				"kind": "user",
				"methods": {},
				"version": 1
			}
		}
	}
}