{
	"contracts/challenge1.sol": {
		"MyTokens": {
			"abi": [
				{
					"inputs": [],
					"name": "changeTokens",
					"outputs": [],
					"stateMutability": "nonpayable",
					"type": "function"
				},
				{
					"inputs": [
						{
							"internalType": "uint256",
							"name": "",
							"type": "uint256"
						}
					],
					"name": "tokens",
					"outputs": [
						{
							"internalType": "string",
							"name": "",
							"type": "string"
						}
					],
					"stateMutability": "view",
					"type": "function"
				}
			],
			"devdoc": {
				"kind": "dev",
				"methods": {},
				"version": 1
			},
			"evm": {
				"assembly": "    /* \"contracts/challenge1.sol\":874:1059  contract MyTokens{\r... */\n  mstore(0x40, 0x80)\n    /* \"contracts/challenge1.sol\":898:937  string[] public tokens = ['BTC', 'ETH'] */\n  mload(0x40)\n  dup1\n  0x40\n  add\n  0x40\n  mstore\n  dup1\n  mload(0x40)\n  dup1\n  0x40\n  add\n  0x40\n  mstore\n  dup1\n  0x03\n  dup2\n  mstore\n  0x20\n  add\n  0x4254430000000000000000000000000000000000000000000000000000000000\n  dup2\n  mstore\n  pop\n  dup2\n  mstore\n  0x20\n  add\n  mload(0x40)\n  dup1\n  0x40\n  add\n  0x40\n  mstore\n  dup1\n  0x03\n  dup2\n  mstore\n  0x20\n  add\n  0x4554480000000000000000000000000000000000000000000000000000000000\n  dup2\n  mstore\n  pop\n  dup2\n  mstore\n  pop\n  0x00\n  swap1\n  0x02\n  tag_1\n  swap3\n  swap2\n  swap1\n  tag_2\n  jump\t// in\ntag_1:\n  pop\n    /* \"contracts/challenge1.sol\":874:1059  contract MyTokens{\r... */\n  callvalue\n  dup1\n  iszero\n  tag_3\n  jumpi\n  0x00\n  dup1\n  revert\ntag_3:\n  pop\n  jump(tag_4)\ntag_2:\n  dup3\n  dup1\n  sload\n  dup3\n  dup3\n  sstore\n  swap1\n  0x00\n  mstore\n  keccak256(0x00, 0x20)\n  swap1\n  dup2\n  add\n  swap3\n  dup3\n  iszero\n  tag_5\n  jumpi\n  swap2\n  0x20\n  mul\n  dup3\n  add\ntag_6:\n  dup3\n  dup2\n  gt\n  iszero\n  tag_7\n  jumpi\n  dup3\n  mload\n  dup3\n  swap1\n  dup1\n  mload\n  swap1\n  0x20\n  add\n  swap1\n  tag_8\n  swap3\n  swap2\n  swap1\n  tag_9\n  jump\t// in\ntag_8:\n  pop\n  swap2\n  0x20\n  add\n  swap2\n  swap1\n  0x01\n  add\n  swap1\n  jump(tag_6)\ntag_7:\ntag_5:\n  pop\n  swap1\n  pop\n  tag_10\n  swap2\n  swap1\n  tag_11\n  jump\t// in\ntag_10:\n  pop\n  swap1\n  jump\t// out\ntag_9:\n  dup3\n  dup1\n  sload\n  tag_12\n  swap1\n  tag_13\n  jump\t// in\ntag_12:\n  swap1\n  0x00\n  mstore\n  keccak256(0x00, 0x20)\n  swap1\n  0x1f\n  add\n  0x20\n  swap1\n  div\n  dup2\n  add\n  swap3\n  dup3\n  tag_15\n  jumpi\n  0x00\n  dup6\n  sstore\n  jump(tag_14)\ntag_15:\n  dup3\n  0x1f\n  lt\n  tag_16\n  jumpi\n  dup1\n  mload\n  not(0xff)\n  and\n  dup4\n  dup1\n  add\n  or\n  dup6\n  sstore\n  jump(tag_14)\ntag_16:\n  dup3\n  dup1\n  add\n  0x01\n  add\n  dup6\n  sstore\n  dup3\n  iszero\n  tag_14\n  jumpi\n  swap2\n  dup3\n  add\ntag_17:\n  dup3\n  dup2\n  gt\n  iszero\n  tag_18\n  jumpi\n  dup3\n  mload\n  dup3\n  sstore\n  swap2\n  0x20\n  add\n  swap2\n  swap1\n  0x01\n  add\n  swap1\n  jump(tag_17)\ntag_18:\ntag_14:\n  pop\n  swap1\n  pop\n  tag_19\n  swap2\n  swap1\n  tag_20\n  jump\t// in\ntag_19:\n  pop\n  swap1\n  jump\t// out\ntag_11:\ntag_21:\n  dup1\n  dup3\n  gt\n  iszero\n  tag_22\n  jumpi\n  0x00\n  dup2\n  dup2\n  tag_23\n  swap2\n  swap1\n  tag_24\n  jump\t// in\ntag_23:\n  pop\n  0x01\n  add\n  jump(tag_21)\ntag_22:\n  pop\n  swap1\n  jump\t// out\ntag_20:\ntag_25:\n  dup1\n  dup3\n  gt\n  iszero\n  tag_26\n  jumpi\n  0x00\n  dup2\n  0x00\n  swap1\n  sstore\n  pop\n  0x01\n  add\n  jump(tag_25)\ntag_26:\n  pop\n  swap1\n  jump\t// out\ntag_24:\n  pop\n  dup1\n  sload\n  tag_27\n  swap1\n  tag_13\n  jump\t// in\ntag_27:\n  0x00\n  dup3\n  sstore\n  dup1\n  0x1f\n  lt\n  tag_29\n  jumpi\n  pop\n  jump(tag_28)\ntag_29:\n  0x1f\n  add\n  0x20\n  swap1\n  div\n  swap1\n  0x00\n  mstore\n  keccak256(0x00, 0x20)\n  swap1\n  dup2\n  add\n  swap1\n  tag_30\n  swap2\n  swap1\n  tag_20\n  jump\t// in\ntag_30:\ntag_28:\n  pop\n  jump\t// out\n    /* \"#utility.yul\":7:327   */\ntag_13:\n  0x00\n    /* \"#utility.yul\":88:89   */\n  0x02\n    /* \"#utility.yul\":82:86   */\n  dup3\n    /* \"#utility.yul\":78:90   */\n  div\n    /* \"#utility.yul\":68:90   */\n  swap1\n  pop\n    /* \"#utility.yul\":135:136   */\n  0x01\n    /* \"#utility.yul\":129:133   */\n  dup3\n    /* \"#utility.yul\":125:137   */\n  and\n    /* \"#utility.yul\":156:174   */\n  dup1\n    /* \"#utility.yul\":146:148   */\n  tag_33\n  jumpi\n    /* \"#utility.yul\":212:216   */\n  0x7f\n    /* \"#utility.yul\":204:210   */\n  dup3\n    /* \"#utility.yul\":200:217   */\n  and\n    /* \"#utility.yul\":190:217   */\n  swap2\n  pop\n    /* \"#utility.yul\":146:148   */\ntag_33:\n    /* \"#utility.yul\":274:276   */\n  0x20\n    /* \"#utility.yul\":266:272   */\n  dup3\n    /* \"#utility.yul\":263:277   */\n  lt\n    /* \"#utility.yul\":243:261   */\n  dup2\n    /* \"#utility.yul\":240:278   */\n  eq\n    /* \"#utility.yul\":237:239   */\n  iszero\n  tag_34\n  jumpi\n    /* \"#utility.yul\":293:311   */\n  tag_35\n  tag_36\n  jump\t// in\ntag_35:\n    /* \"#utility.yul\":237:239   */\ntag_34:\n    /* \"#utility.yul\":58:327   */\n  pop\n  swap2\n  swap1\n  pop\n  jump\t// out\n    /* \"#utility.yul\":333:513   */\ntag_36:\n    /* \"#utility.yul\":381:458   */\n  0x4e487b7100000000000000000000000000000000000000000000000000000000\n    /* \"#utility.yul\":378:379   */\n  0x00\n    /* \"#utility.yul\":371:459   */\n  mstore\n    /* \"#utility.yul\":478:482   */\n  0x22\n    /* \"#utility.yul\":475:476   */\n  0x04\n    /* \"#utility.yul\":468:483   */\n  mstore\n    /* \"#utility.yul\":502:506   */\n  0x24\n    /* \"#utility.yul\":499:500   */\n  0x00\n    /* \"#utility.yul\":492:507   */\n  revert\n    /* \"contracts/challenge1.sol\":874:1059  contract MyTokens{\r... */\ntag_4:\n  dataSize(sub_0)\n  dup1\n  dataOffset(sub_0)\n  0x00\n  codecopy\n  0x00\n  return\nstop\n\nsub_0: assembly {\n        /* \"contracts/challenge1.sol\":874:1059  contract MyTokens{\r... */\n      mstore(0x40, 0x80)\n      callvalue\n      dup1\n      iszero\n      tag_1\n      jumpi\n      0x00\n      dup1\n      revert\n    tag_1:\n      pop\n      jumpi(tag_2, lt(calldatasize, 0x04))\n      shr(0xe0, calldataload(0x00))\n      dup1\n      0x4f64b2be\n      eq\n      tag_3\n      jumpi\n      dup1\n      0xa9a51f89\n      eq\n      tag_4\n      jumpi\n    tag_2:\n      0x00\n      dup1\n      revert\n        /* \"contracts/challenge1.sol\":898:937  string[] public tokens = ['BTC', 'ETH'] */\n    tag_3:\n      tag_5\n      0x04\n      dup1\n      calldatasize\n      sub\n      dup2\n      add\n      swap1\n      tag_6\n      swap2\n      swap1\n      tag_7\n      jump\t// in\n    tag_6:\n      tag_8\n      jump\t// in\n    tag_5:\n      mload(0x40)\n      tag_9\n      swap2\n      swap1\n      tag_10\n      jump\t// in\n    tag_9:\n      mload(0x40)\n      dup1\n      swap2\n      sub\n      swap1\n      return\n        /* \"contracts/challenge1.sol\":950:1050  function changeTokens() public {\r... */\n    tag_4:\n      tag_11\n      tag_12\n      jump\t// in\n    tag_11:\n      stop\n        /* \"contracts/challenge1.sol\":898:937  string[] public tokens = ['BTC', 'ETH'] */\n    tag_8:\n      0x00\n      dup2\n      dup2\n      sload\n      dup2\n      lt\n      tag_13\n      jumpi\n      0x00\n      dup1\n      revert\n    tag_13:\n      swap1\n      0x00\n      mstore\n      keccak256(0x00, 0x20)\n      add\n      0x00\n      swap2\n      pop\n      swap1\n      pop\n      dup1\n      sload\n      tag_15\n      swap1\n      tag_16\n      jump\t// in\n    tag_15:\n      dup1\n      0x1f\n      add\n      0x20\n      dup1\n      swap2\n      div\n      mul\n      0x20\n      add\n      mload(0x40)\n      swap1\n      dup2\n      add\n      0x40\n      mstore\n      dup1\n      swap3\n      swap2\n      swap1\n      dup2\n      dup2\n      mstore\n      0x20\n      add\n      dup3\n      dup1\n      sload\n      tag_17\n      swap1\n      tag_16\n      jump\t// in\n    tag_17:\n      dup1\n      iszero\n      tag_18\n      jumpi\n      dup1\n      0x1f\n      lt\n      tag_19\n      jumpi\n      0x0100\n      dup1\n      dup4\n      sload\n      div\n      mul\n      dup4\n      mstore\n      swap2\n      0x20\n      add\n      swap2\n      jump(tag_18)\n    tag_19:\n      dup3\n      add\n      swap2\n      swap1\n      0x00\n      mstore\n      keccak256(0x00, 0x20)\n      swap1\n    tag_20:\n      dup2\n      sload\n      dup2\n      mstore\n      swap1\n      0x01\n      add\n      swap1\n      0x20\n      add\n      dup1\n      dup4\n      gt\n      tag_20\n      jumpi\n      dup3\n      swap1\n      sub\n      0x1f\n      and\n      dup3\n      add\n      swap2\n    tag_18:\n      pop\n      pop\n      pop\n      pop\n      pop\n      dup2\n      jump\t// out\n        /* \"contracts/challenge1.sol\":950:1050  function changeTokens() public {\r... */\n    tag_12:\n        /* \"contracts/challenge1.sol\":992:1010  string[] storage t */\n      0x00\n        /* \"contracts/challenge1.sol\":1030:1042  t[0] = 'VET' */\n      mload(0x40)\n      dup1\n      0x40\n      add\n      0x40\n      mstore\n      dup1\n      0x03\n      dup2\n      mstore\n      0x20\n      add\n      0x5645540000000000000000000000000000000000000000000000000000000000\n      dup2\n      mstore\n      pop\n        /* \"contracts/challenge1.sol\":1030:1031  t */\n      dup2\n        /* \"contracts/challenge1.sol\":1032:1033  0 */\n      0x00\n        /* \"contracts/challenge1.sol\":1030:1034  t[0] */\n      dup2\n      sload\n      dup2\n      lt\n      tag_22\n      jumpi\n      mstore(0x00, 0x4e487b7100000000000000000000000000000000000000000000000000000000)\n      mstore(0x04, 0x32)\n      revert(0x00, 0x24)\n    tag_22:\n      swap1\n      0x00\n      mstore\n      keccak256(0x00, 0x20)\n      add\n        /* \"contracts/challenge1.sol\":1030:1042  t[0] = 'VET' */\n      swap1\n      dup1\n      mload\n      swap1\n      0x20\n      add\n      swap1\n      tag_24\n      swap3\n      swap2\n      swap1\n      tag_25\n      jump\t// in\n    tag_24:\n      pop\n        /* \"contracts/challenge1.sol\":950:1050  function changeTokens() public {\r... */\n      pop\n      jump\t// out\n    tag_25:\n      dup3\n      dup1\n      sload\n      tag_26\n      swap1\n      tag_16\n      jump\t// in\n    tag_26:\n      swap1\n      0x00\n      mstore\n      keccak256(0x00, 0x20)\n      swap1\n      0x1f\n      add\n      0x20\n      swap1\n      div\n      dup2\n      add\n      swap3\n      dup3\n      tag_28\n      jumpi\n      0x00\n      dup6\n      sstore\n      jump(tag_27)\n    tag_28:\n      dup3\n      0x1f\n      lt\n      tag_29\n      jumpi\n      dup1\n      mload\n      not(0xff)\n      and\n      dup4\n      dup1\n      add\n      or\n      dup6\n      sstore\n      jump(tag_27)\n    tag_29:\n      dup3\n      dup1\n      add\n      0x01\n      add\n      dup6\n      sstore\n      dup3\n      iszero\n      tag_27\n      jumpi\n      swap2\n      dup3\n      add\n    tag_30:\n      dup3\n      dup2\n      gt\n      iszero\n      tag_31\n      jumpi\n      dup3\n      mload\n      dup3\n      sstore\n      swap2\n      0x20\n      add\n      swap2\n      swap1\n      0x01\n      add\n      swap1\n      jump(tag_30)\n    tag_31:\n    tag_27:\n      pop\n      swap1\n      pop\n      tag_32\n      swap2\n      swap1\n      tag_33\n      jump\t// in\n    tag_32:\n      pop\n      swap1\n      jump\t// out\n    tag_33:\n    tag_34:\n      dup1\n      dup3\n      gt\n      iszero\n      tag_35\n      jumpi\n      0x00\n      dup2\n      0x00\n      swap1\n      sstore\n      pop\n      0x01\n      add\n      jump(tag_34)\n    tag_35:\n      pop\n      swap1\n      jump\t// out\n        /* \"#utility.yul\":7:146   */\n    tag_37:\n      0x00\n        /* \"#utility.yul\":91:97   */\n      dup2\n        /* \"#utility.yul\":78:98   */\n      calldataload\n        /* \"#utility.yul\":69:98   */\n      swap1\n      pop\n        /* \"#utility.yul\":107:140   */\n      tag_39\n        /* \"#utility.yul\":134:139   */\n      dup2\n        /* \"#utility.yul\":107:140   */\n      tag_40\n      jump\t// in\n    tag_39:\n        /* \"#utility.yul\":59:146   */\n      swap3\n      swap2\n      pop\n      pop\n      jump\t// out\n        /* \"#utility.yul\":152:414   */\n    tag_7:\n      0x00\n        /* \"#utility.yul\":260:262   */\n      0x20\n        /* \"#utility.yul\":248:257   */\n      dup3\n        /* \"#utility.yul\":239:246   */\n      dup5\n        /* \"#utility.yul\":235:258   */\n      sub\n        /* \"#utility.yul\":231:263   */\n      slt\n        /* \"#utility.yul\":228:230   */\n      iszero\n      tag_42\n      jumpi\n        /* \"#utility.yul\":276:277   */\n      0x00\n        /* \"#utility.yul\":273:274   */\n      dup1\n        /* \"#utility.yul\":266:278   */\n      revert\n        /* \"#utility.yul\":228:230   */\n    tag_42:\n        /* \"#utility.yul\":319:320   */\n      0x00\n        /* \"#utility.yul\":344:397   */\n      tag_43\n        /* \"#utility.yul\":389:396   */\n      dup5\n        /* \"#utility.yul\":380:386   */\n      dup3\n        /* \"#utility.yul\":369:378   */\n      dup6\n        /* \"#utility.yul\":365:387   */\n      add\n        /* \"#utility.yul\":344:397   */\n      tag_37\n      jump\t// in\n    tag_43:\n        /* \"#utility.yul\":334:397   */\n      swap2\n      pop\n        /* \"#utility.yul\":290:407   */\n      pop\n        /* \"#utility.yul\":218:414   */\n      swap3\n      swap2\n      pop\n      pop\n      jump\t// out\n        /* \"#utility.yul\":420:784   */\n    tag_44:\n      0x00\n        /* \"#utility.yul\":536:575   */\n      tag_46\n        /* \"#utility.yul\":569:574   */\n      dup3\n        /* \"#utility.yul\":536:575   */\n      tag_47\n      jump\t// in\n    tag_46:\n        /* \"#utility.yul\":591:662   */\n      tag_48\n        /* \"#utility.yul\":655:661   */\n      dup2\n        /* \"#utility.yul\":650:653   */\n      dup6\n        /* \"#utility.yul\":591:662   */\n      tag_49\n      jump\t// in\n    tag_48:\n        /* \"#utility.yul\":584:662   */\n      swap4\n      pop\n        /* \"#utility.yul\":671:723   */\n      tag_50\n        /* \"#utility.yul\":716:722   */\n      dup2\n        /* \"#utility.yul\":711:714   */\n      dup6\n        /* \"#utility.yul\":704:708   */\n      0x20\n        /* \"#utility.yul\":697:702   */\n      dup7\n        /* \"#utility.yul\":693:709   */\n      add\n        /* \"#utility.yul\":671:723   */\n      tag_51\n      jump\t// in\n    tag_50:\n        /* \"#utility.yul\":748:777   */\n      tag_52\n        /* \"#utility.yul\":770:776   */\n      dup2\n        /* \"#utility.yul\":748:777   */\n      tag_53\n      jump\t// in\n    tag_52:\n        /* \"#utility.yul\":743:746   */\n      dup5\n        /* \"#utility.yul\":739:778   */\n      add\n        /* \"#utility.yul\":732:778   */\n      swap2\n      pop\n        /* \"#utility.yul\":512:784   */\n      pop\n      swap3\n      swap2\n      pop\n      pop\n      jump\t// out\n        /* \"#utility.yul\":790:1103   */\n    tag_10:\n      0x00\n        /* \"#utility.yul\":941:943   */\n      0x20\n        /* \"#utility.yul\":930:939   */\n      dup3\n        /* \"#utility.yul\":926:944   */\n      add\n        /* \"#utility.yul\":918:944   */\n      swap1\n      pop\n        /* \"#utility.yul\":990:999   */\n      dup2\n        /* \"#utility.yul\":984:988   */\n      dup2\n        /* \"#utility.yul\":980:1000   */\n      sub\n        /* \"#utility.yul\":976:977   */\n      0x00\n        /* \"#utility.yul\":965:974   */\n      dup4\n        /* \"#utility.yul\":961:978   */\n      add\n        /* \"#utility.yul\":954:1001   */\n      mstore\n        /* \"#utility.yul\":1018:1096   */\n      tag_55\n        /* \"#utility.yul\":1091:1095   */\n      dup2\n        /* \"#utility.yul\":1082:1088   */\n      dup5\n        /* \"#utility.yul\":1018:1096   */\n      tag_44\n      jump\t// in\n    tag_55:\n        /* \"#utility.yul\":1010:1096   */\n      swap1\n      pop\n        /* \"#utility.yul\":908:1103   */\n      swap3\n      swap2\n      pop\n      pop\n      jump\t// out\n        /* \"#utility.yul\":1109:1208   */\n    tag_47:\n      0x00\n        /* \"#utility.yul\":1195:1200   */\n      dup2\n        /* \"#utility.yul\":1189:1201   */\n      mload\n        /* \"#utility.yul\":1179:1201   */\n      swap1\n      pop\n        /* \"#utility.yul\":1168:1208   */\n      swap2\n      swap1\n      pop\n      jump\t// out\n        /* \"#utility.yul\":1214:1383   */\n    tag_49:\n      0x00\n        /* \"#utility.yul\":1332:1338   */\n      dup3\n        /* \"#utility.yul\":1327:1330   */\n      dup3\n        /* \"#utility.yul\":1320:1339   */\n      mstore\n        /* \"#utility.yul\":1372:1376   */\n      0x20\n        /* \"#utility.yul\":1367:1370   */\n      dup3\n        /* \"#utility.yul\":1363:1377   */\n      add\n        /* \"#utility.yul\":1348:1377   */\n      swap1\n      pop\n        /* \"#utility.yul\":1310:1383   */\n      swap3\n      swap2\n      pop\n      pop\n      jump\t// out\n        /* \"#utility.yul\":1389:1466   */\n    tag_58:\n      0x00\n        /* \"#utility.yul\":1455:1460   */\n      dup2\n        /* \"#utility.yul\":1444:1460   */\n      swap1\n      pop\n        /* \"#utility.yul\":1434:1466   */\n      swap2\n      swap1\n      pop\n      jump\t// out\n        /* \"#utility.yul\":1472:1779   */\n    tag_51:\n        /* \"#utility.yul\":1540:1541   */\n      0x00\n        /* \"#utility.yul\":1550:1663   */\n    tag_61:\n        /* \"#utility.yul\":1564:1570   */\n      dup4\n        /* \"#utility.yul\":1561:1562   */\n      dup2\n        /* \"#utility.yul\":1558:1571   */\n      lt\n        /* \"#utility.yul\":1550:1663   */\n      iszero\n      tag_63\n      jumpi\n        /* \"#utility.yul\":1649:1650   */\n      dup1\n        /* \"#utility.yul\":1644:1647   */\n      dup3\n        /* \"#utility.yul\":1640:1651   */\n      add\n        /* \"#utility.yul\":1634:1652   */\n      mload\n        /* \"#utility.yul\":1630:1631   */\n      dup2\n        /* \"#utility.yul\":1625:1628   */\n      dup5\n        /* \"#utility.yul\":1621:1632   */\n      add\n        /* \"#utility.yul\":1614:1653   */\n      mstore\n        /* \"#utility.yul\":1586:1588   */\n      0x20\n        /* \"#utility.yul\":1583:1584   */\n      dup2\n        /* \"#utility.yul\":1579:1589   */\n      add\n        /* \"#utility.yul\":1574:1589   */\n      swap1\n      pop\n        /* \"#utility.yul\":1550:1663   */\n      jump(tag_61)\n    tag_63:\n        /* \"#utility.yul\":1681:1687   */\n      dup4\n        /* \"#utility.yul\":1678:1679   */\n      dup2\n        /* \"#utility.yul\":1675:1688   */\n      gt\n        /* \"#utility.yul\":1672:1674   */\n      iszero\n      tag_64\n      jumpi\n        /* \"#utility.yul\":1761:1762   */\n      0x00\n        /* \"#utility.yul\":1752:1758   */\n      dup5\n        /* \"#utility.yul\":1747:1750   */\n      dup5\n        /* \"#utility.yul\":1743:1759   */\n      add\n        /* \"#utility.yul\":1736:1763   */\n      mstore\n        /* \"#utility.yul\":1672:1674   */\n    tag_64:\n        /* \"#utility.yul\":1521:1779   */\n      pop\n      pop\n      pop\n      pop\n      jump\t// out\n        /* \"#utility.yul\":1785:2105   */\n    tag_16:\n      0x00\n        /* \"#utility.yul\":1866:1867   */\n      0x02\n        /* \"#utility.yul\":1860:1864   */\n      dup3\n        /* \"#utility.yul\":1856:1868   */\n      div\n        /* \"#utility.yul\":1846:1868   */\n      swap1\n      pop\n        /* \"#utility.yul\":1913:1914   */\n      0x01\n        /* \"#utility.yul\":1907:1911   */\n      dup3\n        /* \"#utility.yul\":1903:1915   */\n      and\n        /* \"#utility.yul\":1934:1952   */\n      dup1\n        /* \"#utility.yul\":1924:1926   */\n      tag_66\n      jumpi\n        /* \"#utility.yul\":1990:1994   */\n      0x7f\n        /* \"#utility.yul\":1982:1988   */\n      dup3\n        /* \"#utility.yul\":1978:1995   */\n      and\n        /* \"#utility.yul\":1968:1995   */\n      swap2\n      pop\n        /* \"#utility.yul\":1924:1926   */\n    tag_66:\n        /* \"#utility.yul\":2052:2054   */\n      0x20\n        /* \"#utility.yul\":2044:2050   */\n      dup3\n        /* \"#utility.yul\":2041:2055   */\n      lt\n        /* \"#utility.yul\":2021:2039   */\n      dup2\n        /* \"#utility.yul\":2018:2056   */\n      eq\n        /* \"#utility.yul\":2015:2017   */\n      iszero\n      tag_67\n      jumpi\n        /* \"#utility.yul\":2071:2089   */\n      tag_68\n      tag_69\n      jump\t// in\n    tag_68:\n        /* \"#utility.yul\":2015:2017   */\n    tag_67:\n        /* \"#utility.yul\":1836:2105   */\n      pop\n      swap2\n      swap1\n      pop\n      jump\t// out\n        /* \"#utility.yul\":2111:2291   */\n    tag_69:\n        /* \"#utility.yul\":2159:2236   */\n      0x4e487b7100000000000000000000000000000000000000000000000000000000\n        /* \"#utility.yul\":2156:2157   */\n      0x00\n        /* \"#utility.yul\":2149:2237   */\n      mstore\n        /* \"#utility.yul\":2256:2260   */\n      0x22\n        /* \"#utility.yul\":2253:2254   */\n      0x04\n        /* \"#utility.yul\":2246:2261   */\n      mstore\n        /* \"#utility.yul\":2280:2284   */\n      0x24\n        /* \"#utility.yul\":2277:2278   */\n      0x00\n        /* \"#utility.yul\":2270:2285   */\n      revert\n        /* \"#utility.yul\":2297:2399   */\n    tag_53:\n      0x00\n        /* \"#utility.yul\":2389:2391   */\n      0x1f\n        /* \"#utility.yul\":2385:2392   */\n      not\n        /* \"#utility.yul\":2380:2382   */\n      0x1f\n        /* \"#utility.yul\":2373:2378   */\n      dup4\n        /* \"#utility.yul\":2369:2383   */\n      add\n        /* \"#utility.yul\":2365:2393   */\n      and\n        /* \"#utility.yul\":2355:2393   */\n      swap1\n      pop\n        /* \"#utility.yul\":2345:2399   */\n      swap2\n      swap1\n      pop\n      jump\t// out\n        /* \"#utility.yul\":2405:2527   */\n    tag_40:\n        /* \"#utility.yul\":2478:2502   */\n      tag_73\n        /* \"#utility.yul\":2496:2501   */\n      dup2\n        /* \"#utility.yul\":2478:2502   */\n      tag_58\n      jump\t// in\n    tag_73:\n        /* \"#utility.yul\":2471:2476   */\n      dup2\n        /* \"#utility.yul\":2468:2503   */\n      eq\n        /* \"#utility.yul\":2458:2460   */\n      tag_74\n      jumpi\n        /* \"#utility.yul\":2517:2518   */\n      0x00\n        /* \"#utility.yul\":2514:2515   */\n      dup1\n        /* \"#utility.yul\":2507:2519   */\n      revert\n        /* \"#utility.yul\":2458:2460   */\n    tag_74:\n        /* \"#utility.yul\":2448:2527   */\n      pop\n      jump\t// out\n\n    auxdata: 0xa2646970667358221220df503595427d4d3e6ca5197d2c67df24e98c15ddbf8e4254d8ea81279eb9c73464736f6c63430008000033\n}\n",
				"bytecode": {
					"linkReferences": {},
					"object": "608060405260405180604001604052806040518060400160405280600381526020017f425443000000000000000000000000000000000000000000000000000000000081525081526020016040518060400160405280600381526020017f455448000000000000000000000000000000000000000000000000000000000081525081525060009060026100939291906100a6565b503480156100a057600080fd5b5061026e565b8280548282559060005260206000209081019282156100f5579160200282015b828111156100f45782518290805190602001906100e4929190610106565b50916020019190600101906100c6565b5b509050610102919061018c565b5090565b8280546101129061020d565b90600052602060002090601f016020900481019282610134576000855561017b565b82601f1061014d57805160ff191683800117855561017b565b8280016001018555821561017b579182015b8281111561017a57825182559160200191906001019061015f565b5b50905061018891906101b0565b5090565b5b808211156101ac57600081816101a391906101cd565b5060010161018d565b5090565b5b808211156101c95760008160009055506001016101b1565b5090565b5080546101d99061020d565b6000825580601f106101eb575061020a565b601f01602090049060005260206000209081019061020991906101b0565b5b50565b6000600282049050600182168061022557607f821691505b602082108114156102395761023861023f565b5b50919050565b7f4e487b7100000000000000000000000000000000000000000000000000000000600052602260045260246000fd5b6104088061027d6000396000f3fe608060405234801561001057600080fd5b50600436106100365760003560e01c80634f64b2be1461003b578063a9a51f891461006b575b600080fd5b6100556004803603810190610050919061026c565b610075565b60405161006291906102ce565b60405180910390f35b610073610121565b005b6000818154811061008557600080fd5b9060005260206000200160009150905080546100a090610349565b80601f01602080910402602001604051908101604052809291908181526020018280546100cc90610349565b80156101195780601f106100ee57610100808354040283529160200191610119565b820191906000526020600020905b8154815290600101906020018083116100fc57829003601f168201915b505050505081565b60006040518060400160405280600381526020017f564554000000000000000000000000000000000000000000000000000000000081525081600081548110610193577f4e487b7100000000000000000000000000000000000000000000000000000000600052603260045260246000fd5b9060005260206000200190805190602001906101b09291906101b4565b5050565b8280546101c090610349565b90600052602060002090601f0160209004810192826101e25760008555610229565b82601f106101fb57805160ff1916838001178555610229565b82800160010185558215610229579182015b8281111561022857825182559160200191906001019061020d565b5b509050610236919061023a565b5090565b5b8082111561025357600081600090555060010161023b565b5090565b600081359050610266816103bb565b92915050565b60006020828403121561027e57600080fd5b600061028c84828501610257565b91505092915050565b60006102a0826102f0565b6102aa81856102fb565b93506102ba818560208601610316565b6102c3816103aa565b840191505092915050565b600060208201905081810360008301526102e88184610295565b905092915050565b600081519050919050565b600082825260208201905092915050565b6000819050919050565b60005b83811015610334578082015181840152602081019050610319565b83811115610343576000848401525b50505050565b6000600282049050600182168061036157607f821691505b602082108114156103755761037461037b565b5b50919050565b7f4e487b7100000000000000000000000000000000000000000000000000000000600052602260045260246000fd5b6000601f19601f8301169050919050565b6103c48161030c565b81146103cf57600080fd5b5056fea2646970667358221220df503595427d4d3e6ca5197d2c67df24e98c15ddbf8e4254d8ea81279eb9c73464736f6c63430008000033",
					"opcodes": "PUSH1 0x80 PUSH1 0x40 MSTORE PUSH1 0x40 MLOAD DUP1 PUSH1 0x40 ADD PUSH1 0x40 MSTORE DUP1 PUSH1 0x40 MLOAD DUP1 PUSH1 0x40 ADD PUSH1 0x40 MSTORE DUP1 PUSH1 0x3 DUP2 MSTORE PUSH1 0x20 ADD PUSH32 0x4254430000000000000000000000000000000000000000000000000000000000 DUP2 MSTORE POP DUP2 MSTORE PUSH1 0x20 ADD PUSH1 0x40 MLOAD DUP1 PUSH1 0x40 ADD PUSH1 0x40 MSTORE DUP1 PUSH1 0x3 DUP2 MSTORE PUSH1 0x20 ADD PUSH32 0x4554480000000000000000000000000000000000000000000000000000000000 DUP2 MSTORE POP DUP2 MSTORE POP PUSH1 0x0 SWAP1 PUSH1 0x2 PUSH2 0x93 SWAP3 SWAP2 SWAP1 PUSH2 0xA6 JUMP JUMPDEST POP CALLVALUE DUP1 ISZERO PUSH2 0xA0 JUMPI PUSH1 0x0 DUP1 REVERT JUMPDEST POP PUSH2 0x26E JUMP JUMPDEST DUP3 DUP1 SLOAD DUP3 DUP3 SSTORE SWAP1 PUSH1 0x0 MSTORE PUSH1 0x20 PUSH1 0x0 KECCAK256 SWAP1 DUP2 ADD SWAP3 DUP3 ISZERO PUSH2 0xF5 JUMPI SWAP2 PUSH1 0x20 MUL DUP3 ADD JUMPDEST DUP3 DUP2 GT ISZERO PUSH2 0xF4 JUMPI DUP3 MLOAD DUP3 SWAP1 DUP1 MLOAD SWAP1 PUSH1 0x20 ADD SWAP1 PUSH2 0xE4 SWAP3 SWAP2 SWAP1 PUSH2 0x106 JUMP JUMPDEST POP SWAP2 PUSH1 0x20 ADD SWAP2 SWAP1 PUSH1 0x1 ADD SWAP1 PUSH2 0xC6 JUMP JUMPDEST JUMPDEST POP SWAP1 POP PUSH2 0x102 SWAP2 SWAP1 PUSH2 0x18C JUMP JUMPDEST POP SWAP1 JUMP JUMPDEST DUP3 DUP1 SLOAD PUSH2 0x112 SWAP1 PUSH2 0x20D JUMP JUMPDEST SWAP1 PUSH1 0x0 MSTORE PUSH1 0x20 PUSH1 0x0 KECCAK256 SWAP1 PUSH1 0x1F ADD PUSH1 0x20 SWAP1 DIV DUP2 ADD SWAP3 DUP3 PUSH2 0x134 JUMPI PUSH1 0x0 DUP6 SSTORE PUSH2 0x17B JUMP JUMPDEST DUP3 PUSH1 0x1F LT PUSH2 0x14D JUMPI DUP1 MLOAD PUSH1 0xFF NOT AND DUP4 DUP1 ADD OR DUP6 SSTORE PUSH2 0x17B JUMP JUMPDEST DUP3 DUP1 ADD PUSH1 0x1 ADD DUP6 SSTORE DUP3 ISZERO PUSH2 0x17B JUMPI SWAP2 DUP3 ADD JUMPDEST DUP3 DUP2 GT ISZERO PUSH2 0x17A JUMPI DUP3 MLOAD DUP3 SSTORE SWAP2 PUSH1 0x20 ADD SWAP2 SWAP1 PUSH1 0x1 ADD SWAP1 PUSH2 0x15F JUMP JUMPDEST JUMPDEST POP SWAP1 POP PUSH2 0x188 SWAP2 SWAP1 PUSH2 0x1B0 JUMP JUMPDEST POP SWAP1 JUMP JUMPDEST JUMPDEST DUP1 DUP3 GT ISZERO PUSH2 0x1AC JUMPI PUSH1 0x0 DUP2 DUP2 PUSH2 0x1A3 SWAP2 SWAP1 PUSH2 0x1CD JUMP JUMPDEST POP PUSH1 0x1 ADD PUSH2 0x18D JUMP JUMPDEST POP SWAP1 JUMP JUMPDEST JUMPDEST DUP1 DUP3 GT ISZERO PUSH2 0x1C9 JUMPI PUSH1 0x0 DUP2 PUSH1 0x0 SWAP1 SSTORE POP PUSH1 0x1 ADD PUSH2 0x1B1 JUMP JUMPDEST POP SWAP1 JUMP JUMPDEST POP DUP1 SLOAD PUSH2 0x1D9 SWAP1 PUSH2 0x20D JUMP JUMPDEST PUSH1 0x0 DUP3 SSTORE DUP1 PUSH1 0x1F LT PUSH2 0x1EB JUMPI POP PUSH2 0x20A JUMP JUMPDEST PUSH1 0x1F ADD PUSH1 0x20 SWAP1 DIV SWAP1 PUSH1 0x0 MSTORE PUSH1 0x20 PUSH1 0x0 KECCAK256 SWAP1 DUP2 ADD SWAP1 PUSH2 0x209 SWAP2 SWAP1 PUSH2 0x1B0 JUMP JUMPDEST JUMPDEST POP JUMP JUMPDEST PUSH1 0x0 PUSH1 0x2 DUP3 DIV SWAP1 POP PUSH1 0x1 DUP3 AND DUP1 PUSH2 0x225 JUMPI PUSH1 0x7F DUP3 AND SWAP2 POP JUMPDEST PUSH1 0x20 DUP3 LT DUP2 EQ ISZERO PUSH2 0x239 JUMPI PUSH2 0x238 PUSH2 0x23F JUMP JUMPDEST JUMPDEST POP SWAP2 SWAP1 POP JUMP JUMPDEST PUSH32 0x4E487B7100000000000000000000000000000000000000000000000000000000 PUSH1 0x0 MSTORE PUSH1 0x22 PUSH1 0x4 MSTORE PUSH1 0x24 PUSH1 0x0 REVERT JUMPDEST PUSH2 0x408 DUP1 PUSH2 0x27D PUSH1 0x0 CODECOPY PUSH1 0x0 RETURN INVALID PUSH1 0x80 PUSH1 0x40 MSTORE CALLVALUE DUP1 ISZERO PUSH2 0x10 JUMPI PUSH1 0x0 DUP1 REVERT JUMPDEST POP PUSH1 0x4 CALLDATASIZE LT PUSH2 0x36 JUMPI PUSH1 0x0 CALLDATALOAD PUSH1 0xE0 SHR DUP1 PUSH4 0x4F64B2BE EQ PUSH2 0x3B JUMPI DUP1 PUSH4 0xA9A51F89 EQ PUSH2 0x6B JUMPI JUMPDEST PUSH1 0x0 DUP1 REVERT JUMPDEST PUSH2 0x55 PUSH1 0x4 DUP1 CALLDATASIZE SUB DUP2 ADD SWAP1 PUSH2 0x50 SWAP2 SWAP1 PUSH2 0x26C JUMP JUMPDEST PUSH2 0x75 JUMP JUMPDEST PUSH1 0x40 MLOAD PUSH2 0x62 SWAP2 SWAP1 PUSH2 0x2CE JUMP JUMPDEST PUSH1 0x40 MLOAD DUP1 SWAP2 SUB SWAP1 RETURN JUMPDEST PUSH2 0x73 PUSH2 0x121 JUMP JUMPDEST STOP JUMPDEST PUSH1 0x0 DUP2 DUP2 SLOAD DUP2 LT PUSH2 0x85 JUMPI PUSH1 0x0 DUP1 REVERT JUMPDEST SWAP1 PUSH1 0x0 MSTORE PUSH1 0x20 PUSH1 0x0 KECCAK256 ADD PUSH1 0x0 SWAP2 POP SWAP1 POP DUP1 SLOAD PUSH2 0xA0 SWAP1 PUSH2 0x349 JUMP JUMPDEST DUP1 PUSH1 0x1F ADD PUSH1 0x20 DUP1 SWAP2 DIV MUL PUSH1 0x20 ADD PUSH1 0x40 MLOAD SWAP1 DUP2 ADD PUSH1 0x40 MSTORE DUP1 SWAP3 SWAP2 SWAP1 DUP2 DUP2 MSTORE PUSH1 0x20 ADD DUP3 DUP1 SLOAD PUSH2 0xCC SWAP1 PUSH2 0x349 JUMP JUMPDEST DUP1 ISZERO PUSH2 0x119 JUMPI DUP1 PUSH1 0x1F LT PUSH2 0xEE JUMPI PUSH2 0x100 DUP1 DUP4 SLOAD DIV MUL DUP4 MSTORE SWAP2 PUSH1 0x20 ADD SWAP2 PUSH2 0x119 JUMP JUMPDEST DUP3 ADD SWAP2 SWAP1 PUSH1 0x0 MSTORE PUSH1 0x20 PUSH1 0x0 KECCAK256 SWAP1 JUMPDEST DUP2 SLOAD DUP2 MSTORE SWAP1 PUSH1 0x1 ADD SWAP1 PUSH1 0x20 ADD DUP1 DUP4 GT PUSH2 0xFC JUMPI DUP3 SWAP1 SUB PUSH1 0x1F AND DUP3 ADD SWAP2 JUMPDEST POP POP POP POP POP DUP2 JUMP JUMPDEST PUSH1 0x0 PUSH1 0x40 MLOAD DUP1 PUSH1 0x40 ADD PUSH1 0x40 MSTORE DUP1 PUSH1 0x3 DUP2 MSTORE PUSH1 0x20 ADD PUSH32 0x5645540000000000000000000000000000000000000000000000000000000000 DUP2 MSTORE POP DUP2 PUSH1 0x0 DUP2 SLOAD DUP2 LT PUSH2 0x193 JUMPI PUSH32 0x4E487B7100000000000000000000000000000000000000000000000000000000 PUSH1 0x0 MSTORE PUSH1 0x32 PUSH1 0x4 MSTORE PUSH1 0x24 PUSH1 0x0 REVERT JUMPDEST SWAP1 PUSH1 0x0 MSTORE PUSH1 0x20 PUSH1 0x0 KECCAK256 ADD SWAP1 DUP1 MLOAD SWAP1 PUSH1 0x20 ADD SWAP1 PUSH2 0x1B0 SWAP3 SWAP2 SWAP1 PUSH2 0x1B4 JUMP JUMPDEST POP POP JUMP JUMPDEST DUP3 DUP1 SLOAD PUSH2 0x1C0 SWAP1 PUSH2 0x349 JUMP JUMPDEST SWAP1 PUSH1 0x0 MSTORE PUSH1 0x20 PUSH1 0x0 KECCAK256 SWAP1 PUSH1 0x1F ADD PUSH1 0x20 SWAP1 DIV DUP2 ADD SWAP3 DUP3 PUSH2 0x1E2 JUMPI PUSH1 0x0 DUP6 SSTORE PUSH2 0x229 JUMP JUMPDEST DUP3 PUSH1 0x1F LT PUSH2 0x1FB JUMPI DUP1 MLOAD PUSH1 0xFF NOT AND DUP4 DUP1 ADD OR DUP6 SSTORE PUSH2 0x229 JUMP JUMPDEST DUP3 DUP1 ADD PUSH1 0x1 ADD DUP6 SSTORE DUP3 ISZERO PUSH2 0x229 JUMPI SWAP2 DUP3 ADD JUMPDEST DUP3 DUP2 GT ISZERO PUSH2 0x228 JUMPI DUP3 MLOAD DUP3 SSTORE SWAP2 PUSH1 0x20 ADD SWAP2 SWAP1 PUSH1 0x1 ADD SWAP1 PUSH2 0x20D JUMP JUMPDEST JUMPDEST POP SWAP1 POP PUSH2 0x236 SWAP2 SWAP1 PUSH2 0x23A JUMP JUMPDEST POP SWAP1 JUMP JUMPDEST JUMPDEST DUP1 DUP3 GT ISZERO PUSH2 0x253 JUMPI PUSH1 0x0 DUP2 PUSH1 0x0 SWAP1 SSTORE POP PUSH1 0x1 ADD PUSH2 0x23B JUMP JUMPDEST POP SWAP1 JUMP JUMPDEST PUSH1 0x0 DUP2 CALLDATALOAD SWAP1 POP PUSH2 0x266 DUP2 PUSH2 0x3BB JUMP JUMPDEST SWAP3 SWAP2 POP POP JUMP JUMPDEST PUSH1 0x0 PUSH1 0x20 DUP3 DUP5 SUB SLT ISZERO PUSH2 0x27E JUMPI PUSH1 0x0 DUP1 REVERT JUMPDEST PUSH1 0x0 PUSH2 0x28C DUP5 DUP3 DUP6 ADD PUSH2 0x257 JUMP JUMPDEST SWAP2 POP POP SWAP3 SWAP2 POP POP JUMP JUMPDEST PUSH1 0x0 PUSH2 0x2A0 DUP3 PUSH2 0x2F0 JUMP JUMPDEST PUSH2 0x2AA DUP2 DUP6 PUSH2 0x2FB JUMP JUMPDEST SWAP4 POP PUSH2 0x2BA DUP2 DUP6 PUSH1 0x20 DUP7 ADD PUSH2 0x316 JUMP JUMPDEST PUSH2 0x2C3 DUP2 PUSH2 0x3AA JUMP JUMPDEST DUP5 ADD SWAP2 POP POP SWAP3 SWAP2 POP POP JUMP JUMPDEST PUSH1 0x0 PUSH1 0x20 DUP3 ADD SWAP1 POP DUP2 DUP2 SUB PUSH1 0x0 DUP4 ADD MSTORE PUSH2 0x2E8 DUP2 DUP5 PUSH2 0x295 JUMP JUMPDEST SWAP1 POP SWAP3 SWAP2 POP POP JUMP JUMPDEST PUSH1 0x0 DUP2 MLOAD SWAP1 POP SWAP2 SWAP1 POP JUMP JUMPDEST PUSH1 0x0 DUP3 DUP3 MSTORE PUSH1 0x20 DUP3 ADD SWAP1 POP SWAP3 SWAP2 POP POP JUMP JUMPDEST PUSH1 0x0 DUP2 SWAP1 POP SWAP2 SWAP1 POP JUMP JUMPDEST PUSH1 0x0 JUMPDEST DUP4 DUP2 LT ISZERO PUSH2 0x334 JUMPI DUP1 DUP3 ADD MLOAD DUP2 DUP5 ADD MSTORE PUSH1 0x20 DUP2 ADD SWAP1 POP PUSH2 0x319 JUMP JUMPDEST DUP4 DUP2 GT ISZERO PUSH2 0x343 JUMPI PUSH1 0x0 DUP5 DUP5 ADD MSTORE JUMPDEST POP POP POP POP JUMP JUMPDEST PUSH1 0x0 PUSH1 0x2 DUP3 DIV SWAP1 POP PUSH1 0x1 DUP3 AND DUP1 PUSH2 0x361 JUMPI PUSH1 0x7F DUP3 AND SWAP2 POP JUMPDEST PUSH1 0x20 DUP3 LT DUP2 EQ ISZERO PUSH2 0x375 JUMPI PUSH2 0x374 PUSH2 0x37B JUMP JUMPDEST JUMPDEST POP SWAP2 SWAP1 POP JUMP JUMPDEST PUSH32 0x4E487B7100000000000000000000000000000000000000000000000000000000 PUSH1 0x0 MSTORE PUSH1 0x22 PUSH1 0x4 MSTORE PUSH1 0x24 PUSH1 0x0 REVERT JUMPDEST PUSH1 0x0 PUSH1 0x1F NOT PUSH1 0x1F DUP4 ADD AND SWAP1 POP SWAP2 SWAP1 POP JUMP JUMPDEST PUSH2 0x3C4 DUP2 PUSH2 0x30C JUMP JUMPDEST DUP2 EQ PUSH2 0x3CF JUMPI PUSH1 0x0 DUP1 REVERT JUMPDEST POP JUMP INVALID LOG2 PUSH5 0x6970667358 0x22 SLT KECCAK256 0xDF POP CALLDATALOAD SWAP6 TIMESTAMP PUSH30 0x4D3E6CA5197D2C67DF24E98C15DDBF8E4254D8EA81279EB9C73464736F6C PUSH4 0x43000800 STOP CALLER "
				},
				"gasEstimates": {
					"creation": {
						"codeDepositCost": "206400",
						"executionCost": "infinite",
						"totalCost": "infinite"
					},
					"external": {
						"changeTokens()": "infinite",
						"tokens(uint256)": "infinite"
					}
				},
				"methodIdentifiers": {
					"changeTokens()": "a9a51f89",
					"tokens(uint256)": "4f64b2be"
				}
			},
			"storageLayout": {
				"storage": [
					{
						"astId": 54,
						"contract": "contracts/challenge1.sol:MyTokens",
						"label": "tokens",
						"offset": 0,
						"slot": "0",
						"type": "t_array(t_string_storage)dyn_storage"
					}
				],
				"types": {
					"t_array(t_string_storage)dyn_storage": {
						"base": "t_string_storage",
						"encoding": "dynamic_array",
						"label": "string[]",
						"numberOfBytes": "32"
					},
					"t_string_storage": {
						"encoding": "bytes",
						"label": "string",
						"numberOfBytes": "32"
					}
				}
			},
			"userdoc": {
				"kind": "user",
				"methods": {},
				"version": 1
			}
		}
	}
}