{
	"contracts/lottery.sol": {
		"Lottery": {
			"abi": [
				{
					"inputs": [],
					"stateMutability": "nonpayable",
					"type": "constructor"
				},
				{
					"inputs": [],
					"name": "getBalance",
					"outputs": [
						{
							"internalType": "uint256",
							"name": "",
							"type": "uint256"
						}
					],
					"stateMutability": "view",
					"type": "function"
				},
				{
					"inputs": [],
					"name": "manager",
					"outputs": [
						{
							"internalType": "address",
							"name": "",
							"type": "address"
						}
					],
					"stateMutability": "view",
					"type": "function"
				},
				{
					"inputs": [],
					"name": "pickWinner",
					"outputs": [],
					"stateMutability": "nonpayable",
					"type": "function"
				},
				{
					"inputs": [
						{
							"internalType": "uint256",
							"name": "",
							"type": "uint256"
						}
					],
					"name": "players",
					"outputs": [
						{
							"internalType": "address payable",
							"name": "",
							"type": "address"
						}
					],
					"stateMutability": "view",
					"type": "function"
				},
				{
					"inputs": [],
					"name": "random",
					"outputs": [
						{
							"internalType": "uint256",
							"name": "",
							"type": "uint256"
						}
					],
					"stateMutability": "view",
					"type": "function"
				},
				{
					"stateMutability": "payable",
					"type": "receive"
				}
			],
			"devdoc": {
				"kind": "dev",
				"methods": {},
				"version": 1
			},
			"evm": {
				"assembly": "    /* \"contracts/lottery.sol\":73:3075  contract Lottery{\r... */\n  mstore(0x40, 0x80)\n    /* \"contracts/lottery.sol\":599:759  constructor(){\r... */\n  callvalue\n  dup1\n  iszero\n  tag_1\n  jumpi\n  0x00\n  dup1\n  revert\ntag_1:\n  pop\n    /* \"contracts/lottery.sol\":633:643  msg.sender */\n  caller\n    /* \"contracts/lottery.sol\":623:630  manager */\n  0x01\n  0x00\n    /* \"contracts/lottery.sol\":623:643  manager = msg.sender */\n  0x0100\n  exp\n  dup2\n  sload\n  dup2\n  0xffffffffffffffffffffffffffffffffffffffff\n  mul\n  not\n  and\n  swap1\n  dup4\n  0xffffffffffffffffffffffffffffffffffffffff\n  and\n  mul\n  or\n  swap1\n  sstore\n  pop\n    /* \"contracts/lottery.sol\":721:728  players */\n  0x00\n    /* \"contracts/lottery.sol\":742:749  manager */\n  0x01\n  0x00\n  swap1\n  sload\n  swap1\n  0x0100\n  exp\n  swap1\n  div\n  0xffffffffffffffffffffffffffffffffffffffff\n  and\n    /* \"contracts/lottery.sol\":721:751  players.push(payable(manager)) */\n  swap1\n  dup1\n  0x01\n  dup2\n  sload\n  add\n  dup1\n  dup3\n  sstore\n  dup1\n  swap2\n  pop\n  pop\n  0x01\n  swap1\n  sub\n  swap1\n  0x00\n  mstore\n  keccak256(0x00, 0x20)\n  add\n  0x00\n  swap1\n  swap2\n  swap1\n  swap2\n  swap1\n  swap2\n  0x0100\n  exp\n  dup2\n  sload\n  dup2\n  0xffffffffffffffffffffffffffffffffffffffff\n  mul\n  not\n  and\n  swap1\n  dup4\n  0xffffffffffffffffffffffffffffffffffffffff\n  and\n  mul\n  or\n  swap1\n  sstore\n  pop\n    /* \"contracts/lottery.sol\":73:3075  contract Lottery{\r... */\n  dataSize(sub_0)\n  dup1\n  dataOffset(sub_0)\n  0x00\n  codecopy\n  0x00\n  return\nstop\n\nsub_0: assembly {\n        /* \"contracts/lottery.sol\":73:3075  contract Lottery{\r... */\n      mstore(0x40, 0x80)\n      jumpi(tag_1, lt(calldatasize, 0x04))\n      shr(0xe0, calldataload(0x00))\n      dup1\n      0x12065fe0\n      eq\n      tag_3\n      jumpi\n      dup1\n      0x481c6a75\n      eq\n      tag_4\n      jumpi\n      dup1\n      0x5d495aea\n      eq\n      tag_5\n      jumpi\n      dup1\n      0x5ec01e4d\n      eq\n      tag_6\n      jumpi\n      dup1\n      0xf71d96cb\n      eq\n      tag_7\n      jumpi\n      jump(tag_2)\n    tag_1:\n      jumpi(tag_2, calldatasize)\n        /* \"contracts/lottery.sol\":1111:1122  0.005 ether */\n      0x11c37937e08000\n        /* \"contracts/lottery.sol\":1098:1107  msg.value */\n      callvalue\n        /* \"contracts/lottery.sol\":1098:1122  msg.value == 0.005 ether */\n      eq\n        /* \"contracts/lottery.sol\":1090:1123  require(msg.value == 0.005 ether) */\n      tag_10\n      jumpi\n      0x00\n      dup1\n      revert\n    tag_10:\n        /* \"contracts/lottery.sol\":1212:1219  manager */\n      0x01\n      0x00\n      swap1\n      sload\n      swap1\n      0x0100\n      exp\n      swap1\n      div\n      0xffffffffffffffffffffffffffffffffffffffff\n      and\n        /* \"contracts/lottery.sol\":1198:1219  msg.sender != manager */\n      0xffffffffffffffffffffffffffffffffffffffff\n      and\n        /* \"contracts/lottery.sol\":1198:1208  msg.sender */\n      caller\n        /* \"contracts/lottery.sol\":1198:1219  msg.sender != manager */\n      0xffffffffffffffffffffffffffffffffffffffff\n      and\n      eq\n      iszero\n        /* \"contracts/lottery.sol\":1190:1220  require(msg.sender != manager) */\n      tag_11\n      jumpi\n      0x00\n      dup1\n      revert\n    tag_11:\n        /* \"contracts/lottery.sol\":1350:1357  players */\n      0x00\n        /* \"contracts/lottery.sol\":1371:1381  msg.sender */\n      caller\n        /* \"contracts/lottery.sol\":1350:1383  players.push(payable(msg.sender)) */\n      swap1\n      dup1\n      0x01\n      dup2\n      sload\n      add\n      dup1\n      dup3\n      sstore\n      dup1\n      swap2\n      pop\n      pop\n      0x01\n      swap1\n      sub\n      swap1\n      0x00\n      mstore\n      keccak256(0x00, 0x20)\n      add\n      0x00\n      swap1\n      swap2\n      swap1\n      swap2\n      swap1\n      swap2\n      0x0100\n      exp\n      dup2\n      sload\n      dup2\n      0xffffffffffffffffffffffffffffffffffffffff\n      mul\n      not\n      and\n      swap1\n      dup4\n      0xffffffffffffffffffffffffffffffffffffffff\n      and\n      mul\n      or\n      swap1\n      sstore\n      pop\n        /* \"contracts/lottery.sol\":73:3075  contract Lottery{\r... */\n      stop\n    tag_2:\n      0x00\n      dup1\n      revert\n        /* \"contracts/lottery.sol\":1452:1650  function getBalance() public view returns(uint){\r... */\n    tag_3:\n      callvalue\n      dup1\n      iszero\n      tag_13\n      jumpi\n      0x00\n      dup1\n      revert\n    tag_13:\n      pop\n      tag_14\n      tag_15\n      jump\t// in\n    tag_14:\n      mload(0x40)\n      tag_16\n      swap2\n      swap1\n      tag_17\n      jump\t// in\n    tag_16:\n      mload(0x40)\n      dup1\n      swap2\n      sub\n      swap1\n      return\n        /* \"contracts/lottery.sol\":397:419  address public manager */\n    tag_4:\n      callvalue\n      dup1\n      iszero\n      tag_18\n      jumpi\n      0x00\n      dup1\n      revert\n    tag_18:\n      pop\n      tag_19\n      tag_20\n      jump\t// in\n    tag_19:\n      mload(0x40)\n      tag_21\n      swap2\n      swap1\n      tag_22\n      jump\t// in\n    tag_21:\n      mload(0x40)\n      dup1\n      swap2\n      sub\n      swap1\n      return\n        /* \"contracts/lottery.sol\":2016:3068  function pickWinner() public{\r... */\n    tag_5:\n      callvalue\n      dup1\n      iszero\n      tag_23\n      jumpi\n      0x00\n      dup1\n      revert\n    tag_23:\n      pop\n      tag_24\n      tag_25\n      jump\t// in\n    tag_24:\n      stop\n        /* \"contracts/lottery.sol\":1707:1940  function random() public view returns(uint){\r... */\n    tag_6:\n      callvalue\n      dup1\n      iszero\n      tag_26\n      jumpi\n      0x00\n      dup1\n      revert\n    tag_26:\n      pop\n      tag_27\n      tag_28\n      jump\t// in\n    tag_27:\n      mload(0x40)\n      tag_29\n      swap2\n      swap1\n      tag_17\n      jump\t// in\n    tag_29:\n      mload(0x40)\n      dup1\n      swap2\n      sub\n      swap1\n      return\n        /* \"contracts/lottery.sol\":267:299  address payable[] public players */\n    tag_7:\n      callvalue\n      dup1\n      iszero\n      tag_30\n      jumpi\n      0x00\n      dup1\n      revert\n    tag_30:\n      pop\n      tag_31\n      0x04\n      dup1\n      calldatasize\n      sub\n      dup2\n      add\n      swap1\n      tag_32\n      swap2\n      swap1\n      tag_33\n      jump\t// in\n    tag_32:\n      tag_34\n      jump\t// in\n    tag_31:\n      mload(0x40)\n      tag_35\n      swap2\n      swap1\n      tag_36\n      jump\t// in\n    tag_35:\n      mload(0x40)\n      dup1\n      swap2\n      sub\n      swap1\n      return\n        /* \"contracts/lottery.sol\":1452:1650  function getBalance() public view returns(uint){\r... */\n    tag_15:\n        /* \"contracts/lottery.sol\":1494:1498  uint */\n      0x00\n        /* \"contracts/lottery.sol\":1595:1602  manager */\n      0x01\n      0x00\n      swap1\n      sload\n      swap1\n      0x0100\n      exp\n      swap1\n      div\n      0xffffffffffffffffffffffffffffffffffffffff\n      and\n        /* \"contracts/lottery.sol\":1581:1602  msg.sender == manager */\n      0xffffffffffffffffffffffffffffffffffffffff\n      and\n        /* \"contracts/lottery.sol\":1581:1591  msg.sender */\n      caller\n        /* \"contracts/lottery.sol\":1581:1602  msg.sender == manager */\n      0xffffffffffffffffffffffffffffffffffffffff\n      and\n      eq\n        /* \"contracts/lottery.sol\":1573:1603  require(msg.sender == manager) */\n      tag_38\n      jumpi\n      0x00\n      dup1\n      revert\n    tag_38:\n        /* \"contracts/lottery.sol\":1621:1642  address(this).balance */\n      selfbalance\n        /* \"contracts/lottery.sol\":1614:1642  return address(this).balance */\n      swap1\n      pop\n        /* \"contracts/lottery.sol\":1452:1650  function getBalance() public view returns(uint){\r... */\n      swap1\n      jump\t// out\n        /* \"contracts/lottery.sol\":397:419  address public manager */\n    tag_20:\n      0x01\n      0x00\n      swap1\n      sload\n      swap1\n      0x0100\n      exp\n      swap1\n      div\n      0xffffffffffffffffffffffffffffffffffffffff\n      and\n      dup2\n      jump\t// out\n        /* \"contracts/lottery.sol\":2016:3068  function pickWinner() public{\r... */\n    tag_25:\n        /* \"contracts/lottery.sol\":2126:2133  manager */\n      0x01\n      0x00\n      swap1\n      sload\n      swap1\n      0x0100\n      exp\n      swap1\n      div\n      0xffffffffffffffffffffffffffffffffffffffff\n      and\n        /* \"contracts/lottery.sol\":2112:2133  msg.sender == manager */\n      0xffffffffffffffffffffffffffffffffffffffff\n      and\n        /* \"contracts/lottery.sol\":2112:2122  msg.sender */\n      caller\n        /* \"contracts/lottery.sol\":2112:2133  msg.sender == manager */\n      0xffffffffffffffffffffffffffffffffffffffff\n      and\n      eq\n        /* \"contracts/lottery.sol\":2104:2134  require(msg.sender == manager) */\n      tag_40\n      jumpi\n      0x00\n      dup1\n      revert\n    tag_40:\n        /* \"contracts/lottery.sol\":2210:2211  3 */\n      0x03\n        /* \"contracts/lottery.sol\":2192:2199  players */\n      0x00\n        /* \"contracts/lottery.sol\":2192:2206  players.length */\n      dup1\n      sload\n      swap1\n      pop\n        /* \"contracts/lottery.sol\":2192:2211  players.length >= 3 */\n      lt\n      iszero\n        /* \"contracts/lottery.sol\":2184:2212  require(players.length >= 3) */\n      tag_41\n      jumpi\n      0x00\n      dup1\n      revert\n    tag_41:\n        /* \"contracts/lottery.sol\":2377:2387  uint rando */\n      0x00\n        /* \"contracts/lottery.sol\":2390:2398  random() */\n      tag_42\n        /* \"contracts/lottery.sol\":2390:2396  random */\n      tag_28\n        /* \"contracts/lottery.sol\":2390:2398  random() */\n      jump\t// in\n    tag_42:\n        /* \"contracts/lottery.sol\":2377:2398  uint rando = random() */\n      swap1\n      pop\n        /* \"contracts/lottery.sol\":2468:2490  address payable winner */\n      0x00\n        /* \"contracts/lottery.sol\":2643:2653  uint index */\n      dup1\n        /* \"contracts/lottery.sol\":2664:2671  players */\n      0x00\n        /* \"contracts/lottery.sol\":2664:2678  players.length */\n      dup1\n      sload\n      swap1\n      pop\n        /* \"contracts/lottery.sol\":2656:2661  rando */\n      dup4\n        /* \"contracts/lottery.sol\":2656:2678  rando % players.length */\n      tag_43\n      swap2\n      swap1\n      tag_44\n      jump\t// in\n    tag_43:\n        /* \"contracts/lottery.sol\":2643:2678  uint index = rando % players.length */\n      swap1\n      pop\n        /* \"contracts/lottery.sol\":2731:2738  players */\n      0x00\n        /* \"contracts/lottery.sol\":2739:2744  index */\n      dup2\n        /* \"contracts/lottery.sol\":2731:2745  players[index] */\n      dup2\n      sload\n      dup2\n      lt\n      tag_45\n      jumpi\n      tag_46\n      tag_47\n      jump\t// in\n    tag_46:\n    tag_45:\n      swap1\n      0x00\n      mstore\n      keccak256(0x00, 0x20)\n      add\n      0x00\n      swap1\n      sload\n      swap1\n      0x0100\n      exp\n      swap1\n      div\n      0xffffffffffffffffffffffffffffffffffffffff\n      and\n        /* \"contracts/lottery.sol\":2722:2745  winner = players[index] */\n      swap2\n      pop\n        /* \"contracts/lottery.sol\":2799:2805  winner */\n      dup2\n        /* \"contracts/lottery.sol\":2799:2814  winner.transfer */\n      0xffffffffffffffffffffffffffffffffffffffff\n      and\n        /* \"contracts/lottery.sol\":2799:2828  winner.transfer(getBalance()) */\n      0x08fc\n        /* \"contracts/lottery.sol\":2815:2827  getBalance() */\n      tag_49\n        /* \"contracts/lottery.sol\":2815:2825  getBalance */\n      tag_15\n        /* \"contracts/lottery.sol\":2815:2827  getBalance() */\n      jump\t// in\n    tag_49:\n        /* \"contracts/lottery.sol\":2799:2828  winner.transfer(getBalance()) */\n      swap1\n      dup2\n      iszero\n      mul\n      swap1\n      mload(0x40)\n      0x00\n      mload(0x40)\n      dup1\n      dup4\n      sub\n      dup2\n      dup6\n      dup9\n      dup9\n      call\n      swap4\n      pop\n      pop\n      pop\n      pop\n      iszero\n      dup1\n      iszero\n      tag_51\n      jumpi\n      returndatasize\n      0x00\n      dup1\n      returndatacopy\n      revert(0x00, returndatasize)\n    tag_51:\n      pop\n        /* \"contracts/lottery.sol\":2947:2948  0 */\n      0x00\n        /* \"contracts/lottery.sol\":2925:2949  new address payable[](0) */\n      0xffffffffffffffff\n      dup2\n      gt\n      iszero\n      tag_52\n      jumpi\n      tag_53\n      tag_54\n      jump\t// in\n    tag_53:\n    tag_52:\n      mload(0x40)\n      swap1\n      dup1\n      dup3\n      mstore\n      dup1\n      0x20\n      mul\n      0x20\n      add\n      dup3\n      add\n      0x40\n      mstore\n      dup1\n      iszero\n      tag_55\n      jumpi\n      dup2\n      0x20\n      add\n      0x20\n      dup3\n      mul\n      dup1\n      calldatasize\n      dup4\n      calldatacopy\n      dup1\n      dup3\n      add\n      swap2\n      pop\n      pop\n      swap1\n      pop\n    tag_55:\n      pop\n        /* \"contracts/lottery.sol\":2915:2922  players */\n      0x00\n        /* \"contracts/lottery.sol\":2915:2949  players = new address payable[](0) */\n      swap1\n      dup1\n      mload\n      swap1\n      0x20\n      add\n      swap1\n      tag_56\n      swap3\n      swap2\n      swap1\n      tag_57\n      jump\t// in\n    tag_56:\n      pop\n        /* \"contracts/lottery.sol\":3028:3035  players */\n      0x00\n        /* \"contracts/lottery.sol\":3049:3056  manager */\n      0x01\n      0x00\n      swap1\n      sload\n      swap1\n      0x0100\n      exp\n      swap1\n      div\n      0xffffffffffffffffffffffffffffffffffffffff\n      and\n        /* \"contracts/lottery.sol\":3028:3058  players.push(payable(manager)) */\n      swap1\n      dup1\n      0x01\n      dup2\n      sload\n      add\n      dup1\n      dup3\n      sstore\n      dup1\n      swap2\n      pop\n      pop\n      0x01\n      swap1\n      sub\n      swap1\n      0x00\n      mstore\n      keccak256(0x00, 0x20)\n      add\n      0x00\n      swap1\n      swap2\n      swap1\n      swap2\n      swap1\n      swap2\n      0x0100\n      exp\n      dup2\n      sload\n      dup2\n      0xffffffffffffffffffffffffffffffffffffffff\n      mul\n      not\n      and\n      swap1\n      dup4\n      0xffffffffffffffffffffffffffffffffffffffff\n      and\n      mul\n      or\n      swap1\n      sstore\n      pop\n        /* \"contracts/lottery.sol\":2044:3068  {\r... */\n      pop\n      pop\n      pop\n        /* \"contracts/lottery.sol\":2016:3068  function pickWinner() public{\r... */\n      jump\t// out\n        /* \"contracts/lottery.sol\":1707:1940  function random() public view returns(uint){\r... */\n    tag_28:\n        /* \"contracts/lottery.sol\":1745:1749  uint */\n      0x00\n        /* \"contracts/lottery.sol\":1880:1896  block.difficulty */\n      difficulty\n        /* \"contracts/lottery.sol\":1898:1913  block.timestamp */\n      timestamp\n        /* \"contracts/lottery.sol\":1915:1922  players */\n      0x00\n        /* \"contracts/lottery.sol\":1915:1929  players.length */\n      dup1\n      sload\n      swap1\n      pop\n        /* \"contracts/lottery.sol\":1863:1930  abi.encodePacked(block.difficulty, block.timestamp, players.length) */\n      add(0x20, mload(0x40))\n      tag_60\n      swap4\n      swap3\n      swap2\n      swap1\n      tag_61\n      jump\t// in\n    tag_60:\n      mload(0x40)\n      0x20\n      dup2\n      dup4\n      sub\n      sub\n      dup2\n      mstore\n      swap1\n      0x40\n      mstore\n        /* \"contracts/lottery.sol\":1853:1931  keccak256(abi.encodePacked(block.difficulty, block.timestamp, players.length)) */\n      dup1\n      mload\n      swap1\n      0x20\n      add\n      keccak256\n        /* \"contracts/lottery.sol\":1848:1932  uint(keccak256(abi.encodePacked(block.difficulty, block.timestamp, players.length))) */\n      0x00\n      shr\n        /* \"contracts/lottery.sol\":1841:1932  return uint(keccak256(abi.encodePacked(block.difficulty, block.timestamp, players.length))) */\n      swap1\n      pop\n        /* \"contracts/lottery.sol\":1707:1940  function random() public view returns(uint){\r... */\n      swap1\n      jump\t// out\n        /* \"contracts/lottery.sol\":267:299  address payable[] public players */\n    tag_34:\n      0x00\n      dup2\n      dup2\n      sload\n      dup2\n      lt\n      tag_62\n      jumpi\n      0x00\n      dup1\n      revert\n    tag_62:\n      swap1\n      0x00\n      mstore\n      keccak256(0x00, 0x20)\n      add\n      0x00\n      swap2\n      pop\n      sload\n      swap1\n      0x0100\n      exp\n      swap1\n      div\n      0xffffffffffffffffffffffffffffffffffffffff\n      and\n      dup2\n      jump\t// out\n    tag_57:\n      dup3\n      dup1\n      sload\n      dup3\n      dup3\n      sstore\n      swap1\n      0x00\n      mstore\n      keccak256(0x00, 0x20)\n      swap1\n      dup2\n      add\n      swap3\n      dup3\n      iszero\n      tag_64\n      jumpi\n      swap2\n      0x20\n      mul\n      dup3\n      add\n    tag_65:\n      dup3\n      dup2\n      gt\n      iszero\n      tag_66\n      jumpi\n      dup3\n      mload\n      dup3\n      exp(0x0100, 0x00)\n      dup2\n      sload\n      dup2\n      0xffffffffffffffffffffffffffffffffffffffff\n      mul\n      not\n      and\n      swap1\n      dup4\n      0xffffffffffffffffffffffffffffffffffffffff\n      and\n      mul\n      or\n      swap1\n      sstore\n      pop\n      swap2\n      0x20\n      add\n      swap2\n      swap1\n      0x01\n      add\n      swap1\n      jump(tag_65)\n    tag_66:\n    tag_64:\n      pop\n      swap1\n      pop\n      tag_67\n      swap2\n      swap1\n      tag_68\n      jump\t// in\n    tag_67:\n      pop\n      swap1\n      jump\t// out\n    tag_68:\n    tag_69:\n      dup1\n      dup3\n      gt\n      iszero\n      tag_70\n      jumpi\n      0x00\n      dup2\n      0x00\n      swap1\n      sstore\n      pop\n      0x01\n      add\n      jump(tag_69)\n    tag_70:\n      pop\n      swap1\n      jump\t// out\n        /* \"#utility.yul\":7:146   */\n    tag_72:\n        /* \"#utility.yul\":53:58   */\n      0x00\n        /* \"#utility.yul\":91:97   */\n      dup2\n        /* \"#utility.yul\":78:98   */\n      calldataload\n        /* \"#utility.yul\":69:98   */\n      swap1\n      pop\n        /* \"#utility.yul\":107:140   */\n      tag_74\n        /* \"#utility.yul\":134:139   */\n      dup2\n        /* \"#utility.yul\":107:140   */\n      tag_75\n      jump\t// in\n    tag_74:\n        /* \"#utility.yul\":7:146   */\n      swap3\n      swap2\n      pop\n      pop\n      jump\t// out\n        /* \"#utility.yul\":152:481   */\n    tag_33:\n        /* \"#utility.yul\":211:217   */\n      0x00\n        /* \"#utility.yul\":260:262   */\n      0x20\n        /* \"#utility.yul\":248:257   */\n      dup3\n        /* \"#utility.yul\":239:246   */\n      dup5\n        /* \"#utility.yul\":235:258   */\n      sub\n        /* \"#utility.yul\":231:263   */\n      slt\n        /* \"#utility.yul\":228:347   */\n      iszero\n      tag_77\n      jumpi\n        /* \"#utility.yul\":266:345   */\n      tag_78\n      tag_79\n      jump\t// in\n    tag_78:\n        /* \"#utility.yul\":228:347   */\n    tag_77:\n        /* \"#utility.yul\":386:387   */\n      0x00\n        /* \"#utility.yul\":411:464   */\n      tag_80\n        /* \"#utility.yul\":456:463   */\n      dup5\n        /* \"#utility.yul\":447:453   */\n      dup3\n        /* \"#utility.yul\":436:445   */\n      dup6\n        /* \"#utility.yul\":432:454   */\n      add\n        /* \"#utility.yul\":411:464   */\n      tag_72\n      jump\t// in\n    tag_80:\n        /* \"#utility.yul\":401:464   */\n      swap2\n      pop\n        /* \"#utility.yul\":357:474   */\n      pop\n        /* \"#utility.yul\":152:481   */\n      swap3\n      swap2\n      pop\n      pop\n      jump\t// out\n        /* \"#utility.yul\":487:629   */\n    tag_81:\n        /* \"#utility.yul\":590:622   */\n      tag_83\n        /* \"#utility.yul\":616:621   */\n      dup2\n        /* \"#utility.yul\":590:622   */\n      tag_84\n      jump\t// in\n    tag_83:\n        /* \"#utility.yul\":585:588   */\n      dup3\n        /* \"#utility.yul\":578:623   */\n      mstore\n        /* \"#utility.yul\":487:629   */\n      pop\n      pop\n      jump\t// out\n        /* \"#utility.yul\":635:753   */\n    tag_85:\n        /* \"#utility.yul\":722:746   */\n      tag_87\n        /* \"#utility.yul\":740:745   */\n      dup2\n        /* \"#utility.yul\":722:746   */\n      tag_88\n      jump\t// in\n    tag_87:\n        /* \"#utility.yul\":717:720   */\n      dup3\n        /* \"#utility.yul\":710:747   */\n      mstore\n        /* \"#utility.yul\":635:753   */\n      pop\n      pop\n      jump\t// out\n        /* \"#utility.yul\":759:877   */\n    tag_89:\n        /* \"#utility.yul\":846:870   */\n      tag_91\n        /* \"#utility.yul\":864:869   */\n      dup2\n        /* \"#utility.yul\":846:870   */\n      tag_92\n      jump\t// in\n    tag_91:\n        /* \"#utility.yul\":841:844   */\n      dup3\n        /* \"#utility.yul\":834:871   */\n      mstore\n        /* \"#utility.yul\":759:877   */\n      pop\n      pop\n      jump\t// out\n        /* \"#utility.yul\":883:1040   */\n    tag_93:\n        /* \"#utility.yul\":988:1033   */\n      tag_95\n        /* \"#utility.yul\":1008:1032   */\n      tag_96\n        /* \"#utility.yul\":1026:1031   */\n      dup3\n        /* \"#utility.yul\":1008:1032   */\n      tag_92\n      jump\t// in\n    tag_96:\n        /* \"#utility.yul\":988:1033   */\n      tag_97\n      jump\t// in\n    tag_95:\n        /* \"#utility.yul\":983:986   */\n      dup3\n        /* \"#utility.yul\":976:1034   */\n      mstore\n        /* \"#utility.yul\":883:1040   */\n      pop\n      pop\n      jump\t// out\n        /* \"#utility.yul\":1046:1584   */\n    tag_61:\n        /* \"#utility.yul\":1214:1217   */\n      0x00\n        /* \"#utility.yul\":1229:1304   */\n      tag_99\n        /* \"#utility.yul\":1300:1303   */\n      dup3\n        /* \"#utility.yul\":1291:1297   */\n      dup7\n        /* \"#utility.yul\":1229:1304   */\n      tag_93\n      jump\t// in\n    tag_99:\n        /* \"#utility.yul\":1329:1331   */\n      0x20\n        /* \"#utility.yul\":1324:1327   */\n      dup3\n        /* \"#utility.yul\":1320:1332   */\n      add\n        /* \"#utility.yul\":1313:1332   */\n      swap2\n      pop\n        /* \"#utility.yul\":1342:1417   */\n      tag_100\n        /* \"#utility.yul\":1413:1416   */\n      dup3\n        /* \"#utility.yul\":1404:1410   */\n      dup6\n        /* \"#utility.yul\":1342:1417   */\n      tag_93\n      jump\t// in\n    tag_100:\n        /* \"#utility.yul\":1442:1444   */\n      0x20\n        /* \"#utility.yul\":1437:1440   */\n      dup3\n        /* \"#utility.yul\":1433:1445   */\n      add\n        /* \"#utility.yul\":1426:1445   */\n      swap2\n      pop\n        /* \"#utility.yul\":1455:1530   */\n      tag_101\n        /* \"#utility.yul\":1526:1529   */\n      dup3\n        /* \"#utility.yul\":1517:1523   */\n      dup5\n        /* \"#utility.yul\":1455:1530   */\n      tag_93\n      jump\t// in\n    tag_101:\n        /* \"#utility.yul\":1555:1557   */\n      0x20\n        /* \"#utility.yul\":1550:1553   */\n      dup3\n        /* \"#utility.yul\":1546:1558   */\n      add\n        /* \"#utility.yul\":1539:1558   */\n      swap2\n      pop\n        /* \"#utility.yul\":1575:1578   */\n      dup2\n        /* \"#utility.yul\":1568:1578   */\n      swap1\n      pop\n        /* \"#utility.yul\":1046:1584   */\n      swap5\n      swap4\n      pop\n      pop\n      pop\n      pop\n      jump\t// out\n        /* \"#utility.yul\":1590:1812   */\n    tag_22:\n        /* \"#utility.yul\":1683:1687   */\n      0x00\n        /* \"#utility.yul\":1721:1723   */\n      0x20\n        /* \"#utility.yul\":1710:1719   */\n      dup3\n        /* \"#utility.yul\":1706:1724   */\n      add\n        /* \"#utility.yul\":1698:1724   */\n      swap1\n      pop\n        /* \"#utility.yul\":1734:1805   */\n      tag_103\n        /* \"#utility.yul\":1802:1803   */\n      0x00\n        /* \"#utility.yul\":1791:1800   */\n      dup4\n        /* \"#utility.yul\":1787:1804   */\n      add\n        /* \"#utility.yul\":1778:1784   */\n      dup5\n        /* \"#utility.yul\":1734:1805   */\n      tag_85\n      jump\t// in\n    tag_103:\n        /* \"#utility.yul\":1590:1812   */\n      swap3\n      swap2\n      pop\n      pop\n      jump\t// out\n        /* \"#utility.yul\":1818:2072   */\n    tag_36:\n        /* \"#utility.yul\":1927:1931   */\n      0x00\n        /* \"#utility.yul\":1965:1967   */\n      0x20\n        /* \"#utility.yul\":1954:1963   */\n      dup3\n        /* \"#utility.yul\":1950:1968   */\n      add\n        /* \"#utility.yul\":1942:1968   */\n      swap1\n      pop\n        /* \"#utility.yul\":1978:2065   */\n      tag_105\n        /* \"#utility.yul\":2062:2063   */\n      0x00\n        /* \"#utility.yul\":2051:2060   */\n      dup4\n        /* \"#utility.yul\":2047:2064   */\n      add\n        /* \"#utility.yul\":2038:2044   */\n      dup5\n        /* \"#utility.yul\":1978:2065   */\n      tag_81\n      jump\t// in\n    tag_105:\n        /* \"#utility.yul\":1818:2072   */\n      swap3\n      swap2\n      pop\n      pop\n      jump\t// out\n        /* \"#utility.yul\":2078:2300   */\n    tag_17:\n        /* \"#utility.yul\":2171:2175   */\n      0x00\n        /* \"#utility.yul\":2209:2211   */\n      0x20\n        /* \"#utility.yul\":2198:2207   */\n      dup3\n        /* \"#utility.yul\":2194:2212   */\n      add\n        /* \"#utility.yul\":2186:2212   */\n      swap1\n      pop\n        /* \"#utility.yul\":2222:2293   */\n      tag_107\n        /* \"#utility.yul\":2290:2291   */\n      0x00\n        /* \"#utility.yul\":2279:2288   */\n      dup4\n        /* \"#utility.yul\":2275:2292   */\n      add\n        /* \"#utility.yul\":2266:2272   */\n      dup5\n        /* \"#utility.yul\":2222:2293   */\n      tag_89\n      jump\t// in\n    tag_107:\n        /* \"#utility.yul\":2078:2300   */\n      swap3\n      swap2\n      pop\n      pop\n      jump\t// out\n        /* \"#utility.yul\":2387:2483   */\n    tag_88:\n        /* \"#utility.yul\":2424:2431   */\n      0x00\n        /* \"#utility.yul\":2453:2477   */\n      tag_111\n        /* \"#utility.yul\":2471:2476   */\n      dup3\n        /* \"#utility.yul\":2453:2477   */\n      tag_112\n      jump\t// in\n    tag_111:\n        /* \"#utility.yul\":2442:2477   */\n      swap1\n      pop\n        /* \"#utility.yul\":2387:2483   */\n      swap2\n      swap1\n      pop\n      jump\t// out\n        /* \"#utility.yul\":2489:2593   */\n    tag_84:\n        /* \"#utility.yul\":2534:2541   */\n      0x00\n        /* \"#utility.yul\":2563:2587   */\n      tag_114\n        /* \"#utility.yul\":2581:2586   */\n      dup3\n        /* \"#utility.yul\":2563:2587   */\n      tag_112\n      jump\t// in\n    tag_114:\n        /* \"#utility.yul\":2552:2587   */\n      swap1\n      pop\n        /* \"#utility.yul\":2489:2593   */\n      swap2\n      swap1\n      pop\n      jump\t// out\n        /* \"#utility.yul\":2599:2725   */\n    tag_112:\n        /* \"#utility.yul\":2636:2643   */\n      0x00\n        /* \"#utility.yul\":2676:2718   */\n      0xffffffffffffffffffffffffffffffffffffffff\n        /* \"#utility.yul\":2669:2674   */\n      dup3\n        /* \"#utility.yul\":2665:2719   */\n      and\n        /* \"#utility.yul\":2654:2719   */\n      swap1\n      pop\n        /* \"#utility.yul\":2599:2725   */\n      swap2\n      swap1\n      pop\n      jump\t// out\n        /* \"#utility.yul\":2731:2808   */\n    tag_92:\n        /* \"#utility.yul\":2768:2775   */\n      0x00\n        /* \"#utility.yul\":2797:2802   */\n      dup2\n        /* \"#utility.yul\":2786:2802   */\n      swap1\n      pop\n        /* \"#utility.yul\":2731:2808   */\n      swap2\n      swap1\n      pop\n      jump\t// out\n        /* \"#utility.yul\":2814:2893   */\n    tag_97:\n        /* \"#utility.yul\":2853:2860   */\n      0x00\n        /* \"#utility.yul\":2882:2887   */\n      dup2\n        /* \"#utility.yul\":2871:2887   */\n      swap1\n      pop\n        /* \"#utility.yul\":2814:2893   */\n      swap2\n      swap1\n      pop\n      jump\t// out\n        /* \"#utility.yul\":2899:3075   */\n    tag_44:\n        /* \"#utility.yul\":2931:2932   */\n      0x00\n        /* \"#utility.yul\":2948:2968   */\n      tag_119\n        /* \"#utility.yul\":2966:2967   */\n      dup3\n        /* \"#utility.yul\":2948:2968   */\n      tag_92\n      jump\t// in\n    tag_119:\n        /* \"#utility.yul\":2943:2968   */\n      swap2\n      pop\n        /* \"#utility.yul\":2982:3002   */\n      tag_120\n        /* \"#utility.yul\":3000:3001   */\n      dup4\n        /* \"#utility.yul\":2982:3002   */\n      tag_92\n      jump\t// in\n    tag_120:\n        /* \"#utility.yul\":2977:3002   */\n      swap3\n      pop\n        /* \"#utility.yul\":3021:3022   */\n      dup3\n        /* \"#utility.yul\":3011:3046   */\n      tag_121\n      jumpi\n        /* \"#utility.yul\":3026:3044   */\n      tag_122\n      tag_123\n      jump\t// in\n    tag_122:\n        /* \"#utility.yul\":3011:3046   */\n    tag_121:\n        /* \"#utility.yul\":3067:3068   */\n      dup3\n        /* \"#utility.yul\":3064:3065   */\n      dup3\n        /* \"#utility.yul\":3060:3069   */\n      mod\n        /* \"#utility.yul\":3055:3069   */\n      swap1\n      pop\n        /* \"#utility.yul\":2899:3075   */\n      swap3\n      swap2\n      pop\n      pop\n      jump\t// out\n        /* \"#utility.yul\":3081:3261   */\n    tag_123:\n        /* \"#utility.yul\":3129:3206   */\n      0x4e487b7100000000000000000000000000000000000000000000000000000000\n        /* \"#utility.yul\":3126:3127   */\n      0x00\n        /* \"#utility.yul\":3119:3207   */\n      mstore\n        /* \"#utility.yul\":3226:3230   */\n      0x12\n        /* \"#utility.yul\":3223:3224   */\n      0x04\n        /* \"#utility.yul\":3216:3231   */\n      mstore\n        /* \"#utility.yul\":3250:3254   */\n      0x24\n        /* \"#utility.yul\":3247:3248   */\n      0x00\n        /* \"#utility.yul\":3240:3255   */\n      revert\n        /* \"#utility.yul\":3267:3447   */\n    tag_47:\n        /* \"#utility.yul\":3315:3392   */\n      0x4e487b7100000000000000000000000000000000000000000000000000000000\n        /* \"#utility.yul\":3312:3313   */\n      0x00\n        /* \"#utility.yul\":3305:3393   */\n      mstore\n        /* \"#utility.yul\":3412:3416   */\n      0x32\n        /* \"#utility.yul\":3409:3410   */\n      0x04\n        /* \"#utility.yul\":3402:3417   */\n      mstore\n        /* \"#utility.yul\":3436:3440   */\n      0x24\n        /* \"#utility.yul\":3433:3434   */\n      0x00\n        /* \"#utility.yul\":3426:3441   */\n      revert\n        /* \"#utility.yul\":3453:3633   */\n    tag_54:\n        /* \"#utility.yul\":3501:3578   */\n      0x4e487b7100000000000000000000000000000000000000000000000000000000\n        /* \"#utility.yul\":3498:3499   */\n      0x00\n        /* \"#utility.yul\":3491:3579   */\n      mstore\n        /* \"#utility.yul\":3598:3602   */\n      0x41\n        /* \"#utility.yul\":3595:3596   */\n      0x04\n        /* \"#utility.yul\":3588:3603   */\n      mstore\n        /* \"#utility.yul\":3622:3626   */\n      0x24\n        /* \"#utility.yul\":3619:3620   */\n      0x00\n        /* \"#utility.yul\":3612:3627   */\n      revert\n        /* \"#utility.yul\":3762:3879   */\n    tag_79:\n        /* \"#utility.yul\":3871:3872   */\n      0x00\n        /* \"#utility.yul\":3868:3869   */\n      dup1\n        /* \"#utility.yul\":3861:3873   */\n      revert\n        /* \"#utility.yul\":3885:4007   */\n    tag_75:\n        /* \"#utility.yul\":3958:3982   */\n      tag_131\n        /* \"#utility.yul\":3976:3981   */\n      dup2\n        /* \"#utility.yul\":3958:3982   */\n      tag_92\n      jump\t// in\n    tag_131:\n        /* \"#utility.yul\":3951:3956   */\n      dup2\n        /* \"#utility.yul\":3948:3983   */\n      eq\n        /* \"#utility.yul\":3938:4001   */\n      tag_132\n      jumpi\n        /* \"#utility.yul\":3997:3998   */\n      0x00\n        /* \"#utility.yul\":3994:3995   */\n      dup1\n        /* \"#utility.yul\":3987:3999   */\n      revert\n        /* \"#utility.yul\":3938:4001   */\n    tag_132:\n        /* \"#utility.yul\":3885:4007   */\n      pop\n      jump\t// out\n\n    auxdata: 0xa2646970667358221220f77a2bb67a2b0ec048c54cf5d9f53977f96f9abd157ec2758902b9afd918a61e64736f6c63430008070033\n}\n",
				"bytecode": {
					"linkReferences": {},
					"object": "608060405234801561001057600080fd5b5033600160006101000a81548173ffffffffffffffffffffffffffffffffffffffff021916908373ffffffffffffffffffffffffffffffffffffffff1602179055506000600160009054906101000a900473ffffffffffffffffffffffffffffffffffffffff169080600181540180825580915050600190039060005260206000200160009091909190916101000a81548173ffffffffffffffffffffffffffffffffffffffff021916908373ffffffffffffffffffffffffffffffffffffffff16021790555061082c806100e66000396000f3fe60806040526004361061004e5760003560e01c806312065fe01461012b578063481c6a75146101565780635d495aea146101815780635ec01e4d14610198578063f71d96cb146101c357610126565b36610126576611c37937e08000341461006657600080fd5b600160009054906101000a900473ffffffffffffffffffffffffffffffffffffffff1673ffffffffffffffffffffffffffffffffffffffff163373ffffffffffffffffffffffffffffffffffffffff1614156100c157600080fd5b6000339080600181540180825580915050600190039060005260206000200160009091909190916101000a81548173ffffffffffffffffffffffffffffffffffffffff021916908373ffffffffffffffffffffffffffffffffffffffff160217905550005b600080fd5b34801561013757600080fd5b50610140610200565b60405161014d91906106a9565b60405180910390f35b34801561016257600080fd5b5061016b610262565b6040516101789190610673565b60405180910390f35b34801561018d57600080fd5b50610196610288565b005b3480156101a457600080fd5b506101ad610490565b6040516101ba91906106a9565b60405180910390f35b3480156101cf57600080fd5b506101ea60048036038101906101e591906105c5565b6104ca565b6040516101f7919061068e565b60405180910390f35b6000600160009054906101000a900473ffffffffffffffffffffffffffffffffffffffff1673ffffffffffffffffffffffffffffffffffffffff163373ffffffffffffffffffffffffffffffffffffffff161461025c57600080fd5b47905090565b600160009054906101000a900473ffffffffffffffffffffffffffffffffffffffff1681565b600160009054906101000a900473ffffffffffffffffffffffffffffffffffffffff1673ffffffffffffffffffffffffffffffffffffffff163373ffffffffffffffffffffffffffffffffffffffff16146102e257600080fd5b600360008054905010156102f557600080fd5b60006102ff610490565b905060008060008054905083610315919061071c565b90506000818154811061032b5761032a61077c565b5b9060005260206000200160009054906101000a900473ffffffffffffffffffffffffffffffffffffffff1691508173ffffffffffffffffffffffffffffffffffffffff166108fc61037a610200565b9081150290604051600060405180830381858888f193505050501580156103a5573d6000803e3d6000fd5b50600067ffffffffffffffff8111156103c1576103c06107ab565b5b6040519080825280602002602001820160405280156103ef5781602001602082028036833780820191505090505b5060009080519060200190610405929190610509565b506000600160009054906101000a900473ffffffffffffffffffffffffffffffffffffffff169080600181540180825580915050600190039060005260206000200160009091909190916101000a81548173ffffffffffffffffffffffffffffffffffffffff021916908373ffffffffffffffffffffffffffffffffffffffff160217905550505050565b600044426000805490506040516020016104ac93929190610636565b6040516020818303038152906040528051906020012060001c905090565b600081815481106104da57600080fd5b906000526020600020016000915054906101000a900473ffffffffffffffffffffffffffffffffffffffff1681565b828054828255906000526020600020908101928215610582579160200282015b828111156105815782518260006101000a81548173ffffffffffffffffffffffffffffffffffffffff021916908373ffffffffffffffffffffffffffffffffffffffff16021790555091602001919060010190610529565b5b50905061058f9190610593565b5090565b5b808211156105ac576000816000905550600101610594565b5090565b6000813590506105bf816107df565b92915050565b6000602082840312156105db576105da6107da565b5b60006105e9848285016105b0565b91505092915050565b6105fb816106d6565b82525050565b61060a816106c4565b82525050565b61061981610708565b82525050565b61063061062b82610708565b610712565b82525050565b6000610642828661061f565b602082019150610652828561061f565b602082019150610662828461061f565b602082019150819050949350505050565b60006020820190506106886000830184610601565b92915050565b60006020820190506106a360008301846105f2565b92915050565b60006020820190506106be6000830184610610565b92915050565b60006106cf826106e8565b9050919050565b60006106e1826106e8565b9050919050565b600073ffffffffffffffffffffffffffffffffffffffff82169050919050565b6000819050919050565b6000819050919050565b600061072782610708565b915061073283610708565b9250826107425761074161074d565b5b828206905092915050565b7f4e487b7100000000000000000000000000000000000000000000000000000000600052601260045260246000fd5b7f4e487b7100000000000000000000000000000000000000000000000000000000600052603260045260246000fd5b7f4e487b7100000000000000000000000000000000000000000000000000000000600052604160045260246000fd5b600080fd5b6107e881610708565b81146107f357600080fd5b5056fea2646970667358221220f77a2bb67a2b0ec048c54cf5d9f53977f96f9abd157ec2758902b9afd918a61e64736f6c63430008070033",
					"opcodes": "PUSH1 0x80 PUSH1 0x40 MSTORE CALLVALUE DUP1 ISZERO PUSH2 0x10 JUMPI PUSH1 0x0 DUP1 REVERT JUMPDEST POP CALLER PUSH1 0x1 PUSH1 0x0 PUSH2 0x100 EXP DUP2 SLOAD DUP2 PUSH20 0xFFFFFFFFFFFFFFFFFFFFFFFFFFFFFFFFFFFFFFFF MUL NOT AND SWAP1 DUP4 PUSH20 0xFFFFFFFFFFFFFFFFFFFFFFFFFFFFFFFFFFFFFFFF AND MUL OR SWAP1 SSTORE POP PUSH1 0x0 PUSH1 0x1 PUSH1 0x0 SWAP1 SLOAD SWAP1 PUSH2 0x100 EXP SWAP1 DIV PUSH20 0xFFFFFFFFFFFFFFFFFFFFFFFFFFFFFFFFFFFFFFFF AND SWAP1 DUP1 PUSH1 0x1 DUP2 SLOAD ADD DUP1 DUP3 SSTORE DUP1 SWAP2 POP POP PUSH1 0x1 SWAP1 SUB SWAP1 PUSH1 0x0 MSTORE PUSH1 0x20 PUSH1 0x0 KECCAK256 ADD PUSH1 0x0 SWAP1 SWAP2 SWAP1 SWAP2 SWAP1 SWAP2 PUSH2 0x100 EXP DUP2 SLOAD DUP2 PUSH20 0xFFFFFFFFFFFFFFFFFFFFFFFFFFFFFFFFFFFFFFFF MUL NOT AND SWAP1 DUP4 PUSH20 0xFFFFFFFFFFFFFFFFFFFFFFFFFFFFFFFFFFFFFFFF AND MUL OR SWAP1 SSTORE POP PUSH2 0x82C DUP1 PUSH2 0xE6 PUSH1 0x0 CODECOPY PUSH1 0x0 RETURN INVALID PUSH1 0x80 PUSH1 0x40 MSTORE PUSH1 0x4 CALLDATASIZE LT PUSH2 0x4E JUMPI PUSH1 0x0 CALLDATALOAD PUSH1 0xE0 SHR DUP1 PUSH4 0x12065FE0 EQ PUSH2 0x12B JUMPI DUP1 PUSH4 0x481C6A75 EQ PUSH2 0x156 JUMPI DUP1 PUSH4 0x5D495AEA EQ PUSH2 0x181 JUMPI DUP1 PUSH4 0x5EC01E4D EQ PUSH2 0x198 JUMPI DUP1 PUSH4 0xF71D96CB EQ PUSH2 0x1C3 JUMPI PUSH2 0x126 JUMP JUMPDEST CALLDATASIZE PUSH2 0x126 JUMPI PUSH7 0x11C37937E08000 CALLVALUE EQ PUSH2 0x66 JUMPI PUSH1 0x0 DUP1 REVERT JUMPDEST PUSH1 0x1 PUSH1 0x0 SWAP1 SLOAD SWAP1 PUSH2 0x100 EXP SWAP1 DIV PUSH20 0xFFFFFFFFFFFFFFFFFFFFFFFFFFFFFFFFFFFFFFFF AND PUSH20 0xFFFFFFFFFFFFFFFFFFFFFFFFFFFFFFFFFFFFFFFF AND CALLER PUSH20 0xFFFFFFFFFFFFFFFFFFFFFFFFFFFFFFFFFFFFFFFF AND EQ ISZERO PUSH2 0xC1 JUMPI PUSH1 0x0 DUP1 REVERT JUMPDEST PUSH1 0x0 CALLER SWAP1 DUP1 PUSH1 0x1 DUP2 SLOAD ADD DUP1 DUP3 SSTORE DUP1 SWAP2 POP POP PUSH1 0x1 SWAP1 SUB SWAP1 PUSH1 0x0 MSTORE PUSH1 0x20 PUSH1 0x0 KECCAK256 ADD PUSH1 0x0 SWAP1 SWAP2 SWAP1 SWAP2 SWAP1 SWAP2 PUSH2 0x100 EXP DUP2 SLOAD DUP2 PUSH20 0xFFFFFFFFFFFFFFFFFFFFFFFFFFFFFFFFFFFFFFFF MUL NOT AND SWAP1 DUP4 PUSH20 0xFFFFFFFFFFFFFFFFFFFFFFFFFFFFFFFFFFFFFFFF AND MUL OR SWAP1 SSTORE POP STOP JUMPDEST PUSH1 0x0 DUP1 REVERT JUMPDEST CALLVALUE DUP1 ISZERO PUSH2 0x137 JUMPI PUSH1 0x0 DUP1 REVERT JUMPDEST POP PUSH2 0x140 PUSH2 0x200 JUMP JUMPDEST PUSH1 0x40 MLOAD PUSH2 0x14D SWAP2 SWAP1 PUSH2 0x6A9 JUMP JUMPDEST PUSH1 0x40 MLOAD DUP1 SWAP2 SUB SWAP1 RETURN JUMPDEST CALLVALUE DUP1 ISZERO PUSH2 0x162 JUMPI PUSH1 0x0 DUP1 REVERT JUMPDEST POP PUSH2 0x16B PUSH2 0x262 JUMP JUMPDEST PUSH1 0x40 MLOAD PUSH2 0x178 SWAP2 SWAP1 PUSH2 0x673 JUMP JUMPDEST PUSH1 0x40 MLOAD DUP1 SWAP2 SUB SWAP1 RETURN JUMPDEST CALLVALUE DUP1 ISZERO PUSH2 0x18D JUMPI PUSH1 0x0 DUP1 REVERT JUMPDEST POP PUSH2 0x196 PUSH2 0x288 JUMP JUMPDEST STOP JUMPDEST CALLVALUE DUP1 ISZERO PUSH2 0x1A4 JUMPI PUSH1 0x0 DUP1 REVERT JUMPDEST POP PUSH2 0x1AD PUSH2 0x490 JUMP JUMPDEST PUSH1 0x40 MLOAD PUSH2 0x1BA SWAP2 SWAP1 PUSH2 0x6A9 JUMP JUMPDEST PUSH1 0x40 MLOAD DUP1 SWAP2 SUB SWAP1 RETURN JUMPDEST CALLVALUE DUP1 ISZERO PUSH2 0x1CF JUMPI PUSH1 0x0 DUP1 REVERT JUMPDEST POP PUSH2 0x1EA PUSH1 0x4 DUP1 CALLDATASIZE SUB DUP2 ADD SWAP1 PUSH2 0x1E5 SWAP2 SWAP1 PUSH2 0x5C5 JUMP JUMPDEST PUSH2 0x4CA JUMP JUMPDEST PUSH1 0x40 MLOAD PUSH2 0x1F7 SWAP2 SWAP1 PUSH2 0x68E JUMP JUMPDEST PUSH1 0x40 MLOAD DUP1 SWAP2 SUB SWAP1 RETURN JUMPDEST PUSH1 0x0 PUSH1 0x1 PUSH1 0x0 SWAP1 SLOAD SWAP1 PUSH2 0x100 EXP SWAP1 DIV PUSH20 0xFFFFFFFFFFFFFFFFFFFFFFFFFFFFFFFFFFFFFFFF AND PUSH20 0xFFFFFFFFFFFFFFFFFFFFFFFFFFFFFFFFFFFFFFFF AND CALLER PUSH20 0xFFFFFFFFFFFFFFFFFFFFFFFFFFFFFFFFFFFFFFFF AND EQ PUSH2 0x25C JUMPI PUSH1 0x0 DUP1 REVERT JUMPDEST SELFBALANCE SWAP1 POP SWAP1 JUMP JUMPDEST PUSH1 0x1 PUSH1 0x0 SWAP1 SLOAD SWAP1 PUSH2 0x100 EXP SWAP1 DIV PUSH20 0xFFFFFFFFFFFFFFFFFFFFFFFFFFFFFFFFFFFFFFFF AND DUP2 JUMP JUMPDEST PUSH1 0x1 PUSH1 0x0 SWAP1 SLOAD SWAP1 PUSH2 0x100 EXP SWAP1 DIV PUSH20 0xFFFFFFFFFFFFFFFFFFFFFFFFFFFFFFFFFFFFFFFF AND PUSH20 0xFFFFFFFFFFFFFFFFFFFFFFFFFFFFFFFFFFFFFFFF AND CALLER PUSH20 0xFFFFFFFFFFFFFFFFFFFFFFFFFFFFFFFFFFFFFFFF AND EQ PUSH2 0x2E2 JUMPI PUSH1 0x0 DUP1 REVERT JUMPDEST PUSH1 0x3 PUSH1 0x0 DUP1 SLOAD SWAP1 POP LT ISZERO PUSH2 0x2F5 JUMPI PUSH1 0x0 DUP1 REVERT JUMPDEST PUSH1 0x0 PUSH2 0x2FF PUSH2 0x490 JUMP JUMPDEST SWAP1 POP PUSH1 0x0 DUP1 PUSH1 0x0 DUP1 SLOAD SWAP1 POP DUP4 PUSH2 0x315 SWAP2 SWAP1 PUSH2 0x71C JUMP JUMPDEST SWAP1 POP PUSH1 0x0 DUP2 DUP2 SLOAD DUP2 LT PUSH2 0x32B JUMPI PUSH2 0x32A PUSH2 0x77C JUMP JUMPDEST JUMPDEST SWAP1 PUSH1 0x0 MSTORE PUSH1 0x20 PUSH1 0x0 KECCAK256 ADD PUSH1 0x0 SWAP1 SLOAD SWAP1 PUSH2 0x100 EXP SWAP1 DIV PUSH20 0xFFFFFFFFFFFFFFFFFFFFFFFFFFFFFFFFFFFFFFFF AND SWAP2 POP DUP2 PUSH20 0xFFFFFFFFFFFFFFFFFFFFFFFFFFFFFFFFFFFFFFFF AND PUSH2 0x8FC PUSH2 0x37A PUSH2 0x200 JUMP JUMPDEST SWAP1 DUP2 ISZERO MUL SWAP1 PUSH1 0x40 MLOAD PUSH1 0x0 PUSH1 0x40 MLOAD DUP1 DUP4 SUB DUP2 DUP6 DUP9 DUP9 CALL SWAP4 POP POP POP POP ISZERO DUP1 ISZERO PUSH2 0x3A5 JUMPI RETURNDATASIZE PUSH1 0x0 DUP1 RETURNDATACOPY RETURNDATASIZE PUSH1 0x0 REVERT JUMPDEST POP PUSH1 0x0 PUSH8 0xFFFFFFFFFFFFFFFF DUP2 GT ISZERO PUSH2 0x3C1 JUMPI PUSH2 0x3C0 PUSH2 0x7AB JUMP JUMPDEST JUMPDEST PUSH1 0x40 MLOAD SWAP1 DUP1 DUP3 MSTORE DUP1 PUSH1 0x20 MUL PUSH1 0x20 ADD DUP3 ADD PUSH1 0x40 MSTORE DUP1 ISZERO PUSH2 0x3EF JUMPI DUP2 PUSH1 0x20 ADD PUSH1 0x20 DUP3 MUL DUP1 CALLDATASIZE DUP4 CALLDATACOPY DUP1 DUP3 ADD SWAP2 POP POP SWAP1 POP JUMPDEST POP PUSH1 0x0 SWAP1 DUP1 MLOAD SWAP1 PUSH1 0x20 ADD SWAP1 PUSH2 0x405 SWAP3 SWAP2 SWAP1 PUSH2 0x509 JUMP JUMPDEST POP PUSH1 0x0 PUSH1 0x1 PUSH1 0x0 SWAP1 SLOAD SWAP1 PUSH2 0x100 EXP SWAP1 DIV PUSH20 0xFFFFFFFFFFFFFFFFFFFFFFFFFFFFFFFFFFFFFFFF AND SWAP1 DUP1 PUSH1 0x1 DUP2 SLOAD ADD DUP1 DUP3 SSTORE DUP1 SWAP2 POP POP PUSH1 0x1 SWAP1 SUB SWAP1 PUSH1 0x0 MSTORE PUSH1 0x20 PUSH1 0x0 KECCAK256 ADD PUSH1 0x0 SWAP1 SWAP2 SWAP1 SWAP2 SWAP1 SWAP2 PUSH2 0x100 EXP DUP2 SLOAD DUP2 PUSH20 0xFFFFFFFFFFFFFFFFFFFFFFFFFFFFFFFFFFFFFFFF MUL NOT AND SWAP1 DUP4 PUSH20 0xFFFFFFFFFFFFFFFFFFFFFFFFFFFFFFFFFFFFFFFF AND MUL OR SWAP1 SSTORE POP POP POP POP JUMP JUMPDEST PUSH1 0x0 DIFFICULTY TIMESTAMP PUSH1 0x0 DUP1 SLOAD SWAP1 POP PUSH1 0x40 MLOAD PUSH1 0x20 ADD PUSH2 0x4AC SWAP4 SWAP3 SWAP2 SWAP1 PUSH2 0x636 JUMP JUMPDEST PUSH1 0x40 MLOAD PUSH1 0x20 DUP2 DUP4 SUB SUB DUP2 MSTORE SWAP1 PUSH1 0x40 MSTORE DUP1 MLOAD SWAP1 PUSH1 0x20 ADD KECCAK256 PUSH1 0x0 SHR SWAP1 POP SWAP1 JUMP JUMPDEST PUSH1 0x0 DUP2 DUP2 SLOAD DUP2 LT PUSH2 0x4DA JUMPI PUSH1 0x0 DUP1 REVERT JUMPDEST SWAP1 PUSH1 0x0 MSTORE PUSH1 0x20 PUSH1 0x0 KECCAK256 ADD PUSH1 0x0 SWAP2 POP SLOAD SWAP1 PUSH2 0x100 EXP SWAP1 DIV PUSH20 0xFFFFFFFFFFFFFFFFFFFFFFFFFFFFFFFFFFFFFFFF AND DUP2 JUMP JUMPDEST DUP3 DUP1 SLOAD DUP3 DUP3 SSTORE SWAP1 PUSH1 0x0 MSTORE PUSH1 0x20 PUSH1 0x0 KECCAK256 SWAP1 DUP2 ADD SWAP3 DUP3 ISZERO PUSH2 0x582 JUMPI SWAP2 PUSH1 0x20 MUL DUP3 ADD JUMPDEST DUP3 DUP2 GT ISZERO PUSH2 0x581 JUMPI DUP3 MLOAD DUP3 PUSH1 0x0 PUSH2 0x100 EXP DUP2 SLOAD DUP2 PUSH20 0xFFFFFFFFFFFFFFFFFFFFFFFFFFFFFFFFFFFFFFFF MUL NOT AND SWAP1 DUP4 PUSH20 0xFFFFFFFFFFFFFFFFFFFFFFFFFFFFFFFFFFFFFFFF AND MUL OR SWAP1 SSTORE POP SWAP2 PUSH1 0x20 ADD SWAP2 SWAP1 PUSH1 0x1 ADD SWAP1 PUSH2 0x529 JUMP JUMPDEST JUMPDEST POP SWAP1 POP PUSH2 0x58F SWAP2 SWAP1 PUSH2 0x593 JUMP JUMPDEST POP SWAP1 JUMP JUMPDEST JUMPDEST DUP1 DUP3 GT ISZERO PUSH2 0x5AC JUMPI PUSH1 0x0 DUP2 PUSH1 0x0 SWAP1 SSTORE POP PUSH1 0x1 ADD PUSH2 0x594 JUMP JUMPDEST POP SWAP1 JUMP JUMPDEST PUSH1 0x0 DUP2 CALLDATALOAD SWAP1 POP PUSH2 0x5BF DUP2 PUSH2 0x7DF JUMP JUMPDEST SWAP3 SWAP2 POP POP JUMP JUMPDEST PUSH1 0x0 PUSH1 0x20 DUP3 DUP5 SUB SLT ISZERO PUSH2 0x5DB JUMPI PUSH2 0x5DA PUSH2 0x7DA JUMP JUMPDEST JUMPDEST PUSH1 0x0 PUSH2 0x5E9 DUP5 DUP3 DUP6 ADD PUSH2 0x5B0 JUMP JUMPDEST SWAP2 POP POP SWAP3 SWAP2 POP POP JUMP JUMPDEST PUSH2 0x5FB DUP2 PUSH2 0x6D6 JUMP JUMPDEST DUP3 MSTORE POP POP JUMP JUMPDEST PUSH2 0x60A DUP2 PUSH2 0x6C4 JUMP JUMPDEST DUP3 MSTORE POP POP JUMP JUMPDEST PUSH2 0x619 DUP2 PUSH2 0x708 JUMP JUMPDEST DUP3 MSTORE POP POP JUMP JUMPDEST PUSH2 0x630 PUSH2 0x62B DUP3 PUSH2 0x708 JUMP JUMPDEST PUSH2 0x712 JUMP JUMPDEST DUP3 MSTORE POP POP JUMP JUMPDEST PUSH1 0x0 PUSH2 0x642 DUP3 DUP7 PUSH2 0x61F JUMP JUMPDEST PUSH1 0x20 DUP3 ADD SWAP2 POP PUSH2 0x652 DUP3 DUP6 PUSH2 0x61F JUMP JUMPDEST PUSH1 0x20 DUP3 ADD SWAP2 POP PUSH2 0x662 DUP3 DUP5 PUSH2 0x61F JUMP JUMPDEST PUSH1 0x20 DUP3 ADD SWAP2 POP DUP2 SWAP1 POP SWAP5 SWAP4 POP POP POP POP JUMP JUMPDEST PUSH1 0x0 PUSH1 0x20 DUP3 ADD SWAP1 POP PUSH2 0x688 PUSH1 0x0 DUP4 ADD DUP5 PUSH2 0x601 JUMP JUMPDEST SWAP3 SWAP2 POP POP JUMP JUMPDEST PUSH1 0x0 PUSH1 0x20 DUP3 ADD SWAP1 POP PUSH2 0x6A3 PUSH1 0x0 DUP4 ADD DUP5 PUSH2 0x5F2 JUMP JUMPDEST SWAP3 SWAP2 POP POP JUMP JUMPDEST PUSH1 0x0 PUSH1 0x20 DUP3 ADD SWAP1 POP PUSH2 0x6BE PUSH1 0x0 DUP4 ADD DUP5 PUSH2 0x610 JUMP JUMPDEST SWAP3 SWAP2 POP POP JUMP JUMPDEST PUSH1 0x0 PUSH2 0x6CF DUP3 PUSH2 0x6E8 JUMP JUMPDEST SWAP1 POP SWAP2 SWAP1 POP JUMP JUMPDEST PUSH1 0x0 PUSH2 0x6E1 DUP3 PUSH2 0x6E8 JUMP JUMPDEST SWAP1 POP SWAP2 SWAP1 POP JUMP JUMPDEST PUSH1 0x0 PUSH20 0xFFFFFFFFFFFFFFFFFFFFFFFFFFFFFFFFFFFFFFFF DUP3 AND SWAP1 POP SWAP2 SWAP1 POP JUMP JUMPDEST PUSH1 0x0 DUP2 SWAP1 POP SWAP2 SWAP1 POP JUMP JUMPDEST PUSH1 0x0 DUP2 SWAP1 POP SWAP2 SWAP1 POP JUMP JUMPDEST PUSH1 0x0 PUSH2 0x727 DUP3 PUSH2 0x708 JUMP JUMPDEST SWAP2 POP PUSH2 0x732 DUP4 PUSH2 0x708 JUMP JUMPDEST SWAP3 POP DUP3 PUSH2 0x742 JUMPI PUSH2 0x741 PUSH2 0x74D JUMP JUMPDEST JUMPDEST DUP3 DUP3 MOD SWAP1 POP SWAP3 SWAP2 POP POP JUMP JUMPDEST PUSH32 0x4E487B7100000000000000000000000000000000000000000000000000000000 PUSH1 0x0 MSTORE PUSH1 0x12 PUSH1 0x4 MSTORE PUSH1 0x24 PUSH1 0x0 REVERT JUMPDEST PUSH32 0x4E487B7100000000000000000000000000000000000000000000000000000000 PUSH1 0x0 MSTORE PUSH1 0x32 PUSH1 0x4 MSTORE PUSH1 0x24 PUSH1 0x0 REVERT JUMPDEST PUSH32 0x4E487B7100000000000000000000000000000000000000000000000000000000 PUSH1 0x0 MSTORE PUSH1 0x41 PUSH1 0x4 MSTORE PUSH1 0x24 PUSH1 0x0 REVERT JUMPDEST PUSH1 0x0 DUP1 REVERT JUMPDEST PUSH2 0x7E8 DUP2 PUSH2 0x708 JUMP JUMPDEST DUP2 EQ PUSH2 0x7F3 JUMPI PUSH1 0x0 DUP1 REVERT JUMPDEST POP JUMP INVALID LOG2 PUSH5 0x6970667358 0x22 SLT KECCAK256 0xF7 PUSH27 0x2BB67A2B0EC048C54CF5D9F53977F96F9ABD157EC2758902B9AFD9 XOR 0xA6 0x1E PUSH5 0x736F6C6343 STOP ADDMOD SMOD STOP CALLER "
				},
				"gasEstimates": {
					"creation": {
						"codeDepositCost": "418400",
						"executionCost": "75436",
						"totalCost": "493836"
					},
					"external": {
						"getBalance()": "2487",
						"manager()": "2514",
						"pickWinner()": "infinite",
						"players(uint256)": "5022",
						"random()": "infinite"
					}
				},
				"methodIdentifiers": {
					"getBalance()": "12065fe0",
					"manager()": "481c6a75",
					"pickWinner()": "5d495aea",
					"players(uint256)": "f71d96cb",
					"random()": "5ec01e4d"
				}
			},
			"storageLayout": {
				"storage": [
					{
						"astId": 4,
						"contract": "contracts/lottery.sol:Lottery",
						"label": "players",
						"offset": 0,
						"slot": "0",
						"type": "t_array(t_address_payable)dyn_storage"
					},
					{
						"astId": 6,
						"contract": "contracts/lottery.sol:Lottery",
						"label": "manager",
						"offset": 0,
						"slot": "1",
						"type": "t_address"
					}
				],
				"types": {
					"t_address": {
						"encoding": "inplace",
						"label": "address",
						"numberOfBytes": "20"
					},
					"t_address_payable": {
						"encoding": "inplace",
						"label": "address payable",
						"numberOfBytes": "20"
					},
					"t_array(t_address_payable)dyn_storage": {
						"base": "t_address_payable",
						"encoding": "dynamic_array",
						"label": "address payable[]",
						"numberOfBytes": "32"
					}
				}
			},
			"userdoc": {
				"kind": "user",
				"methods": {},
				"version": 1
			}
		}
	}
}