{
	"contracts/crowdfunding.sol": {
		"CrowdFunding": {
			"abi": [
				{
					"inputs": [
						{
							"internalType": "uint256",
							"name": "_goal",
							"type": "uint256"
						},
						{
							"internalType": "uint256",
							"name": "_deadline",
							"type": "uint256"
						}
					],
					"stateMutability": "nonpayable",
					"type": "constructor"
				},
				{
					"anonymous": false,
					"inputs": [
						{
							"indexed": false,
							"internalType": "address",
							"name": "_sender",
							"type": "address"
						},
						{
							"indexed": false,
							"internalType": "uint256",
							"name": "_value",
							"type": "uint256"
						}
					],
					"name": "ContributEvent",
					"type": "event"
				},
				{
					"anonymous": false,
					"inputs": [
						{
							"indexed": false,
							"internalType": "string",
							"name": "_description",
							"type": "string"
						},
						{
							"indexed": false,
							"internalType": "address",
							"name": "_recipient",
							"type": "address"
						},
						{
							"indexed": false,
							"internalType": "uint256",
							"name": "_value",
							"type": "uint256"
						}
					],
					"name": "CreateRequestEvent",
					"type": "event"
				},
				{
					"anonymous": false,
					"inputs": [
						{
							"indexed": false,
							"internalType": "address",
							"name": "_recipient",
							"type": "address"
						},
						{
							"indexed": false,
							"internalType": "uint256",
							"name": "_value",
							"type": "uint256"
						}
					],
					"name": "MakePaymentEvent",
					"type": "event"
				},
				{
					"inputs": [],
					"name": "admin",
					"outputs": [
						{
							"internalType": "address",
							"name": "",
							"type": "address"
						}
					],
					"stateMutability": "view",
					"type": "function"
				},
				{
					"inputs": [],
					"name": "contribute",
					"outputs": [],
					"stateMutability": "payable",
					"type": "function"
				},
				{
					"inputs": [
						{
							"internalType": "address",
							"name": "",
							"type": "address"
						}
					],
					"name": "contributors",
					"outputs": [
						{
							"internalType": "uint256",
							"name": "",
							"type": "uint256"
						}
					],
					"stateMutability": "view",
					"type": "function"
				},
				{
					"inputs": [
						{
							"internalType": "string",
							"name": "_description",
							"type": "string"
						},
						{
							"internalType": "address payable",
							"name": "_recipient",
							"type": "address"
						},
						{
							"internalType": "uint256",
							"name": "_value",
							"type": "uint256"
						}
					],
					"name": "createRequest",
					"outputs": [],
					"stateMutability": "nonpayable",
					"type": "function"
				},
				{
					"inputs": [],
					"name": "deadline",
					"outputs": [
						{
							"internalType": "uint256",
							"name": "",
							"type": "uint256"
						}
					],
					"stateMutability": "view",
					"type": "function"
				},
				{
					"inputs": [],
					"name": "getBalance",
					"outputs": [
						{
							"internalType": "uint256",
							"name": "",
							"type": "uint256"
						}
					],
					"stateMutability": "view",
					"type": "function"
				},
				{
					"inputs": [],
					"name": "getRefund",
					"outputs": [],
					"stateMutability": "nonpayable",
					"type": "function"
				},
				{
					"inputs": [],
					"name": "goal",
					"outputs": [
						{
							"internalType": "uint256",
							"name": "",
							"type": "uint256"
						}
					],
					"stateMutability": "view",
					"type": "function"
				},
				{
					"inputs": [
						{
							"internalType": "uint256",
							"name": "_requestNumber",
							"type": "uint256"
						}
					],
					"name": "makePayment",
					"outputs": [],
					"stateMutability": "nonpayable",
					"type": "function"
				},
				{
					"inputs": [],
					"name": "minimumContribution",
					"outputs": [
						{
							"internalType": "uint256",
							"name": "",
							"type": "uint256"
						}
					],
					"stateMutability": "view",
					"type": "function"
				},
				{
					"inputs": [],
					"name": "numberContributors",
					"outputs": [
						{
							"internalType": "uint256",
							"name": "",
							"type": "uint256"
						}
					],
					"stateMutability": "view",
					"type": "function"
				},
				{
					"inputs": [],
					"name": "numberRequests",
					"outputs": [
						{
							"internalType": "uint256",
							"name": "",
							"type": "uint256"
						}
					],
					"stateMutability": "view",
					"type": "function"
				},
				{
					"inputs": [],
					"name": "raisedAmount",
					"outputs": [
						{
							"internalType": "uint256",
							"name": "",
							"type": "uint256"
						}
					],
					"stateMutability": "view",
					"type": "function"
				},
				{
					"inputs": [
						{
							"internalType": "uint256",
							"name": "",
							"type": "uint256"
						}
					],
					"name": "requests",
					"outputs": [
						{
							"internalType": "string",
							"name": "description",
							"type": "string"
						},
						{
							"internalType": "address payable",
							"name": "recipient",
							"type": "address"
						},
						{
							"internalType": "uint256",
							"name": "value",
							"type": "uint256"
						},
						{
							"internalType": "bool",
							"name": "completed",
							"type": "bool"
						},
						{
							"internalType": "uint256",
							"name": "numberVoters",
							"type": "uint256"
						}
					],
					"stateMutability": "view",
					"type": "function"
				},
				{
					"inputs": [
						{
							"internalType": "uint256",
							"name": "_requestNumber",
							"type": "uint256"
						}
					],
					"name": "voteRequest",
					"outputs": [],
					"stateMutability": "nonpayable",
					"type": "function"
				},
				{
					"stateMutability": "payable",
					"type": "receive"
				}
			],
			"devdoc": {
				"kind": "dev",
				"methods": {},
				"version": 1
			},
			"evm": {
				"assembly": "    /* \"contracts/crowdfunding.sol\":73:6064  contract CrowdFunding{\r... */\n  mstore(0x40, 0x80)\n    /* \"contracts/crowdfunding.sol\":1378:1653  constructor(uint _goal, uint _deadline){\r... */\n  callvalue\n  dup1\n  iszero\n  tag_1\n  jumpi\n  0x00\n  dup1\n  revert\ntag_1:\n  pop\n  mload(0x40)\n  sub(codesize, bytecodeSize)\n  dup1\n  bytecodeSize\n  dup4\n  codecopy\n  dup2\n  dup2\n  add\n  0x40\n  mstore\n  dup2\n  add\n  swap1\n  tag_2\n  swap2\n  swap1\n  tag_3\n  jump\t// in\ntag_2:\n    /* \"contracts/crowdfunding.sol\":1435:1440  _goal */\n  dup2\n    /* \"contracts/crowdfunding.sol\":1428:1432  goal */\n  0x05\n    /* \"contracts/crowdfunding.sol\":1428:1440  goal = _goal */\n  dup2\n  swap1\n  sstore\n  pop\n    /* \"contracts/crowdfunding.sol\":1502:1511  _deadline */\n  dup1\n    /* \"contracts/crowdfunding.sol\":1484:1499  block.timestamp */\n  timestamp\n    /* \"contracts/crowdfunding.sol\":1484:1511  block.timestamp + _deadline */\n  tag_6\n  swap2\n  swap1\n  tag_7\n  jump\t// in\ntag_6:\n    /* \"contracts/crowdfunding.sol\":1473:1481  deadline */\n  0x04\n    /* \"contracts/crowdfunding.sol\":1473:1511  deadline = block.timestamp + _deadline */\n  dup2\n  swap1\n  sstore\n  pop\n    /* \"contracts/crowdfunding.sol\":1576:1583  100 wei */\n  0x64\n    /* \"contracts/crowdfunding.sol\":1554:1573  minimumContribution */\n  0x03\n    /* \"contracts/crowdfunding.sol\":1554:1583  minimumContribution = 100 wei */\n  dup2\n  swap1\n  sstore\n  pop\n    /* \"contracts/crowdfunding.sol\":1622:1632  msg.sender */\n  caller\n    /* \"contracts/crowdfunding.sol\":1614:1619  admin */\n  0x01\n  0x00\n    /* \"contracts/crowdfunding.sol\":1614:1632  admin = msg.sender */\n  0x0100\n  exp\n  dup2\n  sload\n  dup2\n  0xffffffffffffffffffffffffffffffffffffffff\n  mul\n  not\n  and\n  swap1\n  dup4\n  0xffffffffffffffffffffffffffffffffffffffff\n  and\n  mul\n  or\n  swap1\n  sstore\n  pop\n    /* \"contracts/crowdfunding.sol\":1378:1653  constructor(uint _goal, uint _deadline){\r... */\n  pop\n  pop\n    /* \"contracts/crowdfunding.sol\":73:6064  contract CrowdFunding{\r... */\n  jump(tag_8)\n    /* \"#utility.yul\":7:150   */\ntag_10:\n    /* \"#utility.yul\":64:69   */\n  0x00\n    /* \"#utility.yul\":95:101   */\n  dup2\n    /* \"#utility.yul\":89:102   */\n  mload\n    /* \"#utility.yul\":80:102   */\n  swap1\n  pop\n    /* \"#utility.yul\":111:144   */\n  tag_12\n    /* \"#utility.yul\":138:143   */\n  dup2\n    /* \"#utility.yul\":111:144   */\n  tag_13\n  jump\t// in\ntag_12:\n    /* \"#utility.yul\":7:150   */\n  swap3\n  swap2\n  pop\n  pop\n  jump\t// out\n    /* \"#utility.yul\":156:663   */\ntag_3:\n    /* \"#utility.yul\":235:241   */\n  0x00\n    /* \"#utility.yul\":243:249   */\n  dup1\n    /* \"#utility.yul\":292:294   */\n  0x40\n    /* \"#utility.yul\":280:289   */\n  dup4\n    /* \"#utility.yul\":271:278   */\n  dup6\n    /* \"#utility.yul\":267:290   */\n  sub\n    /* \"#utility.yul\":263:295   */\n  slt\n    /* \"#utility.yul\":260:379   */\n  iszero\n  tag_15\n  jumpi\n    /* \"#utility.yul\":298:377   */\n  tag_16\n  tag_17\n  jump\t// in\ntag_16:\n    /* \"#utility.yul\":260:379   */\ntag_15:\n    /* \"#utility.yul\":418:419   */\n  0x00\n    /* \"#utility.yul\":443:507   */\n  tag_18\n    /* \"#utility.yul\":499:506   */\n  dup6\n    /* \"#utility.yul\":490:496   */\n  dup3\n    /* \"#utility.yul\":479:488   */\n  dup7\n    /* \"#utility.yul\":475:497   */\n  add\n    /* \"#utility.yul\":443:507   */\n  tag_10\n  jump\t// in\ntag_18:\n    /* \"#utility.yul\":433:507   */\n  swap3\n  pop\n    /* \"#utility.yul\":389:517   */\n  pop\n    /* \"#utility.yul\":556:558   */\n  0x20\n    /* \"#utility.yul\":582:646   */\n  tag_19\n    /* \"#utility.yul\":638:645   */\n  dup6\n    /* \"#utility.yul\":629:635   */\n  dup3\n    /* \"#utility.yul\":618:627   */\n  dup7\n    /* \"#utility.yul\":614:636   */\n  add\n    /* \"#utility.yul\":582:646   */\n  tag_10\n  jump\t// in\ntag_19:\n    /* \"#utility.yul\":572:646   */\n  swap2\n  pop\n    /* \"#utility.yul\":527:656   */\n  pop\n    /* \"#utility.yul\":156:663   */\n  swap3\n  pop\n  swap3\n  swap1\n  pop\n  jump\t// out\n    /* \"#utility.yul\":750:1055   */\ntag_7:\n    /* \"#utility.yul\":790:793   */\n  0x00\n    /* \"#utility.yul\":809:829   */\n  tag_23\n    /* \"#utility.yul\":827:828   */\n  dup3\n    /* \"#utility.yul\":809:829   */\n  tag_24\n  jump\t// in\ntag_23:\n    /* \"#utility.yul\":804:829   */\n  swap2\n  pop\n    /* \"#utility.yul\":843:863   */\n  tag_25\n    /* \"#utility.yul\":861:862   */\n  dup4\n    /* \"#utility.yul\":843:863   */\n  tag_24\n  jump\t// in\ntag_25:\n    /* \"#utility.yul\":838:863   */\n  swap3\n  pop\n    /* \"#utility.yul\":997:998   */\n  dup3\n    /* \"#utility.yul\":929:995   */\n  0xffffffffffffffffffffffffffffffffffffffffffffffffffffffffffffffff\n    /* \"#utility.yul\":925:999   */\n  sub\n    /* \"#utility.yul\":922:923   */\n  dup3\n    /* \"#utility.yul\":919:1000   */\n  gt\n    /* \"#utility.yul\":916:1023   */\n  iszero\n  tag_26\n  jumpi\n    /* \"#utility.yul\":1003:1021   */\n  tag_27\n  tag_28\n  jump\t// in\ntag_27:\n    /* \"#utility.yul\":916:1023   */\ntag_26:\n    /* \"#utility.yul\":1047:1048   */\n  dup3\n    /* \"#utility.yul\":1044:1045   */\n  dup3\n    /* \"#utility.yul\":1040:1049   */\n  add\n    /* \"#utility.yul\":1033:1049   */\n  swap1\n  pop\n    /* \"#utility.yul\":750:1055   */\n  swap3\n  swap2\n  pop\n  pop\n  jump\t// out\n    /* \"#utility.yul\":1061:1138   */\ntag_24:\n    /* \"#utility.yul\":1098:1105   */\n  0x00\n    /* \"#utility.yul\":1127:1132   */\n  dup2\n    /* \"#utility.yul\":1116:1132   */\n  swap1\n  pop\n    /* \"#utility.yul\":1061:1138   */\n  swap2\n  swap1\n  pop\n  jump\t// out\n    /* \"#utility.yul\":1144:1324   */\ntag_28:\n    /* \"#utility.yul\":1192:1269   */\n  0x4e487b7100000000000000000000000000000000000000000000000000000000\n    /* \"#utility.yul\":1189:1190   */\n  0x00\n    /* \"#utility.yul\":1182:1270   */\n  mstore\n    /* \"#utility.yul\":1289:1293   */\n  0x11\n    /* \"#utility.yul\":1286:1287   */\n  0x04\n    /* \"#utility.yul\":1279:1294   */\n  mstore\n    /* \"#utility.yul\":1313:1317   */\n  0x24\n    /* \"#utility.yul\":1310:1311   */\n  0x00\n    /* \"#utility.yul\":1303:1318   */\n  revert\n    /* \"#utility.yul\":1453:1570   */\ntag_17:\n    /* \"#utility.yul\":1562:1563   */\n  0x00\n    /* \"#utility.yul\":1559:1560   */\n  dup1\n    /* \"#utility.yul\":1552:1564   */\n  revert\n    /* \"#utility.yul\":1576:1698   */\ntag_13:\n    /* \"#utility.yul\":1649:1673   */\n  tag_35\n    /* \"#utility.yul\":1667:1672   */\n  dup2\n    /* \"#utility.yul\":1649:1673   */\n  tag_24\n  jump\t// in\ntag_35:\n    /* \"#utility.yul\":1642:1647   */\n  dup2\n    /* \"#utility.yul\":1639:1674   */\n  eq\n    /* \"#utility.yul\":1629:1692   */\n  tag_36\n  jumpi\n    /* \"#utility.yul\":1688:1689   */\n  0x00\n    /* \"#utility.yul\":1685:1686   */\n  dup1\n    /* \"#utility.yul\":1678:1690   */\n  revert\n    /* \"#utility.yul\":1629:1692   */\ntag_36:\n    /* \"#utility.yul\":1576:1698   */\n  pop\n  jump\t// out\n    /* \"contracts/crowdfunding.sol\":73:6064  contract CrowdFunding{\r... */\ntag_8:\n  dataSize(sub_0)\n  dup1\n  dataOffset(sub_0)\n  0x00\n  codecopy\n  0x00\n  return\nstop\n\nsub_0: assembly {\n        /* \"contracts/crowdfunding.sol\":73:6064  contract CrowdFunding{\r... */\n      mstore(0x40, 0x80)\n      jumpi(tag_1, lt(calldatasize, 0x04))\n      shr(0xe0, calldataload(0x00))\n      dup1\n      0x81d12c58\n      gt\n      tag_18\n      jumpi\n      dup1\n      0xd3a9d4ea\n      gt\n      tag_19\n      jumpi\n      dup1\n      0xd3a9d4ea\n      eq\n      tag_14\n      jumpi\n      dup1\n      0xd7bb99ba\n      eq\n      tag_15\n      jumpi\n      dup1\n      0xf3740daf\n      eq\n      tag_16\n      jumpi\n      dup1\n      0xf851a440\n      eq\n      tag_17\n      jumpi\n      jump(tag_2)\n    tag_19:\n      dup1\n      0x81d12c58\n      eq\n      tag_10\n      jumpi\n      dup1\n      0x937e09b1\n      eq\n      tag_11\n      jumpi\n      dup1\n      0xb2d5ae44\n      eq\n      tag_12\n      jumpi\n      dup1\n      0xc59ee1dc\n      eq\n      tag_13\n      jumpi\n      jump(tag_2)\n    tag_18:\n      dup1\n      0x29dcb0cf\n      gt\n      tag_20\n      jumpi\n      dup1\n      0x29dcb0cf\n      eq\n      tag_6\n      jumpi\n      dup1\n      0x40193883\n      eq\n      tag_7\n      jumpi\n      dup1\n      0x4cb6f4a5\n      eq\n      tag_8\n      jumpi\n      dup1\n      0x5114cb52\n      eq\n      tag_9\n      jumpi\n      jump(tag_2)\n    tag_20:\n      dup1\n      0x12065fe0\n      eq\n      tag_3\n      jumpi\n      dup1\n      0x1b16bb5c\n      eq\n      tag_4\n      jumpi\n      dup1\n      0x1f6d4942\n      eq\n      tag_5\n      jumpi\n      jump(tag_2)\n    tag_1:\n      jumpi(tag_2, calldatasize)\n        /* \"contracts/crowdfunding.sol\":2893:2905  contribute() */\n      tag_23\n        /* \"contracts/crowdfunding.sol\":2893:2903  contribute */\n      tag_24\n        /* \"contracts/crowdfunding.sol\":2893:2905  contribute() */\n      jump\t// in\n    tag_23:\n        /* \"contracts/crowdfunding.sol\":73:6064  contract CrowdFunding{\r... */\n      stop\n    tag_2:\n      0x00\n      dup1\n      revert\n        /* \"contracts/crowdfunding.sol\":2964:3062  function getBalance() public view returns(uint){\r... */\n    tag_3:\n      callvalue\n      dup1\n      iszero\n      tag_25\n      jumpi\n      0x00\n      dup1\n      revert\n    tag_25:\n      pop\n      tag_26\n      tag_27\n      jump\t// in\n    tag_26:\n      mload(0x40)\n      tag_28\n      swap2\n      swap1\n      tag_29\n      jump\t// in\n    tag_28:\n      mload(0x40)\n      dup1\n      swap2\n      sub\n      swap1\n      return\n        /* \"contracts/crowdfunding.sol\":3939:4671  function createRequest(string memory _description, address payable _recipient, uint _value) public onlyAdmin{\r... */\n    tag_4:\n      callvalue\n      dup1\n      iszero\n      tag_30\n      jumpi\n      0x00\n      dup1\n      revert\n    tag_30:\n      pop\n      tag_31\n      0x04\n      dup1\n      calldatasize\n      sub\n      dup2\n      add\n      swap1\n      tag_32\n      swap2\n      swap1\n      tag_33\n      jump\t// in\n    tag_32:\n      tag_34\n      jump\t// in\n    tag_31:\n      stop\n        /* \"contracts/crowdfunding.sol\":161:205  mapping(address => uint) public contributors */\n    tag_5:\n      callvalue\n      dup1\n      iszero\n      tag_35\n      jumpi\n      0x00\n      dup1\n      revert\n    tag_35:\n      pop\n      tag_36\n      0x04\n      dup1\n      calldatasize\n      sub\n      dup2\n      add\n      swap1\n      tag_37\n      swap2\n      swap1\n      tag_38\n      jump\t// in\n    tag_37:\n      tag_39\n      jump\t// in\n    tag_36:\n      mload(0x40)\n      tag_40\n      swap2\n      swap1\n      tag_29\n      jump\t// in\n    tag_40:\n      mload(0x40)\n      dup1\n      swap2\n      sub\n      swap1\n      return\n        /* \"contracts/crowdfunding.sol\":465:485  uint public deadline */\n    tag_6:\n      callvalue\n      dup1\n      iszero\n      tag_41\n      jumpi\n      0x00\n      dup1\n      revert\n    tag_41:\n      pop\n      tag_42\n      tag_43\n      jump\t// in\n    tag_42:\n      mload(0x40)\n      tag_44\n      swap2\n      swap1\n      tag_29\n      jump\t// in\n    tag_44:\n      mload(0x40)\n      dup1\n      swap2\n      sub\n      swap1\n      return\n        /* \"contracts/crowdfunding.sol\":505:521  uint public goal */\n    tag_7:\n      callvalue\n      dup1\n      iszero\n      tag_45\n      jumpi\n      0x00\n      dup1\n      revert\n    tag_45:\n      pop\n      tag_46\n      tag_47\n      jump\t// in\n    tag_46:\n      mload(0x40)\n      tag_48\n      swap2\n      swap1\n      tag_29\n      jump\t// in\n    tag_48:\n      mload(0x40)\n      dup1\n      swap2\n      sub\n      swap1\n      return\n        /* \"contracts/crowdfunding.sol\":4703:5279  function voteRequest(uint _requestNumber) public {\r... */\n    tag_8:\n      callvalue\n      dup1\n      iszero\n      tag_49\n      jumpi\n      0x00\n      dup1\n      revert\n    tag_49:\n      pop\n      tag_50\n      0x04\n      dup1\n      calldatasize\n      sub\n      dup2\n      add\n      swap1\n      tag_51\n      swap2\n      swap1\n      tag_52\n      jump\t// in\n    tag_51:\n      tag_53\n      jump\t// in\n    tag_50:\n      stop\n        /* \"contracts/crowdfunding.sol\":5344:6053  function makePayment(uint _requestNumber) public onlyAdmin{\r... */\n    tag_9:\n      callvalue\n      dup1\n      iszero\n      tag_54\n      jumpi\n      0x00\n      dup1\n      revert\n    tag_54:\n      pop\n      tag_55\n      0x04\n      dup1\n      calldatasize\n      sub\n      dup2\n      add\n      swap1\n      tag_56\n      swap2\n      swap1\n      tag_52\n      jump\t// in\n    tag_56:\n      tag_57\n      jump\t// in\n    tag_55:\n      stop\n        /* \"contracts/crowdfunding.sol\":1215:1255  mapping(uint => Request) public requests */\n    tag_10:\n      callvalue\n      dup1\n      iszero\n      tag_58\n      jumpi\n      0x00\n      dup1\n      revert\n    tag_58:\n      pop\n      tag_59\n      0x04\n      dup1\n      calldatasize\n      sub\n      dup2\n      add\n      swap1\n      tag_60\n      swap2\n      swap1\n      tag_52\n      jump\t// in\n    tag_60:\n      tag_61\n      jump\t// in\n    tag_59:\n      mload(0x40)\n      tag_62\n      swap6\n      swap5\n      swap4\n      swap3\n      swap2\n      swap1\n      tag_63\n      jump\t// in\n    tag_62:\n      mload(0x40)\n      dup1\n      swap2\n      sub\n      swap1\n      return\n        /* \"contracts/crowdfunding.sol\":399:430  uint public minimumContribution */\n    tag_11:\n      callvalue\n      dup1\n      iszero\n      tag_64\n      jumpi\n      0x00\n      dup1\n      revert\n    tag_64:\n      pop\n      tag_65\n      tag_66\n      jump\t// in\n    tag_65:\n      mload(0x40)\n      tag_67\n      swap2\n      swap1\n      tag_29\n      jump\t// in\n    tag_67:\n      mload(0x40)\n      dup1\n      swap2\n      sub\n      swap1\n      return\n        /* \"contracts/crowdfunding.sol\":3111:3707  function getRefund() public{\r... */\n    tag_12:\n      callvalue\n      dup1\n      iszero\n      tag_68\n      jumpi\n      0x00\n      dup1\n      revert\n    tag_68:\n      pop\n      tag_69\n      tag_70\n      jump\t// in\n    tag_69:\n      stop\n        /* \"contracts/crowdfunding.sol\":544:568  uint public raisedAmount */\n    tag_13:\n      callvalue\n      dup1\n      iszero\n      tag_71\n      jumpi\n      0x00\n      dup1\n      revert\n    tag_71:\n      pop\n      tag_72\n      tag_73\n      jump\t// in\n    tag_72:\n      mload(0x40)\n      tag_74\n      swap2\n      swap1\n      tag_29\n      jump\t// in\n    tag_74:\n      mload(0x40)\n      dup1\n      swap2\n      sub\n      swap1\n      return\n        /* \"contracts/crowdfunding.sol\":1341:1367  uint public numberRequests */\n    tag_14:\n      callvalue\n      dup1\n      iszero\n      tag_75\n      jumpi\n      0x00\n      dup1\n      revert\n    tag_75:\n      pop\n      tag_76\n      tag_77\n      jump\t// in\n    tag_76:\n      mload(0x40)\n      tag_78\n      swap2\n      swap1\n      tag_29\n      jump\t// in\n    tag_78:\n      mload(0x40)\n      dup1\n      swap2\n      sub\n      swap1\n      return\n        /* \"contracts/crowdfunding.sol\":1973:2736  function contribute() public payable{\r... */\n    tag_15:\n      tag_79\n      tag_24\n      jump\t// in\n    tag_79:\n      stop\n        /* \"contracts/crowdfunding.sol\":360:390  uint public numberContributors */\n    tag_16:\n      callvalue\n      dup1\n      iszero\n      tag_80\n      jumpi\n      0x00\n      dup1\n      revert\n    tag_80:\n      pop\n      tag_81\n      tag_82\n      jump\t// in\n    tag_81:\n      mload(0x40)\n      tag_83\n      swap2\n      swap1\n      tag_29\n      jump\t// in\n    tag_83:\n      mload(0x40)\n      dup1\n      swap2\n      sub\n      swap1\n      return\n        /* \"contracts/crowdfunding.sol\":275:295  address public admin */\n    tag_17:\n      callvalue\n      dup1\n      iszero\n      tag_84\n      jumpi\n      0x00\n      dup1\n      revert\n    tag_84:\n      pop\n      tag_85\n      tag_86\n      jump\t// in\n    tag_85:\n      mload(0x40)\n      tag_87\n      swap2\n      swap1\n      tag_88\n      jump\t// in\n    tag_87:\n      mload(0x40)\n      dup1\n      swap2\n      sub\n      swap1\n      return\n        /* \"contracts/crowdfunding.sol\":1973:2736  function contribute() public payable{\r... */\n    tag_24:\n        /* \"contracts/crowdfunding.sol\":2091:2099  deadline */\n      sload(0x04)\n        /* \"contracts/crowdfunding.sol\":2073:2088  block.timestamp */\n      timestamp\n        /* \"contracts/crowdfunding.sol\":2073:2099  block.timestamp < deadline */\n      lt\n        /* \"contracts/crowdfunding.sol\":2065:2124  require(block.timestamp < deadline, \"Deadline has passed.\") */\n      tag_90\n      jumpi\n      mload(0x40)\n      0x08c379a000000000000000000000000000000000000000000000000000000000\n      dup2\n      mstore\n      0x04\n      add\n      tag_91\n      swap1\n      tag_92\n      jump\t// in\n    tag_91:\n      mload(0x40)\n      dup1\n      swap2\n      sub\n      swap1\n      revert\n    tag_90:\n        /* \"contracts/crowdfunding.sol\":2221:2240  minimumContribution */\n      sload(0x03)\n        /* \"contracts/crowdfunding.sol\":2208:2217  msg.value */\n      callvalue\n        /* \"contracts/crowdfunding.sol\":2208:2240  msg.value >= minimumContribution */\n      lt\n      iszero\n        /* \"contracts/crowdfunding.sol\":2200:2274  require(msg.value >= minimumContribution, \"Minimum contribution not met.\") */\n      tag_93\n      jumpi\n      mload(0x40)\n      0x08c379a000000000000000000000000000000000000000000000000000000000\n      dup2\n      mstore\n      0x04\n      add\n      tag_94\n      swap1\n      tag_95\n      jump\t// in\n    tag_94:\n      mload(0x40)\n      dup1\n      swap2\n      sub\n      swap1\n      revert\n    tag_93:\n        /* \"contracts/crowdfunding.sol\":2414:2415  0 */\n      0x00\n        /* \"contracts/crowdfunding.sol\":2386:2398  contributors */\n      dup1\n        /* \"contracts/crowdfunding.sol\":2386:2410  contributors[msg.sender] */\n      0x00\n        /* \"contracts/crowdfunding.sol\":2399:2409  msg.sender */\n      caller\n        /* \"contracts/crowdfunding.sol\":2386:2410  contributors[msg.sender] */\n      0xffffffffffffffffffffffffffffffffffffffff\n      and\n      0xffffffffffffffffffffffffffffffffffffffff\n      and\n      dup2\n      mstore\n      0x20\n      add\n      swap1\n      dup2\n      mstore\n      0x20\n      add\n      0x00\n      keccak256\n      sload\n        /* \"contracts/crowdfunding.sol\":2386:2415  contributors[msg.sender] == 0 */\n      eq\n        /* \"contracts/crowdfunding.sol\":2382:2463  if (contributors[msg.sender] == 0){\r... */\n      iszero\n      tag_96\n      jumpi\n        /* \"contracts/crowdfunding.sol\":2431:2449  numberContributors */\n      0x02\n      0x00\n        /* \"contracts/crowdfunding.sol\":2431:2451  numberContributors++ */\n      dup2\n      sload\n      dup1\n      swap3\n      swap2\n      swap1\n      tag_97\n      swap1\n      tag_98\n      jump\t// in\n    tag_97:\n      swap2\n      swap1\n      pop\n      sstore\n      pop\n        /* \"contracts/crowdfunding.sol\":2382:2463  if (contributors[msg.sender] == 0){\r... */\n    tag_96:\n        /* \"contracts/crowdfunding.sol\":2540:2549  msg.value */\n      callvalue\n        /* \"contracts/crowdfunding.sol\":2512:2524  contributors */\n      0x00\n        /* \"contracts/crowdfunding.sol\":2512:2536  contributors[msg.sender] */\n      dup1\n        /* \"contracts/crowdfunding.sol\":2525:2535  msg.sender */\n      caller\n        /* \"contracts/crowdfunding.sol\":2512:2536  contributors[msg.sender] */\n      0xffffffffffffffffffffffffffffffffffffffff\n      and\n      0xffffffffffffffffffffffffffffffffffffffff\n      and\n      dup2\n      mstore\n      0x20\n      add\n      swap1\n      dup2\n      mstore\n      0x20\n      add\n      0x00\n      keccak256\n      0x00\n        /* \"contracts/crowdfunding.sol\":2512:2549  contributors[msg.sender] += msg.value */\n      dup3\n      dup3\n      sload\n      tag_99\n      swap2\n      swap1\n      tag_100\n      jump\t// in\n    tag_99:\n      swap3\n      pop\n      pop\n      dup2\n      swap1\n      sstore\n      pop\n        /* \"contracts/crowdfunding.sol\":2616:2625  msg.value */\n      callvalue\n        /* \"contracts/crowdfunding.sol\":2600:2612  raisedAmount */\n      0x06\n      0x00\n        /* \"contracts/crowdfunding.sol\":2600:2625  raisedAmount += msg.value */\n      dup3\n      dup3\n      sload\n      tag_101\n      swap2\n      swap1\n      tag_100\n      jump\t// in\n    tag_101:\n      swap3\n      pop\n      pop\n      dup2\n      swap1\n      sstore\n      pop\n        /* \"contracts/crowdfunding.sol\":2689:2726  ContributEvent(msg.sender, msg.value) */\n      0x44c7d71aa3a0dca1ae622fe7fa2c5d9abb4d4c6a4cfccd326791b7f7fbb88a70\n        /* \"contracts/crowdfunding.sol\":2704:2714  msg.sender */\n      caller\n        /* \"contracts/crowdfunding.sol\":2716:2725  msg.value */\n      callvalue\n        /* \"contracts/crowdfunding.sol\":2689:2726  ContributEvent(msg.sender, msg.value) */\n      mload(0x40)\n      tag_102\n      swap3\n      swap2\n      swap1\n      tag_103\n      jump\t// in\n    tag_102:\n      mload(0x40)\n      dup1\n      swap2\n      sub\n      swap1\n      log1\n        /* \"contracts/crowdfunding.sol\":1973:2736  function contribute() public payable{\r... */\n      jump\t// out\n        /* \"contracts/crowdfunding.sol\":2964:3062  function getBalance() public view returns(uint){\r... */\n    tag_27:\n        /* \"contracts/crowdfunding.sol\":3006:3010  uint */\n      0x00\n        /* \"contracts/crowdfunding.sol\":3031:3052  address(this).balance */\n      selfbalance\n        /* \"contracts/crowdfunding.sol\":3024:3052  return address(this).balance */\n      swap1\n      pop\n        /* \"contracts/crowdfunding.sol\":2964:3062  function getBalance() public view returns(uint){\r... */\n      swap1\n      jump\t// out\n        /* \"contracts/crowdfunding.sol\":3939:4671  function createRequest(string memory _description, address payable _recipient, uint _value) public onlyAdmin{\r... */\n    tag_34:\n        /* \"contracts/crowdfunding.sol\":3814:3819  admin */\n      0x01\n      0x00\n      swap1\n      sload\n      swap1\n      0x0100\n      exp\n      swap1\n      div\n      0xffffffffffffffffffffffffffffffffffffffff\n      and\n        /* \"contracts/crowdfunding.sol\":3800:3819  msg.sender == admin */\n      0xffffffffffffffffffffffffffffffffffffffff\n      and\n        /* \"contracts/crowdfunding.sol\":3800:3810  msg.sender */\n      caller\n        /* \"contracts/crowdfunding.sol\":3800:3819  msg.sender == admin */\n      0xffffffffffffffffffffffffffffffffffffffff\n      and\n      eq\n        /* \"contracts/crowdfunding.sol\":3792:3850  require(msg.sender == admin, \"Admin priveleges required.\") */\n      tag_106\n      jumpi\n      mload(0x40)\n      0x08c379a000000000000000000000000000000000000000000000000000000000\n      dup2\n      mstore\n      0x04\n      add\n      tag_107\n      swap1\n      tag_108\n      jump\t// in\n    tag_107:\n      mload(0x40)\n      dup1\n      swap2\n      sub\n      swap1\n      revert\n    tag_106:\n        /* \"contracts/crowdfunding.sol\":4152:4178  Request storage newRequest */\n      0x00\n        /* \"contracts/crowdfunding.sol\":4181:4189  requests */\n      0x07\n        /* \"contracts/crowdfunding.sol\":4181:4205  requests[numberRequests] */\n      0x00\n        /* \"contracts/crowdfunding.sol\":4190:4204  numberRequests */\n      sload(0x08)\n        /* \"contracts/crowdfunding.sol\":4181:4205  requests[numberRequests] */\n      dup2\n      mstore\n      0x20\n      add\n      swap1\n      dup2\n      mstore\n      0x20\n      add\n      0x00\n      keccak256\n        /* \"contracts/crowdfunding.sol\":4152:4205  Request storage newRequest = requests[numberRequests] */\n      swap1\n      pop\n        /* \"contracts/crowdfunding.sol\":4316:4330  numberRequests */\n      0x08\n      0x00\n        /* \"contracts/crowdfunding.sol\":4316:4332  numberRequests++ */\n      dup2\n      sload\n      dup1\n      swap3\n      swap2\n      swap1\n      tag_110\n      swap1\n      tag_98\n      jump\t// in\n    tag_110:\n      swap2\n      swap1\n      pop\n      sstore\n      pop\n        /* \"contracts/crowdfunding.sol\":4422:4434  _description */\n      dup4\n        /* \"contracts/crowdfunding.sol\":4397:4407  newRequest */\n      dup2\n        /* \"contracts/crowdfunding.sol\":4397:4419  newRequest.description */\n      0x00\n      add\n        /* \"contracts/crowdfunding.sol\":4397:4434  newRequest.description = _description */\n      swap1\n      dup1\n      mload\n      swap1\n      0x20\n      add\n      swap1\n      tag_111\n      swap3\n      swap2\n      swap1\n      tag_112\n      jump\t// in\n    tag_111:\n      pop\n        /* \"contracts/crowdfunding.sol\":4468:4478  _recipient */\n      dup3\n        /* \"contracts/crowdfunding.sol\":4445:4455  newRequest */\n      dup2\n        /* \"contracts/crowdfunding.sol\":4445:4465  newRequest.recipient */\n      0x01\n      add\n      0x00\n        /* \"contracts/crowdfunding.sol\":4445:4478  newRequest.recipient = _recipient */\n      0x0100\n      exp\n      dup2\n      sload\n      dup2\n      0xffffffffffffffffffffffffffffffffffffffff\n      mul\n      not\n      and\n      swap1\n      dup4\n      0xffffffffffffffffffffffffffffffffffffffff\n      and\n      mul\n      or\n      swap1\n      sstore\n      pop\n        /* \"contracts/crowdfunding.sol\":4508:4514  _value */\n      dup2\n        /* \"contracts/crowdfunding.sol\":4489:4499  newRequest */\n      dup2\n        /* \"contracts/crowdfunding.sol\":4489:4505  newRequest.value */\n      0x02\n      add\n        /* \"contracts/crowdfunding.sol\":4489:4514  newRequest.value = _value */\n      dup2\n      swap1\n      sstore\n      pop\n        /* \"contracts/crowdfunding.sol\":4548:4553  false */\n      0x00\n        /* \"contracts/crowdfunding.sol\":4525:4535  newRequest */\n      dup2\n        /* \"contracts/crowdfunding.sol\":4525:4545  newRequest.completed */\n      0x03\n      add\n      0x00\n        /* \"contracts/crowdfunding.sol\":4525:4553  newRequest.completed = false */\n      0x0100\n      exp\n      dup2\n      sload\n      dup2\n      0xff\n      mul\n      not\n      and\n      swap1\n      dup4\n      iszero\n      iszero\n      mul\n      or\n      swap1\n      sstore\n      pop\n        /* \"contracts/crowdfunding.sol\":4590:4591  0 */\n      0x00\n        /* \"contracts/crowdfunding.sol\":4564:4574  newRequest */\n      dup2\n        /* \"contracts/crowdfunding.sol\":4564:4587  newRequest.numberVoters */\n      0x04\n      add\n        /* \"contracts/crowdfunding.sol\":4564:4591  newRequest.numberVoters = 0 */\n      dup2\n      swap1\n      sstore\n      pop\n        /* \"contracts/crowdfunding.sol\":4609:4661  CreateRequestEvent(_description, _recipient, _value) */\n      0x5392bd80651676ccaaedec1afbe841d47e369223df0ba1586110b6426ee87a3a\n        /* \"contracts/crowdfunding.sol\":4628:4640  _description */\n      dup5\n        /* \"contracts/crowdfunding.sol\":4642:4652  _recipient */\n      dup5\n        /* \"contracts/crowdfunding.sol\":4654:4660  _value */\n      dup5\n        /* \"contracts/crowdfunding.sol\":4609:4661  CreateRequestEvent(_description, _recipient, _value) */\n      mload(0x40)\n      tag_113\n      swap4\n      swap3\n      swap2\n      swap1\n      tag_114\n      jump\t// in\n    tag_113:\n      mload(0x40)\n      dup1\n      swap2\n      sub\n      swap1\n      log1\n        /* \"contracts/crowdfunding.sol\":4047:4671  {\r... */\n      pop\n        /* \"contracts/crowdfunding.sol\":3939:4671  function createRequest(string memory _description, address payable _recipient, uint _value) public onlyAdmin{\r... */\n      pop\n      pop\n      pop\n      jump\t// out\n        /* \"contracts/crowdfunding.sol\":161:205  mapping(address => uint) public contributors */\n    tag_39:\n      mstore(0x20, 0x00)\n      dup1\n      0x00\n      mstore\n      keccak256(0x00, 0x40)\n      0x00\n      swap2\n      pop\n      swap1\n      pop\n      sload\n      dup2\n      jump\t// out\n        /* \"contracts/crowdfunding.sol\":465:485  uint public deadline */\n    tag_43:\n      sload(0x04)\n      dup2\n      jump\t// out\n        /* \"contracts/crowdfunding.sol\":505:521  uint public goal */\n    tag_47:\n      sload(0x05)\n      dup2\n      jump\t// out\n        /* \"contracts/crowdfunding.sol\":4703:5279  function voteRequest(uint _requestNumber) public {\r... */\n    tag_53:\n        /* \"contracts/crowdfunding.sol\":4838:4839  0 */\n      0x00\n        /* \"contracts/crowdfunding.sol\":4811:4823  contributors */\n      dup1\n        /* \"contracts/crowdfunding.sol\":4811:4835  contributors[msg.sender] */\n      0x00\n        /* \"contracts/crowdfunding.sol\":4824:4834  msg.sender */\n      caller\n        /* \"contracts/crowdfunding.sol\":4811:4835  contributors[msg.sender] */\n      0xffffffffffffffffffffffffffffffffffffffff\n      and\n      0xffffffffffffffffffffffffffffffffffffffff\n      and\n      dup2\n      mstore\n      0x20\n      add\n      swap1\n      dup2\n      mstore\n      0x20\n      add\n      0x00\n      keccak256\n      sload\n        /* \"contracts/crowdfunding.sol\":4811:4839  contributors[msg.sender] > 0 */\n      gt\n        /* \"contracts/crowdfunding.sol\":4803:4871  require(contributors[msg.sender] > 0, \"You must be a user to vote.\") */\n      tag_116\n      jumpi\n      mload(0x40)\n      0x08c379a000000000000000000000000000000000000000000000000000000000\n      dup2\n      mstore\n      0x04\n      add\n      tag_117\n      swap1\n      tag_118\n      jump\t// in\n    tag_117:\n      mload(0x40)\n      dup1\n      swap2\n      sub\n      swap1\n      revert\n    tag_116:\n        /* \"contracts/crowdfunding.sol\":4897:4924  Request storage thisRequest */\n      0x00\n        /* \"contracts/crowdfunding.sol\":4927:4935  requests */\n      0x07\n        /* \"contracts/crowdfunding.sol\":4927:4951  requests[_requestNumber] */\n      0x00\n        /* \"contracts/crowdfunding.sol\":4936:4950  _requestNumber */\n      dup4\n        /* \"contracts/crowdfunding.sol\":4927:4951  requests[_requestNumber] */\n      dup2\n      mstore\n      0x20\n      add\n      swap1\n      dup2\n      mstore\n      0x20\n      add\n      0x00\n      keccak256\n        /* \"contracts/crowdfunding.sol\":4897:4951  Request storage thisRequest = requests[_requestNumber] */\n      swap1\n      pop\n        /* \"contracts/crowdfunding.sol\":5057:5062  false */\n      0x00\n        /* \"contracts/crowdfunding.sol\":5023:5062  thisRequest.voters[msg.sender] == false */\n      iszero\n      iszero\n        /* \"contracts/crowdfunding.sol\":5023:5034  thisRequest */\n      dup2\n        /* \"contracts/crowdfunding.sol\":5023:5041  thisRequest.voters */\n      0x05\n      add\n        /* \"contracts/crowdfunding.sol\":5023:5053  thisRequest.voters[msg.sender] */\n      0x00\n        /* \"contracts/crowdfunding.sol\":5042:5052  msg.sender */\n      caller\n        /* \"contracts/crowdfunding.sol\":5023:5053  thisRequest.voters[msg.sender] */\n      0xffffffffffffffffffffffffffffffffffffffff\n      and\n      0xffffffffffffffffffffffffffffffffffffffff\n      and\n      dup2\n      mstore\n      0x20\n      add\n      swap1\n      dup2\n      mstore\n      0x20\n      add\n      0x00\n      keccak256\n      0x00\n      swap1\n      sload\n      swap1\n      0x0100\n      exp\n      swap1\n      div\n      0xff\n      and\n        /* \"contracts/crowdfunding.sol\":5023:5062  thisRequest.voters[msg.sender] == false */\n      iszero\n      iszero\n      eq\n        /* \"contracts/crowdfunding.sol\":5015:5090  require(thisRequest.voters[msg.sender] == false, \"You may only vote once.\") */\n      tag_119\n      jumpi\n      mload(0x40)\n      0x08c379a000000000000000000000000000000000000000000000000000000000\n      dup2\n      mstore\n      0x04\n      add\n      tag_120\n      swap1\n      tag_121\n      jump\t// in\n    tag_120:\n      mload(0x40)\n      dup1\n      swap2\n      sub\n      swap1\n      revert\n    tag_119:\n        /* \"contracts/crowdfunding.sol\":5187:5191  true */\n      0x01\n        /* \"contracts/crowdfunding.sol\":5154:5165  thisRequest */\n      dup2\n        /* \"contracts/crowdfunding.sol\":5154:5172  thisRequest.voters */\n      0x05\n      add\n        /* \"contracts/crowdfunding.sol\":5154:5184  thisRequest.voters[msg.sender] */\n      0x00\n        /* \"contracts/crowdfunding.sol\":5173:5183  msg.sender */\n      caller\n        /* \"contracts/crowdfunding.sol\":5154:5184  thisRequest.voters[msg.sender] */\n      0xffffffffffffffffffffffffffffffffffffffff\n      and\n      0xffffffffffffffffffffffffffffffffffffffff\n      and\n      dup2\n      mstore\n      0x20\n      add\n      swap1\n      dup2\n      mstore\n      0x20\n      add\n      0x00\n      keccak256\n      0x00\n        /* \"contracts/crowdfunding.sol\":5154:5191  thisRequest.voters[msg.sender] = true */\n      0x0100\n      exp\n      dup2\n      sload\n      dup2\n      0xff\n      mul\n      not\n      and\n      swap1\n      dup4\n      iszero\n      iszero\n      mul\n      or\n      swap1\n      sstore\n      pop\n        /* \"contracts/crowdfunding.sol\":5243:5254  thisRequest */\n      dup1\n        /* \"contracts/crowdfunding.sol\":5243:5267  thisRequest.numberVoters */\n      0x04\n      add\n      0x00\n        /* \"contracts/crowdfunding.sol\":5243:5269  thisRequest.numberVoters++ */\n      dup2\n      sload\n      dup1\n      swap3\n      swap2\n      swap1\n      tag_122\n      swap1\n      tag_98\n      jump\t// in\n    tag_122:\n      swap2\n      swap1\n      pop\n      sstore\n      pop\n        /* \"contracts/crowdfunding.sol\":4752:5279  {\r... */\n      pop\n        /* \"contracts/crowdfunding.sol\":4703:5279  function voteRequest(uint _requestNumber) public {\r... */\n      pop\n      jump\t// out\n        /* \"contracts/crowdfunding.sol\":5344:6053  function makePayment(uint _requestNumber) public onlyAdmin{\r... */\n    tag_57:\n        /* \"contracts/crowdfunding.sol\":3814:3819  admin */\n      0x01\n      0x00\n      swap1\n      sload\n      swap1\n      0x0100\n      exp\n      swap1\n      div\n      0xffffffffffffffffffffffffffffffffffffffff\n      and\n        /* \"contracts/crowdfunding.sol\":3800:3819  msg.sender == admin */\n      0xffffffffffffffffffffffffffffffffffffffff\n      and\n        /* \"contracts/crowdfunding.sol\":3800:3810  msg.sender */\n      caller\n        /* \"contracts/crowdfunding.sol\":3800:3819  msg.sender == admin */\n      0xffffffffffffffffffffffffffffffffffffffff\n      and\n      eq\n        /* \"contracts/crowdfunding.sol\":3792:3850  require(msg.sender == admin, \"Admin priveleges required.\") */\n      tag_124\n      jumpi\n      mload(0x40)\n      0x08c379a000000000000000000000000000000000000000000000000000000000\n      dup2\n      mstore\n      0x04\n      add\n      tag_125\n      swap1\n      tag_108\n      jump\t// in\n    tag_125:\n      mload(0x40)\n      dup1\n      swap2\n      sub\n      swap1\n      revert\n    tag_124:\n        /* \"contracts/crowdfunding.sol\":5476:5480  goal */\n      sload(0x05)\n        /* \"contracts/crowdfunding.sol\":5460:5472  raisedAmount */\n      sload(0x06)\n        /* \"contracts/crowdfunding.sol\":5460:5480  raisedAmount >= goal */\n      lt\n      iszero\n        /* \"contracts/crowdfunding.sol\":5452:5481  require(raisedAmount >= goal) */\n      tag_127\n      jumpi\n      0x00\n      dup1\n      revert\n    tag_127:\n        /* \"contracts/crowdfunding.sol\":5548:5575  Request storage thisRequest */\n      0x00\n        /* \"contracts/crowdfunding.sol\":5578:5586  requests */\n      0x07\n        /* \"contracts/crowdfunding.sol\":5578:5602  requests[_requestNumber] */\n      0x00\n        /* \"contracts/crowdfunding.sol\":5587:5601  _requestNumber */\n      dup4\n        /* \"contracts/crowdfunding.sol\":5578:5602  requests[_requestNumber] */\n      dup2\n      mstore\n      0x20\n      add\n      swap1\n      dup2\n      mstore\n      0x20\n      add\n      0x00\n      keccak256\n        /* \"contracts/crowdfunding.sol\":5548:5602  Request storage thisRequest = requests[_requestNumber] */\n      swap1\n      pop\n        /* \"contracts/crowdfunding.sol\":5705:5710  false */\n      0x00\n        /* \"contracts/crowdfunding.sol\":5680:5710  thisRequest.completed == false */\n      iszero\n      iszero\n        /* \"contracts/crowdfunding.sol\":5680:5691  thisRequest */\n      dup2\n        /* \"contracts/crowdfunding.sol\":5680:5701  thisRequest.completed */\n      0x03\n      add\n      0x00\n      swap1\n      sload\n      swap1\n      0x0100\n      exp\n      swap1\n      div\n      0xff\n      and\n        /* \"contracts/crowdfunding.sol\":5680:5710  thisRequest.completed == false */\n      iszero\n      iszero\n      eq\n        /* \"contracts/crowdfunding.sol\":5672:5746  require(thisRequest.completed == false, \"The request has been completed.\") */\n      tag_128\n      jumpi\n      mload(0x40)\n      0x08c379a000000000000000000000000000000000000000000000000000000000\n      dup2\n      mstore\n      0x04\n      add\n      tag_129\n      swap1\n      tag_130\n      jump\t// in\n    tag_129:\n      mload(0x40)\n      dup1\n      swap2\n      sub\n      swap1\n      revert\n    tag_128:\n        /* \"contracts/crowdfunding.sol\":5815:5816  2 */\n      0x02\n        /* \"contracts/crowdfunding.sol\":5794:5812  numberContributors */\n      dup1\n      sload\n        /* \"contracts/crowdfunding.sol\":5794:5816  numberContributors / 2 */\n      tag_131\n      swap2\n      swap1\n      tag_132\n      jump\t// in\n    tag_131:\n        /* \"contracts/crowdfunding.sol\":5767:5778  thisRequest */\n      dup2\n        /* \"contracts/crowdfunding.sol\":5767:5791  thisRequest.numberVoters */\n      0x04\n      add\n      sload\n        /* \"contracts/crowdfunding.sol\":5767:5816  thisRequest.numberVoters > numberContributors / 2 */\n      gt\n        /* \"contracts/crowdfunding.sol\":5759:5817  require(thisRequest.numberVoters > numberContributors / 2) */\n      tag_133\n      jumpi\n      0x00\n      dup1\n      revert\n    tag_133:\n        /* \"contracts/crowdfunding.sol\":5906:5917  thisRequest */\n      dup1\n        /* \"contracts/crowdfunding.sol\":5906:5927  thisRequest.recipient */\n      0x01\n      add\n      0x00\n      swap1\n      sload\n      swap1\n      0x0100\n      exp\n      swap1\n      div\n      0xffffffffffffffffffffffffffffffffffffffff\n      and\n        /* \"contracts/crowdfunding.sol\":5906:5936  thisRequest.recipient.transfer */\n      0xffffffffffffffffffffffffffffffffffffffff\n      and\n        /* \"contracts/crowdfunding.sol\":5906:5955  thisRequest.recipient.transfer(thisRequest.value) */\n      0x08fc\n        /* \"contracts/crowdfunding.sol\":5937:5948  thisRequest */\n      dup3\n        /* \"contracts/crowdfunding.sol\":5937:5954  thisRequest.value */\n      0x02\n      add\n      sload\n        /* \"contracts/crowdfunding.sol\":5906:5955  thisRequest.recipient.transfer(thisRequest.value) */\n      swap1\n      dup2\n      iszero\n      mul\n      swap1\n      mload(0x40)\n      0x00\n      mload(0x40)\n      dup1\n      dup4\n      sub\n      dup2\n      dup6\n      dup9\n      dup9\n      call\n      swap4\n      pop\n      pop\n      pop\n      pop\n      iszero\n      dup1\n      iszero\n      tag_135\n      jumpi\n      returndatasize\n      0x00\n      dup1\n      returndatacopy\n      revert(0x00, returndatasize)\n    tag_135:\n      pop\n        /* \"contracts/crowdfunding.sol\":6039:6043  true */\n      0x01\n        /* \"contracts/crowdfunding.sol\":6015:6026  thisRequest */\n      dup2\n        /* \"contracts/crowdfunding.sol\":6015:6036  thisRequest.completed */\n      0x03\n      add\n      0x00\n        /* \"contracts/crowdfunding.sol\":6015:6043  thisRequest.completed = true */\n      0x0100\n      exp\n      dup2\n      sload\n      dup2\n      0xff\n      mul\n      not\n      and\n      swap1\n      dup4\n      iszero\n      iszero\n      mul\n      or\n      swap1\n      sstore\n      pop\n        /* \"contracts/crowdfunding.sol\":5402:6053  {\r... */\n      pop\n        /* \"contracts/crowdfunding.sol\":5344:6053  function makePayment(uint _requestNumber) public onlyAdmin{\r... */\n      pop\n      jump\t// out\n        /* \"contracts/crowdfunding.sol\":1215:1255  mapping(uint => Request) public requests */\n    tag_61:\n      mstore(0x20, 0x07)\n      dup1\n      0x00\n      mstore\n      keccak256(0x00, 0x40)\n      0x00\n      swap2\n      pop\n      swap1\n      pop\n      dup1\n      0x00\n      add\n      dup1\n      sload\n      tag_136\n      swap1\n      tag_137\n      jump\t// in\n    tag_136:\n      dup1\n      0x1f\n      add\n      0x20\n      dup1\n      swap2\n      div\n      mul\n      0x20\n      add\n      mload(0x40)\n      swap1\n      dup2\n      add\n      0x40\n      mstore\n      dup1\n      swap3\n      swap2\n      swap1\n      dup2\n      dup2\n      mstore\n      0x20\n      add\n      dup3\n      dup1\n      sload\n      tag_138\n      swap1\n      tag_137\n      jump\t// in\n    tag_138:\n      dup1\n      iszero\n      tag_139\n      jumpi\n      dup1\n      0x1f\n      lt\n      tag_140\n      jumpi\n      0x0100\n      dup1\n      dup4\n      sload\n      div\n      mul\n      dup4\n      mstore\n      swap2\n      0x20\n      add\n      swap2\n      jump(tag_139)\n    tag_140:\n      dup3\n      add\n      swap2\n      swap1\n      0x00\n      mstore\n      keccak256(0x00, 0x20)\n      swap1\n    tag_141:\n      dup2\n      sload\n      dup2\n      mstore\n      swap1\n      0x01\n      add\n      swap1\n      0x20\n      add\n      dup1\n      dup4\n      gt\n      tag_141\n      jumpi\n      dup3\n      swap1\n      sub\n      0x1f\n      and\n      dup3\n      add\n      swap2\n    tag_139:\n      pop\n      pop\n      pop\n      pop\n      pop\n      swap1\n      dup1\n      0x01\n      add\n      0x00\n      swap1\n      sload\n      swap1\n      0x0100\n      exp\n      swap1\n      div\n      0xffffffffffffffffffffffffffffffffffffffff\n      and\n      swap1\n      dup1\n      0x02\n      add\n      sload\n      swap1\n      dup1\n      0x03\n      add\n      0x00\n      swap1\n      sload\n      swap1\n      0x0100\n      exp\n      swap1\n      div\n      0xff\n      and\n      swap1\n      dup1\n      0x04\n      add\n      sload\n      swap1\n      pop\n      dup6\n      jump\t// out\n        /* \"contracts/crowdfunding.sol\":399:430  uint public minimumContribution */\n    tag_66:\n      sload(0x03)\n      dup2\n      jump\t// out\n        /* \"contracts/crowdfunding.sol\":3111:3707  function getRefund() public{\r... */\n    tag_70:\n        /* \"contracts/crowdfunding.sol\":3233:3241  deadline */\n      sload(0x04)\n        /* \"contracts/crowdfunding.sol\":3215:3230  block.timestamp */\n      timestamp\n        /* \"contracts/crowdfunding.sol\":3215:3241  block.timestamp > deadline */\n      gt\n        /* \"contracts/crowdfunding.sol\":3215:3264  block.timestamp > deadline && raisedAmount < goal */\n      dup1\n      iszero\n      tag_143\n      jumpi\n      pop\n        /* \"contracts/crowdfunding.sol\":3260:3264  goal */\n      sload(0x05)\n        /* \"contracts/crowdfunding.sol\":3245:3257  raisedAmount */\n      sload(0x06)\n        /* \"contracts/crowdfunding.sol\":3245:3264  raisedAmount < goal */\n      lt\n        /* \"contracts/crowdfunding.sol\":3215:3264  block.timestamp > deadline && raisedAmount < goal */\n    tag_143:\n        /* \"contracts/crowdfunding.sol\":3207:3265  require(block.timestamp > deadline && raisedAmount < goal) */\n      tag_144\n      jumpi\n      0x00\n      dup1\n      revert\n    tag_144:\n        /* \"contracts/crowdfunding.sol\":3355:3356  0 */\n      0x00\n        /* \"contracts/crowdfunding.sol\":3328:3340  contributors */\n      dup1\n        /* \"contracts/crowdfunding.sol\":3328:3352  contributors[msg.sender] */\n      0x00\n        /* \"contracts/crowdfunding.sol\":3341:3351  msg.sender */\n      caller\n        /* \"contracts/crowdfunding.sol\":3328:3352  contributors[msg.sender] */\n      0xffffffffffffffffffffffffffffffffffffffff\n      and\n      0xffffffffffffffffffffffffffffffffffffffff\n      and\n      dup2\n      mstore\n      0x20\n      add\n      swap1\n      dup2\n      mstore\n      0x20\n      add\n      0x00\n      keccak256\n      sload\n        /* \"contracts/crowdfunding.sol\":3328:3356  contributors[msg.sender] > 0 */\n      gt\n        /* \"contracts/crowdfunding.sol\":3320:3357  require(contributors[msg.sender] > 0) */\n      tag_145\n      jumpi\n      0x00\n      dup1\n      revert\n    tag_145:\n        /* \"contracts/crowdfunding.sol\":3399:3424  address payable recipient */\n      0x00\n        /* \"contracts/crowdfunding.sol\":3435:3445  msg.sender */\n      caller\n        /* \"contracts/crowdfunding.sol\":3399:3446  address payable recipient = payable(msg.sender) */\n      swap1\n      pop\n        /* \"contracts/crowdfunding.sol\":3493:3503  uint value */\n      0x00\n        /* \"contracts/crowdfunding.sol\":3506:3518  contributors */\n      dup1\n        /* \"contracts/crowdfunding.sol\":3506:3530  contributors[msg.sender] */\n      0x00\n        /* \"contracts/crowdfunding.sol\":3519:3529  msg.sender */\n      caller\n        /* \"contracts/crowdfunding.sol\":3506:3530  contributors[msg.sender] */\n      0xffffffffffffffffffffffffffffffffffffffff\n      and\n      0xffffffffffffffffffffffffffffffffffffffff\n      and\n      dup2\n      mstore\n      0x20\n      add\n      swap1\n      dup2\n      mstore\n      0x20\n      add\n      0x00\n      keccak256\n      sload\n        /* \"contracts/crowdfunding.sol\":3493:3530  uint value = contributors[msg.sender] */\n      swap1\n      pop\n        /* \"contracts/crowdfunding.sol\":3589:3598  recipient */\n      dup2\n        /* \"contracts/crowdfunding.sol\":3589:3607  recipient.transfer */\n      0xffffffffffffffffffffffffffffffffffffffff\n      and\n        /* \"contracts/crowdfunding.sol\":3589:3614  recipient.transfer(value) */\n      0x08fc\n        /* \"contracts/crowdfunding.sol\":3608:3613  value */\n      dup3\n        /* \"contracts/crowdfunding.sol\":3589:3614  recipient.transfer(value) */\n      swap1\n      dup2\n      iszero\n      mul\n      swap1\n      mload(0x40)\n      0x00\n      mload(0x40)\n      dup1\n      dup4\n      sub\n      dup2\n      dup6\n      dup9\n      dup9\n      call\n      swap4\n      pop\n      pop\n      pop\n      pop\n      iszero\n      dup1\n      iszero\n      tag_147\n      jumpi\n      returndatasize\n      0x00\n      dup1\n      returndatacopy\n      revert(0x00, returndatasize)\n    tag_147:\n      pop\n        /* \"contracts/crowdfunding.sol\":3696:3697  0 */\n      0x00\n        /* \"contracts/crowdfunding.sol\":3669:3681  contributors */\n      dup1\n        /* \"contracts/crowdfunding.sol\":3669:3693  contributors[msg.sender] */\n      0x00\n        /* \"contracts/crowdfunding.sol\":3682:3692  msg.sender */\n      caller\n        /* \"contracts/crowdfunding.sol\":3669:3693  contributors[msg.sender] */\n      0xffffffffffffffffffffffffffffffffffffffff\n      and\n      0xffffffffffffffffffffffffffffffffffffffff\n      and\n      dup2\n      mstore\n      0x20\n      add\n      swap1\n      dup2\n      mstore\n      0x20\n      add\n      0x00\n      keccak256\n        /* \"contracts/crowdfunding.sol\":3669:3697  contributors[msg.sender] = 0 */\n      dup2\n      swap1\n      sstore\n      pop\n        /* \"contracts/crowdfunding.sol\":3138:3707  {\r... */\n      pop\n      pop\n        /* \"contracts/crowdfunding.sol\":3111:3707  function getRefund() public{\r... */\n      jump\t// out\n        /* \"contracts/crowdfunding.sol\":544:568  uint public raisedAmount */\n    tag_73:\n      sload(0x06)\n      dup2\n      jump\t// out\n        /* \"contracts/crowdfunding.sol\":1341:1367  uint public numberRequests */\n    tag_77:\n      sload(0x08)\n      dup2\n      jump\t// out\n        /* \"contracts/crowdfunding.sol\":360:390  uint public numberContributors */\n    tag_82:\n      sload(0x02)\n      dup2\n      jump\t// out\n        /* \"contracts/crowdfunding.sol\":275:295  address public admin */\n    tag_86:\n      0x01\n      0x00\n      swap1\n      sload\n      swap1\n      0x0100\n      exp\n      swap1\n      div\n      0xffffffffffffffffffffffffffffffffffffffff\n      and\n      dup2\n      jump\t// out\n    tag_112:\n      dup3\n      dup1\n      sload\n      tag_148\n      swap1\n      tag_137\n      jump\t// in\n    tag_148:\n      swap1\n      0x00\n      mstore\n      keccak256(0x00, 0x20)\n      swap1\n      0x1f\n      add\n      0x20\n      swap1\n      div\n      dup2\n      add\n      swap3\n      dup3\n      tag_150\n      jumpi\n      0x00\n      dup6\n      sstore\n      jump(tag_149)\n    tag_150:\n      dup3\n      0x1f\n      lt\n      tag_151\n      jumpi\n      dup1\n      mload\n      not(0xff)\n      and\n      dup4\n      dup1\n      add\n      or\n      dup6\n      sstore\n      jump(tag_149)\n    tag_151:\n      dup3\n      dup1\n      add\n      0x01\n      add\n      dup6\n      sstore\n      dup3\n      iszero\n      tag_149\n      jumpi\n      swap2\n      dup3\n      add\n    tag_152:\n      dup3\n      dup2\n      gt\n      iszero\n      tag_153\n      jumpi\n      dup3\n      mload\n      dup3\n      sstore\n      swap2\n      0x20\n      add\n      swap2\n      swap1\n      0x01\n      add\n      swap1\n      jump(tag_152)\n    tag_153:\n    tag_149:\n      pop\n      swap1\n      pop\n      tag_154\n      swap2\n      swap1\n      tag_155\n      jump\t// in\n    tag_154:\n      pop\n      swap1\n      jump\t// out\n    tag_155:\n    tag_156:\n      dup1\n      dup3\n      gt\n      iszero\n      tag_157\n      jumpi\n      0x00\n      dup2\n      0x00\n      swap1\n      sstore\n      pop\n      0x01\n      add\n      jump(tag_156)\n    tag_157:\n      pop\n      swap1\n      jump\t// out\n        /* \"#utility.yul\":7:419   */\n    tag_159:\n        /* \"#utility.yul\":85:90   */\n      0x00\n        /* \"#utility.yul\":110:176   */\n      tag_161\n        /* \"#utility.yul\":126:175   */\n      tag_162\n        /* \"#utility.yul\":168:174   */\n      dup5\n        /* \"#utility.yul\":126:175   */\n      tag_163\n      jump\t// in\n    tag_162:\n        /* \"#utility.yul\":110:176   */\n      tag_164\n      jump\t// in\n    tag_161:\n        /* \"#utility.yul\":101:176   */\n      swap1\n      pop\n        /* \"#utility.yul\":199:205   */\n      dup3\n        /* \"#utility.yul\":192:197   */\n      dup2\n        /* \"#utility.yul\":185:206   */\n      mstore\n        /* \"#utility.yul\":237:241   */\n      0x20\n        /* \"#utility.yul\":230:235   */\n      dup2\n        /* \"#utility.yul\":226:242   */\n      add\n        /* \"#utility.yul\":275:278   */\n      dup5\n        /* \"#utility.yul\":266:272   */\n      dup5\n        /* \"#utility.yul\":261:264   */\n      dup5\n        /* \"#utility.yul\":257:273   */\n      add\n        /* \"#utility.yul\":254:279   */\n      gt\n        /* \"#utility.yul\":251:363   */\n      iszero\n      tag_165\n      jumpi\n        /* \"#utility.yul\":282:361   */\n      tag_166\n      tag_167\n      jump\t// in\n    tag_166:\n        /* \"#utility.yul\":251:363   */\n    tag_165:\n        /* \"#utility.yul\":372:413   */\n      tag_168\n        /* \"#utility.yul\":406:412   */\n      dup5\n        /* \"#utility.yul\":401:404   */\n      dup3\n        /* \"#utility.yul\":396:399   */\n      dup6\n        /* \"#utility.yul\":372:413   */\n      tag_169\n      jump\t// in\n    tag_168:\n        /* \"#utility.yul\":91:419   */\n      pop\n        /* \"#utility.yul\":7:419   */\n      swap4\n      swap3\n      pop\n      pop\n      pop\n      jump\t// out\n        /* \"#utility.yul\":425:564   */\n    tag_170:\n        /* \"#utility.yul\":471:476   */\n      0x00\n        /* \"#utility.yul\":509:515   */\n      dup2\n        /* \"#utility.yul\":496:516   */\n      calldataload\n        /* \"#utility.yul\":487:516   */\n      swap1\n      pop\n        /* \"#utility.yul\":525:558   */\n      tag_172\n        /* \"#utility.yul\":552:557   */\n      dup2\n        /* \"#utility.yul\":525:558   */\n      tag_173\n      jump\t// in\n    tag_172:\n        /* \"#utility.yul\":425:564   */\n      swap3\n      swap2\n      pop\n      pop\n      jump\t// out\n        /* \"#utility.yul\":570:725   */\n    tag_174:\n        /* \"#utility.yul\":624:629   */\n      0x00\n        /* \"#utility.yul\":662:668   */\n      dup2\n        /* \"#utility.yul\":649:669   */\n      calldataload\n        /* \"#utility.yul\":640:669   */\n      swap1\n      pop\n        /* \"#utility.yul\":678:719   */\n      tag_176\n        /* \"#utility.yul\":713:718   */\n      dup2\n        /* \"#utility.yul\":678:719   */\n      tag_177\n      jump\t// in\n    tag_176:\n        /* \"#utility.yul\":570:725   */\n      swap3\n      swap2\n      pop\n      pop\n      jump\t// out\n        /* \"#utility.yul\":745:1085   */\n    tag_178:\n        /* \"#utility.yul\":801:806   */\n      0x00\n        /* \"#utility.yul\":850:853   */\n      dup3\n        /* \"#utility.yul\":843:847   */\n      0x1f\n        /* \"#utility.yul\":835:841   */\n      dup4\n        /* \"#utility.yul\":831:848   */\n      add\n        /* \"#utility.yul\":827:854   */\n      slt\n        /* \"#utility.yul\":817:939   */\n      tag_180\n      jumpi\n        /* \"#utility.yul\":858:937   */\n      tag_181\n      tag_182\n      jump\t// in\n    tag_181:\n        /* \"#utility.yul\":817:939   */\n    tag_180:\n        /* \"#utility.yul\":975:981   */\n      dup2\n        /* \"#utility.yul\":962:982   */\n      calldataload\n        /* \"#utility.yul\":1000:1079   */\n      tag_183\n        /* \"#utility.yul\":1075:1078   */\n      dup5\n        /* \"#utility.yul\":1067:1073   */\n      dup3\n        /* \"#utility.yul\":1060:1064   */\n      0x20\n        /* \"#utility.yul\":1052:1058   */\n      dup7\n        /* \"#utility.yul\":1048:1065   */\n      add\n        /* \"#utility.yul\":1000:1079   */\n      tag_159\n      jump\t// in\n    tag_183:\n        /* \"#utility.yul\":991:1079   */\n      swap2\n      pop\n        /* \"#utility.yul\":807:1085   */\n      pop\n        /* \"#utility.yul\":745:1085   */\n      swap3\n      swap2\n      pop\n      pop\n      jump\t// out\n        /* \"#utility.yul\":1091:1230   */\n    tag_184:\n        /* \"#utility.yul\":1137:1142   */\n      0x00\n        /* \"#utility.yul\":1175:1181   */\n      dup2\n        /* \"#utility.yul\":1162:1182   */\n      calldataload\n        /* \"#utility.yul\":1153:1182   */\n      swap1\n      pop\n        /* \"#utility.yul\":1191:1224   */\n      tag_186\n        /* \"#utility.yul\":1218:1223   */\n      dup2\n        /* \"#utility.yul\":1191:1224   */\n      tag_187\n      jump\t// in\n    tag_186:\n        /* \"#utility.yul\":1091:1230   */\n      swap3\n      swap2\n      pop\n      pop\n      jump\t// out\n        /* \"#utility.yul\":1236:1565   */\n    tag_38:\n        /* \"#utility.yul\":1295:1301   */\n      0x00\n        /* \"#utility.yul\":1344:1346   */\n      0x20\n        /* \"#utility.yul\":1332:1341   */\n      dup3\n        /* \"#utility.yul\":1323:1330   */\n      dup5\n        /* \"#utility.yul\":1319:1342   */\n      sub\n        /* \"#utility.yul\":1315:1347   */\n      slt\n        /* \"#utility.yul\":1312:1431   */\n      iszero\n      tag_189\n      jumpi\n        /* \"#utility.yul\":1350:1429   */\n      tag_190\n      tag_191\n      jump\t// in\n    tag_190:\n        /* \"#utility.yul\":1312:1431   */\n    tag_189:\n        /* \"#utility.yul\":1470:1471   */\n      0x00\n        /* \"#utility.yul\":1495:1548   */\n      tag_192\n        /* \"#utility.yul\":1540:1547   */\n      dup5\n        /* \"#utility.yul\":1531:1537   */\n      dup3\n        /* \"#utility.yul\":1520:1529   */\n      dup6\n        /* \"#utility.yul\":1516:1538   */\n      add\n        /* \"#utility.yul\":1495:1548   */\n      tag_170\n      jump\t// in\n    tag_192:\n        /* \"#utility.yul\":1485:1548   */\n      swap2\n      pop\n        /* \"#utility.yul\":1441:1558   */\n      pop\n        /* \"#utility.yul\":1236:1565   */\n      swap3\n      swap2\n      pop\n      pop\n      jump\t// out\n        /* \"#utility.yul\":1571:2386   */\n    tag_33:\n        /* \"#utility.yul\":1666:1672   */\n      0x00\n        /* \"#utility.yul\":1674:1680   */\n      dup1\n        /* \"#utility.yul\":1682:1688   */\n      0x00\n        /* \"#utility.yul\":1731:1733   */\n      0x60\n        /* \"#utility.yul\":1719:1728   */\n      dup5\n        /* \"#utility.yul\":1710:1717   */\n      dup7\n        /* \"#utility.yul\":1706:1729   */\n      sub\n        /* \"#utility.yul\":1702:1734   */\n      slt\n        /* \"#utility.yul\":1699:1818   */\n      iszero\n      tag_194\n      jumpi\n        /* \"#utility.yul\":1737:1816   */\n      tag_195\n      tag_191\n      jump\t// in\n    tag_195:\n        /* \"#utility.yul\":1699:1818   */\n    tag_194:\n        /* \"#utility.yul\":1885:1886   */\n      0x00\n        /* \"#utility.yul\":1874:1883   */\n      dup5\n        /* \"#utility.yul\":1870:1887   */\n      add\n        /* \"#utility.yul\":1857:1888   */\n      calldataload\n        /* \"#utility.yul\":1915:1933   */\n      0xffffffffffffffff\n        /* \"#utility.yul\":1907:1913   */\n      dup2\n        /* \"#utility.yul\":1904:1934   */\n      gt\n        /* \"#utility.yul\":1901:2018   */\n      iszero\n      tag_196\n      jumpi\n        /* \"#utility.yul\":1937:2016   */\n      tag_197\n      tag_198\n      jump\t// in\n    tag_197:\n        /* \"#utility.yul\":1901:2018   */\n    tag_196:\n        /* \"#utility.yul\":2042:2105   */\n      tag_199\n        /* \"#utility.yul\":2097:2104   */\n      dup7\n        /* \"#utility.yul\":2088:2094   */\n      dup3\n        /* \"#utility.yul\":2077:2086   */\n      dup8\n        /* \"#utility.yul\":2073:2095   */\n      add\n        /* \"#utility.yul\":2042:2105   */\n      tag_178\n      jump\t// in\n    tag_199:\n        /* \"#utility.yul\":2032:2105   */\n      swap4\n      pop\n        /* \"#utility.yul\":1828:2115   */\n      pop\n        /* \"#utility.yul\":2154:2156   */\n      0x20\n        /* \"#utility.yul\":2180:2241   */\n      tag_200\n        /* \"#utility.yul\":2233:2240   */\n      dup7\n        /* \"#utility.yul\":2224:2230   */\n      dup3\n        /* \"#utility.yul\":2213:2222   */\n      dup8\n        /* \"#utility.yul\":2209:2231   */\n      add\n        /* \"#utility.yul\":2180:2241   */\n      tag_174\n      jump\t// in\n    tag_200:\n        /* \"#utility.yul\":2170:2241   */\n      swap3\n      pop\n        /* \"#utility.yul\":2125:2251   */\n      pop\n        /* \"#utility.yul\":2290:2292   */\n      0x40\n        /* \"#utility.yul\":2316:2369   */\n      tag_201\n        /* \"#utility.yul\":2361:2368   */\n      dup7\n        /* \"#utility.yul\":2352:2358   */\n      dup3\n        /* \"#utility.yul\":2341:2350   */\n      dup8\n        /* \"#utility.yul\":2337:2359   */\n      add\n        /* \"#utility.yul\":2316:2369   */\n      tag_184\n      jump\t// in\n    tag_201:\n        /* \"#utility.yul\":2306:2369   */\n      swap2\n      pop\n        /* \"#utility.yul\":2261:2379   */\n      pop\n        /* \"#utility.yul\":1571:2386   */\n      swap3\n      pop\n      swap3\n      pop\n      swap3\n      jump\t// out\n        /* \"#utility.yul\":2392:2721   */\n    tag_52:\n        /* \"#utility.yul\":2451:2457   */\n      0x00\n        /* \"#utility.yul\":2500:2502   */\n      0x20\n        /* \"#utility.yul\":2488:2497   */\n      dup3\n        /* \"#utility.yul\":2479:2486   */\n      dup5\n        /* \"#utility.yul\":2475:2498   */\n      sub\n        /* \"#utility.yul\":2471:2503   */\n      slt\n        /* \"#utility.yul\":2468:2587   */\n      iszero\n      tag_203\n      jumpi\n        /* \"#utility.yul\":2506:2585   */\n      tag_204\n      tag_191\n      jump\t// in\n    tag_204:\n        /* \"#utility.yul\":2468:2587   */\n    tag_203:\n        /* \"#utility.yul\":2626:2627   */\n      0x00\n        /* \"#utility.yul\":2651:2704   */\n      tag_205\n        /* \"#utility.yul\":2696:2703   */\n      dup5\n        /* \"#utility.yul\":2687:2693   */\n      dup3\n        /* \"#utility.yul\":2676:2685   */\n      dup6\n        /* \"#utility.yul\":2672:2694   */\n      add\n        /* \"#utility.yul\":2651:2704   */\n      tag_184\n      jump\t// in\n    tag_205:\n        /* \"#utility.yul\":2641:2704   */\n      swap2\n      pop\n        /* \"#utility.yul\":2597:2714   */\n      pop\n        /* \"#utility.yul\":2392:2721   */\n      swap3\n      swap2\n      pop\n      pop\n      jump\t// out\n        /* \"#utility.yul\":2727:2874   */\n    tag_206:\n        /* \"#utility.yul\":2822:2867   */\n      tag_208\n        /* \"#utility.yul\":2861:2866   */\n      dup2\n        /* \"#utility.yul\":2822:2867   */\n      tag_209\n      jump\t// in\n    tag_208:\n        /* \"#utility.yul\":2817:2820   */\n      dup3\n        /* \"#utility.yul\":2810:2868   */\n      mstore\n        /* \"#utility.yul\":2727:2874   */\n      pop\n      pop\n      jump\t// out\n        /* \"#utility.yul\":2880:3022   */\n    tag_210:\n        /* \"#utility.yul\":2983:3015   */\n      tag_212\n        /* \"#utility.yul\":3009:3014   */\n      dup2\n        /* \"#utility.yul\":2983:3015   */\n      tag_213\n      jump\t// in\n    tag_212:\n        /* \"#utility.yul\":2978:2981   */\n      dup3\n        /* \"#utility.yul\":2971:3016   */\n      mstore\n        /* \"#utility.yul\":2880:3022   */\n      pop\n      pop\n      jump\t// out\n        /* \"#utility.yul\":3028:3146   */\n    tag_214:\n        /* \"#utility.yul\":3115:3139   */\n      tag_216\n        /* \"#utility.yul\":3133:3138   */\n      dup2\n        /* \"#utility.yul\":3115:3139   */\n      tag_217\n      jump\t// in\n    tag_216:\n        /* \"#utility.yul\":3110:3113   */\n      dup3\n        /* \"#utility.yul\":3103:3140   */\n      mstore\n        /* \"#utility.yul\":3028:3146   */\n      pop\n      pop\n      jump\t// out\n        /* \"#utility.yul\":3152:3261   */\n    tag_218:\n        /* \"#utility.yul\":3233:3254   */\n      tag_220\n        /* \"#utility.yul\":3248:3253   */\n      dup2\n        /* \"#utility.yul\":3233:3254   */\n      tag_221\n      jump\t// in\n    tag_220:\n        /* \"#utility.yul\":3228:3231   */\n      dup3\n        /* \"#utility.yul\":3221:3255   */\n      mstore\n        /* \"#utility.yul\":3152:3261   */\n      pop\n      pop\n      jump\t// out\n        /* \"#utility.yul\":3267:3631   */\n    tag_222:\n        /* \"#utility.yul\":3355:3358   */\n      0x00\n        /* \"#utility.yul\":3383:3422   */\n      tag_224\n        /* \"#utility.yul\":3416:3421   */\n      dup3\n        /* \"#utility.yul\":3383:3422   */\n      tag_225\n      jump\t// in\n    tag_224:\n        /* \"#utility.yul\":3438:3509   */\n      tag_226\n        /* \"#utility.yul\":3502:3508   */\n      dup2\n        /* \"#utility.yul\":3497:3500   */\n      dup6\n        /* \"#utility.yul\":3438:3509   */\n      tag_227\n      jump\t// in\n    tag_226:\n        /* \"#utility.yul\":3431:3509   */\n      swap4\n      pop\n        /* \"#utility.yul\":3518:3570   */\n      tag_228\n        /* \"#utility.yul\":3563:3569   */\n      dup2\n        /* \"#utility.yul\":3558:3561   */\n      dup6\n        /* \"#utility.yul\":3551:3555   */\n      0x20\n        /* \"#utility.yul\":3544:3549   */\n      dup7\n        /* \"#utility.yul\":3540:3556   */\n      add\n        /* \"#utility.yul\":3518:3570   */\n      tag_229\n      jump\t// in\n    tag_228:\n        /* \"#utility.yul\":3595:3624   */\n      tag_230\n        /* \"#utility.yul\":3617:3623   */\n      dup2\n        /* \"#utility.yul\":3595:3624   */\n      tag_231\n      jump\t// in\n    tag_230:\n        /* \"#utility.yul\":3590:3593   */\n      dup5\n        /* \"#utility.yul\":3586:3625   */\n      add\n        /* \"#utility.yul\":3579:3625   */\n      swap2\n      pop\n        /* \"#utility.yul\":3359:3631   */\n      pop\n        /* \"#utility.yul\":3267:3631   */\n      swap3\n      swap2\n      pop\n      pop\n      jump\t// out\n        /* \"#utility.yul\":3637:4003   */\n    tag_232:\n        /* \"#utility.yul\":3779:3782   */\n      0x00\n        /* \"#utility.yul\":3800:3867   */\n      tag_234\n        /* \"#utility.yul\":3864:3866   */\n      0x17\n        /* \"#utility.yul\":3859:3862   */\n      dup4\n        /* \"#utility.yul\":3800:3867   */\n      tag_227\n      jump\t// in\n    tag_234:\n        /* \"#utility.yul\":3793:3867   */\n      swap2\n      pop\n        /* \"#utility.yul\":3876:3969   */\n      tag_235\n        /* \"#utility.yul\":3965:3968   */\n      dup3\n        /* \"#utility.yul\":3876:3969   */\n      tag_236\n      jump\t// in\n    tag_235:\n        /* \"#utility.yul\":3994:3996   */\n      0x20\n        /* \"#utility.yul\":3989:3992   */\n      dup3\n        /* \"#utility.yul\":3985:3997   */\n      add\n        /* \"#utility.yul\":3978:3997   */\n      swap1\n      pop\n        /* \"#utility.yul\":3637:4003   */\n      swap2\n      swap1\n      pop\n      jump\t// out\n        /* \"#utility.yul\":4009:4375   */\n    tag_237:\n        /* \"#utility.yul\":4151:4154   */\n      0x00\n        /* \"#utility.yul\":4172:4239   */\n      tag_239\n        /* \"#utility.yul\":4236:4238   */\n      0x14\n        /* \"#utility.yul\":4231:4234   */\n      dup4\n        /* \"#utility.yul\":4172:4239   */\n      tag_227\n      jump\t// in\n    tag_239:\n        /* \"#utility.yul\":4165:4239   */\n      swap2\n      pop\n        /* \"#utility.yul\":4248:4341   */\n      tag_240\n        /* \"#utility.yul\":4337:4340   */\n      dup3\n        /* \"#utility.yul\":4248:4341   */\n      tag_241\n      jump\t// in\n    tag_240:\n        /* \"#utility.yul\":4366:4368   */\n      0x20\n        /* \"#utility.yul\":4361:4364   */\n      dup3\n        /* \"#utility.yul\":4357:4369   */\n      add\n        /* \"#utility.yul\":4350:4369   */\n      swap1\n      pop\n        /* \"#utility.yul\":4009:4375   */\n      swap2\n      swap1\n      pop\n      jump\t// out\n        /* \"#utility.yul\":4381:4747   */\n    tag_242:\n        /* \"#utility.yul\":4523:4526   */\n      0x00\n        /* \"#utility.yul\":4544:4611   */\n      tag_244\n        /* \"#utility.yul\":4608:4610   */\n      0x1a\n        /* \"#utility.yul\":4603:4606   */\n      dup4\n        /* \"#utility.yul\":4544:4611   */\n      tag_227\n      jump\t// in\n    tag_244:\n        /* \"#utility.yul\":4537:4611   */\n      swap2\n      pop\n        /* \"#utility.yul\":4620:4713   */\n      tag_245\n        /* \"#utility.yul\":4709:4712   */\n      dup3\n        /* \"#utility.yul\":4620:4713   */\n      tag_246\n      jump\t// in\n    tag_245:\n        /* \"#utility.yul\":4738:4740   */\n      0x20\n        /* \"#utility.yul\":4733:4736   */\n      dup3\n        /* \"#utility.yul\":4729:4741   */\n      add\n        /* \"#utility.yul\":4722:4741   */\n      swap1\n      pop\n        /* \"#utility.yul\":4381:4747   */\n      swap2\n      swap1\n      pop\n      jump\t// out\n        /* \"#utility.yul\":4753:5119   */\n    tag_247:\n        /* \"#utility.yul\":4895:4898   */\n      0x00\n        /* \"#utility.yul\":4916:4983   */\n      tag_249\n        /* \"#utility.yul\":4980:4982   */\n      0x1d\n        /* \"#utility.yul\":4975:4978   */\n      dup4\n        /* \"#utility.yul\":4916:4983   */\n      tag_227\n      jump\t// in\n    tag_249:\n        /* \"#utility.yul\":4909:4983   */\n      swap2\n      pop\n        /* \"#utility.yul\":4992:5085   */\n      tag_250\n        /* \"#utility.yul\":5081:5084   */\n      dup3\n        /* \"#utility.yul\":4992:5085   */\n      tag_251\n      jump\t// in\n    tag_250:\n        /* \"#utility.yul\":5110:5112   */\n      0x20\n        /* \"#utility.yul\":5105:5108   */\n      dup3\n        /* \"#utility.yul\":5101:5113   */\n      add\n        /* \"#utility.yul\":5094:5113   */\n      swap1\n      pop\n        /* \"#utility.yul\":4753:5119   */\n      swap2\n      swap1\n      pop\n      jump\t// out\n        /* \"#utility.yul\":5125:5491   */\n    tag_252:\n        /* \"#utility.yul\":5267:5270   */\n      0x00\n        /* \"#utility.yul\":5288:5355   */\n      tag_254\n        /* \"#utility.yul\":5352:5354   */\n      0x1f\n        /* \"#utility.yul\":5347:5350   */\n      dup4\n        /* \"#utility.yul\":5288:5355   */\n      tag_227\n      jump\t// in\n    tag_254:\n        /* \"#utility.yul\":5281:5355   */\n      swap2\n      pop\n        /* \"#utility.yul\":5364:5457   */\n      tag_255\n        /* \"#utility.yul\":5453:5456   */\n      dup3\n        /* \"#utility.yul\":5364:5457   */\n      tag_256\n      jump\t// in\n    tag_255:\n        /* \"#utility.yul\":5482:5484   */\n      0x20\n        /* \"#utility.yul\":5477:5480   */\n      dup3\n        /* \"#utility.yul\":5473:5485   */\n      add\n        /* \"#utility.yul\":5466:5485   */\n      swap1\n      pop\n        /* \"#utility.yul\":5125:5491   */\n      swap2\n      swap1\n      pop\n      jump\t// out\n        /* \"#utility.yul\":5497:5863   */\n    tag_257:\n        /* \"#utility.yul\":5639:5642   */\n      0x00\n        /* \"#utility.yul\":5660:5727   */\n      tag_259\n        /* \"#utility.yul\":5724:5726   */\n      0x1b\n        /* \"#utility.yul\":5719:5722   */\n      dup4\n        /* \"#utility.yul\":5660:5727   */\n      tag_227\n      jump\t// in\n    tag_259:\n        /* \"#utility.yul\":5653:5727   */\n      swap2\n      pop\n        /* \"#utility.yul\":5736:5829   */\n      tag_260\n        /* \"#utility.yul\":5825:5828   */\n      dup3\n        /* \"#utility.yul\":5736:5829   */\n      tag_261\n      jump\t// in\n    tag_260:\n        /* \"#utility.yul\":5854:5856   */\n      0x20\n        /* \"#utility.yul\":5849:5852   */\n      dup3\n        /* \"#utility.yul\":5845:5857   */\n      add\n        /* \"#utility.yul\":5838:5857   */\n      swap1\n      pop\n        /* \"#utility.yul\":5497:5863   */\n      swap2\n      swap1\n      pop\n      jump\t// out\n        /* \"#utility.yul\":5869:5987   */\n    tag_262:\n        /* \"#utility.yul\":5956:5980   */\n      tag_264\n        /* \"#utility.yul\":5974:5979   */\n      dup2\n        /* \"#utility.yul\":5956:5980   */\n      tag_265\n      jump\t// in\n    tag_264:\n        /* \"#utility.yul\":5951:5954   */\n      dup3\n        /* \"#utility.yul\":5944:5981   */\n      mstore\n        /* \"#utility.yul\":5869:5987   */\n      pop\n      pop\n      jump\t// out\n        /* \"#utility.yul\":5993:6215   */\n    tag_88:\n        /* \"#utility.yul\":6086:6090   */\n      0x00\n        /* \"#utility.yul\":6124:6126   */\n      0x20\n        /* \"#utility.yul\":6113:6122   */\n      dup3\n        /* \"#utility.yul\":6109:6127   */\n      add\n        /* \"#utility.yul\":6101:6127   */\n      swap1\n      pop\n        /* \"#utility.yul\":6137:6208   */\n      tag_267\n        /* \"#utility.yul\":6205:6206   */\n      0x00\n        /* \"#utility.yul\":6194:6203   */\n      dup4\n        /* \"#utility.yul\":6190:6207   */\n      add\n        /* \"#utility.yul\":6181:6187   */\n      dup5\n        /* \"#utility.yul\":6137:6208   */\n      tag_214\n      jump\t// in\n    tag_267:\n        /* \"#utility.yul\":5993:6215   */\n      swap3\n      swap2\n      pop\n      pop\n      jump\t// out\n        /* \"#utility.yul\":6221:6553   */\n    tag_103:\n        /* \"#utility.yul\":6342:6346   */\n      0x00\n        /* \"#utility.yul\":6380:6382   */\n      0x40\n        /* \"#utility.yul\":6369:6378   */\n      dup3\n        /* \"#utility.yul\":6365:6383   */\n      add\n        /* \"#utility.yul\":6357:6383   */\n      swap1\n      pop\n        /* \"#utility.yul\":6393:6464   */\n      tag_269\n        /* \"#utility.yul\":6461:6462   */\n      0x00\n        /* \"#utility.yul\":6450:6459   */\n      dup4\n        /* \"#utility.yul\":6446:6463   */\n      add\n        /* \"#utility.yul\":6437:6443   */\n      dup6\n        /* \"#utility.yul\":6393:6464   */\n      tag_214\n      jump\t// in\n    tag_269:\n        /* \"#utility.yul\":6474:6546   */\n      tag_270\n        /* \"#utility.yul\":6542:6544   */\n      0x20\n        /* \"#utility.yul\":6531:6540   */\n      dup4\n        /* \"#utility.yul\":6527:6545   */\n      add\n        /* \"#utility.yul\":6518:6524   */\n      dup5\n        /* \"#utility.yul\":6474:6546   */\n      tag_262\n      jump\t// in\n    tag_270:\n        /* \"#utility.yul\":6221:6553   */\n      swap4\n      swap3\n      pop\n      pop\n      pop\n      jump\t// out\n        /* \"#utility.yul\":6559:7108   */\n    tag_114:\n        /* \"#utility.yul\":6736:6740   */\n      0x00\n        /* \"#utility.yul\":6774:6776   */\n      0x60\n        /* \"#utility.yul\":6763:6772   */\n      dup3\n        /* \"#utility.yul\":6759:6777   */\n      add\n        /* \"#utility.yul\":6751:6777   */\n      swap1\n      pop\n        /* \"#utility.yul\":6823:6832   */\n      dup2\n        /* \"#utility.yul\":6817:6821   */\n      dup2\n        /* \"#utility.yul\":6813:6833   */\n      sub\n        /* \"#utility.yul\":6809:6810   */\n      0x00\n        /* \"#utility.yul\":6798:6807   */\n      dup4\n        /* \"#utility.yul\":6794:6811   */\n      add\n        /* \"#utility.yul\":6787:6834   */\n      mstore\n        /* \"#utility.yul\":6851:6929   */\n      tag_272\n        /* \"#utility.yul\":6924:6928   */\n      dup2\n        /* \"#utility.yul\":6915:6921   */\n      dup7\n        /* \"#utility.yul\":6851:6929   */\n      tag_222\n      jump\t// in\n    tag_272:\n        /* \"#utility.yul\":6843:6929   */\n      swap1\n      pop\n        /* \"#utility.yul\":6939:7019   */\n      tag_273\n        /* \"#utility.yul\":7015:7017   */\n      0x20\n        /* \"#utility.yul\":7004:7013   */\n      dup4\n        /* \"#utility.yul\":7000:7018   */\n      add\n        /* \"#utility.yul\":6991:6997   */\n      dup6\n        /* \"#utility.yul\":6939:7019   */\n      tag_206\n      jump\t// in\n    tag_273:\n        /* \"#utility.yul\":7029:7101   */\n      tag_274\n        /* \"#utility.yul\":7097:7099   */\n      0x40\n        /* \"#utility.yul\":7086:7095   */\n      dup4\n        /* \"#utility.yul\":7082:7100   */\n      add\n        /* \"#utility.yul\":7073:7079   */\n      dup5\n        /* \"#utility.yul\":7029:7101   */\n      tag_262\n      jump\t// in\n    tag_274:\n        /* \"#utility.yul\":6559:7108   */\n      swap5\n      swap4\n      pop\n      pop\n      pop\n      pop\n      jump\t// out\n        /* \"#utility.yul\":7114:7889   */\n    tag_63:\n        /* \"#utility.yul\":7349:7353   */\n      0x00\n        /* \"#utility.yul\":7387:7390   */\n      0xa0\n        /* \"#utility.yul\":7376:7385   */\n      dup3\n        /* \"#utility.yul\":7372:7391   */\n      add\n        /* \"#utility.yul\":7364:7391   */\n      swap1\n      pop\n        /* \"#utility.yul\":7437:7446   */\n      dup2\n        /* \"#utility.yul\":7431:7435   */\n      dup2\n        /* \"#utility.yul\":7427:7447   */\n      sub\n        /* \"#utility.yul\":7423:7424   */\n      0x00\n        /* \"#utility.yul\":7412:7421   */\n      dup4\n        /* \"#utility.yul\":7408:7425   */\n      add\n        /* \"#utility.yul\":7401:7448   */\n      mstore\n        /* \"#utility.yul\":7465:7543   */\n      tag_276\n        /* \"#utility.yul\":7538:7542   */\n      dup2\n        /* \"#utility.yul\":7529:7535   */\n      dup9\n        /* \"#utility.yul\":7465:7543   */\n      tag_222\n      jump\t// in\n    tag_276:\n        /* \"#utility.yul\":7457:7543   */\n      swap1\n      pop\n        /* \"#utility.yul\":7553:7641   */\n      tag_277\n        /* \"#utility.yul\":7637:7639   */\n      0x20\n        /* \"#utility.yul\":7626:7635   */\n      dup4\n        /* \"#utility.yul\":7622:7640   */\n      add\n        /* \"#utility.yul\":7613:7619   */\n      dup8\n        /* \"#utility.yul\":7553:7641   */\n      tag_210\n      jump\t// in\n    tag_277:\n        /* \"#utility.yul\":7651:7723   */\n      tag_278\n        /* \"#utility.yul\":7719:7721   */\n      0x40\n        /* \"#utility.yul\":7708:7717   */\n      dup4\n        /* \"#utility.yul\":7704:7722   */\n      add\n        /* \"#utility.yul\":7695:7701   */\n      dup7\n        /* \"#utility.yul\":7651:7723   */\n      tag_262\n      jump\t// in\n    tag_278:\n        /* \"#utility.yul\":7733:7799   */\n      tag_279\n        /* \"#utility.yul\":7795:7797   */\n      0x60\n        /* \"#utility.yul\":7784:7793   */\n      dup4\n        /* \"#utility.yul\":7780:7798   */\n      add\n        /* \"#utility.yul\":7771:7777   */\n      dup6\n        /* \"#utility.yul\":7733:7799   */\n      tag_218\n      jump\t// in\n    tag_279:\n        /* \"#utility.yul\":7809:7882   */\n      tag_280\n        /* \"#utility.yul\":7877:7880   */\n      0x80\n        /* \"#utility.yul\":7866:7875   */\n      dup4\n        /* \"#utility.yul\":7862:7881   */\n      add\n        /* \"#utility.yul\":7853:7859   */\n      dup5\n        /* \"#utility.yul\":7809:7882   */\n      tag_262\n      jump\t// in\n    tag_280:\n        /* \"#utility.yul\":7114:7889   */\n      swap7\n      swap6\n      pop\n      pop\n      pop\n      pop\n      pop\n      pop\n      jump\t// out\n        /* \"#utility.yul\":7895:8314   */\n    tag_121:\n        /* \"#utility.yul\":8061:8065   */\n      0x00\n        /* \"#utility.yul\":8099:8101   */\n      0x20\n        /* \"#utility.yul\":8088:8097   */\n      dup3\n        /* \"#utility.yul\":8084:8102   */\n      add\n        /* \"#utility.yul\":8076:8102   */\n      swap1\n      pop\n        /* \"#utility.yul\":8148:8157   */\n      dup2\n        /* \"#utility.yul\":8142:8146   */\n      dup2\n        /* \"#utility.yul\":8138:8158   */\n      sub\n        /* \"#utility.yul\":8134:8135   */\n      0x00\n        /* \"#utility.yul\":8123:8132   */\n      dup4\n        /* \"#utility.yul\":8119:8136   */\n      add\n        /* \"#utility.yul\":8112:8159   */\n      mstore\n        /* \"#utility.yul\":8176:8307   */\n      tag_282\n        /* \"#utility.yul\":8302:8306   */\n      dup2\n        /* \"#utility.yul\":8176:8307   */\n      tag_232\n      jump\t// in\n    tag_282:\n        /* \"#utility.yul\":8168:8307   */\n      swap1\n      pop\n        /* \"#utility.yul\":7895:8314   */\n      swap2\n      swap1\n      pop\n      jump\t// out\n        /* \"#utility.yul\":8320:8739   */\n    tag_92:\n        /* \"#utility.yul\":8486:8490   */\n      0x00\n        /* \"#utility.yul\":8524:8526   */\n      0x20\n        /* \"#utility.yul\":8513:8522   */\n      dup3\n        /* \"#utility.yul\":8509:8527   */\n      add\n        /* \"#utility.yul\":8501:8527   */\n      swap1\n      pop\n        /* \"#utility.yul\":8573:8582   */\n      dup2\n        /* \"#utility.yul\":8567:8571   */\n      dup2\n        /* \"#utility.yul\":8563:8583   */\n      sub\n        /* \"#utility.yul\":8559:8560   */\n      0x00\n        /* \"#utility.yul\":8548:8557   */\n      dup4\n        /* \"#utility.yul\":8544:8561   */\n      add\n        /* \"#utility.yul\":8537:8584   */\n      mstore\n        /* \"#utility.yul\":8601:8732   */\n      tag_284\n        /* \"#utility.yul\":8727:8731   */\n      dup2\n        /* \"#utility.yul\":8601:8732   */\n      tag_237\n      jump\t// in\n    tag_284:\n        /* \"#utility.yul\":8593:8732   */\n      swap1\n      pop\n        /* \"#utility.yul\":8320:8739   */\n      swap2\n      swap1\n      pop\n      jump\t// out\n        /* \"#utility.yul\":8745:9164   */\n    tag_108:\n        /* \"#utility.yul\":8911:8915   */\n      0x00\n        /* \"#utility.yul\":8949:8951   */\n      0x20\n        /* \"#utility.yul\":8938:8947   */\n      dup3\n        /* \"#utility.yul\":8934:8952   */\n      add\n        /* \"#utility.yul\":8926:8952   */\n      swap1\n      pop\n        /* \"#utility.yul\":8998:9007   */\n      dup2\n        /* \"#utility.yul\":8992:8996   */\n      dup2\n        /* \"#utility.yul\":8988:9008   */\n      sub\n        /* \"#utility.yul\":8984:8985   */\n      0x00\n        /* \"#utility.yul\":8973:8982   */\n      dup4\n        /* \"#utility.yul\":8969:8986   */\n      add\n        /* \"#utility.yul\":8962:9009   */\n      mstore\n        /* \"#utility.yul\":9026:9157   */\n      tag_286\n        /* \"#utility.yul\":9152:9156   */\n      dup2\n        /* \"#utility.yul\":9026:9157   */\n      tag_242\n      jump\t// in\n    tag_286:\n        /* \"#utility.yul\":9018:9157   */\n      swap1\n      pop\n        /* \"#utility.yul\":8745:9164   */\n      swap2\n      swap1\n      pop\n      jump\t// out\n        /* \"#utility.yul\":9170:9589   */\n    tag_95:\n        /* \"#utility.yul\":9336:9340   */\n      0x00\n        /* \"#utility.yul\":9374:9376   */\n      0x20\n        /* \"#utility.yul\":9363:9372   */\n      dup3\n        /* \"#utility.yul\":9359:9377   */\n      add\n        /* \"#utility.yul\":9351:9377   */\n      swap1\n      pop\n        /* \"#utility.yul\":9423:9432   */\n      dup2\n        /* \"#utility.yul\":9417:9421   */\n      dup2\n        /* \"#utility.yul\":9413:9433   */\n      sub\n        /* \"#utility.yul\":9409:9410   */\n      0x00\n        /* \"#utility.yul\":9398:9407   */\n      dup4\n        /* \"#utility.yul\":9394:9411   */\n      add\n        /* \"#utility.yul\":9387:9434   */\n      mstore\n        /* \"#utility.yul\":9451:9582   */\n      tag_288\n        /* \"#utility.yul\":9577:9581   */\n      dup2\n        /* \"#utility.yul\":9451:9582   */\n      tag_247\n      jump\t// in\n    tag_288:\n        /* \"#utility.yul\":9443:9582   */\n      swap1\n      pop\n        /* \"#utility.yul\":9170:9589   */\n      swap2\n      swap1\n      pop\n      jump\t// out\n        /* \"#utility.yul\":9595:10014   */\n    tag_130:\n        /* \"#utility.yul\":9761:9765   */\n      0x00\n        /* \"#utility.yul\":9799:9801   */\n      0x20\n        /* \"#utility.yul\":9788:9797   */\n      dup3\n        /* \"#utility.yul\":9784:9802   */\n      add\n        /* \"#utility.yul\":9776:9802   */\n      swap1\n      pop\n        /* \"#utility.yul\":9848:9857   */\n      dup2\n        /* \"#utility.yul\":9842:9846   */\n      dup2\n        /* \"#utility.yul\":9838:9858   */\n      sub\n        /* \"#utility.yul\":9834:9835   */\n      0x00\n        /* \"#utility.yul\":9823:9832   */\n      dup4\n        /* \"#utility.yul\":9819:9836   */\n      add\n        /* \"#utility.yul\":9812:9859   */\n      mstore\n        /* \"#utility.yul\":9876:10007   */\n      tag_290\n        /* \"#utility.yul\":10002:10006   */\n      dup2\n        /* \"#utility.yul\":9876:10007   */\n      tag_252\n      jump\t// in\n    tag_290:\n        /* \"#utility.yul\":9868:10007   */\n      swap1\n      pop\n        /* \"#utility.yul\":9595:10014   */\n      swap2\n      swap1\n      pop\n      jump\t// out\n        /* \"#utility.yul\":10020:10439   */\n    tag_118:\n        /* \"#utility.yul\":10186:10190   */\n      0x00\n        /* \"#utility.yul\":10224:10226   */\n      0x20\n        /* \"#utility.yul\":10213:10222   */\n      dup3\n        /* \"#utility.yul\":10209:10227   */\n      add\n        /* \"#utility.yul\":10201:10227   */\n      swap1\n      pop\n        /* \"#utility.yul\":10273:10282   */\n      dup2\n        /* \"#utility.yul\":10267:10271   */\n      dup2\n        /* \"#utility.yul\":10263:10283   */\n      sub\n        /* \"#utility.yul\":10259:10260   */\n      0x00\n        /* \"#utility.yul\":10248:10257   */\n      dup4\n        /* \"#utility.yul\":10244:10261   */\n      add\n        /* \"#utility.yul\":10237:10284   */\n      mstore\n        /* \"#utility.yul\":10301:10432   */\n      tag_292\n        /* \"#utility.yul\":10427:10431   */\n      dup2\n        /* \"#utility.yul\":10301:10432   */\n      tag_257\n      jump\t// in\n    tag_292:\n        /* \"#utility.yul\":10293:10432   */\n      swap1\n      pop\n        /* \"#utility.yul\":10020:10439   */\n      swap2\n      swap1\n      pop\n      jump\t// out\n        /* \"#utility.yul\":10445:10667   */\n    tag_29:\n        /* \"#utility.yul\":10538:10542   */\n      0x00\n        /* \"#utility.yul\":10576:10578   */\n      0x20\n        /* \"#utility.yul\":10565:10574   */\n      dup3\n        /* \"#utility.yul\":10561:10579   */\n      add\n        /* \"#utility.yul\":10553:10579   */\n      swap1\n      pop\n        /* \"#utility.yul\":10589:10660   */\n      tag_294\n        /* \"#utility.yul\":10657:10658   */\n      0x00\n        /* \"#utility.yul\":10646:10655   */\n      dup4\n        /* \"#utility.yul\":10642:10659   */\n      add\n        /* \"#utility.yul\":10633:10639   */\n      dup5\n        /* \"#utility.yul\":10589:10660   */\n      tag_262\n      jump\t// in\n    tag_294:\n        /* \"#utility.yul\":10445:10667   */\n      swap3\n      swap2\n      pop\n      pop\n      jump\t// out\n        /* \"#utility.yul\":10673:10802   */\n    tag_164:\n        /* \"#utility.yul\":10707:10713   */\n      0x00\n        /* \"#utility.yul\":10734:10754   */\n      tag_296\n      tag_297\n      jump\t// in\n    tag_296:\n        /* \"#utility.yul\":10724:10754   */\n      swap1\n      pop\n        /* \"#utility.yul\":10763:10796   */\n      tag_298\n        /* \"#utility.yul\":10791:10795   */\n      dup3\n        /* \"#utility.yul\":10783:10789   */\n      dup3\n        /* \"#utility.yul\":10763:10796   */\n      tag_299\n      jump\t// in\n    tag_298:\n        /* \"#utility.yul\":10673:10802   */\n      swap2\n      swap1\n      pop\n      jump\t// out\n        /* \"#utility.yul\":10808:10883   */\n    tag_297:\n        /* \"#utility.yul\":10841:10847   */\n      0x00\n        /* \"#utility.yul\":10874:10876   */\n      0x40\n        /* \"#utility.yul\":10868:10877   */\n      mload\n        /* \"#utility.yul\":10858:10877   */\n      swap1\n      pop\n        /* \"#utility.yul\":10808:10883   */\n      swap1\n      jump\t// out\n        /* \"#utility.yul\":10889:11197   */\n    tag_163:\n        /* \"#utility.yul\":10951:10955   */\n      0x00\n        /* \"#utility.yul\":11041:11059   */\n      0xffffffffffffffff\n        /* \"#utility.yul\":11033:11039   */\n      dup3\n        /* \"#utility.yul\":11030:11060   */\n      gt\n        /* \"#utility.yul\":11027:11083   */\n      iszero\n      tag_302\n      jumpi\n        /* \"#utility.yul\":11063:11081   */\n      tag_303\n      tag_304\n      jump\t// in\n    tag_303:\n        /* \"#utility.yul\":11027:11083   */\n    tag_302:\n        /* \"#utility.yul\":11101:11130   */\n      tag_305\n        /* \"#utility.yul\":11123:11129   */\n      dup3\n        /* \"#utility.yul\":11101:11130   */\n      tag_231\n      jump\t// in\n    tag_305:\n        /* \"#utility.yul\":11093:11130   */\n      swap1\n      pop\n        /* \"#utility.yul\":11185:11189   */\n      0x20\n        /* \"#utility.yul\":11179:11183   */\n      dup2\n        /* \"#utility.yul\":11175:11190   */\n      add\n        /* \"#utility.yul\":11167:11190   */\n      swap1\n      pop\n        /* \"#utility.yul\":10889:11197   */\n      swap2\n      swap1\n      pop\n      jump\t// out\n        /* \"#utility.yul\":11203:11302   */\n    tag_225:\n        /* \"#utility.yul\":11255:11261   */\n      0x00\n        /* \"#utility.yul\":11289:11294   */\n      dup2\n        /* \"#utility.yul\":11283:11295   */\n      mload\n        /* \"#utility.yul\":11273:11295   */\n      swap1\n      pop\n        /* \"#utility.yul\":11203:11302   */\n      swap2\n      swap1\n      pop\n      jump\t// out\n        /* \"#utility.yul\":11308:11477   */\n    tag_227:\n        /* \"#utility.yul\":11392:11403   */\n      0x00\n        /* \"#utility.yul\":11426:11432   */\n      dup3\n        /* \"#utility.yul\":11421:11424   */\n      dup3\n        /* \"#utility.yul\":11414:11433   */\n      mstore\n        /* \"#utility.yul\":11466:11470   */\n      0x20\n        /* \"#utility.yul\":11461:11464   */\n      dup3\n        /* \"#utility.yul\":11457:11471   */\n      add\n        /* \"#utility.yul\":11442:11471   */\n      swap1\n      pop\n        /* \"#utility.yul\":11308:11477   */\n      swap3\n      swap2\n      pop\n      pop\n      jump\t// out\n        /* \"#utility.yul\":11483:11788   */\n    tag_100:\n        /* \"#utility.yul\":11523:11526   */\n      0x00\n        /* \"#utility.yul\":11542:11562   */\n      tag_309\n        /* \"#utility.yul\":11560:11561   */\n      dup3\n        /* \"#utility.yul\":11542:11562   */\n      tag_265\n      jump\t// in\n    tag_309:\n        /* \"#utility.yul\":11537:11562   */\n      swap2\n      pop\n        /* \"#utility.yul\":11576:11596   */\n      tag_310\n        /* \"#utility.yul\":11594:11595   */\n      dup4\n        /* \"#utility.yul\":11576:11596   */\n      tag_265\n      jump\t// in\n    tag_310:\n        /* \"#utility.yul\":11571:11596   */\n      swap3\n      pop\n        /* \"#utility.yul\":11730:11731   */\n      dup3\n        /* \"#utility.yul\":11662:11728   */\n      0xffffffffffffffffffffffffffffffffffffffffffffffffffffffffffffffff\n        /* \"#utility.yul\":11658:11732   */\n      sub\n        /* \"#utility.yul\":11655:11656   */\n      dup3\n        /* \"#utility.yul\":11652:11733   */\n      gt\n        /* \"#utility.yul\":11649:11756   */\n      iszero\n      tag_311\n      jumpi\n        /* \"#utility.yul\":11736:11754   */\n      tag_312\n      tag_313\n      jump\t// in\n    tag_312:\n        /* \"#utility.yul\":11649:11756   */\n    tag_311:\n        /* \"#utility.yul\":11780:11781   */\n      dup3\n        /* \"#utility.yul\":11777:11778   */\n      dup3\n        /* \"#utility.yul\":11773:11782   */\n      add\n        /* \"#utility.yul\":11766:11782   */\n      swap1\n      pop\n        /* \"#utility.yul\":11483:11788   */\n      swap3\n      swap2\n      pop\n      pop\n      jump\t// out\n        /* \"#utility.yul\":11794:11979   */\n    tag_132:\n        /* \"#utility.yul\":11834:11835   */\n      0x00\n        /* \"#utility.yul\":11851:11871   */\n      tag_315\n        /* \"#utility.yul\":11869:11870   */\n      dup3\n        /* \"#utility.yul\":11851:11871   */\n      tag_265\n      jump\t// in\n    tag_315:\n        /* \"#utility.yul\":11846:11871   */\n      swap2\n      pop\n        /* \"#utility.yul\":11885:11905   */\n      tag_316\n        /* \"#utility.yul\":11903:11904   */\n      dup4\n        /* \"#utility.yul\":11885:11905   */\n      tag_265\n      jump\t// in\n    tag_316:\n        /* \"#utility.yul\":11880:11905   */\n      swap3\n      pop\n        /* \"#utility.yul\":11924:11925   */\n      dup3\n        /* \"#utility.yul\":11914:11949   */\n      tag_317\n      jumpi\n        /* \"#utility.yul\":11929:11947   */\n      tag_318\n      tag_319\n      jump\t// in\n    tag_318:\n        /* \"#utility.yul\":11914:11949   */\n    tag_317:\n        /* \"#utility.yul\":11971:11972   */\n      dup3\n        /* \"#utility.yul\":11968:11969   */\n      dup3\n        /* \"#utility.yul\":11964:11973   */\n      div\n        /* \"#utility.yul\":11959:11973   */\n      swap1\n      pop\n        /* \"#utility.yul\":11794:11979   */\n      swap3\n      swap2\n      pop\n      pop\n      jump\t// out\n        /* \"#utility.yul\":11985:12081   */\n    tag_217:\n        /* \"#utility.yul\":12022:12029   */\n      0x00\n        /* \"#utility.yul\":12051:12075   */\n      tag_321\n        /* \"#utility.yul\":12069:12074   */\n      dup3\n        /* \"#utility.yul\":12051:12075   */\n      tag_322\n      jump\t// in\n    tag_321:\n        /* \"#utility.yul\":12040:12075   */\n      swap1\n      pop\n        /* \"#utility.yul\":11985:12081   */\n      swap2\n      swap1\n      pop\n      jump\t// out\n        /* \"#utility.yul\":12087:12191   */\n    tag_213:\n        /* \"#utility.yul\":12132:12139   */\n      0x00\n        /* \"#utility.yul\":12161:12185   */\n      tag_324\n        /* \"#utility.yul\":12179:12184   */\n      dup3\n        /* \"#utility.yul\":12161:12185   */\n      tag_322\n      jump\t// in\n    tag_324:\n        /* \"#utility.yul\":12150:12185   */\n      swap1\n      pop\n        /* \"#utility.yul\":12087:12191   */\n      swap2\n      swap1\n      pop\n      jump\t// out\n        /* \"#utility.yul\":12197:12287   */\n    tag_221:\n        /* \"#utility.yul\":12231:12238   */\n      0x00\n        /* \"#utility.yul\":12274:12279   */\n      dup2\n        /* \"#utility.yul\":12267:12280   */\n      iszero\n        /* \"#utility.yul\":12260:12281   */\n      iszero\n        /* \"#utility.yul\":12249:12281   */\n      swap1\n      pop\n        /* \"#utility.yul\":12197:12287   */\n      swap2\n      swap1\n      pop\n      jump\t// out\n        /* \"#utility.yul\":12293:12419   */\n    tag_322:\n        /* \"#utility.yul\":12330:12337   */\n      0x00\n        /* \"#utility.yul\":12370:12412   */\n      0xffffffffffffffffffffffffffffffffffffffff\n        /* \"#utility.yul\":12363:12368   */\n      dup3\n        /* \"#utility.yul\":12359:12413   */\n      and\n        /* \"#utility.yul\":12348:12413   */\n      swap1\n      pop\n        /* \"#utility.yul\":12293:12419   */\n      swap2\n      swap1\n      pop\n      jump\t// out\n        /* \"#utility.yul\":12425:12502   */\n    tag_265:\n        /* \"#utility.yul\":12462:12469   */\n      0x00\n        /* \"#utility.yul\":12491:12496   */\n      dup2\n        /* \"#utility.yul\":12480:12496   */\n      swap1\n      pop\n        /* \"#utility.yul\":12425:12502   */\n      swap2\n      swap1\n      pop\n      jump\t// out\n        /* \"#utility.yul\":12508:12642   */\n    tag_209:\n        /* \"#utility.yul\":12566:12575   */\n      0x00\n        /* \"#utility.yul\":12599:12636   */\n      tag_329\n        /* \"#utility.yul\":12630:12635   */\n      dup3\n        /* \"#utility.yul\":12599:12636   */\n      tag_330\n      jump\t// in\n    tag_329:\n        /* \"#utility.yul\":12586:12636   */\n      swap1\n      pop\n        /* \"#utility.yul\":12508:12642   */\n      swap2\n      swap1\n      pop\n      jump\t// out\n        /* \"#utility.yul\":12648:12774   */\n    tag_330:\n        /* \"#utility.yul\":12698:12707   */\n      0x00\n        /* \"#utility.yul\":12731:12768   */\n      tag_332\n        /* \"#utility.yul\":12762:12767   */\n      dup3\n        /* \"#utility.yul\":12731:12768   */\n      tag_333\n      jump\t// in\n    tag_332:\n        /* \"#utility.yul\":12718:12768   */\n      swap1\n      pop\n        /* \"#utility.yul\":12648:12774   */\n      swap2\n      swap1\n      pop\n      jump\t// out\n        /* \"#utility.yul\":12780:12893   */\n    tag_333:\n        /* \"#utility.yul\":12830:12839   */\n      0x00\n        /* \"#utility.yul\":12863:12887   */\n      tag_335\n        /* \"#utility.yul\":12881:12886   */\n      dup3\n        /* \"#utility.yul\":12863:12887   */\n      tag_322\n      jump\t// in\n    tag_335:\n        /* \"#utility.yul\":12850:12887   */\n      swap1\n      pop\n        /* \"#utility.yul\":12780:12893   */\n      swap2\n      swap1\n      pop\n      jump\t// out\n        /* \"#utility.yul\":12899:13053   */\n    tag_169:\n        /* \"#utility.yul\":12983:12989   */\n      dup3\n        /* \"#utility.yul\":12978:12981   */\n      dup2\n        /* \"#utility.yul\":12973:12976   */\n      dup4\n        /* \"#utility.yul\":12960:12990   */\n      calldatacopy\n        /* \"#utility.yul\":13045:13046   */\n      0x00\n        /* \"#utility.yul\":13036:13042   */\n      dup4\n        /* \"#utility.yul\":13031:13034   */\n      dup4\n        /* \"#utility.yul\":13027:13043   */\n      add\n        /* \"#utility.yul\":13020:13047   */\n      mstore\n        /* \"#utility.yul\":12899:13053   */\n      pop\n      pop\n      pop\n      jump\t// out\n        /* \"#utility.yul\":13059:13366   */\n    tag_229:\n        /* \"#utility.yul\":13127:13128   */\n      0x00\n        /* \"#utility.yul\":13137:13250   */\n    tag_338:\n        /* \"#utility.yul\":13151:13157   */\n      dup4\n        /* \"#utility.yul\":13148:13149   */\n      dup2\n        /* \"#utility.yul\":13145:13158   */\n      lt\n        /* \"#utility.yul\":13137:13250   */\n      iszero\n      tag_340\n      jumpi\n        /* \"#utility.yul\":13236:13237   */\n      dup1\n        /* \"#utility.yul\":13231:13234   */\n      dup3\n        /* \"#utility.yul\":13227:13238   */\n      add\n        /* \"#utility.yul\":13221:13239   */\n      mload\n        /* \"#utility.yul\":13217:13218   */\n      dup2\n        /* \"#utility.yul\":13212:13215   */\n      dup5\n        /* \"#utility.yul\":13208:13219   */\n      add\n        /* \"#utility.yul\":13201:13240   */\n      mstore\n        /* \"#utility.yul\":13173:13175   */\n      0x20\n        /* \"#utility.yul\":13170:13171   */\n      dup2\n        /* \"#utility.yul\":13166:13176   */\n      add\n        /* \"#utility.yul\":13161:13176   */\n      swap1\n      pop\n        /* \"#utility.yul\":13137:13250   */\n      jump(tag_338)\n    tag_340:\n        /* \"#utility.yul\":13268:13274   */\n      dup4\n        /* \"#utility.yul\":13265:13266   */\n      dup2\n        /* \"#utility.yul\":13262:13275   */\n      gt\n        /* \"#utility.yul\":13259:13360   */\n      iszero\n      tag_341\n      jumpi\n        /* \"#utility.yul\":13348:13349   */\n      0x00\n        /* \"#utility.yul\":13339:13345   */\n      dup5\n        /* \"#utility.yul\":13334:13337   */\n      dup5\n        /* \"#utility.yul\":13330:13346   */\n      add\n        /* \"#utility.yul\":13323:13350   */\n      mstore\n        /* \"#utility.yul\":13259:13360   */\n    tag_341:\n        /* \"#utility.yul\":13108:13366   */\n      pop\n        /* \"#utility.yul\":13059:13366   */\n      pop\n      pop\n      pop\n      jump\t// out\n        /* \"#utility.yul\":13372:13692   */\n    tag_137:\n        /* \"#utility.yul\":13416:13422   */\n      0x00\n        /* \"#utility.yul\":13453:13454   */\n      0x02\n        /* \"#utility.yul\":13447:13451   */\n      dup3\n        /* \"#utility.yul\":13443:13455   */\n      div\n        /* \"#utility.yul\":13433:13455   */\n      swap1\n      pop\n        /* \"#utility.yul\":13500:13501   */\n      0x01\n        /* \"#utility.yul\":13494:13498   */\n      dup3\n        /* \"#utility.yul\":13490:13502   */\n      and\n        /* \"#utility.yul\":13521:13539   */\n      dup1\n        /* \"#utility.yul\":13511:13592   */\n      tag_343\n      jumpi\n        /* \"#utility.yul\":13577:13581   */\n      0x7f\n        /* \"#utility.yul\":13569:13575   */\n      dup3\n        /* \"#utility.yul\":13565:13582   */\n      and\n        /* \"#utility.yul\":13555:13582   */\n      swap2\n      pop\n        /* \"#utility.yul\":13511:13592   */\n    tag_343:\n        /* \"#utility.yul\":13639:13641   */\n      0x20\n        /* \"#utility.yul\":13631:13637   */\n      dup3\n        /* \"#utility.yul\":13628:13642   */\n      lt\n        /* \"#utility.yul\":13608:13626   */\n      dup2\n        /* \"#utility.yul\":13605:13643   */\n      eq\n        /* \"#utility.yul\":13602:13686   */\n      iszero\n      tag_344\n      jumpi\n        /* \"#utility.yul\":13658:13676   */\n      tag_345\n      tag_346\n      jump\t// in\n    tag_345:\n        /* \"#utility.yul\":13602:13686   */\n    tag_344:\n        /* \"#utility.yul\":13423:13692   */\n      pop\n        /* \"#utility.yul\":13372:13692   */\n      swap2\n      swap1\n      pop\n      jump\t// out\n        /* \"#utility.yul\":13698:13979   */\n    tag_299:\n        /* \"#utility.yul\":13781:13808   */\n      tag_348\n        /* \"#utility.yul\":13803:13807   */\n      dup3\n        /* \"#utility.yul\":13781:13808   */\n      tag_231\n      jump\t// in\n    tag_348:\n        /* \"#utility.yul\":13773:13779   */\n      dup2\n        /* \"#utility.yul\":13769:13809   */\n      add\n        /* \"#utility.yul\":13911:13917   */\n      dup2\n        /* \"#utility.yul\":13899:13909   */\n      dup2\n        /* \"#utility.yul\":13896:13918   */\n      lt\n        /* \"#utility.yul\":13875:13893   */\n      0xffffffffffffffff\n        /* \"#utility.yul\":13863:13873   */\n      dup3\n        /* \"#utility.yul\":13860:13894   */\n      gt\n        /* \"#utility.yul\":13857:13919   */\n      or\n        /* \"#utility.yul\":13854:13942   */\n      iszero\n      tag_349\n      jumpi\n        /* \"#utility.yul\":13922:13940   */\n      tag_350\n      tag_304\n      jump\t// in\n    tag_350:\n        /* \"#utility.yul\":13854:13942   */\n    tag_349:\n        /* \"#utility.yul\":13962:13972   */\n      dup1\n        /* \"#utility.yul\":13958:13960   */\n      0x40\n        /* \"#utility.yul\":13951:13973   */\n      mstore\n        /* \"#utility.yul\":13741:13979   */\n      pop\n        /* \"#utility.yul\":13698:13979   */\n      pop\n      pop\n      jump\t// out\n        /* \"#utility.yul\":13985:14218   */\n    tag_98:\n        /* \"#utility.yul\":14024:14027   */\n      0x00\n        /* \"#utility.yul\":14047:14071   */\n      tag_352\n        /* \"#utility.yul\":14065:14070   */\n      dup3\n        /* \"#utility.yul\":14047:14071   */\n      tag_265\n      jump\t// in\n    tag_352:\n        /* \"#utility.yul\":14038:14071   */\n      swap2\n      pop\n        /* \"#utility.yul\":14093:14159   */\n      0xffffffffffffffffffffffffffffffffffffffffffffffffffffffffffffffff\n        /* \"#utility.yul\":14086:14091   */\n      dup3\n        /* \"#utility.yul\":14083:14160   */\n      eq\n        /* \"#utility.yul\":14080:14183   */\n      iszero\n      tag_353\n      jumpi\n        /* \"#utility.yul\":14163:14181   */\n      tag_354\n      tag_313\n      jump\t// in\n    tag_354:\n        /* \"#utility.yul\":14080:14183   */\n    tag_353:\n        /* \"#utility.yul\":14210:14211   */\n      0x01\n        /* \"#utility.yul\":14203:14208   */\n      dup3\n        /* \"#utility.yul\":14199:14212   */\n      add\n        /* \"#utility.yul\":14192:14212   */\n      swap1\n      pop\n        /* \"#utility.yul\":13985:14218   */\n      swap2\n      swap1\n      pop\n      jump\t// out\n        /* \"#utility.yul\":14224:14404   */\n    tag_313:\n        /* \"#utility.yul\":14272:14349   */\n      0x4e487b7100000000000000000000000000000000000000000000000000000000\n        /* \"#utility.yul\":14269:14270   */\n      0x00\n        /* \"#utility.yul\":14262:14350   */\n      mstore\n        /* \"#utility.yul\":14369:14373   */\n      0x11\n        /* \"#utility.yul\":14366:14367   */\n      0x04\n        /* \"#utility.yul\":14359:14374   */\n      mstore\n        /* \"#utility.yul\":14393:14397   */\n      0x24\n        /* \"#utility.yul\":14390:14391   */\n      0x00\n        /* \"#utility.yul\":14383:14398   */\n      revert\n        /* \"#utility.yul\":14410:14590   */\n    tag_319:\n        /* \"#utility.yul\":14458:14535   */\n      0x4e487b7100000000000000000000000000000000000000000000000000000000\n        /* \"#utility.yul\":14455:14456   */\n      0x00\n        /* \"#utility.yul\":14448:14536   */\n      mstore\n        /* \"#utility.yul\":14555:14559   */\n      0x12\n        /* \"#utility.yul\":14552:14553   */\n      0x04\n        /* \"#utility.yul\":14545:14560   */\n      mstore\n        /* \"#utility.yul\":14579:14583   */\n      0x24\n        /* \"#utility.yul\":14576:14577   */\n      0x00\n        /* \"#utility.yul\":14569:14584   */\n      revert\n        /* \"#utility.yul\":14596:14776   */\n    tag_346:\n        /* \"#utility.yul\":14644:14721   */\n      0x4e487b7100000000000000000000000000000000000000000000000000000000\n        /* \"#utility.yul\":14641:14642   */\n      0x00\n        /* \"#utility.yul\":14634:14722   */\n      mstore\n        /* \"#utility.yul\":14741:14745   */\n      0x22\n        /* \"#utility.yul\":14738:14739   */\n      0x04\n        /* \"#utility.yul\":14731:14746   */\n      mstore\n        /* \"#utility.yul\":14765:14769   */\n      0x24\n        /* \"#utility.yul\":14762:14763   */\n      0x00\n        /* \"#utility.yul\":14755:14770   */\n      revert\n        /* \"#utility.yul\":14782:14962   */\n    tag_304:\n        /* \"#utility.yul\":14830:14907   */\n      0x4e487b7100000000000000000000000000000000000000000000000000000000\n        /* \"#utility.yul\":14827:14828   */\n      0x00\n        /* \"#utility.yul\":14820:14908   */\n      mstore\n        /* \"#utility.yul\":14927:14931   */\n      0x41\n        /* \"#utility.yul\":14924:14925   */\n      0x04\n        /* \"#utility.yul\":14917:14932   */\n      mstore\n        /* \"#utility.yul\":14951:14955   */\n      0x24\n        /* \"#utility.yul\":14948:14949   */\n      0x00\n        /* \"#utility.yul\":14941:14956   */\n      revert\n        /* \"#utility.yul\":14968:15085   */\n    tag_182:\n        /* \"#utility.yul\":15077:15078   */\n      0x00\n        /* \"#utility.yul\":15074:15075   */\n      dup1\n        /* \"#utility.yul\":15067:15079   */\n      revert\n        /* \"#utility.yul\":15091:15208   */\n    tag_167:\n        /* \"#utility.yul\":15200:15201   */\n      0x00\n        /* \"#utility.yul\":15197:15198   */\n      dup1\n        /* \"#utility.yul\":15190:15202   */\n      revert\n        /* \"#utility.yul\":15214:15331   */\n    tag_198:\n        /* \"#utility.yul\":15323:15324   */\n      0x00\n        /* \"#utility.yul\":15320:15321   */\n      dup1\n        /* \"#utility.yul\":15313:15325   */\n      revert\n        /* \"#utility.yul\":15337:15454   */\n    tag_191:\n        /* \"#utility.yul\":15446:15447   */\n      0x00\n        /* \"#utility.yul\":15443:15444   */\n      dup1\n        /* \"#utility.yul\":15436:15448   */\n      revert\n        /* \"#utility.yul\":15460:15562   */\n    tag_231:\n        /* \"#utility.yul\":15501:15507   */\n      0x00\n        /* \"#utility.yul\":15552:15554   */\n      0x1f\n        /* \"#utility.yul\":15548:15555   */\n      not\n        /* \"#utility.yul\":15543:15545   */\n      0x1f\n        /* \"#utility.yul\":15536:15541   */\n      dup4\n        /* \"#utility.yul\":15532:15546   */\n      add\n        /* \"#utility.yul\":15528:15556   */\n      and\n        /* \"#utility.yul\":15518:15556   */\n      swap1\n      pop\n        /* \"#utility.yul\":15460:15562   */\n      swap2\n      swap1\n      pop\n      jump\t// out\n        /* \"#utility.yul\":15568:15741   */\n    tag_236:\n        /* \"#utility.yul\":15708:15733   */\n      0x596f75206d6179206f6e6c7920766f7465206f6e63652e000000000000000000\n        /* \"#utility.yul\":15704:15705   */\n      0x00\n        /* \"#utility.yul\":15696:15702   */\n      dup3\n        /* \"#utility.yul\":15692:15706   */\n      add\n        /* \"#utility.yul\":15685:15734   */\n      mstore\n        /* \"#utility.yul\":15568:15741   */\n      pop\n      jump\t// out\n        /* \"#utility.yul\":15747:15917   */\n    tag_241:\n        /* \"#utility.yul\":15887:15909   */\n      0x446561646c696e6520686173207061737365642e000000000000000000000000\n        /* \"#utility.yul\":15883:15884   */\n      0x00\n        /* \"#utility.yul\":15875:15881   */\n      dup3\n        /* \"#utility.yul\":15871:15885   */\n      add\n        /* \"#utility.yul\":15864:15910   */\n      mstore\n        /* \"#utility.yul\":15747:15917   */\n      pop\n      jump\t// out\n        /* \"#utility.yul\":15923:16099   */\n    tag_246:\n        /* \"#utility.yul\":16063:16091   */\n      0x41646d696e2070726976656c656765732072657175697265642e000000000000\n        /* \"#utility.yul\":16059:16060   */\n      0x00\n        /* \"#utility.yul\":16051:16057   */\n      dup3\n        /* \"#utility.yul\":16047:16061   */\n      add\n        /* \"#utility.yul\":16040:16092   */\n      mstore\n        /* \"#utility.yul\":15923:16099   */\n      pop\n      jump\t// out\n        /* \"#utility.yul\":16105:16284   */\n    tag_251:\n        /* \"#utility.yul\":16245:16276   */\n      0x4d696e696d756d20636f6e747269627574696f6e206e6f74206d65742e000000\n        /* \"#utility.yul\":16241:16242   */\n      0x00\n        /* \"#utility.yul\":16233:16239   */\n      dup3\n        /* \"#utility.yul\":16229:16243   */\n      add\n        /* \"#utility.yul\":16222:16277   */\n      mstore\n        /* \"#utility.yul\":16105:16284   */\n      pop\n      jump\t// out\n        /* \"#utility.yul\":16290:16471   */\n    tag_256:\n        /* \"#utility.yul\":16430:16463   */\n      0x546865207265717565737420686173206265656e20636f6d706c657465642e00\n        /* \"#utility.yul\":16426:16427   */\n      0x00\n        /* \"#utility.yul\":16418:16424   */\n      dup3\n        /* \"#utility.yul\":16414:16428   */\n      add\n        /* \"#utility.yul\":16407:16464   */\n      mstore\n        /* \"#utility.yul\":16290:16471   */\n      pop\n      jump\t// out\n        /* \"#utility.yul\":16477:16654   */\n    tag_261:\n        /* \"#utility.yul\":16617:16646   */\n      0x596f75206d7573742062652061207573657220746f20766f74652e0000000000\n        /* \"#utility.yul\":16613:16614   */\n      0x00\n        /* \"#utility.yul\":16605:16611   */\n      dup3\n        /* \"#utility.yul\":16601:16615   */\n      add\n        /* \"#utility.yul\":16594:16647   */\n      mstore\n        /* \"#utility.yul\":16477:16654   */\n      pop\n      jump\t// out\n        /* \"#utility.yul\":16660:16782   */\n    tag_173:\n        /* \"#utility.yul\":16733:16757   */\n      tag_371\n        /* \"#utility.yul\":16751:16756   */\n      dup2\n        /* \"#utility.yul\":16733:16757   */\n      tag_217\n      jump\t// in\n    tag_371:\n        /* \"#utility.yul\":16726:16731   */\n      dup2\n        /* \"#utility.yul\":16723:16758   */\n      eq\n        /* \"#utility.yul\":16713:16776   */\n      tag_372\n      jumpi\n        /* \"#utility.yul\":16772:16773   */\n      0x00\n        /* \"#utility.yul\":16769:16770   */\n      dup1\n        /* \"#utility.yul\":16762:16774   */\n      revert\n        /* \"#utility.yul\":16713:16776   */\n    tag_372:\n        /* \"#utility.yul\":16660:16782   */\n      pop\n      jump\t// out\n        /* \"#utility.yul\":16788:16926   */\n    tag_177:\n        /* \"#utility.yul\":16869:16901   */\n      tag_374\n        /* \"#utility.yul\":16895:16900   */\n      dup2\n        /* \"#utility.yul\":16869:16901   */\n      tag_213\n      jump\t// in\n    tag_374:\n        /* \"#utility.yul\":16862:16867   */\n      dup2\n        /* \"#utility.yul\":16859:16902   */\n      eq\n        /* \"#utility.yul\":16849:16920   */\n      tag_375\n      jumpi\n        /* \"#utility.yul\":16916:16917   */\n      0x00\n        /* \"#utility.yul\":16913:16914   */\n      dup1\n        /* \"#utility.yul\":16906:16918   */\n      revert\n        /* \"#utility.yul\":16849:16920   */\n    tag_375:\n        /* \"#utility.yul\":16788:16926   */\n      pop\n      jump\t// out\n        /* \"#utility.yul\":16932:17054   */\n    tag_187:\n        /* \"#utility.yul\":17005:17029   */\n      tag_377\n        /* \"#utility.yul\":17023:17028   */\n      dup2\n        /* \"#utility.yul\":17005:17029   */\n      tag_265\n      jump\t// in\n    tag_377:\n        /* \"#utility.yul\":16998:17003   */\n      dup2\n        /* \"#utility.yul\":16995:17030   */\n      eq\n        /* \"#utility.yul\":16985:17048   */\n      tag_378\n      jumpi\n        /* \"#utility.yul\":17044:17045   */\n      0x00\n        /* \"#utility.yul\":17041:17042   */\n      dup1\n        /* \"#utility.yul\":17034:17046   */\n      revert\n        /* \"#utility.yul\":16985:17048   */\n    tag_378:\n        /* \"#utility.yul\":16932:17054   */\n      pop\n      jump\t// out\n\n    auxdata: 0xa2646970667358221220fb4a7d999f381ad1924cb4d98a9e16df436310ad0962037f88aae0fb2d06ef9364736f6c63430008070033\n}\n",
				"bytecode": {
					"linkReferences": {},
					"object": "60806040523480156200001157600080fd5b506040516200183f3803806200183f8339818101604052810190620000379190620000ba565b8160058190555080426200004c919062000101565b600481905550606460038190555033600160006101000a81548173ffffffffffffffffffffffffffffffffffffffff021916908373ffffffffffffffffffffffffffffffffffffffff1602179055505050620001b6565b600081519050620000b4816200019c565b92915050565b60008060408385031215620000d457620000d362000197565b5b6000620000e485828601620000a3565b9250506020620000f785828601620000a3565b9150509250929050565b60006200010e826200015e565b91506200011b836200015e565b9250827fffffffffffffffffffffffffffffffffffffffffffffffffffffffffffffffff0382111562000153576200015262000168565b5b828201905092915050565b6000819050919050565b7f4e487b7100000000000000000000000000000000000000000000000000000000600052601160045260246000fd5b600080fd5b620001a7816200015e565b8114620001b357600080fd5b50565b61167980620001c66000396000f3fe6080604052600436106100ec5760003560e01c806381d12c581161008a578063d3a9d4ea11610059578063d3a9d4ea146102e7578063d7bb99ba14610312578063f3740daf1461031c578063f851a44014610347576100fb565b806381d12c5814610239578063937e09b11461027a578063b2d5ae44146102a5578063c59ee1dc146102bc576100fb565b806329dcb0cf116100c657806329dcb0cf1461019157806340193883146101bc5780634cb6f4a5146101e75780635114cb5214610210576100fb565b806312065fe0146101005780631b16bb5c1461012b5780631f6d494214610154576100fb565b366100fb576100f9610372565b005b600080fd5b34801561010c57600080fd5b50610115610504565b6040516101229190611195565b60405180910390f35b34801561013757600080fd5b50610152600480360381019061014d9190610e07565b61050c565b005b34801561016057600080fd5b5061017b60048036038101906101769190610dda565b61069a565b6040516101889190611195565b60405180910390f35b34801561019d57600080fd5b506101a66106b2565b6040516101b39190611195565b60405180910390f35b3480156101c857600080fd5b506101d16106b8565b6040516101de9190611195565b60405180910390f35b3480156101f357600080fd5b5061020e60048036038101906102099190610e76565b6106be565b005b34801561021c57600080fd5b5061023760048036038101906102329190610e76565b610863565b005b34801561024557600080fd5b50610260600480360381019061025b9190610e76565b610a20565b60405161027195949392919061107b565b60405180910390f35b34801561028657600080fd5b5061028f610b0b565b60405161029c9190611195565b60405180910390f35b3480156102b157600080fd5b506102ba610b11565b005b3480156102c857600080fd5b506102d1610c50565b6040516102de9190611195565b60405180910390f35b3480156102f357600080fd5b506102fc610c56565b6040516103099190611195565b60405180910390f35b61031a610372565b005b34801561032857600080fd5b50610331610c5c565b60405161033e9190611195565b60405180910390f35b34801561035357600080fd5b5061035c610c62565b6040516103699190610ff9565b60405180910390f35b60045442106103b6576040517f08c379a00000000000000000000000000000000000000000000000000000000081526004016103ad906110f5565b60405180910390fd5b6003543410156103fb576040517f08c379a00000000000000000000000000000000000000000000000000000000081526004016103f290611135565b60405180910390fd5b60008060003373ffffffffffffffffffffffffffffffffffffffff1673ffffffffffffffffffffffffffffffffffffffff16815260200190815260200160002054141561045b5760026000815480929190610455906113de565b91905055505b346000803373ffffffffffffffffffffffffffffffffffffffff1673ffffffffffffffffffffffffffffffffffffffff16815260200190815260200160002060008282546104a99190611222565b9250508190555034600660008282546104c29190611222565b925050819055507f44c7d71aa3a0dca1ae622fe7fa2c5d9abb4d4c6a4cfccd326791b7f7fbb88a7033346040516104fa929190611014565b60405180910390a1565b600047905090565b600160009054906101000a900473ffffffffffffffffffffffffffffffffffffffff1673ffffffffffffffffffffffffffffffffffffffff163373ffffffffffffffffffffffffffffffffffffffff161461059c576040517f08c379a000000000000000000000000000000000000000000000000000000000815260040161059390611115565b60405180910390fd5b60006007600060085481526020019081526020016000209050600860008154809291906105c8906113de565b9190505550838160000190805190602001906105e5929190610c88565b50828160010160006101000a81548173ffffffffffffffffffffffffffffffffffffffff021916908373ffffffffffffffffffffffffffffffffffffffff16021790555081816002018190555060008160030160006101000a81548160ff021916908315150217905550600081600401819055507f5392bd80651676ccaaedec1afbe841d47e369223df0ba1586110b6426ee87a3a84848460405161068c9392919061103d565b60405180910390a150505050565b60006020528060005260406000206000915090505481565b60045481565b60055481565b60008060003373ffffffffffffffffffffffffffffffffffffffff1673ffffffffffffffffffffffffffffffffffffffff168152602001908152602001600020541161073f576040517f08c379a000000000000000000000000000000000000000000000000000000000815260040161073690611175565b60405180910390fd5b6000600760008381526020019081526020016000209050600015158160050160003373ffffffffffffffffffffffffffffffffffffffff1673ffffffffffffffffffffffffffffffffffffffff16815260200190815260200160002060009054906101000a900460ff161515146107eb576040517f08c379a00000000000000000000000000000000000000000000000000000000081526004016107e2906110d5565b60405180910390fd5b60018160050160003373ffffffffffffffffffffffffffffffffffffffff1673ffffffffffffffffffffffffffffffffffffffff16815260200190815260200160002060006101000a81548160ff02191690831515021790555080600401600081548092919061085a906113de565b91905055505050565b600160009054906101000a900473ffffffffffffffffffffffffffffffffffffffff1673ffffffffffffffffffffffffffffffffffffffff163373ffffffffffffffffffffffffffffffffffffffff16146108f3576040517f08c379a00000000000000000000000000000000000000000000000000000000081526004016108ea90611115565b60405180910390fd5b600554600654101561090457600080fd5b6000600760008381526020019081526020016000209050600015158160030160009054906101000a900460ff16151514610973576040517f08c379a000000000000000000000000000000000000000000000000000000000815260040161096a90611155565b60405180910390fd5b600280546109819190611278565b81600401541161099057600080fd5b8060010160009054906101000a900473ffffffffffffffffffffffffffffffffffffffff1673ffffffffffffffffffffffffffffffffffffffff166108fc82600201549081150290604051600060405180830381858888f193505050501580156109fe573d6000803e3d6000fd5b5060018160030160006101000a81548160ff0219169083151502179055505050565b6007602052806000526040600020600091509050806000018054610a439061137b565b80601f0160208091040260200160405190810160405280929190818152602001828054610a6f9061137b565b8015610abc5780601f10610a9157610100808354040283529160200191610abc565b820191906000526020600020905b815481529060010190602001808311610a9f57829003601f168201915b5050505050908060010160009054906101000a900473ffffffffffffffffffffffffffffffffffffffff16908060020154908060030160009054906101000a900460ff16908060040154905085565b60035481565b60045442118015610b255750600554600654105b610b2e57600080fd5b60008060003373ffffffffffffffffffffffffffffffffffffffff1673ffffffffffffffffffffffffffffffffffffffff1681526020019081526020016000205411610b7957600080fd5b600033905060008060003373ffffffffffffffffffffffffffffffffffffffff1673ffffffffffffffffffffffffffffffffffffffff1681526020019081526020016000205490508173ffffffffffffffffffffffffffffffffffffffff166108fc829081150290604051600060405180830381858888f19350505050158015610c07573d6000803e3d6000fd5b5060008060003373ffffffffffffffffffffffffffffffffffffffff1673ffffffffffffffffffffffffffffffffffffffff168152602001908152602001600020819055505050565b60065481565b60085481565b60025481565b600160009054906101000a900473ffffffffffffffffffffffffffffffffffffffff1681565b828054610c949061137b565b90600052602060002090601f016020900481019282610cb65760008555610cfd565b82601f10610ccf57805160ff1916838001178555610cfd565b82800160010185558215610cfd579182015b82811115610cfc578251825591602001919060010190610ce1565b5b509050610d0a9190610d0e565b5090565b5b80821115610d27576000816000905550600101610d0f565b5090565b6000610d3e610d39846111d5565b6111b0565b905082815260208101848484011115610d5a57610d596114e8565b5b610d65848285611339565b509392505050565b600081359050610d7c816115fe565b92915050565b600081359050610d9181611615565b92915050565b600082601f830112610dac57610dab6114e3565b5b8135610dbc848260208601610d2b565b91505092915050565b600081359050610dd48161162c565b92915050565b600060208284031215610df057610def6114f2565b5b6000610dfe84828501610d6d565b91505092915050565b600080600060608486031215610e2057610e1f6114f2565b5b600084013567ffffffffffffffff811115610e3e57610e3d6114ed565b5b610e4a86828701610d97565b9350506020610e5b86828701610d82565b9250506040610e6c86828701610dc5565b9150509250925092565b600060208284031215610e8c57610e8b6114f2565b5b6000610e9a84828501610dc5565b91505092915050565b610eac81611303565b82525050565b610ebb816112bb565b82525050565b610eca816112a9565b82525050565b610ed9816112cd565b82525050565b6000610eea82611206565b610ef48185611211565b9350610f04818560208601611348565b610f0d816114f7565b840191505092915050565b6000610f25601783611211565b9150610f3082611508565b602082019050919050565b6000610f48601483611211565b9150610f5382611531565b602082019050919050565b6000610f6b601a83611211565b9150610f768261155a565b602082019050919050565b6000610f8e601d83611211565b9150610f9982611583565b602082019050919050565b6000610fb1601f83611211565b9150610fbc826115ac565b602082019050919050565b6000610fd4601b83611211565b9150610fdf826115d5565b602082019050919050565b610ff3816112f9565b82525050565b600060208201905061100e6000830184610ec1565b92915050565b60006040820190506110296000830185610ec1565b6110366020830184610fea565b9392505050565b600060608201905081810360008301526110578186610edf565b90506110666020830185610ea3565b6110736040830184610fea565b949350505050565b600060a08201905081810360008301526110958188610edf565b90506110a46020830187610eb2565b6110b16040830186610fea565b6110be6060830185610ed0565b6110cb6080830184610fea565b9695505050505050565b600060208201905081810360008301526110ee81610f18565b9050919050565b6000602082019050818103600083015261110e81610f3b565b9050919050565b6000602082019050818103600083015261112e81610f5e565b9050919050565b6000602082019050818103600083015261114e81610f81565b9050919050565b6000602082019050818103600083015261116e81610fa4565b9050919050565b6000602082019050818103600083015261118e81610fc7565b9050919050565b60006020820190506111aa6000830184610fea565b92915050565b60006111ba6111cb565b90506111c682826113ad565b919050565b6000604051905090565b600067ffffffffffffffff8211156111f0576111ef6114b4565b5b6111f9826114f7565b9050602081019050919050565b600081519050919050565b600082825260208201905092915050565b600061122d826112f9565b9150611238836112f9565b9250827fffffffffffffffffffffffffffffffffffffffffffffffffffffffffffffffff0382111561126d5761126c611427565b5b828201905092915050565b6000611283826112f9565b915061128e836112f9565b92508261129e5761129d611456565b5b828204905092915050565b60006112b4826112d9565b9050919050565b60006112c6826112d9565b9050919050565b60008115159050919050565b600073ffffffffffffffffffffffffffffffffffffffff82169050919050565b6000819050919050565b600061130e82611315565b9050919050565b600061132082611327565b9050919050565b6000611332826112d9565b9050919050565b82818337600083830152505050565b60005b8381101561136657808201518184015260208101905061134b565b83811115611375576000848401525b50505050565b6000600282049050600182168061139357607f821691505b602082108114156113a7576113a6611485565b5b50919050565b6113b6826114f7565b810181811067ffffffffffffffff821117156113d5576113d46114b4565b5b80604052505050565b60006113e9826112f9565b91507fffffffffffffffffffffffffffffffffffffffffffffffffffffffffffffffff82141561141c5761141b611427565b5b600182019050919050565b7f4e487b7100000000000000000000000000000000000000000000000000000000600052601160045260246000fd5b7f4e487b7100000000000000000000000000000000000000000000000000000000600052601260045260246000fd5b7f4e487b7100000000000000000000000000000000000000000000000000000000600052602260045260246000fd5b7f4e487b7100000000000000000000000000000000000000000000000000000000600052604160045260246000fd5b600080fd5b600080fd5b600080fd5b600080fd5b6000601f19601f8301169050919050565b7f596f75206d6179206f6e6c7920766f7465206f6e63652e000000000000000000600082015250565b7f446561646c696e6520686173207061737365642e000000000000000000000000600082015250565b7f41646d696e2070726976656c656765732072657175697265642e000000000000600082015250565b7f4d696e696d756d20636f6e747269627574696f6e206e6f74206d65742e000000600082015250565b7f546865207265717565737420686173206265656e20636f6d706c657465642e00600082015250565b7f596f75206d7573742062652061207573657220746f20766f74652e0000000000600082015250565b611607816112a9565b811461161257600080fd5b50565b61161e816112bb565b811461162957600080fd5b50565b611635816112f9565b811461164057600080fd5b5056fea2646970667358221220fb4a7d999f381ad1924cb4d98a9e16df436310ad0962037f88aae0fb2d06ef9364736f6c63430008070033",
					"opcodes": "PUSH1 0x80 PUSH1 0x40 MSTORE CALLVALUE DUP1 ISZERO PUSH3 0x11 JUMPI PUSH1 0x0 DUP1 REVERT JUMPDEST POP PUSH1 0x40 MLOAD PUSH3 0x183F CODESIZE SUB DUP1 PUSH3 0x183F DUP4 CODECOPY DUP2 DUP2 ADD PUSH1 0x40 MSTORE DUP2 ADD SWAP1 PUSH3 0x37 SWAP2 SWAP1 PUSH3 0xBA JUMP JUMPDEST DUP2 PUSH1 0x5 DUP2 SWAP1 SSTORE POP DUP1 TIMESTAMP PUSH3 0x4C SWAP2 SWAP1 PUSH3 0x101 JUMP JUMPDEST PUSH1 0x4 DUP2 SWAP1 SSTORE POP PUSH1 0x64 PUSH1 0x3 DUP2 SWAP1 SSTORE POP CALLER PUSH1 0x1 PUSH1 0x0 PUSH2 0x100 EXP DUP2 SLOAD DUP2 PUSH20 0xFFFFFFFFFFFFFFFFFFFFFFFFFFFFFFFFFFFFFFFF MUL NOT AND SWAP1 DUP4 PUSH20 0xFFFFFFFFFFFFFFFFFFFFFFFFFFFFFFFFFFFFFFFF AND MUL OR SWAP1 SSTORE POP POP POP PUSH3 0x1B6 JUMP JUMPDEST PUSH1 0x0 DUP2 MLOAD SWAP1 POP PUSH3 0xB4 DUP2 PUSH3 0x19C JUMP JUMPDEST SWAP3 SWAP2 POP POP JUMP JUMPDEST PUSH1 0x0 DUP1 PUSH1 0x40 DUP4 DUP6 SUB SLT ISZERO PUSH3 0xD4 JUMPI PUSH3 0xD3 PUSH3 0x197 JUMP JUMPDEST JUMPDEST PUSH1 0x0 PUSH3 0xE4 DUP6 DUP3 DUP7 ADD PUSH3 0xA3 JUMP JUMPDEST SWAP3 POP POP PUSH1 0x20 PUSH3 0xF7 DUP6 DUP3 DUP7 ADD PUSH3 0xA3 JUMP JUMPDEST SWAP2 POP POP SWAP3 POP SWAP3 SWAP1 POP JUMP JUMPDEST PUSH1 0x0 PUSH3 0x10E DUP3 PUSH3 0x15E JUMP JUMPDEST SWAP2 POP PUSH3 0x11B DUP4 PUSH3 0x15E JUMP JUMPDEST SWAP3 POP DUP3 PUSH32 0xFFFFFFFFFFFFFFFFFFFFFFFFFFFFFFFFFFFFFFFFFFFFFFFFFFFFFFFFFFFFFFFF SUB DUP3 GT ISZERO PUSH3 0x153 JUMPI PUSH3 0x152 PUSH3 0x168 JUMP JUMPDEST JUMPDEST DUP3 DUP3 ADD SWAP1 POP SWAP3 SWAP2 POP POP JUMP JUMPDEST PUSH1 0x0 DUP2 SWAP1 POP SWAP2 SWAP1 POP JUMP JUMPDEST PUSH32 0x4E487B7100000000000000000000000000000000000000000000000000000000 PUSH1 0x0 MSTORE PUSH1 0x11 PUSH1 0x4 MSTORE PUSH1 0x24 PUSH1 0x0 REVERT JUMPDEST PUSH1 0x0 DUP1 REVERT JUMPDEST PUSH3 0x1A7 DUP2 PUSH3 0x15E JUMP JUMPDEST DUP2 EQ PUSH3 0x1B3 JUMPI PUSH1 0x0 DUP1 REVERT JUMPDEST POP JUMP JUMPDEST PUSH2 0x1679 DUP1 PUSH3 0x1C6 PUSH1 0x0 CODECOPY PUSH1 0x0 RETURN INVALID PUSH1 0x80 PUSH1 0x40 MSTORE PUSH1 0x4 CALLDATASIZE LT PUSH2 0xEC JUMPI PUSH1 0x0 CALLDATALOAD PUSH1 0xE0 SHR DUP1 PUSH4 0x81D12C58 GT PUSH2 0x8A JUMPI DUP1 PUSH4 0xD3A9D4EA GT PUSH2 0x59 JUMPI DUP1 PUSH4 0xD3A9D4EA EQ PUSH2 0x2E7 JUMPI DUP1 PUSH4 0xD7BB99BA EQ PUSH2 0x312 JUMPI DUP1 PUSH4 0xF3740DAF EQ PUSH2 0x31C JUMPI DUP1 PUSH4 0xF851A440 EQ PUSH2 0x347 JUMPI PUSH2 0xFB JUMP JUMPDEST DUP1 PUSH4 0x81D12C58 EQ PUSH2 0x239 JUMPI DUP1 PUSH4 0x937E09B1 EQ PUSH2 0x27A JUMPI DUP1 PUSH4 0xB2D5AE44 EQ PUSH2 0x2A5 JUMPI DUP1 PUSH4 0xC59EE1DC EQ PUSH2 0x2BC JUMPI PUSH2 0xFB JUMP JUMPDEST DUP1 PUSH4 0x29DCB0CF GT PUSH2 0xC6 JUMPI DUP1 PUSH4 0x29DCB0CF EQ PUSH2 0x191 JUMPI DUP1 PUSH4 0x40193883 EQ PUSH2 0x1BC JUMPI DUP1 PUSH4 0x4CB6F4A5 EQ PUSH2 0x1E7 JUMPI DUP1 PUSH4 0x5114CB52 EQ PUSH2 0x210 JUMPI PUSH2 0xFB JUMP JUMPDEST DUP1 PUSH4 0x12065FE0 EQ PUSH2 0x100 JUMPI DUP1 PUSH4 0x1B16BB5C EQ PUSH2 0x12B JUMPI DUP1 PUSH4 0x1F6D4942 EQ PUSH2 0x154 JUMPI PUSH2 0xFB JUMP JUMPDEST CALLDATASIZE PUSH2 0xFB JUMPI PUSH2 0xF9 PUSH2 0x372 JUMP JUMPDEST STOP JUMPDEST PUSH1 0x0 DUP1 REVERT JUMPDEST CALLVALUE DUP1 ISZERO PUSH2 0x10C JUMPI PUSH1 0x0 DUP1 REVERT JUMPDEST POP PUSH2 0x115 PUSH2 0x504 JUMP JUMPDEST PUSH1 0x40 MLOAD PUSH2 0x122 SWAP2 SWAP1 PUSH2 0x1195 JUMP JUMPDEST PUSH1 0x40 MLOAD DUP1 SWAP2 SUB SWAP1 RETURN JUMPDEST CALLVALUE DUP1 ISZERO PUSH2 0x137 JUMPI PUSH1 0x0 DUP1 REVERT JUMPDEST POP PUSH2 0x152 PUSH1 0x4 DUP1 CALLDATASIZE SUB DUP2 ADD SWAP1 PUSH2 0x14D SWAP2 SWAP1 PUSH2 0xE07 JUMP JUMPDEST PUSH2 0x50C JUMP JUMPDEST STOP JUMPDEST CALLVALUE DUP1 ISZERO PUSH2 0x160 JUMPI PUSH1 0x0 DUP1 REVERT JUMPDEST POP PUSH2 0x17B PUSH1 0x4 DUP1 CALLDATASIZE SUB DUP2 ADD SWAP1 PUSH2 0x176 SWAP2 SWAP1 PUSH2 0xDDA JUMP JUMPDEST PUSH2 0x69A JUMP JUMPDEST PUSH1 0x40 MLOAD PUSH2 0x188 SWAP2 SWAP1 PUSH2 0x1195 JUMP JUMPDEST PUSH1 0x40 MLOAD DUP1 SWAP2 SUB SWAP1 RETURN JUMPDEST CALLVALUE DUP1 ISZERO PUSH2 0x19D JUMPI PUSH1 0x0 DUP1 REVERT JUMPDEST POP PUSH2 0x1A6 PUSH2 0x6B2 JUMP JUMPDEST PUSH1 0x40 MLOAD PUSH2 0x1B3 SWAP2 SWAP1 PUSH2 0x1195 JUMP JUMPDEST PUSH1 0x40 MLOAD DUP1 SWAP2 SUB SWAP1 RETURN JUMPDEST CALLVALUE DUP1 ISZERO PUSH2 0x1C8 JUMPI PUSH1 0x0 DUP1 REVERT JUMPDEST POP PUSH2 0x1D1 PUSH2 0x6B8 JUMP JUMPDEST PUSH1 0x40 MLOAD PUSH2 0x1DE SWAP2 SWAP1 PUSH2 0x1195 JUMP JUMPDEST PUSH1 0x40 MLOAD DUP1 SWAP2 SUB SWAP1 RETURN JUMPDEST CALLVALUE DUP1 ISZERO PUSH2 0x1F3 JUMPI PUSH1 0x0 DUP1 REVERT JUMPDEST POP PUSH2 0x20E PUSH1 0x4 DUP1 CALLDATASIZE SUB DUP2 ADD SWAP1 PUSH2 0x209 SWAP2 SWAP1 PUSH2 0xE76 JUMP JUMPDEST PUSH2 0x6BE JUMP JUMPDEST STOP JUMPDEST CALLVALUE DUP1 ISZERO PUSH2 0x21C JUMPI PUSH1 0x0 DUP1 REVERT JUMPDEST POP PUSH2 0x237 PUSH1 0x4 DUP1 CALLDATASIZE SUB DUP2 ADD SWAP1 PUSH2 0x232 SWAP2 SWAP1 PUSH2 0xE76 JUMP JUMPDEST PUSH2 0x863 JUMP JUMPDEST STOP JUMPDEST CALLVALUE DUP1 ISZERO PUSH2 0x245 JUMPI PUSH1 0x0 DUP1 REVERT JUMPDEST POP PUSH2 0x260 PUSH1 0x4 DUP1 CALLDATASIZE SUB DUP2 ADD SWAP1 PUSH2 0x25B SWAP2 SWAP1 PUSH2 0xE76 JUMP JUMPDEST PUSH2 0xA20 JUMP JUMPDEST PUSH1 0x40 MLOAD PUSH2 0x271 SWAP6 SWAP5 SWAP4 SWAP3 SWAP2 SWAP1 PUSH2 0x107B JUMP JUMPDEST PUSH1 0x40 MLOAD DUP1 SWAP2 SUB SWAP1 RETURN JUMPDEST CALLVALUE DUP1 ISZERO PUSH2 0x286 JUMPI PUSH1 0x0 DUP1 REVERT JUMPDEST POP PUSH2 0x28F PUSH2 0xB0B JUMP JUMPDEST PUSH1 0x40 MLOAD PUSH2 0x29C SWAP2 SWAP1 PUSH2 0x1195 JUMP JUMPDEST PUSH1 0x40 MLOAD DUP1 SWAP2 SUB SWAP1 RETURN JUMPDEST CALLVALUE DUP1 ISZERO PUSH2 0x2B1 JUMPI PUSH1 0x0 DUP1 REVERT JUMPDEST POP PUSH2 0x2BA PUSH2 0xB11 JUMP JUMPDEST STOP JUMPDEST CALLVALUE DUP1 ISZERO PUSH2 0x2C8 JUMPI PUSH1 0x0 DUP1 REVERT JUMPDEST POP PUSH2 0x2D1 PUSH2 0xC50 JUMP JUMPDEST PUSH1 0x40 MLOAD PUSH2 0x2DE SWAP2 SWAP1 PUSH2 0x1195 JUMP JUMPDEST PUSH1 0x40 MLOAD DUP1 SWAP2 SUB SWAP1 RETURN JUMPDEST CALLVALUE DUP1 ISZERO PUSH2 0x2F3 JUMPI PUSH1 0x0 DUP1 REVERT JUMPDEST POP PUSH2 0x2FC PUSH2 0xC56 JUMP JUMPDEST PUSH1 0x40 MLOAD PUSH2 0x309 SWAP2 SWAP1 PUSH2 0x1195 JUMP JUMPDEST PUSH1 0x40 MLOAD DUP1 SWAP2 SUB SWAP1 RETURN JUMPDEST PUSH2 0x31A PUSH2 0x372 JUMP JUMPDEST STOP JUMPDEST CALLVALUE DUP1 ISZERO PUSH2 0x328 JUMPI PUSH1 0x0 DUP1 REVERT JUMPDEST POP PUSH2 0x331 PUSH2 0xC5C JUMP JUMPDEST PUSH1 0x40 MLOAD PUSH2 0x33E SWAP2 SWAP1 PUSH2 0x1195 JUMP JUMPDEST PUSH1 0x40 MLOAD DUP1 SWAP2 SUB SWAP1 RETURN JUMPDEST CALLVALUE DUP1 ISZERO PUSH2 0x353 JUMPI PUSH1 0x0 DUP1 REVERT JUMPDEST POP PUSH2 0x35C PUSH2 0xC62 JUMP JUMPDEST PUSH1 0x40 MLOAD PUSH2 0x369 SWAP2 SWAP1 PUSH2 0xFF9 JUMP JUMPDEST PUSH1 0x40 MLOAD DUP1 SWAP2 SUB SWAP1 RETURN JUMPDEST PUSH1 0x4 SLOAD TIMESTAMP LT PUSH2 0x3B6 JUMPI PUSH1 0x40 MLOAD PUSH32 0x8C379A000000000000000000000000000000000000000000000000000000000 DUP2 MSTORE PUSH1 0x4 ADD PUSH2 0x3AD SWAP1 PUSH2 0x10F5 JUMP JUMPDEST PUSH1 0x40 MLOAD DUP1 SWAP2 SUB SWAP1 REVERT JUMPDEST PUSH1 0x3 SLOAD CALLVALUE LT ISZERO PUSH2 0x3FB JUMPI PUSH1 0x40 MLOAD PUSH32 0x8C379A000000000000000000000000000000000000000000000000000000000 DUP2 MSTORE PUSH1 0x4 ADD PUSH2 0x3F2 SWAP1 PUSH2 0x1135 JUMP JUMPDEST PUSH1 0x40 MLOAD DUP1 SWAP2 SUB SWAP1 REVERT JUMPDEST PUSH1 0x0 DUP1 PUSH1 0x0 CALLER PUSH20 0xFFFFFFFFFFFFFFFFFFFFFFFFFFFFFFFFFFFFFFFF AND PUSH20 0xFFFFFFFFFFFFFFFFFFFFFFFFFFFFFFFFFFFFFFFF AND DUP2 MSTORE PUSH1 0x20 ADD SWAP1 DUP2 MSTORE PUSH1 0x20 ADD PUSH1 0x0 KECCAK256 SLOAD EQ ISZERO PUSH2 0x45B JUMPI PUSH1 0x2 PUSH1 0x0 DUP2 SLOAD DUP1 SWAP3 SWAP2 SWAP1 PUSH2 0x455 SWAP1 PUSH2 0x13DE JUMP JUMPDEST SWAP2 SWAP1 POP SSTORE POP JUMPDEST CALLVALUE PUSH1 0x0 DUP1 CALLER PUSH20 0xFFFFFFFFFFFFFFFFFFFFFFFFFFFFFFFFFFFFFFFF AND PUSH20 0xFFFFFFFFFFFFFFFFFFFFFFFFFFFFFFFFFFFFFFFF AND DUP2 MSTORE PUSH1 0x20 ADD SWAP1 DUP2 MSTORE PUSH1 0x20 ADD PUSH1 0x0 KECCAK256 PUSH1 0x0 DUP3 DUP3 SLOAD PUSH2 0x4A9 SWAP2 SWAP1 PUSH2 0x1222 JUMP JUMPDEST SWAP3 POP POP DUP2 SWAP1 SSTORE POP CALLVALUE PUSH1 0x6 PUSH1 0x0 DUP3 DUP3 SLOAD PUSH2 0x4C2 SWAP2 SWAP1 PUSH2 0x1222 JUMP JUMPDEST SWAP3 POP POP DUP2 SWAP1 SSTORE POP PUSH32 0x44C7D71AA3A0DCA1AE622FE7FA2C5D9ABB4D4C6A4CFCCD326791B7F7FBB88A70 CALLER CALLVALUE PUSH1 0x40 MLOAD PUSH2 0x4FA SWAP3 SWAP2 SWAP1 PUSH2 0x1014 JUMP JUMPDEST PUSH1 0x40 MLOAD DUP1 SWAP2 SUB SWAP1 LOG1 JUMP JUMPDEST PUSH1 0x0 SELFBALANCE SWAP1 POP SWAP1 JUMP JUMPDEST PUSH1 0x1 PUSH1 0x0 SWAP1 SLOAD SWAP1 PUSH2 0x100 EXP SWAP1 DIV PUSH20 0xFFFFFFFFFFFFFFFFFFFFFFFFFFFFFFFFFFFFFFFF AND PUSH20 0xFFFFFFFFFFFFFFFFFFFFFFFFFFFFFFFFFFFFFFFF AND CALLER PUSH20 0xFFFFFFFFFFFFFFFFFFFFFFFFFFFFFFFFFFFFFFFF AND EQ PUSH2 0x59C JUMPI PUSH1 0x40 MLOAD PUSH32 0x8C379A000000000000000000000000000000000000000000000000000000000 DUP2 MSTORE PUSH1 0x4 ADD PUSH2 0x593 SWAP1 PUSH2 0x1115 JUMP JUMPDEST PUSH1 0x40 MLOAD DUP1 SWAP2 SUB SWAP1 REVERT JUMPDEST PUSH1 0x0 PUSH1 0x7 PUSH1 0x0 PUSH1 0x8 SLOAD DUP2 MSTORE PUSH1 0x20 ADD SWAP1 DUP2 MSTORE PUSH1 0x20 ADD PUSH1 0x0 KECCAK256 SWAP1 POP PUSH1 0x8 PUSH1 0x0 DUP2 SLOAD DUP1 SWAP3 SWAP2 SWAP1 PUSH2 0x5C8 SWAP1 PUSH2 0x13DE JUMP JUMPDEST SWAP2 SWAP1 POP SSTORE POP DUP4 DUP2 PUSH1 0x0 ADD SWAP1 DUP1 MLOAD SWAP1 PUSH1 0x20 ADD SWAP1 PUSH2 0x5E5 SWAP3 SWAP2 SWAP1 PUSH2 0xC88 JUMP JUMPDEST POP DUP3 DUP2 PUSH1 0x1 ADD PUSH1 0x0 PUSH2 0x100 EXP DUP2 SLOAD DUP2 PUSH20 0xFFFFFFFFFFFFFFFFFFFFFFFFFFFFFFFFFFFFFFFF MUL NOT AND SWAP1 DUP4 PUSH20 0xFFFFFFFFFFFFFFFFFFFFFFFFFFFFFFFFFFFFFFFF AND MUL OR SWAP1 SSTORE POP DUP2 DUP2 PUSH1 0x2 ADD DUP2 SWAP1 SSTORE POP PUSH1 0x0 DUP2 PUSH1 0x3 ADD PUSH1 0x0 PUSH2 0x100 EXP DUP2 SLOAD DUP2 PUSH1 0xFF MUL NOT AND SWAP1 DUP4 ISZERO ISZERO MUL OR SWAP1 SSTORE POP PUSH1 0x0 DUP2 PUSH1 0x4 ADD DUP2 SWAP1 SSTORE POP PUSH32 0x5392BD80651676CCAAEDEC1AFBE841D47E369223DF0BA1586110B6426EE87A3A DUP5 DUP5 DUP5 PUSH1 0x40 MLOAD PUSH2 0x68C SWAP4 SWAP3 SWAP2 SWAP1 PUSH2 0x103D JUMP JUMPDEST PUSH1 0x40 MLOAD DUP1 SWAP2 SUB SWAP1 LOG1 POP POP POP POP JUMP JUMPDEST PUSH1 0x0 PUSH1 0x20 MSTORE DUP1 PUSH1 0x0 MSTORE PUSH1 0x40 PUSH1 0x0 KECCAK256 PUSH1 0x0 SWAP2 POP SWAP1 POP SLOAD DUP2 JUMP JUMPDEST PUSH1 0x4 SLOAD DUP2 JUMP JUMPDEST PUSH1 0x5 SLOAD DUP2 JUMP JUMPDEST PUSH1 0x0 DUP1 PUSH1 0x0 CALLER PUSH20 0xFFFFFFFFFFFFFFFFFFFFFFFFFFFFFFFFFFFFFFFF AND PUSH20 0xFFFFFFFFFFFFFFFFFFFFFFFFFFFFFFFFFFFFFFFF AND DUP2 MSTORE PUSH1 0x20 ADD SWAP1 DUP2 MSTORE PUSH1 0x20 ADD PUSH1 0x0 KECCAK256 SLOAD GT PUSH2 0x73F JUMPI PUSH1 0x40 MLOAD PUSH32 0x8C379A000000000000000000000000000000000000000000000000000000000 DUP2 MSTORE PUSH1 0x4 ADD PUSH2 0x736 SWAP1 PUSH2 0x1175 JUMP JUMPDEST PUSH1 0x40 MLOAD DUP1 SWAP2 SUB SWAP1 REVERT JUMPDEST PUSH1 0x0 PUSH1 0x7 PUSH1 0x0 DUP4 DUP2 MSTORE PUSH1 0x20 ADD SWAP1 DUP2 MSTORE PUSH1 0x20 ADD PUSH1 0x0 KECCAK256 SWAP1 POP PUSH1 0x0 ISZERO ISZERO DUP2 PUSH1 0x5 ADD PUSH1 0x0 CALLER PUSH20 0xFFFFFFFFFFFFFFFFFFFFFFFFFFFFFFFFFFFFFFFF AND PUSH20 0xFFFFFFFFFFFFFFFFFFFFFFFFFFFFFFFFFFFFFFFF AND DUP2 MSTORE PUSH1 0x20 ADD SWAP1 DUP2 MSTORE PUSH1 0x20 ADD PUSH1 0x0 KECCAK256 PUSH1 0x0 SWAP1 SLOAD SWAP1 PUSH2 0x100 EXP SWAP1 DIV PUSH1 0xFF AND ISZERO ISZERO EQ PUSH2 0x7EB JUMPI PUSH1 0x40 MLOAD PUSH32 0x8C379A000000000000000000000000000000000000000000000000000000000 DUP2 MSTORE PUSH1 0x4 ADD PUSH2 0x7E2 SWAP1 PUSH2 0x10D5 JUMP JUMPDEST PUSH1 0x40 MLOAD DUP1 SWAP2 SUB SWAP1 REVERT JUMPDEST PUSH1 0x1 DUP2 PUSH1 0x5 ADD PUSH1 0x0 CALLER PUSH20 0xFFFFFFFFFFFFFFFFFFFFFFFFFFFFFFFFFFFFFFFF AND PUSH20 0xFFFFFFFFFFFFFFFFFFFFFFFFFFFFFFFFFFFFFFFF AND DUP2 MSTORE PUSH1 0x20 ADD SWAP1 DUP2 MSTORE PUSH1 0x20 ADD PUSH1 0x0 KECCAK256 PUSH1 0x0 PUSH2 0x100 EXP DUP2 SLOAD DUP2 PUSH1 0xFF MUL NOT AND SWAP1 DUP4 ISZERO ISZERO MUL OR SWAP1 SSTORE POP DUP1 PUSH1 0x4 ADD PUSH1 0x0 DUP2 SLOAD DUP1 SWAP3 SWAP2 SWAP1 PUSH2 0x85A SWAP1 PUSH2 0x13DE JUMP JUMPDEST SWAP2 SWAP1 POP SSTORE POP POP POP JUMP JUMPDEST PUSH1 0x1 PUSH1 0x0 SWAP1 SLOAD SWAP1 PUSH2 0x100 EXP SWAP1 DIV PUSH20 0xFFFFFFFFFFFFFFFFFFFFFFFFFFFFFFFFFFFFFFFF AND PUSH20 0xFFFFFFFFFFFFFFFFFFFFFFFFFFFFFFFFFFFFFFFF AND CALLER PUSH20 0xFFFFFFFFFFFFFFFFFFFFFFFFFFFFFFFFFFFFFFFF AND EQ PUSH2 0x8F3 JUMPI PUSH1 0x40 MLOAD PUSH32 0x8C379A000000000000000000000000000000000000000000000000000000000 DUP2 MSTORE PUSH1 0x4 ADD PUSH2 0x8EA SWAP1 PUSH2 0x1115 JUMP JUMPDEST PUSH1 0x40 MLOAD DUP1 SWAP2 SUB SWAP1 REVERT JUMPDEST PUSH1 0x5 SLOAD PUSH1 0x6 SLOAD LT ISZERO PUSH2 0x904 JUMPI PUSH1 0x0 DUP1 REVERT JUMPDEST PUSH1 0x0 PUSH1 0x7 PUSH1 0x0 DUP4 DUP2 MSTORE PUSH1 0x20 ADD SWAP1 DUP2 MSTORE PUSH1 0x20 ADD PUSH1 0x0 KECCAK256 SWAP1 POP PUSH1 0x0 ISZERO ISZERO DUP2 PUSH1 0x3 ADD PUSH1 0x0 SWAP1 SLOAD SWAP1 PUSH2 0x100 EXP SWAP1 DIV PUSH1 0xFF AND ISZERO ISZERO EQ PUSH2 0x973 JUMPI PUSH1 0x40 MLOAD PUSH32 0x8C379A000000000000000000000000000000000000000000000000000000000 DUP2 MSTORE PUSH1 0x4 ADD PUSH2 0x96A SWAP1 PUSH2 0x1155 JUMP JUMPDEST PUSH1 0x40 MLOAD DUP1 SWAP2 SUB SWAP1 REVERT JUMPDEST PUSH1 0x2 DUP1 SLOAD PUSH2 0x981 SWAP2 SWAP1 PUSH2 0x1278 JUMP JUMPDEST DUP2 PUSH1 0x4 ADD SLOAD GT PUSH2 0x990 JUMPI PUSH1 0x0 DUP1 REVERT JUMPDEST DUP1 PUSH1 0x1 ADD PUSH1 0x0 SWAP1 SLOAD SWAP1 PUSH2 0x100 EXP SWAP1 DIV PUSH20 0xFFFFFFFFFFFFFFFFFFFFFFFFFFFFFFFFFFFFFFFF AND PUSH20 0xFFFFFFFFFFFFFFFFFFFFFFFFFFFFFFFFFFFFFFFF AND PUSH2 0x8FC DUP3 PUSH1 0x2 ADD SLOAD SWAP1 DUP2 ISZERO MUL SWAP1 PUSH1 0x40 MLOAD PUSH1 0x0 PUSH1 0x40 MLOAD DUP1 DUP4 SUB DUP2 DUP6 DUP9 DUP9 CALL SWAP4 POP POP POP POP ISZERO DUP1 ISZERO PUSH2 0x9FE JUMPI RETURNDATASIZE PUSH1 0x0 DUP1 RETURNDATACOPY RETURNDATASIZE PUSH1 0x0 REVERT JUMPDEST POP PUSH1 0x1 DUP2 PUSH1 0x3 ADD PUSH1 0x0 PUSH2 0x100 EXP DUP2 SLOAD DUP2 PUSH1 0xFF MUL NOT AND SWAP1 DUP4 ISZERO ISZERO MUL OR SWAP1 SSTORE POP POP POP JUMP JUMPDEST PUSH1 0x7 PUSH1 0x20 MSTORE DUP1 PUSH1 0x0 MSTORE PUSH1 0x40 PUSH1 0x0 KECCAK256 PUSH1 0x0 SWAP2 POP SWAP1 POP DUP1 PUSH1 0x0 ADD DUP1 SLOAD PUSH2 0xA43 SWAP1 PUSH2 0x137B JUMP JUMPDEST DUP1 PUSH1 0x1F ADD PUSH1 0x20 DUP1 SWAP2 DIV MUL PUSH1 0x20 ADD PUSH1 0x40 MLOAD SWAP1 DUP2 ADD PUSH1 0x40 MSTORE DUP1 SWAP3 SWAP2 SWAP1 DUP2 DUP2 MSTORE PUSH1 0x20 ADD DUP3 DUP1 SLOAD PUSH2 0xA6F SWAP1 PUSH2 0x137B JUMP JUMPDEST DUP1 ISZERO PUSH2 0xABC JUMPI DUP1 PUSH1 0x1F LT PUSH2 0xA91 JUMPI PUSH2 0x100 DUP1 DUP4 SLOAD DIV MUL DUP4 MSTORE SWAP2 PUSH1 0x20 ADD SWAP2 PUSH2 0xABC JUMP JUMPDEST DUP3 ADD SWAP2 SWAP1 PUSH1 0x0 MSTORE PUSH1 0x20 PUSH1 0x0 KECCAK256 SWAP1 JUMPDEST DUP2 SLOAD DUP2 MSTORE SWAP1 PUSH1 0x1 ADD SWAP1 PUSH1 0x20 ADD DUP1 DUP4 GT PUSH2 0xA9F JUMPI DUP3 SWAP1 SUB PUSH1 0x1F AND DUP3 ADD SWAP2 JUMPDEST POP POP POP POP POP SWAP1 DUP1 PUSH1 0x1 ADD PUSH1 0x0 SWAP1 SLOAD SWAP1 PUSH2 0x100 EXP SWAP1 DIV PUSH20 0xFFFFFFFFFFFFFFFFFFFFFFFFFFFFFFFFFFFFFFFF AND SWAP1 DUP1 PUSH1 0x2 ADD SLOAD SWAP1 DUP1 PUSH1 0x3 ADD PUSH1 0x0 SWAP1 SLOAD SWAP1 PUSH2 0x100 EXP SWAP1 DIV PUSH1 0xFF AND SWAP1 DUP1 PUSH1 0x4 ADD SLOAD SWAP1 POP DUP6 JUMP JUMPDEST PUSH1 0x3 SLOAD DUP2 JUMP JUMPDEST PUSH1 0x4 SLOAD TIMESTAMP GT DUP1 ISZERO PUSH2 0xB25 JUMPI POP PUSH1 0x5 SLOAD PUSH1 0x6 SLOAD LT JUMPDEST PUSH2 0xB2E JUMPI PUSH1 0x0 DUP1 REVERT JUMPDEST PUSH1 0x0 DUP1 PUSH1 0x0 CALLER PUSH20 0xFFFFFFFFFFFFFFFFFFFFFFFFFFFFFFFFFFFFFFFF AND PUSH20 0xFFFFFFFFFFFFFFFFFFFFFFFFFFFFFFFFFFFFFFFF AND DUP2 MSTORE PUSH1 0x20 ADD SWAP1 DUP2 MSTORE PUSH1 0x20 ADD PUSH1 0x0 KECCAK256 SLOAD GT PUSH2 0xB79 JUMPI PUSH1 0x0 DUP1 REVERT JUMPDEST PUSH1 0x0 CALLER SWAP1 POP PUSH1 0x0 DUP1 PUSH1 0x0 CALLER PUSH20 0xFFFFFFFFFFFFFFFFFFFFFFFFFFFFFFFFFFFFFFFF AND PUSH20 0xFFFFFFFFFFFFFFFFFFFFFFFFFFFFFFFFFFFFFFFF AND DUP2 MSTORE PUSH1 0x20 ADD SWAP1 DUP2 MSTORE PUSH1 0x20 ADD PUSH1 0x0 KECCAK256 SLOAD SWAP1 POP DUP2 PUSH20 0xFFFFFFFFFFFFFFFFFFFFFFFFFFFFFFFFFFFFFFFF AND PUSH2 0x8FC DUP3 SWAP1 DUP2 ISZERO MUL SWAP1 PUSH1 0x40 MLOAD PUSH1 0x0 PUSH1 0x40 MLOAD DUP1 DUP4 SUB DUP2 DUP6 DUP9 DUP9 CALL SWAP4 POP POP POP POP ISZERO DUP1 ISZERO PUSH2 0xC07 JUMPI RETURNDATASIZE PUSH1 0x0 DUP1 RETURNDATACOPY RETURNDATASIZE PUSH1 0x0 REVERT JUMPDEST POP PUSH1 0x0 DUP1 PUSH1 0x0 CALLER PUSH20 0xFFFFFFFFFFFFFFFFFFFFFFFFFFFFFFFFFFFFFFFF AND PUSH20 0xFFFFFFFFFFFFFFFFFFFFFFFFFFFFFFFFFFFFFFFF AND DUP2 MSTORE PUSH1 0x20 ADD SWAP1 DUP2 MSTORE PUSH1 0x20 ADD PUSH1 0x0 KECCAK256 DUP2 SWAP1 SSTORE POP POP POP JUMP JUMPDEST PUSH1 0x6 SLOAD DUP2 JUMP JUMPDEST PUSH1 0x8 SLOAD DUP2 JUMP JUMPDEST PUSH1 0x2 SLOAD DUP2 JUMP JUMPDEST PUSH1 0x1 PUSH1 0x0 SWAP1 SLOAD SWAP1 PUSH2 0x100 EXP SWAP1 DIV PUSH20 0xFFFFFFFFFFFFFFFFFFFFFFFFFFFFFFFFFFFFFFFF AND DUP2 JUMP JUMPDEST DUP3 DUP1 SLOAD PUSH2 0xC94 SWAP1 PUSH2 0x137B JUMP JUMPDEST SWAP1 PUSH1 0x0 MSTORE PUSH1 0x20 PUSH1 0x0 KECCAK256 SWAP1 PUSH1 0x1F ADD PUSH1 0x20 SWAP1 DIV DUP2 ADD SWAP3 DUP3 PUSH2 0xCB6 JUMPI PUSH1 0x0 DUP6 SSTORE PUSH2 0xCFD JUMP JUMPDEST DUP3 PUSH1 0x1F LT PUSH2 0xCCF JUMPI DUP1 MLOAD PUSH1 0xFF NOT AND DUP4 DUP1 ADD OR DUP6 SSTORE PUSH2 0xCFD JUMP JUMPDEST DUP3 DUP1 ADD PUSH1 0x1 ADD DUP6 SSTORE DUP3 ISZERO PUSH2 0xCFD JUMPI SWAP2 DUP3 ADD JUMPDEST DUP3 DUP2 GT ISZERO PUSH2 0xCFC JUMPI DUP3 MLOAD DUP3 SSTORE SWAP2 PUSH1 0x20 ADD SWAP2 SWAP1 PUSH1 0x1 ADD SWAP1 PUSH2 0xCE1 JUMP JUMPDEST JUMPDEST POP SWAP1 POP PUSH2 0xD0A SWAP2 SWAP1 PUSH2 0xD0E JUMP JUMPDEST POP SWAP1 JUMP JUMPDEST JUMPDEST DUP1 DUP3 GT ISZERO PUSH2 0xD27 JUMPI PUSH1 0x0 DUP2 PUSH1 0x0 SWAP1 SSTORE POP PUSH1 0x1 ADD PUSH2 0xD0F JUMP JUMPDEST POP SWAP1 JUMP JUMPDEST PUSH1 0x0 PUSH2 0xD3E PUSH2 0xD39 DUP5 PUSH2 0x11D5 JUMP JUMPDEST PUSH2 0x11B0 JUMP JUMPDEST SWAP1 POP DUP3 DUP2 MSTORE PUSH1 0x20 DUP2 ADD DUP5 DUP5 DUP5 ADD GT ISZERO PUSH2 0xD5A JUMPI PUSH2 0xD59 PUSH2 0x14E8 JUMP JUMPDEST JUMPDEST PUSH2 0xD65 DUP5 DUP3 DUP6 PUSH2 0x1339 JUMP JUMPDEST POP SWAP4 SWAP3 POP POP POP JUMP JUMPDEST PUSH1 0x0 DUP2 CALLDATALOAD SWAP1 POP PUSH2 0xD7C DUP2 PUSH2 0x15FE JUMP JUMPDEST SWAP3 SWAP2 POP POP JUMP JUMPDEST PUSH1 0x0 DUP2 CALLDATALOAD SWAP1 POP PUSH2 0xD91 DUP2 PUSH2 0x1615 JUMP JUMPDEST SWAP3 SWAP2 POP POP JUMP JUMPDEST PUSH1 0x0 DUP3 PUSH1 0x1F DUP4 ADD SLT PUSH2 0xDAC JUMPI PUSH2 0xDAB PUSH2 0x14E3 JUMP JUMPDEST JUMPDEST DUP2 CALLDATALOAD PUSH2 0xDBC DUP5 DUP3 PUSH1 0x20 DUP7 ADD PUSH2 0xD2B JUMP JUMPDEST SWAP2 POP POP SWAP3 SWAP2 POP POP JUMP JUMPDEST PUSH1 0x0 DUP2 CALLDATALOAD SWAP1 POP PUSH2 0xDD4 DUP2 PUSH2 0x162C JUMP JUMPDEST SWAP3 SWAP2 POP POP JUMP JUMPDEST PUSH1 0x0 PUSH1 0x20 DUP3 DUP5 SUB SLT ISZERO PUSH2 0xDF0 JUMPI PUSH2 0xDEF PUSH2 0x14F2 JUMP JUMPDEST JUMPDEST PUSH1 0x0 PUSH2 0xDFE DUP5 DUP3 DUP6 ADD PUSH2 0xD6D JUMP JUMPDEST SWAP2 POP POP SWAP3 SWAP2 POP POP JUMP JUMPDEST PUSH1 0x0 DUP1 PUSH1 0x0 PUSH1 0x60 DUP5 DUP7 SUB SLT ISZERO PUSH2 0xE20 JUMPI PUSH2 0xE1F PUSH2 0x14F2 JUMP JUMPDEST JUMPDEST PUSH1 0x0 DUP5 ADD CALLDATALOAD PUSH8 0xFFFFFFFFFFFFFFFF DUP2 GT ISZERO PUSH2 0xE3E JUMPI PUSH2 0xE3D PUSH2 0x14ED JUMP JUMPDEST JUMPDEST PUSH2 0xE4A DUP7 DUP3 DUP8 ADD PUSH2 0xD97 JUMP JUMPDEST SWAP4 POP POP PUSH1 0x20 PUSH2 0xE5B DUP7 DUP3 DUP8 ADD PUSH2 0xD82 JUMP JUMPDEST SWAP3 POP POP PUSH1 0x40 PUSH2 0xE6C DUP7 DUP3 DUP8 ADD PUSH2 0xDC5 JUMP JUMPDEST SWAP2 POP POP SWAP3 POP SWAP3 POP SWAP3 JUMP JUMPDEST PUSH1 0x0 PUSH1 0x20 DUP3 DUP5 SUB SLT ISZERO PUSH2 0xE8C JUMPI PUSH2 0xE8B PUSH2 0x14F2 JUMP JUMPDEST JUMPDEST PUSH1 0x0 PUSH2 0xE9A DUP5 DUP3 DUP6 ADD PUSH2 0xDC5 JUMP JUMPDEST SWAP2 POP POP SWAP3 SWAP2 POP POP JUMP JUMPDEST PUSH2 0xEAC DUP2 PUSH2 0x1303 JUMP JUMPDEST DUP3 MSTORE POP POP JUMP JUMPDEST PUSH2 0xEBB DUP2 PUSH2 0x12BB JUMP JUMPDEST DUP3 MSTORE POP POP JUMP JUMPDEST PUSH2 0xECA DUP2 PUSH2 0x12A9 JUMP JUMPDEST DUP3 MSTORE POP POP JUMP JUMPDEST PUSH2 0xED9 DUP2 PUSH2 0x12CD JUMP JUMPDEST DUP3 MSTORE POP POP JUMP JUMPDEST PUSH1 0x0 PUSH2 0xEEA DUP3 PUSH2 0x1206 JUMP JUMPDEST PUSH2 0xEF4 DUP2 DUP6 PUSH2 0x1211 JUMP JUMPDEST SWAP4 POP PUSH2 0xF04 DUP2 DUP6 PUSH1 0x20 DUP7 ADD PUSH2 0x1348 JUMP JUMPDEST PUSH2 0xF0D DUP2 PUSH2 0x14F7 JUMP JUMPDEST DUP5 ADD SWAP2 POP POP SWAP3 SWAP2 POP POP JUMP JUMPDEST PUSH1 0x0 PUSH2 0xF25 PUSH1 0x17 DUP4 PUSH2 0x1211 JUMP JUMPDEST SWAP2 POP PUSH2 0xF30 DUP3 PUSH2 0x1508 JUMP JUMPDEST PUSH1 0x20 DUP3 ADD SWAP1 POP SWAP2 SWAP1 POP JUMP JUMPDEST PUSH1 0x0 PUSH2 0xF48 PUSH1 0x14 DUP4 PUSH2 0x1211 JUMP JUMPDEST SWAP2 POP PUSH2 0xF53 DUP3 PUSH2 0x1531 JUMP JUMPDEST PUSH1 0x20 DUP3 ADD SWAP1 POP SWAP2 SWAP1 POP JUMP JUMPDEST PUSH1 0x0 PUSH2 0xF6B PUSH1 0x1A DUP4 PUSH2 0x1211 JUMP JUMPDEST SWAP2 POP PUSH2 0xF76 DUP3 PUSH2 0x155A JUMP JUMPDEST PUSH1 0x20 DUP3 ADD SWAP1 POP SWAP2 SWAP1 POP JUMP JUMPDEST PUSH1 0x0 PUSH2 0xF8E PUSH1 0x1D DUP4 PUSH2 0x1211 JUMP JUMPDEST SWAP2 POP PUSH2 0xF99 DUP3 PUSH2 0x1583 JUMP JUMPDEST PUSH1 0x20 DUP3 ADD SWAP1 POP SWAP2 SWAP1 POP JUMP JUMPDEST PUSH1 0x0 PUSH2 0xFB1 PUSH1 0x1F DUP4 PUSH2 0x1211 JUMP JUMPDEST SWAP2 POP PUSH2 0xFBC DUP3 PUSH2 0x15AC JUMP JUMPDEST PUSH1 0x20 DUP3 ADD SWAP1 POP SWAP2 SWAP1 POP JUMP JUMPDEST PUSH1 0x0 PUSH2 0xFD4 PUSH1 0x1B DUP4 PUSH2 0x1211 JUMP JUMPDEST SWAP2 POP PUSH2 0xFDF DUP3 PUSH2 0x15D5 JUMP JUMPDEST PUSH1 0x20 DUP3 ADD SWAP1 POP SWAP2 SWAP1 POP JUMP JUMPDEST PUSH2 0xFF3 DUP2 PUSH2 0x12F9 JUMP JUMPDEST DUP3 MSTORE POP POP JUMP JUMPDEST PUSH1 0x0 PUSH1 0x20 DUP3 ADD SWAP1 POP PUSH2 0x100E PUSH1 0x0 DUP4 ADD DUP5 PUSH2 0xEC1 JUMP JUMPDEST SWAP3 SWAP2 POP POP JUMP JUMPDEST PUSH1 0x0 PUSH1 0x40 DUP3 ADD SWAP1 POP PUSH2 0x1029 PUSH1 0x0 DUP4 ADD DUP6 PUSH2 0xEC1 JUMP JUMPDEST PUSH2 0x1036 PUSH1 0x20 DUP4 ADD DUP5 PUSH2 0xFEA JUMP JUMPDEST SWAP4 SWAP3 POP POP POP JUMP JUMPDEST PUSH1 0x0 PUSH1 0x60 DUP3 ADD SWAP1 POP DUP2 DUP2 SUB PUSH1 0x0 DUP4 ADD MSTORE PUSH2 0x1057 DUP2 DUP7 PUSH2 0xEDF JUMP JUMPDEST SWAP1 POP PUSH2 0x1066 PUSH1 0x20 DUP4 ADD DUP6 PUSH2 0xEA3 JUMP JUMPDEST PUSH2 0x1073 PUSH1 0x40 DUP4 ADD DUP5 PUSH2 0xFEA JUMP JUMPDEST SWAP5 SWAP4 POP POP POP POP JUMP JUMPDEST PUSH1 0x0 PUSH1 0xA0 DUP3 ADD SWAP1 POP DUP2 DUP2 SUB PUSH1 0x0 DUP4 ADD MSTORE PUSH2 0x1095 DUP2 DUP9 PUSH2 0xEDF JUMP JUMPDEST SWAP1 POP PUSH2 0x10A4 PUSH1 0x20 DUP4 ADD DUP8 PUSH2 0xEB2 JUMP JUMPDEST PUSH2 0x10B1 PUSH1 0x40 DUP4 ADD DUP7 PUSH2 0xFEA JUMP JUMPDEST PUSH2 0x10BE PUSH1 0x60 DUP4 ADD DUP6 PUSH2 0xED0 JUMP JUMPDEST PUSH2 0x10CB PUSH1 0x80 DUP4 ADD DUP5 PUSH2 0xFEA JUMP JUMPDEST SWAP7 SWAP6 POP POP POP POP POP POP JUMP JUMPDEST PUSH1 0x0 PUSH1 0x20 DUP3 ADD SWAP1 POP DUP2 DUP2 SUB PUSH1 0x0 DUP4 ADD MSTORE PUSH2 0x10EE DUP2 PUSH2 0xF18 JUMP JUMPDEST SWAP1 POP SWAP2 SWAP1 POP JUMP JUMPDEST PUSH1 0x0 PUSH1 0x20 DUP3 ADD SWAP1 POP DUP2 DUP2 SUB PUSH1 0x0 DUP4 ADD MSTORE PUSH2 0x110E DUP2 PUSH2 0xF3B JUMP JUMPDEST SWAP1 POP SWAP2 SWAP1 POP JUMP JUMPDEST PUSH1 0x0 PUSH1 0x20 DUP3 ADD SWAP1 POP DUP2 DUP2 SUB PUSH1 0x0 DUP4 ADD MSTORE PUSH2 0x112E DUP2 PUSH2 0xF5E JUMP JUMPDEST SWAP1 POP SWAP2 SWAP1 POP JUMP JUMPDEST PUSH1 0x0 PUSH1 0x20 DUP3 ADD SWAP1 POP DUP2 DUP2 SUB PUSH1 0x0 DUP4 ADD MSTORE PUSH2 0x114E DUP2 PUSH2 0xF81 JUMP JUMPDEST SWAP1 POP SWAP2 SWAP1 POP JUMP JUMPDEST PUSH1 0x0 PUSH1 0x20 DUP3 ADD SWAP1 POP DUP2 DUP2 SUB PUSH1 0x0 DUP4 ADD MSTORE PUSH2 0x116E DUP2 PUSH2 0xFA4 JUMP JUMPDEST SWAP1 POP SWAP2 SWAP1 POP JUMP JUMPDEST PUSH1 0x0 PUSH1 0x20 DUP3 ADD SWAP1 POP DUP2 DUP2 SUB PUSH1 0x0 DUP4 ADD MSTORE PUSH2 0x118E DUP2 PUSH2 0xFC7 JUMP JUMPDEST SWAP1 POP SWAP2 SWAP1 POP JUMP JUMPDEST PUSH1 0x0 PUSH1 0x20 DUP3 ADD SWAP1 POP PUSH2 0x11AA PUSH1 0x0 DUP4 ADD DUP5 PUSH2 0xFEA JUMP JUMPDEST SWAP3 SWAP2 POP POP JUMP JUMPDEST PUSH1 0x0 PUSH2 0x11BA PUSH2 0x11CB JUMP JUMPDEST SWAP1 POP PUSH2 0x11C6 DUP3 DUP3 PUSH2 0x13AD JUMP JUMPDEST SWAP2 SWAP1 POP JUMP JUMPDEST PUSH1 0x0 PUSH1 0x40 MLOAD SWAP1 POP SWAP1 JUMP JUMPDEST PUSH1 0x0 PUSH8 0xFFFFFFFFFFFFFFFF DUP3 GT ISZERO PUSH2 0x11F0 JUMPI PUSH2 0x11EF PUSH2 0x14B4 JUMP JUMPDEST JUMPDEST PUSH2 0x11F9 DUP3 PUSH2 0x14F7 JUMP JUMPDEST SWAP1 POP PUSH1 0x20 DUP2 ADD SWAP1 POP SWAP2 SWAP1 POP JUMP JUMPDEST PUSH1 0x0 DUP2 MLOAD SWAP1 POP SWAP2 SWAP1 POP JUMP JUMPDEST PUSH1 0x0 DUP3 DUP3 MSTORE PUSH1 0x20 DUP3 ADD SWAP1 POP SWAP3 SWAP2 POP POP JUMP JUMPDEST PUSH1 0x0 PUSH2 0x122D DUP3 PUSH2 0x12F9 JUMP JUMPDEST SWAP2 POP PUSH2 0x1238 DUP4 PUSH2 0x12F9 JUMP JUMPDEST SWAP3 POP DUP3 PUSH32 0xFFFFFFFFFFFFFFFFFFFFFFFFFFFFFFFFFFFFFFFFFFFFFFFFFFFFFFFFFFFFFFFF SUB DUP3 GT ISZERO PUSH2 0x126D JUMPI PUSH2 0x126C PUSH2 0x1427 JUMP JUMPDEST JUMPDEST DUP3 DUP3 ADD SWAP1 POP SWAP3 SWAP2 POP POP JUMP JUMPDEST PUSH1 0x0 PUSH2 0x1283 DUP3 PUSH2 0x12F9 JUMP JUMPDEST SWAP2 POP PUSH2 0x128E DUP4 PUSH2 0x12F9 JUMP JUMPDEST SWAP3 POP DUP3 PUSH2 0x129E JUMPI PUSH2 0x129D PUSH2 0x1456 JUMP JUMPDEST JUMPDEST DUP3 DUP3 DIV SWAP1 POP SWAP3 SWAP2 POP POP JUMP JUMPDEST PUSH1 0x0 PUSH2 0x12B4 DUP3 PUSH2 0x12D9 JUMP JUMPDEST SWAP1 POP SWAP2 SWAP1 POP JUMP JUMPDEST PUSH1 0x0 PUSH2 0x12C6 DUP3 PUSH2 0x12D9 JUMP JUMPDEST SWAP1 POP SWAP2 SWAP1 POP JUMP JUMPDEST PUSH1 0x0 DUP2 ISZERO ISZERO SWAP1 POP SWAP2 SWAP1 POP JUMP JUMPDEST PUSH1 0x0 PUSH20 0xFFFFFFFFFFFFFFFFFFFFFFFFFFFFFFFFFFFFFFFF DUP3 AND SWAP1 POP SWAP2 SWAP1 POP JUMP JUMPDEST PUSH1 0x0 DUP2 SWAP1 POP SWAP2 SWAP1 POP JUMP JUMPDEST PUSH1 0x0 PUSH2 0x130E DUP3 PUSH2 0x1315 JUMP JUMPDEST SWAP1 POP SWAP2 SWAP1 POP JUMP JUMPDEST PUSH1 0x0 PUSH2 0x1320 DUP3 PUSH2 0x1327 JUMP JUMPDEST SWAP1 POP SWAP2 SWAP1 POP JUMP JUMPDEST PUSH1 0x0 PUSH2 0x1332 DUP3 PUSH2 0x12D9 JUMP JUMPDEST SWAP1 POP SWAP2 SWAP1 POP JUMP JUMPDEST DUP3 DUP2 DUP4 CALLDATACOPY PUSH1 0x0 DUP4 DUP4 ADD MSTORE POP POP POP JUMP JUMPDEST PUSH1 0x0 JUMPDEST DUP4 DUP2 LT ISZERO PUSH2 0x1366 JUMPI DUP1 DUP3 ADD MLOAD DUP2 DUP5 ADD MSTORE PUSH1 0x20 DUP2 ADD SWAP1 POP PUSH2 0x134B JUMP JUMPDEST DUP4 DUP2 GT ISZERO PUSH2 0x1375 JUMPI PUSH1 0x0 DUP5 DUP5 ADD MSTORE JUMPDEST POP POP POP POP JUMP JUMPDEST PUSH1 0x0 PUSH1 0x2 DUP3 DIV SWAP1 POP PUSH1 0x1 DUP3 AND DUP1 PUSH2 0x1393 JUMPI PUSH1 0x7F DUP3 AND SWAP2 POP JUMPDEST PUSH1 0x20 DUP3 LT DUP2 EQ ISZERO PUSH2 0x13A7 JUMPI PUSH2 0x13A6 PUSH2 0x1485 JUMP JUMPDEST JUMPDEST POP SWAP2 SWAP1 POP JUMP JUMPDEST PUSH2 0x13B6 DUP3 PUSH2 0x14F7 JUMP JUMPDEST DUP2 ADD DUP2 DUP2 LT PUSH8 0xFFFFFFFFFFFFFFFF DUP3 GT OR ISZERO PUSH2 0x13D5 JUMPI PUSH2 0x13D4 PUSH2 0x14B4 JUMP JUMPDEST JUMPDEST DUP1 PUSH1 0x40 MSTORE POP POP POP JUMP JUMPDEST PUSH1 0x0 PUSH2 0x13E9 DUP3 PUSH2 0x12F9 JUMP JUMPDEST SWAP2 POP PUSH32 0xFFFFFFFFFFFFFFFFFFFFFFFFFFFFFFFFFFFFFFFFFFFFFFFFFFFFFFFFFFFFFFFF DUP3 EQ ISZERO PUSH2 0x141C JUMPI PUSH2 0x141B PUSH2 0x1427 JUMP JUMPDEST JUMPDEST PUSH1 0x1 DUP3 ADD SWAP1 POP SWAP2 SWAP1 POP JUMP JUMPDEST PUSH32 0x4E487B7100000000000000000000000000000000000000000000000000000000 PUSH1 0x0 MSTORE PUSH1 0x11 PUSH1 0x4 MSTORE PUSH1 0x24 PUSH1 0x0 REVERT JUMPDEST PUSH32 0x4E487B7100000000000000000000000000000000000000000000000000000000 PUSH1 0x0 MSTORE PUSH1 0x12 PUSH1 0x4 MSTORE PUSH1 0x24 PUSH1 0x0 REVERT JUMPDEST PUSH32 0x4E487B7100000000000000000000000000000000000000000000000000000000 PUSH1 0x0 MSTORE PUSH1 0x22 PUSH1 0x4 MSTORE PUSH1 0x24 PUSH1 0x0 REVERT JUMPDEST PUSH32 0x4E487B7100000000000000000000000000000000000000000000000000000000 PUSH1 0x0 MSTORE PUSH1 0x41 PUSH1 0x4 MSTORE PUSH1 0x24 PUSH1 0x0 REVERT JUMPDEST PUSH1 0x0 DUP1 REVERT JUMPDEST PUSH1 0x0 DUP1 REVERT JUMPDEST PUSH1 0x0 DUP1 REVERT JUMPDEST PUSH1 0x0 DUP1 REVERT JUMPDEST PUSH1 0x0 PUSH1 0x1F NOT PUSH1 0x1F DUP4 ADD AND SWAP1 POP SWAP2 SWAP1 POP JUMP JUMPDEST PUSH32 0x596F75206D6179206F6E6C7920766F7465206F6E63652E000000000000000000 PUSH1 0x0 DUP3 ADD MSTORE POP JUMP JUMPDEST PUSH32 0x446561646C696E6520686173207061737365642E000000000000000000000000 PUSH1 0x0 DUP3 ADD MSTORE POP JUMP JUMPDEST PUSH32 0x41646D696E2070726976656C656765732072657175697265642E000000000000 PUSH1 0x0 DUP3 ADD MSTORE POP JUMP JUMPDEST PUSH32 0x4D696E696D756D20636F6E747269627574696F6E206E6F74206D65742E000000 PUSH1 0x0 DUP3 ADD MSTORE POP JUMP JUMPDEST PUSH32 0x546865207265717565737420686173206265656E20636F6D706C657465642E00 PUSH1 0x0 DUP3 ADD MSTORE POP JUMP JUMPDEST PUSH32 0x596F75206D7573742062652061207573657220746F20766F74652E0000000000 PUSH1 0x0 DUP3 ADD MSTORE POP JUMP JUMPDEST PUSH2 0x1607 DUP2 PUSH2 0x12A9 JUMP JUMPDEST DUP2 EQ PUSH2 0x1612 JUMPI PUSH1 0x0 DUP1 REVERT JUMPDEST POP JUMP JUMPDEST PUSH2 0x161E DUP2 PUSH2 0x12BB JUMP JUMPDEST DUP2 EQ PUSH2 0x1629 JUMPI PUSH1 0x0 DUP1 REVERT JUMPDEST POP JUMP JUMPDEST PUSH2 0x1635 DUP2 PUSH2 0x12F9 JUMP JUMPDEST DUP2 EQ PUSH2 0x1640 JUMPI PUSH1 0x0 DUP1 REVERT JUMPDEST POP JUMP INVALID LOG2 PUSH5 0x6970667358 0x22 SLT KECCAK256 0xFB 0x4A PUSH30 0x999F381AD1924CB4D98A9E16DF436310AD0962037F88AAE0FB2D06EF9364 PUSH20 0x6F6C634300080700330000000000000000000000 "
				},
				"gasEstimates": {
					"creation": {
						"codeDepositCost": "1150600",
						"executionCost": "infinite",
						"totalCost": "infinite"
					},
					"external": {
						"admin()": "2602",
						"contribute()": "infinite",
						"contributors(address)": "2882",
						"createRequest(string,address,uint256)": "infinite",
						"deadline()": "2452",
						"getBalance()": "363",
						"getRefund()": "infinite",
						"goal()": "2474",
						"makePayment(uint256)": "infinite",
						"minimumContribution()": "2474",
						"numberContributors()": "2495",
						"numberRequests()": "2451",
						"raisedAmount()": "2518",
						"requests(uint256)": "infinite",
						"voteRequest(uint256)": "infinite"
					}
				},
				"methodIdentifiers": {
					"admin()": "f851a440",
					"contribute()": "d7bb99ba",
					"contributors(address)": "1f6d4942",
					"createRequest(string,address,uint256)": "1b16bb5c",
					"deadline()": "29dcb0cf",
					"getBalance()": "12065fe0",
					"getRefund()": "b2d5ae44",
					"goal()": "40193883",
					"makePayment(uint256)": "5114cb52",
					"minimumContribution()": "937e09b1",
					"numberContributors()": "f3740daf",
					"numberRequests()": "d3a9d4ea",
					"raisedAmount()": "c59ee1dc",
					"requests(uint256)": "81d12c58",
					"voteRequest(uint256)": "4cb6f4a5"
				}
			},
			"storageLayout": {
				"storage": [
					{
						"astId": 5,
						"contract": "contracts/crowdfunding.sol:CrowdFunding",
						"label": "contributors",
						"offset": 0,
						"slot": "0",
						"type": "t_mapping(t_address,t_uint256)"
					},
					{
						"astId": 7,
						"contract": "contracts/crowdfunding.sol:CrowdFunding",
						"label": "admin",
						"offset": 0,
						"slot": "1",
						"type": "t_address"
					},
					{
						"astId": 9,
						"contract": "contracts/crowdfunding.sol:CrowdFunding",
						"label": "numberContributors",
						"offset": 0,
						"slot": "2",
						"type": "t_uint256"
					},
					{
						"astId": 11,
						"contract": "contracts/crowdfunding.sol:CrowdFunding",
						"label": "minimumContribution",
						"offset": 0,
						"slot": "3",
						"type": "t_uint256"
					},
					{
						"astId": 13,
						"contract": "contracts/crowdfunding.sol:CrowdFunding",
						"label": "deadline",
						"offset": 0,
						"slot": "4",
						"type": "t_uint256"
					},
					{
						"astId": 15,
						"contract": "contracts/crowdfunding.sol:CrowdFunding",
						"label": "goal",
						"offset": 0,
						"slot": "5",
						"type": "t_uint256"
					},
					{
						"astId": 17,
						"contract": "contracts/crowdfunding.sol:CrowdFunding",
						"label": "raisedAmount",
						"offset": 0,
						"slot": "6",
						"type": "t_uint256"
					},
					{
						"astId": 37,
						"contract": "contracts/crowdfunding.sol:CrowdFunding",
						"label": "requests",
						"offset": 0,
						"slot": "7",
						"type": "t_mapping(t_uint256,t_struct(Request)32_storage)"
					},
					{
						"astId": 39,
						"contract": "contracts/crowdfunding.sol:CrowdFunding",
						"label": "numberRequests",
						"offset": 0,
						"slot": "8",
						"type": "t_uint256"
					}
				],
				"types": {
					"t_address": {
						"encoding": "inplace",
						"label": "address",
						"numberOfBytes": "20"
					},
					"t_address_payable": {
						"encoding": "inplace",
						"label": "address payable",
						"numberOfBytes": "20"
					},
					"t_bool": {
						"encoding": "inplace",
						"label": "bool",
						"numberOfBytes": "1"
					},
					"t_mapping(t_address,t_bool)": {
						"encoding": "mapping",
						"key": "t_address",
						"label": "mapping(address => bool)",
						"numberOfBytes": "32",
						"value": "t_bool"
					},
					"t_mapping(t_address,t_uint256)": {
						"encoding": "mapping",
						"key": "t_address",
						"label": "mapping(address => uint256)",
						"numberOfBytes": "32",
						"value": "t_uint256"
					},
					"t_mapping(t_uint256,t_struct(Request)32_storage)": {
						"encoding": "mapping",
						"key": "t_uint256",
						"label": "mapping(uint256 => struct CrowdFunding.Request)",
						"numberOfBytes": "32",
						"value": "t_struct(Request)32_storage"
					},
					"t_string_storage": {
						"encoding": "bytes",
						"label": "string",
						"numberOfBytes": "32"
					},
					"t_struct(Request)32_storage": {
						"encoding": "inplace",
						"label": "struct CrowdFunding.Request",
						"members": [
							{
								"astId": 19,
								"contract": "contracts/crowdfunding.sol:CrowdFunding",
								"label": "description",
								"offset": 0,
								"slot": "0",
								"type": "t_string_storage"
							},
							{
								"astId": 21,
								"contract": "contracts/crowdfunding.sol:CrowdFunding",
								"label": "recipient",
								"offset": 0,
								"slot": "1",
								"type": "t_address_payable"
							},
							{
								"astId": 23,
								"contract": "contracts/crowdfunding.sol:CrowdFunding",
								"label": "value",
								"offset": 0,
								"slot": "2",
								"type": "t_uint256"
							},
							{
								"astId": 25,
								"contract": "contracts/crowdfunding.sol:CrowdFunding",
								"label": "completed",
								"offset": 0,
								"slot": "3",
								"type": "t_bool"
							},
							{
								"astId": 27,
								"contract": "contracts/crowdfunding.sol:CrowdFunding",
								"label": "numberVoters",
								"offset": 0,
								"slot": "4",
								"type": "t_uint256"
							},
							{
								"astId": 31,
								"contract": "contracts/crowdfunding.sol:CrowdFunding",
								"label": "voters",
								"offset": 0,
								"slot": "5",
								"type": "t_mapping(t_address,t_bool)"
							}
						],
						"numberOfBytes": "192"
					},
					"t_uint256": {
						"encoding": "inplace",
						"label": "uint256",
						"numberOfBytes": "32"
					}
				}
			},
			"userdoc": {
				"kind": "user",
				"methods": {},
				"version": 1
			}
		}
	}
}