{
	"contracts/challenge1.sol": {
		"CryptosToken2": {
			"abi": [
				{
					"inputs": [],
					"name": "name",
					"outputs": [
						{
							"internalType": "string",
							"name": "",
							"type": "string"
						}
					],
					"stateMutability": "view",
					"type": "function"
				},
				{
					"inputs": [
						{
							"internalType": "int256",
							"name": "_supply",
							"type": "int256"
						}
					],
					"name": "setSupply",
					"outputs": [],
					"stateMutability": "nonpayable",
					"type": "function"
				}
			],
			"devdoc": {
				"kind": "dev",
				"methods": {},
				"version": 1
			},
			"evm": {
				"assembly": "    /* \"contracts/challenge1.sol\":248:404  contract CryptosToken2{\r... */\n  mstore(0x40, 0x80)\n  callvalue\n  dup1\n  iszero\n  tag_1\n  jumpi\n  0x00\n  dup1\n  revert\ntag_1:\n  pop\n  dataSize(sub_0)\n  dup1\n  dataOffset(sub_0)\n  0x00\n  codecopy\n  0x00\n  return\nstop\n\nsub_0: assembly {\n        /* \"contracts/challenge1.sol\":248:404  contract CryptosToken2{\r... */\n      mstore(0x40, 0x80)\n      callvalue\n      dup1\n      iszero\n      tag_1\n      jumpi\n      0x00\n      dup1\n      revert\n    tag_1:\n      pop\n      jumpi(tag_2, lt(calldatasize, 0x04))\n      shr(0xe0, calldataload(0x00))\n      dup1\n      0x06fdde03\n      eq\n      tag_3\n      jumpi\n      dup1\n      0x8ea8bf03\n      eq\n      tag_4\n      jumpi\n    tag_2:\n      0x00\n      dup1\n      revert\n        /* \"contracts/challenge1.sol\":277:316  string public constant name = \"Cryptos\" */\n    tag_3:\n      tag_5\n      tag_6\n      jump\t// in\n    tag_5:\n      mload(0x40)\n      tag_7\n      swap2\n      swap1\n      tag_8\n      jump\t// in\n    tag_7:\n      mload(0x40)\n      dup1\n      swap2\n      sub\n      swap1\n      return\n        /* \"contracts/challenge1.sol\":343:401  function setSupply(int _supply) public{\r... */\n    tag_4:\n      tag_9\n      0x04\n      dup1\n      calldatasize\n      sub\n      dup2\n      add\n      swap1\n      tag_10\n      swap2\n      swap1\n      tag_11\n      jump\t// in\n    tag_10:\n      tag_12\n      jump\t// in\n    tag_9:\n      stop\n        /* \"contracts/challenge1.sol\":277:316  string public constant name = \"Cryptos\" */\n    tag_6:\n      mload(0x40)\n      dup1\n      0x40\n      add\n      0x40\n      mstore\n      dup1\n      0x07\n      dup2\n      mstore\n      0x20\n      add\n      0x43727970746f7300000000000000000000000000000000000000000000000000\n      dup2\n      mstore\n      pop\n      dup2\n      jump\t// out\n        /* \"contracts/challenge1.sol\":343:401  function setSupply(int _supply) public{\r... */\n    tag_12:\n      pop\n      jump\t// out\n        /* \"#utility.yul\":7:144   */\n    tag_15:\n        /* \"#utility.yul\":52:57   */\n      0x00\n        /* \"#utility.yul\":90:96   */\n      dup2\n        /* \"#utility.yul\":77:97   */\n      calldataload\n        /* \"#utility.yul\":68:97   */\n      swap1\n      pop\n        /* \"#utility.yul\":106:138   */\n      tag_17\n        /* \"#utility.yul\":132:137   */\n      dup2\n        /* \"#utility.yul\":106:138   */\n      tag_18\n      jump\t// in\n    tag_17:\n        /* \"#utility.yul\":7:144   */\n      swap3\n      swap2\n      pop\n      pop\n      jump\t// out\n        /* \"#utility.yul\":150:477   */\n    tag_11:\n        /* \"#utility.yul\":208:214   */\n      0x00\n        /* \"#utility.yul\":257:259   */\n      0x20\n        /* \"#utility.yul\":245:254   */\n      dup3\n        /* \"#utility.yul\":236:243   */\n      dup5\n        /* \"#utility.yul\":232:255   */\n      sub\n        /* \"#utility.yul\":228:260   */\n      slt\n        /* \"#utility.yul\":225:344   */\n      iszero\n      tag_20\n      jumpi\n        /* \"#utility.yul\":263:342   */\n      tag_21\n      tag_22\n      jump\t// in\n    tag_21:\n        /* \"#utility.yul\":225:344   */\n    tag_20:\n        /* \"#utility.yul\":383:384   */\n      0x00\n        /* \"#utility.yul\":408:460   */\n      tag_23\n        /* \"#utility.yul\":452:459   */\n      dup5\n        /* \"#utility.yul\":443:449   */\n      dup3\n        /* \"#utility.yul\":432:441   */\n      dup6\n        /* \"#utility.yul\":428:450   */\n      add\n        /* \"#utility.yul\":408:460   */\n      tag_15\n      jump\t// in\n    tag_23:\n        /* \"#utility.yul\":398:460   */\n      swap2\n      pop\n        /* \"#utility.yul\":354:470   */\n      pop\n        /* \"#utility.yul\":150:477   */\n      swap3\n      swap2\n      pop\n      pop\n      jump\t// out\n        /* \"#utility.yul\":483:847   */\n    tag_24:\n        /* \"#utility.yul\":571:574   */\n      0x00\n        /* \"#utility.yul\":599:638   */\n      tag_26\n        /* \"#utility.yul\":632:637   */\n      dup3\n        /* \"#utility.yul\":599:638   */\n      tag_27\n      jump\t// in\n    tag_26:\n        /* \"#utility.yul\":654:725   */\n      tag_28\n        /* \"#utility.yul\":718:724   */\n      dup2\n        /* \"#utility.yul\":713:716   */\n      dup6\n        /* \"#utility.yul\":654:725   */\n      tag_29\n      jump\t// in\n    tag_28:\n        /* \"#utility.yul\":647:725   */\n      swap4\n      pop\n        /* \"#utility.yul\":734:786   */\n      tag_30\n        /* \"#utility.yul\":779:785   */\n      dup2\n        /* \"#utility.yul\":774:777   */\n      dup6\n        /* \"#utility.yul\":767:771   */\n      0x20\n        /* \"#utility.yul\":760:765   */\n      dup7\n        /* \"#utility.yul\":756:772   */\n      add\n        /* \"#utility.yul\":734:786   */\n      tag_31\n      jump\t// in\n    tag_30:\n        /* \"#utility.yul\":811:840   */\n      tag_32\n        /* \"#utility.yul\":833:839   */\n      dup2\n        /* \"#utility.yul\":811:840   */\n      tag_33\n      jump\t// in\n    tag_32:\n        /* \"#utility.yul\":806:809   */\n      dup5\n        /* \"#utility.yul\":802:841   */\n      add\n        /* \"#utility.yul\":795:841   */\n      swap2\n      pop\n        /* \"#utility.yul\":575:847   */\n      pop\n        /* \"#utility.yul\":483:847   */\n      swap3\n      swap2\n      pop\n      pop\n      jump\t// out\n        /* \"#utility.yul\":853:1166   */\n    tag_8:\n        /* \"#utility.yul\":966:970   */\n      0x00\n        /* \"#utility.yul\":1004:1006   */\n      0x20\n        /* \"#utility.yul\":993:1002   */\n      dup3\n        /* \"#utility.yul\":989:1007   */\n      add\n        /* \"#utility.yul\":981:1007   */\n      swap1\n      pop\n        /* \"#utility.yul\":1053:1062   */\n      dup2\n        /* \"#utility.yul\":1047:1051   */\n      dup2\n        /* \"#utility.yul\":1043:1063   */\n      sub\n        /* \"#utility.yul\":1039:1040   */\n      0x00\n        /* \"#utility.yul\":1028:1037   */\n      dup4\n        /* \"#utility.yul\":1024:1041   */\n      add\n        /* \"#utility.yul\":1017:1064   */\n      mstore\n        /* \"#utility.yul\":1081:1159   */\n      tag_35\n        /* \"#utility.yul\":1154:1158   */\n      dup2\n        /* \"#utility.yul\":1145:1151   */\n      dup5\n        /* \"#utility.yul\":1081:1159   */\n      tag_24\n      jump\t// in\n    tag_35:\n        /* \"#utility.yul\":1073:1159   */\n      swap1\n      pop\n        /* \"#utility.yul\":853:1166   */\n      swap3\n      swap2\n      pop\n      pop\n      jump\t// out\n        /* \"#utility.yul\":1253:1352   */\n    tag_27:\n        /* \"#utility.yul\":1305:1311   */\n      0x00\n        /* \"#utility.yul\":1339:1344   */\n      dup2\n        /* \"#utility.yul\":1333:1345   */\n      mload\n        /* \"#utility.yul\":1323:1345   */\n      swap1\n      pop\n        /* \"#utility.yul\":1253:1352   */\n      swap2\n      swap1\n      pop\n      jump\t// out\n        /* \"#utility.yul\":1358:1527   */\n    tag_29:\n        /* \"#utility.yul\":1442:1453   */\n      0x00\n        /* \"#utility.yul\":1476:1482   */\n      dup3\n        /* \"#utility.yul\":1471:1474   */\n      dup3\n        /* \"#utility.yul\":1464:1483   */\n      mstore\n        /* \"#utility.yul\":1516:1520   */\n      0x20\n        /* \"#utility.yul\":1511:1514   */\n      dup3\n        /* \"#utility.yul\":1507:1521   */\n      add\n        /* \"#utility.yul\":1492:1521   */\n      swap1\n      pop\n        /* \"#utility.yul\":1358:1527   */\n      swap3\n      swap2\n      pop\n      pop\n      jump\t// out\n        /* \"#utility.yul\":1533:1609   */\n    tag_40:\n        /* \"#utility.yul\":1569:1576   */\n      0x00\n        /* \"#utility.yul\":1598:1603   */\n      dup2\n        /* \"#utility.yul\":1587:1603   */\n      swap1\n      pop\n        /* \"#utility.yul\":1533:1609   */\n      swap2\n      swap1\n      pop\n      jump\t// out\n        /* \"#utility.yul\":1615:1922   */\n    tag_31:\n        /* \"#utility.yul\":1683:1684   */\n      0x00\n        /* \"#utility.yul\":1693:1806   */\n    tag_43:\n        /* \"#utility.yul\":1707:1713   */\n      dup4\n        /* \"#utility.yul\":1704:1705   */\n      dup2\n        /* \"#utility.yul\":1701:1714   */\n      lt\n        /* \"#utility.yul\":1693:1806   */\n      iszero\n      tag_45\n      jumpi\n        /* \"#utility.yul\":1792:1793   */\n      dup1\n        /* \"#utility.yul\":1787:1790   */\n      dup3\n        /* \"#utility.yul\":1783:1794   */\n      add\n        /* \"#utility.yul\":1777:1795   */\n      mload\n        /* \"#utility.yul\":1773:1774   */\n      dup2\n        /* \"#utility.yul\":1768:1771   */\n      dup5\n        /* \"#utility.yul\":1764:1775   */\n      add\n        /* \"#utility.yul\":1757:1796   */\n      mstore\n        /* \"#utility.yul\":1729:1731   */\n      0x20\n        /* \"#utility.yul\":1726:1727   */\n      dup2\n        /* \"#utility.yul\":1722:1732   */\n      add\n        /* \"#utility.yul\":1717:1732   */\n      swap1\n      pop\n        /* \"#utility.yul\":1693:1806   */\n      jump(tag_43)\n    tag_45:\n        /* \"#utility.yul\":1824:1830   */\n      dup4\n        /* \"#utility.yul\":1821:1822   */\n      dup2\n        /* \"#utility.yul\":1818:1831   */\n      gt\n        /* \"#utility.yul\":1815:1916   */\n      iszero\n      tag_46\n      jumpi\n        /* \"#utility.yul\":1904:1905   */\n      0x00\n        /* \"#utility.yul\":1895:1901   */\n      dup5\n        /* \"#utility.yul\":1890:1893   */\n      dup5\n        /* \"#utility.yul\":1886:1902   */\n      add\n        /* \"#utility.yul\":1879:1906   */\n      mstore\n        /* \"#utility.yul\":1815:1916   */\n    tag_46:\n        /* \"#utility.yul\":1664:1922   */\n      pop\n        /* \"#utility.yul\":1615:1922   */\n      pop\n      pop\n      pop\n      jump\t// out\n        /* \"#utility.yul\":2051:2168   */\n    tag_22:\n        /* \"#utility.yul\":2160:2161   */\n      0x00\n        /* \"#utility.yul\":2157:2158   */\n      dup1\n        /* \"#utility.yul\":2150:2162   */\n      revert\n        /* \"#utility.yul\":2174:2276   */\n    tag_33:\n        /* \"#utility.yul\":2215:2221   */\n      0x00\n        /* \"#utility.yul\":2266:2268   */\n      0x1f\n        /* \"#utility.yul\":2262:2269   */\n      not\n        /* \"#utility.yul\":2257:2259   */\n      0x1f\n        /* \"#utility.yul\":2250:2255   */\n      dup4\n        /* \"#utility.yul\":2246:2260   */\n      add\n        /* \"#utility.yul\":2242:2270   */\n      and\n        /* \"#utility.yul\":2232:2270   */\n      swap1\n      pop\n        /* \"#utility.yul\":2174:2276   */\n      swap2\n      swap1\n      pop\n      jump\t// out\n        /* \"#utility.yul\":2282:2402   */\n    tag_18:\n        /* \"#utility.yul\":2354:2377   */\n      tag_52\n        /* \"#utility.yul\":2371:2376   */\n      dup2\n        /* \"#utility.yul\":2354:2377   */\n      tag_40\n      jump\t// in\n    tag_52:\n        /* \"#utility.yul\":2347:2352   */\n      dup2\n        /* \"#utility.yul\":2344:2378   */\n      eq\n        /* \"#utility.yul\":2334:2396   */\n      tag_53\n      jumpi\n        /* \"#utility.yul\":2392:2393   */\n      0x00\n        /* \"#utility.yul\":2389:2390   */\n      dup1\n        /* \"#utility.yul\":2382:2394   */\n      revert\n        /* \"#utility.yul\":2334:2396   */\n    tag_53:\n        /* \"#utility.yul\":2282:2402   */\n      pop\n      jump\t// out\n\n    auxdata: 0xa2646970667358221220a529ba9427c5c9e26871f2e82a8fdd4813ebbfbc0d00c09e74fd04bb7b29eb5b64736f6c63430008070033\n}\n",
				"bytecode": {
					"linkReferences": {},
					"object": "608060405234801561001057600080fd5b5061020a806100206000396000f3fe608060405234801561001057600080fd5b50600436106100365760003560e01c806306fdde031461003b5780638ea8bf0314610059575b600080fd5b610043610075565b604051610050919061012c565b60405180910390f35b610073600480360381019061006e91906100c6565b6100ae565b005b6040518060400160405280600781526020017f43727970746f730000000000000000000000000000000000000000000000000081525081565b50565b6000813590506100c0816101bd565b92915050565b6000602082840312156100dc576100db6101a7565b5b60006100ea848285016100b1565b91505092915050565b60006100fe8261014e565b6101088185610159565b9350610118818560208601610174565b610121816101ac565b840191505092915050565b6000602082019050818103600083015261014681846100f3565b905092915050565b600081519050919050565b600082825260208201905092915050565b6000819050919050565b60005b83811015610192578082015181840152602081019050610177565b838111156101a1576000848401525b50505050565b600080fd5b6000601f19601f8301169050919050565b6101c68161016a565b81146101d157600080fd5b5056fea2646970667358221220a529ba9427c5c9e26871f2e82a8fdd4813ebbfbc0d00c09e74fd04bb7b29eb5b64736f6c63430008070033",
					"opcodes": "PUSH1 0x80 PUSH1 0x40 MSTORE CALLVALUE DUP1 ISZERO PUSH2 0x10 JUMPI PUSH1 0x0 DUP1 REVERT JUMPDEST POP PUSH2 0x20A DUP1 PUSH2 0x20 PUSH1 0x0 CODECOPY PUSH1 0x0 RETURN INVALID PUSH1 0x80 PUSH1 0x40 MSTORE CALLVALUE DUP1 ISZERO PUSH2 0x10 JUMPI PUSH1 0x0 DUP1 REVERT JUMPDEST POP PUSH1 0x4 CALLDATASIZE LT PUSH2 0x36 JUMPI PUSH1 0x0 CALLDATALOAD PUSH1 0xE0 SHR DUP1 PUSH4 0x6FDDE03 EQ PUSH2 0x3B JUMPI DUP1 PUSH4 0x8EA8BF03 EQ PUSH2 0x59 JUMPI JUMPDEST PUSH1 0x0 DUP1 REVERT JUMPDEST PUSH2 0x43 PUSH2 0x75 JUMP JUMPDEST PUSH1 0x40 MLOAD PUSH2 0x50 SWAP2 SWAP1 PUSH2 0x12C JUMP JUMPDEST PUSH1 0x40 MLOAD DUP1 SWAP2 SUB SWAP1 RETURN JUMPDEST PUSH2 0x73 PUSH1 0x4 DUP1 CALLDATASIZE SUB DUP2 ADD SWAP1 PUSH2 0x6E SWAP2 SWAP1 PUSH2 0xC6 JUMP JUMPDEST PUSH2 0xAE JUMP JUMPDEST STOP JUMPDEST PUSH1 0x40 MLOAD DUP1 PUSH1 0x40 ADD PUSH1 0x40 MSTORE DUP1 PUSH1 0x7 DUP2 MSTORE PUSH1 0x20 ADD PUSH32 0x43727970746F7300000000000000000000000000000000000000000000000000 DUP2 MSTORE POP DUP2 JUMP JUMPDEST POP JUMP JUMPDEST PUSH1 0x0 DUP2 CALLDATALOAD SWAP1 POP PUSH2 0xC0 DUP2 PUSH2 0x1BD JUMP JUMPDEST SWAP3 SWAP2 POP POP JUMP JUMPDEST PUSH1 0x0 PUSH1 0x20 DUP3 DUP5 SUB SLT ISZERO PUSH2 0xDC JUMPI PUSH2 0xDB PUSH2 0x1A7 JUMP JUMPDEST JUMPDEST PUSH1 0x0 PUSH2 0xEA DUP5 DUP3 DUP6 ADD PUSH2 0xB1 JUMP JUMPDEST SWAP2 POP POP SWAP3 SWAP2 POP POP JUMP JUMPDEST PUSH1 0x0 PUSH2 0xFE DUP3 PUSH2 0x14E JUMP JUMPDEST PUSH2 0x108 DUP2 DUP6 PUSH2 0x159 JUMP JUMPDEST SWAP4 POP PUSH2 0x118 DUP2 DUP6 PUSH1 0x20 DUP7 ADD PUSH2 0x174 JUMP JUMPDEST PUSH2 0x121 DUP2 PUSH2 0x1AC JUMP JUMPDEST DUP5 ADD SWAP2 POP POP SWAP3 SWAP2 POP POP JUMP JUMPDEST PUSH1 0x0 PUSH1 0x20 DUP3 ADD SWAP1 POP DUP2 DUP2 SUB PUSH1 0x0 DUP4 ADD MSTORE PUSH2 0x146 DUP2 DUP5 PUSH2 0xF3 JUMP JUMPDEST SWAP1 POP SWAP3 SWAP2 POP POP JUMP JUMPDEST PUSH1 0x0 DUP2 MLOAD SWAP1 POP SWAP2 SWAP1 POP JUMP JUMPDEST PUSH1 0x0 DUP3 DUP3 MSTORE PUSH1 0x20 DUP3 ADD SWAP1 POP SWAP3 SWAP2 POP POP JUMP JUMPDEST PUSH1 0x0 DUP2 SWAP1 POP SWAP2 SWAP1 POP JUMP JUMPDEST PUSH1 0x0 JUMPDEST DUP4 DUP2 LT ISZERO PUSH2 0x192 JUMPI DUP1 DUP3 ADD MLOAD DUP2 DUP5 ADD MSTORE PUSH1 0x20 DUP2 ADD SWAP1 POP PUSH2 0x177 JUMP JUMPDEST DUP4 DUP2 GT ISZERO PUSH2 0x1A1 JUMPI PUSH1 0x0 DUP5 DUP5 ADD MSTORE JUMPDEST POP POP POP POP JUMP JUMPDEST PUSH1 0x0 DUP1 REVERT JUMPDEST PUSH1 0x0 PUSH1 0x1F NOT PUSH1 0x1F DUP4 ADD AND SWAP1 POP SWAP2 SWAP1 POP JUMP JUMPDEST PUSH2 0x1C6 DUP2 PUSH2 0x16A JUMP JUMPDEST DUP2 EQ PUSH2 0x1D1 JUMPI PUSH1 0x0 DUP1 REVERT JUMPDEST POP JUMP INVALID LOG2 PUSH5 0x6970667358 0x22 SLT KECCAK256 0xA5 0x29 0xBA SWAP5 0x27 0xC5 0xC9 0xE2 PUSH9 0x71F2E82A8FDD4813EB 0xBF 0xBC 0xD STOP 0xC0 SWAP15 PUSH21 0xFD04BB7B29EB5B64736F6C63430008070033000000 "
				},
				"gasEstimates": {
					"creation": {
						"codeDepositCost": "104400",
						"executionCost": "153",
						"totalCost": "104553"
					},
					"external": {
						"name()": "infinite",
						"setSupply(int256)": "406"
					}
				},
				"methodIdentifiers": {
					"name()": "06fdde03",
					"setSupply(int256)": "8ea8bf03"
				}
			},
			"storageLayout": {
				"storage": [
					{
						"astId": 12,
						"contract": "contracts/challenge1.sol:CryptosToken2",
						"label": "supply",
						"offset": 0,
						"slot": "0",
						"type": "t_uint256"
					}
				],
				"types": {
					"t_uint256": {
						"encoding": "inplace",
						"label": "uint256",
						"numberOfBytes": "32"
					}
				}
			},
			"userdoc": {
				"kind": "user",
				"methods": {},
				"version": 1
			}
		}
	}
}