{
	"contracts/structs_guide.sol": {
		"Academy": {
			"abi": [
				{
					"inputs": [
						{
							"internalType": "uint256",
							"name": "_age",
							"type": "uint256"
						},
						{
							"internalType": "string",
							"name": "_name",
							"type": "string"
						}
					],
					"stateMutability": "nonpayable",
					"type": "constructor"
				},
				{
					"inputs": [],
					"name": "academyInstructor",
					"outputs": [
						{
							"internalType": "uint256",
							"name": "age",
							"type": "uint256"
						},
						{
							"internalType": "string",
							"name": "name",
							"type": "string"
						},
						{
							"internalType": "address",
							"name": "addr",
							"type": "address"
						}
					],
					"stateMutability": "view",
					"type": "function"
				}
			],
			"devdoc": {
				"kind": "dev",
				"methods": {},
				"version": 1
			},
			"evm": {
				"assembly": "    /* \"contracts/structs_guide.sol\":200:362  contract Academy{\r... */\n  mstore(0x40, 0x80)\n    /* \"contracts/structs_guide.sol\":298:359  constructor(uint _age, string memory _name){\r... */\n  callvalue\n  dup1\n  iszero\n  tag_1\n  jumpi\n  0x00\n  dup1\n  revert\ntag_1:\n  pop\n  mload(0x40)\n  sub(codesize, bytecodeSize)\n  dup1\n  bytecodeSize\n  dup4\n  codecopy\n  dup2\n  dup2\n  add\n  0x40\n  mstore\n  dup2\n  add\n  swap1\n  tag_2\n  swap2\n  swap1\n  tag_3\n  jump\t// in\ntag_2:\n  pop\n  pop\n    /* \"contracts/structs_guide.sol\":200:362  contract Academy{\r... */\n  jump(tag_6)\n    /* \"#utility.yul\":7:428   */\ntag_8:\n    /* \"#utility.yul\":96:101   */\n  0x00\n    /* \"#utility.yul\":121:187   */\n  tag_10\n    /* \"#utility.yul\":137:186   */\n  tag_11\n    /* \"#utility.yul\":179:185   */\n  dup5\n    /* \"#utility.yul\":137:186   */\n  tag_12\n  jump\t// in\ntag_11:\n    /* \"#utility.yul\":121:187   */\n  tag_13\n  jump\t// in\ntag_10:\n    /* \"#utility.yul\":112:187   */\n  swap1\n  pop\n    /* \"#utility.yul\":210:216   */\n  dup3\n    /* \"#utility.yul\":203:208   */\n  dup2\n    /* \"#utility.yul\":196:217   */\n  mstore\n    /* \"#utility.yul\":248:252   */\n  0x20\n    /* \"#utility.yul\":241:246   */\n  dup2\n    /* \"#utility.yul\":237:253   */\n  add\n    /* \"#utility.yul\":286:289   */\n  dup5\n    /* \"#utility.yul\":277:283   */\n  dup5\n    /* \"#utility.yul\":272:275   */\n  dup5\n    /* \"#utility.yul\":268:284   */\n  add\n    /* \"#utility.yul\":265:290   */\n  gt\n    /* \"#utility.yul\":262:374   */\n  iszero\n  tag_14\n  jumpi\n    /* \"#utility.yul\":293:372   */\n  tag_15\n  tag_16\n  jump\t// in\ntag_15:\n    /* \"#utility.yul\":262:374   */\ntag_14:\n    /* \"#utility.yul\":383:422   */\n  tag_17\n    /* \"#utility.yul\":415:421   */\n  dup5\n    /* \"#utility.yul\":410:413   */\n  dup3\n    /* \"#utility.yul\":405:408   */\n  dup6\n    /* \"#utility.yul\":383:422   */\n  tag_18\n  jump\t// in\ntag_17:\n    /* \"#utility.yul\":102:428   */\n  pop\n    /* \"#utility.yul\":7:428   */\n  swap4\n  swap3\n  pop\n  pop\n  pop\n  jump\t// out\n    /* \"#utility.yul\":448:803   */\ntag_19:\n    /* \"#utility.yul\":515:520   */\n  0x00\n    /* \"#utility.yul\":564:567   */\n  dup3\n    /* \"#utility.yul\":557:561   */\n  0x1f\n    /* \"#utility.yul\":549:555   */\n  dup4\n    /* \"#utility.yul\":545:562   */\n  add\n    /* \"#utility.yul\":541:568   */\n  slt\n    /* \"#utility.yul\":531:653   */\n  tag_21\n  jumpi\n    /* \"#utility.yul\":572:651   */\n  tag_22\n  tag_23\n  jump\t// in\ntag_22:\n    /* \"#utility.yul\":531:653   */\ntag_21:\n    /* \"#utility.yul\":682:688   */\n  dup2\n    /* \"#utility.yul\":676:689   */\n  mload\n    /* \"#utility.yul\":707:797   */\n  tag_24\n    /* \"#utility.yul\":793:796   */\n  dup5\n    /* \"#utility.yul\":785:791   */\n  dup3\n    /* \"#utility.yul\":778:782   */\n  0x20\n    /* \"#utility.yul\":770:776   */\n  dup7\n    /* \"#utility.yul\":766:783   */\n  add\n    /* \"#utility.yul\":707:797   */\n  tag_8\n  jump\t// in\ntag_24:\n    /* \"#utility.yul\":698:797   */\n  swap2\n  pop\n    /* \"#utility.yul\":521:803   */\n  pop\n    /* \"#utility.yul\":448:803   */\n  swap3\n  swap2\n  pop\n  pop\n  jump\t// out\n    /* \"#utility.yul\":809:952   */\ntag_25:\n    /* \"#utility.yul\":866:871   */\n  0x00\n    /* \"#utility.yul\":897:903   */\n  dup2\n    /* \"#utility.yul\":891:904   */\n  mload\n    /* \"#utility.yul\":882:904   */\n  swap1\n  pop\n    /* \"#utility.yul\":913:946   */\n  tag_27\n    /* \"#utility.yul\":940:945   */\n  dup2\n    /* \"#utility.yul\":913:946   */\n  tag_28\n  jump\t// in\ntag_27:\n    /* \"#utility.yul\":809:952   */\n  swap3\n  swap2\n  pop\n  pop\n  jump\t// out\n    /* \"#utility.yul\":958:1638   */\ntag_3:\n    /* \"#utility.yul\":1047:1053   */\n  0x00\n    /* \"#utility.yul\":1055:1061   */\n  dup1\n    /* \"#utility.yul\":1104:1106   */\n  0x40\n    /* \"#utility.yul\":1092:1101   */\n  dup4\n    /* \"#utility.yul\":1083:1090   */\n  dup6\n    /* \"#utility.yul\":1079:1102   */\n  sub\n    /* \"#utility.yul\":1075:1107   */\n  slt\n    /* \"#utility.yul\":1072:1191   */\n  iszero\n  tag_30\n  jumpi\n    /* \"#utility.yul\":1110:1189   */\n  tag_31\n  tag_32\n  jump\t// in\ntag_31:\n    /* \"#utility.yul\":1072:1191   */\ntag_30:\n    /* \"#utility.yul\":1230:1231   */\n  0x00\n    /* \"#utility.yul\":1255:1319   */\n  tag_33\n    /* \"#utility.yul\":1311:1318   */\n  dup6\n    /* \"#utility.yul\":1302:1308   */\n  dup3\n    /* \"#utility.yul\":1291:1300   */\n  dup7\n    /* \"#utility.yul\":1287:1309   */\n  add\n    /* \"#utility.yul\":1255:1319   */\n  tag_25\n  jump\t// in\ntag_33:\n    /* \"#utility.yul\":1245:1319   */\n  swap3\n  pop\n    /* \"#utility.yul\":1201:1329   */\n  pop\n    /* \"#utility.yul\":1389:1391   */\n  0x20\n    /* \"#utility.yul\":1378:1387   */\n  dup4\n    /* \"#utility.yul\":1374:1392   */\n  add\n    /* \"#utility.yul\":1368:1393   */\n  mload\n    /* \"#utility.yul\":1420:1438   */\n  0xffffffffffffffff\n    /* \"#utility.yul\":1412:1418   */\n  dup2\n    /* \"#utility.yul\":1409:1439   */\n  gt\n    /* \"#utility.yul\":1406:1523   */\n  iszero\n  tag_34\n  jumpi\n    /* \"#utility.yul\":1442:1521   */\n  tag_35\n  tag_36\n  jump\t// in\ntag_35:\n    /* \"#utility.yul\":1406:1523   */\ntag_34:\n    /* \"#utility.yul\":1547:1621   */\n  tag_37\n    /* \"#utility.yul\":1613:1620   */\n  dup6\n    /* \"#utility.yul\":1604:1610   */\n  dup3\n    /* \"#utility.yul\":1593:1602   */\n  dup7\n    /* \"#utility.yul\":1589:1611   */\n  add\n    /* \"#utility.yul\":1547:1621   */\n  tag_19\n  jump\t// in\ntag_37:\n    /* \"#utility.yul\":1537:1621   */\n  swap2\n  pop\n    /* \"#utility.yul\":1339:1631   */\n  pop\n    /* \"#utility.yul\":958:1638   */\n  swap3\n  pop\n  swap3\n  swap1\n  pop\n  jump\t// out\n    /* \"#utility.yul\":1644:1773   */\ntag_13:\n    /* \"#utility.yul\":1678:1684   */\n  0x00\n    /* \"#utility.yul\":1705:1725   */\n  tag_39\n  tag_40\n  jump\t// in\ntag_39:\n    /* \"#utility.yul\":1695:1725   */\n  swap1\n  pop\n    /* \"#utility.yul\":1734:1767   */\n  tag_41\n    /* \"#utility.yul\":1762:1766   */\n  dup3\n    /* \"#utility.yul\":1754:1760   */\n  dup3\n    /* \"#utility.yul\":1734:1767   */\n  tag_42\n  jump\t// in\ntag_41:\n    /* \"#utility.yul\":1644:1773   */\n  swap2\n  swap1\n  pop\n  jump\t// out\n    /* \"#utility.yul\":1779:1854   */\ntag_40:\n    /* \"#utility.yul\":1812:1818   */\n  0x00\n    /* \"#utility.yul\":1845:1847   */\n  0x40\n    /* \"#utility.yul\":1839:1848   */\n  mload\n    /* \"#utility.yul\":1829:1848   */\n  swap1\n  pop\n    /* \"#utility.yul\":1779:1854   */\n  swap1\n  jump\t// out\n    /* \"#utility.yul\":1860:2168   */\ntag_12:\n    /* \"#utility.yul\":1922:1926   */\n  0x00\n    /* \"#utility.yul\":2012:2030   */\n  0xffffffffffffffff\n    /* \"#utility.yul\":2004:2010   */\n  dup3\n    /* \"#utility.yul\":2001:2031   */\n  gt\n    /* \"#utility.yul\":1998:2054   */\n  iszero\n  tag_45\n  jumpi\n    /* \"#utility.yul\":2034:2052   */\n  tag_46\n  tag_47\n  jump\t// in\ntag_46:\n    /* \"#utility.yul\":1998:2054   */\ntag_45:\n    /* \"#utility.yul\":2072:2101   */\n  tag_48\n    /* \"#utility.yul\":2094:2100   */\n  dup3\n    /* \"#utility.yul\":2072:2101   */\n  tag_49\n  jump\t// in\ntag_48:\n    /* \"#utility.yul\":2064:2101   */\n  swap1\n  pop\n    /* \"#utility.yul\":2156:2160   */\n  0x20\n    /* \"#utility.yul\":2150:2154   */\n  dup2\n    /* \"#utility.yul\":2146:2161   */\n  add\n    /* \"#utility.yul\":2138:2161   */\n  swap1\n  pop\n    /* \"#utility.yul\":1860:2168   */\n  swap2\n  swap1\n  pop\n  jump\t// out\n    /* \"#utility.yul\":2174:2251   */\ntag_50:\n    /* \"#utility.yul\":2211:2218   */\n  0x00\n    /* \"#utility.yul\":2240:2245   */\n  dup2\n    /* \"#utility.yul\":2229:2245   */\n  swap1\n  pop\n    /* \"#utility.yul\":2174:2251   */\n  swap2\n  swap1\n  pop\n  jump\t// out\n    /* \"#utility.yul\":2257:2564   */\ntag_18:\n    /* \"#utility.yul\":2325:2326   */\n  0x00\n    /* \"#utility.yul\":2335:2448   */\ntag_53:\n    /* \"#utility.yul\":2349:2355   */\n  dup4\n    /* \"#utility.yul\":2346:2347   */\n  dup2\n    /* \"#utility.yul\":2343:2356   */\n  lt\n    /* \"#utility.yul\":2335:2448   */\n  iszero\n  tag_55\n  jumpi\n    /* \"#utility.yul\":2434:2435   */\n  dup1\n    /* \"#utility.yul\":2429:2432   */\n  dup3\n    /* \"#utility.yul\":2425:2436   */\n  add\n    /* \"#utility.yul\":2419:2437   */\n  mload\n    /* \"#utility.yul\":2415:2416   */\n  dup2\n    /* \"#utility.yul\":2410:2413   */\n  dup5\n    /* \"#utility.yul\":2406:2417   */\n  add\n    /* \"#utility.yul\":2399:2438   */\n  mstore\n    /* \"#utility.yul\":2371:2373   */\n  0x20\n    /* \"#utility.yul\":2368:2369   */\n  dup2\n    /* \"#utility.yul\":2364:2374   */\n  add\n    /* \"#utility.yul\":2359:2374   */\n  swap1\n  pop\n    /* \"#utility.yul\":2335:2448   */\n  jump(tag_53)\ntag_55:\n    /* \"#utility.yul\":2466:2472   */\n  dup4\n    /* \"#utility.yul\":2463:2464   */\n  dup2\n    /* \"#utility.yul\":2460:2473   */\n  gt\n    /* \"#utility.yul\":2457:2558   */\n  iszero\n  tag_56\n  jumpi\n    /* \"#utility.yul\":2546:2547   */\n  0x00\n    /* \"#utility.yul\":2537:2543   */\n  dup5\n    /* \"#utility.yul\":2532:2535   */\n  dup5\n    /* \"#utility.yul\":2528:2544   */\n  add\n    /* \"#utility.yul\":2521:2548   */\n  mstore\n    /* \"#utility.yul\":2457:2558   */\ntag_56:\n    /* \"#utility.yul\":2306:2564   */\n  pop\n    /* \"#utility.yul\":2257:2564   */\n  pop\n  pop\n  pop\n  jump\t// out\n    /* \"#utility.yul\":2570:2851   */\ntag_42:\n    /* \"#utility.yul\":2653:2680   */\n  tag_58\n    /* \"#utility.yul\":2675:2679   */\n  dup3\n    /* \"#utility.yul\":2653:2680   */\n  tag_49\n  jump\t// in\ntag_58:\n    /* \"#utility.yul\":2645:2651   */\n  dup2\n    /* \"#utility.yul\":2641:2681   */\n  add\n    /* \"#utility.yul\":2783:2789   */\n  dup2\n    /* \"#utility.yul\":2771:2781   */\n  dup2\n    /* \"#utility.yul\":2768:2790   */\n  lt\n    /* \"#utility.yul\":2747:2765   */\n  0xffffffffffffffff\n    /* \"#utility.yul\":2735:2745   */\n  dup3\n    /* \"#utility.yul\":2732:2766   */\n  gt\n    /* \"#utility.yul\":2729:2791   */\n  or\n    /* \"#utility.yul\":2726:2814   */\n  iszero\n  tag_59\n  jumpi\n    /* \"#utility.yul\":2794:2812   */\n  tag_60\n  tag_47\n  jump\t// in\ntag_60:\n    /* \"#utility.yul\":2726:2814   */\ntag_59:\n    /* \"#utility.yul\":2834:2844   */\n  dup1\n    /* \"#utility.yul\":2830:2832   */\n  0x40\n    /* \"#utility.yul\":2823:2845   */\n  mstore\n    /* \"#utility.yul\":2613:2851   */\n  pop\n    /* \"#utility.yul\":2570:2851   */\n  pop\n  pop\n  jump\t// out\n    /* \"#utility.yul\":2857:3037   */\ntag_47:\n    /* \"#utility.yul\":2905:2982   */\n  0x4e487b7100000000000000000000000000000000000000000000000000000000\n    /* \"#utility.yul\":2902:2903   */\n  0x00\n    /* \"#utility.yul\":2895:2983   */\n  mstore\n    /* \"#utility.yul\":3002:3006   */\n  0x41\n    /* \"#utility.yul\":2999:3000   */\n  0x04\n    /* \"#utility.yul\":2992:3007   */\n  mstore\n    /* \"#utility.yul\":3026:3030   */\n  0x24\n    /* \"#utility.yul\":3023:3024   */\n  0x00\n    /* \"#utility.yul\":3016:3031   */\n  revert\n    /* \"#utility.yul\":3043:3160   */\ntag_23:\n    /* \"#utility.yul\":3152:3153   */\n  0x00\n    /* \"#utility.yul\":3149:3150   */\n  dup1\n    /* \"#utility.yul\":3142:3154   */\n  revert\n    /* \"#utility.yul\":3166:3283   */\ntag_16:\n    /* \"#utility.yul\":3275:3276   */\n  0x00\n    /* \"#utility.yul\":3272:3273   */\n  dup1\n    /* \"#utility.yul\":3265:3277   */\n  revert\n    /* \"#utility.yul\":3289:3406   */\ntag_36:\n    /* \"#utility.yul\":3398:3399   */\n  0x00\n    /* \"#utility.yul\":3395:3396   */\n  dup1\n    /* \"#utility.yul\":3388:3400   */\n  revert\n    /* \"#utility.yul\":3412:3529   */\ntag_32:\n    /* \"#utility.yul\":3521:3522   */\n  0x00\n    /* \"#utility.yul\":3518:3519   */\n  dup1\n    /* \"#utility.yul\":3511:3523   */\n  revert\n    /* \"#utility.yul\":3535:3637   */\ntag_49:\n    /* \"#utility.yul\":3576:3582   */\n  0x00\n    /* \"#utility.yul\":3627:3629   */\n  0x1f\n    /* \"#utility.yul\":3623:3630   */\n  not\n    /* \"#utility.yul\":3618:3620   */\n  0x1f\n    /* \"#utility.yul\":3611:3616   */\n  dup4\n    /* \"#utility.yul\":3607:3621   */\n  add\n    /* \"#utility.yul\":3603:3631   */\n  and\n    /* \"#utility.yul\":3593:3631   */\n  swap1\n  pop\n    /* \"#utility.yul\":3535:3637   */\n  swap2\n  swap1\n  pop\n  jump\t// out\n    /* \"#utility.yul\":3643:3765   */\ntag_28:\n    /* \"#utility.yul\":3716:3740   */\n  tag_68\n    /* \"#utility.yul\":3734:3739   */\n  dup2\n    /* \"#utility.yul\":3716:3740   */\n  tag_50\n  jump\t// in\ntag_68:\n    /* \"#utility.yul\":3709:3714   */\n  dup2\n    /* \"#utility.yul\":3706:3741   */\n  eq\n    /* \"#utility.yul\":3696:3759   */\n  tag_69\n  jumpi\n    /* \"#utility.yul\":3755:3756   */\n  0x00\n    /* \"#utility.yul\":3752:3753   */\n  dup1\n    /* \"#utility.yul\":3745:3757   */\n  revert\n    /* \"#utility.yul\":3696:3759   */\ntag_69:\n    /* \"#utility.yul\":3643:3765   */\n  pop\n  jump\t// out\n    /* \"contracts/structs_guide.sol\":200:362  contract Academy{\r... */\ntag_6:\n  dataSize(sub_0)\n  dup1\n  dataOffset(sub_0)\n  0x00\n  codecopy\n  0x00\n  return\nstop\n\nsub_0: assembly {\n        /* \"contracts/structs_guide.sol\":200:362  contract Academy{\r... */\n      mstore(0x40, 0x80)\n      callvalue\n      dup1\n      iszero\n      tag_1\n      jumpi\n      0x00\n      dup1\n      revert\n    tag_1:\n      pop\n      jumpi(tag_2, lt(calldatasize, 0x04))\n      shr(0xe0, calldataload(0x00))\n      dup1\n      0x54248841\n      eq\n      tag_3\n      jumpi\n    tag_2:\n      0x00\n      dup1\n      revert\n        /* \"contracts/structs_guide.sol\":223:258  Instructor public academyInstructor */\n    tag_3:\n      tag_4\n      tag_5\n      jump\t// in\n    tag_4:\n      mload(0x40)\n      tag_6\n      swap4\n      swap3\n      swap2\n      swap1\n      tag_7\n      jump\t// in\n    tag_6:\n      mload(0x40)\n      dup1\n      swap2\n      sub\n      swap1\n      return\n    tag_5:\n      0x00\n      dup1\n      0x00\n      add\n      sload\n      swap1\n      dup1\n      0x01\n      add\n      dup1\n      sload\n      tag_8\n      swap1\n      tag_9\n      jump\t// in\n    tag_8:\n      dup1\n      0x1f\n      add\n      0x20\n      dup1\n      swap2\n      div\n      mul\n      0x20\n      add\n      mload(0x40)\n      swap1\n      dup2\n      add\n      0x40\n      mstore\n      dup1\n      swap3\n      swap2\n      swap1\n      dup2\n      dup2\n      mstore\n      0x20\n      add\n      dup3\n      dup1\n      sload\n      tag_10\n      swap1\n      tag_9\n      jump\t// in\n    tag_10:\n      dup1\n      iszero\n      tag_11\n      jumpi\n      dup1\n      0x1f\n      lt\n      tag_12\n      jumpi\n      0x0100\n      dup1\n      dup4\n      sload\n      div\n      mul\n      dup4\n      mstore\n      swap2\n      0x20\n      add\n      swap2\n      jump(tag_11)\n    tag_12:\n      dup3\n      add\n      swap2\n      swap1\n      0x00\n      mstore\n      keccak256(0x00, 0x20)\n      swap1\n    tag_13:\n      dup2\n      sload\n      dup2\n      mstore\n      swap1\n      0x01\n      add\n      swap1\n      0x20\n      add\n      dup1\n      dup4\n      gt\n      tag_13\n      jumpi\n      dup3\n      swap1\n      sub\n      0x1f\n      and\n      dup3\n      add\n      swap2\n    tag_11:\n      pop\n      pop\n      pop\n      pop\n      pop\n      swap1\n      dup1\n      0x02\n      add\n      0x00\n      swap1\n      sload\n      swap1\n      0x0100\n      exp\n      swap1\n      div\n      0xffffffffffffffffffffffffffffffffffffffff\n      and\n      swap1\n      pop\n      dup4\n      jump\t// out\n        /* \"#utility.yul\":7:125   */\n    tag_15:\n        /* \"#utility.yul\":94:118   */\n      tag_17\n        /* \"#utility.yul\":112:117   */\n      dup2\n        /* \"#utility.yul\":94:118   */\n      tag_18\n      jump\t// in\n    tag_17:\n        /* \"#utility.yul\":89:92   */\n      dup3\n        /* \"#utility.yul\":82:119   */\n      mstore\n        /* \"#utility.yul\":7:125   */\n      pop\n      pop\n      jump\t// out\n        /* \"#utility.yul\":131:495   */\n    tag_19:\n        /* \"#utility.yul\":219:222   */\n      0x00\n        /* \"#utility.yul\":247:286   */\n      tag_21\n        /* \"#utility.yul\":280:285   */\n      dup3\n        /* \"#utility.yul\":247:286   */\n      tag_22\n      jump\t// in\n    tag_21:\n        /* \"#utility.yul\":302:373   */\n      tag_23\n        /* \"#utility.yul\":366:372   */\n      dup2\n        /* \"#utility.yul\":361:364   */\n      dup6\n        /* \"#utility.yul\":302:373   */\n      tag_24\n      jump\t// in\n    tag_23:\n        /* \"#utility.yul\":295:373   */\n      swap4\n      pop\n        /* \"#utility.yul\":382:434   */\n      tag_25\n        /* \"#utility.yul\":427:433   */\n      dup2\n        /* \"#utility.yul\":422:425   */\n      dup6\n        /* \"#utility.yul\":415:419   */\n      0x20\n        /* \"#utility.yul\":408:413   */\n      dup7\n        /* \"#utility.yul\":404:420   */\n      add\n        /* \"#utility.yul\":382:434   */\n      tag_26\n      jump\t// in\n    tag_25:\n        /* \"#utility.yul\":459:488   */\n      tag_27\n        /* \"#utility.yul\":481:487   */\n      dup2\n        /* \"#utility.yul\":459:488   */\n      tag_28\n      jump\t// in\n    tag_27:\n        /* \"#utility.yul\":454:457   */\n      dup5\n        /* \"#utility.yul\":450:489   */\n      add\n        /* \"#utility.yul\":443:489   */\n      swap2\n      pop\n        /* \"#utility.yul\":223:495   */\n      pop\n        /* \"#utility.yul\":131:495   */\n      swap3\n      swap2\n      pop\n      pop\n      jump\t// out\n        /* \"#utility.yul\":501:619   */\n    tag_29:\n        /* \"#utility.yul\":588:612   */\n      tag_31\n        /* \"#utility.yul\":606:611   */\n      dup2\n        /* \"#utility.yul\":588:612   */\n      tag_32\n      jump\t// in\n    tag_31:\n        /* \"#utility.yul\":583:586   */\n      dup3\n        /* \"#utility.yul\":576:613   */\n      mstore\n        /* \"#utility.yul\":501:619   */\n      pop\n      pop\n      jump\t// out\n        /* \"#utility.yul\":625:1158   */\n    tag_7:\n        /* \"#utility.yul\":794:798   */\n      0x00\n        /* \"#utility.yul\":832:834   */\n      0x60\n        /* \"#utility.yul\":821:830   */\n      dup3\n        /* \"#utility.yul\":817:835   */\n      add\n        /* \"#utility.yul\":809:835   */\n      swap1\n      pop\n        /* \"#utility.yul\":845:916   */\n      tag_34\n        /* \"#utility.yul\":913:914   */\n      0x00\n        /* \"#utility.yul\":902:911   */\n      dup4\n        /* \"#utility.yul\":898:915   */\n      add\n        /* \"#utility.yul\":889:895   */\n      dup7\n        /* \"#utility.yul\":845:916   */\n      tag_29\n      jump\t// in\n    tag_34:\n        /* \"#utility.yul\":963:972   */\n      dup2\n        /* \"#utility.yul\":957:961   */\n      dup2\n        /* \"#utility.yul\":953:973   */\n      sub\n        /* \"#utility.yul\":948:950   */\n      0x20\n        /* \"#utility.yul\":937:946   */\n      dup4\n        /* \"#utility.yul\":933:951   */\n      add\n        /* \"#utility.yul\":926:974   */\n      mstore\n        /* \"#utility.yul\":991:1069   */\n      tag_35\n        /* \"#utility.yul\":1064:1068   */\n      dup2\n        /* \"#utility.yul\":1055:1061   */\n      dup6\n        /* \"#utility.yul\":991:1069   */\n      tag_19\n      jump\t// in\n    tag_35:\n        /* \"#utility.yul\":983:1069   */\n      swap1\n      pop\n        /* \"#utility.yul\":1079:1151   */\n      tag_36\n        /* \"#utility.yul\":1147:1149   */\n      0x40\n        /* \"#utility.yul\":1136:1145   */\n      dup4\n        /* \"#utility.yul\":1132:1150   */\n      add\n        /* \"#utility.yul\":1123:1129   */\n      dup5\n        /* \"#utility.yul\":1079:1151   */\n      tag_15\n      jump\t// in\n    tag_36:\n        /* \"#utility.yul\":625:1158   */\n      swap5\n      swap4\n      pop\n      pop\n      pop\n      pop\n      jump\t// out\n        /* \"#utility.yul\":1164:1263   */\n    tag_22:\n        /* \"#utility.yul\":1216:1222   */\n      0x00\n        /* \"#utility.yul\":1250:1255   */\n      dup2\n        /* \"#utility.yul\":1244:1256   */\n      mload\n        /* \"#utility.yul\":1234:1256   */\n      swap1\n      pop\n        /* \"#utility.yul\":1164:1263   */\n      swap2\n      swap1\n      pop\n      jump\t// out\n        /* \"#utility.yul\":1269:1438   */\n    tag_24:\n        /* \"#utility.yul\":1353:1364   */\n      0x00\n        /* \"#utility.yul\":1387:1393   */\n      dup3\n        /* \"#utility.yul\":1382:1385   */\n      dup3\n        /* \"#utility.yul\":1375:1394   */\n      mstore\n        /* \"#utility.yul\":1427:1431   */\n      0x20\n        /* \"#utility.yul\":1422:1425   */\n      dup3\n        /* \"#utility.yul\":1418:1432   */\n      add\n        /* \"#utility.yul\":1403:1432   */\n      swap1\n      pop\n        /* \"#utility.yul\":1269:1438   */\n      swap3\n      swap2\n      pop\n      pop\n      jump\t// out\n        /* \"#utility.yul\":1444:1540   */\n    tag_18:\n        /* \"#utility.yul\":1481:1488   */\n      0x00\n        /* \"#utility.yul\":1510:1534   */\n      tag_40\n        /* \"#utility.yul\":1528:1533   */\n      dup3\n        /* \"#utility.yul\":1510:1534   */\n      tag_41\n      jump\t// in\n    tag_40:\n        /* \"#utility.yul\":1499:1534   */\n      swap1\n      pop\n        /* \"#utility.yul\":1444:1540   */\n      swap2\n      swap1\n      pop\n      jump\t// out\n        /* \"#utility.yul\":1546:1672   */\n    tag_41:\n        /* \"#utility.yul\":1583:1590   */\n      0x00\n        /* \"#utility.yul\":1623:1665   */\n      0xffffffffffffffffffffffffffffffffffffffff\n        /* \"#utility.yul\":1616:1621   */\n      dup3\n        /* \"#utility.yul\":1612:1666   */\n      and\n        /* \"#utility.yul\":1601:1666   */\n      swap1\n      pop\n        /* \"#utility.yul\":1546:1672   */\n      swap2\n      swap1\n      pop\n      jump\t// out\n        /* \"#utility.yul\":1678:1755   */\n    tag_32:\n        /* \"#utility.yul\":1715:1722   */\n      0x00\n        /* \"#utility.yul\":1744:1749   */\n      dup2\n        /* \"#utility.yul\":1733:1749   */\n      swap1\n      pop\n        /* \"#utility.yul\":1678:1755   */\n      swap2\n      swap1\n      pop\n      jump\t// out\n        /* \"#utility.yul\":1761:2068   */\n    tag_26:\n        /* \"#utility.yul\":1829:1830   */\n      0x00\n        /* \"#utility.yul\":1839:1952   */\n    tag_45:\n        /* \"#utility.yul\":1853:1859   */\n      dup4\n        /* \"#utility.yul\":1850:1851   */\n      dup2\n        /* \"#utility.yul\":1847:1860   */\n      lt\n        /* \"#utility.yul\":1839:1952   */\n      iszero\n      tag_47\n      jumpi\n        /* \"#utility.yul\":1938:1939   */\n      dup1\n        /* \"#utility.yul\":1933:1936   */\n      dup3\n        /* \"#utility.yul\":1929:1940   */\n      add\n        /* \"#utility.yul\":1923:1941   */\n      mload\n        /* \"#utility.yul\":1919:1920   */\n      dup2\n        /* \"#utility.yul\":1914:1917   */\n      dup5\n        /* \"#utility.yul\":1910:1921   */\n      add\n        /* \"#utility.yul\":1903:1942   */\n      mstore\n        /* \"#utility.yul\":1875:1877   */\n      0x20\n        /* \"#utility.yul\":1872:1873   */\n      dup2\n        /* \"#utility.yul\":1868:1878   */\n      add\n        /* \"#utility.yul\":1863:1878   */\n      swap1\n      pop\n        /* \"#utility.yul\":1839:1952   */\n      jump(tag_45)\n    tag_47:\n        /* \"#utility.yul\":1970:1976   */\n      dup4\n        /* \"#utility.yul\":1967:1968   */\n      dup2\n        /* \"#utility.yul\":1964:1977   */\n      gt\n        /* \"#utility.yul\":1961:2062   */\n      iszero\n      tag_48\n      jumpi\n        /* \"#utility.yul\":2050:2051   */\n      0x00\n        /* \"#utility.yul\":2041:2047   */\n      dup5\n        /* \"#utility.yul\":2036:2039   */\n      dup5\n        /* \"#utility.yul\":2032:2048   */\n      add\n        /* \"#utility.yul\":2025:2052   */\n      mstore\n        /* \"#utility.yul\":1961:2062   */\n    tag_48:\n        /* \"#utility.yul\":1810:2068   */\n      pop\n        /* \"#utility.yul\":1761:2068   */\n      pop\n      pop\n      pop\n      jump\t// out\n        /* \"#utility.yul\":2074:2394   */\n    tag_9:\n        /* \"#utility.yul\":2118:2124   */\n      0x00\n        /* \"#utility.yul\":2155:2156   */\n      0x02\n        /* \"#utility.yul\":2149:2153   */\n      dup3\n        /* \"#utility.yul\":2145:2157   */\n      div\n        /* \"#utility.yul\":2135:2157   */\n      swap1\n      pop\n        /* \"#utility.yul\":2202:2203   */\n      0x01\n        /* \"#utility.yul\":2196:2200   */\n      dup3\n        /* \"#utility.yul\":2192:2204   */\n      and\n        /* \"#utility.yul\":2223:2241   */\n      dup1\n        /* \"#utility.yul\":2213:2294   */\n      tag_50\n      jumpi\n        /* \"#utility.yul\":2279:2283   */\n      0x7f\n        /* \"#utility.yul\":2271:2277   */\n      dup3\n        /* \"#utility.yul\":2267:2284   */\n      and\n        /* \"#utility.yul\":2257:2284   */\n      swap2\n      pop\n        /* \"#utility.yul\":2213:2294   */\n    tag_50:\n        /* \"#utility.yul\":2341:2343   */\n      0x20\n        /* \"#utility.yul\":2333:2339   */\n      dup3\n        /* \"#utility.yul\":2330:2344   */\n      lt\n        /* \"#utility.yul\":2310:2328   */\n      dup2\n        /* \"#utility.yul\":2307:2345   */\n      eq\n        /* \"#utility.yul\":2304:2388   */\n      iszero\n      tag_51\n      jumpi\n        /* \"#utility.yul\":2360:2378   */\n      tag_52\n      tag_53\n      jump\t// in\n    tag_52:\n        /* \"#utility.yul\":2304:2388   */\n    tag_51:\n        /* \"#utility.yul\":2125:2394   */\n      pop\n        /* \"#utility.yul\":2074:2394   */\n      swap2\n      swap1\n      pop\n      jump\t// out\n        /* \"#utility.yul\":2400:2580   */\n    tag_53:\n        /* \"#utility.yul\":2448:2525   */\n      0x4e487b7100000000000000000000000000000000000000000000000000000000\n        /* \"#utility.yul\":2445:2446   */\n      0x00\n        /* \"#utility.yul\":2438:2526   */\n      mstore\n        /* \"#utility.yul\":2545:2549   */\n      0x22\n        /* \"#utility.yul\":2542:2543   */\n      0x04\n        /* \"#utility.yul\":2535:2550   */\n      mstore\n        /* \"#utility.yul\":2569:2573   */\n      0x24\n        /* \"#utility.yul\":2566:2567   */\n      0x00\n        /* \"#utility.yul\":2559:2574   */\n      revert\n        /* \"#utility.yul\":2586:2688   */\n    tag_28:\n        /* \"#utility.yul\":2627:2633   */\n      0x00\n        /* \"#utility.yul\":2678:2680   */\n      0x1f\n        /* \"#utility.yul\":2674:2681   */\n      not\n        /* \"#utility.yul\":2669:2671   */\n      0x1f\n        /* \"#utility.yul\":2662:2667   */\n      dup4\n        /* \"#utility.yul\":2658:2672   */\n      add\n        /* \"#utility.yul\":2654:2682   */\n      and\n        /* \"#utility.yul\":2644:2682   */\n      swap1\n      pop\n        /* \"#utility.yul\":2586:2688   */\n      swap2\n      swap1\n      pop\n      jump\t// out\n\n    auxdata: 0xa26469706673582212204b2051e369fdd5ea1dfea0f5fbfe0733e5cbf3ed1807b518788d4422b380649d64736f6c63430008070033\n}\n",
				"bytecode": {
					"linkReferences": {},
					"object": "608060405234801561001057600080fd5b50604051610530380380610530833981810160405281019061003291906100be565b5050610249565b600061004c6100478461013f565b61011a565b90508281526020810184848401111561006857610067610212565b5b61007384828561017a565b509392505050565b600082601f8301126100905761008f61020d565b5b81516100a0848260208601610039565b91505092915050565b6000815190506100b881610232565b92915050565b600080604083850312156100d5576100d461021c565b5b60006100e3858286016100a9565b925050602083015167ffffffffffffffff81111561010457610103610217565b5b6101108582860161007b565b9150509250929050565b6000610124610135565b905061013082826101ad565b919050565b6000604051905090565b600067ffffffffffffffff82111561015a576101596101de565b5b61016382610221565b9050602081019050919050565b6000819050919050565b60005b8381101561019857808201518184015260208101905061017d565b838111156101a7576000848401525b50505050565b6101b682610221565b810181811067ffffffffffffffff821117156101d5576101d46101de565b5b80604052505050565b7f4e487b7100000000000000000000000000000000000000000000000000000000600052604160045260246000fd5b600080fd5b600080fd5b600080fd5b600080fd5b6000601f19601f8301169050919050565b61023b81610170565b811461024657600080fd5b50565b6102d8806102586000396000f3fe608060405234801561001057600080fd5b506004361061002b5760003560e01c80635424884114610030575b600080fd5b610038610050565b60405161004793929190610167565b60405180910390f35b600080600001549080600101805461006790610230565b80601f016020809104026020016040519081016040528092919081815260200182805461009390610230565b80156100e05780601f106100b5576101008083540402835291602001916100e0565b820191906000526020600020905b8154815290600101906020018083116100c357829003601f168201915b5050505050908060020160009054906101000a900473ffffffffffffffffffffffffffffffffffffffff16905083565b610119816101c1565b82525050565b600061012a826101a5565b61013481856101b0565b93506101448185602086016101fd565b61014d81610291565b840191505092915050565b610161816101f3565b82525050565b600060608201905061017c6000830186610158565b818103602083015261018e818561011f565b905061019d6040830184610110565b949350505050565b600081519050919050565b600082825260208201905092915050565b60006101cc826101d3565b9050919050565b600073ffffffffffffffffffffffffffffffffffffffff82169050919050565b6000819050919050565b60005b8381101561021b578082015181840152602081019050610200565b8381111561022a576000848401525b50505050565b6000600282049050600182168061024857607f821691505b6020821081141561025c5761025b610262565b5b50919050565b7f4e487b7100000000000000000000000000000000000000000000000000000000600052602260045260246000fd5b6000601f19601f830116905091905056fea26469706673582212204b2051e369fdd5ea1dfea0f5fbfe0733e5cbf3ed1807b518788d4422b380649d64736f6c63430008070033",
					"opcodes": "PUSH1 0x80 PUSH1 0x40 MSTORE CALLVALUE DUP1 ISZERO PUSH2 0x10 JUMPI PUSH1 0x0 DUP1 REVERT JUMPDEST POP PUSH1 0x40 MLOAD PUSH2 0x530 CODESIZE SUB DUP1 PUSH2 0x530 DUP4 CODECOPY DUP2 DUP2 ADD PUSH1 0x40 MSTORE DUP2 ADD SWAP1 PUSH2 0x32 SWAP2 SWAP1 PUSH2 0xBE JUMP JUMPDEST POP POP PUSH2 0x249 JUMP JUMPDEST PUSH1 0x0 PUSH2 0x4C PUSH2 0x47 DUP5 PUSH2 0x13F JUMP JUMPDEST PUSH2 0x11A JUMP JUMPDEST SWAP1 POP DUP3 DUP2 MSTORE PUSH1 0x20 DUP2 ADD DUP5 DUP5 DUP5 ADD GT ISZERO PUSH2 0x68 JUMPI PUSH2 0x67 PUSH2 0x212 JUMP JUMPDEST JUMPDEST PUSH2 0x73 DUP5 DUP3 DUP6 PUSH2 0x17A JUMP JUMPDEST POP SWAP4 SWAP3 POP POP POP JUMP JUMPDEST PUSH1 0x0 DUP3 PUSH1 0x1F DUP4 ADD SLT PUSH2 0x90 JUMPI PUSH2 0x8F PUSH2 0x20D JUMP JUMPDEST JUMPDEST DUP2 MLOAD PUSH2 0xA0 DUP5 DUP3 PUSH1 0x20 DUP7 ADD PUSH2 0x39 JUMP JUMPDEST SWAP2 POP POP SWAP3 SWAP2 POP POP JUMP JUMPDEST PUSH1 0x0 DUP2 MLOAD SWAP1 POP PUSH2 0xB8 DUP2 PUSH2 0x232 JUMP JUMPDEST SWAP3 SWAP2 POP POP JUMP JUMPDEST PUSH1 0x0 DUP1 PUSH1 0x40 DUP4 DUP6 SUB SLT ISZERO PUSH2 0xD5 JUMPI PUSH2 0xD4 PUSH2 0x21C JUMP JUMPDEST JUMPDEST PUSH1 0x0 PUSH2 0xE3 DUP6 DUP3 DUP7 ADD PUSH2 0xA9 JUMP JUMPDEST SWAP3 POP POP PUSH1 0x20 DUP4 ADD MLOAD PUSH8 0xFFFFFFFFFFFFFFFF DUP2 GT ISZERO PUSH2 0x104 JUMPI PUSH2 0x103 PUSH2 0x217 JUMP JUMPDEST JUMPDEST PUSH2 0x110 DUP6 DUP3 DUP7 ADD PUSH2 0x7B JUMP JUMPDEST SWAP2 POP POP SWAP3 POP SWAP3 SWAP1 POP JUMP JUMPDEST PUSH1 0x0 PUSH2 0x124 PUSH2 0x135 JUMP JUMPDEST SWAP1 POP PUSH2 0x130 DUP3 DUP3 PUSH2 0x1AD JUMP JUMPDEST SWAP2 SWAP1 POP JUMP JUMPDEST PUSH1 0x0 PUSH1 0x40 MLOAD SWAP1 POP SWAP1 JUMP JUMPDEST PUSH1 0x0 PUSH8 0xFFFFFFFFFFFFFFFF DUP3 GT ISZERO PUSH2 0x15A JUMPI PUSH2 0x159 PUSH2 0x1DE JUMP JUMPDEST JUMPDEST PUSH2 0x163 DUP3 PUSH2 0x221 JUMP JUMPDEST SWAP1 POP PUSH1 0x20 DUP2 ADD SWAP1 POP SWAP2 SWAP1 POP JUMP JUMPDEST PUSH1 0x0 DUP2 SWAP1 POP SWAP2 SWAP1 POP JUMP JUMPDEST PUSH1 0x0 JUMPDEST DUP4 DUP2 LT ISZERO PUSH2 0x198 JUMPI DUP1 DUP3 ADD MLOAD DUP2 DUP5 ADD MSTORE PUSH1 0x20 DUP2 ADD SWAP1 POP PUSH2 0x17D JUMP JUMPDEST DUP4 DUP2 GT ISZERO PUSH2 0x1A7 JUMPI PUSH1 0x0 DUP5 DUP5 ADD MSTORE JUMPDEST POP POP POP POP JUMP JUMPDEST PUSH2 0x1B6 DUP3 PUSH2 0x221 JUMP JUMPDEST DUP2 ADD DUP2 DUP2 LT PUSH8 0xFFFFFFFFFFFFFFFF DUP3 GT OR ISZERO PUSH2 0x1D5 JUMPI PUSH2 0x1D4 PUSH2 0x1DE JUMP JUMPDEST JUMPDEST DUP1 PUSH1 0x40 MSTORE POP POP POP JUMP JUMPDEST PUSH32 0x4E487B7100000000000000000000000000000000000000000000000000000000 PUSH1 0x0 MSTORE PUSH1 0x41 PUSH1 0x4 MSTORE PUSH1 0x24 PUSH1 0x0 REVERT JUMPDEST PUSH1 0x0 DUP1 REVERT JUMPDEST PUSH1 0x0 DUP1 REVERT JUMPDEST PUSH1 0x0 DUP1 REVERT JUMPDEST PUSH1 0x0 DUP1 REVERT JUMPDEST PUSH1 0x0 PUSH1 0x1F NOT PUSH1 0x1F DUP4 ADD AND SWAP1 POP SWAP2 SWAP1 POP JUMP JUMPDEST PUSH2 0x23B DUP2 PUSH2 0x170 JUMP JUMPDEST DUP2 EQ PUSH2 0x246 JUMPI PUSH1 0x0 DUP1 REVERT JUMPDEST POP JUMP JUMPDEST PUSH2 0x2D8 DUP1 PUSH2 0x258 PUSH1 0x0 CODECOPY PUSH1 0x0 RETURN INVALID PUSH1 0x80 PUSH1 0x40 MSTORE CALLVALUE DUP1 ISZERO PUSH2 0x10 JUMPI PUSH1 0x0 DUP1 REVERT JUMPDEST POP PUSH1 0x4 CALLDATASIZE LT PUSH2 0x2B JUMPI PUSH1 0x0 CALLDATALOAD PUSH1 0xE0 SHR DUP1 PUSH4 0x54248841 EQ PUSH2 0x30 JUMPI JUMPDEST PUSH1 0x0 DUP1 REVERT JUMPDEST PUSH2 0x38 PUSH2 0x50 JUMP JUMPDEST PUSH1 0x40 MLOAD PUSH2 0x47 SWAP4 SWAP3 SWAP2 SWAP1 PUSH2 0x167 JUMP JUMPDEST PUSH1 0x40 MLOAD DUP1 SWAP2 SUB SWAP1 RETURN JUMPDEST PUSH1 0x0 DUP1 PUSH1 0x0 ADD SLOAD SWAP1 DUP1 PUSH1 0x1 ADD DUP1 SLOAD PUSH2 0x67 SWAP1 PUSH2 0x230 JUMP JUMPDEST DUP1 PUSH1 0x1F ADD PUSH1 0x20 DUP1 SWAP2 DIV MUL PUSH1 0x20 ADD PUSH1 0x40 MLOAD SWAP1 DUP2 ADD PUSH1 0x40 MSTORE DUP1 SWAP3 SWAP2 SWAP1 DUP2 DUP2 MSTORE PUSH1 0x20 ADD DUP3 DUP1 SLOAD PUSH2 0x93 SWAP1 PUSH2 0x230 JUMP JUMPDEST DUP1 ISZERO PUSH2 0xE0 JUMPI DUP1 PUSH1 0x1F LT PUSH2 0xB5 JUMPI PUSH2 0x100 DUP1 DUP4 SLOAD DIV MUL DUP4 MSTORE SWAP2 PUSH1 0x20 ADD SWAP2 PUSH2 0xE0 JUMP JUMPDEST DUP3 ADD SWAP2 SWAP1 PUSH1 0x0 MSTORE PUSH1 0x20 PUSH1 0x0 KECCAK256 SWAP1 JUMPDEST DUP2 SLOAD DUP2 MSTORE SWAP1 PUSH1 0x1 ADD SWAP1 PUSH1 0x20 ADD DUP1 DUP4 GT PUSH2 0xC3 JUMPI DUP3 SWAP1 SUB PUSH1 0x1F AND DUP3 ADD SWAP2 JUMPDEST POP POP POP POP POP SWAP1 DUP1 PUSH1 0x2 ADD PUSH1 0x0 SWAP1 SLOAD SWAP1 PUSH2 0x100 EXP SWAP1 DIV PUSH20 0xFFFFFFFFFFFFFFFFFFFFFFFFFFFFFFFFFFFFFFFF AND SWAP1 POP DUP4 JUMP JUMPDEST PUSH2 0x119 DUP2 PUSH2 0x1C1 JUMP JUMPDEST DUP3 MSTORE POP POP JUMP JUMPDEST PUSH1 0x0 PUSH2 0x12A DUP3 PUSH2 0x1A5 JUMP JUMPDEST PUSH2 0x134 DUP2 DUP6 PUSH2 0x1B0 JUMP JUMPDEST SWAP4 POP PUSH2 0x144 DUP2 DUP6 PUSH1 0x20 DUP7 ADD PUSH2 0x1FD JUMP JUMPDEST PUSH2 0x14D DUP2 PUSH2 0x291 JUMP JUMPDEST DUP5 ADD SWAP2 POP POP SWAP3 SWAP2 POP POP JUMP JUMPDEST PUSH2 0x161 DUP2 PUSH2 0x1F3 JUMP JUMPDEST DUP3 MSTORE POP POP JUMP JUMPDEST PUSH1 0x0 PUSH1 0x60 DUP3 ADD SWAP1 POP PUSH2 0x17C PUSH1 0x0 DUP4 ADD DUP7 PUSH2 0x158 JUMP JUMPDEST DUP2 DUP2 SUB PUSH1 0x20 DUP4 ADD MSTORE PUSH2 0x18E DUP2 DUP6 PUSH2 0x11F JUMP JUMPDEST SWAP1 POP PUSH2 0x19D PUSH1 0x40 DUP4 ADD DUP5 PUSH2 0x110 JUMP JUMPDEST SWAP5 SWAP4 POP POP POP POP JUMP JUMPDEST PUSH1 0x0 DUP2 MLOAD SWAP1 POP SWAP2 SWAP1 POP JUMP JUMPDEST PUSH1 0x0 DUP3 DUP3 MSTORE PUSH1 0x20 DUP3 ADD SWAP1 POP SWAP3 SWAP2 POP POP JUMP JUMPDEST PUSH1 0x0 PUSH2 0x1CC DUP3 PUSH2 0x1D3 JUMP JUMPDEST SWAP1 POP SWAP2 SWAP1 POP JUMP JUMPDEST PUSH1 0x0 PUSH20 0xFFFFFFFFFFFFFFFFFFFFFFFFFFFFFFFFFFFFFFFF DUP3 AND SWAP1 POP SWAP2 SWAP1 POP JUMP JUMPDEST PUSH1 0x0 DUP2 SWAP1 POP SWAP2 SWAP1 POP JUMP JUMPDEST PUSH1 0x0 JUMPDEST DUP4 DUP2 LT ISZERO PUSH2 0x21B JUMPI DUP1 DUP3 ADD MLOAD DUP2 DUP5 ADD MSTORE PUSH1 0x20 DUP2 ADD SWAP1 POP PUSH2 0x200 JUMP JUMPDEST DUP4 DUP2 GT ISZERO PUSH2 0x22A JUMPI PUSH1 0x0 DUP5 DUP5 ADD MSTORE JUMPDEST POP POP POP POP JUMP JUMPDEST PUSH1 0x0 PUSH1 0x2 DUP3 DIV SWAP1 POP PUSH1 0x1 DUP3 AND DUP1 PUSH2 0x248 JUMPI PUSH1 0x7F DUP3 AND SWAP2 POP JUMPDEST PUSH1 0x20 DUP3 LT DUP2 EQ ISZERO PUSH2 0x25C JUMPI PUSH2 0x25B PUSH2 0x262 JUMP JUMPDEST JUMPDEST POP SWAP2 SWAP1 POP JUMP JUMPDEST PUSH32 0x4E487B7100000000000000000000000000000000000000000000000000000000 PUSH1 0x0 MSTORE PUSH1 0x22 PUSH1 0x4 MSTORE PUSH1 0x24 PUSH1 0x0 REVERT JUMPDEST PUSH1 0x0 PUSH1 0x1F NOT PUSH1 0x1F DUP4 ADD AND SWAP1 POP SWAP2 SWAP1 POP JUMP INVALID LOG2 PUSH5 0x6970667358 0x22 SLT KECCAK256 0x4B KECCAK256 MLOAD 0xE3 PUSH10 0xFDD5EA1DFEA0F5FBFE07 CALLER 0xE5 0xCB RETURN 0xED XOR SMOD 0xB5 XOR PUSH25 0x8D4422B380649D64736F6C6343000807003300000000000000 "
				},
				"gasEstimates": {
					"creation": {
						"codeDepositCost": "145600",
						"executionCost": "infinite",
						"totalCost": "infinite"
					},
					"external": {
						"academyInstructor()": "infinite"
					}
				},
				"methodIdentifiers": {
					"academyInstructor()": "54248841"
				}
			},
			"storageLayout": {
				"storage": [
					{
						"astId": 11,
						"contract": "contracts/structs_guide.sol:Academy",
						"label": "academyInstructor",
						"offset": 0,
						"slot": "0",
						"type": "t_struct(Instructor)8_storage"
					}
				],
				"types": {
					"t_address": {
						"encoding": "inplace",
						"label": "address",
						"numberOfBytes": "20"
					},
					"t_string_storage": {
						"encoding": "bytes",
						"label": "string",
						"numberOfBytes": "32"
					},
					"t_struct(Instructor)8_storage": {
						"encoding": "inplace",
						"label": "struct Instructor",
						"members": [
							{
								"astId": 3,
								"contract": "contracts/structs_guide.sol:Academy",
								"label": "age",
								"offset": 0,
								"slot": "0",
								"type": "t_uint256"
							},
							{
								"astId": 5,
								"contract": "contracts/structs_guide.sol:Academy",
								"label": "name",
								"offset": 0,
								"slot": "1",
								"type": "t_string_storage"
							},
							{
								"astId": 7,
								"contract": "contracts/structs_guide.sol:Academy",
								"label": "addr",
								"offset": 0,
								"slot": "2",
								"type": "t_address"
							}
						],
						"numberOfBytes": "96"
					},
					"t_uint256": {
						"encoding": "inplace",
						"label": "uint256",
						"numberOfBytes": "32"
					}
				}
			},
			"userdoc": {
				"kind": "user",
				"methods": {},
				"version": 1
			}
		}
	}
}