{
	"contracts/golbal_vars_2.sol": {
		"GlobalVars": {
			"abi": [
				{
					"inputs": [],
					"name": "block_number",
					"outputs": [
						{
							"internalType": "uint256",
							"name": "",
							"type": "uint256"
						}
					],
					"stateMutability": "view",
					"type": "function"
				},
				{
					"inputs": [],
					"name": "difficulty",
					"outputs": [
						{
							"internalType": "uint256",
							"name": "",
							"type": "uint256"
						}
					],
					"stateMutability": "view",
					"type": "function"
				},
				{
					"inputs": [],
					"name": "gaslimit",
					"outputs": [
						{
							"internalType": "uint256",
							"name": "",
							"type": "uint256"
						}
					],
					"stateMutability": "view",
					"type": "function"
				},
				{
					"inputs": [],
					"name": "this_moment",
					"outputs": [
						{
							"internalType": "uint256",
							"name": "",
							"type": "uint256"
						}
					],
					"stateMutability": "view",
					"type": "function"
				}
			],
			"devdoc": {
				"kind": "dev",
				"methods": {},
				"version": 1
			},
			"evm": {
				"assembly": "    /* \"contracts/golbal_vars_2.sol\":73:305  contract GlobalVars{\r... */\n  mstore(0x40, 0x80)\n    /* \"contracts/golbal_vars_2.sol\":125:140  block.timestamp */\n  timestamp\n    /* \"contracts/golbal_vars_2.sol\":99:140  uint public this_moment = block.timestamp */\n  0x00\n  sstore\n    /* \"contracts/golbal_vars_2.sol\":197:209  block_number */\n  sload(0x01)\n    /* \"contracts/golbal_vars_2.sol\":170:209  uint public block_number = block_number */\n  0x01\n  sstore\n    /* \"contracts/golbal_vars_2.sol\":241:257  block.difficulty */\n  difficulty\n    /* \"contracts/golbal_vars_2.sol\":216:257  uint public difficulty = block.difficulty */\n  0x02\n  sstore\n    /* \"contracts/golbal_vars_2.sol\":287:301  block.gaslimit */\n  gaslimit\n    /* \"contracts/golbal_vars_2.sol\":264:301  uint public gaslimit = block.gaslimit */\n  0x03\n  sstore\n    /* \"contracts/golbal_vars_2.sol\":73:305  contract GlobalVars{\r... */\n  callvalue\n  dup1\n  iszero\n  tag_1\n  jumpi\n  0x00\n  dup1\n  revert\ntag_1:\n  pop\n  dataSize(sub_0)\n  dup1\n  dataOffset(sub_0)\n  0x00\n  codecopy\n  0x00\n  return\nstop\n\nsub_0: assembly {\n        /* \"contracts/golbal_vars_2.sol\":73:305  contract GlobalVars{\r... */\n      mstore(0x40, 0x80)\n      callvalue\n      dup1\n      iszero\n      tag_1\n      jumpi\n      0x00\n      dup1\n      revert\n    tag_1:\n      pop\n      jumpi(tag_2, lt(calldatasize, 0x04))\n      shr(0xe0, calldataload(0x00))\n      dup1\n      0x19cae462\n      eq\n      tag_3\n      jumpi\n      dup1\n      0x25a58b56\n      eq\n      tag_4\n      jumpi\n      dup1\n      0x2a722839\n      eq\n      tag_5\n      jumpi\n      dup1\n      0xa0200b58\n      eq\n      tag_6\n      jumpi\n    tag_2:\n      0x00\n      dup1\n      revert\n        /* \"contracts/golbal_vars_2.sol\":216:257  uint public difficulty = block.difficulty */\n    tag_3:\n      tag_7\n      tag_8\n      jump\t// in\n    tag_7:\n      mload(0x40)\n      tag_9\n      swap2\n      swap1\n      tag_10\n      jump\t// in\n    tag_9:\n      mload(0x40)\n      dup1\n      swap2\n      sub\n      swap1\n      return\n        /* \"contracts/golbal_vars_2.sol\":170:209  uint public block_number = block_number */\n    tag_4:\n      tag_11\n      tag_12\n      jump\t// in\n    tag_11:\n      mload(0x40)\n      tag_13\n      swap2\n      swap1\n      tag_10\n      jump\t// in\n    tag_13:\n      mload(0x40)\n      dup1\n      swap2\n      sub\n      swap1\n      return\n        /* \"contracts/golbal_vars_2.sol\":264:301  uint public gaslimit = block.gaslimit */\n    tag_5:\n      tag_14\n      tag_15\n      jump\t// in\n    tag_14:\n      mload(0x40)\n      tag_16\n      swap2\n      swap1\n      tag_10\n      jump\t// in\n    tag_16:\n      mload(0x40)\n      dup1\n      swap2\n      sub\n      swap1\n      return\n        /* \"contracts/golbal_vars_2.sol\":99:140  uint public this_moment = block.timestamp */\n    tag_6:\n      tag_17\n      tag_18\n      jump\t// in\n    tag_17:\n      mload(0x40)\n      tag_19\n      swap2\n      swap1\n      tag_10\n      jump\t// in\n    tag_19:\n      mload(0x40)\n      dup1\n      swap2\n      sub\n      swap1\n      return\n        /* \"contracts/golbal_vars_2.sol\":216:257  uint public difficulty = block.difficulty */\n    tag_8:\n      sload(0x02)\n      dup2\n      jump\t// out\n        /* \"contracts/golbal_vars_2.sol\":170:209  uint public block_number = block_number */\n    tag_12:\n      sload(0x01)\n      dup2\n      jump\t// out\n        /* \"contracts/golbal_vars_2.sol\":264:301  uint public gaslimit = block.gaslimit */\n    tag_15:\n      sload(0x03)\n      dup2\n      jump\t// out\n        /* \"contracts/golbal_vars_2.sol\":99:140  uint public this_moment = block.timestamp */\n    tag_18:\n      sload(0x00)\n      dup2\n      jump\t// out\n        /* \"#utility.yul\":7:125   */\n    tag_21:\n        /* \"#utility.yul\":94:118   */\n      tag_23\n        /* \"#utility.yul\":112:117   */\n      dup2\n        /* \"#utility.yul\":94:118   */\n      tag_24\n      jump\t// in\n    tag_23:\n        /* \"#utility.yul\":89:92   */\n      dup3\n        /* \"#utility.yul\":82:119   */\n      mstore\n        /* \"#utility.yul\":7:125   */\n      pop\n      pop\n      jump\t// out\n        /* \"#utility.yul\":131:353   */\n    tag_10:\n        /* \"#utility.yul\":224:228   */\n      0x00\n        /* \"#utility.yul\":262:264   */\n      0x20\n        /* \"#utility.yul\":251:260   */\n      dup3\n        /* \"#utility.yul\":247:265   */\n      add\n        /* \"#utility.yul\":239:265   */\n      swap1\n      pop\n        /* \"#utility.yul\":275:346   */\n      tag_26\n        /* \"#utility.yul\":343:344   */\n      0x00\n        /* \"#utility.yul\":332:341   */\n      dup4\n        /* \"#utility.yul\":328:345   */\n      add\n        /* \"#utility.yul\":319:325   */\n      dup5\n        /* \"#utility.yul\":275:346   */\n      tag_21\n      jump\t// in\n    tag_26:\n        /* \"#utility.yul\":131:353   */\n      swap3\n      swap2\n      pop\n      pop\n      jump\t// out\n        /* \"#utility.yul\":359:436   */\n    tag_24:\n        /* \"#utility.yul\":396:403   */\n      0x00\n        /* \"#utility.yul\":425:430   */\n      dup2\n        /* \"#utility.yul\":414:430   */\n      swap1\n      pop\n        /* \"#utility.yul\":359:436   */\n      swap2\n      swap1\n      pop\n      jump\t// out\n\n    auxdata: 0xa26469706673582212203087746e89b060d1421976f5f925c47a0ff6bc35c9eb7f7d1587ae582f53214864736f6c63430008070033\n}\n",
				"bytecode": {
					"linkReferences": {},
					"object": "608060405242600055600154600155446002554560035534801561002257600080fd5b50610131806100326000396000f3fe6080604052348015600f57600080fd5b506004361060465760003560e01c806319cae46214604b57806325a58b561460655780632a72283914607f578063a0200b58146099575b600080fd5b605160b3565b604051605c919060d8565b60405180910390f35b606b60b9565b6040516076919060d8565b60405180910390f35b608560bf565b6040516090919060d8565b60405180910390f35b609f60c5565b60405160aa919060d8565b60405180910390f35b60025481565b60015481565b60035481565b60005481565b60d28160f1565b82525050565b600060208201905060eb600083018460cb565b92915050565b600081905091905056fea26469706673582212203087746e89b060d1421976f5f925c47a0ff6bc35c9eb7f7d1587ae582f53214864736f6c63430008070033",
					"opcodes": "PUSH1 0x80 PUSH1 0x40 MSTORE TIMESTAMP PUSH1 0x0 SSTORE PUSH1 0x1 SLOAD PUSH1 0x1 SSTORE DIFFICULTY PUSH1 0x2 SSTORE GASLIMIT PUSH1 0x3 SSTORE CALLVALUE DUP1 ISZERO PUSH2 0x22 JUMPI PUSH1 0x0 DUP1 REVERT JUMPDEST POP PUSH2 0x131 DUP1 PUSH2 0x32 PUSH1 0x0 CODECOPY PUSH1 0x0 RETURN INVALID PUSH1 0x80 PUSH1 0x40 MSTORE CALLVALUE DUP1 ISZERO PUSH1 0xF JUMPI PUSH1 0x0 DUP1 REVERT JUMPDEST POP PUSH1 0x4 CALLDATASIZE LT PUSH1 0x46 JUMPI PUSH1 0x0 CALLDATALOAD PUSH1 0xE0 SHR DUP1 PUSH4 0x19CAE462 EQ PUSH1 0x4B JUMPI DUP1 PUSH4 0x25A58B56 EQ PUSH1 0x65 JUMPI DUP1 PUSH4 0x2A722839 EQ PUSH1 0x7F JUMPI DUP1 PUSH4 0xA0200B58 EQ PUSH1 0x99 JUMPI JUMPDEST PUSH1 0x0 DUP1 REVERT JUMPDEST PUSH1 0x51 PUSH1 0xB3 JUMP JUMPDEST PUSH1 0x40 MLOAD PUSH1 0x5C SWAP2 SWAP1 PUSH1 0xD8 JUMP JUMPDEST PUSH1 0x40 MLOAD DUP1 SWAP2 SUB SWAP1 RETURN JUMPDEST PUSH1 0x6B PUSH1 0xB9 JUMP JUMPDEST PUSH1 0x40 MLOAD PUSH1 0x76 SWAP2 SWAP1 PUSH1 0xD8 JUMP JUMPDEST PUSH1 0x40 MLOAD DUP1 SWAP2 SUB SWAP1 RETURN JUMPDEST PUSH1 0x85 PUSH1 0xBF JUMP JUMPDEST PUSH1 0x40 MLOAD PUSH1 0x90 SWAP2 SWAP1 PUSH1 0xD8 JUMP JUMPDEST PUSH1 0x40 MLOAD DUP1 SWAP2 SUB SWAP1 RETURN JUMPDEST PUSH1 0x9F PUSH1 0xC5 JUMP JUMPDEST PUSH1 0x40 MLOAD PUSH1 0xAA SWAP2 SWAP1 PUSH1 0xD8 JUMP JUMPDEST PUSH1 0x40 MLOAD DUP1 SWAP2 SUB SWAP1 RETURN JUMPDEST PUSH1 0x2 SLOAD DUP2 JUMP JUMPDEST PUSH1 0x1 SLOAD DUP2 JUMP JUMPDEST PUSH1 0x3 SLOAD DUP2 JUMP JUMPDEST PUSH1 0x0 SLOAD DUP2 JUMP JUMPDEST PUSH1 0xD2 DUP2 PUSH1 0xF1 JUMP JUMPDEST DUP3 MSTORE POP POP JUMP JUMPDEST PUSH1 0x0 PUSH1 0x20 DUP3 ADD SWAP1 POP PUSH1 0xEB PUSH1 0x0 DUP4 ADD DUP5 PUSH1 0xCB JUMP JUMPDEST SWAP3 SWAP2 POP POP JUMP JUMPDEST PUSH1 0x0 DUP2 SWAP1 POP SWAP2 SWAP1 POP JUMP INVALID LOG2 PUSH5 0x6970667358 0x22 SLT KECCAK256 ADDRESS DUP8 PUSH21 0x6E89B060D1421976F5F925C47A0FF6BC35C9EB7F7D ISZERO DUP8 0xAE PC 0x2F MSTORE8 0x21 BASEFEE PUSH5 0x736F6C6343 STOP ADDMOD SMOD STOP CALLER "
				},
				"gasEstimates": {
					"creation": {
						"codeDepositCost": "61000",
						"executionCost": "90632",
						"totalCost": "151632"
					},
					"external": {
						"block_number()": "2429",
						"difficulty()": "2407",
						"gaslimit()": "2451",
						"this_moment()": "2473"
					}
				},
				"methodIdentifiers": {
					"block_number()": "25a58b56",
					"difficulty()": "19cae462",
					"gaslimit()": "2a722839",
					"this_moment()": "a0200b58"
				}
			},
			"storageLayout": {
				"storage": [
					{
						"astId": 5,
						"contract": "contracts/golbal_vars_2.sol:GlobalVars",
						"label": "this_moment",
						"offset": 0,
						"slot": "0",
						"type": "t_uint256"
					},
					{
						"astId": 8,
						"contract": "contracts/golbal_vars_2.sol:GlobalVars",
						"label": "block_number",
						"offset": 0,
						"slot": "1",
						"type": "t_uint256"
					},
					{
						"astId": 12,
						"contract": "contracts/golbal_vars_2.sol:GlobalVars",
						"label": "difficulty",
						"offset": 0,
						"slot": "2",
						"type": "t_uint256"
					},
					{
						"astId": 16,
						"contract": "contracts/golbal_vars_2.sol:GlobalVars",
						"label": "gaslimit",
						"offset": 0,
						"slot": "3",
						"type": "t_uint256"
					}
				],
				"types": {
					"t_uint256": {
						"encoding": "inplace",
						"label": "uint256",
						"numberOfBytes": "32"
					}
				}
			},
			"userdoc": {
				"kind": "user",
				"methods": {},
				"version": 1
			}
		}
	}
}