{
	"contracts/fixed_array.sol": {
		"FixedSizeArrays": {
			"abi": [
				{
					"inputs": [],
					"name": "b1",
					"outputs": [
						{
							"internalType": "bytes1",
							"name": "",
							"type": "bytes1"
						}
					],
					"stateMutability": "view",
					"type": "function"
				},
				{
					"inputs": [],
					"name": "b2",
					"outputs": [
						{
							"internalType": "bytes2",
							"name": "",
							"type": "bytes2"
						}
					],
					"stateMutability": "view",
					"type": "function"
				},
				{
					"inputs": [],
					"name": "b3",
					"outputs": [
						{
							"internalType": "bytes3",
							"name": "",
							"type": "bytes3"
						}
					],
					"stateMutability": "view",
					"type": "function"
				},
				{
					"inputs": [],
					"name": "getLength",
					"outputs": [
						{
							"internalType": "uint256",
							"name": "",
							"type": "uint256"
						}
					],
					"stateMutability": "view",
					"type": "function"
				},
				{
					"inputs": [
						{
							"internalType": "uint256",
							"name": "",
							"type": "uint256"
						}
					],
					"name": "numbers",
					"outputs": [
						{
							"internalType": "uint256",
							"name": "",
							"type": "uint256"
						}
					],
					"stateMutability": "view",
					"type": "function"
				},
				{
					"inputs": [],
					"name": "setBytesArray",
					"outputs": [],
					"stateMutability": "nonpayable",
					"type": "function"
				},
				{
					"inputs": [
						{
							"internalType": "uint256",
							"name": "index",
							"type": "uint256"
						},
						{
							"internalType": "uint256",
							"name": "value",
							"type": "uint256"
						}
					],
					"name": "setElement",
					"outputs": [],
					"stateMutability": "nonpayable",
					"type": "function"
				}
			],
			"devdoc": {
				"kind": "dev",
				"methods": {},
				"version": 1
			},
			"evm": {
				"assembly": "    /* \"contracts/fixed_array.sol\":76:820  contract FixedSizeArrays{\r... */\n  mstore(0x40, 0x80)\n    /* \"contracts/fixed_array.sol\":178:212  uint[3] public numbers = [2, 3, 4] */\n  mload(0x40)\n  dup1\n  0x60\n  add\n  0x40\n  mstore\n  dup1\n    /* \"contracts/fixed_array.sol\":204:205  2 */\n  0x02\n    /* \"contracts/fixed_array.sol\":178:212  uint[3] public numbers = [2, 3, 4] */\n  0xff\n  and\n  dup2\n  mstore\n  0x20\n  add\n    /* \"contracts/fixed_array.sol\":207:208  3 */\n  0x03\n    /* \"contracts/fixed_array.sol\":178:212  uint[3] public numbers = [2, 3, 4] */\n  0xff\n  and\n  dup2\n  mstore\n  0x20\n  add\n    /* \"contracts/fixed_array.sol\":210:211  4 */\n  0x04\n    /* \"contracts/fixed_array.sol\":178:212  uint[3] public numbers = [2, 3, 4] */\n  0xff\n  and\n  dup2\n  mstore\n  pop\n  0x00\n  swap1\n  0x03\n  tag_1\n  swap3\n  swap2\n  swap1\n  tag_2\n  jump\t// in\ntag_1:\n  pop\n    /* \"contracts/fixed_array.sol\":76:820  contract FixedSizeArrays{\r... */\n  callvalue\n  dup1\n  iszero\n  tag_3\n  jumpi\n  0x00\n  dup1\n  revert\ntag_3:\n  pop\n  jump(tag_4)\ntag_2:\n  dup3\n  0x03\n  dup2\n  add\n  swap3\n  dup3\n  iszero\n  tag_5\n  jumpi\n  swap2\n  0x20\n  mul\n  dup3\n  add\ntag_6:\n  dup3\n  dup2\n  gt\n  iszero\n  tag_7\n  jumpi\n  dup3\n  mload\n  dup3\n  swap1\n  0xff\n  and\n  swap1\n  sstore\n  swap2\n  0x20\n  add\n  swap2\n  swap1\n  0x01\n  add\n  swap1\n  jump(tag_6)\ntag_7:\ntag_5:\n  pop\n  swap1\n  pop\n  tag_8\n  swap2\n  swap1\n  tag_9\n  jump\t// in\ntag_8:\n  pop\n  swap1\n  jump\t// out\ntag_9:\ntag_10:\n  dup1\n  dup3\n  gt\n  iszero\n  tag_11\n  jumpi\n  0x00\n  dup2\n  0x00\n  swap1\n  sstore\n  pop\n  0x01\n  add\n  jump(tag_10)\ntag_11:\n  pop\n  swap1\n  jump\t// out\ntag_4:\n  dataSize(sub_0)\n  dup1\n  dataOffset(sub_0)\n  0x00\n  codecopy\n  0x00\n  return\nstop\n\nsub_0: assembly {\n        /* \"contracts/fixed_array.sol\":76:820  contract FixedSizeArrays{\r... */\n      mstore(0x40, 0x80)\n      callvalue\n      dup1\n      iszero\n      tag_1\n      jumpi\n      0x00\n      dup1\n      revert\n    tag_1:\n      pop\n      jumpi(tag_2, lt(calldatasize, 0x04))\n      shr(0xe0, calldataload(0x00))\n      dup1\n      0xbe1c766b\n      gt\n      tag_10\n      jumpi\n      dup1\n      0xbe1c766b\n      eq\n      tag_6\n      jumpi\n      dup1\n      0xd39fa233\n      eq\n      tag_7\n      jumpi\n      dup1\n      0xe9b61909\n      eq\n      tag_8\n      jumpi\n      dup1\n      0xee495002\n      eq\n      tag_9\n      jumpi\n      jump(tag_2)\n    tag_10:\n      dup1\n      0x09b8e39f\n      eq\n      tag_3\n      jumpi\n      dup1\n      0x0add6ef2\n      eq\n      tag_4\n      jumpi\n      dup1\n      0xa16e7215\n      eq\n      tag_5\n      jumpi\n    tag_2:\n      0x00\n      dup1\n      revert\n        /* \"contracts/fixed_array.sol\":685:817  function setBytesArray() public {\r... */\n    tag_3:\n      tag_11\n      tag_12\n      jump\t// in\n    tag_11:\n      stop\n        /* \"contracts/fixed_array.sol\":244:260  bytes2 public b2 */\n    tag_4:\n      tag_13\n      tag_14\n      jump\t// in\n    tag_13:\n      mload(0x40)\n      tag_15\n      swap2\n      swap1\n      tag_16\n      jump\t// in\n    tag_15:\n      mload(0x40)\n      dup1\n      swap2\n      sub\n      swap1\n      return\n        /* \"contracts/fixed_array.sol\":427:518  function setElement(uint index, uint value) public{\r... */\n    tag_5:\n      tag_17\n      0x04\n      dup1\n      calldatasize\n      sub\n      dup2\n      add\n      swap1\n      tag_18\n      swap2\n      swap1\n      tag_19\n      jump\t// in\n    tag_18:\n      tag_20\n      jump\t// in\n    tag_17:\n      stop\n        /* \"contracts/fixed_array.sol\":591:677  function getLength() public view returns(uint){\r... */\n    tag_6:\n      tag_21\n      tag_22\n      jump\t// in\n    tag_21:\n      mload(0x40)\n      tag_23\n      swap2\n      swap1\n      tag_24\n      jump\t// in\n    tag_23:\n      mload(0x40)\n      dup1\n      swap2\n      sub\n      swap1\n      return\n        /* \"contracts/fixed_array.sol\":178:212  uint[3] public numbers = [2, 3, 4] */\n    tag_7:\n      tag_25\n      0x04\n      dup1\n      calldatasize\n      sub\n      dup2\n      add\n      swap1\n      tag_26\n      swap2\n      swap1\n      tag_27\n      jump\t// in\n    tag_26:\n      tag_28\n      jump\t// in\n    tag_25:\n      mload(0x40)\n      tag_29\n      swap2\n      swap1\n      tag_24\n      jump\t// in\n    tag_29:\n      mload(0x40)\n      dup1\n      swap2\n      sub\n      swap1\n      return\n        /* \"contracts/fixed_array.sol\":267:283  bytes3 public b3 */\n    tag_8:\n      tag_30\n      tag_31\n      jump\t// in\n    tag_30:\n      mload(0x40)\n      tag_32\n      swap2\n      swap1\n      tag_33\n      jump\t// in\n    tag_32:\n      mload(0x40)\n      dup1\n      swap2\n      sub\n      swap1\n      return\n        /* \"contracts/fixed_array.sol\":221:237  bytes1 public b1 */\n    tag_9:\n      tag_34\n      tag_35\n      jump\t// in\n    tag_34:\n      mload(0x40)\n      tag_36\n      swap2\n      swap1\n      tag_37\n      jump\t// in\n    tag_36:\n      mload(0x40)\n      dup1\n      swap2\n      sub\n      swap1\n      return\n        /* \"contracts/fixed_array.sol\":685:817  function setBytesArray() public {\r... */\n    tag_12:\n        /* \"contracts/fixed_array.sol\":728:736  b1 = 'a' */\n      0x6100000000000000000000000000000000000000000000000000000000000000\n        /* \"contracts/fixed_array.sol\":728:730  b1 */\n      0x03\n      0x00\n        /* \"contracts/fixed_array.sol\":728:736  b1 = 'a' */\n      0x0100\n      exp\n      dup2\n      sload\n      dup2\n      0xff\n      mul\n      not\n      and\n      swap1\n      dup4\n      0xf8\n      shr\n      mul\n      or\n      swap1\n      sstore\n      pop\n        /* \"contracts/fixed_array.sol\":747:756  b2 = 'ab' */\n      0x6162000000000000000000000000000000000000000000000000000000000000\n        /* \"contracts/fixed_array.sol\":747:749  b2 */\n      0x03\n      0x01\n        /* \"contracts/fixed_array.sol\":747:756  b2 = 'ab' */\n      0x0100\n      exp\n      dup2\n      sload\n      dup2\n      0xffff\n      mul\n      not\n      and\n      swap1\n      dup4\n      0xf0\n      shr\n      mul\n      or\n      swap1\n      sstore\n      pop\n        /* \"contracts/fixed_array.sol\":767:775  b3 = 'z' */\n      0x7a00000000000000000000000000000000000000000000000000000000000000\n        /* \"contracts/fixed_array.sol\":767:769  b3 */\n      0x03\n      dup1\n        /* \"contracts/fixed_array.sol\":767:775  b3 = 'z' */\n      0x0100\n      exp\n      dup2\n      sload\n      dup2\n      0xffffff\n      mul\n      not\n      and\n      swap1\n      dup4\n      0xe8\n      shr\n      mul\n      or\n      swap1\n      sstore\n      pop\n        /* \"contracts/fixed_array.sol\":685:817  function setBytesArray() public {\r... */\n      jump\t// out\n        /* \"contracts/fixed_array.sol\":244:260  bytes2 public b2 */\n    tag_14:\n      0x03\n      0x01\n      swap1\n      sload\n      swap1\n      0x0100\n      exp\n      swap1\n      div\n      0xf0\n      shl\n      dup2\n      jump\t// out\n        /* \"contracts/fixed_array.sol\":427:518  function setElement(uint index, uint value) public{\r... */\n    tag_20:\n        /* \"contracts/fixed_array.sol\":505:510  value */\n      dup1\n        /* \"contracts/fixed_array.sol\":488:495  numbers */\n      0x00\n        /* \"contracts/fixed_array.sol\":496:501  index */\n      dup4\n        /* \"contracts/fixed_array.sol\":488:502  numbers[index] */\n      0x03\n      dup2\n      lt\n      tag_40\n      jumpi\n      tag_41\n      tag_42\n      jump\t// in\n    tag_41:\n    tag_40:\n      add\n        /* \"contracts/fixed_array.sol\":488:510  numbers[index] = value */\n      dup2\n      swap1\n      sstore\n      pop\n        /* \"contracts/fixed_array.sol\":427:518  function setElement(uint index, uint value) public{\r... */\n      pop\n      pop\n      jump\t// out\n        /* \"contracts/fixed_array.sol\":591:677  function getLength() public view returns(uint){\r... */\n    tag_22:\n        /* \"contracts/fixed_array.sol\":632:636  uint */\n      0x00\n        /* \"contracts/fixed_array.sol\":655:669  numbers.length */\n      0x03\n        /* \"contracts/fixed_array.sol\":648:669  return numbers.length */\n      swap1\n      pop\n        /* \"contracts/fixed_array.sol\":591:677  function getLength() public view returns(uint){\r... */\n      swap1\n      jump\t// out\n        /* \"contracts/fixed_array.sol\":178:212  uint[3] public numbers = [2, 3, 4] */\n    tag_28:\n      0x00\n      dup2\n      0x03\n      dup2\n      lt\n      tag_45\n      jumpi\n      0x00\n      dup1\n      revert\n    tag_45:\n      add\n      0x00\n      swap2\n      pop\n      swap1\n      pop\n      sload\n      dup2\n      jump\t// out\n        /* \"contracts/fixed_array.sol\":267:283  bytes3 public b3 */\n    tag_31:\n      0x03\n      dup1\n      sload\n      swap1\n      0x0100\n      exp\n      swap1\n      div\n      0xe8\n      shl\n      dup2\n      jump\t// out\n        /* \"contracts/fixed_array.sol\":221:237  bytes1 public b1 */\n    tag_35:\n      0x03\n      0x00\n      swap1\n      sload\n      swap1\n      0x0100\n      exp\n      swap1\n      div\n      0xf8\n      shl\n      dup2\n      jump\t// out\n        /* \"#utility.yul\":7:146   */\n    tag_48:\n        /* \"#utility.yul\":53:58   */\n      0x00\n        /* \"#utility.yul\":91:97   */\n      dup2\n        /* \"#utility.yul\":78:98   */\n      calldataload\n        /* \"#utility.yul\":69:98   */\n      swap1\n      pop\n        /* \"#utility.yul\":107:140   */\n      tag_50\n        /* \"#utility.yul\":134:139   */\n      dup2\n        /* \"#utility.yul\":107:140   */\n      tag_51\n      jump\t// in\n    tag_50:\n        /* \"#utility.yul\":7:146   */\n      swap3\n      swap2\n      pop\n      pop\n      jump\t// out\n        /* \"#utility.yul\":152:481   */\n    tag_27:\n        /* \"#utility.yul\":211:217   */\n      0x00\n        /* \"#utility.yul\":260:262   */\n      0x20\n        /* \"#utility.yul\":248:257   */\n      dup3\n        /* \"#utility.yul\":239:246   */\n      dup5\n        /* \"#utility.yul\":235:258   */\n      sub\n        /* \"#utility.yul\":231:263   */\n      slt\n        /* \"#utility.yul\":228:347   */\n      iszero\n      tag_53\n      jumpi\n        /* \"#utility.yul\":266:345   */\n      tag_54\n      tag_55\n      jump\t// in\n    tag_54:\n        /* \"#utility.yul\":228:347   */\n    tag_53:\n        /* \"#utility.yul\":386:387   */\n      0x00\n        /* \"#utility.yul\":411:464   */\n      tag_56\n        /* \"#utility.yul\":456:463   */\n      dup5\n        /* \"#utility.yul\":447:453   */\n      dup3\n        /* \"#utility.yul\":436:445   */\n      dup6\n        /* \"#utility.yul\":432:454   */\n      add\n        /* \"#utility.yul\":411:464   */\n      tag_48\n      jump\t// in\n    tag_56:\n        /* \"#utility.yul\":401:464   */\n      swap2\n      pop\n        /* \"#utility.yul\":357:474   */\n      pop\n        /* \"#utility.yul\":152:481   */\n      swap3\n      swap2\n      pop\n      pop\n      jump\t// out\n        /* \"#utility.yul\":487:961   */\n    tag_19:\n        /* \"#utility.yul\":555:561   */\n      0x00\n        /* \"#utility.yul\":563:569   */\n      dup1\n        /* \"#utility.yul\":612:614   */\n      0x40\n        /* \"#utility.yul\":600:609   */\n      dup4\n        /* \"#utility.yul\":591:598   */\n      dup6\n        /* \"#utility.yul\":587:610   */\n      sub\n        /* \"#utility.yul\":583:615   */\n      slt\n        /* \"#utility.yul\":580:699   */\n      iszero\n      tag_58\n      jumpi\n        /* \"#utility.yul\":618:697   */\n      tag_59\n      tag_55\n      jump\t// in\n    tag_59:\n        /* \"#utility.yul\":580:699   */\n    tag_58:\n        /* \"#utility.yul\":738:739   */\n      0x00\n        /* \"#utility.yul\":763:816   */\n      tag_60\n        /* \"#utility.yul\":808:815   */\n      dup6\n        /* \"#utility.yul\":799:805   */\n      dup3\n        /* \"#utility.yul\":788:797   */\n      dup7\n        /* \"#utility.yul\":784:806   */\n      add\n        /* \"#utility.yul\":763:816   */\n      tag_48\n      jump\t// in\n    tag_60:\n        /* \"#utility.yul\":753:816   */\n      swap3\n      pop\n        /* \"#utility.yul\":709:826   */\n      pop\n        /* \"#utility.yul\":865:867   */\n      0x20\n        /* \"#utility.yul\":891:944   */\n      tag_61\n        /* \"#utility.yul\":936:943   */\n      dup6\n        /* \"#utility.yul\":927:933   */\n      dup3\n        /* \"#utility.yul\":916:925   */\n      dup7\n        /* \"#utility.yul\":912:934   */\n      add\n        /* \"#utility.yul\":891:944   */\n      tag_48\n      jump\t// in\n    tag_61:\n        /* \"#utility.yul\":881:944   */\n      swap2\n      pop\n        /* \"#utility.yul\":836:954   */\n      pop\n        /* \"#utility.yul\":487:961   */\n      swap3\n      pop\n      swap3\n      swap1\n      pop\n      jump\t// out\n        /* \"#utility.yul\":967:1082   */\n    tag_62:\n        /* \"#utility.yul\":1052:1075   */\n      tag_64\n        /* \"#utility.yul\":1069:1074   */\n      dup2\n        /* \"#utility.yul\":1052:1075   */\n      tag_65\n      jump\t// in\n    tag_64:\n        /* \"#utility.yul\":1047:1050   */\n      dup3\n        /* \"#utility.yul\":1040:1076   */\n      mstore\n        /* \"#utility.yul\":967:1082   */\n      pop\n      pop\n      jump\t// out\n        /* \"#utility.yul\":1088:1203   */\n    tag_66:\n        /* \"#utility.yul\":1173:1196   */\n      tag_68\n        /* \"#utility.yul\":1190:1195   */\n      dup2\n        /* \"#utility.yul\":1173:1196   */\n      tag_69\n      jump\t// in\n    tag_68:\n        /* \"#utility.yul\":1168:1171   */\n      dup3\n        /* \"#utility.yul\":1161:1197   */\n      mstore\n        /* \"#utility.yul\":1088:1203   */\n      pop\n      pop\n      jump\t// out\n        /* \"#utility.yul\":1209:1324   */\n    tag_70:\n        /* \"#utility.yul\":1294:1317   */\n      tag_72\n        /* \"#utility.yul\":1311:1316   */\n      dup2\n        /* \"#utility.yul\":1294:1317   */\n      tag_73\n      jump\t// in\n    tag_72:\n        /* \"#utility.yul\":1289:1292   */\n      dup3\n        /* \"#utility.yul\":1282:1318   */\n      mstore\n        /* \"#utility.yul\":1209:1324   */\n      pop\n      pop\n      jump\t// out\n        /* \"#utility.yul\":1330:1448   */\n    tag_74:\n        /* \"#utility.yul\":1417:1441   */\n      tag_76\n        /* \"#utility.yul\":1435:1440   */\n      dup2\n        /* \"#utility.yul\":1417:1441   */\n      tag_77\n      jump\t// in\n    tag_76:\n        /* \"#utility.yul\":1412:1415   */\n      dup3\n        /* \"#utility.yul\":1405:1442   */\n      mstore\n        /* \"#utility.yul\":1330:1448   */\n      pop\n      pop\n      jump\t// out\n        /* \"#utility.yul\":1454:1672   */\n    tag_37:\n        /* \"#utility.yul\":1545:1549   */\n      0x00\n        /* \"#utility.yul\":1583:1585   */\n      0x20\n        /* \"#utility.yul\":1572:1581   */\n      dup3\n        /* \"#utility.yul\":1568:1586   */\n      add\n        /* \"#utility.yul\":1560:1586   */\n      swap1\n      pop\n        /* \"#utility.yul\":1596:1665   */\n      tag_79\n        /* \"#utility.yul\":1662:1663   */\n      0x00\n        /* \"#utility.yul\":1651:1660   */\n      dup4\n        /* \"#utility.yul\":1647:1664   */\n      add\n        /* \"#utility.yul\":1638:1644   */\n      dup5\n        /* \"#utility.yul\":1596:1665   */\n      tag_62\n      jump\t// in\n    tag_79:\n        /* \"#utility.yul\":1454:1672   */\n      swap3\n      swap2\n      pop\n      pop\n      jump\t// out\n        /* \"#utility.yul\":1678:1896   */\n    tag_16:\n        /* \"#utility.yul\":1769:1773   */\n      0x00\n        /* \"#utility.yul\":1807:1809   */\n      0x20\n        /* \"#utility.yul\":1796:1805   */\n      dup3\n        /* \"#utility.yul\":1792:1810   */\n      add\n        /* \"#utility.yul\":1784:1810   */\n      swap1\n      pop\n        /* \"#utility.yul\":1820:1889   */\n      tag_81\n        /* \"#utility.yul\":1886:1887   */\n      0x00\n        /* \"#utility.yul\":1875:1884   */\n      dup4\n        /* \"#utility.yul\":1871:1888   */\n      add\n        /* \"#utility.yul\":1862:1868   */\n      dup5\n        /* \"#utility.yul\":1820:1889   */\n      tag_66\n      jump\t// in\n    tag_81:\n        /* \"#utility.yul\":1678:1896   */\n      swap3\n      swap2\n      pop\n      pop\n      jump\t// out\n        /* \"#utility.yul\":1902:2120   */\n    tag_33:\n        /* \"#utility.yul\":1993:1997   */\n      0x00\n        /* \"#utility.yul\":2031:2033   */\n      0x20\n        /* \"#utility.yul\":2020:2029   */\n      dup3\n        /* \"#utility.yul\":2016:2034   */\n      add\n        /* \"#utility.yul\":2008:2034   */\n      swap1\n      pop\n        /* \"#utility.yul\":2044:2113   */\n      tag_83\n        /* \"#utility.yul\":2110:2111   */\n      0x00\n        /* \"#utility.yul\":2099:2108   */\n      dup4\n        /* \"#utility.yul\":2095:2112   */\n      add\n        /* \"#utility.yul\":2086:2092   */\n      dup5\n        /* \"#utility.yul\":2044:2113   */\n      tag_70\n      jump\t// in\n    tag_83:\n        /* \"#utility.yul\":1902:2120   */\n      swap3\n      swap2\n      pop\n      pop\n      jump\t// out\n        /* \"#utility.yul\":2126:2348   */\n    tag_24:\n        /* \"#utility.yul\":2219:2223   */\n      0x00\n        /* \"#utility.yul\":2257:2259   */\n      0x20\n        /* \"#utility.yul\":2246:2255   */\n      dup3\n        /* \"#utility.yul\":2242:2260   */\n      add\n        /* \"#utility.yul\":2234:2260   */\n      swap1\n      pop\n        /* \"#utility.yul\":2270:2341   */\n      tag_85\n        /* \"#utility.yul\":2338:2339   */\n      0x00\n        /* \"#utility.yul\":2327:2336   */\n      dup4\n        /* \"#utility.yul\":2323:2340   */\n      add\n        /* \"#utility.yul\":2314:2320   */\n      dup5\n        /* \"#utility.yul\":2270:2341   */\n      tag_74\n      jump\t// in\n    tag_85:\n        /* \"#utility.yul\":2126:2348   */\n      swap3\n      swap2\n      pop\n      pop\n      jump\t// out\n        /* \"#utility.yul\":2435:2584   */\n    tag_65:\n        /* \"#utility.yul\":2471:2478   */\n      0x00\n        /* \"#utility.yul\":2511:2577   */\n      0xff00000000000000000000000000000000000000000000000000000000000000\n        /* \"#utility.yul\":2504:2509   */\n      dup3\n        /* \"#utility.yul\":2500:2578   */\n      and\n        /* \"#utility.yul\":2489:2578   */\n      swap1\n      pop\n        /* \"#utility.yul\":2435:2584   */\n      swap2\n      swap1\n      pop\n      jump\t// out\n        /* \"#utility.yul\":2590:2739   */\n    tag_69:\n        /* \"#utility.yul\":2626:2633   */\n      0x00\n        /* \"#utility.yul\":2666:2732   */\n      0xffff000000000000000000000000000000000000000000000000000000000000\n        /* \"#utility.yul\":2659:2664   */\n      dup3\n        /* \"#utility.yul\":2655:2733   */\n      and\n        /* \"#utility.yul\":2644:2733   */\n      swap1\n      pop\n        /* \"#utility.yul\":2590:2739   */\n      swap2\n      swap1\n      pop\n      jump\t// out\n        /* \"#utility.yul\":2745:2894   */\n    tag_73:\n        /* \"#utility.yul\":2781:2788   */\n      0x00\n        /* \"#utility.yul\":2821:2887   */\n      0xffffff0000000000000000000000000000000000000000000000000000000000\n        /* \"#utility.yul\":2814:2819   */\n      dup3\n        /* \"#utility.yul\":2810:2888   */\n      and\n        /* \"#utility.yul\":2799:2888   */\n      swap1\n      pop\n        /* \"#utility.yul\":2745:2894   */\n      swap2\n      swap1\n      pop\n      jump\t// out\n        /* \"#utility.yul\":2900:2977   */\n    tag_77:\n        /* \"#utility.yul\":2937:2944   */\n      0x00\n        /* \"#utility.yul\":2966:2971   */\n      dup2\n        /* \"#utility.yul\":2955:2971   */\n      swap1\n      pop\n        /* \"#utility.yul\":2900:2977   */\n      swap2\n      swap1\n      pop\n      jump\t// out\n        /* \"#utility.yul\":2983:3163   */\n    tag_42:\n        /* \"#utility.yul\":3031:3108   */\n      0x4e487b7100000000000000000000000000000000000000000000000000000000\n        /* \"#utility.yul\":3028:3029   */\n      0x00\n        /* \"#utility.yul\":3021:3109   */\n      mstore\n        /* \"#utility.yul\":3128:3132   */\n      0x32\n        /* \"#utility.yul\":3125:3126   */\n      0x04\n        /* \"#utility.yul\":3118:3133   */\n      mstore\n        /* \"#utility.yul\":3152:3156   */\n      0x24\n        /* \"#utility.yul\":3149:3150   */\n      0x00\n        /* \"#utility.yul\":3142:3157   */\n      revert\n        /* \"#utility.yul\":3292:3409   */\n    tag_55:\n        /* \"#utility.yul\":3401:3402   */\n      0x00\n        /* \"#utility.yul\":3398:3399   */\n      dup1\n        /* \"#utility.yul\":3391:3403   */\n      revert\n        /* \"#utility.yul\":3415:3537   */\n    tag_51:\n        /* \"#utility.yul\":3488:3512   */\n      tag_97\n        /* \"#utility.yul\":3506:3511   */\n      dup2\n        /* \"#utility.yul\":3488:3512   */\n      tag_77\n      jump\t// in\n    tag_97:\n        /* \"#utility.yul\":3481:3486   */\n      dup2\n        /* \"#utility.yul\":3478:3513   */\n      eq\n        /* \"#utility.yul\":3468:3531   */\n      tag_98\n      jumpi\n        /* \"#utility.yul\":3527:3528   */\n      0x00\n        /* \"#utility.yul\":3524:3525   */\n      dup1\n        /* \"#utility.yul\":3517:3529   */\n      revert\n        /* \"#utility.yul\":3468:3531   */\n    tag_98:\n        /* \"#utility.yul\":3415:3537   */\n      pop\n      jump\t// out\n\n    auxdata: 0xa264697066735822122039dccfa3cae6ccd60768d5b2a465362f86253eb47eac2146a07958d0bd37f64164736f6c63430008070033\n}\n",
				"bytecode": {
					"linkReferences": {},
					"object": "60806040526040518060600160405280600260ff168152602001600360ff168152602001600460ff16815250600090600361003b92919061004e565b5034801561004857600080fd5b506100b0565b8260038101928215610082579160200282015b82811115610081578251829060ff16905591602001919060010190610061565b5b50905061008f9190610093565b5090565b5b808211156100ac576000816000905550600101610094565b5090565b6104b7806100bf6000396000f3fe608060405234801561001057600080fd5b506004361061007d5760003560e01c8063be1c766b1161005b578063be1c766b146100c6578063d39fa233146100e4578063e9b6190914610114578063ee495002146101325761007d565b806309b8e39f146100825780630add6ef21461008c578063a16e7215146100aa575b600080fd5b61008a610150565b005b610094610205565b6040516100a19190610357565b60405180910390f35b6100c460048036038101906100bf91906102c0565b610218565b005b6100ce610236565b6040516100db919061038d565b60405180910390f35b6100fe60048036038101906100f99190610293565b61023f565b60405161010b919061038d565b60405180910390f35b61011c61025a565b6040516101299190610372565b60405180910390f35b61013a61026b565b604051610147919061033c565b60405180910390f35b7f6100000000000000000000000000000000000000000000000000000000000000600360006101000a81548160ff021916908360f81c02179055507f6162000000000000000000000000000000000000000000000000000000000000600360016101000a81548161ffff021916908360f01c02179055507f7a000000000000000000000000000000000000000000000000000000000000006003806101000a81548162ffffff021916908360e81c0217905550565b600360019054906101000a900460f01b81565b806000836003811061022d5761022c610436565b5b01819055505050565b60006003905090565b6000816003811061024f57600080fd5b016000915090505481565b60038054906101000a900460e81b81565b600360009054906101000a900460f81b81565b60008135905061028d8161046a565b92915050565b6000602082840312156102a9576102a8610465565b5b60006102b78482850161027e565b91505092915050565b600080604083850312156102d7576102d6610465565b5b60006102e58582860161027e565b92505060206102f68582860161027e565b9150509250929050565b610309816103a8565b82525050565b610318816103d4565b82525050565b61032781610400565b82525050565b6103368161042c565b82525050565b60006020820190506103516000830184610300565b92915050565b600060208201905061036c600083018461030f565b92915050565b6000602082019050610387600083018461031e565b92915050565b60006020820190506103a2600083018461032d565b92915050565b60007fff0000000000000000000000000000000000000000000000000000000000000082169050919050565b60007fffff00000000000000000000000000000000000000000000000000000000000082169050919050565b60007fffffff000000000000000000000000000000000000000000000000000000000082169050919050565b6000819050919050565b7f4e487b7100000000000000000000000000000000000000000000000000000000600052603260045260246000fd5b600080fd5b6104738161042c565b811461047e57600080fd5b5056fea264697066735822122039dccfa3cae6ccd60768d5b2a465362f86253eb47eac2146a07958d0bd37f64164736f6c63430008070033",
					"opcodes": "PUSH1 0x80 PUSH1 0x40 MSTORE PUSH1 0x40 MLOAD DUP1 PUSH1 0x60 ADD PUSH1 0x40 MSTORE DUP1 PUSH1 0x2 PUSH1 0xFF AND DUP2 MSTORE PUSH1 0x20 ADD PUSH1 0x3 PUSH1 0xFF AND DUP2 MSTORE PUSH1 0x20 ADD PUSH1 0x4 PUSH1 0xFF AND DUP2 MSTORE POP PUSH1 0x0 SWAP1 PUSH1 0x3 PUSH2 0x3B SWAP3 SWAP2 SWAP1 PUSH2 0x4E JUMP JUMPDEST POP CALLVALUE DUP1 ISZERO PUSH2 0x48 JUMPI PUSH1 0x0 DUP1 REVERT JUMPDEST POP PUSH2 0xB0 JUMP JUMPDEST DUP3 PUSH1 0x3 DUP2 ADD SWAP3 DUP3 ISZERO PUSH2 0x82 JUMPI SWAP2 PUSH1 0x20 MUL DUP3 ADD JUMPDEST DUP3 DUP2 GT ISZERO PUSH2 0x81 JUMPI DUP3 MLOAD DUP3 SWAP1 PUSH1 0xFF AND SWAP1 SSTORE SWAP2 PUSH1 0x20 ADD SWAP2 SWAP1 PUSH1 0x1 ADD SWAP1 PUSH2 0x61 JUMP JUMPDEST JUMPDEST POP SWAP1 POP PUSH2 0x8F SWAP2 SWAP1 PUSH2 0x93 JUMP JUMPDEST POP SWAP1 JUMP JUMPDEST JUMPDEST DUP1 DUP3 GT ISZERO PUSH2 0xAC JUMPI PUSH1 0x0 DUP2 PUSH1 0x0 SWAP1 SSTORE POP PUSH1 0x1 ADD PUSH2 0x94 JUMP JUMPDEST POP SWAP1 JUMP JUMPDEST PUSH2 0x4B7 DUP1 PUSH2 0xBF PUSH1 0x0 CODECOPY PUSH1 0x0 RETURN INVALID PUSH1 0x80 PUSH1 0x40 MSTORE CALLVALUE DUP1 ISZERO PUSH2 0x10 JUMPI PUSH1 0x0 DUP1 REVERT JUMPDEST POP PUSH1 0x4 CALLDATASIZE LT PUSH2 0x7D JUMPI PUSH1 0x0 CALLDATALOAD PUSH1 0xE0 SHR DUP1 PUSH4 0xBE1C766B GT PUSH2 0x5B JUMPI DUP1 PUSH4 0xBE1C766B EQ PUSH2 0xC6 JUMPI DUP1 PUSH4 0xD39FA233 EQ PUSH2 0xE4 JUMPI DUP1 PUSH4 0xE9B61909 EQ PUSH2 0x114 JUMPI DUP1 PUSH4 0xEE495002 EQ PUSH2 0x132 JUMPI PUSH2 0x7D JUMP JUMPDEST DUP1 PUSH4 0x9B8E39F EQ PUSH2 0x82 JUMPI DUP1 PUSH4 0xADD6EF2 EQ PUSH2 0x8C JUMPI DUP1 PUSH4 0xA16E7215 EQ PUSH2 0xAA JUMPI JUMPDEST PUSH1 0x0 DUP1 REVERT JUMPDEST PUSH2 0x8A PUSH2 0x150 JUMP JUMPDEST STOP JUMPDEST PUSH2 0x94 PUSH2 0x205 JUMP JUMPDEST PUSH1 0x40 MLOAD PUSH2 0xA1 SWAP2 SWAP1 PUSH2 0x357 JUMP JUMPDEST PUSH1 0x40 MLOAD DUP1 SWAP2 SUB SWAP1 RETURN JUMPDEST PUSH2 0xC4 PUSH1 0x4 DUP1 CALLDATASIZE SUB DUP2 ADD SWAP1 PUSH2 0xBF SWAP2 SWAP1 PUSH2 0x2C0 JUMP JUMPDEST PUSH2 0x218 JUMP JUMPDEST STOP JUMPDEST PUSH2 0xCE PUSH2 0x236 JUMP JUMPDEST PUSH1 0x40 MLOAD PUSH2 0xDB SWAP2 SWAP1 PUSH2 0x38D JUMP JUMPDEST PUSH1 0x40 MLOAD DUP1 SWAP2 SUB SWAP1 RETURN JUMPDEST PUSH2 0xFE PUSH1 0x4 DUP1 CALLDATASIZE SUB DUP2 ADD SWAP1 PUSH2 0xF9 SWAP2 SWAP1 PUSH2 0x293 JUMP JUMPDEST PUSH2 0x23F JUMP JUMPDEST PUSH1 0x40 MLOAD PUSH2 0x10B SWAP2 SWAP1 PUSH2 0x38D JUMP JUMPDEST PUSH1 0x40 MLOAD DUP1 SWAP2 SUB SWAP1 RETURN JUMPDEST PUSH2 0x11C PUSH2 0x25A JUMP JUMPDEST PUSH1 0x40 MLOAD PUSH2 0x129 SWAP2 SWAP1 PUSH2 0x372 JUMP JUMPDEST PUSH1 0x40 MLOAD DUP1 SWAP2 SUB SWAP1 RETURN JUMPDEST PUSH2 0x13A PUSH2 0x26B JUMP JUMPDEST PUSH1 0x40 MLOAD PUSH2 0x147 SWAP2 SWAP1 PUSH2 0x33C JUMP JUMPDEST PUSH1 0x40 MLOAD DUP1 SWAP2 SUB SWAP1 RETURN JUMPDEST PUSH32 0x6100000000000000000000000000000000000000000000000000000000000000 PUSH1 0x3 PUSH1 0x0 PUSH2 0x100 EXP DUP2 SLOAD DUP2 PUSH1 0xFF MUL NOT AND SWAP1 DUP4 PUSH1 0xF8 SHR MUL OR SWAP1 SSTORE POP PUSH32 0x6162000000000000000000000000000000000000000000000000000000000000 PUSH1 0x3 PUSH1 0x1 PUSH2 0x100 EXP DUP2 SLOAD DUP2 PUSH2 0xFFFF MUL NOT AND SWAP1 DUP4 PUSH1 0xF0 SHR MUL OR SWAP1 SSTORE POP PUSH32 0x7A00000000000000000000000000000000000000000000000000000000000000 PUSH1 0x3 DUP1 PUSH2 0x100 EXP DUP2 SLOAD DUP2 PUSH3 0xFFFFFF MUL NOT AND SWAP1 DUP4 PUSH1 0xE8 SHR MUL OR SWAP1 SSTORE POP JUMP JUMPDEST PUSH1 0x3 PUSH1 0x1 SWAP1 SLOAD SWAP1 PUSH2 0x100 EXP SWAP1 DIV PUSH1 0xF0 SHL DUP2 JUMP JUMPDEST DUP1 PUSH1 0x0 DUP4 PUSH1 0x3 DUP2 LT PUSH2 0x22D JUMPI PUSH2 0x22C PUSH2 0x436 JUMP JUMPDEST JUMPDEST ADD DUP2 SWAP1 SSTORE POP POP POP JUMP JUMPDEST PUSH1 0x0 PUSH1 0x3 SWAP1 POP SWAP1 JUMP JUMPDEST PUSH1 0x0 DUP2 PUSH1 0x3 DUP2 LT PUSH2 0x24F JUMPI PUSH1 0x0 DUP1 REVERT JUMPDEST ADD PUSH1 0x0 SWAP2 POP SWAP1 POP SLOAD DUP2 JUMP JUMPDEST PUSH1 0x3 DUP1 SLOAD SWAP1 PUSH2 0x100 EXP SWAP1 DIV PUSH1 0xE8 SHL DUP2 JUMP JUMPDEST PUSH1 0x3 PUSH1 0x0 SWAP1 SLOAD SWAP1 PUSH2 0x100 EXP SWAP1 DIV PUSH1 0xF8 SHL DUP2 JUMP JUMPDEST PUSH1 0x0 DUP2 CALLDATALOAD SWAP1 POP PUSH2 0x28D DUP2 PUSH2 0x46A JUMP JUMPDEST SWAP3 SWAP2 POP POP JUMP JUMPDEST PUSH1 0x0 PUSH1 0x20 DUP3 DUP5 SUB SLT ISZERO PUSH2 0x2A9 JUMPI PUSH2 0x2A8 PUSH2 0x465 JUMP JUMPDEST JUMPDEST PUSH1 0x0 PUSH2 0x2B7 DUP5 DUP3 DUP6 ADD PUSH2 0x27E JUMP JUMPDEST SWAP2 POP POP SWAP3 SWAP2 POP POP JUMP JUMPDEST PUSH1 0x0 DUP1 PUSH1 0x40 DUP4 DUP6 SUB SLT ISZERO PUSH2 0x2D7 JUMPI PUSH2 0x2D6 PUSH2 0x465 JUMP JUMPDEST JUMPDEST PUSH1 0x0 PUSH2 0x2E5 DUP6 DUP3 DUP7 ADD PUSH2 0x27E JUMP JUMPDEST SWAP3 POP POP PUSH1 0x20 PUSH2 0x2F6 DUP6 DUP3 DUP7 ADD PUSH2 0x27E JUMP JUMPDEST SWAP2 POP POP SWAP3 POP SWAP3 SWAP1 POP JUMP JUMPDEST PUSH2 0x309 DUP2 PUSH2 0x3A8 JUMP JUMPDEST DUP3 MSTORE POP POP JUMP JUMPDEST PUSH2 0x318 DUP2 PUSH2 0x3D4 JUMP JUMPDEST DUP3 MSTORE POP POP JUMP JUMPDEST PUSH2 0x327 DUP2 PUSH2 0x400 JUMP JUMPDEST DUP3 MSTORE POP POP JUMP JUMPDEST PUSH2 0x336 DUP2 PUSH2 0x42C JUMP JUMPDEST DUP3 MSTORE POP POP JUMP JUMPDEST PUSH1 0x0 PUSH1 0x20 DUP3 ADD SWAP1 POP PUSH2 0x351 PUSH1 0x0 DUP4 ADD DUP5 PUSH2 0x300 JUMP JUMPDEST SWAP3 SWAP2 POP POP JUMP JUMPDEST PUSH1 0x0 PUSH1 0x20 DUP3 ADD SWAP1 POP PUSH2 0x36C PUSH1 0x0 DUP4 ADD DUP5 PUSH2 0x30F JUMP JUMPDEST SWAP3 SWAP2 POP POP JUMP JUMPDEST PUSH1 0x0 PUSH1 0x20 DUP3 ADD SWAP1 POP PUSH2 0x387 PUSH1 0x0 DUP4 ADD DUP5 PUSH2 0x31E JUMP JUMPDEST SWAP3 SWAP2 POP POP JUMP JUMPDEST PUSH1 0x0 PUSH1 0x20 DUP3 ADD SWAP1 POP PUSH2 0x3A2 PUSH1 0x0 DUP4 ADD DUP5 PUSH2 0x32D JUMP JUMPDEST SWAP3 SWAP2 POP POP JUMP JUMPDEST PUSH1 0x0 PUSH32 0xFF00000000000000000000000000000000000000000000000000000000000000 DUP3 AND SWAP1 POP SWAP2 SWAP1 POP JUMP JUMPDEST PUSH1 0x0 PUSH32 0xFFFF000000000000000000000000000000000000000000000000000000000000 DUP3 AND SWAP1 POP SWAP2 SWAP1 POP JUMP JUMPDEST PUSH1 0x0 PUSH32 0xFFFFFF0000000000000000000000000000000000000000000000000000000000 DUP3 AND SWAP1 POP SWAP2 SWAP1 POP JUMP JUMPDEST PUSH1 0x0 DUP2 SWAP1 POP SWAP2 SWAP1 POP JUMP JUMPDEST PUSH32 0x4E487B7100000000000000000000000000000000000000000000000000000000 PUSH1 0x0 MSTORE PUSH1 0x32 PUSH1 0x4 MSTORE PUSH1 0x24 PUSH1 0x0 REVERT JUMPDEST PUSH1 0x0 DUP1 REVERT JUMPDEST PUSH2 0x473 DUP2 PUSH2 0x42C JUMP JUMPDEST DUP2 EQ PUSH2 0x47E JUMPI PUSH1 0x0 DUP1 REVERT JUMPDEST POP JUMP INVALID LOG2 PUSH5 0x6970667358 0x22 SLT KECCAK256 CODECOPY 0xDC 0xCF LOG3 0xCA 0xE6 0xCC 0xD6 SMOD PUSH9 0xD5B2A465362F86253E 0xB4 PUSH31 0xAC2146A07958D0BD37F64164736F6C63430008070033000000000000000000 "
				},
				"gasEstimates": {
					"creation": {
						"codeDepositCost": "241400",
						"executionCost": "infinite",
						"totalCost": "infinite"
					},
					"external": {
						"b1()": "2537",
						"b2()": "2544",
						"b3()": "2562",
						"getLength()": "337",
						"numbers(uint256)": "infinite",
						"setBytesArray()": "73046",
						"setElement(uint256,uint256)": "infinite"
					}
				},
				"methodIdentifiers": {
					"b1()": "ee495002",
					"b2()": "0add6ef2",
					"b3()": "e9b61909",
					"getLength()": "be1c766b",
					"numbers(uint256)": "d39fa233",
					"setBytesArray()": "09b8e39f",
					"setElement(uint256,uint256)": "a16e7215"
				}
			},
			"storageLayout": {
				"storage": [
					{
						"astId": 9,
						"contract": "contracts/fixed_array.sol:FixedSizeArrays",
						"label": "numbers",
						"offset": 0,
						"slot": "0",
						"type": "t_array(t_uint256)3_storage"
					},
					{
						"astId": 11,
						"contract": "contracts/fixed_array.sol:FixedSizeArrays",
						"label": "b1",
						"offset": 0,
						"slot": "3",
						"type": "t_bytes1"
					},
					{
						"astId": 13,
						"contract": "contracts/fixed_array.sol:FixedSizeArrays",
						"label": "b2",
						"offset": 1,
						"slot": "3",
						"type": "t_bytes2"
					},
					{
						"astId": 15,
						"contract": "contracts/fixed_array.sol:FixedSizeArrays",
						"label": "b3",
						"offset": 3,
						"slot": "3",
						"type": "t_bytes3"
					}
				],
				"types": {
					"t_array(t_uint256)3_storage": {
						"base": "t_uint256",
						"encoding": "inplace",
						"label": "uint256[3]",
						"numberOfBytes": "96"
					},
					"t_bytes1": {
						"encoding": "inplace",
						"label": "bytes1",
						"numberOfBytes": "1"
					},
					"t_bytes2": {
						"encoding": "inplace",
						"label": "bytes2",
						"numberOfBytes": "2"
					},
					"t_bytes3": {
						"encoding": "inplace",
						"label": "bytes3",
						"numberOfBytes": "3"
					},
					"t_uint256": {
						"encoding": "inplace",
						"label": "uint256",
						"numberOfBytes": "32"
					}
				}
			},
			"userdoc": {
				"kind": "user",
				"methods": {},
				"version": 1
			}
		}
	}
}