{
	"contracts/variables_and_functions_visibility.sol": {
		"A": {
			"abi": [
				{
					"inputs": [],
					"name": "f2",
					"outputs": [
						{
							"internalType": "int256",
							"name": "",
							"type": "int256"
						}
					],
					"stateMutability": "view",
					"type": "function"
				},
				{
					"inputs": [],
					"name": "getY",
					"outputs": [
						{
							"internalType": "int256",
							"name": "",
							"type": "int256"
						}
					],
					"stateMutability": "view",
					"type": "function"
				},
				{
					"inputs": [],
					"name": "x",
					"outputs": [
						{
							"internalType": "int256",
							"name": "",
							"type": "int256"
						}
					],
					"stateMutability": "view",
					"type": "function"
				}
			],
			"devdoc": {
				"kind": "dev",
				"methods": {},
				"version": 1
			},
			"evm": {
				"assembly": "    /* \"contracts/variables_and_functions_visibility.sol\":73:755  contract A{\r... */\n  mstore(0x40, 0x80)\n    /* \"contracts/variables_and_functions_visibility.sol\":178:180  10 */\n  0x0a\n    /* \"contracts/variables_and_functions_visibility.sol\":163:180  int public x = 10 */\n  0x00\n  sstore\n    /* \"contracts/variables_and_functions_visibility.sol\":296:298  20 */\n  0x14\n    /* \"contracts/variables_and_functions_visibility.sol\":288:298  int y = 20 */\n  0x01\n  sstore\n    /* \"contracts/variables_and_functions_visibility.sol\":73:755  contract A{\r... */\n  callvalue\n  dup1\n  iszero\n  tag_1\n  jumpi\n  0x00\n  dup1\n  revert\ntag_1:\n  pop\n  dataSize(sub_0)\n  dup1\n  dataOffset(sub_0)\n  0x00\n  codecopy\n  0x00\n  return\nstop\n\nsub_0: assembly {\n        /* \"contracts/variables_and_functions_visibility.sol\":73:755  contract A{\r... */\n      mstore(0x40, 0x80)\n      callvalue\n      dup1\n      iszero\n      tag_1\n      jumpi\n      0x00\n      dup1\n      revert\n    tag_1:\n      pop\n      jumpi(tag_2, lt(calldatasize, 0x04))\n      shr(0xe0, calldataload(0x00))\n      dup1\n      0x0b7f1665\n      eq\n      tag_3\n      jumpi\n      dup1\n      0x0c55699c\n      eq\n      tag_4\n      jumpi\n      dup1\n      0x9942ec6f\n      eq\n      tag_5\n      jumpi\n    tag_2:\n      0x00\n      dup1\n      revert\n        /* \"contracts/variables_and_functions_visibility.sol\":383:450  function getY() public view returns(int){\r... */\n    tag_3:\n      tag_6\n      tag_7\n      jump\t// in\n    tag_6:\n      mload(0x40)\n      tag_8\n      swap2\n      swap1\n      tag_9\n      jump\t// in\n    tag_8:\n      mload(0x40)\n      dup1\n      swap2\n      sub\n      swap1\n      return\n        /* \"contracts/variables_and_functions_visibility.sol\":163:180  int public x = 10 */\n    tag_4:\n      tag_10\n      tag_11\n      jump\t// in\n    tag_10:\n      mload(0x40)\n      tag_12\n      swap2\n      swap1\n      tag_9\n      jump\t// in\n    tag_12:\n      mload(0x40)\n      dup1\n      swap2\n      sub\n      swap1\n      return\n        /* \"contracts/variables_and_functions_visibility.sol\":694:750  function f2() public view returns(int){\r... */\n    tag_5:\n      tag_13\n      tag_14\n      jump\t// in\n    tag_13:\n      mload(0x40)\n      tag_15\n      swap2\n      swap1\n      tag_9\n      jump\t// in\n    tag_15:\n      mload(0x40)\n      dup1\n      swap2\n      sub\n      swap1\n      return\n        /* \"contracts/variables_and_functions_visibility.sol\":383:450  function getY() public view returns(int){\r... */\n    tag_7:\n        /* \"contracts/variables_and_functions_visibility.sol\":419:422  int */\n      0x00\n        /* \"contracts/variables_and_functions_visibility.sol\":441:442  y */\n      sload(0x01)\n        /* \"contracts/variables_and_functions_visibility.sol\":434:442  return y */\n      swap1\n      pop\n        /* \"contracts/variables_and_functions_visibility.sol\":383:450  function getY() public view returns(int){\r... */\n      swap1\n      jump\t// out\n        /* \"contracts/variables_and_functions_visibility.sol\":163:180  int public x = 10 */\n    tag_11:\n      sload(0x00)\n      dup2\n      jump\t// out\n        /* \"contracts/variables_and_functions_visibility.sol\":694:750  function f2() public view returns(int){\r... */\n    tag_14:\n        /* \"contracts/variables_and_functions_visibility.sol\":728:731  int */\n      0x00\n        /* \"contracts/variables_and_functions_visibility.sol\":694:750  function f2() public view returns(int){\r... */\n      swap1\n      jump\t// out\n        /* \"#utility.yul\":7:122   */\n    tag_19:\n        /* \"#utility.yul\":92:115   */\n      tag_21\n        /* \"#utility.yul\":109:114   */\n      dup2\n        /* \"#utility.yul\":92:115   */\n      tag_22\n      jump\t// in\n    tag_21:\n        /* \"#utility.yul\":87:90   */\n      dup3\n        /* \"#utility.yul\":80:116   */\n      mstore\n        /* \"#utility.yul\":7:122   */\n      pop\n      pop\n      jump\t// out\n        /* \"#utility.yul\":128:346   */\n    tag_9:\n        /* \"#utility.yul\":219:223   */\n      0x00\n        /* \"#utility.yul\":257:259   */\n      0x20\n        /* \"#utility.yul\":246:255   */\n      dup3\n        /* \"#utility.yul\":242:260   */\n      add\n        /* \"#utility.yul\":234:260   */\n      swap1\n      pop\n        /* \"#utility.yul\":270:339   */\n      tag_24\n        /* \"#utility.yul\":336:337   */\n      0x00\n        /* \"#utility.yul\":325:334   */\n      dup4\n        /* \"#utility.yul\":321:338   */\n      add\n        /* \"#utility.yul\":312:318   */\n      dup5\n        /* \"#utility.yul\":270:339   */\n      tag_19\n      jump\t// in\n    tag_24:\n        /* \"#utility.yul\":128:346   */\n      swap3\n      swap2\n      pop\n      pop\n      jump\t// out\n        /* \"#utility.yul\":352:428   */\n    tag_22:\n        /* \"#utility.yul\":388:395   */\n      0x00\n        /* \"#utility.yul\":417:422   */\n      dup2\n        /* \"#utility.yul\":406:422   */\n      swap1\n      pop\n        /* \"#utility.yul\":352:428   */\n      swap2\n      swap1\n      pop\n      jump\t// out\n\n    auxdata: 0xa26469706673582212207c0fc7b09a503353564e3f522b94aac4230fb81433eaabc5292911e8c535ede564736f6c63430008070033\n}\n",
				"bytecode": {
					"linkReferences": {},
					"object": "6080604052600a600055601460015534801561001a57600080fd5b5061010a8061002a6000396000f3fe6080604052348015600f57600080fd5b5060043610603c5760003560e01c80630b7f16651460415780630c55699c14605b5780639942ec6f146075575b600080fd5b6047608f565b6040516052919060b1565b60405180910390f35b60616099565b604051606c919060b1565b60405180910390f35b607b609f565b6040516086919060b1565b60405180910390f35b6000600154905090565b60005481565b600090565b60ab8160ca565b82525050565b600060208201905060c4600083018460a4565b92915050565b600081905091905056fea26469706673582212207c0fc7b09a503353564e3f522b94aac4230fb81433eaabc5292911e8c535ede564736f6c63430008070033",
					"opcodes": "PUSH1 0x80 PUSH1 0x40 MSTORE PUSH1 0xA PUSH1 0x0 SSTORE PUSH1 0x14 PUSH1 0x1 SSTORE CALLVALUE DUP1 ISZERO PUSH2 0x1A JUMPI PUSH1 0x0 DUP1 REVERT JUMPDEST POP PUSH2 0x10A DUP1 PUSH2 0x2A PUSH1 0x0 CODECOPY PUSH1 0x0 RETURN INVALID PUSH1 0x80 PUSH1 0x40 MSTORE CALLVALUE DUP1 ISZERO PUSH1 0xF JUMPI PUSH1 0x0 DUP1 REVERT JUMPDEST POP PUSH1 0x4 CALLDATASIZE LT PUSH1 0x3C JUMPI PUSH1 0x0 CALLDATALOAD PUSH1 0xE0 SHR DUP1 PUSH4 0xB7F1665 EQ PUSH1 0x41 JUMPI DUP1 PUSH4 0xC55699C EQ PUSH1 0x5B JUMPI DUP1 PUSH4 0x9942EC6F EQ PUSH1 0x75 JUMPI JUMPDEST PUSH1 0x0 DUP1 REVERT JUMPDEST PUSH1 0x47 PUSH1 0x8F JUMP JUMPDEST PUSH1 0x40 MLOAD PUSH1 0x52 SWAP2 SWAP1 PUSH1 0xB1 JUMP JUMPDEST PUSH1 0x40 MLOAD DUP1 SWAP2 SUB SWAP1 RETURN JUMPDEST PUSH1 0x61 PUSH1 0x99 JUMP JUMPDEST PUSH1 0x40 MLOAD PUSH1 0x6C SWAP2 SWAP1 PUSH1 0xB1 JUMP JUMPDEST PUSH1 0x40 MLOAD DUP1 SWAP2 SUB SWAP1 RETURN JUMPDEST PUSH1 0x7B PUSH1 0x9F JUMP JUMPDEST PUSH1 0x40 MLOAD PUSH1 0x86 SWAP2 SWAP1 PUSH1 0xB1 JUMP JUMPDEST PUSH1 0x40 MLOAD DUP1 SWAP2 SUB SWAP1 RETURN JUMPDEST PUSH1 0x0 PUSH1 0x1 SLOAD SWAP1 POP SWAP1 JUMP JUMPDEST PUSH1 0x0 SLOAD DUP2 JUMP JUMPDEST PUSH1 0x0 SWAP1 JUMP JUMPDEST PUSH1 0xAB DUP2 PUSH1 0xCA JUMP JUMPDEST DUP3 MSTORE POP POP JUMP JUMPDEST PUSH1 0x0 PUSH1 0x20 DUP3 ADD SWAP1 POP PUSH1 0xC4 PUSH1 0x0 DUP4 ADD DUP5 PUSH1 0xA4 JUMP JUMPDEST SWAP3 SWAP2 POP POP JUMP JUMPDEST PUSH1 0x0 DUP2 SWAP1 POP SWAP2 SWAP1 POP JUMP INVALID LOG2 PUSH5 0x6970667358 0x22 SLT KECCAK256 PUSH29 0xFC7B09A503353564E3F522B94AAC4230FB81433EAABC5292911E8C535 0xED 0xE5 PUSH5 0x736F6C6343 STOP ADDMOD SMOD STOP CALLER "
				},
				"gasEstimates": {
					"creation": {
						"codeDepositCost": "53200",
						"executionCost": "44317",
						"totalCost": "97517"
					},
					"external": {
						"f2()": "351",
						"getY()": "2415",
						"x()": "2429"
					},
					"internal": {
						"f1()": "infinite"
					}
				},
				"methodIdentifiers": {
					"f2()": "9942ec6f",
					"getY()": "0b7f1665",
					"x()": "0c55699c"
				}
			},
			"storageLayout": {
				"storage": [
					{
						"astId": 4,
						"contract": "contracts/variables_and_functions_visibility.sol:A",
						"label": "x",
						"offset": 0,
						"slot": "0",
						"type": "t_int256"
					},
					{
						"astId": 7,
						"contract": "contracts/variables_and_functions_visibility.sol:A",
						"label": "y",
						"offset": 0,
						"slot": "1",
						"type": "t_int256"
					}
				],
				"types": {
					"t_int256": {
						"encoding": "inplace",
						"label": "int256",
						"numberOfBytes": "32"
					}
				}
			},
			"userdoc": {
				"kind": "user",
				"methods": {},
				"version": 1
			}
		}
	}
}