{
	"contracts/inheritance.sol": {
		"BaseContract": {
			"abi": [
				{
					"inputs": [],
					"stateMutability": "nonpayable",
					"type": "constructor"
				},
				{
					"inputs": [],
					"name": "owner",
					"outputs": [
						{
							"internalType": "address",
							"name": "",
							"type": "address"
						}
					],
					"stateMutability": "view",
					"type": "function"
				},
				{
					"inputs": [
						{
							"internalType": "uint256",
							"name": "_x",
							"type": "uint256"
						}
					],
					"name": "setX",
					"outputs": [],
					"stateMutability": "nonpayable",
					"type": "function"
				},
				{
					"inputs": [],
					"name": "x",
					"outputs": [
						{
							"internalType": "int256",
							"name": "",
							"type": "int256"
						}
					],
					"stateMutability": "view",
					"type": "function"
				}
			],
			"devdoc": {
				"kind": "dev",
				"methods": {},
				"version": 1
			},
			"evm": {
				"assembly": "    /* \"contracts/inheritance.sol\":73:386  contract BaseContract{\r... */\n  mstore(0x40, 0x80)\n    /* \"contracts/inheritance.sol\":216:282  constructor(){\r... */\n  callvalue\n  dup1\n  iszero\n  tag_1\n  jumpi\n  0x00\n  dup1\n  revert\ntag_1:\n  pop\n    /* \"contracts/inheritance.sol\":244:245  5 */\n  0x05\n    /* \"contracts/inheritance.sol\":240:241  x */\n  0x00\n    /* \"contracts/inheritance.sol\":240:245  x = 5 */\n  dup2\n  swap1\n  sstore\n  pop\n    /* \"contracts/inheritance.sol\":264:274  msg.sender */\n  caller\n    /* \"contracts/inheritance.sol\":256:261  owner */\n  0x01\n  0x00\n    /* \"contracts/inheritance.sol\":256:274  owner = msg.sender */\n  0x0100\n  exp\n  dup2\n  sload\n  dup2\n  0xffffffffffffffffffffffffffffffffffffffff\n  mul\n  not\n  and\n  swap1\n  dup4\n  0xffffffffffffffffffffffffffffffffffffffff\n  and\n  mul\n  or\n  swap1\n  sstore\n  pop\n    /* \"contracts/inheritance.sol\":73:386  contract BaseContract{\r... */\n  dataSize(sub_0)\n  dup1\n  dataOffset(sub_0)\n  0x00\n  codecopy\n  0x00\n  return\nstop\n\nsub_0: assembly {\n        /* \"contracts/inheritance.sol\":73:386  contract BaseContract{\r... */\n      mstore(0x40, 0x80)\n      callvalue\n      dup1\n      iszero\n      tag_1\n      jumpi\n      0x00\n      dup1\n      revert\n    tag_1:\n      pop\n      jumpi(tag_2, lt(calldatasize, 0x04))\n      shr(0xe0, calldataload(0x00))\n      dup1\n      0x0c55699c\n      eq\n      tag_3\n      jumpi\n      dup1\n      0x4018d9aa\n      eq\n      tag_4\n      jumpi\n      dup1\n      0x8da5cb5b\n      eq\n      tag_5\n      jumpi\n    tag_2:\n      0x00\n      dup1\n      revert\n        /* \"contracts/inheritance.sol\":141:153  int public x */\n    tag_3:\n      tag_6\n      tag_7\n      jump\t// in\n    tag_6:\n      mload(0x40)\n      tag_8\n      swap2\n      swap1\n      tag_9\n      jump\t// in\n    tag_8:\n      mload(0x40)\n      dup1\n      swap2\n      sub\n      swap1\n      return\n        /* \"contracts/inheritance.sol\":330:381  function setX(uint _x) public{\r... */\n    tag_4:\n      tag_10\n      0x04\n      dup1\n      calldatasize\n      sub\n      dup2\n      add\n      swap1\n      tag_11\n      swap2\n      swap1\n      tag_12\n      jump\t// in\n    tag_11:\n      tag_13\n      jump\t// in\n    tag_10:\n      stop\n        /* \"contracts/inheritance.sol\":160:180  address public owner */\n    tag_5:\n      tag_14\n      tag_15\n      jump\t// in\n    tag_14:\n      mload(0x40)\n      tag_16\n      swap2\n      swap1\n      tag_17\n      jump\t// in\n    tag_16:\n      mload(0x40)\n      dup1\n      swap2\n      sub\n      swap1\n      return\n        /* \"contracts/inheritance.sol\":141:153  int public x */\n    tag_7:\n      sload(0x00)\n      dup2\n      jump\t// out\n        /* \"contracts/inheritance.sol\":330:381  function setX(uint _x) public{\r... */\n    tag_13:\n      pop\n      jump\t// out\n        /* \"contracts/inheritance.sol\":160:180  address public owner */\n    tag_15:\n      0x01\n      0x00\n      swap1\n      sload\n      swap1\n      0x0100\n      exp\n      swap1\n      div\n      0xffffffffffffffffffffffffffffffffffffffff\n      and\n      dup2\n      jump\t// out\n        /* \"#utility.yul\":7:146   */\n    tag_20:\n        /* \"#utility.yul\":53:58   */\n      0x00\n        /* \"#utility.yul\":91:97   */\n      dup2\n        /* \"#utility.yul\":78:98   */\n      calldataload\n        /* \"#utility.yul\":69:98   */\n      swap1\n      pop\n        /* \"#utility.yul\":107:140   */\n      tag_22\n        /* \"#utility.yul\":134:139   */\n      dup2\n        /* \"#utility.yul\":107:140   */\n      tag_23\n      jump\t// in\n    tag_22:\n        /* \"#utility.yul\":7:146   */\n      swap3\n      swap2\n      pop\n      pop\n      jump\t// out\n        /* \"#utility.yul\":152:481   */\n    tag_12:\n        /* \"#utility.yul\":211:217   */\n      0x00\n        /* \"#utility.yul\":260:262   */\n      0x20\n        /* \"#utility.yul\":248:257   */\n      dup3\n        /* \"#utility.yul\":239:246   */\n      dup5\n        /* \"#utility.yul\":235:258   */\n      sub\n        /* \"#utility.yul\":231:263   */\n      slt\n        /* \"#utility.yul\":228:347   */\n      iszero\n      tag_25\n      jumpi\n        /* \"#utility.yul\":266:345   */\n      tag_26\n      tag_27\n      jump\t// in\n    tag_26:\n        /* \"#utility.yul\":228:347   */\n    tag_25:\n        /* \"#utility.yul\":386:387   */\n      0x00\n        /* \"#utility.yul\":411:464   */\n      tag_28\n        /* \"#utility.yul\":456:463   */\n      dup5\n        /* \"#utility.yul\":447:453   */\n      dup3\n        /* \"#utility.yul\":436:445   */\n      dup6\n        /* \"#utility.yul\":432:454   */\n      add\n        /* \"#utility.yul\":411:464   */\n      tag_20\n      jump\t// in\n    tag_28:\n        /* \"#utility.yul\":401:464   */\n      swap2\n      pop\n        /* \"#utility.yul\":357:474   */\n      pop\n        /* \"#utility.yul\":152:481   */\n      swap3\n      swap2\n      pop\n      pop\n      jump\t// out\n        /* \"#utility.yul\":487:605   */\n    tag_29:\n        /* \"#utility.yul\":574:598   */\n      tag_31\n        /* \"#utility.yul\":592:597   */\n      dup2\n        /* \"#utility.yul\":574:598   */\n      tag_32\n      jump\t// in\n    tag_31:\n        /* \"#utility.yul\":569:572   */\n      dup3\n        /* \"#utility.yul\":562:599   */\n      mstore\n        /* \"#utility.yul\":487:605   */\n      pop\n      pop\n      jump\t// out\n        /* \"#utility.yul\":611:726   */\n    tag_33:\n        /* \"#utility.yul\":696:719   */\n      tag_35\n        /* \"#utility.yul\":713:718   */\n      dup2\n        /* \"#utility.yul\":696:719   */\n      tag_36\n      jump\t// in\n    tag_35:\n        /* \"#utility.yul\":691:694   */\n      dup3\n        /* \"#utility.yul\":684:720   */\n      mstore\n        /* \"#utility.yul\":611:726   */\n      pop\n      pop\n      jump\t// out\n        /* \"#utility.yul\":732:954   */\n    tag_17:\n        /* \"#utility.yul\":825:829   */\n      0x00\n        /* \"#utility.yul\":863:865   */\n      0x20\n        /* \"#utility.yul\":852:861   */\n      dup3\n        /* \"#utility.yul\":848:866   */\n      add\n        /* \"#utility.yul\":840:866   */\n      swap1\n      pop\n        /* \"#utility.yul\":876:947   */\n      tag_38\n        /* \"#utility.yul\":944:945   */\n      0x00\n        /* \"#utility.yul\":933:942   */\n      dup4\n        /* \"#utility.yul\":929:946   */\n      add\n        /* \"#utility.yul\":920:926   */\n      dup5\n        /* \"#utility.yul\":876:947   */\n      tag_29\n      jump\t// in\n    tag_38:\n        /* \"#utility.yul\":732:954   */\n      swap3\n      swap2\n      pop\n      pop\n      jump\t// out\n        /* \"#utility.yul\":960:1178   */\n    tag_9:\n        /* \"#utility.yul\":1051:1055   */\n      0x00\n        /* \"#utility.yul\":1089:1091   */\n      0x20\n        /* \"#utility.yul\":1078:1087   */\n      dup3\n        /* \"#utility.yul\":1074:1092   */\n      add\n        /* \"#utility.yul\":1066:1092   */\n      swap1\n      pop\n        /* \"#utility.yul\":1102:1171   */\n      tag_40\n        /* \"#utility.yul\":1168:1169   */\n      0x00\n        /* \"#utility.yul\":1157:1166   */\n      dup4\n        /* \"#utility.yul\":1153:1170   */\n      add\n        /* \"#utility.yul\":1144:1150   */\n      dup5\n        /* \"#utility.yul\":1102:1171   */\n      tag_33\n      jump\t// in\n    tag_40:\n        /* \"#utility.yul\":960:1178   */\n      swap3\n      swap2\n      pop\n      pop\n      jump\t// out\n        /* \"#utility.yul\":1265:1361   */\n    tag_32:\n        /* \"#utility.yul\":1302:1309   */\n      0x00\n        /* \"#utility.yul\":1331:1355   */\n      tag_44\n        /* \"#utility.yul\":1349:1354   */\n      dup3\n        /* \"#utility.yul\":1331:1355   */\n      tag_45\n      jump\t// in\n    tag_44:\n        /* \"#utility.yul\":1320:1355   */\n      swap1\n      pop\n        /* \"#utility.yul\":1265:1361   */\n      swap2\n      swap1\n      pop\n      jump\t// out\n        /* \"#utility.yul\":1367:1443   */\n    tag_36:\n        /* \"#utility.yul\":1403:1410   */\n      0x00\n        /* \"#utility.yul\":1432:1437   */\n      dup2\n        /* \"#utility.yul\":1421:1437   */\n      swap1\n      pop\n        /* \"#utility.yul\":1367:1443   */\n      swap2\n      swap1\n      pop\n      jump\t// out\n        /* \"#utility.yul\":1449:1575   */\n    tag_45:\n        /* \"#utility.yul\":1486:1493   */\n      0x00\n        /* \"#utility.yul\":1526:1568   */\n      0xffffffffffffffffffffffffffffffffffffffff\n        /* \"#utility.yul\":1519:1524   */\n      dup3\n        /* \"#utility.yul\":1515:1569   */\n      and\n        /* \"#utility.yul\":1504:1569   */\n      swap1\n      pop\n        /* \"#utility.yul\":1449:1575   */\n      swap2\n      swap1\n      pop\n      jump\t// out\n        /* \"#utility.yul\":1581:1658   */\n    tag_48:\n        /* \"#utility.yul\":1618:1625   */\n      0x00\n        /* \"#utility.yul\":1647:1652   */\n      dup2\n        /* \"#utility.yul\":1636:1652   */\n      swap1\n      pop\n        /* \"#utility.yul\":1581:1658   */\n      swap2\n      swap1\n      pop\n      jump\t// out\n        /* \"#utility.yul\":1787:1904   */\n    tag_27:\n        /* \"#utility.yul\":1896:1897   */\n      0x00\n        /* \"#utility.yul\":1893:1894   */\n      dup1\n        /* \"#utility.yul\":1886:1898   */\n      revert\n        /* \"#utility.yul\":1910:2032   */\n    tag_23:\n        /* \"#utility.yul\":1983:2007   */\n      tag_54\n        /* \"#utility.yul\":2001:2006   */\n      dup2\n        /* \"#utility.yul\":1983:2007   */\n      tag_48\n      jump\t// in\n    tag_54:\n        /* \"#utility.yul\":1976:1981   */\n      dup2\n        /* \"#utility.yul\":1973:2008   */\n      eq\n        /* \"#utility.yul\":1963:2026   */\n      tag_55\n      jumpi\n        /* \"#utility.yul\":2022:2023   */\n      0x00\n        /* \"#utility.yul\":2019:2020   */\n      dup1\n        /* \"#utility.yul\":2012:2024   */\n      revert\n        /* \"#utility.yul\":1963:2026   */\n    tag_55:\n        /* \"#utility.yul\":1910:2032   */\n      pop\n      jump\t// out\n\n    auxdata: 0xa2646970667358221220dd170bf2af68f3d6617ce7fbfffd01d111f0672fa11e1aeedb3f090bb492f6bd64736f6c63430008070033\n}\n",
				"bytecode": {
					"linkReferences": {},
					"object": "608060405234801561001057600080fd5b50600560008190555033600160006101000a81548173ffffffffffffffffffffffffffffffffffffffff021916908373ffffffffffffffffffffffffffffffffffffffff1602179055506101fb806100696000396000f3fe608060405234801561001057600080fd5b50600436106100415760003560e01c80630c55699c146100465780634018d9aa146100645780638da5cb5b14610080575b600080fd5b61004e61009e565b60405161005b9190610148565b60405180910390f35b61007e600480360381019061007991906100e2565b6100a4565b005b6100886100a7565b604051610095919061012d565b60405180910390f35b60005481565b50565b600160009054906101000a900473ffffffffffffffffffffffffffffffffffffffff1681565b6000813590506100dc816101ae565b92915050565b6000602082840312156100f8576100f76101a9565b5b6000610106848285016100cd565b91505092915050565b61011881610163565b82525050565b61012781610175565b82525050565b6000602082019050610142600083018461010f565b92915050565b600060208201905061015d600083018461011e565b92915050565b600061016e8261017f565b9050919050565b6000819050919050565b600073ffffffffffffffffffffffffffffffffffffffff82169050919050565b6000819050919050565b600080fd5b6101b78161019f565b81146101c257600080fd5b5056fea2646970667358221220dd170bf2af68f3d6617ce7fbfffd01d111f0672fa11e1aeedb3f090bb492f6bd64736f6c63430008070033",
					"opcodes": "PUSH1 0x80 PUSH1 0x40 MSTORE CALLVALUE DUP1 ISZERO PUSH2 0x10 JUMPI PUSH1 0x0 DUP1 REVERT JUMPDEST POP PUSH1 0x5 PUSH1 0x0 DUP2 SWAP1 SSTORE POP CALLER PUSH1 0x1 PUSH1 0x0 PUSH2 0x100 EXP DUP2 SLOAD DUP2 PUSH20 0xFFFFFFFFFFFFFFFFFFFFFFFFFFFFFFFFFFFFFFFF MUL NOT AND SWAP1 DUP4 PUSH20 0xFFFFFFFFFFFFFFFFFFFFFFFFFFFFFFFFFFFFFFFF AND MUL OR SWAP1 SSTORE POP PUSH2 0x1FB DUP1 PUSH2 0x69 PUSH1 0x0 CODECOPY PUSH1 0x0 RETURN INVALID PUSH1 0x80 PUSH1 0x40 MSTORE CALLVALUE DUP1 ISZERO PUSH2 0x10 JUMPI PUSH1 0x0 DUP1 REVERT JUMPDEST POP PUSH1 0x4 CALLDATASIZE LT PUSH2 0x41 JUMPI PUSH1 0x0 CALLDATALOAD PUSH1 0xE0 SHR DUP1 PUSH4 0xC55699C EQ PUSH2 0x46 JUMPI DUP1 PUSH4 0x4018D9AA EQ PUSH2 0x64 JUMPI DUP1 PUSH4 0x8DA5CB5B EQ PUSH2 0x80 JUMPI JUMPDEST PUSH1 0x0 DUP1 REVERT JUMPDEST PUSH2 0x4E PUSH2 0x9E JUMP JUMPDEST PUSH1 0x40 MLOAD PUSH2 0x5B SWAP2 SWAP1 PUSH2 0x148 JUMP JUMPDEST PUSH1 0x40 MLOAD DUP1 SWAP2 SUB SWAP1 RETURN JUMPDEST PUSH2 0x7E PUSH1 0x4 DUP1 CALLDATASIZE SUB DUP2 ADD SWAP1 PUSH2 0x79 SWAP2 SWAP1 PUSH2 0xE2 JUMP JUMPDEST PUSH2 0xA4 JUMP JUMPDEST STOP JUMPDEST PUSH2 0x88 PUSH2 0xA7 JUMP JUMPDEST PUSH1 0x40 MLOAD PUSH2 0x95 SWAP2 SWAP1 PUSH2 0x12D JUMP JUMPDEST PUSH1 0x40 MLOAD DUP1 SWAP2 SUB SWAP1 RETURN JUMPDEST PUSH1 0x0 SLOAD DUP2 JUMP JUMPDEST POP JUMP JUMPDEST PUSH1 0x1 PUSH1 0x0 SWAP1 SLOAD SWAP1 PUSH2 0x100 EXP SWAP1 DIV PUSH20 0xFFFFFFFFFFFFFFFFFFFFFFFFFFFFFFFFFFFFFFFF AND DUP2 JUMP JUMPDEST PUSH1 0x0 DUP2 CALLDATALOAD SWAP1 POP PUSH2 0xDC DUP2 PUSH2 0x1AE JUMP JUMPDEST SWAP3 SWAP2 POP POP JUMP JUMPDEST PUSH1 0x0 PUSH1 0x20 DUP3 DUP5 SUB SLT ISZERO PUSH2 0xF8 JUMPI PUSH2 0xF7 PUSH2 0x1A9 JUMP JUMPDEST JUMPDEST PUSH1 0x0 PUSH2 0x106 DUP5 DUP3 DUP6 ADD PUSH2 0xCD JUMP JUMPDEST SWAP2 POP POP SWAP3 SWAP2 POP POP JUMP JUMPDEST PUSH2 0x118 DUP2 PUSH2 0x163 JUMP JUMPDEST DUP3 MSTORE POP POP JUMP JUMPDEST PUSH2 0x127 DUP2 PUSH2 0x175 JUMP JUMPDEST DUP3 MSTORE POP POP JUMP JUMPDEST PUSH1 0x0 PUSH1 0x20 DUP3 ADD SWAP1 POP PUSH2 0x142 PUSH1 0x0 DUP4 ADD DUP5 PUSH2 0x10F JUMP JUMPDEST SWAP3 SWAP2 POP POP JUMP JUMPDEST PUSH1 0x0 PUSH1 0x20 DUP3 ADD SWAP1 POP PUSH2 0x15D PUSH1 0x0 DUP4 ADD DUP5 PUSH2 0x11E JUMP JUMPDEST SWAP3 SWAP2 POP POP JUMP JUMPDEST PUSH1 0x0 PUSH2 0x16E DUP3 PUSH2 0x17F JUMP JUMPDEST SWAP1 POP SWAP2 SWAP1 POP JUMP JUMPDEST PUSH1 0x0 DUP2 SWAP1 POP SWAP2 SWAP1 POP JUMP JUMPDEST PUSH1 0x0 PUSH20 0xFFFFFFFFFFFFFFFFFFFFFFFFFFFFFFFFFFFFFFFF DUP3 AND SWAP1 POP SWAP2 SWAP1 POP JUMP JUMPDEST PUSH1 0x0 DUP2 SWAP1 POP SWAP2 SWAP1 POP JUMP JUMPDEST PUSH1 0x0 DUP1 REVERT JUMPDEST PUSH2 0x1B7 DUP2 PUSH2 0x19F JUMP JUMPDEST DUP2 EQ PUSH2 0x1C2 JUMPI PUSH1 0x0 DUP1 REVERT JUMPDEST POP JUMP INVALID LOG2 PUSH5 0x6970667358 0x22 SLT KECCAK256 0xDD OR SIGNEXTEND CALLCODE 0xAF PUSH9 0xF3D6617CE7FBFFFD01 0xD1 GT CREATE PUSH8 0x2FA11E1AEEDB3F09 SIGNEXTEND 0xB4 SWAP3 0xF6 0xBD PUSH5 0x736F6C6343 STOP ADDMOD SMOD STOP CALLER "
				},
				"gasEstimates": {
					"creation": {
						"codeDepositCost": "101400",
						"executionCost": "46527",
						"totalCost": "147927"
					},
					"external": {
						"owner()": "2536",
						"setX(uint256)": "406",
						"x()": "2407"
					}
				},
				"methodIdentifiers": {
					"owner()": "8da5cb5b",
					"setX(uint256)": "4018d9aa",
					"x()": "0c55699c"
				}
			},
			"storageLayout": {
				"storage": [
					{
						"astId": 3,
						"contract": "contracts/inheritance.sol:BaseContract",
						"label": "x",
						"offset": 0,
						"slot": "0",
						"type": "t_int256"
					},
					{
						"astId": 5,
						"contract": "contracts/inheritance.sol:BaseContract",
						"label": "owner",
						"offset": 0,
						"slot": "1",
						"type": "t_address"
					}
				],
				"types": {
					"t_address": {
						"encoding": "inplace",
						"label": "address",
						"numberOfBytes": "20"
					},
					"t_int256": {
						"encoding": "inplace",
						"label": "int256",
						"numberOfBytes": "32"
					}
				}
			},
			"userdoc": {
				"kind": "user",
				"methods": {},
				"version": 1
			}
		}
	}
}