{
	"contracts/crowdfunding.sol": {
		"CrowdFunding": {
			"abi": [
				{
					"inputs": [
						{
							"internalType": "uint256",
							"name": "_goal",
							"type": "uint256"
						},
						{
							"internalType": "uint256",
							"name": "_deadline",
							"type": "uint256"
						}
					],
					"stateMutability": "nonpayable",
					"type": "constructor"
				},
				{
					"inputs": [],
					"name": "admin",
					"outputs": [
						{
							"internalType": "address",
							"name": "",
							"type": "address"
						}
					],
					"stateMutability": "view",
					"type": "function"
				},
				{
					"inputs": [],
					"name": "contribute",
					"outputs": [],
					"stateMutability": "payable",
					"type": "function"
				},
				{
					"inputs": [
						{
							"internalType": "address",
							"name": "",
							"type": "address"
						}
					],
					"name": "contributors",
					"outputs": [
						{
							"internalType": "uint256",
							"name": "",
							"type": "uint256"
						}
					],
					"stateMutability": "view",
					"type": "function"
				},
				{
					"inputs": [
						{
							"internalType": "string",
							"name": "_description",
							"type": "string"
						},
						{
							"internalType": "address payable",
							"name": "_recipient",
							"type": "address"
						},
						{
							"internalType": "uint256",
							"name": "_value",
							"type": "uint256"
						}
					],
					"name": "createRequest",
					"outputs": [],
					"stateMutability": "nonpayable",
					"type": "function"
				},
				{
					"inputs": [],
					"name": "deadline",
					"outputs": [
						{
							"internalType": "uint256",
							"name": "",
							"type": "uint256"
						}
					],
					"stateMutability": "view",
					"type": "function"
				},
				{
					"inputs": [],
					"name": "getBalance",
					"outputs": [
						{
							"internalType": "uint256",
							"name": "",
							"type": "uint256"
						}
					],
					"stateMutability": "view",
					"type": "function"
				},
				{
					"inputs": [],
					"name": "getRefund",
					"outputs": [],
					"stateMutability": "nonpayable",
					"type": "function"
				},
				{
					"inputs": [],
					"name": "goal",
					"outputs": [
						{
							"internalType": "uint256",
							"name": "",
							"type": "uint256"
						}
					],
					"stateMutability": "view",
					"type": "function"
				},
				{
					"inputs": [],
					"name": "minimumContribution",
					"outputs": [
						{
							"internalType": "uint256",
							"name": "",
							"type": "uint256"
						}
					],
					"stateMutability": "view",
					"type": "function"
				},
				{
					"inputs": [],
					"name": "numberContributors",
					"outputs": [
						{
							"internalType": "uint256",
							"name": "",
							"type": "uint256"
						}
					],
					"stateMutability": "view",
					"type": "function"
				},
				{
					"inputs": [],
					"name": "numberRequests",
					"outputs": [
						{
							"internalType": "uint256",
							"name": "",
							"type": "uint256"
						}
					],
					"stateMutability": "view",
					"type": "function"
				},
				{
					"inputs": [],
					"name": "raisedAmount",
					"outputs": [
						{
							"internalType": "uint256",
							"name": "",
							"type": "uint256"
						}
					],
					"stateMutability": "view",
					"type": "function"
				},
				{
					"inputs": [
						{
							"internalType": "uint256",
							"name": "",
							"type": "uint256"
						}
					],
					"name": "requests",
					"outputs": [
						{
							"internalType": "string",
							"name": "description",
							"type": "string"
						},
						{
							"internalType": "address payable",
							"name": "recipient",
							"type": "address"
						},
						{
							"internalType": "uint256",
							"name": "value",
							"type": "uint256"
						},
						{
							"internalType": "bool",
							"name": "completed",
							"type": "bool"
						},
						{
							"internalType": "uint256",
							"name": "numberVoters",
							"type": "uint256"
						}
					],
					"stateMutability": "view",
					"type": "function"
				},
				{
					"inputs": [
						{
							"internalType": "uint256",
							"name": "_requestNumber",
							"type": "uint256"
						}
					],
					"name": "voteRequest",
					"outputs": [],
					"stateMutability": "nonpayable",
					"type": "function"
				},
				{
					"stateMutability": "payable",
					"type": "receive"
				}
			],
			"devdoc": {
				"kind": "dev",
				"methods": {},
				"version": 1
			},
			"evm": {
				"assembly": "    /* \"contracts/crowdfunding.sol\":73:4456  contract CrowdFunding{\r... */\n  mstore(0x40, 0x80)\n    /* \"contracts/crowdfunding.sol\":1378:1653  constructor(uint _goal, uint _deadline){\r... */\n  callvalue\n  dup1\n  iszero\n  tag_1\n  jumpi\n  0x00\n  dup1\n  revert\ntag_1:\n  pop\n  mload(0x40)\n  sub(codesize, bytecodeSize)\n  dup1\n  bytecodeSize\n  dup4\n  codecopy\n  dup2\n  dup2\n  add\n  0x40\n  mstore\n  dup2\n  add\n  swap1\n  tag_2\n  swap2\n  swap1\n  tag_3\n  jump\t// in\ntag_2:\n    /* \"contracts/crowdfunding.sol\":1435:1440  _goal */\n  dup2\n    /* \"contracts/crowdfunding.sol\":1428:1432  goal */\n  0x05\n    /* \"contracts/crowdfunding.sol\":1428:1440  goal = _goal */\n  dup2\n  swap1\n  sstore\n  pop\n    /* \"contracts/crowdfunding.sol\":1502:1511  _deadline */\n  dup1\n    /* \"contracts/crowdfunding.sol\":1484:1499  block.timestamp */\n  timestamp\n    /* \"contracts/crowdfunding.sol\":1484:1511  block.timestamp + _deadline */\n  tag_6\n  swap2\n  swap1\n  tag_7\n  jump\t// in\ntag_6:\n    /* \"contracts/crowdfunding.sol\":1473:1481  deadline */\n  0x04\n    /* \"contracts/crowdfunding.sol\":1473:1511  deadline = block.timestamp + _deadline */\n  dup2\n  swap1\n  sstore\n  pop\n    /* \"contracts/crowdfunding.sol\":1576:1583  100 wei */\n  0x64\n    /* \"contracts/crowdfunding.sol\":1554:1573  minimumContribution */\n  0x03\n    /* \"contracts/crowdfunding.sol\":1554:1583  minimumContribution = 100 wei */\n  dup2\n  swap1\n  sstore\n  pop\n    /* \"contracts/crowdfunding.sol\":1622:1632  msg.sender */\n  caller\n    /* \"contracts/crowdfunding.sol\":1614:1619  admin */\n  0x01\n  0x00\n    /* \"contracts/crowdfunding.sol\":1614:1632  admin = msg.sender */\n  0x0100\n  exp\n  dup2\n  sload\n  dup2\n  0xffffffffffffffffffffffffffffffffffffffff\n  mul\n  not\n  and\n  swap1\n  dup4\n  0xffffffffffffffffffffffffffffffffffffffff\n  and\n  mul\n  or\n  swap1\n  sstore\n  pop\n    /* \"contracts/crowdfunding.sol\":1378:1653  constructor(uint _goal, uint _deadline){\r... */\n  pop\n  pop\n    /* \"contracts/crowdfunding.sol\":73:4456  contract CrowdFunding{\r... */\n  jump(tag_8)\n    /* \"#utility.yul\":7:150   */\ntag_10:\n    /* \"#utility.yul\":64:69   */\n  0x00\n    /* \"#utility.yul\":95:101   */\n  dup2\n    /* \"#utility.yul\":89:102   */\n  mload\n    /* \"#utility.yul\":80:102   */\n  swap1\n  pop\n    /* \"#utility.yul\":111:144   */\n  tag_12\n    /* \"#utility.yul\":138:143   */\n  dup2\n    /* \"#utility.yul\":111:144   */\n  tag_13\n  jump\t// in\ntag_12:\n    /* \"#utility.yul\":7:150   */\n  swap3\n  swap2\n  pop\n  pop\n  jump\t// out\n    /* \"#utility.yul\":156:663   */\ntag_3:\n    /* \"#utility.yul\":235:241   */\n  0x00\n    /* \"#utility.yul\":243:249   */\n  dup1\n    /* \"#utility.yul\":292:294   */\n  0x40\n    /* \"#utility.yul\":280:289   */\n  dup4\n    /* \"#utility.yul\":271:278   */\n  dup6\n    /* \"#utility.yul\":267:290   */\n  sub\n    /* \"#utility.yul\":263:295   */\n  slt\n    /* \"#utility.yul\":260:379   */\n  iszero\n  tag_15\n  jumpi\n    /* \"#utility.yul\":298:377   */\n  tag_16\n  tag_17\n  jump\t// in\ntag_16:\n    /* \"#utility.yul\":260:379   */\ntag_15:\n    /* \"#utility.yul\":418:419   */\n  0x00\n    /* \"#utility.yul\":443:507   */\n  tag_18\n    /* \"#utility.yul\":499:506   */\n  dup6\n    /* \"#utility.yul\":490:496   */\n  dup3\n    /* \"#utility.yul\":479:488   */\n  dup7\n    /* \"#utility.yul\":475:497   */\n  add\n    /* \"#utility.yul\":443:507   */\n  tag_10\n  jump\t// in\ntag_18:\n    /* \"#utility.yul\":433:507   */\n  swap3\n  pop\n    /* \"#utility.yul\":389:517   */\n  pop\n    /* \"#utility.yul\":556:558   */\n  0x20\n    /* \"#utility.yul\":582:646   */\n  tag_19\n    /* \"#utility.yul\":638:645   */\n  dup6\n    /* \"#utility.yul\":629:635   */\n  dup3\n    /* \"#utility.yul\":618:627   */\n  dup7\n    /* \"#utility.yul\":614:636   */\n  add\n    /* \"#utility.yul\":582:646   */\n  tag_10\n  jump\t// in\ntag_19:\n    /* \"#utility.yul\":572:646   */\n  swap2\n  pop\n    /* \"#utility.yul\":527:656   */\n  pop\n    /* \"#utility.yul\":156:663   */\n  swap3\n  pop\n  swap3\n  swap1\n  pop\n  jump\t// out\n    /* \"#utility.yul\":750:1055   */\ntag_7:\n    /* \"#utility.yul\":790:793   */\n  0x00\n    /* \"#utility.yul\":809:829   */\n  tag_23\n    /* \"#utility.yul\":827:828   */\n  dup3\n    /* \"#utility.yul\":809:829   */\n  tag_24\n  jump\t// in\ntag_23:\n    /* \"#utility.yul\":804:829   */\n  swap2\n  pop\n    /* \"#utility.yul\":843:863   */\n  tag_25\n    /* \"#utility.yul\":861:862   */\n  dup4\n    /* \"#utility.yul\":843:863   */\n  tag_24\n  jump\t// in\ntag_25:\n    /* \"#utility.yul\":838:863   */\n  swap3\n  pop\n    /* \"#utility.yul\":997:998   */\n  dup3\n    /* \"#utility.yul\":929:995   */\n  0xffffffffffffffffffffffffffffffffffffffffffffffffffffffffffffffff\n    /* \"#utility.yul\":925:999   */\n  sub\n    /* \"#utility.yul\":922:923   */\n  dup3\n    /* \"#utility.yul\":919:1000   */\n  gt\n    /* \"#utility.yul\":916:1023   */\n  iszero\n  tag_26\n  jumpi\n    /* \"#utility.yul\":1003:1021   */\n  tag_27\n  tag_28\n  jump\t// in\ntag_27:\n    /* \"#utility.yul\":916:1023   */\ntag_26:\n    /* \"#utility.yul\":1047:1048   */\n  dup3\n    /* \"#utility.yul\":1044:1045   */\n  dup3\n    /* \"#utility.yul\":1040:1049   */\n  add\n    /* \"#utility.yul\":1033:1049   */\n  swap1\n  pop\n    /* \"#utility.yul\":750:1055   */\n  swap3\n  swap2\n  pop\n  pop\n  jump\t// out\n    /* \"#utility.yul\":1061:1138   */\ntag_24:\n    /* \"#utility.yul\":1098:1105   */\n  0x00\n    /* \"#utility.yul\":1127:1132   */\n  dup2\n    /* \"#utility.yul\":1116:1132   */\n  swap1\n  pop\n    /* \"#utility.yul\":1061:1138   */\n  swap2\n  swap1\n  pop\n  jump\t// out\n    /* \"#utility.yul\":1144:1324   */\ntag_28:\n    /* \"#utility.yul\":1192:1269   */\n  0x4e487b7100000000000000000000000000000000000000000000000000000000\n    /* \"#utility.yul\":1189:1190   */\n  0x00\n    /* \"#utility.yul\":1182:1270   */\n  mstore\n    /* \"#utility.yul\":1289:1293   */\n  0x11\n    /* \"#utility.yul\":1286:1287   */\n  0x04\n    /* \"#utility.yul\":1279:1294   */\n  mstore\n    /* \"#utility.yul\":1313:1317   */\n  0x24\n    /* \"#utility.yul\":1310:1311   */\n  0x00\n    /* \"#utility.yul\":1303:1318   */\n  revert\n    /* \"#utility.yul\":1453:1570   */\ntag_17:\n    /* \"#utility.yul\":1562:1563   */\n  0x00\n    /* \"#utility.yul\":1559:1560   */\n  dup1\n    /* \"#utility.yul\":1552:1564   */\n  revert\n    /* \"#utility.yul\":1576:1698   */\ntag_13:\n    /* \"#utility.yul\":1649:1673   */\n  tag_35\n    /* \"#utility.yul\":1667:1672   */\n  dup2\n    /* \"#utility.yul\":1649:1673   */\n  tag_24\n  jump\t// in\ntag_35:\n    /* \"#utility.yul\":1642:1647   */\n  dup2\n    /* \"#utility.yul\":1639:1674   */\n  eq\n    /* \"#utility.yul\":1629:1692   */\n  tag_36\n  jumpi\n    /* \"#utility.yul\":1688:1689   */\n  0x00\n    /* \"#utility.yul\":1685:1686   */\n  dup1\n    /* \"#utility.yul\":1678:1690   */\n  revert\n    /* \"#utility.yul\":1629:1692   */\ntag_36:\n    /* \"#utility.yul\":1576:1698   */\n  pop\n  jump\t// out\n    /* \"contracts/crowdfunding.sol\":73:4456  contract CrowdFunding{\r... */\ntag_8:\n  dataSize(sub_0)\n  dup1\n  dataOffset(sub_0)\n  0x00\n  codecopy\n  0x00\n  return\nstop\n\nsub_0: assembly {\n        /* \"contracts/crowdfunding.sol\":73:4456  contract CrowdFunding{\r... */\n      mstore(0x40, 0x80)\n      jumpi(tag_1, lt(calldatasize, 0x04))\n      shr(0xe0, calldataload(0x00))\n      dup1\n      0x937e09b1\n      gt\n      tag_17\n      jumpi\n      dup1\n      0xd3a9d4ea\n      gt\n      tag_18\n      jumpi\n      dup1\n      0xd3a9d4ea\n      eq\n      tag_13\n      jumpi\n      dup1\n      0xd7bb99ba\n      eq\n      tag_14\n      jumpi\n      dup1\n      0xf3740daf\n      eq\n      tag_15\n      jumpi\n      dup1\n      0xf851a440\n      eq\n      tag_16\n      jumpi\n      jump(tag_2)\n    tag_18:\n      dup1\n      0x937e09b1\n      eq\n      tag_10\n      jumpi\n      dup1\n      0xb2d5ae44\n      eq\n      tag_11\n      jumpi\n      dup1\n      0xc59ee1dc\n      eq\n      tag_12\n      jumpi\n      jump(tag_2)\n    tag_17:\n      dup1\n      0x29dcb0cf\n      gt\n      tag_19\n      jumpi\n      dup1\n      0x29dcb0cf\n      eq\n      tag_6\n      jumpi\n      dup1\n      0x40193883\n      eq\n      tag_7\n      jumpi\n      dup1\n      0x4cb6f4a5\n      eq\n      tag_8\n      jumpi\n      dup1\n      0x81d12c58\n      eq\n      tag_9\n      jumpi\n      jump(tag_2)\n    tag_19:\n      dup1\n      0x12065fe0\n      eq\n      tag_3\n      jumpi\n      dup1\n      0x1b16bb5c\n      eq\n      tag_4\n      jumpi\n      dup1\n      0x1f6d4942\n      eq\n      tag_5\n      jumpi\n      jump(tag_2)\n    tag_1:\n      jumpi(tag_2, calldatasize)\n        /* \"contracts/crowdfunding.sol\":2515:2527  contribute() */\n      tag_22\n        /* \"contracts/crowdfunding.sol\":2515:2525  contribute */\n      tag_23\n        /* \"contracts/crowdfunding.sol\":2515:2527  contribute() */\n      jump\t// in\n    tag_22:\n        /* \"contracts/crowdfunding.sol\":73:4456  contract CrowdFunding{\r... */\n      stop\n    tag_2:\n      0x00\n      dup1\n      revert\n        /* \"contracts/crowdfunding.sol\":2586:2684  function getBalance() public view returns(uint){\r... */\n    tag_3:\n      callvalue\n      dup1\n      iszero\n      tag_24\n      jumpi\n      0x00\n      dup1\n      revert\n    tag_24:\n      pop\n      tag_25\n      tag_26\n      jump\t// in\n    tag_25:\n      mload(0x40)\n      tag_27\n      swap2\n      swap1\n      tag_28\n      jump\t// in\n    tag_27:\n      mload(0x40)\n      dup1\n      swap2\n      sub\n      swap1\n      return\n        /* \"contracts/crowdfunding.sol\":3561:4223  function createRequest(string memory _description, address payable _recipient, uint _value) public onlyAdmin{\r... */\n    tag_4:\n      callvalue\n      dup1\n      iszero\n      tag_29\n      jumpi\n      0x00\n      dup1\n      revert\n    tag_29:\n      pop\n      tag_30\n      0x04\n      dup1\n      calldatasize\n      sub\n      dup2\n      add\n      swap1\n      tag_31\n      swap2\n      swap1\n      tag_32\n      jump\t// in\n    tag_31:\n      tag_33\n      jump\t// in\n    tag_30:\n      stop\n        /* \"contracts/crowdfunding.sol\":161:205  mapping(address => uint) public contributors */\n    tag_5:\n      callvalue\n      dup1\n      iszero\n      tag_34\n      jumpi\n      0x00\n      dup1\n      revert\n    tag_34:\n      pop\n      tag_35\n      0x04\n      dup1\n      calldatasize\n      sub\n      dup2\n      add\n      swap1\n      tag_36\n      swap2\n      swap1\n      tag_37\n      jump\t// in\n    tag_36:\n      tag_38\n      jump\t// in\n    tag_35:\n      mload(0x40)\n      tag_39\n      swap2\n      swap1\n      tag_28\n      jump\t// in\n    tag_39:\n      mload(0x40)\n      dup1\n      swap2\n      sub\n      swap1\n      return\n        /* \"contracts/crowdfunding.sol\":465:485  uint public deadline */\n    tag_6:\n      callvalue\n      dup1\n      iszero\n      tag_40\n      jumpi\n      0x00\n      dup1\n      revert\n    tag_40:\n      pop\n      tag_41\n      tag_42\n      jump\t// in\n    tag_41:\n      mload(0x40)\n      tag_43\n      swap2\n      swap1\n      tag_28\n      jump\t// in\n    tag_43:\n      mload(0x40)\n      dup1\n      swap2\n      sub\n      swap1\n      return\n        /* \"contracts/crowdfunding.sol\":505:521  uint public goal */\n    tag_7:\n      callvalue\n      dup1\n      iszero\n      tag_44\n      jumpi\n      0x00\n      dup1\n      revert\n    tag_44:\n      pop\n      tag_45\n      tag_46\n      jump\t// in\n    tag_45:\n      mload(0x40)\n      tag_47\n      swap2\n      swap1\n      tag_28\n      jump\t// in\n    tag_47:\n      mload(0x40)\n      dup1\n      swap2\n      sub\n      swap1\n      return\n        /* \"contracts/crowdfunding.sol\":4255:4445  function voteRequest(uint _requestNumber) public {\r... */\n    tag_8:\n      callvalue\n      dup1\n      iszero\n      tag_48\n      jumpi\n      0x00\n      dup1\n      revert\n    tag_48:\n      pop\n      tag_49\n      0x04\n      dup1\n      calldatasize\n      sub\n      dup2\n      add\n      swap1\n      tag_50\n      swap2\n      swap1\n      tag_51\n      jump\t// in\n    tag_50:\n      tag_52\n      jump\t// in\n    tag_49:\n      stop\n        /* \"contracts/crowdfunding.sol\":1215:1255  mapping(uint => Request) public requests */\n    tag_9:\n      callvalue\n      dup1\n      iszero\n      tag_53\n      jumpi\n      0x00\n      dup1\n      revert\n    tag_53:\n      pop\n      tag_54\n      0x04\n      dup1\n      calldatasize\n      sub\n      dup2\n      add\n      swap1\n      tag_55\n      swap2\n      swap1\n      tag_51\n      jump\t// in\n    tag_55:\n      tag_56\n      jump\t// in\n    tag_54:\n      mload(0x40)\n      tag_57\n      swap6\n      swap5\n      swap4\n      swap3\n      swap2\n      swap1\n      tag_58\n      jump\t// in\n    tag_57:\n      mload(0x40)\n      dup1\n      swap2\n      sub\n      swap1\n      return\n        /* \"contracts/crowdfunding.sol\":399:430  uint public minimumContribution */\n    tag_10:\n      callvalue\n      dup1\n      iszero\n      tag_59\n      jumpi\n      0x00\n      dup1\n      revert\n    tag_59:\n      pop\n      tag_60\n      tag_61\n      jump\t// in\n    tag_60:\n      mload(0x40)\n      tag_62\n      swap2\n      swap1\n      tag_28\n      jump\t// in\n    tag_62:\n      mload(0x40)\n      dup1\n      swap2\n      sub\n      swap1\n      return\n        /* \"contracts/crowdfunding.sol\":2733:3329  function getRefund() public{\r... */\n    tag_11:\n      callvalue\n      dup1\n      iszero\n      tag_63\n      jumpi\n      0x00\n      dup1\n      revert\n    tag_63:\n      pop\n      tag_64\n      tag_65\n      jump\t// in\n    tag_64:\n      stop\n        /* \"contracts/crowdfunding.sol\":544:568  uint public raisedAmount */\n    tag_12:\n      callvalue\n      dup1\n      iszero\n      tag_66\n      jumpi\n      0x00\n      dup1\n      revert\n    tag_66:\n      pop\n      tag_67\n      tag_68\n      jump\t// in\n    tag_67:\n      mload(0x40)\n      tag_69\n      swap2\n      swap1\n      tag_28\n      jump\t// in\n    tag_69:\n      mload(0x40)\n      dup1\n      swap2\n      sub\n      swap1\n      return\n        /* \"contracts/crowdfunding.sol\":1341:1367  uint public numberRequests */\n    tag_13:\n      callvalue\n      dup1\n      iszero\n      tag_70\n      jumpi\n      0x00\n      dup1\n      revert\n    tag_70:\n      pop\n      tag_71\n      tag_72\n      jump\t// in\n    tag_71:\n      mload(0x40)\n      tag_73\n      swap2\n      swap1\n      tag_28\n      jump\t// in\n    tag_73:\n      mload(0x40)\n      dup1\n      swap2\n      sub\n      swap1\n      return\n        /* \"contracts/crowdfunding.sol\":1696:2358  function contribute() public payable{\r... */\n    tag_14:\n      tag_74\n      tag_23\n      jump\t// in\n    tag_74:\n      stop\n        /* \"contracts/crowdfunding.sol\":360:390  uint public numberContributors */\n    tag_15:\n      callvalue\n      dup1\n      iszero\n      tag_75\n      jumpi\n      0x00\n      dup1\n      revert\n    tag_75:\n      pop\n      tag_76\n      tag_77\n      jump\t// in\n    tag_76:\n      mload(0x40)\n      tag_78\n      swap2\n      swap1\n      tag_28\n      jump\t// in\n    tag_78:\n      mload(0x40)\n      dup1\n      swap2\n      sub\n      swap1\n      return\n        /* \"contracts/crowdfunding.sol\":275:295  address public admin */\n    tag_16:\n      callvalue\n      dup1\n      iszero\n      tag_79\n      jumpi\n      0x00\n      dup1\n      revert\n    tag_79:\n      pop\n      tag_80\n      tag_81\n      jump\t// in\n    tag_80:\n      mload(0x40)\n      tag_82\n      swap2\n      swap1\n      tag_83\n      jump\t// in\n    tag_82:\n      mload(0x40)\n      dup1\n      swap2\n      sub\n      swap1\n      return\n        /* \"contracts/crowdfunding.sol\":1696:2358  function contribute() public payable{\r... */\n    tag_23:\n        /* \"contracts/crowdfunding.sol\":1814:1822  deadline */\n      sload(0x04)\n        /* \"contracts/crowdfunding.sol\":1796:1811  block.timestamp */\n      timestamp\n        /* \"contracts/crowdfunding.sol\":1796:1822  block.timestamp < deadline */\n      lt\n        /* \"contracts/crowdfunding.sol\":1788:1847  require(block.timestamp < deadline, \"Deadline has passed.\") */\n      tag_85\n      jumpi\n      mload(0x40)\n      0x08c379a000000000000000000000000000000000000000000000000000000000\n      dup2\n      mstore\n      0x04\n      add\n      tag_86\n      swap1\n      tag_87\n      jump\t// in\n    tag_86:\n      mload(0x40)\n      dup1\n      swap2\n      sub\n      swap1\n      revert\n    tag_85:\n        /* \"contracts/crowdfunding.sol\":1944:1963  minimumContribution */\n      sload(0x03)\n        /* \"contracts/crowdfunding.sol\":1931:1940  msg.value */\n      callvalue\n        /* \"contracts/crowdfunding.sol\":1931:1963  msg.value >= minimumContribution */\n      lt\n      iszero\n        /* \"contracts/crowdfunding.sol\":1923:1997  require(msg.value >= minimumContribution, \"Minimum contribution not met.\") */\n      tag_88\n      jumpi\n      mload(0x40)\n      0x08c379a000000000000000000000000000000000000000000000000000000000\n      dup2\n      mstore\n      0x04\n      add\n      tag_89\n      swap1\n      tag_90\n      jump\t// in\n    tag_89:\n      mload(0x40)\n      dup1\n      swap2\n      sub\n      swap1\n      revert\n    tag_88:\n        /* \"contracts/crowdfunding.sol\":2137:2138  0 */\n      0x00\n        /* \"contracts/crowdfunding.sol\":2109:2121  contributors */\n      dup1\n        /* \"contracts/crowdfunding.sol\":2109:2133  contributors[msg.sender] */\n      0x00\n        /* \"contracts/crowdfunding.sol\":2122:2132  msg.sender */\n      caller\n        /* \"contracts/crowdfunding.sol\":2109:2133  contributors[msg.sender] */\n      0xffffffffffffffffffffffffffffffffffffffff\n      and\n      0xffffffffffffffffffffffffffffffffffffffff\n      and\n      dup2\n      mstore\n      0x20\n      add\n      swap1\n      dup2\n      mstore\n      0x20\n      add\n      0x00\n      keccak256\n      sload\n        /* \"contracts/crowdfunding.sol\":2109:2138  contributors[msg.sender] == 0 */\n      eq\n        /* \"contracts/crowdfunding.sol\":2105:2186  if (contributors[msg.sender] == 0){\r... */\n      iszero\n      tag_91\n      jumpi\n        /* \"contracts/crowdfunding.sol\":2154:2172  numberContributors */\n      0x02\n      0x00\n        /* \"contracts/crowdfunding.sol\":2154:2174  numberContributors++ */\n      dup2\n      sload\n      dup1\n      swap3\n      swap2\n      swap1\n      tag_92\n      swap1\n      tag_93\n      jump\t// in\n    tag_92:\n      swap2\n      swap1\n      pop\n      sstore\n      pop\n        /* \"contracts/crowdfunding.sol\":2105:2186  if (contributors[msg.sender] == 0){\r... */\n    tag_91:\n        /* \"contracts/crowdfunding.sol\":2263:2272  msg.value */\n      callvalue\n        /* \"contracts/crowdfunding.sol\":2235:2247  contributors */\n      0x00\n        /* \"contracts/crowdfunding.sol\":2235:2259  contributors[msg.sender] */\n      dup1\n        /* \"contracts/crowdfunding.sol\":2248:2258  msg.sender */\n      caller\n        /* \"contracts/crowdfunding.sol\":2235:2259  contributors[msg.sender] */\n      0xffffffffffffffffffffffffffffffffffffffff\n      and\n      0xffffffffffffffffffffffffffffffffffffffff\n      and\n      dup2\n      mstore\n      0x20\n      add\n      swap1\n      dup2\n      mstore\n      0x20\n      add\n      0x00\n      keccak256\n      0x00\n        /* \"contracts/crowdfunding.sol\":2235:2272  contributors[msg.sender] += msg.value */\n      dup3\n      dup3\n      sload\n      tag_94\n      swap2\n      swap1\n      tag_95\n      jump\t// in\n    tag_94:\n      swap3\n      pop\n      pop\n      dup2\n      swap1\n      sstore\n      pop\n        /* \"contracts/crowdfunding.sol\":2339:2348  msg.value */\n      callvalue\n        /* \"contracts/crowdfunding.sol\":2323:2335  raisedAmount */\n      0x06\n      0x00\n        /* \"contracts/crowdfunding.sol\":2323:2348  raisedAmount += msg.value */\n      dup3\n      dup3\n      sload\n      tag_96\n      swap2\n      swap1\n      tag_95\n      jump\t// in\n    tag_96:\n      swap3\n      pop\n      pop\n      dup2\n      swap1\n      sstore\n      pop\n        /* \"contracts/crowdfunding.sol\":1696:2358  function contribute() public payable{\r... */\n      jump\t// out\n        /* \"contracts/crowdfunding.sol\":2586:2684  function getBalance() public view returns(uint){\r... */\n    tag_26:\n        /* \"contracts/crowdfunding.sol\":2628:2632  uint */\n      0x00\n        /* \"contracts/crowdfunding.sol\":2653:2674  address(this).balance */\n      selfbalance\n        /* \"contracts/crowdfunding.sol\":2646:2674  return address(this).balance */\n      swap1\n      pop\n        /* \"contracts/crowdfunding.sol\":2586:2684  function getBalance() public view returns(uint){\r... */\n      swap1\n      jump\t// out\n        /* \"contracts/crowdfunding.sol\":3561:4223  function createRequest(string memory _description, address payable _recipient, uint _value) public onlyAdmin{\r... */\n    tag_33:\n        /* \"contracts/crowdfunding.sol\":3436:3441  admin */\n      0x01\n      0x00\n      swap1\n      sload\n      swap1\n      0x0100\n      exp\n      swap1\n      div\n      0xffffffffffffffffffffffffffffffffffffffff\n      and\n        /* \"contracts/crowdfunding.sol\":3422:3441  msg.sender == admin */\n      0xffffffffffffffffffffffffffffffffffffffff\n      and\n        /* \"contracts/crowdfunding.sol\":3422:3432  msg.sender */\n      caller\n        /* \"contracts/crowdfunding.sol\":3422:3441  msg.sender == admin */\n      0xffffffffffffffffffffffffffffffffffffffff\n      and\n      eq\n        /* \"contracts/crowdfunding.sol\":3414:3472  require(msg.sender == admin, \"Admin priveleges required.\") */\n      tag_99\n      jumpi\n      mload(0x40)\n      0x08c379a000000000000000000000000000000000000000000000000000000000\n      dup2\n      mstore\n      0x04\n      add\n      tag_100\n      swap1\n      tag_101\n      jump\t// in\n    tag_100:\n      mload(0x40)\n      dup1\n      swap2\n      sub\n      swap1\n      revert\n    tag_99:\n        /* \"contracts/crowdfunding.sol\":3774:3800  Request storage newRequest */\n      0x00\n        /* \"contracts/crowdfunding.sol\":3803:3811  requests */\n      0x07\n        /* \"contracts/crowdfunding.sol\":3803:3827  requests[numberRequests] */\n      0x00\n        /* \"contracts/crowdfunding.sol\":3812:3826  numberRequests */\n      sload(0x08)\n        /* \"contracts/crowdfunding.sol\":3803:3827  requests[numberRequests] */\n      dup2\n      mstore\n      0x20\n      add\n      swap1\n      dup2\n      mstore\n      0x20\n      add\n      0x00\n      keccak256\n        /* \"contracts/crowdfunding.sol\":3774:3827  Request storage newRequest = requests[numberRequests] */\n      swap1\n      pop\n        /* \"contracts/crowdfunding.sol\":3938:3952  numberRequests */\n      0x08\n      0x00\n        /* \"contracts/crowdfunding.sol\":3938:3954  numberRequests++ */\n      dup2\n      sload\n      dup1\n      swap3\n      swap2\n      swap1\n      tag_103\n      swap1\n      tag_93\n      jump\t// in\n    tag_103:\n      swap2\n      swap1\n      pop\n      sstore\n      pop\n        /* \"contracts/crowdfunding.sol\":4044:4056  _description */\n      dup4\n        /* \"contracts/crowdfunding.sol\":4019:4029  newRequest */\n      dup2\n        /* \"contracts/crowdfunding.sol\":4019:4041  newRequest.description */\n      0x00\n      add\n        /* \"contracts/crowdfunding.sol\":4019:4056  newRequest.description = _description */\n      swap1\n      dup1\n      mload\n      swap1\n      0x20\n      add\n      swap1\n      tag_104\n      swap3\n      swap2\n      swap1\n      tag_105\n      jump\t// in\n    tag_104:\n      pop\n        /* \"contracts/crowdfunding.sol\":4090:4100  _recipient */\n      dup3\n        /* \"contracts/crowdfunding.sol\":4067:4077  newRequest */\n      dup2\n        /* \"contracts/crowdfunding.sol\":4067:4087  newRequest.recipient */\n      0x01\n      add\n      0x00\n        /* \"contracts/crowdfunding.sol\":4067:4100  newRequest.recipient = _recipient */\n      0x0100\n      exp\n      dup2\n      sload\n      dup2\n      0xffffffffffffffffffffffffffffffffffffffff\n      mul\n      not\n      and\n      swap1\n      dup4\n      0xffffffffffffffffffffffffffffffffffffffff\n      and\n      mul\n      or\n      swap1\n      sstore\n      pop\n        /* \"contracts/crowdfunding.sol\":4130:4136  _value */\n      dup2\n        /* \"contracts/crowdfunding.sol\":4111:4121  newRequest */\n      dup2\n        /* \"contracts/crowdfunding.sol\":4111:4127  newRequest.value */\n      0x02\n      add\n        /* \"contracts/crowdfunding.sol\":4111:4136  newRequest.value = _value */\n      dup2\n      swap1\n      sstore\n      pop\n        /* \"contracts/crowdfunding.sol\":4170:4175  false */\n      0x00\n        /* \"contracts/crowdfunding.sol\":4147:4157  newRequest */\n      dup2\n        /* \"contracts/crowdfunding.sol\":4147:4167  newRequest.completed */\n      0x03\n      add\n      0x00\n        /* \"contracts/crowdfunding.sol\":4147:4175  newRequest.completed = false */\n      0x0100\n      exp\n      dup2\n      sload\n      dup2\n      0xff\n      mul\n      not\n      and\n      swap1\n      dup4\n      iszero\n      iszero\n      mul\n      or\n      swap1\n      sstore\n      pop\n        /* \"contracts/crowdfunding.sol\":4212:4213  0 */\n      0x00\n        /* \"contracts/crowdfunding.sol\":4186:4196  newRequest */\n      dup2\n        /* \"contracts/crowdfunding.sol\":4186:4209  newRequest.numberVoters */\n      0x04\n      add\n        /* \"contracts/crowdfunding.sol\":4186:4213  newRequest.numberVoters = 0 */\n      dup2\n      swap1\n      sstore\n      pop\n        /* \"contracts/crowdfunding.sol\":3669:4223  {\r... */\n      pop\n        /* \"contracts/crowdfunding.sol\":3561:4223  function createRequest(string memory _description, address payable _recipient, uint _value) public onlyAdmin{\r... */\n      pop\n      pop\n      pop\n      jump\t// out\n        /* \"contracts/crowdfunding.sol\":161:205  mapping(address => uint) public contributors */\n    tag_38:\n      mstore(0x20, 0x00)\n      dup1\n      0x00\n      mstore\n      keccak256(0x00, 0x40)\n      0x00\n      swap2\n      pop\n      swap1\n      pop\n      sload\n      dup2\n      jump\t// out\n        /* \"contracts/crowdfunding.sol\":465:485  uint public deadline */\n    tag_42:\n      sload(0x04)\n      dup2\n      jump\t// out\n        /* \"contracts/crowdfunding.sol\":505:521  uint public goal */\n    tag_46:\n      sload(0x05)\n      dup2\n      jump\t// out\n        /* \"contracts/crowdfunding.sol\":4255:4445  function voteRequest(uint _requestNumber) public {\r... */\n    tag_52:\n        /* \"contracts/crowdfunding.sol\":4390:4391  0 */\n      0x00\n        /* \"contracts/crowdfunding.sol\":4363:4375  contributors */\n      dup1\n        /* \"contracts/crowdfunding.sol\":4363:4387  contributors[msg.sender] */\n      0x00\n        /* \"contracts/crowdfunding.sol\":4376:4386  msg.sender */\n      caller\n        /* \"contracts/crowdfunding.sol\":4363:4387  contributors[msg.sender] */\n      0xffffffffffffffffffffffffffffffffffffffff\n      and\n      0xffffffffffffffffffffffffffffffffffffffff\n      and\n      dup2\n      mstore\n      0x20\n      add\n      swap1\n      dup2\n      mstore\n      0x20\n      add\n      0x00\n      keccak256\n      sload\n        /* \"contracts/crowdfunding.sol\":4363:4391  contributors[msg.sender] > 0 */\n      gt\n        /* \"contracts/crowdfunding.sol\":4355:4423  require(contributors[msg.sender] > 0, \"You must be a user to vote.\") */\n      tag_107\n      jumpi\n      mload(0x40)\n      0x08c379a000000000000000000000000000000000000000000000000000000000\n      dup2\n      mstore\n      0x04\n      add\n      tag_108\n      swap1\n      tag_109\n      jump\t// in\n    tag_108:\n      mload(0x40)\n      dup1\n      swap2\n      sub\n      swap1\n      revert\n    tag_107:\n        /* \"contracts/crowdfunding.sol\":4255:4445  function voteRequest(uint _requestNumber) public {\r... */\n      pop\n      jump\t// out\n        /* \"contracts/crowdfunding.sol\":1215:1255  mapping(uint => Request) public requests */\n    tag_56:\n      mstore(0x20, 0x07)\n      dup1\n      0x00\n      mstore\n      keccak256(0x00, 0x40)\n      0x00\n      swap2\n      pop\n      swap1\n      pop\n      dup1\n      0x00\n      add\n      dup1\n      sload\n      tag_110\n      swap1\n      tag_111\n      jump\t// in\n    tag_110:\n      dup1\n      0x1f\n      add\n      0x20\n      dup1\n      swap2\n      div\n      mul\n      0x20\n      add\n      mload(0x40)\n      swap1\n      dup2\n      add\n      0x40\n      mstore\n      dup1\n      swap3\n      swap2\n      swap1\n      dup2\n      dup2\n      mstore\n      0x20\n      add\n      dup3\n      dup1\n      sload\n      tag_112\n      swap1\n      tag_111\n      jump\t// in\n    tag_112:\n      dup1\n      iszero\n      tag_113\n      jumpi\n      dup1\n      0x1f\n      lt\n      tag_114\n      jumpi\n      0x0100\n      dup1\n      dup4\n      sload\n      div\n      mul\n      dup4\n      mstore\n      swap2\n      0x20\n      add\n      swap2\n      jump(tag_113)\n    tag_114:\n      dup3\n      add\n      swap2\n      swap1\n      0x00\n      mstore\n      keccak256(0x00, 0x20)\n      swap1\n    tag_115:\n      dup2\n      sload\n      dup2\n      mstore\n      swap1\n      0x01\n      add\n      swap1\n      0x20\n      add\n      dup1\n      dup4\n      gt\n      tag_115\n      jumpi\n      dup3\n      swap1\n      sub\n      0x1f\n      and\n      dup3\n      add\n      swap2\n    tag_113:\n      pop\n      pop\n      pop\n      pop\n      pop\n      swap1\n      dup1\n      0x01\n      add\n      0x00\n      swap1\n      sload\n      swap1\n      0x0100\n      exp\n      swap1\n      div\n      0xffffffffffffffffffffffffffffffffffffffff\n      and\n      swap1\n      dup1\n      0x02\n      add\n      sload\n      swap1\n      dup1\n      0x03\n      add\n      0x00\n      swap1\n      sload\n      swap1\n      0x0100\n      exp\n      swap1\n      div\n      0xff\n      and\n      swap1\n      dup1\n      0x04\n      add\n      sload\n      swap1\n      pop\n      dup6\n      jump\t// out\n        /* \"contracts/crowdfunding.sol\":399:430  uint public minimumContribution */\n    tag_61:\n      sload(0x03)\n      dup2\n      jump\t// out\n        /* \"contracts/crowdfunding.sol\":2733:3329  function getRefund() public{\r... */\n    tag_65:\n        /* \"contracts/crowdfunding.sol\":2855:2863  deadline */\n      sload(0x04)\n        /* \"contracts/crowdfunding.sol\":2837:2852  block.timestamp */\n      timestamp\n        /* \"contracts/crowdfunding.sol\":2837:2863  block.timestamp > deadline */\n      gt\n        /* \"contracts/crowdfunding.sol\":2837:2886  block.timestamp > deadline && raisedAmount < goal */\n      dup1\n      iszero\n      tag_117\n      jumpi\n      pop\n        /* \"contracts/crowdfunding.sol\":2882:2886  goal */\n      sload(0x05)\n        /* \"contracts/crowdfunding.sol\":2867:2879  raisedAmount */\n      sload(0x06)\n        /* \"contracts/crowdfunding.sol\":2867:2886  raisedAmount < goal */\n      lt\n        /* \"contracts/crowdfunding.sol\":2837:2886  block.timestamp > deadline && raisedAmount < goal */\n    tag_117:\n        /* \"contracts/crowdfunding.sol\":2829:2887  require(block.timestamp > deadline && raisedAmount < goal) */\n      tag_118\n      jumpi\n      0x00\n      dup1\n      revert\n    tag_118:\n        /* \"contracts/crowdfunding.sol\":2977:2978  0 */\n      0x00\n        /* \"contracts/crowdfunding.sol\":2950:2962  contributors */\n      dup1\n        /* \"contracts/crowdfunding.sol\":2950:2974  contributors[msg.sender] */\n      0x00\n        /* \"contracts/crowdfunding.sol\":2963:2973  msg.sender */\n      caller\n        /* \"contracts/crowdfunding.sol\":2950:2974  contributors[msg.sender] */\n      0xffffffffffffffffffffffffffffffffffffffff\n      and\n      0xffffffffffffffffffffffffffffffffffffffff\n      and\n      dup2\n      mstore\n      0x20\n      add\n      swap1\n      dup2\n      mstore\n      0x20\n      add\n      0x00\n      keccak256\n      sload\n        /* \"contracts/crowdfunding.sol\":2950:2978  contributors[msg.sender] > 0 */\n      gt\n        /* \"contracts/crowdfunding.sol\":2942:2979  require(contributors[msg.sender] > 0) */\n      tag_119\n      jumpi\n      0x00\n      dup1\n      revert\n    tag_119:\n        /* \"contracts/crowdfunding.sol\":3021:3046  address payable recipient */\n      0x00\n        /* \"contracts/crowdfunding.sol\":3057:3067  msg.sender */\n      caller\n        /* \"contracts/crowdfunding.sol\":3021:3068  address payable recipient = payable(msg.sender) */\n      swap1\n      pop\n        /* \"contracts/crowdfunding.sol\":3115:3125  uint value */\n      0x00\n        /* \"contracts/crowdfunding.sol\":3128:3140  contributors */\n      dup1\n        /* \"contracts/crowdfunding.sol\":3128:3152  contributors[msg.sender] */\n      0x00\n        /* \"contracts/crowdfunding.sol\":3141:3151  msg.sender */\n      caller\n        /* \"contracts/crowdfunding.sol\":3128:3152  contributors[msg.sender] */\n      0xffffffffffffffffffffffffffffffffffffffff\n      and\n      0xffffffffffffffffffffffffffffffffffffffff\n      and\n      dup2\n      mstore\n      0x20\n      add\n      swap1\n      dup2\n      mstore\n      0x20\n      add\n      0x00\n      keccak256\n      sload\n        /* \"contracts/crowdfunding.sol\":3115:3152  uint value = contributors[msg.sender] */\n      swap1\n      pop\n        /* \"contracts/crowdfunding.sol\":3211:3220  recipient */\n      dup2\n        /* \"contracts/crowdfunding.sol\":3211:3229  recipient.transfer */\n      0xffffffffffffffffffffffffffffffffffffffff\n      and\n        /* \"contracts/crowdfunding.sol\":3211:3236  recipient.transfer(value) */\n      0x08fc\n        /* \"contracts/crowdfunding.sol\":3230:3235  value */\n      dup3\n        /* \"contracts/crowdfunding.sol\":3211:3236  recipient.transfer(value) */\n      swap1\n      dup2\n      iszero\n      mul\n      swap1\n      mload(0x40)\n      0x00\n      mload(0x40)\n      dup1\n      dup4\n      sub\n      dup2\n      dup6\n      dup9\n      dup9\n      call\n      swap4\n      pop\n      pop\n      pop\n      pop\n      iszero\n      dup1\n      iszero\n      tag_121\n      jumpi\n      returndatasize\n      0x00\n      dup1\n      returndatacopy\n      revert(0x00, returndatasize)\n    tag_121:\n      pop\n        /* \"contracts/crowdfunding.sol\":3318:3319  0 */\n      0x00\n        /* \"contracts/crowdfunding.sol\":3291:3303  contributors */\n      dup1\n        /* \"contracts/crowdfunding.sol\":3291:3315  contributors[msg.sender] */\n      0x00\n        /* \"contracts/crowdfunding.sol\":3304:3314  msg.sender */\n      caller\n        /* \"contracts/crowdfunding.sol\":3291:3315  contributors[msg.sender] */\n      0xffffffffffffffffffffffffffffffffffffffff\n      and\n      0xffffffffffffffffffffffffffffffffffffffff\n      and\n      dup2\n      mstore\n      0x20\n      add\n      swap1\n      dup2\n      mstore\n      0x20\n      add\n      0x00\n      keccak256\n        /* \"contracts/crowdfunding.sol\":3291:3319  contributors[msg.sender] = 0 */\n      dup2\n      swap1\n      sstore\n      pop\n        /* \"contracts/crowdfunding.sol\":2760:3329  {\r... */\n      pop\n      pop\n        /* \"contracts/crowdfunding.sol\":2733:3329  function getRefund() public{\r... */\n      jump\t// out\n        /* \"contracts/crowdfunding.sol\":544:568  uint public raisedAmount */\n    tag_68:\n      sload(0x06)\n      dup2\n      jump\t// out\n        /* \"contracts/crowdfunding.sol\":1341:1367  uint public numberRequests */\n    tag_72:\n      sload(0x08)\n      dup2\n      jump\t// out\n        /* \"contracts/crowdfunding.sol\":360:390  uint public numberContributors */\n    tag_77:\n      sload(0x02)\n      dup2\n      jump\t// out\n        /* \"contracts/crowdfunding.sol\":275:295  address public admin */\n    tag_81:\n      0x01\n      0x00\n      swap1\n      sload\n      swap1\n      0x0100\n      exp\n      swap1\n      div\n      0xffffffffffffffffffffffffffffffffffffffff\n      and\n      dup2\n      jump\t// out\n    tag_105:\n      dup3\n      dup1\n      sload\n      tag_122\n      swap1\n      tag_111\n      jump\t// in\n    tag_122:\n      swap1\n      0x00\n      mstore\n      keccak256(0x00, 0x20)\n      swap1\n      0x1f\n      add\n      0x20\n      swap1\n      div\n      dup2\n      add\n      swap3\n      dup3\n      tag_124\n      jumpi\n      0x00\n      dup6\n      sstore\n      jump(tag_123)\n    tag_124:\n      dup3\n      0x1f\n      lt\n      tag_125\n      jumpi\n      dup1\n      mload\n      not(0xff)\n      and\n      dup4\n      dup1\n      add\n      or\n      dup6\n      sstore\n      jump(tag_123)\n    tag_125:\n      dup3\n      dup1\n      add\n      0x01\n      add\n      dup6\n      sstore\n      dup3\n      iszero\n      tag_123\n      jumpi\n      swap2\n      dup3\n      add\n    tag_126:\n      dup3\n      dup2\n      gt\n      iszero\n      tag_127\n      jumpi\n      dup3\n      mload\n      dup3\n      sstore\n      swap2\n      0x20\n      add\n      swap2\n      swap1\n      0x01\n      add\n      swap1\n      jump(tag_126)\n    tag_127:\n    tag_123:\n      pop\n      swap1\n      pop\n      tag_128\n      swap2\n      swap1\n      tag_129\n      jump\t// in\n    tag_128:\n      pop\n      swap1\n      jump\t// out\n    tag_129:\n    tag_130:\n      dup1\n      dup3\n      gt\n      iszero\n      tag_131\n      jumpi\n      0x00\n      dup2\n      0x00\n      swap1\n      sstore\n      pop\n      0x01\n      add\n      jump(tag_130)\n    tag_131:\n      pop\n      swap1\n      jump\t// out\n        /* \"#utility.yul\":7:419   */\n    tag_133:\n        /* \"#utility.yul\":85:90   */\n      0x00\n        /* \"#utility.yul\":110:176   */\n      tag_135\n        /* \"#utility.yul\":126:175   */\n      tag_136\n        /* \"#utility.yul\":168:174   */\n      dup5\n        /* \"#utility.yul\":126:175   */\n      tag_137\n      jump\t// in\n    tag_136:\n        /* \"#utility.yul\":110:176   */\n      tag_138\n      jump\t// in\n    tag_135:\n        /* \"#utility.yul\":101:176   */\n      swap1\n      pop\n        /* \"#utility.yul\":199:205   */\n      dup3\n        /* \"#utility.yul\":192:197   */\n      dup2\n        /* \"#utility.yul\":185:206   */\n      mstore\n        /* \"#utility.yul\":237:241   */\n      0x20\n        /* \"#utility.yul\":230:235   */\n      dup2\n        /* \"#utility.yul\":226:242   */\n      add\n        /* \"#utility.yul\":275:278   */\n      dup5\n        /* \"#utility.yul\":266:272   */\n      dup5\n        /* \"#utility.yul\":261:264   */\n      dup5\n        /* \"#utility.yul\":257:273   */\n      add\n        /* \"#utility.yul\":254:279   */\n      gt\n        /* \"#utility.yul\":251:363   */\n      iszero\n      tag_139\n      jumpi\n        /* \"#utility.yul\":282:361   */\n      tag_140\n      tag_141\n      jump\t// in\n    tag_140:\n        /* \"#utility.yul\":251:363   */\n    tag_139:\n        /* \"#utility.yul\":372:413   */\n      tag_142\n        /* \"#utility.yul\":406:412   */\n      dup5\n        /* \"#utility.yul\":401:404   */\n      dup3\n        /* \"#utility.yul\":396:399   */\n      dup6\n        /* \"#utility.yul\":372:413   */\n      tag_143\n      jump\t// in\n    tag_142:\n        /* \"#utility.yul\":91:419   */\n      pop\n        /* \"#utility.yul\":7:419   */\n      swap4\n      swap3\n      pop\n      pop\n      pop\n      jump\t// out\n        /* \"#utility.yul\":425:564   */\n    tag_144:\n        /* \"#utility.yul\":471:476   */\n      0x00\n        /* \"#utility.yul\":509:515   */\n      dup2\n        /* \"#utility.yul\":496:516   */\n      calldataload\n        /* \"#utility.yul\":487:516   */\n      swap1\n      pop\n        /* \"#utility.yul\":525:558   */\n      tag_146\n        /* \"#utility.yul\":552:557   */\n      dup2\n        /* \"#utility.yul\":525:558   */\n      tag_147\n      jump\t// in\n    tag_146:\n        /* \"#utility.yul\":425:564   */\n      swap3\n      swap2\n      pop\n      pop\n      jump\t// out\n        /* \"#utility.yul\":570:725   */\n    tag_148:\n        /* \"#utility.yul\":624:629   */\n      0x00\n        /* \"#utility.yul\":662:668   */\n      dup2\n        /* \"#utility.yul\":649:669   */\n      calldataload\n        /* \"#utility.yul\":640:669   */\n      swap1\n      pop\n        /* \"#utility.yul\":678:719   */\n      tag_150\n        /* \"#utility.yul\":713:718   */\n      dup2\n        /* \"#utility.yul\":678:719   */\n      tag_151\n      jump\t// in\n    tag_150:\n        /* \"#utility.yul\":570:725   */\n      swap3\n      swap2\n      pop\n      pop\n      jump\t// out\n        /* \"#utility.yul\":745:1085   */\n    tag_152:\n        /* \"#utility.yul\":801:806   */\n      0x00\n        /* \"#utility.yul\":850:853   */\n      dup3\n        /* \"#utility.yul\":843:847   */\n      0x1f\n        /* \"#utility.yul\":835:841   */\n      dup4\n        /* \"#utility.yul\":831:848   */\n      add\n        /* \"#utility.yul\":827:854   */\n      slt\n        /* \"#utility.yul\":817:939   */\n      tag_154\n      jumpi\n        /* \"#utility.yul\":858:937   */\n      tag_155\n      tag_156\n      jump\t// in\n    tag_155:\n        /* \"#utility.yul\":817:939   */\n    tag_154:\n        /* \"#utility.yul\":975:981   */\n      dup2\n        /* \"#utility.yul\":962:982   */\n      calldataload\n        /* \"#utility.yul\":1000:1079   */\n      tag_157\n        /* \"#utility.yul\":1075:1078   */\n      dup5\n        /* \"#utility.yul\":1067:1073   */\n      dup3\n        /* \"#utility.yul\":1060:1064   */\n      0x20\n        /* \"#utility.yul\":1052:1058   */\n      dup7\n        /* \"#utility.yul\":1048:1065   */\n      add\n        /* \"#utility.yul\":1000:1079   */\n      tag_133\n      jump\t// in\n    tag_157:\n        /* \"#utility.yul\":991:1079   */\n      swap2\n      pop\n        /* \"#utility.yul\":807:1085   */\n      pop\n        /* \"#utility.yul\":745:1085   */\n      swap3\n      swap2\n      pop\n      pop\n      jump\t// out\n        /* \"#utility.yul\":1091:1230   */\n    tag_158:\n        /* \"#utility.yul\":1137:1142   */\n      0x00\n        /* \"#utility.yul\":1175:1181   */\n      dup2\n        /* \"#utility.yul\":1162:1182   */\n      calldataload\n        /* \"#utility.yul\":1153:1182   */\n      swap1\n      pop\n        /* \"#utility.yul\":1191:1224   */\n      tag_160\n        /* \"#utility.yul\":1218:1223   */\n      dup2\n        /* \"#utility.yul\":1191:1224   */\n      tag_161\n      jump\t// in\n    tag_160:\n        /* \"#utility.yul\":1091:1230   */\n      swap3\n      swap2\n      pop\n      pop\n      jump\t// out\n        /* \"#utility.yul\":1236:1565   */\n    tag_37:\n        /* \"#utility.yul\":1295:1301   */\n      0x00\n        /* \"#utility.yul\":1344:1346   */\n      0x20\n        /* \"#utility.yul\":1332:1341   */\n      dup3\n        /* \"#utility.yul\":1323:1330   */\n      dup5\n        /* \"#utility.yul\":1319:1342   */\n      sub\n        /* \"#utility.yul\":1315:1347   */\n      slt\n        /* \"#utility.yul\":1312:1431   */\n      iszero\n      tag_163\n      jumpi\n        /* \"#utility.yul\":1350:1429   */\n      tag_164\n      tag_165\n      jump\t// in\n    tag_164:\n        /* \"#utility.yul\":1312:1431   */\n    tag_163:\n        /* \"#utility.yul\":1470:1471   */\n      0x00\n        /* \"#utility.yul\":1495:1548   */\n      tag_166\n        /* \"#utility.yul\":1540:1547   */\n      dup5\n        /* \"#utility.yul\":1531:1537   */\n      dup3\n        /* \"#utility.yul\":1520:1529   */\n      dup6\n        /* \"#utility.yul\":1516:1538   */\n      add\n        /* \"#utility.yul\":1495:1548   */\n      tag_144\n      jump\t// in\n    tag_166:\n        /* \"#utility.yul\":1485:1548   */\n      swap2\n      pop\n        /* \"#utility.yul\":1441:1558   */\n      pop\n        /* \"#utility.yul\":1236:1565   */\n      swap3\n      swap2\n      pop\n      pop\n      jump\t// out\n        /* \"#utility.yul\":1571:2386   */\n    tag_32:\n        /* \"#utility.yul\":1666:1672   */\n      0x00\n        /* \"#utility.yul\":1674:1680   */\n      dup1\n        /* \"#utility.yul\":1682:1688   */\n      0x00\n        /* \"#utility.yul\":1731:1733   */\n      0x60\n        /* \"#utility.yul\":1719:1728   */\n      dup5\n        /* \"#utility.yul\":1710:1717   */\n      dup7\n        /* \"#utility.yul\":1706:1729   */\n      sub\n        /* \"#utility.yul\":1702:1734   */\n      slt\n        /* \"#utility.yul\":1699:1818   */\n      iszero\n      tag_168\n      jumpi\n        /* \"#utility.yul\":1737:1816   */\n      tag_169\n      tag_165\n      jump\t// in\n    tag_169:\n        /* \"#utility.yul\":1699:1818   */\n    tag_168:\n        /* \"#utility.yul\":1885:1886   */\n      0x00\n        /* \"#utility.yul\":1874:1883   */\n      dup5\n        /* \"#utility.yul\":1870:1887   */\n      add\n        /* \"#utility.yul\":1857:1888   */\n      calldataload\n        /* \"#utility.yul\":1915:1933   */\n      0xffffffffffffffff\n        /* \"#utility.yul\":1907:1913   */\n      dup2\n        /* \"#utility.yul\":1904:1934   */\n      gt\n        /* \"#utility.yul\":1901:2018   */\n      iszero\n      tag_170\n      jumpi\n        /* \"#utility.yul\":1937:2016   */\n      tag_171\n      tag_172\n      jump\t// in\n    tag_171:\n        /* \"#utility.yul\":1901:2018   */\n    tag_170:\n        /* \"#utility.yul\":2042:2105   */\n      tag_173\n        /* \"#utility.yul\":2097:2104   */\n      dup7\n        /* \"#utility.yul\":2088:2094   */\n      dup3\n        /* \"#utility.yul\":2077:2086   */\n      dup8\n        /* \"#utility.yul\":2073:2095   */\n      add\n        /* \"#utility.yul\":2042:2105   */\n      tag_152\n      jump\t// in\n    tag_173:\n        /* \"#utility.yul\":2032:2105   */\n      swap4\n      pop\n        /* \"#utility.yul\":1828:2115   */\n      pop\n        /* \"#utility.yul\":2154:2156   */\n      0x20\n        /* \"#utility.yul\":2180:2241   */\n      tag_174\n        /* \"#utility.yul\":2233:2240   */\n      dup7\n        /* \"#utility.yul\":2224:2230   */\n      dup3\n        /* \"#utility.yul\":2213:2222   */\n      dup8\n        /* \"#utility.yul\":2209:2231   */\n      add\n        /* \"#utility.yul\":2180:2241   */\n      tag_148\n      jump\t// in\n    tag_174:\n        /* \"#utility.yul\":2170:2241   */\n      swap3\n      pop\n        /* \"#utility.yul\":2125:2251   */\n      pop\n        /* \"#utility.yul\":2290:2292   */\n      0x40\n        /* \"#utility.yul\":2316:2369   */\n      tag_175\n        /* \"#utility.yul\":2361:2368   */\n      dup7\n        /* \"#utility.yul\":2352:2358   */\n      dup3\n        /* \"#utility.yul\":2341:2350   */\n      dup8\n        /* \"#utility.yul\":2337:2359   */\n      add\n        /* \"#utility.yul\":2316:2369   */\n      tag_158\n      jump\t// in\n    tag_175:\n        /* \"#utility.yul\":2306:2369   */\n      swap2\n      pop\n        /* \"#utility.yul\":2261:2379   */\n      pop\n        /* \"#utility.yul\":1571:2386   */\n      swap3\n      pop\n      swap3\n      pop\n      swap3\n      jump\t// out\n        /* \"#utility.yul\":2392:2721   */\n    tag_51:\n        /* \"#utility.yul\":2451:2457   */\n      0x00\n        /* \"#utility.yul\":2500:2502   */\n      0x20\n        /* \"#utility.yul\":2488:2497   */\n      dup3\n        /* \"#utility.yul\":2479:2486   */\n      dup5\n        /* \"#utility.yul\":2475:2498   */\n      sub\n        /* \"#utility.yul\":2471:2503   */\n      slt\n        /* \"#utility.yul\":2468:2587   */\n      iszero\n      tag_177\n      jumpi\n        /* \"#utility.yul\":2506:2585   */\n      tag_178\n      tag_165\n      jump\t// in\n    tag_178:\n        /* \"#utility.yul\":2468:2587   */\n    tag_177:\n        /* \"#utility.yul\":2626:2627   */\n      0x00\n        /* \"#utility.yul\":2651:2704   */\n      tag_179\n        /* \"#utility.yul\":2696:2703   */\n      dup5\n        /* \"#utility.yul\":2687:2693   */\n      dup3\n        /* \"#utility.yul\":2676:2685   */\n      dup6\n        /* \"#utility.yul\":2672:2694   */\n      add\n        /* \"#utility.yul\":2651:2704   */\n      tag_158\n      jump\t// in\n    tag_179:\n        /* \"#utility.yul\":2641:2704   */\n      swap2\n      pop\n        /* \"#utility.yul\":2597:2714   */\n      pop\n        /* \"#utility.yul\":2392:2721   */\n      swap3\n      swap2\n      pop\n      pop\n      jump\t// out\n        /* \"#utility.yul\":2727:2869   */\n    tag_180:\n        /* \"#utility.yul\":2830:2862   */\n      tag_182\n        /* \"#utility.yul\":2856:2861   */\n      dup2\n        /* \"#utility.yul\":2830:2862   */\n      tag_183\n      jump\t// in\n    tag_182:\n        /* \"#utility.yul\":2825:2828   */\n      dup3\n        /* \"#utility.yul\":2818:2863   */\n      mstore\n        /* \"#utility.yul\":2727:2869   */\n      pop\n      pop\n      jump\t// out\n        /* \"#utility.yul\":2875:2993   */\n    tag_184:\n        /* \"#utility.yul\":2962:2986   */\n      tag_186\n        /* \"#utility.yul\":2980:2985   */\n      dup2\n        /* \"#utility.yul\":2962:2986   */\n      tag_187\n      jump\t// in\n    tag_186:\n        /* \"#utility.yul\":2957:2960   */\n      dup3\n        /* \"#utility.yul\":2950:2987   */\n      mstore\n        /* \"#utility.yul\":2875:2993   */\n      pop\n      pop\n      jump\t// out\n        /* \"#utility.yul\":2999:3108   */\n    tag_188:\n        /* \"#utility.yul\":3080:3101   */\n      tag_190\n        /* \"#utility.yul\":3095:3100   */\n      dup2\n        /* \"#utility.yul\":3080:3101   */\n      tag_191\n      jump\t// in\n    tag_190:\n        /* \"#utility.yul\":3075:3078   */\n      dup3\n        /* \"#utility.yul\":3068:3102   */\n      mstore\n        /* \"#utility.yul\":2999:3108   */\n      pop\n      pop\n      jump\t// out\n        /* \"#utility.yul\":3114:3478   */\n    tag_192:\n        /* \"#utility.yul\":3202:3205   */\n      0x00\n        /* \"#utility.yul\":3230:3269   */\n      tag_194\n        /* \"#utility.yul\":3263:3268   */\n      dup3\n        /* \"#utility.yul\":3230:3269   */\n      tag_195\n      jump\t// in\n    tag_194:\n        /* \"#utility.yul\":3285:3356   */\n      tag_196\n        /* \"#utility.yul\":3349:3355   */\n      dup2\n        /* \"#utility.yul\":3344:3347   */\n      dup6\n        /* \"#utility.yul\":3285:3356   */\n      tag_197\n      jump\t// in\n    tag_196:\n        /* \"#utility.yul\":3278:3356   */\n      swap4\n      pop\n        /* \"#utility.yul\":3365:3417   */\n      tag_198\n        /* \"#utility.yul\":3410:3416   */\n      dup2\n        /* \"#utility.yul\":3405:3408   */\n      dup6\n        /* \"#utility.yul\":3398:3402   */\n      0x20\n        /* \"#utility.yul\":3391:3396   */\n      dup7\n        /* \"#utility.yul\":3387:3403   */\n      add\n        /* \"#utility.yul\":3365:3417   */\n      tag_199\n      jump\t// in\n    tag_198:\n        /* \"#utility.yul\":3442:3471   */\n      tag_200\n        /* \"#utility.yul\":3464:3470   */\n      dup2\n        /* \"#utility.yul\":3442:3471   */\n      tag_201\n      jump\t// in\n    tag_200:\n        /* \"#utility.yul\":3437:3440   */\n      dup5\n        /* \"#utility.yul\":3433:3472   */\n      add\n        /* \"#utility.yul\":3426:3472   */\n      swap2\n      pop\n        /* \"#utility.yul\":3206:3478   */\n      pop\n        /* \"#utility.yul\":3114:3478   */\n      swap3\n      swap2\n      pop\n      pop\n      jump\t// out\n        /* \"#utility.yul\":3484:3850   */\n    tag_202:\n        /* \"#utility.yul\":3626:3629   */\n      0x00\n        /* \"#utility.yul\":3647:3714   */\n      tag_204\n        /* \"#utility.yul\":3711:3713   */\n      0x14\n        /* \"#utility.yul\":3706:3709   */\n      dup4\n        /* \"#utility.yul\":3647:3714   */\n      tag_197\n      jump\t// in\n    tag_204:\n        /* \"#utility.yul\":3640:3714   */\n      swap2\n      pop\n        /* \"#utility.yul\":3723:3816   */\n      tag_205\n        /* \"#utility.yul\":3812:3815   */\n      dup3\n        /* \"#utility.yul\":3723:3816   */\n      tag_206\n      jump\t// in\n    tag_205:\n        /* \"#utility.yul\":3841:3843   */\n      0x20\n        /* \"#utility.yul\":3836:3839   */\n      dup3\n        /* \"#utility.yul\":3832:3844   */\n      add\n        /* \"#utility.yul\":3825:3844   */\n      swap1\n      pop\n        /* \"#utility.yul\":3484:3850   */\n      swap2\n      swap1\n      pop\n      jump\t// out\n        /* \"#utility.yul\":3856:4222   */\n    tag_207:\n        /* \"#utility.yul\":3998:4001   */\n      0x00\n        /* \"#utility.yul\":4019:4086   */\n      tag_209\n        /* \"#utility.yul\":4083:4085   */\n      0x1a\n        /* \"#utility.yul\":4078:4081   */\n      dup4\n        /* \"#utility.yul\":4019:4086   */\n      tag_197\n      jump\t// in\n    tag_209:\n        /* \"#utility.yul\":4012:4086   */\n      swap2\n      pop\n        /* \"#utility.yul\":4095:4188   */\n      tag_210\n        /* \"#utility.yul\":4184:4187   */\n      dup3\n        /* \"#utility.yul\":4095:4188   */\n      tag_211\n      jump\t// in\n    tag_210:\n        /* \"#utility.yul\":4213:4215   */\n      0x20\n        /* \"#utility.yul\":4208:4211   */\n      dup3\n        /* \"#utility.yul\":4204:4216   */\n      add\n        /* \"#utility.yul\":4197:4216   */\n      swap1\n      pop\n        /* \"#utility.yul\":3856:4222   */\n      swap2\n      swap1\n      pop\n      jump\t// out\n        /* \"#utility.yul\":4228:4594   */\n    tag_212:\n        /* \"#utility.yul\":4370:4373   */\n      0x00\n        /* \"#utility.yul\":4391:4458   */\n      tag_214\n        /* \"#utility.yul\":4455:4457   */\n      0x1d\n        /* \"#utility.yul\":4450:4453   */\n      dup4\n        /* \"#utility.yul\":4391:4458   */\n      tag_197\n      jump\t// in\n    tag_214:\n        /* \"#utility.yul\":4384:4458   */\n      swap2\n      pop\n        /* \"#utility.yul\":4467:4560   */\n      tag_215\n        /* \"#utility.yul\":4556:4559   */\n      dup3\n        /* \"#utility.yul\":4467:4560   */\n      tag_216\n      jump\t// in\n    tag_215:\n        /* \"#utility.yul\":4585:4587   */\n      0x20\n        /* \"#utility.yul\":4580:4583   */\n      dup3\n        /* \"#utility.yul\":4576:4588   */\n      add\n        /* \"#utility.yul\":4569:4588   */\n      swap1\n      pop\n        /* \"#utility.yul\":4228:4594   */\n      swap2\n      swap1\n      pop\n      jump\t// out\n        /* \"#utility.yul\":4600:4966   */\n    tag_217:\n        /* \"#utility.yul\":4742:4745   */\n      0x00\n        /* \"#utility.yul\":4763:4830   */\n      tag_219\n        /* \"#utility.yul\":4827:4829   */\n      0x1b\n        /* \"#utility.yul\":4822:4825   */\n      dup4\n        /* \"#utility.yul\":4763:4830   */\n      tag_197\n      jump\t// in\n    tag_219:\n        /* \"#utility.yul\":4756:4830   */\n      swap2\n      pop\n        /* \"#utility.yul\":4839:4932   */\n      tag_220\n        /* \"#utility.yul\":4928:4931   */\n      dup3\n        /* \"#utility.yul\":4839:4932   */\n      tag_221\n      jump\t// in\n    tag_220:\n        /* \"#utility.yul\":4957:4959   */\n      0x20\n        /* \"#utility.yul\":4952:4955   */\n      dup3\n        /* \"#utility.yul\":4948:4960   */\n      add\n        /* \"#utility.yul\":4941:4960   */\n      swap1\n      pop\n        /* \"#utility.yul\":4600:4966   */\n      swap2\n      swap1\n      pop\n      jump\t// out\n        /* \"#utility.yul\":4972:5090   */\n    tag_222:\n        /* \"#utility.yul\":5059:5083   */\n      tag_224\n        /* \"#utility.yul\":5077:5082   */\n      dup2\n        /* \"#utility.yul\":5059:5083   */\n      tag_225\n      jump\t// in\n    tag_224:\n        /* \"#utility.yul\":5054:5057   */\n      dup3\n        /* \"#utility.yul\":5047:5084   */\n      mstore\n        /* \"#utility.yul\":4972:5090   */\n      pop\n      pop\n      jump\t// out\n        /* \"#utility.yul\":5096:5318   */\n    tag_83:\n        /* \"#utility.yul\":5189:5193   */\n      0x00\n        /* \"#utility.yul\":5227:5229   */\n      0x20\n        /* \"#utility.yul\":5216:5225   */\n      dup3\n        /* \"#utility.yul\":5212:5230   */\n      add\n        /* \"#utility.yul\":5204:5230   */\n      swap1\n      pop\n        /* \"#utility.yul\":5240:5311   */\n      tag_227\n        /* \"#utility.yul\":5308:5309   */\n      0x00\n        /* \"#utility.yul\":5297:5306   */\n      dup4\n        /* \"#utility.yul\":5293:5310   */\n      add\n        /* \"#utility.yul\":5284:5290   */\n      dup5\n        /* \"#utility.yul\":5240:5311   */\n      tag_184\n      jump\t// in\n    tag_227:\n        /* \"#utility.yul\":5096:5318   */\n      swap3\n      swap2\n      pop\n      pop\n      jump\t// out\n        /* \"#utility.yul\":5324:6099   */\n    tag_58:\n        /* \"#utility.yul\":5559:5563   */\n      0x00\n        /* \"#utility.yul\":5597:5600   */\n      0xa0\n        /* \"#utility.yul\":5586:5595   */\n      dup3\n        /* \"#utility.yul\":5582:5601   */\n      add\n        /* \"#utility.yul\":5574:5601   */\n      swap1\n      pop\n        /* \"#utility.yul\":5647:5656   */\n      dup2\n        /* \"#utility.yul\":5641:5645   */\n      dup2\n        /* \"#utility.yul\":5637:5657   */\n      sub\n        /* \"#utility.yul\":5633:5634   */\n      0x00\n        /* \"#utility.yul\":5622:5631   */\n      dup4\n        /* \"#utility.yul\":5618:5635   */\n      add\n        /* \"#utility.yul\":5611:5658   */\n      mstore\n        /* \"#utility.yul\":5675:5753   */\n      tag_229\n        /* \"#utility.yul\":5748:5752   */\n      dup2\n        /* \"#utility.yul\":5739:5745   */\n      dup9\n        /* \"#utility.yul\":5675:5753   */\n      tag_192\n      jump\t// in\n    tag_229:\n        /* \"#utility.yul\":5667:5753   */\n      swap1\n      pop\n        /* \"#utility.yul\":5763:5851   */\n      tag_230\n        /* \"#utility.yul\":5847:5849   */\n      0x20\n        /* \"#utility.yul\":5836:5845   */\n      dup4\n        /* \"#utility.yul\":5832:5850   */\n      add\n        /* \"#utility.yul\":5823:5829   */\n      dup8\n        /* \"#utility.yul\":5763:5851   */\n      tag_180\n      jump\t// in\n    tag_230:\n        /* \"#utility.yul\":5861:5933   */\n      tag_231\n        /* \"#utility.yul\":5929:5931   */\n      0x40\n        /* \"#utility.yul\":5918:5927   */\n      dup4\n        /* \"#utility.yul\":5914:5932   */\n      add\n        /* \"#utility.yul\":5905:5911   */\n      dup7\n        /* \"#utility.yul\":5861:5933   */\n      tag_222\n      jump\t// in\n    tag_231:\n        /* \"#utility.yul\":5943:6009   */\n      tag_232\n        /* \"#utility.yul\":6005:6007   */\n      0x60\n        /* \"#utility.yul\":5994:6003   */\n      dup4\n        /* \"#utility.yul\":5990:6008   */\n      add\n        /* \"#utility.yul\":5981:5987   */\n      dup6\n        /* \"#utility.yul\":5943:6009   */\n      tag_188\n      jump\t// in\n    tag_232:\n        /* \"#utility.yul\":6019:6092   */\n      tag_233\n        /* \"#utility.yul\":6087:6090   */\n      0x80\n        /* \"#utility.yul\":6076:6085   */\n      dup4\n        /* \"#utility.yul\":6072:6091   */\n      add\n        /* \"#utility.yul\":6063:6069   */\n      dup5\n        /* \"#utility.yul\":6019:6092   */\n      tag_222\n      jump\t// in\n    tag_233:\n        /* \"#utility.yul\":5324:6099   */\n      swap7\n      swap6\n      pop\n      pop\n      pop\n      pop\n      pop\n      pop\n      jump\t// out\n        /* \"#utility.yul\":6105:6524   */\n    tag_87:\n        /* \"#utility.yul\":6271:6275   */\n      0x00\n        /* \"#utility.yul\":6309:6311   */\n      0x20\n        /* \"#utility.yul\":6298:6307   */\n      dup3\n        /* \"#utility.yul\":6294:6312   */\n      add\n        /* \"#utility.yul\":6286:6312   */\n      swap1\n      pop\n        /* \"#utility.yul\":6358:6367   */\n      dup2\n        /* \"#utility.yul\":6352:6356   */\n      dup2\n        /* \"#utility.yul\":6348:6368   */\n      sub\n        /* \"#utility.yul\":6344:6345   */\n      0x00\n        /* \"#utility.yul\":6333:6342   */\n      dup4\n        /* \"#utility.yul\":6329:6346   */\n      add\n        /* \"#utility.yul\":6322:6369   */\n      mstore\n        /* \"#utility.yul\":6386:6517   */\n      tag_235\n        /* \"#utility.yul\":6512:6516   */\n      dup2\n        /* \"#utility.yul\":6386:6517   */\n      tag_202\n      jump\t// in\n    tag_235:\n        /* \"#utility.yul\":6378:6517   */\n      swap1\n      pop\n        /* \"#utility.yul\":6105:6524   */\n      swap2\n      swap1\n      pop\n      jump\t// out\n        /* \"#utility.yul\":6530:6949   */\n    tag_101:\n        /* \"#utility.yul\":6696:6700   */\n      0x00\n        /* \"#utility.yul\":6734:6736   */\n      0x20\n        /* \"#utility.yul\":6723:6732   */\n      dup3\n        /* \"#utility.yul\":6719:6737   */\n      add\n        /* \"#utility.yul\":6711:6737   */\n      swap1\n      pop\n        /* \"#utility.yul\":6783:6792   */\n      dup2\n        /* \"#utility.yul\":6777:6781   */\n      dup2\n        /* \"#utility.yul\":6773:6793   */\n      sub\n        /* \"#utility.yul\":6769:6770   */\n      0x00\n        /* \"#utility.yul\":6758:6767   */\n      dup4\n        /* \"#utility.yul\":6754:6771   */\n      add\n        /* \"#utility.yul\":6747:6794   */\n      mstore\n        /* \"#utility.yul\":6811:6942   */\n      tag_237\n        /* \"#utility.yul\":6937:6941   */\n      dup2\n        /* \"#utility.yul\":6811:6942   */\n      tag_207\n      jump\t// in\n    tag_237:\n        /* \"#utility.yul\":6803:6942   */\n      swap1\n      pop\n        /* \"#utility.yul\":6530:6949   */\n      swap2\n      swap1\n      pop\n      jump\t// out\n        /* \"#utility.yul\":6955:7374   */\n    tag_90:\n        /* \"#utility.yul\":7121:7125   */\n      0x00\n        /* \"#utility.yul\":7159:7161   */\n      0x20\n        /* \"#utility.yul\":7148:7157   */\n      dup3\n        /* \"#utility.yul\":7144:7162   */\n      add\n        /* \"#utility.yul\":7136:7162   */\n      swap1\n      pop\n        /* \"#utility.yul\":7208:7217   */\n      dup2\n        /* \"#utility.yul\":7202:7206   */\n      dup2\n        /* \"#utility.yul\":7198:7218   */\n      sub\n        /* \"#utility.yul\":7194:7195   */\n      0x00\n        /* \"#utility.yul\":7183:7192   */\n      dup4\n        /* \"#utility.yul\":7179:7196   */\n      add\n        /* \"#utility.yul\":7172:7219   */\n      mstore\n        /* \"#utility.yul\":7236:7367   */\n      tag_239\n        /* \"#utility.yul\":7362:7366   */\n      dup2\n        /* \"#utility.yul\":7236:7367   */\n      tag_212\n      jump\t// in\n    tag_239:\n        /* \"#utility.yul\":7228:7367   */\n      swap1\n      pop\n        /* \"#utility.yul\":6955:7374   */\n      swap2\n      swap1\n      pop\n      jump\t// out\n        /* \"#utility.yul\":7380:7799   */\n    tag_109:\n        /* \"#utility.yul\":7546:7550   */\n      0x00\n        /* \"#utility.yul\":7584:7586   */\n      0x20\n        /* \"#utility.yul\":7573:7582   */\n      dup3\n        /* \"#utility.yul\":7569:7587   */\n      add\n        /* \"#utility.yul\":7561:7587   */\n      swap1\n      pop\n        /* \"#utility.yul\":7633:7642   */\n      dup2\n        /* \"#utility.yul\":7627:7631   */\n      dup2\n        /* \"#utility.yul\":7623:7643   */\n      sub\n        /* \"#utility.yul\":7619:7620   */\n      0x00\n        /* \"#utility.yul\":7608:7617   */\n      dup4\n        /* \"#utility.yul\":7604:7621   */\n      add\n        /* \"#utility.yul\":7597:7644   */\n      mstore\n        /* \"#utility.yul\":7661:7792   */\n      tag_241\n        /* \"#utility.yul\":7787:7791   */\n      dup2\n        /* \"#utility.yul\":7661:7792   */\n      tag_217\n      jump\t// in\n    tag_241:\n        /* \"#utility.yul\":7653:7792   */\n      swap1\n      pop\n        /* \"#utility.yul\":7380:7799   */\n      swap2\n      swap1\n      pop\n      jump\t// out\n        /* \"#utility.yul\":7805:8027   */\n    tag_28:\n        /* \"#utility.yul\":7898:7902   */\n      0x00\n        /* \"#utility.yul\":7936:7938   */\n      0x20\n        /* \"#utility.yul\":7925:7934   */\n      dup3\n        /* \"#utility.yul\":7921:7939   */\n      add\n        /* \"#utility.yul\":7913:7939   */\n      swap1\n      pop\n        /* \"#utility.yul\":7949:8020   */\n      tag_243\n        /* \"#utility.yul\":8017:8018   */\n      0x00\n        /* \"#utility.yul\":8006:8015   */\n      dup4\n        /* \"#utility.yul\":8002:8019   */\n      add\n        /* \"#utility.yul\":7993:7999   */\n      dup5\n        /* \"#utility.yul\":7949:8020   */\n      tag_222\n      jump\t// in\n    tag_243:\n        /* \"#utility.yul\":7805:8027   */\n      swap3\n      swap2\n      pop\n      pop\n      jump\t// out\n        /* \"#utility.yul\":8033:8162   */\n    tag_138:\n        /* \"#utility.yul\":8067:8073   */\n      0x00\n        /* \"#utility.yul\":8094:8114   */\n      tag_245\n      tag_246\n      jump\t// in\n    tag_245:\n        /* \"#utility.yul\":8084:8114   */\n      swap1\n      pop\n        /* \"#utility.yul\":8123:8156   */\n      tag_247\n        /* \"#utility.yul\":8151:8155   */\n      dup3\n        /* \"#utility.yul\":8143:8149   */\n      dup3\n        /* \"#utility.yul\":8123:8156   */\n      tag_248\n      jump\t// in\n    tag_247:\n        /* \"#utility.yul\":8033:8162   */\n      swap2\n      swap1\n      pop\n      jump\t// out\n        /* \"#utility.yul\":8168:8243   */\n    tag_246:\n        /* \"#utility.yul\":8201:8207   */\n      0x00\n        /* \"#utility.yul\":8234:8236   */\n      0x40\n        /* \"#utility.yul\":8228:8237   */\n      mload\n        /* \"#utility.yul\":8218:8237   */\n      swap1\n      pop\n        /* \"#utility.yul\":8168:8243   */\n      swap1\n      jump\t// out\n        /* \"#utility.yul\":8249:8557   */\n    tag_137:\n        /* \"#utility.yul\":8311:8315   */\n      0x00\n        /* \"#utility.yul\":8401:8419   */\n      0xffffffffffffffff\n        /* \"#utility.yul\":8393:8399   */\n      dup3\n        /* \"#utility.yul\":8390:8420   */\n      gt\n        /* \"#utility.yul\":8387:8443   */\n      iszero\n      tag_251\n      jumpi\n        /* \"#utility.yul\":8423:8441   */\n      tag_252\n      tag_253\n      jump\t// in\n    tag_252:\n        /* \"#utility.yul\":8387:8443   */\n    tag_251:\n        /* \"#utility.yul\":8461:8490   */\n      tag_254\n        /* \"#utility.yul\":8483:8489   */\n      dup3\n        /* \"#utility.yul\":8461:8490   */\n      tag_201\n      jump\t// in\n    tag_254:\n        /* \"#utility.yul\":8453:8490   */\n      swap1\n      pop\n        /* \"#utility.yul\":8545:8549   */\n      0x20\n        /* \"#utility.yul\":8539:8543   */\n      dup2\n        /* \"#utility.yul\":8535:8550   */\n      add\n        /* \"#utility.yul\":8527:8550   */\n      swap1\n      pop\n        /* \"#utility.yul\":8249:8557   */\n      swap2\n      swap1\n      pop\n      jump\t// out\n        /* \"#utility.yul\":8563:8662   */\n    tag_195:\n        /* \"#utility.yul\":8615:8621   */\n      0x00\n        /* \"#utility.yul\":8649:8654   */\n      dup2\n        /* \"#utility.yul\":8643:8655   */\n      mload\n        /* \"#utility.yul\":8633:8655   */\n      swap1\n      pop\n        /* \"#utility.yul\":8563:8662   */\n      swap2\n      swap1\n      pop\n      jump\t// out\n        /* \"#utility.yul\":8668:8837   */\n    tag_197:\n        /* \"#utility.yul\":8752:8763   */\n      0x00\n        /* \"#utility.yul\":8786:8792   */\n      dup3\n        /* \"#utility.yul\":8781:8784   */\n      dup3\n        /* \"#utility.yul\":8774:8793   */\n      mstore\n        /* \"#utility.yul\":8826:8830   */\n      0x20\n        /* \"#utility.yul\":8821:8824   */\n      dup3\n        /* \"#utility.yul\":8817:8831   */\n      add\n        /* \"#utility.yul\":8802:8831   */\n      swap1\n      pop\n        /* \"#utility.yul\":8668:8837   */\n      swap3\n      swap2\n      pop\n      pop\n      jump\t// out\n        /* \"#utility.yul\":8843:9148   */\n    tag_95:\n        /* \"#utility.yul\":8883:8886   */\n      0x00\n        /* \"#utility.yul\":8902:8922   */\n      tag_258\n        /* \"#utility.yul\":8920:8921   */\n      dup3\n        /* \"#utility.yul\":8902:8922   */\n      tag_225\n      jump\t// in\n    tag_258:\n        /* \"#utility.yul\":8897:8922   */\n      swap2\n      pop\n        /* \"#utility.yul\":8936:8956   */\n      tag_259\n        /* \"#utility.yul\":8954:8955   */\n      dup4\n        /* \"#utility.yul\":8936:8956   */\n      tag_225\n      jump\t// in\n    tag_259:\n        /* \"#utility.yul\":8931:8956   */\n      swap3\n      pop\n        /* \"#utility.yul\":9090:9091   */\n      dup3\n        /* \"#utility.yul\":9022:9088   */\n      0xffffffffffffffffffffffffffffffffffffffffffffffffffffffffffffffff\n        /* \"#utility.yul\":9018:9092   */\n      sub\n        /* \"#utility.yul\":9015:9016   */\n      dup3\n        /* \"#utility.yul\":9012:9093   */\n      gt\n        /* \"#utility.yul\":9009:9116   */\n      iszero\n      tag_260\n      jumpi\n        /* \"#utility.yul\":9096:9114   */\n      tag_261\n      tag_262\n      jump\t// in\n    tag_261:\n        /* \"#utility.yul\":9009:9116   */\n    tag_260:\n        /* \"#utility.yul\":9140:9141   */\n      dup3\n        /* \"#utility.yul\":9137:9138   */\n      dup3\n        /* \"#utility.yul\":9133:9142   */\n      add\n        /* \"#utility.yul\":9126:9142   */\n      swap1\n      pop\n        /* \"#utility.yul\":8843:9148   */\n      swap3\n      swap2\n      pop\n      pop\n      jump\t// out\n        /* \"#utility.yul\":9154:9250   */\n    tag_187:\n        /* \"#utility.yul\":9191:9198   */\n      0x00\n        /* \"#utility.yul\":9220:9244   */\n      tag_264\n        /* \"#utility.yul\":9238:9243   */\n      dup3\n        /* \"#utility.yul\":9220:9244   */\n      tag_265\n      jump\t// in\n    tag_264:\n        /* \"#utility.yul\":9209:9244   */\n      swap1\n      pop\n        /* \"#utility.yul\":9154:9250   */\n      swap2\n      swap1\n      pop\n      jump\t// out\n        /* \"#utility.yul\":9256:9360   */\n    tag_183:\n        /* \"#utility.yul\":9301:9308   */\n      0x00\n        /* \"#utility.yul\":9330:9354   */\n      tag_267\n        /* \"#utility.yul\":9348:9353   */\n      dup3\n        /* \"#utility.yul\":9330:9354   */\n      tag_265\n      jump\t// in\n    tag_267:\n        /* \"#utility.yul\":9319:9354   */\n      swap1\n      pop\n        /* \"#utility.yul\":9256:9360   */\n      swap2\n      swap1\n      pop\n      jump\t// out\n        /* \"#utility.yul\":9366:9456   */\n    tag_191:\n        /* \"#utility.yul\":9400:9407   */\n      0x00\n        /* \"#utility.yul\":9443:9448   */\n      dup2\n        /* \"#utility.yul\":9436:9449   */\n      iszero\n        /* \"#utility.yul\":9429:9450   */\n      iszero\n        /* \"#utility.yul\":9418:9450   */\n      swap1\n      pop\n        /* \"#utility.yul\":9366:9456   */\n      swap2\n      swap1\n      pop\n      jump\t// out\n        /* \"#utility.yul\":9462:9588   */\n    tag_265:\n        /* \"#utility.yul\":9499:9506   */\n      0x00\n        /* \"#utility.yul\":9539:9581   */\n      0xffffffffffffffffffffffffffffffffffffffff\n        /* \"#utility.yul\":9532:9537   */\n      dup3\n        /* \"#utility.yul\":9528:9582   */\n      and\n        /* \"#utility.yul\":9517:9582   */\n      swap1\n      pop\n        /* \"#utility.yul\":9462:9588   */\n      swap2\n      swap1\n      pop\n      jump\t// out\n        /* \"#utility.yul\":9594:9671   */\n    tag_225:\n        /* \"#utility.yul\":9631:9638   */\n      0x00\n        /* \"#utility.yul\":9660:9665   */\n      dup2\n        /* \"#utility.yul\":9649:9665   */\n      swap1\n      pop\n        /* \"#utility.yul\":9594:9671   */\n      swap2\n      swap1\n      pop\n      jump\t// out\n        /* \"#utility.yul\":9677:9831   */\n    tag_143:\n        /* \"#utility.yul\":9761:9767   */\n      dup3\n        /* \"#utility.yul\":9756:9759   */\n      dup2\n        /* \"#utility.yul\":9751:9754   */\n      dup4\n        /* \"#utility.yul\":9738:9768   */\n      calldatacopy\n        /* \"#utility.yul\":9823:9824   */\n      0x00\n        /* \"#utility.yul\":9814:9820   */\n      dup4\n        /* \"#utility.yul\":9809:9812   */\n      dup4\n        /* \"#utility.yul\":9805:9821   */\n      add\n        /* \"#utility.yul\":9798:9825   */\n      mstore\n        /* \"#utility.yul\":9677:9831   */\n      pop\n      pop\n      pop\n      jump\t// out\n        /* \"#utility.yul\":9837:10144   */\n    tag_199:\n        /* \"#utility.yul\":9905:9906   */\n      0x00\n        /* \"#utility.yul\":9915:10028   */\n    tag_273:\n        /* \"#utility.yul\":9929:9935   */\n      dup4\n        /* \"#utility.yul\":9926:9927   */\n      dup2\n        /* \"#utility.yul\":9923:9936   */\n      lt\n        /* \"#utility.yul\":9915:10028   */\n      iszero\n      tag_275\n      jumpi\n        /* \"#utility.yul\":10014:10015   */\n      dup1\n        /* \"#utility.yul\":10009:10012   */\n      dup3\n        /* \"#utility.yul\":10005:10016   */\n      add\n        /* \"#utility.yul\":9999:10017   */\n      mload\n        /* \"#utility.yul\":9995:9996   */\n      dup2\n        /* \"#utility.yul\":9990:9993   */\n      dup5\n        /* \"#utility.yul\":9986:9997   */\n      add\n        /* \"#utility.yul\":9979:10018   */\n      mstore\n        /* \"#utility.yul\":9951:9953   */\n      0x20\n        /* \"#utility.yul\":9948:9949   */\n      dup2\n        /* \"#utility.yul\":9944:9954   */\n      add\n        /* \"#utility.yul\":9939:9954   */\n      swap1\n      pop\n        /* \"#utility.yul\":9915:10028   */\n      jump(tag_273)\n    tag_275:\n        /* \"#utility.yul\":10046:10052   */\n      dup4\n        /* \"#utility.yul\":10043:10044   */\n      dup2\n        /* \"#utility.yul\":10040:10053   */\n      gt\n        /* \"#utility.yul\":10037:10138   */\n      iszero\n      tag_276\n      jumpi\n        /* \"#utility.yul\":10126:10127   */\n      0x00\n        /* \"#utility.yul\":10117:10123   */\n      dup5\n        /* \"#utility.yul\":10112:10115   */\n      dup5\n        /* \"#utility.yul\":10108:10124   */\n      add\n        /* \"#utility.yul\":10101:10128   */\n      mstore\n        /* \"#utility.yul\":10037:10138   */\n    tag_276:\n        /* \"#utility.yul\":9886:10144   */\n      pop\n        /* \"#utility.yul\":9837:10144   */\n      pop\n      pop\n      pop\n      jump\t// out\n        /* \"#utility.yul\":10150:10470   */\n    tag_111:\n        /* \"#utility.yul\":10194:10200   */\n      0x00\n        /* \"#utility.yul\":10231:10232   */\n      0x02\n        /* \"#utility.yul\":10225:10229   */\n      dup3\n        /* \"#utility.yul\":10221:10233   */\n      div\n        /* \"#utility.yul\":10211:10233   */\n      swap1\n      pop\n        /* \"#utility.yul\":10278:10279   */\n      0x01\n        /* \"#utility.yul\":10272:10276   */\n      dup3\n        /* \"#utility.yul\":10268:10280   */\n      and\n        /* \"#utility.yul\":10299:10317   */\n      dup1\n        /* \"#utility.yul\":10289:10370   */\n      tag_278\n      jumpi\n        /* \"#utility.yul\":10355:10359   */\n      0x7f\n        /* \"#utility.yul\":10347:10353   */\n      dup3\n        /* \"#utility.yul\":10343:10360   */\n      and\n        /* \"#utility.yul\":10333:10360   */\n      swap2\n      pop\n        /* \"#utility.yul\":10289:10370   */\n    tag_278:\n        /* \"#utility.yul\":10417:10419   */\n      0x20\n        /* \"#utility.yul\":10409:10415   */\n      dup3\n        /* \"#utility.yul\":10406:10420   */\n      lt\n        /* \"#utility.yul\":10386:10404   */\n      dup2\n        /* \"#utility.yul\":10383:10421   */\n      eq\n        /* \"#utility.yul\":10380:10464   */\n      iszero\n      tag_279\n      jumpi\n        /* \"#utility.yul\":10436:10454   */\n      tag_280\n      tag_281\n      jump\t// in\n    tag_280:\n        /* \"#utility.yul\":10380:10464   */\n    tag_279:\n        /* \"#utility.yul\":10201:10470   */\n      pop\n        /* \"#utility.yul\":10150:10470   */\n      swap2\n      swap1\n      pop\n      jump\t// out\n        /* \"#utility.yul\":10476:10757   */\n    tag_248:\n        /* \"#utility.yul\":10559:10586   */\n      tag_283\n        /* \"#utility.yul\":10581:10585   */\n      dup3\n        /* \"#utility.yul\":10559:10586   */\n      tag_201\n      jump\t// in\n    tag_283:\n        /* \"#utility.yul\":10551:10557   */\n      dup2\n        /* \"#utility.yul\":10547:10587   */\n      add\n        /* \"#utility.yul\":10689:10695   */\n      dup2\n        /* \"#utility.yul\":10677:10687   */\n      dup2\n        /* \"#utility.yul\":10674:10696   */\n      lt\n        /* \"#utility.yul\":10653:10671   */\n      0xffffffffffffffff\n        /* \"#utility.yul\":10641:10651   */\n      dup3\n        /* \"#utility.yul\":10638:10672   */\n      gt\n        /* \"#utility.yul\":10635:10697   */\n      or\n        /* \"#utility.yul\":10632:10720   */\n      iszero\n      tag_284\n      jumpi\n        /* \"#utility.yul\":10700:10718   */\n      tag_285\n      tag_253\n      jump\t// in\n    tag_285:\n        /* \"#utility.yul\":10632:10720   */\n    tag_284:\n        /* \"#utility.yul\":10740:10750   */\n      dup1\n        /* \"#utility.yul\":10736:10738   */\n      0x40\n        /* \"#utility.yul\":10729:10751   */\n      mstore\n        /* \"#utility.yul\":10519:10757   */\n      pop\n        /* \"#utility.yul\":10476:10757   */\n      pop\n      pop\n      jump\t// out\n        /* \"#utility.yul\":10763:10996   */\n    tag_93:\n        /* \"#utility.yul\":10802:10805   */\n      0x00\n        /* \"#utility.yul\":10825:10849   */\n      tag_287\n        /* \"#utility.yul\":10843:10848   */\n      dup3\n        /* \"#utility.yul\":10825:10849   */\n      tag_225\n      jump\t// in\n    tag_287:\n        /* \"#utility.yul\":10816:10849   */\n      swap2\n      pop\n        /* \"#utility.yul\":10871:10937   */\n      0xffffffffffffffffffffffffffffffffffffffffffffffffffffffffffffffff\n        /* \"#utility.yul\":10864:10869   */\n      dup3\n        /* \"#utility.yul\":10861:10938   */\n      eq\n        /* \"#utility.yul\":10858:10961   */\n      iszero\n      tag_288\n      jumpi\n        /* \"#utility.yul\":10941:10959   */\n      tag_289\n      tag_262\n      jump\t// in\n    tag_289:\n        /* \"#utility.yul\":10858:10961   */\n    tag_288:\n        /* \"#utility.yul\":10988:10989   */\n      0x01\n        /* \"#utility.yul\":10981:10986   */\n      dup3\n        /* \"#utility.yul\":10977:10990   */\n      add\n        /* \"#utility.yul\":10970:10990   */\n      swap1\n      pop\n        /* \"#utility.yul\":10763:10996   */\n      swap2\n      swap1\n      pop\n      jump\t// out\n        /* \"#utility.yul\":11002:11182   */\n    tag_262:\n        /* \"#utility.yul\":11050:11127   */\n      0x4e487b7100000000000000000000000000000000000000000000000000000000\n        /* \"#utility.yul\":11047:11048   */\n      0x00\n        /* \"#utility.yul\":11040:11128   */\n      mstore\n        /* \"#utility.yul\":11147:11151   */\n      0x11\n        /* \"#utility.yul\":11144:11145   */\n      0x04\n        /* \"#utility.yul\":11137:11152   */\n      mstore\n        /* \"#utility.yul\":11171:11175   */\n      0x24\n        /* \"#utility.yul\":11168:11169   */\n      0x00\n        /* \"#utility.yul\":11161:11176   */\n      revert\n        /* \"#utility.yul\":11188:11368   */\n    tag_281:\n        /* \"#utility.yul\":11236:11313   */\n      0x4e487b7100000000000000000000000000000000000000000000000000000000\n        /* \"#utility.yul\":11233:11234   */\n      0x00\n        /* \"#utility.yul\":11226:11314   */\n      mstore\n        /* \"#utility.yul\":11333:11337   */\n      0x22\n        /* \"#utility.yul\":11330:11331   */\n      0x04\n        /* \"#utility.yul\":11323:11338   */\n      mstore\n        /* \"#utility.yul\":11357:11361   */\n      0x24\n        /* \"#utility.yul\":11354:11355   */\n      0x00\n        /* \"#utility.yul\":11347:11362   */\n      revert\n        /* \"#utility.yul\":11374:11554   */\n    tag_253:\n        /* \"#utility.yul\":11422:11499   */\n      0x4e487b7100000000000000000000000000000000000000000000000000000000\n        /* \"#utility.yul\":11419:11420   */\n      0x00\n        /* \"#utility.yul\":11412:11500   */\n      mstore\n        /* \"#utility.yul\":11519:11523   */\n      0x41\n        /* \"#utility.yul\":11516:11517   */\n      0x04\n        /* \"#utility.yul\":11509:11524   */\n      mstore\n        /* \"#utility.yul\":11543:11547   */\n      0x24\n        /* \"#utility.yul\":11540:11541   */\n      0x00\n        /* \"#utility.yul\":11533:11548   */\n      revert\n        /* \"#utility.yul\":11560:11677   */\n    tag_156:\n        /* \"#utility.yul\":11669:11670   */\n      0x00\n        /* \"#utility.yul\":11666:11667   */\n      dup1\n        /* \"#utility.yul\":11659:11671   */\n      revert\n        /* \"#utility.yul\":11683:11800   */\n    tag_141:\n        /* \"#utility.yul\":11792:11793   */\n      0x00\n        /* \"#utility.yul\":11789:11790   */\n      dup1\n        /* \"#utility.yul\":11782:11794   */\n      revert\n        /* \"#utility.yul\":11806:11923   */\n    tag_172:\n        /* \"#utility.yul\":11915:11916   */\n      0x00\n        /* \"#utility.yul\":11912:11913   */\n      dup1\n        /* \"#utility.yul\":11905:11917   */\n      revert\n        /* \"#utility.yul\":11929:12046   */\n    tag_165:\n        /* \"#utility.yul\":12038:12039   */\n      0x00\n        /* \"#utility.yul\":12035:12036   */\n      dup1\n        /* \"#utility.yul\":12028:12040   */\n      revert\n        /* \"#utility.yul\":12052:12154   */\n    tag_201:\n        /* \"#utility.yul\":12093:12099   */\n      0x00\n        /* \"#utility.yul\":12144:12146   */\n      0x1f\n        /* \"#utility.yul\":12140:12147   */\n      not\n        /* \"#utility.yul\":12135:12137   */\n      0x1f\n        /* \"#utility.yul\":12128:12133   */\n      dup4\n        /* \"#utility.yul\":12124:12138   */\n      add\n        /* \"#utility.yul\":12120:12148   */\n      and\n        /* \"#utility.yul\":12110:12148   */\n      swap1\n      pop\n        /* \"#utility.yul\":12052:12154   */\n      swap2\n      swap1\n      pop\n      jump\t// out\n        /* \"#utility.yul\":12160:12330   */\n    tag_206:\n        /* \"#utility.yul\":12300:12322   */\n      0x446561646c696e6520686173207061737365642e000000000000000000000000\n        /* \"#utility.yul\":12296:12297   */\n      0x00\n        /* \"#utility.yul\":12288:12294   */\n      dup3\n        /* \"#utility.yul\":12284:12298   */\n      add\n        /* \"#utility.yul\":12277:12323   */\n      mstore\n        /* \"#utility.yul\":12160:12330   */\n      pop\n      jump\t// out\n        /* \"#utility.yul\":12336:12512   */\n    tag_211:\n        /* \"#utility.yul\":12476:12504   */\n      0x41646d696e2070726976656c656765732072657175697265642e000000000000\n        /* \"#utility.yul\":12472:12473   */\n      0x00\n        /* \"#utility.yul\":12464:12470   */\n      dup3\n        /* \"#utility.yul\":12460:12474   */\n      add\n        /* \"#utility.yul\":12453:12505   */\n      mstore\n        /* \"#utility.yul\":12336:12512   */\n      pop\n      jump\t// out\n        /* \"#utility.yul\":12518:12697   */\n    tag_216:\n        /* \"#utility.yul\":12658:12689   */\n      0x4d696e696d756d20636f6e747269627574696f6e206e6f74206d65742e000000\n        /* \"#utility.yul\":12654:12655   */\n      0x00\n        /* \"#utility.yul\":12646:12652   */\n      dup3\n        /* \"#utility.yul\":12642:12656   */\n      add\n        /* \"#utility.yul\":12635:12690   */\n      mstore\n        /* \"#utility.yul\":12518:12697   */\n      pop\n      jump\t// out\n        /* \"#utility.yul\":12703:12880   */\n    tag_221:\n        /* \"#utility.yul\":12843:12872   */\n      0x596f75206d7573742062652061207573657220746f20766f74652e0000000000\n        /* \"#utility.yul\":12839:12840   */\n      0x00\n        /* \"#utility.yul\":12831:12837   */\n      dup3\n        /* \"#utility.yul\":12827:12841   */\n      add\n        /* \"#utility.yul\":12820:12873   */\n      mstore\n        /* \"#utility.yul\":12703:12880   */\n      pop\n      jump\t// out\n        /* \"#utility.yul\":12886:13008   */\n    tag_147:\n        /* \"#utility.yul\":12959:12983   */\n      tag_303\n        /* \"#utility.yul\":12977:12982   */\n      dup2\n        /* \"#utility.yul\":12959:12983   */\n      tag_187\n      jump\t// in\n    tag_303:\n        /* \"#utility.yul\":12952:12957   */\n      dup2\n        /* \"#utility.yul\":12949:12984   */\n      eq\n        /* \"#utility.yul\":12939:13002   */\n      tag_304\n      jumpi\n        /* \"#utility.yul\":12998:12999   */\n      0x00\n        /* \"#utility.yul\":12995:12996   */\n      dup1\n        /* \"#utility.yul\":12988:13000   */\n      revert\n        /* \"#utility.yul\":12939:13002   */\n    tag_304:\n        /* \"#utility.yul\":12886:13008   */\n      pop\n      jump\t// out\n        /* \"#utility.yul\":13014:13152   */\n    tag_151:\n        /* \"#utility.yul\":13095:13127   */\n      tag_306\n        /* \"#utility.yul\":13121:13126   */\n      dup2\n        /* \"#utility.yul\":13095:13127   */\n      tag_183\n      jump\t// in\n    tag_306:\n        /* \"#utility.yul\":13088:13093   */\n      dup2\n        /* \"#utility.yul\":13085:13128   */\n      eq\n        /* \"#utility.yul\":13075:13146   */\n      tag_307\n      jumpi\n        /* \"#utility.yul\":13142:13143   */\n      0x00\n        /* \"#utility.yul\":13139:13140   */\n      dup1\n        /* \"#utility.yul\":13132:13144   */\n      revert\n        /* \"#utility.yul\":13075:13146   */\n    tag_307:\n        /* \"#utility.yul\":13014:13152   */\n      pop\n      jump\t// out\n        /* \"#utility.yul\":13158:13280   */\n    tag_161:\n        /* \"#utility.yul\":13231:13255   */\n      tag_309\n        /* \"#utility.yul\":13249:13254   */\n      dup2\n        /* \"#utility.yul\":13231:13255   */\n      tag_225\n      jump\t// in\n    tag_309:\n        /* \"#utility.yul\":13224:13229   */\n      dup2\n        /* \"#utility.yul\":13221:13256   */\n      eq\n        /* \"#utility.yul\":13211:13274   */\n      tag_310\n      jumpi\n        /* \"#utility.yul\":13270:13271   */\n      0x00\n        /* \"#utility.yul\":13267:13268   */\n      dup1\n        /* \"#utility.yul\":13260:13272   */\n      revert\n        /* \"#utility.yul\":13211:13274   */\n    tag_310:\n        /* \"#utility.yul\":13158:13280   */\n      pop\n      jump\t// out\n\n    auxdata: 0xa264697066735822122002cc748611d3e2b0fc5ae8d2dbe4a3b4f7b594056eb2204a7a671676d622cbf264736f6c63430008070033\n}\n",
				"bytecode": {
					"linkReferences": {},
					"object": "60806040523480156200001157600080fd5b50604051620012d5380380620012d58339818101604052810190620000379190620000ba565b8160058190555080426200004c919062000101565b600481905550606460038190555033600160006101000a81548173ffffffffffffffffffffffffffffffffffffffff021916908373ffffffffffffffffffffffffffffffffffffffff1602179055505050620001b6565b600081519050620000b4816200019c565b92915050565b60008060408385031215620000d457620000d362000197565b5b6000620000e485828601620000a3565b9250506020620000f785828601620000a3565b9150509250929050565b60006200010e826200015e565b91506200011b836200015e565b9250827fffffffffffffffffffffffffffffffffffffffffffffffffffffffffffffffff0382111562000153576200015262000168565b5b828201905092915050565b6000819050919050565b7f4e487b7100000000000000000000000000000000000000000000000000000000600052601160045260246000fd5b600080fd5b620001a7816200015e565b8114620001b357600080fd5b50565b61110f80620001c66000396000f3fe6080604052600436106100e15760003560e01c8063937e09b11161007f578063d3a9d4ea11610059578063d3a9d4ea146102b3578063d7bb99ba146102de578063f3740daf146102e8578063f851a44014610313576100f0565b8063937e09b114610246578063b2d5ae4414610271578063c59ee1dc14610288576100f0565b806329dcb0cf116100bb57806329dcb0cf1461018657806340193883146101b15780634cb6f4a5146101dc57806381d12c5814610205576100f0565b806312065fe0146100f55780631b16bb5c146101205780631f6d494214610149576100f0565b366100f0576100ee61033e565b005b600080fd5b34801561010157600080fd5b5061010a610497565b6040516101179190610d13565b60405180910390f35b34801561012c57600080fd5b5061014760048036038101906101429190610a81565b61049f565b005b34801561015557600080fd5b50610170600480360381019061016b9190610a54565b6105f2565b60405161017d9190610d13565b60405180910390f35b34801561019257600080fd5b5061019b61060a565b6040516101a89190610d13565b60405180910390f35b3480156101bd57600080fd5b506101c6610610565b6040516101d39190610d13565b60405180910390f35b3480156101e857600080fd5b5061020360048036038101906101fe9190610af0565b610616565b005b34801561021157600080fd5b5061022c60048036038101906102279190610af0565b61069a565b60405161023d959493929190610c39565b60405180910390f35b34801561025257600080fd5b5061025b610785565b6040516102689190610d13565b60405180910390f35b34801561027d57600080fd5b5061028661078b565b005b34801561029457600080fd5b5061029d6108ca565b6040516102aa9190610d13565b60405180910390f35b3480156102bf57600080fd5b506102c86108d0565b6040516102d59190610d13565b60405180910390f35b6102e661033e565b005b3480156102f457600080fd5b506102fd6108d6565b60405161030a9190610d13565b60405180910390f35b34801561031f57600080fd5b506103286108dc565b6040516103359190610c1e565b60405180910390f35b6004544210610382576040517f08c379a000000000000000000000000000000000000000000000000000000000815260040161037990610c93565b60405180910390fd5b6003543410156103c7576040517f08c379a00000000000000000000000000000000000000000000000000000000081526004016103be90610cd3565b60405180910390fd5b60008060003373ffffffffffffffffffffffffffffffffffffffff1673ffffffffffffffffffffffffffffffffffffffff168152602001908152602001600020541415610427576002600081548092919061042190610ef5565b91905055505b346000803373ffffffffffffffffffffffffffffffffffffffff1673ffffffffffffffffffffffffffffffffffffffff16815260200190815260200160002060008282546104759190610da0565b92505081905550346006600082825461048e9190610da0565b92505081905550565b600047905090565b600160009054906101000a900473ffffffffffffffffffffffffffffffffffffffff1673ffffffffffffffffffffffffffffffffffffffff163373ffffffffffffffffffffffffffffffffffffffff161461052f576040517f08c379a000000000000000000000000000000000000000000000000000000000815260040161052690610cb3565b60405180910390fd5b600060076000600854815260200190815260200160002090506008600081548092919061055b90610ef5565b919050555083816000019080519060200190610578929190610902565b50828160010160006101000a81548173ffffffffffffffffffffffffffffffffffffffff021916908373ffffffffffffffffffffffffffffffffffffffff16021790555081816002018190555060008160030160006101000a81548160ff0219169083151502179055506000816004018190555050505050565b60006020528060005260406000206000915090505481565b60045481565b60055481565b60008060003373ffffffffffffffffffffffffffffffffffffffff1673ffffffffffffffffffffffffffffffffffffffff1681526020019081526020016000205411610697576040517f08c379a000000000000000000000000000000000000000000000000000000000815260040161068e90610cf3565b60405180910390fd5b50565b60076020528060005260406000206000915090508060000180546106bd90610e92565b80601f01602080910402602001604051908101604052809291908181526020018280546106e990610e92565b80156107365780601f1061070b57610100808354040283529160200191610736565b820191906000526020600020905b81548152906001019060200180831161071957829003601f168201915b5050505050908060010160009054906101000a900473ffffffffffffffffffffffffffffffffffffffff16908060020154908060030160009054906101000a900460ff16908060040154905085565b60035481565b6004544211801561079f5750600554600654105b6107a857600080fd5b60008060003373ffffffffffffffffffffffffffffffffffffffff1673ffffffffffffffffffffffffffffffffffffffff16815260200190815260200160002054116107f357600080fd5b600033905060008060003373ffffffffffffffffffffffffffffffffffffffff1673ffffffffffffffffffffffffffffffffffffffff1681526020019081526020016000205490508173ffffffffffffffffffffffffffffffffffffffff166108fc829081150290604051600060405180830381858888f19350505050158015610881573d6000803e3d6000fd5b5060008060003373ffffffffffffffffffffffffffffffffffffffff1673ffffffffffffffffffffffffffffffffffffffff168152602001908152602001600020819055505050565b60065481565b60085481565b60025481565b600160009054906101000a900473ffffffffffffffffffffffffffffffffffffffff1681565b82805461090e90610e92565b90600052602060002090601f0160209004810192826109305760008555610977565b82601f1061094957805160ff1916838001178555610977565b82800160010185558215610977579182015b8281111561097657825182559160200191906001019061095b565b5b5090506109849190610988565b5090565b5b808211156109a1576000816000905550600101610989565b5090565b60006109b86109b384610d53565b610d2e565b9050828152602081018484840111156109d4576109d3610fd0565b5b6109df848285610e50565b509392505050565b6000813590506109f681611094565b92915050565b600081359050610a0b816110ab565b92915050565b600082601f830112610a2657610a25610fcb565b5b8135610a368482602086016109a5565b91505092915050565b600081359050610a4e816110c2565b92915050565b600060208284031215610a6a57610a69610fda565b5b6000610a78848285016109e7565b91505092915050565b600080600060608486031215610a9a57610a99610fda565b5b600084013567ffffffffffffffff811115610ab857610ab7610fd5565b5b610ac486828701610a11565b9350506020610ad5868287016109fc565b9250506040610ae686828701610a3f565b9150509250925092565b600060208284031215610b0657610b05610fda565b5b6000610b1484828501610a3f565b91505092915050565b610b2681610e08565b82525050565b610b3581610df6565b82525050565b610b4481610e1a565b82525050565b6000610b5582610d84565b610b5f8185610d8f565b9350610b6f818560208601610e5f565b610b7881610fdf565b840191505092915050565b6000610b90601483610d8f565b9150610b9b82610ff0565b602082019050919050565b6000610bb3601a83610d8f565b9150610bbe82611019565b602082019050919050565b6000610bd6601d83610d8f565b9150610be182611042565b602082019050919050565b6000610bf9601b83610d8f565b9150610c048261106b565b602082019050919050565b610c1881610e46565b82525050565b6000602082019050610c336000830184610b2c565b92915050565b600060a0820190508181036000830152610c538188610b4a565b9050610c626020830187610b1d565b610c6f6040830186610c0f565b610c7c6060830185610b3b565b610c896080830184610c0f565b9695505050505050565b60006020820190508181036000830152610cac81610b83565b9050919050565b60006020820190508181036000830152610ccc81610ba6565b9050919050565b60006020820190508181036000830152610cec81610bc9565b9050919050565b60006020820190508181036000830152610d0c81610bec565b9050919050565b6000602082019050610d286000830184610c0f565b92915050565b6000610d38610d49565b9050610d448282610ec4565b919050565b6000604051905090565b600067ffffffffffffffff821115610d6e57610d6d610f9c565b5b610d7782610fdf565b9050602081019050919050565b600081519050919050565b600082825260208201905092915050565b6000610dab82610e46565b9150610db683610e46565b9250827fffffffffffffffffffffffffffffffffffffffffffffffffffffffffffffffff03821115610deb57610dea610f3e565b5b828201905092915050565b6000610e0182610e26565b9050919050565b6000610e1382610e26565b9050919050565b60008115159050919050565b600073ffffffffffffffffffffffffffffffffffffffff82169050919050565b6000819050919050565b82818337600083830152505050565b60005b83811015610e7d578082015181840152602081019050610e62565b83811115610e8c576000848401525b50505050565b60006002820490506001821680610eaa57607f821691505b60208210811415610ebe57610ebd610f6d565b5b50919050565b610ecd82610fdf565b810181811067ffffffffffffffff82111715610eec57610eeb610f9c565b5b80604052505050565b6000610f0082610e46565b91507fffffffffffffffffffffffffffffffffffffffffffffffffffffffffffffffff821415610f3357610f32610f3e565b5b600182019050919050565b7f4e487b7100000000000000000000000000000000000000000000000000000000600052601160045260246000fd5b7f4e487b7100000000000000000000000000000000000000000000000000000000600052602260045260246000fd5b7f4e487b7100000000000000000000000000000000000000000000000000000000600052604160045260246000fd5b600080fd5b600080fd5b600080fd5b600080fd5b6000601f19601f8301169050919050565b7f446561646c696e6520686173207061737365642e000000000000000000000000600082015250565b7f41646d696e2070726976656c656765732072657175697265642e000000000000600082015250565b7f4d696e696d756d20636f6e747269627574696f6e206e6f74206d65742e000000600082015250565b7f596f75206d7573742062652061207573657220746f20766f74652e0000000000600082015250565b61109d81610df6565b81146110a857600080fd5b50565b6110b481610e08565b81146110bf57600080fd5b50565b6110cb81610e46565b81146110d657600080fd5b5056fea264697066735822122002cc748611d3e2b0fc5ae8d2dbe4a3b4f7b594056eb2204a7a671676d622cbf264736f6c63430008070033",
					"opcodes": "PUSH1 0x80 PUSH1 0x40 MSTORE CALLVALUE DUP1 ISZERO PUSH3 0x11 JUMPI PUSH1 0x0 DUP1 REVERT JUMPDEST POP PUSH1 0x40 MLOAD PUSH3 0x12D5 CODESIZE SUB DUP1 PUSH3 0x12D5 DUP4 CODECOPY DUP2 DUP2 ADD PUSH1 0x40 MSTORE DUP2 ADD SWAP1 PUSH3 0x37 SWAP2 SWAP1 PUSH3 0xBA JUMP JUMPDEST DUP2 PUSH1 0x5 DUP2 SWAP1 SSTORE POP DUP1 TIMESTAMP PUSH3 0x4C SWAP2 SWAP1 PUSH3 0x101 JUMP JUMPDEST PUSH1 0x4 DUP2 SWAP1 SSTORE POP PUSH1 0x64 PUSH1 0x3 DUP2 SWAP1 SSTORE POP CALLER PUSH1 0x1 PUSH1 0x0 PUSH2 0x100 EXP DUP2 SLOAD DUP2 PUSH20 0xFFFFFFFFFFFFFFFFFFFFFFFFFFFFFFFFFFFFFFFF MUL NOT AND SWAP1 DUP4 PUSH20 0xFFFFFFFFFFFFFFFFFFFFFFFFFFFFFFFFFFFFFFFF AND MUL OR SWAP1 SSTORE POP POP POP PUSH3 0x1B6 JUMP JUMPDEST PUSH1 0x0 DUP2 MLOAD SWAP1 POP PUSH3 0xB4 DUP2 PUSH3 0x19C JUMP JUMPDEST SWAP3 SWAP2 POP POP JUMP JUMPDEST PUSH1 0x0 DUP1 PUSH1 0x40 DUP4 DUP6 SUB SLT ISZERO PUSH3 0xD4 JUMPI PUSH3 0xD3 PUSH3 0x197 JUMP JUMPDEST JUMPDEST PUSH1 0x0 PUSH3 0xE4 DUP6 DUP3 DUP7 ADD PUSH3 0xA3 JUMP JUMPDEST SWAP3 POP POP PUSH1 0x20 PUSH3 0xF7 DUP6 DUP3 DUP7 ADD PUSH3 0xA3 JUMP JUMPDEST SWAP2 POP POP SWAP3 POP SWAP3 SWAP1 POP JUMP JUMPDEST PUSH1 0x0 PUSH3 0x10E DUP3 PUSH3 0x15E JUMP JUMPDEST SWAP2 POP PUSH3 0x11B DUP4 PUSH3 0x15E JUMP JUMPDEST SWAP3 POP DUP3 PUSH32 0xFFFFFFFFFFFFFFFFFFFFFFFFFFFFFFFFFFFFFFFFFFFFFFFFFFFFFFFFFFFFFFFF SUB DUP3 GT ISZERO PUSH3 0x153 JUMPI PUSH3 0x152 PUSH3 0x168 JUMP JUMPDEST JUMPDEST DUP3 DUP3 ADD SWAP1 POP SWAP3 SWAP2 POP POP JUMP JUMPDEST PUSH1 0x0 DUP2 SWAP1 POP SWAP2 SWAP1 POP JUMP JUMPDEST PUSH32 0x4E487B7100000000000000000000000000000000000000000000000000000000 PUSH1 0x0 MSTORE PUSH1 0x11 PUSH1 0x4 MSTORE PUSH1 0x24 PUSH1 0x0 REVERT JUMPDEST PUSH1 0x0 DUP1 REVERT JUMPDEST PUSH3 0x1A7 DUP2 PUSH3 0x15E JUMP JUMPDEST DUP2 EQ PUSH3 0x1B3 JUMPI PUSH1 0x0 DUP1 REVERT JUMPDEST POP JUMP JUMPDEST PUSH2 0x110F DUP1 PUSH3 0x1C6 PUSH1 0x0 CODECOPY PUSH1 0x0 RETURN INVALID PUSH1 0x80 PUSH1 0x40 MSTORE PUSH1 0x4 CALLDATASIZE LT PUSH2 0xE1 JUMPI PUSH1 0x0 CALLDATALOAD PUSH1 0xE0 SHR DUP1 PUSH4 0x937E09B1 GT PUSH2 0x7F JUMPI DUP1 PUSH4 0xD3A9D4EA GT PUSH2 0x59 JUMPI DUP1 PUSH4 0xD3A9D4EA EQ PUSH2 0x2B3 JUMPI DUP1 PUSH4 0xD7BB99BA EQ PUSH2 0x2DE JUMPI DUP1 PUSH4 0xF3740DAF EQ PUSH2 0x2E8 JUMPI DUP1 PUSH4 0xF851A440 EQ PUSH2 0x313 JUMPI PUSH2 0xF0 JUMP JUMPDEST DUP1 PUSH4 0x937E09B1 EQ PUSH2 0x246 JUMPI DUP1 PUSH4 0xB2D5AE44 EQ PUSH2 0x271 JUMPI DUP1 PUSH4 0xC59EE1DC EQ PUSH2 0x288 JUMPI PUSH2 0xF0 JUMP JUMPDEST DUP1 PUSH4 0x29DCB0CF GT PUSH2 0xBB JUMPI DUP1 PUSH4 0x29DCB0CF EQ PUSH2 0x186 JUMPI DUP1 PUSH4 0x40193883 EQ PUSH2 0x1B1 JUMPI DUP1 PUSH4 0x4CB6F4A5 EQ PUSH2 0x1DC JUMPI DUP1 PUSH4 0x81D12C58 EQ PUSH2 0x205 JUMPI PUSH2 0xF0 JUMP JUMPDEST DUP1 PUSH4 0x12065FE0 EQ PUSH2 0xF5 JUMPI DUP1 PUSH4 0x1B16BB5C EQ PUSH2 0x120 JUMPI DUP1 PUSH4 0x1F6D4942 EQ PUSH2 0x149 JUMPI PUSH2 0xF0 JUMP JUMPDEST CALLDATASIZE PUSH2 0xF0 JUMPI PUSH2 0xEE PUSH2 0x33E JUMP JUMPDEST STOP JUMPDEST PUSH1 0x0 DUP1 REVERT JUMPDEST CALLVALUE DUP1 ISZERO PUSH2 0x101 JUMPI PUSH1 0x0 DUP1 REVERT JUMPDEST POP PUSH2 0x10A PUSH2 0x497 JUMP JUMPDEST PUSH1 0x40 MLOAD PUSH2 0x117 SWAP2 SWAP1 PUSH2 0xD13 JUMP JUMPDEST PUSH1 0x40 MLOAD DUP1 SWAP2 SUB SWAP1 RETURN JUMPDEST CALLVALUE DUP1 ISZERO PUSH2 0x12C JUMPI PUSH1 0x0 DUP1 REVERT JUMPDEST POP PUSH2 0x147 PUSH1 0x4 DUP1 CALLDATASIZE SUB DUP2 ADD SWAP1 PUSH2 0x142 SWAP2 SWAP1 PUSH2 0xA81 JUMP JUMPDEST PUSH2 0x49F JUMP JUMPDEST STOP JUMPDEST CALLVALUE DUP1 ISZERO PUSH2 0x155 JUMPI PUSH1 0x0 DUP1 REVERT JUMPDEST POP PUSH2 0x170 PUSH1 0x4 DUP1 CALLDATASIZE SUB DUP2 ADD SWAP1 PUSH2 0x16B SWAP2 SWAP1 PUSH2 0xA54 JUMP JUMPDEST PUSH2 0x5F2 JUMP JUMPDEST PUSH1 0x40 MLOAD PUSH2 0x17D SWAP2 SWAP1 PUSH2 0xD13 JUMP JUMPDEST PUSH1 0x40 MLOAD DUP1 SWAP2 SUB SWAP1 RETURN JUMPDEST CALLVALUE DUP1 ISZERO PUSH2 0x192 JUMPI PUSH1 0x0 DUP1 REVERT JUMPDEST POP PUSH2 0x19B PUSH2 0x60A JUMP JUMPDEST PUSH1 0x40 MLOAD PUSH2 0x1A8 SWAP2 SWAP1 PUSH2 0xD13 JUMP JUMPDEST PUSH1 0x40 MLOAD DUP1 SWAP2 SUB SWAP1 RETURN JUMPDEST CALLVALUE DUP1 ISZERO PUSH2 0x1BD JUMPI PUSH1 0x0 DUP1 REVERT JUMPDEST POP PUSH2 0x1C6 PUSH2 0x610 JUMP JUMPDEST PUSH1 0x40 MLOAD PUSH2 0x1D3 SWAP2 SWAP1 PUSH2 0xD13 JUMP JUMPDEST PUSH1 0x40 MLOAD DUP1 SWAP2 SUB SWAP1 RETURN JUMPDEST CALLVALUE DUP1 ISZERO PUSH2 0x1E8 JUMPI PUSH1 0x0 DUP1 REVERT JUMPDEST POP PUSH2 0x203 PUSH1 0x4 DUP1 CALLDATASIZE SUB DUP2 ADD SWAP1 PUSH2 0x1FE SWAP2 SWAP1 PUSH2 0xAF0 JUMP JUMPDEST PUSH2 0x616 JUMP JUMPDEST STOP JUMPDEST CALLVALUE DUP1 ISZERO PUSH2 0x211 JUMPI PUSH1 0x0 DUP1 REVERT JUMPDEST POP PUSH2 0x22C PUSH1 0x4 DUP1 CALLDATASIZE SUB DUP2 ADD SWAP1 PUSH2 0x227 SWAP2 SWAP1 PUSH2 0xAF0 JUMP JUMPDEST PUSH2 0x69A JUMP JUMPDEST PUSH1 0x40 MLOAD PUSH2 0x23D SWAP6 SWAP5 SWAP4 SWAP3 SWAP2 SWAP1 PUSH2 0xC39 JUMP JUMPDEST PUSH1 0x40 MLOAD DUP1 SWAP2 SUB SWAP1 RETURN JUMPDEST CALLVALUE DUP1 ISZERO PUSH2 0x252 JUMPI PUSH1 0x0 DUP1 REVERT JUMPDEST POP PUSH2 0x25B PUSH2 0x785 JUMP JUMPDEST PUSH1 0x40 MLOAD PUSH2 0x268 SWAP2 SWAP1 PUSH2 0xD13 JUMP JUMPDEST PUSH1 0x40 MLOAD DUP1 SWAP2 SUB SWAP1 RETURN JUMPDEST CALLVALUE DUP1 ISZERO PUSH2 0x27D JUMPI PUSH1 0x0 DUP1 REVERT JUMPDEST POP PUSH2 0x286 PUSH2 0x78B JUMP JUMPDEST STOP JUMPDEST CALLVALUE DUP1 ISZERO PUSH2 0x294 JUMPI PUSH1 0x0 DUP1 REVERT JUMPDEST POP PUSH2 0x29D PUSH2 0x8CA JUMP JUMPDEST PUSH1 0x40 MLOAD PUSH2 0x2AA SWAP2 SWAP1 PUSH2 0xD13 JUMP JUMPDEST PUSH1 0x40 MLOAD DUP1 SWAP2 SUB SWAP1 RETURN JUMPDEST CALLVALUE DUP1 ISZERO PUSH2 0x2BF JUMPI PUSH1 0x0 DUP1 REVERT JUMPDEST POP PUSH2 0x2C8 PUSH2 0x8D0 JUMP JUMPDEST PUSH1 0x40 MLOAD PUSH2 0x2D5 SWAP2 SWAP1 PUSH2 0xD13 JUMP JUMPDEST PUSH1 0x40 MLOAD DUP1 SWAP2 SUB SWAP1 RETURN JUMPDEST PUSH2 0x2E6 PUSH2 0x33E JUMP JUMPDEST STOP JUMPDEST CALLVALUE DUP1 ISZERO PUSH2 0x2F4 JUMPI PUSH1 0x0 DUP1 REVERT JUMPDEST POP PUSH2 0x2FD PUSH2 0x8D6 JUMP JUMPDEST PUSH1 0x40 MLOAD PUSH2 0x30A SWAP2 SWAP1 PUSH2 0xD13 JUMP JUMPDEST PUSH1 0x40 MLOAD DUP1 SWAP2 SUB SWAP1 RETURN JUMPDEST CALLVALUE DUP1 ISZERO PUSH2 0x31F JUMPI PUSH1 0x0 DUP1 REVERT JUMPDEST POP PUSH2 0x328 PUSH2 0x8DC JUMP JUMPDEST PUSH1 0x40 MLOAD PUSH2 0x335 SWAP2 SWAP1 PUSH2 0xC1E JUMP JUMPDEST PUSH1 0x40 MLOAD DUP1 SWAP2 SUB SWAP1 RETURN JUMPDEST PUSH1 0x4 SLOAD TIMESTAMP LT PUSH2 0x382 JUMPI PUSH1 0x40 MLOAD PUSH32 0x8C379A000000000000000000000000000000000000000000000000000000000 DUP2 MSTORE PUSH1 0x4 ADD PUSH2 0x379 SWAP1 PUSH2 0xC93 JUMP JUMPDEST PUSH1 0x40 MLOAD DUP1 SWAP2 SUB SWAP1 REVERT JUMPDEST PUSH1 0x3 SLOAD CALLVALUE LT ISZERO PUSH2 0x3C7 JUMPI PUSH1 0x40 MLOAD PUSH32 0x8C379A000000000000000000000000000000000000000000000000000000000 DUP2 MSTORE PUSH1 0x4 ADD PUSH2 0x3BE SWAP1 PUSH2 0xCD3 JUMP JUMPDEST PUSH1 0x40 MLOAD DUP1 SWAP2 SUB SWAP1 REVERT JUMPDEST PUSH1 0x0 DUP1 PUSH1 0x0 CALLER PUSH20 0xFFFFFFFFFFFFFFFFFFFFFFFFFFFFFFFFFFFFFFFF AND PUSH20 0xFFFFFFFFFFFFFFFFFFFFFFFFFFFFFFFFFFFFFFFF AND DUP2 MSTORE PUSH1 0x20 ADD SWAP1 DUP2 MSTORE PUSH1 0x20 ADD PUSH1 0x0 KECCAK256 SLOAD EQ ISZERO PUSH2 0x427 JUMPI PUSH1 0x2 PUSH1 0x0 DUP2 SLOAD DUP1 SWAP3 SWAP2 SWAP1 PUSH2 0x421 SWAP1 PUSH2 0xEF5 JUMP JUMPDEST SWAP2 SWAP1 POP SSTORE POP JUMPDEST CALLVALUE PUSH1 0x0 DUP1 CALLER PUSH20 0xFFFFFFFFFFFFFFFFFFFFFFFFFFFFFFFFFFFFFFFF AND PUSH20 0xFFFFFFFFFFFFFFFFFFFFFFFFFFFFFFFFFFFFFFFF AND DUP2 MSTORE PUSH1 0x20 ADD SWAP1 DUP2 MSTORE PUSH1 0x20 ADD PUSH1 0x0 KECCAK256 PUSH1 0x0 DUP3 DUP3 SLOAD PUSH2 0x475 SWAP2 SWAP1 PUSH2 0xDA0 JUMP JUMPDEST SWAP3 POP POP DUP2 SWAP1 SSTORE POP CALLVALUE PUSH1 0x6 PUSH1 0x0 DUP3 DUP3 SLOAD PUSH2 0x48E SWAP2 SWAP1 PUSH2 0xDA0 JUMP JUMPDEST SWAP3 POP POP DUP2 SWAP1 SSTORE POP JUMP JUMPDEST PUSH1 0x0 SELFBALANCE SWAP1 POP SWAP1 JUMP JUMPDEST PUSH1 0x1 PUSH1 0x0 SWAP1 SLOAD SWAP1 PUSH2 0x100 EXP SWAP1 DIV PUSH20 0xFFFFFFFFFFFFFFFFFFFFFFFFFFFFFFFFFFFFFFFF AND PUSH20 0xFFFFFFFFFFFFFFFFFFFFFFFFFFFFFFFFFFFFFFFF AND CALLER PUSH20 0xFFFFFFFFFFFFFFFFFFFFFFFFFFFFFFFFFFFFFFFF AND EQ PUSH2 0x52F JUMPI PUSH1 0x40 MLOAD PUSH32 0x8C379A000000000000000000000000000000000000000000000000000000000 DUP2 MSTORE PUSH1 0x4 ADD PUSH2 0x526 SWAP1 PUSH2 0xCB3 JUMP JUMPDEST PUSH1 0x40 MLOAD DUP1 SWAP2 SUB SWAP1 REVERT JUMPDEST PUSH1 0x0 PUSH1 0x7 PUSH1 0x0 PUSH1 0x8 SLOAD DUP2 MSTORE PUSH1 0x20 ADD SWAP1 DUP2 MSTORE PUSH1 0x20 ADD PUSH1 0x0 KECCAK256 SWAP1 POP PUSH1 0x8 PUSH1 0x0 DUP2 SLOAD DUP1 SWAP3 SWAP2 SWAP1 PUSH2 0x55B SWAP1 PUSH2 0xEF5 JUMP JUMPDEST SWAP2 SWAP1 POP SSTORE POP DUP4 DUP2 PUSH1 0x0 ADD SWAP1 DUP1 MLOAD SWAP1 PUSH1 0x20 ADD SWAP1 PUSH2 0x578 SWAP3 SWAP2 SWAP1 PUSH2 0x902 JUMP JUMPDEST POP DUP3 DUP2 PUSH1 0x1 ADD PUSH1 0x0 PUSH2 0x100 EXP DUP2 SLOAD DUP2 PUSH20 0xFFFFFFFFFFFFFFFFFFFFFFFFFFFFFFFFFFFFFFFF MUL NOT AND SWAP1 DUP4 PUSH20 0xFFFFFFFFFFFFFFFFFFFFFFFFFFFFFFFFFFFFFFFF AND MUL OR SWAP1 SSTORE POP DUP2 DUP2 PUSH1 0x2 ADD DUP2 SWAP1 SSTORE POP PUSH1 0x0 DUP2 PUSH1 0x3 ADD PUSH1 0x0 PUSH2 0x100 EXP DUP2 SLOAD DUP2 PUSH1 0xFF MUL NOT AND SWAP1 DUP4 ISZERO ISZERO MUL OR SWAP1 SSTORE POP PUSH1 0x0 DUP2 PUSH1 0x4 ADD DUP2 SWAP1 SSTORE POP POP POP POP POP JUMP JUMPDEST PUSH1 0x0 PUSH1 0x20 MSTORE DUP1 PUSH1 0x0 MSTORE PUSH1 0x40 PUSH1 0x0 KECCAK256 PUSH1 0x0 SWAP2 POP SWAP1 POP SLOAD DUP2 JUMP JUMPDEST PUSH1 0x4 SLOAD DUP2 JUMP JUMPDEST PUSH1 0x5 SLOAD DUP2 JUMP JUMPDEST PUSH1 0x0 DUP1 PUSH1 0x0 CALLER PUSH20 0xFFFFFFFFFFFFFFFFFFFFFFFFFFFFFFFFFFFFFFFF AND PUSH20 0xFFFFFFFFFFFFFFFFFFFFFFFFFFFFFFFFFFFFFFFF AND DUP2 MSTORE PUSH1 0x20 ADD SWAP1 DUP2 MSTORE PUSH1 0x20 ADD PUSH1 0x0 KECCAK256 SLOAD GT PUSH2 0x697 JUMPI PUSH1 0x40 MLOAD PUSH32 0x8C379A000000000000000000000000000000000000000000000000000000000 DUP2 MSTORE PUSH1 0x4 ADD PUSH2 0x68E SWAP1 PUSH2 0xCF3 JUMP JUMPDEST PUSH1 0x40 MLOAD DUP1 SWAP2 SUB SWAP1 REVERT JUMPDEST POP JUMP JUMPDEST PUSH1 0x7 PUSH1 0x20 MSTORE DUP1 PUSH1 0x0 MSTORE PUSH1 0x40 PUSH1 0x0 KECCAK256 PUSH1 0x0 SWAP2 POP SWAP1 POP DUP1 PUSH1 0x0 ADD DUP1 SLOAD PUSH2 0x6BD SWAP1 PUSH2 0xE92 JUMP JUMPDEST DUP1 PUSH1 0x1F ADD PUSH1 0x20 DUP1 SWAP2 DIV MUL PUSH1 0x20 ADD PUSH1 0x40 MLOAD SWAP1 DUP2 ADD PUSH1 0x40 MSTORE DUP1 SWAP3 SWAP2 SWAP1 DUP2 DUP2 MSTORE PUSH1 0x20 ADD DUP3 DUP1 SLOAD PUSH2 0x6E9 SWAP1 PUSH2 0xE92 JUMP JUMPDEST DUP1 ISZERO PUSH2 0x736 JUMPI DUP1 PUSH1 0x1F LT PUSH2 0x70B JUMPI PUSH2 0x100 DUP1 DUP4 SLOAD DIV MUL DUP4 MSTORE SWAP2 PUSH1 0x20 ADD SWAP2 PUSH2 0x736 JUMP JUMPDEST DUP3 ADD SWAP2 SWAP1 PUSH1 0x0 MSTORE PUSH1 0x20 PUSH1 0x0 KECCAK256 SWAP1 JUMPDEST DUP2 SLOAD DUP2 MSTORE SWAP1 PUSH1 0x1 ADD SWAP1 PUSH1 0x20 ADD DUP1 DUP4 GT PUSH2 0x719 JUMPI DUP3 SWAP1 SUB PUSH1 0x1F AND DUP3 ADD SWAP2 JUMPDEST POP POP POP POP POP SWAP1 DUP1 PUSH1 0x1 ADD PUSH1 0x0 SWAP1 SLOAD SWAP1 PUSH2 0x100 EXP SWAP1 DIV PUSH20 0xFFFFFFFFFFFFFFFFFFFFFFFFFFFFFFFFFFFFFFFF AND SWAP1 DUP1 PUSH1 0x2 ADD SLOAD SWAP1 DUP1 PUSH1 0x3 ADD PUSH1 0x0 SWAP1 SLOAD SWAP1 PUSH2 0x100 EXP SWAP1 DIV PUSH1 0xFF AND SWAP1 DUP1 PUSH1 0x4 ADD SLOAD SWAP1 POP DUP6 JUMP JUMPDEST PUSH1 0x3 SLOAD DUP2 JUMP JUMPDEST PUSH1 0x4 SLOAD TIMESTAMP GT DUP1 ISZERO PUSH2 0x79F JUMPI POP PUSH1 0x5 SLOAD PUSH1 0x6 SLOAD LT JUMPDEST PUSH2 0x7A8 JUMPI PUSH1 0x0 DUP1 REVERT JUMPDEST PUSH1 0x0 DUP1 PUSH1 0x0 CALLER PUSH20 0xFFFFFFFFFFFFFFFFFFFFFFFFFFFFFFFFFFFFFFFF AND PUSH20 0xFFFFFFFFFFFFFFFFFFFFFFFFFFFFFFFFFFFFFFFF AND DUP2 MSTORE PUSH1 0x20 ADD SWAP1 DUP2 MSTORE PUSH1 0x20 ADD PUSH1 0x0 KECCAK256 SLOAD GT PUSH2 0x7F3 JUMPI PUSH1 0x0 DUP1 REVERT JUMPDEST PUSH1 0x0 CALLER SWAP1 POP PUSH1 0x0 DUP1 PUSH1 0x0 CALLER PUSH20 0xFFFFFFFFFFFFFFFFFFFFFFFFFFFFFFFFFFFFFFFF AND PUSH20 0xFFFFFFFFFFFFFFFFFFFFFFFFFFFFFFFFFFFFFFFF AND DUP2 MSTORE PUSH1 0x20 ADD SWAP1 DUP2 MSTORE PUSH1 0x20 ADD PUSH1 0x0 KECCAK256 SLOAD SWAP1 POP DUP2 PUSH20 0xFFFFFFFFFFFFFFFFFFFFFFFFFFFFFFFFFFFFFFFF AND PUSH2 0x8FC DUP3 SWAP1 DUP2 ISZERO MUL SWAP1 PUSH1 0x40 MLOAD PUSH1 0x0 PUSH1 0x40 MLOAD DUP1 DUP4 SUB DUP2 DUP6 DUP9 DUP9 CALL SWAP4 POP POP POP POP ISZERO DUP1 ISZERO PUSH2 0x881 JUMPI RETURNDATASIZE PUSH1 0x0 DUP1 RETURNDATACOPY RETURNDATASIZE PUSH1 0x0 REVERT JUMPDEST POP PUSH1 0x0 DUP1 PUSH1 0x0 CALLER PUSH20 0xFFFFFFFFFFFFFFFFFFFFFFFFFFFFFFFFFFFFFFFF AND PUSH20 0xFFFFFFFFFFFFFFFFFFFFFFFFFFFFFFFFFFFFFFFF AND DUP2 MSTORE PUSH1 0x20 ADD SWAP1 DUP2 MSTORE PUSH1 0x20 ADD PUSH1 0x0 KECCAK256 DUP2 SWAP1 SSTORE POP POP POP JUMP JUMPDEST PUSH1 0x6 SLOAD DUP2 JUMP JUMPDEST PUSH1 0x8 SLOAD DUP2 JUMP JUMPDEST PUSH1 0x2 SLOAD DUP2 JUMP JUMPDEST PUSH1 0x1 PUSH1 0x0 SWAP1 SLOAD SWAP1 PUSH2 0x100 EXP SWAP1 DIV PUSH20 0xFFFFFFFFFFFFFFFFFFFFFFFFFFFFFFFFFFFFFFFF AND DUP2 JUMP JUMPDEST DUP3 DUP1 SLOAD PUSH2 0x90E SWAP1 PUSH2 0xE92 JUMP JUMPDEST SWAP1 PUSH1 0x0 MSTORE PUSH1 0x20 PUSH1 0x0 KECCAK256 SWAP1 PUSH1 0x1F ADD PUSH1 0x20 SWAP1 DIV DUP2 ADD SWAP3 DUP3 PUSH2 0x930 JUMPI PUSH1 0x0 DUP6 SSTORE PUSH2 0x977 JUMP JUMPDEST DUP3 PUSH1 0x1F LT PUSH2 0x949 JUMPI DUP1 MLOAD PUSH1 0xFF NOT AND DUP4 DUP1 ADD OR DUP6 SSTORE PUSH2 0x977 JUMP JUMPDEST DUP3 DUP1 ADD PUSH1 0x1 ADD DUP6 SSTORE DUP3 ISZERO PUSH2 0x977 JUMPI SWAP2 DUP3 ADD JUMPDEST DUP3 DUP2 GT ISZERO PUSH2 0x976 JUMPI DUP3 MLOAD DUP3 SSTORE SWAP2 PUSH1 0x20 ADD SWAP2 SWAP1 PUSH1 0x1 ADD SWAP1 PUSH2 0x95B JUMP JUMPDEST JUMPDEST POP SWAP1 POP PUSH2 0x984 SWAP2 SWAP1 PUSH2 0x988 JUMP JUMPDEST POP SWAP1 JUMP JUMPDEST JUMPDEST DUP1 DUP3 GT ISZERO PUSH2 0x9A1 JUMPI PUSH1 0x0 DUP2 PUSH1 0x0 SWAP1 SSTORE POP PUSH1 0x1 ADD PUSH2 0x989 JUMP JUMPDEST POP SWAP1 JUMP JUMPDEST PUSH1 0x0 PUSH2 0x9B8 PUSH2 0x9B3 DUP5 PUSH2 0xD53 JUMP JUMPDEST PUSH2 0xD2E JUMP JUMPDEST SWAP1 POP DUP3 DUP2 MSTORE PUSH1 0x20 DUP2 ADD DUP5 DUP5 DUP5 ADD GT ISZERO PUSH2 0x9D4 JUMPI PUSH2 0x9D3 PUSH2 0xFD0 JUMP JUMPDEST JUMPDEST PUSH2 0x9DF DUP5 DUP3 DUP6 PUSH2 0xE50 JUMP JUMPDEST POP SWAP4 SWAP3 POP POP POP JUMP JUMPDEST PUSH1 0x0 DUP2 CALLDATALOAD SWAP1 POP PUSH2 0x9F6 DUP2 PUSH2 0x1094 JUMP JUMPDEST SWAP3 SWAP2 POP POP JUMP JUMPDEST PUSH1 0x0 DUP2 CALLDATALOAD SWAP1 POP PUSH2 0xA0B DUP2 PUSH2 0x10AB JUMP JUMPDEST SWAP3 SWAP2 POP POP JUMP JUMPDEST PUSH1 0x0 DUP3 PUSH1 0x1F DUP4 ADD SLT PUSH2 0xA26 JUMPI PUSH2 0xA25 PUSH2 0xFCB JUMP JUMPDEST JUMPDEST DUP2 CALLDATALOAD PUSH2 0xA36 DUP5 DUP3 PUSH1 0x20 DUP7 ADD PUSH2 0x9A5 JUMP JUMPDEST SWAP2 POP POP SWAP3 SWAP2 POP POP JUMP JUMPDEST PUSH1 0x0 DUP2 CALLDATALOAD SWAP1 POP PUSH2 0xA4E DUP2 PUSH2 0x10C2 JUMP JUMPDEST SWAP3 SWAP2 POP POP JUMP JUMPDEST PUSH1 0x0 PUSH1 0x20 DUP3 DUP5 SUB SLT ISZERO PUSH2 0xA6A JUMPI PUSH2 0xA69 PUSH2 0xFDA JUMP JUMPDEST JUMPDEST PUSH1 0x0 PUSH2 0xA78 DUP5 DUP3 DUP6 ADD PUSH2 0x9E7 JUMP JUMPDEST SWAP2 POP POP SWAP3 SWAP2 POP POP JUMP JUMPDEST PUSH1 0x0 DUP1 PUSH1 0x0 PUSH1 0x60 DUP5 DUP7 SUB SLT ISZERO PUSH2 0xA9A JUMPI PUSH2 0xA99 PUSH2 0xFDA JUMP JUMPDEST JUMPDEST PUSH1 0x0 DUP5 ADD CALLDATALOAD PUSH8 0xFFFFFFFFFFFFFFFF DUP2 GT ISZERO PUSH2 0xAB8 JUMPI PUSH2 0xAB7 PUSH2 0xFD5 JUMP JUMPDEST JUMPDEST PUSH2 0xAC4 DUP7 DUP3 DUP8 ADD PUSH2 0xA11 JUMP JUMPDEST SWAP4 POP POP PUSH1 0x20 PUSH2 0xAD5 DUP7 DUP3 DUP8 ADD PUSH2 0x9FC JUMP JUMPDEST SWAP3 POP POP PUSH1 0x40 PUSH2 0xAE6 DUP7 DUP3 DUP8 ADD PUSH2 0xA3F JUMP JUMPDEST SWAP2 POP POP SWAP3 POP SWAP3 POP SWAP3 JUMP JUMPDEST PUSH1 0x0 PUSH1 0x20 DUP3 DUP5 SUB SLT ISZERO PUSH2 0xB06 JUMPI PUSH2 0xB05 PUSH2 0xFDA JUMP JUMPDEST JUMPDEST PUSH1 0x0 PUSH2 0xB14 DUP5 DUP3 DUP6 ADD PUSH2 0xA3F JUMP JUMPDEST SWAP2 POP POP SWAP3 SWAP2 POP POP JUMP JUMPDEST PUSH2 0xB26 DUP2 PUSH2 0xE08 JUMP JUMPDEST DUP3 MSTORE POP POP JUMP JUMPDEST PUSH2 0xB35 DUP2 PUSH2 0xDF6 JUMP JUMPDEST DUP3 MSTORE POP POP JUMP JUMPDEST PUSH2 0xB44 DUP2 PUSH2 0xE1A JUMP JUMPDEST DUP3 MSTORE POP POP JUMP JUMPDEST PUSH1 0x0 PUSH2 0xB55 DUP3 PUSH2 0xD84 JUMP JUMPDEST PUSH2 0xB5F DUP2 DUP6 PUSH2 0xD8F JUMP JUMPDEST SWAP4 POP PUSH2 0xB6F DUP2 DUP6 PUSH1 0x20 DUP7 ADD PUSH2 0xE5F JUMP JUMPDEST PUSH2 0xB78 DUP2 PUSH2 0xFDF JUMP JUMPDEST DUP5 ADD SWAP2 POP POP SWAP3 SWAP2 POP POP JUMP JUMPDEST PUSH1 0x0 PUSH2 0xB90 PUSH1 0x14 DUP4 PUSH2 0xD8F JUMP JUMPDEST SWAP2 POP PUSH2 0xB9B DUP3 PUSH2 0xFF0 JUMP JUMPDEST PUSH1 0x20 DUP3 ADD SWAP1 POP SWAP2 SWAP1 POP JUMP JUMPDEST PUSH1 0x0 PUSH2 0xBB3 PUSH1 0x1A DUP4 PUSH2 0xD8F JUMP JUMPDEST SWAP2 POP PUSH2 0xBBE DUP3 PUSH2 0x1019 JUMP JUMPDEST PUSH1 0x20 DUP3 ADD SWAP1 POP SWAP2 SWAP1 POP JUMP JUMPDEST PUSH1 0x0 PUSH2 0xBD6 PUSH1 0x1D DUP4 PUSH2 0xD8F JUMP JUMPDEST SWAP2 POP PUSH2 0xBE1 DUP3 PUSH2 0x1042 JUMP JUMPDEST PUSH1 0x20 DUP3 ADD SWAP1 POP SWAP2 SWAP1 POP JUMP JUMPDEST PUSH1 0x0 PUSH2 0xBF9 PUSH1 0x1B DUP4 PUSH2 0xD8F JUMP JUMPDEST SWAP2 POP PUSH2 0xC04 DUP3 PUSH2 0x106B JUMP JUMPDEST PUSH1 0x20 DUP3 ADD SWAP1 POP SWAP2 SWAP1 POP JUMP JUMPDEST PUSH2 0xC18 DUP2 PUSH2 0xE46 JUMP JUMPDEST DUP3 MSTORE POP POP JUMP JUMPDEST PUSH1 0x0 PUSH1 0x20 DUP3 ADD SWAP1 POP PUSH2 0xC33 PUSH1 0x0 DUP4 ADD DUP5 PUSH2 0xB2C JUMP JUMPDEST SWAP3 SWAP2 POP POP JUMP JUMPDEST PUSH1 0x0 PUSH1 0xA0 DUP3 ADD SWAP1 POP DUP2 DUP2 SUB PUSH1 0x0 DUP4 ADD MSTORE PUSH2 0xC53 DUP2 DUP9 PUSH2 0xB4A JUMP JUMPDEST SWAP1 POP PUSH2 0xC62 PUSH1 0x20 DUP4 ADD DUP8 PUSH2 0xB1D JUMP JUMPDEST PUSH2 0xC6F PUSH1 0x40 DUP4 ADD DUP7 PUSH2 0xC0F JUMP JUMPDEST PUSH2 0xC7C PUSH1 0x60 DUP4 ADD DUP6 PUSH2 0xB3B JUMP JUMPDEST PUSH2 0xC89 PUSH1 0x80 DUP4 ADD DUP5 PUSH2 0xC0F JUMP JUMPDEST SWAP7 SWAP6 POP POP POP POP POP POP JUMP JUMPDEST PUSH1 0x0 PUSH1 0x20 DUP3 ADD SWAP1 POP DUP2 DUP2 SUB PUSH1 0x0 DUP4 ADD MSTORE PUSH2 0xCAC DUP2 PUSH2 0xB83 JUMP JUMPDEST SWAP1 POP SWAP2 SWAP1 POP JUMP JUMPDEST PUSH1 0x0 PUSH1 0x20 DUP3 ADD SWAP1 POP DUP2 DUP2 SUB PUSH1 0x0 DUP4 ADD MSTORE PUSH2 0xCCC DUP2 PUSH2 0xBA6 JUMP JUMPDEST SWAP1 POP SWAP2 SWAP1 POP JUMP JUMPDEST PUSH1 0x0 PUSH1 0x20 DUP3 ADD SWAP1 POP DUP2 DUP2 SUB PUSH1 0x0 DUP4 ADD MSTORE PUSH2 0xCEC DUP2 PUSH2 0xBC9 JUMP JUMPDEST SWAP1 POP SWAP2 SWAP1 POP JUMP JUMPDEST PUSH1 0x0 PUSH1 0x20 DUP3 ADD SWAP1 POP DUP2 DUP2 SUB PUSH1 0x0 DUP4 ADD MSTORE PUSH2 0xD0C DUP2 PUSH2 0xBEC JUMP JUMPDEST SWAP1 POP SWAP2 SWAP1 POP JUMP JUMPDEST PUSH1 0x0 PUSH1 0x20 DUP3 ADD SWAP1 POP PUSH2 0xD28 PUSH1 0x0 DUP4 ADD DUP5 PUSH2 0xC0F JUMP JUMPDEST SWAP3 SWAP2 POP POP JUMP JUMPDEST PUSH1 0x0 PUSH2 0xD38 PUSH2 0xD49 JUMP JUMPDEST SWAP1 POP PUSH2 0xD44 DUP3 DUP3 PUSH2 0xEC4 JUMP JUMPDEST SWAP2 SWAP1 POP JUMP JUMPDEST PUSH1 0x0 PUSH1 0x40 MLOAD SWAP1 POP SWAP1 JUMP JUMPDEST PUSH1 0x0 PUSH8 0xFFFFFFFFFFFFFFFF DUP3 GT ISZERO PUSH2 0xD6E JUMPI PUSH2 0xD6D PUSH2 0xF9C JUMP JUMPDEST JUMPDEST PUSH2 0xD77 DUP3 PUSH2 0xFDF JUMP JUMPDEST SWAP1 POP PUSH1 0x20 DUP2 ADD SWAP1 POP SWAP2 SWAP1 POP JUMP JUMPDEST PUSH1 0x0 DUP2 MLOAD SWAP1 POP SWAP2 SWAP1 POP JUMP JUMPDEST PUSH1 0x0 DUP3 DUP3 MSTORE PUSH1 0x20 DUP3 ADD SWAP1 POP SWAP3 SWAP2 POP POP JUMP JUMPDEST PUSH1 0x0 PUSH2 0xDAB DUP3 PUSH2 0xE46 JUMP JUMPDEST SWAP2 POP PUSH2 0xDB6 DUP4 PUSH2 0xE46 JUMP JUMPDEST SWAP3 POP DUP3 PUSH32 0xFFFFFFFFFFFFFFFFFFFFFFFFFFFFFFFFFFFFFFFFFFFFFFFFFFFFFFFFFFFFFFFF SUB DUP3 GT ISZERO PUSH2 0xDEB JUMPI PUSH2 0xDEA PUSH2 0xF3E JUMP JUMPDEST JUMPDEST DUP3 DUP3 ADD SWAP1 POP SWAP3 SWAP2 POP POP JUMP JUMPDEST PUSH1 0x0 PUSH2 0xE01 DUP3 PUSH2 0xE26 JUMP JUMPDEST SWAP1 POP SWAP2 SWAP1 POP JUMP JUMPDEST PUSH1 0x0 PUSH2 0xE13 DUP3 PUSH2 0xE26 JUMP JUMPDEST SWAP1 POP SWAP2 SWAP1 POP JUMP JUMPDEST PUSH1 0x0 DUP2 ISZERO ISZERO SWAP1 POP SWAP2 SWAP1 POP JUMP JUMPDEST PUSH1 0x0 PUSH20 0xFFFFFFFFFFFFFFFFFFFFFFFFFFFFFFFFFFFFFFFF DUP3 AND SWAP1 POP SWAP2 SWAP1 POP JUMP JUMPDEST PUSH1 0x0 DUP2 SWAP1 POP SWAP2 SWAP1 POP JUMP JUMPDEST DUP3 DUP2 DUP4 CALLDATACOPY PUSH1 0x0 DUP4 DUP4 ADD MSTORE POP POP POP JUMP JUMPDEST PUSH1 0x0 JUMPDEST DUP4 DUP2 LT ISZERO PUSH2 0xE7D JUMPI DUP1 DUP3 ADD MLOAD DUP2 DUP5 ADD MSTORE PUSH1 0x20 DUP2 ADD SWAP1 POP PUSH2 0xE62 JUMP JUMPDEST DUP4 DUP2 GT ISZERO PUSH2 0xE8C JUMPI PUSH1 0x0 DUP5 DUP5 ADD MSTORE JUMPDEST POP POP POP POP JUMP JUMPDEST PUSH1 0x0 PUSH1 0x2 DUP3 DIV SWAP1 POP PUSH1 0x1 DUP3 AND DUP1 PUSH2 0xEAA JUMPI PUSH1 0x7F DUP3 AND SWAP2 POP JUMPDEST PUSH1 0x20 DUP3 LT DUP2 EQ ISZERO PUSH2 0xEBE JUMPI PUSH2 0xEBD PUSH2 0xF6D JUMP JUMPDEST JUMPDEST POP SWAP2 SWAP1 POP JUMP JUMPDEST PUSH2 0xECD DUP3 PUSH2 0xFDF JUMP JUMPDEST DUP2 ADD DUP2 DUP2 LT PUSH8 0xFFFFFFFFFFFFFFFF DUP3 GT OR ISZERO PUSH2 0xEEC JUMPI PUSH2 0xEEB PUSH2 0xF9C JUMP JUMPDEST JUMPDEST DUP1 PUSH1 0x40 MSTORE POP POP POP JUMP JUMPDEST PUSH1 0x0 PUSH2 0xF00 DUP3 PUSH2 0xE46 JUMP JUMPDEST SWAP2 POP PUSH32 0xFFFFFFFFFFFFFFFFFFFFFFFFFFFFFFFFFFFFFFFFFFFFFFFFFFFFFFFFFFFFFFFF DUP3 EQ ISZERO PUSH2 0xF33 JUMPI PUSH2 0xF32 PUSH2 0xF3E JUMP JUMPDEST JUMPDEST PUSH1 0x1 DUP3 ADD SWAP1 POP SWAP2 SWAP1 POP JUMP JUMPDEST PUSH32 0x4E487B7100000000000000000000000000000000000000000000000000000000 PUSH1 0x0 MSTORE PUSH1 0x11 PUSH1 0x4 MSTORE PUSH1 0x24 PUSH1 0x0 REVERT JUMPDEST PUSH32 0x4E487B7100000000000000000000000000000000000000000000000000000000 PUSH1 0x0 MSTORE PUSH1 0x22 PUSH1 0x4 MSTORE PUSH1 0x24 PUSH1 0x0 REVERT JUMPDEST PUSH32 0x4E487B7100000000000000000000000000000000000000000000000000000000 PUSH1 0x0 MSTORE PUSH1 0x41 PUSH1 0x4 MSTORE PUSH1 0x24 PUSH1 0x0 REVERT JUMPDEST PUSH1 0x0 DUP1 REVERT JUMPDEST PUSH1 0x0 DUP1 REVERT JUMPDEST PUSH1 0x0 DUP1 REVERT JUMPDEST PUSH1 0x0 DUP1 REVERT JUMPDEST PUSH1 0x0 PUSH1 0x1F NOT PUSH1 0x1F DUP4 ADD AND SWAP1 POP SWAP2 SWAP1 POP JUMP JUMPDEST PUSH32 0x446561646C696E6520686173207061737365642E000000000000000000000000 PUSH1 0x0 DUP3 ADD MSTORE POP JUMP JUMPDEST PUSH32 0x41646D696E2070726976656C656765732072657175697265642E000000000000 PUSH1 0x0 DUP3 ADD MSTORE POP JUMP JUMPDEST PUSH32 0x4D696E696D756D20636F6E747269627574696F6E206E6F74206D65742E000000 PUSH1 0x0 DUP3 ADD MSTORE POP JUMP JUMPDEST PUSH32 0x596F75206D7573742062652061207573657220746F20766F74652E0000000000 PUSH1 0x0 DUP3 ADD MSTORE POP JUMP JUMPDEST PUSH2 0x109D DUP2 PUSH2 0xDF6 JUMP JUMPDEST DUP2 EQ PUSH2 0x10A8 JUMPI PUSH1 0x0 DUP1 REVERT JUMPDEST POP JUMP JUMPDEST PUSH2 0x10B4 DUP2 PUSH2 0xE08 JUMP JUMPDEST DUP2 EQ PUSH2 0x10BF JUMPI PUSH1 0x0 DUP1 REVERT JUMPDEST POP JUMP JUMPDEST PUSH2 0x10CB DUP2 PUSH2 0xE46 JUMP JUMPDEST DUP2 EQ PUSH2 0x10D6 JUMPI PUSH1 0x0 DUP1 REVERT JUMPDEST POP JUMP INVALID LOG2 PUSH5 0x6970667358 0x22 SLT KECCAK256 MUL 0xCC PUSH21 0x8611D3E2B0FC5AE8D2DBE4A3B4F7B594056EB2204A PUSH27 0x671676D622CBF264736F6C63430008070033000000000000000000 "
				},
				"gasEstimates": {
					"creation": {
						"codeDepositCost": "873400",
						"executionCost": "infinite",
						"totalCost": "infinite"
					},
					"external": {
						"admin()": "2602",
						"contribute()": "infinite",
						"contributors(address)": "2882",
						"createRequest(string,address,uint256)": "infinite",
						"deadline()": "2452",
						"getBalance()": "363",
						"getRefund()": "infinite",
						"goal()": "2474",
						"minimumContribution()": "2452",
						"numberContributors()": "2495",
						"numberRequests()": "2451",
						"raisedAmount()": "2496",
						"requests(uint256)": "infinite",
						"voteRequest(uint256)": "2972"
					}
				},
				"methodIdentifiers": {
					"admin()": "f851a440",
					"contribute()": "d7bb99ba",
					"contributors(address)": "1f6d4942",
					"createRequest(string,address,uint256)": "1b16bb5c",
					"deadline()": "29dcb0cf",
					"getBalance()": "12065fe0",
					"getRefund()": "b2d5ae44",
					"goal()": "40193883",
					"minimumContribution()": "937e09b1",
					"numberContributors()": "f3740daf",
					"numberRequests()": "d3a9d4ea",
					"raisedAmount()": "c59ee1dc",
					"requests(uint256)": "81d12c58",
					"voteRequest(uint256)": "4cb6f4a5"
				}
			},
			"storageLayout": {
				"storage": [
					{
						"astId": 5,
						"contract": "contracts/crowdfunding.sol:CrowdFunding",
						"label": "contributors",
						"offset": 0,
						"slot": "0",
						"type": "t_mapping(t_address,t_uint256)"
					},
					{
						"astId": 7,
						"contract": "contracts/crowdfunding.sol:CrowdFunding",
						"label": "admin",
						"offset": 0,
						"slot": "1",
						"type": "t_address"
					},
					{
						"astId": 9,
						"contract": "contracts/crowdfunding.sol:CrowdFunding",
						"label": "numberContributors",
						"offset": 0,
						"slot": "2",
						"type": "t_uint256"
					},
					{
						"astId": 11,
						"contract": "contracts/crowdfunding.sol:CrowdFunding",
						"label": "minimumContribution",
						"offset": 0,
						"slot": "3",
						"type": "t_uint256"
					},
					{
						"astId": 13,
						"contract": "contracts/crowdfunding.sol:CrowdFunding",
						"label": "deadline",
						"offset": 0,
						"slot": "4",
						"type": "t_uint256"
					},
					{
						"astId": 15,
						"contract": "contracts/crowdfunding.sol:CrowdFunding",
						"label": "goal",
						"offset": 0,
						"slot": "5",
						"type": "t_uint256"
					},
					{
						"astId": 17,
						"contract": "contracts/crowdfunding.sol:CrowdFunding",
						"label": "raisedAmount",
						"offset": 0,
						"slot": "6",
						"type": "t_uint256"
					},
					{
						"astId": 37,
						"contract": "contracts/crowdfunding.sol:CrowdFunding",
						"label": "requests",
						"offset": 0,
						"slot": "7",
						"type": "t_mapping(t_uint256,t_struct(Request)32_storage)"
					},
					{
						"astId": 39,
						"contract": "contracts/crowdfunding.sol:CrowdFunding",
						"label": "numberRequests",
						"offset": 0,
						"slot": "8",
						"type": "t_uint256"
					}
				],
				"types": {
					"t_address": {
						"encoding": "inplace",
						"label": "address",
						"numberOfBytes": "20"
					},
					"t_address_payable": {
						"encoding": "inplace",
						"label": "address payable",
						"numberOfBytes": "20"
					},
					"t_bool": {
						"encoding": "inplace",
						"label": "bool",
						"numberOfBytes": "1"
					},
					"t_mapping(t_address,t_bool)": {
						"encoding": "mapping",
						"key": "t_address",
						"label": "mapping(address => bool)",
						"numberOfBytes": "32",
						"value": "t_bool"
					},
					"t_mapping(t_address,t_uint256)": {
						"encoding": "mapping",
						"key": "t_address",
						"label": "mapping(address => uint256)",
						"numberOfBytes": "32",
						"value": "t_uint256"
					},
					"t_mapping(t_uint256,t_struct(Request)32_storage)": {
						"encoding": "mapping",
						"key": "t_uint256",
						"label": "mapping(uint256 => struct CrowdFunding.Request)",
						"numberOfBytes": "32",
						"value": "t_struct(Request)32_storage"
					},
					"t_string_storage": {
						"encoding": "bytes",
						"label": "string",
						"numberOfBytes": "32"
					},
					"t_struct(Request)32_storage": {
						"encoding": "inplace",
						"label": "struct CrowdFunding.Request",
						"members": [
							{
								"astId": 19,
								"contract": "contracts/crowdfunding.sol:CrowdFunding",
								"label": "description",
								"offset": 0,
								"slot": "0",
								"type": "t_string_storage"
							},
							{
								"astId": 21,
								"contract": "contracts/crowdfunding.sol:CrowdFunding",
								"label": "recipient",
								"offset": 0,
								"slot": "1",
								"type": "t_address_payable"
							},
							{
								"astId": 23,
								"contract": "contracts/crowdfunding.sol:CrowdFunding",
								"label": "value",
								"offset": 0,
								"slot": "2",
								"type": "t_uint256"
							},
							{
								"astId": 25,
								"contract": "contracts/crowdfunding.sol:CrowdFunding",
								"label": "completed",
								"offset": 0,
								"slot": "3",
								"type": "t_bool"
							},
							{
								"astId": 27,
								"contract": "contracts/crowdfunding.sol:CrowdFunding",
								"label": "numberVoters",
								"offset": 0,
								"slot": "4",
								"type": "t_uint256"
							},
							{
								"astId": 31,
								"contract": "contracts/crowdfunding.sol:CrowdFunding",
								"label": "voters",
								"offset": 0,
								"slot": "5",
								"type": "t_mapping(t_address,t_bool)"
							}
						],
						"numberOfBytes": "192"
					},
					"t_uint256": {
						"encoding": "inplace",
						"label": "uint256",
						"numberOfBytes": "32"
					}
				}
			},
			"userdoc": {
				"kind": "user",
				"methods": {},
				"version": 1
			}
		}
	}
}