{
	"contracts/crowdfunding.sol": {
		"CrowdFunding": {
			"abi": [
				{
					"inputs": [
						{
							"internalType": "uint256",
							"name": "_goal",
							"type": "uint256"
						},
						{
							"internalType": "uint256",
							"name": "_deadline",
							"type": "uint256"
						}
					],
					"stateMutability": "nonpayable",
					"type": "constructor"
				},
				{
					"inputs": [],
					"name": "admin",
					"outputs": [
						{
							"internalType": "address",
							"name": "",
							"type": "address"
						}
					],
					"stateMutability": "view",
					"type": "function"
				},
				{
					"inputs": [],
					"name": "contribute",
					"outputs": [],
					"stateMutability": "payable",
					"type": "function"
				},
				{
					"inputs": [
						{
							"internalType": "address",
							"name": "",
							"type": "address"
						}
					],
					"name": "contributors",
					"outputs": [
						{
							"internalType": "uint256",
							"name": "",
							"type": "uint256"
						}
					],
					"stateMutability": "view",
					"type": "function"
				},
				{
					"inputs": [
						{
							"internalType": "string",
							"name": "_description",
							"type": "string"
						},
						{
							"internalType": "address payable",
							"name": "_recipient",
							"type": "address"
						},
						{
							"internalType": "uint256",
							"name": "_value",
							"type": "uint256"
						}
					],
					"name": "createRequest",
					"outputs": [],
					"stateMutability": "nonpayable",
					"type": "function"
				},
				{
					"inputs": [],
					"name": "deadline",
					"outputs": [
						{
							"internalType": "uint256",
							"name": "",
							"type": "uint256"
						}
					],
					"stateMutability": "view",
					"type": "function"
				},
				{
					"inputs": [],
					"name": "getBalance",
					"outputs": [
						{
							"internalType": "uint256",
							"name": "",
							"type": "uint256"
						}
					],
					"stateMutability": "view",
					"type": "function"
				},
				{
					"inputs": [],
					"name": "getRefund",
					"outputs": [],
					"stateMutability": "nonpayable",
					"type": "function"
				},
				{
					"inputs": [],
					"name": "goal",
					"outputs": [
						{
							"internalType": "uint256",
							"name": "",
							"type": "uint256"
						}
					],
					"stateMutability": "view",
					"type": "function"
				},
				{
					"inputs": [],
					"name": "minimumContribution",
					"outputs": [
						{
							"internalType": "uint256",
							"name": "",
							"type": "uint256"
						}
					],
					"stateMutability": "view",
					"type": "function"
				},
				{
					"inputs": [],
					"name": "numberContributors",
					"outputs": [
						{
							"internalType": "uint256",
							"name": "",
							"type": "uint256"
						}
					],
					"stateMutability": "view",
					"type": "function"
				},
				{
					"inputs": [],
					"name": "numberRequests",
					"outputs": [
						{
							"internalType": "uint256",
							"name": "",
							"type": "uint256"
						}
					],
					"stateMutability": "view",
					"type": "function"
				},
				{
					"inputs": [],
					"name": "raisedAmount",
					"outputs": [
						{
							"internalType": "uint256",
							"name": "",
							"type": "uint256"
						}
					],
					"stateMutability": "view",
					"type": "function"
				},
				{
					"inputs": [
						{
							"internalType": "uint256",
							"name": "",
							"type": "uint256"
						}
					],
					"name": "requests",
					"outputs": [
						{
							"internalType": "string",
							"name": "description",
							"type": "string"
						},
						{
							"internalType": "address payable",
							"name": "recipient",
							"type": "address"
						},
						{
							"internalType": "uint256",
							"name": "value",
							"type": "uint256"
						},
						{
							"internalType": "bool",
							"name": "completed",
							"type": "bool"
						},
						{
							"internalType": "uint256",
							"name": "numberVoters",
							"type": "uint256"
						}
					],
					"stateMutability": "view",
					"type": "function"
				},
				{
					"stateMutability": "payable",
					"type": "receive"
				}
			],
			"devdoc": {
				"kind": "dev",
				"methods": {},
				"version": 1
			},
			"evm": {
				"assembly": "    /* \"contracts/crowdfunding.sol\":73:4266  contract CrowdFunding{\r... */\n  mstore(0x40, 0x80)\n    /* \"contracts/crowdfunding.sol\":1378:1653  constructor(uint _goal, uint _deadline){\r... */\n  callvalue\n  dup1\n  iszero\n  tag_1\n  jumpi\n  0x00\n  dup1\n  revert\ntag_1:\n  pop\n  mload(0x40)\n  sub(codesize, bytecodeSize)\n  dup1\n  bytecodeSize\n  dup4\n  codecopy\n  dup2\n  dup2\n  add\n  0x40\n  mstore\n  dup2\n  add\n  swap1\n  tag_2\n  swap2\n  swap1\n  tag_3\n  jump\t// in\ntag_2:\n    /* \"contracts/crowdfunding.sol\":1435:1440  _goal */\n  dup2\n    /* \"contracts/crowdfunding.sol\":1428:1432  goal */\n  0x05\n    /* \"contracts/crowdfunding.sol\":1428:1440  goal = _goal */\n  dup2\n  swap1\n  sstore\n  pop\n    /* \"contracts/crowdfunding.sol\":1502:1511  _deadline */\n  dup1\n    /* \"contracts/crowdfunding.sol\":1484:1499  block.timestamp */\n  timestamp\n    /* \"contracts/crowdfunding.sol\":1484:1511  block.timestamp + _deadline */\n  tag_6\n  swap2\n  swap1\n  tag_7\n  jump\t// in\ntag_6:\n    /* \"contracts/crowdfunding.sol\":1473:1481  deadline */\n  0x04\n    /* \"contracts/crowdfunding.sol\":1473:1511  deadline = block.timestamp + _deadline */\n  dup2\n  swap1\n  sstore\n  pop\n    /* \"contracts/crowdfunding.sol\":1576:1583  100 wei */\n  0x64\n    /* \"contracts/crowdfunding.sol\":1554:1573  minimumContribution */\n  0x03\n    /* \"contracts/crowdfunding.sol\":1554:1583  minimumContribution = 100 wei */\n  dup2\n  swap1\n  sstore\n  pop\n    /* \"contracts/crowdfunding.sol\":1622:1632  msg.sender */\n  caller\n    /* \"contracts/crowdfunding.sol\":1614:1619  admin */\n  0x01\n  0x00\n    /* \"contracts/crowdfunding.sol\":1614:1632  admin = msg.sender */\n  0x0100\n  exp\n  dup2\n  sload\n  dup2\n  0xffffffffffffffffffffffffffffffffffffffff\n  mul\n  not\n  and\n  swap1\n  dup4\n  0xffffffffffffffffffffffffffffffffffffffff\n  and\n  mul\n  or\n  swap1\n  sstore\n  pop\n    /* \"contracts/crowdfunding.sol\":1378:1653  constructor(uint _goal, uint _deadline){\r... */\n  pop\n  pop\n    /* \"contracts/crowdfunding.sol\":73:4266  contract CrowdFunding{\r... */\n  jump(tag_8)\n    /* \"#utility.yul\":7:150   */\ntag_10:\n    /* \"#utility.yul\":64:69   */\n  0x00\n    /* \"#utility.yul\":95:101   */\n  dup2\n    /* \"#utility.yul\":89:102   */\n  mload\n    /* \"#utility.yul\":80:102   */\n  swap1\n  pop\n    /* \"#utility.yul\":111:144   */\n  tag_12\n    /* \"#utility.yul\":138:143   */\n  dup2\n    /* \"#utility.yul\":111:144   */\n  tag_13\n  jump\t// in\ntag_12:\n    /* \"#utility.yul\":7:150   */\n  swap3\n  swap2\n  pop\n  pop\n  jump\t// out\n    /* \"#utility.yul\":156:663   */\ntag_3:\n    /* \"#utility.yul\":235:241   */\n  0x00\n    /* \"#utility.yul\":243:249   */\n  dup1\n    /* \"#utility.yul\":292:294   */\n  0x40\n    /* \"#utility.yul\":280:289   */\n  dup4\n    /* \"#utility.yul\":271:278   */\n  dup6\n    /* \"#utility.yul\":267:290   */\n  sub\n    /* \"#utility.yul\":263:295   */\n  slt\n    /* \"#utility.yul\":260:379   */\n  iszero\n  tag_15\n  jumpi\n    /* \"#utility.yul\":298:377   */\n  tag_16\n  tag_17\n  jump\t// in\ntag_16:\n    /* \"#utility.yul\":260:379   */\ntag_15:\n    /* \"#utility.yul\":418:419   */\n  0x00\n    /* \"#utility.yul\":443:507   */\n  tag_18\n    /* \"#utility.yul\":499:506   */\n  dup6\n    /* \"#utility.yul\":490:496   */\n  dup3\n    /* \"#utility.yul\":479:488   */\n  dup7\n    /* \"#utility.yul\":475:497   */\n  add\n    /* \"#utility.yul\":443:507   */\n  tag_10\n  jump\t// in\ntag_18:\n    /* \"#utility.yul\":433:507   */\n  swap3\n  pop\n    /* \"#utility.yul\":389:517   */\n  pop\n    /* \"#utility.yul\":556:558   */\n  0x20\n    /* \"#utility.yul\":582:646   */\n  tag_19\n    /* \"#utility.yul\":638:645   */\n  dup6\n    /* \"#utility.yul\":629:635   */\n  dup3\n    /* \"#utility.yul\":618:627   */\n  dup7\n    /* \"#utility.yul\":614:636   */\n  add\n    /* \"#utility.yul\":582:646   */\n  tag_10\n  jump\t// in\ntag_19:\n    /* \"#utility.yul\":572:646   */\n  swap2\n  pop\n    /* \"#utility.yul\":527:656   */\n  pop\n    /* \"#utility.yul\":156:663   */\n  swap3\n  pop\n  swap3\n  swap1\n  pop\n  jump\t// out\n    /* \"#utility.yul\":750:1055   */\ntag_7:\n    /* \"#utility.yul\":790:793   */\n  0x00\n    /* \"#utility.yul\":809:829   */\n  tag_23\n    /* \"#utility.yul\":827:828   */\n  dup3\n    /* \"#utility.yul\":809:829   */\n  tag_24\n  jump\t// in\ntag_23:\n    /* \"#utility.yul\":804:829   */\n  swap2\n  pop\n    /* \"#utility.yul\":843:863   */\n  tag_25\n    /* \"#utility.yul\":861:862   */\n  dup4\n    /* \"#utility.yul\":843:863   */\n  tag_24\n  jump\t// in\ntag_25:\n    /* \"#utility.yul\":838:863   */\n  swap3\n  pop\n    /* \"#utility.yul\":997:998   */\n  dup3\n    /* \"#utility.yul\":929:995   */\n  0xffffffffffffffffffffffffffffffffffffffffffffffffffffffffffffffff\n    /* \"#utility.yul\":925:999   */\n  sub\n    /* \"#utility.yul\":922:923   */\n  dup3\n    /* \"#utility.yul\":919:1000   */\n  gt\n    /* \"#utility.yul\":916:1023   */\n  iszero\n  tag_26\n  jumpi\n    /* \"#utility.yul\":1003:1021   */\n  tag_27\n  tag_28\n  jump\t// in\ntag_27:\n    /* \"#utility.yul\":916:1023   */\ntag_26:\n    /* \"#utility.yul\":1047:1048   */\n  dup3\n    /* \"#utility.yul\":1044:1045   */\n  dup3\n    /* \"#utility.yul\":1040:1049   */\n  add\n    /* \"#utility.yul\":1033:1049   */\n  swap1\n  pop\n    /* \"#utility.yul\":750:1055   */\n  swap3\n  swap2\n  pop\n  pop\n  jump\t// out\n    /* \"#utility.yul\":1061:1138   */\ntag_24:\n    /* \"#utility.yul\":1098:1105   */\n  0x00\n    /* \"#utility.yul\":1127:1132   */\n  dup2\n    /* \"#utility.yul\":1116:1132   */\n  swap1\n  pop\n    /* \"#utility.yul\":1061:1138   */\n  swap2\n  swap1\n  pop\n  jump\t// out\n    /* \"#utility.yul\":1144:1324   */\ntag_28:\n    /* \"#utility.yul\":1192:1269   */\n  0x4e487b7100000000000000000000000000000000000000000000000000000000\n    /* \"#utility.yul\":1189:1190   */\n  0x00\n    /* \"#utility.yul\":1182:1270   */\n  mstore\n    /* \"#utility.yul\":1289:1293   */\n  0x11\n    /* \"#utility.yul\":1286:1287   */\n  0x04\n    /* \"#utility.yul\":1279:1294   */\n  mstore\n    /* \"#utility.yul\":1313:1317   */\n  0x24\n    /* \"#utility.yul\":1310:1311   */\n  0x00\n    /* \"#utility.yul\":1303:1318   */\n  revert\n    /* \"#utility.yul\":1453:1570   */\ntag_17:\n    /* \"#utility.yul\":1562:1563   */\n  0x00\n    /* \"#utility.yul\":1559:1560   */\n  dup1\n    /* \"#utility.yul\":1552:1564   */\n  revert\n    /* \"#utility.yul\":1576:1698   */\ntag_13:\n    /* \"#utility.yul\":1649:1673   */\n  tag_35\n    /* \"#utility.yul\":1667:1672   */\n  dup2\n    /* \"#utility.yul\":1649:1673   */\n  tag_24\n  jump\t// in\ntag_35:\n    /* \"#utility.yul\":1642:1647   */\n  dup2\n    /* \"#utility.yul\":1639:1674   */\n  eq\n    /* \"#utility.yul\":1629:1692   */\n  tag_36\n  jumpi\n    /* \"#utility.yul\":1688:1689   */\n  0x00\n    /* \"#utility.yul\":1685:1686   */\n  dup1\n    /* \"#utility.yul\":1678:1690   */\n  revert\n    /* \"#utility.yul\":1629:1692   */\ntag_36:\n    /* \"#utility.yul\":1576:1698   */\n  pop\n  jump\t// out\n    /* \"contracts/crowdfunding.sol\":73:4266  contract CrowdFunding{\r... */\ntag_8:\n  dataSize(sub_0)\n  dup1\n  dataOffset(sub_0)\n  0x00\n  codecopy\n  0x00\n  return\nstop\n\nsub_0: assembly {\n        /* \"contracts/crowdfunding.sol\":73:4266  contract CrowdFunding{\r... */\n      mstore(0x40, 0x80)\n      jumpi(tag_1, lt(calldatasize, 0x04))\n      shr(0xe0, calldataload(0x00))\n      dup1\n      0x937e09b1\n      gt\n      tag_16\n      jumpi\n      dup1\n      0xd3a9d4ea\n      gt\n      tag_17\n      jumpi\n      dup1\n      0xd3a9d4ea\n      eq\n      tag_12\n      jumpi\n      dup1\n      0xd7bb99ba\n      eq\n      tag_13\n      jumpi\n      dup1\n      0xf3740daf\n      eq\n      tag_14\n      jumpi\n      dup1\n      0xf851a440\n      eq\n      tag_15\n      jumpi\n      jump(tag_2)\n    tag_17:\n      dup1\n      0x937e09b1\n      eq\n      tag_9\n      jumpi\n      dup1\n      0xb2d5ae44\n      eq\n      tag_10\n      jumpi\n      dup1\n      0xc59ee1dc\n      eq\n      tag_11\n      jumpi\n      jump(tag_2)\n    tag_16:\n      dup1\n      0x12065fe0\n      eq\n      tag_3\n      jumpi\n      dup1\n      0x1b16bb5c\n      eq\n      tag_4\n      jumpi\n      dup1\n      0x1f6d4942\n      eq\n      tag_5\n      jumpi\n      dup1\n      0x29dcb0cf\n      eq\n      tag_6\n      jumpi\n      dup1\n      0x40193883\n      eq\n      tag_7\n      jumpi\n      dup1\n      0x81d12c58\n      eq\n      tag_8\n      jumpi\n      jump(tag_2)\n    tag_1:\n      jumpi(tag_2, calldatasize)\n        /* \"contracts/crowdfunding.sol\":2515:2527  contribute() */\n      tag_20\n        /* \"contracts/crowdfunding.sol\":2515:2525  contribute */\n      tag_21\n        /* \"contracts/crowdfunding.sol\":2515:2527  contribute() */\n      jump\t// in\n    tag_20:\n        /* \"contracts/crowdfunding.sol\":73:4266  contract CrowdFunding{\r... */\n      stop\n    tag_2:\n      0x00\n      dup1\n      revert\n        /* \"contracts/crowdfunding.sol\":2586:2684  function getBalance() public view returns(uint){\r... */\n    tag_3:\n      callvalue\n      dup1\n      iszero\n      tag_22\n      jumpi\n      0x00\n      dup1\n      revert\n    tag_22:\n      pop\n      tag_23\n      tag_24\n      jump\t// in\n    tag_23:\n      mload(0x40)\n      tag_25\n      swap2\n      swap1\n      tag_26\n      jump\t// in\n    tag_25:\n      mload(0x40)\n      dup1\n      swap2\n      sub\n      swap1\n      return\n        /* \"contracts/crowdfunding.sol\":3561:4223  function createRequest(string memory _description, address payable _recipient, uint _value) public onlyAdmin{\r... */\n    tag_4:\n      callvalue\n      dup1\n      iszero\n      tag_27\n      jumpi\n      0x00\n      dup1\n      revert\n    tag_27:\n      pop\n      tag_28\n      0x04\n      dup1\n      calldatasize\n      sub\n      dup2\n      add\n      swap1\n      tag_29\n      swap2\n      swap1\n      tag_30\n      jump\t// in\n    tag_29:\n      tag_31\n      jump\t// in\n    tag_28:\n      stop\n        /* \"contracts/crowdfunding.sol\":161:205  mapping(address => uint) public contributors */\n    tag_5:\n      callvalue\n      dup1\n      iszero\n      tag_32\n      jumpi\n      0x00\n      dup1\n      revert\n    tag_32:\n      pop\n      tag_33\n      0x04\n      dup1\n      calldatasize\n      sub\n      dup2\n      add\n      swap1\n      tag_34\n      swap2\n      swap1\n      tag_35\n      jump\t// in\n    tag_34:\n      tag_36\n      jump\t// in\n    tag_33:\n      mload(0x40)\n      tag_37\n      swap2\n      swap1\n      tag_26\n      jump\t// in\n    tag_37:\n      mload(0x40)\n      dup1\n      swap2\n      sub\n      swap1\n      return\n        /* \"contracts/crowdfunding.sol\":465:485  uint public deadline */\n    tag_6:\n      callvalue\n      dup1\n      iszero\n      tag_38\n      jumpi\n      0x00\n      dup1\n      revert\n    tag_38:\n      pop\n      tag_39\n      tag_40\n      jump\t// in\n    tag_39:\n      mload(0x40)\n      tag_41\n      swap2\n      swap1\n      tag_26\n      jump\t// in\n    tag_41:\n      mload(0x40)\n      dup1\n      swap2\n      sub\n      swap1\n      return\n        /* \"contracts/crowdfunding.sol\":505:521  uint public goal */\n    tag_7:\n      callvalue\n      dup1\n      iszero\n      tag_42\n      jumpi\n      0x00\n      dup1\n      revert\n    tag_42:\n      pop\n      tag_43\n      tag_44\n      jump\t// in\n    tag_43:\n      mload(0x40)\n      tag_45\n      swap2\n      swap1\n      tag_26\n      jump\t// in\n    tag_45:\n      mload(0x40)\n      dup1\n      swap2\n      sub\n      swap1\n      return\n        /* \"contracts/crowdfunding.sol\":1215:1255  mapping(uint => Request) public requests */\n    tag_8:\n      callvalue\n      dup1\n      iszero\n      tag_46\n      jumpi\n      0x00\n      dup1\n      revert\n    tag_46:\n      pop\n      tag_47\n      0x04\n      dup1\n      calldatasize\n      sub\n      dup2\n      add\n      swap1\n      tag_48\n      swap2\n      swap1\n      tag_49\n      jump\t// in\n    tag_48:\n      tag_50\n      jump\t// in\n    tag_47:\n      mload(0x40)\n      tag_51\n      swap6\n      swap5\n      swap4\n      swap3\n      swap2\n      swap1\n      tag_52\n      jump\t// in\n    tag_51:\n      mload(0x40)\n      dup1\n      swap2\n      sub\n      swap1\n      return\n        /* \"contracts/crowdfunding.sol\":399:430  uint public minimumContribution */\n    tag_9:\n      callvalue\n      dup1\n      iszero\n      tag_53\n      jumpi\n      0x00\n      dup1\n      revert\n    tag_53:\n      pop\n      tag_54\n      tag_55\n      jump\t// in\n    tag_54:\n      mload(0x40)\n      tag_56\n      swap2\n      swap1\n      tag_26\n      jump\t// in\n    tag_56:\n      mload(0x40)\n      dup1\n      swap2\n      sub\n      swap1\n      return\n        /* \"contracts/crowdfunding.sol\":2733:3329  function getRefund() public{\r... */\n    tag_10:\n      callvalue\n      dup1\n      iszero\n      tag_57\n      jumpi\n      0x00\n      dup1\n      revert\n    tag_57:\n      pop\n      tag_58\n      tag_59\n      jump\t// in\n    tag_58:\n      stop\n        /* \"contracts/crowdfunding.sol\":544:568  uint public raisedAmount */\n    tag_11:\n      callvalue\n      dup1\n      iszero\n      tag_60\n      jumpi\n      0x00\n      dup1\n      revert\n    tag_60:\n      pop\n      tag_61\n      tag_62\n      jump\t// in\n    tag_61:\n      mload(0x40)\n      tag_63\n      swap2\n      swap1\n      tag_26\n      jump\t// in\n    tag_63:\n      mload(0x40)\n      dup1\n      swap2\n      sub\n      swap1\n      return\n        /* \"contracts/crowdfunding.sol\":1341:1367  uint public numberRequests */\n    tag_12:\n      callvalue\n      dup1\n      iszero\n      tag_64\n      jumpi\n      0x00\n      dup1\n      revert\n    tag_64:\n      pop\n      tag_65\n      tag_66\n      jump\t// in\n    tag_65:\n      mload(0x40)\n      tag_67\n      swap2\n      swap1\n      tag_26\n      jump\t// in\n    tag_67:\n      mload(0x40)\n      dup1\n      swap2\n      sub\n      swap1\n      return\n        /* \"contracts/crowdfunding.sol\":1696:2358  function contribute() public payable{\r... */\n    tag_13:\n      tag_68\n      tag_21\n      jump\t// in\n    tag_68:\n      stop\n        /* \"contracts/crowdfunding.sol\":360:390  uint public numberContributors */\n    tag_14:\n      callvalue\n      dup1\n      iszero\n      tag_69\n      jumpi\n      0x00\n      dup1\n      revert\n    tag_69:\n      pop\n      tag_70\n      tag_71\n      jump\t// in\n    tag_70:\n      mload(0x40)\n      tag_72\n      swap2\n      swap1\n      tag_26\n      jump\t// in\n    tag_72:\n      mload(0x40)\n      dup1\n      swap2\n      sub\n      swap1\n      return\n        /* \"contracts/crowdfunding.sol\":275:295  address public admin */\n    tag_15:\n      callvalue\n      dup1\n      iszero\n      tag_73\n      jumpi\n      0x00\n      dup1\n      revert\n    tag_73:\n      pop\n      tag_74\n      tag_75\n      jump\t// in\n    tag_74:\n      mload(0x40)\n      tag_76\n      swap2\n      swap1\n      tag_77\n      jump\t// in\n    tag_76:\n      mload(0x40)\n      dup1\n      swap2\n      sub\n      swap1\n      return\n        /* \"contracts/crowdfunding.sol\":1696:2358  function contribute() public payable{\r... */\n    tag_21:\n        /* \"contracts/crowdfunding.sol\":1814:1822  deadline */\n      sload(0x04)\n        /* \"contracts/crowdfunding.sol\":1796:1811  block.timestamp */\n      timestamp\n        /* \"contracts/crowdfunding.sol\":1796:1822  block.timestamp < deadline */\n      lt\n        /* \"contracts/crowdfunding.sol\":1788:1847  require(block.timestamp < deadline, \"Deadline has passed.\") */\n      tag_79\n      jumpi\n      mload(0x40)\n      0x08c379a000000000000000000000000000000000000000000000000000000000\n      dup2\n      mstore\n      0x04\n      add\n      tag_80\n      swap1\n      tag_81\n      jump\t// in\n    tag_80:\n      mload(0x40)\n      dup1\n      swap2\n      sub\n      swap1\n      revert\n    tag_79:\n        /* \"contracts/crowdfunding.sol\":1944:1963  minimumContribution */\n      sload(0x03)\n        /* \"contracts/crowdfunding.sol\":1931:1940  msg.value */\n      callvalue\n        /* \"contracts/crowdfunding.sol\":1931:1963  msg.value >= minimumContribution */\n      lt\n      iszero\n        /* \"contracts/crowdfunding.sol\":1923:1997  require(msg.value >= minimumContribution, \"Minimum contribution not met.\") */\n      tag_82\n      jumpi\n      mload(0x40)\n      0x08c379a000000000000000000000000000000000000000000000000000000000\n      dup2\n      mstore\n      0x04\n      add\n      tag_83\n      swap1\n      tag_84\n      jump\t// in\n    tag_83:\n      mload(0x40)\n      dup1\n      swap2\n      sub\n      swap1\n      revert\n    tag_82:\n        /* \"contracts/crowdfunding.sol\":2137:2138  0 */\n      0x00\n        /* \"contracts/crowdfunding.sol\":2109:2121  contributors */\n      dup1\n        /* \"contracts/crowdfunding.sol\":2109:2133  contributors[msg.sender] */\n      0x00\n        /* \"contracts/crowdfunding.sol\":2122:2132  msg.sender */\n      caller\n        /* \"contracts/crowdfunding.sol\":2109:2133  contributors[msg.sender] */\n      0xffffffffffffffffffffffffffffffffffffffff\n      and\n      0xffffffffffffffffffffffffffffffffffffffff\n      and\n      dup2\n      mstore\n      0x20\n      add\n      swap1\n      dup2\n      mstore\n      0x20\n      add\n      0x00\n      keccak256\n      sload\n        /* \"contracts/crowdfunding.sol\":2109:2138  contributors[msg.sender] == 0 */\n      eq\n        /* \"contracts/crowdfunding.sol\":2105:2186  if (contributors[msg.sender] == 0){\r... */\n      iszero\n      tag_85\n      jumpi\n        /* \"contracts/crowdfunding.sol\":2154:2172  numberContributors */\n      0x02\n      0x00\n        /* \"contracts/crowdfunding.sol\":2154:2174  numberContributors++ */\n      dup2\n      sload\n      dup1\n      swap3\n      swap2\n      swap1\n      tag_86\n      swap1\n      tag_87\n      jump\t// in\n    tag_86:\n      swap2\n      swap1\n      pop\n      sstore\n      pop\n        /* \"contracts/crowdfunding.sol\":2105:2186  if (contributors[msg.sender] == 0){\r... */\n    tag_85:\n        /* \"contracts/crowdfunding.sol\":2263:2272  msg.value */\n      callvalue\n        /* \"contracts/crowdfunding.sol\":2235:2247  contributors */\n      0x00\n        /* \"contracts/crowdfunding.sol\":2235:2259  contributors[msg.sender] */\n      dup1\n        /* \"contracts/crowdfunding.sol\":2248:2258  msg.sender */\n      caller\n        /* \"contracts/crowdfunding.sol\":2235:2259  contributors[msg.sender] */\n      0xffffffffffffffffffffffffffffffffffffffff\n      and\n      0xffffffffffffffffffffffffffffffffffffffff\n      and\n      dup2\n      mstore\n      0x20\n      add\n      swap1\n      dup2\n      mstore\n      0x20\n      add\n      0x00\n      keccak256\n      0x00\n        /* \"contracts/crowdfunding.sol\":2235:2272  contributors[msg.sender] += msg.value */\n      dup3\n      dup3\n      sload\n      tag_88\n      swap2\n      swap1\n      tag_89\n      jump\t// in\n    tag_88:\n      swap3\n      pop\n      pop\n      dup2\n      swap1\n      sstore\n      pop\n        /* \"contracts/crowdfunding.sol\":2339:2348  msg.value */\n      callvalue\n        /* \"contracts/crowdfunding.sol\":2323:2335  raisedAmount */\n      0x06\n      0x00\n        /* \"contracts/crowdfunding.sol\":2323:2348  raisedAmount += msg.value */\n      dup3\n      dup3\n      sload\n      tag_90\n      swap2\n      swap1\n      tag_89\n      jump\t// in\n    tag_90:\n      swap3\n      pop\n      pop\n      dup2\n      swap1\n      sstore\n      pop\n        /* \"contracts/crowdfunding.sol\":1696:2358  function contribute() public payable{\r... */\n      jump\t// out\n        /* \"contracts/crowdfunding.sol\":2586:2684  function getBalance() public view returns(uint){\r... */\n    tag_24:\n        /* \"contracts/crowdfunding.sol\":2628:2632  uint */\n      0x00\n        /* \"contracts/crowdfunding.sol\":2653:2674  address(this).balance */\n      selfbalance\n        /* \"contracts/crowdfunding.sol\":2646:2674  return address(this).balance */\n      swap1\n      pop\n        /* \"contracts/crowdfunding.sol\":2586:2684  function getBalance() public view returns(uint){\r... */\n      swap1\n      jump\t// out\n        /* \"contracts/crowdfunding.sol\":3561:4223  function createRequest(string memory _description, address payable _recipient, uint _value) public onlyAdmin{\r... */\n    tag_31:\n        /* \"contracts/crowdfunding.sol\":3436:3441  admin */\n      0x01\n      0x00\n      swap1\n      sload\n      swap1\n      0x0100\n      exp\n      swap1\n      div\n      0xffffffffffffffffffffffffffffffffffffffff\n      and\n        /* \"contracts/crowdfunding.sol\":3422:3441  msg.sender == admin */\n      0xffffffffffffffffffffffffffffffffffffffff\n      and\n        /* \"contracts/crowdfunding.sol\":3422:3432  msg.sender */\n      caller\n        /* \"contracts/crowdfunding.sol\":3422:3441  msg.sender == admin */\n      0xffffffffffffffffffffffffffffffffffffffff\n      and\n      eq\n        /* \"contracts/crowdfunding.sol\":3414:3472  require(msg.sender == admin, \"Admin priveleges required.\") */\n      tag_93\n      jumpi\n      mload(0x40)\n      0x08c379a000000000000000000000000000000000000000000000000000000000\n      dup2\n      mstore\n      0x04\n      add\n      tag_94\n      swap1\n      tag_95\n      jump\t// in\n    tag_94:\n      mload(0x40)\n      dup1\n      swap2\n      sub\n      swap1\n      revert\n    tag_93:\n        /* \"contracts/crowdfunding.sol\":3774:3800  Request storage newRequest */\n      0x00\n        /* \"contracts/crowdfunding.sol\":3803:3811  requests */\n      0x07\n        /* \"contracts/crowdfunding.sol\":3803:3827  requests[numberRequests] */\n      0x00\n        /* \"contracts/crowdfunding.sol\":3812:3826  numberRequests */\n      sload(0x08)\n        /* \"contracts/crowdfunding.sol\":3803:3827  requests[numberRequests] */\n      dup2\n      mstore\n      0x20\n      add\n      swap1\n      dup2\n      mstore\n      0x20\n      add\n      0x00\n      keccak256\n        /* \"contracts/crowdfunding.sol\":3774:3827  Request storage newRequest = requests[numberRequests] */\n      swap1\n      pop\n        /* \"contracts/crowdfunding.sol\":3938:3952  numberRequests */\n      0x08\n      0x00\n        /* \"contracts/crowdfunding.sol\":3938:3954  numberRequests++ */\n      dup2\n      sload\n      dup1\n      swap3\n      swap2\n      swap1\n      tag_97\n      swap1\n      tag_87\n      jump\t// in\n    tag_97:\n      swap2\n      swap1\n      pop\n      sstore\n      pop\n        /* \"contracts/crowdfunding.sol\":4044:4056  _description */\n      dup4\n        /* \"contracts/crowdfunding.sol\":4019:4029  newRequest */\n      dup2\n        /* \"contracts/crowdfunding.sol\":4019:4041  newRequest.description */\n      0x00\n      add\n        /* \"contracts/crowdfunding.sol\":4019:4056  newRequest.description = _description */\n      swap1\n      dup1\n      mload\n      swap1\n      0x20\n      add\n      swap1\n      tag_98\n      swap3\n      swap2\n      swap1\n      tag_99\n      jump\t// in\n    tag_98:\n      pop\n        /* \"contracts/crowdfunding.sol\":4090:4100  _recipient */\n      dup3\n        /* \"contracts/crowdfunding.sol\":4067:4077  newRequest */\n      dup2\n        /* \"contracts/crowdfunding.sol\":4067:4087  newRequest.recipient */\n      0x01\n      add\n      0x00\n        /* \"contracts/crowdfunding.sol\":4067:4100  newRequest.recipient = _recipient */\n      0x0100\n      exp\n      dup2\n      sload\n      dup2\n      0xffffffffffffffffffffffffffffffffffffffff\n      mul\n      not\n      and\n      swap1\n      dup4\n      0xffffffffffffffffffffffffffffffffffffffff\n      and\n      mul\n      or\n      swap1\n      sstore\n      pop\n        /* \"contracts/crowdfunding.sol\":4130:4136  _value */\n      dup2\n        /* \"contracts/crowdfunding.sol\":4111:4121  newRequest */\n      dup2\n        /* \"contracts/crowdfunding.sol\":4111:4127  newRequest.value */\n      0x02\n      add\n        /* \"contracts/crowdfunding.sol\":4111:4136  newRequest.value = _value */\n      dup2\n      swap1\n      sstore\n      pop\n        /* \"contracts/crowdfunding.sol\":4170:4175  false */\n      0x00\n        /* \"contracts/crowdfunding.sol\":4147:4157  newRequest */\n      dup2\n        /* \"contracts/crowdfunding.sol\":4147:4167  newRequest.completed */\n      0x03\n      add\n      0x00\n        /* \"contracts/crowdfunding.sol\":4147:4175  newRequest.completed = false */\n      0x0100\n      exp\n      dup2\n      sload\n      dup2\n      0xff\n      mul\n      not\n      and\n      swap1\n      dup4\n      iszero\n      iszero\n      mul\n      or\n      swap1\n      sstore\n      pop\n        /* \"contracts/crowdfunding.sol\":4212:4213  0 */\n      0x00\n        /* \"contracts/crowdfunding.sol\":4186:4196  newRequest */\n      dup2\n        /* \"contracts/crowdfunding.sol\":4186:4209  newRequest.numberVoters */\n      0x04\n      add\n        /* \"contracts/crowdfunding.sol\":4186:4213  newRequest.numberVoters = 0 */\n      dup2\n      swap1\n      sstore\n      pop\n        /* \"contracts/crowdfunding.sol\":3669:4223  {\r... */\n      pop\n        /* \"contracts/crowdfunding.sol\":3561:4223  function createRequest(string memory _description, address payable _recipient, uint _value) public onlyAdmin{\r... */\n      pop\n      pop\n      pop\n      jump\t// out\n        /* \"contracts/crowdfunding.sol\":161:205  mapping(address => uint) public contributors */\n    tag_36:\n      mstore(0x20, 0x00)\n      dup1\n      0x00\n      mstore\n      keccak256(0x00, 0x40)\n      0x00\n      swap2\n      pop\n      swap1\n      pop\n      sload\n      dup2\n      jump\t// out\n        /* \"contracts/crowdfunding.sol\":465:485  uint public deadline */\n    tag_40:\n      sload(0x04)\n      dup2\n      jump\t// out\n        /* \"contracts/crowdfunding.sol\":505:521  uint public goal */\n    tag_44:\n      sload(0x05)\n      dup2\n      jump\t// out\n        /* \"contracts/crowdfunding.sol\":1215:1255  mapping(uint => Request) public requests */\n    tag_50:\n      mstore(0x20, 0x07)\n      dup1\n      0x00\n      mstore\n      keccak256(0x00, 0x40)\n      0x00\n      swap2\n      pop\n      swap1\n      pop\n      dup1\n      0x00\n      add\n      dup1\n      sload\n      tag_100\n      swap1\n      tag_101\n      jump\t// in\n    tag_100:\n      dup1\n      0x1f\n      add\n      0x20\n      dup1\n      swap2\n      div\n      mul\n      0x20\n      add\n      mload(0x40)\n      swap1\n      dup2\n      add\n      0x40\n      mstore\n      dup1\n      swap3\n      swap2\n      swap1\n      dup2\n      dup2\n      mstore\n      0x20\n      add\n      dup3\n      dup1\n      sload\n      tag_102\n      swap1\n      tag_101\n      jump\t// in\n    tag_102:\n      dup1\n      iszero\n      tag_103\n      jumpi\n      dup1\n      0x1f\n      lt\n      tag_104\n      jumpi\n      0x0100\n      dup1\n      dup4\n      sload\n      div\n      mul\n      dup4\n      mstore\n      swap2\n      0x20\n      add\n      swap2\n      jump(tag_103)\n    tag_104:\n      dup3\n      add\n      swap2\n      swap1\n      0x00\n      mstore\n      keccak256(0x00, 0x20)\n      swap1\n    tag_105:\n      dup2\n      sload\n      dup2\n      mstore\n      swap1\n      0x01\n      add\n      swap1\n      0x20\n      add\n      dup1\n      dup4\n      gt\n      tag_105\n      jumpi\n      dup3\n      swap1\n      sub\n      0x1f\n      and\n      dup3\n      add\n      swap2\n    tag_103:\n      pop\n      pop\n      pop\n      pop\n      pop\n      swap1\n      dup1\n      0x01\n      add\n      0x00\n      swap1\n      sload\n      swap1\n      0x0100\n      exp\n      swap1\n      div\n      0xffffffffffffffffffffffffffffffffffffffff\n      and\n      swap1\n      dup1\n      0x02\n      add\n      sload\n      swap1\n      dup1\n      0x03\n      add\n      0x00\n      swap1\n      sload\n      swap1\n      0x0100\n      exp\n      swap1\n      div\n      0xff\n      and\n      swap1\n      dup1\n      0x04\n      add\n      sload\n      swap1\n      pop\n      dup6\n      jump\t// out\n        /* \"contracts/crowdfunding.sol\":399:430  uint public minimumContribution */\n    tag_55:\n      sload(0x03)\n      dup2\n      jump\t// out\n        /* \"contracts/crowdfunding.sol\":2733:3329  function getRefund() public{\r... */\n    tag_59:\n        /* \"contracts/crowdfunding.sol\":2855:2863  deadline */\n      sload(0x04)\n        /* \"contracts/crowdfunding.sol\":2837:2852  block.timestamp */\n      timestamp\n        /* \"contracts/crowdfunding.sol\":2837:2863  block.timestamp > deadline */\n      gt\n        /* \"contracts/crowdfunding.sol\":2837:2886  block.timestamp > deadline && raisedAmount < goal */\n      dup1\n      iszero\n      tag_107\n      jumpi\n      pop\n        /* \"contracts/crowdfunding.sol\":2882:2886  goal */\n      sload(0x05)\n        /* \"contracts/crowdfunding.sol\":2867:2879  raisedAmount */\n      sload(0x06)\n        /* \"contracts/crowdfunding.sol\":2867:2886  raisedAmount < goal */\n      lt\n        /* \"contracts/crowdfunding.sol\":2837:2886  block.timestamp > deadline && raisedAmount < goal */\n    tag_107:\n        /* \"contracts/crowdfunding.sol\":2829:2887  require(block.timestamp > deadline && raisedAmount < goal) */\n      tag_108\n      jumpi\n      0x00\n      dup1\n      revert\n    tag_108:\n        /* \"contracts/crowdfunding.sol\":2977:2978  0 */\n      0x00\n        /* \"contracts/crowdfunding.sol\":2950:2962  contributors */\n      dup1\n        /* \"contracts/crowdfunding.sol\":2950:2974  contributors[msg.sender] */\n      0x00\n        /* \"contracts/crowdfunding.sol\":2963:2973  msg.sender */\n      caller\n        /* \"contracts/crowdfunding.sol\":2950:2974  contributors[msg.sender] */\n      0xffffffffffffffffffffffffffffffffffffffff\n      and\n      0xffffffffffffffffffffffffffffffffffffffff\n      and\n      dup2\n      mstore\n      0x20\n      add\n      swap1\n      dup2\n      mstore\n      0x20\n      add\n      0x00\n      keccak256\n      sload\n        /* \"contracts/crowdfunding.sol\":2950:2978  contributors[msg.sender] > 0 */\n      gt\n        /* \"contracts/crowdfunding.sol\":2942:2979  require(contributors[msg.sender] > 0) */\n      tag_109\n      jumpi\n      0x00\n      dup1\n      revert\n    tag_109:\n        /* \"contracts/crowdfunding.sol\":3021:3046  address payable recipient */\n      0x00\n        /* \"contracts/crowdfunding.sol\":3057:3067  msg.sender */\n      caller\n        /* \"contracts/crowdfunding.sol\":3021:3068  address payable recipient = payable(msg.sender) */\n      swap1\n      pop\n        /* \"contracts/crowdfunding.sol\":3115:3125  uint value */\n      0x00\n        /* \"contracts/crowdfunding.sol\":3128:3140  contributors */\n      dup1\n        /* \"contracts/crowdfunding.sol\":3128:3152  contributors[msg.sender] */\n      0x00\n        /* \"contracts/crowdfunding.sol\":3141:3151  msg.sender */\n      caller\n        /* \"contracts/crowdfunding.sol\":3128:3152  contributors[msg.sender] */\n      0xffffffffffffffffffffffffffffffffffffffff\n      and\n      0xffffffffffffffffffffffffffffffffffffffff\n      and\n      dup2\n      mstore\n      0x20\n      add\n      swap1\n      dup2\n      mstore\n      0x20\n      add\n      0x00\n      keccak256\n      sload\n        /* \"contracts/crowdfunding.sol\":3115:3152  uint value = contributors[msg.sender] */\n      swap1\n      pop\n        /* \"contracts/crowdfunding.sol\":3211:3220  recipient */\n      dup2\n        /* \"contracts/crowdfunding.sol\":3211:3229  recipient.transfer */\n      0xffffffffffffffffffffffffffffffffffffffff\n      and\n        /* \"contracts/crowdfunding.sol\":3211:3236  recipient.transfer(value) */\n      0x08fc\n        /* \"contracts/crowdfunding.sol\":3230:3235  value */\n      dup3\n        /* \"contracts/crowdfunding.sol\":3211:3236  recipient.transfer(value) */\n      swap1\n      dup2\n      iszero\n      mul\n      swap1\n      mload(0x40)\n      0x00\n      mload(0x40)\n      dup1\n      dup4\n      sub\n      dup2\n      dup6\n      dup9\n      dup9\n      call\n      swap4\n      pop\n      pop\n      pop\n      pop\n      iszero\n      dup1\n      iszero\n      tag_111\n      jumpi\n      returndatasize\n      0x00\n      dup1\n      returndatacopy\n      revert(0x00, returndatasize)\n    tag_111:\n      pop\n        /* \"contracts/crowdfunding.sol\":3318:3319  0 */\n      0x00\n        /* \"contracts/crowdfunding.sol\":3291:3303  contributors */\n      dup1\n        /* \"contracts/crowdfunding.sol\":3291:3315  contributors[msg.sender] */\n      0x00\n        /* \"contracts/crowdfunding.sol\":3304:3314  msg.sender */\n      caller\n        /* \"contracts/crowdfunding.sol\":3291:3315  contributors[msg.sender] */\n      0xffffffffffffffffffffffffffffffffffffffff\n      and\n      0xffffffffffffffffffffffffffffffffffffffff\n      and\n      dup2\n      mstore\n      0x20\n      add\n      swap1\n      dup2\n      mstore\n      0x20\n      add\n      0x00\n      keccak256\n        /* \"contracts/crowdfunding.sol\":3291:3319  contributors[msg.sender] = 0 */\n      dup2\n      swap1\n      sstore\n      pop\n        /* \"contracts/crowdfunding.sol\":2760:3329  {\r... */\n      pop\n      pop\n        /* \"contracts/crowdfunding.sol\":2733:3329  function getRefund() public{\r... */\n      jump\t// out\n        /* \"contracts/crowdfunding.sol\":544:568  uint public raisedAmount */\n    tag_62:\n      sload(0x06)\n      dup2\n      jump\t// out\n        /* \"contracts/crowdfunding.sol\":1341:1367  uint public numberRequests */\n    tag_66:\n      sload(0x08)\n      dup2\n      jump\t// out\n        /* \"contracts/crowdfunding.sol\":360:390  uint public numberContributors */\n    tag_71:\n      sload(0x02)\n      dup2\n      jump\t// out\n        /* \"contracts/crowdfunding.sol\":275:295  address public admin */\n    tag_75:\n      0x01\n      0x00\n      swap1\n      sload\n      swap1\n      0x0100\n      exp\n      swap1\n      div\n      0xffffffffffffffffffffffffffffffffffffffff\n      and\n      dup2\n      jump\t// out\n    tag_99:\n      dup3\n      dup1\n      sload\n      tag_112\n      swap1\n      tag_101\n      jump\t// in\n    tag_112:\n      swap1\n      0x00\n      mstore\n      keccak256(0x00, 0x20)\n      swap1\n      0x1f\n      add\n      0x20\n      swap1\n      div\n      dup2\n      add\n      swap3\n      dup3\n      tag_114\n      jumpi\n      0x00\n      dup6\n      sstore\n      jump(tag_113)\n    tag_114:\n      dup3\n      0x1f\n      lt\n      tag_115\n      jumpi\n      dup1\n      mload\n      not(0xff)\n      and\n      dup4\n      dup1\n      add\n      or\n      dup6\n      sstore\n      jump(tag_113)\n    tag_115:\n      dup3\n      dup1\n      add\n      0x01\n      add\n      dup6\n      sstore\n      dup3\n      iszero\n      tag_113\n      jumpi\n      swap2\n      dup3\n      add\n    tag_116:\n      dup3\n      dup2\n      gt\n      iszero\n      tag_117\n      jumpi\n      dup3\n      mload\n      dup3\n      sstore\n      swap2\n      0x20\n      add\n      swap2\n      swap1\n      0x01\n      add\n      swap1\n      jump(tag_116)\n    tag_117:\n    tag_113:\n      pop\n      swap1\n      pop\n      tag_118\n      swap2\n      swap1\n      tag_119\n      jump\t// in\n    tag_118:\n      pop\n      swap1\n      jump\t// out\n    tag_119:\n    tag_120:\n      dup1\n      dup3\n      gt\n      iszero\n      tag_121\n      jumpi\n      0x00\n      dup2\n      0x00\n      swap1\n      sstore\n      pop\n      0x01\n      add\n      jump(tag_120)\n    tag_121:\n      pop\n      swap1\n      jump\t// out\n        /* \"#utility.yul\":7:419   */\n    tag_123:\n        /* \"#utility.yul\":85:90   */\n      0x00\n        /* \"#utility.yul\":110:176   */\n      tag_125\n        /* \"#utility.yul\":126:175   */\n      tag_126\n        /* \"#utility.yul\":168:174   */\n      dup5\n        /* \"#utility.yul\":126:175   */\n      tag_127\n      jump\t// in\n    tag_126:\n        /* \"#utility.yul\":110:176   */\n      tag_128\n      jump\t// in\n    tag_125:\n        /* \"#utility.yul\":101:176   */\n      swap1\n      pop\n        /* \"#utility.yul\":199:205   */\n      dup3\n        /* \"#utility.yul\":192:197   */\n      dup2\n        /* \"#utility.yul\":185:206   */\n      mstore\n        /* \"#utility.yul\":237:241   */\n      0x20\n        /* \"#utility.yul\":230:235   */\n      dup2\n        /* \"#utility.yul\":226:242   */\n      add\n        /* \"#utility.yul\":275:278   */\n      dup5\n        /* \"#utility.yul\":266:272   */\n      dup5\n        /* \"#utility.yul\":261:264   */\n      dup5\n        /* \"#utility.yul\":257:273   */\n      add\n        /* \"#utility.yul\":254:279   */\n      gt\n        /* \"#utility.yul\":251:363   */\n      iszero\n      tag_129\n      jumpi\n        /* \"#utility.yul\":282:361   */\n      tag_130\n      tag_131\n      jump\t// in\n    tag_130:\n        /* \"#utility.yul\":251:363   */\n    tag_129:\n        /* \"#utility.yul\":372:413   */\n      tag_132\n        /* \"#utility.yul\":406:412   */\n      dup5\n        /* \"#utility.yul\":401:404   */\n      dup3\n        /* \"#utility.yul\":396:399   */\n      dup6\n        /* \"#utility.yul\":372:413   */\n      tag_133\n      jump\t// in\n    tag_132:\n        /* \"#utility.yul\":91:419   */\n      pop\n        /* \"#utility.yul\":7:419   */\n      swap4\n      swap3\n      pop\n      pop\n      pop\n      jump\t// out\n        /* \"#utility.yul\":425:564   */\n    tag_134:\n        /* \"#utility.yul\":471:476   */\n      0x00\n        /* \"#utility.yul\":509:515   */\n      dup2\n        /* \"#utility.yul\":496:516   */\n      calldataload\n        /* \"#utility.yul\":487:516   */\n      swap1\n      pop\n        /* \"#utility.yul\":525:558   */\n      tag_136\n        /* \"#utility.yul\":552:557   */\n      dup2\n        /* \"#utility.yul\":525:558   */\n      tag_137\n      jump\t// in\n    tag_136:\n        /* \"#utility.yul\":425:564   */\n      swap3\n      swap2\n      pop\n      pop\n      jump\t// out\n        /* \"#utility.yul\":570:725   */\n    tag_138:\n        /* \"#utility.yul\":624:629   */\n      0x00\n        /* \"#utility.yul\":662:668   */\n      dup2\n        /* \"#utility.yul\":649:669   */\n      calldataload\n        /* \"#utility.yul\":640:669   */\n      swap1\n      pop\n        /* \"#utility.yul\":678:719   */\n      tag_140\n        /* \"#utility.yul\":713:718   */\n      dup2\n        /* \"#utility.yul\":678:719   */\n      tag_141\n      jump\t// in\n    tag_140:\n        /* \"#utility.yul\":570:725   */\n      swap3\n      swap2\n      pop\n      pop\n      jump\t// out\n        /* \"#utility.yul\":745:1085   */\n    tag_142:\n        /* \"#utility.yul\":801:806   */\n      0x00\n        /* \"#utility.yul\":850:853   */\n      dup3\n        /* \"#utility.yul\":843:847   */\n      0x1f\n        /* \"#utility.yul\":835:841   */\n      dup4\n        /* \"#utility.yul\":831:848   */\n      add\n        /* \"#utility.yul\":827:854   */\n      slt\n        /* \"#utility.yul\":817:939   */\n      tag_144\n      jumpi\n        /* \"#utility.yul\":858:937   */\n      tag_145\n      tag_146\n      jump\t// in\n    tag_145:\n        /* \"#utility.yul\":817:939   */\n    tag_144:\n        /* \"#utility.yul\":975:981   */\n      dup2\n        /* \"#utility.yul\":962:982   */\n      calldataload\n        /* \"#utility.yul\":1000:1079   */\n      tag_147\n        /* \"#utility.yul\":1075:1078   */\n      dup5\n        /* \"#utility.yul\":1067:1073   */\n      dup3\n        /* \"#utility.yul\":1060:1064   */\n      0x20\n        /* \"#utility.yul\":1052:1058   */\n      dup7\n        /* \"#utility.yul\":1048:1065   */\n      add\n        /* \"#utility.yul\":1000:1079   */\n      tag_123\n      jump\t// in\n    tag_147:\n        /* \"#utility.yul\":991:1079   */\n      swap2\n      pop\n        /* \"#utility.yul\":807:1085   */\n      pop\n        /* \"#utility.yul\":745:1085   */\n      swap3\n      swap2\n      pop\n      pop\n      jump\t// out\n        /* \"#utility.yul\":1091:1230   */\n    tag_148:\n        /* \"#utility.yul\":1137:1142   */\n      0x00\n        /* \"#utility.yul\":1175:1181   */\n      dup2\n        /* \"#utility.yul\":1162:1182   */\n      calldataload\n        /* \"#utility.yul\":1153:1182   */\n      swap1\n      pop\n        /* \"#utility.yul\":1191:1224   */\n      tag_150\n        /* \"#utility.yul\":1218:1223   */\n      dup2\n        /* \"#utility.yul\":1191:1224   */\n      tag_151\n      jump\t// in\n    tag_150:\n        /* \"#utility.yul\":1091:1230   */\n      swap3\n      swap2\n      pop\n      pop\n      jump\t// out\n        /* \"#utility.yul\":1236:1565   */\n    tag_35:\n        /* \"#utility.yul\":1295:1301   */\n      0x00\n        /* \"#utility.yul\":1344:1346   */\n      0x20\n        /* \"#utility.yul\":1332:1341   */\n      dup3\n        /* \"#utility.yul\":1323:1330   */\n      dup5\n        /* \"#utility.yul\":1319:1342   */\n      sub\n        /* \"#utility.yul\":1315:1347   */\n      slt\n        /* \"#utility.yul\":1312:1431   */\n      iszero\n      tag_153\n      jumpi\n        /* \"#utility.yul\":1350:1429   */\n      tag_154\n      tag_155\n      jump\t// in\n    tag_154:\n        /* \"#utility.yul\":1312:1431   */\n    tag_153:\n        /* \"#utility.yul\":1470:1471   */\n      0x00\n        /* \"#utility.yul\":1495:1548   */\n      tag_156\n        /* \"#utility.yul\":1540:1547   */\n      dup5\n        /* \"#utility.yul\":1531:1537   */\n      dup3\n        /* \"#utility.yul\":1520:1529   */\n      dup6\n        /* \"#utility.yul\":1516:1538   */\n      add\n        /* \"#utility.yul\":1495:1548   */\n      tag_134\n      jump\t// in\n    tag_156:\n        /* \"#utility.yul\":1485:1548   */\n      swap2\n      pop\n        /* \"#utility.yul\":1441:1558   */\n      pop\n        /* \"#utility.yul\":1236:1565   */\n      swap3\n      swap2\n      pop\n      pop\n      jump\t// out\n        /* \"#utility.yul\":1571:2386   */\n    tag_30:\n        /* \"#utility.yul\":1666:1672   */\n      0x00\n        /* \"#utility.yul\":1674:1680   */\n      dup1\n        /* \"#utility.yul\":1682:1688   */\n      0x00\n        /* \"#utility.yul\":1731:1733   */\n      0x60\n        /* \"#utility.yul\":1719:1728   */\n      dup5\n        /* \"#utility.yul\":1710:1717   */\n      dup7\n        /* \"#utility.yul\":1706:1729   */\n      sub\n        /* \"#utility.yul\":1702:1734   */\n      slt\n        /* \"#utility.yul\":1699:1818   */\n      iszero\n      tag_158\n      jumpi\n        /* \"#utility.yul\":1737:1816   */\n      tag_159\n      tag_155\n      jump\t// in\n    tag_159:\n        /* \"#utility.yul\":1699:1818   */\n    tag_158:\n        /* \"#utility.yul\":1885:1886   */\n      0x00\n        /* \"#utility.yul\":1874:1883   */\n      dup5\n        /* \"#utility.yul\":1870:1887   */\n      add\n        /* \"#utility.yul\":1857:1888   */\n      calldataload\n        /* \"#utility.yul\":1915:1933   */\n      0xffffffffffffffff\n        /* \"#utility.yul\":1907:1913   */\n      dup2\n        /* \"#utility.yul\":1904:1934   */\n      gt\n        /* \"#utility.yul\":1901:2018   */\n      iszero\n      tag_160\n      jumpi\n        /* \"#utility.yul\":1937:2016   */\n      tag_161\n      tag_162\n      jump\t// in\n    tag_161:\n        /* \"#utility.yul\":1901:2018   */\n    tag_160:\n        /* \"#utility.yul\":2042:2105   */\n      tag_163\n        /* \"#utility.yul\":2097:2104   */\n      dup7\n        /* \"#utility.yul\":2088:2094   */\n      dup3\n        /* \"#utility.yul\":2077:2086   */\n      dup8\n        /* \"#utility.yul\":2073:2095   */\n      add\n        /* \"#utility.yul\":2042:2105   */\n      tag_142\n      jump\t// in\n    tag_163:\n        /* \"#utility.yul\":2032:2105   */\n      swap4\n      pop\n        /* \"#utility.yul\":1828:2115   */\n      pop\n        /* \"#utility.yul\":2154:2156   */\n      0x20\n        /* \"#utility.yul\":2180:2241   */\n      tag_164\n        /* \"#utility.yul\":2233:2240   */\n      dup7\n        /* \"#utility.yul\":2224:2230   */\n      dup3\n        /* \"#utility.yul\":2213:2222   */\n      dup8\n        /* \"#utility.yul\":2209:2231   */\n      add\n        /* \"#utility.yul\":2180:2241   */\n      tag_138\n      jump\t// in\n    tag_164:\n        /* \"#utility.yul\":2170:2241   */\n      swap3\n      pop\n        /* \"#utility.yul\":2125:2251   */\n      pop\n        /* \"#utility.yul\":2290:2292   */\n      0x40\n        /* \"#utility.yul\":2316:2369   */\n      tag_165\n        /* \"#utility.yul\":2361:2368   */\n      dup7\n        /* \"#utility.yul\":2352:2358   */\n      dup3\n        /* \"#utility.yul\":2341:2350   */\n      dup8\n        /* \"#utility.yul\":2337:2359   */\n      add\n        /* \"#utility.yul\":2316:2369   */\n      tag_148\n      jump\t// in\n    tag_165:\n        /* \"#utility.yul\":2306:2369   */\n      swap2\n      pop\n        /* \"#utility.yul\":2261:2379   */\n      pop\n        /* \"#utility.yul\":1571:2386   */\n      swap3\n      pop\n      swap3\n      pop\n      swap3\n      jump\t// out\n        /* \"#utility.yul\":2392:2721   */\n    tag_49:\n        /* \"#utility.yul\":2451:2457   */\n      0x00\n        /* \"#utility.yul\":2500:2502   */\n      0x20\n        /* \"#utility.yul\":2488:2497   */\n      dup3\n        /* \"#utility.yul\":2479:2486   */\n      dup5\n        /* \"#utility.yul\":2475:2498   */\n      sub\n        /* \"#utility.yul\":2471:2503   */\n      slt\n        /* \"#utility.yul\":2468:2587   */\n      iszero\n      tag_167\n      jumpi\n        /* \"#utility.yul\":2506:2585   */\n      tag_168\n      tag_155\n      jump\t// in\n    tag_168:\n        /* \"#utility.yul\":2468:2587   */\n    tag_167:\n        /* \"#utility.yul\":2626:2627   */\n      0x00\n        /* \"#utility.yul\":2651:2704   */\n      tag_169\n        /* \"#utility.yul\":2696:2703   */\n      dup5\n        /* \"#utility.yul\":2687:2693   */\n      dup3\n        /* \"#utility.yul\":2676:2685   */\n      dup6\n        /* \"#utility.yul\":2672:2694   */\n      add\n        /* \"#utility.yul\":2651:2704   */\n      tag_148\n      jump\t// in\n    tag_169:\n        /* \"#utility.yul\":2641:2704   */\n      swap2\n      pop\n        /* \"#utility.yul\":2597:2714   */\n      pop\n        /* \"#utility.yul\":2392:2721   */\n      swap3\n      swap2\n      pop\n      pop\n      jump\t// out\n        /* \"#utility.yul\":2727:2869   */\n    tag_170:\n        /* \"#utility.yul\":2830:2862   */\n      tag_172\n        /* \"#utility.yul\":2856:2861   */\n      dup2\n        /* \"#utility.yul\":2830:2862   */\n      tag_173\n      jump\t// in\n    tag_172:\n        /* \"#utility.yul\":2825:2828   */\n      dup3\n        /* \"#utility.yul\":2818:2863   */\n      mstore\n        /* \"#utility.yul\":2727:2869   */\n      pop\n      pop\n      jump\t// out\n        /* \"#utility.yul\":2875:2993   */\n    tag_174:\n        /* \"#utility.yul\":2962:2986   */\n      tag_176\n        /* \"#utility.yul\":2980:2985   */\n      dup2\n        /* \"#utility.yul\":2962:2986   */\n      tag_177\n      jump\t// in\n    tag_176:\n        /* \"#utility.yul\":2957:2960   */\n      dup3\n        /* \"#utility.yul\":2950:2987   */\n      mstore\n        /* \"#utility.yul\":2875:2993   */\n      pop\n      pop\n      jump\t// out\n        /* \"#utility.yul\":2999:3108   */\n    tag_178:\n        /* \"#utility.yul\":3080:3101   */\n      tag_180\n        /* \"#utility.yul\":3095:3100   */\n      dup2\n        /* \"#utility.yul\":3080:3101   */\n      tag_181\n      jump\t// in\n    tag_180:\n        /* \"#utility.yul\":3075:3078   */\n      dup3\n        /* \"#utility.yul\":3068:3102   */\n      mstore\n        /* \"#utility.yul\":2999:3108   */\n      pop\n      pop\n      jump\t// out\n        /* \"#utility.yul\":3114:3478   */\n    tag_182:\n        /* \"#utility.yul\":3202:3205   */\n      0x00\n        /* \"#utility.yul\":3230:3269   */\n      tag_184\n        /* \"#utility.yul\":3263:3268   */\n      dup3\n        /* \"#utility.yul\":3230:3269   */\n      tag_185\n      jump\t// in\n    tag_184:\n        /* \"#utility.yul\":3285:3356   */\n      tag_186\n        /* \"#utility.yul\":3349:3355   */\n      dup2\n        /* \"#utility.yul\":3344:3347   */\n      dup6\n        /* \"#utility.yul\":3285:3356   */\n      tag_187\n      jump\t// in\n    tag_186:\n        /* \"#utility.yul\":3278:3356   */\n      swap4\n      pop\n        /* \"#utility.yul\":3365:3417   */\n      tag_188\n        /* \"#utility.yul\":3410:3416   */\n      dup2\n        /* \"#utility.yul\":3405:3408   */\n      dup6\n        /* \"#utility.yul\":3398:3402   */\n      0x20\n        /* \"#utility.yul\":3391:3396   */\n      dup7\n        /* \"#utility.yul\":3387:3403   */\n      add\n        /* \"#utility.yul\":3365:3417   */\n      tag_189\n      jump\t// in\n    tag_188:\n        /* \"#utility.yul\":3442:3471   */\n      tag_190\n        /* \"#utility.yul\":3464:3470   */\n      dup2\n        /* \"#utility.yul\":3442:3471   */\n      tag_191\n      jump\t// in\n    tag_190:\n        /* \"#utility.yul\":3437:3440   */\n      dup5\n        /* \"#utility.yul\":3433:3472   */\n      add\n        /* \"#utility.yul\":3426:3472   */\n      swap2\n      pop\n        /* \"#utility.yul\":3206:3478   */\n      pop\n        /* \"#utility.yul\":3114:3478   */\n      swap3\n      swap2\n      pop\n      pop\n      jump\t// out\n        /* \"#utility.yul\":3484:3850   */\n    tag_192:\n        /* \"#utility.yul\":3626:3629   */\n      0x00\n        /* \"#utility.yul\":3647:3714   */\n      tag_194\n        /* \"#utility.yul\":3711:3713   */\n      0x14\n        /* \"#utility.yul\":3706:3709   */\n      dup4\n        /* \"#utility.yul\":3647:3714   */\n      tag_187\n      jump\t// in\n    tag_194:\n        /* \"#utility.yul\":3640:3714   */\n      swap2\n      pop\n        /* \"#utility.yul\":3723:3816   */\n      tag_195\n        /* \"#utility.yul\":3812:3815   */\n      dup3\n        /* \"#utility.yul\":3723:3816   */\n      tag_196\n      jump\t// in\n    tag_195:\n        /* \"#utility.yul\":3841:3843   */\n      0x20\n        /* \"#utility.yul\":3836:3839   */\n      dup3\n        /* \"#utility.yul\":3832:3844   */\n      add\n        /* \"#utility.yul\":3825:3844   */\n      swap1\n      pop\n        /* \"#utility.yul\":3484:3850   */\n      swap2\n      swap1\n      pop\n      jump\t// out\n        /* \"#utility.yul\":3856:4222   */\n    tag_197:\n        /* \"#utility.yul\":3998:4001   */\n      0x00\n        /* \"#utility.yul\":4019:4086   */\n      tag_199\n        /* \"#utility.yul\":4083:4085   */\n      0x1a\n        /* \"#utility.yul\":4078:4081   */\n      dup4\n        /* \"#utility.yul\":4019:4086   */\n      tag_187\n      jump\t// in\n    tag_199:\n        /* \"#utility.yul\":4012:4086   */\n      swap2\n      pop\n        /* \"#utility.yul\":4095:4188   */\n      tag_200\n        /* \"#utility.yul\":4184:4187   */\n      dup3\n        /* \"#utility.yul\":4095:4188   */\n      tag_201\n      jump\t// in\n    tag_200:\n        /* \"#utility.yul\":4213:4215   */\n      0x20\n        /* \"#utility.yul\":4208:4211   */\n      dup3\n        /* \"#utility.yul\":4204:4216   */\n      add\n        /* \"#utility.yul\":4197:4216   */\n      swap1\n      pop\n        /* \"#utility.yul\":3856:4222   */\n      swap2\n      swap1\n      pop\n      jump\t// out\n        /* \"#utility.yul\":4228:4594   */\n    tag_202:\n        /* \"#utility.yul\":4370:4373   */\n      0x00\n        /* \"#utility.yul\":4391:4458   */\n      tag_204\n        /* \"#utility.yul\":4455:4457   */\n      0x1d\n        /* \"#utility.yul\":4450:4453   */\n      dup4\n        /* \"#utility.yul\":4391:4458   */\n      tag_187\n      jump\t// in\n    tag_204:\n        /* \"#utility.yul\":4384:4458   */\n      swap2\n      pop\n        /* \"#utility.yul\":4467:4560   */\n      tag_205\n        /* \"#utility.yul\":4556:4559   */\n      dup3\n        /* \"#utility.yul\":4467:4560   */\n      tag_206\n      jump\t// in\n    tag_205:\n        /* \"#utility.yul\":4585:4587   */\n      0x20\n        /* \"#utility.yul\":4580:4583   */\n      dup3\n        /* \"#utility.yul\":4576:4588   */\n      add\n        /* \"#utility.yul\":4569:4588   */\n      swap1\n      pop\n        /* \"#utility.yul\":4228:4594   */\n      swap2\n      swap1\n      pop\n      jump\t// out\n        /* \"#utility.yul\":4600:4718   */\n    tag_207:\n        /* \"#utility.yul\":4687:4711   */\n      tag_209\n        /* \"#utility.yul\":4705:4710   */\n      dup2\n        /* \"#utility.yul\":4687:4711   */\n      tag_210\n      jump\t// in\n    tag_209:\n        /* \"#utility.yul\":4682:4685   */\n      dup3\n        /* \"#utility.yul\":4675:4712   */\n      mstore\n        /* \"#utility.yul\":4600:4718   */\n      pop\n      pop\n      jump\t// out\n        /* \"#utility.yul\":4724:4946   */\n    tag_77:\n        /* \"#utility.yul\":4817:4821   */\n      0x00\n        /* \"#utility.yul\":4855:4857   */\n      0x20\n        /* \"#utility.yul\":4844:4853   */\n      dup3\n        /* \"#utility.yul\":4840:4858   */\n      add\n        /* \"#utility.yul\":4832:4858   */\n      swap1\n      pop\n        /* \"#utility.yul\":4868:4939   */\n      tag_212\n        /* \"#utility.yul\":4936:4937   */\n      0x00\n        /* \"#utility.yul\":4925:4934   */\n      dup4\n        /* \"#utility.yul\":4921:4938   */\n      add\n        /* \"#utility.yul\":4912:4918   */\n      dup5\n        /* \"#utility.yul\":4868:4939   */\n      tag_174\n      jump\t// in\n    tag_212:\n        /* \"#utility.yul\":4724:4946   */\n      swap3\n      swap2\n      pop\n      pop\n      jump\t// out\n        /* \"#utility.yul\":4952:5727   */\n    tag_52:\n        /* \"#utility.yul\":5187:5191   */\n      0x00\n        /* \"#utility.yul\":5225:5228   */\n      0xa0\n        /* \"#utility.yul\":5214:5223   */\n      dup3\n        /* \"#utility.yul\":5210:5229   */\n      add\n        /* \"#utility.yul\":5202:5229   */\n      swap1\n      pop\n        /* \"#utility.yul\":5275:5284   */\n      dup2\n        /* \"#utility.yul\":5269:5273   */\n      dup2\n        /* \"#utility.yul\":5265:5285   */\n      sub\n        /* \"#utility.yul\":5261:5262   */\n      0x00\n        /* \"#utility.yul\":5250:5259   */\n      dup4\n        /* \"#utility.yul\":5246:5263   */\n      add\n        /* \"#utility.yul\":5239:5286   */\n      mstore\n        /* \"#utility.yul\":5303:5381   */\n      tag_214\n        /* \"#utility.yul\":5376:5380   */\n      dup2\n        /* \"#utility.yul\":5367:5373   */\n      dup9\n        /* \"#utility.yul\":5303:5381   */\n      tag_182\n      jump\t// in\n    tag_214:\n        /* \"#utility.yul\":5295:5381   */\n      swap1\n      pop\n        /* \"#utility.yul\":5391:5479   */\n      tag_215\n        /* \"#utility.yul\":5475:5477   */\n      0x20\n        /* \"#utility.yul\":5464:5473   */\n      dup4\n        /* \"#utility.yul\":5460:5478   */\n      add\n        /* \"#utility.yul\":5451:5457   */\n      dup8\n        /* \"#utility.yul\":5391:5479   */\n      tag_170\n      jump\t// in\n    tag_215:\n        /* \"#utility.yul\":5489:5561   */\n      tag_216\n        /* \"#utility.yul\":5557:5559   */\n      0x40\n        /* \"#utility.yul\":5546:5555   */\n      dup4\n        /* \"#utility.yul\":5542:5560   */\n      add\n        /* \"#utility.yul\":5533:5539   */\n      dup7\n        /* \"#utility.yul\":5489:5561   */\n      tag_207\n      jump\t// in\n    tag_216:\n        /* \"#utility.yul\":5571:5637   */\n      tag_217\n        /* \"#utility.yul\":5633:5635   */\n      0x60\n        /* \"#utility.yul\":5622:5631   */\n      dup4\n        /* \"#utility.yul\":5618:5636   */\n      add\n        /* \"#utility.yul\":5609:5615   */\n      dup6\n        /* \"#utility.yul\":5571:5637   */\n      tag_178\n      jump\t// in\n    tag_217:\n        /* \"#utility.yul\":5647:5720   */\n      tag_218\n        /* \"#utility.yul\":5715:5718   */\n      0x80\n        /* \"#utility.yul\":5704:5713   */\n      dup4\n        /* \"#utility.yul\":5700:5719   */\n      add\n        /* \"#utility.yul\":5691:5697   */\n      dup5\n        /* \"#utility.yul\":5647:5720   */\n      tag_207\n      jump\t// in\n    tag_218:\n        /* \"#utility.yul\":4952:5727   */\n      swap7\n      swap6\n      pop\n      pop\n      pop\n      pop\n      pop\n      pop\n      jump\t// out\n        /* \"#utility.yul\":5733:6152   */\n    tag_81:\n        /* \"#utility.yul\":5899:5903   */\n      0x00\n        /* \"#utility.yul\":5937:5939   */\n      0x20\n        /* \"#utility.yul\":5926:5935   */\n      dup3\n        /* \"#utility.yul\":5922:5940   */\n      add\n        /* \"#utility.yul\":5914:5940   */\n      swap1\n      pop\n        /* \"#utility.yul\":5986:5995   */\n      dup2\n        /* \"#utility.yul\":5980:5984   */\n      dup2\n        /* \"#utility.yul\":5976:5996   */\n      sub\n        /* \"#utility.yul\":5972:5973   */\n      0x00\n        /* \"#utility.yul\":5961:5970   */\n      dup4\n        /* \"#utility.yul\":5957:5974   */\n      add\n        /* \"#utility.yul\":5950:5997   */\n      mstore\n        /* \"#utility.yul\":6014:6145   */\n      tag_220\n        /* \"#utility.yul\":6140:6144   */\n      dup2\n        /* \"#utility.yul\":6014:6145   */\n      tag_192\n      jump\t// in\n    tag_220:\n        /* \"#utility.yul\":6006:6145   */\n      swap1\n      pop\n        /* \"#utility.yul\":5733:6152   */\n      swap2\n      swap1\n      pop\n      jump\t// out\n        /* \"#utility.yul\":6158:6577   */\n    tag_95:\n        /* \"#utility.yul\":6324:6328   */\n      0x00\n        /* \"#utility.yul\":6362:6364   */\n      0x20\n        /* \"#utility.yul\":6351:6360   */\n      dup3\n        /* \"#utility.yul\":6347:6365   */\n      add\n        /* \"#utility.yul\":6339:6365   */\n      swap1\n      pop\n        /* \"#utility.yul\":6411:6420   */\n      dup2\n        /* \"#utility.yul\":6405:6409   */\n      dup2\n        /* \"#utility.yul\":6401:6421   */\n      sub\n        /* \"#utility.yul\":6397:6398   */\n      0x00\n        /* \"#utility.yul\":6386:6395   */\n      dup4\n        /* \"#utility.yul\":6382:6399   */\n      add\n        /* \"#utility.yul\":6375:6422   */\n      mstore\n        /* \"#utility.yul\":6439:6570   */\n      tag_222\n        /* \"#utility.yul\":6565:6569   */\n      dup2\n        /* \"#utility.yul\":6439:6570   */\n      tag_197\n      jump\t// in\n    tag_222:\n        /* \"#utility.yul\":6431:6570   */\n      swap1\n      pop\n        /* \"#utility.yul\":6158:6577   */\n      swap2\n      swap1\n      pop\n      jump\t// out\n        /* \"#utility.yul\":6583:7002   */\n    tag_84:\n        /* \"#utility.yul\":6749:6753   */\n      0x00\n        /* \"#utility.yul\":6787:6789   */\n      0x20\n        /* \"#utility.yul\":6776:6785   */\n      dup3\n        /* \"#utility.yul\":6772:6790   */\n      add\n        /* \"#utility.yul\":6764:6790   */\n      swap1\n      pop\n        /* \"#utility.yul\":6836:6845   */\n      dup2\n        /* \"#utility.yul\":6830:6834   */\n      dup2\n        /* \"#utility.yul\":6826:6846   */\n      sub\n        /* \"#utility.yul\":6822:6823   */\n      0x00\n        /* \"#utility.yul\":6811:6820   */\n      dup4\n        /* \"#utility.yul\":6807:6824   */\n      add\n        /* \"#utility.yul\":6800:6847   */\n      mstore\n        /* \"#utility.yul\":6864:6995   */\n      tag_224\n        /* \"#utility.yul\":6990:6994   */\n      dup2\n        /* \"#utility.yul\":6864:6995   */\n      tag_202\n      jump\t// in\n    tag_224:\n        /* \"#utility.yul\":6856:6995   */\n      swap1\n      pop\n        /* \"#utility.yul\":6583:7002   */\n      swap2\n      swap1\n      pop\n      jump\t// out\n        /* \"#utility.yul\":7008:7230   */\n    tag_26:\n        /* \"#utility.yul\":7101:7105   */\n      0x00\n        /* \"#utility.yul\":7139:7141   */\n      0x20\n        /* \"#utility.yul\":7128:7137   */\n      dup3\n        /* \"#utility.yul\":7124:7142   */\n      add\n        /* \"#utility.yul\":7116:7142   */\n      swap1\n      pop\n        /* \"#utility.yul\":7152:7223   */\n      tag_226\n        /* \"#utility.yul\":7220:7221   */\n      0x00\n        /* \"#utility.yul\":7209:7218   */\n      dup4\n        /* \"#utility.yul\":7205:7222   */\n      add\n        /* \"#utility.yul\":7196:7202   */\n      dup5\n        /* \"#utility.yul\":7152:7223   */\n      tag_207\n      jump\t// in\n    tag_226:\n        /* \"#utility.yul\":7008:7230   */\n      swap3\n      swap2\n      pop\n      pop\n      jump\t// out\n        /* \"#utility.yul\":7236:7365   */\n    tag_128:\n        /* \"#utility.yul\":7270:7276   */\n      0x00\n        /* \"#utility.yul\":7297:7317   */\n      tag_228\n      tag_229\n      jump\t// in\n    tag_228:\n        /* \"#utility.yul\":7287:7317   */\n      swap1\n      pop\n        /* \"#utility.yul\":7326:7359   */\n      tag_230\n        /* \"#utility.yul\":7354:7358   */\n      dup3\n        /* \"#utility.yul\":7346:7352   */\n      dup3\n        /* \"#utility.yul\":7326:7359   */\n      tag_231\n      jump\t// in\n    tag_230:\n        /* \"#utility.yul\":7236:7365   */\n      swap2\n      swap1\n      pop\n      jump\t// out\n        /* \"#utility.yul\":7371:7446   */\n    tag_229:\n        /* \"#utility.yul\":7404:7410   */\n      0x00\n        /* \"#utility.yul\":7437:7439   */\n      0x40\n        /* \"#utility.yul\":7431:7440   */\n      mload\n        /* \"#utility.yul\":7421:7440   */\n      swap1\n      pop\n        /* \"#utility.yul\":7371:7446   */\n      swap1\n      jump\t// out\n        /* \"#utility.yul\":7452:7760   */\n    tag_127:\n        /* \"#utility.yul\":7514:7518   */\n      0x00\n        /* \"#utility.yul\":7604:7622   */\n      0xffffffffffffffff\n        /* \"#utility.yul\":7596:7602   */\n      dup3\n        /* \"#utility.yul\":7593:7623   */\n      gt\n        /* \"#utility.yul\":7590:7646   */\n      iszero\n      tag_234\n      jumpi\n        /* \"#utility.yul\":7626:7644   */\n      tag_235\n      tag_236\n      jump\t// in\n    tag_235:\n        /* \"#utility.yul\":7590:7646   */\n    tag_234:\n        /* \"#utility.yul\":7664:7693   */\n      tag_237\n        /* \"#utility.yul\":7686:7692   */\n      dup3\n        /* \"#utility.yul\":7664:7693   */\n      tag_191\n      jump\t// in\n    tag_237:\n        /* \"#utility.yul\":7656:7693   */\n      swap1\n      pop\n        /* \"#utility.yul\":7748:7752   */\n      0x20\n        /* \"#utility.yul\":7742:7746   */\n      dup2\n        /* \"#utility.yul\":7738:7753   */\n      add\n        /* \"#utility.yul\":7730:7753   */\n      swap1\n      pop\n        /* \"#utility.yul\":7452:7760   */\n      swap2\n      swap1\n      pop\n      jump\t// out\n        /* \"#utility.yul\":7766:7865   */\n    tag_185:\n        /* \"#utility.yul\":7818:7824   */\n      0x00\n        /* \"#utility.yul\":7852:7857   */\n      dup2\n        /* \"#utility.yul\":7846:7858   */\n      mload\n        /* \"#utility.yul\":7836:7858   */\n      swap1\n      pop\n        /* \"#utility.yul\":7766:7865   */\n      swap2\n      swap1\n      pop\n      jump\t// out\n        /* \"#utility.yul\":7871:8040   */\n    tag_187:\n        /* \"#utility.yul\":7955:7966   */\n      0x00\n        /* \"#utility.yul\":7989:7995   */\n      dup3\n        /* \"#utility.yul\":7984:7987   */\n      dup3\n        /* \"#utility.yul\":7977:7996   */\n      mstore\n        /* \"#utility.yul\":8029:8033   */\n      0x20\n        /* \"#utility.yul\":8024:8027   */\n      dup3\n        /* \"#utility.yul\":8020:8034   */\n      add\n        /* \"#utility.yul\":8005:8034   */\n      swap1\n      pop\n        /* \"#utility.yul\":7871:8040   */\n      swap3\n      swap2\n      pop\n      pop\n      jump\t// out\n        /* \"#utility.yul\":8046:8351   */\n    tag_89:\n        /* \"#utility.yul\":8086:8089   */\n      0x00\n        /* \"#utility.yul\":8105:8125   */\n      tag_241\n        /* \"#utility.yul\":8123:8124   */\n      dup3\n        /* \"#utility.yul\":8105:8125   */\n      tag_210\n      jump\t// in\n    tag_241:\n        /* \"#utility.yul\":8100:8125   */\n      swap2\n      pop\n        /* \"#utility.yul\":8139:8159   */\n      tag_242\n        /* \"#utility.yul\":8157:8158   */\n      dup4\n        /* \"#utility.yul\":8139:8159   */\n      tag_210\n      jump\t// in\n    tag_242:\n        /* \"#utility.yul\":8134:8159   */\n      swap3\n      pop\n        /* \"#utility.yul\":8293:8294   */\n      dup3\n        /* \"#utility.yul\":8225:8291   */\n      0xffffffffffffffffffffffffffffffffffffffffffffffffffffffffffffffff\n        /* \"#utility.yul\":8221:8295   */\n      sub\n        /* \"#utility.yul\":8218:8219   */\n      dup3\n        /* \"#utility.yul\":8215:8296   */\n      gt\n        /* \"#utility.yul\":8212:8319   */\n      iszero\n      tag_243\n      jumpi\n        /* \"#utility.yul\":8299:8317   */\n      tag_244\n      tag_245\n      jump\t// in\n    tag_244:\n        /* \"#utility.yul\":8212:8319   */\n    tag_243:\n        /* \"#utility.yul\":8343:8344   */\n      dup3\n        /* \"#utility.yul\":8340:8341   */\n      dup3\n        /* \"#utility.yul\":8336:8345   */\n      add\n        /* \"#utility.yul\":8329:8345   */\n      swap1\n      pop\n        /* \"#utility.yul\":8046:8351   */\n      swap3\n      swap2\n      pop\n      pop\n      jump\t// out\n        /* \"#utility.yul\":8357:8453   */\n    tag_177:\n        /* \"#utility.yul\":8394:8401   */\n      0x00\n        /* \"#utility.yul\":8423:8447   */\n      tag_247\n        /* \"#utility.yul\":8441:8446   */\n      dup3\n        /* \"#utility.yul\":8423:8447   */\n      tag_248\n      jump\t// in\n    tag_247:\n        /* \"#utility.yul\":8412:8447   */\n      swap1\n      pop\n        /* \"#utility.yul\":8357:8453   */\n      swap2\n      swap1\n      pop\n      jump\t// out\n        /* \"#utility.yul\":8459:8563   */\n    tag_173:\n        /* \"#utility.yul\":8504:8511   */\n      0x00\n        /* \"#utility.yul\":8533:8557   */\n      tag_250\n        /* \"#utility.yul\":8551:8556   */\n      dup3\n        /* \"#utility.yul\":8533:8557   */\n      tag_248\n      jump\t// in\n    tag_250:\n        /* \"#utility.yul\":8522:8557   */\n      swap1\n      pop\n        /* \"#utility.yul\":8459:8563   */\n      swap2\n      swap1\n      pop\n      jump\t// out\n        /* \"#utility.yul\":8569:8659   */\n    tag_181:\n        /* \"#utility.yul\":8603:8610   */\n      0x00\n        /* \"#utility.yul\":8646:8651   */\n      dup2\n        /* \"#utility.yul\":8639:8652   */\n      iszero\n        /* \"#utility.yul\":8632:8653   */\n      iszero\n        /* \"#utility.yul\":8621:8653   */\n      swap1\n      pop\n        /* \"#utility.yul\":8569:8659   */\n      swap2\n      swap1\n      pop\n      jump\t// out\n        /* \"#utility.yul\":8665:8791   */\n    tag_248:\n        /* \"#utility.yul\":8702:8709   */\n      0x00\n        /* \"#utility.yul\":8742:8784   */\n      0xffffffffffffffffffffffffffffffffffffffff\n        /* \"#utility.yul\":8735:8740   */\n      dup3\n        /* \"#utility.yul\":8731:8785   */\n      and\n        /* \"#utility.yul\":8720:8785   */\n      swap1\n      pop\n        /* \"#utility.yul\":8665:8791   */\n      swap2\n      swap1\n      pop\n      jump\t// out\n        /* \"#utility.yul\":8797:8874   */\n    tag_210:\n        /* \"#utility.yul\":8834:8841   */\n      0x00\n        /* \"#utility.yul\":8863:8868   */\n      dup2\n        /* \"#utility.yul\":8852:8868   */\n      swap1\n      pop\n        /* \"#utility.yul\":8797:8874   */\n      swap2\n      swap1\n      pop\n      jump\t// out\n        /* \"#utility.yul\":8880:9034   */\n    tag_133:\n        /* \"#utility.yul\":8964:8970   */\n      dup3\n        /* \"#utility.yul\":8959:8962   */\n      dup2\n        /* \"#utility.yul\":8954:8957   */\n      dup4\n        /* \"#utility.yul\":8941:8971   */\n      calldatacopy\n        /* \"#utility.yul\":9026:9027   */\n      0x00\n        /* \"#utility.yul\":9017:9023   */\n      dup4\n        /* \"#utility.yul\":9012:9015   */\n      dup4\n        /* \"#utility.yul\":9008:9024   */\n      add\n        /* \"#utility.yul\":9001:9028   */\n      mstore\n        /* \"#utility.yul\":8880:9034   */\n      pop\n      pop\n      pop\n      jump\t// out\n        /* \"#utility.yul\":9040:9347   */\n    tag_189:\n        /* \"#utility.yul\":9108:9109   */\n      0x00\n        /* \"#utility.yul\":9118:9231   */\n    tag_256:\n        /* \"#utility.yul\":9132:9138   */\n      dup4\n        /* \"#utility.yul\":9129:9130   */\n      dup2\n        /* \"#utility.yul\":9126:9139   */\n      lt\n        /* \"#utility.yul\":9118:9231   */\n      iszero\n      tag_258\n      jumpi\n        /* \"#utility.yul\":9217:9218   */\n      dup1\n        /* \"#utility.yul\":9212:9215   */\n      dup3\n        /* \"#utility.yul\":9208:9219   */\n      add\n        /* \"#utility.yul\":9202:9220   */\n      mload\n        /* \"#utility.yul\":9198:9199   */\n      dup2\n        /* \"#utility.yul\":9193:9196   */\n      dup5\n        /* \"#utility.yul\":9189:9200   */\n      add\n        /* \"#utility.yul\":9182:9221   */\n      mstore\n        /* \"#utility.yul\":9154:9156   */\n      0x20\n        /* \"#utility.yul\":9151:9152   */\n      dup2\n        /* \"#utility.yul\":9147:9157   */\n      add\n        /* \"#utility.yul\":9142:9157   */\n      swap1\n      pop\n        /* \"#utility.yul\":9118:9231   */\n      jump(tag_256)\n    tag_258:\n        /* \"#utility.yul\":9249:9255   */\n      dup4\n        /* \"#utility.yul\":9246:9247   */\n      dup2\n        /* \"#utility.yul\":9243:9256   */\n      gt\n        /* \"#utility.yul\":9240:9341   */\n      iszero\n      tag_259\n      jumpi\n        /* \"#utility.yul\":9329:9330   */\n      0x00\n        /* \"#utility.yul\":9320:9326   */\n      dup5\n        /* \"#utility.yul\":9315:9318   */\n      dup5\n        /* \"#utility.yul\":9311:9327   */\n      add\n        /* \"#utility.yul\":9304:9331   */\n      mstore\n        /* \"#utility.yul\":9240:9341   */\n    tag_259:\n        /* \"#utility.yul\":9089:9347   */\n      pop\n        /* \"#utility.yul\":9040:9347   */\n      pop\n      pop\n      pop\n      jump\t// out\n        /* \"#utility.yul\":9353:9673   */\n    tag_101:\n        /* \"#utility.yul\":9397:9403   */\n      0x00\n        /* \"#utility.yul\":9434:9435   */\n      0x02\n        /* \"#utility.yul\":9428:9432   */\n      dup3\n        /* \"#utility.yul\":9424:9436   */\n      div\n        /* \"#utility.yul\":9414:9436   */\n      swap1\n      pop\n        /* \"#utility.yul\":9481:9482   */\n      0x01\n        /* \"#utility.yul\":9475:9479   */\n      dup3\n        /* \"#utility.yul\":9471:9483   */\n      and\n        /* \"#utility.yul\":9502:9520   */\n      dup1\n        /* \"#utility.yul\":9492:9573   */\n      tag_261\n      jumpi\n        /* \"#utility.yul\":9558:9562   */\n      0x7f\n        /* \"#utility.yul\":9550:9556   */\n      dup3\n        /* \"#utility.yul\":9546:9563   */\n      and\n        /* \"#utility.yul\":9536:9563   */\n      swap2\n      pop\n        /* \"#utility.yul\":9492:9573   */\n    tag_261:\n        /* \"#utility.yul\":9620:9622   */\n      0x20\n        /* \"#utility.yul\":9612:9618   */\n      dup3\n        /* \"#utility.yul\":9609:9623   */\n      lt\n        /* \"#utility.yul\":9589:9607   */\n      dup2\n        /* \"#utility.yul\":9586:9624   */\n      eq\n        /* \"#utility.yul\":9583:9667   */\n      iszero\n      tag_262\n      jumpi\n        /* \"#utility.yul\":9639:9657   */\n      tag_263\n      tag_264\n      jump\t// in\n    tag_263:\n        /* \"#utility.yul\":9583:9667   */\n    tag_262:\n        /* \"#utility.yul\":9404:9673   */\n      pop\n        /* \"#utility.yul\":9353:9673   */\n      swap2\n      swap1\n      pop\n      jump\t// out\n        /* \"#utility.yul\":9679:9960   */\n    tag_231:\n        /* \"#utility.yul\":9762:9789   */\n      tag_266\n        /* \"#utility.yul\":9784:9788   */\n      dup3\n        /* \"#utility.yul\":9762:9789   */\n      tag_191\n      jump\t// in\n    tag_266:\n        /* \"#utility.yul\":9754:9760   */\n      dup2\n        /* \"#utility.yul\":9750:9790   */\n      add\n        /* \"#utility.yul\":9892:9898   */\n      dup2\n        /* \"#utility.yul\":9880:9890   */\n      dup2\n        /* \"#utility.yul\":9877:9899   */\n      lt\n        /* \"#utility.yul\":9856:9874   */\n      0xffffffffffffffff\n        /* \"#utility.yul\":9844:9854   */\n      dup3\n        /* \"#utility.yul\":9841:9875   */\n      gt\n        /* \"#utility.yul\":9838:9900   */\n      or\n        /* \"#utility.yul\":9835:9923   */\n      iszero\n      tag_267\n      jumpi\n        /* \"#utility.yul\":9903:9921   */\n      tag_268\n      tag_236\n      jump\t// in\n    tag_268:\n        /* \"#utility.yul\":9835:9923   */\n    tag_267:\n        /* \"#utility.yul\":9943:9953   */\n      dup1\n        /* \"#utility.yul\":9939:9941   */\n      0x40\n        /* \"#utility.yul\":9932:9954   */\n      mstore\n        /* \"#utility.yul\":9722:9960   */\n      pop\n        /* \"#utility.yul\":9679:9960   */\n      pop\n      pop\n      jump\t// out\n        /* \"#utility.yul\":9966:10199   */\n    tag_87:\n        /* \"#utility.yul\":10005:10008   */\n      0x00\n        /* \"#utility.yul\":10028:10052   */\n      tag_270\n        /* \"#utility.yul\":10046:10051   */\n      dup3\n        /* \"#utility.yul\":10028:10052   */\n      tag_210\n      jump\t// in\n    tag_270:\n        /* \"#utility.yul\":10019:10052   */\n      swap2\n      pop\n        /* \"#utility.yul\":10074:10140   */\n      0xffffffffffffffffffffffffffffffffffffffffffffffffffffffffffffffff\n        /* \"#utility.yul\":10067:10072   */\n      dup3\n        /* \"#utility.yul\":10064:10141   */\n      eq\n        /* \"#utility.yul\":10061:10164   */\n      iszero\n      tag_271\n      jumpi\n        /* \"#utility.yul\":10144:10162   */\n      tag_272\n      tag_245\n      jump\t// in\n    tag_272:\n        /* \"#utility.yul\":10061:10164   */\n    tag_271:\n        /* \"#utility.yul\":10191:10192   */\n      0x01\n        /* \"#utility.yul\":10184:10189   */\n      dup3\n        /* \"#utility.yul\":10180:10193   */\n      add\n        /* \"#utility.yul\":10173:10193   */\n      swap1\n      pop\n        /* \"#utility.yul\":9966:10199   */\n      swap2\n      swap1\n      pop\n      jump\t// out\n        /* \"#utility.yul\":10205:10385   */\n    tag_245:\n        /* \"#utility.yul\":10253:10330   */\n      0x4e487b7100000000000000000000000000000000000000000000000000000000\n        /* \"#utility.yul\":10250:10251   */\n      0x00\n        /* \"#utility.yul\":10243:10331   */\n      mstore\n        /* \"#utility.yul\":10350:10354   */\n      0x11\n        /* \"#utility.yul\":10347:10348   */\n      0x04\n        /* \"#utility.yul\":10340:10355   */\n      mstore\n        /* \"#utility.yul\":10374:10378   */\n      0x24\n        /* \"#utility.yul\":10371:10372   */\n      0x00\n        /* \"#utility.yul\":10364:10379   */\n      revert\n        /* \"#utility.yul\":10391:10571   */\n    tag_264:\n        /* \"#utility.yul\":10439:10516   */\n      0x4e487b7100000000000000000000000000000000000000000000000000000000\n        /* \"#utility.yul\":10436:10437   */\n      0x00\n        /* \"#utility.yul\":10429:10517   */\n      mstore\n        /* \"#utility.yul\":10536:10540   */\n      0x22\n        /* \"#utility.yul\":10533:10534   */\n      0x04\n        /* \"#utility.yul\":10526:10541   */\n      mstore\n        /* \"#utility.yul\":10560:10564   */\n      0x24\n        /* \"#utility.yul\":10557:10558   */\n      0x00\n        /* \"#utility.yul\":10550:10565   */\n      revert\n        /* \"#utility.yul\":10577:10757   */\n    tag_236:\n        /* \"#utility.yul\":10625:10702   */\n      0x4e487b7100000000000000000000000000000000000000000000000000000000\n        /* \"#utility.yul\":10622:10623   */\n      0x00\n        /* \"#utility.yul\":10615:10703   */\n      mstore\n        /* \"#utility.yul\":10722:10726   */\n      0x41\n        /* \"#utility.yul\":10719:10720   */\n      0x04\n        /* \"#utility.yul\":10712:10727   */\n      mstore\n        /* \"#utility.yul\":10746:10750   */\n      0x24\n        /* \"#utility.yul\":10743:10744   */\n      0x00\n        /* \"#utility.yul\":10736:10751   */\n      revert\n        /* \"#utility.yul\":10763:10880   */\n    tag_146:\n        /* \"#utility.yul\":10872:10873   */\n      0x00\n        /* \"#utility.yul\":10869:10870   */\n      dup1\n        /* \"#utility.yul\":10862:10874   */\n      revert\n        /* \"#utility.yul\":10886:11003   */\n    tag_131:\n        /* \"#utility.yul\":10995:10996   */\n      0x00\n        /* \"#utility.yul\":10992:10993   */\n      dup1\n        /* \"#utility.yul\":10985:10997   */\n      revert\n        /* \"#utility.yul\":11009:11126   */\n    tag_162:\n        /* \"#utility.yul\":11118:11119   */\n      0x00\n        /* \"#utility.yul\":11115:11116   */\n      dup1\n        /* \"#utility.yul\":11108:11120   */\n      revert\n        /* \"#utility.yul\":11132:11249   */\n    tag_155:\n        /* \"#utility.yul\":11241:11242   */\n      0x00\n        /* \"#utility.yul\":11238:11239   */\n      dup1\n        /* \"#utility.yul\":11231:11243   */\n      revert\n        /* \"#utility.yul\":11255:11357   */\n    tag_191:\n        /* \"#utility.yul\":11296:11302   */\n      0x00\n        /* \"#utility.yul\":11347:11349   */\n      0x1f\n        /* \"#utility.yul\":11343:11350   */\n      not\n        /* \"#utility.yul\":11338:11340   */\n      0x1f\n        /* \"#utility.yul\":11331:11336   */\n      dup4\n        /* \"#utility.yul\":11327:11341   */\n      add\n        /* \"#utility.yul\":11323:11351   */\n      and\n        /* \"#utility.yul\":11313:11351   */\n      swap1\n      pop\n        /* \"#utility.yul\":11255:11357   */\n      swap2\n      swap1\n      pop\n      jump\t// out\n        /* \"#utility.yul\":11363:11533   */\n    tag_196:\n        /* \"#utility.yul\":11503:11525   */\n      0x446561646c696e6520686173207061737365642e000000000000000000000000\n        /* \"#utility.yul\":11499:11500   */\n      0x00\n        /* \"#utility.yul\":11491:11497   */\n      dup3\n        /* \"#utility.yul\":11487:11501   */\n      add\n        /* \"#utility.yul\":11480:11526   */\n      mstore\n        /* \"#utility.yul\":11363:11533   */\n      pop\n      jump\t// out\n        /* \"#utility.yul\":11539:11715   */\n    tag_201:\n        /* \"#utility.yul\":11679:11707   */\n      0x41646d696e2070726976656c656765732072657175697265642e000000000000\n        /* \"#utility.yul\":11675:11676   */\n      0x00\n        /* \"#utility.yul\":11667:11673   */\n      dup3\n        /* \"#utility.yul\":11663:11677   */\n      add\n        /* \"#utility.yul\":11656:11708   */\n      mstore\n        /* \"#utility.yul\":11539:11715   */\n      pop\n      jump\t// out\n        /* \"#utility.yul\":11721:11900   */\n    tag_206:\n        /* \"#utility.yul\":11861:11892   */\n      0x4d696e696d756d20636f6e747269627574696f6e206e6f74206d65742e000000\n        /* \"#utility.yul\":11857:11858   */\n      0x00\n        /* \"#utility.yul\":11849:11855   */\n      dup3\n        /* \"#utility.yul\":11845:11859   */\n      add\n        /* \"#utility.yul\":11838:11893   */\n      mstore\n        /* \"#utility.yul\":11721:11900   */\n      pop\n      jump\t// out\n        /* \"#utility.yul\":11906:12028   */\n    tag_137:\n        /* \"#utility.yul\":11979:12003   */\n      tag_285\n        /* \"#utility.yul\":11997:12002   */\n      dup2\n        /* \"#utility.yul\":11979:12003   */\n      tag_177\n      jump\t// in\n    tag_285:\n        /* \"#utility.yul\":11972:11977   */\n      dup2\n        /* \"#utility.yul\":11969:12004   */\n      eq\n        /* \"#utility.yul\":11959:12022   */\n      tag_286\n      jumpi\n        /* \"#utility.yul\":12018:12019   */\n      0x00\n        /* \"#utility.yul\":12015:12016   */\n      dup1\n        /* \"#utility.yul\":12008:12020   */\n      revert\n        /* \"#utility.yul\":11959:12022   */\n    tag_286:\n        /* \"#utility.yul\":11906:12028   */\n      pop\n      jump\t// out\n        /* \"#utility.yul\":12034:12172   */\n    tag_141:\n        /* \"#utility.yul\":12115:12147   */\n      tag_288\n        /* \"#utility.yul\":12141:12146   */\n      dup2\n        /* \"#utility.yul\":12115:12147   */\n      tag_173\n      jump\t// in\n    tag_288:\n        /* \"#utility.yul\":12108:12113   */\n      dup2\n        /* \"#utility.yul\":12105:12148   */\n      eq\n        /* \"#utility.yul\":12095:12166   */\n      tag_289\n      jumpi\n        /* \"#utility.yul\":12162:12163   */\n      0x00\n        /* \"#utility.yul\":12159:12160   */\n      dup1\n        /* \"#utility.yul\":12152:12164   */\n      revert\n        /* \"#utility.yul\":12095:12166   */\n    tag_289:\n        /* \"#utility.yul\":12034:12172   */\n      pop\n      jump\t// out\n        /* \"#utility.yul\":12178:12300   */\n    tag_151:\n        /* \"#utility.yul\":12251:12275   */\n      tag_291\n        /* \"#utility.yul\":12269:12274   */\n      dup2\n        /* \"#utility.yul\":12251:12275   */\n      tag_210\n      jump\t// in\n    tag_291:\n        /* \"#utility.yul\":12244:12249   */\n      dup2\n        /* \"#utility.yul\":12241:12276   */\n      eq\n        /* \"#utility.yul\":12231:12294   */\n      tag_292\n      jumpi\n        /* \"#utility.yul\":12290:12291   */\n      0x00\n        /* \"#utility.yul\":12287:12288   */\n      dup1\n        /* \"#utility.yul\":12280:12292   */\n      revert\n        /* \"#utility.yul\":12231:12294   */\n    tag_292:\n        /* \"#utility.yul\":12178:12300   */\n      pop\n      jump\t// out\n\n    auxdata: 0xa264697066735822122078bf3bc4a82219d960733080974199acac539cf0ec19a974a59ad8420710abb864736f6c63430008070033\n}\n",
				"bytecode": {
					"linkReferences": {},
					"object": "60806040523480156200001157600080fd5b50604051620011a1380380620011a18339818101604052810190620000379190620000ba565b8160058190555080426200004c919062000101565b600481905550606460038190555033600160006101000a81548173ffffffffffffffffffffffffffffffffffffffff021916908373ffffffffffffffffffffffffffffffffffffffff1602179055505050620001b6565b600081519050620000b4816200019c565b92915050565b60008060408385031215620000d457620000d362000197565b5b6000620000e485828601620000a3565b9250506020620000f785828601620000a3565b9150509250929050565b60006200010e826200015e565b91506200011b836200015e565b9250827fffffffffffffffffffffffffffffffffffffffffffffffffffffffffffffffff0382111562000153576200015262000168565b5b828201905092915050565b6000819050919050565b7f4e487b7100000000000000000000000000000000000000000000000000000000600052601160045260246000fd5b600080fd5b620001a7816200015e565b8114620001b357600080fd5b50565b610fdb80620001c66000396000f3fe6080604052600436106100c65760003560e01c8063937e09b11161007f578063d3a9d4ea11610059578063d3a9d4ea1461026f578063d7bb99ba1461029a578063f3740daf146102a4578063f851a440146102cf576100d5565b8063937e09b114610202578063b2d5ae441461022d578063c59ee1dc14610244576100d5565b806312065fe0146100da5780631b16bb5c146101055780631f6d49421461012e57806329dcb0cf1461016b578063401938831461019657806381d12c58146101c1576100d5565b366100d5576100d36102fa565b005b600080fd5b3480156100e657600080fd5b506100ef610453565b6040516100fc9190610c08565b60405180910390f35b34801561011157600080fd5b5061012c600480360381019061012791906109b9565b61045b565b005b34801561013a57600080fd5b506101556004803603810190610150919061098c565b6105ae565b6040516101629190610c08565b60405180910390f35b34801561017757600080fd5b506101806105c6565b60405161018d9190610c08565b60405180910390f35b3480156101a257600080fd5b506101ab6105cc565b6040516101b89190610c08565b60405180910390f35b3480156101cd57600080fd5b506101e860048036038101906101e39190610a28565b6105d2565b6040516101f9959493929190610b4e565b60405180910390f35b34801561020e57600080fd5b506102176106bd565b6040516102249190610c08565b60405180910390f35b34801561023957600080fd5b506102426106c3565b005b34801561025057600080fd5b50610259610802565b6040516102669190610c08565b60405180910390f35b34801561027b57600080fd5b50610284610808565b6040516102919190610c08565b60405180910390f35b6102a26102fa565b005b3480156102b057600080fd5b506102b961080e565b6040516102c69190610c08565b60405180910390f35b3480156102db57600080fd5b506102e4610814565b6040516102f19190610b33565b60405180910390f35b600454421061033e576040517f08c379a000000000000000000000000000000000000000000000000000000000815260040161033590610ba8565b60405180910390fd5b600354341015610383576040517f08c379a000000000000000000000000000000000000000000000000000000000815260040161037a90610be8565b60405180910390fd5b60008060003373ffffffffffffffffffffffffffffffffffffffff1673ffffffffffffffffffffffffffffffffffffffff1681526020019081526020016000205414156103e357600260008154809291906103dd90610dea565b91905055505b346000803373ffffffffffffffffffffffffffffffffffffffff1673ffffffffffffffffffffffffffffffffffffffff16815260200190815260200160002060008282546104319190610c95565b92505081905550346006600082825461044a9190610c95565b92505081905550565b600047905090565b600160009054906101000a900473ffffffffffffffffffffffffffffffffffffffff1673ffffffffffffffffffffffffffffffffffffffff163373ffffffffffffffffffffffffffffffffffffffff16146104eb576040517f08c379a00000000000000000000000000000000000000000000000000000000081526004016104e290610bc8565b60405180910390fd5b600060076000600854815260200190815260200160002090506008600081548092919061051790610dea565b91905055508381600001908051906020019061053492919061083a565b50828160010160006101000a81548173ffffffffffffffffffffffffffffffffffffffff021916908373ffffffffffffffffffffffffffffffffffffffff16021790555081816002018190555060008160030160006101000a81548160ff0219169083151502179055506000816004018190555050505050565b60006020528060005260406000206000915090505481565b60045481565b60055481565b60076020528060005260406000206000915090508060000180546105f590610d87565b80601f016020809104026020016040519081016040528092919081815260200182805461062190610d87565b801561066e5780601f106106435761010080835404028352916020019161066e565b820191906000526020600020905b81548152906001019060200180831161065157829003601f168201915b5050505050908060010160009054906101000a900473ffffffffffffffffffffffffffffffffffffffff16908060020154908060030160009054906101000a900460ff16908060040154905085565b60035481565b600454421180156106d75750600554600654105b6106e057600080fd5b60008060003373ffffffffffffffffffffffffffffffffffffffff1673ffffffffffffffffffffffffffffffffffffffff168152602001908152602001600020541161072b57600080fd5b600033905060008060003373ffffffffffffffffffffffffffffffffffffffff1673ffffffffffffffffffffffffffffffffffffffff1681526020019081526020016000205490508173ffffffffffffffffffffffffffffffffffffffff166108fc829081150290604051600060405180830381858888f193505050501580156107b9573d6000803e3d6000fd5b5060008060003373ffffffffffffffffffffffffffffffffffffffff1673ffffffffffffffffffffffffffffffffffffffff168152602001908152602001600020819055505050565b60065481565b60085481565b60025481565b600160009054906101000a900473ffffffffffffffffffffffffffffffffffffffff1681565b82805461084690610d87565b90600052602060002090601f01602090048101928261086857600085556108af565b82601f1061088157805160ff19168380011785556108af565b828001600101855582156108af579182015b828111156108ae578251825591602001919060010190610893565b5b5090506108bc91906108c0565b5090565b5b808211156108d95760008160009055506001016108c1565b5090565b60006108f06108eb84610c48565b610c23565b90508281526020810184848401111561090c5761090b610ec5565b5b610917848285610d45565b509392505050565b60008135905061092e81610f60565b92915050565b60008135905061094381610f77565b92915050565b600082601f83011261095e5761095d610ec0565b5b813561096e8482602086016108dd565b91505092915050565b60008135905061098681610f8e565b92915050565b6000602082840312156109a2576109a1610ecf565b5b60006109b08482850161091f565b91505092915050565b6000806000606084860312156109d2576109d1610ecf565b5b600084013567ffffffffffffffff8111156109f0576109ef610eca565b5b6109fc86828701610949565b9350506020610a0d86828701610934565b9250506040610a1e86828701610977565b9150509250925092565b600060208284031215610a3e57610a3d610ecf565b5b6000610a4c84828501610977565b91505092915050565b610a5e81610cfd565b82525050565b610a6d81610ceb565b82525050565b610a7c81610d0f565b82525050565b6000610a8d82610c79565b610a978185610c84565b9350610aa7818560208601610d54565b610ab081610ed4565b840191505092915050565b6000610ac8601483610c84565b9150610ad382610ee5565b602082019050919050565b6000610aeb601a83610c84565b9150610af682610f0e565b602082019050919050565b6000610b0e601d83610c84565b9150610b1982610f37565b602082019050919050565b610b2d81610d3b565b82525050565b6000602082019050610b486000830184610a64565b92915050565b600060a0820190508181036000830152610b688188610a82565b9050610b776020830187610a55565b610b846040830186610b24565b610b916060830185610a73565b610b9e6080830184610b24565b9695505050505050565b60006020820190508181036000830152610bc181610abb565b9050919050565b60006020820190508181036000830152610be181610ade565b9050919050565b60006020820190508181036000830152610c0181610b01565b9050919050565b6000602082019050610c1d6000830184610b24565b92915050565b6000610c2d610c3e565b9050610c398282610db9565b919050565b6000604051905090565b600067ffffffffffffffff821115610c6357610c62610e91565b5b610c6c82610ed4565b9050602081019050919050565b600081519050919050565b600082825260208201905092915050565b6000610ca082610d3b565b9150610cab83610d3b565b9250827fffffffffffffffffffffffffffffffffffffffffffffffffffffffffffffffff03821115610ce057610cdf610e33565b5b828201905092915050565b6000610cf682610d1b565b9050919050565b6000610d0882610d1b565b9050919050565b60008115159050919050565b600073ffffffffffffffffffffffffffffffffffffffff82169050919050565b6000819050919050565b82818337600083830152505050565b60005b83811015610d72578082015181840152602081019050610d57565b83811115610d81576000848401525b50505050565b60006002820490506001821680610d9f57607f821691505b60208210811415610db357610db2610e62565b5b50919050565b610dc282610ed4565b810181811067ffffffffffffffff82111715610de157610de0610e91565b5b80604052505050565b6000610df582610d3b565b91507fffffffffffffffffffffffffffffffffffffffffffffffffffffffffffffffff821415610e2857610e27610e33565b5b600182019050919050565b7f4e487b7100000000000000000000000000000000000000000000000000000000600052601160045260246000fd5b7f4e487b7100000000000000000000000000000000000000000000000000000000600052602260045260246000fd5b7f4e487b7100000000000000000000000000000000000000000000000000000000600052604160045260246000fd5b600080fd5b600080fd5b600080fd5b600080fd5b6000601f19601f8301169050919050565b7f446561646c696e6520686173207061737365642e000000000000000000000000600082015250565b7f41646d696e2070726976656c656765732072657175697265642e000000000000600082015250565b7f4d696e696d756d20636f6e747269627574696f6e206e6f74206d65742e000000600082015250565b610f6981610ceb565b8114610f7457600080fd5b50565b610f8081610cfd565b8114610f8b57600080fd5b50565b610f9781610d3b565b8114610fa257600080fd5b5056fea264697066735822122078bf3bc4a82219d960733080974199acac539cf0ec19a974a59ad8420710abb864736f6c63430008070033",
					"opcodes": "PUSH1 0x80 PUSH1 0x40 MSTORE CALLVALUE DUP1 ISZERO PUSH3 0x11 JUMPI PUSH1 0x0 DUP1 REVERT JUMPDEST POP PUSH1 0x40 MLOAD PUSH3 0x11A1 CODESIZE SUB DUP1 PUSH3 0x11A1 DUP4 CODECOPY DUP2 DUP2 ADD PUSH1 0x40 MSTORE DUP2 ADD SWAP1 PUSH3 0x37 SWAP2 SWAP1 PUSH3 0xBA JUMP JUMPDEST DUP2 PUSH1 0x5 DUP2 SWAP1 SSTORE POP DUP1 TIMESTAMP PUSH3 0x4C SWAP2 SWAP1 PUSH3 0x101 JUMP JUMPDEST PUSH1 0x4 DUP2 SWAP1 SSTORE POP PUSH1 0x64 PUSH1 0x3 DUP2 SWAP1 SSTORE POP CALLER PUSH1 0x1 PUSH1 0x0 PUSH2 0x100 EXP DUP2 SLOAD DUP2 PUSH20 0xFFFFFFFFFFFFFFFFFFFFFFFFFFFFFFFFFFFFFFFF MUL NOT AND SWAP1 DUP4 PUSH20 0xFFFFFFFFFFFFFFFFFFFFFFFFFFFFFFFFFFFFFFFF AND MUL OR SWAP1 SSTORE POP POP POP PUSH3 0x1B6 JUMP JUMPDEST PUSH1 0x0 DUP2 MLOAD SWAP1 POP PUSH3 0xB4 DUP2 PUSH3 0x19C JUMP JUMPDEST SWAP3 SWAP2 POP POP JUMP JUMPDEST PUSH1 0x0 DUP1 PUSH1 0x40 DUP4 DUP6 SUB SLT ISZERO PUSH3 0xD4 JUMPI PUSH3 0xD3 PUSH3 0x197 JUMP JUMPDEST JUMPDEST PUSH1 0x0 PUSH3 0xE4 DUP6 DUP3 DUP7 ADD PUSH3 0xA3 JUMP JUMPDEST SWAP3 POP POP PUSH1 0x20 PUSH3 0xF7 DUP6 DUP3 DUP7 ADD PUSH3 0xA3 JUMP JUMPDEST SWAP2 POP POP SWAP3 POP SWAP3 SWAP1 POP JUMP JUMPDEST PUSH1 0x0 PUSH3 0x10E DUP3 PUSH3 0x15E JUMP JUMPDEST SWAP2 POP PUSH3 0x11B DUP4 PUSH3 0x15E JUMP JUMPDEST SWAP3 POP DUP3 PUSH32 0xFFFFFFFFFFFFFFFFFFFFFFFFFFFFFFFFFFFFFFFFFFFFFFFFFFFFFFFFFFFFFFFF SUB DUP3 GT ISZERO PUSH3 0x153 JUMPI PUSH3 0x152 PUSH3 0x168 JUMP JUMPDEST JUMPDEST DUP3 DUP3 ADD SWAP1 POP SWAP3 SWAP2 POP POP JUMP JUMPDEST PUSH1 0x0 DUP2 SWAP1 POP SWAP2 SWAP1 POP JUMP JUMPDEST PUSH32 0x4E487B7100000000000000000000000000000000000000000000000000000000 PUSH1 0x0 MSTORE PUSH1 0x11 PUSH1 0x4 MSTORE PUSH1 0x24 PUSH1 0x0 REVERT JUMPDEST PUSH1 0x0 DUP1 REVERT JUMPDEST PUSH3 0x1A7 DUP2 PUSH3 0x15E JUMP JUMPDEST DUP2 EQ PUSH3 0x1B3 JUMPI PUSH1 0x0 DUP1 REVERT JUMPDEST POP JUMP JUMPDEST PUSH2 0xFDB DUP1 PUSH3 0x1C6 PUSH1 0x0 CODECOPY PUSH1 0x0 RETURN INVALID PUSH1 0x80 PUSH1 0x40 MSTORE PUSH1 0x4 CALLDATASIZE LT PUSH2 0xC6 JUMPI PUSH1 0x0 CALLDATALOAD PUSH1 0xE0 SHR DUP1 PUSH4 0x937E09B1 GT PUSH2 0x7F JUMPI DUP1 PUSH4 0xD3A9D4EA GT PUSH2 0x59 JUMPI DUP1 PUSH4 0xD3A9D4EA EQ PUSH2 0x26F JUMPI DUP1 PUSH4 0xD7BB99BA EQ PUSH2 0x29A JUMPI DUP1 PUSH4 0xF3740DAF EQ PUSH2 0x2A4 JUMPI DUP1 PUSH4 0xF851A440 EQ PUSH2 0x2CF JUMPI PUSH2 0xD5 JUMP JUMPDEST DUP1 PUSH4 0x937E09B1 EQ PUSH2 0x202 JUMPI DUP1 PUSH4 0xB2D5AE44 EQ PUSH2 0x22D JUMPI DUP1 PUSH4 0xC59EE1DC EQ PUSH2 0x244 JUMPI PUSH2 0xD5 JUMP JUMPDEST DUP1 PUSH4 0x12065FE0 EQ PUSH2 0xDA JUMPI DUP1 PUSH4 0x1B16BB5C EQ PUSH2 0x105 JUMPI DUP1 PUSH4 0x1F6D4942 EQ PUSH2 0x12E JUMPI DUP1 PUSH4 0x29DCB0CF EQ PUSH2 0x16B JUMPI DUP1 PUSH4 0x40193883 EQ PUSH2 0x196 JUMPI DUP1 PUSH4 0x81D12C58 EQ PUSH2 0x1C1 JUMPI PUSH2 0xD5 JUMP JUMPDEST CALLDATASIZE PUSH2 0xD5 JUMPI PUSH2 0xD3 PUSH2 0x2FA JUMP JUMPDEST STOP JUMPDEST PUSH1 0x0 DUP1 REVERT JUMPDEST CALLVALUE DUP1 ISZERO PUSH2 0xE6 JUMPI PUSH1 0x0 DUP1 REVERT JUMPDEST POP PUSH2 0xEF PUSH2 0x453 JUMP JUMPDEST PUSH1 0x40 MLOAD PUSH2 0xFC SWAP2 SWAP1 PUSH2 0xC08 JUMP JUMPDEST PUSH1 0x40 MLOAD DUP1 SWAP2 SUB SWAP1 RETURN JUMPDEST CALLVALUE DUP1 ISZERO PUSH2 0x111 JUMPI PUSH1 0x0 DUP1 REVERT JUMPDEST POP PUSH2 0x12C PUSH1 0x4 DUP1 CALLDATASIZE SUB DUP2 ADD SWAP1 PUSH2 0x127 SWAP2 SWAP1 PUSH2 0x9B9 JUMP JUMPDEST PUSH2 0x45B JUMP JUMPDEST STOP JUMPDEST CALLVALUE DUP1 ISZERO PUSH2 0x13A JUMPI PUSH1 0x0 DUP1 REVERT JUMPDEST POP PUSH2 0x155 PUSH1 0x4 DUP1 CALLDATASIZE SUB DUP2 ADD SWAP1 PUSH2 0x150 SWAP2 SWAP1 PUSH2 0x98C JUMP JUMPDEST PUSH2 0x5AE JUMP JUMPDEST PUSH1 0x40 MLOAD PUSH2 0x162 SWAP2 SWAP1 PUSH2 0xC08 JUMP JUMPDEST PUSH1 0x40 MLOAD DUP1 SWAP2 SUB SWAP1 RETURN JUMPDEST CALLVALUE DUP1 ISZERO PUSH2 0x177 JUMPI PUSH1 0x0 DUP1 REVERT JUMPDEST POP PUSH2 0x180 PUSH2 0x5C6 JUMP JUMPDEST PUSH1 0x40 MLOAD PUSH2 0x18D SWAP2 SWAP1 PUSH2 0xC08 JUMP JUMPDEST PUSH1 0x40 MLOAD DUP1 SWAP2 SUB SWAP1 RETURN JUMPDEST CALLVALUE DUP1 ISZERO PUSH2 0x1A2 JUMPI PUSH1 0x0 DUP1 REVERT JUMPDEST POP PUSH2 0x1AB PUSH2 0x5CC JUMP JUMPDEST PUSH1 0x40 MLOAD PUSH2 0x1B8 SWAP2 SWAP1 PUSH2 0xC08 JUMP JUMPDEST PUSH1 0x40 MLOAD DUP1 SWAP2 SUB SWAP1 RETURN JUMPDEST CALLVALUE DUP1 ISZERO PUSH2 0x1CD JUMPI PUSH1 0x0 DUP1 REVERT JUMPDEST POP PUSH2 0x1E8 PUSH1 0x4 DUP1 CALLDATASIZE SUB DUP2 ADD SWAP1 PUSH2 0x1E3 SWAP2 SWAP1 PUSH2 0xA28 JUMP JUMPDEST PUSH2 0x5D2 JUMP JUMPDEST PUSH1 0x40 MLOAD PUSH2 0x1F9 SWAP6 SWAP5 SWAP4 SWAP3 SWAP2 SWAP1 PUSH2 0xB4E JUMP JUMPDEST PUSH1 0x40 MLOAD DUP1 SWAP2 SUB SWAP1 RETURN JUMPDEST CALLVALUE DUP1 ISZERO PUSH2 0x20E JUMPI PUSH1 0x0 DUP1 REVERT JUMPDEST POP PUSH2 0x217 PUSH2 0x6BD JUMP JUMPDEST PUSH1 0x40 MLOAD PUSH2 0x224 SWAP2 SWAP1 PUSH2 0xC08 JUMP JUMPDEST PUSH1 0x40 MLOAD DUP1 SWAP2 SUB SWAP1 RETURN JUMPDEST CALLVALUE DUP1 ISZERO PUSH2 0x239 JUMPI PUSH1 0x0 DUP1 REVERT JUMPDEST POP PUSH2 0x242 PUSH2 0x6C3 JUMP JUMPDEST STOP JUMPDEST CALLVALUE DUP1 ISZERO PUSH2 0x250 JUMPI PUSH1 0x0 DUP1 REVERT JUMPDEST POP PUSH2 0x259 PUSH2 0x802 JUMP JUMPDEST PUSH1 0x40 MLOAD PUSH2 0x266 SWAP2 SWAP1 PUSH2 0xC08 JUMP JUMPDEST PUSH1 0x40 MLOAD DUP1 SWAP2 SUB SWAP1 RETURN JUMPDEST CALLVALUE DUP1 ISZERO PUSH2 0x27B JUMPI PUSH1 0x0 DUP1 REVERT JUMPDEST POP PUSH2 0x284 PUSH2 0x808 JUMP JUMPDEST PUSH1 0x40 MLOAD PUSH2 0x291 SWAP2 SWAP1 PUSH2 0xC08 JUMP JUMPDEST PUSH1 0x40 MLOAD DUP1 SWAP2 SUB SWAP1 RETURN JUMPDEST PUSH2 0x2A2 PUSH2 0x2FA JUMP JUMPDEST STOP JUMPDEST CALLVALUE DUP1 ISZERO PUSH2 0x2B0 JUMPI PUSH1 0x0 DUP1 REVERT JUMPDEST POP PUSH2 0x2B9 PUSH2 0x80E JUMP JUMPDEST PUSH1 0x40 MLOAD PUSH2 0x2C6 SWAP2 SWAP1 PUSH2 0xC08 JUMP JUMPDEST PUSH1 0x40 MLOAD DUP1 SWAP2 SUB SWAP1 RETURN JUMPDEST CALLVALUE DUP1 ISZERO PUSH2 0x2DB JUMPI PUSH1 0x0 DUP1 REVERT JUMPDEST POP PUSH2 0x2E4 PUSH2 0x814 JUMP JUMPDEST PUSH1 0x40 MLOAD PUSH2 0x2F1 SWAP2 SWAP1 PUSH2 0xB33 JUMP JUMPDEST PUSH1 0x40 MLOAD DUP1 SWAP2 SUB SWAP1 RETURN JUMPDEST PUSH1 0x4 SLOAD TIMESTAMP LT PUSH2 0x33E JUMPI PUSH1 0x40 MLOAD PUSH32 0x8C379A000000000000000000000000000000000000000000000000000000000 DUP2 MSTORE PUSH1 0x4 ADD PUSH2 0x335 SWAP1 PUSH2 0xBA8 JUMP JUMPDEST PUSH1 0x40 MLOAD DUP1 SWAP2 SUB SWAP1 REVERT JUMPDEST PUSH1 0x3 SLOAD CALLVALUE LT ISZERO PUSH2 0x383 JUMPI PUSH1 0x40 MLOAD PUSH32 0x8C379A000000000000000000000000000000000000000000000000000000000 DUP2 MSTORE PUSH1 0x4 ADD PUSH2 0x37A SWAP1 PUSH2 0xBE8 JUMP JUMPDEST PUSH1 0x40 MLOAD DUP1 SWAP2 SUB SWAP1 REVERT JUMPDEST PUSH1 0x0 DUP1 PUSH1 0x0 CALLER PUSH20 0xFFFFFFFFFFFFFFFFFFFFFFFFFFFFFFFFFFFFFFFF AND PUSH20 0xFFFFFFFFFFFFFFFFFFFFFFFFFFFFFFFFFFFFFFFF AND DUP2 MSTORE PUSH1 0x20 ADD SWAP1 DUP2 MSTORE PUSH1 0x20 ADD PUSH1 0x0 KECCAK256 SLOAD EQ ISZERO PUSH2 0x3E3 JUMPI PUSH1 0x2 PUSH1 0x0 DUP2 SLOAD DUP1 SWAP3 SWAP2 SWAP1 PUSH2 0x3DD SWAP1 PUSH2 0xDEA JUMP JUMPDEST SWAP2 SWAP1 POP SSTORE POP JUMPDEST CALLVALUE PUSH1 0x0 DUP1 CALLER PUSH20 0xFFFFFFFFFFFFFFFFFFFFFFFFFFFFFFFFFFFFFFFF AND PUSH20 0xFFFFFFFFFFFFFFFFFFFFFFFFFFFFFFFFFFFFFFFF AND DUP2 MSTORE PUSH1 0x20 ADD SWAP1 DUP2 MSTORE PUSH1 0x20 ADD PUSH1 0x0 KECCAK256 PUSH1 0x0 DUP3 DUP3 SLOAD PUSH2 0x431 SWAP2 SWAP1 PUSH2 0xC95 JUMP JUMPDEST SWAP3 POP POP DUP2 SWAP1 SSTORE POP CALLVALUE PUSH1 0x6 PUSH1 0x0 DUP3 DUP3 SLOAD PUSH2 0x44A SWAP2 SWAP1 PUSH2 0xC95 JUMP JUMPDEST SWAP3 POP POP DUP2 SWAP1 SSTORE POP JUMP JUMPDEST PUSH1 0x0 SELFBALANCE SWAP1 POP SWAP1 JUMP JUMPDEST PUSH1 0x1 PUSH1 0x0 SWAP1 SLOAD SWAP1 PUSH2 0x100 EXP SWAP1 DIV PUSH20 0xFFFFFFFFFFFFFFFFFFFFFFFFFFFFFFFFFFFFFFFF AND PUSH20 0xFFFFFFFFFFFFFFFFFFFFFFFFFFFFFFFFFFFFFFFF AND CALLER PUSH20 0xFFFFFFFFFFFFFFFFFFFFFFFFFFFFFFFFFFFFFFFF AND EQ PUSH2 0x4EB JUMPI PUSH1 0x40 MLOAD PUSH32 0x8C379A000000000000000000000000000000000000000000000000000000000 DUP2 MSTORE PUSH1 0x4 ADD PUSH2 0x4E2 SWAP1 PUSH2 0xBC8 JUMP JUMPDEST PUSH1 0x40 MLOAD DUP1 SWAP2 SUB SWAP1 REVERT JUMPDEST PUSH1 0x0 PUSH1 0x7 PUSH1 0x0 PUSH1 0x8 SLOAD DUP2 MSTORE PUSH1 0x20 ADD SWAP1 DUP2 MSTORE PUSH1 0x20 ADD PUSH1 0x0 KECCAK256 SWAP1 POP PUSH1 0x8 PUSH1 0x0 DUP2 SLOAD DUP1 SWAP3 SWAP2 SWAP1 PUSH2 0x517 SWAP1 PUSH2 0xDEA JUMP JUMPDEST SWAP2 SWAP1 POP SSTORE POP DUP4 DUP2 PUSH1 0x0 ADD SWAP1 DUP1 MLOAD SWAP1 PUSH1 0x20 ADD SWAP1 PUSH2 0x534 SWAP3 SWAP2 SWAP1 PUSH2 0x83A JUMP JUMPDEST POP DUP3 DUP2 PUSH1 0x1 ADD PUSH1 0x0 PUSH2 0x100 EXP DUP2 SLOAD DUP2 PUSH20 0xFFFFFFFFFFFFFFFFFFFFFFFFFFFFFFFFFFFFFFFF MUL NOT AND SWAP1 DUP4 PUSH20 0xFFFFFFFFFFFFFFFFFFFFFFFFFFFFFFFFFFFFFFFF AND MUL OR SWAP1 SSTORE POP DUP2 DUP2 PUSH1 0x2 ADD DUP2 SWAP1 SSTORE POP PUSH1 0x0 DUP2 PUSH1 0x3 ADD PUSH1 0x0 PUSH2 0x100 EXP DUP2 SLOAD DUP2 PUSH1 0xFF MUL NOT AND SWAP1 DUP4 ISZERO ISZERO MUL OR SWAP1 SSTORE POP PUSH1 0x0 DUP2 PUSH1 0x4 ADD DUP2 SWAP1 SSTORE POP POP POP POP POP JUMP JUMPDEST PUSH1 0x0 PUSH1 0x20 MSTORE DUP1 PUSH1 0x0 MSTORE PUSH1 0x40 PUSH1 0x0 KECCAK256 PUSH1 0x0 SWAP2 POP SWAP1 POP SLOAD DUP2 JUMP JUMPDEST PUSH1 0x4 SLOAD DUP2 JUMP JUMPDEST PUSH1 0x5 SLOAD DUP2 JUMP JUMPDEST PUSH1 0x7 PUSH1 0x20 MSTORE DUP1 PUSH1 0x0 MSTORE PUSH1 0x40 PUSH1 0x0 KECCAK256 PUSH1 0x0 SWAP2 POP SWAP1 POP DUP1 PUSH1 0x0 ADD DUP1 SLOAD PUSH2 0x5F5 SWAP1 PUSH2 0xD87 JUMP JUMPDEST DUP1 PUSH1 0x1F ADD PUSH1 0x20 DUP1 SWAP2 DIV MUL PUSH1 0x20 ADD PUSH1 0x40 MLOAD SWAP1 DUP2 ADD PUSH1 0x40 MSTORE DUP1 SWAP3 SWAP2 SWAP1 DUP2 DUP2 MSTORE PUSH1 0x20 ADD DUP3 DUP1 SLOAD PUSH2 0x621 SWAP1 PUSH2 0xD87 JUMP JUMPDEST DUP1 ISZERO PUSH2 0x66E JUMPI DUP1 PUSH1 0x1F LT PUSH2 0x643 JUMPI PUSH2 0x100 DUP1 DUP4 SLOAD DIV MUL DUP4 MSTORE SWAP2 PUSH1 0x20 ADD SWAP2 PUSH2 0x66E JUMP JUMPDEST DUP3 ADD SWAP2 SWAP1 PUSH1 0x0 MSTORE PUSH1 0x20 PUSH1 0x0 KECCAK256 SWAP1 JUMPDEST DUP2 SLOAD DUP2 MSTORE SWAP1 PUSH1 0x1 ADD SWAP1 PUSH1 0x20 ADD DUP1 DUP4 GT PUSH2 0x651 JUMPI DUP3 SWAP1 SUB PUSH1 0x1F AND DUP3 ADD SWAP2 JUMPDEST POP POP POP POP POP SWAP1 DUP1 PUSH1 0x1 ADD PUSH1 0x0 SWAP1 SLOAD SWAP1 PUSH2 0x100 EXP SWAP1 DIV PUSH20 0xFFFFFFFFFFFFFFFFFFFFFFFFFFFFFFFFFFFFFFFF AND SWAP1 DUP1 PUSH1 0x2 ADD SLOAD SWAP1 DUP1 PUSH1 0x3 ADD PUSH1 0x0 SWAP1 SLOAD SWAP1 PUSH2 0x100 EXP SWAP1 DIV PUSH1 0xFF AND SWAP1 DUP1 PUSH1 0x4 ADD SLOAD SWAP1 POP DUP6 JUMP JUMPDEST PUSH1 0x3 SLOAD DUP2 JUMP JUMPDEST PUSH1 0x4 SLOAD TIMESTAMP GT DUP1 ISZERO PUSH2 0x6D7 JUMPI POP PUSH1 0x5 SLOAD PUSH1 0x6 SLOAD LT JUMPDEST PUSH2 0x6E0 JUMPI PUSH1 0x0 DUP1 REVERT JUMPDEST PUSH1 0x0 DUP1 PUSH1 0x0 CALLER PUSH20 0xFFFFFFFFFFFFFFFFFFFFFFFFFFFFFFFFFFFFFFFF AND PUSH20 0xFFFFFFFFFFFFFFFFFFFFFFFFFFFFFFFFFFFFFFFF AND DUP2 MSTORE PUSH1 0x20 ADD SWAP1 DUP2 MSTORE PUSH1 0x20 ADD PUSH1 0x0 KECCAK256 SLOAD GT PUSH2 0x72B JUMPI PUSH1 0x0 DUP1 REVERT JUMPDEST PUSH1 0x0 CALLER SWAP1 POP PUSH1 0x0 DUP1 PUSH1 0x0 CALLER PUSH20 0xFFFFFFFFFFFFFFFFFFFFFFFFFFFFFFFFFFFFFFFF AND PUSH20 0xFFFFFFFFFFFFFFFFFFFFFFFFFFFFFFFFFFFFFFFF AND DUP2 MSTORE PUSH1 0x20 ADD SWAP1 DUP2 MSTORE PUSH1 0x20 ADD PUSH1 0x0 KECCAK256 SLOAD SWAP1 POP DUP2 PUSH20 0xFFFFFFFFFFFFFFFFFFFFFFFFFFFFFFFFFFFFFFFF AND PUSH2 0x8FC DUP3 SWAP1 DUP2 ISZERO MUL SWAP1 PUSH1 0x40 MLOAD PUSH1 0x0 PUSH1 0x40 MLOAD DUP1 DUP4 SUB DUP2 DUP6 DUP9 DUP9 CALL SWAP4 POP POP POP POP ISZERO DUP1 ISZERO PUSH2 0x7B9 JUMPI RETURNDATASIZE PUSH1 0x0 DUP1 RETURNDATACOPY RETURNDATASIZE PUSH1 0x0 REVERT JUMPDEST POP PUSH1 0x0 DUP1 PUSH1 0x0 CALLER PUSH20 0xFFFFFFFFFFFFFFFFFFFFFFFFFFFFFFFFFFFFFFFF AND PUSH20 0xFFFFFFFFFFFFFFFFFFFFFFFFFFFFFFFFFFFFFFFF AND DUP2 MSTORE PUSH1 0x20 ADD SWAP1 DUP2 MSTORE PUSH1 0x20 ADD PUSH1 0x0 KECCAK256 DUP2 SWAP1 SSTORE POP POP POP JUMP JUMPDEST PUSH1 0x6 SLOAD DUP2 JUMP JUMPDEST PUSH1 0x8 SLOAD DUP2 JUMP JUMPDEST PUSH1 0x2 SLOAD DUP2 JUMP JUMPDEST PUSH1 0x1 PUSH1 0x0 SWAP1 SLOAD SWAP1 PUSH2 0x100 EXP SWAP1 DIV PUSH20 0xFFFFFFFFFFFFFFFFFFFFFFFFFFFFFFFFFFFFFFFF AND DUP2 JUMP JUMPDEST DUP3 DUP1 SLOAD PUSH2 0x846 SWAP1 PUSH2 0xD87 JUMP JUMPDEST SWAP1 PUSH1 0x0 MSTORE PUSH1 0x20 PUSH1 0x0 KECCAK256 SWAP1 PUSH1 0x1F ADD PUSH1 0x20 SWAP1 DIV DUP2 ADD SWAP3 DUP3 PUSH2 0x868 JUMPI PUSH1 0x0 DUP6 SSTORE PUSH2 0x8AF JUMP JUMPDEST DUP3 PUSH1 0x1F LT PUSH2 0x881 JUMPI DUP1 MLOAD PUSH1 0xFF NOT AND DUP4 DUP1 ADD OR DUP6 SSTORE PUSH2 0x8AF JUMP JUMPDEST DUP3 DUP1 ADD PUSH1 0x1 ADD DUP6 SSTORE DUP3 ISZERO PUSH2 0x8AF JUMPI SWAP2 DUP3 ADD JUMPDEST DUP3 DUP2 GT ISZERO PUSH2 0x8AE JUMPI DUP3 MLOAD DUP3 SSTORE SWAP2 PUSH1 0x20 ADD SWAP2 SWAP1 PUSH1 0x1 ADD SWAP1 PUSH2 0x893 JUMP JUMPDEST JUMPDEST POP SWAP1 POP PUSH2 0x8BC SWAP2 SWAP1 PUSH2 0x8C0 JUMP JUMPDEST POP SWAP1 JUMP JUMPDEST JUMPDEST DUP1 DUP3 GT ISZERO PUSH2 0x8D9 JUMPI PUSH1 0x0 DUP2 PUSH1 0x0 SWAP1 SSTORE POP PUSH1 0x1 ADD PUSH2 0x8C1 JUMP JUMPDEST POP SWAP1 JUMP JUMPDEST PUSH1 0x0 PUSH2 0x8F0 PUSH2 0x8EB DUP5 PUSH2 0xC48 JUMP JUMPDEST PUSH2 0xC23 JUMP JUMPDEST SWAP1 POP DUP3 DUP2 MSTORE PUSH1 0x20 DUP2 ADD DUP5 DUP5 DUP5 ADD GT ISZERO PUSH2 0x90C JUMPI PUSH2 0x90B PUSH2 0xEC5 JUMP JUMPDEST JUMPDEST PUSH2 0x917 DUP5 DUP3 DUP6 PUSH2 0xD45 JUMP JUMPDEST POP SWAP4 SWAP3 POP POP POP JUMP JUMPDEST PUSH1 0x0 DUP2 CALLDATALOAD SWAP1 POP PUSH2 0x92E DUP2 PUSH2 0xF60 JUMP JUMPDEST SWAP3 SWAP2 POP POP JUMP JUMPDEST PUSH1 0x0 DUP2 CALLDATALOAD SWAP1 POP PUSH2 0x943 DUP2 PUSH2 0xF77 JUMP JUMPDEST SWAP3 SWAP2 POP POP JUMP JUMPDEST PUSH1 0x0 DUP3 PUSH1 0x1F DUP4 ADD SLT PUSH2 0x95E JUMPI PUSH2 0x95D PUSH2 0xEC0 JUMP JUMPDEST JUMPDEST DUP2 CALLDATALOAD PUSH2 0x96E DUP5 DUP3 PUSH1 0x20 DUP7 ADD PUSH2 0x8DD JUMP JUMPDEST SWAP2 POP POP SWAP3 SWAP2 POP POP JUMP JUMPDEST PUSH1 0x0 DUP2 CALLDATALOAD SWAP1 POP PUSH2 0x986 DUP2 PUSH2 0xF8E JUMP JUMPDEST SWAP3 SWAP2 POP POP JUMP JUMPDEST PUSH1 0x0 PUSH1 0x20 DUP3 DUP5 SUB SLT ISZERO PUSH2 0x9A2 JUMPI PUSH2 0x9A1 PUSH2 0xECF JUMP JUMPDEST JUMPDEST PUSH1 0x0 PUSH2 0x9B0 DUP5 DUP3 DUP6 ADD PUSH2 0x91F JUMP JUMPDEST SWAP2 POP POP SWAP3 SWAP2 POP POP JUMP JUMPDEST PUSH1 0x0 DUP1 PUSH1 0x0 PUSH1 0x60 DUP5 DUP7 SUB SLT ISZERO PUSH2 0x9D2 JUMPI PUSH2 0x9D1 PUSH2 0xECF JUMP JUMPDEST JUMPDEST PUSH1 0x0 DUP5 ADD CALLDATALOAD PUSH8 0xFFFFFFFFFFFFFFFF DUP2 GT ISZERO PUSH2 0x9F0 JUMPI PUSH2 0x9EF PUSH2 0xECA JUMP JUMPDEST JUMPDEST PUSH2 0x9FC DUP7 DUP3 DUP8 ADD PUSH2 0x949 JUMP JUMPDEST SWAP4 POP POP PUSH1 0x20 PUSH2 0xA0D DUP7 DUP3 DUP8 ADD PUSH2 0x934 JUMP JUMPDEST SWAP3 POP POP PUSH1 0x40 PUSH2 0xA1E DUP7 DUP3 DUP8 ADD PUSH2 0x977 JUMP JUMPDEST SWAP2 POP POP SWAP3 POP SWAP3 POP SWAP3 JUMP JUMPDEST PUSH1 0x0 PUSH1 0x20 DUP3 DUP5 SUB SLT ISZERO PUSH2 0xA3E JUMPI PUSH2 0xA3D PUSH2 0xECF JUMP JUMPDEST JUMPDEST PUSH1 0x0 PUSH2 0xA4C DUP5 DUP3 DUP6 ADD PUSH2 0x977 JUMP JUMPDEST SWAP2 POP POP SWAP3 SWAP2 POP POP JUMP JUMPDEST PUSH2 0xA5E DUP2 PUSH2 0xCFD JUMP JUMPDEST DUP3 MSTORE POP POP JUMP JUMPDEST PUSH2 0xA6D DUP2 PUSH2 0xCEB JUMP JUMPDEST DUP3 MSTORE POP POP JUMP JUMPDEST PUSH2 0xA7C DUP2 PUSH2 0xD0F JUMP JUMPDEST DUP3 MSTORE POP POP JUMP JUMPDEST PUSH1 0x0 PUSH2 0xA8D DUP3 PUSH2 0xC79 JUMP JUMPDEST PUSH2 0xA97 DUP2 DUP6 PUSH2 0xC84 JUMP JUMPDEST SWAP4 POP PUSH2 0xAA7 DUP2 DUP6 PUSH1 0x20 DUP7 ADD PUSH2 0xD54 JUMP JUMPDEST PUSH2 0xAB0 DUP2 PUSH2 0xED4 JUMP JUMPDEST DUP5 ADD SWAP2 POP POP SWAP3 SWAP2 POP POP JUMP JUMPDEST PUSH1 0x0 PUSH2 0xAC8 PUSH1 0x14 DUP4 PUSH2 0xC84 JUMP JUMPDEST SWAP2 POP PUSH2 0xAD3 DUP3 PUSH2 0xEE5 JUMP JUMPDEST PUSH1 0x20 DUP3 ADD SWAP1 POP SWAP2 SWAP1 POP JUMP JUMPDEST PUSH1 0x0 PUSH2 0xAEB PUSH1 0x1A DUP4 PUSH2 0xC84 JUMP JUMPDEST SWAP2 POP PUSH2 0xAF6 DUP3 PUSH2 0xF0E JUMP JUMPDEST PUSH1 0x20 DUP3 ADD SWAP1 POP SWAP2 SWAP1 POP JUMP JUMPDEST PUSH1 0x0 PUSH2 0xB0E PUSH1 0x1D DUP4 PUSH2 0xC84 JUMP JUMPDEST SWAP2 POP PUSH2 0xB19 DUP3 PUSH2 0xF37 JUMP JUMPDEST PUSH1 0x20 DUP3 ADD SWAP1 POP SWAP2 SWAP1 POP JUMP JUMPDEST PUSH2 0xB2D DUP2 PUSH2 0xD3B JUMP JUMPDEST DUP3 MSTORE POP POP JUMP JUMPDEST PUSH1 0x0 PUSH1 0x20 DUP3 ADD SWAP1 POP PUSH2 0xB48 PUSH1 0x0 DUP4 ADD DUP5 PUSH2 0xA64 JUMP JUMPDEST SWAP3 SWAP2 POP POP JUMP JUMPDEST PUSH1 0x0 PUSH1 0xA0 DUP3 ADD SWAP1 POP DUP2 DUP2 SUB PUSH1 0x0 DUP4 ADD MSTORE PUSH2 0xB68 DUP2 DUP9 PUSH2 0xA82 JUMP JUMPDEST SWAP1 POP PUSH2 0xB77 PUSH1 0x20 DUP4 ADD DUP8 PUSH2 0xA55 JUMP JUMPDEST PUSH2 0xB84 PUSH1 0x40 DUP4 ADD DUP7 PUSH2 0xB24 JUMP JUMPDEST PUSH2 0xB91 PUSH1 0x60 DUP4 ADD DUP6 PUSH2 0xA73 JUMP JUMPDEST PUSH2 0xB9E PUSH1 0x80 DUP4 ADD DUP5 PUSH2 0xB24 JUMP JUMPDEST SWAP7 SWAP6 POP POP POP POP POP POP JUMP JUMPDEST PUSH1 0x0 PUSH1 0x20 DUP3 ADD SWAP1 POP DUP2 DUP2 SUB PUSH1 0x0 DUP4 ADD MSTORE PUSH2 0xBC1 DUP2 PUSH2 0xABB JUMP JUMPDEST SWAP1 POP SWAP2 SWAP1 POP JUMP JUMPDEST PUSH1 0x0 PUSH1 0x20 DUP3 ADD SWAP1 POP DUP2 DUP2 SUB PUSH1 0x0 DUP4 ADD MSTORE PUSH2 0xBE1 DUP2 PUSH2 0xADE JUMP JUMPDEST SWAP1 POP SWAP2 SWAP1 POP JUMP JUMPDEST PUSH1 0x0 PUSH1 0x20 DUP3 ADD SWAP1 POP DUP2 DUP2 SUB PUSH1 0x0 DUP4 ADD MSTORE PUSH2 0xC01 DUP2 PUSH2 0xB01 JUMP JUMPDEST SWAP1 POP SWAP2 SWAP1 POP JUMP JUMPDEST PUSH1 0x0 PUSH1 0x20 DUP3 ADD SWAP1 POP PUSH2 0xC1D PUSH1 0x0 DUP4 ADD DUP5 PUSH2 0xB24 JUMP JUMPDEST SWAP3 SWAP2 POP POP JUMP JUMPDEST PUSH1 0x0 PUSH2 0xC2D PUSH2 0xC3E JUMP JUMPDEST SWAP1 POP PUSH2 0xC39 DUP3 DUP3 PUSH2 0xDB9 JUMP JUMPDEST SWAP2 SWAP1 POP JUMP JUMPDEST PUSH1 0x0 PUSH1 0x40 MLOAD SWAP1 POP SWAP1 JUMP JUMPDEST PUSH1 0x0 PUSH8 0xFFFFFFFFFFFFFFFF DUP3 GT ISZERO PUSH2 0xC63 JUMPI PUSH2 0xC62 PUSH2 0xE91 JUMP JUMPDEST JUMPDEST PUSH2 0xC6C DUP3 PUSH2 0xED4 JUMP JUMPDEST SWAP1 POP PUSH1 0x20 DUP2 ADD SWAP1 POP SWAP2 SWAP1 POP JUMP JUMPDEST PUSH1 0x0 DUP2 MLOAD SWAP1 POP SWAP2 SWAP1 POP JUMP JUMPDEST PUSH1 0x0 DUP3 DUP3 MSTORE PUSH1 0x20 DUP3 ADD SWAP1 POP SWAP3 SWAP2 POP POP JUMP JUMPDEST PUSH1 0x0 PUSH2 0xCA0 DUP3 PUSH2 0xD3B JUMP JUMPDEST SWAP2 POP PUSH2 0xCAB DUP4 PUSH2 0xD3B JUMP JUMPDEST SWAP3 POP DUP3 PUSH32 0xFFFFFFFFFFFFFFFFFFFFFFFFFFFFFFFFFFFFFFFFFFFFFFFFFFFFFFFFFFFFFFFF SUB DUP3 GT ISZERO PUSH2 0xCE0 JUMPI PUSH2 0xCDF PUSH2 0xE33 JUMP JUMPDEST JUMPDEST DUP3 DUP3 ADD SWAP1 POP SWAP3 SWAP2 POP POP JUMP JUMPDEST PUSH1 0x0 PUSH2 0xCF6 DUP3 PUSH2 0xD1B JUMP JUMPDEST SWAP1 POP SWAP2 SWAP1 POP JUMP JUMPDEST PUSH1 0x0 PUSH2 0xD08 DUP3 PUSH2 0xD1B JUMP JUMPDEST SWAP1 POP SWAP2 SWAP1 POP JUMP JUMPDEST PUSH1 0x0 DUP2 ISZERO ISZERO SWAP1 POP SWAP2 SWAP1 POP JUMP JUMPDEST PUSH1 0x0 PUSH20 0xFFFFFFFFFFFFFFFFFFFFFFFFFFFFFFFFFFFFFFFF DUP3 AND SWAP1 POP SWAP2 SWAP1 POP JUMP JUMPDEST PUSH1 0x0 DUP2 SWAP1 POP SWAP2 SWAP1 POP JUMP JUMPDEST DUP3 DUP2 DUP4 CALLDATACOPY PUSH1 0x0 DUP4 DUP4 ADD MSTORE POP POP POP JUMP JUMPDEST PUSH1 0x0 JUMPDEST DUP4 DUP2 LT ISZERO PUSH2 0xD72 JUMPI DUP1 DUP3 ADD MLOAD DUP2 DUP5 ADD MSTORE PUSH1 0x20 DUP2 ADD SWAP1 POP PUSH2 0xD57 JUMP JUMPDEST DUP4 DUP2 GT ISZERO PUSH2 0xD81 JUMPI PUSH1 0x0 DUP5 DUP5 ADD MSTORE JUMPDEST POP POP POP POP JUMP JUMPDEST PUSH1 0x0 PUSH1 0x2 DUP3 DIV SWAP1 POP PUSH1 0x1 DUP3 AND DUP1 PUSH2 0xD9F JUMPI PUSH1 0x7F DUP3 AND SWAP2 POP JUMPDEST PUSH1 0x20 DUP3 LT DUP2 EQ ISZERO PUSH2 0xDB3 JUMPI PUSH2 0xDB2 PUSH2 0xE62 JUMP JUMPDEST JUMPDEST POP SWAP2 SWAP1 POP JUMP JUMPDEST PUSH2 0xDC2 DUP3 PUSH2 0xED4 JUMP JUMPDEST DUP2 ADD DUP2 DUP2 LT PUSH8 0xFFFFFFFFFFFFFFFF DUP3 GT OR ISZERO PUSH2 0xDE1 JUMPI PUSH2 0xDE0 PUSH2 0xE91 JUMP JUMPDEST JUMPDEST DUP1 PUSH1 0x40 MSTORE POP POP POP JUMP JUMPDEST PUSH1 0x0 PUSH2 0xDF5 DUP3 PUSH2 0xD3B JUMP JUMPDEST SWAP2 POP PUSH32 0xFFFFFFFFFFFFFFFFFFFFFFFFFFFFFFFFFFFFFFFFFFFFFFFFFFFFFFFFFFFFFFFF DUP3 EQ ISZERO PUSH2 0xE28 JUMPI PUSH2 0xE27 PUSH2 0xE33 JUMP JUMPDEST JUMPDEST PUSH1 0x1 DUP3 ADD SWAP1 POP SWAP2 SWAP1 POP JUMP JUMPDEST PUSH32 0x4E487B7100000000000000000000000000000000000000000000000000000000 PUSH1 0x0 MSTORE PUSH1 0x11 PUSH1 0x4 MSTORE PUSH1 0x24 PUSH1 0x0 REVERT JUMPDEST PUSH32 0x4E487B7100000000000000000000000000000000000000000000000000000000 PUSH1 0x0 MSTORE PUSH1 0x22 PUSH1 0x4 MSTORE PUSH1 0x24 PUSH1 0x0 REVERT JUMPDEST PUSH32 0x4E487B7100000000000000000000000000000000000000000000000000000000 PUSH1 0x0 MSTORE PUSH1 0x41 PUSH1 0x4 MSTORE PUSH1 0x24 PUSH1 0x0 REVERT JUMPDEST PUSH1 0x0 DUP1 REVERT JUMPDEST PUSH1 0x0 DUP1 REVERT JUMPDEST PUSH1 0x0 DUP1 REVERT JUMPDEST PUSH1 0x0 DUP1 REVERT JUMPDEST PUSH1 0x0 PUSH1 0x1F NOT PUSH1 0x1F DUP4 ADD AND SWAP1 POP SWAP2 SWAP1 POP JUMP JUMPDEST PUSH32 0x446561646C696E6520686173207061737365642E000000000000000000000000 PUSH1 0x0 DUP3 ADD MSTORE POP JUMP JUMPDEST PUSH32 0x41646D696E2070726976656C656765732072657175697265642E000000000000 PUSH1 0x0 DUP3 ADD MSTORE POP JUMP JUMPDEST PUSH32 0x4D696E696D756D20636F6E747269627574696F6E206E6F74206D65742E000000 PUSH1 0x0 DUP3 ADD MSTORE POP JUMP JUMPDEST PUSH2 0xF69 DUP2 PUSH2 0xCEB JUMP JUMPDEST DUP2 EQ PUSH2 0xF74 JUMPI PUSH1 0x0 DUP1 REVERT JUMPDEST POP JUMP JUMPDEST PUSH2 0xF80 DUP2 PUSH2 0xCFD JUMP JUMPDEST DUP2 EQ PUSH2 0xF8B JUMPI PUSH1 0x0 DUP1 REVERT JUMPDEST POP JUMP JUMPDEST PUSH2 0xF97 DUP2 PUSH2 0xD3B JUMP JUMPDEST DUP2 EQ PUSH2 0xFA2 JUMPI PUSH1 0x0 DUP1 REVERT JUMPDEST POP JUMP INVALID LOG2 PUSH5 0x6970667358 0x22 SLT KECCAK256 PUSH25 0xBF3BC4A82219D960733080974199ACAC539CF0EC19A974A59A 0xD8 TIMESTAMP SMOD LT 0xAB 0xB8 PUSH5 0x736F6C6343 STOP ADDMOD SMOD STOP CALLER "
				},
				"gasEstimates": {
					"creation": {
						"codeDepositCost": "811800",
						"executionCost": "infinite",
						"totalCost": "infinite"
					},
					"external": {
						"admin()": "2602",
						"contribute()": "infinite",
						"contributors(address)": "2859",
						"createRequest(string,address,uint256)": "infinite",
						"deadline()": "2496",
						"getBalance()": "340",
						"getRefund()": "infinite",
						"goal()": "2518",
						"minimumContribution()": "2452",
						"numberContributors()": "2495",
						"numberRequests()": "2451",
						"raisedAmount()": "2496",
						"requests(uint256)": "infinite"
					}
				},
				"methodIdentifiers": {
					"admin()": "f851a440",
					"contribute()": "d7bb99ba",
					"contributors(address)": "1f6d4942",
					"createRequest(string,address,uint256)": "1b16bb5c",
					"deadline()": "29dcb0cf",
					"getBalance()": "12065fe0",
					"getRefund()": "b2d5ae44",
					"goal()": "40193883",
					"minimumContribution()": "937e09b1",
					"numberContributors()": "f3740daf",
					"numberRequests()": "d3a9d4ea",
					"raisedAmount()": "c59ee1dc",
					"requests(uint256)": "81d12c58"
				}
			},
			"storageLayout": {
				"storage": [
					{
						"astId": 5,
						"contract": "contracts/crowdfunding.sol:CrowdFunding",
						"label": "contributors",
						"offset": 0,
						"slot": "0",
						"type": "t_mapping(t_address,t_uint256)"
					},
					{
						"astId": 7,
						"contract": "contracts/crowdfunding.sol:CrowdFunding",
						"label": "admin",
						"offset": 0,
						"slot": "1",
						"type": "t_address"
					},
					{
						"astId": 9,
						"contract": "contracts/crowdfunding.sol:CrowdFunding",
						"label": "numberContributors",
						"offset": 0,
						"slot": "2",
						"type": "t_uint256"
					},
					{
						"astId": 11,
						"contract": "contracts/crowdfunding.sol:CrowdFunding",
						"label": "minimumContribution",
						"offset": 0,
						"slot": "3",
						"type": "t_uint256"
					},
					{
						"astId": 13,
						"contract": "contracts/crowdfunding.sol:CrowdFunding",
						"label": "deadline",
						"offset": 0,
						"slot": "4",
						"type": "t_uint256"
					},
					{
						"astId": 15,
						"contract": "contracts/crowdfunding.sol:CrowdFunding",
						"label": "goal",
						"offset": 0,
						"slot": "5",
						"type": "t_uint256"
					},
					{
						"astId": 17,
						"contract": "contracts/crowdfunding.sol:CrowdFunding",
						"label": "raisedAmount",
						"offset": 0,
						"slot": "6",
						"type": "t_uint256"
					},
					{
						"astId": 37,
						"contract": "contracts/crowdfunding.sol:CrowdFunding",
						"label": "requests",
						"offset": 0,
						"slot": "7",
						"type": "t_mapping(t_uint256,t_struct(Request)32_storage)"
					},
					{
						"astId": 39,
						"contract": "contracts/crowdfunding.sol:CrowdFunding",
						"label": "numberRequests",
						"offset": 0,
						"slot": "8",
						"type": "t_uint256"
					}
				],
				"types": {
					"t_address": {
						"encoding": "inplace",
						"label": "address",
						"numberOfBytes": "20"
					},
					"t_address_payable": {
						"encoding": "inplace",
						"label": "address payable",
						"numberOfBytes": "20"
					},
					"t_bool": {
						"encoding": "inplace",
						"label": "bool",
						"numberOfBytes": "1"
					},
					"t_mapping(t_address,t_bool)": {
						"encoding": "mapping",
						"key": "t_address",
						"label": "mapping(address => bool)",
						"numberOfBytes": "32",
						"value": "t_bool"
					},
					"t_mapping(t_address,t_uint256)": {
						"encoding": "mapping",
						"key": "t_address",
						"label": "mapping(address => uint256)",
						"numberOfBytes": "32",
						"value": "t_uint256"
					},
					"t_mapping(t_uint256,t_struct(Request)32_storage)": {
						"encoding": "mapping",
						"key": "t_uint256",
						"label": "mapping(uint256 => struct CrowdFunding.Request)",
						"numberOfBytes": "32",
						"value": "t_struct(Request)32_storage"
					},
					"t_string_storage": {
						"encoding": "bytes",
						"label": "string",
						"numberOfBytes": "32"
					},
					"t_struct(Request)32_storage": {
						"encoding": "inplace",
						"label": "struct CrowdFunding.Request",
						"members": [
							{
								"astId": 19,
								"contract": "contracts/crowdfunding.sol:CrowdFunding",
								"label": "description",
								"offset": 0,
								"slot": "0",
								"type": "t_string_storage"
							},
							{
								"astId": 21,
								"contract": "contracts/crowdfunding.sol:CrowdFunding",
								"label": "recipient",
								"offset": 0,
								"slot": "1",
								"type": "t_address_payable"
							},
							{
								"astId": 23,
								"contract": "contracts/crowdfunding.sol:CrowdFunding",
								"label": "value",
								"offset": 0,
								"slot": "2",
								"type": "t_uint256"
							},
							{
								"astId": 25,
								"contract": "contracts/crowdfunding.sol:CrowdFunding",
								"label": "completed",
								"offset": 0,
								"slot": "3",
								"type": "t_bool"
							},
							{
								"astId": 27,
								"contract": "contracts/crowdfunding.sol:CrowdFunding",
								"label": "numberVoters",
								"offset": 0,
								"slot": "4",
								"type": "t_uint256"
							},
							{
								"astId": 31,
								"contract": "contracts/crowdfunding.sol:CrowdFunding",
								"label": "voters",
								"offset": 0,
								"slot": "5",
								"type": "t_mapping(t_address,t_bool)"
							}
						],
						"numberOfBytes": "192"
					},
					"t_uint256": {
						"encoding": "inplace",
						"label": "uint256",
						"numberOfBytes": "32"
					}
				}
			},
			"userdoc": {
				"kind": "user",
				"methods": {},
				"version": 1
			}
		}
	}
}