{
	"contracts/contract_address_balance.sol": {
		"Deposit": {
			"abi": [
				{
					"inputs": [],
					"stateMutability": "nonpayable",
					"type": "constructor"
				},
				{
					"stateMutability": "payable",
					"type": "fallback"
				},
				{
					"inputs": [],
					"name": "getBalance",
					"outputs": [
						{
							"internalType": "uint256",
							"name": "",
							"type": "uint256"
						}
					],
					"stateMutability": "view",
					"type": "function"
				},
				{
					"inputs": [],
					"name": "owner",
					"outputs": [
						{
							"internalType": "address",
							"name": "",
							"type": "address"
						}
					],
					"stateMutability": "view",
					"type": "function"
				},
				{
					"inputs": [],
					"name": "sendEther",
					"outputs": [],
					"stateMutability": "payable",
					"type": "function"
				},
				{
					"inputs": [
						{
							"internalType": "address payable",
							"name": "recipient",
							"type": "address"
						},
						{
							"internalType": "uint256",
							"name": "amount",
							"type": "uint256"
						}
					],
					"name": "transferEther",
					"outputs": [
						{
							"internalType": "bool",
							"name": "",
							"type": "bool"
						}
					],
					"stateMutability": "nonpayable",
					"type": "function"
				},
				{
					"stateMutability": "payable",
					"type": "receive"
				}
			],
			"devdoc": {
				"kind": "dev",
				"methods": {},
				"version": 1
			},
			"evm": {
				"assembly": "    /* \"contracts/contract_address_balance.sol\":197:1424  contract Deposit{\r... */\n  mstore(0x40, 0x80)\n    /* \"contracts/contract_address_balance.sol\":333:383  constructor(){\r... */\n  callvalue\n  dup1\n  iszero\n  tag_1\n  jumpi\n  0x00\n  dup1\n  revert\ntag_1:\n  pop\n    /* \"contracts/contract_address_balance.sol\":365:375  msg.sender */\n  caller\n    /* \"contracts/contract_address_balance.sol\":357:362  owner */\n  0x00\n  dup1\n    /* \"contracts/contract_address_balance.sol\":357:375  owner = msg.sender */\n  0x0100\n  exp\n  dup2\n  sload\n  dup2\n  0xffffffffffffffffffffffffffffffffffffffff\n  mul\n  not\n  and\n  swap1\n  dup4\n  0xffffffffffffffffffffffffffffffffffffffff\n  and\n  mul\n  or\n  swap1\n  sstore\n  pop\n    /* \"contracts/contract_address_balance.sol\":197:1424  contract Deposit{\r... */\n  dataSize(sub_0)\n  dup1\n  dataOffset(sub_0)\n  0x00\n  codecopy\n  0x00\n  return\nstop\n\nsub_0: assembly {\n        /* \"contracts/contract_address_balance.sol\":197:1424  contract Deposit{\r... */\n      mstore(0x40, 0x80)\n      jumpi(tag_1, lt(calldatasize, 0x04))\n      shr(0xe0, calldataload(0x00))\n      dup1\n      0x05b1137b\n      eq\n      tag_3\n      jumpi\n      dup1\n      0x0e29df22\n      eq\n      tag_4\n      jumpi\n      dup1\n      0x12065fe0\n      eq\n      tag_5\n      jumpi\n      dup1\n      0x8da5cb5b\n      eq\n      tag_6\n      jumpi\n      jump(tag_2)\n    tag_1:\n      jumpi(tag_2, calldatasize)\n      stop\n    tag_2:\n      stop\n        /* \"contracts/contract_address_balance.sol\":963:1421  function transferEther(address payable recipient, uint amount) public returns(bool){\r... */\n    tag_3:\n      callvalue\n      dup1\n      iszero\n      tag_11\n      jumpi\n      0x00\n      dup1\n      revert\n    tag_11:\n      pop\n      tag_12\n      0x04\n      dup1\n      calldatasize\n      sub\n      dup2\n      add\n      swap1\n      tag_13\n      swap2\n      swap1\n      tag_14\n      jump\t// in\n    tag_13:\n      tag_15\n      jump\t// in\n    tag_12:\n      mload(0x40)\n      tag_16\n      swap2\n      swap1\n      tag_17\n      jump\t// in\n    tag_16:\n      mload(0x40)\n      dup1\n      swap2\n      sub\n      swap1\n      return\n        /* \"contracts/contract_address_balance.sol\":769:843  function sendEther() public payable{\r... */\n    tag_4:\n      tag_18\n      tag_19\n      jump\t// in\n    tag_18:\n      stop\n        /* \"contracts/contract_address_balance.sol\":667:761  function getBalance() public view returns(uint){\r... */\n    tag_5:\n      callvalue\n      dup1\n      iszero\n      tag_20\n      jumpi\n      0x00\n      dup1\n      revert\n    tag_20:\n      pop\n      tag_21\n      tag_22\n      jump\t// in\n    tag_21:\n      mload(0x40)\n      tag_23\n      swap2\n      swap1\n      tag_24\n      jump\t// in\n    tag_23:\n      mload(0x40)\n      dup1\n      swap2\n      sub\n      swap1\n      return\n        /* \"contracts/contract_address_balance.sol\":279:299  address public owner */\n    tag_6:\n      callvalue\n      dup1\n      iszero\n      tag_25\n      jumpi\n      0x00\n      dup1\n      revert\n    tag_25:\n      pop\n      tag_26\n      tag_27\n      jump\t// in\n    tag_26:\n      mload(0x40)\n      tag_28\n      swap2\n      swap1\n      tag_29\n      jump\t// in\n    tag_28:\n      mload(0x40)\n      dup1\n      swap2\n      sub\n      swap1\n      return\n        /* \"contracts/contract_address_balance.sol\":963:1421  function transferEther(address payable recipient, uint amount) public returns(bool){\r... */\n    tag_15:\n        /* \"contracts/contract_address_balance.sol\":1041:1045  bool */\n      0x00\n        /* \"contracts/contract_address_balance.sol\":1142:1152  msg.sender */\n      caller\n        /* \"contracts/contract_address_balance.sol\":1133:1152  owner == msg.sender */\n      0xffffffffffffffffffffffffffffffffffffffff\n      and\n        /* \"contracts/contract_address_balance.sol\":1133:1138  owner */\n      0x00\n      dup1\n      sload\n      swap1\n      0x0100\n      exp\n      swap1\n      div\n      0xffffffffffffffffffffffffffffffffffffffff\n      and\n        /* \"contracts/contract_address_balance.sol\":1133:1152  owner == msg.sender */\n      0xffffffffffffffffffffffffffffffffffffffff\n      and\n      eq\n        /* \"contracts/contract_address_balance.sol\":1125:1166  require(owner == msg.sender, \"Transacti\") */\n      tag_31\n      jumpi\n      mload(0x40)\n      0x08c379a000000000000000000000000000000000000000000000000000000000\n      dup2\n      mstore\n      0x04\n      add\n      tag_32\n      swap1\n      tag_33\n      jump\t// in\n    tag_32:\n      mload(0x40)\n      dup1\n      swap2\n      sub\n      swap1\n      revert\n    tag_31:\n        /* \"contracts/contract_address_balance.sol\":1191:1203  getBalance() */\n      tag_34\n        /* \"contracts/contract_address_balance.sol\":1191:1201  getBalance */\n      tag_22\n        /* \"contracts/contract_address_balance.sol\":1191:1203  getBalance() */\n      jump\t// in\n    tag_34:\n        /* \"contracts/contract_address_balance.sol\":1181:1187  amount */\n      dup3\n        /* \"contracts/contract_address_balance.sol\":1181:1203  amount <= getBalance() */\n      gt\n        /* \"contracts/contract_address_balance.sol\":1177:1414  if (amount <= getBalance()){\r... */\n      tag_35\n      jumpi\n        /* \"contracts/contract_address_balance.sol\":1307:1316  recipient */\n      dup3\n        /* \"contracts/contract_address_balance.sol\":1307:1325  recipient.transfer */\n      0xffffffffffffffffffffffffffffffffffffffff\n      and\n        /* \"contracts/contract_address_balance.sol\":1307:1333  recipient.transfer(amount) */\n      0x08fc\n        /* \"contracts/contract_address_balance.sol\":1326:1332  amount */\n      dup4\n        /* \"contracts/contract_address_balance.sol\":1307:1333  recipient.transfer(amount) */\n      swap1\n      dup2\n      iszero\n      mul\n      swap1\n      mload(0x40)\n      0x00\n      mload(0x40)\n      dup1\n      dup4\n      sub\n      dup2\n      dup6\n      dup9\n      dup9\n      call\n      swap4\n      pop\n      pop\n      pop\n      pop\n      iszero\n      dup1\n      iszero\n      tag_37\n      jumpi\n      returndatasize\n      0x00\n      dup1\n      returndatacopy\n      revert(0x00, returndatasize)\n    tag_37:\n      pop\n        /* \"contracts/contract_address_balance.sol\":1355:1359  true */\n      0x01\n        /* \"contracts/contract_address_balance.sol\":1348:1359  return true */\n      swap1\n      pop\n      jump(tag_30)\n        /* \"contracts/contract_address_balance.sol\":1177:1414  if (amount <= getBalance()){\r... */\n    tag_35:\n        /* \"contracts/contract_address_balance.sol\":1397:1402  false */\n      0x00\n        /* \"contracts/contract_address_balance.sol\":1390:1402  return false */\n      swap1\n      pop\n        /* \"contracts/contract_address_balance.sol\":963:1421  function transferEther(address payable recipient, uint amount) public returns(bool){\r... */\n    tag_30:\n      swap3\n      swap2\n      pop\n      pop\n      jump\t// out\n        /* \"contracts/contract_address_balance.sol\":769:843  function sendEther() public payable{\r... */\n    tag_19:\n        /* \"contracts/contract_address_balance.sol\":815:821  uint x */\n      0x00\n        /* \"contracts/contract_address_balance.sol\":832:835  x++ */\n      dup1\n      dup1\n      tag_40\n      swap1\n      tag_41\n      jump\t// in\n    tag_40:\n      swap2\n      pop\n      pop\n        /* \"contracts/contract_address_balance.sol\":804:843  {\r... */\n      pop\n        /* \"contracts/contract_address_balance.sol\":769:843  function sendEther() public payable{\r... */\n      jump\t// out\n        /* \"contracts/contract_address_balance.sol\":667:761  function getBalance() public view returns(uint){\r... */\n    tag_22:\n        /* \"contracts/contract_address_balance.sol\":709:713  uint */\n      0x00\n        /* \"contracts/contract_address_balance.sol\":732:753  address(this).balance */\n      selfbalance\n        /* \"contracts/contract_address_balance.sol\":725:753  return address(this).balance */\n      swap1\n      pop\n        /* \"contracts/contract_address_balance.sol\":667:761  function getBalance() public view returns(uint){\r... */\n      swap1\n      jump\t// out\n        /* \"contracts/contract_address_balance.sol\":279:299  address public owner */\n    tag_27:\n      0x00\n      dup1\n      sload\n      swap1\n      0x0100\n      exp\n      swap1\n      div\n      0xffffffffffffffffffffffffffffffffffffffff\n      and\n      dup2\n      jump\t// out\n        /* \"#utility.yul\":7:162   */\n    tag_44:\n        /* \"#utility.yul\":61:66   */\n      0x00\n        /* \"#utility.yul\":99:105   */\n      dup2\n        /* \"#utility.yul\":86:106   */\n      calldataload\n        /* \"#utility.yul\":77:106   */\n      swap1\n      pop\n        /* \"#utility.yul\":115:156   */\n      tag_46\n        /* \"#utility.yul\":150:155   */\n      dup2\n        /* \"#utility.yul\":115:156   */\n      tag_47\n      jump\t// in\n    tag_46:\n        /* \"#utility.yul\":7:162   */\n      swap3\n      swap2\n      pop\n      pop\n      jump\t// out\n        /* \"#utility.yul\":168:307   */\n    tag_48:\n        /* \"#utility.yul\":214:219   */\n      0x00\n        /* \"#utility.yul\":252:258   */\n      dup2\n        /* \"#utility.yul\":239:259   */\n      calldataload\n        /* \"#utility.yul\":230:259   */\n      swap1\n      pop\n        /* \"#utility.yul\":268:301   */\n      tag_50\n        /* \"#utility.yul\":295:300   */\n      dup2\n        /* \"#utility.yul\":268:301   */\n      tag_51\n      jump\t// in\n    tag_50:\n        /* \"#utility.yul\":168:307   */\n      swap3\n      swap2\n      pop\n      pop\n      jump\t// out\n        /* \"#utility.yul\":313:803   */\n    tag_14:\n        /* \"#utility.yul\":389:395   */\n      0x00\n        /* \"#utility.yul\":397:403   */\n      dup1\n        /* \"#utility.yul\":446:448   */\n      0x40\n        /* \"#utility.yul\":434:443   */\n      dup4\n        /* \"#utility.yul\":425:432   */\n      dup6\n        /* \"#utility.yul\":421:444   */\n      sub\n        /* \"#utility.yul\":417:449   */\n      slt\n        /* \"#utility.yul\":414:533   */\n      iszero\n      tag_53\n      jumpi\n        /* \"#utility.yul\":452:531   */\n      tag_54\n      tag_55\n      jump\t// in\n    tag_54:\n        /* \"#utility.yul\":414:533   */\n    tag_53:\n        /* \"#utility.yul\":572:573   */\n      0x00\n        /* \"#utility.yul\":597:658   */\n      tag_56\n        /* \"#utility.yul\":650:657   */\n      dup6\n        /* \"#utility.yul\":641:647   */\n      dup3\n        /* \"#utility.yul\":630:639   */\n      dup7\n        /* \"#utility.yul\":626:648   */\n      add\n        /* \"#utility.yul\":597:658   */\n      tag_44\n      jump\t// in\n    tag_56:\n        /* \"#utility.yul\":587:658   */\n      swap3\n      pop\n        /* \"#utility.yul\":543:668   */\n      pop\n        /* \"#utility.yul\":707:709   */\n      0x20\n        /* \"#utility.yul\":733:786   */\n      tag_57\n        /* \"#utility.yul\":778:785   */\n      dup6\n        /* \"#utility.yul\":769:775   */\n      dup3\n        /* \"#utility.yul\":758:767   */\n      dup7\n        /* \"#utility.yul\":754:776   */\n      add\n        /* \"#utility.yul\":733:786   */\n      tag_48\n      jump\t// in\n    tag_57:\n        /* \"#utility.yul\":723:786   */\n      swap2\n      pop\n        /* \"#utility.yul\":678:796   */\n      pop\n        /* \"#utility.yul\":313:803   */\n      swap3\n      pop\n      swap3\n      swap1\n      pop\n      jump\t// out\n        /* \"#utility.yul\":809:927   */\n    tag_58:\n        /* \"#utility.yul\":896:920   */\n      tag_60\n        /* \"#utility.yul\":914:919   */\n      dup2\n        /* \"#utility.yul\":896:920   */\n      tag_61\n      jump\t// in\n    tag_60:\n        /* \"#utility.yul\":891:894   */\n      dup3\n        /* \"#utility.yul\":884:921   */\n      mstore\n        /* \"#utility.yul\":809:927   */\n      pop\n      pop\n      jump\t// out\n        /* \"#utility.yul\":933:1042   */\n    tag_62:\n        /* \"#utility.yul\":1014:1035   */\n      tag_64\n        /* \"#utility.yul\":1029:1034   */\n      dup2\n        /* \"#utility.yul\":1014:1035   */\n      tag_65\n      jump\t// in\n    tag_64:\n        /* \"#utility.yul\":1009:1012   */\n      dup3\n        /* \"#utility.yul\":1002:1036   */\n      mstore\n        /* \"#utility.yul\":933:1042   */\n      pop\n      pop\n      jump\t// out\n        /* \"#utility.yul\":1048:1413   */\n    tag_66:\n        /* \"#utility.yul\":1190:1193   */\n      0x00\n        /* \"#utility.yul\":1211:1277   */\n      tag_68\n        /* \"#utility.yul\":1275:1276   */\n      0x09\n        /* \"#utility.yul\":1270:1273   */\n      dup4\n        /* \"#utility.yul\":1211:1277   */\n      tag_69\n      jump\t// in\n    tag_68:\n        /* \"#utility.yul\":1204:1277   */\n      swap2\n      pop\n        /* \"#utility.yul\":1286:1379   */\n      tag_70\n        /* \"#utility.yul\":1375:1378   */\n      dup3\n        /* \"#utility.yul\":1286:1379   */\n      tag_71\n      jump\t// in\n    tag_70:\n        /* \"#utility.yul\":1404:1406   */\n      0x20\n        /* \"#utility.yul\":1399:1402   */\n      dup3\n        /* \"#utility.yul\":1395:1407   */\n      add\n        /* \"#utility.yul\":1388:1407   */\n      swap1\n      pop\n        /* \"#utility.yul\":1048:1413   */\n      swap2\n      swap1\n      pop\n      jump\t// out\n        /* \"#utility.yul\":1419:1537   */\n    tag_72:\n        /* \"#utility.yul\":1506:1530   */\n      tag_74\n        /* \"#utility.yul\":1524:1529   */\n      dup2\n        /* \"#utility.yul\":1506:1530   */\n      tag_75\n      jump\t// in\n    tag_74:\n        /* \"#utility.yul\":1501:1504   */\n      dup3\n        /* \"#utility.yul\":1494:1531   */\n      mstore\n        /* \"#utility.yul\":1419:1537   */\n      pop\n      pop\n      jump\t// out\n        /* \"#utility.yul\":1543:1765   */\n    tag_29:\n        /* \"#utility.yul\":1636:1640   */\n      0x00\n        /* \"#utility.yul\":1674:1676   */\n      0x20\n        /* \"#utility.yul\":1663:1672   */\n      dup3\n        /* \"#utility.yul\":1659:1677   */\n      add\n        /* \"#utility.yul\":1651:1677   */\n      swap1\n      pop\n        /* \"#utility.yul\":1687:1758   */\n      tag_77\n        /* \"#utility.yul\":1755:1756   */\n      0x00\n        /* \"#utility.yul\":1744:1753   */\n      dup4\n        /* \"#utility.yul\":1740:1757   */\n      add\n        /* \"#utility.yul\":1731:1737   */\n      dup5\n        /* \"#utility.yul\":1687:1758   */\n      tag_58\n      jump\t// in\n    tag_77:\n        /* \"#utility.yul\":1543:1765   */\n      swap3\n      swap2\n      pop\n      pop\n      jump\t// out\n        /* \"#utility.yul\":1771:1981   */\n    tag_17:\n        /* \"#utility.yul\":1858:1862   */\n      0x00\n        /* \"#utility.yul\":1896:1898   */\n      0x20\n        /* \"#utility.yul\":1885:1894   */\n      dup3\n        /* \"#utility.yul\":1881:1899   */\n      add\n        /* \"#utility.yul\":1873:1899   */\n      swap1\n      pop\n        /* \"#utility.yul\":1909:1974   */\n      tag_79\n        /* \"#utility.yul\":1971:1972   */\n      0x00\n        /* \"#utility.yul\":1960:1969   */\n      dup4\n        /* \"#utility.yul\":1956:1973   */\n      add\n        /* \"#utility.yul\":1947:1953   */\n      dup5\n        /* \"#utility.yul\":1909:1974   */\n      tag_62\n      jump\t// in\n    tag_79:\n        /* \"#utility.yul\":1771:1981   */\n      swap3\n      swap2\n      pop\n      pop\n      jump\t// out\n        /* \"#utility.yul\":1987:2406   */\n    tag_33:\n        /* \"#utility.yul\":2153:2157   */\n      0x00\n        /* \"#utility.yul\":2191:2193   */\n      0x20\n        /* \"#utility.yul\":2180:2189   */\n      dup3\n        /* \"#utility.yul\":2176:2194   */\n      add\n        /* \"#utility.yul\":2168:2194   */\n      swap1\n      pop\n        /* \"#utility.yul\":2240:2249   */\n      dup2\n        /* \"#utility.yul\":2234:2238   */\n      dup2\n        /* \"#utility.yul\":2230:2250   */\n      sub\n        /* \"#utility.yul\":2226:2227   */\n      0x00\n        /* \"#utility.yul\":2215:2224   */\n      dup4\n        /* \"#utility.yul\":2211:2228   */\n      add\n        /* \"#utility.yul\":2204:2251   */\n      mstore\n        /* \"#utility.yul\":2268:2399   */\n      tag_81\n        /* \"#utility.yul\":2394:2398   */\n      dup2\n        /* \"#utility.yul\":2268:2399   */\n      tag_66\n      jump\t// in\n    tag_81:\n        /* \"#utility.yul\":2260:2399   */\n      swap1\n      pop\n        /* \"#utility.yul\":1987:2406   */\n      swap2\n      swap1\n      pop\n      jump\t// out\n        /* \"#utility.yul\":2412:2634   */\n    tag_24:\n        /* \"#utility.yul\":2505:2509   */\n      0x00\n        /* \"#utility.yul\":2543:2545   */\n      0x20\n        /* \"#utility.yul\":2532:2541   */\n      dup3\n        /* \"#utility.yul\":2528:2546   */\n      add\n        /* \"#utility.yul\":2520:2546   */\n      swap1\n      pop\n        /* \"#utility.yul\":2556:2627   */\n      tag_83\n        /* \"#utility.yul\":2624:2625   */\n      0x00\n        /* \"#utility.yul\":2613:2622   */\n      dup4\n        /* \"#utility.yul\":2609:2626   */\n      add\n        /* \"#utility.yul\":2600:2606   */\n      dup5\n        /* \"#utility.yul\":2556:2627   */\n      tag_72\n      jump\t// in\n    tag_83:\n        /* \"#utility.yul\":2412:2634   */\n      swap3\n      swap2\n      pop\n      pop\n      jump\t// out\n        /* \"#utility.yul\":2721:2890   */\n    tag_69:\n        /* \"#utility.yul\":2805:2816   */\n      0x00\n        /* \"#utility.yul\":2839:2845   */\n      dup3\n        /* \"#utility.yul\":2834:2837   */\n      dup3\n        /* \"#utility.yul\":2827:2846   */\n      mstore\n        /* \"#utility.yul\":2879:2883   */\n      0x20\n        /* \"#utility.yul\":2874:2877   */\n      dup3\n        /* \"#utility.yul\":2870:2884   */\n      add\n        /* \"#utility.yul\":2855:2884   */\n      swap1\n      pop\n        /* \"#utility.yul\":2721:2890   */\n      swap3\n      swap2\n      pop\n      pop\n      jump\t// out\n        /* \"#utility.yul\":2896:2992   */\n    tag_61:\n        /* \"#utility.yul\":2933:2940   */\n      0x00\n        /* \"#utility.yul\":2962:2986   */\n      tag_88\n        /* \"#utility.yul\":2980:2985   */\n      dup3\n        /* \"#utility.yul\":2962:2986   */\n      tag_89\n      jump\t// in\n    tag_88:\n        /* \"#utility.yul\":2951:2986   */\n      swap1\n      pop\n        /* \"#utility.yul\":2896:2992   */\n      swap2\n      swap1\n      pop\n      jump\t// out\n        /* \"#utility.yul\":2998:3102   */\n    tag_90:\n        /* \"#utility.yul\":3043:3050   */\n      0x00\n        /* \"#utility.yul\":3072:3096   */\n      tag_92\n        /* \"#utility.yul\":3090:3095   */\n      dup3\n        /* \"#utility.yul\":3072:3096   */\n      tag_89\n      jump\t// in\n    tag_92:\n        /* \"#utility.yul\":3061:3096   */\n      swap1\n      pop\n        /* \"#utility.yul\":2998:3102   */\n      swap2\n      swap1\n      pop\n      jump\t// out\n        /* \"#utility.yul\":3108:3198   */\n    tag_65:\n        /* \"#utility.yul\":3142:3149   */\n      0x00\n        /* \"#utility.yul\":3185:3190   */\n      dup2\n        /* \"#utility.yul\":3178:3191   */\n      iszero\n        /* \"#utility.yul\":3171:3192   */\n      iszero\n        /* \"#utility.yul\":3160:3192   */\n      swap1\n      pop\n        /* \"#utility.yul\":3108:3198   */\n      swap2\n      swap1\n      pop\n      jump\t// out\n        /* \"#utility.yul\":3204:3330   */\n    tag_89:\n        /* \"#utility.yul\":3241:3248   */\n      0x00\n        /* \"#utility.yul\":3281:3323   */\n      0xffffffffffffffffffffffffffffffffffffffff\n        /* \"#utility.yul\":3274:3279   */\n      dup3\n        /* \"#utility.yul\":3270:3324   */\n      and\n        /* \"#utility.yul\":3259:3324   */\n      swap1\n      pop\n        /* \"#utility.yul\":3204:3330   */\n      swap2\n      swap1\n      pop\n      jump\t// out\n        /* \"#utility.yul\":3336:3413   */\n    tag_75:\n        /* \"#utility.yul\":3373:3380   */\n      0x00\n        /* \"#utility.yul\":3402:3407   */\n      dup2\n        /* \"#utility.yul\":3391:3407   */\n      swap1\n      pop\n        /* \"#utility.yul\":3336:3413   */\n      swap2\n      swap1\n      pop\n      jump\t// out\n        /* \"#utility.yul\":3419:3652   */\n    tag_41:\n        /* \"#utility.yul\":3458:3461   */\n      0x00\n        /* \"#utility.yul\":3481:3505   */\n      tag_97\n        /* \"#utility.yul\":3499:3504   */\n      dup3\n        /* \"#utility.yul\":3481:3505   */\n      tag_75\n      jump\t// in\n    tag_97:\n        /* \"#utility.yul\":3472:3505   */\n      swap2\n      pop\n        /* \"#utility.yul\":3527:3593   */\n      0xffffffffffffffffffffffffffffffffffffffffffffffffffffffffffffffff\n        /* \"#utility.yul\":3520:3525   */\n      dup3\n        /* \"#utility.yul\":3517:3594   */\n      eq\n        /* \"#utility.yul\":3514:3617   */\n      iszero\n      tag_98\n      jumpi\n        /* \"#utility.yul\":3597:3615   */\n      tag_99\n      tag_100\n      jump\t// in\n    tag_99:\n        /* \"#utility.yul\":3514:3617   */\n    tag_98:\n        /* \"#utility.yul\":3644:3645   */\n      0x01\n        /* \"#utility.yul\":3637:3642   */\n      dup3\n        /* \"#utility.yul\":3633:3646   */\n      add\n        /* \"#utility.yul\":3626:3646   */\n      swap1\n      pop\n        /* \"#utility.yul\":3419:3652   */\n      swap2\n      swap1\n      pop\n      jump\t// out\n        /* \"#utility.yul\":3658:3838   */\n    tag_100:\n        /* \"#utility.yul\":3706:3783   */\n      0x4e487b7100000000000000000000000000000000000000000000000000000000\n        /* \"#utility.yul\":3703:3704   */\n      0x00\n        /* \"#utility.yul\":3696:3784   */\n      mstore\n        /* \"#utility.yul\":3803:3807   */\n      0x11\n        /* \"#utility.yul\":3800:3801   */\n      0x04\n        /* \"#utility.yul\":3793:3808   */\n      mstore\n        /* \"#utility.yul\":3827:3831   */\n      0x24\n        /* \"#utility.yul\":3824:3825   */\n      0x00\n        /* \"#utility.yul\":3817:3832   */\n      revert\n        /* \"#utility.yul\":3967:4084   */\n    tag_55:\n        /* \"#utility.yul\":4076:4077   */\n      0x00\n        /* \"#utility.yul\":4073:4074   */\n      dup1\n        /* \"#utility.yul\":4066:4078   */\n      revert\n        /* \"#utility.yul\":4090:4249   */\n    tag_71:\n        /* \"#utility.yul\":4230:4241   */\n      0x5472616e73616374690000000000000000000000000000000000000000000000\n        /* \"#utility.yul\":4226:4227   */\n      0x00\n        /* \"#utility.yul\":4218:4224   */\n      dup3\n        /* \"#utility.yul\":4214:4228   */\n      add\n        /* \"#utility.yul\":4207:4242   */\n      mstore\n        /* \"#utility.yul\":4090:4249   */\n      pop\n      jump\t// out\n        /* \"#utility.yul\":4255:4393   */\n    tag_47:\n        /* \"#utility.yul\":4336:4368   */\n      tag_107\n        /* \"#utility.yul\":4362:4367   */\n      dup2\n        /* \"#utility.yul\":4336:4368   */\n      tag_90\n      jump\t// in\n    tag_107:\n        /* \"#utility.yul\":4329:4334   */\n      dup2\n        /* \"#utility.yul\":4326:4369   */\n      eq\n        /* \"#utility.yul\":4316:4387   */\n      tag_108\n      jumpi\n        /* \"#utility.yul\":4383:4384   */\n      0x00\n        /* \"#utility.yul\":4380:4381   */\n      dup1\n        /* \"#utility.yul\":4373:4385   */\n      revert\n        /* \"#utility.yul\":4316:4387   */\n    tag_108:\n        /* \"#utility.yul\":4255:4393   */\n      pop\n      jump\t// out\n        /* \"#utility.yul\":4399:4521   */\n    tag_51:\n        /* \"#utility.yul\":4472:4496   */\n      tag_110\n        /* \"#utility.yul\":4490:4495   */\n      dup2\n        /* \"#utility.yul\":4472:4496   */\n      tag_75\n      jump\t// in\n    tag_110:\n        /* \"#utility.yul\":4465:4470   */\n      dup2\n        /* \"#utility.yul\":4462:4497   */\n      eq\n        /* \"#utility.yul\":4452:4515   */\n      tag_111\n      jumpi\n        /* \"#utility.yul\":4511:4512   */\n      0x00\n        /* \"#utility.yul\":4508:4509   */\n      dup1\n        /* \"#utility.yul\":4501:4513   */\n      revert\n        /* \"#utility.yul\":4452:4515   */\n    tag_111:\n        /* \"#utility.yul\":4399:4521   */\n      pop\n      jump\t// out\n\n    auxdata: 0xa2646970667358221220eacd6fae9d990bd903df21431143497005fa8926815cf3ea74684e95cc5d178164736f6c63430008070033\n}\n",
				"bytecode": {
					"linkReferences": {},
					"object": "608060405234801561001057600080fd5b50336000806101000a81548173ffffffffffffffffffffffffffffffffffffffff021916908373ffffffffffffffffffffffffffffffffffffffff1602179055506104c1806100606000396000f3fe6080604052600436106100435760003560e01c806305b1137b1461004c5780630e29df221461008957806312065fe0146100935780638da5cb5b146100be5761004a565b3661004a57005b005b34801561005857600080fd5b50610073600480360381019061006e919061024b565b6100e9565b60405161008091906102f6565b60405180910390f35b6100916101e2565b005b34801561009f57600080fd5b506100a86101f5565b6040516100b59190610331565b60405180910390f35b3480156100ca57600080fd5b506100d36101fd565b6040516100e091906102db565b60405180910390f35b60003373ffffffffffffffffffffffffffffffffffffffff1660008054906101000a900473ffffffffffffffffffffffffffffffffffffffff1673ffffffffffffffffffffffffffffffffffffffff1614610179576040517f08c379a000000000000000000000000000000000000000000000000000000000815260040161017090610311565b60405180910390fd5b6101816101f5565b82116101d7578273ffffffffffffffffffffffffffffffffffffffff166108fc839081150290604051600060405180830381858888f193505050501580156101cd573d6000803e3d6000fd5b50600190506101dc565b600090505b92915050565b600080806101ef906103b7565b91505050565b600047905090565b60008054906101000a900473ffffffffffffffffffffffffffffffffffffffff1681565b6000813590506102308161045d565b92915050565b60008135905061024581610474565b92915050565b600080604083850312156102625761026161042f565b5b600061027085828601610221565b925050602061028185828601610236565b9150509250929050565b6102948161035d565b82525050565b6102a381610381565b82525050565b60006102b660098361034c565b91506102c182610434565b602082019050919050565b6102d5816103ad565b82525050565b60006020820190506102f0600083018461028b565b92915050565b600060208201905061030b600083018461029a565b92915050565b6000602082019050818103600083015261032a816102a9565b9050919050565b600060208201905061034660008301846102cc565b92915050565b600082825260208201905092915050565b60006103688261038d565b9050919050565b600061037a8261038d565b9050919050565b60008115159050919050565b600073ffffffffffffffffffffffffffffffffffffffff82169050919050565b6000819050919050565b60006103c2826103ad565b91507fffffffffffffffffffffffffffffffffffffffffffffffffffffffffffffffff8214156103f5576103f4610400565b5b600182019050919050565b7f4e487b7100000000000000000000000000000000000000000000000000000000600052601160045260246000fd5b600080fd5b7f5472616e73616374690000000000000000000000000000000000000000000000600082015250565b6104668161036f565b811461047157600080fd5b50565b61047d816103ad565b811461048857600080fd5b5056fea2646970667358221220eacd6fae9d990bd903df21431143497005fa8926815cf3ea74684e95cc5d178164736f6c63430008070033",
					"opcodes": "PUSH1 0x80 PUSH1 0x40 MSTORE CALLVALUE DUP1 ISZERO PUSH2 0x10 JUMPI PUSH1 0x0 DUP1 REVERT JUMPDEST POP CALLER PUSH1 0x0 DUP1 PUSH2 0x100 EXP DUP2 SLOAD DUP2 PUSH20 0xFFFFFFFFFFFFFFFFFFFFFFFFFFFFFFFFFFFFFFFF MUL NOT AND SWAP1 DUP4 PUSH20 0xFFFFFFFFFFFFFFFFFFFFFFFFFFFFFFFFFFFFFFFF AND MUL OR SWAP1 SSTORE POP PUSH2 0x4C1 DUP1 PUSH2 0x60 PUSH1 0x0 CODECOPY PUSH1 0x0 RETURN INVALID PUSH1 0x80 PUSH1 0x40 MSTORE PUSH1 0x4 CALLDATASIZE LT PUSH2 0x43 JUMPI PUSH1 0x0 CALLDATALOAD PUSH1 0xE0 SHR DUP1 PUSH4 0x5B1137B EQ PUSH2 0x4C JUMPI DUP1 PUSH4 0xE29DF22 EQ PUSH2 0x89 JUMPI DUP1 PUSH4 0x12065FE0 EQ PUSH2 0x93 JUMPI DUP1 PUSH4 0x8DA5CB5B EQ PUSH2 0xBE JUMPI PUSH2 0x4A JUMP JUMPDEST CALLDATASIZE PUSH2 0x4A JUMPI STOP JUMPDEST STOP JUMPDEST CALLVALUE DUP1 ISZERO PUSH2 0x58 JUMPI PUSH1 0x0 DUP1 REVERT JUMPDEST POP PUSH2 0x73 PUSH1 0x4 DUP1 CALLDATASIZE SUB DUP2 ADD SWAP1 PUSH2 0x6E SWAP2 SWAP1 PUSH2 0x24B JUMP JUMPDEST PUSH2 0xE9 JUMP JUMPDEST PUSH1 0x40 MLOAD PUSH2 0x80 SWAP2 SWAP1 PUSH2 0x2F6 JUMP JUMPDEST PUSH1 0x40 MLOAD DUP1 SWAP2 SUB SWAP1 RETURN JUMPDEST PUSH2 0x91 PUSH2 0x1E2 JUMP JUMPDEST STOP JUMPDEST CALLVALUE DUP1 ISZERO PUSH2 0x9F JUMPI PUSH1 0x0 DUP1 REVERT JUMPDEST POP PUSH2 0xA8 PUSH2 0x1F5 JUMP JUMPDEST PUSH1 0x40 MLOAD PUSH2 0xB5 SWAP2 SWAP1 PUSH2 0x331 JUMP JUMPDEST PUSH1 0x40 MLOAD DUP1 SWAP2 SUB SWAP1 RETURN JUMPDEST CALLVALUE DUP1 ISZERO PUSH2 0xCA JUMPI PUSH1 0x0 DUP1 REVERT JUMPDEST POP PUSH2 0xD3 PUSH2 0x1FD JUMP JUMPDEST PUSH1 0x40 MLOAD PUSH2 0xE0 SWAP2 SWAP1 PUSH2 0x2DB JUMP JUMPDEST PUSH1 0x40 MLOAD DUP1 SWAP2 SUB SWAP1 RETURN JUMPDEST PUSH1 0x0 CALLER PUSH20 0xFFFFFFFFFFFFFFFFFFFFFFFFFFFFFFFFFFFFFFFF AND PUSH1 0x0 DUP1 SLOAD SWAP1 PUSH2 0x100 EXP SWAP1 DIV PUSH20 0xFFFFFFFFFFFFFFFFFFFFFFFFFFFFFFFFFFFFFFFF AND PUSH20 0xFFFFFFFFFFFFFFFFFFFFFFFFFFFFFFFFFFFFFFFF AND EQ PUSH2 0x179 JUMPI PUSH1 0x40 MLOAD PUSH32 0x8C379A000000000000000000000000000000000000000000000000000000000 DUP2 MSTORE PUSH1 0x4 ADD PUSH2 0x170 SWAP1 PUSH2 0x311 JUMP JUMPDEST PUSH1 0x40 MLOAD DUP1 SWAP2 SUB SWAP1 REVERT JUMPDEST PUSH2 0x181 PUSH2 0x1F5 JUMP JUMPDEST DUP3 GT PUSH2 0x1D7 JUMPI DUP3 PUSH20 0xFFFFFFFFFFFFFFFFFFFFFFFFFFFFFFFFFFFFFFFF AND PUSH2 0x8FC DUP4 SWAP1 DUP2 ISZERO MUL SWAP1 PUSH1 0x40 MLOAD PUSH1 0x0 PUSH1 0x40 MLOAD DUP1 DUP4 SUB DUP2 DUP6 DUP9 DUP9 CALL SWAP4 POP POP POP POP ISZERO DUP1 ISZERO PUSH2 0x1CD JUMPI RETURNDATASIZE PUSH1 0x0 DUP1 RETURNDATACOPY RETURNDATASIZE PUSH1 0x0 REVERT JUMPDEST POP PUSH1 0x1 SWAP1 POP PUSH2 0x1DC JUMP JUMPDEST PUSH1 0x0 SWAP1 POP JUMPDEST SWAP3 SWAP2 POP POP JUMP JUMPDEST PUSH1 0x0 DUP1 DUP1 PUSH2 0x1EF SWAP1 PUSH2 0x3B7 JUMP JUMPDEST SWAP2 POP POP POP JUMP JUMPDEST PUSH1 0x0 SELFBALANCE SWAP1 POP SWAP1 JUMP JUMPDEST PUSH1 0x0 DUP1 SLOAD SWAP1 PUSH2 0x100 EXP SWAP1 DIV PUSH20 0xFFFFFFFFFFFFFFFFFFFFFFFFFFFFFFFFFFFFFFFF AND DUP2 JUMP JUMPDEST PUSH1 0x0 DUP2 CALLDATALOAD SWAP1 POP PUSH2 0x230 DUP2 PUSH2 0x45D JUMP JUMPDEST SWAP3 SWAP2 POP POP JUMP JUMPDEST PUSH1 0x0 DUP2 CALLDATALOAD SWAP1 POP PUSH2 0x245 DUP2 PUSH2 0x474 JUMP JUMPDEST SWAP3 SWAP2 POP POP JUMP JUMPDEST PUSH1 0x0 DUP1 PUSH1 0x40 DUP4 DUP6 SUB SLT ISZERO PUSH2 0x262 JUMPI PUSH2 0x261 PUSH2 0x42F JUMP JUMPDEST JUMPDEST PUSH1 0x0 PUSH2 0x270 DUP6 DUP3 DUP7 ADD PUSH2 0x221 JUMP JUMPDEST SWAP3 POP POP PUSH1 0x20 PUSH2 0x281 DUP6 DUP3 DUP7 ADD PUSH2 0x236 JUMP JUMPDEST SWAP2 POP POP SWAP3 POP SWAP3 SWAP1 POP JUMP JUMPDEST PUSH2 0x294 DUP2 PUSH2 0x35D JUMP JUMPDEST DUP3 MSTORE POP POP JUMP JUMPDEST PUSH2 0x2A3 DUP2 PUSH2 0x381 JUMP JUMPDEST DUP3 MSTORE POP POP JUMP JUMPDEST PUSH1 0x0 PUSH2 0x2B6 PUSH1 0x9 DUP4 PUSH2 0x34C JUMP JUMPDEST SWAP2 POP PUSH2 0x2C1 DUP3 PUSH2 0x434 JUMP JUMPDEST PUSH1 0x20 DUP3 ADD SWAP1 POP SWAP2 SWAP1 POP JUMP JUMPDEST PUSH2 0x2D5 DUP2 PUSH2 0x3AD JUMP JUMPDEST DUP3 MSTORE POP POP JUMP JUMPDEST PUSH1 0x0 PUSH1 0x20 DUP3 ADD SWAP1 POP PUSH2 0x2F0 PUSH1 0x0 DUP4 ADD DUP5 PUSH2 0x28B JUMP JUMPDEST SWAP3 SWAP2 POP POP JUMP JUMPDEST PUSH1 0x0 PUSH1 0x20 DUP3 ADD SWAP1 POP PUSH2 0x30B PUSH1 0x0 DUP4 ADD DUP5 PUSH2 0x29A JUMP JUMPDEST SWAP3 SWAP2 POP POP JUMP JUMPDEST PUSH1 0x0 PUSH1 0x20 DUP3 ADD SWAP1 POP DUP2 DUP2 SUB PUSH1 0x0 DUP4 ADD MSTORE PUSH2 0x32A DUP2 PUSH2 0x2A9 JUMP JUMPDEST SWAP1 POP SWAP2 SWAP1 POP JUMP JUMPDEST PUSH1 0x0 PUSH1 0x20 DUP3 ADD SWAP1 POP PUSH2 0x346 PUSH1 0x0 DUP4 ADD DUP5 PUSH2 0x2CC JUMP JUMPDEST SWAP3 SWAP2 POP POP JUMP JUMPDEST PUSH1 0x0 DUP3 DUP3 MSTORE PUSH1 0x20 DUP3 ADD SWAP1 POP SWAP3 SWAP2 POP POP JUMP JUMPDEST PUSH1 0x0 PUSH2 0x368 DUP3 PUSH2 0x38D JUMP JUMPDEST SWAP1 POP SWAP2 SWAP1 POP JUMP JUMPDEST PUSH1 0x0 PUSH2 0x37A DUP3 PUSH2 0x38D JUMP JUMPDEST SWAP1 POP SWAP2 SWAP1 POP JUMP JUMPDEST PUSH1 0x0 DUP2 ISZERO ISZERO SWAP1 POP SWAP2 SWAP1 POP JUMP JUMPDEST PUSH1 0x0 PUSH20 0xFFFFFFFFFFFFFFFFFFFFFFFFFFFFFFFFFFFFFFFF DUP3 AND SWAP1 POP SWAP2 SWAP1 POP JUMP JUMPDEST PUSH1 0x0 DUP2 SWAP1 POP SWAP2 SWAP1 POP JUMP JUMPDEST PUSH1 0x0 PUSH2 0x3C2 DUP3 PUSH2 0x3AD JUMP JUMPDEST SWAP2 POP PUSH32 0xFFFFFFFFFFFFFFFFFFFFFFFFFFFFFFFFFFFFFFFFFFFFFFFFFFFFFFFFFFFFFFFF DUP3 EQ ISZERO PUSH2 0x3F5 JUMPI PUSH2 0x3F4 PUSH2 0x400 JUMP JUMPDEST JUMPDEST PUSH1 0x1 DUP3 ADD SWAP1 POP SWAP2 SWAP1 POP JUMP JUMPDEST PUSH32 0x4E487B7100000000000000000000000000000000000000000000000000000000 PUSH1 0x0 MSTORE PUSH1 0x11 PUSH1 0x4 MSTORE PUSH1 0x24 PUSH1 0x0 REVERT JUMPDEST PUSH1 0x0 DUP1 REVERT JUMPDEST PUSH32 0x5472616E73616374690000000000000000000000000000000000000000000000 PUSH1 0x0 DUP3 ADD MSTORE POP JUMP JUMPDEST PUSH2 0x466 DUP2 PUSH2 0x36F JUMP JUMPDEST DUP2 EQ PUSH2 0x471 JUMPI PUSH1 0x0 DUP1 REVERT JUMPDEST POP JUMP JUMPDEST PUSH2 0x47D DUP2 PUSH2 0x3AD JUMP JUMPDEST DUP2 EQ PUSH2 0x488 JUMPI PUSH1 0x0 DUP1 REVERT JUMPDEST POP JUMP INVALID LOG2 PUSH5 0x6970667358 0x22 SLT KECCAK256 0xEA 0xCD PUSH16 0xAE9D990BD903DF21431143497005FA89 0x26 DUP2 0x5C RETURN 0xEA PUSH21 0x684E95CC5D178164736F6C63430008070033000000 "
				},
				"gasEstimates": {
					"creation": {
						"codeDepositCost": "243400",
						"executionCost": "24553",
						"totalCost": "267953"
					},
					"external": {
						"": "151",
						"getBalance()": "361",
						"owner()": "2555",
						"sendEther()": "267",
						"transferEther(address,uint256)": "infinite"
					}
				},
				"methodIdentifiers": {
					"getBalance()": "12065fe0",
					"owner()": "8da5cb5b",
					"sendEther()": "0e29df22",
					"transferEther(address,uint256)": "05b1137b"
				}
			},
			"storageLayout": {
				"storage": [
					{
						"astId": 3,
						"contract": "contracts/contract_address_balance.sol:Deposit",
						"label": "owner",
						"offset": 0,
						"slot": "0",
						"type": "t_address"
					}
				],
				"types": {
					"t_address": {
						"encoding": "inplace",
						"label": "address",
						"numberOfBytes": "20"
					}
				}
			},
			"userdoc": {
				"kind": "user",
				"methods": {},
				"version": 1
			}
		}
	}
}