{
	"contracts/contract_address_balance.sol": {
		"Deposit": {
			"abi": [
				{
					"stateMutability": "payable",
					"type": "fallback"
				},
				{
					"inputs": [],
					"name": "getBalance",
					"outputs": [
						{
							"internalType": "uint256",
							"name": "",
							"type": "uint256"
						}
					],
					"stateMutability": "view",
					"type": "function"
				},
				{
					"inputs": [],
					"name": "sendEther",
					"outputs": [],
					"stateMutability": "payable",
					"type": "function"
				},
				{
					"inputs": [
						{
							"internalType": "address payable",
							"name": "recipient",
							"type": "address"
						},
						{
							"internalType": "uint256",
							"name": "amount",
							"type": "uint256"
						}
					],
					"name": "transferEther",
					"outputs": [
						{
							"internalType": "bool",
							"name": "",
							"type": "bool"
						}
					],
					"stateMutability": "nonpayable",
					"type": "function"
				},
				{
					"stateMutability": "payable",
					"type": "receive"
				}
			],
			"devdoc": {
				"kind": "dev",
				"methods": {},
				"version": 1
			},
			"evm": {
				"assembly": "    /* \"contracts/contract_address_balance.sol\":197:1168  contract Deposit{\r... */\n  mstore(0x40, 0x80)\n  callvalue\n  dup1\n  iszero\n  tag_1\n  jumpi\n  0x00\n  dup1\n  revert\ntag_1:\n  pop\n  dataSize(sub_0)\n  dup1\n  dataOffset(sub_0)\n  0x00\n  codecopy\n  0x00\n  return\nstop\n\nsub_0: assembly {\n        /* \"contracts/contract_address_balance.sol\":197:1168  contract Deposit{\r... */\n      mstore(0x40, 0x80)\n      jumpi(tag_1, lt(calldatasize, 0x04))\n      shr(0xe0, calldataload(0x00))\n      dup1\n      0x05b1137b\n      eq\n      tag_3\n      jumpi\n      dup1\n      0x0e29df22\n      eq\n      tag_4\n      jumpi\n      dup1\n      0x12065fe0\n      eq\n      tag_5\n      jumpi\n      jump(tag_2)\n    tag_1:\n      jumpi(tag_2, calldatasize)\n      stop\n    tag_2:\n      stop\n        /* \"contracts/contract_address_balance.sol\":794:1165  function transferEther(address payable recipient, uint amount) public returns(bool){\r... */\n    tag_3:\n      callvalue\n      dup1\n      iszero\n      tag_10\n      jumpi\n      0x00\n      dup1\n      revert\n    tag_10:\n      pop\n      tag_11\n      0x04\n      dup1\n      calldatasize\n      sub\n      dup2\n      add\n      swap1\n      tag_12\n      swap2\n      swap1\n      tag_13\n      jump\t// in\n    tag_12:\n      tag_14\n      jump\t// in\n    tag_11:\n      mload(0x40)\n      tag_15\n      swap2\n      swap1\n      tag_16\n      jump\t// in\n    tag_15:\n      mload(0x40)\n      dup1\n      swap2\n      sub\n      swap1\n      return\n        /* \"contracts/contract_address_balance.sol\":600:674  function sendEther() public payable{\r... */\n    tag_4:\n      tag_17\n      tag_18\n      jump\t// in\n    tag_17:\n      stop\n        /* \"contracts/contract_address_balance.sol\":498:592  function getBalance() public view returns(uint){\r... */\n    tag_5:\n      callvalue\n      dup1\n      iszero\n      tag_19\n      jumpi\n      0x00\n      dup1\n      revert\n    tag_19:\n      pop\n      tag_20\n      tag_21\n      jump\t// in\n    tag_20:\n      mload(0x40)\n      tag_22\n      swap2\n      swap1\n      tag_23\n      jump\t// in\n    tag_22:\n      mload(0x40)\n      dup1\n      swap2\n      sub\n      swap1\n      return\n        /* \"contracts/contract_address_balance.sol\":794:1165  function transferEther(address payable recipient, uint amount) public returns(bool){\r... */\n    tag_14:\n        /* \"contracts/contract_address_balance.sol\":872:876  bool */\n      0x00\n        /* \"contracts/contract_address_balance.sol\":970:982  getBalance() */\n      tag_25\n        /* \"contracts/contract_address_balance.sol\":970:980  getBalance */\n      tag_21\n        /* \"contracts/contract_address_balance.sol\":970:982  getBalance() */\n      jump\t// in\n    tag_25:\n        /* \"contracts/contract_address_balance.sol\":960:966  amount */\n      dup3\n        /* \"contracts/contract_address_balance.sol\":960:982  amount <= getBalance() */\n      gt\n        /* \"contracts/contract_address_balance.sol\":956:1158  if (amount <= getBalance()){\r... */\n      tag_26\n      jumpi\n        /* \"contracts/contract_address_balance.sol\":1051:1060  recipient */\n      dup3\n        /* \"contracts/contract_address_balance.sol\":1051:1069  recipient.transfer */\n      0xffffffffffffffffffffffffffffffffffffffff\n      and\n        /* \"contracts/contract_address_balance.sol\":1051:1077  recipient.transfer(amount) */\n      0x08fc\n        /* \"contracts/contract_address_balance.sol\":1070:1076  amount */\n      dup4\n        /* \"contracts/contract_address_balance.sol\":1051:1077  recipient.transfer(amount) */\n      swap1\n      dup2\n      iszero\n      mul\n      swap1\n      mload(0x40)\n      0x00\n      mload(0x40)\n      dup1\n      dup4\n      sub\n      dup2\n      dup6\n      dup9\n      dup9\n      call\n      swap4\n      pop\n      pop\n      pop\n      pop\n      iszero\n      dup1\n      iszero\n      tag_28\n      jumpi\n      returndatasize\n      0x00\n      dup1\n      returndatacopy\n      revert(0x00, returndatasize)\n    tag_28:\n      pop\n        /* \"contracts/contract_address_balance.sol\":1099:1103  true */\n      0x01\n        /* \"contracts/contract_address_balance.sol\":1092:1103  return true */\n      swap1\n      pop\n      jump(tag_24)\n        /* \"contracts/contract_address_balance.sol\":956:1158  if (amount <= getBalance()){\r... */\n    tag_26:\n        /* \"contracts/contract_address_balance.sol\":1141:1146  false */\n      0x00\n        /* \"contracts/contract_address_balance.sol\":1134:1146  return false */\n      swap1\n      pop\n        /* \"contracts/contract_address_balance.sol\":794:1165  function transferEther(address payable recipient, uint amount) public returns(bool){\r... */\n    tag_24:\n      swap3\n      swap2\n      pop\n      pop\n      jump\t// out\n        /* \"contracts/contract_address_balance.sol\":600:674  function sendEther() public payable{\r... */\n    tag_18:\n        /* \"contracts/contract_address_balance.sol\":646:652  uint x */\n      0x00\n        /* \"contracts/contract_address_balance.sol\":663:666  x++ */\n      dup1\n      dup1\n      tag_31\n      swap1\n      tag_32\n      jump\t// in\n    tag_31:\n      swap2\n      pop\n      pop\n        /* \"contracts/contract_address_balance.sol\":635:674  {\r... */\n      pop\n        /* \"contracts/contract_address_balance.sol\":600:674  function sendEther() public payable{\r... */\n      jump\t// out\n        /* \"contracts/contract_address_balance.sol\":498:592  function getBalance() public view returns(uint){\r... */\n    tag_21:\n        /* \"contracts/contract_address_balance.sol\":540:544  uint */\n      0x00\n        /* \"contracts/contract_address_balance.sol\":563:584  address(this).balance */\n      selfbalance\n        /* \"contracts/contract_address_balance.sol\":556:584  return address(this).balance */\n      swap1\n      pop\n        /* \"contracts/contract_address_balance.sol\":498:592  function getBalance() public view returns(uint){\r... */\n      swap1\n      jump\t// out\n        /* \"#utility.yul\":7:162   */\n    tag_35:\n        /* \"#utility.yul\":61:66   */\n      0x00\n        /* \"#utility.yul\":99:105   */\n      dup2\n        /* \"#utility.yul\":86:106   */\n      calldataload\n        /* \"#utility.yul\":77:106   */\n      swap1\n      pop\n        /* \"#utility.yul\":115:156   */\n      tag_37\n        /* \"#utility.yul\":150:155   */\n      dup2\n        /* \"#utility.yul\":115:156   */\n      tag_38\n      jump\t// in\n    tag_37:\n        /* \"#utility.yul\":7:162   */\n      swap3\n      swap2\n      pop\n      pop\n      jump\t// out\n        /* \"#utility.yul\":168:307   */\n    tag_39:\n        /* \"#utility.yul\":214:219   */\n      0x00\n        /* \"#utility.yul\":252:258   */\n      dup2\n        /* \"#utility.yul\":239:259   */\n      calldataload\n        /* \"#utility.yul\":230:259   */\n      swap1\n      pop\n        /* \"#utility.yul\":268:301   */\n      tag_41\n        /* \"#utility.yul\":295:300   */\n      dup2\n        /* \"#utility.yul\":268:301   */\n      tag_42\n      jump\t// in\n    tag_41:\n        /* \"#utility.yul\":168:307   */\n      swap3\n      swap2\n      pop\n      pop\n      jump\t// out\n        /* \"#utility.yul\":313:803   */\n    tag_13:\n        /* \"#utility.yul\":389:395   */\n      0x00\n        /* \"#utility.yul\":397:403   */\n      dup1\n        /* \"#utility.yul\":446:448   */\n      0x40\n        /* \"#utility.yul\":434:443   */\n      dup4\n        /* \"#utility.yul\":425:432   */\n      dup6\n        /* \"#utility.yul\":421:444   */\n      sub\n        /* \"#utility.yul\":417:449   */\n      slt\n        /* \"#utility.yul\":414:533   */\n      iszero\n      tag_44\n      jumpi\n        /* \"#utility.yul\":452:531   */\n      tag_45\n      tag_46\n      jump\t// in\n    tag_45:\n        /* \"#utility.yul\":414:533   */\n    tag_44:\n        /* \"#utility.yul\":572:573   */\n      0x00\n        /* \"#utility.yul\":597:658   */\n      tag_47\n        /* \"#utility.yul\":650:657   */\n      dup6\n        /* \"#utility.yul\":641:647   */\n      dup3\n        /* \"#utility.yul\":630:639   */\n      dup7\n        /* \"#utility.yul\":626:648   */\n      add\n        /* \"#utility.yul\":597:658   */\n      tag_35\n      jump\t// in\n    tag_47:\n        /* \"#utility.yul\":587:658   */\n      swap3\n      pop\n        /* \"#utility.yul\":543:668   */\n      pop\n        /* \"#utility.yul\":707:709   */\n      0x20\n        /* \"#utility.yul\":733:786   */\n      tag_48\n        /* \"#utility.yul\":778:785   */\n      dup6\n        /* \"#utility.yul\":769:775   */\n      dup3\n        /* \"#utility.yul\":758:767   */\n      dup7\n        /* \"#utility.yul\":754:776   */\n      add\n        /* \"#utility.yul\":733:786   */\n      tag_39\n      jump\t// in\n    tag_48:\n        /* \"#utility.yul\":723:786   */\n      swap2\n      pop\n        /* \"#utility.yul\":678:796   */\n      pop\n        /* \"#utility.yul\":313:803   */\n      swap3\n      pop\n      swap3\n      swap1\n      pop\n      jump\t// out\n        /* \"#utility.yul\":809:918   */\n    tag_49:\n        /* \"#utility.yul\":890:911   */\n      tag_51\n        /* \"#utility.yul\":905:910   */\n      dup2\n        /* \"#utility.yul\":890:911   */\n      tag_52\n      jump\t// in\n    tag_51:\n        /* \"#utility.yul\":885:888   */\n      dup3\n        /* \"#utility.yul\":878:912   */\n      mstore\n        /* \"#utility.yul\":809:918   */\n      pop\n      pop\n      jump\t// out\n        /* \"#utility.yul\":924:1042   */\n    tag_53:\n        /* \"#utility.yul\":1011:1035   */\n      tag_55\n        /* \"#utility.yul\":1029:1034   */\n      dup2\n        /* \"#utility.yul\":1011:1035   */\n      tag_56\n      jump\t// in\n    tag_55:\n        /* \"#utility.yul\":1006:1009   */\n      dup3\n        /* \"#utility.yul\":999:1036   */\n      mstore\n        /* \"#utility.yul\":924:1042   */\n      pop\n      pop\n      jump\t// out\n        /* \"#utility.yul\":1048:1258   */\n    tag_16:\n        /* \"#utility.yul\":1135:1139   */\n      0x00\n        /* \"#utility.yul\":1173:1175   */\n      0x20\n        /* \"#utility.yul\":1162:1171   */\n      dup3\n        /* \"#utility.yul\":1158:1176   */\n      add\n        /* \"#utility.yul\":1150:1176   */\n      swap1\n      pop\n        /* \"#utility.yul\":1186:1251   */\n      tag_58\n        /* \"#utility.yul\":1248:1249   */\n      0x00\n        /* \"#utility.yul\":1237:1246   */\n      dup4\n        /* \"#utility.yul\":1233:1250   */\n      add\n        /* \"#utility.yul\":1224:1230   */\n      dup5\n        /* \"#utility.yul\":1186:1251   */\n      tag_49\n      jump\t// in\n    tag_58:\n        /* \"#utility.yul\":1048:1258   */\n      swap3\n      swap2\n      pop\n      pop\n      jump\t// out\n        /* \"#utility.yul\":1264:1486   */\n    tag_23:\n        /* \"#utility.yul\":1357:1361   */\n      0x00\n        /* \"#utility.yul\":1395:1397   */\n      0x20\n        /* \"#utility.yul\":1384:1393   */\n      dup3\n        /* \"#utility.yul\":1380:1398   */\n      add\n        /* \"#utility.yul\":1372:1398   */\n      swap1\n      pop\n        /* \"#utility.yul\":1408:1479   */\n      tag_60\n        /* \"#utility.yul\":1476:1477   */\n      0x00\n        /* \"#utility.yul\":1465:1474   */\n      dup4\n        /* \"#utility.yul\":1461:1478   */\n      add\n        /* \"#utility.yul\":1452:1458   */\n      dup5\n        /* \"#utility.yul\":1408:1479   */\n      tag_53\n      jump\t// in\n    tag_60:\n        /* \"#utility.yul\":1264:1486   */\n      swap3\n      swap2\n      pop\n      pop\n      jump\t// out\n        /* \"#utility.yul\":1573:1677   */\n    tag_63:\n        /* \"#utility.yul\":1618:1625   */\n      0x00\n        /* \"#utility.yul\":1647:1671   */\n      tag_65\n        /* \"#utility.yul\":1665:1670   */\n      dup3\n        /* \"#utility.yul\":1647:1671   */\n      tag_66\n      jump\t// in\n    tag_65:\n        /* \"#utility.yul\":1636:1671   */\n      swap1\n      pop\n        /* \"#utility.yul\":1573:1677   */\n      swap2\n      swap1\n      pop\n      jump\t// out\n        /* \"#utility.yul\":1683:1773   */\n    tag_52:\n        /* \"#utility.yul\":1717:1724   */\n      0x00\n        /* \"#utility.yul\":1760:1765   */\n      dup2\n        /* \"#utility.yul\":1753:1766   */\n      iszero\n        /* \"#utility.yul\":1746:1767   */\n      iszero\n        /* \"#utility.yul\":1735:1767   */\n      swap1\n      pop\n        /* \"#utility.yul\":1683:1773   */\n      swap2\n      swap1\n      pop\n      jump\t// out\n        /* \"#utility.yul\":1779:1905   */\n    tag_66:\n        /* \"#utility.yul\":1816:1823   */\n      0x00\n        /* \"#utility.yul\":1856:1898   */\n      0xffffffffffffffffffffffffffffffffffffffff\n        /* \"#utility.yul\":1849:1854   */\n      dup3\n        /* \"#utility.yul\":1845:1899   */\n      and\n        /* \"#utility.yul\":1834:1899   */\n      swap1\n      pop\n        /* \"#utility.yul\":1779:1905   */\n      swap2\n      swap1\n      pop\n      jump\t// out\n        /* \"#utility.yul\":1911:1988   */\n    tag_56:\n        /* \"#utility.yul\":1948:1955   */\n      0x00\n        /* \"#utility.yul\":1977:1982   */\n      dup2\n        /* \"#utility.yul\":1966:1982   */\n      swap1\n      pop\n        /* \"#utility.yul\":1911:1988   */\n      swap2\n      swap1\n      pop\n      jump\t// out\n        /* \"#utility.yul\":1994:2227   */\n    tag_32:\n        /* \"#utility.yul\":2033:2036   */\n      0x00\n        /* \"#utility.yul\":2056:2080   */\n      tag_71\n        /* \"#utility.yul\":2074:2079   */\n      dup3\n        /* \"#utility.yul\":2056:2080   */\n      tag_56\n      jump\t// in\n    tag_71:\n        /* \"#utility.yul\":2047:2080   */\n      swap2\n      pop\n        /* \"#utility.yul\":2102:2168   */\n      0xffffffffffffffffffffffffffffffffffffffffffffffffffffffffffffffff\n        /* \"#utility.yul\":2095:2100   */\n      dup3\n        /* \"#utility.yul\":2092:2169   */\n      eq\n        /* \"#utility.yul\":2089:2192   */\n      iszero\n      tag_72\n      jumpi\n        /* \"#utility.yul\":2172:2190   */\n      tag_73\n      tag_74\n      jump\t// in\n    tag_73:\n        /* \"#utility.yul\":2089:2192   */\n    tag_72:\n        /* \"#utility.yul\":2219:2220   */\n      0x01\n        /* \"#utility.yul\":2212:2217   */\n      dup3\n        /* \"#utility.yul\":2208:2221   */\n      add\n        /* \"#utility.yul\":2201:2221   */\n      swap1\n      pop\n        /* \"#utility.yul\":1994:2227   */\n      swap2\n      swap1\n      pop\n      jump\t// out\n        /* \"#utility.yul\":2233:2413   */\n    tag_74:\n        /* \"#utility.yul\":2281:2358   */\n      0x4e487b7100000000000000000000000000000000000000000000000000000000\n        /* \"#utility.yul\":2278:2279   */\n      0x00\n        /* \"#utility.yul\":2271:2359   */\n      mstore\n        /* \"#utility.yul\":2378:2382   */\n      0x11\n        /* \"#utility.yul\":2375:2376   */\n      0x04\n        /* \"#utility.yul\":2368:2383   */\n      mstore\n        /* \"#utility.yul\":2402:2406   */\n      0x24\n        /* \"#utility.yul\":2399:2400   */\n      0x00\n        /* \"#utility.yul\":2392:2407   */\n      revert\n        /* \"#utility.yul\":2542:2659   */\n    tag_46:\n        /* \"#utility.yul\":2651:2652   */\n      0x00\n        /* \"#utility.yul\":2648:2649   */\n      dup1\n        /* \"#utility.yul\":2641:2653   */\n      revert\n        /* \"#utility.yul\":2665:2803   */\n    tag_38:\n        /* \"#utility.yul\":2746:2778   */\n      tag_80\n        /* \"#utility.yul\":2772:2777   */\n      dup2\n        /* \"#utility.yul\":2746:2778   */\n      tag_63\n      jump\t// in\n    tag_80:\n        /* \"#utility.yul\":2739:2744   */\n      dup2\n        /* \"#utility.yul\":2736:2779   */\n      eq\n        /* \"#utility.yul\":2726:2797   */\n      tag_81\n      jumpi\n        /* \"#utility.yul\":2793:2794   */\n      0x00\n        /* \"#utility.yul\":2790:2791   */\n      dup1\n        /* \"#utility.yul\":2783:2795   */\n      revert\n        /* \"#utility.yul\":2726:2797   */\n    tag_81:\n        /* \"#utility.yul\":2665:2803   */\n      pop\n      jump\t// out\n        /* \"#utility.yul\":2809:2931   */\n    tag_42:\n        /* \"#utility.yul\":2882:2906   */\n      tag_83\n        /* \"#utility.yul\":2900:2905   */\n      dup2\n        /* \"#utility.yul\":2882:2906   */\n      tag_56\n      jump\t// in\n    tag_83:\n        /* \"#utility.yul\":2875:2880   */\n      dup2\n        /* \"#utility.yul\":2872:2907   */\n      eq\n        /* \"#utility.yul\":2862:2925   */\n      tag_84\n      jumpi\n        /* \"#utility.yul\":2921:2922   */\n      0x00\n        /* \"#utility.yul\":2918:2919   */\n      dup1\n        /* \"#utility.yul\":2911:2923   */\n      revert\n        /* \"#utility.yul\":2862:2925   */\n    tag_84:\n        /* \"#utility.yul\":2809:2931   */\n      pop\n      jump\t// out\n\n    auxdata: 0xa2646970667358221220cd728787fc198a2d29b4698784bc99d326e3aeeabc0ab869007cea916c85c45264736f6c63430008070033\n}\n",
				"bytecode": {
					"linkReferences": {},
					"object": "608060405234801561001057600080fd5b50610320806100206000396000f3fe6080604052600436106100385760003560e01c806305b1137b146100415780630e29df221461007e57806312065fe0146100885761003f565b3661003f57005b005b34801561004d57600080fd5b5061006860048036038101906100639190610163565b6100b3565b60405161007591906101c1565b60405180910390f35b61008661011e565b005b34801561009457600080fd5b5061009d610131565b6040516100aa91906101dc565b60405180910390f35b60006100bd610131565b8211610113578273ffffffffffffffffffffffffffffffffffffffff166108fc839081150290604051600060405180830381858888f19350505050158015610109573d6000803e3d6000fd5b5060019050610118565b600090505b92915050565b6000808061012b9061023f565b91505050565b600047905090565b600081359050610148816102bc565b92915050565b60008135905061015d816102d3565b92915050565b6000806040838503121561017a576101796102b7565b5b600061018885828601610139565b92505060206101998582860161014e565b9150509250929050565b6101ac81610209565b82525050565b6101bb81610235565b82525050565b60006020820190506101d660008301846101a3565b92915050565b60006020820190506101f160008301846101b2565b92915050565b600061020282610215565b9050919050565b60008115159050919050565b600073ffffffffffffffffffffffffffffffffffffffff82169050919050565b6000819050919050565b600061024a82610235565b91507fffffffffffffffffffffffffffffffffffffffffffffffffffffffffffffffff82141561027d5761027c610288565b5b600182019050919050565b7f4e487b7100000000000000000000000000000000000000000000000000000000600052601160045260246000fd5b600080fd5b6102c5816101f7565b81146102d057600080fd5b50565b6102dc81610235565b81146102e757600080fd5b5056fea2646970667358221220cd728787fc198a2d29b4698784bc99d326e3aeeabc0ab869007cea916c85c45264736f6c63430008070033",
					"opcodes": "PUSH1 0x80 PUSH1 0x40 MSTORE CALLVALUE DUP1 ISZERO PUSH2 0x10 JUMPI PUSH1 0x0 DUP1 REVERT JUMPDEST POP PUSH2 0x320 DUP1 PUSH2 0x20 PUSH1 0x0 CODECOPY PUSH1 0x0 RETURN INVALID PUSH1 0x80 PUSH1 0x40 MSTORE PUSH1 0x4 CALLDATASIZE LT PUSH2 0x38 JUMPI PUSH1 0x0 CALLDATALOAD PUSH1 0xE0 SHR DUP1 PUSH4 0x5B1137B EQ PUSH2 0x41 JUMPI DUP1 PUSH4 0xE29DF22 EQ PUSH2 0x7E JUMPI DUP1 PUSH4 0x12065FE0 EQ PUSH2 0x88 JUMPI PUSH2 0x3F JUMP JUMPDEST CALLDATASIZE PUSH2 0x3F JUMPI STOP JUMPDEST STOP JUMPDEST CALLVALUE DUP1 ISZERO PUSH2 0x4D JUMPI PUSH1 0x0 DUP1 REVERT JUMPDEST POP PUSH2 0x68 PUSH1 0x4 DUP1 CALLDATASIZE SUB DUP2 ADD SWAP1 PUSH2 0x63 SWAP2 SWAP1 PUSH2 0x163 JUMP JUMPDEST PUSH2 0xB3 JUMP JUMPDEST PUSH1 0x40 MLOAD PUSH2 0x75 SWAP2 SWAP1 PUSH2 0x1C1 JUMP JUMPDEST PUSH1 0x40 MLOAD DUP1 SWAP2 SUB SWAP1 RETURN JUMPDEST PUSH2 0x86 PUSH2 0x11E JUMP JUMPDEST STOP JUMPDEST CALLVALUE DUP1 ISZERO PUSH2 0x94 JUMPI PUSH1 0x0 DUP1 REVERT JUMPDEST POP PUSH2 0x9D PUSH2 0x131 JUMP JUMPDEST PUSH1 0x40 MLOAD PUSH2 0xAA SWAP2 SWAP1 PUSH2 0x1DC JUMP JUMPDEST PUSH1 0x40 MLOAD DUP1 SWAP2 SUB SWAP1 RETURN JUMPDEST PUSH1 0x0 PUSH2 0xBD PUSH2 0x131 JUMP JUMPDEST DUP3 GT PUSH2 0x113 JUMPI DUP3 PUSH20 0xFFFFFFFFFFFFFFFFFFFFFFFFFFFFFFFFFFFFFFFF AND PUSH2 0x8FC DUP4 SWAP1 DUP2 ISZERO MUL SWAP1 PUSH1 0x40 MLOAD PUSH1 0x0 PUSH1 0x40 MLOAD DUP1 DUP4 SUB DUP2 DUP6 DUP9 DUP9 CALL SWAP4 POP POP POP POP ISZERO DUP1 ISZERO PUSH2 0x109 JUMPI RETURNDATASIZE PUSH1 0x0 DUP1 RETURNDATACOPY RETURNDATASIZE PUSH1 0x0 REVERT JUMPDEST POP PUSH1 0x1 SWAP1 POP PUSH2 0x118 JUMP JUMPDEST PUSH1 0x0 SWAP1 POP JUMPDEST SWAP3 SWAP2 POP POP JUMP JUMPDEST PUSH1 0x0 DUP1 DUP1 PUSH2 0x12B SWAP1 PUSH2 0x23F JUMP JUMPDEST SWAP2 POP POP POP JUMP JUMPDEST PUSH1 0x0 SELFBALANCE SWAP1 POP SWAP1 JUMP JUMPDEST PUSH1 0x0 DUP2 CALLDATALOAD SWAP1 POP PUSH2 0x148 DUP2 PUSH2 0x2BC JUMP JUMPDEST SWAP3 SWAP2 POP POP JUMP JUMPDEST PUSH1 0x0 DUP2 CALLDATALOAD SWAP1 POP PUSH2 0x15D DUP2 PUSH2 0x2D3 JUMP JUMPDEST SWAP3 SWAP2 POP POP JUMP JUMPDEST PUSH1 0x0 DUP1 PUSH1 0x40 DUP4 DUP6 SUB SLT ISZERO PUSH2 0x17A JUMPI PUSH2 0x179 PUSH2 0x2B7 JUMP JUMPDEST JUMPDEST PUSH1 0x0 PUSH2 0x188 DUP6 DUP3 DUP7 ADD PUSH2 0x139 JUMP JUMPDEST SWAP3 POP POP PUSH1 0x20 PUSH2 0x199 DUP6 DUP3 DUP7 ADD PUSH2 0x14E JUMP JUMPDEST SWAP2 POP POP SWAP3 POP SWAP3 SWAP1 POP JUMP JUMPDEST PUSH2 0x1AC DUP2 PUSH2 0x209 JUMP JUMPDEST DUP3 MSTORE POP POP JUMP JUMPDEST PUSH2 0x1BB DUP2 PUSH2 0x235 JUMP JUMPDEST DUP3 MSTORE POP POP JUMP JUMPDEST PUSH1 0x0 PUSH1 0x20 DUP3 ADD SWAP1 POP PUSH2 0x1D6 PUSH1 0x0 DUP4 ADD DUP5 PUSH2 0x1A3 JUMP JUMPDEST SWAP3 SWAP2 POP POP JUMP JUMPDEST PUSH1 0x0 PUSH1 0x20 DUP3 ADD SWAP1 POP PUSH2 0x1F1 PUSH1 0x0 DUP4 ADD DUP5 PUSH2 0x1B2 JUMP JUMPDEST SWAP3 SWAP2 POP POP JUMP JUMPDEST PUSH1 0x0 PUSH2 0x202 DUP3 PUSH2 0x215 JUMP JUMPDEST SWAP1 POP SWAP2 SWAP1 POP JUMP JUMPDEST PUSH1 0x0 DUP2 ISZERO ISZERO SWAP1 POP SWAP2 SWAP1 POP JUMP JUMPDEST PUSH1 0x0 PUSH20 0xFFFFFFFFFFFFFFFFFFFFFFFFFFFFFFFFFFFFFFFF DUP3 AND SWAP1 POP SWAP2 SWAP1 POP JUMP JUMPDEST PUSH1 0x0 DUP2 SWAP1 POP SWAP2 SWAP1 POP JUMP JUMPDEST PUSH1 0x0 PUSH2 0x24A DUP3 PUSH2 0x235 JUMP JUMPDEST SWAP2 POP PUSH32 0xFFFFFFFFFFFFFFFFFFFFFFFFFFFFFFFFFFFFFFFFFFFFFFFFFFFFFFFFFFFFFFFF DUP3 EQ ISZERO PUSH2 0x27D JUMPI PUSH2 0x27C PUSH2 0x288 JUMP JUMPDEST JUMPDEST PUSH1 0x1 DUP3 ADD SWAP1 POP SWAP2 SWAP1 POP JUMP JUMPDEST PUSH32 0x4E487B7100000000000000000000000000000000000000000000000000000000 PUSH1 0x0 MSTORE PUSH1 0x11 PUSH1 0x4 MSTORE PUSH1 0x24 PUSH1 0x0 REVERT JUMPDEST PUSH1 0x0 DUP1 REVERT JUMPDEST PUSH2 0x2C5 DUP2 PUSH2 0x1F7 JUMP JUMPDEST DUP2 EQ PUSH2 0x2D0 JUMPI PUSH1 0x0 DUP1 REVERT JUMPDEST POP JUMP JUMPDEST PUSH2 0x2DC DUP2 PUSH2 0x235 JUMP JUMPDEST DUP2 EQ PUSH2 0x2E7 JUMPI PUSH1 0x0 DUP1 REVERT JUMPDEST POP JUMP INVALID LOG2 PUSH5 0x6970667358 0x22 SLT KECCAK256 0xCD PUSH19 0x8787FC198A2D29B4698784BC99D326E3AEEABC EXP 0xB8 PUSH10 0x7CEA916C85C4526473 PUSH16 0x6C634300080700330000000000000000 "
				},
				"gasEstimates": {
					"creation": {
						"codeDepositCost": "160000",
						"executionCost": "202",
						"totalCost": "160202"
					},
					"external": {
						"": "129",
						"getBalance()": "361",
						"sendEther()": "267",
						"transferEther(address,uint256)": "infinite"
					}
				},
				"methodIdentifiers": {
					"getBalance()": "12065fe0",
					"sendEther()": "0e29df22",
					"transferEther(address,uint256)": "05b1137b"
				}
			},
			"storageLayout": {
				"storage": [],
				"types": null
			},
			"userdoc": {
				"kind": "user",
				"methods": {},
				"version": 1
			}
		}
	}
}