{
	"contracts/crowdfunding.sol": {
		"CrowdFunding": {
			"abi": [
				{
					"inputs": [
						{
							"internalType": "uint256",
							"name": "_goal",
							"type": "uint256"
						},
						{
							"internalType": "uint256",
							"name": "_deadline",
							"type": "uint256"
						}
					],
					"stateMutability": "nonpayable",
					"type": "constructor"
				},
				{
					"inputs": [],
					"name": "admin",
					"outputs": [
						{
							"internalType": "address",
							"name": "",
							"type": "address"
						}
					],
					"stateMutability": "view",
					"type": "function"
				},
				{
					"inputs": [],
					"name": "contribute",
					"outputs": [],
					"stateMutability": "payable",
					"type": "function"
				},
				{
					"inputs": [
						{
							"internalType": "address",
							"name": "",
							"type": "address"
						}
					],
					"name": "contributors",
					"outputs": [
						{
							"internalType": "uint256",
							"name": "",
							"type": "uint256"
						}
					],
					"stateMutability": "view",
					"type": "function"
				},
				{
					"inputs": [
						{
							"internalType": "string",
							"name": "_description",
							"type": "string"
						},
						{
							"internalType": "uint256",
							"name": "_value",
							"type": "uint256"
						}
					],
					"name": "createRequest",
					"outputs": [],
					"stateMutability": "nonpayable",
					"type": "function"
				},
				{
					"inputs": [],
					"name": "deadline",
					"outputs": [
						{
							"internalType": "uint256",
							"name": "",
							"type": "uint256"
						}
					],
					"stateMutability": "view",
					"type": "function"
				},
				{
					"inputs": [],
					"name": "getBalance",
					"outputs": [
						{
							"internalType": "uint256",
							"name": "",
							"type": "uint256"
						}
					],
					"stateMutability": "view",
					"type": "function"
				},
				{
					"inputs": [],
					"name": "getRefund",
					"outputs": [],
					"stateMutability": "nonpayable",
					"type": "function"
				},
				{
					"inputs": [],
					"name": "goal",
					"outputs": [
						{
							"internalType": "uint256",
							"name": "",
							"type": "uint256"
						}
					],
					"stateMutability": "view",
					"type": "function"
				},
				{
					"inputs": [],
					"name": "minimumContribution",
					"outputs": [
						{
							"internalType": "uint256",
							"name": "",
							"type": "uint256"
						}
					],
					"stateMutability": "view",
					"type": "function"
				},
				{
					"inputs": [],
					"name": "numberContributors",
					"outputs": [
						{
							"internalType": "uint256",
							"name": "",
							"type": "uint256"
						}
					],
					"stateMutability": "view",
					"type": "function"
				},
				{
					"inputs": [],
					"name": "numberRequests",
					"outputs": [
						{
							"internalType": "uint256",
							"name": "",
							"type": "uint256"
						}
					],
					"stateMutability": "view",
					"type": "function"
				},
				{
					"inputs": [],
					"name": "raisedAmount",
					"outputs": [
						{
							"internalType": "uint256",
							"name": "",
							"type": "uint256"
						}
					],
					"stateMutability": "view",
					"type": "function"
				},
				{
					"inputs": [
						{
							"internalType": "uint256",
							"name": "",
							"type": "uint256"
						}
					],
					"name": "requests",
					"outputs": [
						{
							"internalType": "string",
							"name": "description",
							"type": "string"
						},
						{
							"internalType": "address payable",
							"name": "recipient",
							"type": "address"
						},
						{
							"internalType": "uint256",
							"name": "value",
							"type": "uint256"
						},
						{
							"internalType": "bool",
							"name": "completed",
							"type": "bool"
						},
						{
							"internalType": "uint256",
							"name": "numberVoters",
							"type": "uint256"
						}
					],
					"stateMutability": "view",
					"type": "function"
				},
				{
					"stateMutability": "payable",
					"type": "receive"
				}
			],
			"devdoc": {
				"kind": "dev",
				"methods": {},
				"version": 1
			},
			"evm": {
				"assembly": "    /* \"contracts/crowdfunding.sol\":73:3664  contract CrowdFunding{\r... */\n  mstore(0x40, 0x80)\n    /* \"contracts/crowdfunding.sol\":1378:1653  constructor(uint _goal, uint _deadline){\r... */\n  callvalue\n  dup1\n  iszero\n  tag_1\n  jumpi\n  0x00\n  dup1\n  revert\ntag_1:\n  pop\n  mload(0x40)\n  sub(codesize, bytecodeSize)\n  dup1\n  bytecodeSize\n  dup4\n  codecopy\n  dup2\n  dup2\n  add\n  0x40\n  mstore\n  dup2\n  add\n  swap1\n  tag_2\n  swap2\n  swap1\n  tag_3\n  jump\t// in\ntag_2:\n    /* \"contracts/crowdfunding.sol\":1435:1440  _goal */\n  dup2\n    /* \"contracts/crowdfunding.sol\":1428:1432  goal */\n  0x05\n    /* \"contracts/crowdfunding.sol\":1428:1440  goal = _goal */\n  dup2\n  swap1\n  sstore\n  pop\n    /* \"contracts/crowdfunding.sol\":1502:1511  _deadline */\n  dup1\n    /* \"contracts/crowdfunding.sol\":1484:1499  block.timestamp */\n  timestamp\n    /* \"contracts/crowdfunding.sol\":1484:1511  block.timestamp + _deadline */\n  tag_6\n  swap2\n  swap1\n  tag_7\n  jump\t// in\ntag_6:\n    /* \"contracts/crowdfunding.sol\":1473:1481  deadline */\n  0x04\n    /* \"contracts/crowdfunding.sol\":1473:1511  deadline = block.timestamp + _deadline */\n  dup2\n  swap1\n  sstore\n  pop\n    /* \"contracts/crowdfunding.sol\":1576:1583  100 wei */\n  0x64\n    /* \"contracts/crowdfunding.sol\":1554:1573  minimumContribution */\n  0x03\n    /* \"contracts/crowdfunding.sol\":1554:1583  minimumContribution = 100 wei */\n  dup2\n  swap1\n  sstore\n  pop\n    /* \"contracts/crowdfunding.sol\":1622:1632  msg.sender */\n  caller\n    /* \"contracts/crowdfunding.sol\":1614:1619  admin */\n  0x01\n  0x00\n    /* \"contracts/crowdfunding.sol\":1614:1632  admin = msg.sender */\n  0x0100\n  exp\n  dup2\n  sload\n  dup2\n  0xffffffffffffffffffffffffffffffffffffffff\n  mul\n  not\n  and\n  swap1\n  dup4\n  0xffffffffffffffffffffffffffffffffffffffff\n  and\n  mul\n  or\n  swap1\n  sstore\n  pop\n    /* \"contracts/crowdfunding.sol\":1378:1653  constructor(uint _goal, uint _deadline){\r... */\n  pop\n  pop\n    /* \"contracts/crowdfunding.sol\":73:3664  contract CrowdFunding{\r... */\n  jump(tag_8)\n    /* \"#utility.yul\":7:150   */\ntag_10:\n    /* \"#utility.yul\":64:69   */\n  0x00\n    /* \"#utility.yul\":95:101   */\n  dup2\n    /* \"#utility.yul\":89:102   */\n  mload\n    /* \"#utility.yul\":80:102   */\n  swap1\n  pop\n    /* \"#utility.yul\":111:144   */\n  tag_12\n    /* \"#utility.yul\":138:143   */\n  dup2\n    /* \"#utility.yul\":111:144   */\n  tag_13\n  jump\t// in\ntag_12:\n    /* \"#utility.yul\":7:150   */\n  swap3\n  swap2\n  pop\n  pop\n  jump\t// out\n    /* \"#utility.yul\":156:663   */\ntag_3:\n    /* \"#utility.yul\":235:241   */\n  0x00\n    /* \"#utility.yul\":243:249   */\n  dup1\n    /* \"#utility.yul\":292:294   */\n  0x40\n    /* \"#utility.yul\":280:289   */\n  dup4\n    /* \"#utility.yul\":271:278   */\n  dup6\n    /* \"#utility.yul\":267:290   */\n  sub\n    /* \"#utility.yul\":263:295   */\n  slt\n    /* \"#utility.yul\":260:379   */\n  iszero\n  tag_15\n  jumpi\n    /* \"#utility.yul\":298:377   */\n  tag_16\n  tag_17\n  jump\t// in\ntag_16:\n    /* \"#utility.yul\":260:379   */\ntag_15:\n    /* \"#utility.yul\":418:419   */\n  0x00\n    /* \"#utility.yul\":443:507   */\n  tag_18\n    /* \"#utility.yul\":499:506   */\n  dup6\n    /* \"#utility.yul\":490:496   */\n  dup3\n    /* \"#utility.yul\":479:488   */\n  dup7\n    /* \"#utility.yul\":475:497   */\n  add\n    /* \"#utility.yul\":443:507   */\n  tag_10\n  jump\t// in\ntag_18:\n    /* \"#utility.yul\":433:507   */\n  swap3\n  pop\n    /* \"#utility.yul\":389:517   */\n  pop\n    /* \"#utility.yul\":556:558   */\n  0x20\n    /* \"#utility.yul\":582:646   */\n  tag_19\n    /* \"#utility.yul\":638:645   */\n  dup6\n    /* \"#utility.yul\":629:635   */\n  dup3\n    /* \"#utility.yul\":618:627   */\n  dup7\n    /* \"#utility.yul\":614:636   */\n  add\n    /* \"#utility.yul\":582:646   */\n  tag_10\n  jump\t// in\ntag_19:\n    /* \"#utility.yul\":572:646   */\n  swap2\n  pop\n    /* \"#utility.yul\":527:656   */\n  pop\n    /* \"#utility.yul\":156:663   */\n  swap3\n  pop\n  swap3\n  swap1\n  pop\n  jump\t// out\n    /* \"#utility.yul\":750:1055   */\ntag_7:\n    /* \"#utility.yul\":790:793   */\n  0x00\n    /* \"#utility.yul\":809:829   */\n  tag_23\n    /* \"#utility.yul\":827:828   */\n  dup3\n    /* \"#utility.yul\":809:829   */\n  tag_24\n  jump\t// in\ntag_23:\n    /* \"#utility.yul\":804:829   */\n  swap2\n  pop\n    /* \"#utility.yul\":843:863   */\n  tag_25\n    /* \"#utility.yul\":861:862   */\n  dup4\n    /* \"#utility.yul\":843:863   */\n  tag_24\n  jump\t// in\ntag_25:\n    /* \"#utility.yul\":838:863   */\n  swap3\n  pop\n    /* \"#utility.yul\":997:998   */\n  dup3\n    /* \"#utility.yul\":929:995   */\n  0xffffffffffffffffffffffffffffffffffffffffffffffffffffffffffffffff\n    /* \"#utility.yul\":925:999   */\n  sub\n    /* \"#utility.yul\":922:923   */\n  dup3\n    /* \"#utility.yul\":919:1000   */\n  gt\n    /* \"#utility.yul\":916:1023   */\n  iszero\n  tag_26\n  jumpi\n    /* \"#utility.yul\":1003:1021   */\n  tag_27\n  tag_28\n  jump\t// in\ntag_27:\n    /* \"#utility.yul\":916:1023   */\ntag_26:\n    /* \"#utility.yul\":1047:1048   */\n  dup3\n    /* \"#utility.yul\":1044:1045   */\n  dup3\n    /* \"#utility.yul\":1040:1049   */\n  add\n    /* \"#utility.yul\":1033:1049   */\n  swap1\n  pop\n    /* \"#utility.yul\":750:1055   */\n  swap3\n  swap2\n  pop\n  pop\n  jump\t// out\n    /* \"#utility.yul\":1061:1138   */\ntag_24:\n    /* \"#utility.yul\":1098:1105   */\n  0x00\n    /* \"#utility.yul\":1127:1132   */\n  dup2\n    /* \"#utility.yul\":1116:1132   */\n  swap1\n  pop\n    /* \"#utility.yul\":1061:1138   */\n  swap2\n  swap1\n  pop\n  jump\t// out\n    /* \"#utility.yul\":1144:1324   */\ntag_28:\n    /* \"#utility.yul\":1192:1269   */\n  0x4e487b7100000000000000000000000000000000000000000000000000000000\n    /* \"#utility.yul\":1189:1190   */\n  0x00\n    /* \"#utility.yul\":1182:1270   */\n  mstore\n    /* \"#utility.yul\":1289:1293   */\n  0x11\n    /* \"#utility.yul\":1286:1287   */\n  0x04\n    /* \"#utility.yul\":1279:1294   */\n  mstore\n    /* \"#utility.yul\":1313:1317   */\n  0x24\n    /* \"#utility.yul\":1310:1311   */\n  0x00\n    /* \"#utility.yul\":1303:1318   */\n  revert\n    /* \"#utility.yul\":1453:1570   */\ntag_17:\n    /* \"#utility.yul\":1562:1563   */\n  0x00\n    /* \"#utility.yul\":1559:1560   */\n  dup1\n    /* \"#utility.yul\":1552:1564   */\n  revert\n    /* \"#utility.yul\":1576:1698   */\ntag_13:\n    /* \"#utility.yul\":1649:1673   */\n  tag_35\n    /* \"#utility.yul\":1667:1672   */\n  dup2\n    /* \"#utility.yul\":1649:1673   */\n  tag_24\n  jump\t// in\ntag_35:\n    /* \"#utility.yul\":1642:1647   */\n  dup2\n    /* \"#utility.yul\":1639:1674   */\n  eq\n    /* \"#utility.yul\":1629:1692   */\n  tag_36\n  jumpi\n    /* \"#utility.yul\":1688:1689   */\n  0x00\n    /* \"#utility.yul\":1685:1686   */\n  dup1\n    /* \"#utility.yul\":1678:1690   */\n  revert\n    /* \"#utility.yul\":1629:1692   */\ntag_36:\n    /* \"#utility.yul\":1576:1698   */\n  pop\n  jump\t// out\n    /* \"contracts/crowdfunding.sol\":73:3664  contract CrowdFunding{\r... */\ntag_8:\n  dataSize(sub_0)\n  dup1\n  dataOffset(sub_0)\n  0x00\n  codecopy\n  0x00\n  return\nstop\n\nsub_0: assembly {\n        /* \"contracts/crowdfunding.sol\":73:3664  contract CrowdFunding{\r... */\n      mstore(0x40, 0x80)\n      jumpi(tag_1, lt(calldatasize, 0x04))\n      shr(0xe0, calldataload(0x00))\n      dup1\n      0xaa6e90c0\n      gt\n      tag_16\n      jumpi\n      dup1\n      0xd3a9d4ea\n      gt\n      tag_17\n      jumpi\n      dup1\n      0xd3a9d4ea\n      eq\n      tag_12\n      jumpi\n      dup1\n      0xd7bb99ba\n      eq\n      tag_13\n      jumpi\n      dup1\n      0xf3740daf\n      eq\n      tag_14\n      jumpi\n      dup1\n      0xf851a440\n      eq\n      tag_15\n      jumpi\n      jump(tag_2)\n    tag_17:\n      dup1\n      0xaa6e90c0\n      eq\n      tag_9\n      jumpi\n      dup1\n      0xb2d5ae44\n      eq\n      tag_10\n      jumpi\n      dup1\n      0xc59ee1dc\n      eq\n      tag_11\n      jumpi\n      jump(tag_2)\n    tag_16:\n      dup1\n      0x12065fe0\n      eq\n      tag_3\n      jumpi\n      dup1\n      0x1f6d4942\n      eq\n      tag_4\n      jumpi\n      dup1\n      0x29dcb0cf\n      eq\n      tag_5\n      jumpi\n      dup1\n      0x40193883\n      eq\n      tag_6\n      jumpi\n      dup1\n      0x81d12c58\n      eq\n      tag_7\n      jumpi\n      dup1\n      0x937e09b1\n      eq\n      tag_8\n      jumpi\n      jump(tag_2)\n    tag_1:\n      jumpi(tag_2, calldatasize)\n        /* \"contracts/crowdfunding.sol\":2515:2527  contribute() */\n      tag_20\n        /* \"contracts/crowdfunding.sol\":2515:2525  contribute */\n      tag_21\n        /* \"contracts/crowdfunding.sol\":2515:2527  contribute() */\n      jump\t// in\n    tag_20:\n        /* \"contracts/crowdfunding.sol\":73:3664  contract CrowdFunding{\r... */\n      stop\n    tag_2:\n      0x00\n      dup1\n      revert\n        /* \"contracts/crowdfunding.sol\":2586:2684  function getBalance() public view returns(uint){\r... */\n    tag_3:\n      callvalue\n      dup1\n      iszero\n      tag_22\n      jumpi\n      0x00\n      dup1\n      revert\n    tag_22:\n      pop\n      tag_23\n      tag_24\n      jump\t// in\n    tag_23:\n      mload(0x40)\n      tag_25\n      swap2\n      swap1\n      tag_26\n      jump\t// in\n    tag_25:\n      mload(0x40)\n      dup1\n      swap2\n      sub\n      swap1\n      return\n        /* \"contracts/crowdfunding.sol\":161:205  mapping(address => uint) public contributors */\n    tag_4:\n      callvalue\n      dup1\n      iszero\n      tag_27\n      jumpi\n      0x00\n      dup1\n      revert\n    tag_27:\n      pop\n      tag_28\n      0x04\n      dup1\n      calldatasize\n      sub\n      dup2\n      add\n      swap1\n      tag_29\n      swap2\n      swap1\n      tag_30\n      jump\t// in\n    tag_29:\n      tag_31\n      jump\t// in\n    tag_28:\n      mload(0x40)\n      tag_32\n      swap2\n      swap1\n      tag_26\n      jump\t// in\n    tag_32:\n      mload(0x40)\n      dup1\n      swap2\n      sub\n      swap1\n      return\n        /* \"contracts/crowdfunding.sol\":465:485  uint public deadline */\n    tag_5:\n      callvalue\n      dup1\n      iszero\n      tag_33\n      jumpi\n      0x00\n      dup1\n      revert\n    tag_33:\n      pop\n      tag_34\n      tag_35\n      jump\t// in\n    tag_34:\n      mload(0x40)\n      tag_36\n      swap2\n      swap1\n      tag_26\n      jump\t// in\n    tag_36:\n      mload(0x40)\n      dup1\n      swap2\n      sub\n      swap1\n      return\n        /* \"contracts/crowdfunding.sol\":505:521  uint public goal */\n    tag_6:\n      callvalue\n      dup1\n      iszero\n      tag_37\n      jumpi\n      0x00\n      dup1\n      revert\n    tag_37:\n      pop\n      tag_38\n      tag_39\n      jump\t// in\n    tag_38:\n      mload(0x40)\n      tag_40\n      swap2\n      swap1\n      tag_26\n      jump\t// in\n    tag_40:\n      mload(0x40)\n      dup1\n      swap2\n      sub\n      swap1\n      return\n        /* \"contracts/crowdfunding.sol\":1215:1255  mapping(uint => Request) public requests */\n    tag_7:\n      callvalue\n      dup1\n      iszero\n      tag_41\n      jumpi\n      0x00\n      dup1\n      revert\n    tag_41:\n      pop\n      tag_42\n      0x04\n      dup1\n      calldatasize\n      sub\n      dup2\n      add\n      swap1\n      tag_43\n      swap2\n      swap1\n      tag_44\n      jump\t// in\n    tag_43:\n      tag_45\n      jump\t// in\n    tag_42:\n      mload(0x40)\n      tag_46\n      swap6\n      swap5\n      swap4\n      swap3\n      swap2\n      swap1\n      tag_47\n      jump\t// in\n    tag_46:\n      mload(0x40)\n      dup1\n      swap2\n      sub\n      swap1\n      return\n        /* \"contracts/crowdfunding.sol\":399:430  uint public minimumContribution */\n    tag_8:\n      callvalue\n      dup1\n      iszero\n      tag_48\n      jumpi\n      0x00\n      dup1\n      revert\n    tag_48:\n      pop\n      tag_49\n      tag_50\n      jump\t// in\n    tag_49:\n      mload(0x40)\n      tag_51\n      swap2\n      swap1\n      tag_26\n      jump\t// in\n    tag_51:\n      mload(0x40)\n      dup1\n      swap2\n      sub\n      swap1\n      return\n        /* \"contracts/crowdfunding.sol\":3561:3653  function createRequest(string memory _description, uint _value) public{\r... */\n    tag_9:\n      callvalue\n      dup1\n      iszero\n      tag_52\n      jumpi\n      0x00\n      dup1\n      revert\n    tag_52:\n      pop\n      tag_53\n      0x04\n      dup1\n      calldatasize\n      sub\n      dup2\n      add\n      swap1\n      tag_54\n      swap2\n      swap1\n      tag_55\n      jump\t// in\n    tag_54:\n      tag_56\n      jump\t// in\n    tag_53:\n      stop\n        /* \"contracts/crowdfunding.sol\":2733:3329  function getRefund() public{\r... */\n    tag_10:\n      callvalue\n      dup1\n      iszero\n      tag_57\n      jumpi\n      0x00\n      dup1\n      revert\n    tag_57:\n      pop\n      tag_58\n      tag_59\n      jump\t// in\n    tag_58:\n      stop\n        /* \"contracts/crowdfunding.sol\":544:568  uint public raisedAmount */\n    tag_11:\n      callvalue\n      dup1\n      iszero\n      tag_60\n      jumpi\n      0x00\n      dup1\n      revert\n    tag_60:\n      pop\n      tag_61\n      tag_62\n      jump\t// in\n    tag_61:\n      mload(0x40)\n      tag_63\n      swap2\n      swap1\n      tag_26\n      jump\t// in\n    tag_63:\n      mload(0x40)\n      dup1\n      swap2\n      sub\n      swap1\n      return\n        /* \"contracts/crowdfunding.sol\":1341:1367  uint public numberRequests */\n    tag_12:\n      callvalue\n      dup1\n      iszero\n      tag_64\n      jumpi\n      0x00\n      dup1\n      revert\n    tag_64:\n      pop\n      tag_65\n      tag_66\n      jump\t// in\n    tag_65:\n      mload(0x40)\n      tag_67\n      swap2\n      swap1\n      tag_26\n      jump\t// in\n    tag_67:\n      mload(0x40)\n      dup1\n      swap2\n      sub\n      swap1\n      return\n        /* \"contracts/crowdfunding.sol\":1696:2358  function contribute() public payable{\r... */\n    tag_13:\n      tag_68\n      tag_21\n      jump\t// in\n    tag_68:\n      stop\n        /* \"contracts/crowdfunding.sol\":360:390  uint public numberContributors */\n    tag_14:\n      callvalue\n      dup1\n      iszero\n      tag_69\n      jumpi\n      0x00\n      dup1\n      revert\n    tag_69:\n      pop\n      tag_70\n      tag_71\n      jump\t// in\n    tag_70:\n      mload(0x40)\n      tag_72\n      swap2\n      swap1\n      tag_26\n      jump\t// in\n    tag_72:\n      mload(0x40)\n      dup1\n      swap2\n      sub\n      swap1\n      return\n        /* \"contracts/crowdfunding.sol\":275:295  address public admin */\n    tag_15:\n      callvalue\n      dup1\n      iszero\n      tag_73\n      jumpi\n      0x00\n      dup1\n      revert\n    tag_73:\n      pop\n      tag_74\n      tag_75\n      jump\t// in\n    tag_74:\n      mload(0x40)\n      tag_76\n      swap2\n      swap1\n      tag_77\n      jump\t// in\n    tag_76:\n      mload(0x40)\n      dup1\n      swap2\n      sub\n      swap1\n      return\n        /* \"contracts/crowdfunding.sol\":1696:2358  function contribute() public payable{\r... */\n    tag_21:\n        /* \"contracts/crowdfunding.sol\":1814:1822  deadline */\n      sload(0x04)\n        /* \"contracts/crowdfunding.sol\":1796:1811  block.timestamp */\n      timestamp\n        /* \"contracts/crowdfunding.sol\":1796:1822  block.timestamp < deadline */\n      lt\n        /* \"contracts/crowdfunding.sol\":1788:1847  require(block.timestamp < deadline, \"Deadline has passed.\") */\n      tag_79\n      jumpi\n      mload(0x40)\n      0x08c379a000000000000000000000000000000000000000000000000000000000\n      dup2\n      mstore\n      0x04\n      add\n      tag_80\n      swap1\n      tag_81\n      jump\t// in\n    tag_80:\n      mload(0x40)\n      dup1\n      swap2\n      sub\n      swap1\n      revert\n    tag_79:\n        /* \"contracts/crowdfunding.sol\":1944:1963  minimumContribution */\n      sload(0x03)\n        /* \"contracts/crowdfunding.sol\":1931:1940  msg.value */\n      callvalue\n        /* \"contracts/crowdfunding.sol\":1931:1963  msg.value >= minimumContribution */\n      lt\n      iszero\n        /* \"contracts/crowdfunding.sol\":1923:1997  require(msg.value >= minimumContribution, \"Minimum contribution not met.\") */\n      tag_82\n      jumpi\n      mload(0x40)\n      0x08c379a000000000000000000000000000000000000000000000000000000000\n      dup2\n      mstore\n      0x04\n      add\n      tag_83\n      swap1\n      tag_84\n      jump\t// in\n    tag_83:\n      mload(0x40)\n      dup1\n      swap2\n      sub\n      swap1\n      revert\n    tag_82:\n        /* \"contracts/crowdfunding.sol\":2137:2138  0 */\n      0x00\n        /* \"contracts/crowdfunding.sol\":2109:2121  contributors */\n      dup1\n        /* \"contracts/crowdfunding.sol\":2109:2133  contributors[msg.sender] */\n      0x00\n        /* \"contracts/crowdfunding.sol\":2122:2132  msg.sender */\n      caller\n        /* \"contracts/crowdfunding.sol\":2109:2133  contributors[msg.sender] */\n      0xffffffffffffffffffffffffffffffffffffffff\n      and\n      0xffffffffffffffffffffffffffffffffffffffff\n      and\n      dup2\n      mstore\n      0x20\n      add\n      swap1\n      dup2\n      mstore\n      0x20\n      add\n      0x00\n      keccak256\n      sload\n        /* \"contracts/crowdfunding.sol\":2109:2138  contributors[msg.sender] == 0 */\n      eq\n        /* \"contracts/crowdfunding.sol\":2105:2186  if (contributors[msg.sender] == 0){\r... */\n      iszero\n      tag_85\n      jumpi\n        /* \"contracts/crowdfunding.sol\":2154:2172  numberContributors */\n      0x02\n      0x00\n        /* \"contracts/crowdfunding.sol\":2154:2174  numberContributors++ */\n      dup2\n      sload\n      dup1\n      swap3\n      swap2\n      swap1\n      tag_86\n      swap1\n      tag_87\n      jump\t// in\n    tag_86:\n      swap2\n      swap1\n      pop\n      sstore\n      pop\n        /* \"contracts/crowdfunding.sol\":2105:2186  if (contributors[msg.sender] == 0){\r... */\n    tag_85:\n        /* \"contracts/crowdfunding.sol\":2263:2272  msg.value */\n      callvalue\n        /* \"contracts/crowdfunding.sol\":2235:2247  contributors */\n      0x00\n        /* \"contracts/crowdfunding.sol\":2235:2259  contributors[msg.sender] */\n      dup1\n        /* \"contracts/crowdfunding.sol\":2248:2258  msg.sender */\n      caller\n        /* \"contracts/crowdfunding.sol\":2235:2259  contributors[msg.sender] */\n      0xffffffffffffffffffffffffffffffffffffffff\n      and\n      0xffffffffffffffffffffffffffffffffffffffff\n      and\n      dup2\n      mstore\n      0x20\n      add\n      swap1\n      dup2\n      mstore\n      0x20\n      add\n      0x00\n      keccak256\n      0x00\n        /* \"contracts/crowdfunding.sol\":2235:2272  contributors[msg.sender] += msg.value */\n      dup3\n      dup3\n      sload\n      tag_88\n      swap2\n      swap1\n      tag_89\n      jump\t// in\n    tag_88:\n      swap3\n      pop\n      pop\n      dup2\n      swap1\n      sstore\n      pop\n        /* \"contracts/crowdfunding.sol\":2339:2348  msg.value */\n      callvalue\n        /* \"contracts/crowdfunding.sol\":2323:2335  raisedAmount */\n      0x06\n      0x00\n        /* \"contracts/crowdfunding.sol\":2323:2348  raisedAmount += msg.value */\n      dup3\n      dup3\n      sload\n      tag_90\n      swap2\n      swap1\n      tag_89\n      jump\t// in\n    tag_90:\n      swap3\n      pop\n      pop\n      dup2\n      swap1\n      sstore\n      pop\n        /* \"contracts/crowdfunding.sol\":1696:2358  function contribute() public payable{\r... */\n      jump\t// out\n        /* \"contracts/crowdfunding.sol\":2586:2684  function getBalance() public view returns(uint){\r... */\n    tag_24:\n        /* \"contracts/crowdfunding.sol\":2628:2632  uint */\n      0x00\n        /* \"contracts/crowdfunding.sol\":2653:2674  address(this).balance */\n      selfbalance\n        /* \"contracts/crowdfunding.sol\":2646:2674  return address(this).balance */\n      swap1\n      pop\n        /* \"contracts/crowdfunding.sol\":2586:2684  function getBalance() public view returns(uint){\r... */\n      swap1\n      jump\t// out\n        /* \"contracts/crowdfunding.sol\":161:205  mapping(address => uint) public contributors */\n    tag_31:\n      mstore(0x20, 0x00)\n      dup1\n      0x00\n      mstore\n      keccak256(0x00, 0x40)\n      0x00\n      swap2\n      pop\n      swap1\n      pop\n      sload\n      dup2\n      jump\t// out\n        /* \"contracts/crowdfunding.sol\":465:485  uint public deadline */\n    tag_35:\n      sload(0x04)\n      dup2\n      jump\t// out\n        /* \"contracts/crowdfunding.sol\":505:521  uint public goal */\n    tag_39:\n      sload(0x05)\n      dup2\n      jump\t// out\n        /* \"contracts/crowdfunding.sol\":1215:1255  mapping(uint => Request) public requests */\n    tag_45:\n      mstore(0x20, 0x07)\n      dup1\n      0x00\n      mstore\n      keccak256(0x00, 0x40)\n      0x00\n      swap2\n      pop\n      swap1\n      pop\n      dup1\n      0x00\n      add\n      dup1\n      sload\n      tag_92\n      swap1\n      tag_93\n      jump\t// in\n    tag_92:\n      dup1\n      0x1f\n      add\n      0x20\n      dup1\n      swap2\n      div\n      mul\n      0x20\n      add\n      mload(0x40)\n      swap1\n      dup2\n      add\n      0x40\n      mstore\n      dup1\n      swap3\n      swap2\n      swap1\n      dup2\n      dup2\n      mstore\n      0x20\n      add\n      dup3\n      dup1\n      sload\n      tag_94\n      swap1\n      tag_93\n      jump\t// in\n    tag_94:\n      dup1\n      iszero\n      tag_95\n      jumpi\n      dup1\n      0x1f\n      lt\n      tag_96\n      jumpi\n      0x0100\n      dup1\n      dup4\n      sload\n      div\n      mul\n      dup4\n      mstore\n      swap2\n      0x20\n      add\n      swap2\n      jump(tag_95)\n    tag_96:\n      dup3\n      add\n      swap2\n      swap1\n      0x00\n      mstore\n      keccak256(0x00, 0x20)\n      swap1\n    tag_97:\n      dup2\n      sload\n      dup2\n      mstore\n      swap1\n      0x01\n      add\n      swap1\n      0x20\n      add\n      dup1\n      dup4\n      gt\n      tag_97\n      jumpi\n      dup3\n      swap1\n      sub\n      0x1f\n      and\n      dup3\n      add\n      swap2\n    tag_95:\n      pop\n      pop\n      pop\n      pop\n      pop\n      swap1\n      dup1\n      0x01\n      add\n      0x00\n      swap1\n      sload\n      swap1\n      0x0100\n      exp\n      swap1\n      div\n      0xffffffffffffffffffffffffffffffffffffffff\n      and\n      swap1\n      dup1\n      0x02\n      add\n      sload\n      swap1\n      dup1\n      0x03\n      add\n      0x00\n      swap1\n      sload\n      swap1\n      0x0100\n      exp\n      swap1\n      div\n      0xff\n      and\n      swap1\n      dup1\n      0x04\n      add\n      sload\n      swap1\n      pop\n      dup6\n      jump\t// out\n        /* \"contracts/crowdfunding.sol\":399:430  uint public minimumContribution */\n    tag_50:\n      sload(0x03)\n      dup2\n      jump\t// out\n        /* \"contracts/crowdfunding.sol\":3561:3653  function createRequest(string memory _description, uint _value) public{\r... */\n    tag_56:\n      pop\n      pop\n      jump\t// out\n        /* \"contracts/crowdfunding.sol\":2733:3329  function getRefund() public{\r... */\n    tag_59:\n        /* \"contracts/crowdfunding.sol\":2855:2863  deadline */\n      sload(0x04)\n        /* \"contracts/crowdfunding.sol\":2837:2852  block.timestamp */\n      timestamp\n        /* \"contracts/crowdfunding.sol\":2837:2863  block.timestamp > deadline */\n      gt\n        /* \"contracts/crowdfunding.sol\":2837:2886  block.timestamp > deadline && raisedAmount < goal */\n      dup1\n      iszero\n      tag_100\n      jumpi\n      pop\n        /* \"contracts/crowdfunding.sol\":2882:2886  goal */\n      sload(0x05)\n        /* \"contracts/crowdfunding.sol\":2867:2879  raisedAmount */\n      sload(0x06)\n        /* \"contracts/crowdfunding.sol\":2867:2886  raisedAmount < goal */\n      lt\n        /* \"contracts/crowdfunding.sol\":2837:2886  block.timestamp > deadline && raisedAmount < goal */\n    tag_100:\n        /* \"contracts/crowdfunding.sol\":2829:2887  require(block.timestamp > deadline && raisedAmount < goal) */\n      tag_101\n      jumpi\n      0x00\n      dup1\n      revert\n    tag_101:\n        /* \"contracts/crowdfunding.sol\":2977:2978  0 */\n      0x00\n        /* \"contracts/crowdfunding.sol\":2950:2962  contributors */\n      dup1\n        /* \"contracts/crowdfunding.sol\":2950:2974  contributors[msg.sender] */\n      0x00\n        /* \"contracts/crowdfunding.sol\":2963:2973  msg.sender */\n      caller\n        /* \"contracts/crowdfunding.sol\":2950:2974  contributors[msg.sender] */\n      0xffffffffffffffffffffffffffffffffffffffff\n      and\n      0xffffffffffffffffffffffffffffffffffffffff\n      and\n      dup2\n      mstore\n      0x20\n      add\n      swap1\n      dup2\n      mstore\n      0x20\n      add\n      0x00\n      keccak256\n      sload\n        /* \"contracts/crowdfunding.sol\":2950:2978  contributors[msg.sender] > 0 */\n      gt\n        /* \"contracts/crowdfunding.sol\":2942:2979  require(contributors[msg.sender] > 0) */\n      tag_102\n      jumpi\n      0x00\n      dup1\n      revert\n    tag_102:\n        /* \"contracts/crowdfunding.sol\":3021:3046  address payable recipient */\n      0x00\n        /* \"contracts/crowdfunding.sol\":3057:3067  msg.sender */\n      caller\n        /* \"contracts/crowdfunding.sol\":3021:3068  address payable recipient = payable(msg.sender) */\n      swap1\n      pop\n        /* \"contracts/crowdfunding.sol\":3115:3125  uint value */\n      0x00\n        /* \"contracts/crowdfunding.sol\":3128:3140  contributors */\n      dup1\n        /* \"contracts/crowdfunding.sol\":3128:3152  contributors[msg.sender] */\n      0x00\n        /* \"contracts/crowdfunding.sol\":3141:3151  msg.sender */\n      caller\n        /* \"contracts/crowdfunding.sol\":3128:3152  contributors[msg.sender] */\n      0xffffffffffffffffffffffffffffffffffffffff\n      and\n      0xffffffffffffffffffffffffffffffffffffffff\n      and\n      dup2\n      mstore\n      0x20\n      add\n      swap1\n      dup2\n      mstore\n      0x20\n      add\n      0x00\n      keccak256\n      sload\n        /* \"contracts/crowdfunding.sol\":3115:3152  uint value = contributors[msg.sender] */\n      swap1\n      pop\n        /* \"contracts/crowdfunding.sol\":3211:3220  recipient */\n      dup2\n        /* \"contracts/crowdfunding.sol\":3211:3229  recipient.transfer */\n      0xffffffffffffffffffffffffffffffffffffffff\n      and\n        /* \"contracts/crowdfunding.sol\":3211:3236  recipient.transfer(value) */\n      0x08fc\n        /* \"contracts/crowdfunding.sol\":3230:3235  value */\n      dup3\n        /* \"contracts/crowdfunding.sol\":3211:3236  recipient.transfer(value) */\n      swap1\n      dup2\n      iszero\n      mul\n      swap1\n      mload(0x40)\n      0x00\n      mload(0x40)\n      dup1\n      dup4\n      sub\n      dup2\n      dup6\n      dup9\n      dup9\n      call\n      swap4\n      pop\n      pop\n      pop\n      pop\n      iszero\n      dup1\n      iszero\n      tag_104\n      jumpi\n      returndatasize\n      0x00\n      dup1\n      returndatacopy\n      revert(0x00, returndatasize)\n    tag_104:\n      pop\n        /* \"contracts/crowdfunding.sol\":3318:3319  0 */\n      0x00\n        /* \"contracts/crowdfunding.sol\":3291:3303  contributors */\n      dup1\n        /* \"contracts/crowdfunding.sol\":3291:3315  contributors[msg.sender] */\n      0x00\n        /* \"contracts/crowdfunding.sol\":3304:3314  msg.sender */\n      caller\n        /* \"contracts/crowdfunding.sol\":3291:3315  contributors[msg.sender] */\n      0xffffffffffffffffffffffffffffffffffffffff\n      and\n      0xffffffffffffffffffffffffffffffffffffffff\n      and\n      dup2\n      mstore\n      0x20\n      add\n      swap1\n      dup2\n      mstore\n      0x20\n      add\n      0x00\n      keccak256\n        /* \"contracts/crowdfunding.sol\":3291:3319  contributors[msg.sender] = 0 */\n      dup2\n      swap1\n      sstore\n      pop\n        /* \"contracts/crowdfunding.sol\":2760:3329  {\r... */\n      pop\n      pop\n        /* \"contracts/crowdfunding.sol\":2733:3329  function getRefund() public{\r... */\n      jump\t// out\n        /* \"contracts/crowdfunding.sol\":544:568  uint public raisedAmount */\n    tag_62:\n      sload(0x06)\n      dup2\n      jump\t// out\n        /* \"contracts/crowdfunding.sol\":1341:1367  uint public numberRequests */\n    tag_66:\n      sload(0x08)\n      dup2\n      jump\t// out\n        /* \"contracts/crowdfunding.sol\":360:390  uint public numberContributors */\n    tag_71:\n      sload(0x02)\n      dup2\n      jump\t// out\n        /* \"contracts/crowdfunding.sol\":275:295  address public admin */\n    tag_75:\n      0x01\n      0x00\n      swap1\n      sload\n      swap1\n      0x0100\n      exp\n      swap1\n      div\n      0xffffffffffffffffffffffffffffffffffffffff\n      and\n      dup2\n      jump\t// out\n        /* \"#utility.yul\":7:419   */\n    tag_106:\n        /* \"#utility.yul\":85:90   */\n      0x00\n        /* \"#utility.yul\":110:176   */\n      tag_108\n        /* \"#utility.yul\":126:175   */\n      tag_109\n        /* \"#utility.yul\":168:174   */\n      dup5\n        /* \"#utility.yul\":126:175   */\n      tag_110\n      jump\t// in\n    tag_109:\n        /* \"#utility.yul\":110:176   */\n      tag_111\n      jump\t// in\n    tag_108:\n        /* \"#utility.yul\":101:176   */\n      swap1\n      pop\n        /* \"#utility.yul\":199:205   */\n      dup3\n        /* \"#utility.yul\":192:197   */\n      dup2\n        /* \"#utility.yul\":185:206   */\n      mstore\n        /* \"#utility.yul\":237:241   */\n      0x20\n        /* \"#utility.yul\":230:235   */\n      dup2\n        /* \"#utility.yul\":226:242   */\n      add\n        /* \"#utility.yul\":275:278   */\n      dup5\n        /* \"#utility.yul\":266:272   */\n      dup5\n        /* \"#utility.yul\":261:264   */\n      dup5\n        /* \"#utility.yul\":257:273   */\n      add\n        /* \"#utility.yul\":254:279   */\n      gt\n        /* \"#utility.yul\":251:363   */\n      iszero\n      tag_112\n      jumpi\n        /* \"#utility.yul\":282:361   */\n      tag_113\n      tag_114\n      jump\t// in\n    tag_113:\n        /* \"#utility.yul\":251:363   */\n    tag_112:\n        /* \"#utility.yul\":372:413   */\n      tag_115\n        /* \"#utility.yul\":406:412   */\n      dup5\n        /* \"#utility.yul\":401:404   */\n      dup3\n        /* \"#utility.yul\":396:399   */\n      dup6\n        /* \"#utility.yul\":372:413   */\n      tag_116\n      jump\t// in\n    tag_115:\n        /* \"#utility.yul\":91:419   */\n      pop\n        /* \"#utility.yul\":7:419   */\n      swap4\n      swap3\n      pop\n      pop\n      pop\n      jump\t// out\n        /* \"#utility.yul\":425:564   */\n    tag_117:\n        /* \"#utility.yul\":471:476   */\n      0x00\n        /* \"#utility.yul\":509:515   */\n      dup2\n        /* \"#utility.yul\":496:516   */\n      calldataload\n        /* \"#utility.yul\":487:516   */\n      swap1\n      pop\n        /* \"#utility.yul\":525:558   */\n      tag_119\n        /* \"#utility.yul\":552:557   */\n      dup2\n        /* \"#utility.yul\":525:558   */\n      tag_120\n      jump\t// in\n    tag_119:\n        /* \"#utility.yul\":425:564   */\n      swap3\n      swap2\n      pop\n      pop\n      jump\t// out\n        /* \"#utility.yul\":584:924   */\n    tag_121:\n        /* \"#utility.yul\":640:645   */\n      0x00\n        /* \"#utility.yul\":689:692   */\n      dup3\n        /* \"#utility.yul\":682:686   */\n      0x1f\n        /* \"#utility.yul\":674:680   */\n      dup4\n        /* \"#utility.yul\":670:687   */\n      add\n        /* \"#utility.yul\":666:693   */\n      slt\n        /* \"#utility.yul\":656:778   */\n      tag_123\n      jumpi\n        /* \"#utility.yul\":697:776   */\n      tag_124\n      tag_125\n      jump\t// in\n    tag_124:\n        /* \"#utility.yul\":656:778   */\n    tag_123:\n        /* \"#utility.yul\":814:820   */\n      dup2\n        /* \"#utility.yul\":801:821   */\n      calldataload\n        /* \"#utility.yul\":839:918   */\n      tag_126\n        /* \"#utility.yul\":914:917   */\n      dup5\n        /* \"#utility.yul\":906:912   */\n      dup3\n        /* \"#utility.yul\":899:903   */\n      0x20\n        /* \"#utility.yul\":891:897   */\n      dup7\n        /* \"#utility.yul\":887:904   */\n      add\n        /* \"#utility.yul\":839:918   */\n      tag_106\n      jump\t// in\n    tag_126:\n        /* \"#utility.yul\":830:918   */\n      swap2\n      pop\n        /* \"#utility.yul\":646:924   */\n      pop\n        /* \"#utility.yul\":584:924   */\n      swap3\n      swap2\n      pop\n      pop\n      jump\t// out\n        /* \"#utility.yul\":930:1069   */\n    tag_127:\n        /* \"#utility.yul\":976:981   */\n      0x00\n        /* \"#utility.yul\":1014:1020   */\n      dup2\n        /* \"#utility.yul\":1001:1021   */\n      calldataload\n        /* \"#utility.yul\":992:1021   */\n      swap1\n      pop\n        /* \"#utility.yul\":1030:1063   */\n      tag_129\n        /* \"#utility.yul\":1057:1062   */\n      dup2\n        /* \"#utility.yul\":1030:1063   */\n      tag_130\n      jump\t// in\n    tag_129:\n        /* \"#utility.yul\":930:1069   */\n      swap3\n      swap2\n      pop\n      pop\n      jump\t// out\n        /* \"#utility.yul\":1075:1404   */\n    tag_30:\n        /* \"#utility.yul\":1134:1140   */\n      0x00\n        /* \"#utility.yul\":1183:1185   */\n      0x20\n        /* \"#utility.yul\":1171:1180   */\n      dup3\n        /* \"#utility.yul\":1162:1169   */\n      dup5\n        /* \"#utility.yul\":1158:1181   */\n      sub\n        /* \"#utility.yul\":1154:1186   */\n      slt\n        /* \"#utility.yul\":1151:1270   */\n      iszero\n      tag_132\n      jumpi\n        /* \"#utility.yul\":1189:1268   */\n      tag_133\n      tag_134\n      jump\t// in\n    tag_133:\n        /* \"#utility.yul\":1151:1270   */\n    tag_132:\n        /* \"#utility.yul\":1309:1310   */\n      0x00\n        /* \"#utility.yul\":1334:1387   */\n      tag_135\n        /* \"#utility.yul\":1379:1386   */\n      dup5\n        /* \"#utility.yul\":1370:1376   */\n      dup3\n        /* \"#utility.yul\":1359:1368   */\n      dup6\n        /* \"#utility.yul\":1355:1377   */\n      add\n        /* \"#utility.yul\":1334:1387   */\n      tag_117\n      jump\t// in\n    tag_135:\n        /* \"#utility.yul\":1324:1387   */\n      swap2\n      pop\n        /* \"#utility.yul\":1280:1397   */\n      pop\n        /* \"#utility.yul\":1075:1404   */\n      swap3\n      swap2\n      pop\n      pop\n      jump\t// out\n        /* \"#utility.yul\":1410:2064   */\n    tag_55:\n        /* \"#utility.yul\":1488:1494   */\n      0x00\n        /* \"#utility.yul\":1496:1502   */\n      dup1\n        /* \"#utility.yul\":1545:1547   */\n      0x40\n        /* \"#utility.yul\":1533:1542   */\n      dup4\n        /* \"#utility.yul\":1524:1531   */\n      dup6\n        /* \"#utility.yul\":1520:1543   */\n      sub\n        /* \"#utility.yul\":1516:1548   */\n      slt\n        /* \"#utility.yul\":1513:1632   */\n      iszero\n      tag_137\n      jumpi\n        /* \"#utility.yul\":1551:1630   */\n      tag_138\n      tag_134\n      jump\t// in\n    tag_138:\n        /* \"#utility.yul\":1513:1632   */\n    tag_137:\n        /* \"#utility.yul\":1699:1700   */\n      0x00\n        /* \"#utility.yul\":1688:1697   */\n      dup4\n        /* \"#utility.yul\":1684:1701   */\n      add\n        /* \"#utility.yul\":1671:1702   */\n      calldataload\n        /* \"#utility.yul\":1729:1747   */\n      0xffffffffffffffff\n        /* \"#utility.yul\":1721:1727   */\n      dup2\n        /* \"#utility.yul\":1718:1748   */\n      gt\n        /* \"#utility.yul\":1715:1832   */\n      iszero\n      tag_139\n      jumpi\n        /* \"#utility.yul\":1751:1830   */\n      tag_140\n      tag_141\n      jump\t// in\n    tag_140:\n        /* \"#utility.yul\":1715:1832   */\n    tag_139:\n        /* \"#utility.yul\":1856:1919   */\n      tag_142\n        /* \"#utility.yul\":1911:1918   */\n      dup6\n        /* \"#utility.yul\":1902:1908   */\n      dup3\n        /* \"#utility.yul\":1891:1900   */\n      dup7\n        /* \"#utility.yul\":1887:1909   */\n      add\n        /* \"#utility.yul\":1856:1919   */\n      tag_121\n      jump\t// in\n    tag_142:\n        /* \"#utility.yul\":1846:1919   */\n      swap3\n      pop\n        /* \"#utility.yul\":1642:1929   */\n      pop\n        /* \"#utility.yul\":1968:1970   */\n      0x20\n        /* \"#utility.yul\":1994:2047   */\n      tag_143\n        /* \"#utility.yul\":2039:2046   */\n      dup6\n        /* \"#utility.yul\":2030:2036   */\n      dup3\n        /* \"#utility.yul\":2019:2028   */\n      dup7\n        /* \"#utility.yul\":2015:2037   */\n      add\n        /* \"#utility.yul\":1994:2047   */\n      tag_127\n      jump\t// in\n    tag_143:\n        /* \"#utility.yul\":1984:2047   */\n      swap2\n      pop\n        /* \"#utility.yul\":1939:2057   */\n      pop\n        /* \"#utility.yul\":1410:2064   */\n      swap3\n      pop\n      swap3\n      swap1\n      pop\n      jump\t// out\n        /* \"#utility.yul\":2070:2399   */\n    tag_44:\n        /* \"#utility.yul\":2129:2135   */\n      0x00\n        /* \"#utility.yul\":2178:2180   */\n      0x20\n        /* \"#utility.yul\":2166:2175   */\n      dup3\n        /* \"#utility.yul\":2157:2164   */\n      dup5\n        /* \"#utility.yul\":2153:2176   */\n      sub\n        /* \"#utility.yul\":2149:2181   */\n      slt\n        /* \"#utility.yul\":2146:2265   */\n      iszero\n      tag_145\n      jumpi\n        /* \"#utility.yul\":2184:2263   */\n      tag_146\n      tag_134\n      jump\t// in\n    tag_146:\n        /* \"#utility.yul\":2146:2265   */\n    tag_145:\n        /* \"#utility.yul\":2304:2305   */\n      0x00\n        /* \"#utility.yul\":2329:2382   */\n      tag_147\n        /* \"#utility.yul\":2374:2381   */\n      dup5\n        /* \"#utility.yul\":2365:2371   */\n      dup3\n        /* \"#utility.yul\":2354:2363   */\n      dup6\n        /* \"#utility.yul\":2350:2372   */\n      add\n        /* \"#utility.yul\":2329:2382   */\n      tag_127\n      jump\t// in\n    tag_147:\n        /* \"#utility.yul\":2319:2382   */\n      swap2\n      pop\n        /* \"#utility.yul\":2275:2392   */\n      pop\n        /* \"#utility.yul\":2070:2399   */\n      swap3\n      swap2\n      pop\n      pop\n      jump\t// out\n        /* \"#utility.yul\":2405:2547   */\n    tag_148:\n        /* \"#utility.yul\":2508:2540   */\n      tag_150\n        /* \"#utility.yul\":2534:2539   */\n      dup2\n        /* \"#utility.yul\":2508:2540   */\n      tag_151\n      jump\t// in\n    tag_150:\n        /* \"#utility.yul\":2503:2506   */\n      dup3\n        /* \"#utility.yul\":2496:2541   */\n      mstore\n        /* \"#utility.yul\":2405:2547   */\n      pop\n      pop\n      jump\t// out\n        /* \"#utility.yul\":2553:2671   */\n    tag_152:\n        /* \"#utility.yul\":2640:2664   */\n      tag_154\n        /* \"#utility.yul\":2658:2663   */\n      dup2\n        /* \"#utility.yul\":2640:2664   */\n      tag_155\n      jump\t// in\n    tag_154:\n        /* \"#utility.yul\":2635:2638   */\n      dup3\n        /* \"#utility.yul\":2628:2665   */\n      mstore\n        /* \"#utility.yul\":2553:2671   */\n      pop\n      pop\n      jump\t// out\n        /* \"#utility.yul\":2677:2786   */\n    tag_156:\n        /* \"#utility.yul\":2758:2779   */\n      tag_158\n        /* \"#utility.yul\":2773:2778   */\n      dup2\n        /* \"#utility.yul\":2758:2779   */\n      tag_159\n      jump\t// in\n    tag_158:\n        /* \"#utility.yul\":2753:2756   */\n      dup3\n        /* \"#utility.yul\":2746:2780   */\n      mstore\n        /* \"#utility.yul\":2677:2786   */\n      pop\n      pop\n      jump\t// out\n        /* \"#utility.yul\":2792:3156   */\n    tag_160:\n        /* \"#utility.yul\":2880:2883   */\n      0x00\n        /* \"#utility.yul\":2908:2947   */\n      tag_162\n        /* \"#utility.yul\":2941:2946   */\n      dup3\n        /* \"#utility.yul\":2908:2947   */\n      tag_163\n      jump\t// in\n    tag_162:\n        /* \"#utility.yul\":2963:3034   */\n      tag_164\n        /* \"#utility.yul\":3027:3033   */\n      dup2\n        /* \"#utility.yul\":3022:3025   */\n      dup6\n        /* \"#utility.yul\":2963:3034   */\n      tag_165\n      jump\t// in\n    tag_164:\n        /* \"#utility.yul\":2956:3034   */\n      swap4\n      pop\n        /* \"#utility.yul\":3043:3095   */\n      tag_166\n        /* \"#utility.yul\":3088:3094   */\n      dup2\n        /* \"#utility.yul\":3083:3086   */\n      dup6\n        /* \"#utility.yul\":3076:3080   */\n      0x20\n        /* \"#utility.yul\":3069:3074   */\n      dup7\n        /* \"#utility.yul\":3065:3081   */\n      add\n        /* \"#utility.yul\":3043:3095   */\n      tag_167\n      jump\t// in\n    tag_166:\n        /* \"#utility.yul\":3120:3149   */\n      tag_168\n        /* \"#utility.yul\":3142:3148   */\n      dup2\n        /* \"#utility.yul\":3120:3149   */\n      tag_169\n      jump\t// in\n    tag_168:\n        /* \"#utility.yul\":3115:3118   */\n      dup5\n        /* \"#utility.yul\":3111:3150   */\n      add\n        /* \"#utility.yul\":3104:3150   */\n      swap2\n      pop\n        /* \"#utility.yul\":2884:3156   */\n      pop\n        /* \"#utility.yul\":2792:3156   */\n      swap3\n      swap2\n      pop\n      pop\n      jump\t// out\n        /* \"#utility.yul\":3162:3528   */\n    tag_170:\n        /* \"#utility.yul\":3304:3307   */\n      0x00\n        /* \"#utility.yul\":3325:3392   */\n      tag_172\n        /* \"#utility.yul\":3389:3391   */\n      0x14\n        /* \"#utility.yul\":3384:3387   */\n      dup4\n        /* \"#utility.yul\":3325:3392   */\n      tag_165\n      jump\t// in\n    tag_172:\n        /* \"#utility.yul\":3318:3392   */\n      swap2\n      pop\n        /* \"#utility.yul\":3401:3494   */\n      tag_173\n        /* \"#utility.yul\":3490:3493   */\n      dup3\n        /* \"#utility.yul\":3401:3494   */\n      tag_174\n      jump\t// in\n    tag_173:\n        /* \"#utility.yul\":3519:3521   */\n      0x20\n        /* \"#utility.yul\":3514:3517   */\n      dup3\n        /* \"#utility.yul\":3510:3522   */\n      add\n        /* \"#utility.yul\":3503:3522   */\n      swap1\n      pop\n        /* \"#utility.yul\":3162:3528   */\n      swap2\n      swap1\n      pop\n      jump\t// out\n        /* \"#utility.yul\":3534:3900   */\n    tag_175:\n        /* \"#utility.yul\":3676:3679   */\n      0x00\n        /* \"#utility.yul\":3697:3764   */\n      tag_177\n        /* \"#utility.yul\":3761:3763   */\n      0x1d\n        /* \"#utility.yul\":3756:3759   */\n      dup4\n        /* \"#utility.yul\":3697:3764   */\n      tag_165\n      jump\t// in\n    tag_177:\n        /* \"#utility.yul\":3690:3764   */\n      swap2\n      pop\n        /* \"#utility.yul\":3773:3866   */\n      tag_178\n        /* \"#utility.yul\":3862:3865   */\n      dup3\n        /* \"#utility.yul\":3773:3866   */\n      tag_179\n      jump\t// in\n    tag_178:\n        /* \"#utility.yul\":3891:3893   */\n      0x20\n        /* \"#utility.yul\":3886:3889   */\n      dup3\n        /* \"#utility.yul\":3882:3894   */\n      add\n        /* \"#utility.yul\":3875:3894   */\n      swap1\n      pop\n        /* \"#utility.yul\":3534:3900   */\n      swap2\n      swap1\n      pop\n      jump\t// out\n        /* \"#utility.yul\":3906:4024   */\n    tag_180:\n        /* \"#utility.yul\":3993:4017   */\n      tag_182\n        /* \"#utility.yul\":4011:4016   */\n      dup2\n        /* \"#utility.yul\":3993:4017   */\n      tag_183\n      jump\t// in\n    tag_182:\n        /* \"#utility.yul\":3988:3991   */\n      dup3\n        /* \"#utility.yul\":3981:4018   */\n      mstore\n        /* \"#utility.yul\":3906:4024   */\n      pop\n      pop\n      jump\t// out\n        /* \"#utility.yul\":4030:4252   */\n    tag_77:\n        /* \"#utility.yul\":4123:4127   */\n      0x00\n        /* \"#utility.yul\":4161:4163   */\n      0x20\n        /* \"#utility.yul\":4150:4159   */\n      dup3\n        /* \"#utility.yul\":4146:4164   */\n      add\n        /* \"#utility.yul\":4138:4164   */\n      swap1\n      pop\n        /* \"#utility.yul\":4174:4245   */\n      tag_185\n        /* \"#utility.yul\":4242:4243   */\n      0x00\n        /* \"#utility.yul\":4231:4240   */\n      dup4\n        /* \"#utility.yul\":4227:4244   */\n      add\n        /* \"#utility.yul\":4218:4224   */\n      dup5\n        /* \"#utility.yul\":4174:4245   */\n      tag_152\n      jump\t// in\n    tag_185:\n        /* \"#utility.yul\":4030:4252   */\n      swap3\n      swap2\n      pop\n      pop\n      jump\t// out\n        /* \"#utility.yul\":4258:5033   */\n    tag_47:\n        /* \"#utility.yul\":4493:4497   */\n      0x00\n        /* \"#utility.yul\":4531:4534   */\n      0xa0\n        /* \"#utility.yul\":4520:4529   */\n      dup3\n        /* \"#utility.yul\":4516:4535   */\n      add\n        /* \"#utility.yul\":4508:4535   */\n      swap1\n      pop\n        /* \"#utility.yul\":4581:4590   */\n      dup2\n        /* \"#utility.yul\":4575:4579   */\n      dup2\n        /* \"#utility.yul\":4571:4591   */\n      sub\n        /* \"#utility.yul\":4567:4568   */\n      0x00\n        /* \"#utility.yul\":4556:4565   */\n      dup4\n        /* \"#utility.yul\":4552:4569   */\n      add\n        /* \"#utility.yul\":4545:4592   */\n      mstore\n        /* \"#utility.yul\":4609:4687   */\n      tag_187\n        /* \"#utility.yul\":4682:4686   */\n      dup2\n        /* \"#utility.yul\":4673:4679   */\n      dup9\n        /* \"#utility.yul\":4609:4687   */\n      tag_160\n      jump\t// in\n    tag_187:\n        /* \"#utility.yul\":4601:4687   */\n      swap1\n      pop\n        /* \"#utility.yul\":4697:4785   */\n      tag_188\n        /* \"#utility.yul\":4781:4783   */\n      0x20\n        /* \"#utility.yul\":4770:4779   */\n      dup4\n        /* \"#utility.yul\":4766:4784   */\n      add\n        /* \"#utility.yul\":4757:4763   */\n      dup8\n        /* \"#utility.yul\":4697:4785   */\n      tag_148\n      jump\t// in\n    tag_188:\n        /* \"#utility.yul\":4795:4867   */\n      tag_189\n        /* \"#utility.yul\":4863:4865   */\n      0x40\n        /* \"#utility.yul\":4852:4861   */\n      dup4\n        /* \"#utility.yul\":4848:4866   */\n      add\n        /* \"#utility.yul\":4839:4845   */\n      dup7\n        /* \"#utility.yul\":4795:4867   */\n      tag_180\n      jump\t// in\n    tag_189:\n        /* \"#utility.yul\":4877:4943   */\n      tag_190\n        /* \"#utility.yul\":4939:4941   */\n      0x60\n        /* \"#utility.yul\":4928:4937   */\n      dup4\n        /* \"#utility.yul\":4924:4942   */\n      add\n        /* \"#utility.yul\":4915:4921   */\n      dup6\n        /* \"#utility.yul\":4877:4943   */\n      tag_156\n      jump\t// in\n    tag_190:\n        /* \"#utility.yul\":4953:5026   */\n      tag_191\n        /* \"#utility.yul\":5021:5024   */\n      0x80\n        /* \"#utility.yul\":5010:5019   */\n      dup4\n        /* \"#utility.yul\":5006:5025   */\n      add\n        /* \"#utility.yul\":4997:5003   */\n      dup5\n        /* \"#utility.yul\":4953:5026   */\n      tag_180\n      jump\t// in\n    tag_191:\n        /* \"#utility.yul\":4258:5033   */\n      swap7\n      swap6\n      pop\n      pop\n      pop\n      pop\n      pop\n      pop\n      jump\t// out\n        /* \"#utility.yul\":5039:5458   */\n    tag_81:\n        /* \"#utility.yul\":5205:5209   */\n      0x00\n        /* \"#utility.yul\":5243:5245   */\n      0x20\n        /* \"#utility.yul\":5232:5241   */\n      dup3\n        /* \"#utility.yul\":5228:5246   */\n      add\n        /* \"#utility.yul\":5220:5246   */\n      swap1\n      pop\n        /* \"#utility.yul\":5292:5301   */\n      dup2\n        /* \"#utility.yul\":5286:5290   */\n      dup2\n        /* \"#utility.yul\":5282:5302   */\n      sub\n        /* \"#utility.yul\":5278:5279   */\n      0x00\n        /* \"#utility.yul\":5267:5276   */\n      dup4\n        /* \"#utility.yul\":5263:5280   */\n      add\n        /* \"#utility.yul\":5256:5303   */\n      mstore\n        /* \"#utility.yul\":5320:5451   */\n      tag_193\n        /* \"#utility.yul\":5446:5450   */\n      dup2\n        /* \"#utility.yul\":5320:5451   */\n      tag_170\n      jump\t// in\n    tag_193:\n        /* \"#utility.yul\":5312:5451   */\n      swap1\n      pop\n        /* \"#utility.yul\":5039:5458   */\n      swap2\n      swap1\n      pop\n      jump\t// out\n        /* \"#utility.yul\":5464:5883   */\n    tag_84:\n        /* \"#utility.yul\":5630:5634   */\n      0x00\n        /* \"#utility.yul\":5668:5670   */\n      0x20\n        /* \"#utility.yul\":5657:5666   */\n      dup3\n        /* \"#utility.yul\":5653:5671   */\n      add\n        /* \"#utility.yul\":5645:5671   */\n      swap1\n      pop\n        /* \"#utility.yul\":5717:5726   */\n      dup2\n        /* \"#utility.yul\":5711:5715   */\n      dup2\n        /* \"#utility.yul\":5707:5727   */\n      sub\n        /* \"#utility.yul\":5703:5704   */\n      0x00\n        /* \"#utility.yul\":5692:5701   */\n      dup4\n        /* \"#utility.yul\":5688:5705   */\n      add\n        /* \"#utility.yul\":5681:5728   */\n      mstore\n        /* \"#utility.yul\":5745:5876   */\n      tag_195\n        /* \"#utility.yul\":5871:5875   */\n      dup2\n        /* \"#utility.yul\":5745:5876   */\n      tag_175\n      jump\t// in\n    tag_195:\n        /* \"#utility.yul\":5737:5876   */\n      swap1\n      pop\n        /* \"#utility.yul\":5464:5883   */\n      swap2\n      swap1\n      pop\n      jump\t// out\n        /* \"#utility.yul\":5889:6111   */\n    tag_26:\n        /* \"#utility.yul\":5982:5986   */\n      0x00\n        /* \"#utility.yul\":6020:6022   */\n      0x20\n        /* \"#utility.yul\":6009:6018   */\n      dup3\n        /* \"#utility.yul\":6005:6023   */\n      add\n        /* \"#utility.yul\":5997:6023   */\n      swap1\n      pop\n        /* \"#utility.yul\":6033:6104   */\n      tag_197\n        /* \"#utility.yul\":6101:6102   */\n      0x00\n        /* \"#utility.yul\":6090:6099   */\n      dup4\n        /* \"#utility.yul\":6086:6103   */\n      add\n        /* \"#utility.yul\":6077:6083   */\n      dup5\n        /* \"#utility.yul\":6033:6104   */\n      tag_180\n      jump\t// in\n    tag_197:\n        /* \"#utility.yul\":5889:6111   */\n      swap3\n      swap2\n      pop\n      pop\n      jump\t// out\n        /* \"#utility.yul\":6117:6246   */\n    tag_111:\n        /* \"#utility.yul\":6151:6157   */\n      0x00\n        /* \"#utility.yul\":6178:6198   */\n      tag_199\n      tag_200\n      jump\t// in\n    tag_199:\n        /* \"#utility.yul\":6168:6198   */\n      swap1\n      pop\n        /* \"#utility.yul\":6207:6240   */\n      tag_201\n        /* \"#utility.yul\":6235:6239   */\n      dup3\n        /* \"#utility.yul\":6227:6233   */\n      dup3\n        /* \"#utility.yul\":6207:6240   */\n      tag_202\n      jump\t// in\n    tag_201:\n        /* \"#utility.yul\":6117:6246   */\n      swap2\n      swap1\n      pop\n      jump\t// out\n        /* \"#utility.yul\":6252:6327   */\n    tag_200:\n        /* \"#utility.yul\":6285:6291   */\n      0x00\n        /* \"#utility.yul\":6318:6320   */\n      0x40\n        /* \"#utility.yul\":6312:6321   */\n      mload\n        /* \"#utility.yul\":6302:6321   */\n      swap1\n      pop\n        /* \"#utility.yul\":6252:6327   */\n      swap1\n      jump\t// out\n        /* \"#utility.yul\":6333:6641   */\n    tag_110:\n        /* \"#utility.yul\":6395:6399   */\n      0x00\n        /* \"#utility.yul\":6485:6503   */\n      0xffffffffffffffff\n        /* \"#utility.yul\":6477:6483   */\n      dup3\n        /* \"#utility.yul\":6474:6504   */\n      gt\n        /* \"#utility.yul\":6471:6527   */\n      iszero\n      tag_205\n      jumpi\n        /* \"#utility.yul\":6507:6525   */\n      tag_206\n      tag_207\n      jump\t// in\n    tag_206:\n        /* \"#utility.yul\":6471:6527   */\n    tag_205:\n        /* \"#utility.yul\":6545:6574   */\n      tag_208\n        /* \"#utility.yul\":6567:6573   */\n      dup3\n        /* \"#utility.yul\":6545:6574   */\n      tag_169\n      jump\t// in\n    tag_208:\n        /* \"#utility.yul\":6537:6574   */\n      swap1\n      pop\n        /* \"#utility.yul\":6629:6633   */\n      0x20\n        /* \"#utility.yul\":6623:6627   */\n      dup2\n        /* \"#utility.yul\":6619:6634   */\n      add\n        /* \"#utility.yul\":6611:6634   */\n      swap1\n      pop\n        /* \"#utility.yul\":6333:6641   */\n      swap2\n      swap1\n      pop\n      jump\t// out\n        /* \"#utility.yul\":6647:6746   */\n    tag_163:\n        /* \"#utility.yul\":6699:6705   */\n      0x00\n        /* \"#utility.yul\":6733:6738   */\n      dup2\n        /* \"#utility.yul\":6727:6739   */\n      mload\n        /* \"#utility.yul\":6717:6739   */\n      swap1\n      pop\n        /* \"#utility.yul\":6647:6746   */\n      swap2\n      swap1\n      pop\n      jump\t// out\n        /* \"#utility.yul\":6752:6921   */\n    tag_165:\n        /* \"#utility.yul\":6836:6847   */\n      0x00\n        /* \"#utility.yul\":6870:6876   */\n      dup3\n        /* \"#utility.yul\":6865:6868   */\n      dup3\n        /* \"#utility.yul\":6858:6877   */\n      mstore\n        /* \"#utility.yul\":6910:6914   */\n      0x20\n        /* \"#utility.yul\":6905:6908   */\n      dup3\n        /* \"#utility.yul\":6901:6915   */\n      add\n        /* \"#utility.yul\":6886:6915   */\n      swap1\n      pop\n        /* \"#utility.yul\":6752:6921   */\n      swap3\n      swap2\n      pop\n      pop\n      jump\t// out\n        /* \"#utility.yul\":6927:7232   */\n    tag_89:\n        /* \"#utility.yul\":6967:6970   */\n      0x00\n        /* \"#utility.yul\":6986:7006   */\n      tag_212\n        /* \"#utility.yul\":7004:7005   */\n      dup3\n        /* \"#utility.yul\":6986:7006   */\n      tag_183\n      jump\t// in\n    tag_212:\n        /* \"#utility.yul\":6981:7006   */\n      swap2\n      pop\n        /* \"#utility.yul\":7020:7040   */\n      tag_213\n        /* \"#utility.yul\":7038:7039   */\n      dup4\n        /* \"#utility.yul\":7020:7040   */\n      tag_183\n      jump\t// in\n    tag_213:\n        /* \"#utility.yul\":7015:7040   */\n      swap3\n      pop\n        /* \"#utility.yul\":7174:7175   */\n      dup3\n        /* \"#utility.yul\":7106:7172   */\n      0xffffffffffffffffffffffffffffffffffffffffffffffffffffffffffffffff\n        /* \"#utility.yul\":7102:7176   */\n      sub\n        /* \"#utility.yul\":7099:7100   */\n      dup3\n        /* \"#utility.yul\":7096:7177   */\n      gt\n        /* \"#utility.yul\":7093:7200   */\n      iszero\n      tag_214\n      jumpi\n        /* \"#utility.yul\":7180:7198   */\n      tag_215\n      tag_216\n      jump\t// in\n    tag_215:\n        /* \"#utility.yul\":7093:7200   */\n    tag_214:\n        /* \"#utility.yul\":7224:7225   */\n      dup3\n        /* \"#utility.yul\":7221:7222   */\n      dup3\n        /* \"#utility.yul\":7217:7226   */\n      add\n        /* \"#utility.yul\":7210:7226   */\n      swap1\n      pop\n        /* \"#utility.yul\":6927:7232   */\n      swap3\n      swap2\n      pop\n      pop\n      jump\t// out\n        /* \"#utility.yul\":7238:7334   */\n    tag_155:\n        /* \"#utility.yul\":7275:7282   */\n      0x00\n        /* \"#utility.yul\":7304:7328   */\n      tag_218\n        /* \"#utility.yul\":7322:7327   */\n      dup3\n        /* \"#utility.yul\":7304:7328   */\n      tag_219\n      jump\t// in\n    tag_218:\n        /* \"#utility.yul\":7293:7328   */\n      swap1\n      pop\n        /* \"#utility.yul\":7238:7334   */\n      swap2\n      swap1\n      pop\n      jump\t// out\n        /* \"#utility.yul\":7340:7444   */\n    tag_151:\n        /* \"#utility.yul\":7385:7392   */\n      0x00\n        /* \"#utility.yul\":7414:7438   */\n      tag_221\n        /* \"#utility.yul\":7432:7437   */\n      dup3\n        /* \"#utility.yul\":7414:7438   */\n      tag_219\n      jump\t// in\n    tag_221:\n        /* \"#utility.yul\":7403:7438   */\n      swap1\n      pop\n        /* \"#utility.yul\":7340:7444   */\n      swap2\n      swap1\n      pop\n      jump\t// out\n        /* \"#utility.yul\":7450:7540   */\n    tag_159:\n        /* \"#utility.yul\":7484:7491   */\n      0x00\n        /* \"#utility.yul\":7527:7532   */\n      dup2\n        /* \"#utility.yul\":7520:7533   */\n      iszero\n        /* \"#utility.yul\":7513:7534   */\n      iszero\n        /* \"#utility.yul\":7502:7534   */\n      swap1\n      pop\n        /* \"#utility.yul\":7450:7540   */\n      swap2\n      swap1\n      pop\n      jump\t// out\n        /* \"#utility.yul\":7546:7672   */\n    tag_219:\n        /* \"#utility.yul\":7583:7590   */\n      0x00\n        /* \"#utility.yul\":7623:7665   */\n      0xffffffffffffffffffffffffffffffffffffffff\n        /* \"#utility.yul\":7616:7621   */\n      dup3\n        /* \"#utility.yul\":7612:7666   */\n      and\n        /* \"#utility.yul\":7601:7666   */\n      swap1\n      pop\n        /* \"#utility.yul\":7546:7672   */\n      swap2\n      swap1\n      pop\n      jump\t// out\n        /* \"#utility.yul\":7678:7755   */\n    tag_183:\n        /* \"#utility.yul\":7715:7722   */\n      0x00\n        /* \"#utility.yul\":7744:7749   */\n      dup2\n        /* \"#utility.yul\":7733:7749   */\n      swap1\n      pop\n        /* \"#utility.yul\":7678:7755   */\n      swap2\n      swap1\n      pop\n      jump\t// out\n        /* \"#utility.yul\":7761:7915   */\n    tag_116:\n        /* \"#utility.yul\":7845:7851   */\n      dup3\n        /* \"#utility.yul\":7840:7843   */\n      dup2\n        /* \"#utility.yul\":7835:7838   */\n      dup4\n        /* \"#utility.yul\":7822:7852   */\n      calldatacopy\n        /* \"#utility.yul\":7907:7908   */\n      0x00\n        /* \"#utility.yul\":7898:7904   */\n      dup4\n        /* \"#utility.yul\":7893:7896   */\n      dup4\n        /* \"#utility.yul\":7889:7905   */\n      add\n        /* \"#utility.yul\":7882:7909   */\n      mstore\n        /* \"#utility.yul\":7761:7915   */\n      pop\n      pop\n      pop\n      jump\t// out\n        /* \"#utility.yul\":7921:8228   */\n    tag_167:\n        /* \"#utility.yul\":7989:7990   */\n      0x00\n        /* \"#utility.yul\":7999:8112   */\n    tag_227:\n        /* \"#utility.yul\":8013:8019   */\n      dup4\n        /* \"#utility.yul\":8010:8011   */\n      dup2\n        /* \"#utility.yul\":8007:8020   */\n      lt\n        /* \"#utility.yul\":7999:8112   */\n      iszero\n      tag_229\n      jumpi\n        /* \"#utility.yul\":8098:8099   */\n      dup1\n        /* \"#utility.yul\":8093:8096   */\n      dup3\n        /* \"#utility.yul\":8089:8100   */\n      add\n        /* \"#utility.yul\":8083:8101   */\n      mload\n        /* \"#utility.yul\":8079:8080   */\n      dup2\n        /* \"#utility.yul\":8074:8077   */\n      dup5\n        /* \"#utility.yul\":8070:8081   */\n      add\n        /* \"#utility.yul\":8063:8102   */\n      mstore\n        /* \"#utility.yul\":8035:8037   */\n      0x20\n        /* \"#utility.yul\":8032:8033   */\n      dup2\n        /* \"#utility.yul\":8028:8038   */\n      add\n        /* \"#utility.yul\":8023:8038   */\n      swap1\n      pop\n        /* \"#utility.yul\":7999:8112   */\n      jump(tag_227)\n    tag_229:\n        /* \"#utility.yul\":8130:8136   */\n      dup4\n        /* \"#utility.yul\":8127:8128   */\n      dup2\n        /* \"#utility.yul\":8124:8137   */\n      gt\n        /* \"#utility.yul\":8121:8222   */\n      iszero\n      tag_230\n      jumpi\n        /* \"#utility.yul\":8210:8211   */\n      0x00\n        /* \"#utility.yul\":8201:8207   */\n      dup5\n        /* \"#utility.yul\":8196:8199   */\n      dup5\n        /* \"#utility.yul\":8192:8208   */\n      add\n        /* \"#utility.yul\":8185:8212   */\n      mstore\n        /* \"#utility.yul\":8121:8222   */\n    tag_230:\n        /* \"#utility.yul\":7970:8228   */\n      pop\n        /* \"#utility.yul\":7921:8228   */\n      pop\n      pop\n      pop\n      jump\t// out\n        /* \"#utility.yul\":8234:8554   */\n    tag_93:\n        /* \"#utility.yul\":8278:8284   */\n      0x00\n        /* \"#utility.yul\":8315:8316   */\n      0x02\n        /* \"#utility.yul\":8309:8313   */\n      dup3\n        /* \"#utility.yul\":8305:8317   */\n      div\n        /* \"#utility.yul\":8295:8317   */\n      swap1\n      pop\n        /* \"#utility.yul\":8362:8363   */\n      0x01\n        /* \"#utility.yul\":8356:8360   */\n      dup3\n        /* \"#utility.yul\":8352:8364   */\n      and\n        /* \"#utility.yul\":8383:8401   */\n      dup1\n        /* \"#utility.yul\":8373:8454   */\n      tag_232\n      jumpi\n        /* \"#utility.yul\":8439:8443   */\n      0x7f\n        /* \"#utility.yul\":8431:8437   */\n      dup3\n        /* \"#utility.yul\":8427:8444   */\n      and\n        /* \"#utility.yul\":8417:8444   */\n      swap2\n      pop\n        /* \"#utility.yul\":8373:8454   */\n    tag_232:\n        /* \"#utility.yul\":8501:8503   */\n      0x20\n        /* \"#utility.yul\":8493:8499   */\n      dup3\n        /* \"#utility.yul\":8490:8504   */\n      lt\n        /* \"#utility.yul\":8470:8488   */\n      dup2\n        /* \"#utility.yul\":8467:8505   */\n      eq\n        /* \"#utility.yul\":8464:8548   */\n      iszero\n      tag_233\n      jumpi\n        /* \"#utility.yul\":8520:8538   */\n      tag_234\n      tag_235\n      jump\t// in\n    tag_234:\n        /* \"#utility.yul\":8464:8548   */\n    tag_233:\n        /* \"#utility.yul\":8285:8554   */\n      pop\n        /* \"#utility.yul\":8234:8554   */\n      swap2\n      swap1\n      pop\n      jump\t// out\n        /* \"#utility.yul\":8560:8841   */\n    tag_202:\n        /* \"#utility.yul\":8643:8670   */\n      tag_237\n        /* \"#utility.yul\":8665:8669   */\n      dup3\n        /* \"#utility.yul\":8643:8670   */\n      tag_169\n      jump\t// in\n    tag_237:\n        /* \"#utility.yul\":8635:8641   */\n      dup2\n        /* \"#utility.yul\":8631:8671   */\n      add\n        /* \"#utility.yul\":8773:8779   */\n      dup2\n        /* \"#utility.yul\":8761:8771   */\n      dup2\n        /* \"#utility.yul\":8758:8780   */\n      lt\n        /* \"#utility.yul\":8737:8755   */\n      0xffffffffffffffff\n        /* \"#utility.yul\":8725:8735   */\n      dup3\n        /* \"#utility.yul\":8722:8756   */\n      gt\n        /* \"#utility.yul\":8719:8781   */\n      or\n        /* \"#utility.yul\":8716:8804   */\n      iszero\n      tag_238\n      jumpi\n        /* \"#utility.yul\":8784:8802   */\n      tag_239\n      tag_207\n      jump\t// in\n    tag_239:\n        /* \"#utility.yul\":8716:8804   */\n    tag_238:\n        /* \"#utility.yul\":8824:8834   */\n      dup1\n        /* \"#utility.yul\":8820:8822   */\n      0x40\n        /* \"#utility.yul\":8813:8835   */\n      mstore\n        /* \"#utility.yul\":8603:8841   */\n      pop\n        /* \"#utility.yul\":8560:8841   */\n      pop\n      pop\n      jump\t// out\n        /* \"#utility.yul\":8847:9080   */\n    tag_87:\n        /* \"#utility.yul\":8886:8889   */\n      0x00\n        /* \"#utility.yul\":8909:8933   */\n      tag_241\n        /* \"#utility.yul\":8927:8932   */\n      dup3\n        /* \"#utility.yul\":8909:8933   */\n      tag_183\n      jump\t// in\n    tag_241:\n        /* \"#utility.yul\":8900:8933   */\n      swap2\n      pop\n        /* \"#utility.yul\":8955:9021   */\n      0xffffffffffffffffffffffffffffffffffffffffffffffffffffffffffffffff\n        /* \"#utility.yul\":8948:8953   */\n      dup3\n        /* \"#utility.yul\":8945:9022   */\n      eq\n        /* \"#utility.yul\":8942:9045   */\n      iszero\n      tag_242\n      jumpi\n        /* \"#utility.yul\":9025:9043   */\n      tag_243\n      tag_216\n      jump\t// in\n    tag_243:\n        /* \"#utility.yul\":8942:9045   */\n    tag_242:\n        /* \"#utility.yul\":9072:9073   */\n      0x01\n        /* \"#utility.yul\":9065:9070   */\n      dup3\n        /* \"#utility.yul\":9061:9074   */\n      add\n        /* \"#utility.yul\":9054:9074   */\n      swap1\n      pop\n        /* \"#utility.yul\":8847:9080   */\n      swap2\n      swap1\n      pop\n      jump\t// out\n        /* \"#utility.yul\":9086:9266   */\n    tag_216:\n        /* \"#utility.yul\":9134:9211   */\n      0x4e487b7100000000000000000000000000000000000000000000000000000000\n        /* \"#utility.yul\":9131:9132   */\n      0x00\n        /* \"#utility.yul\":9124:9212   */\n      mstore\n        /* \"#utility.yul\":9231:9235   */\n      0x11\n        /* \"#utility.yul\":9228:9229   */\n      0x04\n        /* \"#utility.yul\":9221:9236   */\n      mstore\n        /* \"#utility.yul\":9255:9259   */\n      0x24\n        /* \"#utility.yul\":9252:9253   */\n      0x00\n        /* \"#utility.yul\":9245:9260   */\n      revert\n        /* \"#utility.yul\":9272:9452   */\n    tag_235:\n        /* \"#utility.yul\":9320:9397   */\n      0x4e487b7100000000000000000000000000000000000000000000000000000000\n        /* \"#utility.yul\":9317:9318   */\n      0x00\n        /* \"#utility.yul\":9310:9398   */\n      mstore\n        /* \"#utility.yul\":9417:9421   */\n      0x22\n        /* \"#utility.yul\":9414:9415   */\n      0x04\n        /* \"#utility.yul\":9407:9422   */\n      mstore\n        /* \"#utility.yul\":9441:9445   */\n      0x24\n        /* \"#utility.yul\":9438:9439   */\n      0x00\n        /* \"#utility.yul\":9431:9446   */\n      revert\n        /* \"#utility.yul\":9458:9638   */\n    tag_207:\n        /* \"#utility.yul\":9506:9583   */\n      0x4e487b7100000000000000000000000000000000000000000000000000000000\n        /* \"#utility.yul\":9503:9504   */\n      0x00\n        /* \"#utility.yul\":9496:9584   */\n      mstore\n        /* \"#utility.yul\":9603:9607   */\n      0x41\n        /* \"#utility.yul\":9600:9601   */\n      0x04\n        /* \"#utility.yul\":9593:9608   */\n      mstore\n        /* \"#utility.yul\":9627:9631   */\n      0x24\n        /* \"#utility.yul\":9624:9625   */\n      0x00\n        /* \"#utility.yul\":9617:9632   */\n      revert\n        /* \"#utility.yul\":9644:9761   */\n    tag_125:\n        /* \"#utility.yul\":9753:9754   */\n      0x00\n        /* \"#utility.yul\":9750:9751   */\n      dup1\n        /* \"#utility.yul\":9743:9755   */\n      revert\n        /* \"#utility.yul\":9767:9884   */\n    tag_114:\n        /* \"#utility.yul\":9876:9877   */\n      0x00\n        /* \"#utility.yul\":9873:9874   */\n      dup1\n        /* \"#utility.yul\":9866:9878   */\n      revert\n        /* \"#utility.yul\":9890:10007   */\n    tag_141:\n        /* \"#utility.yul\":9999:10000   */\n      0x00\n        /* \"#utility.yul\":9996:9997   */\n      dup1\n        /* \"#utility.yul\":9989:10001   */\n      revert\n        /* \"#utility.yul\":10013:10130   */\n    tag_134:\n        /* \"#utility.yul\":10122:10123   */\n      0x00\n        /* \"#utility.yul\":10119:10120   */\n      dup1\n        /* \"#utility.yul\":10112:10124   */\n      revert\n        /* \"#utility.yul\":10136:10238   */\n    tag_169:\n        /* \"#utility.yul\":10177:10183   */\n      0x00\n        /* \"#utility.yul\":10228:10230   */\n      0x1f\n        /* \"#utility.yul\":10224:10231   */\n      not\n        /* \"#utility.yul\":10219:10221   */\n      0x1f\n        /* \"#utility.yul\":10212:10217   */\n      dup4\n        /* \"#utility.yul\":10208:10222   */\n      add\n        /* \"#utility.yul\":10204:10232   */\n      and\n        /* \"#utility.yul\":10194:10232   */\n      swap1\n      pop\n        /* \"#utility.yul\":10136:10238   */\n      swap2\n      swap1\n      pop\n      jump\t// out\n        /* \"#utility.yul\":10244:10414   */\n    tag_174:\n        /* \"#utility.yul\":10384:10406   */\n      0x446561646c696e6520686173207061737365642e000000000000000000000000\n        /* \"#utility.yul\":10380:10381   */\n      0x00\n        /* \"#utility.yul\":10372:10378   */\n      dup3\n        /* \"#utility.yul\":10368:10382   */\n      add\n        /* \"#utility.yul\":10361:10407   */\n      mstore\n        /* \"#utility.yul\":10244:10414   */\n      pop\n      jump\t// out\n        /* \"#utility.yul\":10420:10599   */\n    tag_179:\n        /* \"#utility.yul\":10560:10591   */\n      0x4d696e696d756d20636f6e747269627574696f6e206e6f74206d65742e000000\n        /* \"#utility.yul\":10556:10557   */\n      0x00\n        /* \"#utility.yul\":10548:10554   */\n      dup3\n        /* \"#utility.yul\":10544:10558   */\n      add\n        /* \"#utility.yul\":10537:10592   */\n      mstore\n        /* \"#utility.yul\":10420:10599   */\n      pop\n      jump\t// out\n        /* \"#utility.yul\":10605:10727   */\n    tag_120:\n        /* \"#utility.yul\":10678:10702   */\n      tag_255\n        /* \"#utility.yul\":10696:10701   */\n      dup2\n        /* \"#utility.yul\":10678:10702   */\n      tag_155\n      jump\t// in\n    tag_255:\n        /* \"#utility.yul\":10671:10676   */\n      dup2\n        /* \"#utility.yul\":10668:10703   */\n      eq\n        /* \"#utility.yul\":10658:10721   */\n      tag_256\n      jumpi\n        /* \"#utility.yul\":10717:10718   */\n      0x00\n        /* \"#utility.yul\":10714:10715   */\n      dup1\n        /* \"#utility.yul\":10707:10719   */\n      revert\n        /* \"#utility.yul\":10658:10721   */\n    tag_256:\n        /* \"#utility.yul\":10605:10727   */\n      pop\n      jump\t// out\n        /* \"#utility.yul\":10733:10855   */\n    tag_130:\n        /* \"#utility.yul\":10806:10830   */\n      tag_258\n        /* \"#utility.yul\":10824:10829   */\n      dup2\n        /* \"#utility.yul\":10806:10830   */\n      tag_183\n      jump\t// in\n    tag_258:\n        /* \"#utility.yul\":10799:10804   */\n      dup2\n        /* \"#utility.yul\":10796:10831   */\n      eq\n        /* \"#utility.yul\":10786:10849   */\n      tag_259\n      jumpi\n        /* \"#utility.yul\":10845:10846   */\n      0x00\n        /* \"#utility.yul\":10842:10843   */\n      dup1\n        /* \"#utility.yul\":10835:10847   */\n      revert\n        /* \"#utility.yul\":10786:10849   */\n    tag_259:\n        /* \"#utility.yul\":10733:10855   */\n      pop\n      jump\t// out\n\n    auxdata: 0xa264697066735822122069aa1597bf9f438939b6b4f2377100ab3e2b374e2dadd9e65c58b2384fe4b11264736f6c63430008070033\n}\n",
				"bytecode": {
					"linkReferences": {},
					"object": "60806040523480156200001157600080fd5b5060405162000f0438038062000f048339818101604052810190620000379190620000ba565b8160058190555080426200004c919062000101565b600481905550606460038190555033600160006101000a81548173ffffffffffffffffffffffffffffffffffffffff021916908373ffffffffffffffffffffffffffffffffffffffff1602179055505050620001b6565b600081519050620000b4816200019c565b92915050565b60008060408385031215620000d457620000d362000197565b5b6000620000e485828601620000a3565b9250506020620000f785828601620000a3565b9150509250929050565b60006200010e826200015e565b91506200011b836200015e565b9250827fffffffffffffffffffffffffffffffffffffffffffffffffffffffffffffffff0382111562000153576200015262000168565b5b828201905092915050565b6000819050919050565b7f4e487b7100000000000000000000000000000000000000000000000000000000600052601160045260246000fd5b600080fd5b620001a7816200015e565b8114620001b357600080fd5b50565b610d3e80620001c66000396000f3fe6080604052600436106100c65760003560e01c8063aa6e90c01161007f578063d3a9d4ea11610059578063d3a9d4ea1461026f578063d7bb99ba1461029a578063f3740daf146102a4578063f851a440146102cf576100d5565b8063aa6e90c014610204578063b2d5ae441461022d578063c59ee1dc14610244576100d5565b806312065fe0146100da5780631f6d49421461010557806329dcb0cf14610142578063401938831461016d57806381d12c5814610198578063937e09b1146101d9576100d5565b366100d5576100d36102fa565b005b600080fd5b3480156100e657600080fd5b506100ef610453565b6040516100fc91906109ab565b60405180910390f35b34801561011157600080fd5b5061012c60048036038101906101279190610785565b61045b565b60405161013991906109ab565b60405180910390f35b34801561014e57600080fd5b50610157610473565b60405161016491906109ab565b60405180910390f35b34801561017957600080fd5b50610182610479565b60405161018f91906109ab565b60405180910390f35b3480156101a457600080fd5b506101bf60048036038101906101ba919061080e565b61047f565b6040516101d0959493929190610911565b60405180910390f35b3480156101e557600080fd5b506101ee61056a565b6040516101fb91906109ab565b60405180910390f35b34801561021057600080fd5b5061022b600480360381019061022691906107b2565b610570565b005b34801561023957600080fd5b50610242610574565b005b34801561025057600080fd5b506102596106b3565b60405161026691906109ab565b60405180910390f35b34801561027b57600080fd5b506102846106b9565b60405161029191906109ab565b60405180910390f35b6102a26102fa565b005b3480156102b057600080fd5b506102b96106bf565b6040516102c691906109ab565b60405180910390f35b3480156102db57600080fd5b506102e46106c5565b6040516102f191906108f6565b60405180910390f35b600454421061033e576040517f08c379a00000000000000000000000000000000000000000000000000000000081526004016103359061096b565b60405180910390fd5b600354341015610383576040517f08c379a000000000000000000000000000000000000000000000000000000000815260040161037a9061098b565b60405180910390fd5b60008060003373ffffffffffffffffffffffffffffffffffffffff1673ffffffffffffffffffffffffffffffffffffffff1681526020019081526020016000205414156103e357600260008154809291906103dd90610b8d565b91905055505b346000803373ffffffffffffffffffffffffffffffffffffffff1673ffffffffffffffffffffffffffffffffffffffff16815260200190815260200160002060008282546104319190610a38565b92505081905550346006600082825461044a9190610a38565b92505081905550565b600047905090565b60006020528060005260406000206000915090505481565b60045481565b60055481565b60076020528060005260406000206000915090508060000180546104a290610b2a565b80601f01602080910402602001604051908101604052809291908181526020018280546104ce90610b2a565b801561051b5780601f106104f05761010080835404028352916020019161051b565b820191906000526020600020905b8154815290600101906020018083116104fe57829003601f168201915b5050505050908060010160009054906101000a900473ffffffffffffffffffffffffffffffffffffffff16908060020154908060030160009054906101000a900460ff16908060040154905085565b60035481565b5050565b600454421180156105885750600554600654105b61059157600080fd5b60008060003373ffffffffffffffffffffffffffffffffffffffff1673ffffffffffffffffffffffffffffffffffffffff16815260200190815260200160002054116105dc57600080fd5b600033905060008060003373ffffffffffffffffffffffffffffffffffffffff1673ffffffffffffffffffffffffffffffffffffffff1681526020019081526020016000205490508173ffffffffffffffffffffffffffffffffffffffff166108fc829081150290604051600060405180830381858888f1935050505015801561066a573d6000803e3d6000fd5b5060008060003373ffffffffffffffffffffffffffffffffffffffff1673ffffffffffffffffffffffffffffffffffffffff168152602001908152602001600020819055505050565b60065481565b60085481565b60025481565b600160009054906101000a900473ffffffffffffffffffffffffffffffffffffffff1681565b60006106fe6106f9846109eb565b6109c6565b90508281526020810184848401111561071a57610719610c68565b5b610725848285610ae8565b509392505050565b60008135905061073c81610cda565b92915050565b600082601f83011261075757610756610c63565b5b81356107678482602086016106eb565b91505092915050565b60008135905061077f81610cf1565b92915050565b60006020828403121561079b5761079a610c72565b5b60006107a98482850161072d565b91505092915050565b600080604083850312156107c9576107c8610c72565b5b600083013567ffffffffffffffff8111156107e7576107e6610c6d565b5b6107f385828601610742565b925050602061080485828601610770565b9150509250929050565b60006020828403121561082457610823610c72565b5b600061083284828501610770565b91505092915050565b61084481610aa0565b82525050565b61085381610a8e565b82525050565b61086281610ab2565b82525050565b600061087382610a1c565b61087d8185610a27565b935061088d818560208601610af7565b61089681610c77565b840191505092915050565b60006108ae601483610a27565b91506108b982610c88565b602082019050919050565b60006108d1601d83610a27565b91506108dc82610cb1565b602082019050919050565b6108f081610ade565b82525050565b600060208201905061090b600083018461084a565b92915050565b600060a082019050818103600083015261092b8188610868565b905061093a602083018761083b565b61094760408301866108e7565b6109546060830185610859565b61096160808301846108e7565b9695505050505050565b60006020820190508181036000830152610984816108a1565b9050919050565b600060208201905081810360008301526109a4816108c4565b9050919050565b60006020820190506109c060008301846108e7565b92915050565b60006109d06109e1565b90506109dc8282610b5c565b919050565b6000604051905090565b600067ffffffffffffffff821115610a0657610a05610c34565b5b610a0f82610c77565b9050602081019050919050565b600081519050919050565b600082825260208201905092915050565b6000610a4382610ade565b9150610a4e83610ade565b9250827fffffffffffffffffffffffffffffffffffffffffffffffffffffffffffffffff03821115610a8357610a82610bd6565b5b828201905092915050565b6000610a9982610abe565b9050919050565b6000610aab82610abe565b9050919050565b60008115159050919050565b600073ffffffffffffffffffffffffffffffffffffffff82169050919050565b6000819050919050565b82818337600083830152505050565b60005b83811015610b15578082015181840152602081019050610afa565b83811115610b24576000848401525b50505050565b60006002820490506001821680610b4257607f821691505b60208210811415610b5657610b55610c05565b5b50919050565b610b6582610c77565b810181811067ffffffffffffffff82111715610b8457610b83610c34565b5b80604052505050565b6000610b9882610ade565b91507fffffffffffffffffffffffffffffffffffffffffffffffffffffffffffffffff821415610bcb57610bca610bd6565b5b600182019050919050565b7f4e487b7100000000000000000000000000000000000000000000000000000000600052601160045260246000fd5b7f4e487b7100000000000000000000000000000000000000000000000000000000600052602260045260246000fd5b7f4e487b7100000000000000000000000000000000000000000000000000000000600052604160045260246000fd5b600080fd5b600080fd5b600080fd5b600080fd5b6000601f19601f8301169050919050565b7f446561646c696e6520686173207061737365642e000000000000000000000000600082015250565b7f4d696e696d756d20636f6e747269627574696f6e206e6f74206d65742e000000600082015250565b610ce381610a8e565b8114610cee57600080fd5b50565b610cfa81610ade565b8114610d0557600080fd5b5056fea264697066735822122069aa1597bf9f438939b6b4f2377100ab3e2b374e2dadd9e65c58b2384fe4b11264736f6c63430008070033",
					"opcodes": "PUSH1 0x80 PUSH1 0x40 MSTORE CALLVALUE DUP1 ISZERO PUSH3 0x11 JUMPI PUSH1 0x0 DUP1 REVERT JUMPDEST POP PUSH1 0x40 MLOAD PUSH3 0xF04 CODESIZE SUB DUP1 PUSH3 0xF04 DUP4 CODECOPY DUP2 DUP2 ADD PUSH1 0x40 MSTORE DUP2 ADD SWAP1 PUSH3 0x37 SWAP2 SWAP1 PUSH3 0xBA JUMP JUMPDEST DUP2 PUSH1 0x5 DUP2 SWAP1 SSTORE POP DUP1 TIMESTAMP PUSH3 0x4C SWAP2 SWAP1 PUSH3 0x101 JUMP JUMPDEST PUSH1 0x4 DUP2 SWAP1 SSTORE POP PUSH1 0x64 PUSH1 0x3 DUP2 SWAP1 SSTORE POP CALLER PUSH1 0x1 PUSH1 0x0 PUSH2 0x100 EXP DUP2 SLOAD DUP2 PUSH20 0xFFFFFFFFFFFFFFFFFFFFFFFFFFFFFFFFFFFFFFFF MUL NOT AND SWAP1 DUP4 PUSH20 0xFFFFFFFFFFFFFFFFFFFFFFFFFFFFFFFFFFFFFFFF AND MUL OR SWAP1 SSTORE POP POP POP PUSH3 0x1B6 JUMP JUMPDEST PUSH1 0x0 DUP2 MLOAD SWAP1 POP PUSH3 0xB4 DUP2 PUSH3 0x19C JUMP JUMPDEST SWAP3 SWAP2 POP POP JUMP JUMPDEST PUSH1 0x0 DUP1 PUSH1 0x40 DUP4 DUP6 SUB SLT ISZERO PUSH3 0xD4 JUMPI PUSH3 0xD3 PUSH3 0x197 JUMP JUMPDEST JUMPDEST PUSH1 0x0 PUSH3 0xE4 DUP6 DUP3 DUP7 ADD PUSH3 0xA3 JUMP JUMPDEST SWAP3 POP POP PUSH1 0x20 PUSH3 0xF7 DUP6 DUP3 DUP7 ADD PUSH3 0xA3 JUMP JUMPDEST SWAP2 POP POP SWAP3 POP SWAP3 SWAP1 POP JUMP JUMPDEST PUSH1 0x0 PUSH3 0x10E DUP3 PUSH3 0x15E JUMP JUMPDEST SWAP2 POP PUSH3 0x11B DUP4 PUSH3 0x15E JUMP JUMPDEST SWAP3 POP DUP3 PUSH32 0xFFFFFFFFFFFFFFFFFFFFFFFFFFFFFFFFFFFFFFFFFFFFFFFFFFFFFFFFFFFFFFFF SUB DUP3 GT ISZERO PUSH3 0x153 JUMPI PUSH3 0x152 PUSH3 0x168 JUMP JUMPDEST JUMPDEST DUP3 DUP3 ADD SWAP1 POP SWAP3 SWAP2 POP POP JUMP JUMPDEST PUSH1 0x0 DUP2 SWAP1 POP SWAP2 SWAP1 POP JUMP JUMPDEST PUSH32 0x4E487B7100000000000000000000000000000000000000000000000000000000 PUSH1 0x0 MSTORE PUSH1 0x11 PUSH1 0x4 MSTORE PUSH1 0x24 PUSH1 0x0 REVERT JUMPDEST PUSH1 0x0 DUP1 REVERT JUMPDEST PUSH3 0x1A7 DUP2 PUSH3 0x15E JUMP JUMPDEST DUP2 EQ PUSH3 0x1B3 JUMPI PUSH1 0x0 DUP1 REVERT JUMPDEST POP JUMP JUMPDEST PUSH2 0xD3E DUP1 PUSH3 0x1C6 PUSH1 0x0 CODECOPY PUSH1 0x0 RETURN INVALID PUSH1 0x80 PUSH1 0x40 MSTORE PUSH1 0x4 CALLDATASIZE LT PUSH2 0xC6 JUMPI PUSH1 0x0 CALLDATALOAD PUSH1 0xE0 SHR DUP1 PUSH4 0xAA6E90C0 GT PUSH2 0x7F JUMPI DUP1 PUSH4 0xD3A9D4EA GT PUSH2 0x59 JUMPI DUP1 PUSH4 0xD3A9D4EA EQ PUSH2 0x26F JUMPI DUP1 PUSH4 0xD7BB99BA EQ PUSH2 0x29A JUMPI DUP1 PUSH4 0xF3740DAF EQ PUSH2 0x2A4 JUMPI DUP1 PUSH4 0xF851A440 EQ PUSH2 0x2CF JUMPI PUSH2 0xD5 JUMP JUMPDEST DUP1 PUSH4 0xAA6E90C0 EQ PUSH2 0x204 JUMPI DUP1 PUSH4 0xB2D5AE44 EQ PUSH2 0x22D JUMPI DUP1 PUSH4 0xC59EE1DC EQ PUSH2 0x244 JUMPI PUSH2 0xD5 JUMP JUMPDEST DUP1 PUSH4 0x12065FE0 EQ PUSH2 0xDA JUMPI DUP1 PUSH4 0x1F6D4942 EQ PUSH2 0x105 JUMPI DUP1 PUSH4 0x29DCB0CF EQ PUSH2 0x142 JUMPI DUP1 PUSH4 0x40193883 EQ PUSH2 0x16D JUMPI DUP1 PUSH4 0x81D12C58 EQ PUSH2 0x198 JUMPI DUP1 PUSH4 0x937E09B1 EQ PUSH2 0x1D9 JUMPI PUSH2 0xD5 JUMP JUMPDEST CALLDATASIZE PUSH2 0xD5 JUMPI PUSH2 0xD3 PUSH2 0x2FA JUMP JUMPDEST STOP JUMPDEST PUSH1 0x0 DUP1 REVERT JUMPDEST CALLVALUE DUP1 ISZERO PUSH2 0xE6 JUMPI PUSH1 0x0 DUP1 REVERT JUMPDEST POP PUSH2 0xEF PUSH2 0x453 JUMP JUMPDEST PUSH1 0x40 MLOAD PUSH2 0xFC SWAP2 SWAP1 PUSH2 0x9AB JUMP JUMPDEST PUSH1 0x40 MLOAD DUP1 SWAP2 SUB SWAP1 RETURN JUMPDEST CALLVALUE DUP1 ISZERO PUSH2 0x111 JUMPI PUSH1 0x0 DUP1 REVERT JUMPDEST POP PUSH2 0x12C PUSH1 0x4 DUP1 CALLDATASIZE SUB DUP2 ADD SWAP1 PUSH2 0x127 SWAP2 SWAP1 PUSH2 0x785 JUMP JUMPDEST PUSH2 0x45B JUMP JUMPDEST PUSH1 0x40 MLOAD PUSH2 0x139 SWAP2 SWAP1 PUSH2 0x9AB JUMP JUMPDEST PUSH1 0x40 MLOAD DUP1 SWAP2 SUB SWAP1 RETURN JUMPDEST CALLVALUE DUP1 ISZERO PUSH2 0x14E JUMPI PUSH1 0x0 DUP1 REVERT JUMPDEST POP PUSH2 0x157 PUSH2 0x473 JUMP JUMPDEST PUSH1 0x40 MLOAD PUSH2 0x164 SWAP2 SWAP1 PUSH2 0x9AB JUMP JUMPDEST PUSH1 0x40 MLOAD DUP1 SWAP2 SUB SWAP1 RETURN JUMPDEST CALLVALUE DUP1 ISZERO PUSH2 0x179 JUMPI PUSH1 0x0 DUP1 REVERT JUMPDEST POP PUSH2 0x182 PUSH2 0x479 JUMP JUMPDEST PUSH1 0x40 MLOAD PUSH2 0x18F SWAP2 SWAP1 PUSH2 0x9AB JUMP JUMPDEST PUSH1 0x40 MLOAD DUP1 SWAP2 SUB SWAP1 RETURN JUMPDEST CALLVALUE DUP1 ISZERO PUSH2 0x1A4 JUMPI PUSH1 0x0 DUP1 REVERT JUMPDEST POP PUSH2 0x1BF PUSH1 0x4 DUP1 CALLDATASIZE SUB DUP2 ADD SWAP1 PUSH2 0x1BA SWAP2 SWAP1 PUSH2 0x80E JUMP JUMPDEST PUSH2 0x47F JUMP JUMPDEST PUSH1 0x40 MLOAD PUSH2 0x1D0 SWAP6 SWAP5 SWAP4 SWAP3 SWAP2 SWAP1 PUSH2 0x911 JUMP JUMPDEST PUSH1 0x40 MLOAD DUP1 SWAP2 SUB SWAP1 RETURN JUMPDEST CALLVALUE DUP1 ISZERO PUSH2 0x1E5 JUMPI PUSH1 0x0 DUP1 REVERT JUMPDEST POP PUSH2 0x1EE PUSH2 0x56A JUMP JUMPDEST PUSH1 0x40 MLOAD PUSH2 0x1FB SWAP2 SWAP1 PUSH2 0x9AB JUMP JUMPDEST PUSH1 0x40 MLOAD DUP1 SWAP2 SUB SWAP1 RETURN JUMPDEST CALLVALUE DUP1 ISZERO PUSH2 0x210 JUMPI PUSH1 0x0 DUP1 REVERT JUMPDEST POP PUSH2 0x22B PUSH1 0x4 DUP1 CALLDATASIZE SUB DUP2 ADD SWAP1 PUSH2 0x226 SWAP2 SWAP1 PUSH2 0x7B2 JUMP JUMPDEST PUSH2 0x570 JUMP JUMPDEST STOP JUMPDEST CALLVALUE DUP1 ISZERO PUSH2 0x239 JUMPI PUSH1 0x0 DUP1 REVERT JUMPDEST POP PUSH2 0x242 PUSH2 0x574 JUMP JUMPDEST STOP JUMPDEST CALLVALUE DUP1 ISZERO PUSH2 0x250 JUMPI PUSH1 0x0 DUP1 REVERT JUMPDEST POP PUSH2 0x259 PUSH2 0x6B3 JUMP JUMPDEST PUSH1 0x40 MLOAD PUSH2 0x266 SWAP2 SWAP1 PUSH2 0x9AB JUMP JUMPDEST PUSH1 0x40 MLOAD DUP1 SWAP2 SUB SWAP1 RETURN JUMPDEST CALLVALUE DUP1 ISZERO PUSH2 0x27B JUMPI PUSH1 0x0 DUP1 REVERT JUMPDEST POP PUSH2 0x284 PUSH2 0x6B9 JUMP JUMPDEST PUSH1 0x40 MLOAD PUSH2 0x291 SWAP2 SWAP1 PUSH2 0x9AB JUMP JUMPDEST PUSH1 0x40 MLOAD DUP1 SWAP2 SUB SWAP1 RETURN JUMPDEST PUSH2 0x2A2 PUSH2 0x2FA JUMP JUMPDEST STOP JUMPDEST CALLVALUE DUP1 ISZERO PUSH2 0x2B0 JUMPI PUSH1 0x0 DUP1 REVERT JUMPDEST POP PUSH2 0x2B9 PUSH2 0x6BF JUMP JUMPDEST PUSH1 0x40 MLOAD PUSH2 0x2C6 SWAP2 SWAP1 PUSH2 0x9AB JUMP JUMPDEST PUSH1 0x40 MLOAD DUP1 SWAP2 SUB SWAP1 RETURN JUMPDEST CALLVALUE DUP1 ISZERO PUSH2 0x2DB JUMPI PUSH1 0x0 DUP1 REVERT JUMPDEST POP PUSH2 0x2E4 PUSH2 0x6C5 JUMP JUMPDEST PUSH1 0x40 MLOAD PUSH2 0x2F1 SWAP2 SWAP1 PUSH2 0x8F6 JUMP JUMPDEST PUSH1 0x40 MLOAD DUP1 SWAP2 SUB SWAP1 RETURN JUMPDEST PUSH1 0x4 SLOAD TIMESTAMP LT PUSH2 0x33E JUMPI PUSH1 0x40 MLOAD PUSH32 0x8C379A000000000000000000000000000000000000000000000000000000000 DUP2 MSTORE PUSH1 0x4 ADD PUSH2 0x335 SWAP1 PUSH2 0x96B JUMP JUMPDEST PUSH1 0x40 MLOAD DUP1 SWAP2 SUB SWAP1 REVERT JUMPDEST PUSH1 0x3 SLOAD CALLVALUE LT ISZERO PUSH2 0x383 JUMPI PUSH1 0x40 MLOAD PUSH32 0x8C379A000000000000000000000000000000000000000000000000000000000 DUP2 MSTORE PUSH1 0x4 ADD PUSH2 0x37A SWAP1 PUSH2 0x98B JUMP JUMPDEST PUSH1 0x40 MLOAD DUP1 SWAP2 SUB SWAP1 REVERT JUMPDEST PUSH1 0x0 DUP1 PUSH1 0x0 CALLER PUSH20 0xFFFFFFFFFFFFFFFFFFFFFFFFFFFFFFFFFFFFFFFF AND PUSH20 0xFFFFFFFFFFFFFFFFFFFFFFFFFFFFFFFFFFFFFFFF AND DUP2 MSTORE PUSH1 0x20 ADD SWAP1 DUP2 MSTORE PUSH1 0x20 ADD PUSH1 0x0 KECCAK256 SLOAD EQ ISZERO PUSH2 0x3E3 JUMPI PUSH1 0x2 PUSH1 0x0 DUP2 SLOAD DUP1 SWAP3 SWAP2 SWAP1 PUSH2 0x3DD SWAP1 PUSH2 0xB8D JUMP JUMPDEST SWAP2 SWAP1 POP SSTORE POP JUMPDEST CALLVALUE PUSH1 0x0 DUP1 CALLER PUSH20 0xFFFFFFFFFFFFFFFFFFFFFFFFFFFFFFFFFFFFFFFF AND PUSH20 0xFFFFFFFFFFFFFFFFFFFFFFFFFFFFFFFFFFFFFFFF AND DUP2 MSTORE PUSH1 0x20 ADD SWAP1 DUP2 MSTORE PUSH1 0x20 ADD PUSH1 0x0 KECCAK256 PUSH1 0x0 DUP3 DUP3 SLOAD PUSH2 0x431 SWAP2 SWAP1 PUSH2 0xA38 JUMP JUMPDEST SWAP3 POP POP DUP2 SWAP1 SSTORE POP CALLVALUE PUSH1 0x6 PUSH1 0x0 DUP3 DUP3 SLOAD PUSH2 0x44A SWAP2 SWAP1 PUSH2 0xA38 JUMP JUMPDEST SWAP3 POP POP DUP2 SWAP1 SSTORE POP JUMP JUMPDEST PUSH1 0x0 SELFBALANCE SWAP1 POP SWAP1 JUMP JUMPDEST PUSH1 0x0 PUSH1 0x20 MSTORE DUP1 PUSH1 0x0 MSTORE PUSH1 0x40 PUSH1 0x0 KECCAK256 PUSH1 0x0 SWAP2 POP SWAP1 POP SLOAD DUP2 JUMP JUMPDEST PUSH1 0x4 SLOAD DUP2 JUMP JUMPDEST PUSH1 0x5 SLOAD DUP2 JUMP JUMPDEST PUSH1 0x7 PUSH1 0x20 MSTORE DUP1 PUSH1 0x0 MSTORE PUSH1 0x40 PUSH1 0x0 KECCAK256 PUSH1 0x0 SWAP2 POP SWAP1 POP DUP1 PUSH1 0x0 ADD DUP1 SLOAD PUSH2 0x4A2 SWAP1 PUSH2 0xB2A JUMP JUMPDEST DUP1 PUSH1 0x1F ADD PUSH1 0x20 DUP1 SWAP2 DIV MUL PUSH1 0x20 ADD PUSH1 0x40 MLOAD SWAP1 DUP2 ADD PUSH1 0x40 MSTORE DUP1 SWAP3 SWAP2 SWAP1 DUP2 DUP2 MSTORE PUSH1 0x20 ADD DUP3 DUP1 SLOAD PUSH2 0x4CE SWAP1 PUSH2 0xB2A JUMP JUMPDEST DUP1 ISZERO PUSH2 0x51B JUMPI DUP1 PUSH1 0x1F LT PUSH2 0x4F0 JUMPI PUSH2 0x100 DUP1 DUP4 SLOAD DIV MUL DUP4 MSTORE SWAP2 PUSH1 0x20 ADD SWAP2 PUSH2 0x51B JUMP JUMPDEST DUP3 ADD SWAP2 SWAP1 PUSH1 0x0 MSTORE PUSH1 0x20 PUSH1 0x0 KECCAK256 SWAP1 JUMPDEST DUP2 SLOAD DUP2 MSTORE SWAP1 PUSH1 0x1 ADD SWAP1 PUSH1 0x20 ADD DUP1 DUP4 GT PUSH2 0x4FE JUMPI DUP3 SWAP1 SUB PUSH1 0x1F AND DUP3 ADD SWAP2 JUMPDEST POP POP POP POP POP SWAP1 DUP1 PUSH1 0x1 ADD PUSH1 0x0 SWAP1 SLOAD SWAP1 PUSH2 0x100 EXP SWAP1 DIV PUSH20 0xFFFFFFFFFFFFFFFFFFFFFFFFFFFFFFFFFFFFFFFF AND SWAP1 DUP1 PUSH1 0x2 ADD SLOAD SWAP1 DUP1 PUSH1 0x3 ADD PUSH1 0x0 SWAP1 SLOAD SWAP1 PUSH2 0x100 EXP SWAP1 DIV PUSH1 0xFF AND SWAP1 DUP1 PUSH1 0x4 ADD SLOAD SWAP1 POP DUP6 JUMP JUMPDEST PUSH1 0x3 SLOAD DUP2 JUMP JUMPDEST POP POP JUMP JUMPDEST PUSH1 0x4 SLOAD TIMESTAMP GT DUP1 ISZERO PUSH2 0x588 JUMPI POP PUSH1 0x5 SLOAD PUSH1 0x6 SLOAD LT JUMPDEST PUSH2 0x591 JUMPI PUSH1 0x0 DUP1 REVERT JUMPDEST PUSH1 0x0 DUP1 PUSH1 0x0 CALLER PUSH20 0xFFFFFFFFFFFFFFFFFFFFFFFFFFFFFFFFFFFFFFFF AND PUSH20 0xFFFFFFFFFFFFFFFFFFFFFFFFFFFFFFFFFFFFFFFF AND DUP2 MSTORE PUSH1 0x20 ADD SWAP1 DUP2 MSTORE PUSH1 0x20 ADD PUSH1 0x0 KECCAK256 SLOAD GT PUSH2 0x5DC JUMPI PUSH1 0x0 DUP1 REVERT JUMPDEST PUSH1 0x0 CALLER SWAP1 POP PUSH1 0x0 DUP1 PUSH1 0x0 CALLER PUSH20 0xFFFFFFFFFFFFFFFFFFFFFFFFFFFFFFFFFFFFFFFF AND PUSH20 0xFFFFFFFFFFFFFFFFFFFFFFFFFFFFFFFFFFFFFFFF AND DUP2 MSTORE PUSH1 0x20 ADD SWAP1 DUP2 MSTORE PUSH1 0x20 ADD PUSH1 0x0 KECCAK256 SLOAD SWAP1 POP DUP2 PUSH20 0xFFFFFFFFFFFFFFFFFFFFFFFFFFFFFFFFFFFFFFFF AND PUSH2 0x8FC DUP3 SWAP1 DUP2 ISZERO MUL SWAP1 PUSH1 0x40 MLOAD PUSH1 0x0 PUSH1 0x40 MLOAD DUP1 DUP4 SUB DUP2 DUP6 DUP9 DUP9 CALL SWAP4 POP POP POP POP ISZERO DUP1 ISZERO PUSH2 0x66A JUMPI RETURNDATASIZE PUSH1 0x0 DUP1 RETURNDATACOPY RETURNDATASIZE PUSH1 0x0 REVERT JUMPDEST POP PUSH1 0x0 DUP1 PUSH1 0x0 CALLER PUSH20 0xFFFFFFFFFFFFFFFFFFFFFFFFFFFFFFFFFFFFFFFF AND PUSH20 0xFFFFFFFFFFFFFFFFFFFFFFFFFFFFFFFFFFFFFFFF AND DUP2 MSTORE PUSH1 0x20 ADD SWAP1 DUP2 MSTORE PUSH1 0x20 ADD PUSH1 0x0 KECCAK256 DUP2 SWAP1 SSTORE POP POP POP JUMP JUMPDEST PUSH1 0x6 SLOAD DUP2 JUMP JUMPDEST PUSH1 0x8 SLOAD DUP2 JUMP JUMPDEST PUSH1 0x2 SLOAD DUP2 JUMP JUMPDEST PUSH1 0x1 PUSH1 0x0 SWAP1 SLOAD SWAP1 PUSH2 0x100 EXP SWAP1 DIV PUSH20 0xFFFFFFFFFFFFFFFFFFFFFFFFFFFFFFFFFFFFFFFF AND DUP2 JUMP JUMPDEST PUSH1 0x0 PUSH2 0x6FE PUSH2 0x6F9 DUP5 PUSH2 0x9EB JUMP JUMPDEST PUSH2 0x9C6 JUMP JUMPDEST SWAP1 POP DUP3 DUP2 MSTORE PUSH1 0x20 DUP2 ADD DUP5 DUP5 DUP5 ADD GT ISZERO PUSH2 0x71A JUMPI PUSH2 0x719 PUSH2 0xC68 JUMP JUMPDEST JUMPDEST PUSH2 0x725 DUP5 DUP3 DUP6 PUSH2 0xAE8 JUMP JUMPDEST POP SWAP4 SWAP3 POP POP POP JUMP JUMPDEST PUSH1 0x0 DUP2 CALLDATALOAD SWAP1 POP PUSH2 0x73C DUP2 PUSH2 0xCDA JUMP JUMPDEST SWAP3 SWAP2 POP POP JUMP JUMPDEST PUSH1 0x0 DUP3 PUSH1 0x1F DUP4 ADD SLT PUSH2 0x757 JUMPI PUSH2 0x756 PUSH2 0xC63 JUMP JUMPDEST JUMPDEST DUP2 CALLDATALOAD PUSH2 0x767 DUP5 DUP3 PUSH1 0x20 DUP7 ADD PUSH2 0x6EB JUMP JUMPDEST SWAP2 POP POP SWAP3 SWAP2 POP POP JUMP JUMPDEST PUSH1 0x0 DUP2 CALLDATALOAD SWAP1 POP PUSH2 0x77F DUP2 PUSH2 0xCF1 JUMP JUMPDEST SWAP3 SWAP2 POP POP JUMP JUMPDEST PUSH1 0x0 PUSH1 0x20 DUP3 DUP5 SUB SLT ISZERO PUSH2 0x79B JUMPI PUSH2 0x79A PUSH2 0xC72 JUMP JUMPDEST JUMPDEST PUSH1 0x0 PUSH2 0x7A9 DUP5 DUP3 DUP6 ADD PUSH2 0x72D JUMP JUMPDEST SWAP2 POP POP SWAP3 SWAP2 POP POP JUMP JUMPDEST PUSH1 0x0 DUP1 PUSH1 0x40 DUP4 DUP6 SUB SLT ISZERO PUSH2 0x7C9 JUMPI PUSH2 0x7C8 PUSH2 0xC72 JUMP JUMPDEST JUMPDEST PUSH1 0x0 DUP4 ADD CALLDATALOAD PUSH8 0xFFFFFFFFFFFFFFFF DUP2 GT ISZERO PUSH2 0x7E7 JUMPI PUSH2 0x7E6 PUSH2 0xC6D JUMP JUMPDEST JUMPDEST PUSH2 0x7F3 DUP6 DUP3 DUP7 ADD PUSH2 0x742 JUMP JUMPDEST SWAP3 POP POP PUSH1 0x20 PUSH2 0x804 DUP6 DUP3 DUP7 ADD PUSH2 0x770 JUMP JUMPDEST SWAP2 POP POP SWAP3 POP SWAP3 SWAP1 POP JUMP JUMPDEST PUSH1 0x0 PUSH1 0x20 DUP3 DUP5 SUB SLT ISZERO PUSH2 0x824 JUMPI PUSH2 0x823 PUSH2 0xC72 JUMP JUMPDEST JUMPDEST PUSH1 0x0 PUSH2 0x832 DUP5 DUP3 DUP6 ADD PUSH2 0x770 JUMP JUMPDEST SWAP2 POP POP SWAP3 SWAP2 POP POP JUMP JUMPDEST PUSH2 0x844 DUP2 PUSH2 0xAA0 JUMP JUMPDEST DUP3 MSTORE POP POP JUMP JUMPDEST PUSH2 0x853 DUP2 PUSH2 0xA8E JUMP JUMPDEST DUP3 MSTORE POP POP JUMP JUMPDEST PUSH2 0x862 DUP2 PUSH2 0xAB2 JUMP JUMPDEST DUP3 MSTORE POP POP JUMP JUMPDEST PUSH1 0x0 PUSH2 0x873 DUP3 PUSH2 0xA1C JUMP JUMPDEST PUSH2 0x87D DUP2 DUP6 PUSH2 0xA27 JUMP JUMPDEST SWAP4 POP PUSH2 0x88D DUP2 DUP6 PUSH1 0x20 DUP7 ADD PUSH2 0xAF7 JUMP JUMPDEST PUSH2 0x896 DUP2 PUSH2 0xC77 JUMP JUMPDEST DUP5 ADD SWAP2 POP POP SWAP3 SWAP2 POP POP JUMP JUMPDEST PUSH1 0x0 PUSH2 0x8AE PUSH1 0x14 DUP4 PUSH2 0xA27 JUMP JUMPDEST SWAP2 POP PUSH2 0x8B9 DUP3 PUSH2 0xC88 JUMP JUMPDEST PUSH1 0x20 DUP3 ADD SWAP1 POP SWAP2 SWAP1 POP JUMP JUMPDEST PUSH1 0x0 PUSH2 0x8D1 PUSH1 0x1D DUP4 PUSH2 0xA27 JUMP JUMPDEST SWAP2 POP PUSH2 0x8DC DUP3 PUSH2 0xCB1 JUMP JUMPDEST PUSH1 0x20 DUP3 ADD SWAP1 POP SWAP2 SWAP1 POP JUMP JUMPDEST PUSH2 0x8F0 DUP2 PUSH2 0xADE JUMP JUMPDEST DUP3 MSTORE POP POP JUMP JUMPDEST PUSH1 0x0 PUSH1 0x20 DUP3 ADD SWAP1 POP PUSH2 0x90B PUSH1 0x0 DUP4 ADD DUP5 PUSH2 0x84A JUMP JUMPDEST SWAP3 SWAP2 POP POP JUMP JUMPDEST PUSH1 0x0 PUSH1 0xA0 DUP3 ADD SWAP1 POP DUP2 DUP2 SUB PUSH1 0x0 DUP4 ADD MSTORE PUSH2 0x92B DUP2 DUP9 PUSH2 0x868 JUMP JUMPDEST SWAP1 POP PUSH2 0x93A PUSH1 0x20 DUP4 ADD DUP8 PUSH2 0x83B JUMP JUMPDEST PUSH2 0x947 PUSH1 0x40 DUP4 ADD DUP7 PUSH2 0x8E7 JUMP JUMPDEST PUSH2 0x954 PUSH1 0x60 DUP4 ADD DUP6 PUSH2 0x859 JUMP JUMPDEST PUSH2 0x961 PUSH1 0x80 DUP4 ADD DUP5 PUSH2 0x8E7 JUMP JUMPDEST SWAP7 SWAP6 POP POP POP POP POP POP JUMP JUMPDEST PUSH1 0x0 PUSH1 0x20 DUP3 ADD SWAP1 POP DUP2 DUP2 SUB PUSH1 0x0 DUP4 ADD MSTORE PUSH2 0x984 DUP2 PUSH2 0x8A1 JUMP JUMPDEST SWAP1 POP SWAP2 SWAP1 POP JUMP JUMPDEST PUSH1 0x0 PUSH1 0x20 DUP3 ADD SWAP1 POP DUP2 DUP2 SUB PUSH1 0x0 DUP4 ADD MSTORE PUSH2 0x9A4 DUP2 PUSH2 0x8C4 JUMP JUMPDEST SWAP1 POP SWAP2 SWAP1 POP JUMP JUMPDEST PUSH1 0x0 PUSH1 0x20 DUP3 ADD SWAP1 POP PUSH2 0x9C0 PUSH1 0x0 DUP4 ADD DUP5 PUSH2 0x8E7 JUMP JUMPDEST SWAP3 SWAP2 POP POP JUMP JUMPDEST PUSH1 0x0 PUSH2 0x9D0 PUSH2 0x9E1 JUMP JUMPDEST SWAP1 POP PUSH2 0x9DC DUP3 DUP3 PUSH2 0xB5C JUMP JUMPDEST SWAP2 SWAP1 POP JUMP JUMPDEST PUSH1 0x0 PUSH1 0x40 MLOAD SWAP1 POP SWAP1 JUMP JUMPDEST PUSH1 0x0 PUSH8 0xFFFFFFFFFFFFFFFF DUP3 GT ISZERO PUSH2 0xA06 JUMPI PUSH2 0xA05 PUSH2 0xC34 JUMP JUMPDEST JUMPDEST PUSH2 0xA0F DUP3 PUSH2 0xC77 JUMP JUMPDEST SWAP1 POP PUSH1 0x20 DUP2 ADD SWAP1 POP SWAP2 SWAP1 POP JUMP JUMPDEST PUSH1 0x0 DUP2 MLOAD SWAP1 POP SWAP2 SWAP1 POP JUMP JUMPDEST PUSH1 0x0 DUP3 DUP3 MSTORE PUSH1 0x20 DUP3 ADD SWAP1 POP SWAP3 SWAP2 POP POP JUMP JUMPDEST PUSH1 0x0 PUSH2 0xA43 DUP3 PUSH2 0xADE JUMP JUMPDEST SWAP2 POP PUSH2 0xA4E DUP4 PUSH2 0xADE JUMP JUMPDEST SWAP3 POP DUP3 PUSH32 0xFFFFFFFFFFFFFFFFFFFFFFFFFFFFFFFFFFFFFFFFFFFFFFFFFFFFFFFFFFFFFFFF SUB DUP3 GT ISZERO PUSH2 0xA83 JUMPI PUSH2 0xA82 PUSH2 0xBD6 JUMP JUMPDEST JUMPDEST DUP3 DUP3 ADD SWAP1 POP SWAP3 SWAP2 POP POP JUMP JUMPDEST PUSH1 0x0 PUSH2 0xA99 DUP3 PUSH2 0xABE JUMP JUMPDEST SWAP1 POP SWAP2 SWAP1 POP JUMP JUMPDEST PUSH1 0x0 PUSH2 0xAAB DUP3 PUSH2 0xABE JUMP JUMPDEST SWAP1 POP SWAP2 SWAP1 POP JUMP JUMPDEST PUSH1 0x0 DUP2 ISZERO ISZERO SWAP1 POP SWAP2 SWAP1 POP JUMP JUMPDEST PUSH1 0x0 PUSH20 0xFFFFFFFFFFFFFFFFFFFFFFFFFFFFFFFFFFFFFFFF DUP3 AND SWAP1 POP SWAP2 SWAP1 POP JUMP JUMPDEST PUSH1 0x0 DUP2 SWAP1 POP SWAP2 SWAP1 POP JUMP JUMPDEST DUP3 DUP2 DUP4 CALLDATACOPY PUSH1 0x0 DUP4 DUP4 ADD MSTORE POP POP POP JUMP JUMPDEST PUSH1 0x0 JUMPDEST DUP4 DUP2 LT ISZERO PUSH2 0xB15 JUMPI DUP1 DUP3 ADD MLOAD DUP2 DUP5 ADD MSTORE PUSH1 0x20 DUP2 ADD SWAP1 POP PUSH2 0xAFA JUMP JUMPDEST DUP4 DUP2 GT ISZERO PUSH2 0xB24 JUMPI PUSH1 0x0 DUP5 DUP5 ADD MSTORE JUMPDEST POP POP POP POP JUMP JUMPDEST PUSH1 0x0 PUSH1 0x2 DUP3 DIV SWAP1 POP PUSH1 0x1 DUP3 AND DUP1 PUSH2 0xB42 JUMPI PUSH1 0x7F DUP3 AND SWAP2 POP JUMPDEST PUSH1 0x20 DUP3 LT DUP2 EQ ISZERO PUSH2 0xB56 JUMPI PUSH2 0xB55 PUSH2 0xC05 JUMP JUMPDEST JUMPDEST POP SWAP2 SWAP1 POP JUMP JUMPDEST PUSH2 0xB65 DUP3 PUSH2 0xC77 JUMP JUMPDEST DUP2 ADD DUP2 DUP2 LT PUSH8 0xFFFFFFFFFFFFFFFF DUP3 GT OR ISZERO PUSH2 0xB84 JUMPI PUSH2 0xB83 PUSH2 0xC34 JUMP JUMPDEST JUMPDEST DUP1 PUSH1 0x40 MSTORE POP POP POP JUMP JUMPDEST PUSH1 0x0 PUSH2 0xB98 DUP3 PUSH2 0xADE JUMP JUMPDEST SWAP2 POP PUSH32 0xFFFFFFFFFFFFFFFFFFFFFFFFFFFFFFFFFFFFFFFFFFFFFFFFFFFFFFFFFFFFFFFF DUP3 EQ ISZERO PUSH2 0xBCB JUMPI PUSH2 0xBCA PUSH2 0xBD6 JUMP JUMPDEST JUMPDEST PUSH1 0x1 DUP3 ADD SWAP1 POP SWAP2 SWAP1 POP JUMP JUMPDEST PUSH32 0x4E487B7100000000000000000000000000000000000000000000000000000000 PUSH1 0x0 MSTORE PUSH1 0x11 PUSH1 0x4 MSTORE PUSH1 0x24 PUSH1 0x0 REVERT JUMPDEST PUSH32 0x4E487B7100000000000000000000000000000000000000000000000000000000 PUSH1 0x0 MSTORE PUSH1 0x22 PUSH1 0x4 MSTORE PUSH1 0x24 PUSH1 0x0 REVERT JUMPDEST PUSH32 0x4E487B7100000000000000000000000000000000000000000000000000000000 PUSH1 0x0 MSTORE PUSH1 0x41 PUSH1 0x4 MSTORE PUSH1 0x24 PUSH1 0x0 REVERT JUMPDEST PUSH1 0x0 DUP1 REVERT JUMPDEST PUSH1 0x0 DUP1 REVERT JUMPDEST PUSH1 0x0 DUP1 REVERT JUMPDEST PUSH1 0x0 DUP1 REVERT JUMPDEST PUSH1 0x0 PUSH1 0x1F NOT PUSH1 0x1F DUP4 ADD AND SWAP1 POP SWAP2 SWAP1 POP JUMP JUMPDEST PUSH32 0x446561646C696E6520686173207061737365642E000000000000000000000000 PUSH1 0x0 DUP3 ADD MSTORE POP JUMP JUMPDEST PUSH32 0x4D696E696D756D20636F6E747269627574696F6E206E6F74206D65742E000000 PUSH1 0x0 DUP3 ADD MSTORE POP JUMP JUMPDEST PUSH2 0xCE3 DUP2 PUSH2 0xA8E JUMP JUMPDEST DUP2 EQ PUSH2 0xCEE JUMPI PUSH1 0x0 DUP1 REVERT JUMPDEST POP JUMP JUMPDEST PUSH2 0xCFA DUP2 PUSH2 0xADE JUMP JUMPDEST DUP2 EQ PUSH2 0xD05 JUMPI PUSH1 0x0 DUP1 REVERT JUMPDEST POP JUMP INVALID LOG2 PUSH5 0x6970667358 0x22 SLT KECCAK256 PUSH10 0xAA1597BF9F438939B6B4 CALLCODE CALLDATACOPY PUSH18 0xAB3E2B374E2DADD9E65C58B2384FE4B112 PUSH5 0x736F6C6343 STOP ADDMOD SMOD STOP CALLER "
				},
				"gasEstimates": {
					"creation": {
						"codeDepositCost": "678000",
						"executionCost": "infinite",
						"totalCost": "infinite"
					},
					"external": {
						"admin()": "2602",
						"contribute()": "infinite",
						"contributors(address)": "2837",
						"createRequest(string,uint256)": "infinite",
						"deadline()": "2474",
						"getBalance()": "340",
						"getRefund()": "infinite",
						"goal()": "2496",
						"minimumContribution()": "2540",
						"numberContributors()": "2495",
						"numberRequests()": "2451",
						"raisedAmount()": "2496",
						"requests(uint256)": "infinite"
					}
				},
				"methodIdentifiers": {
					"admin()": "f851a440",
					"contribute()": "d7bb99ba",
					"contributors(address)": "1f6d4942",
					"createRequest(string,uint256)": "aa6e90c0",
					"deadline()": "29dcb0cf",
					"getBalance()": "12065fe0",
					"getRefund()": "b2d5ae44",
					"goal()": "40193883",
					"minimumContribution()": "937e09b1",
					"numberContributors()": "f3740daf",
					"numberRequests()": "d3a9d4ea",
					"raisedAmount()": "c59ee1dc",
					"requests(uint256)": "81d12c58"
				}
			},
			"storageLayout": {
				"storage": [
					{
						"astId": 5,
						"contract": "contracts/crowdfunding.sol:CrowdFunding",
						"label": "contributors",
						"offset": 0,
						"slot": "0",
						"type": "t_mapping(t_address,t_uint256)"
					},
					{
						"astId": 7,
						"contract": "contracts/crowdfunding.sol:CrowdFunding",
						"label": "admin",
						"offset": 0,
						"slot": "1",
						"type": "t_address"
					},
					{
						"astId": 9,
						"contract": "contracts/crowdfunding.sol:CrowdFunding",
						"label": "numberContributors",
						"offset": 0,
						"slot": "2",
						"type": "t_uint256"
					},
					{
						"astId": 11,
						"contract": "contracts/crowdfunding.sol:CrowdFunding",
						"label": "minimumContribution",
						"offset": 0,
						"slot": "3",
						"type": "t_uint256"
					},
					{
						"astId": 13,
						"contract": "contracts/crowdfunding.sol:CrowdFunding",
						"label": "deadline",
						"offset": 0,
						"slot": "4",
						"type": "t_uint256"
					},
					{
						"astId": 15,
						"contract": "contracts/crowdfunding.sol:CrowdFunding",
						"label": "goal",
						"offset": 0,
						"slot": "5",
						"type": "t_uint256"
					},
					{
						"astId": 17,
						"contract": "contracts/crowdfunding.sol:CrowdFunding",
						"label": "raisedAmount",
						"offset": 0,
						"slot": "6",
						"type": "t_uint256"
					},
					{
						"astId": 37,
						"contract": "contracts/crowdfunding.sol:CrowdFunding",
						"label": "requests",
						"offset": 0,
						"slot": "7",
						"type": "t_mapping(t_uint256,t_struct(Request)32_storage)"
					},
					{
						"astId": 39,
						"contract": "contracts/crowdfunding.sol:CrowdFunding",
						"label": "numberRequests",
						"offset": 0,
						"slot": "8",
						"type": "t_uint256"
					}
				],
				"types": {
					"t_address": {
						"encoding": "inplace",
						"label": "address",
						"numberOfBytes": "20"
					},
					"t_address_payable": {
						"encoding": "inplace",
						"label": "address payable",
						"numberOfBytes": "20"
					},
					"t_bool": {
						"encoding": "inplace",
						"label": "bool",
						"numberOfBytes": "1"
					},
					"t_mapping(t_address,t_bool)": {
						"encoding": "mapping",
						"key": "t_address",
						"label": "mapping(address => bool)",
						"numberOfBytes": "32",
						"value": "t_bool"
					},
					"t_mapping(t_address,t_uint256)": {
						"encoding": "mapping",
						"key": "t_address",
						"label": "mapping(address => uint256)",
						"numberOfBytes": "32",
						"value": "t_uint256"
					},
					"t_mapping(t_uint256,t_struct(Request)32_storage)": {
						"encoding": "mapping",
						"key": "t_uint256",
						"label": "mapping(uint256 => struct CrowdFunding.Request)",
						"numberOfBytes": "32",
						"value": "t_struct(Request)32_storage"
					},
					"t_string_storage": {
						"encoding": "bytes",
						"label": "string",
						"numberOfBytes": "32"
					},
					"t_struct(Request)32_storage": {
						"encoding": "inplace",
						"label": "struct CrowdFunding.Request",
						"members": [
							{
								"astId": 19,
								"contract": "contracts/crowdfunding.sol:CrowdFunding",
								"label": "description",
								"offset": 0,
								"slot": "0",
								"type": "t_string_storage"
							},
							{
								"astId": 21,
								"contract": "contracts/crowdfunding.sol:CrowdFunding",
								"label": "recipient",
								"offset": 0,
								"slot": "1",
								"type": "t_address_payable"
							},
							{
								"astId": 23,
								"contract": "contracts/crowdfunding.sol:CrowdFunding",
								"label": "value",
								"offset": 0,
								"slot": "2",
								"type": "t_uint256"
							},
							{
								"astId": 25,
								"contract": "contracts/crowdfunding.sol:CrowdFunding",
								"label": "completed",
								"offset": 0,
								"slot": "3",
								"type": "t_bool"
							},
							{
								"astId": 27,
								"contract": "contracts/crowdfunding.sol:CrowdFunding",
								"label": "numberVoters",
								"offset": 0,
								"slot": "4",
								"type": "t_uint256"
							},
							{
								"astId": 31,
								"contract": "contracts/crowdfunding.sol:CrowdFunding",
								"label": "voters",
								"offset": 0,
								"slot": "5",
								"type": "t_mapping(t_address,t_bool)"
							}
						],
						"numberOfBytes": "192"
					},
					"t_uint256": {
						"encoding": "inplace",
						"label": "uint256",
						"numberOfBytes": "32"
					}
				}
			},
			"userdoc": {
				"kind": "user",
				"methods": {},
				"version": 1
			}
		}
	}
}