{
	"contracts/boolTypes.sol": {
		"Property2": {
			"abi": [
				{
					"inputs": [],
					"name": "sold",
					"outputs": [
						{
							"internalType": "bool",
							"name": "",
							"type": "bool"
						}
					],
					"stateMutability": "view",
					"type": "function"
				},
				{
					"inputs": [],
					"name": "x",
					"outputs": [
						{
							"internalType": "uint8",
							"name": "",
							"type": "uint8"
						}
					],
					"stateMutability": "view",
					"type": "function"
				}
			],
			"devdoc": {
				"kind": "dev",
				"methods": {},
				"version": 1
			},
			"evm": {
				"assembly": "    /* \"contracts/boolTypes.sol\":73:151  contract Property2{\r... */\n  mstore(0x40, 0x80)\n    /* \"contracts/boolTypes.sol\":140:143  255 */\n  0xff\n    /* \"contracts/boolTypes.sol\":123:143  uint8 public x = 255 */\n  0x00\n  exp(0x0100, 0x01)\n  dup2\n  sload\n  dup2\n  0xff\n  mul\n  not\n  and\n  swap1\n  dup4\n  0xff\n  and\n  mul\n  or\n  swap1\n  sstore\n  pop\n    /* \"contracts/boolTypes.sol\":73:151  contract Property2{\r... */\n  callvalue\n  dup1\n  iszero\n  tag_1\n  jumpi\n  0x00\n  dup1\n  revert\ntag_1:\n  pop\n  dataSize(sub_0)\n  dup1\n  dataOffset(sub_0)\n  0x00\n  codecopy\n  0x00\n  return\nstop\n\nsub_0: assembly {\n        /* \"contracts/boolTypes.sol\":73:151  contract Property2{\r... */\n      mstore(0x40, 0x80)\n      callvalue\n      dup1\n      iszero\n      tag_1\n      jumpi\n      0x00\n      dup1\n      revert\n    tag_1:\n      pop\n      jumpi(tag_2, lt(calldatasize, 0x04))\n      shr(0xe0, calldataload(0x00))\n      dup1\n      0x02c7e7af\n      eq\n      tag_3\n      jumpi\n      dup1\n      0x0c55699c\n      eq\n      tag_4\n      jumpi\n    tag_2:\n      0x00\n      dup1\n      revert\n        /* \"contracts/boolTypes.sol\":98:114  bool public sold */\n    tag_3:\n      tag_5\n      tag_6\n      jump\t// in\n    tag_5:\n      mload(0x40)\n      tag_7\n      swap2\n      swap1\n      tag_8\n      jump\t// in\n    tag_7:\n      mload(0x40)\n      dup1\n      swap2\n      sub\n      swap1\n      return\n        /* \"contracts/boolTypes.sol\":123:143  uint8 public x = 255 */\n    tag_4:\n      tag_9\n      tag_10\n      jump\t// in\n    tag_9:\n      mload(0x40)\n      tag_11\n      swap2\n      swap1\n      tag_12\n      jump\t// in\n    tag_11:\n      mload(0x40)\n      dup1\n      swap2\n      sub\n      swap1\n      return\n        /* \"contracts/boolTypes.sol\":98:114  bool public sold */\n    tag_6:\n      0x00\n      dup1\n      sload\n      swap1\n      0x0100\n      exp\n      swap1\n      div\n      0xff\n      and\n      dup2\n      jump\t// out\n        /* \"contracts/boolTypes.sol\":123:143  uint8 public x = 255 */\n    tag_10:\n      0x00\n      0x01\n      swap1\n      sload\n      swap1\n      0x0100\n      exp\n      swap1\n      div\n      0xff\n      and\n      dup2\n      jump\t// out\n        /* \"#utility.yul\":7:116   */\n    tag_14:\n        /* \"#utility.yul\":88:109   */\n      tag_16\n        /* \"#utility.yul\":103:108   */\n      dup2\n        /* \"#utility.yul\":88:109   */\n      tag_17\n      jump\t// in\n    tag_16:\n        /* \"#utility.yul\":83:86   */\n      dup3\n        /* \"#utility.yul\":76:110   */\n      mstore\n        /* \"#utility.yul\":66:116   */\n      pop\n      pop\n      jump\t// out\n        /* \"#utility.yul\":122:234   */\n    tag_18:\n        /* \"#utility.yul\":205:227   */\n      tag_20\n        /* \"#utility.yul\":221:226   */\n      dup2\n        /* \"#utility.yul\":205:227   */\n      tag_21\n      jump\t// in\n    tag_20:\n        /* \"#utility.yul\":200:203   */\n      dup3\n        /* \"#utility.yul\":193:228   */\n      mstore\n        /* \"#utility.yul\":183:234   */\n      pop\n      pop\n      jump\t// out\n        /* \"#utility.yul\":240:450   */\n    tag_8:\n      0x00\n        /* \"#utility.yul\":365:367   */\n      0x20\n        /* \"#utility.yul\":354:363   */\n      dup3\n        /* \"#utility.yul\":350:368   */\n      add\n        /* \"#utility.yul\":342:368   */\n      swap1\n      pop\n        /* \"#utility.yul\":378:443   */\n      tag_23\n        /* \"#utility.yul\":440:441   */\n      0x00\n        /* \"#utility.yul\":429:438   */\n      dup4\n        /* \"#utility.yul\":425:442   */\n      add\n        /* \"#utility.yul\":416:422   */\n      dup5\n        /* \"#utility.yul\":378:443   */\n      tag_14\n      jump\t// in\n    tag_23:\n        /* \"#utility.yul\":332:450   */\n      swap3\n      swap2\n      pop\n      pop\n      jump\t// out\n        /* \"#utility.yul\":456:670   */\n    tag_12:\n      0x00\n        /* \"#utility.yul\":583:585   */\n      0x20\n        /* \"#utility.yul\":572:581   */\n      dup3\n        /* \"#utility.yul\":568:586   */\n      add\n        /* \"#utility.yul\":560:586   */\n      swap1\n      pop\n        /* \"#utility.yul\":596:663   */\n      tag_25\n        /* \"#utility.yul\":660:661   */\n      0x00\n        /* \"#utility.yul\":649:658   */\n      dup4\n        /* \"#utility.yul\":645:662   */\n      add\n        /* \"#utility.yul\":636:642   */\n      dup5\n        /* \"#utility.yul\":596:663   */\n      tag_18\n      jump\t// in\n    tag_25:\n        /* \"#utility.yul\":550:670   */\n      swap3\n      swap2\n      pop\n      pop\n      jump\t// out\n        /* \"#utility.yul\":676:766   */\n    tag_17:\n      0x00\n        /* \"#utility.yul\":753:758   */\n      dup2\n        /* \"#utility.yul\":746:759   */\n      iszero\n        /* \"#utility.yul\":739:760   */\n      iszero\n        /* \"#utility.yul\":728:760   */\n      swap1\n      pop\n        /* \"#utility.yul\":718:766   */\n      swap2\n      swap1\n      pop\n      jump\t// out\n        /* \"#utility.yul\":772:858   */\n    tag_21:\n      0x00\n        /* \"#utility.yul\":847:851   */\n      0xff\n        /* \"#utility.yul\":840:845   */\n      dup3\n        /* \"#utility.yul\":836:852   */\n      and\n        /* \"#utility.yul\":825:852   */\n      swap1\n      pop\n        /* \"#utility.yul\":815:858   */\n      swap2\n      swap1\n      pop\n      jump\t// out\n\n    auxdata: 0xa2646970667358221220b70b8dfd5f7d5e1edd73b68ea43f7df5d8fce501d490cfbd8489c58b0600f54f64736f6c63430008000033\n}\n",
				"bytecode": {
					"linkReferences": {},
					"object": "608060405260ff600060016101000a81548160ff021916908360ff16021790555034801561002c57600080fd5b5061012a8061003c6000396000f3fe6080604052348015600f57600080fd5b506004361060325760003560e01c806302c7e7af1460375780630c55699c146051575b600080fd5b603d606b565b6040516048919060a9565b60405180910390f35b6057607c565b6040516062919060c2565b60405180910390f35b60008054906101000a900460ff1681565b600060019054906101000a900460ff1681565b60968160db565b82525050565b60a38160e7565b82525050565b600060208201905060bc6000830184608f565b92915050565b600060208201905060d56000830184609c565b92915050565b60008115159050919050565b600060ff8216905091905056fea2646970667358221220b70b8dfd5f7d5e1edd73b68ea43f7df5d8fce501d490cfbd8489c58b0600f54f64736f6c63430008000033",
					"opcodes": "PUSH1 0x80 PUSH1 0x40 MSTORE PUSH1 0xFF PUSH1 0x0 PUSH1 0x1 PUSH2 0x100 EXP DUP2 SLOAD DUP2 PUSH1 0xFF MUL NOT AND SWAP1 DUP4 PUSH1 0xFF AND MUL OR SWAP1 SSTORE POP CALLVALUE DUP1 ISZERO PUSH2 0x2C JUMPI PUSH1 0x0 DUP1 REVERT JUMPDEST POP PUSH2 0x12A DUP1 PUSH2 0x3C PUSH1 0x0 CODECOPY PUSH1 0x0 RETURN INVALID PUSH1 0x80 PUSH1 0x40 MSTORE CALLVALUE DUP1 ISZERO PUSH1 0xF JUMPI PUSH1 0x0 DUP1 REVERT JUMPDEST POP PUSH1 0x4 CALLDATASIZE LT PUSH1 0x32 JUMPI PUSH1 0x0 CALLDATALOAD PUSH1 0xE0 SHR DUP1 PUSH4 0x2C7E7AF EQ PUSH1 0x37 JUMPI DUP1 PUSH4 0xC55699C EQ PUSH1 0x51 JUMPI JUMPDEST PUSH1 0x0 DUP1 REVERT JUMPDEST PUSH1 0x3D PUSH1 0x6B JUMP JUMPDEST PUSH1 0x40 MLOAD PUSH1 0x48 SWAP2 SWAP1 PUSH1 0xA9 JUMP JUMPDEST PUSH1 0x40 MLOAD DUP1 SWAP2 SUB SWAP1 RETURN JUMPDEST PUSH1 0x57 PUSH1 0x7C JUMP JUMPDEST PUSH1 0x40 MLOAD PUSH1 0x62 SWAP2 SWAP1 PUSH1 0xC2 JUMP JUMPDEST PUSH1 0x40 MLOAD DUP1 SWAP2 SUB SWAP1 RETURN JUMPDEST PUSH1 0x0 DUP1 SLOAD SWAP1 PUSH2 0x100 EXP SWAP1 DIV PUSH1 0xFF AND DUP2 JUMP JUMPDEST PUSH1 0x0 PUSH1 0x1 SWAP1 SLOAD SWAP1 PUSH2 0x100 EXP SWAP1 DIV PUSH1 0xFF AND DUP2 JUMP JUMPDEST PUSH1 0x96 DUP2 PUSH1 0xDB JUMP JUMPDEST DUP3 MSTORE POP POP JUMP JUMPDEST PUSH1 0xA3 DUP2 PUSH1 0xE7 JUMP JUMPDEST DUP3 MSTORE POP POP JUMP JUMPDEST PUSH1 0x0 PUSH1 0x20 DUP3 ADD SWAP1 POP PUSH1 0xBC PUSH1 0x0 DUP4 ADD DUP5 PUSH1 0x8F JUMP JUMPDEST SWAP3 SWAP2 POP POP JUMP JUMPDEST PUSH1 0x0 PUSH1 0x20 DUP3 ADD SWAP1 POP PUSH1 0xD5 PUSH1 0x0 DUP4 ADD DUP5 PUSH1 0x9C JUMP JUMPDEST SWAP3 SWAP2 POP POP JUMP JUMPDEST PUSH1 0x0 DUP2 ISZERO ISZERO SWAP1 POP SWAP2 SWAP1 POP JUMP JUMPDEST PUSH1 0x0 PUSH1 0xFF DUP3 AND SWAP1 POP SWAP2 SWAP1 POP JUMP INVALID LOG2 PUSH5 0x6970667358 0x22 SLT KECCAK256 0xB7 SIGNEXTEND DUP14 REVERT 0x5F PUSH30 0x5E1EDD73B68EA43F7DF5D8FCE501D490CFBD8489C58B0600F54F64736F6C PUSH4 0x43000800 STOP CALLER "
				},
				"gasEstimates": {
					"creation": {
						"codeDepositCost": "59600",
						"executionCost": "21028",
						"totalCost": "80628"
					},
					"external": {
						"sold()": "1146",
						"x()": "1221"
					}
				},
				"methodIdentifiers": {
					"sold()": "02c7e7af",
					"x()": "0c55699c"
				}
			},
			"storageLayout": {
				"storage": [
					{
						"astId": 3,
						"contract": "contracts/boolTypes.sol:Property2",
						"label": "sold",
						"offset": 0,
						"slot": "0",
						"type": "t_bool"
					},
					{
						"astId": 6,
						"contract": "contracts/boolTypes.sol:Property2",
						"label": "x",
						"offset": 1,
						"slot": "0",
						"type": "t_uint8"
					}
				],
				"types": {
					"t_bool": {
						"encoding": "inplace",
						"label": "bool",
						"numberOfBytes": "1"
					},
					"t_uint8": {
						"encoding": "inplace",
						"label": "uint8",
						"numberOfBytes": "1"
					}
				}
			},
			"userdoc": {
				"kind": "user",
				"methods": {},
				"version": 1
			}
		}
	}
}