{
	"contracts/challenge1.sol": {
		"MyTokens": {
			"abi": [
				{
					"inputs": [],
					"name": "changeTokens",
					"outputs": [],
					"stateMutability": "nonpayable",
					"type": "function"
				},
				{
					"inputs": [
						{
							"internalType": "uint256",
							"name": "",
							"type": "uint256"
						}
					],
					"name": "tokens",
					"outputs": [
						{
							"internalType": "string",
							"name": "",
							"type": "string"
						}
					],
					"stateMutability": "view",
					"type": "function"
				}
			],
			"devdoc": {
				"kind": "dev",
				"methods": {},
				"version": 1
			},
			"evm": {
				"assembly": "    /* \"contracts/challenge1.sol\":874:1059  contract MyTokens{\r... */\n  mstore(0x40, 0x80)\n    /* \"contracts/challenge1.sol\":898:937  string[] public tokens = ['BTC', 'ETH'] */\n  mload(0x40)\n  dup1\n  0x40\n  add\n  0x40\n  mstore\n  dup1\n  mload(0x40)\n  dup1\n  0x40\n  add\n  0x40\n  mstore\n  dup1\n  0x03\n  dup2\n  mstore\n  0x20\n  add\n  0x4254430000000000000000000000000000000000000000000000000000000000\n  dup2\n  mstore\n  pop\n  dup2\n  mstore\n  0x20\n  add\n  mload(0x40)\n  dup1\n  0x40\n  add\n  0x40\n  mstore\n  dup1\n  0x03\n  dup2\n  mstore\n  0x20\n  add\n  0x4554480000000000000000000000000000000000000000000000000000000000\n  dup2\n  mstore\n  pop\n  dup2\n  mstore\n  pop\n  0x00\n  swap1\n  0x02\n  tag_1\n  swap3\n  swap2\n  swap1\n  tag_2\n  jump\t// in\ntag_1:\n  pop\n    /* \"contracts/challenge1.sol\":874:1059  contract MyTokens{\r... */\n  callvalue\n  dup1\n  iszero\n  tag_3\n  jumpi\n  0x00\n  dup1\n  revert\ntag_3:\n  pop\n  jump(tag_4)\ntag_2:\n  dup3\n  dup1\n  sload\n  dup3\n  dup3\n  sstore\n  swap1\n  0x00\n  mstore\n  keccak256(0x00, 0x20)\n  swap1\n  dup2\n  add\n  swap3\n  dup3\n  iszero\n  tag_5\n  jumpi\n  swap2\n  0x20\n  mul\n  dup3\n  add\ntag_6:\n  dup3\n  dup2\n  gt\n  iszero\n  tag_7\n  jumpi\n  dup3\n  mload\n  dup3\n  swap1\n  dup1\n  mload\n  swap1\n  0x20\n  add\n  swap1\n  tag_8\n  swap3\n  swap2\n  swap1\n  tag_9\n  jump\t// in\ntag_8:\n  pop\n  swap2\n  0x20\n  add\n  swap2\n  swap1\n  0x01\n  add\n  swap1\n  jump(tag_6)\ntag_7:\ntag_5:\n  pop\n  swap1\n  pop\n  tag_10\n  swap2\n  swap1\n  tag_11\n  jump\t// in\ntag_10:\n  pop\n  swap1\n  jump\t// out\ntag_9:\n  dup3\n  dup1\n  sload\n  tag_12\n  swap1\n  tag_13\n  jump\t// in\ntag_12:\n  swap1\n  0x00\n  mstore\n  keccak256(0x00, 0x20)\n  swap1\n  0x1f\n  add\n  0x20\n  swap1\n  div\n  dup2\n  add\n  swap3\n  dup3\n  tag_15\n  jumpi\n  0x00\n  dup6\n  sstore\n  jump(tag_14)\ntag_15:\n  dup3\n  0x1f\n  lt\n  tag_16\n  jumpi\n  dup1\n  mload\n  not(0xff)\n  and\n  dup4\n  dup1\n  add\n  or\n  dup6\n  sstore\n  jump(tag_14)\ntag_16:\n  dup3\n  dup1\n  add\n  0x01\n  add\n  dup6\n  sstore\n  dup3\n  iszero\n  tag_14\n  jumpi\n  swap2\n  dup3\n  add\ntag_17:\n  dup3\n  dup2\n  gt\n  iszero\n  tag_18\n  jumpi\n  dup3\n  mload\n  dup3\n  sstore\n  swap2\n  0x20\n  add\n  swap2\n  swap1\n  0x01\n  add\n  swap1\n  jump(tag_17)\ntag_18:\ntag_14:\n  pop\n  swap1\n  pop\n  tag_19\n  swap2\n  swap1\n  tag_20\n  jump\t// in\ntag_19:\n  pop\n  swap1\n  jump\t// out\ntag_11:\ntag_21:\n  dup1\n  dup3\n  gt\n  iszero\n  tag_22\n  jumpi\n  0x00\n  dup2\n  dup2\n  tag_23\n  swap2\n  swap1\n  tag_24\n  jump\t// in\ntag_23:\n  pop\n  0x01\n  add\n  jump(tag_21)\ntag_22:\n  pop\n  swap1\n  jump\t// out\ntag_20:\ntag_25:\n  dup1\n  dup3\n  gt\n  iszero\n  tag_26\n  jumpi\n  0x00\n  dup2\n  0x00\n  swap1\n  sstore\n  pop\n  0x01\n  add\n  jump(tag_25)\ntag_26:\n  pop\n  swap1\n  jump\t// out\ntag_24:\n  pop\n  dup1\n  sload\n  tag_27\n  swap1\n  tag_13\n  jump\t// in\ntag_27:\n  0x00\n  dup3\n  sstore\n  dup1\n  0x1f\n  lt\n  tag_29\n  jumpi\n  pop\n  jump(tag_28)\ntag_29:\n  0x1f\n  add\n  0x20\n  swap1\n  div\n  swap1\n  0x00\n  mstore\n  keccak256(0x00, 0x20)\n  swap1\n  dup2\n  add\n  swap1\n  tag_30\n  swap2\n  swap1\n  tag_20\n  jump\t// in\ntag_30:\ntag_28:\n  pop\n  jump\t// out\n    /* \"#utility.yul\":7:327   */\ntag_13:\n    /* \"#utility.yul\":51:57   */\n  0x00\n    /* \"#utility.yul\":88:89   */\n  0x02\n    /* \"#utility.yul\":82:86   */\n  dup3\n    /* \"#utility.yul\":78:90   */\n  div\n    /* \"#utility.yul\":68:90   */\n  swap1\n  pop\n    /* \"#utility.yul\":135:136   */\n  0x01\n    /* \"#utility.yul\":129:133   */\n  dup3\n    /* \"#utility.yul\":125:137   */\n  and\n    /* \"#utility.yul\":156:174   */\n  dup1\n    /* \"#utility.yul\":146:227   */\n  tag_33\n  jumpi\n    /* \"#utility.yul\":212:216   */\n  0x7f\n    /* \"#utility.yul\":204:210   */\n  dup3\n    /* \"#utility.yul\":200:217   */\n  and\n    /* \"#utility.yul\":190:217   */\n  swap2\n  pop\n    /* \"#utility.yul\":146:227   */\ntag_33:\n    /* \"#utility.yul\":274:276   */\n  0x20\n    /* \"#utility.yul\":266:272   */\n  dup3\n    /* \"#utility.yul\":263:277   */\n  lt\n    /* \"#utility.yul\":243:261   */\n  dup2\n    /* \"#utility.yul\":240:278   */\n  eq\n    /* \"#utility.yul\":237:321   */\n  iszero\n  tag_34\n  jumpi\n    /* \"#utility.yul\":293:311   */\n  tag_35\n  tag_36\n  jump\t// in\ntag_35:\n    /* \"#utility.yul\":237:321   */\ntag_34:\n    /* \"#utility.yul\":58:327   */\n  pop\n    /* \"#utility.yul\":7:327   */\n  swap2\n  swap1\n  pop\n  jump\t// out\n    /* \"#utility.yul\":333:513   */\ntag_36:\n    /* \"#utility.yul\":381:458   */\n  0x4e487b7100000000000000000000000000000000000000000000000000000000\n    /* \"#utility.yul\":378:379   */\n  0x00\n    /* \"#utility.yul\":371:459   */\n  mstore\n    /* \"#utility.yul\":478:482   */\n  0x22\n    /* \"#utility.yul\":475:476   */\n  0x04\n    /* \"#utility.yul\":468:483   */\n  mstore\n    /* \"#utility.yul\":502:506   */\n  0x24\n    /* \"#utility.yul\":499:500   */\n  0x00\n    /* \"#utility.yul\":492:507   */\n  revert\n    /* \"contracts/challenge1.sol\":874:1059  contract MyTokens{\r... */\ntag_4:\n  dataSize(sub_0)\n  dup1\n  dataOffset(sub_0)\n  0x00\n  codecopy\n  0x00\n  return\nstop\n\nsub_0: assembly {\n        /* \"contracts/challenge1.sol\":874:1059  contract MyTokens{\r... */\n      mstore(0x40, 0x80)\n      callvalue\n      dup1\n      iszero\n      tag_1\n      jumpi\n      0x00\n      dup1\n      revert\n    tag_1:\n      pop\n      jumpi(tag_2, lt(calldatasize, 0x04))\n      shr(0xe0, calldataload(0x00))\n      dup1\n      0x4f64b2be\n      eq\n      tag_3\n      jumpi\n      dup1\n      0xa9a51f89\n      eq\n      tag_4\n      jumpi\n    tag_2:\n      0x00\n      dup1\n      revert\n        /* \"contracts/challenge1.sol\":898:937  string[] public tokens = ['BTC', 'ETH'] */\n    tag_3:\n      tag_5\n      0x04\n      dup1\n      calldatasize\n      sub\n      dup2\n      add\n      swap1\n      tag_6\n      swap2\n      swap1\n      tag_7\n      jump\t// in\n    tag_6:\n      tag_8\n      jump\t// in\n    tag_5:\n      mload(0x40)\n      tag_9\n      swap2\n      swap1\n      tag_10\n      jump\t// in\n    tag_9:\n      mload(0x40)\n      dup1\n      swap2\n      sub\n      swap1\n      return\n        /* \"contracts/challenge1.sol\":950:1050  function changeTokens() public {\r... */\n    tag_4:\n      tag_11\n      tag_12\n      jump\t// in\n    tag_11:\n      stop\n        /* \"contracts/challenge1.sol\":898:937  string[] public tokens = ['BTC', 'ETH'] */\n    tag_8:\n      0x00\n      dup2\n      dup2\n      sload\n      dup2\n      lt\n      tag_13\n      jumpi\n      0x00\n      dup1\n      revert\n    tag_13:\n      swap1\n      0x00\n      mstore\n      keccak256(0x00, 0x20)\n      add\n      0x00\n      swap2\n      pop\n      swap1\n      pop\n      dup1\n      sload\n      tag_15\n      swap1\n      tag_16\n      jump\t// in\n    tag_15:\n      dup1\n      0x1f\n      add\n      0x20\n      dup1\n      swap2\n      div\n      mul\n      0x20\n      add\n      mload(0x40)\n      swap1\n      dup2\n      add\n      0x40\n      mstore\n      dup1\n      swap3\n      swap2\n      swap1\n      dup2\n      dup2\n      mstore\n      0x20\n      add\n      dup3\n      dup1\n      sload\n      tag_17\n      swap1\n      tag_16\n      jump\t// in\n    tag_17:\n      dup1\n      iszero\n      tag_18\n      jumpi\n      dup1\n      0x1f\n      lt\n      tag_19\n      jumpi\n      0x0100\n      dup1\n      dup4\n      sload\n      div\n      mul\n      dup4\n      mstore\n      swap2\n      0x20\n      add\n      swap2\n      jump(tag_18)\n    tag_19:\n      dup3\n      add\n      swap2\n      swap1\n      0x00\n      mstore\n      keccak256(0x00, 0x20)\n      swap1\n    tag_20:\n      dup2\n      sload\n      dup2\n      mstore\n      swap1\n      0x01\n      add\n      swap1\n      0x20\n      add\n      dup1\n      dup4\n      gt\n      tag_20\n      jumpi\n      dup3\n      swap1\n      sub\n      0x1f\n      and\n      dup3\n      add\n      swap2\n    tag_18:\n      pop\n      pop\n      pop\n      pop\n      pop\n      dup2\n      jump\t// out\n        /* \"contracts/challenge1.sol\":950:1050  function changeTokens() public {\r... */\n    tag_12:\n        /* \"contracts/challenge1.sol\":992:1010  string[] storage t */\n      0x00\n        /* \"contracts/challenge1.sol\":1030:1042  t[0] = 'VET' */\n      mload(0x40)\n      dup1\n      0x40\n      add\n      0x40\n      mstore\n      dup1\n      0x03\n      dup2\n      mstore\n      0x20\n      add\n      0x5645540000000000000000000000000000000000000000000000000000000000\n      dup2\n      mstore\n      pop\n        /* \"contracts/challenge1.sol\":1030:1031  t */\n      dup2\n        /* \"contracts/challenge1.sol\":1032:1033  0 */\n      0x00\n        /* \"contracts/challenge1.sol\":1030:1034  t[0] */\n      dup2\n      sload\n      dup2\n      lt\n      tag_22\n      jumpi\n      tag_23\n      tag_24\n      jump\t// in\n    tag_23:\n    tag_22:\n      swap1\n      0x00\n      mstore\n      keccak256(0x00, 0x20)\n      add\n        /* \"contracts/challenge1.sol\":1030:1042  t[0] = 'VET' */\n      swap1\n      dup1\n      mload\n      swap1\n      0x20\n      add\n      swap1\n      tag_26\n      swap3\n      swap2\n      swap1\n      tag_27\n      jump\t// in\n    tag_26:\n      pop\n        /* \"contracts/challenge1.sol\":981:1050  {\r... */\n      pop\n        /* \"contracts/challenge1.sol\":950:1050  function changeTokens() public {\r... */\n      jump\t// out\n    tag_27:\n      dup3\n      dup1\n      sload\n      tag_28\n      swap1\n      tag_16\n      jump\t// in\n    tag_28:\n      swap1\n      0x00\n      mstore\n      keccak256(0x00, 0x20)\n      swap1\n      0x1f\n      add\n      0x20\n      swap1\n      div\n      dup2\n      add\n      swap3\n      dup3\n      tag_30\n      jumpi\n      0x00\n      dup6\n      sstore\n      jump(tag_29)\n    tag_30:\n      dup3\n      0x1f\n      lt\n      tag_31\n      jumpi\n      dup1\n      mload\n      not(0xff)\n      and\n      dup4\n      dup1\n      add\n      or\n      dup6\n      sstore\n      jump(tag_29)\n    tag_31:\n      dup3\n      dup1\n      add\n      0x01\n      add\n      dup6\n      sstore\n      dup3\n      iszero\n      tag_29\n      jumpi\n      swap2\n      dup3\n      add\n    tag_32:\n      dup3\n      dup2\n      gt\n      iszero\n      tag_33\n      jumpi\n      dup3\n      mload\n      dup3\n      sstore\n      swap2\n      0x20\n      add\n      swap2\n      swap1\n      0x01\n      add\n      swap1\n      jump(tag_32)\n    tag_33:\n    tag_29:\n      pop\n      swap1\n      pop\n      tag_34\n      swap2\n      swap1\n      tag_35\n      jump\t// in\n    tag_34:\n      pop\n      swap1\n      jump\t// out\n    tag_35:\n    tag_36:\n      dup1\n      dup3\n      gt\n      iszero\n      tag_37\n      jumpi\n      0x00\n      dup2\n      0x00\n      swap1\n      sstore\n      pop\n      0x01\n      add\n      jump(tag_36)\n    tag_37:\n      pop\n      swap1\n      jump\t// out\n        /* \"#utility.yul\":7:146   */\n    tag_39:\n        /* \"#utility.yul\":53:58   */\n      0x00\n        /* \"#utility.yul\":91:97   */\n      dup2\n        /* \"#utility.yul\":78:98   */\n      calldataload\n        /* \"#utility.yul\":69:98   */\n      swap1\n      pop\n        /* \"#utility.yul\":107:140   */\n      tag_41\n        /* \"#utility.yul\":134:139   */\n      dup2\n        /* \"#utility.yul\":107:140   */\n      tag_42\n      jump\t// in\n    tag_41:\n        /* \"#utility.yul\":7:146   */\n      swap3\n      swap2\n      pop\n      pop\n      jump\t// out\n        /* \"#utility.yul\":152:481   */\n    tag_7:\n        /* \"#utility.yul\":211:217   */\n      0x00\n        /* \"#utility.yul\":260:262   */\n      0x20\n        /* \"#utility.yul\":248:257   */\n      dup3\n        /* \"#utility.yul\":239:246   */\n      dup5\n        /* \"#utility.yul\":235:258   */\n      sub\n        /* \"#utility.yul\":231:263   */\n      slt\n        /* \"#utility.yul\":228:347   */\n      iszero\n      tag_44\n      jumpi\n        /* \"#utility.yul\":266:345   */\n      tag_45\n      tag_46\n      jump\t// in\n    tag_45:\n        /* \"#utility.yul\":228:347   */\n    tag_44:\n        /* \"#utility.yul\":386:387   */\n      0x00\n        /* \"#utility.yul\":411:464   */\n      tag_47\n        /* \"#utility.yul\":456:463   */\n      dup5\n        /* \"#utility.yul\":447:453   */\n      dup3\n        /* \"#utility.yul\":436:445   */\n      dup6\n        /* \"#utility.yul\":432:454   */\n      add\n        /* \"#utility.yul\":411:464   */\n      tag_39\n      jump\t// in\n    tag_47:\n        /* \"#utility.yul\":401:464   */\n      swap2\n      pop\n        /* \"#utility.yul\":357:474   */\n      pop\n        /* \"#utility.yul\":152:481   */\n      swap3\n      swap2\n      pop\n      pop\n      jump\t// out\n        /* \"#utility.yul\":487:851   */\n    tag_48:\n        /* \"#utility.yul\":575:578   */\n      0x00\n        /* \"#utility.yul\":603:642   */\n      tag_50\n        /* \"#utility.yul\":636:641   */\n      dup3\n        /* \"#utility.yul\":603:642   */\n      tag_51\n      jump\t// in\n    tag_50:\n        /* \"#utility.yul\":658:729   */\n      tag_52\n        /* \"#utility.yul\":722:728   */\n      dup2\n        /* \"#utility.yul\":717:720   */\n      dup6\n        /* \"#utility.yul\":658:729   */\n      tag_53\n      jump\t// in\n    tag_52:\n        /* \"#utility.yul\":651:729   */\n      swap4\n      pop\n        /* \"#utility.yul\":738:790   */\n      tag_54\n        /* \"#utility.yul\":783:789   */\n      dup2\n        /* \"#utility.yul\":778:781   */\n      dup6\n        /* \"#utility.yul\":771:775   */\n      0x20\n        /* \"#utility.yul\":764:769   */\n      dup7\n        /* \"#utility.yul\":760:776   */\n      add\n        /* \"#utility.yul\":738:790   */\n      tag_55\n      jump\t// in\n    tag_54:\n        /* \"#utility.yul\":815:844   */\n      tag_56\n        /* \"#utility.yul\":837:843   */\n      dup2\n        /* \"#utility.yul\":815:844   */\n      tag_57\n      jump\t// in\n    tag_56:\n        /* \"#utility.yul\":810:813   */\n      dup5\n        /* \"#utility.yul\":806:845   */\n      add\n        /* \"#utility.yul\":799:845   */\n      swap2\n      pop\n        /* \"#utility.yul\":579:851   */\n      pop\n        /* \"#utility.yul\":487:851   */\n      swap3\n      swap2\n      pop\n      pop\n      jump\t// out\n        /* \"#utility.yul\":857:1170   */\n    tag_10:\n        /* \"#utility.yul\":970:974   */\n      0x00\n        /* \"#utility.yul\":1008:1010   */\n      0x20\n        /* \"#utility.yul\":997:1006   */\n      dup3\n        /* \"#utility.yul\":993:1011   */\n      add\n        /* \"#utility.yul\":985:1011   */\n      swap1\n      pop\n        /* \"#utility.yul\":1057:1066   */\n      dup2\n        /* \"#utility.yul\":1051:1055   */\n      dup2\n        /* \"#utility.yul\":1047:1067   */\n      sub\n        /* \"#utility.yul\":1043:1044   */\n      0x00\n        /* \"#utility.yul\":1032:1041   */\n      dup4\n        /* \"#utility.yul\":1028:1045   */\n      add\n        /* \"#utility.yul\":1021:1068   */\n      mstore\n        /* \"#utility.yul\":1085:1163   */\n      tag_59\n        /* \"#utility.yul\":1158:1162   */\n      dup2\n        /* \"#utility.yul\":1149:1155   */\n      dup5\n        /* \"#utility.yul\":1085:1163   */\n      tag_48\n      jump\t// in\n    tag_59:\n        /* \"#utility.yul\":1077:1163   */\n      swap1\n      pop\n        /* \"#utility.yul\":857:1170   */\n      swap3\n      swap2\n      pop\n      pop\n      jump\t// out\n        /* \"#utility.yul\":1257:1356   */\n    tag_51:\n        /* \"#utility.yul\":1309:1315   */\n      0x00\n        /* \"#utility.yul\":1343:1348   */\n      dup2\n        /* \"#utility.yul\":1337:1349   */\n      mload\n        /* \"#utility.yul\":1327:1349   */\n      swap1\n      pop\n        /* \"#utility.yul\":1257:1356   */\n      swap2\n      swap1\n      pop\n      jump\t// out\n        /* \"#utility.yul\":1362:1531   */\n    tag_53:\n        /* \"#utility.yul\":1446:1457   */\n      0x00\n        /* \"#utility.yul\":1480:1486   */\n      dup3\n        /* \"#utility.yul\":1475:1478   */\n      dup3\n        /* \"#utility.yul\":1468:1487   */\n      mstore\n        /* \"#utility.yul\":1520:1524   */\n      0x20\n        /* \"#utility.yul\":1515:1518   */\n      dup3\n        /* \"#utility.yul\":1511:1525   */\n      add\n        /* \"#utility.yul\":1496:1525   */\n      swap1\n      pop\n        /* \"#utility.yul\":1362:1531   */\n      swap3\n      swap2\n      pop\n      pop\n      jump\t// out\n        /* \"#utility.yul\":1537:1614   */\n    tag_64:\n        /* \"#utility.yul\":1574:1581   */\n      0x00\n        /* \"#utility.yul\":1603:1608   */\n      dup2\n        /* \"#utility.yul\":1592:1608   */\n      swap1\n      pop\n        /* \"#utility.yul\":1537:1614   */\n      swap2\n      swap1\n      pop\n      jump\t// out\n        /* \"#utility.yul\":1620:1927   */\n    tag_55:\n        /* \"#utility.yul\":1688:1689   */\n      0x00\n        /* \"#utility.yul\":1698:1811   */\n    tag_67:\n        /* \"#utility.yul\":1712:1718   */\n      dup4\n        /* \"#utility.yul\":1709:1710   */\n      dup2\n        /* \"#utility.yul\":1706:1719   */\n      lt\n        /* \"#utility.yul\":1698:1811   */\n      iszero\n      tag_69\n      jumpi\n        /* \"#utility.yul\":1797:1798   */\n      dup1\n        /* \"#utility.yul\":1792:1795   */\n      dup3\n        /* \"#utility.yul\":1788:1799   */\n      add\n        /* \"#utility.yul\":1782:1800   */\n      mload\n        /* \"#utility.yul\":1778:1779   */\n      dup2\n        /* \"#utility.yul\":1773:1776   */\n      dup5\n        /* \"#utility.yul\":1769:1780   */\n      add\n        /* \"#utility.yul\":1762:1801   */\n      mstore\n        /* \"#utility.yul\":1734:1736   */\n      0x20\n        /* \"#utility.yul\":1731:1732   */\n      dup2\n        /* \"#utility.yul\":1727:1737   */\n      add\n        /* \"#utility.yul\":1722:1737   */\n      swap1\n      pop\n        /* \"#utility.yul\":1698:1811   */\n      jump(tag_67)\n    tag_69:\n        /* \"#utility.yul\":1829:1835   */\n      dup4\n        /* \"#utility.yul\":1826:1827   */\n      dup2\n        /* \"#utility.yul\":1823:1836   */\n      gt\n        /* \"#utility.yul\":1820:1921   */\n      iszero\n      tag_70\n      jumpi\n        /* \"#utility.yul\":1909:1910   */\n      0x00\n        /* \"#utility.yul\":1900:1906   */\n      dup5\n        /* \"#utility.yul\":1895:1898   */\n      dup5\n        /* \"#utility.yul\":1891:1907   */\n      add\n        /* \"#utility.yul\":1884:1911   */\n      mstore\n        /* \"#utility.yul\":1820:1921   */\n    tag_70:\n        /* \"#utility.yul\":1669:1927   */\n      pop\n        /* \"#utility.yul\":1620:1927   */\n      pop\n      pop\n      pop\n      jump\t// out\n        /* \"#utility.yul\":1933:2253   */\n    tag_16:\n        /* \"#utility.yul\":1977:1983   */\n      0x00\n        /* \"#utility.yul\":2014:2015   */\n      0x02\n        /* \"#utility.yul\":2008:2012   */\n      dup3\n        /* \"#utility.yul\":2004:2016   */\n      div\n        /* \"#utility.yul\":1994:2016   */\n      swap1\n      pop\n        /* \"#utility.yul\":2061:2062   */\n      0x01\n        /* \"#utility.yul\":2055:2059   */\n      dup3\n        /* \"#utility.yul\":2051:2063   */\n      and\n        /* \"#utility.yul\":2082:2100   */\n      dup1\n        /* \"#utility.yul\":2072:2153   */\n      tag_72\n      jumpi\n        /* \"#utility.yul\":2138:2142   */\n      0x7f\n        /* \"#utility.yul\":2130:2136   */\n      dup3\n        /* \"#utility.yul\":2126:2143   */\n      and\n        /* \"#utility.yul\":2116:2143   */\n      swap2\n      pop\n        /* \"#utility.yul\":2072:2153   */\n    tag_72:\n        /* \"#utility.yul\":2200:2202   */\n      0x20\n        /* \"#utility.yul\":2192:2198   */\n      dup3\n        /* \"#utility.yul\":2189:2203   */\n      lt\n        /* \"#utility.yul\":2169:2187   */\n      dup2\n        /* \"#utility.yul\":2166:2204   */\n      eq\n        /* \"#utility.yul\":2163:2247   */\n      iszero\n      tag_73\n      jumpi\n        /* \"#utility.yul\":2219:2237   */\n      tag_74\n      tag_75\n      jump\t// in\n    tag_74:\n        /* \"#utility.yul\":2163:2247   */\n    tag_73:\n        /* \"#utility.yul\":1984:2253   */\n      pop\n        /* \"#utility.yul\":1933:2253   */\n      swap2\n      swap1\n      pop\n      jump\t// out\n        /* \"#utility.yul\":2259:2439   */\n    tag_75:\n        /* \"#utility.yul\":2307:2384   */\n      0x4e487b7100000000000000000000000000000000000000000000000000000000\n        /* \"#utility.yul\":2304:2305   */\n      0x00\n        /* \"#utility.yul\":2297:2385   */\n      mstore\n        /* \"#utility.yul\":2404:2408   */\n      0x22\n        /* \"#utility.yul\":2401:2402   */\n      0x04\n        /* \"#utility.yul\":2394:2409   */\n      mstore\n        /* \"#utility.yul\":2428:2432   */\n      0x24\n        /* \"#utility.yul\":2425:2426   */\n      0x00\n        /* \"#utility.yul\":2418:2433   */\n      revert\n        /* \"#utility.yul\":2445:2625   */\n    tag_24:\n        /* \"#utility.yul\":2493:2570   */\n      0x4e487b7100000000000000000000000000000000000000000000000000000000\n        /* \"#utility.yul\":2490:2491   */\n      0x00\n        /* \"#utility.yul\":2483:2571   */\n      mstore\n        /* \"#utility.yul\":2590:2594   */\n      0x32\n        /* \"#utility.yul\":2587:2588   */\n      0x04\n        /* \"#utility.yul\":2580:2595   */\n      mstore\n        /* \"#utility.yul\":2614:2618   */\n      0x24\n        /* \"#utility.yul\":2611:2612   */\n      0x00\n        /* \"#utility.yul\":2604:2619   */\n      revert\n        /* \"#utility.yul\":2754:2871   */\n    tag_46:\n        /* \"#utility.yul\":2863:2864   */\n      0x00\n        /* \"#utility.yul\":2860:2861   */\n      dup1\n        /* \"#utility.yul\":2853:2865   */\n      revert\n        /* \"#utility.yul\":2877:2979   */\n    tag_57:\n        /* \"#utility.yul\":2918:2924   */\n      0x00\n        /* \"#utility.yul\":2969:2971   */\n      0x1f\n        /* \"#utility.yul\":2965:2972   */\n      not\n        /* \"#utility.yul\":2960:2962   */\n      0x1f\n        /* \"#utility.yul\":2953:2958   */\n      dup4\n        /* \"#utility.yul\":2949:2963   */\n      add\n        /* \"#utility.yul\":2945:2973   */\n      and\n        /* \"#utility.yul\":2935:2973   */\n      swap1\n      pop\n        /* \"#utility.yul\":2877:2979   */\n      swap2\n      swap1\n      pop\n      jump\t// out\n        /* \"#utility.yul\":2985:3107   */\n    tag_42:\n        /* \"#utility.yul\":3058:3082   */\n      tag_83\n        /* \"#utility.yul\":3076:3081   */\n      dup2\n        /* \"#utility.yul\":3058:3082   */\n      tag_64\n      jump\t// in\n    tag_83:\n        /* \"#utility.yul\":3051:3056   */\n      dup2\n        /* \"#utility.yul\":3048:3083   */\n      eq\n        /* \"#utility.yul\":3038:3101   */\n      tag_84\n      jumpi\n        /* \"#utility.yul\":3097:3098   */\n      0x00\n        /* \"#utility.yul\":3094:3095   */\n      dup1\n        /* \"#utility.yul\":3087:3099   */\n      revert\n        /* \"#utility.yul\":3038:3101   */\n    tag_84:\n        /* \"#utility.yul\":2985:3107   */\n      pop\n      jump\t// out\n\n    auxdata: 0xa264697066735822122040f25d155a1d93238cda056774cf273412ecfe9c79742ca75566f00aa015b7ce64736f6c63430008070033\n}\n",
				"bytecode": {
					"linkReferences": {},
					"object": "608060405260405180604001604052806040518060400160405280600381526020017f425443000000000000000000000000000000000000000000000000000000000081525081526020016040518060400160405280600381526020017f455448000000000000000000000000000000000000000000000000000000000081525081525060009060026100939291906100a6565b503480156100a057600080fd5b5061026e565b8280548282559060005260206000209081019282156100f5579160200282015b828111156100f45782518290805190602001906100e4929190610106565b50916020019190600101906100c6565b5b509050610102919061018c565b5090565b8280546101129061020d565b90600052602060002090601f016020900481019282610134576000855561017b565b82601f1061014d57805160ff191683800117855561017b565b8280016001018555821561017b579182015b8281111561017a57825182559160200191906001019061015f565b5b50905061018891906101b0565b5090565b5b808211156101ac57600081816101a391906101cd565b5060010161018d565b5090565b5b808211156101c95760008160009055506001016101b1565b5090565b5080546101d99061020d565b6000825580601f106101eb575061020a565b601f01602090049060005260206000209081019061020991906101b0565b5b50565b6000600282049050600182168061022557607f821691505b602082108114156102395761023861023f565b5b50919050565b7f4e487b7100000000000000000000000000000000000000000000000000000000600052602260045260246000fd5b61041a8061027d6000396000f3fe608060405234801561001057600080fd5b50600436106100365760003560e01c80634f64b2be1461003b578063a9a51f891461006b575b600080fd5b61005560048036038101906100509190610246565b610075565b60405161006291906102ac565b60405180910390f35b610073610121565b005b6000818154811061008557600080fd5b9060005260206000200160009150905080546100a090610327565b80601f01602080910402602001604051908101604052809291908181526020018280546100cc90610327565b80156101195780601f106100ee57610100808354040283529160200191610119565b820191906000526020600020905b8154815290600101906020018083116100fc57829003601f168201915b505050505081565b60006040518060400160405280600381526020017f56455400000000000000000000000000000000000000000000000000000000008152508160008154811061016d5761016c610388565b5b90600052602060002001908051906020019061018a92919061018e565b5050565b82805461019a90610327565b90600052602060002090601f0160209004810192826101bc5760008555610203565b82601f106101d557805160ff1916838001178555610203565b82800160010185558215610203579182015b828111156102025782518255916020019190600101906101e7565b5b5090506102109190610214565b5090565b5b8082111561022d576000816000905550600101610215565b5090565b600081359050610240816103cd565b92915050565b60006020828403121561025c5761025b6103b7565b5b600061026a84828501610231565b91505092915050565b600061027e826102ce565b61028881856102d9565b93506102988185602086016102f4565b6102a1816103bc565b840191505092915050565b600060208201905081810360008301526102c68184610273565b905092915050565b600081519050919050565b600082825260208201905092915050565b6000819050919050565b60005b838110156103125780820151818401526020810190506102f7565b83811115610321576000848401525b50505050565b6000600282049050600182168061033f57607f821691505b6020821081141561035357610352610359565b5b50919050565b7f4e487b7100000000000000000000000000000000000000000000000000000000600052602260045260246000fd5b7f4e487b7100000000000000000000000000000000000000000000000000000000600052603260045260246000fd5b600080fd5b6000601f19601f8301169050919050565b6103d6816102ea565b81146103e157600080fd5b5056fea264697066735822122040f25d155a1d93238cda056774cf273412ecfe9c79742ca75566f00aa015b7ce64736f6c63430008070033",
					"opcodes": "PUSH1 0x80 PUSH1 0x40 MSTORE PUSH1 0x40 MLOAD DUP1 PUSH1 0x40 ADD PUSH1 0x40 MSTORE DUP1 PUSH1 0x40 MLOAD DUP1 PUSH1 0x40 ADD PUSH1 0x40 MSTORE DUP1 PUSH1 0x3 DUP2 MSTORE PUSH1 0x20 ADD PUSH32 0x4254430000000000000000000000000000000000000000000000000000000000 DUP2 MSTORE POP DUP2 MSTORE PUSH1 0x20 ADD PUSH1 0x40 MLOAD DUP1 PUSH1 0x40 ADD PUSH1 0x40 MSTORE DUP1 PUSH1 0x3 DUP2 MSTORE PUSH1 0x20 ADD PUSH32 0x4554480000000000000000000000000000000000000000000000000000000000 DUP2 MSTORE POP DUP2 MSTORE POP PUSH1 0x0 SWAP1 PUSH1 0x2 PUSH2 0x93 SWAP3 SWAP2 SWAP1 PUSH2 0xA6 JUMP JUMPDEST POP CALLVALUE DUP1 ISZERO PUSH2 0xA0 JUMPI PUSH1 0x0 DUP1 REVERT JUMPDEST POP PUSH2 0x26E JUMP JUMPDEST DUP3 DUP1 SLOAD DUP3 DUP3 SSTORE SWAP1 PUSH1 0x0 MSTORE PUSH1 0x20 PUSH1 0x0 KECCAK256 SWAP1 DUP2 ADD SWAP3 DUP3 ISZERO PUSH2 0xF5 JUMPI SWAP2 PUSH1 0x20 MUL DUP3 ADD JUMPDEST DUP3 DUP2 GT ISZERO PUSH2 0xF4 JUMPI DUP3 MLOAD DUP3 SWAP1 DUP1 MLOAD SWAP1 PUSH1 0x20 ADD SWAP1 PUSH2 0xE4 SWAP3 SWAP2 SWAP1 PUSH2 0x106 JUMP JUMPDEST POP SWAP2 PUSH1 0x20 ADD SWAP2 SWAP1 PUSH1 0x1 ADD SWAP1 PUSH2 0xC6 JUMP JUMPDEST JUMPDEST POP SWAP1 POP PUSH2 0x102 SWAP2 SWAP1 PUSH2 0x18C JUMP JUMPDEST POP SWAP1 JUMP JUMPDEST DUP3 DUP1 SLOAD PUSH2 0x112 SWAP1 PUSH2 0x20D JUMP JUMPDEST SWAP1 PUSH1 0x0 MSTORE PUSH1 0x20 PUSH1 0x0 KECCAK256 SWAP1 PUSH1 0x1F ADD PUSH1 0x20 SWAP1 DIV DUP2 ADD SWAP3 DUP3 PUSH2 0x134 JUMPI PUSH1 0x0 DUP6 SSTORE PUSH2 0x17B JUMP JUMPDEST DUP3 PUSH1 0x1F LT PUSH2 0x14D JUMPI DUP1 MLOAD PUSH1 0xFF NOT AND DUP4 DUP1 ADD OR DUP6 SSTORE PUSH2 0x17B JUMP JUMPDEST DUP3 DUP1 ADD PUSH1 0x1 ADD DUP6 SSTORE DUP3 ISZERO PUSH2 0x17B JUMPI SWAP2 DUP3 ADD JUMPDEST DUP3 DUP2 GT ISZERO PUSH2 0x17A JUMPI DUP3 MLOAD DUP3 SSTORE SWAP2 PUSH1 0x20 ADD SWAP2 SWAP1 PUSH1 0x1 ADD SWAP1 PUSH2 0x15F JUMP JUMPDEST JUMPDEST POP SWAP1 POP PUSH2 0x188 SWAP2 SWAP1 PUSH2 0x1B0 JUMP JUMPDEST POP SWAP1 JUMP JUMPDEST JUMPDEST DUP1 DUP3 GT ISZERO PUSH2 0x1AC JUMPI PUSH1 0x0 DUP2 DUP2 PUSH2 0x1A3 SWAP2 SWAP1 PUSH2 0x1CD JUMP JUMPDEST POP PUSH1 0x1 ADD PUSH2 0x18D JUMP JUMPDEST POP SWAP1 JUMP JUMPDEST JUMPDEST DUP1 DUP3 GT ISZERO PUSH2 0x1C9 JUMPI PUSH1 0x0 DUP2 PUSH1 0x0 SWAP1 SSTORE POP PUSH1 0x1 ADD PUSH2 0x1B1 JUMP JUMPDEST POP SWAP1 JUMP JUMPDEST POP DUP1 SLOAD PUSH2 0x1D9 SWAP1 PUSH2 0x20D JUMP JUMPDEST PUSH1 0x0 DUP3 SSTORE DUP1 PUSH1 0x1F LT PUSH2 0x1EB JUMPI POP PUSH2 0x20A JUMP JUMPDEST PUSH1 0x1F ADD PUSH1 0x20 SWAP1 DIV SWAP1 PUSH1 0x0 MSTORE PUSH1 0x20 PUSH1 0x0 KECCAK256 SWAP1 DUP2 ADD SWAP1 PUSH2 0x209 SWAP2 SWAP1 PUSH2 0x1B0 JUMP JUMPDEST JUMPDEST POP JUMP JUMPDEST PUSH1 0x0 PUSH1 0x2 DUP3 DIV SWAP1 POP PUSH1 0x1 DUP3 AND DUP1 PUSH2 0x225 JUMPI PUSH1 0x7F DUP3 AND SWAP2 POP JUMPDEST PUSH1 0x20 DUP3 LT DUP2 EQ ISZERO PUSH2 0x239 JUMPI PUSH2 0x238 PUSH2 0x23F JUMP JUMPDEST JUMPDEST POP SWAP2 SWAP1 POP JUMP JUMPDEST PUSH32 0x4E487B7100000000000000000000000000000000000000000000000000000000 PUSH1 0x0 MSTORE PUSH1 0x22 PUSH1 0x4 MSTORE PUSH1 0x24 PUSH1 0x0 REVERT JUMPDEST PUSH2 0x41A DUP1 PUSH2 0x27D PUSH1 0x0 CODECOPY PUSH1 0x0 RETURN INVALID PUSH1 0x80 PUSH1 0x40 MSTORE CALLVALUE DUP1 ISZERO PUSH2 0x10 JUMPI PUSH1 0x0 DUP1 REVERT JUMPDEST POP PUSH1 0x4 CALLDATASIZE LT PUSH2 0x36 JUMPI PUSH1 0x0 CALLDATALOAD PUSH1 0xE0 SHR DUP1 PUSH4 0x4F64B2BE EQ PUSH2 0x3B JUMPI DUP1 PUSH4 0xA9A51F89 EQ PUSH2 0x6B JUMPI JUMPDEST PUSH1 0x0 DUP1 REVERT JUMPDEST PUSH2 0x55 PUSH1 0x4 DUP1 CALLDATASIZE SUB DUP2 ADD SWAP1 PUSH2 0x50 SWAP2 SWAP1 PUSH2 0x246 JUMP JUMPDEST PUSH2 0x75 JUMP JUMPDEST PUSH1 0x40 MLOAD PUSH2 0x62 SWAP2 SWAP1 PUSH2 0x2AC JUMP JUMPDEST PUSH1 0x40 MLOAD DUP1 SWAP2 SUB SWAP1 RETURN JUMPDEST PUSH2 0x73 PUSH2 0x121 JUMP JUMPDEST STOP JUMPDEST PUSH1 0x0 DUP2 DUP2 SLOAD DUP2 LT PUSH2 0x85 JUMPI PUSH1 0x0 DUP1 REVERT JUMPDEST SWAP1 PUSH1 0x0 MSTORE PUSH1 0x20 PUSH1 0x0 KECCAK256 ADD PUSH1 0x0 SWAP2 POP SWAP1 POP DUP1 SLOAD PUSH2 0xA0 SWAP1 PUSH2 0x327 JUMP JUMPDEST DUP1 PUSH1 0x1F ADD PUSH1 0x20 DUP1 SWAP2 DIV MUL PUSH1 0x20 ADD PUSH1 0x40 MLOAD SWAP1 DUP2 ADD PUSH1 0x40 MSTORE DUP1 SWAP3 SWAP2 SWAP1 DUP2 DUP2 MSTORE PUSH1 0x20 ADD DUP3 DUP1 SLOAD PUSH2 0xCC SWAP1 PUSH2 0x327 JUMP JUMPDEST DUP1 ISZERO PUSH2 0x119 JUMPI DUP1 PUSH1 0x1F LT PUSH2 0xEE JUMPI PUSH2 0x100 DUP1 DUP4 SLOAD DIV MUL DUP4 MSTORE SWAP2 PUSH1 0x20 ADD SWAP2 PUSH2 0x119 JUMP JUMPDEST DUP3 ADD SWAP2 SWAP1 PUSH1 0x0 MSTORE PUSH1 0x20 PUSH1 0x0 KECCAK256 SWAP1 JUMPDEST DUP2 SLOAD DUP2 MSTORE SWAP1 PUSH1 0x1 ADD SWAP1 PUSH1 0x20 ADD DUP1 DUP4 GT PUSH2 0xFC JUMPI DUP3 SWAP1 SUB PUSH1 0x1F AND DUP3 ADD SWAP2 JUMPDEST POP POP POP POP POP DUP2 JUMP JUMPDEST PUSH1 0x0 PUSH1 0x40 MLOAD DUP1 PUSH1 0x40 ADD PUSH1 0x40 MSTORE DUP1 PUSH1 0x3 DUP2 MSTORE PUSH1 0x20 ADD PUSH32 0x5645540000000000000000000000000000000000000000000000000000000000 DUP2 MSTORE POP DUP2 PUSH1 0x0 DUP2 SLOAD DUP2 LT PUSH2 0x16D JUMPI PUSH2 0x16C PUSH2 0x388 JUMP JUMPDEST JUMPDEST SWAP1 PUSH1 0x0 MSTORE PUSH1 0x20 PUSH1 0x0 KECCAK256 ADD SWAP1 DUP1 MLOAD SWAP1 PUSH1 0x20 ADD SWAP1 PUSH2 0x18A SWAP3 SWAP2 SWAP1 PUSH2 0x18E JUMP JUMPDEST POP POP JUMP JUMPDEST DUP3 DUP1 SLOAD PUSH2 0x19A SWAP1 PUSH2 0x327 JUMP JUMPDEST SWAP1 PUSH1 0x0 MSTORE PUSH1 0x20 PUSH1 0x0 KECCAK256 SWAP1 PUSH1 0x1F ADD PUSH1 0x20 SWAP1 DIV DUP2 ADD SWAP3 DUP3 PUSH2 0x1BC JUMPI PUSH1 0x0 DUP6 SSTORE PUSH2 0x203 JUMP JUMPDEST DUP3 PUSH1 0x1F LT PUSH2 0x1D5 JUMPI DUP1 MLOAD PUSH1 0xFF NOT AND DUP4 DUP1 ADD OR DUP6 SSTORE PUSH2 0x203 JUMP JUMPDEST DUP3 DUP1 ADD PUSH1 0x1 ADD DUP6 SSTORE DUP3 ISZERO PUSH2 0x203 JUMPI SWAP2 DUP3 ADD JUMPDEST DUP3 DUP2 GT ISZERO PUSH2 0x202 JUMPI DUP3 MLOAD DUP3 SSTORE SWAP2 PUSH1 0x20 ADD SWAP2 SWAP1 PUSH1 0x1 ADD SWAP1 PUSH2 0x1E7 JUMP JUMPDEST JUMPDEST POP SWAP1 POP PUSH2 0x210 SWAP2 SWAP1 PUSH2 0x214 JUMP JUMPDEST POP SWAP1 JUMP JUMPDEST JUMPDEST DUP1 DUP3 GT ISZERO PUSH2 0x22D JUMPI PUSH1 0x0 DUP2 PUSH1 0x0 SWAP1 SSTORE POP PUSH1 0x1 ADD PUSH2 0x215 JUMP JUMPDEST POP SWAP1 JUMP JUMPDEST PUSH1 0x0 DUP2 CALLDATALOAD SWAP1 POP PUSH2 0x240 DUP2 PUSH2 0x3CD JUMP JUMPDEST SWAP3 SWAP2 POP POP JUMP JUMPDEST PUSH1 0x0 PUSH1 0x20 DUP3 DUP5 SUB SLT ISZERO PUSH2 0x25C JUMPI PUSH2 0x25B PUSH2 0x3B7 JUMP JUMPDEST JUMPDEST PUSH1 0x0 PUSH2 0x26A DUP5 DUP3 DUP6 ADD PUSH2 0x231 JUMP JUMPDEST SWAP2 POP POP SWAP3 SWAP2 POP POP JUMP JUMPDEST PUSH1 0x0 PUSH2 0x27E DUP3 PUSH2 0x2CE JUMP JUMPDEST PUSH2 0x288 DUP2 DUP6 PUSH2 0x2D9 JUMP JUMPDEST SWAP4 POP PUSH2 0x298 DUP2 DUP6 PUSH1 0x20 DUP7 ADD PUSH2 0x2F4 JUMP JUMPDEST PUSH2 0x2A1 DUP2 PUSH2 0x3BC JUMP JUMPDEST DUP5 ADD SWAP2 POP POP SWAP3 SWAP2 POP POP JUMP JUMPDEST PUSH1 0x0 PUSH1 0x20 DUP3 ADD SWAP1 POP DUP2 DUP2 SUB PUSH1 0x0 DUP4 ADD MSTORE PUSH2 0x2C6 DUP2 DUP5 PUSH2 0x273 JUMP JUMPDEST SWAP1 POP SWAP3 SWAP2 POP POP JUMP JUMPDEST PUSH1 0x0 DUP2 MLOAD SWAP1 POP SWAP2 SWAP1 POP JUMP JUMPDEST PUSH1 0x0 DUP3 DUP3 MSTORE PUSH1 0x20 DUP3 ADD SWAP1 POP SWAP3 SWAP2 POP POP JUMP JUMPDEST PUSH1 0x0 DUP2 SWAP1 POP SWAP2 SWAP1 POP JUMP JUMPDEST PUSH1 0x0 JUMPDEST DUP4 DUP2 LT ISZERO PUSH2 0x312 JUMPI DUP1 DUP3 ADD MLOAD DUP2 DUP5 ADD MSTORE PUSH1 0x20 DUP2 ADD SWAP1 POP PUSH2 0x2F7 JUMP JUMPDEST DUP4 DUP2 GT ISZERO PUSH2 0x321 JUMPI PUSH1 0x0 DUP5 DUP5 ADD MSTORE JUMPDEST POP POP POP POP JUMP JUMPDEST PUSH1 0x0 PUSH1 0x2 DUP3 DIV SWAP1 POP PUSH1 0x1 DUP3 AND DUP1 PUSH2 0x33F JUMPI PUSH1 0x7F DUP3 AND SWAP2 POP JUMPDEST PUSH1 0x20 DUP3 LT DUP2 EQ ISZERO PUSH2 0x353 JUMPI PUSH2 0x352 PUSH2 0x359 JUMP JUMPDEST JUMPDEST POP SWAP2 SWAP1 POP JUMP JUMPDEST PUSH32 0x4E487B7100000000000000000000000000000000000000000000000000000000 PUSH1 0x0 MSTORE PUSH1 0x22 PUSH1 0x4 MSTORE PUSH1 0x24 PUSH1 0x0 REVERT JUMPDEST PUSH32 0x4E487B7100000000000000000000000000000000000000000000000000000000 PUSH1 0x0 MSTORE PUSH1 0x32 PUSH1 0x4 MSTORE PUSH1 0x24 PUSH1 0x0 REVERT JUMPDEST PUSH1 0x0 DUP1 REVERT JUMPDEST PUSH1 0x0 PUSH1 0x1F NOT PUSH1 0x1F DUP4 ADD AND SWAP1 POP SWAP2 SWAP1 POP JUMP JUMPDEST PUSH2 0x3D6 DUP2 PUSH2 0x2EA JUMP JUMPDEST DUP2 EQ PUSH2 0x3E1 JUMPI PUSH1 0x0 DUP1 REVERT JUMPDEST POP JUMP INVALID LOG2 PUSH5 0x6970667358 0x22 SLT KECCAK256 BLOCKHASH CALLCODE 0x5D ISZERO GAS SAR SWAP4 0x23 DUP13 0xDA SDIV PUSH8 0x74CF273412ECFE9C PUSH26 0x742CA75566F00AA015B7CE64736F6C6343000807003300000000 "
				},
				"gasEstimates": {
					"creation": {
						"codeDepositCost": "210000",
						"executionCost": "infinite",
						"totalCost": "infinite"
					},
					"external": {
						"changeTokens()": "infinite",
						"tokens(uint256)": "infinite"
					}
				},
				"methodIdentifiers": {
					"changeTokens()": "a9a51f89",
					"tokens(uint256)": "4f64b2be"
				}
			},
			"storageLayout": {
				"storage": [
					{
						"astId": 54,
						"contract": "contracts/challenge1.sol:MyTokens",
						"label": "tokens",
						"offset": 0,
						"slot": "0",
						"type": "t_array(t_string_storage)dyn_storage"
					}
				],
				"types": {
					"t_array(t_string_storage)dyn_storage": {
						"base": "t_string_storage",
						"encoding": "dynamic_array",
						"label": "string[]",
						"numberOfBytes": "32"
					},
					"t_string_storage": {
						"encoding": "bytes",
						"label": "string",
						"numberOfBytes": "32"
					}
				}
			},
			"userdoc": {
				"kind": "user",
				"methods": {},
				"version": 1
			}
		}
	}
}