{
	"contracts/inheritance.sol": {
		"A": {
			"abi": [
				{
					"inputs": [],
					"name": "owner",
					"outputs": [
						{
							"internalType": "address",
							"name": "",
							"type": "address"
						}
					],
					"stateMutability": "view",
					"type": "function"
				},
				{
					"inputs": [],
					"name": "q",
					"outputs": [
						{
							"internalType": "int256",
							"name": "",
							"type": "int256"
						}
					],
					"stateMutability": "view",
					"type": "function"
				},
				{
					"inputs": [
						{
							"internalType": "int256",
							"name": "_q",
							"type": "int256"
						}
					],
					"name": "setQ",
					"outputs": [],
					"stateMutability": "nonpayable",
					"type": "function"
				},
				{
					"inputs": [
						{
							"internalType": "int256",
							"name": "_x",
							"type": "int256"
						}
					],
					"name": "setX",
					"outputs": [],
					"stateMutability": "nonpayable",
					"type": "function"
				},
				{
					"inputs": [],
					"name": "x",
					"outputs": [
						{
							"internalType": "int256",
							"name": "",
							"type": "int256"
						}
					],
					"stateMutability": "view",
					"type": "function"
				},
				{
					"inputs": [],
					"name": "y",
					"outputs": [
						{
							"internalType": "int256",
							"name": "",
							"type": "int256"
						}
					],
					"stateMutability": "view",
					"type": "function"
				}
			],
			"devdoc": {
				"kind": "dev",
				"methods": {},
				"version": 1
			},
			"evm": {
				"assembly": "    /* \"contracts/inheritance.sol\":753:1058  contract A is BaseContract{\r... */\n  mstore(0x40, 0x80)\n    /* \"contracts/inheritance.sol\":852:853  4 */\n  0x04\n    /* \"contracts/inheritance.sol\":837:853  int public y = 4 */\n  0x02\n  sstore\n    /* \"contracts/inheritance.sol\":753:1058  contract A is BaseContract{\r... */\n  callvalue\n  dup1\n  iszero\n  tag_1\n  jumpi\n  0x00\n  dup1\n  revert\ntag_1:\n  pop\n    /* \"contracts/inheritance.sol\":407:408  5 */\n  0x05\n    /* \"contracts/inheritance.sol\":403:404  x */\n  0x00\n    /* \"contracts/inheritance.sol\":403:408  x = 5 */\n  dup2\n  swap1\n  sstore\n  pop\n    /* \"contracts/inheritance.sol\":427:437  msg.sender */\n  caller\n    /* \"contracts/inheritance.sol\":419:424  owner */\n  0x01\n  0x00\n    /* \"contracts/inheritance.sol\":419:437  owner = msg.sender */\n  0x0100\n  exp\n  dup2\n  sload\n  dup2\n  0xffffffffffffffffffffffffffffffffffffffff\n  mul\n  not\n  and\n  swap1\n  dup4\n  0xffffffffffffffffffffffffffffffffffffffff\n  and\n  mul\n  or\n  swap1\n  sstore\n  pop\n    /* \"contracts/inheritance.sol\":753:1058  contract A is BaseContract{\r... */\n  dataSize(sub_0)\n  dup1\n  dataOffset(sub_0)\n  0x00\n  codecopy\n  0x00\n  return\nstop\n\nsub_0: assembly {\n        /* \"contracts/inheritance.sol\":753:1058  contract A is BaseContract{\r... */\n      mstore(0x40, 0x80)\n      callvalue\n      dup1\n      iszero\n      tag_1\n      jumpi\n      0x00\n      dup1\n      revert\n    tag_1:\n      pop\n      jumpi(tag_2, lt(calldatasize, 0x04))\n      shr(0xe0, calldataload(0x00))\n      dup1\n      0x0c55699c\n      eq\n      tag_3\n      jumpi\n      dup1\n      0x8da5cb5b\n      eq\n      tag_4\n      jumpi\n      dup1\n      0xa0fc4994\n      eq\n      tag_5\n      jumpi\n      dup1\n      0xa1cbb085\n      eq\n      tag_6\n      jumpi\n      dup1\n      0xa56dfe4a\n      eq\n      tag_7\n      jumpi\n      dup1\n      0xfd3ab282\n      eq\n      tag_8\n      jumpi\n    tag_2:\n      0x00\n      dup1\n      revert\n        /* \"contracts/inheritance.sol\":304:316  int public x */\n    tag_3:\n      tag_9\n      tag_10\n      jump\t// in\n    tag_9:\n      mload(0x40)\n      tag_11\n      swap2\n      swap1\n      tag_12\n      jump\t// in\n    tag_11:\n      mload(0x40)\n      dup1\n      swap2\n      sub\n      swap1\n      return\n        /* \"contracts/inheritance.sol\":323:343  address public owner */\n    tag_4:\n      tag_13\n      tag_14\n      jump\t// in\n    tag_13:\n      mload(0x40)\n      tag_15\n      swap2\n      swap1\n      tag_16\n      jump\t// in\n    tag_15:\n      mload(0x40)\n      dup1\n      swap2\n      sub\n      swap1\n      return\n        /* \"contracts/inheritance.sol\":493:550  function setX(int _x) public{\r... */\n    tag_5:\n      tag_17\n      0x04\n      dup1\n      calldatasize\n      sub\n      dup2\n      add\n      swap1\n      tag_18\n      swap2\n      swap1\n      tag_19\n      jump\t// in\n    tag_18:\n      tag_20\n      jump\t// in\n    tag_17:\n      stop\n        /* \"contracts/inheritance.sol\":991:1053  function setQ(int _q) public override{\r... */\n    tag_6:\n      tag_21\n      0x04\n      dup1\n      calldatasize\n      sub\n      dup2\n      add\n      swap1\n      tag_22\n      swap2\n      swap1\n      tag_19\n      jump\t// in\n    tag_22:\n      tag_23\n      jump\t// in\n    tag_21:\n      stop\n        /* \"contracts/inheritance.sol\":837:853  int public y = 4 */\n    tag_7:\n      tag_24\n      tag_25\n      jump\t// in\n    tag_24:\n      mload(0x40)\n      tag_26\n      swap2\n      swap1\n      tag_12\n      jump\t// in\n    tag_26:\n      mload(0x40)\n      dup1\n      swap2\n      sub\n      swap1\n      return\n        /* \"contracts/inheritance.sol\":862:874  int public q */\n    tag_8:\n      tag_27\n      tag_28\n      jump\t// in\n    tag_27:\n      mload(0x40)\n      tag_29\n      swap2\n      swap1\n      tag_12\n      jump\t// in\n    tag_29:\n      mload(0x40)\n      dup1\n      swap2\n      sub\n      swap1\n      return\n        /* \"contracts/inheritance.sol\":304:316  int public x */\n    tag_10:\n      sload(0x00)\n      dup2\n      jump\t// out\n        /* \"contracts/inheritance.sol\":323:343  address public owner */\n    tag_14:\n      0x01\n      0x00\n      swap1\n      sload\n      swap1\n      0x0100\n      exp\n      swap1\n      div\n      0xffffffffffffffffffffffffffffffffffffffff\n      and\n      dup2\n      jump\t// out\n        /* \"contracts/inheritance.sol\":493:550  function setX(int _x) public{\r... */\n    tag_20:\n        /* \"contracts/inheritance.sol\":538:540  _x */\n      dup1\n        /* \"contracts/inheritance.sol\":534:535  x */\n      0x00\n        /* \"contracts/inheritance.sol\":534:540  x = _x */\n      dup2\n      swap1\n      sstore\n      pop\n        /* \"contracts/inheritance.sol\":493:550  function setX(int _x) public{\r... */\n      pop\n      jump\t// out\n        /* \"contracts/inheritance.sol\":991:1053  function setQ(int _q) public override{\r... */\n    tag_23:\n        /* \"contracts/inheritance.sol\":1043:1045  _q */\n      dup1\n        /* \"contracts/inheritance.sol\":1039:1040  q */\n      0x03\n        /* \"contracts/inheritance.sol\":1039:1045  q = _q */\n      dup2\n      swap1\n      sstore\n      pop\n        /* \"contracts/inheritance.sol\":991:1053  function setQ(int _q) public override{\r... */\n      pop\n      jump\t// out\n        /* \"contracts/inheritance.sol\":837:853  int public y = 4 */\n    tag_25:\n      sload(0x02)\n      dup2\n      jump\t// out\n        /* \"contracts/inheritance.sol\":862:874  int public q */\n    tag_28:\n      sload(0x03)\n      dup2\n      jump\t// out\n        /* \"#utility.yul\":7:144   */\n    tag_33:\n        /* \"#utility.yul\":52:57   */\n      0x00\n        /* \"#utility.yul\":90:96   */\n      dup2\n        /* \"#utility.yul\":77:97   */\n      calldataload\n        /* \"#utility.yul\":68:97   */\n      swap1\n      pop\n        /* \"#utility.yul\":106:138   */\n      tag_35\n        /* \"#utility.yul\":132:137   */\n      dup2\n        /* \"#utility.yul\":106:138   */\n      tag_36\n      jump\t// in\n    tag_35:\n        /* \"#utility.yul\":7:144   */\n      swap3\n      swap2\n      pop\n      pop\n      jump\t// out\n        /* \"#utility.yul\":150:477   */\n    tag_19:\n        /* \"#utility.yul\":208:214   */\n      0x00\n        /* \"#utility.yul\":257:259   */\n      0x20\n        /* \"#utility.yul\":245:254   */\n      dup3\n        /* \"#utility.yul\":236:243   */\n      dup5\n        /* \"#utility.yul\":232:255   */\n      sub\n        /* \"#utility.yul\":228:260   */\n      slt\n        /* \"#utility.yul\":225:344   */\n      iszero\n      tag_38\n      jumpi\n        /* \"#utility.yul\":263:342   */\n      tag_39\n      tag_40\n      jump\t// in\n    tag_39:\n        /* \"#utility.yul\":225:344   */\n    tag_38:\n        /* \"#utility.yul\":383:384   */\n      0x00\n        /* \"#utility.yul\":408:460   */\n      tag_41\n        /* \"#utility.yul\":452:459   */\n      dup5\n        /* \"#utility.yul\":443:449   */\n      dup3\n        /* \"#utility.yul\":432:441   */\n      dup6\n        /* \"#utility.yul\":428:450   */\n      add\n        /* \"#utility.yul\":408:460   */\n      tag_33\n      jump\t// in\n    tag_41:\n        /* \"#utility.yul\":398:460   */\n      swap2\n      pop\n        /* \"#utility.yul\":354:470   */\n      pop\n        /* \"#utility.yul\":150:477   */\n      swap3\n      swap2\n      pop\n      pop\n      jump\t// out\n        /* \"#utility.yul\":483:601   */\n    tag_42:\n        /* \"#utility.yul\":570:594   */\n      tag_44\n        /* \"#utility.yul\":588:593   */\n      dup2\n        /* \"#utility.yul\":570:594   */\n      tag_45\n      jump\t// in\n    tag_44:\n        /* \"#utility.yul\":565:568   */\n      dup3\n        /* \"#utility.yul\":558:595   */\n      mstore\n        /* \"#utility.yul\":483:601   */\n      pop\n      pop\n      jump\t// out\n        /* \"#utility.yul\":607:722   */\n    tag_46:\n        /* \"#utility.yul\":692:715   */\n      tag_48\n        /* \"#utility.yul\":709:714   */\n      dup2\n        /* \"#utility.yul\":692:715   */\n      tag_49\n      jump\t// in\n    tag_48:\n        /* \"#utility.yul\":687:690   */\n      dup3\n        /* \"#utility.yul\":680:716   */\n      mstore\n        /* \"#utility.yul\":607:722   */\n      pop\n      pop\n      jump\t// out\n        /* \"#utility.yul\":728:950   */\n    tag_16:\n        /* \"#utility.yul\":821:825   */\n      0x00\n        /* \"#utility.yul\":859:861   */\n      0x20\n        /* \"#utility.yul\":848:857   */\n      dup3\n        /* \"#utility.yul\":844:862   */\n      add\n        /* \"#utility.yul\":836:862   */\n      swap1\n      pop\n        /* \"#utility.yul\":872:943   */\n      tag_51\n        /* \"#utility.yul\":940:941   */\n      0x00\n        /* \"#utility.yul\":929:938   */\n      dup4\n        /* \"#utility.yul\":925:942   */\n      add\n        /* \"#utility.yul\":916:922   */\n      dup5\n        /* \"#utility.yul\":872:943   */\n      tag_42\n      jump\t// in\n    tag_51:\n        /* \"#utility.yul\":728:950   */\n      swap3\n      swap2\n      pop\n      pop\n      jump\t// out\n        /* \"#utility.yul\":956:1174   */\n    tag_12:\n        /* \"#utility.yul\":1047:1051   */\n      0x00\n        /* \"#utility.yul\":1085:1087   */\n      0x20\n        /* \"#utility.yul\":1074:1083   */\n      dup3\n        /* \"#utility.yul\":1070:1088   */\n      add\n        /* \"#utility.yul\":1062:1088   */\n      swap1\n      pop\n        /* \"#utility.yul\":1098:1167   */\n      tag_53\n        /* \"#utility.yul\":1164:1165   */\n      0x00\n        /* \"#utility.yul\":1153:1162   */\n      dup4\n        /* \"#utility.yul\":1149:1166   */\n      add\n        /* \"#utility.yul\":1140:1146   */\n      dup5\n        /* \"#utility.yul\":1098:1167   */\n      tag_46\n      jump\t// in\n    tag_53:\n        /* \"#utility.yul\":956:1174   */\n      swap3\n      swap2\n      pop\n      pop\n      jump\t// out\n        /* \"#utility.yul\":1261:1357   */\n    tag_45:\n        /* \"#utility.yul\":1298:1305   */\n      0x00\n        /* \"#utility.yul\":1327:1351   */\n      tag_57\n        /* \"#utility.yul\":1345:1350   */\n      dup3\n        /* \"#utility.yul\":1327:1351   */\n      tag_58\n      jump\t// in\n    tag_57:\n        /* \"#utility.yul\":1316:1351   */\n      swap1\n      pop\n        /* \"#utility.yul\":1261:1357   */\n      swap2\n      swap1\n      pop\n      jump\t// out\n        /* \"#utility.yul\":1363:1439   */\n    tag_49:\n        /* \"#utility.yul\":1399:1406   */\n      0x00\n        /* \"#utility.yul\":1428:1433   */\n      dup2\n        /* \"#utility.yul\":1417:1433   */\n      swap1\n      pop\n        /* \"#utility.yul\":1363:1439   */\n      swap2\n      swap1\n      pop\n      jump\t// out\n        /* \"#utility.yul\":1445:1571   */\n    tag_58:\n        /* \"#utility.yul\":1482:1489   */\n      0x00\n        /* \"#utility.yul\":1522:1564   */\n      0xffffffffffffffffffffffffffffffffffffffff\n        /* \"#utility.yul\":1515:1520   */\n      dup3\n        /* \"#utility.yul\":1511:1565   */\n      and\n        /* \"#utility.yul\":1500:1565   */\n      swap1\n      pop\n        /* \"#utility.yul\":1445:1571   */\n      swap2\n      swap1\n      pop\n      jump\t// out\n        /* \"#utility.yul\":1700:1817   */\n    tag_40:\n        /* \"#utility.yul\":1809:1810   */\n      0x00\n        /* \"#utility.yul\":1806:1807   */\n      dup1\n        /* \"#utility.yul\":1799:1811   */\n      revert\n        /* \"#utility.yul\":1823:1943   */\n    tag_36:\n        /* \"#utility.yul\":1895:1918   */\n      tag_65\n        /* \"#utility.yul\":1912:1917   */\n      dup2\n        /* \"#utility.yul\":1895:1918   */\n      tag_49\n      jump\t// in\n    tag_65:\n        /* \"#utility.yul\":1888:1893   */\n      dup2\n        /* \"#utility.yul\":1885:1919   */\n      eq\n        /* \"#utility.yul\":1875:1937   */\n      tag_66\n      jumpi\n        /* \"#utility.yul\":1933:1934   */\n      0x00\n        /* \"#utility.yul\":1930:1931   */\n      dup1\n        /* \"#utility.yul\":1923:1935   */\n      revert\n        /* \"#utility.yul\":1875:1937   */\n    tag_66:\n        /* \"#utility.yul\":1823:1943   */\n      pop\n      jump\t// out\n\n    auxdata: 0xa2646970667358221220c2b2e408a9fd989c6d856188c68b4cfd8ac514db1378da5f0e319ab4186bea5764736f6c63430008070033\n}\n",
				"bytecode": {
					"linkReferences": {},
					"object": "6080604052600460025534801561001557600080fd5b50600560008190555033600160006101000a81548173ffffffffffffffffffffffffffffffffffffffff021916908373ffffffffffffffffffffffffffffffffffffffff1602179055506102878061006e6000396000f3fe608060405234801561001057600080fd5b50600436106100625760003560e01c80630c55699c146100675780638da5cb5b14610085578063a0fc4994146100a3578063a1cbb085146100bf578063a56dfe4a146100db578063fd3ab282146100f9575b600080fd5b61006f610117565b60405161007c91906101de565b60405180910390f35b61008d61011d565b60405161009a91906101c3565b60405180910390f35b6100bd60048036038101906100b89190610178565b610143565b005b6100d960048036038101906100d49190610178565b61014d565b005b6100e3610157565b6040516100f091906101de565b60405180910390f35b61010161015d565b60405161010e91906101de565b60405180910390f35b60005481565b600160009054906101000a900473ffffffffffffffffffffffffffffffffffffffff1681565b8060008190555050565b8060038190555050565b60025481565b60035481565b6000813590506101728161023a565b92915050565b60006020828403121561018e5761018d610235565b5b600061019c84828501610163565b91505092915050565b6101ae816101f9565b82525050565b6101bd8161020b565b82525050565b60006020820190506101d860008301846101a5565b92915050565b60006020820190506101f360008301846101b4565b92915050565b600061020482610215565b9050919050565b6000819050919050565b600073ffffffffffffffffffffffffffffffffffffffff82169050919050565b600080fd5b6102438161020b565b811461024e57600080fd5b5056fea2646970667358221220c2b2e408a9fd989c6d856188c68b4cfd8ac514db1378da5f0e319ab4186bea5764736f6c63430008070033",
					"opcodes": "PUSH1 0x80 PUSH1 0x40 MSTORE PUSH1 0x4 PUSH1 0x2 SSTORE CALLVALUE DUP1 ISZERO PUSH2 0x15 JUMPI PUSH1 0x0 DUP1 REVERT JUMPDEST POP PUSH1 0x5 PUSH1 0x0 DUP2 SWAP1 SSTORE POP CALLER PUSH1 0x1 PUSH1 0x0 PUSH2 0x100 EXP DUP2 SLOAD DUP2 PUSH20 0xFFFFFFFFFFFFFFFFFFFFFFFFFFFFFFFFFFFFFFFF MUL NOT AND SWAP1 DUP4 PUSH20 0xFFFFFFFFFFFFFFFFFFFFFFFFFFFFFFFFFFFFFFFF AND MUL OR SWAP1 SSTORE POP PUSH2 0x287 DUP1 PUSH2 0x6E PUSH1 0x0 CODECOPY PUSH1 0x0 RETURN INVALID PUSH1 0x80 PUSH1 0x40 MSTORE CALLVALUE DUP1 ISZERO PUSH2 0x10 JUMPI PUSH1 0x0 DUP1 REVERT JUMPDEST POP PUSH1 0x4 CALLDATASIZE LT PUSH2 0x62 JUMPI PUSH1 0x0 CALLDATALOAD PUSH1 0xE0 SHR DUP1 PUSH4 0xC55699C EQ PUSH2 0x67 JUMPI DUP1 PUSH4 0x8DA5CB5B EQ PUSH2 0x85 JUMPI DUP1 PUSH4 0xA0FC4994 EQ PUSH2 0xA3 JUMPI DUP1 PUSH4 0xA1CBB085 EQ PUSH2 0xBF JUMPI DUP1 PUSH4 0xA56DFE4A EQ PUSH2 0xDB JUMPI DUP1 PUSH4 0xFD3AB282 EQ PUSH2 0xF9 JUMPI JUMPDEST PUSH1 0x0 DUP1 REVERT JUMPDEST PUSH2 0x6F PUSH2 0x117 JUMP JUMPDEST PUSH1 0x40 MLOAD PUSH2 0x7C SWAP2 SWAP1 PUSH2 0x1DE JUMP JUMPDEST PUSH1 0x40 MLOAD DUP1 SWAP2 SUB SWAP1 RETURN JUMPDEST PUSH2 0x8D PUSH2 0x11D JUMP JUMPDEST PUSH1 0x40 MLOAD PUSH2 0x9A SWAP2 SWAP1 PUSH2 0x1C3 JUMP JUMPDEST PUSH1 0x40 MLOAD DUP1 SWAP2 SUB SWAP1 RETURN JUMPDEST PUSH2 0xBD PUSH1 0x4 DUP1 CALLDATASIZE SUB DUP2 ADD SWAP1 PUSH2 0xB8 SWAP2 SWAP1 PUSH2 0x178 JUMP JUMPDEST PUSH2 0x143 JUMP JUMPDEST STOP JUMPDEST PUSH2 0xD9 PUSH1 0x4 DUP1 CALLDATASIZE SUB DUP2 ADD SWAP1 PUSH2 0xD4 SWAP2 SWAP1 PUSH2 0x178 JUMP JUMPDEST PUSH2 0x14D JUMP JUMPDEST STOP JUMPDEST PUSH2 0xE3 PUSH2 0x157 JUMP JUMPDEST PUSH1 0x40 MLOAD PUSH2 0xF0 SWAP2 SWAP1 PUSH2 0x1DE JUMP JUMPDEST PUSH1 0x40 MLOAD DUP1 SWAP2 SUB SWAP1 RETURN JUMPDEST PUSH2 0x101 PUSH2 0x15D JUMP JUMPDEST PUSH1 0x40 MLOAD PUSH2 0x10E SWAP2 SWAP1 PUSH2 0x1DE JUMP JUMPDEST PUSH1 0x40 MLOAD DUP1 SWAP2 SUB SWAP1 RETURN JUMPDEST PUSH1 0x0 SLOAD DUP2 JUMP JUMPDEST PUSH1 0x1 PUSH1 0x0 SWAP1 SLOAD SWAP1 PUSH2 0x100 EXP SWAP1 DIV PUSH20 0xFFFFFFFFFFFFFFFFFFFFFFFFFFFFFFFFFFFFFFFF AND DUP2 JUMP JUMPDEST DUP1 PUSH1 0x0 DUP2 SWAP1 SSTORE POP POP JUMP JUMPDEST DUP1 PUSH1 0x3 DUP2 SWAP1 SSTORE POP POP JUMP JUMPDEST PUSH1 0x2 SLOAD DUP2 JUMP JUMPDEST PUSH1 0x3 SLOAD DUP2 JUMP JUMPDEST PUSH1 0x0 DUP2 CALLDATALOAD SWAP1 POP PUSH2 0x172 DUP2 PUSH2 0x23A JUMP JUMPDEST SWAP3 SWAP2 POP POP JUMP JUMPDEST PUSH1 0x0 PUSH1 0x20 DUP3 DUP5 SUB SLT ISZERO PUSH2 0x18E JUMPI PUSH2 0x18D PUSH2 0x235 JUMP JUMPDEST JUMPDEST PUSH1 0x0 PUSH2 0x19C DUP5 DUP3 DUP6 ADD PUSH2 0x163 JUMP JUMPDEST SWAP2 POP POP SWAP3 SWAP2 POP POP JUMP JUMPDEST PUSH2 0x1AE DUP2 PUSH2 0x1F9 JUMP JUMPDEST DUP3 MSTORE POP POP JUMP JUMPDEST PUSH2 0x1BD DUP2 PUSH2 0x20B JUMP JUMPDEST DUP3 MSTORE POP POP JUMP JUMPDEST PUSH1 0x0 PUSH1 0x20 DUP3 ADD SWAP1 POP PUSH2 0x1D8 PUSH1 0x0 DUP4 ADD DUP5 PUSH2 0x1A5 JUMP JUMPDEST SWAP3 SWAP2 POP POP JUMP JUMPDEST PUSH1 0x0 PUSH1 0x20 DUP3 ADD SWAP1 POP PUSH2 0x1F3 PUSH1 0x0 DUP4 ADD DUP5 PUSH2 0x1B4 JUMP JUMPDEST SWAP3 SWAP2 POP POP JUMP JUMPDEST PUSH1 0x0 PUSH2 0x204 DUP3 PUSH2 0x215 JUMP JUMPDEST SWAP1 POP SWAP2 SWAP1 POP JUMP JUMPDEST PUSH1 0x0 DUP2 SWAP1 POP SWAP2 SWAP1 POP JUMP JUMPDEST PUSH1 0x0 PUSH20 0xFFFFFFFFFFFFFFFFFFFFFFFFFFFFFFFFFFFFFFFF DUP3 AND SWAP1 POP SWAP2 SWAP1 POP JUMP JUMPDEST PUSH1 0x0 DUP1 REVERT JUMPDEST PUSH2 0x243 DUP2 PUSH2 0x20B JUMP JUMPDEST DUP2 EQ PUSH2 0x24E JUMPI PUSH1 0x0 DUP1 REVERT JUMPDEST POP JUMP INVALID LOG2 PUSH5 0x6970667358 0x22 SLT KECCAK256 0xC2 0xB2 0xE4 ADDMOD 0xA9 REVERT SWAP9 SWAP13 PUSH14 0x856188C68B4CFD8AC514DB1378DA 0x5F 0xE BALANCE SWAP11 0xB4 XOR PUSH12 0xEA5764736F6C634300080700 CALLER "
				},
				"gasEstimates": {
					"creation": {
						"codeDepositCost": "129400",
						"executionCost": "68663",
						"totalCost": "198063"
					},
					"external": {
						"owner()": "2514",
						"q()": "2517",
						"setQ(int256)": "22564",
						"setX(int256)": "22542",
						"x()": "2407",
						"y()": "2495"
					}
				},
				"methodIdentifiers": {
					"owner()": "8da5cb5b",
					"q()": "fd3ab282",
					"setQ(int256)": "a1cbb085",
					"setX(int256)": "a0fc4994",
					"x()": "0c55699c",
					"y()": "a56dfe4a"
				}
			},
			"storageLayout": {
				"storage": [
					{
						"astId": 3,
						"contract": "contracts/inheritance.sol:A",
						"label": "x",
						"offset": 0,
						"slot": "0",
						"type": "t_int256"
					},
					{
						"astId": 5,
						"contract": "contracts/inheritance.sol:A",
						"label": "owner",
						"offset": 0,
						"slot": "1",
						"type": "t_address"
					},
					{
						"astId": 39,
						"contract": "contracts/inheritance.sol:A",
						"label": "y",
						"offset": 0,
						"slot": "2",
						"type": "t_int256"
					},
					{
						"astId": 41,
						"contract": "contracts/inheritance.sol:A",
						"label": "q",
						"offset": 0,
						"slot": "3",
						"type": "t_int256"
					}
				],
				"types": {
					"t_address": {
						"encoding": "inplace",
						"label": "address",
						"numberOfBytes": "20"
					},
					"t_int256": {
						"encoding": "inplace",
						"label": "int256",
						"numberOfBytes": "32"
					}
				}
			},
			"userdoc": {
				"kind": "user",
				"methods": {},
				"version": 1
			}
		}
	}
}