{
	"contracts/lottery.sol": {
		"Lottery": {
			"abi": [
				{
					"inputs": [],
					"name": "manager",
					"outputs": [
						{
							"internalType": "address",
							"name": "",
							"type": "address"
						}
					],
					"stateMutability": "view",
					"type": "function"
				},
				{
					"inputs": [
						{
							"internalType": "uint256",
							"name": "",
							"type": "uint256"
						}
					],
					"name": "players",
					"outputs": [
						{
							"internalType": "address payable",
							"name": "",
							"type": "address"
						}
					],
					"stateMutability": "view",
					"type": "function"
				}
			],
			"devdoc": {
				"kind": "dev",
				"methods": {},
				"version": 1
			},
			"evm": {
				"assembly": "    /* \"contracts/lottery.sol\":73:433  contract Lottery{\r... */\n  mstore(0x40, 0x80)\n  callvalue\n  dup1\n  iszero\n  tag_1\n  jumpi\n  0x00\n  dup1\n  revert\ntag_1:\n  pop\n  dataSize(sub_0)\n  dup1\n  dataOffset(sub_0)\n  0x00\n  codecopy\n  0x00\n  return\nstop\n\nsub_0: assembly {\n        /* \"contracts/lottery.sol\":73:433  contract Lottery{\r... */\n      mstore(0x40, 0x80)\n      callvalue\n      dup1\n      iszero\n      tag_1\n      jumpi\n      0x00\n      dup1\n      revert\n    tag_1:\n      pop\n      jumpi(tag_2, lt(calldatasize, 0x04))\n      shr(0xe0, calldataload(0x00))\n      dup1\n      0x481c6a75\n      eq\n      tag_3\n      jumpi\n      dup1\n      0xf71d96cb\n      eq\n      tag_4\n      jumpi\n    tag_2:\n      0x00\n      dup1\n      revert\n        /* \"contracts/lottery.sol\":397:419  address public manager */\n    tag_3:\n      tag_5\n      tag_6\n      jump\t// in\n    tag_5:\n      mload(0x40)\n      tag_7\n      swap2\n      swap1\n      tag_8\n      jump\t// in\n    tag_7:\n      mload(0x40)\n      dup1\n      swap2\n      sub\n      swap1\n      return\n        /* \"contracts/lottery.sol\":267:299  address payable[] public players */\n    tag_4:\n      tag_9\n      0x04\n      dup1\n      calldatasize\n      sub\n      dup2\n      add\n      swap1\n      tag_10\n      swap2\n      swap1\n      tag_11\n      jump\t// in\n    tag_10:\n      tag_12\n      jump\t// in\n    tag_9:\n      mload(0x40)\n      tag_13\n      swap2\n      swap1\n      tag_14\n      jump\t// in\n    tag_13:\n      mload(0x40)\n      dup1\n      swap2\n      sub\n      swap1\n      return\n        /* \"contracts/lottery.sol\":397:419  address public manager */\n    tag_6:\n      0x01\n      0x00\n      swap1\n      sload\n      swap1\n      0x0100\n      exp\n      swap1\n      div\n      0xffffffffffffffffffffffffffffffffffffffff\n      and\n      dup2\n      jump\t// out\n        /* \"contracts/lottery.sol\":267:299  address payable[] public players */\n    tag_12:\n      0x00\n      dup2\n      dup2\n      sload\n      dup2\n      lt\n      tag_15\n      jumpi\n      0x00\n      dup1\n      revert\n    tag_15:\n      swap1\n      0x00\n      mstore\n      keccak256(0x00, 0x20)\n      add\n      0x00\n      swap2\n      pop\n      sload\n      swap1\n      0x0100\n      exp\n      swap1\n      div\n      0xffffffffffffffffffffffffffffffffffffffff\n      and\n      dup2\n      jump\t// out\n        /* \"#utility.yul\":7:146   */\n    tag_18:\n      0x00\n        /* \"#utility.yul\":91:97   */\n      dup2\n        /* \"#utility.yul\":78:98   */\n      calldataload\n        /* \"#utility.yul\":69:98   */\n      swap1\n      pop\n        /* \"#utility.yul\":107:140   */\n      tag_20\n        /* \"#utility.yul\":134:139   */\n      dup2\n        /* \"#utility.yul\":107:140   */\n      tag_21\n      jump\t// in\n    tag_20:\n        /* \"#utility.yul\":59:146   */\n      swap3\n      swap2\n      pop\n      pop\n      jump\t// out\n        /* \"#utility.yul\":152:414   */\n    tag_11:\n      0x00\n        /* \"#utility.yul\":260:262   */\n      0x20\n        /* \"#utility.yul\":248:257   */\n      dup3\n        /* \"#utility.yul\":239:246   */\n      dup5\n        /* \"#utility.yul\":235:258   */\n      sub\n        /* \"#utility.yul\":231:263   */\n      slt\n        /* \"#utility.yul\":228:230   */\n      iszero\n      tag_23\n      jumpi\n        /* \"#utility.yul\":276:277   */\n      0x00\n        /* \"#utility.yul\":273:274   */\n      dup1\n        /* \"#utility.yul\":266:278   */\n      revert\n        /* \"#utility.yul\":228:230   */\n    tag_23:\n        /* \"#utility.yul\":319:320   */\n      0x00\n        /* \"#utility.yul\":344:397   */\n      tag_24\n        /* \"#utility.yul\":389:396   */\n      dup5\n        /* \"#utility.yul\":380:386   */\n      dup3\n        /* \"#utility.yul\":369:378   */\n      dup6\n        /* \"#utility.yul\":365:387   */\n      add\n        /* \"#utility.yul\":344:397   */\n      tag_18\n      jump\t// in\n    tag_24:\n        /* \"#utility.yul\":334:397   */\n      swap2\n      pop\n        /* \"#utility.yul\":290:407   */\n      pop\n        /* \"#utility.yul\":218:414   */\n      swap3\n      swap2\n      pop\n      pop\n      jump\t// out\n        /* \"#utility.yul\":420:562   */\n    tag_25:\n        /* \"#utility.yul\":523:555   */\n      tag_27\n        /* \"#utility.yul\":549:554   */\n      dup2\n        /* \"#utility.yul\":523:555   */\n      tag_28\n      jump\t// in\n    tag_27:\n        /* \"#utility.yul\":518:521   */\n      dup3\n        /* \"#utility.yul\":511:556   */\n      mstore\n        /* \"#utility.yul\":501:562   */\n      pop\n      pop\n      jump\t// out\n        /* \"#utility.yul\":568:686   */\n    tag_29:\n        /* \"#utility.yul\":655:679   */\n      tag_31\n        /* \"#utility.yul\":673:678   */\n      dup2\n        /* \"#utility.yul\":655:679   */\n      tag_32\n      jump\t// in\n    tag_31:\n        /* \"#utility.yul\":650:653   */\n      dup3\n        /* \"#utility.yul\":643:680   */\n      mstore\n        /* \"#utility.yul\":633:686   */\n      pop\n      pop\n      jump\t// out\n        /* \"#utility.yul\":692:914   */\n    tag_8:\n      0x00\n        /* \"#utility.yul\":823:825   */\n      0x20\n        /* \"#utility.yul\":812:821   */\n      dup3\n        /* \"#utility.yul\":808:826   */\n      add\n        /* \"#utility.yul\":800:826   */\n      swap1\n      pop\n        /* \"#utility.yul\":836:907   */\n      tag_34\n        /* \"#utility.yul\":904:905   */\n      0x00\n        /* \"#utility.yul\":893:902   */\n      dup4\n        /* \"#utility.yul\":889:906   */\n      add\n        /* \"#utility.yul\":880:886   */\n      dup5\n        /* \"#utility.yul\":836:907   */\n      tag_29\n      jump\t// in\n    tag_34:\n        /* \"#utility.yul\":790:914   */\n      swap3\n      swap2\n      pop\n      pop\n      jump\t// out\n        /* \"#utility.yul\":920:1174   */\n    tag_14:\n      0x00\n        /* \"#utility.yul\":1067:1069   */\n      0x20\n        /* \"#utility.yul\":1056:1065   */\n      dup3\n        /* \"#utility.yul\":1052:1070   */\n      add\n        /* \"#utility.yul\":1044:1070   */\n      swap1\n      pop\n        /* \"#utility.yul\":1080:1167   */\n      tag_36\n        /* \"#utility.yul\":1164:1165   */\n      0x00\n        /* \"#utility.yul\":1153:1162   */\n      dup4\n        /* \"#utility.yul\":1149:1166   */\n      add\n        /* \"#utility.yul\":1140:1146   */\n      dup5\n        /* \"#utility.yul\":1080:1167   */\n      tag_25\n      jump\t// in\n    tag_36:\n        /* \"#utility.yul\":1034:1174   */\n      swap3\n      swap2\n      pop\n      pop\n      jump\t// out\n        /* \"#utility.yul\":1180:1276   */\n    tag_32:\n      0x00\n        /* \"#utility.yul\":1246:1270   */\n      tag_38\n        /* \"#utility.yul\":1264:1269   */\n      dup3\n        /* \"#utility.yul\":1246:1270   */\n      tag_39\n      jump\t// in\n    tag_38:\n        /* \"#utility.yul\":1235:1270   */\n      swap1\n      pop\n        /* \"#utility.yul\":1225:1276   */\n      swap2\n      swap1\n      pop\n      jump\t// out\n        /* \"#utility.yul\":1282:1386   */\n    tag_28:\n      0x00\n        /* \"#utility.yul\":1356:1380   */\n      tag_41\n        /* \"#utility.yul\":1374:1379   */\n      dup3\n        /* \"#utility.yul\":1356:1380   */\n      tag_39\n      jump\t// in\n    tag_41:\n        /* \"#utility.yul\":1345:1380   */\n      swap1\n      pop\n        /* \"#utility.yul\":1335:1386   */\n      swap2\n      swap1\n      pop\n      jump\t// out\n        /* \"#utility.yul\":1392:1518   */\n    tag_39:\n      0x00\n        /* \"#utility.yul\":1469:1511   */\n      0xffffffffffffffffffffffffffffffffffffffff\n        /* \"#utility.yul\":1462:1467   */\n      dup3\n        /* \"#utility.yul\":1458:1512   */\n      and\n        /* \"#utility.yul\":1447:1512   */\n      swap1\n      pop\n        /* \"#utility.yul\":1437:1518   */\n      swap2\n      swap1\n      pop\n      jump\t// out\n        /* \"#utility.yul\":1524:1601   */\n    tag_43:\n      0x00\n        /* \"#utility.yul\":1590:1595   */\n      dup2\n        /* \"#utility.yul\":1579:1595   */\n      swap1\n      pop\n        /* \"#utility.yul\":1569:1601   */\n      swap2\n      swap1\n      pop\n      jump\t// out\n        /* \"#utility.yul\":1607:1729   */\n    tag_21:\n        /* \"#utility.yul\":1680:1704   */\n      tag_46\n        /* \"#utility.yul\":1698:1703   */\n      dup2\n        /* \"#utility.yul\":1680:1704   */\n      tag_43\n      jump\t// in\n    tag_46:\n        /* \"#utility.yul\":1673:1678   */\n      dup2\n        /* \"#utility.yul\":1670:1705   */\n      eq\n        /* \"#utility.yul\":1660:1662   */\n      tag_47\n      jumpi\n        /* \"#utility.yul\":1719:1720   */\n      0x00\n        /* \"#utility.yul\":1716:1717   */\n      dup1\n        /* \"#utility.yul\":1709:1721   */\n      revert\n        /* \"#utility.yul\":1660:1662   */\n    tag_47:\n        /* \"#utility.yul\":1650:1729   */\n      pop\n      jump\t// out\n\n    auxdata: 0xa26469706673582212200b82a3593eb19d1e591bf9298d69dcf766af10b271a72ae75cacf990ff5b33f064736f6c63430008000033\n}\n",
				"bytecode": {
					"linkReferences": {},
					"object": "608060405234801561001057600080fd5b5061021b806100206000396000f3fe608060405234801561001057600080fd5b50600436106100365760003560e01c8063481c6a751461003b578063f71d96cb14610059575b600080fd5b610043610089565b604051610050919061014a565b60405180910390f35b610073600480360381019061006e9190610103565b6100af565b6040516100809190610165565b60405180910390f35b600160009054906101000a900473ffffffffffffffffffffffffffffffffffffffff1681565b600081815481106100bf57600080fd5b906000526020600020016000915054906101000a900473ffffffffffffffffffffffffffffffffffffffff1681565b6000813590506100fd816101ce565b92915050565b60006020828403121561011557600080fd5b6000610123848285016100ee565b91505092915050565b61013581610192565b82525050565b61014481610180565b82525050565b600060208201905061015f600083018461013b565b92915050565b600060208201905061017a600083018461012c565b92915050565b600061018b826101a4565b9050919050565b600061019d826101a4565b9050919050565b600073ffffffffffffffffffffffffffffffffffffffff82169050919050565b6000819050919050565b6101d7816101c4565b81146101e257600080fd5b5056fea26469706673582212200b82a3593eb19d1e591bf9298d69dcf766af10b271a72ae75cacf990ff5b33f064736f6c63430008000033",
					"opcodes": "PUSH1 0x80 PUSH1 0x40 MSTORE CALLVALUE DUP1 ISZERO PUSH2 0x10 JUMPI PUSH1 0x0 DUP1 REVERT JUMPDEST POP PUSH2 0x21B DUP1 PUSH2 0x20 PUSH1 0x0 CODECOPY PUSH1 0x0 RETURN INVALID PUSH1 0x80 PUSH1 0x40 MSTORE CALLVALUE DUP1 ISZERO PUSH2 0x10 JUMPI PUSH1 0x0 DUP1 REVERT JUMPDEST POP PUSH1 0x4 CALLDATASIZE LT PUSH2 0x36 JUMPI PUSH1 0x0 CALLDATALOAD PUSH1 0xE0 SHR DUP1 PUSH4 0x481C6A75 EQ PUSH2 0x3B JUMPI DUP1 PUSH4 0xF71D96CB EQ PUSH2 0x59 JUMPI JUMPDEST PUSH1 0x0 DUP1 REVERT JUMPDEST PUSH2 0x43 PUSH2 0x89 JUMP JUMPDEST PUSH1 0x40 MLOAD PUSH2 0x50 SWAP2 SWAP1 PUSH2 0x14A JUMP JUMPDEST PUSH1 0x40 MLOAD DUP1 SWAP2 SUB SWAP1 RETURN JUMPDEST PUSH2 0x73 PUSH1 0x4 DUP1 CALLDATASIZE SUB DUP2 ADD SWAP1 PUSH2 0x6E SWAP2 SWAP1 PUSH2 0x103 JUMP JUMPDEST PUSH2 0xAF JUMP JUMPDEST PUSH1 0x40 MLOAD PUSH2 0x80 SWAP2 SWAP1 PUSH2 0x165 JUMP JUMPDEST PUSH1 0x40 MLOAD DUP1 SWAP2 SUB SWAP1 RETURN JUMPDEST PUSH1 0x1 PUSH1 0x0 SWAP1 SLOAD SWAP1 PUSH2 0x100 EXP SWAP1 DIV PUSH20 0xFFFFFFFFFFFFFFFFFFFFFFFFFFFFFFFFFFFFFFFF AND DUP2 JUMP JUMPDEST PUSH1 0x0 DUP2 DUP2 SLOAD DUP2 LT PUSH2 0xBF JUMPI PUSH1 0x0 DUP1 REVERT JUMPDEST SWAP1 PUSH1 0x0 MSTORE PUSH1 0x20 PUSH1 0x0 KECCAK256 ADD PUSH1 0x0 SWAP2 POP SLOAD SWAP1 PUSH2 0x100 EXP SWAP1 DIV PUSH20 0xFFFFFFFFFFFFFFFFFFFFFFFFFFFFFFFFFFFFFFFF AND DUP2 JUMP JUMPDEST PUSH1 0x0 DUP2 CALLDATALOAD SWAP1 POP PUSH2 0xFD DUP2 PUSH2 0x1CE JUMP JUMPDEST SWAP3 SWAP2 POP POP JUMP JUMPDEST PUSH1 0x0 PUSH1 0x20 DUP3 DUP5 SUB SLT ISZERO PUSH2 0x115 JUMPI PUSH1 0x0 DUP1 REVERT JUMPDEST PUSH1 0x0 PUSH2 0x123 DUP5 DUP3 DUP6 ADD PUSH2 0xEE JUMP JUMPDEST SWAP2 POP POP SWAP3 SWAP2 POP POP JUMP JUMPDEST PUSH2 0x135 DUP2 PUSH2 0x192 JUMP JUMPDEST DUP3 MSTORE POP POP JUMP JUMPDEST PUSH2 0x144 DUP2 PUSH2 0x180 JUMP JUMPDEST DUP3 MSTORE POP POP JUMP JUMPDEST PUSH1 0x0 PUSH1 0x20 DUP3 ADD SWAP1 POP PUSH2 0x15F PUSH1 0x0 DUP4 ADD DUP5 PUSH2 0x13B JUMP JUMPDEST SWAP3 SWAP2 POP POP JUMP JUMPDEST PUSH1 0x0 PUSH1 0x20 DUP3 ADD SWAP1 POP PUSH2 0x17A PUSH1 0x0 DUP4 ADD DUP5 PUSH2 0x12C JUMP JUMPDEST SWAP3 SWAP2 POP POP JUMP JUMPDEST PUSH1 0x0 PUSH2 0x18B DUP3 PUSH2 0x1A4 JUMP JUMPDEST SWAP1 POP SWAP2 SWAP1 POP JUMP JUMPDEST PUSH1 0x0 PUSH2 0x19D DUP3 PUSH2 0x1A4 JUMP JUMPDEST SWAP1 POP SWAP2 SWAP1 POP JUMP JUMPDEST PUSH1 0x0 PUSH20 0xFFFFFFFFFFFFFFFFFFFFFFFFFFFFFFFFFFFFFFFF DUP3 AND SWAP1 POP SWAP2 SWAP1 POP JUMP JUMPDEST PUSH1 0x0 DUP2 SWAP1 POP SWAP2 SWAP1 POP JUMP JUMPDEST PUSH2 0x1D7 DUP2 PUSH2 0x1C4 JUMP JUMPDEST DUP2 EQ PUSH2 0x1E2 JUMPI PUSH1 0x0 DUP1 REVERT JUMPDEST POP JUMP INVALID LOG2 PUSH5 0x6970667358 0x22 SLT KECCAK256 SIGNEXTEND DUP3 LOG3 MSIZE RETURNDATACOPY 0xB1 SWAP14 0x1E MSIZE SHL 0xF9 0x29 DUP14 PUSH10 0xDCF766AF10B271A72AE7 0x5C 0xAC 0xF9 SWAP1 SELFDESTRUCT JUMPDEST CALLER CREATE PUSH5 0x736F6C6343 STOP ADDMOD STOP STOP CALLER "
				},
				"gasEstimates": {
					"creation": {
						"codeDepositCost": "107800",
						"executionCost": "153",
						"totalCost": "107953"
					},
					"external": {
						"manager()": "1192",
						"players(uint256)": "2356"
					}
				},
				"methodIdentifiers": {
					"manager()": "481c6a75",
					"players(uint256)": "f71d96cb"
				}
			},
			"storageLayout": {
				"storage": [
					{
						"astId": 4,
						"contract": "contracts/lottery.sol:Lottery",
						"label": "players",
						"offset": 0,
						"slot": "0",
						"type": "t_array(t_address_payable)dyn_storage"
					},
					{
						"astId": 6,
						"contract": "contracts/lottery.sol:Lottery",
						"label": "manager",
						"offset": 0,
						"slot": "1",
						"type": "t_address"
					}
				],
				"types": {
					"t_address": {
						"encoding": "inplace",
						"label": "address",
						"numberOfBytes": "20"
					},
					"t_address_payable": {
						"encoding": "inplace",
						"label": "address payable",
						"numberOfBytes": "20"
					},
					"t_array(t_address_payable)dyn_storage": {
						"base": "t_address_payable",
						"encoding": "dynamic_array",
						"label": "address payable[]",
						"numberOfBytes": "32"
					}
				}
			},
			"userdoc": {
				"kind": "user",
				"methods": {},
				"version": 1
			}
		}
	}
}