{
	"contracts/bytes_string.sol": {
		"BytesAndStrings": {
			"abi": [
				{
					"inputs": [],
					"name": "b1",
					"outputs": [
						{
							"internalType": "bytes",
							"name": "",
							"type": "bytes"
						}
					],
					"stateMutability": "view",
					"type": "function"
				},
				{
					"inputs": [],
					"name": "s1",
					"outputs": [
						{
							"internalType": "string",
							"name": "",
							"type": "string"
						}
					],
					"stateMutability": "view",
					"type": "function"
				}
			],
			"devdoc": {
				"kind": "dev",
				"methods": {},
				"version": 1
			},
			"evm": {
				"assembly": "    /* \"contracts/bytes_string.sol\":73:197  contract BytesAndStrings{\r... */\n  mstore(0x40, 0x80)\n    /* \"contracts/bytes_string.sol\":139:162  bytes public b1 = 'abc' */\n  mload(0x40)\n  dup1\n  0x40\n  add\n  0x40\n  mstore\n  dup1\n  0x03\n  dup2\n  mstore\n  0x20\n  add\n  0x6162630000000000000000000000000000000000000000000000000000000000\n  dup2\n  mstore\n  pop\n  0x00\n  swap1\n  dup1\n  mload\n  swap1\n  0x20\n  add\n  swap1\n  tag_1\n  swap3\n  swap2\n  swap1\n  tag_2\n  jump\t// in\ntag_1:\n  pop\n    /* \"contracts/bytes_string.sol\":169:193  string public s1 = 'abc' */\n  mload(0x40)\n  dup1\n  0x40\n  add\n  0x40\n  mstore\n  dup1\n  0x03\n  dup2\n  mstore\n  0x20\n  add\n  0x6162630000000000000000000000000000000000000000000000000000000000\n  dup2\n  mstore\n  pop\n  0x01\n  swap1\n  dup1\n  mload\n  swap1\n  0x20\n  add\n  swap1\n  tag_3\n  swap3\n  swap2\n  swap1\n  tag_4\n  jump\t// in\ntag_3:\n  pop\n    /* \"contracts/bytes_string.sol\":73:197  contract BytesAndStrings{\r... */\n  callvalue\n  dup1\n  iszero\n  tag_5\n  jumpi\n  0x00\n  dup1\n  revert\ntag_5:\n  pop\n  jump(tag_6)\ntag_2:\n  dup3\n  dup1\n  sload\n  tag_7\n  swap1\n  tag_8\n  jump\t// in\ntag_7:\n  swap1\n  0x00\n  mstore\n  keccak256(0x00, 0x20)\n  swap1\n  0x1f\n  add\n  0x20\n  swap1\n  div\n  dup2\n  add\n  swap3\n  dup3\n  tag_10\n  jumpi\n  0x00\n  dup6\n  sstore\n  jump(tag_9)\ntag_10:\n  dup3\n  0x1f\n  lt\n  tag_11\n  jumpi\n  dup1\n  mload\n  not(0xff)\n  and\n  dup4\n  dup1\n  add\n  or\n  dup6\n  sstore\n  jump(tag_9)\ntag_11:\n  dup3\n  dup1\n  add\n  0x01\n  add\n  dup6\n  sstore\n  dup3\n  iszero\n  tag_9\n  jumpi\n  swap2\n  dup3\n  add\ntag_12:\n  dup3\n  dup2\n  gt\n  iszero\n  tag_13\n  jumpi\n  dup3\n  mload\n  dup3\n  sstore\n  swap2\n  0x20\n  add\n  swap2\n  swap1\n  0x01\n  add\n  swap1\n  jump(tag_12)\ntag_13:\ntag_9:\n  pop\n  swap1\n  pop\n  tag_14\n  swap2\n  swap1\n  tag_15\n  jump\t// in\ntag_14:\n  pop\n  swap1\n  jump\t// out\ntag_4:\n  dup3\n  dup1\n  sload\n  tag_16\n  swap1\n  tag_8\n  jump\t// in\ntag_16:\n  swap1\n  0x00\n  mstore\n  keccak256(0x00, 0x20)\n  swap1\n  0x1f\n  add\n  0x20\n  swap1\n  div\n  dup2\n  add\n  swap3\n  dup3\n  tag_18\n  jumpi\n  0x00\n  dup6\n  sstore\n  jump(tag_17)\ntag_18:\n  dup3\n  0x1f\n  lt\n  tag_19\n  jumpi\n  dup1\n  mload\n  not(0xff)\n  and\n  dup4\n  dup1\n  add\n  or\n  dup6\n  sstore\n  jump(tag_17)\ntag_19:\n  dup3\n  dup1\n  add\n  0x01\n  add\n  dup6\n  sstore\n  dup3\n  iszero\n  tag_17\n  jumpi\n  swap2\n  dup3\n  add\ntag_20:\n  dup3\n  dup2\n  gt\n  iszero\n  tag_21\n  jumpi\n  dup3\n  mload\n  dup3\n  sstore\n  swap2\n  0x20\n  add\n  swap2\n  swap1\n  0x01\n  add\n  swap1\n  jump(tag_20)\ntag_21:\ntag_17:\n  pop\n  swap1\n  pop\n  tag_22\n  swap2\n  swap1\n  tag_15\n  jump\t// in\ntag_22:\n  pop\n  swap1\n  jump\t// out\ntag_15:\ntag_23:\n  dup1\n  dup3\n  gt\n  iszero\n  tag_24\n  jumpi\n  0x00\n  dup2\n  0x00\n  swap1\n  sstore\n  pop\n  0x01\n  add\n  jump(tag_23)\ntag_24:\n  pop\n  swap1\n  jump\t// out\n    /* \"#utility.yul\":7:327   */\ntag_8:\n    /* \"#utility.yul\":51:57   */\n  0x00\n    /* \"#utility.yul\":88:89   */\n  0x02\n    /* \"#utility.yul\":82:86   */\n  dup3\n    /* \"#utility.yul\":78:90   */\n  div\n    /* \"#utility.yul\":68:90   */\n  swap1\n  pop\n    /* \"#utility.yul\":135:136   */\n  0x01\n    /* \"#utility.yul\":129:133   */\n  dup3\n    /* \"#utility.yul\":125:137   */\n  and\n    /* \"#utility.yul\":156:174   */\n  dup1\n    /* \"#utility.yul\":146:227   */\n  tag_27\n  jumpi\n    /* \"#utility.yul\":212:216   */\n  0x7f\n    /* \"#utility.yul\":204:210   */\n  dup3\n    /* \"#utility.yul\":200:217   */\n  and\n    /* \"#utility.yul\":190:217   */\n  swap2\n  pop\n    /* \"#utility.yul\":146:227   */\ntag_27:\n    /* \"#utility.yul\":274:276   */\n  0x20\n    /* \"#utility.yul\":266:272   */\n  dup3\n    /* \"#utility.yul\":263:277   */\n  lt\n    /* \"#utility.yul\":243:261   */\n  dup2\n    /* \"#utility.yul\":240:278   */\n  eq\n    /* \"#utility.yul\":237:321   */\n  iszero\n  tag_28\n  jumpi\n    /* \"#utility.yul\":293:311   */\n  tag_29\n  tag_30\n  jump\t// in\ntag_29:\n    /* \"#utility.yul\":237:321   */\ntag_28:\n    /* \"#utility.yul\":58:327   */\n  pop\n    /* \"#utility.yul\":7:327   */\n  swap2\n  swap1\n  pop\n  jump\t// out\n    /* \"#utility.yul\":333:513   */\ntag_30:\n    /* \"#utility.yul\":381:458   */\n  0x4e487b7100000000000000000000000000000000000000000000000000000000\n    /* \"#utility.yul\":378:379   */\n  0x00\n    /* \"#utility.yul\":371:459   */\n  mstore\n    /* \"#utility.yul\":478:482   */\n  0x22\n    /* \"#utility.yul\":475:476   */\n  0x04\n    /* \"#utility.yul\":468:483   */\n  mstore\n    /* \"#utility.yul\":502:506   */\n  0x24\n    /* \"#utility.yul\":499:500   */\n  0x00\n    /* \"#utility.yul\":492:507   */\n  revert\n    /* \"contracts/bytes_string.sol\":73:197  contract BytesAndStrings{\r... */\ntag_6:\n  dataSize(sub_0)\n  dup1\n  dataOffset(sub_0)\n  0x00\n  codecopy\n  0x00\n  return\nstop\n\nsub_0: assembly {\n        /* \"contracts/bytes_string.sol\":73:197  contract BytesAndStrings{\r... */\n      mstore(0x40, 0x80)\n      callvalue\n      dup1\n      iszero\n      tag_1\n      jumpi\n      0x00\n      dup1\n      revert\n    tag_1:\n      pop\n      jumpi(tag_2, lt(calldatasize, 0x04))\n      shr(0xe0, calldataload(0x00))\n      dup1\n      0x6cc014de\n      eq\n      tag_3\n      jumpi\n      dup1\n      0xee495002\n      eq\n      tag_4\n      jumpi\n    tag_2:\n      0x00\n      dup1\n      revert\n        /* \"contracts/bytes_string.sol\":169:193  string public s1 = 'abc' */\n    tag_3:\n      tag_5\n      tag_6\n      jump\t// in\n    tag_5:\n      mload(0x40)\n      tag_7\n      swap2\n      swap1\n      tag_8\n      jump\t// in\n    tag_7:\n      mload(0x40)\n      dup1\n      swap2\n      sub\n      swap1\n      return\n        /* \"contracts/bytes_string.sol\":139:162  bytes public b1 = 'abc' */\n    tag_4:\n      tag_9\n      tag_10\n      jump\t// in\n    tag_9:\n      mload(0x40)\n      tag_11\n      swap2\n      swap1\n      tag_12\n      jump\t// in\n    tag_11:\n      mload(0x40)\n      dup1\n      swap2\n      sub\n      swap1\n      return\n        /* \"contracts/bytes_string.sol\":169:193  string public s1 = 'abc' */\n    tag_6:\n      0x01\n      dup1\n      sload\n      tag_13\n      swap1\n      tag_14\n      jump\t// in\n    tag_13:\n      dup1\n      0x1f\n      add\n      0x20\n      dup1\n      swap2\n      div\n      mul\n      0x20\n      add\n      mload(0x40)\n      swap1\n      dup2\n      add\n      0x40\n      mstore\n      dup1\n      swap3\n      swap2\n      swap1\n      dup2\n      dup2\n      mstore\n      0x20\n      add\n      dup3\n      dup1\n      sload\n      tag_15\n      swap1\n      tag_14\n      jump\t// in\n    tag_15:\n      dup1\n      iszero\n      tag_16\n      jumpi\n      dup1\n      0x1f\n      lt\n      tag_17\n      jumpi\n      0x0100\n      dup1\n      dup4\n      sload\n      div\n      mul\n      dup4\n      mstore\n      swap2\n      0x20\n      add\n      swap2\n      jump(tag_16)\n    tag_17:\n      dup3\n      add\n      swap2\n      swap1\n      0x00\n      mstore\n      keccak256(0x00, 0x20)\n      swap1\n    tag_18:\n      dup2\n      sload\n      dup2\n      mstore\n      swap1\n      0x01\n      add\n      swap1\n      0x20\n      add\n      dup1\n      dup4\n      gt\n      tag_18\n      jumpi\n      dup3\n      swap1\n      sub\n      0x1f\n      and\n      dup3\n      add\n      swap2\n    tag_16:\n      pop\n      pop\n      pop\n      pop\n      pop\n      dup2\n      jump\t// out\n        /* \"contracts/bytes_string.sol\":139:162  bytes public b1 = 'abc' */\n    tag_10:\n      0x00\n      dup1\n      sload\n      tag_19\n      swap1\n      tag_14\n      jump\t// in\n    tag_19:\n      dup1\n      0x1f\n      add\n      0x20\n      dup1\n      swap2\n      div\n      mul\n      0x20\n      add\n      mload(0x40)\n      swap1\n      dup2\n      add\n      0x40\n      mstore\n      dup1\n      swap3\n      swap2\n      swap1\n      dup2\n      dup2\n      mstore\n      0x20\n      add\n      dup3\n      dup1\n      sload\n      tag_20\n      swap1\n      tag_14\n      jump\t// in\n    tag_20:\n      dup1\n      iszero\n      tag_21\n      jumpi\n      dup1\n      0x1f\n      lt\n      tag_22\n      jumpi\n      0x0100\n      dup1\n      dup4\n      sload\n      div\n      mul\n      dup4\n      mstore\n      swap2\n      0x20\n      add\n      swap2\n      jump(tag_21)\n    tag_22:\n      dup3\n      add\n      swap2\n      swap1\n      0x00\n      mstore\n      keccak256(0x00, 0x20)\n      swap1\n    tag_23:\n      dup2\n      sload\n      dup2\n      mstore\n      swap1\n      0x01\n      add\n      swap1\n      0x20\n      add\n      dup1\n      dup4\n      gt\n      tag_23\n      jumpi\n      dup3\n      swap1\n      sub\n      0x1f\n      and\n      dup3\n      add\n      swap2\n    tag_21:\n      pop\n      pop\n      pop\n      pop\n      pop\n      dup2\n      jump\t// out\n        /* \"#utility.yul\":7:367   */\n    tag_25:\n        /* \"#utility.yul\":93:96   */\n      0x00\n        /* \"#utility.yul\":121:159   */\n      tag_27\n        /* \"#utility.yul\":153:158   */\n      dup3\n        /* \"#utility.yul\":121:159   */\n      tag_28\n      jump\t// in\n    tag_27:\n        /* \"#utility.yul\":175:245   */\n      tag_29\n        /* \"#utility.yul\":238:244   */\n      dup2\n        /* \"#utility.yul\":233:236   */\n      dup6\n        /* \"#utility.yul\":175:245   */\n      tag_30\n      jump\t// in\n    tag_29:\n        /* \"#utility.yul\":168:245   */\n      swap4\n      pop\n        /* \"#utility.yul\":254:306   */\n      tag_31\n        /* \"#utility.yul\":299:305   */\n      dup2\n        /* \"#utility.yul\":294:297   */\n      dup6\n        /* \"#utility.yul\":287:291   */\n      0x20\n        /* \"#utility.yul\":280:285   */\n      dup7\n        /* \"#utility.yul\":276:292   */\n      add\n        /* \"#utility.yul\":254:306   */\n      tag_32\n      jump\t// in\n    tag_31:\n        /* \"#utility.yul\":331:360   */\n      tag_33\n        /* \"#utility.yul\":353:359   */\n      dup2\n        /* \"#utility.yul\":331:360   */\n      tag_34\n      jump\t// in\n    tag_33:\n        /* \"#utility.yul\":326:329   */\n      dup5\n        /* \"#utility.yul\":322:361   */\n      add\n        /* \"#utility.yul\":315:361   */\n      swap2\n      pop\n        /* \"#utility.yul\":97:367   */\n      pop\n        /* \"#utility.yul\":7:367   */\n      swap3\n      swap2\n      pop\n      pop\n      jump\t// out\n        /* \"#utility.yul\":373:737   */\n    tag_35:\n        /* \"#utility.yul\":461:464   */\n      0x00\n        /* \"#utility.yul\":489:528   */\n      tag_37\n        /* \"#utility.yul\":522:527   */\n      dup3\n        /* \"#utility.yul\":489:528   */\n      tag_38\n      jump\t// in\n    tag_37:\n        /* \"#utility.yul\":544:615   */\n      tag_39\n        /* \"#utility.yul\":608:614   */\n      dup2\n        /* \"#utility.yul\":603:606   */\n      dup6\n        /* \"#utility.yul\":544:615   */\n      tag_40\n      jump\t// in\n    tag_39:\n        /* \"#utility.yul\":537:615   */\n      swap4\n      pop\n        /* \"#utility.yul\":624:676   */\n      tag_41\n        /* \"#utility.yul\":669:675   */\n      dup2\n        /* \"#utility.yul\":664:667   */\n      dup6\n        /* \"#utility.yul\":657:661   */\n      0x20\n        /* \"#utility.yul\":650:655   */\n      dup7\n        /* \"#utility.yul\":646:662   */\n      add\n        /* \"#utility.yul\":624:676   */\n      tag_32\n      jump\t// in\n    tag_41:\n        /* \"#utility.yul\":701:730   */\n      tag_42\n        /* \"#utility.yul\":723:729   */\n      dup2\n        /* \"#utility.yul\":701:730   */\n      tag_34\n      jump\t// in\n    tag_42:\n        /* \"#utility.yul\":696:699   */\n      dup5\n        /* \"#utility.yul\":692:731   */\n      add\n        /* \"#utility.yul\":685:731   */\n      swap2\n      pop\n        /* \"#utility.yul\":465:737   */\n      pop\n        /* \"#utility.yul\":373:737   */\n      swap3\n      swap2\n      pop\n      pop\n      jump\t// out\n        /* \"#utility.yul\":743:1052   */\n    tag_12:\n        /* \"#utility.yul\":854:858   */\n      0x00\n        /* \"#utility.yul\":892:894   */\n      0x20\n        /* \"#utility.yul\":881:890   */\n      dup3\n        /* \"#utility.yul\":877:895   */\n      add\n        /* \"#utility.yul\":869:895   */\n      swap1\n      pop\n        /* \"#utility.yul\":941:950   */\n      dup2\n        /* \"#utility.yul\":935:939   */\n      dup2\n        /* \"#utility.yul\":931:951   */\n      sub\n        /* \"#utility.yul\":927:928   */\n      0x00\n        /* \"#utility.yul\":916:925   */\n      dup4\n        /* \"#utility.yul\":912:929   */\n      add\n        /* \"#utility.yul\":905:952   */\n      mstore\n        /* \"#utility.yul\":969:1045   */\n      tag_44\n        /* \"#utility.yul\":1040:1044   */\n      dup2\n        /* \"#utility.yul\":1031:1037   */\n      dup5\n        /* \"#utility.yul\":969:1045   */\n      tag_25\n      jump\t// in\n    tag_44:\n        /* \"#utility.yul\":961:1045   */\n      swap1\n      pop\n        /* \"#utility.yul\":743:1052   */\n      swap3\n      swap2\n      pop\n      pop\n      jump\t// out\n        /* \"#utility.yul\":1058:1371   */\n    tag_8:\n        /* \"#utility.yul\":1171:1175   */\n      0x00\n        /* \"#utility.yul\":1209:1211   */\n      0x20\n        /* \"#utility.yul\":1198:1207   */\n      dup3\n        /* \"#utility.yul\":1194:1212   */\n      add\n        /* \"#utility.yul\":1186:1212   */\n      swap1\n      pop\n        /* \"#utility.yul\":1258:1267   */\n      dup2\n        /* \"#utility.yul\":1252:1256   */\n      dup2\n        /* \"#utility.yul\":1248:1268   */\n      sub\n        /* \"#utility.yul\":1244:1245   */\n      0x00\n        /* \"#utility.yul\":1233:1242   */\n      dup4\n        /* \"#utility.yul\":1229:1246   */\n      add\n        /* \"#utility.yul\":1222:1269   */\n      mstore\n        /* \"#utility.yul\":1286:1364   */\n      tag_46\n        /* \"#utility.yul\":1359:1363   */\n      dup2\n        /* \"#utility.yul\":1350:1356   */\n      dup5\n        /* \"#utility.yul\":1286:1364   */\n      tag_35\n      jump\t// in\n    tag_46:\n        /* \"#utility.yul\":1278:1364   */\n      swap1\n      pop\n        /* \"#utility.yul\":1058:1371   */\n      swap3\n      swap2\n      pop\n      pop\n      jump\t// out\n        /* \"#utility.yul\":1377:1475   */\n    tag_28:\n        /* \"#utility.yul\":1428:1434   */\n      0x00\n        /* \"#utility.yul\":1462:1467   */\n      dup2\n        /* \"#utility.yul\":1456:1468   */\n      mload\n        /* \"#utility.yul\":1446:1468   */\n      swap1\n      pop\n        /* \"#utility.yul\":1377:1475   */\n      swap2\n      swap1\n      pop\n      jump\t// out\n        /* \"#utility.yul\":1481:1580   */\n    tag_38:\n        /* \"#utility.yul\":1533:1539   */\n      0x00\n        /* \"#utility.yul\":1567:1572   */\n      dup2\n        /* \"#utility.yul\":1561:1573   */\n      mload\n        /* \"#utility.yul\":1551:1573   */\n      swap1\n      pop\n        /* \"#utility.yul\":1481:1580   */\n      swap2\n      swap1\n      pop\n      jump\t// out\n        /* \"#utility.yul\":1586:1754   */\n    tag_30:\n        /* \"#utility.yul\":1669:1680   */\n      0x00\n        /* \"#utility.yul\":1703:1709   */\n      dup3\n        /* \"#utility.yul\":1698:1701   */\n      dup3\n        /* \"#utility.yul\":1691:1710   */\n      mstore\n        /* \"#utility.yul\":1743:1747   */\n      0x20\n        /* \"#utility.yul\":1738:1741   */\n      dup3\n        /* \"#utility.yul\":1734:1748   */\n      add\n        /* \"#utility.yul\":1719:1748   */\n      swap1\n      pop\n        /* \"#utility.yul\":1586:1754   */\n      swap3\n      swap2\n      pop\n      pop\n      jump\t// out\n        /* \"#utility.yul\":1760:1929   */\n    tag_40:\n        /* \"#utility.yul\":1844:1855   */\n      0x00\n        /* \"#utility.yul\":1878:1884   */\n      dup3\n        /* \"#utility.yul\":1873:1876   */\n      dup3\n        /* \"#utility.yul\":1866:1885   */\n      mstore\n        /* \"#utility.yul\":1918:1922   */\n      0x20\n        /* \"#utility.yul\":1913:1916   */\n      dup3\n        /* \"#utility.yul\":1909:1923   */\n      add\n        /* \"#utility.yul\":1894:1923   */\n      swap1\n      pop\n        /* \"#utility.yul\":1760:1929   */\n      swap3\n      swap2\n      pop\n      pop\n      jump\t// out\n        /* \"#utility.yul\":1935:2242   */\n    tag_32:\n        /* \"#utility.yul\":2003:2004   */\n      0x00\n        /* \"#utility.yul\":2013:2126   */\n    tag_52:\n        /* \"#utility.yul\":2027:2033   */\n      dup4\n        /* \"#utility.yul\":2024:2025   */\n      dup2\n        /* \"#utility.yul\":2021:2034   */\n      lt\n        /* \"#utility.yul\":2013:2126   */\n      iszero\n      tag_54\n      jumpi\n        /* \"#utility.yul\":2112:2113   */\n      dup1\n        /* \"#utility.yul\":2107:2110   */\n      dup3\n        /* \"#utility.yul\":2103:2114   */\n      add\n        /* \"#utility.yul\":2097:2115   */\n      mload\n        /* \"#utility.yul\":2093:2094   */\n      dup2\n        /* \"#utility.yul\":2088:2091   */\n      dup5\n        /* \"#utility.yul\":2084:2095   */\n      add\n        /* \"#utility.yul\":2077:2116   */\n      mstore\n        /* \"#utility.yul\":2049:2051   */\n      0x20\n        /* \"#utility.yul\":2046:2047   */\n      dup2\n        /* \"#utility.yul\":2042:2052   */\n      add\n        /* \"#utility.yul\":2037:2052   */\n      swap1\n      pop\n        /* \"#utility.yul\":2013:2126   */\n      jump(tag_52)\n    tag_54:\n        /* \"#utility.yul\":2144:2150   */\n      dup4\n        /* \"#utility.yul\":2141:2142   */\n      dup2\n        /* \"#utility.yul\":2138:2151   */\n      gt\n        /* \"#utility.yul\":2135:2236   */\n      iszero\n      tag_55\n      jumpi\n        /* \"#utility.yul\":2224:2225   */\n      0x00\n        /* \"#utility.yul\":2215:2221   */\n      dup5\n        /* \"#utility.yul\":2210:2213   */\n      dup5\n        /* \"#utility.yul\":2206:2222   */\n      add\n        /* \"#utility.yul\":2199:2226   */\n      mstore\n        /* \"#utility.yul\":2135:2236   */\n    tag_55:\n        /* \"#utility.yul\":1984:2242   */\n      pop\n        /* \"#utility.yul\":1935:2242   */\n      pop\n      pop\n      pop\n      jump\t// out\n        /* \"#utility.yul\":2248:2568   */\n    tag_14:\n        /* \"#utility.yul\":2292:2298   */\n      0x00\n        /* \"#utility.yul\":2329:2330   */\n      0x02\n        /* \"#utility.yul\":2323:2327   */\n      dup3\n        /* \"#utility.yul\":2319:2331   */\n      div\n        /* \"#utility.yul\":2309:2331   */\n      swap1\n      pop\n        /* \"#utility.yul\":2376:2377   */\n      0x01\n        /* \"#utility.yul\":2370:2374   */\n      dup3\n        /* \"#utility.yul\":2366:2378   */\n      and\n        /* \"#utility.yul\":2397:2415   */\n      dup1\n        /* \"#utility.yul\":2387:2468   */\n      tag_57\n      jumpi\n        /* \"#utility.yul\":2453:2457   */\n      0x7f\n        /* \"#utility.yul\":2445:2451   */\n      dup3\n        /* \"#utility.yul\":2441:2458   */\n      and\n        /* \"#utility.yul\":2431:2458   */\n      swap2\n      pop\n        /* \"#utility.yul\":2387:2468   */\n    tag_57:\n        /* \"#utility.yul\":2515:2517   */\n      0x20\n        /* \"#utility.yul\":2507:2513   */\n      dup3\n        /* \"#utility.yul\":2504:2518   */\n      lt\n        /* \"#utility.yul\":2484:2502   */\n      dup2\n        /* \"#utility.yul\":2481:2519   */\n      eq\n        /* \"#utility.yul\":2478:2562   */\n      iszero\n      tag_58\n      jumpi\n        /* \"#utility.yul\":2534:2552   */\n      tag_59\n      tag_60\n      jump\t// in\n    tag_59:\n        /* \"#utility.yul\":2478:2562   */\n    tag_58:\n        /* \"#utility.yul\":2299:2568   */\n      pop\n        /* \"#utility.yul\":2248:2568   */\n      swap2\n      swap1\n      pop\n      jump\t// out\n        /* \"#utility.yul\":2574:2754   */\n    tag_60:\n        /* \"#utility.yul\":2622:2699   */\n      0x4e487b7100000000000000000000000000000000000000000000000000000000\n        /* \"#utility.yul\":2619:2620   */\n      0x00\n        /* \"#utility.yul\":2612:2700   */\n      mstore\n        /* \"#utility.yul\":2719:2723   */\n      0x22\n        /* \"#utility.yul\":2716:2717   */\n      0x04\n        /* \"#utility.yul\":2709:2724   */\n      mstore\n        /* \"#utility.yul\":2743:2747   */\n      0x24\n        /* \"#utility.yul\":2740:2741   */\n      0x00\n        /* \"#utility.yul\":2733:2748   */\n      revert\n        /* \"#utility.yul\":2760:2862   */\n    tag_34:\n        /* \"#utility.yul\":2801:2807   */\n      0x00\n        /* \"#utility.yul\":2852:2854   */\n      0x1f\n        /* \"#utility.yul\":2848:2855   */\n      not\n        /* \"#utility.yul\":2843:2845   */\n      0x1f\n        /* \"#utility.yul\":2836:2841   */\n      dup4\n        /* \"#utility.yul\":2832:2846   */\n      add\n        /* \"#utility.yul\":2828:2856   */\n      and\n        /* \"#utility.yul\":2818:2856   */\n      swap1\n      pop\n        /* \"#utility.yul\":2760:2862   */\n      swap2\n      swap1\n      pop\n      jump\t// out\n\n    auxdata: 0xa2646970667358221220a310b3723b55a868d1a95b9448bac33aa5455450b1cffe889ebda06294c27fef64736f6c63430008070033\n}\n",
				"bytecode": {
					"linkReferences": {},
					"object": "60806040526040518060400160405280600381526020017f61626300000000000000000000000000000000000000000000000000000000008152506000908051906020019061004f9291906100ae565b506040518060400160405280600381526020017f61626300000000000000000000000000000000000000000000000000000000008152506001908051906020019061009b929190610134565b503480156100a857600080fd5b50610238565b8280546100ba906101d7565b90600052602060002090601f0160209004810192826100dc5760008555610123565b82601f106100f557805160ff1916838001178555610123565b82800160010185558215610123579182015b82811115610122578251825591602001919060010190610107565b5b50905061013091906101ba565b5090565b828054610140906101d7565b90600052602060002090601f01602090048101928261016257600085556101a9565b82601f1061017b57805160ff19168380011785556101a9565b828001600101855582156101a9579182015b828111156101a857825182559160200191906001019061018d565b5b5090506101b691906101ba565b5090565b5b808211156101d35760008160009055506001016101bb565b5090565b600060028204905060018216806101ef57607f821691505b6020821081141561020357610202610209565b5b50919050565b7f4e487b7100000000000000000000000000000000000000000000000000000000600052602260045260246000fd5b61035c806102476000396000f3fe608060405234801561001057600080fd5b50600436106100365760003560e01c80636cc014de1461003b578063ee49500214610059575b600080fd5b610043610077565b6040516100509190610227565b60405180910390f35b610061610105565b60405161006e9190610205565b60405180910390f35b60018054610084906102b4565b80601f01602080910402602001604051908101604052809291908181526020018280546100b0906102b4565b80156100fd5780601f106100d2576101008083540402835291602001916100fd565b820191906000526020600020905b8154815290600101906020018083116100e057829003601f168201915b505050505081565b60008054610112906102b4565b80601f016020809104026020016040519081016040528092919081815260200182805461013e906102b4565b801561018b5780601f106101605761010080835404028352916020019161018b565b820191906000526020600020905b81548152906001019060200180831161016e57829003601f168201915b505050505081565b600061019e82610249565b6101a8818561025f565b93506101b8818560208601610281565b6101c181610315565b840191505092915050565b60006101d782610254565b6101e18185610270565b93506101f1818560208601610281565b6101fa81610315565b840191505092915050565b6000602082019050818103600083015261021f8184610193565b905092915050565b6000602082019050818103600083015261024181846101cc565b905092915050565b600081519050919050565b600081519050919050565b600082825260208201905092915050565b600082825260208201905092915050565b60005b8381101561029f578082015181840152602081019050610284565b838111156102ae576000848401525b50505050565b600060028204905060018216806102cc57607f821691505b602082108114156102e0576102df6102e6565b5b50919050565b7f4e487b7100000000000000000000000000000000000000000000000000000000600052602260045260246000fd5b6000601f19601f830116905091905056fea2646970667358221220a310b3723b55a868d1a95b9448bac33aa5455450b1cffe889ebda06294c27fef64736f6c63430008070033",
					"opcodes": "PUSH1 0x80 PUSH1 0x40 MSTORE PUSH1 0x40 MLOAD DUP1 PUSH1 0x40 ADD PUSH1 0x40 MSTORE DUP1 PUSH1 0x3 DUP2 MSTORE PUSH1 0x20 ADD PUSH32 0x6162630000000000000000000000000000000000000000000000000000000000 DUP2 MSTORE POP PUSH1 0x0 SWAP1 DUP1 MLOAD SWAP1 PUSH1 0x20 ADD SWAP1 PUSH2 0x4F SWAP3 SWAP2 SWAP1 PUSH2 0xAE JUMP JUMPDEST POP PUSH1 0x40 MLOAD DUP1 PUSH1 0x40 ADD PUSH1 0x40 MSTORE DUP1 PUSH1 0x3 DUP2 MSTORE PUSH1 0x20 ADD PUSH32 0x6162630000000000000000000000000000000000000000000000000000000000 DUP2 MSTORE POP PUSH1 0x1 SWAP1 DUP1 MLOAD SWAP1 PUSH1 0x20 ADD SWAP1 PUSH2 0x9B SWAP3 SWAP2 SWAP1 PUSH2 0x134 JUMP JUMPDEST POP CALLVALUE DUP1 ISZERO PUSH2 0xA8 JUMPI PUSH1 0x0 DUP1 REVERT JUMPDEST POP PUSH2 0x238 JUMP JUMPDEST DUP3 DUP1 SLOAD PUSH2 0xBA SWAP1 PUSH2 0x1D7 JUMP JUMPDEST SWAP1 PUSH1 0x0 MSTORE PUSH1 0x20 PUSH1 0x0 KECCAK256 SWAP1 PUSH1 0x1F ADD PUSH1 0x20 SWAP1 DIV DUP2 ADD SWAP3 DUP3 PUSH2 0xDC JUMPI PUSH1 0x0 DUP6 SSTORE PUSH2 0x123 JUMP JUMPDEST DUP3 PUSH1 0x1F LT PUSH2 0xF5 JUMPI DUP1 MLOAD PUSH1 0xFF NOT AND DUP4 DUP1 ADD OR DUP6 SSTORE PUSH2 0x123 JUMP JUMPDEST DUP3 DUP1 ADD PUSH1 0x1 ADD DUP6 SSTORE DUP3 ISZERO PUSH2 0x123 JUMPI SWAP2 DUP3 ADD JUMPDEST DUP3 DUP2 GT ISZERO PUSH2 0x122 JUMPI DUP3 MLOAD DUP3 SSTORE SWAP2 PUSH1 0x20 ADD SWAP2 SWAP1 PUSH1 0x1 ADD SWAP1 PUSH2 0x107 JUMP JUMPDEST JUMPDEST POP SWAP1 POP PUSH2 0x130 SWAP2 SWAP1 PUSH2 0x1BA JUMP JUMPDEST POP SWAP1 JUMP JUMPDEST DUP3 DUP1 SLOAD PUSH2 0x140 SWAP1 PUSH2 0x1D7 JUMP JUMPDEST SWAP1 PUSH1 0x0 MSTORE PUSH1 0x20 PUSH1 0x0 KECCAK256 SWAP1 PUSH1 0x1F ADD PUSH1 0x20 SWAP1 DIV DUP2 ADD SWAP3 DUP3 PUSH2 0x162 JUMPI PUSH1 0x0 DUP6 SSTORE PUSH2 0x1A9 JUMP JUMPDEST DUP3 PUSH1 0x1F LT PUSH2 0x17B JUMPI DUP1 MLOAD PUSH1 0xFF NOT AND DUP4 DUP1 ADD OR DUP6 SSTORE PUSH2 0x1A9 JUMP JUMPDEST DUP3 DUP1 ADD PUSH1 0x1 ADD DUP6 SSTORE DUP3 ISZERO PUSH2 0x1A9 JUMPI SWAP2 DUP3 ADD JUMPDEST DUP3 DUP2 GT ISZERO PUSH2 0x1A8 JUMPI DUP3 MLOAD DUP3 SSTORE SWAP2 PUSH1 0x20 ADD SWAP2 SWAP1 PUSH1 0x1 ADD SWAP1 PUSH2 0x18D JUMP JUMPDEST JUMPDEST POP SWAP1 POP PUSH2 0x1B6 SWAP2 SWAP1 PUSH2 0x1BA JUMP JUMPDEST POP SWAP1 JUMP JUMPDEST JUMPDEST DUP1 DUP3 GT ISZERO PUSH2 0x1D3 JUMPI PUSH1 0x0 DUP2 PUSH1 0x0 SWAP1 SSTORE POP PUSH1 0x1 ADD PUSH2 0x1BB JUMP JUMPDEST POP SWAP1 JUMP JUMPDEST PUSH1 0x0 PUSH1 0x2 DUP3 DIV SWAP1 POP PUSH1 0x1 DUP3 AND DUP1 PUSH2 0x1EF JUMPI PUSH1 0x7F DUP3 AND SWAP2 POP JUMPDEST PUSH1 0x20 DUP3 LT DUP2 EQ ISZERO PUSH2 0x203 JUMPI PUSH2 0x202 PUSH2 0x209 JUMP JUMPDEST JUMPDEST POP SWAP2 SWAP1 POP JUMP JUMPDEST PUSH32 0x4E487B7100000000000000000000000000000000000000000000000000000000 PUSH1 0x0 MSTORE PUSH1 0x22 PUSH1 0x4 MSTORE PUSH1 0x24 PUSH1 0x0 REVERT JUMPDEST PUSH2 0x35C DUP1 PUSH2 0x247 PUSH1 0x0 CODECOPY PUSH1 0x0 RETURN INVALID PUSH1 0x80 PUSH1 0x40 MSTORE CALLVALUE DUP1 ISZERO PUSH2 0x10 JUMPI PUSH1 0x0 DUP1 REVERT JUMPDEST POP PUSH1 0x4 CALLDATASIZE LT PUSH2 0x36 JUMPI PUSH1 0x0 CALLDATALOAD PUSH1 0xE0 SHR DUP1 PUSH4 0x6CC014DE EQ PUSH2 0x3B JUMPI DUP1 PUSH4 0xEE495002 EQ PUSH2 0x59 JUMPI JUMPDEST PUSH1 0x0 DUP1 REVERT JUMPDEST PUSH2 0x43 PUSH2 0x77 JUMP JUMPDEST PUSH1 0x40 MLOAD PUSH2 0x50 SWAP2 SWAP1 PUSH2 0x227 JUMP JUMPDEST PUSH1 0x40 MLOAD DUP1 SWAP2 SUB SWAP1 RETURN JUMPDEST PUSH2 0x61 PUSH2 0x105 JUMP JUMPDEST PUSH1 0x40 MLOAD PUSH2 0x6E SWAP2 SWAP1 PUSH2 0x205 JUMP JUMPDEST PUSH1 0x40 MLOAD DUP1 SWAP2 SUB SWAP1 RETURN JUMPDEST PUSH1 0x1 DUP1 SLOAD PUSH2 0x84 SWAP1 PUSH2 0x2B4 JUMP JUMPDEST DUP1 PUSH1 0x1F ADD PUSH1 0x20 DUP1 SWAP2 DIV MUL PUSH1 0x20 ADD PUSH1 0x40 MLOAD SWAP1 DUP2 ADD PUSH1 0x40 MSTORE DUP1 SWAP3 SWAP2 SWAP1 DUP2 DUP2 MSTORE PUSH1 0x20 ADD DUP3 DUP1 SLOAD PUSH2 0xB0 SWAP1 PUSH2 0x2B4 JUMP JUMPDEST DUP1 ISZERO PUSH2 0xFD JUMPI DUP1 PUSH1 0x1F LT PUSH2 0xD2 JUMPI PUSH2 0x100 DUP1 DUP4 SLOAD DIV MUL DUP4 MSTORE SWAP2 PUSH1 0x20 ADD SWAP2 PUSH2 0xFD JUMP JUMPDEST DUP3 ADD SWAP2 SWAP1 PUSH1 0x0 MSTORE PUSH1 0x20 PUSH1 0x0 KECCAK256 SWAP1 JUMPDEST DUP2 SLOAD DUP2 MSTORE SWAP1 PUSH1 0x1 ADD SWAP1 PUSH1 0x20 ADD DUP1 DUP4 GT PUSH2 0xE0 JUMPI DUP3 SWAP1 SUB PUSH1 0x1F AND DUP3 ADD SWAP2 JUMPDEST POP POP POP POP POP DUP2 JUMP JUMPDEST PUSH1 0x0 DUP1 SLOAD PUSH2 0x112 SWAP1 PUSH2 0x2B4 JUMP JUMPDEST DUP1 PUSH1 0x1F ADD PUSH1 0x20 DUP1 SWAP2 DIV MUL PUSH1 0x20 ADD PUSH1 0x40 MLOAD SWAP1 DUP2 ADD PUSH1 0x40 MSTORE DUP1 SWAP3 SWAP2 SWAP1 DUP2 DUP2 MSTORE PUSH1 0x20 ADD DUP3 DUP1 SLOAD PUSH2 0x13E SWAP1 PUSH2 0x2B4 JUMP JUMPDEST DUP1 ISZERO PUSH2 0x18B JUMPI DUP1 PUSH1 0x1F LT PUSH2 0x160 JUMPI PUSH2 0x100 DUP1 DUP4 SLOAD DIV MUL DUP4 MSTORE SWAP2 PUSH1 0x20 ADD SWAP2 PUSH2 0x18B JUMP JUMPDEST DUP3 ADD SWAP2 SWAP1 PUSH1 0x0 MSTORE PUSH1 0x20 PUSH1 0x0 KECCAK256 SWAP1 JUMPDEST DUP2 SLOAD DUP2 MSTORE SWAP1 PUSH1 0x1 ADD SWAP1 PUSH1 0x20 ADD DUP1 DUP4 GT PUSH2 0x16E JUMPI DUP3 SWAP1 SUB PUSH1 0x1F AND DUP3 ADD SWAP2 JUMPDEST POP POP POP POP POP DUP2 JUMP JUMPDEST PUSH1 0x0 PUSH2 0x19E DUP3 PUSH2 0x249 JUMP JUMPDEST PUSH2 0x1A8 DUP2 DUP6 PUSH2 0x25F JUMP JUMPDEST SWAP4 POP PUSH2 0x1B8 DUP2 DUP6 PUSH1 0x20 DUP7 ADD PUSH2 0x281 JUMP JUMPDEST PUSH2 0x1C1 DUP2 PUSH2 0x315 JUMP JUMPDEST DUP5 ADD SWAP2 POP POP SWAP3 SWAP2 POP POP JUMP JUMPDEST PUSH1 0x0 PUSH2 0x1D7 DUP3 PUSH2 0x254 JUMP JUMPDEST PUSH2 0x1E1 DUP2 DUP6 PUSH2 0x270 JUMP JUMPDEST SWAP4 POP PUSH2 0x1F1 DUP2 DUP6 PUSH1 0x20 DUP7 ADD PUSH2 0x281 JUMP JUMPDEST PUSH2 0x1FA DUP2 PUSH2 0x315 JUMP JUMPDEST DUP5 ADD SWAP2 POP POP SWAP3 SWAP2 POP POP JUMP JUMPDEST PUSH1 0x0 PUSH1 0x20 DUP3 ADD SWAP1 POP DUP2 DUP2 SUB PUSH1 0x0 DUP4 ADD MSTORE PUSH2 0x21F DUP2 DUP5 PUSH2 0x193 JUMP JUMPDEST SWAP1 POP SWAP3 SWAP2 POP POP JUMP JUMPDEST PUSH1 0x0 PUSH1 0x20 DUP3 ADD SWAP1 POP DUP2 DUP2 SUB PUSH1 0x0 DUP4 ADD MSTORE PUSH2 0x241 DUP2 DUP5 PUSH2 0x1CC JUMP JUMPDEST SWAP1 POP SWAP3 SWAP2 POP POP JUMP JUMPDEST PUSH1 0x0 DUP2 MLOAD SWAP1 POP SWAP2 SWAP1 POP JUMP JUMPDEST PUSH1 0x0 DUP2 MLOAD SWAP1 POP SWAP2 SWAP1 POP JUMP JUMPDEST PUSH1 0x0 DUP3 DUP3 MSTORE PUSH1 0x20 DUP3 ADD SWAP1 POP SWAP3 SWAP2 POP POP JUMP JUMPDEST PUSH1 0x0 DUP3 DUP3 MSTORE PUSH1 0x20 DUP3 ADD SWAP1 POP SWAP3 SWAP2 POP POP JUMP JUMPDEST PUSH1 0x0 JUMPDEST DUP4 DUP2 LT ISZERO PUSH2 0x29F JUMPI DUP1 DUP3 ADD MLOAD DUP2 DUP5 ADD MSTORE PUSH1 0x20 DUP2 ADD SWAP1 POP PUSH2 0x284 JUMP JUMPDEST DUP4 DUP2 GT ISZERO PUSH2 0x2AE JUMPI PUSH1 0x0 DUP5 DUP5 ADD MSTORE JUMPDEST POP POP POP POP JUMP JUMPDEST PUSH1 0x0 PUSH1 0x2 DUP3 DIV SWAP1 POP PUSH1 0x1 DUP3 AND DUP1 PUSH2 0x2CC JUMPI PUSH1 0x7F DUP3 AND SWAP2 POP JUMPDEST PUSH1 0x20 DUP3 LT DUP2 EQ ISZERO PUSH2 0x2E0 JUMPI PUSH2 0x2DF PUSH2 0x2E6 JUMP JUMPDEST JUMPDEST POP SWAP2 SWAP1 POP JUMP JUMPDEST PUSH32 0x4E487B7100000000000000000000000000000000000000000000000000000000 PUSH1 0x0 MSTORE PUSH1 0x22 PUSH1 0x4 MSTORE PUSH1 0x24 PUSH1 0x0 REVERT JUMPDEST PUSH1 0x0 PUSH1 0x1F NOT PUSH1 0x1F DUP4 ADD AND SWAP1 POP SWAP2 SWAP1 POP JUMP INVALID LOG2 PUSH5 0x6970667358 0x22 SLT KECCAK256 LOG3 LT 0xB3 PUSH19 0x3B55A868D1A95B9448BAC33AA5455450B1CFFE DUP9 SWAP15 0xBD LOG0 PUSH3 0x94C27F 0xEF PUSH5 0x736F6C6343 STOP ADDMOD SMOD STOP CALLER "
				},
				"gasEstimates": {
					"creation": {
						"codeDepositCost": "172000",
						"executionCost": "infinite",
						"totalCost": "infinite"
					},
					"external": {
						"b1()": "infinite",
						"s1()": "infinite"
					}
				},
				"methodIdentifiers": {
					"b1()": "ee495002",
					"s1()": "6cc014de"
				}
			},
			"storageLayout": {
				"storage": [
					{
						"astId": 4,
						"contract": "contracts/bytes_string.sol:BytesAndStrings",
						"label": "b1",
						"offset": 0,
						"slot": "0",
						"type": "t_bytes_storage"
					},
					{
						"astId": 7,
						"contract": "contracts/bytes_string.sol:BytesAndStrings",
						"label": "s1",
						"offset": 0,
						"slot": "1",
						"type": "t_string_storage"
					}
				],
				"types": {
					"t_bytes_storage": {
						"encoding": "bytes",
						"label": "bytes",
						"numberOfBytes": "32"
					},
					"t_string_storage": {
						"encoding": "bytes",
						"label": "string",
						"numberOfBytes": "32"
					}
				}
			},
			"userdoc": {
				"kind": "user",
				"methods": {},
				"version": 1
			}
		}
	}
}