{
	"contracts/erc20_state_vars.sol": {
		"PennyICO": {
			"abi": [
				{
					"inputs": [
						{
							"internalType": "address payable",
							"name": "_deposit",
							"type": "address"
						}
					],
					"stateMutability": "nonpayable",
					"type": "constructor"
				},
				{
					"anonymous": false,
					"inputs": [
						{
							"indexed": true,
							"internalType": "address",
							"name": "tokenOwner",
							"type": "address"
						},
						{
							"indexed": true,
							"internalType": "address",
							"name": "spender",
							"type": "address"
						},
						{
							"indexed": false,
							"internalType": "uint256",
							"name": "tokens",
							"type": "uint256"
						}
					],
					"name": "Approval",
					"type": "event"
				},
				{
					"anonymous": false,
					"inputs": [
						{
							"indexed": true,
							"internalType": "address",
							"name": "from",
							"type": "address"
						},
						{
							"indexed": true,
							"internalType": "address",
							"name": "to",
							"type": "address"
						},
						{
							"indexed": false,
							"internalType": "uint256",
							"name": "tokens",
							"type": "uint256"
						}
					],
					"name": "Transfer",
					"type": "event"
				},
				{
					"inputs": [],
					"name": "ICOstate",
					"outputs": [
						{
							"internalType": "enum PennyICO.State",
							"name": "",
							"type": "uint8"
						}
					],
					"stateMutability": "view",
					"type": "function"
				},
				{
					"inputs": [],
					"name": "admin",
					"outputs": [
						{
							"internalType": "address",
							"name": "",
							"type": "address"
						}
					],
					"stateMutability": "view",
					"type": "function"
				},
				{
					"inputs": [
						{
							"internalType": "address",
							"name": "tokenOwner",
							"type": "address"
						},
						{
							"internalType": "address",
							"name": "spender",
							"type": "address"
						}
					],
					"name": "allowance",
					"outputs": [
						{
							"internalType": "uint256",
							"name": "",
							"type": "uint256"
						}
					],
					"stateMutability": "view",
					"type": "function"
				},
				{
					"inputs": [
						{
							"internalType": "address",
							"name": "spender",
							"type": "address"
						},
						{
							"internalType": "uint256",
							"name": "tokens",
							"type": "uint256"
						}
					],
					"name": "approve",
					"outputs": [
						{
							"internalType": "bool",
							"name": "success",
							"type": "bool"
						}
					],
					"stateMutability": "nonpayable",
					"type": "function"
				},
				{
					"inputs": [
						{
							"internalType": "address",
							"name": "tokenOwner",
							"type": "address"
						}
					],
					"name": "balanceOf",
					"outputs": [
						{
							"internalType": "uint256",
							"name": "balance",
							"type": "uint256"
						}
					],
					"stateMutability": "view",
					"type": "function"
				},
				{
					"inputs": [
						{
							"internalType": "address",
							"name": "",
							"type": "address"
						}
					],
					"name": "balances",
					"outputs": [
						{
							"internalType": "uint256",
							"name": "",
							"type": "uint256"
						}
					],
					"stateMutability": "view",
					"type": "function"
				},
				{
					"inputs": [],
					"name": "decimals",
					"outputs": [
						{
							"internalType": "uint256",
							"name": "",
							"type": "uint256"
						}
					],
					"stateMutability": "view",
					"type": "function"
				},
				{
					"inputs": [],
					"name": "deposit",
					"outputs": [
						{
							"internalType": "address payable",
							"name": "",
							"type": "address"
						}
					],
					"stateMutability": "view",
					"type": "function"
				},
				{
					"inputs": [],
					"name": "founder",
					"outputs": [
						{
							"internalType": "address",
							"name": "",
							"type": "address"
						}
					],
					"stateMutability": "view",
					"type": "function"
				},
				{
					"inputs": [],
					"name": "hardCap",
					"outputs": [
						{
							"internalType": "uint256",
							"name": "",
							"type": "uint256"
						}
					],
					"stateMutability": "view",
					"type": "function"
				},
				{
					"inputs": [],
					"name": "maxInvestment",
					"outputs": [
						{
							"internalType": "uint256",
							"name": "",
							"type": "uint256"
						}
					],
					"stateMutability": "view",
					"type": "function"
				},
				{
					"inputs": [],
					"name": "minInvestment",
					"outputs": [
						{
							"internalType": "uint256",
							"name": "",
							"type": "uint256"
						}
					],
					"stateMutability": "view",
					"type": "function"
				},
				{
					"inputs": [],
					"name": "name",
					"outputs": [
						{
							"internalType": "string",
							"name": "",
							"type": "string"
						}
					],
					"stateMutability": "view",
					"type": "function"
				},
				{
					"inputs": [],
					"name": "raisedAmount",
					"outputs": [
						{
							"internalType": "uint256",
							"name": "",
							"type": "uint256"
						}
					],
					"stateMutability": "view",
					"type": "function"
				},
				{
					"inputs": [],
					"name": "saleEnd",
					"outputs": [
						{
							"internalType": "uint256",
							"name": "",
							"type": "uint256"
						}
					],
					"stateMutability": "view",
					"type": "function"
				},
				{
					"inputs": [],
					"name": "saleStart",
					"outputs": [
						{
							"internalType": "uint256",
							"name": "",
							"type": "uint256"
						}
					],
					"stateMutability": "view",
					"type": "function"
				},
				{
					"inputs": [],
					"name": "symbol",
					"outputs": [
						{
							"internalType": "string",
							"name": "",
							"type": "string"
						}
					],
					"stateMutability": "view",
					"type": "function"
				},
				{
					"inputs": [],
					"name": "tokenTradeStart",
					"outputs": [
						{
							"internalType": "uint256",
							"name": "",
							"type": "uint256"
						}
					],
					"stateMutability": "view",
					"type": "function"
				},
				{
					"inputs": [],
					"name": "totalSupply",
					"outputs": [
						{
							"internalType": "uint256",
							"name": "",
							"type": "uint256"
						}
					],
					"stateMutability": "view",
					"type": "function"
				},
				{
					"inputs": [
						{
							"internalType": "address",
							"name": "to",
							"type": "address"
						},
						{
							"internalType": "uint256",
							"name": "tokens",
							"type": "uint256"
						}
					],
					"name": "transfer",
					"outputs": [
						{
							"internalType": "bool",
							"name": "success",
							"type": "bool"
						}
					],
					"stateMutability": "nonpayable",
					"type": "function"
				},
				{
					"inputs": [
						{
							"internalType": "address",
							"name": "from",
							"type": "address"
						},
						{
							"internalType": "address",
							"name": "to",
							"type": "address"
						},
						{
							"internalType": "uint256",
							"name": "tokens",
							"type": "uint256"
						}
					],
					"name": "transferFrom",
					"outputs": [
						{
							"internalType": "bool",
							"name": "",
							"type": "bool"
						}
					],
					"stateMutability": "nonpayable",
					"type": "function"
				}
			],
			"devdoc": {
				"kind": "dev",
				"methods": {},
				"version": 1
			},
			"evm": {
				"assembly": "    /* \"contracts/erc20_state_vars.sol\":4667:6063  contract PennyICO is Pennies{\r... */\n  mstore(0x40, 0x80)\n    /* \"contracts/erc20_state_vars.sol\":1143:1179  string public name = \"Penny Pennies\" */\n  mload(0x40)\n  dup1\n  0x40\n  add\n  0x40\n  mstore\n  dup1\n  0x0d\n  dup2\n  mstore\n  0x20\n  add\n  0x50656e6e792050656e6e69657300000000000000000000000000000000000000\n  dup2\n  mstore\n  pop\n  0x00\n  swap1\n  dup1\n  mload\n  swap1\n  0x20\n  add\n  swap1\n  tag_1\n  swap3\n  swap2\n  swap1\n  tag_2\n  jump\t// in\ntag_1:\n  pop\n    /* \"contracts/erc20_state_vars.sol\":1186:1216  string public symbol = \"PENNY\" */\n  mload(0x40)\n  dup1\n  0x40\n  add\n  0x40\n  mstore\n  dup1\n  0x05\n  dup2\n  mstore\n  0x20\n  add\n  0x50454e4e59000000000000000000000000000000000000000000000000000000\n  dup2\n  mstore\n  pop\n  0x01\n  swap1\n  dup1\n  mload\n  swap1\n  0x20\n  add\n  swap1\n  tag_3\n  swap3\n  swap2\n  swap1\n  tag_2\n  jump\t// in\ntag_3:\n  pop\n    /* \"contracts/erc20_state_vars.sol\":1246:1247  0 */\n  0x00\n    /* \"contracts/erc20_state_vars.sol\":1223:1247  uint public decimals = 0 */\n  0x02\n  sstore\n    /* \"contracts/erc20_state_vars.sol\":4866:4880  0.000001 ether */\n  0xe8d4a51000\n    /* \"contracts/erc20_state_vars.sol\":4848:4880  uint tokenPrice = 0.000001 ether */\n  0x09\n  sstore\n    /* \"contracts/erc20_state_vars.sol\":4964:4973  300 ether */\n  0x1043561a8829300000\n    /* \"contracts/erc20_state_vars.sol\":4942:4973  uint public hardCap = 300 ether */\n  0x0a\n  sstore\n    /* \"contracts/erc20_state_vars.sol\":5114:5116  10 */\n  0x0a\n    /* \"contracts/erc20_state_vars.sol\":5096:5111  block.timestamp */\n  timestamp\n    /* \"contracts/erc20_state_vars.sol\":5096:5116  block.timestamp + 10 */\n  tag_4\n  swap2\n  swap1\n  tag_5\n  jump\t// in\ntag_4:\n    /* \"contracts/erc20_state_vars.sol\":5072:5116  uint public saleStart = block.timestamp + 10 */\n  0x0c\n  sstore\n    /* \"contracts/erc20_state_vars.sol\":5201:5214  3600 * 24 * 7 */\n  0x093a80\n    /* \"contracts/erc20_state_vars.sol\":5183:5198  block.timestamp */\n  timestamp\n    /* \"contracts/erc20_state_vars.sol\":5183:5214  block.timestamp + 3600 * 24 * 7 */\n  tag_6\n  swap2\n  swap1\n  tag_5\n  jump\t// in\ntag_6:\n    /* \"contracts/erc20_state_vars.sol\":5161:5214  uint public saleEnd = block.timestamp + 3600 * 24 * 7 */\n  0x0d\n  sstore\n    /* \"contracts/erc20_state_vars.sol\":5355:5361  604800 */\n  0x093a80\n    /* \"contracts/erc20_state_vars.sol\":5345:5352  saleEnd */\n  sload(0x0d)\n    /* \"contracts/erc20_state_vars.sol\":5345:5361  saleEnd + 604800 */\n  tag_7\n  swap2\n  swap1\n  tag_5\n  jump\t// in\ntag_7:\n    /* \"contracts/erc20_state_vars.sol\":5315:5361  uint public tokenTradeStart = saleEnd + 604800 */\n  0x0e\n  sstore\n    /* \"contracts/erc20_state_vars.sol\":5445:5452  5 ether */\n  0x4563918244f40000\n    /* \"contracts/erc20_state_vars.sol\":5417:5452  uint public maxInvestment = 5 ether */\n  0x0f\n  sstore\n    /* \"contracts/erc20_state_vars.sol\":5487:5496  0.1 ether */\n  0x016345785d8a0000\n    /* \"contracts/erc20_state_vars.sol\":5459:5496  uint public minInvestment = 0.1 ether */\n  0x10\n  sstore\n    /* \"contracts/erc20_state_vars.sol\":5755:5897  constructor(address payable _deposit){\r... */\n  callvalue\n  dup1\n  iszero\n  tag_8\n  jumpi\n  0x00\n  dup1\n  revert\ntag_8:\n  pop\n  mload(0x40)\n  sub(codesize, bytecodeSize)\n  dup1\n  bytecodeSize\n  dup4\n  codecopy\n  dup2\n  dup2\n  add\n  0x40\n  mstore\n  dup2\n  add\n  swap1\n  tag_9\n  swap2\n  swap1\n  tag_10\n  jump\t// in\ntag_9:\n    /* \"contracts/erc20_state_vars.sol\":1929:1936  1000000 */\n  0x0f4240\n    /* \"contracts/erc20_state_vars.sol\":1915:1926  totalSupply */\n  0x03\n    /* \"contracts/erc20_state_vars.sol\":1915:1936  totalSupply = 1000000 */\n  dup2\n  swap1\n  sstore\n  pop\n    /* \"contracts/erc20_state_vars.sol\":2012:2022  msg.sender */\n  caller\n    /* \"contracts/erc20_state_vars.sol\":2002:2009  founder */\n  0x04\n  0x00\n    /* \"contracts/erc20_state_vars.sol\":2002:2022  founder = msg.sender */\n  0x0100\n  exp\n  dup2\n  sload\n  dup2\n  0xffffffffffffffffffffffffffffffffffffffff\n  mul\n  not\n  and\n  swap1\n  dup4\n  0xffffffffffffffffffffffffffffffffffffffff\n  and\n  mul\n  or\n  swap1\n  sstore\n  pop\n    /* \"contracts/erc20_state_vars.sol\":2132:2143  totalSupply */\n  sload(0x03)\n    /* \"contracts/erc20_state_vars.sol\":2112:2120  balances */\n  0x05\n    /* \"contracts/erc20_state_vars.sol\":2112:2129  balances[founder] */\n  0x00\n    /* \"contracts/erc20_state_vars.sol\":2121:2128  founder */\n  0x04\n  0x00\n  swap1\n  sload\n  swap1\n  0x0100\n  exp\n  swap1\n  div\n  0xffffffffffffffffffffffffffffffffffffffff\n  and\n    /* \"contracts/erc20_state_vars.sol\":2112:2129  balances[founder] */\n  0xffffffffffffffffffffffffffffffffffffffff\n  and\n  0xffffffffffffffffffffffffffffffffffffffff\n  and\n  dup2\n  mstore\n  0x20\n  add\n  swap1\n  dup2\n  mstore\n  0x20\n  add\n  0x00\n  keccak256\n    /* \"contracts/erc20_state_vars.sol\":2112:2143  balances[founder] = totalSupply */\n  dup2\n  swap1\n  sstore\n  pop\n    /* \"contracts/erc20_state_vars.sol\":5813:5821  _deposit */\n  dup1\n    /* \"contracts/erc20_state_vars.sol\":5803:5810  deposit */\n  0x08\n  0x00\n    /* \"contracts/erc20_state_vars.sol\":5803:5821  deposit = _deposit */\n  0x0100\n  exp\n  dup2\n  sload\n  dup2\n  0xffffffffffffffffffffffffffffffffffffffff\n  mul\n  not\n  and\n  swap1\n  dup4\n  0xffffffffffffffffffffffffffffffffffffffff\n  and\n  mul\n  or\n  swap1\n  sstore\n  pop\n    /* \"contracts/erc20_state_vars.sol\":5840:5850  msg.sender */\n  caller\n    /* \"contracts/erc20_state_vars.sol\":5832:5837  admin */\n  0x07\n  0x00\n    /* \"contracts/erc20_state_vars.sol\":5832:5850  admin = msg.sender */\n  0x0100\n  exp\n  dup2\n  sload\n  dup2\n  0xffffffffffffffffffffffffffffffffffffffff\n  mul\n  not\n  and\n  swap1\n  dup4\n  0xffffffffffffffffffffffffffffffffffffffff\n  and\n  mul\n  or\n  swap1\n  sstore\n  pop\n    /* \"contracts/erc20_state_vars.sol\":5872:5889  State.beforeStart */\n  0x00\n    /* \"contracts/erc20_state_vars.sol\":5861:5869  ICOstate */\n  0x11\n  0x00\n    /* \"contracts/erc20_state_vars.sol\":5861:5889  ICOstate = State.beforeStart */\n  0x0100\n  exp\n  dup2\n  sload\n  dup2\n  0xff\n  mul\n  not\n  and\n  swap1\n  dup4\n  0x03\n  dup2\n  gt\n  iszero\n  tag_15\n  jumpi\n  tag_16\n  tag_17\n  jump\t// in\ntag_16:\ntag_15:\n  mul\n  or\n  swap1\n  sstore\n  pop\n    /* \"contracts/erc20_state_vars.sol\":5755:5897  constructor(address payable _deposit){\r... */\n  pop\n    /* \"contracts/erc20_state_vars.sol\":4667:6063  contract PennyICO is Pennies{\r... */\n  jump(tag_18)\ntag_2:\n  dup3\n  dup1\n  sload\n  tag_19\n  swap1\n  tag_20\n  jump\t// in\ntag_19:\n  swap1\n  0x00\n  mstore\n  keccak256(0x00, 0x20)\n  swap1\n  0x1f\n  add\n  0x20\n  swap1\n  div\n  dup2\n  add\n  swap3\n  dup3\n  tag_22\n  jumpi\n  0x00\n  dup6\n  sstore\n  jump(tag_21)\ntag_22:\n  dup3\n  0x1f\n  lt\n  tag_23\n  jumpi\n  dup1\n  mload\n  not(0xff)\n  and\n  dup4\n  dup1\n  add\n  or\n  dup6\n  sstore\n  jump(tag_21)\ntag_23:\n  dup3\n  dup1\n  add\n  0x01\n  add\n  dup6\n  sstore\n  dup3\n  iszero\n  tag_21\n  jumpi\n  swap2\n  dup3\n  add\ntag_24:\n  dup3\n  dup2\n  gt\n  iszero\n  tag_25\n  jumpi\n  dup3\n  mload\n  dup3\n  sstore\n  swap2\n  0x20\n  add\n  swap2\n  swap1\n  0x01\n  add\n  swap1\n  jump(tag_24)\ntag_25:\ntag_21:\n  pop\n  swap1\n  pop\n  tag_26\n  swap2\n  swap1\n  tag_27\n  jump\t// in\ntag_26:\n  pop\n  swap1\n  jump\t// out\ntag_27:\ntag_28:\n  dup1\n  dup3\n  gt\n  iszero\n  tag_29\n  jumpi\n  0x00\n  dup2\n  0x00\n  swap1\n  sstore\n  pop\n  0x01\n  add\n  jump(tag_28)\ntag_29:\n  pop\n  swap1\n  jump\t// out\n    /* \"#utility.yul\":7:166   */\ntag_31:\n    /* \"#utility.yul\":72:77   */\n  0x00\n    /* \"#utility.yul\":103:109   */\n  dup2\n    /* \"#utility.yul\":97:110   */\n  mload\n    /* \"#utility.yul\":88:110   */\n  swap1\n  pop\n    /* \"#utility.yul\":119:160   */\n  tag_33\n    /* \"#utility.yul\":154:159   */\n  dup2\n    /* \"#utility.yul\":119:160   */\n  tag_34\n  jump\t// in\ntag_33:\n    /* \"#utility.yul\":7:166   */\n  swap3\n  swap2\n  pop\n  pop\n  jump\t// out\n    /* \"#utility.yul\":172:539   */\ntag_10:\n    /* \"#utility.yul\":250:256   */\n  0x00\n    /* \"#utility.yul\":299:301   */\n  0x20\n    /* \"#utility.yul\":287:296   */\n  dup3\n    /* \"#utility.yul\":278:285   */\n  dup5\n    /* \"#utility.yul\":274:297   */\n  sub\n    /* \"#utility.yul\":270:302   */\n  slt\n    /* \"#utility.yul\":267:386   */\n  iszero\n  tag_36\n  jumpi\n    /* \"#utility.yul\":305:384   */\n  tag_37\n  tag_38\n  jump\t// in\ntag_37:\n    /* \"#utility.yul\":267:386   */\ntag_36:\n    /* \"#utility.yul\":425:426   */\n  0x00\n    /* \"#utility.yul\":450:522   */\n  tag_39\n    /* \"#utility.yul\":514:521   */\n  dup5\n    /* \"#utility.yul\":505:511   */\n  dup3\n    /* \"#utility.yul\":494:503   */\n  dup6\n    /* \"#utility.yul\":490:512   */\n  add\n    /* \"#utility.yul\":450:522   */\n  tag_31\n  jump\t// in\ntag_39:\n    /* \"#utility.yul\":440:522   */\n  swap2\n  pop\n    /* \"#utility.yul\":396:532   */\n  pop\n    /* \"#utility.yul\":172:539   */\n  swap3\n  swap2\n  pop\n  pop\n  jump\t// out\n    /* \"#utility.yul\":626:931   */\ntag_5:\n    /* \"#utility.yul\":666:669   */\n  0x00\n    /* \"#utility.yul\":685:705   */\n  tag_43\n    /* \"#utility.yul\":703:704   */\n  dup3\n    /* \"#utility.yul\":685:705   */\n  tag_44\n  jump\t// in\ntag_43:\n    /* \"#utility.yul\":680:705   */\n  swap2\n  pop\n    /* \"#utility.yul\":719:739   */\n  tag_45\n    /* \"#utility.yul\":737:738   */\n  dup4\n    /* \"#utility.yul\":719:739   */\n  tag_44\n  jump\t// in\ntag_45:\n    /* \"#utility.yul\":714:739   */\n  swap3\n  pop\n    /* \"#utility.yul\":873:874   */\n  dup3\n    /* \"#utility.yul\":805:871   */\n  0xffffffffffffffffffffffffffffffffffffffffffffffffffffffffffffffff\n    /* \"#utility.yul\":801:875   */\n  sub\n    /* \"#utility.yul\":798:799   */\n  dup3\n    /* \"#utility.yul\":795:876   */\n  gt\n    /* \"#utility.yul\":792:899   */\n  iszero\n  tag_46\n  jumpi\n    /* \"#utility.yul\":879:897   */\n  tag_47\n  tag_48\n  jump\t// in\ntag_47:\n    /* \"#utility.yul\":792:899   */\ntag_46:\n    /* \"#utility.yul\":923:924   */\n  dup3\n    /* \"#utility.yul\":920:921   */\n  dup3\n    /* \"#utility.yul\":916:925   */\n  add\n    /* \"#utility.yul\":909:925   */\n  swap1\n  pop\n    /* \"#utility.yul\":626:931   */\n  swap3\n  swap2\n  pop\n  pop\n  jump\t// out\n    /* \"#utility.yul\":937:1041   */\ntag_49:\n    /* \"#utility.yul\":982:989   */\n  0x00\n    /* \"#utility.yul\":1011:1035   */\n  tag_51\n    /* \"#utility.yul\":1029:1034   */\n  dup3\n    /* \"#utility.yul\":1011:1035   */\n  tag_52\n  jump\t// in\ntag_51:\n    /* \"#utility.yul\":1000:1035   */\n  swap1\n  pop\n    /* \"#utility.yul\":937:1041   */\n  swap2\n  swap1\n  pop\n  jump\t// out\n    /* \"#utility.yul\":1047:1173   */\ntag_52:\n    /* \"#utility.yul\":1084:1091   */\n  0x00\n    /* \"#utility.yul\":1124:1166   */\n  0xffffffffffffffffffffffffffffffffffffffff\n    /* \"#utility.yul\":1117:1122   */\n  dup3\n    /* \"#utility.yul\":1113:1167   */\n  and\n    /* \"#utility.yul\":1102:1167   */\n  swap1\n  pop\n    /* \"#utility.yul\":1047:1173   */\n  swap2\n  swap1\n  pop\n  jump\t// out\n    /* \"#utility.yul\":1179:1256   */\ntag_44:\n    /* \"#utility.yul\":1216:1223   */\n  0x00\n    /* \"#utility.yul\":1245:1250   */\n  dup2\n    /* \"#utility.yul\":1234:1250   */\n  swap1\n  pop\n    /* \"#utility.yul\":1179:1256   */\n  swap2\n  swap1\n  pop\n  jump\t// out\n    /* \"#utility.yul\":1262:1582   */\ntag_20:\n    /* \"#utility.yul\":1306:1312   */\n  0x00\n    /* \"#utility.yul\":1343:1344   */\n  0x02\n    /* \"#utility.yul\":1337:1341   */\n  dup3\n    /* \"#utility.yul\":1333:1345   */\n  div\n    /* \"#utility.yul\":1323:1345   */\n  swap1\n  pop\n    /* \"#utility.yul\":1390:1391   */\n  0x01\n    /* \"#utility.yul\":1384:1388   */\n  dup3\n    /* \"#utility.yul\":1380:1392   */\n  and\n    /* \"#utility.yul\":1411:1429   */\n  dup1\n    /* \"#utility.yul\":1401:1482   */\n  tag_56\n  jumpi\n    /* \"#utility.yul\":1467:1471   */\n  0x7f\n    /* \"#utility.yul\":1459:1465   */\n  dup3\n    /* \"#utility.yul\":1455:1472   */\n  and\n    /* \"#utility.yul\":1445:1472   */\n  swap2\n  pop\n    /* \"#utility.yul\":1401:1482   */\ntag_56:\n    /* \"#utility.yul\":1529:1531   */\n  0x20\n    /* \"#utility.yul\":1521:1527   */\n  dup3\n    /* \"#utility.yul\":1518:1532   */\n  lt\n    /* \"#utility.yul\":1498:1516   */\n  dup2\n    /* \"#utility.yul\":1495:1533   */\n  eq\n    /* \"#utility.yul\":1492:1576   */\n  iszero\n  tag_57\n  jumpi\n    /* \"#utility.yul\":1548:1566   */\n  tag_58\n  tag_59\n  jump\t// in\ntag_58:\n    /* \"#utility.yul\":1492:1576   */\ntag_57:\n    /* \"#utility.yul\":1313:1582   */\n  pop\n    /* \"#utility.yul\":1262:1582   */\n  swap2\n  swap1\n  pop\n  jump\t// out\n    /* \"#utility.yul\":1588:1768   */\ntag_48:\n    /* \"#utility.yul\":1636:1713   */\n  0x4e487b7100000000000000000000000000000000000000000000000000000000\n    /* \"#utility.yul\":1633:1634   */\n  0x00\n    /* \"#utility.yul\":1626:1714   */\n  mstore\n    /* \"#utility.yul\":1733:1737   */\n  0x11\n    /* \"#utility.yul\":1730:1731   */\n  0x04\n    /* \"#utility.yul\":1723:1738   */\n  mstore\n    /* \"#utility.yul\":1757:1761   */\n  0x24\n    /* \"#utility.yul\":1754:1755   */\n  0x00\n    /* \"#utility.yul\":1747:1762   */\n  revert\n    /* \"#utility.yul\":1774:1954   */\ntag_17:\n    /* \"#utility.yul\":1822:1899   */\n  0x4e487b7100000000000000000000000000000000000000000000000000000000\n    /* \"#utility.yul\":1819:1820   */\n  0x00\n    /* \"#utility.yul\":1812:1900   */\n  mstore\n    /* \"#utility.yul\":1919:1923   */\n  0x21\n    /* \"#utility.yul\":1916:1917   */\n  0x04\n    /* \"#utility.yul\":1909:1924   */\n  mstore\n    /* \"#utility.yul\":1943:1947   */\n  0x24\n    /* \"#utility.yul\":1940:1941   */\n  0x00\n    /* \"#utility.yul\":1933:1948   */\n  revert\n    /* \"#utility.yul\":1960:2140   */\ntag_59:\n    /* \"#utility.yul\":2008:2085   */\n  0x4e487b7100000000000000000000000000000000000000000000000000000000\n    /* \"#utility.yul\":2005:2006   */\n  0x00\n    /* \"#utility.yul\":1998:2086   */\n  mstore\n    /* \"#utility.yul\":2105:2109   */\n  0x22\n    /* \"#utility.yul\":2102:2103   */\n  0x04\n    /* \"#utility.yul\":2095:2110   */\n  mstore\n    /* \"#utility.yul\":2129:2133   */\n  0x24\n    /* \"#utility.yul\":2126:2127   */\n  0x00\n    /* \"#utility.yul\":2119:2134   */\n  revert\n    /* \"#utility.yul\":2269:2386   */\ntag_38:\n    /* \"#utility.yul\":2378:2379   */\n  0x00\n    /* \"#utility.yul\":2375:2376   */\n  dup1\n    /* \"#utility.yul\":2368:2380   */\n  revert\n    /* \"#utility.yul\":2392:2530   */\ntag_34:\n    /* \"#utility.yul\":2473:2505   */\n  tag_67\n    /* \"#utility.yul\":2499:2504   */\n  dup2\n    /* \"#utility.yul\":2473:2505   */\n  tag_49\n  jump\t// in\ntag_67:\n    /* \"#utility.yul\":2466:2471   */\n  dup2\n    /* \"#utility.yul\":2463:2506   */\n  eq\n    /* \"#utility.yul\":2453:2524   */\n  tag_68\n  jumpi\n    /* \"#utility.yul\":2520:2521   */\n  0x00\n    /* \"#utility.yul\":2517:2518   */\n  dup1\n    /* \"#utility.yul\":2510:2522   */\n  revert\n    /* \"#utility.yul\":2453:2524   */\ntag_68:\n    /* \"#utility.yul\":2392:2530   */\n  pop\n  jump\t// out\n    /* \"contracts/erc20_state_vars.sol\":4667:6063  contract PennyICO is Pennies{\r... */\ntag_18:\n  dataSize(sub_0)\n  dup1\n  dataOffset(sub_0)\n  0x00\n  codecopy\n  0x00\n  return\nstop\n\nsub_0: assembly {\n        /* \"contracts/erc20_state_vars.sol\":4667:6063  contract PennyICO is Pennies{\r... */\n      mstore(0x40, 0x80)\n      callvalue\n      dup1\n      iszero\n      tag_1\n      jumpi\n      0x00\n      dup1\n      revert\n    tag_1:\n      pop\n      jumpi(tag_2, lt(calldatasize, 0x04))\n      shr(0xe0, calldataload(0x00))\n      dup1\n      0x8ac2c680\n      gt\n      tag_24\n      jumpi\n      dup1\n      0xc59ee1dc\n      gt\n      tag_25\n      jumpi\n      dup1\n      0xc59ee1dc\n      eq\n      tag_18\n      jumpi\n      dup1\n      0xcc9ba583\n      eq\n      tag_19\n      jumpi\n      dup1\n      0xd0e30db0\n      eq\n      tag_20\n      jumpi\n      dup1\n      0xdd62ed3e\n      eq\n      tag_21\n      jumpi\n      dup1\n      0xf851a440\n      eq\n      tag_22\n      jumpi\n      dup1\n      0xfb86a404\n      eq\n      tag_23\n      jumpi\n      jump(tag_2)\n    tag_25:\n      dup1\n      0x8ac2c680\n      eq\n      tag_13\n      jumpi\n      dup1\n      0x95d89b41\n      eq\n      tag_14\n      jumpi\n      dup1\n      0xa9059cbb\n      eq\n      tag_15\n      jumpi\n      dup1\n      0xab0bcc41\n      eq\n      tag_16\n      jumpi\n      dup1\n      0xc10b9358\n      eq\n      tag_17\n      jumpi\n      jump(tag_2)\n    tag_24:\n      dup1\n      0x27e235e3\n      gt\n      tag_26\n      jumpi\n      dup1\n      0x27e235e3\n      eq\n      tag_8\n      jumpi\n      dup1\n      0x313ce567\n      eq\n      tag_9\n      jumpi\n      dup1\n      0x3a2c7a37\n      eq\n      tag_10\n      jumpi\n      dup1\n      0x4d853ee5\n      eq\n      tag_11\n      jumpi\n      dup1\n      0x70a08231\n      eq\n      tag_12\n      jumpi\n      jump(tag_2)\n    tag_26:\n      dup1\n      0x2e1316\n      eq\n      tag_3\n      jumpi\n      dup1\n      0x06fdde03\n      eq\n      tag_4\n      jumpi\n      dup1\n      0x095ea7b3\n      eq\n      tag_5\n      jumpi\n      dup1\n      0x18160ddd\n      eq\n      tag_6\n      jumpi\n      dup1\n      0x23b872dd\n      eq\n      tag_7\n      jumpi\n    tag_2:\n      0x00\n      dup1\n      revert\n        /* \"contracts/erc20_state_vars.sol\":5417:5452  uint public maxInvestment = 5 ether */\n    tag_3:\n      tag_27\n      tag_28\n      jump\t// in\n    tag_27:\n      mload(0x40)\n      tag_29\n      swap2\n      swap1\n      tag_30\n      jump\t// in\n    tag_29:\n      mload(0x40)\n      dup1\n      swap2\n      sub\n      swap1\n      return\n        /* \"contracts/erc20_state_vars.sol\":1143:1179  string public name = \"Penny Pennies\" */\n    tag_4:\n      tag_31\n      tag_32\n      jump\t// in\n    tag_31:\n      mload(0x40)\n      tag_33\n      swap2\n      swap1\n      tag_34\n      jump\t// in\n    tag_33:\n      mload(0x40)\n      dup1\n      swap2\n      sub\n      swap1\n      return\n        /* \"contracts/erc20_state_vars.sol\":3262:3874  function approve(address spender, uint tokens) public override returns (bool success){\r... */\n    tag_5:\n      tag_35\n      0x04\n      dup1\n      calldatasize\n      sub\n      dup2\n      add\n      swap1\n      tag_36\n      swap2\n      swap1\n      tag_37\n      jump\t// in\n    tag_36:\n      tag_38\n      jump\t// in\n    tag_35:\n      mload(0x40)\n      tag_39\n      swap2\n      swap1\n      tag_40\n      jump\t// in\n    tag_39:\n      mload(0x40)\n      dup1\n      swap2\n      sub\n      swap1\n      return\n        /* \"contracts/erc20_state_vars.sol\":1332:1364  uint public override totalSupply */\n    tag_6:\n      tag_41\n      tag_42\n      jump\t// in\n    tag_41:\n      mload(0x40)\n      tag_43\n      swap2\n      swap1\n      tag_30\n      jump\t// in\n    tag_43:\n      mload(0x40)\n      dup1\n      swap2\n      sub\n      swap1\n      return\n        /* \"contracts/erc20_state_vars.sol\":3882:4641  function transferFrom(address from, address to, uint tokens) public override returns (bool){\r... */\n    tag_7:\n      tag_44\n      0x04\n      dup1\n      calldatasize\n      sub\n      dup2\n      add\n      swap1\n      tag_45\n      swap2\n      swap1\n      tag_46\n      jump\t// in\n    tag_45:\n      tag_47\n      jump\t// in\n    tag_44:\n      mload(0x40)\n      tag_48\n      swap2\n      swap1\n      tag_40\n      jump\t// in\n    tag_48:\n      mload(0x40)\n      dup1\n      swap2\n      sub\n      swap1\n      return\n        /* \"contracts/erc20_state_vars.sol\":1502:1543  mapping (address => uint) public balances */\n    tag_8:\n      tag_49\n      0x04\n      dup1\n      calldatasize\n      sub\n      dup2\n      add\n      swap1\n      tag_50\n      swap2\n      swap1\n      tag_51\n      jump\t// in\n    tag_50:\n      tag_52\n      jump\t// in\n    tag_49:\n      mload(0x40)\n      tag_53\n      swap2\n      swap1\n      tag_30\n      jump\t// in\n    tag_53:\n      mload(0x40)\n      dup1\n      swap2\n      sub\n      swap1\n      return\n        /* \"contracts/erc20_state_vars.sol\":1223:1247  uint public decimals = 0 */\n    tag_9:\n      tag_54\n      tag_55\n      jump\t// in\n    tag_54:\n      mload(0x40)\n      tag_56\n      swap2\n      swap1\n      tag_30\n      jump\t// in\n    tag_56:\n      mload(0x40)\n      dup1\n      swap2\n      sub\n      swap1\n      return\n        /* \"contracts/erc20_state_vars.sol\":5685:5706  State public ICOstate */\n    tag_10:\n      tag_57\n      tag_58\n      jump\t// in\n    tag_57:\n      mload(0x40)\n      tag_59\n      swap2\n      swap1\n      tag_60\n      jump\t// in\n    tag_59:\n      mload(0x40)\n      dup1\n      swap2\n      sub\n      swap1\n      return\n        /* \"contracts/erc20_state_vars.sol\":1402:1424  address public founder */\n    tag_11:\n      tag_61\n      tag_62\n      jump\t// in\n    tag_61:\n      mload(0x40)\n      tag_63\n      swap2\n      swap1\n      tag_64\n      jump\t// in\n    tag_63:\n      mload(0x40)\n      dup1\n      swap2\n      sub\n      swap1\n      return\n        /* \"contracts/erc20_state_vars.sol\":2214:2346  function balanceOf(address tokenOwner) public view override returns (uint balance){\r... */\n    tag_12:\n      tag_65\n      0x04\n      dup1\n      calldatasize\n      sub\n      dup2\n      add\n      swap1\n      tag_66\n      swap2\n      swap1\n      tag_51\n      jump\t// in\n    tag_66:\n      tag_67\n      jump\t// in\n    tag_65:\n      mload(0x40)\n      tag_68\n      swap2\n      swap1\n      tag_30\n      jump\t// in\n    tag_68:\n      mload(0x40)\n      dup1\n      swap2\n      sub\n      swap1\n      return\n        /* \"contracts/erc20_state_vars.sol\":5459:5496  uint public minInvestment = 0.1 ether */\n    tag_13:\n      tag_69\n      tag_70\n      jump\t// in\n    tag_69:\n      mload(0x40)\n      tag_71\n      swap2\n      swap1\n      tag_30\n      jump\t// in\n    tag_71:\n      mload(0x40)\n      dup1\n      swap2\n      sub\n      swap1\n      return\n        /* \"contracts/erc20_state_vars.sol\":1186:1216  string public symbol = \"PENNY\" */\n    tag_14:\n      tag_72\n      tag_73\n      jump\t// in\n    tag_72:\n      mload(0x40)\n      tag_74\n      swap2\n      swap1\n      tag_34\n      jump\t// in\n    tag_74:\n      mload(0x40)\n      dup1\n      swap2\n      sub\n      swap1\n      return\n        /* \"contracts/erc20_state_vars.sol\":2404:2979  function transfer(address to, uint tokens) public override returns (bool success){\r... */\n    tag_15:\n      tag_75\n      0x04\n      dup1\n      calldatasize\n      sub\n      dup2\n      add\n      swap1\n      tag_76\n      swap2\n      swap1\n      tag_37\n      jump\t// in\n    tag_76:\n      tag_77\n      jump\t// in\n    tag_75:\n      mload(0x40)\n      tag_78\n      swap2\n      swap1\n      tag_40\n      jump\t// in\n    tag_78:\n      mload(0x40)\n      dup1\n      swap2\n      sub\n      swap1\n      return\n        /* \"contracts/erc20_state_vars.sol\":5072:5116  uint public saleStart = block.timestamp + 10 */\n    tag_16:\n      tag_79\n      tag_80\n      jump\t// in\n    tag_79:\n      mload(0x40)\n      tag_81\n      swap2\n      swap1\n      tag_30\n      jump\t// in\n    tag_81:\n      mload(0x40)\n      dup1\n      swap2\n      sub\n      swap1\n      return\n        /* \"contracts/erc20_state_vars.sol\":5161:5214  uint public saleEnd = block.timestamp + 3600 * 24 * 7 */\n    tag_17:\n      tag_82\n      tag_83\n      jump\t// in\n    tag_82:\n      mload(0x40)\n      tag_84\n      swap2\n      swap1\n      tag_30\n      jump\t// in\n    tag_84:\n      mload(0x40)\n      dup1\n      swap2\n      sub\n      swap1\n      return\n        /* \"contracts/erc20_state_vars.sol\":5020:5044  uint public raisedAmount */\n    tag_18:\n      tag_85\n      tag_86\n      jump\t// in\n    tag_85:\n      mload(0x40)\n      tag_87\n      swap2\n      swap1\n      tag_30\n      jump\t// in\n    tag_87:\n      mload(0x40)\n      dup1\n      swap2\n      sub\n      swap1\n      return\n        /* \"contracts/erc20_state_vars.sol\":5315:5361  uint public tokenTradeStart = saleEnd + 604800 */\n    tag_19:\n      tag_88\n      tag_89\n      jump\t// in\n    tag_88:\n      mload(0x40)\n      tag_90\n      swap2\n      swap1\n      tag_30\n      jump\t// in\n    tag_90:\n      mload(0x40)\n      dup1\n      swap2\n      sub\n      swap1\n      return\n        /* \"contracts/erc20_state_vars.sol\":4785:4815  address payable public deposit */\n    tag_20:\n      tag_91\n      tag_92\n      jump\t// in\n    tag_91:\n      mload(0x40)\n      tag_93\n      swap2\n      swap1\n      tag_94\n      jump\t// in\n    tag_93:\n      mload(0x40)\n      dup1\n      swap2\n      sub\n      swap1\n      return\n        /* \"contracts/erc20_state_vars.sol\":3109:3254  function allowance(address tokenOwner, address spender) public view override returns (uint){\r... */\n    tag_21:\n      tag_95\n      0x04\n      dup1\n      calldatasize\n      sub\n      dup2\n      add\n      swap1\n      tag_96\n      swap2\n      swap1\n      tag_97\n      jump\t// in\n    tag_96:\n      tag_98\n      jump\t// in\n    tag_95:\n      mload(0x40)\n      tag_99\n      swap2\n      swap1\n      tag_30\n      jump\t// in\n    tag_99:\n      mload(0x40)\n      dup1\n      swap2\n      sub\n      swap1\n      return\n        /* \"contracts/erc20_state_vars.sol\":4726:4746  address public admin */\n    tag_22:\n      tag_100\n      tag_101\n      jump\t// in\n    tag_100:\n      mload(0x40)\n      tag_102\n      swap2\n      swap1\n      tag_64\n      jump\t// in\n    tag_102:\n      mload(0x40)\n      dup1\n      swap2\n      sub\n      swap1\n      return\n        /* \"contracts/erc20_state_vars.sol\":4942:4973  uint public hardCap = 300 ether */\n    tag_23:\n      tag_103\n      tag_104\n      jump\t// in\n    tag_103:\n      mload(0x40)\n      tag_105\n      swap2\n      swap1\n      tag_30\n      jump\t// in\n    tag_105:\n      mload(0x40)\n      dup1\n      swap2\n      sub\n      swap1\n      return\n        /* \"contracts/erc20_state_vars.sol\":5417:5452  uint public maxInvestment = 5 ether */\n    tag_28:\n      sload(0x0f)\n      dup2\n      jump\t// out\n        /* \"contracts/erc20_state_vars.sol\":1143:1179  string public name = \"Penny Pennies\" */\n    tag_32:\n      0x00\n      dup1\n      sload\n      tag_106\n      swap1\n      tag_107\n      jump\t// in\n    tag_106:\n      dup1\n      0x1f\n      add\n      0x20\n      dup1\n      swap2\n      div\n      mul\n      0x20\n      add\n      mload(0x40)\n      swap1\n      dup2\n      add\n      0x40\n      mstore\n      dup1\n      swap3\n      swap2\n      swap1\n      dup2\n      dup2\n      mstore\n      0x20\n      add\n      dup3\n      dup1\n      sload\n      tag_108\n      swap1\n      tag_107\n      jump\t// in\n    tag_108:\n      dup1\n      iszero\n      tag_109\n      jumpi\n      dup1\n      0x1f\n      lt\n      tag_110\n      jumpi\n      0x0100\n      dup1\n      dup4\n      sload\n      div\n      mul\n      dup4\n      mstore\n      swap2\n      0x20\n      add\n      swap2\n      jump(tag_109)\n    tag_110:\n      dup3\n      add\n      swap2\n      swap1\n      0x00\n      mstore\n      keccak256(0x00, 0x20)\n      swap1\n    tag_111:\n      dup2\n      sload\n      dup2\n      mstore\n      swap1\n      0x01\n      add\n      swap1\n      0x20\n      add\n      dup1\n      dup4\n      gt\n      tag_111\n      jumpi\n      dup3\n      swap1\n      sub\n      0x1f\n      and\n      dup3\n      add\n      swap2\n    tag_109:\n      pop\n      pop\n      pop\n      pop\n      pop\n      dup2\n      jump\t// out\n        /* \"contracts/erc20_state_vars.sol\":3262:3874  function approve(address spender, uint tokens) public override returns (bool success){\r... */\n    tag_38:\n        /* \"contracts/erc20_state_vars.sol\":3334:3346  bool success */\n      0x00\n        /* \"contracts/erc20_state_vars.sol\":3478:3484  tokens */\n      dup2\n        /* \"contracts/erc20_state_vars.sol\":3454:3462  balances */\n      0x05\n        /* \"contracts/erc20_state_vars.sol\":3454:3474  balances[msg.sender] */\n      0x00\n        /* \"contracts/erc20_state_vars.sol\":3463:3473  msg.sender */\n      caller\n        /* \"contracts/erc20_state_vars.sol\":3454:3474  balances[msg.sender] */\n      0xffffffffffffffffffffffffffffffffffffffff\n      and\n      0xffffffffffffffffffffffffffffffffffffffff\n      and\n      dup2\n      mstore\n      0x20\n      add\n      swap1\n      dup2\n      mstore\n      0x20\n      add\n      0x00\n      keccak256\n      sload\n        /* \"contracts/erc20_state_vars.sol\":3454:3484  balances[msg.sender] >= tokens */\n      lt\n      iszero\n        /* \"contracts/erc20_state_vars.sol\":3446:3485  require(balances[msg.sender] >= tokens) */\n      tag_113\n      jumpi\n      0x00\n      dup1\n      revert\n    tag_113:\n        /* \"contracts/erc20_state_vars.sol\":3555:3556  0 */\n      0x00\n        /* \"contracts/erc20_state_vars.sol\":3546:3552  tokens */\n      dup3\n        /* \"contracts/erc20_state_vars.sol\":3546:3556  tokens > 0 */\n      gt\n        /* \"contracts/erc20_state_vars.sol\":3538:3557  require(tokens > 0) */\n      tag_114\n      jumpi\n      0x00\n      dup1\n      revert\n    tag_114:\n        /* \"contracts/erc20_state_vars.sol\":3716:3722  tokens */\n      dup2\n        /* \"contracts/erc20_state_vars.sol\":3685:3692  allowed */\n      0x06\n        /* \"contracts/erc20_state_vars.sol\":3685:3704  allowed[msg.sender] */\n      0x00\n        /* \"contracts/erc20_state_vars.sol\":3693:3703  msg.sender */\n      caller\n        /* \"contracts/erc20_state_vars.sol\":3685:3704  allowed[msg.sender] */\n      0xffffffffffffffffffffffffffffffffffffffff\n      and\n      0xffffffffffffffffffffffffffffffffffffffff\n      and\n      dup2\n      mstore\n      0x20\n      add\n      swap1\n      dup2\n      mstore\n      0x20\n      add\n      0x00\n      keccak256\n        /* \"contracts/erc20_state_vars.sol\":3685:3713  allowed[msg.sender][spender] */\n      0x00\n        /* \"contracts/erc20_state_vars.sol\":3705:3712  spender */\n      dup6\n        /* \"contracts/erc20_state_vars.sol\":3685:3713  allowed[msg.sender][spender] */\n      0xffffffffffffffffffffffffffffffffffffffff\n      and\n      0xffffffffffffffffffffffffffffffffffffffff\n      and\n      dup2\n      mstore\n      0x20\n      add\n      swap1\n      dup2\n      mstore\n      0x20\n      add\n      0x00\n      keccak256\n        /* \"contracts/erc20_state_vars.sol\":3685:3722  allowed[msg.sender][spender] = tokens */\n      dup2\n      swap1\n      sstore\n      pop\n        /* \"contracts/erc20_state_vars.sol\":3799:3806  spender */\n      dup3\n        /* \"contracts/erc20_state_vars.sol\":3778:3815  Approval(msg.sender, spender, tokens) */\n      0xffffffffffffffffffffffffffffffffffffffff\n      and\n        /* \"contracts/erc20_state_vars.sol\":3787:3797  msg.sender */\n      caller\n        /* \"contracts/erc20_state_vars.sol\":3778:3815  Approval(msg.sender, spender, tokens) */\n      0xffffffffffffffffffffffffffffffffffffffff\n      and\n      0x8c5be1e5ebec7d5bd14f71427d1e84f3dd0314c0f7b2291e5b200ac8c7c3b925\n        /* \"contracts/erc20_state_vars.sol\":3808:3814  tokens */\n      dup5\n        /* \"contracts/erc20_state_vars.sol\":3778:3815  Approval(msg.sender, spender, tokens) */\n      mload(0x40)\n      tag_115\n      swap2\n      swap1\n      tag_30\n      jump\t// in\n    tag_115:\n      mload(0x40)\n      dup1\n      swap2\n      sub\n      swap1\n      log3\n        /* \"contracts/erc20_state_vars.sol\":3860:3864  true */\n      0x01\n        /* \"contracts/erc20_state_vars.sol\":3853:3864  return true */\n      swap1\n      pop\n        /* \"contracts/erc20_state_vars.sol\":3262:3874  function approve(address spender, uint tokens) public override returns (bool success){\r... */\n      swap3\n      swap2\n      pop\n      pop\n      jump\t// out\n        /* \"contracts/erc20_state_vars.sol\":1332:1364  uint public override totalSupply */\n    tag_42:\n      sload(0x03)\n      dup2\n      jump\t// out\n        /* \"contracts/erc20_state_vars.sol\":3882:4641  function transferFrom(address from, address to, uint tokens) public override returns (bool){\r... */\n    tag_47:\n        /* \"contracts/erc20_state_vars.sol\":3968:3972  bool */\n      0x00\n        /* \"contracts/erc20_state_vars.sol\":4105:4111  tokens */\n      dup2\n        /* \"contracts/erc20_state_vars.sol\":4076:4083  allowed */\n      0x06\n        /* \"contracts/erc20_state_vars.sol\":4076:4089  allowed[from] */\n      0x00\n        /* \"contracts/erc20_state_vars.sol\":4084:4088  from */\n      dup7\n        /* \"contracts/erc20_state_vars.sol\":4076:4089  allowed[from] */\n      0xffffffffffffffffffffffffffffffffffffffff\n      and\n      0xffffffffffffffffffffffffffffffffffffffff\n      and\n      dup2\n      mstore\n      0x20\n      add\n      swap1\n      dup2\n      mstore\n      0x20\n      add\n      0x00\n      keccak256\n        /* \"contracts/erc20_state_vars.sol\":4076:4101  allowed[from][msg.sender] */\n      0x00\n        /* \"contracts/erc20_state_vars.sol\":4090:4100  msg.sender */\n      caller\n        /* \"contracts/erc20_state_vars.sol\":4076:4101  allowed[from][msg.sender] */\n      0xffffffffffffffffffffffffffffffffffffffff\n      and\n      0xffffffffffffffffffffffffffffffffffffffff\n      and\n      dup2\n      mstore\n      0x20\n      add\n      swap1\n      dup2\n      mstore\n      0x20\n      add\n      0x00\n      keccak256\n      sload\n        /* \"contracts/erc20_state_vars.sol\":4076:4111  allowed[from][msg.sender] >= tokens */\n      lt\n      iszero\n        /* \"contracts/erc20_state_vars.sol\":4068:4112  require(allowed[from][msg.sender] >= tokens) */\n      tag_117\n      jumpi\n      0x00\n      dup1\n      revert\n    tag_117:\n        /* \"contracts/erc20_state_vars.sol\":4224:4230  tokens */\n      dup2\n        /* \"contracts/erc20_state_vars.sol\":4206:4214  balances */\n      0x05\n        /* \"contracts/erc20_state_vars.sol\":4206:4220  balances[from] */\n      0x00\n        /* \"contracts/erc20_state_vars.sol\":4215:4219  from */\n      dup7\n        /* \"contracts/erc20_state_vars.sol\":4206:4220  balances[from] */\n      0xffffffffffffffffffffffffffffffffffffffff\n      and\n      0xffffffffffffffffffffffffffffffffffffffff\n      and\n      dup2\n      mstore\n      0x20\n      add\n      swap1\n      dup2\n      mstore\n      0x20\n      add\n      0x00\n      keccak256\n      sload\n        /* \"contracts/erc20_state_vars.sol\":4206:4230  balances[from] >= tokens */\n      lt\n      iszero\n        /* \"contracts/erc20_state_vars.sol\":4198:4231  require(balances[from] >= tokens) */\n      tag_118\n      jumpi\n      0x00\n      dup1\n      revert\n    tag_118:\n        /* \"contracts/erc20_state_vars.sol\":4317:4323  tokens */\n      dup2\n        /* \"contracts/erc20_state_vars.sol\":4299:4307  balances */\n      0x05\n        /* \"contracts/erc20_state_vars.sol\":4299:4313  balances[from] */\n      0x00\n        /* \"contracts/erc20_state_vars.sol\":4308:4312  from */\n      dup7\n        /* \"contracts/erc20_state_vars.sol\":4299:4313  balances[from] */\n      0xffffffffffffffffffffffffffffffffffffffff\n      and\n      0xffffffffffffffffffffffffffffffffffffffff\n      and\n      dup2\n      mstore\n      0x20\n      add\n      swap1\n      dup2\n      mstore\n      0x20\n      add\n      0x00\n      keccak256\n      0x00\n        /* \"contracts/erc20_state_vars.sol\":4299:4323  balances[from] -= tokens */\n      dup3\n      dup3\n      sload\n      tag_119\n      swap2\n      swap1\n      tag_120\n      jump\t// in\n    tag_119:\n      swap3\n      pop\n      pop\n      dup2\n      swap1\n      sstore\n      pop\n        /* \"contracts/erc20_state_vars.sol\":4424:4430  tokens */\n      dup2\n        /* \"contracts/erc20_state_vars.sol\":4395:4402  allowed */\n      0x06\n        /* \"contracts/erc20_state_vars.sol\":4395:4408  allowed[from] */\n      0x00\n        /* \"contracts/erc20_state_vars.sol\":4403:4407  from */\n      dup7\n        /* \"contracts/erc20_state_vars.sol\":4395:4408  allowed[from] */\n      0xffffffffffffffffffffffffffffffffffffffff\n      and\n      0xffffffffffffffffffffffffffffffffffffffff\n      and\n      dup2\n      mstore\n      0x20\n      add\n      swap1\n      dup2\n      mstore\n      0x20\n      add\n      0x00\n      keccak256\n        /* \"contracts/erc20_state_vars.sol\":4395:4420  allowed[from][msg.sender] */\n      0x00\n        /* \"contracts/erc20_state_vars.sol\":4409:4419  msg.sender */\n      caller\n        /* \"contracts/erc20_state_vars.sol\":4395:4420  allowed[from][msg.sender] */\n      0xffffffffffffffffffffffffffffffffffffffff\n      and\n      0xffffffffffffffffffffffffffffffffffffffff\n      and\n      dup2\n      mstore\n      0x20\n      add\n      swap1\n      dup2\n      mstore\n      0x20\n      add\n      0x00\n      keccak256\n      0x00\n        /* \"contracts/erc20_state_vars.sol\":4395:4430  allowed[from][msg.sender] -= tokens */\n      dup3\n      dup3\n      sload\n      tag_121\n      swap2\n      swap1\n      tag_120\n      jump\t// in\n    tag_121:\n      swap3\n      pop\n      pop\n      dup2\n      swap1\n      sstore\n      pop\n        /* \"contracts/erc20_state_vars.sol\":4506:4512  tokens */\n      dup2\n        /* \"contracts/erc20_state_vars.sol\":4490:4498  balances */\n      0x05\n        /* \"contracts/erc20_state_vars.sol\":4490:4502  balances[to] */\n      0x00\n        /* \"contracts/erc20_state_vars.sol\":4499:4501  to */\n      dup6\n        /* \"contracts/erc20_state_vars.sol\":4490:4502  balances[to] */\n      0xffffffffffffffffffffffffffffffffffffffff\n      and\n      0xffffffffffffffffffffffffffffffffffffffff\n      and\n      dup2\n      mstore\n      0x20\n      add\n      swap1\n      dup2\n      mstore\n      0x20\n      add\n      0x00\n      keccak256\n      0x00\n        /* \"contracts/erc20_state_vars.sol\":4490:4512  balances[to] += tokens */\n      dup3\n      dup3\n      sload\n      tag_122\n      swap2\n      swap1\n      tag_123\n      jump\t// in\n    tag_122:\n      swap3\n      pop\n      pop\n      dup2\n      swap1\n      sstore\n      pop\n        /* \"contracts/erc20_state_vars.sol\":4570:4572  to */\n      dup3\n        /* \"contracts/erc20_state_vars.sol\":4555:4581  Transfer(from, to, tokens) */\n      0xffffffffffffffffffffffffffffffffffffffff\n      and\n        /* \"contracts/erc20_state_vars.sol\":4564:4568  from */\n      dup5\n        /* \"contracts/erc20_state_vars.sol\":4555:4581  Transfer(from, to, tokens) */\n      0xffffffffffffffffffffffffffffffffffffffff\n      and\n      0xddf252ad1be2c89b69c2b068fc378daa952ba7f163c4a11628f55a4df523b3ef\n        /* \"contracts/erc20_state_vars.sol\":4574:4580  tokens */\n      dup5\n        /* \"contracts/erc20_state_vars.sol\":4555:4581  Transfer(from, to, tokens) */\n      mload(0x40)\n      tag_124\n      swap2\n      swap1\n      tag_30\n      jump\t// in\n    tag_124:\n      mload(0x40)\n      dup1\n      swap2\n      sub\n      swap1\n      log3\n        /* \"contracts/erc20_state_vars.sol\":4627:4631  true */\n      0x01\n        /* \"contracts/erc20_state_vars.sol\":4620:4631  return true */\n      swap1\n      pop\n        /* \"contracts/erc20_state_vars.sol\":3882:4641  function transferFrom(address from, address to, uint tokens) public override returns (bool){\r... */\n      swap4\n      swap3\n      pop\n      pop\n      pop\n      jump\t// out\n        /* \"contracts/erc20_state_vars.sol\":1502:1543  mapping (address => uint) public balances */\n    tag_52:\n      mstore(0x20, 0x05)\n      dup1\n      0x00\n      mstore\n      keccak256(0x00, 0x40)\n      0x00\n      swap2\n      pop\n      swap1\n      pop\n      sload\n      dup2\n      jump\t// out\n        /* \"contracts/erc20_state_vars.sol\":1223:1247  uint public decimals = 0 */\n    tag_55:\n      sload(0x02)\n      dup2\n      jump\t// out\n        /* \"contracts/erc20_state_vars.sol\":5685:5706  State public ICOstate */\n    tag_58:\n      0x11\n      0x00\n      swap1\n      sload\n      swap1\n      0x0100\n      exp\n      swap1\n      div\n      0xff\n      and\n      dup2\n      jump\t// out\n        /* \"contracts/erc20_state_vars.sol\":1402:1424  address public founder */\n    tag_62:\n      0x04\n      0x00\n      swap1\n      sload\n      swap1\n      0x0100\n      exp\n      swap1\n      div\n      0xffffffffffffffffffffffffffffffffffffffff\n      and\n      dup2\n      jump\t// out\n        /* \"contracts/erc20_state_vars.sol\":2214:2346  function balanceOf(address tokenOwner) public view override returns (uint balance){\r... */\n    tag_67:\n        /* \"contracts/erc20_state_vars.sol\":2283:2295  uint balance */\n      0x00\n        /* \"contracts/erc20_state_vars.sol\":2316:2324  balances */\n      0x05\n        /* \"contracts/erc20_state_vars.sol\":2316:2336  balances[tokenOwner] */\n      0x00\n        /* \"contracts/erc20_state_vars.sol\":2325:2335  tokenOwner */\n      dup4\n        /* \"contracts/erc20_state_vars.sol\":2316:2336  balances[tokenOwner] */\n      0xffffffffffffffffffffffffffffffffffffffff\n      and\n      0xffffffffffffffffffffffffffffffffffffffff\n      and\n      dup2\n      mstore\n      0x20\n      add\n      swap1\n      dup2\n      mstore\n      0x20\n      add\n      0x00\n      keccak256\n      sload\n        /* \"contracts/erc20_state_vars.sol\":2309:2336  return balances[tokenOwner] */\n      swap1\n      pop\n        /* \"contracts/erc20_state_vars.sol\":2214:2346  function balanceOf(address tokenOwner) public view override returns (uint balance){\r... */\n      swap2\n      swap1\n      pop\n      jump\t// out\n        /* \"contracts/erc20_state_vars.sol\":5459:5496  uint public minInvestment = 0.1 ether */\n    tag_70:\n      sload(0x10)\n      dup2\n      jump\t// out\n        /* \"contracts/erc20_state_vars.sol\":1186:1216  string public symbol = \"PENNY\" */\n    tag_73:\n      0x01\n      dup1\n      sload\n      tag_126\n      swap1\n      tag_107\n      jump\t// in\n    tag_126:\n      dup1\n      0x1f\n      add\n      0x20\n      dup1\n      swap2\n      div\n      mul\n      0x20\n      add\n      mload(0x40)\n      swap1\n      dup2\n      add\n      0x40\n      mstore\n      dup1\n      swap3\n      swap2\n      swap1\n      dup2\n      dup2\n      mstore\n      0x20\n      add\n      dup3\n      dup1\n      sload\n      tag_127\n      swap1\n      tag_107\n      jump\t// in\n    tag_127:\n      dup1\n      iszero\n      tag_128\n      jumpi\n      dup1\n      0x1f\n      lt\n      tag_129\n      jumpi\n      0x0100\n      dup1\n      dup4\n      sload\n      div\n      mul\n      dup4\n      mstore\n      swap2\n      0x20\n      add\n      swap2\n      jump(tag_128)\n    tag_129:\n      dup3\n      add\n      swap2\n      swap1\n      0x00\n      mstore\n      keccak256(0x00, 0x20)\n      swap1\n    tag_130:\n      dup2\n      sload\n      dup2\n      mstore\n      swap1\n      0x01\n      add\n      swap1\n      0x20\n      add\n      dup1\n      dup4\n      gt\n      tag_130\n      jumpi\n      dup3\n      swap1\n      sub\n      0x1f\n      and\n      dup3\n      add\n      swap2\n    tag_128:\n      pop\n      pop\n      pop\n      pop\n      pop\n      dup2\n      jump\t// out\n        /* \"contracts/erc20_state_vars.sol\":2404:2979  function transfer(address to, uint tokens) public override returns (bool success){\r... */\n    tag_77:\n        /* \"contracts/erc20_state_vars.sol\":2472:2484  bool success */\n      0x00\n        /* \"contracts/erc20_state_vars.sol\":2614:2620  tokens */\n      dup2\n        /* \"contracts/erc20_state_vars.sol\":2590:2598  balances */\n      0x05\n        /* \"contracts/erc20_state_vars.sol\":2590:2610  balances[msg.sender] */\n      0x00\n        /* \"contracts/erc20_state_vars.sol\":2599:2609  msg.sender */\n      caller\n        /* \"contracts/erc20_state_vars.sol\":2590:2610  balances[msg.sender] */\n      0xffffffffffffffffffffffffffffffffffffffff\n      and\n      0xffffffffffffffffffffffffffffffffffffffff\n      and\n      dup2\n      mstore\n      0x20\n      add\n      swap1\n      dup2\n      mstore\n      0x20\n      add\n      0x00\n      keccak256\n      sload\n        /* \"contracts/erc20_state_vars.sol\":2590:2620  balances[msg.sender] >= tokens */\n      lt\n      iszero\n        /* \"contracts/erc20_state_vars.sol\":2582:2621  require(balances[msg.sender] >= tokens) */\n      tag_132\n      jumpi\n      0x00\n      dup1\n      revert\n    tag_132:\n        /* \"contracts/erc20_state_vars.sol\":2712:2718  tokens */\n      dup2\n        /* \"contracts/erc20_state_vars.sol\":2696:2704  balances */\n      0x05\n        /* \"contracts/erc20_state_vars.sol\":2696:2708  balances[to] */\n      0x00\n        /* \"contracts/erc20_state_vars.sol\":2705:2707  to */\n      dup6\n        /* \"contracts/erc20_state_vars.sol\":2696:2708  balances[to] */\n      0xffffffffffffffffffffffffffffffffffffffff\n      and\n      0xffffffffffffffffffffffffffffffffffffffff\n      and\n      dup2\n      mstore\n      0x20\n      add\n      swap1\n      dup2\n      mstore\n      0x20\n      add\n      0x00\n      keccak256\n      0x00\n        /* \"contracts/erc20_state_vars.sol\":2696:2718  balances[to] += tokens */\n      dup3\n      dup3\n      sload\n      tag_133\n      swap2\n      swap1\n      tag_123\n      jump\t// in\n    tag_133:\n      swap3\n      pop\n      pop\n      dup2\n      swap1\n      sstore\n      pop\n        /* \"contracts/erc20_state_vars.sol\":2813:2819  tokens */\n      dup2\n        /* \"contracts/erc20_state_vars.sol\":2789:2797  balances */\n      0x05\n        /* \"contracts/erc20_state_vars.sol\":2789:2809  balances[msg.sender] */\n      0x00\n        /* \"contracts/erc20_state_vars.sol\":2798:2808  msg.sender */\n      caller\n        /* \"contracts/erc20_state_vars.sol\":2789:2809  balances[msg.sender] */\n      0xffffffffffffffffffffffffffffffffffffffff\n      and\n      0xffffffffffffffffffffffffffffffffffffffff\n      and\n      dup2\n      mstore\n      0x20\n      add\n      swap1\n      dup2\n      mstore\n      0x20\n      add\n      0x00\n      keccak256\n      0x00\n        /* \"contracts/erc20_state_vars.sol\":2789:2819  balances[msg.sender] -= tokens */\n      dup3\n      dup3\n      sload\n      tag_134\n      swap2\n      swap1\n      tag_120\n      jump\t// in\n    tag_134:\n      swap3\n      pop\n      pop\n      dup2\n      swap1\n      sstore\n      pop\n        /* \"contracts/erc20_state_vars.sol\":2907:2909  to */\n      dup3\n        /* \"contracts/erc20_state_vars.sol\":2886:2918  Transfer(msg.sender, to, tokens) */\n      0xffffffffffffffffffffffffffffffffffffffff\n      and\n        /* \"contracts/erc20_state_vars.sol\":2895:2905  msg.sender */\n      caller\n        /* \"contracts/erc20_state_vars.sol\":2886:2918  Transfer(msg.sender, to, tokens) */\n      0xffffffffffffffffffffffffffffffffffffffff\n      and\n      0xddf252ad1be2c89b69c2b068fc378daa952ba7f163c4a11628f55a4df523b3ef\n        /* \"contracts/erc20_state_vars.sol\":2911:2917  tokens */\n      dup5\n        /* \"contracts/erc20_state_vars.sol\":2886:2918  Transfer(msg.sender, to, tokens) */\n      mload(0x40)\n      tag_135\n      swap2\n      swap1\n      tag_30\n      jump\t// in\n    tag_135:\n      mload(0x40)\n      dup1\n      swap2\n      sub\n      swap1\n      log3\n        /* \"contracts/erc20_state_vars.sol\":2965:2969  true */\n      0x01\n        /* \"contracts/erc20_state_vars.sol\":2958:2969  return true */\n      swap1\n      pop\n        /* \"contracts/erc20_state_vars.sol\":2404:2979  function transfer(address to, uint tokens) public override returns (bool success){\r... */\n      swap3\n      swap2\n      pop\n      pop\n      jump\t// out\n        /* \"contracts/erc20_state_vars.sol\":5072:5116  uint public saleStart = block.timestamp + 10 */\n    tag_80:\n      sload(0x0c)\n      dup2\n      jump\t// out\n        /* \"contracts/erc20_state_vars.sol\":5161:5214  uint public saleEnd = block.timestamp + 3600 * 24 * 7 */\n    tag_83:\n      sload(0x0d)\n      dup2\n      jump\t// out\n        /* \"contracts/erc20_state_vars.sol\":5020:5044  uint public raisedAmount */\n    tag_86:\n      sload(0x0b)\n      dup2\n      jump\t// out\n        /* \"contracts/erc20_state_vars.sol\":5315:5361  uint public tokenTradeStart = saleEnd + 604800 */\n    tag_89:\n      sload(0x0e)\n      dup2\n      jump\t// out\n        /* \"contracts/erc20_state_vars.sol\":4785:4815  address payable public deposit */\n    tag_92:\n      0x08\n      0x00\n      swap1\n      sload\n      swap1\n      0x0100\n      exp\n      swap1\n      div\n      0xffffffffffffffffffffffffffffffffffffffff\n      and\n      dup2\n      jump\t// out\n        /* \"contracts/erc20_state_vars.sol\":3109:3254  function allowance(address tokenOwner, address spender) public view override returns (uint){\r... */\n    tag_98:\n        /* \"contracts/erc20_state_vars.sol\":3195:3199  uint */\n      0x00\n        /* \"contracts/erc20_state_vars.sol\":3218:3225  allowed */\n      0x06\n        /* \"contracts/erc20_state_vars.sol\":3218:3237  allowed[tokenOwner] */\n      0x00\n        /* \"contracts/erc20_state_vars.sol\":3226:3236  tokenOwner */\n      dup5\n        /* \"contracts/erc20_state_vars.sol\":3218:3237  allowed[tokenOwner] */\n      0xffffffffffffffffffffffffffffffffffffffff\n      and\n      0xffffffffffffffffffffffffffffffffffffffff\n      and\n      dup2\n      mstore\n      0x20\n      add\n      swap1\n      dup2\n      mstore\n      0x20\n      add\n      0x00\n      keccak256\n        /* \"contracts/erc20_state_vars.sol\":3218:3246  allowed[tokenOwner][spender] */\n      0x00\n        /* \"contracts/erc20_state_vars.sol\":3238:3245  spender */\n      dup4\n        /* \"contracts/erc20_state_vars.sol\":3218:3246  allowed[tokenOwner][spender] */\n      0xffffffffffffffffffffffffffffffffffffffff\n      and\n      0xffffffffffffffffffffffffffffffffffffffff\n      and\n      dup2\n      mstore\n      0x20\n      add\n      swap1\n      dup2\n      mstore\n      0x20\n      add\n      0x00\n      keccak256\n      sload\n        /* \"contracts/erc20_state_vars.sol\":3211:3246  return allowed[tokenOwner][spender] */\n      swap1\n      pop\n        /* \"contracts/erc20_state_vars.sol\":3109:3254  function allowance(address tokenOwner, address spender) public view override returns (uint){\r... */\n      swap3\n      swap2\n      pop\n      pop\n      jump\t// out\n        /* \"contracts/erc20_state_vars.sol\":4726:4746  address public admin */\n    tag_101:\n      0x07\n      0x00\n      swap1\n      sload\n      swap1\n      0x0100\n      exp\n      swap1\n      div\n      0xffffffffffffffffffffffffffffffffffffffff\n      and\n      dup2\n      jump\t// out\n        /* \"contracts/erc20_state_vars.sol\":4942:4973  uint public hardCap = 300 ether */\n    tag_104:\n      sload(0x0a)\n      dup2\n      jump\t// out\n        /* \"#utility.yul\":7:146   */\n    tag_138:\n        /* \"#utility.yul\":53:58   */\n      0x00\n        /* \"#utility.yul\":91:97   */\n      dup2\n        /* \"#utility.yul\":78:98   */\n      calldataload\n        /* \"#utility.yul\":69:98   */\n      swap1\n      pop\n        /* \"#utility.yul\":107:140   */\n      tag_140\n        /* \"#utility.yul\":134:139   */\n      dup2\n        /* \"#utility.yul\":107:140   */\n      tag_141\n      jump\t// in\n    tag_140:\n        /* \"#utility.yul\":7:146   */\n      swap3\n      swap2\n      pop\n      pop\n      jump\t// out\n        /* \"#utility.yul\":152:291   */\n    tag_142:\n        /* \"#utility.yul\":198:203   */\n      0x00\n        /* \"#utility.yul\":236:242   */\n      dup2\n        /* \"#utility.yul\":223:243   */\n      calldataload\n        /* \"#utility.yul\":214:243   */\n      swap1\n      pop\n        /* \"#utility.yul\":252:285   */\n      tag_144\n        /* \"#utility.yul\":279:284   */\n      dup2\n        /* \"#utility.yul\":252:285   */\n      tag_145\n      jump\t// in\n    tag_144:\n        /* \"#utility.yul\":152:291   */\n      swap3\n      swap2\n      pop\n      pop\n      jump\t// out\n        /* \"#utility.yul\":297:626   */\n    tag_51:\n        /* \"#utility.yul\":356:362   */\n      0x00\n        /* \"#utility.yul\":405:407   */\n      0x20\n        /* \"#utility.yul\":393:402   */\n      dup3\n        /* \"#utility.yul\":384:391   */\n      dup5\n        /* \"#utility.yul\":380:403   */\n      sub\n        /* \"#utility.yul\":376:408   */\n      slt\n        /* \"#utility.yul\":373:492   */\n      iszero\n      tag_147\n      jumpi\n        /* \"#utility.yul\":411:490   */\n      tag_148\n      tag_149\n      jump\t// in\n    tag_148:\n        /* \"#utility.yul\":373:492   */\n    tag_147:\n        /* \"#utility.yul\":531:532   */\n      0x00\n        /* \"#utility.yul\":556:609   */\n      tag_150\n        /* \"#utility.yul\":601:608   */\n      dup5\n        /* \"#utility.yul\":592:598   */\n      dup3\n        /* \"#utility.yul\":581:590   */\n      dup6\n        /* \"#utility.yul\":577:599   */\n      add\n        /* \"#utility.yul\":556:609   */\n      tag_138\n      jump\t// in\n    tag_150:\n        /* \"#utility.yul\":546:609   */\n      swap2\n      pop\n        /* \"#utility.yul\":502:619   */\n      pop\n        /* \"#utility.yul\":297:626   */\n      swap3\n      swap2\n      pop\n      pop\n      jump\t// out\n        /* \"#utility.yul\":632:1106   */\n    tag_97:\n        /* \"#utility.yul\":700:706   */\n      0x00\n        /* \"#utility.yul\":708:714   */\n      dup1\n        /* \"#utility.yul\":757:759   */\n      0x40\n        /* \"#utility.yul\":745:754   */\n      dup4\n        /* \"#utility.yul\":736:743   */\n      dup6\n        /* \"#utility.yul\":732:755   */\n      sub\n        /* \"#utility.yul\":728:760   */\n      slt\n        /* \"#utility.yul\":725:844   */\n      iszero\n      tag_152\n      jumpi\n        /* \"#utility.yul\":763:842   */\n      tag_153\n      tag_149\n      jump\t// in\n    tag_153:\n        /* \"#utility.yul\":725:844   */\n    tag_152:\n        /* \"#utility.yul\":883:884   */\n      0x00\n        /* \"#utility.yul\":908:961   */\n      tag_154\n        /* \"#utility.yul\":953:960   */\n      dup6\n        /* \"#utility.yul\":944:950   */\n      dup3\n        /* \"#utility.yul\":933:942   */\n      dup7\n        /* \"#utility.yul\":929:951   */\n      add\n        /* \"#utility.yul\":908:961   */\n      tag_138\n      jump\t// in\n    tag_154:\n        /* \"#utility.yul\":898:961   */\n      swap3\n      pop\n        /* \"#utility.yul\":854:971   */\n      pop\n        /* \"#utility.yul\":1010:1012   */\n      0x20\n        /* \"#utility.yul\":1036:1089   */\n      tag_155\n        /* \"#utility.yul\":1081:1088   */\n      dup6\n        /* \"#utility.yul\":1072:1078   */\n      dup3\n        /* \"#utility.yul\":1061:1070   */\n      dup7\n        /* \"#utility.yul\":1057:1079   */\n      add\n        /* \"#utility.yul\":1036:1089   */\n      tag_138\n      jump\t// in\n    tag_155:\n        /* \"#utility.yul\":1026:1089   */\n      swap2\n      pop\n        /* \"#utility.yul\":981:1099   */\n      pop\n        /* \"#utility.yul\":632:1106   */\n      swap3\n      pop\n      swap3\n      swap1\n      pop\n      jump\t// out\n        /* \"#utility.yul\":1112:1731   */\n    tag_46:\n        /* \"#utility.yul\":1189:1195   */\n      0x00\n        /* \"#utility.yul\":1197:1203   */\n      dup1\n        /* \"#utility.yul\":1205:1211   */\n      0x00\n        /* \"#utility.yul\":1254:1256   */\n      0x60\n        /* \"#utility.yul\":1242:1251   */\n      dup5\n        /* \"#utility.yul\":1233:1240   */\n      dup7\n        /* \"#utility.yul\":1229:1252   */\n      sub\n        /* \"#utility.yul\":1225:1257   */\n      slt\n        /* \"#utility.yul\":1222:1341   */\n      iszero\n      tag_157\n      jumpi\n        /* \"#utility.yul\":1260:1339   */\n      tag_158\n      tag_149\n      jump\t// in\n    tag_158:\n        /* \"#utility.yul\":1222:1341   */\n    tag_157:\n        /* \"#utility.yul\":1380:1381   */\n      0x00\n        /* \"#utility.yul\":1405:1458   */\n      tag_159\n        /* \"#utility.yul\":1450:1457   */\n      dup7\n        /* \"#utility.yul\":1441:1447   */\n      dup3\n        /* \"#utility.yul\":1430:1439   */\n      dup8\n        /* \"#utility.yul\":1426:1448   */\n      add\n        /* \"#utility.yul\":1405:1458   */\n      tag_138\n      jump\t// in\n    tag_159:\n        /* \"#utility.yul\":1395:1458   */\n      swap4\n      pop\n        /* \"#utility.yul\":1351:1468   */\n      pop\n        /* \"#utility.yul\":1507:1509   */\n      0x20\n        /* \"#utility.yul\":1533:1586   */\n      tag_160\n        /* \"#utility.yul\":1578:1585   */\n      dup7\n        /* \"#utility.yul\":1569:1575   */\n      dup3\n        /* \"#utility.yul\":1558:1567   */\n      dup8\n        /* \"#utility.yul\":1554:1576   */\n      add\n        /* \"#utility.yul\":1533:1586   */\n      tag_138\n      jump\t// in\n    tag_160:\n        /* \"#utility.yul\":1523:1586   */\n      swap3\n      pop\n        /* \"#utility.yul\":1478:1596   */\n      pop\n        /* \"#utility.yul\":1635:1637   */\n      0x40\n        /* \"#utility.yul\":1661:1714   */\n      tag_161\n        /* \"#utility.yul\":1706:1713   */\n      dup7\n        /* \"#utility.yul\":1697:1703   */\n      dup3\n        /* \"#utility.yul\":1686:1695   */\n      dup8\n        /* \"#utility.yul\":1682:1704   */\n      add\n        /* \"#utility.yul\":1661:1714   */\n      tag_142\n      jump\t// in\n    tag_161:\n        /* \"#utility.yul\":1651:1714   */\n      swap2\n      pop\n        /* \"#utility.yul\":1606:1724   */\n      pop\n        /* \"#utility.yul\":1112:1731   */\n      swap3\n      pop\n      swap3\n      pop\n      swap3\n      jump\t// out\n        /* \"#utility.yul\":1737:2211   */\n    tag_37:\n        /* \"#utility.yul\":1805:1811   */\n      0x00\n        /* \"#utility.yul\":1813:1819   */\n      dup1\n        /* \"#utility.yul\":1862:1864   */\n      0x40\n        /* \"#utility.yul\":1850:1859   */\n      dup4\n        /* \"#utility.yul\":1841:1848   */\n      dup6\n        /* \"#utility.yul\":1837:1860   */\n      sub\n        /* \"#utility.yul\":1833:1865   */\n      slt\n        /* \"#utility.yul\":1830:1949   */\n      iszero\n      tag_163\n      jumpi\n        /* \"#utility.yul\":1868:1947   */\n      tag_164\n      tag_149\n      jump\t// in\n    tag_164:\n        /* \"#utility.yul\":1830:1949   */\n    tag_163:\n        /* \"#utility.yul\":1988:1989   */\n      0x00\n        /* \"#utility.yul\":2013:2066   */\n      tag_165\n        /* \"#utility.yul\":2058:2065   */\n      dup6\n        /* \"#utility.yul\":2049:2055   */\n      dup3\n        /* \"#utility.yul\":2038:2047   */\n      dup7\n        /* \"#utility.yul\":2034:2056   */\n      add\n        /* \"#utility.yul\":2013:2066   */\n      tag_138\n      jump\t// in\n    tag_165:\n        /* \"#utility.yul\":2003:2066   */\n      swap3\n      pop\n        /* \"#utility.yul\":1959:2076   */\n      pop\n        /* \"#utility.yul\":2115:2117   */\n      0x20\n        /* \"#utility.yul\":2141:2194   */\n      tag_166\n        /* \"#utility.yul\":2186:2193   */\n      dup6\n        /* \"#utility.yul\":2177:2183   */\n      dup3\n        /* \"#utility.yul\":2166:2175   */\n      dup7\n        /* \"#utility.yul\":2162:2184   */\n      add\n        /* \"#utility.yul\":2141:2194   */\n      tag_142\n      jump\t// in\n    tag_166:\n        /* \"#utility.yul\":2131:2194   */\n      swap2\n      pop\n        /* \"#utility.yul\":2086:2204   */\n      pop\n        /* \"#utility.yul\":1737:2211   */\n      swap3\n      pop\n      swap3\n      swap1\n      pop\n      jump\t// out\n        /* \"#utility.yul\":2217:2359   */\n    tag_167:\n        /* \"#utility.yul\":2320:2352   */\n      tag_169\n        /* \"#utility.yul\":2346:2351   */\n      dup2\n        /* \"#utility.yul\":2320:2352   */\n      tag_170\n      jump\t// in\n    tag_169:\n        /* \"#utility.yul\":2315:2318   */\n      dup3\n        /* \"#utility.yul\":2308:2353   */\n      mstore\n        /* \"#utility.yul\":2217:2359   */\n      pop\n      pop\n      jump\t// out\n        /* \"#utility.yul\":2365:2483   */\n    tag_171:\n        /* \"#utility.yul\":2452:2476   */\n      tag_173\n        /* \"#utility.yul\":2470:2475   */\n      dup2\n        /* \"#utility.yul\":2452:2476   */\n      tag_174\n      jump\t// in\n    tag_173:\n        /* \"#utility.yul\":2447:2450   */\n      dup3\n        /* \"#utility.yul\":2440:2477   */\n      mstore\n        /* \"#utility.yul\":2365:2483   */\n      pop\n      pop\n      jump\t// out\n        /* \"#utility.yul\":2489:2598   */\n    tag_175:\n        /* \"#utility.yul\":2570:2591   */\n      tag_177\n        /* \"#utility.yul\":2585:2590   */\n      dup2\n        /* \"#utility.yul\":2570:2591   */\n      tag_178\n      jump\t// in\n    tag_177:\n        /* \"#utility.yul\":2565:2568   */\n      dup3\n        /* \"#utility.yul\":2558:2592   */\n      mstore\n        /* \"#utility.yul\":2489:2598   */\n      pop\n      pop\n      jump\t// out\n        /* \"#utility.yul\":2604:2749   */\n    tag_179:\n        /* \"#utility.yul\":2698:2742   */\n      tag_181\n        /* \"#utility.yul\":2736:2741   */\n      dup2\n        /* \"#utility.yul\":2698:2742   */\n      tag_182\n      jump\t// in\n    tag_181:\n        /* \"#utility.yul\":2693:2696   */\n      dup3\n        /* \"#utility.yul\":2686:2743   */\n      mstore\n        /* \"#utility.yul\":2604:2749   */\n      pop\n      pop\n      jump\t// out\n        /* \"#utility.yul\":2755:3119   */\n    tag_183:\n        /* \"#utility.yul\":2843:2846   */\n      0x00\n        /* \"#utility.yul\":2871:2910   */\n      tag_185\n        /* \"#utility.yul\":2904:2909   */\n      dup3\n        /* \"#utility.yul\":2871:2910   */\n      tag_186\n      jump\t// in\n    tag_185:\n        /* \"#utility.yul\":2926:2997   */\n      tag_187\n        /* \"#utility.yul\":2990:2996   */\n      dup2\n        /* \"#utility.yul\":2985:2988   */\n      dup6\n        /* \"#utility.yul\":2926:2997   */\n      tag_188\n      jump\t// in\n    tag_187:\n        /* \"#utility.yul\":2919:2997   */\n      swap4\n      pop\n        /* \"#utility.yul\":3006:3058   */\n      tag_189\n        /* \"#utility.yul\":3051:3057   */\n      dup2\n        /* \"#utility.yul\":3046:3049   */\n      dup6\n        /* \"#utility.yul\":3039:3043   */\n      0x20\n        /* \"#utility.yul\":3032:3037   */\n      dup7\n        /* \"#utility.yul\":3028:3044   */\n      add\n        /* \"#utility.yul\":3006:3058   */\n      tag_190\n      jump\t// in\n    tag_189:\n        /* \"#utility.yul\":3083:3112   */\n      tag_191\n        /* \"#utility.yul\":3105:3111   */\n      dup2\n        /* \"#utility.yul\":3083:3112   */\n      tag_192\n      jump\t// in\n    tag_191:\n        /* \"#utility.yul\":3078:3081   */\n      dup5\n        /* \"#utility.yul\":3074:3113   */\n      add\n        /* \"#utility.yul\":3067:3113   */\n      swap2\n      pop\n        /* \"#utility.yul\":2847:3119   */\n      pop\n        /* \"#utility.yul\":2755:3119   */\n      swap3\n      swap2\n      pop\n      pop\n      jump\t// out\n        /* \"#utility.yul\":3125:3243   */\n    tag_193:\n        /* \"#utility.yul\":3212:3236   */\n      tag_195\n        /* \"#utility.yul\":3230:3235   */\n      dup2\n        /* \"#utility.yul\":3212:3236   */\n      tag_196\n      jump\t// in\n    tag_195:\n        /* \"#utility.yul\":3207:3210   */\n      dup3\n        /* \"#utility.yul\":3200:3237   */\n      mstore\n        /* \"#utility.yul\":3125:3243   */\n      pop\n      pop\n      jump\t// out\n        /* \"#utility.yul\":3249:3471   */\n    tag_64:\n        /* \"#utility.yul\":3342:3346   */\n      0x00\n        /* \"#utility.yul\":3380:3382   */\n      0x20\n        /* \"#utility.yul\":3369:3378   */\n      dup3\n        /* \"#utility.yul\":3365:3383   */\n      add\n        /* \"#utility.yul\":3357:3383   */\n      swap1\n      pop\n        /* \"#utility.yul\":3393:3464   */\n      tag_198\n        /* \"#utility.yul\":3461:3462   */\n      0x00\n        /* \"#utility.yul\":3450:3459   */\n      dup4\n        /* \"#utility.yul\":3446:3463   */\n      add\n        /* \"#utility.yul\":3437:3443   */\n      dup5\n        /* \"#utility.yul\":3393:3464   */\n      tag_171\n      jump\t// in\n    tag_198:\n        /* \"#utility.yul\":3249:3471   */\n      swap3\n      swap2\n      pop\n      pop\n      jump\t// out\n        /* \"#utility.yul\":3477:3731   */\n    tag_94:\n        /* \"#utility.yul\":3586:3590   */\n      0x00\n        /* \"#utility.yul\":3624:3626   */\n      0x20\n        /* \"#utility.yul\":3613:3622   */\n      dup3\n        /* \"#utility.yul\":3609:3627   */\n      add\n        /* \"#utility.yul\":3601:3627   */\n      swap1\n      pop\n        /* \"#utility.yul\":3637:3724   */\n      tag_200\n        /* \"#utility.yul\":3721:3722   */\n      0x00\n        /* \"#utility.yul\":3710:3719   */\n      dup4\n        /* \"#utility.yul\":3706:3723   */\n      add\n        /* \"#utility.yul\":3697:3703   */\n      dup5\n        /* \"#utility.yul\":3637:3724   */\n      tag_167\n      jump\t// in\n    tag_200:\n        /* \"#utility.yul\":3477:3731   */\n      swap3\n      swap2\n      pop\n      pop\n      jump\t// out\n        /* \"#utility.yul\":3737:3947   */\n    tag_40:\n        /* \"#utility.yul\":3824:3828   */\n      0x00\n        /* \"#utility.yul\":3862:3864   */\n      0x20\n        /* \"#utility.yul\":3851:3860   */\n      dup3\n        /* \"#utility.yul\":3847:3865   */\n      add\n        /* \"#utility.yul\":3839:3865   */\n      swap1\n      pop\n        /* \"#utility.yul\":3875:3940   */\n      tag_202\n        /* \"#utility.yul\":3937:3938   */\n      0x00\n        /* \"#utility.yul\":3926:3935   */\n      dup4\n        /* \"#utility.yul\":3922:3939   */\n      add\n        /* \"#utility.yul\":3913:3919   */\n      dup5\n        /* \"#utility.yul\":3875:3940   */\n      tag_175\n      jump\t// in\n    tag_202:\n        /* \"#utility.yul\":3737:3947   */\n      swap3\n      swap2\n      pop\n      pop\n      jump\t// out\n        /* \"#utility.yul\":3953:4189   */\n    tag_60:\n        /* \"#utility.yul\":4053:4057   */\n      0x00\n        /* \"#utility.yul\":4091:4093   */\n      0x20\n        /* \"#utility.yul\":4080:4089   */\n      dup3\n        /* \"#utility.yul\":4076:4094   */\n      add\n        /* \"#utility.yul\":4068:4094   */\n      swap1\n      pop\n        /* \"#utility.yul\":4104:4182   */\n      tag_204\n        /* \"#utility.yul\":4179:4180   */\n      0x00\n        /* \"#utility.yul\":4168:4177   */\n      dup4\n        /* \"#utility.yul\":4164:4181   */\n      add\n        /* \"#utility.yul\":4155:4161   */\n      dup5\n        /* \"#utility.yul\":4104:4182   */\n      tag_179\n      jump\t// in\n    tag_204:\n        /* \"#utility.yul\":3953:4189   */\n      swap3\n      swap2\n      pop\n      pop\n      jump\t// out\n        /* \"#utility.yul\":4195:4508   */\n    tag_34:\n        /* \"#utility.yul\":4308:4312   */\n      0x00\n        /* \"#utility.yul\":4346:4348   */\n      0x20\n        /* \"#utility.yul\":4335:4344   */\n      dup3\n        /* \"#utility.yul\":4331:4349   */\n      add\n        /* \"#utility.yul\":4323:4349   */\n      swap1\n      pop\n        /* \"#utility.yul\":4395:4404   */\n      dup2\n        /* \"#utility.yul\":4389:4393   */\n      dup2\n        /* \"#utility.yul\":4385:4405   */\n      sub\n        /* \"#utility.yul\":4381:4382   */\n      0x00\n        /* \"#utility.yul\":4370:4379   */\n      dup4\n        /* \"#utility.yul\":4366:4383   */\n      add\n        /* \"#utility.yul\":4359:4406   */\n      mstore\n        /* \"#utility.yul\":4423:4501   */\n      tag_206\n        /* \"#utility.yul\":4496:4500   */\n      dup2\n        /* \"#utility.yul\":4487:4493   */\n      dup5\n        /* \"#utility.yul\":4423:4501   */\n      tag_183\n      jump\t// in\n    tag_206:\n        /* \"#utility.yul\":4415:4501   */\n      swap1\n      pop\n        /* \"#utility.yul\":4195:4508   */\n      swap3\n      swap2\n      pop\n      pop\n      jump\t// out\n        /* \"#utility.yul\":4514:4736   */\n    tag_30:\n        /* \"#utility.yul\":4607:4611   */\n      0x00\n        /* \"#utility.yul\":4645:4647   */\n      0x20\n        /* \"#utility.yul\":4634:4643   */\n      dup3\n        /* \"#utility.yul\":4630:4648   */\n      add\n        /* \"#utility.yul\":4622:4648   */\n      swap1\n      pop\n        /* \"#utility.yul\":4658:4729   */\n      tag_208\n        /* \"#utility.yul\":4726:4727   */\n      0x00\n        /* \"#utility.yul\":4715:4724   */\n      dup4\n        /* \"#utility.yul\":4711:4728   */\n      add\n        /* \"#utility.yul\":4702:4708   */\n      dup5\n        /* \"#utility.yul\":4658:4729   */\n      tag_193\n      jump\t// in\n    tag_208:\n        /* \"#utility.yul\":4514:4736   */\n      swap3\n      swap2\n      pop\n      pop\n      jump\t// out\n        /* \"#utility.yul\":4823:4922   */\n    tag_186:\n        /* \"#utility.yul\":4875:4881   */\n      0x00\n        /* \"#utility.yul\":4909:4914   */\n      dup2\n        /* \"#utility.yul\":4903:4915   */\n      mload\n        /* \"#utility.yul\":4893:4915   */\n      swap1\n      pop\n        /* \"#utility.yul\":4823:4922   */\n      swap2\n      swap1\n      pop\n      jump\t// out\n        /* \"#utility.yul\":4928:5097   */\n    tag_188:\n        /* \"#utility.yul\":5012:5023   */\n      0x00\n        /* \"#utility.yul\":5046:5052   */\n      dup3\n        /* \"#utility.yul\":5041:5044   */\n      dup3\n        /* \"#utility.yul\":5034:5053   */\n      mstore\n        /* \"#utility.yul\":5086:5090   */\n      0x20\n        /* \"#utility.yul\":5081:5084   */\n      dup3\n        /* \"#utility.yul\":5077:5091   */\n      add\n        /* \"#utility.yul\":5062:5091   */\n      swap1\n      pop\n        /* \"#utility.yul\":4928:5097   */\n      swap3\n      swap2\n      pop\n      pop\n      jump\t// out\n        /* \"#utility.yul\":5103:5408   */\n    tag_123:\n        /* \"#utility.yul\":5143:5146   */\n      0x00\n        /* \"#utility.yul\":5162:5182   */\n      tag_214\n        /* \"#utility.yul\":5180:5181   */\n      dup3\n        /* \"#utility.yul\":5162:5182   */\n      tag_196\n      jump\t// in\n    tag_214:\n        /* \"#utility.yul\":5157:5182   */\n      swap2\n      pop\n        /* \"#utility.yul\":5196:5216   */\n      tag_215\n        /* \"#utility.yul\":5214:5215   */\n      dup4\n        /* \"#utility.yul\":5196:5216   */\n      tag_196\n      jump\t// in\n    tag_215:\n        /* \"#utility.yul\":5191:5216   */\n      swap3\n      pop\n        /* \"#utility.yul\":5350:5351   */\n      dup3\n        /* \"#utility.yul\":5282:5348   */\n      0xffffffffffffffffffffffffffffffffffffffffffffffffffffffffffffffff\n        /* \"#utility.yul\":5278:5352   */\n      sub\n        /* \"#utility.yul\":5275:5276   */\n      dup3\n        /* \"#utility.yul\":5272:5353   */\n      gt\n        /* \"#utility.yul\":5269:5376   */\n      iszero\n      tag_216\n      jumpi\n        /* \"#utility.yul\":5356:5374   */\n      tag_217\n      tag_218\n      jump\t// in\n    tag_217:\n        /* \"#utility.yul\":5269:5376   */\n    tag_216:\n        /* \"#utility.yul\":5400:5401   */\n      dup3\n        /* \"#utility.yul\":5397:5398   */\n      dup3\n        /* \"#utility.yul\":5393:5402   */\n      add\n        /* \"#utility.yul\":5386:5402   */\n      swap1\n      pop\n        /* \"#utility.yul\":5103:5408   */\n      swap3\n      swap2\n      pop\n      pop\n      jump\t// out\n        /* \"#utility.yul\":5414:5605   */\n    tag_120:\n        /* \"#utility.yul\":5454:5458   */\n      0x00\n        /* \"#utility.yul\":5474:5494   */\n      tag_220\n        /* \"#utility.yul\":5492:5493   */\n      dup3\n        /* \"#utility.yul\":5474:5494   */\n      tag_196\n      jump\t// in\n    tag_220:\n        /* \"#utility.yul\":5469:5494   */\n      swap2\n      pop\n        /* \"#utility.yul\":5508:5528   */\n      tag_221\n        /* \"#utility.yul\":5526:5527   */\n      dup4\n        /* \"#utility.yul\":5508:5528   */\n      tag_196\n      jump\t// in\n    tag_221:\n        /* \"#utility.yul\":5503:5528   */\n      swap3\n      pop\n        /* \"#utility.yul\":5547:5548   */\n      dup3\n        /* \"#utility.yul\":5544:5545   */\n      dup3\n        /* \"#utility.yul\":5541:5549   */\n      lt\n        /* \"#utility.yul\":5538:5572   */\n      iszero\n      tag_222\n      jumpi\n        /* \"#utility.yul\":5552:5570   */\n      tag_223\n      tag_218\n      jump\t// in\n    tag_223:\n        /* \"#utility.yul\":5538:5572   */\n    tag_222:\n        /* \"#utility.yul\":5597:5598   */\n      dup3\n        /* \"#utility.yul\":5594:5595   */\n      dup3\n        /* \"#utility.yul\":5590:5599   */\n      sub\n        /* \"#utility.yul\":5582:5599   */\n      swap1\n      pop\n        /* \"#utility.yul\":5414:5605   */\n      swap3\n      swap2\n      pop\n      pop\n      jump\t// out\n        /* \"#utility.yul\":5611:5707   */\n    tag_174:\n        /* \"#utility.yul\":5648:5655   */\n      0x00\n        /* \"#utility.yul\":5677:5701   */\n      tag_225\n        /* \"#utility.yul\":5695:5700   */\n      dup3\n        /* \"#utility.yul\":5677:5701   */\n      tag_226\n      jump\t// in\n    tag_225:\n        /* \"#utility.yul\":5666:5701   */\n      swap1\n      pop\n        /* \"#utility.yul\":5611:5707   */\n      swap2\n      swap1\n      pop\n      jump\t// out\n        /* \"#utility.yul\":5713:5817   */\n    tag_170:\n        /* \"#utility.yul\":5758:5765   */\n      0x00\n        /* \"#utility.yul\":5787:5811   */\n      tag_228\n        /* \"#utility.yul\":5805:5810   */\n      dup3\n        /* \"#utility.yul\":5787:5811   */\n      tag_226\n      jump\t// in\n    tag_228:\n        /* \"#utility.yul\":5776:5811   */\n      swap1\n      pop\n        /* \"#utility.yul\":5713:5817   */\n      swap2\n      swap1\n      pop\n      jump\t// out\n        /* \"#utility.yul\":5823:5913   */\n    tag_178:\n        /* \"#utility.yul\":5857:5864   */\n      0x00\n        /* \"#utility.yul\":5900:5905   */\n      dup2\n        /* \"#utility.yul\":5893:5906   */\n      iszero\n        /* \"#utility.yul\":5886:5907   */\n      iszero\n        /* \"#utility.yul\":5875:5907   */\n      swap1\n      pop\n        /* \"#utility.yul\":5823:5913   */\n      swap2\n      swap1\n      pop\n      jump\t// out\n        /* \"#utility.yul\":5919:6048   */\n    tag_230:\n        /* \"#utility.yul\":5965:5972   */\n      0x00\n        /* \"#utility.yul\":5994:5999   */\n      dup2\n        /* \"#utility.yul\":5983:5999   */\n      swap1\n      pop\n        /* \"#utility.yul\":6000:6042   */\n      tag_232\n        /* \"#utility.yul\":6036:6041   */\n      dup3\n        /* \"#utility.yul\":6000:6042   */\n      tag_233\n      jump\t// in\n    tag_232:\n        /* \"#utility.yul\":5919:6048   */\n      swap2\n      swap1\n      pop\n      jump\t// out\n        /* \"#utility.yul\":6054:6180   */\n    tag_226:\n        /* \"#utility.yul\":6091:6098   */\n      0x00\n        /* \"#utility.yul\":6131:6173   */\n      0xffffffffffffffffffffffffffffffffffffffff\n        /* \"#utility.yul\":6124:6129   */\n      dup3\n        /* \"#utility.yul\":6120:6174   */\n      and\n        /* \"#utility.yul\":6109:6174   */\n      swap1\n      pop\n        /* \"#utility.yul\":6054:6180   */\n      swap2\n      swap1\n      pop\n      jump\t// out\n        /* \"#utility.yul\":6186:6263   */\n    tag_196:\n        /* \"#utility.yul\":6223:6230   */\n      0x00\n        /* \"#utility.yul\":6252:6257   */\n      dup2\n        /* \"#utility.yul\":6241:6257   */\n      swap1\n      pop\n        /* \"#utility.yul\":6186:6263   */\n      swap2\n      swap1\n      pop\n      jump\t// out\n        /* \"#utility.yul\":6269:6398   */\n    tag_182:\n        /* \"#utility.yul\":6326:6335   */\n      0x00\n        /* \"#utility.yul\":6359:6392   */\n      tag_237\n        /* \"#utility.yul\":6386:6391   */\n      dup3\n        /* \"#utility.yul\":6359:6392   */\n      tag_230\n      jump\t// in\n    tag_237:\n        /* \"#utility.yul\":6346:6392   */\n      swap1\n      pop\n        /* \"#utility.yul\":6269:6398   */\n      swap2\n      swap1\n      pop\n      jump\t// out\n        /* \"#utility.yul\":6404:6711   */\n    tag_190:\n        /* \"#utility.yul\":6472:6473   */\n      0x00\n        /* \"#utility.yul\":6482:6595   */\n    tag_239:\n        /* \"#utility.yul\":6496:6502   */\n      dup4\n        /* \"#utility.yul\":6493:6494   */\n      dup2\n        /* \"#utility.yul\":6490:6503   */\n      lt\n        /* \"#utility.yul\":6482:6595   */\n      iszero\n      tag_241\n      jumpi\n        /* \"#utility.yul\":6581:6582   */\n      dup1\n        /* \"#utility.yul\":6576:6579   */\n      dup3\n        /* \"#utility.yul\":6572:6583   */\n      add\n        /* \"#utility.yul\":6566:6584   */\n      mload\n        /* \"#utility.yul\":6562:6563   */\n      dup2\n        /* \"#utility.yul\":6557:6560   */\n      dup5\n        /* \"#utility.yul\":6553:6564   */\n      add\n        /* \"#utility.yul\":6546:6585   */\n      mstore\n        /* \"#utility.yul\":6518:6520   */\n      0x20\n        /* \"#utility.yul\":6515:6516   */\n      dup2\n        /* \"#utility.yul\":6511:6521   */\n      add\n        /* \"#utility.yul\":6506:6521   */\n      swap1\n      pop\n        /* \"#utility.yul\":6482:6595   */\n      jump(tag_239)\n    tag_241:\n        /* \"#utility.yul\":6613:6619   */\n      dup4\n        /* \"#utility.yul\":6610:6611   */\n      dup2\n        /* \"#utility.yul\":6607:6620   */\n      gt\n        /* \"#utility.yul\":6604:6705   */\n      iszero\n      tag_242\n      jumpi\n        /* \"#utility.yul\":6693:6694   */\n      0x00\n        /* \"#utility.yul\":6684:6690   */\n      dup5\n        /* \"#utility.yul\":6679:6682   */\n      dup5\n        /* \"#utility.yul\":6675:6691   */\n      add\n        /* \"#utility.yul\":6668:6695   */\n      mstore\n        /* \"#utility.yul\":6604:6705   */\n    tag_242:\n        /* \"#utility.yul\":6453:6711   */\n      pop\n        /* \"#utility.yul\":6404:6711   */\n      pop\n      pop\n      pop\n      jump\t// out\n        /* \"#utility.yul\":6717:7037   */\n    tag_107:\n        /* \"#utility.yul\":6761:6767   */\n      0x00\n        /* \"#utility.yul\":6798:6799   */\n      0x02\n        /* \"#utility.yul\":6792:6796   */\n      dup3\n        /* \"#utility.yul\":6788:6800   */\n      div\n        /* \"#utility.yul\":6778:6800   */\n      swap1\n      pop\n        /* \"#utility.yul\":6845:6846   */\n      0x01\n        /* \"#utility.yul\":6839:6843   */\n      dup3\n        /* \"#utility.yul\":6835:6847   */\n      and\n        /* \"#utility.yul\":6866:6884   */\n      dup1\n        /* \"#utility.yul\":6856:6937   */\n      tag_244\n      jumpi\n        /* \"#utility.yul\":6922:6926   */\n      0x7f\n        /* \"#utility.yul\":6914:6920   */\n      dup3\n        /* \"#utility.yul\":6910:6927   */\n      and\n        /* \"#utility.yul\":6900:6927   */\n      swap2\n      pop\n        /* \"#utility.yul\":6856:6937   */\n    tag_244:\n        /* \"#utility.yul\":6984:6986   */\n      0x20\n        /* \"#utility.yul\":6976:6982   */\n      dup3\n        /* \"#utility.yul\":6973:6987   */\n      lt\n        /* \"#utility.yul\":6953:6971   */\n      dup2\n        /* \"#utility.yul\":6950:6988   */\n      eq\n        /* \"#utility.yul\":6947:7031   */\n      iszero\n      tag_245\n      jumpi\n        /* \"#utility.yul\":7003:7021   */\n      tag_246\n      tag_247\n      jump\t// in\n    tag_246:\n        /* \"#utility.yul\":6947:7031   */\n    tag_245:\n        /* \"#utility.yul\":6768:7037   */\n      pop\n        /* \"#utility.yul\":6717:7037   */\n      swap2\n      swap1\n      pop\n      jump\t// out\n        /* \"#utility.yul\":7043:7223   */\n    tag_218:\n        /* \"#utility.yul\":7091:7168   */\n      0x4e487b7100000000000000000000000000000000000000000000000000000000\n        /* \"#utility.yul\":7088:7089   */\n      0x00\n        /* \"#utility.yul\":7081:7169   */\n      mstore\n        /* \"#utility.yul\":7188:7192   */\n      0x11\n        /* \"#utility.yul\":7185:7186   */\n      0x04\n        /* \"#utility.yul\":7178:7193   */\n      mstore\n        /* \"#utility.yul\":7212:7216   */\n      0x24\n        /* \"#utility.yul\":7209:7210   */\n      0x00\n        /* \"#utility.yul\":7202:7217   */\n      revert\n        /* \"#utility.yul\":7229:7409   */\n    tag_249:\n        /* \"#utility.yul\":7277:7354   */\n      0x4e487b7100000000000000000000000000000000000000000000000000000000\n        /* \"#utility.yul\":7274:7275   */\n      0x00\n        /* \"#utility.yul\":7267:7355   */\n      mstore\n        /* \"#utility.yul\":7374:7378   */\n      0x21\n        /* \"#utility.yul\":7371:7372   */\n      0x04\n        /* \"#utility.yul\":7364:7379   */\n      mstore\n        /* \"#utility.yul\":7398:7402   */\n      0x24\n        /* \"#utility.yul\":7395:7396   */\n      0x00\n        /* \"#utility.yul\":7388:7403   */\n      revert\n        /* \"#utility.yul\":7415:7595   */\n    tag_247:\n        /* \"#utility.yul\":7463:7540   */\n      0x4e487b7100000000000000000000000000000000000000000000000000000000\n        /* \"#utility.yul\":7460:7461   */\n      0x00\n        /* \"#utility.yul\":7453:7541   */\n      mstore\n        /* \"#utility.yul\":7560:7564   */\n      0x22\n        /* \"#utility.yul\":7557:7558   */\n      0x04\n        /* \"#utility.yul\":7550:7565   */\n      mstore\n        /* \"#utility.yul\":7584:7588   */\n      0x24\n        /* \"#utility.yul\":7581:7582   */\n      0x00\n        /* \"#utility.yul\":7574:7589   */\n      revert\n        /* \"#utility.yul\":7724:7841   */\n    tag_149:\n        /* \"#utility.yul\":7833:7834   */\n      0x00\n        /* \"#utility.yul\":7830:7831   */\n      dup1\n        /* \"#utility.yul\":7823:7835   */\n      revert\n        /* \"#utility.yul\":7847:7949   */\n    tag_192:\n        /* \"#utility.yul\":7888:7894   */\n      0x00\n        /* \"#utility.yul\":7939:7941   */\n      0x1f\n        /* \"#utility.yul\":7935:7942   */\n      not\n        /* \"#utility.yul\":7930:7932   */\n      0x1f\n        /* \"#utility.yul\":7923:7928   */\n      dup4\n        /* \"#utility.yul\":7919:7933   */\n      add\n        /* \"#utility.yul\":7915:7943   */\n      and\n        /* \"#utility.yul\":7905:7943   */\n      swap1\n      pop\n        /* \"#utility.yul\":7847:7949   */\n      swap2\n      swap1\n      pop\n      jump\t// out\n        /* \"#utility.yul\":7955:8069   */\n    tag_233:\n        /* \"#utility.yul\":8037:8038   */\n      0x04\n        /* \"#utility.yul\":8030:8035   */\n      dup2\n        /* \"#utility.yul\":8027:8039   */\n      lt\n        /* \"#utility.yul\":8017:8063   */\n      tag_257\n      jumpi\n        /* \"#utility.yul\":8043:8061   */\n      tag_258\n      tag_249\n      jump\t// in\n    tag_258:\n        /* \"#utility.yul\":8017:8063   */\n    tag_257:\n        /* \"#utility.yul\":7955:8069   */\n      pop\n      jump\t// out\n        /* \"#utility.yul\":8075:8197   */\n    tag_141:\n        /* \"#utility.yul\":8148:8172   */\n      tag_260\n        /* \"#utility.yul\":8166:8171   */\n      dup2\n        /* \"#utility.yul\":8148:8172   */\n      tag_174\n      jump\t// in\n    tag_260:\n        /* \"#utility.yul\":8141:8146   */\n      dup2\n        /* \"#utility.yul\":8138:8173   */\n      eq\n        /* \"#utility.yul\":8128:8191   */\n      tag_261\n      jumpi\n        /* \"#utility.yul\":8187:8188   */\n      0x00\n        /* \"#utility.yul\":8184:8185   */\n      dup1\n        /* \"#utility.yul\":8177:8189   */\n      revert\n        /* \"#utility.yul\":8128:8191   */\n    tag_261:\n        /* \"#utility.yul\":8075:8197   */\n      pop\n      jump\t// out\n        /* \"#utility.yul\":8203:8325   */\n    tag_145:\n        /* \"#utility.yul\":8276:8300   */\n      tag_263\n        /* \"#utility.yul\":8294:8299   */\n      dup2\n        /* \"#utility.yul\":8276:8300   */\n      tag_196\n      jump\t// in\n    tag_263:\n        /* \"#utility.yul\":8269:8274   */\n      dup2\n        /* \"#utility.yul\":8266:8301   */\n      eq\n        /* \"#utility.yul\":8256:8319   */\n      tag_264\n      jumpi\n        /* \"#utility.yul\":8315:8316   */\n      0x00\n        /* \"#utility.yul\":8312:8313   */\n      dup1\n        /* \"#utility.yul\":8305:8317   */\n      revert\n        /* \"#utility.yul\":8256:8319   */\n    tag_264:\n        /* \"#utility.yul\":8203:8325   */\n      pop\n      jump\t// out\n\n    auxdata: 0xa2646970667358221220e14e51141a08f035fa6ef23c432715f03164d5f27e3dbbbe3740dc30939b508564736f6c63430008070033\n}\n",
				"bytecode": {
					"linkReferences": {},
					"object": "60806040526040518060400160405280600d81526020017f50656e6e792050656e6e696573000000000000000000000000000000000000008152506000908051906020019062000051929190620002ac565b506040518060400160405280600581526020017f50454e4e59000000000000000000000000000000000000000000000000000000815250600190805190602001906200009f929190620002ac565b50600060025564e8d4a51000600955681043561a8829300000600a55600a42620000ca9190620003a5565b600c5562093a8042620000de9190620003a5565b600d5562093a80600d54620000f49190620003a5565b600e55674563918244f40000600f5567016345785d8a00006010553480156200011c57600080fd5b506040516200164438038062001644833981810160405281019062000142919062000373565b620f424060038190555033600460006101000a81548173ffffffffffffffffffffffffffffffffffffffff021916908373ffffffffffffffffffffffffffffffffffffffff16021790555060035460056000600460009054906101000a900473ffffffffffffffffffffffffffffffffffffffff1673ffffffffffffffffffffffffffffffffffffffff1673ffffffffffffffffffffffffffffffffffffffff1681526020019081526020016000208190555080600860006101000a81548173ffffffffffffffffffffffffffffffffffffffff021916908373ffffffffffffffffffffffffffffffffffffffff16021790555033600760006101000a81548173ffffffffffffffffffffffffffffffffffffffff021916908373ffffffffffffffffffffffffffffffffffffffff1602179055506000601160006101000a81548160ff02191690836003811115620002a0576200029f620004a5565b5b02179055505062000522565b828054620002ba9062000440565b90600052602060002090601f016020900481019282620002de57600085556200032a565b82601f10620002f957805160ff19168380011785556200032a565b828001600101855582156200032a579182015b82811115620003295782518255916020019190600101906200030c565b5b5090506200033991906200033d565b5090565b5b80821115620003585760008160009055506001016200033e565b5090565b6000815190506200036d8162000508565b92915050565b6000602082840312156200038c576200038b62000503565b5b60006200039c848285016200035c565b91505092915050565b6000620003b28262000436565b9150620003bf8362000436565b9250827fffffffffffffffffffffffffffffffffffffffffffffffffffffffffffffffff03821115620003f757620003f662000476565b5b828201905092915050565b60006200040f8262000416565b9050919050565b600073ffffffffffffffffffffffffffffffffffffffff82169050919050565b6000819050919050565b600060028204905060018216806200045957607f821691505b6020821081141562000470576200046f620004d4565b5b50919050565b7f4e487b7100000000000000000000000000000000000000000000000000000000600052601160045260246000fd5b7f4e487b7100000000000000000000000000000000000000000000000000000000600052602160045260246000fd5b7f4e487b7100000000000000000000000000000000000000000000000000000000600052602260045260246000fd5b600080fd5b620005138162000402565b81146200051f57600080fd5b50565b61111280620005326000396000f3fe608060405234801561001057600080fd5b50600436106101365760003560e01c80638ac2c680116100b8578063c59ee1dc1161007c578063c59ee1dc14610357578063cc9ba58314610375578063d0e30db014610393578063dd62ed3e146103b1578063f851a440146103e1578063fb86a404146103ff57610136565b80638ac2c680146102af57806395d89b41146102cd578063a9059cbb146102eb578063ab0bcc411461031b578063c10b93581461033957610136565b806327e235e3116100ff57806327e235e3146101f5578063313ce567146102255780633a2c7a37146102435780634d853ee51461026157806370a082311461027f57610136565b80622e13161461013b57806306fdde0314610159578063095ea7b31461017757806318160ddd146101a757806323b872dd146101c5575b600080fd5b61014361041d565b6040516101509190610e52565b60405180910390f35b610161610423565b60405161016e9190610e30565b60405180910390f35b610191600480360381019061018c9190610d00565b6104b1565b60405161019e9190610dfa565b60405180910390f35b6101af6105fc565b6040516101bc9190610e52565b60405180910390f35b6101df60048036038101906101da9190610cad565b610602565b6040516101ec9190610dfa565b60405180910390f35b61020f600480360381019061020a9190610c40565b610888565b60405161021c9190610e52565b60405180910390f35b61022d6108a0565b60405161023a9190610e52565b60405180910390f35b61024b6108a6565b6040516102589190610e15565b60405180910390f35b6102696108b9565b6040516102769190610dc4565b60405180910390f35b61029960048036038101906102949190610c40565b6108df565b6040516102a69190610e52565b60405180910390f35b6102b7610928565b6040516102c49190610e52565b60405180910390f35b6102d561092e565b6040516102e29190610e30565b60405180910390f35b61030560048036038101906103009190610d00565b6109bc565b6040516103129190610dfa565b60405180910390f35b610323610b25565b6040516103309190610e52565b60405180910390f35b610341610b2b565b60405161034e9190610e52565b60405180910390f35b61035f610b31565b60405161036c9190610e52565b60405180910390f35b61037d610b37565b60405161038a9190610e52565b60405180910390f35b61039b610b3d565b6040516103a89190610ddf565b60405180910390f35b6103cb60048036038101906103c69190610c6d565b610b63565b6040516103d89190610e52565b60405180910390f35b6103e9610bea565b6040516103f69190610dc4565b60405180910390f35b610407610c10565b6040516104149190610e52565b60405180910390f35b600f5481565b6000805461043090610fc5565b80601f016020809104026020016040519081016040528092919081815260200182805461045c90610fc5565b80156104a95780601f1061047e576101008083540402835291602001916104a9565b820191906000526020600020905b81548152906001019060200180831161048c57829003601f168201915b505050505081565b600081600560003373ffffffffffffffffffffffffffffffffffffffff1673ffffffffffffffffffffffffffffffffffffffff1681526020019081526020016000205410156104ff57600080fd5b6000821161050c57600080fd5b81600660003373ffffffffffffffffffffffffffffffffffffffff1673ffffffffffffffffffffffffffffffffffffffff16815260200190815260200160002060008573ffffffffffffffffffffffffffffffffffffffff1673ffffffffffffffffffffffffffffffffffffffff168152602001908152602001600020819055508273ffffffffffffffffffffffffffffffffffffffff163373ffffffffffffffffffffffffffffffffffffffff167f8c5be1e5ebec7d5bd14f71427d1e84f3dd0314c0f7b2291e5b200ac8c7c3b925846040516105ea9190610e52565b60405180910390a36001905092915050565b60035481565b600081600660008673ffffffffffffffffffffffffffffffffffffffff1673ffffffffffffffffffffffffffffffffffffffff16815260200190815260200160002060003373ffffffffffffffffffffffffffffffffffffffff1673ffffffffffffffffffffffffffffffffffffffff16815260200190815260200160002054101561068d57600080fd5b81600560008673ffffffffffffffffffffffffffffffffffffffff1673ffffffffffffffffffffffffffffffffffffffff1681526020019081526020016000205410156106d957600080fd5b81600560008673ffffffffffffffffffffffffffffffffffffffff1673ffffffffffffffffffffffffffffffffffffffff16815260200190815260200160002060008282546107289190610edf565b9250508190555081600660008673ffffffffffffffffffffffffffffffffffffffff1673ffffffffffffffffffffffffffffffffffffffff16815260200190815260200160002060003373ffffffffffffffffffffffffffffffffffffffff1673ffffffffffffffffffffffffffffffffffffffff16815260200190815260200160002060008282546107bb9190610edf565b9250508190555081600560008573ffffffffffffffffffffffffffffffffffffffff1673ffffffffffffffffffffffffffffffffffffffff16815260200190815260200160002060008282546108119190610e89565b925050819055508273ffffffffffffffffffffffffffffffffffffffff168473ffffffffffffffffffffffffffffffffffffffff167fddf252ad1be2c89b69c2b068fc378daa952ba7f163c4a11628f55a4df523b3ef846040516108759190610e52565b60405180910390a3600190509392505050565b60056020528060005260406000206000915090505481565b60025481565b601160009054906101000a900460ff1681565b600460009054906101000a900473ffffffffffffffffffffffffffffffffffffffff1681565b6000600560008373ffffffffffffffffffffffffffffffffffffffff1673ffffffffffffffffffffffffffffffffffffffff168152602001908152602001600020549050919050565b60105481565b6001805461093b90610fc5565b80601f016020809104026020016040519081016040528092919081815260200182805461096790610fc5565b80156109b45780601f10610989576101008083540402835291602001916109b4565b820191906000526020600020905b81548152906001019060200180831161099757829003601f168201915b505050505081565b600081600560003373ffffffffffffffffffffffffffffffffffffffff1673ffffffffffffffffffffffffffffffffffffffff168152602001908152602001600020541015610a0a57600080fd5b81600560008573ffffffffffffffffffffffffffffffffffffffff1673ffffffffffffffffffffffffffffffffffffffff1681526020019081526020016000206000828254610a599190610e89565b9250508190555081600560003373ffffffffffffffffffffffffffffffffffffffff1673ffffffffffffffffffffffffffffffffffffffff1681526020019081526020016000206000828254610aaf9190610edf565b925050819055508273ffffffffffffffffffffffffffffffffffffffff163373ffffffffffffffffffffffffffffffffffffffff167fddf252ad1be2c89b69c2b068fc378daa952ba7f163c4a11628f55a4df523b3ef84604051610b139190610e52565b60405180910390a36001905092915050565b600c5481565b600d5481565b600b5481565b600e5481565b600860009054906101000a900473ffffffffffffffffffffffffffffffffffffffff1681565b6000600660008473ffffffffffffffffffffffffffffffffffffffff1673ffffffffffffffffffffffffffffffffffffffff16815260200190815260200160002060008373ffffffffffffffffffffffffffffffffffffffff1673ffffffffffffffffffffffffffffffffffffffff16815260200190815260200160002054905092915050565b600760009054906101000a900473ffffffffffffffffffffffffffffffffffffffff1681565b600a5481565b600081359050610c25816110ae565b92915050565b600081359050610c3a816110c5565b92915050565b600060208284031215610c5657610c55611084565b5b6000610c6484828501610c16565b91505092915050565b60008060408385031215610c8457610c83611084565b5b6000610c9285828601610c16565b9250506020610ca385828601610c16565b9150509250929050565b600080600060608486031215610cc657610cc5611084565b5b6000610cd486828701610c16565b9350506020610ce586828701610c16565b9250506040610cf686828701610c2b565b9150509250925092565b60008060408385031215610d1757610d16611084565b5b6000610d2585828601610c16565b9250506020610d3685828601610c2b565b9150509250929050565b610d4981610f25565b82525050565b610d5881610f13565b82525050565b610d6781610f37565b82525050565b610d7681610f80565b82525050565b6000610d8782610e6d565b610d918185610e78565b9350610da1818560208601610f92565b610daa81611089565b840191505092915050565b610dbe81610f76565b82525050565b6000602082019050610dd96000830184610d4f565b92915050565b6000602082019050610df46000830184610d40565b92915050565b6000602082019050610e0f6000830184610d5e565b92915050565b6000602082019050610e2a6000830184610d6d565b92915050565b60006020820190508181036000830152610e4a8184610d7c565b905092915050565b6000602082019050610e676000830184610db5565b92915050565b600081519050919050565b600082825260208201905092915050565b6000610e9482610f76565b9150610e9f83610f76565b9250827fffffffffffffffffffffffffffffffffffffffffffffffffffffffffffffffff03821115610ed457610ed3610ff7565b5b828201905092915050565b6000610eea82610f76565b9150610ef583610f76565b925082821015610f0857610f07610ff7565b5b828203905092915050565b6000610f1e82610f56565b9050919050565b6000610f3082610f56565b9050919050565b60008115159050919050565b6000819050610f518261109a565b919050565b600073ffffffffffffffffffffffffffffffffffffffff82169050919050565b6000819050919050565b6000610f8b82610f43565b9050919050565b60005b83811015610fb0578082015181840152602081019050610f95565b83811115610fbf576000848401525b50505050565b60006002820490506001821680610fdd57607f821691505b60208210811415610ff157610ff0611055565b5b50919050565b7f4e487b7100000000000000000000000000000000000000000000000000000000600052601160045260246000fd5b7f4e487b7100000000000000000000000000000000000000000000000000000000600052602160045260246000fd5b7f4e487b7100000000000000000000000000000000000000000000000000000000600052602260045260246000fd5b600080fd5b6000601f19601f8301169050919050565b600481106110ab576110aa611026565b5b50565b6110b781610f13565b81146110c257600080fd5b50565b6110ce81610f76565b81146110d957600080fd5b5056fea2646970667358221220e14e51141a08f035fa6ef23c432715f03164d5f27e3dbbbe3740dc30939b508564736f6c63430008070033",
					"opcodes": "PUSH1 0x80 PUSH1 0x40 MSTORE PUSH1 0x40 MLOAD DUP1 PUSH1 0x40 ADD PUSH1 0x40 MSTORE DUP1 PUSH1 0xD DUP2 MSTORE PUSH1 0x20 ADD PUSH32 0x50656E6E792050656E6E69657300000000000000000000000000000000000000 DUP2 MSTORE POP PUSH1 0x0 SWAP1 DUP1 MLOAD SWAP1 PUSH1 0x20 ADD SWAP1 PUSH3 0x51 SWAP3 SWAP2 SWAP1 PUSH3 0x2AC JUMP JUMPDEST POP PUSH1 0x40 MLOAD DUP1 PUSH1 0x40 ADD PUSH1 0x40 MSTORE DUP1 PUSH1 0x5 DUP2 MSTORE PUSH1 0x20 ADD PUSH32 0x50454E4E59000000000000000000000000000000000000000000000000000000 DUP2 MSTORE POP PUSH1 0x1 SWAP1 DUP1 MLOAD SWAP1 PUSH1 0x20 ADD SWAP1 PUSH3 0x9F SWAP3 SWAP2 SWAP1 PUSH3 0x2AC JUMP JUMPDEST POP PUSH1 0x0 PUSH1 0x2 SSTORE PUSH5 0xE8D4A51000 PUSH1 0x9 SSTORE PUSH9 0x1043561A8829300000 PUSH1 0xA SSTORE PUSH1 0xA TIMESTAMP PUSH3 0xCA SWAP2 SWAP1 PUSH3 0x3A5 JUMP JUMPDEST PUSH1 0xC SSTORE PUSH3 0x93A80 TIMESTAMP PUSH3 0xDE SWAP2 SWAP1 PUSH3 0x3A5 JUMP JUMPDEST PUSH1 0xD SSTORE PUSH3 0x93A80 PUSH1 0xD SLOAD PUSH3 0xF4 SWAP2 SWAP1 PUSH3 0x3A5 JUMP JUMPDEST PUSH1 0xE SSTORE PUSH8 0x4563918244F40000 PUSH1 0xF SSTORE PUSH8 0x16345785D8A0000 PUSH1 0x10 SSTORE CALLVALUE DUP1 ISZERO PUSH3 0x11C JUMPI PUSH1 0x0 DUP1 REVERT JUMPDEST POP PUSH1 0x40 MLOAD PUSH3 0x1644 CODESIZE SUB DUP1 PUSH3 0x1644 DUP4 CODECOPY DUP2 DUP2 ADD PUSH1 0x40 MSTORE DUP2 ADD SWAP1 PUSH3 0x142 SWAP2 SWAP1 PUSH3 0x373 JUMP JUMPDEST PUSH3 0xF4240 PUSH1 0x3 DUP2 SWAP1 SSTORE POP CALLER PUSH1 0x4 PUSH1 0x0 PUSH2 0x100 EXP DUP2 SLOAD DUP2 PUSH20 0xFFFFFFFFFFFFFFFFFFFFFFFFFFFFFFFFFFFFFFFF MUL NOT AND SWAP1 DUP4 PUSH20 0xFFFFFFFFFFFFFFFFFFFFFFFFFFFFFFFFFFFFFFFF AND MUL OR SWAP1 SSTORE POP PUSH1 0x3 SLOAD PUSH1 0x5 PUSH1 0x0 PUSH1 0x4 PUSH1 0x0 SWAP1 SLOAD SWAP1 PUSH2 0x100 EXP SWAP1 DIV PUSH20 0xFFFFFFFFFFFFFFFFFFFFFFFFFFFFFFFFFFFFFFFF AND PUSH20 0xFFFFFFFFFFFFFFFFFFFFFFFFFFFFFFFFFFFFFFFF AND PUSH20 0xFFFFFFFFFFFFFFFFFFFFFFFFFFFFFFFFFFFFFFFF AND DUP2 MSTORE PUSH1 0x20 ADD SWAP1 DUP2 MSTORE PUSH1 0x20 ADD PUSH1 0x0 KECCAK256 DUP2 SWAP1 SSTORE POP DUP1 PUSH1 0x8 PUSH1 0x0 PUSH2 0x100 EXP DUP2 SLOAD DUP2 PUSH20 0xFFFFFFFFFFFFFFFFFFFFFFFFFFFFFFFFFFFFFFFF MUL NOT AND SWAP1 DUP4 PUSH20 0xFFFFFFFFFFFFFFFFFFFFFFFFFFFFFFFFFFFFFFFF AND MUL OR SWAP1 SSTORE POP CALLER PUSH1 0x7 PUSH1 0x0 PUSH2 0x100 EXP DUP2 SLOAD DUP2 PUSH20 0xFFFFFFFFFFFFFFFFFFFFFFFFFFFFFFFFFFFFFFFF MUL NOT AND SWAP1 DUP4 PUSH20 0xFFFFFFFFFFFFFFFFFFFFFFFFFFFFFFFFFFFFFFFF AND MUL OR SWAP1 SSTORE POP PUSH1 0x0 PUSH1 0x11 PUSH1 0x0 PUSH2 0x100 EXP DUP2 SLOAD DUP2 PUSH1 0xFF MUL NOT AND SWAP1 DUP4 PUSH1 0x3 DUP2 GT ISZERO PUSH3 0x2A0 JUMPI PUSH3 0x29F PUSH3 0x4A5 JUMP JUMPDEST JUMPDEST MUL OR SWAP1 SSTORE POP POP PUSH3 0x522 JUMP JUMPDEST DUP3 DUP1 SLOAD PUSH3 0x2BA SWAP1 PUSH3 0x440 JUMP JUMPDEST SWAP1 PUSH1 0x0 MSTORE PUSH1 0x20 PUSH1 0x0 KECCAK256 SWAP1 PUSH1 0x1F ADD PUSH1 0x20 SWAP1 DIV DUP2 ADD SWAP3 DUP3 PUSH3 0x2DE JUMPI PUSH1 0x0 DUP6 SSTORE PUSH3 0x32A JUMP JUMPDEST DUP3 PUSH1 0x1F LT PUSH3 0x2F9 JUMPI DUP1 MLOAD PUSH1 0xFF NOT AND DUP4 DUP1 ADD OR DUP6 SSTORE PUSH3 0x32A JUMP JUMPDEST DUP3 DUP1 ADD PUSH1 0x1 ADD DUP6 SSTORE DUP3 ISZERO PUSH3 0x32A JUMPI SWAP2 DUP3 ADD JUMPDEST DUP3 DUP2 GT ISZERO PUSH3 0x329 JUMPI DUP3 MLOAD DUP3 SSTORE SWAP2 PUSH1 0x20 ADD SWAP2 SWAP1 PUSH1 0x1 ADD SWAP1 PUSH3 0x30C JUMP JUMPDEST JUMPDEST POP SWAP1 POP PUSH3 0x339 SWAP2 SWAP1 PUSH3 0x33D JUMP JUMPDEST POP SWAP1 JUMP JUMPDEST JUMPDEST DUP1 DUP3 GT ISZERO PUSH3 0x358 JUMPI PUSH1 0x0 DUP2 PUSH1 0x0 SWAP1 SSTORE POP PUSH1 0x1 ADD PUSH3 0x33E JUMP JUMPDEST POP SWAP1 JUMP JUMPDEST PUSH1 0x0 DUP2 MLOAD SWAP1 POP PUSH3 0x36D DUP2 PUSH3 0x508 JUMP JUMPDEST SWAP3 SWAP2 POP POP JUMP JUMPDEST PUSH1 0x0 PUSH1 0x20 DUP3 DUP5 SUB SLT ISZERO PUSH3 0x38C JUMPI PUSH3 0x38B PUSH3 0x503 JUMP JUMPDEST JUMPDEST PUSH1 0x0 PUSH3 0x39C DUP5 DUP3 DUP6 ADD PUSH3 0x35C JUMP JUMPDEST SWAP2 POP POP SWAP3 SWAP2 POP POP JUMP JUMPDEST PUSH1 0x0 PUSH3 0x3B2 DUP3 PUSH3 0x436 JUMP JUMPDEST SWAP2 POP PUSH3 0x3BF DUP4 PUSH3 0x436 JUMP JUMPDEST SWAP3 POP DUP3 PUSH32 0xFFFFFFFFFFFFFFFFFFFFFFFFFFFFFFFFFFFFFFFFFFFFFFFFFFFFFFFFFFFFFFFF SUB DUP3 GT ISZERO PUSH3 0x3F7 JUMPI PUSH3 0x3F6 PUSH3 0x476 JUMP JUMPDEST JUMPDEST DUP3 DUP3 ADD SWAP1 POP SWAP3 SWAP2 POP POP JUMP JUMPDEST PUSH1 0x0 PUSH3 0x40F DUP3 PUSH3 0x416 JUMP JUMPDEST SWAP1 POP SWAP2 SWAP1 POP JUMP JUMPDEST PUSH1 0x0 PUSH20 0xFFFFFFFFFFFFFFFFFFFFFFFFFFFFFFFFFFFFFFFF DUP3 AND SWAP1 POP SWAP2 SWAP1 POP JUMP JUMPDEST PUSH1 0x0 DUP2 SWAP1 POP SWAP2 SWAP1 POP JUMP JUMPDEST PUSH1 0x0 PUSH1 0x2 DUP3 DIV SWAP1 POP PUSH1 0x1 DUP3 AND DUP1 PUSH3 0x459 JUMPI PUSH1 0x7F DUP3 AND SWAP2 POP JUMPDEST PUSH1 0x20 DUP3 LT DUP2 EQ ISZERO PUSH3 0x470 JUMPI PUSH3 0x46F PUSH3 0x4D4 JUMP JUMPDEST JUMPDEST POP SWAP2 SWAP1 POP JUMP JUMPDEST PUSH32 0x4E487B7100000000000000000000000000000000000000000000000000000000 PUSH1 0x0 MSTORE PUSH1 0x11 PUSH1 0x4 MSTORE PUSH1 0x24 PUSH1 0x0 REVERT JUMPDEST PUSH32 0x4E487B7100000000000000000000000000000000000000000000000000000000 PUSH1 0x0 MSTORE PUSH1 0x21 PUSH1 0x4 MSTORE PUSH1 0x24 PUSH1 0x0 REVERT JUMPDEST PUSH32 0x4E487B7100000000000000000000000000000000000000000000000000000000 PUSH1 0x0 MSTORE PUSH1 0x22 PUSH1 0x4 MSTORE PUSH1 0x24 PUSH1 0x0 REVERT JUMPDEST PUSH1 0x0 DUP1 REVERT JUMPDEST PUSH3 0x513 DUP2 PUSH3 0x402 JUMP JUMPDEST DUP2 EQ PUSH3 0x51F JUMPI PUSH1 0x0 DUP1 REVERT JUMPDEST POP JUMP JUMPDEST PUSH2 0x1112 DUP1 PUSH3 0x532 PUSH1 0x0 CODECOPY PUSH1 0x0 RETURN INVALID PUSH1 0x80 PUSH1 0x40 MSTORE CALLVALUE DUP1 ISZERO PUSH2 0x10 JUMPI PUSH1 0x0 DUP1 REVERT JUMPDEST POP PUSH1 0x4 CALLDATASIZE LT PUSH2 0x136 JUMPI PUSH1 0x0 CALLDATALOAD PUSH1 0xE0 SHR DUP1 PUSH4 0x8AC2C680 GT PUSH2 0xB8 JUMPI DUP1 PUSH4 0xC59EE1DC GT PUSH2 0x7C JUMPI DUP1 PUSH4 0xC59EE1DC EQ PUSH2 0x357 JUMPI DUP1 PUSH4 0xCC9BA583 EQ PUSH2 0x375 JUMPI DUP1 PUSH4 0xD0E30DB0 EQ PUSH2 0x393 JUMPI DUP1 PUSH4 0xDD62ED3E EQ PUSH2 0x3B1 JUMPI DUP1 PUSH4 0xF851A440 EQ PUSH2 0x3E1 JUMPI DUP1 PUSH4 0xFB86A404 EQ PUSH2 0x3FF JUMPI PUSH2 0x136 JUMP JUMPDEST DUP1 PUSH4 0x8AC2C680 EQ PUSH2 0x2AF JUMPI DUP1 PUSH4 0x95D89B41 EQ PUSH2 0x2CD JUMPI DUP1 PUSH4 0xA9059CBB EQ PUSH2 0x2EB JUMPI DUP1 PUSH4 0xAB0BCC41 EQ PUSH2 0x31B JUMPI DUP1 PUSH4 0xC10B9358 EQ PUSH2 0x339 JUMPI PUSH2 0x136 JUMP JUMPDEST DUP1 PUSH4 0x27E235E3 GT PUSH2 0xFF JUMPI DUP1 PUSH4 0x27E235E3 EQ PUSH2 0x1F5 JUMPI DUP1 PUSH4 0x313CE567 EQ PUSH2 0x225 JUMPI DUP1 PUSH4 0x3A2C7A37 EQ PUSH2 0x243 JUMPI DUP1 PUSH4 0x4D853EE5 EQ PUSH2 0x261 JUMPI DUP1 PUSH4 0x70A08231 EQ PUSH2 0x27F JUMPI PUSH2 0x136 JUMP JUMPDEST DUP1 PUSH3 0x2E1316 EQ PUSH2 0x13B JUMPI DUP1 PUSH4 0x6FDDE03 EQ PUSH2 0x159 JUMPI DUP1 PUSH4 0x95EA7B3 EQ PUSH2 0x177 JUMPI DUP1 PUSH4 0x18160DDD EQ PUSH2 0x1A7 JUMPI DUP1 PUSH4 0x23B872DD EQ PUSH2 0x1C5 JUMPI JUMPDEST PUSH1 0x0 DUP1 REVERT JUMPDEST PUSH2 0x143 PUSH2 0x41D JUMP JUMPDEST PUSH1 0x40 MLOAD PUSH2 0x150 SWAP2 SWAP1 PUSH2 0xE52 JUMP JUMPDEST PUSH1 0x40 MLOAD DUP1 SWAP2 SUB SWAP1 RETURN JUMPDEST PUSH2 0x161 PUSH2 0x423 JUMP JUMPDEST PUSH1 0x40 MLOAD PUSH2 0x16E SWAP2 SWAP1 PUSH2 0xE30 JUMP JUMPDEST PUSH1 0x40 MLOAD DUP1 SWAP2 SUB SWAP1 RETURN JUMPDEST PUSH2 0x191 PUSH1 0x4 DUP1 CALLDATASIZE SUB DUP2 ADD SWAP1 PUSH2 0x18C SWAP2 SWAP1 PUSH2 0xD00 JUMP JUMPDEST PUSH2 0x4B1 JUMP JUMPDEST PUSH1 0x40 MLOAD PUSH2 0x19E SWAP2 SWAP1 PUSH2 0xDFA JUMP JUMPDEST PUSH1 0x40 MLOAD DUP1 SWAP2 SUB SWAP1 RETURN JUMPDEST PUSH2 0x1AF PUSH2 0x5FC JUMP JUMPDEST PUSH1 0x40 MLOAD PUSH2 0x1BC SWAP2 SWAP1 PUSH2 0xE52 JUMP JUMPDEST PUSH1 0x40 MLOAD DUP1 SWAP2 SUB SWAP1 RETURN JUMPDEST PUSH2 0x1DF PUSH1 0x4 DUP1 CALLDATASIZE SUB DUP2 ADD SWAP1 PUSH2 0x1DA SWAP2 SWAP1 PUSH2 0xCAD JUMP JUMPDEST PUSH2 0x602 JUMP JUMPDEST PUSH1 0x40 MLOAD PUSH2 0x1EC SWAP2 SWAP1 PUSH2 0xDFA JUMP JUMPDEST PUSH1 0x40 MLOAD DUP1 SWAP2 SUB SWAP1 RETURN JUMPDEST PUSH2 0x20F PUSH1 0x4 DUP1 CALLDATASIZE SUB DUP2 ADD SWAP1 PUSH2 0x20A SWAP2 SWAP1 PUSH2 0xC40 JUMP JUMPDEST PUSH2 0x888 JUMP JUMPDEST PUSH1 0x40 MLOAD PUSH2 0x21C SWAP2 SWAP1 PUSH2 0xE52 JUMP JUMPDEST PUSH1 0x40 MLOAD DUP1 SWAP2 SUB SWAP1 RETURN JUMPDEST PUSH2 0x22D PUSH2 0x8A0 JUMP JUMPDEST PUSH1 0x40 MLOAD PUSH2 0x23A SWAP2 SWAP1 PUSH2 0xE52 JUMP JUMPDEST PUSH1 0x40 MLOAD DUP1 SWAP2 SUB SWAP1 RETURN JUMPDEST PUSH2 0x24B PUSH2 0x8A6 JUMP JUMPDEST PUSH1 0x40 MLOAD PUSH2 0x258 SWAP2 SWAP1 PUSH2 0xE15 JUMP JUMPDEST PUSH1 0x40 MLOAD DUP1 SWAP2 SUB SWAP1 RETURN JUMPDEST PUSH2 0x269 PUSH2 0x8B9 JUMP JUMPDEST PUSH1 0x40 MLOAD PUSH2 0x276 SWAP2 SWAP1 PUSH2 0xDC4 JUMP JUMPDEST PUSH1 0x40 MLOAD DUP1 SWAP2 SUB SWAP1 RETURN JUMPDEST PUSH2 0x299 PUSH1 0x4 DUP1 CALLDATASIZE SUB DUP2 ADD SWAP1 PUSH2 0x294 SWAP2 SWAP1 PUSH2 0xC40 JUMP JUMPDEST PUSH2 0x8DF JUMP JUMPDEST PUSH1 0x40 MLOAD PUSH2 0x2A6 SWAP2 SWAP1 PUSH2 0xE52 JUMP JUMPDEST PUSH1 0x40 MLOAD DUP1 SWAP2 SUB SWAP1 RETURN JUMPDEST PUSH2 0x2B7 PUSH2 0x928 JUMP JUMPDEST PUSH1 0x40 MLOAD PUSH2 0x2C4 SWAP2 SWAP1 PUSH2 0xE52 JUMP JUMPDEST PUSH1 0x40 MLOAD DUP1 SWAP2 SUB SWAP1 RETURN JUMPDEST PUSH2 0x2D5 PUSH2 0x92E JUMP JUMPDEST PUSH1 0x40 MLOAD PUSH2 0x2E2 SWAP2 SWAP1 PUSH2 0xE30 JUMP JUMPDEST PUSH1 0x40 MLOAD DUP1 SWAP2 SUB SWAP1 RETURN JUMPDEST PUSH2 0x305 PUSH1 0x4 DUP1 CALLDATASIZE SUB DUP2 ADD SWAP1 PUSH2 0x300 SWAP2 SWAP1 PUSH2 0xD00 JUMP JUMPDEST PUSH2 0x9BC JUMP JUMPDEST PUSH1 0x40 MLOAD PUSH2 0x312 SWAP2 SWAP1 PUSH2 0xDFA JUMP JUMPDEST PUSH1 0x40 MLOAD DUP1 SWAP2 SUB SWAP1 RETURN JUMPDEST PUSH2 0x323 PUSH2 0xB25 JUMP JUMPDEST PUSH1 0x40 MLOAD PUSH2 0x330 SWAP2 SWAP1 PUSH2 0xE52 JUMP JUMPDEST PUSH1 0x40 MLOAD DUP1 SWAP2 SUB SWAP1 RETURN JUMPDEST PUSH2 0x341 PUSH2 0xB2B JUMP JUMPDEST PUSH1 0x40 MLOAD PUSH2 0x34E SWAP2 SWAP1 PUSH2 0xE52 JUMP JUMPDEST PUSH1 0x40 MLOAD DUP1 SWAP2 SUB SWAP1 RETURN JUMPDEST PUSH2 0x35F PUSH2 0xB31 JUMP JUMPDEST PUSH1 0x40 MLOAD PUSH2 0x36C SWAP2 SWAP1 PUSH2 0xE52 JUMP JUMPDEST PUSH1 0x40 MLOAD DUP1 SWAP2 SUB SWAP1 RETURN JUMPDEST PUSH2 0x37D PUSH2 0xB37 JUMP JUMPDEST PUSH1 0x40 MLOAD PUSH2 0x38A SWAP2 SWAP1 PUSH2 0xE52 JUMP JUMPDEST PUSH1 0x40 MLOAD DUP1 SWAP2 SUB SWAP1 RETURN JUMPDEST PUSH2 0x39B PUSH2 0xB3D JUMP JUMPDEST PUSH1 0x40 MLOAD PUSH2 0x3A8 SWAP2 SWAP1 PUSH2 0xDDF JUMP JUMPDEST PUSH1 0x40 MLOAD DUP1 SWAP2 SUB SWAP1 RETURN JUMPDEST PUSH2 0x3CB PUSH1 0x4 DUP1 CALLDATASIZE SUB DUP2 ADD SWAP1 PUSH2 0x3C6 SWAP2 SWAP1 PUSH2 0xC6D JUMP JUMPDEST PUSH2 0xB63 JUMP JUMPDEST PUSH1 0x40 MLOAD PUSH2 0x3D8 SWAP2 SWAP1 PUSH2 0xE52 JUMP JUMPDEST PUSH1 0x40 MLOAD DUP1 SWAP2 SUB SWAP1 RETURN JUMPDEST PUSH2 0x3E9 PUSH2 0xBEA JUMP JUMPDEST PUSH1 0x40 MLOAD PUSH2 0x3F6 SWAP2 SWAP1 PUSH2 0xDC4 JUMP JUMPDEST PUSH1 0x40 MLOAD DUP1 SWAP2 SUB SWAP1 RETURN JUMPDEST PUSH2 0x407 PUSH2 0xC10 JUMP JUMPDEST PUSH1 0x40 MLOAD PUSH2 0x414 SWAP2 SWAP1 PUSH2 0xE52 JUMP JUMPDEST PUSH1 0x40 MLOAD DUP1 SWAP2 SUB SWAP1 RETURN JUMPDEST PUSH1 0xF SLOAD DUP2 JUMP JUMPDEST PUSH1 0x0 DUP1 SLOAD PUSH2 0x430 SWAP1 PUSH2 0xFC5 JUMP JUMPDEST DUP1 PUSH1 0x1F ADD PUSH1 0x20 DUP1 SWAP2 DIV MUL PUSH1 0x20 ADD PUSH1 0x40 MLOAD SWAP1 DUP2 ADD PUSH1 0x40 MSTORE DUP1 SWAP3 SWAP2 SWAP1 DUP2 DUP2 MSTORE PUSH1 0x20 ADD DUP3 DUP1 SLOAD PUSH2 0x45C SWAP1 PUSH2 0xFC5 JUMP JUMPDEST DUP1 ISZERO PUSH2 0x4A9 JUMPI DUP1 PUSH1 0x1F LT PUSH2 0x47E JUMPI PUSH2 0x100 DUP1 DUP4 SLOAD DIV MUL DUP4 MSTORE SWAP2 PUSH1 0x20 ADD SWAP2 PUSH2 0x4A9 JUMP JUMPDEST DUP3 ADD SWAP2 SWAP1 PUSH1 0x0 MSTORE PUSH1 0x20 PUSH1 0x0 KECCAK256 SWAP1 JUMPDEST DUP2 SLOAD DUP2 MSTORE SWAP1 PUSH1 0x1 ADD SWAP1 PUSH1 0x20 ADD DUP1 DUP4 GT PUSH2 0x48C JUMPI DUP3 SWAP1 SUB PUSH1 0x1F AND DUP3 ADD SWAP2 JUMPDEST POP POP POP POP POP DUP2 JUMP JUMPDEST PUSH1 0x0 DUP2 PUSH1 0x5 PUSH1 0x0 CALLER PUSH20 0xFFFFFFFFFFFFFFFFFFFFFFFFFFFFFFFFFFFFFFFF AND PUSH20 0xFFFFFFFFFFFFFFFFFFFFFFFFFFFFFFFFFFFFFFFF AND DUP2 MSTORE PUSH1 0x20 ADD SWAP1 DUP2 MSTORE PUSH1 0x20 ADD PUSH1 0x0 KECCAK256 SLOAD LT ISZERO PUSH2 0x4FF JUMPI PUSH1 0x0 DUP1 REVERT JUMPDEST PUSH1 0x0 DUP3 GT PUSH2 0x50C JUMPI PUSH1 0x0 DUP1 REVERT JUMPDEST DUP2 PUSH1 0x6 PUSH1 0x0 CALLER PUSH20 0xFFFFFFFFFFFFFFFFFFFFFFFFFFFFFFFFFFFFFFFF AND PUSH20 0xFFFFFFFFFFFFFFFFFFFFFFFFFFFFFFFFFFFFFFFF AND DUP2 MSTORE PUSH1 0x20 ADD SWAP1 DUP2 MSTORE PUSH1 0x20 ADD PUSH1 0x0 KECCAK256 PUSH1 0x0 DUP6 PUSH20 0xFFFFFFFFFFFFFFFFFFFFFFFFFFFFFFFFFFFFFFFF AND PUSH20 0xFFFFFFFFFFFFFFFFFFFFFFFFFFFFFFFFFFFFFFFF AND DUP2 MSTORE PUSH1 0x20 ADD SWAP1 DUP2 MSTORE PUSH1 0x20 ADD PUSH1 0x0 KECCAK256 DUP2 SWAP1 SSTORE POP DUP3 PUSH20 0xFFFFFFFFFFFFFFFFFFFFFFFFFFFFFFFFFFFFFFFF AND CALLER PUSH20 0xFFFFFFFFFFFFFFFFFFFFFFFFFFFFFFFFFFFFFFFF AND PUSH32 0x8C5BE1E5EBEC7D5BD14F71427D1E84F3DD0314C0F7B2291E5B200AC8C7C3B925 DUP5 PUSH1 0x40 MLOAD PUSH2 0x5EA SWAP2 SWAP1 PUSH2 0xE52 JUMP JUMPDEST PUSH1 0x40 MLOAD DUP1 SWAP2 SUB SWAP1 LOG3 PUSH1 0x1 SWAP1 POP SWAP3 SWAP2 POP POP JUMP JUMPDEST PUSH1 0x3 SLOAD DUP2 JUMP JUMPDEST PUSH1 0x0 DUP2 PUSH1 0x6 PUSH1 0x0 DUP7 PUSH20 0xFFFFFFFFFFFFFFFFFFFFFFFFFFFFFFFFFFFFFFFF AND PUSH20 0xFFFFFFFFFFFFFFFFFFFFFFFFFFFFFFFFFFFFFFFF AND DUP2 MSTORE PUSH1 0x20 ADD SWAP1 DUP2 MSTORE PUSH1 0x20 ADD PUSH1 0x0 KECCAK256 PUSH1 0x0 CALLER PUSH20 0xFFFFFFFFFFFFFFFFFFFFFFFFFFFFFFFFFFFFFFFF AND PUSH20 0xFFFFFFFFFFFFFFFFFFFFFFFFFFFFFFFFFFFFFFFF AND DUP2 MSTORE PUSH1 0x20 ADD SWAP1 DUP2 MSTORE PUSH1 0x20 ADD PUSH1 0x0 KECCAK256 SLOAD LT ISZERO PUSH2 0x68D JUMPI PUSH1 0x0 DUP1 REVERT JUMPDEST DUP2 PUSH1 0x5 PUSH1 0x0 DUP7 PUSH20 0xFFFFFFFFFFFFFFFFFFFFFFFFFFFFFFFFFFFFFFFF AND PUSH20 0xFFFFFFFFFFFFFFFFFFFFFFFFFFFFFFFFFFFFFFFF AND DUP2 MSTORE PUSH1 0x20 ADD SWAP1 DUP2 MSTORE PUSH1 0x20 ADD PUSH1 0x0 KECCAK256 SLOAD LT ISZERO PUSH2 0x6D9 JUMPI PUSH1 0x0 DUP1 REVERT JUMPDEST DUP2 PUSH1 0x5 PUSH1 0x0 DUP7 PUSH20 0xFFFFFFFFFFFFFFFFFFFFFFFFFFFFFFFFFFFFFFFF AND PUSH20 0xFFFFFFFFFFFFFFFFFFFFFFFFFFFFFFFFFFFFFFFF AND DUP2 MSTORE PUSH1 0x20 ADD SWAP1 DUP2 MSTORE PUSH1 0x20 ADD PUSH1 0x0 KECCAK256 PUSH1 0x0 DUP3 DUP3 SLOAD PUSH2 0x728 SWAP2 SWAP1 PUSH2 0xEDF JUMP JUMPDEST SWAP3 POP POP DUP2 SWAP1 SSTORE POP DUP2 PUSH1 0x6 PUSH1 0x0 DUP7 PUSH20 0xFFFFFFFFFFFFFFFFFFFFFFFFFFFFFFFFFFFFFFFF AND PUSH20 0xFFFFFFFFFFFFFFFFFFFFFFFFFFFFFFFFFFFFFFFF AND DUP2 MSTORE PUSH1 0x20 ADD SWAP1 DUP2 MSTORE PUSH1 0x20 ADD PUSH1 0x0 KECCAK256 PUSH1 0x0 CALLER PUSH20 0xFFFFFFFFFFFFFFFFFFFFFFFFFFFFFFFFFFFFFFFF AND PUSH20 0xFFFFFFFFFFFFFFFFFFFFFFFFFFFFFFFFFFFFFFFF AND DUP2 MSTORE PUSH1 0x20 ADD SWAP1 DUP2 MSTORE PUSH1 0x20 ADD PUSH1 0x0 KECCAK256 PUSH1 0x0 DUP3 DUP3 SLOAD PUSH2 0x7BB SWAP2 SWAP1 PUSH2 0xEDF JUMP JUMPDEST SWAP3 POP POP DUP2 SWAP1 SSTORE POP DUP2 PUSH1 0x5 PUSH1 0x0 DUP6 PUSH20 0xFFFFFFFFFFFFFFFFFFFFFFFFFFFFFFFFFFFFFFFF AND PUSH20 0xFFFFFFFFFFFFFFFFFFFFFFFFFFFFFFFFFFFFFFFF AND DUP2 MSTORE PUSH1 0x20 ADD SWAP1 DUP2 MSTORE PUSH1 0x20 ADD PUSH1 0x0 KECCAK256 PUSH1 0x0 DUP3 DUP3 SLOAD PUSH2 0x811 SWAP2 SWAP1 PUSH2 0xE89 JUMP JUMPDEST SWAP3 POP POP DUP2 SWAP1 SSTORE POP DUP3 PUSH20 0xFFFFFFFFFFFFFFFFFFFFFFFFFFFFFFFFFFFFFFFF AND DUP5 PUSH20 0xFFFFFFFFFFFFFFFFFFFFFFFFFFFFFFFFFFFFFFFF AND PUSH32 0xDDF252AD1BE2C89B69C2B068FC378DAA952BA7F163C4A11628F55A4DF523B3EF DUP5 PUSH1 0x40 MLOAD PUSH2 0x875 SWAP2 SWAP1 PUSH2 0xE52 JUMP JUMPDEST PUSH1 0x40 MLOAD DUP1 SWAP2 SUB SWAP1 LOG3 PUSH1 0x1 SWAP1 POP SWAP4 SWAP3 POP POP POP JUMP JUMPDEST PUSH1 0x5 PUSH1 0x20 MSTORE DUP1 PUSH1 0x0 MSTORE PUSH1 0x40 PUSH1 0x0 KECCAK256 PUSH1 0x0 SWAP2 POP SWAP1 POP SLOAD DUP2 JUMP JUMPDEST PUSH1 0x2 SLOAD DUP2 JUMP JUMPDEST PUSH1 0x11 PUSH1 0x0 SWAP1 SLOAD SWAP1 PUSH2 0x100 EXP SWAP1 DIV PUSH1 0xFF AND DUP2 JUMP JUMPDEST PUSH1 0x4 PUSH1 0x0 SWAP1 SLOAD SWAP1 PUSH2 0x100 EXP SWAP1 DIV PUSH20 0xFFFFFFFFFFFFFFFFFFFFFFFFFFFFFFFFFFFFFFFF AND DUP2 JUMP JUMPDEST PUSH1 0x0 PUSH1 0x5 PUSH1 0x0 DUP4 PUSH20 0xFFFFFFFFFFFFFFFFFFFFFFFFFFFFFFFFFFFFFFFF AND PUSH20 0xFFFFFFFFFFFFFFFFFFFFFFFFFFFFFFFFFFFFFFFF AND DUP2 MSTORE PUSH1 0x20 ADD SWAP1 DUP2 MSTORE PUSH1 0x20 ADD PUSH1 0x0 KECCAK256 SLOAD SWAP1 POP SWAP2 SWAP1 POP JUMP JUMPDEST PUSH1 0x10 SLOAD DUP2 JUMP JUMPDEST PUSH1 0x1 DUP1 SLOAD PUSH2 0x93B SWAP1 PUSH2 0xFC5 JUMP JUMPDEST DUP1 PUSH1 0x1F ADD PUSH1 0x20 DUP1 SWAP2 DIV MUL PUSH1 0x20 ADD PUSH1 0x40 MLOAD SWAP1 DUP2 ADD PUSH1 0x40 MSTORE DUP1 SWAP3 SWAP2 SWAP1 DUP2 DUP2 MSTORE PUSH1 0x20 ADD DUP3 DUP1 SLOAD PUSH2 0x967 SWAP1 PUSH2 0xFC5 JUMP JUMPDEST DUP1 ISZERO PUSH2 0x9B4 JUMPI DUP1 PUSH1 0x1F LT PUSH2 0x989 JUMPI PUSH2 0x100 DUP1 DUP4 SLOAD DIV MUL DUP4 MSTORE SWAP2 PUSH1 0x20 ADD SWAP2 PUSH2 0x9B4 JUMP JUMPDEST DUP3 ADD SWAP2 SWAP1 PUSH1 0x0 MSTORE PUSH1 0x20 PUSH1 0x0 KECCAK256 SWAP1 JUMPDEST DUP2 SLOAD DUP2 MSTORE SWAP1 PUSH1 0x1 ADD SWAP1 PUSH1 0x20 ADD DUP1 DUP4 GT PUSH2 0x997 JUMPI DUP3 SWAP1 SUB PUSH1 0x1F AND DUP3 ADD SWAP2 JUMPDEST POP POP POP POP POP DUP2 JUMP JUMPDEST PUSH1 0x0 DUP2 PUSH1 0x5 PUSH1 0x0 CALLER PUSH20 0xFFFFFFFFFFFFFFFFFFFFFFFFFFFFFFFFFFFFFFFF AND PUSH20 0xFFFFFFFFFFFFFFFFFFFFFFFFFFFFFFFFFFFFFFFF AND DUP2 MSTORE PUSH1 0x20 ADD SWAP1 DUP2 MSTORE PUSH1 0x20 ADD PUSH1 0x0 KECCAK256 SLOAD LT ISZERO PUSH2 0xA0A JUMPI PUSH1 0x0 DUP1 REVERT JUMPDEST DUP2 PUSH1 0x5 PUSH1 0x0 DUP6 PUSH20 0xFFFFFFFFFFFFFFFFFFFFFFFFFFFFFFFFFFFFFFFF AND PUSH20 0xFFFFFFFFFFFFFFFFFFFFFFFFFFFFFFFFFFFFFFFF AND DUP2 MSTORE PUSH1 0x20 ADD SWAP1 DUP2 MSTORE PUSH1 0x20 ADD PUSH1 0x0 KECCAK256 PUSH1 0x0 DUP3 DUP3 SLOAD PUSH2 0xA59 SWAP2 SWAP1 PUSH2 0xE89 JUMP JUMPDEST SWAP3 POP POP DUP2 SWAP1 SSTORE POP DUP2 PUSH1 0x5 PUSH1 0x0 CALLER PUSH20 0xFFFFFFFFFFFFFFFFFFFFFFFFFFFFFFFFFFFFFFFF AND PUSH20 0xFFFFFFFFFFFFFFFFFFFFFFFFFFFFFFFFFFFFFFFF AND DUP2 MSTORE PUSH1 0x20 ADD SWAP1 DUP2 MSTORE PUSH1 0x20 ADD PUSH1 0x0 KECCAK256 PUSH1 0x0 DUP3 DUP3 SLOAD PUSH2 0xAAF SWAP2 SWAP1 PUSH2 0xEDF JUMP JUMPDEST SWAP3 POP POP DUP2 SWAP1 SSTORE POP DUP3 PUSH20 0xFFFFFFFFFFFFFFFFFFFFFFFFFFFFFFFFFFFFFFFF AND CALLER PUSH20 0xFFFFFFFFFFFFFFFFFFFFFFFFFFFFFFFFFFFFFFFF AND PUSH32 0xDDF252AD1BE2C89B69C2B068FC378DAA952BA7F163C4A11628F55A4DF523B3EF DUP5 PUSH1 0x40 MLOAD PUSH2 0xB13 SWAP2 SWAP1 PUSH2 0xE52 JUMP JUMPDEST PUSH1 0x40 MLOAD DUP1 SWAP2 SUB SWAP1 LOG3 PUSH1 0x1 SWAP1 POP SWAP3 SWAP2 POP POP JUMP JUMPDEST PUSH1 0xC SLOAD DUP2 JUMP JUMPDEST PUSH1 0xD SLOAD DUP2 JUMP JUMPDEST PUSH1 0xB SLOAD DUP2 JUMP JUMPDEST PUSH1 0xE SLOAD DUP2 JUMP JUMPDEST PUSH1 0x8 PUSH1 0x0 SWAP1 SLOAD SWAP1 PUSH2 0x100 EXP SWAP1 DIV PUSH20 0xFFFFFFFFFFFFFFFFFFFFFFFFFFFFFFFFFFFFFFFF AND DUP2 JUMP JUMPDEST PUSH1 0x0 PUSH1 0x6 PUSH1 0x0 DUP5 PUSH20 0xFFFFFFFFFFFFFFFFFFFFFFFFFFFFFFFFFFFFFFFF AND PUSH20 0xFFFFFFFFFFFFFFFFFFFFFFFFFFFFFFFFFFFFFFFF AND DUP2 MSTORE PUSH1 0x20 ADD SWAP1 DUP2 MSTORE PUSH1 0x20 ADD PUSH1 0x0 KECCAK256 PUSH1 0x0 DUP4 PUSH20 0xFFFFFFFFFFFFFFFFFFFFFFFFFFFFFFFFFFFFFFFF AND PUSH20 0xFFFFFFFFFFFFFFFFFFFFFFFFFFFFFFFFFFFFFFFF AND DUP2 MSTORE PUSH1 0x20 ADD SWAP1 DUP2 MSTORE PUSH1 0x20 ADD PUSH1 0x0 KECCAK256 SLOAD SWAP1 POP SWAP3 SWAP2 POP POP JUMP JUMPDEST PUSH1 0x7 PUSH1 0x0 SWAP1 SLOAD SWAP1 PUSH2 0x100 EXP SWAP1 DIV PUSH20 0xFFFFFFFFFFFFFFFFFFFFFFFFFFFFFFFFFFFFFFFF AND DUP2 JUMP JUMPDEST PUSH1 0xA SLOAD DUP2 JUMP JUMPDEST PUSH1 0x0 DUP2 CALLDATALOAD SWAP1 POP PUSH2 0xC25 DUP2 PUSH2 0x10AE JUMP JUMPDEST SWAP3 SWAP2 POP POP JUMP JUMPDEST PUSH1 0x0 DUP2 CALLDATALOAD SWAP1 POP PUSH2 0xC3A DUP2 PUSH2 0x10C5 JUMP JUMPDEST SWAP3 SWAP2 POP POP JUMP JUMPDEST PUSH1 0x0 PUSH1 0x20 DUP3 DUP5 SUB SLT ISZERO PUSH2 0xC56 JUMPI PUSH2 0xC55 PUSH2 0x1084 JUMP JUMPDEST JUMPDEST PUSH1 0x0 PUSH2 0xC64 DUP5 DUP3 DUP6 ADD PUSH2 0xC16 JUMP JUMPDEST SWAP2 POP POP SWAP3 SWAP2 POP POP JUMP JUMPDEST PUSH1 0x0 DUP1 PUSH1 0x40 DUP4 DUP6 SUB SLT ISZERO PUSH2 0xC84 JUMPI PUSH2 0xC83 PUSH2 0x1084 JUMP JUMPDEST JUMPDEST PUSH1 0x0 PUSH2 0xC92 DUP6 DUP3 DUP7 ADD PUSH2 0xC16 JUMP JUMPDEST SWAP3 POP POP PUSH1 0x20 PUSH2 0xCA3 DUP6 DUP3 DUP7 ADD PUSH2 0xC16 JUMP JUMPDEST SWAP2 POP POP SWAP3 POP SWAP3 SWAP1 POP JUMP JUMPDEST PUSH1 0x0 DUP1 PUSH1 0x0 PUSH1 0x60 DUP5 DUP7 SUB SLT ISZERO PUSH2 0xCC6 JUMPI PUSH2 0xCC5 PUSH2 0x1084 JUMP JUMPDEST JUMPDEST PUSH1 0x0 PUSH2 0xCD4 DUP7 DUP3 DUP8 ADD PUSH2 0xC16 JUMP JUMPDEST SWAP4 POP POP PUSH1 0x20 PUSH2 0xCE5 DUP7 DUP3 DUP8 ADD PUSH2 0xC16 JUMP JUMPDEST SWAP3 POP POP PUSH1 0x40 PUSH2 0xCF6 DUP7 DUP3 DUP8 ADD PUSH2 0xC2B JUMP JUMPDEST SWAP2 POP POP SWAP3 POP SWAP3 POP SWAP3 JUMP JUMPDEST PUSH1 0x0 DUP1 PUSH1 0x40 DUP4 DUP6 SUB SLT ISZERO PUSH2 0xD17 JUMPI PUSH2 0xD16 PUSH2 0x1084 JUMP JUMPDEST JUMPDEST PUSH1 0x0 PUSH2 0xD25 DUP6 DUP3 DUP7 ADD PUSH2 0xC16 JUMP JUMPDEST SWAP3 POP POP PUSH1 0x20 PUSH2 0xD36 DUP6 DUP3 DUP7 ADD PUSH2 0xC2B JUMP JUMPDEST SWAP2 POP POP SWAP3 POP SWAP3 SWAP1 POP JUMP JUMPDEST PUSH2 0xD49 DUP2 PUSH2 0xF25 JUMP JUMPDEST DUP3 MSTORE POP POP JUMP JUMPDEST PUSH2 0xD58 DUP2 PUSH2 0xF13 JUMP JUMPDEST DUP3 MSTORE POP POP JUMP JUMPDEST PUSH2 0xD67 DUP2 PUSH2 0xF37 JUMP JUMPDEST DUP3 MSTORE POP POP JUMP JUMPDEST PUSH2 0xD76 DUP2 PUSH2 0xF80 JUMP JUMPDEST DUP3 MSTORE POP POP JUMP JUMPDEST PUSH1 0x0 PUSH2 0xD87 DUP3 PUSH2 0xE6D JUMP JUMPDEST PUSH2 0xD91 DUP2 DUP6 PUSH2 0xE78 JUMP JUMPDEST SWAP4 POP PUSH2 0xDA1 DUP2 DUP6 PUSH1 0x20 DUP7 ADD PUSH2 0xF92 JUMP JUMPDEST PUSH2 0xDAA DUP2 PUSH2 0x1089 JUMP JUMPDEST DUP5 ADD SWAP2 POP POP SWAP3 SWAP2 POP POP JUMP JUMPDEST PUSH2 0xDBE DUP2 PUSH2 0xF76 JUMP JUMPDEST DUP3 MSTORE POP POP JUMP JUMPDEST PUSH1 0x0 PUSH1 0x20 DUP3 ADD SWAP1 POP PUSH2 0xDD9 PUSH1 0x0 DUP4 ADD DUP5 PUSH2 0xD4F JUMP JUMPDEST SWAP3 SWAP2 POP POP JUMP JUMPDEST PUSH1 0x0 PUSH1 0x20 DUP3 ADD SWAP1 POP PUSH2 0xDF4 PUSH1 0x0 DUP4 ADD DUP5 PUSH2 0xD40 JUMP JUMPDEST SWAP3 SWAP2 POP POP JUMP JUMPDEST PUSH1 0x0 PUSH1 0x20 DUP3 ADD SWAP1 POP PUSH2 0xE0F PUSH1 0x0 DUP4 ADD DUP5 PUSH2 0xD5E JUMP JUMPDEST SWAP3 SWAP2 POP POP JUMP JUMPDEST PUSH1 0x0 PUSH1 0x20 DUP3 ADD SWAP1 POP PUSH2 0xE2A PUSH1 0x0 DUP4 ADD DUP5 PUSH2 0xD6D JUMP JUMPDEST SWAP3 SWAP2 POP POP JUMP JUMPDEST PUSH1 0x0 PUSH1 0x20 DUP3 ADD SWAP1 POP DUP2 DUP2 SUB PUSH1 0x0 DUP4 ADD MSTORE PUSH2 0xE4A DUP2 DUP5 PUSH2 0xD7C JUMP JUMPDEST SWAP1 POP SWAP3 SWAP2 POP POP JUMP JUMPDEST PUSH1 0x0 PUSH1 0x20 DUP3 ADD SWAP1 POP PUSH2 0xE67 PUSH1 0x0 DUP4 ADD DUP5 PUSH2 0xDB5 JUMP JUMPDEST SWAP3 SWAP2 POP POP JUMP JUMPDEST PUSH1 0x0 DUP2 MLOAD SWAP1 POP SWAP2 SWAP1 POP JUMP JUMPDEST PUSH1 0x0 DUP3 DUP3 MSTORE PUSH1 0x20 DUP3 ADD SWAP1 POP SWAP3 SWAP2 POP POP JUMP JUMPDEST PUSH1 0x0 PUSH2 0xE94 DUP3 PUSH2 0xF76 JUMP JUMPDEST SWAP2 POP PUSH2 0xE9F DUP4 PUSH2 0xF76 JUMP JUMPDEST SWAP3 POP DUP3 PUSH32 0xFFFFFFFFFFFFFFFFFFFFFFFFFFFFFFFFFFFFFFFFFFFFFFFFFFFFFFFFFFFFFFFF SUB DUP3 GT ISZERO PUSH2 0xED4 JUMPI PUSH2 0xED3 PUSH2 0xFF7 JUMP JUMPDEST JUMPDEST DUP3 DUP3 ADD SWAP1 POP SWAP3 SWAP2 POP POP JUMP JUMPDEST PUSH1 0x0 PUSH2 0xEEA DUP3 PUSH2 0xF76 JUMP JUMPDEST SWAP2 POP PUSH2 0xEF5 DUP4 PUSH2 0xF76 JUMP JUMPDEST SWAP3 POP DUP3 DUP3 LT ISZERO PUSH2 0xF08 JUMPI PUSH2 0xF07 PUSH2 0xFF7 JUMP JUMPDEST JUMPDEST DUP3 DUP3 SUB SWAP1 POP SWAP3 SWAP2 POP POP JUMP JUMPDEST PUSH1 0x0 PUSH2 0xF1E DUP3 PUSH2 0xF56 JUMP JUMPDEST SWAP1 POP SWAP2 SWAP1 POP JUMP JUMPDEST PUSH1 0x0 PUSH2 0xF30 DUP3 PUSH2 0xF56 JUMP JUMPDEST SWAP1 POP SWAP2 SWAP1 POP JUMP JUMPDEST PUSH1 0x0 DUP2 ISZERO ISZERO SWAP1 POP SWAP2 SWAP1 POP JUMP JUMPDEST PUSH1 0x0 DUP2 SWAP1 POP PUSH2 0xF51 DUP3 PUSH2 0x109A JUMP JUMPDEST SWAP2 SWAP1 POP JUMP JUMPDEST PUSH1 0x0 PUSH20 0xFFFFFFFFFFFFFFFFFFFFFFFFFFFFFFFFFFFFFFFF DUP3 AND SWAP1 POP SWAP2 SWAP1 POP JUMP JUMPDEST PUSH1 0x0 DUP2 SWAP1 POP SWAP2 SWAP1 POP JUMP JUMPDEST PUSH1 0x0 PUSH2 0xF8B DUP3 PUSH2 0xF43 JUMP JUMPDEST SWAP1 POP SWAP2 SWAP1 POP JUMP JUMPDEST PUSH1 0x0 JUMPDEST DUP4 DUP2 LT ISZERO PUSH2 0xFB0 JUMPI DUP1 DUP3 ADD MLOAD DUP2 DUP5 ADD MSTORE PUSH1 0x20 DUP2 ADD SWAP1 POP PUSH2 0xF95 JUMP JUMPDEST DUP4 DUP2 GT ISZERO PUSH2 0xFBF JUMPI PUSH1 0x0 DUP5 DUP5 ADD MSTORE JUMPDEST POP POP POP POP JUMP JUMPDEST PUSH1 0x0 PUSH1 0x2 DUP3 DIV SWAP1 POP PUSH1 0x1 DUP3 AND DUP1 PUSH2 0xFDD JUMPI PUSH1 0x7F DUP3 AND SWAP2 POP JUMPDEST PUSH1 0x20 DUP3 LT DUP2 EQ ISZERO PUSH2 0xFF1 JUMPI PUSH2 0xFF0 PUSH2 0x1055 JUMP JUMPDEST JUMPDEST POP SWAP2 SWAP1 POP JUMP JUMPDEST PUSH32 0x4E487B7100000000000000000000000000000000000000000000000000000000 PUSH1 0x0 MSTORE PUSH1 0x11 PUSH1 0x4 MSTORE PUSH1 0x24 PUSH1 0x0 REVERT JUMPDEST PUSH32 0x4E487B7100000000000000000000000000000000000000000000000000000000 PUSH1 0x0 MSTORE PUSH1 0x21 PUSH1 0x4 MSTORE PUSH1 0x24 PUSH1 0x0 REVERT JUMPDEST PUSH32 0x4E487B7100000000000000000000000000000000000000000000000000000000 PUSH1 0x0 MSTORE PUSH1 0x22 PUSH1 0x4 MSTORE PUSH1 0x24 PUSH1 0x0 REVERT JUMPDEST PUSH1 0x0 DUP1 REVERT JUMPDEST PUSH1 0x0 PUSH1 0x1F NOT PUSH1 0x1F DUP4 ADD AND SWAP1 POP SWAP2 SWAP1 POP JUMP JUMPDEST PUSH1 0x4 DUP2 LT PUSH2 0x10AB JUMPI PUSH2 0x10AA PUSH2 0x1026 JUMP JUMPDEST JUMPDEST POP JUMP JUMPDEST PUSH2 0x10B7 DUP2 PUSH2 0xF13 JUMP JUMPDEST DUP2 EQ PUSH2 0x10C2 JUMPI PUSH1 0x0 DUP1 REVERT JUMPDEST POP JUMP JUMPDEST PUSH2 0x10CE DUP2 PUSH2 0xF76 JUMP JUMPDEST DUP2 EQ PUSH2 0x10D9 JUMPI PUSH1 0x0 DUP1 REVERT JUMPDEST POP JUMP INVALID LOG2 PUSH5 0x6970667358 0x22 SLT KECCAK256 0xE1 0x4E MLOAD EQ BYTE ADDMOD CREATE CALLDATALOAD STATICCALL PUSH15 0xF23C432715F03164D5F27E3DBBBE37 BLOCKHASH 0xDC ADDRESS SWAP4 SWAP12 POP DUP6 PUSH5 0x736F6C6343 STOP ADDMOD SMOD STOP CALLER "
				},
				"gasEstimates": {
					"creation": {
						"codeDepositCost": "874000",
						"executionCost": "infinite",
						"totalCost": "infinite"
					},
					"external": {
						"ICOstate()": "2627",
						"admin()": "2624",
						"allowance(address,address)": "infinite",
						"approve(address,uint256)": "infinite",
						"balanceOf(address)": "2952",
						"balances(address)": "2837",
						"decimals()": "2474",
						"deposit()": "2580",
						"founder()": "2603",
						"hardCap()": "2561",
						"maxInvestment()": "2453",
						"minInvestment()": "2452",
						"name()": "infinite",
						"raisedAmount()": "2451",
						"saleEnd()": "2540",
						"saleStart()": "2518",
						"symbol()": "infinite",
						"tokenTradeStart()": "2473",
						"totalSupply()": "2519",
						"transfer(address,uint256)": "infinite",
						"transferFrom(address,address,uint256)": "infinite"
					}
				},
				"methodIdentifiers": {
					"ICOstate()": "3a2c7a37",
					"admin()": "f851a440",
					"allowance(address,address)": "dd62ed3e",
					"approve(address,uint256)": "095ea7b3",
					"balanceOf(address)": "70a08231",
					"balances(address)": "27e235e3",
					"decimals()": "313ce567",
					"deposit()": "d0e30db0",
					"founder()": "4d853ee5",
					"hardCap()": "fb86a404",
					"maxInvestment()": "002e1316",
					"minInvestment()": "8ac2c680",
					"name()": "06fdde03",
					"raisedAmount()": "c59ee1dc",
					"saleEnd()": "c10b9358",
					"saleStart()": "ab0bcc41",
					"symbol()": "95d89b41",
					"tokenTradeStart()": "cc9ba583",
					"totalSupply()": "18160ddd",
					"transfer(address,uint256)": "a9059cbb",
					"transferFrom(address,address,uint256)": "23b872dd"
				}
			},
			"storageLayout": {
				"storage": [
					{
						"astId": 73,
						"contract": "contracts/erc20_state_vars.sol:PennyICO",
						"label": "name",
						"offset": 0,
						"slot": "0",
						"type": "t_string_storage"
					},
					{
						"astId": 76,
						"contract": "contracts/erc20_state_vars.sol:PennyICO",
						"label": "symbol",
						"offset": 0,
						"slot": "1",
						"type": "t_string_storage"
					},
					{
						"astId": 79,
						"contract": "contracts/erc20_state_vars.sol:PennyICO",
						"label": "decimals",
						"offset": 0,
						"slot": "2",
						"type": "t_uint256"
					},
					{
						"astId": 82,
						"contract": "contracts/erc20_state_vars.sol:PennyICO",
						"label": "totalSupply",
						"offset": 0,
						"slot": "3",
						"type": "t_uint256"
					},
					{
						"astId": 84,
						"contract": "contracts/erc20_state_vars.sol:PennyICO",
						"label": "founder",
						"offset": 0,
						"slot": "4",
						"type": "t_address"
					},
					{
						"astId": 88,
						"contract": "contracts/erc20_state_vars.sol:PennyICO",
						"label": "balances",
						"offset": 0,
						"slot": "5",
						"type": "t_mapping(t_address,t_uint256)"
					},
					{
						"astId": 94,
						"contract": "contracts/erc20_state_vars.sol:PennyICO",
						"label": "allowed",
						"offset": 0,
						"slot": "6",
						"type": "t_mapping(t_address,t_mapping(t_address,t_uint256))"
					},
					{
						"astId": 295,
						"contract": "contracts/erc20_state_vars.sol:PennyICO",
						"label": "admin",
						"offset": 0,
						"slot": "7",
						"type": "t_address"
					},
					{
						"astId": 297,
						"contract": "contracts/erc20_state_vars.sol:PennyICO",
						"label": "deposit",
						"offset": 0,
						"slot": "8",
						"type": "t_address_payable"
					},
					{
						"astId": 300,
						"contract": "contracts/erc20_state_vars.sol:PennyICO",
						"label": "tokenPrice",
						"offset": 0,
						"slot": "9",
						"type": "t_uint256"
					},
					{
						"astId": 303,
						"contract": "contracts/erc20_state_vars.sol:PennyICO",
						"label": "hardCap",
						"offset": 0,
						"slot": "10",
						"type": "t_uint256"
					},
					{
						"astId": 305,
						"contract": "contracts/erc20_state_vars.sol:PennyICO",
						"label": "raisedAmount",
						"offset": 0,
						"slot": "11",
						"type": "t_uint256"
					},
					{
						"astId": 311,
						"contract": "contracts/erc20_state_vars.sol:PennyICO",
						"label": "saleStart",
						"offset": 0,
						"slot": "12",
						"type": "t_uint256"
					},
					{
						"astId": 321,
						"contract": "contracts/erc20_state_vars.sol:PennyICO",
						"label": "saleEnd",
						"offset": 0,
						"slot": "13",
						"type": "t_uint256"
					},
					{
						"astId": 326,
						"contract": "contracts/erc20_state_vars.sol:PennyICO",
						"label": "tokenTradeStart",
						"offset": 0,
						"slot": "14",
						"type": "t_uint256"
					},
					{
						"astId": 329,
						"contract": "contracts/erc20_state_vars.sol:PennyICO",
						"label": "maxInvestment",
						"offset": 0,
						"slot": "15",
						"type": "t_uint256"
					},
					{
						"astId": 332,
						"contract": "contracts/erc20_state_vars.sol:PennyICO",
						"label": "minInvestment",
						"offset": 0,
						"slot": "16",
						"type": "t_uint256"
					},
					{
						"astId": 340,
						"contract": "contracts/erc20_state_vars.sol:PennyICO",
						"label": "ICOstate",
						"offset": 0,
						"slot": "17",
						"type": "t_enum(State)337"
					}
				],
				"types": {
					"t_address": {
						"encoding": "inplace",
						"label": "address",
						"numberOfBytes": "20"
					},
					"t_address_payable": {
						"encoding": "inplace",
						"label": "address payable",
						"numberOfBytes": "20"
					},
					"t_enum(State)337": {
						"encoding": "inplace",
						"label": "enum PennyICO.State",
						"numberOfBytes": "1"
					},
					"t_mapping(t_address,t_mapping(t_address,t_uint256))": {
						"encoding": "mapping",
						"key": "t_address",
						"label": "mapping(address => mapping(address => uint256))",
						"numberOfBytes": "32",
						"value": "t_mapping(t_address,t_uint256)"
					},
					"t_mapping(t_address,t_uint256)": {
						"encoding": "mapping",
						"key": "t_address",
						"label": "mapping(address => uint256)",
						"numberOfBytes": "32",
						"value": "t_uint256"
					},
					"t_string_storage": {
						"encoding": "bytes",
						"label": "string",
						"numberOfBytes": "32"
					},
					"t_uint256": {
						"encoding": "inplace",
						"label": "uint256",
						"numberOfBytes": "32"
					}
				}
			},
			"userdoc": {
				"kind": "user",
				"methods": {},
				"version": 1
			}
		}
	}
}