{
	"contracts/variables_and_functions_visibility.sol": {
		"C": {
			"abi": [
				{
					"inputs": [],
					"name": "contract_a",
					"outputs": [
						{
							"internalType": "contract A",
							"name": "",
							"type": "address"
						}
					],
					"stateMutability": "view",
					"type": "function"
				}
			],
			"devdoc": {
				"kind": "dev",
				"methods": {},
				"version": 1
			},
			"evm": {
				"assembly": "    /* \"contracts/variables_and_functions_visibility.sol\":1442:1492  contract C{\r... */\n  mstore(0x40, 0x80)\n    /* \"contracts/variables_and_functions_visibility.sol\":1481:1488  new A() */\n  mload(0x40)\n  tag_1\n  swap1\n  tag_2\n  jump\t// in\ntag_1:\n  mload(0x40)\n  dup1\n  swap2\n  sub\n  swap1\n  0x00\n  create\n  dup1\n  iszero\n  dup1\n  iszero\n  tag_3\n  jumpi\n  returndatasize\n  0x00\n  dup1\n  returndatacopy\n  revert(0x00, returndatasize)\ntag_3:\n  pop\n    /* \"contracts/variables_and_functions_visibility.sol\":1459:1488  A public contract_a = new A() */\n  0x00\n  dup1\n  0x0100\n  exp\n  dup2\n  sload\n  dup2\n  0xffffffffffffffffffffffffffffffffffffffff\n  mul\n  not\n  and\n  swap1\n  dup4\n  0xffffffffffffffffffffffffffffffffffffffff\n  and\n  mul\n  or\n  swap1\n  sstore\n  pop\n    /* \"contracts/variables_and_functions_visibility.sol\":1442:1492  contract C{\r... */\n  callvalue\n  dup1\n  iszero\n  tag_4\n  jumpi\n  0x00\n  dup1\n  revert\ntag_4:\n  pop\n  jump(tag_5)\ntag_2:\n  dataSize(sub_1)\n  dup1\n  dataOffset(sub_1)\n  dup4\n  codecopy\n  add\n  swap1\n  jump\t// out\ntag_5:\n  dataSize(sub_0)\n  dup1\n  dataOffset(sub_0)\n  0x00\n  codecopy\n  0x00\n  return\nstop\n\nsub_0: assembly {\n        /* \"contracts/variables_and_functions_visibility.sol\":1442:1492  contract C{\r... */\n      mstore(0x40, 0x80)\n      callvalue\n      dup1\n      iszero\n      tag_1\n      jumpi\n      0x00\n      dup1\n      revert\n    tag_1:\n      pop\n      jumpi(tag_2, lt(calldatasize, 0x04))\n      shr(0xe0, calldataload(0x00))\n      dup1\n      0x605b85ad\n      eq\n      tag_3\n      jumpi\n    tag_2:\n      0x00\n      dup1\n      revert\n        /* \"contracts/variables_and_functions_visibility.sol\":1459:1488  A public contract_a = new A() */\n    tag_3:\n      tag_4\n      tag_5\n      jump\t// in\n    tag_4:\n      mload(0x40)\n      tag_6\n      swap2\n      swap1\n      tag_7\n      jump\t// in\n    tag_6:\n      mload(0x40)\n      dup1\n      swap2\n      sub\n      swap1\n      return\n    tag_5:\n      0x00\n      dup1\n      sload\n      swap1\n      0x0100\n      exp\n      swap1\n      div\n      0xffffffffffffffffffffffffffffffffffffffff\n      and\n      dup2\n      jump\t// out\n        /* \"#utility.yul\":7:154   */\n    tag_9:\n        /* \"#utility.yul\":102:147   */\n      tag_11\n        /* \"#utility.yul\":141:146   */\n      dup2\n        /* \"#utility.yul\":102:147   */\n      tag_12\n      jump\t// in\n    tag_11:\n        /* \"#utility.yul\":97:100   */\n      dup3\n        /* \"#utility.yul\":90:148   */\n      mstore\n        /* \"#utility.yul\":7:154   */\n      pop\n      pop\n      jump\t// out\n        /* \"#utility.yul\":160:398   */\n    tag_7:\n        /* \"#utility.yul\":261:265   */\n      0x00\n        /* \"#utility.yul\":299:301   */\n      0x20\n        /* \"#utility.yul\":288:297   */\n      dup3\n        /* \"#utility.yul\":284:302   */\n      add\n        /* \"#utility.yul\":276:302   */\n      swap1\n      pop\n        /* \"#utility.yul\":312:391   */\n      tag_14\n        /* \"#utility.yul\":388:389   */\n      0x00\n        /* \"#utility.yul\":377:386   */\n      dup4\n        /* \"#utility.yul\":373:390   */\n      add\n        /* \"#utility.yul\":364:370   */\n      dup5\n        /* \"#utility.yul\":312:391   */\n      tag_9\n      jump\t// in\n    tag_14:\n        /* \"#utility.yul\":160:398   */\n      swap3\n      swap2\n      pop\n      pop\n      jump\t// out\n        /* \"#utility.yul\":404:530   */\n    tag_15:\n        /* \"#utility.yul\":441:448   */\n      0x00\n        /* \"#utility.yul\":481:523   */\n      0xffffffffffffffffffffffffffffffffffffffff\n        /* \"#utility.yul\":474:479   */\n      dup3\n        /* \"#utility.yul\":470:524   */\n      and\n        /* \"#utility.yul\":459:524   */\n      swap1\n      pop\n        /* \"#utility.yul\":404:530   */\n      swap2\n      swap1\n      pop\n      jump\t// out\n        /* \"#utility.yul\":536:670   */\n    tag_12:\n        /* \"#utility.yul\":594:603   */\n      0x00\n        /* \"#utility.yul\":627:664   */\n      tag_18\n        /* \"#utility.yul\":658:663   */\n      dup3\n        /* \"#utility.yul\":627:664   */\n      tag_19\n      jump\t// in\n    tag_18:\n        /* \"#utility.yul\":614:664   */\n      swap1\n      pop\n        /* \"#utility.yul\":536:670   */\n      swap2\n      swap1\n      pop\n      jump\t// out\n        /* \"#utility.yul\":676:802   */\n    tag_19:\n        /* \"#utility.yul\":726:735   */\n      0x00\n        /* \"#utility.yul\":759:796   */\n      tag_21\n        /* \"#utility.yul\":790:795   */\n      dup3\n        /* \"#utility.yul\":759:796   */\n      tag_22\n      jump\t// in\n    tag_21:\n        /* \"#utility.yul\":746:796   */\n      swap1\n      pop\n        /* \"#utility.yul\":676:802   */\n      swap2\n      swap1\n      pop\n      jump\t// out\n        /* \"#utility.yul\":808:921   */\n    tag_22:\n        /* \"#utility.yul\":858:867   */\n      0x00\n        /* \"#utility.yul\":891:915   */\n      tag_24\n        /* \"#utility.yul\":909:914   */\n      dup3\n        /* \"#utility.yul\":891:915   */\n      tag_15\n      jump\t// in\n    tag_24:\n        /* \"#utility.yul\":878:915   */\n      swap1\n      pop\n        /* \"#utility.yul\":808:921   */\n      swap2\n      swap1\n      pop\n      jump\t// out\n\n    auxdata: 0xa2646970667358221220248a3f6c79a9bba365c00bfeef54fe0208dffcec78fdbf9e28045b8e5ba970a664736f6c63430008070033\n}\n\nsub_1: assembly {\n        /* \"contracts/variables_and_functions_visibility.sol\":73:1280  contract A{\r... */\n      mstore(0x40, 0x80)\n        /* \"contracts/variables_and_functions_visibility.sol\":178:180  10 */\n      0x0a\n        /* \"contracts/variables_and_functions_visibility.sol\":163:180  int public x = 10 */\n      0x00\n      sstore\n        /* \"contracts/variables_and_functions_visibility.sol\":296:298  20 */\n      0x14\n        /* \"contracts/variables_and_functions_visibility.sol\":288:298  int y = 20 */\n      0x01\n      sstore\n        /* \"contracts/variables_and_functions_visibility.sol\":73:1280  contract A{\r... */\n      callvalue\n      dup1\n      iszero\n      tag_1\n      jumpi\n      0x00\n      dup1\n      revert\n    tag_1:\n      pop\n      dataSize(sub_0)\n      dup1\n      dataOffset(sub_0)\n      0x00\n      codecopy\n      0x00\n      return\n    stop\n\n    sub_0: assembly {\n            /* \"contracts/variables_and_functions_visibility.sol\":73:1280  contract A{\r... */\n          mstore(0x40, 0x80)\n          callvalue\n          dup1\n          iszero\n          tag_1\n          jumpi\n          0x00\n          dup1\n          revert\n        tag_1:\n          pop\n          jumpi(tag_2, lt(calldatasize, 0x04))\n          shr(0xe0, calldataload(0x00))\n          dup1\n          0x0b7f1665\n          eq\n          tag_3\n          jumpi\n          dup1\n          0x0c55699c\n          eq\n          tag_4\n          jumpi\n          dup1\n          0x3c9d377d\n          eq\n          tag_5\n          jumpi\n          dup1\n          0x9942ec6f\n          eq\n          tag_6\n          jumpi\n          dup1\n          0xc3f90202\n          eq\n          tag_7\n          jumpi\n        tag_2:\n          0x00\n          dup1\n          revert\n            /* \"contracts/variables_and_functions_visibility.sol\":383:450  function getY() public view returns(int){\r... */\n        tag_3:\n          tag_8\n          tag_9\n          jump\t// in\n        tag_8:\n          mload(0x40)\n          tag_10\n          swap2\n          swap1\n          tag_11\n          jump\t// in\n        tag_10:\n          mload(0x40)\n          dup1\n          swap2\n          sub\n          swap1\n          return\n            /* \"contracts/variables_and_functions_visibility.sol\":163:180  int public x = 10 */\n        tag_4:\n          tag_12\n          tag_13\n          jump\t// in\n        tag_12:\n          mload(0x40)\n          tag_14\n          swap2\n          swap1\n          tag_11\n          jump\t// in\n        tag_14:\n          mload(0x40)\n          dup1\n          swap2\n          sub\n          swap1\n          return\n            /* \"contracts/variables_and_functions_visibility.sol\":1152:1275  function f5() public pure returns(int){\r... */\n        tag_5:\n          tag_15\n          tag_16\n          jump\t// in\n        tag_15:\n          mload(0x40)\n          tag_17\n          swap2\n          swap1\n          tag_11\n          jump\t// in\n        tag_17:\n          mload(0x40)\n          dup1\n          swap2\n          sub\n          swap1\n          return\n            /* \"contracts/variables_and_functions_visibility.sol\":787:887  function f2() public view returns(int){\r... */\n        tag_6:\n          tag_18\n          tag_19\n          jump\t// in\n        tag_18:\n          mload(0x40)\n          tag_20\n          swap2\n          swap1\n          tag_11\n          jump\t// in\n        tag_20:\n          mload(0x40)\n          dup1\n          swap2\n          sub\n          swap1\n          return\n            /* \"contracts/variables_and_functions_visibility.sol\":1077:1144  function f4() external view returns(int){\r... */\n        tag_7:\n          tag_21\n          tag_22\n          jump\t// in\n        tag_21:\n          mload(0x40)\n          tag_23\n          swap2\n          swap1\n          tag_11\n          jump\t// in\n        tag_23:\n          mload(0x40)\n          dup1\n          swap2\n          sub\n          swap1\n          return\n            /* \"contracts/variables_and_functions_visibility.sol\":383:450  function getY() public view returns(int){\r... */\n        tag_9:\n            /* \"contracts/variables_and_functions_visibility.sol\":419:422  int */\n          0x00\n            /* \"contracts/variables_and_functions_visibility.sol\":441:442  y */\n          sload(0x01)\n            /* \"contracts/variables_and_functions_visibility.sol\":434:442  return y */\n          swap1\n          pop\n            /* \"contracts/variables_and_functions_visibility.sol\":383:450  function getY() public view returns(int){\r... */\n          swap1\n          jump\t// out\n            /* \"contracts/variables_and_functions_visibility.sol\":163:180  int public x = 10 */\n        tag_13:\n          sload(0x00)\n          dup2\n          jump\t// out\n            /* \"contracts/variables_and_functions_visibility.sol\":1152:1275  function f5() public pure returns(int){\r... */\n        tag_16:\n            /* \"contracts/variables_and_functions_visibility.sol\":1186:1189  int */\n          0x00\n            /* \"contracts/variables_and_functions_visibility.sol\":1201:1206  int b */\n          dup1\n            /* \"contracts/variables_and_functions_visibility.sol\":1266:1267  b */\n          dup1\n            /* \"contracts/variables_and_functions_visibility.sol\":1259:1267  return b */\n          swap2\n          pop\n          pop\n            /* \"contracts/variables_and_functions_visibility.sol\":1152:1275  function f5() public pure returns(int){\r... */\n          swap1\n          jump\t// out\n            /* \"contracts/variables_and_functions_visibility.sol\":787:887  function f2() public view returns(int){\r... */\n        tag_19:\n            /* \"contracts/variables_and_functions_visibility.sol\":821:824  int */\n          0x00\n            /* \"contracts/variables_and_functions_visibility.sol\":836:841  int a */\n          dup1\n            /* \"contracts/variables_and_functions_visibility.sol\":856:860  f1() */\n          tag_27\n            /* \"contracts/variables_and_functions_visibility.sol\":856:858  f1 */\n          tag_28\n            /* \"contracts/variables_and_functions_visibility.sol\":856:860  f1() */\n          jump\t// in\n        tag_27:\n            /* \"contracts/variables_and_functions_visibility.sol\":852:860  a = f1() */\n          swap1\n          pop\n            /* \"contracts/variables_and_functions_visibility.sol\":878:879  a */\n          dup1\n            /* \"contracts/variables_and_functions_visibility.sol\":871:879  return a */\n          swap2\n          pop\n          pop\n            /* \"contracts/variables_and_functions_visibility.sol\":787:887  function f2() public view returns(int){\r... */\n          swap1\n          jump\t// out\n            /* \"contracts/variables_and_functions_visibility.sol\":1077:1144  function f4() external view returns(int){\r... */\n        tag_22:\n            /* \"contracts/variables_and_functions_visibility.sol\":1113:1116  int */\n          0x00\n            /* \"contracts/variables_and_functions_visibility.sol\":1135:1136  x */\n          dup1\n          sload\n            /* \"contracts/variables_and_functions_visibility.sol\":1128:1136  return x */\n          swap1\n          pop\n            /* \"contracts/variables_and_functions_visibility.sol\":1077:1144  function f4() external view returns(int){\r... */\n          swap1\n          jump\t// out\n            /* \"contracts/variables_and_functions_visibility.sol\":620:686  function f1() private view returns(int){\r... */\n        tag_28:\n            /* \"contracts/variables_and_functions_visibility.sol\":655:658  int */\n          0x00\n            /* \"contracts/variables_and_functions_visibility.sol\":677:678  x */\n          dup1\n          sload\n            /* \"contracts/variables_and_functions_visibility.sol\":670:678  return x */\n          swap1\n          pop\n            /* \"contracts/variables_and_functions_visibility.sol\":620:686  function f1() private view returns(int){\r... */\n          swap1\n          jump\t// out\n            /* \"#utility.yul\":7:122   */\n        tag_32:\n            /* \"#utility.yul\":92:115   */\n          tag_34\n            /* \"#utility.yul\":109:114   */\n          dup2\n            /* \"#utility.yul\":92:115   */\n          tag_35\n          jump\t// in\n        tag_34:\n            /* \"#utility.yul\":87:90   */\n          dup3\n            /* \"#utility.yul\":80:116   */\n          mstore\n            /* \"#utility.yul\":7:122   */\n          pop\n          pop\n          jump\t// out\n            /* \"#utility.yul\":128:346   */\n        tag_11:\n            /* \"#utility.yul\":219:223   */\n          0x00\n            /* \"#utility.yul\":257:259   */\n          0x20\n            /* \"#utility.yul\":246:255   */\n          dup3\n            /* \"#utility.yul\":242:260   */\n          add\n            /* \"#utility.yul\":234:260   */\n          swap1\n          pop\n            /* \"#utility.yul\":270:339   */\n          tag_37\n            /* \"#utility.yul\":336:337   */\n          0x00\n            /* \"#utility.yul\":325:334   */\n          dup4\n            /* \"#utility.yul\":321:338   */\n          add\n            /* \"#utility.yul\":312:318   */\n          dup5\n            /* \"#utility.yul\":270:339   */\n          tag_32\n          jump\t// in\n        tag_37:\n            /* \"#utility.yul\":128:346   */\n          swap3\n          swap2\n          pop\n          pop\n          jump\t// out\n            /* \"#utility.yul\":352:428   */\n        tag_35:\n            /* \"#utility.yul\":388:395   */\n          0x00\n            /* \"#utility.yul\":417:422   */\n          dup2\n            /* \"#utility.yul\":406:422   */\n          swap1\n          pop\n            /* \"#utility.yul\":352:428   */\n          swap2\n          swap1\n          pop\n          jump\t// out\n\n        auxdata: 0xa26469706673582212200832878d18ab889a0c4c626cffe1087a3a0cec2323f0cfbb5207af6f0f043b0764736f6c63430008070033\n    }\n}\n",
				"bytecode": {
					"linkReferences": {},
					"object": "60806040526040516100109061007e565b604051809103906000f08015801561002c573d6000803e3d6000fd5b506000806101000a81548173ffffffffffffffffffffffffffffffffffffffff021916908373ffffffffffffffffffffffffffffffffffffffff16021790555034801561007857600080fd5b5061008b565b6101c6806101b183390190565b6101178061009a6000396000f3fe6080604052348015600f57600080fd5b506004361060285760003560e01c8063605b85ad14602d575b600080fd5b60336047565b604051603e91906078565b60405180910390f35b60008054906101000a900473ffffffffffffffffffffffffffffffffffffffff1681565b60728160b1565b82525050565b6000602082019050608b6000830184606b565b92915050565b600073ffffffffffffffffffffffffffffffffffffffff82169050919050565b600060ba8260c1565b9050919050565b600060ca8260d1565b9050919050565b600060da826091565b905091905056fea2646970667358221220248a3f6c79a9bba365c00bfeef54fe0208dffcec78fdbf9e28045b8e5ba970a664736f6c634300080700336080604052600a600055601460015534801561001a57600080fd5b5061019c8061002a6000396000f3fe608060405234801561001057600080fd5b50600436106100575760003560e01c80630b7f16651461005c5780630c55699c1461007a5780633c9d377d146100985780639942ec6f146100b6578063c3f90202146100d4575b600080fd5b6100646100f2565b6040516100719190610141565b60405180910390f35b6100826100fc565b60405161008f9190610141565b60405180910390f35b6100a0610102565b6040516100ad9190610141565b60405180910390f35b6100be61010c565b6040516100cb9190610141565b60405180910390f35b6100dc610120565b6040516100e99190610141565b60405180910390f35b6000600154905090565b60005481565b6000808091505090565b600080610117610129565b90508091505090565b60008054905090565b60008054905090565b61013b8161015c565b82525050565b60006020820190506101566000830184610132565b92915050565b600081905091905056fea26469706673582212200832878d18ab889a0c4c626cffe1087a3a0cec2323f0cfbb5207af6f0f043b0764736f6c63430008070033",
					"opcodes": "PUSH1 0x80 PUSH1 0x40 MSTORE PUSH1 0x40 MLOAD PUSH2 0x10 SWAP1 PUSH2 0x7E JUMP JUMPDEST PUSH1 0x40 MLOAD DUP1 SWAP2 SUB SWAP1 PUSH1 0x0 CREATE DUP1 ISZERO DUP1 ISZERO PUSH2 0x2C JUMPI RETURNDATASIZE PUSH1 0x0 DUP1 RETURNDATACOPY RETURNDATASIZE PUSH1 0x0 REVERT JUMPDEST POP PUSH1 0x0 DUP1 PUSH2 0x100 EXP DUP2 SLOAD DUP2 PUSH20 0xFFFFFFFFFFFFFFFFFFFFFFFFFFFFFFFFFFFFFFFF MUL NOT AND SWAP1 DUP4 PUSH20 0xFFFFFFFFFFFFFFFFFFFFFFFFFFFFFFFFFFFFFFFF AND MUL OR SWAP1 SSTORE POP CALLVALUE DUP1 ISZERO PUSH2 0x78 JUMPI PUSH1 0x0 DUP1 REVERT JUMPDEST POP PUSH2 0x8B JUMP JUMPDEST PUSH2 0x1C6 DUP1 PUSH2 0x1B1 DUP4 CODECOPY ADD SWAP1 JUMP JUMPDEST PUSH2 0x117 DUP1 PUSH2 0x9A PUSH1 0x0 CODECOPY PUSH1 0x0 RETURN INVALID PUSH1 0x80 PUSH1 0x40 MSTORE CALLVALUE DUP1 ISZERO PUSH1 0xF JUMPI PUSH1 0x0 DUP1 REVERT JUMPDEST POP PUSH1 0x4 CALLDATASIZE LT PUSH1 0x28 JUMPI PUSH1 0x0 CALLDATALOAD PUSH1 0xE0 SHR DUP1 PUSH4 0x605B85AD EQ PUSH1 0x2D JUMPI JUMPDEST PUSH1 0x0 DUP1 REVERT JUMPDEST PUSH1 0x33 PUSH1 0x47 JUMP JUMPDEST PUSH1 0x40 MLOAD PUSH1 0x3E SWAP2 SWAP1 PUSH1 0x78 JUMP JUMPDEST PUSH1 0x40 MLOAD DUP1 SWAP2 SUB SWAP1 RETURN JUMPDEST PUSH1 0x0 DUP1 SLOAD SWAP1 PUSH2 0x100 EXP SWAP1 DIV PUSH20 0xFFFFFFFFFFFFFFFFFFFFFFFFFFFFFFFFFFFFFFFF AND DUP2 JUMP JUMPDEST PUSH1 0x72 DUP2 PUSH1 0xB1 JUMP JUMPDEST DUP3 MSTORE POP POP JUMP JUMPDEST PUSH1 0x0 PUSH1 0x20 DUP3 ADD SWAP1 POP PUSH1 0x8B PUSH1 0x0 DUP4 ADD DUP5 PUSH1 0x6B JUMP JUMPDEST SWAP3 SWAP2 POP POP JUMP JUMPDEST PUSH1 0x0 PUSH20 0xFFFFFFFFFFFFFFFFFFFFFFFFFFFFFFFFFFFFFFFF DUP3 AND SWAP1 POP SWAP2 SWAP1 POP JUMP JUMPDEST PUSH1 0x0 PUSH1 0xBA DUP3 PUSH1 0xC1 JUMP JUMPDEST SWAP1 POP SWAP2 SWAP1 POP JUMP JUMPDEST PUSH1 0x0 PUSH1 0xCA DUP3 PUSH1 0xD1 JUMP JUMPDEST SWAP1 POP SWAP2 SWAP1 POP JUMP JUMPDEST PUSH1 0x0 PUSH1 0xDA DUP3 PUSH1 0x91 JUMP JUMPDEST SWAP1 POP SWAP2 SWAP1 POP JUMP INVALID LOG2 PUSH5 0x6970667358 0x22 SLT KECCAK256 0x24 DUP11 EXTCODEHASH PUSH13 0x79A9BBA365C00BFEEF54FE0208 0xDF 0xFC 0xEC PUSH25 0xFDBF9E28045B8E5BA970A664736F6C63430008070033608060 BLOCKHASH MSTORE PUSH1 0xA PUSH1 0x0 SSTORE PUSH1 0x14 PUSH1 0x1 SSTORE CALLVALUE DUP1 ISZERO PUSH2 0x1A JUMPI PUSH1 0x0 DUP1 REVERT JUMPDEST POP PUSH2 0x19C DUP1 PUSH2 0x2A PUSH1 0x0 CODECOPY PUSH1 0x0 RETURN INVALID PUSH1 0x80 PUSH1 0x40 MSTORE CALLVALUE DUP1 ISZERO PUSH2 0x10 JUMPI PUSH1 0x0 DUP1 REVERT JUMPDEST POP PUSH1 0x4 CALLDATASIZE LT PUSH2 0x57 JUMPI PUSH1 0x0 CALLDATALOAD PUSH1 0xE0 SHR DUP1 PUSH4 0xB7F1665 EQ PUSH2 0x5C JUMPI DUP1 PUSH4 0xC55699C EQ PUSH2 0x7A JUMPI DUP1 PUSH4 0x3C9D377D EQ PUSH2 0x98 JUMPI DUP1 PUSH4 0x9942EC6F EQ PUSH2 0xB6 JUMPI DUP1 PUSH4 0xC3F90202 EQ PUSH2 0xD4 JUMPI JUMPDEST PUSH1 0x0 DUP1 REVERT JUMPDEST PUSH2 0x64 PUSH2 0xF2 JUMP JUMPDEST PUSH1 0x40 MLOAD PUSH2 0x71 SWAP2 SWAP1 PUSH2 0x141 JUMP JUMPDEST PUSH1 0x40 MLOAD DUP1 SWAP2 SUB SWAP1 RETURN JUMPDEST PUSH2 0x82 PUSH2 0xFC JUMP JUMPDEST PUSH1 0x40 MLOAD PUSH2 0x8F SWAP2 SWAP1 PUSH2 0x141 JUMP JUMPDEST PUSH1 0x40 MLOAD DUP1 SWAP2 SUB SWAP1 RETURN JUMPDEST PUSH2 0xA0 PUSH2 0x102 JUMP JUMPDEST PUSH1 0x40 MLOAD PUSH2 0xAD SWAP2 SWAP1 PUSH2 0x141 JUMP JUMPDEST PUSH1 0x40 MLOAD DUP1 SWAP2 SUB SWAP1 RETURN JUMPDEST PUSH2 0xBE PUSH2 0x10C JUMP JUMPDEST PUSH1 0x40 MLOAD PUSH2 0xCB SWAP2 SWAP1 PUSH2 0x141 JUMP JUMPDEST PUSH1 0x40 MLOAD DUP1 SWAP2 SUB SWAP1 RETURN JUMPDEST PUSH2 0xDC PUSH2 0x120 JUMP JUMPDEST PUSH1 0x40 MLOAD PUSH2 0xE9 SWAP2 SWAP1 PUSH2 0x141 JUMP JUMPDEST PUSH1 0x40 MLOAD DUP1 SWAP2 SUB SWAP1 RETURN JUMPDEST PUSH1 0x0 PUSH1 0x1 SLOAD SWAP1 POP SWAP1 JUMP JUMPDEST PUSH1 0x0 SLOAD DUP2 JUMP JUMPDEST PUSH1 0x0 DUP1 DUP1 SWAP2 POP POP SWAP1 JUMP JUMPDEST PUSH1 0x0 DUP1 PUSH2 0x117 PUSH2 0x129 JUMP JUMPDEST SWAP1 POP DUP1 SWAP2 POP POP SWAP1 JUMP JUMPDEST PUSH1 0x0 DUP1 SLOAD SWAP1 POP SWAP1 JUMP JUMPDEST PUSH1 0x0 DUP1 SLOAD SWAP1 POP SWAP1 JUMP JUMPDEST PUSH2 0x13B DUP2 PUSH2 0x15C JUMP JUMPDEST DUP3 MSTORE POP POP JUMP JUMPDEST PUSH1 0x0 PUSH1 0x20 DUP3 ADD SWAP1 POP PUSH2 0x156 PUSH1 0x0 DUP4 ADD DUP5 PUSH2 0x132 JUMP JUMPDEST SWAP3 SWAP2 POP POP JUMP JUMPDEST PUSH1 0x0 DUP2 SWAP1 POP SWAP2 SWAP1 POP JUMP INVALID LOG2 PUSH5 0x6970667358 0x22 SLT KECCAK256 ADDMOD ORIGIN DUP8 DUP14 XOR 0xAB DUP9 SWAP11 0xC 0x4C PUSH3 0x6CFFE1 ADDMOD PUSH27 0x3A0CEC2323F0CFBB5207AF6F0F043B0764736F6C63430008070033 "
				},
				"gasEstimates": {
					"creation": {
						"codeDepositCost": "55800",
						"executionCost": "infinite",
						"totalCost": "infinite"
					},
					"external": {
						"contract_a()": "2575"
					}
				},
				"methodIdentifiers": {
					"contract_a()": "605b85ad"
				}
			},
			"storageLayout": {
				"storage": [
					{
						"astId": 81,
						"contract": "contracts/variables_and_functions_visibility.sol:C",
						"label": "contract_a",
						"offset": 0,
						"slot": "0",
						"type": "t_contract(A)67"
					}
				],
				"types": {
					"t_contract(A)67": {
						"encoding": "inplace",
						"label": "contract A",
						"numberOfBytes": "20"
					}
				}
			},
			"userdoc": {
				"kind": "user",
				"methods": {},
				"version": 1
			}
		}
	}
}