{
	"contracts/crowdfunding.sol": {
		"CrowdFunding": {
			"abi": [
				{
					"inputs": [
						{
							"internalType": "uint256",
							"name": "_goal",
							"type": "uint256"
						},
						{
							"internalType": "uint256",
							"name": "_deadline",
							"type": "uint256"
						}
					],
					"stateMutability": "nonpayable",
					"type": "constructor"
				},
				{
					"inputs": [],
					"name": "admin",
					"outputs": [
						{
							"internalType": "address",
							"name": "",
							"type": "address"
						}
					],
					"stateMutability": "view",
					"type": "function"
				},
				{
					"inputs": [],
					"name": "contribute",
					"outputs": [],
					"stateMutability": "payable",
					"type": "function"
				},
				{
					"inputs": [
						{
							"internalType": "address",
							"name": "",
							"type": "address"
						}
					],
					"name": "contributors",
					"outputs": [
						{
							"internalType": "uint256",
							"name": "",
							"type": "uint256"
						}
					],
					"stateMutability": "view",
					"type": "function"
				},
				{
					"inputs": [],
					"name": "deadline",
					"outputs": [
						{
							"internalType": "uint256",
							"name": "",
							"type": "uint256"
						}
					],
					"stateMutability": "view",
					"type": "function"
				},
				{
					"inputs": [],
					"name": "getBalance",
					"outputs": [
						{
							"internalType": "uint256",
							"name": "",
							"type": "uint256"
						}
					],
					"stateMutability": "view",
					"type": "function"
				},
				{
					"inputs": [],
					"name": "getRefund",
					"outputs": [],
					"stateMutability": "nonpayable",
					"type": "function"
				},
				{
					"inputs": [],
					"name": "goal",
					"outputs": [
						{
							"internalType": "uint256",
							"name": "",
							"type": "uint256"
						}
					],
					"stateMutability": "view",
					"type": "function"
				},
				{
					"inputs": [],
					"name": "minimumContribution",
					"outputs": [
						{
							"internalType": "uint256",
							"name": "",
							"type": "uint256"
						}
					],
					"stateMutability": "view",
					"type": "function"
				},
				{
					"inputs": [],
					"name": "numberContributors",
					"outputs": [
						{
							"internalType": "uint256",
							"name": "",
							"type": "uint256"
						}
					],
					"stateMutability": "view",
					"type": "function"
				},
				{
					"inputs": [],
					"name": "raisedAmount",
					"outputs": [
						{
							"internalType": "uint256",
							"name": "",
							"type": "uint256"
						}
					],
					"stateMutability": "view",
					"type": "function"
				},
				{
					"inputs": [
						{
							"internalType": "uint256",
							"name": "",
							"type": "uint256"
						}
					],
					"name": "requests",
					"outputs": [
						{
							"internalType": "string",
							"name": "description",
							"type": "string"
						},
						{
							"internalType": "address payable",
							"name": "recipient",
							"type": "address"
						},
						{
							"internalType": "uint256",
							"name": "value",
							"type": "uint256"
						},
						{
							"internalType": "bool",
							"name": "completed",
							"type": "bool"
						},
						{
							"internalType": "uint256",
							"name": "numberVoters",
							"type": "uint256"
						}
					],
					"stateMutability": "view",
					"type": "function"
				},
				{
					"stateMutability": "payable",
					"type": "receive"
				}
			],
			"devdoc": {
				"kind": "dev",
				"methods": {},
				"version": 1
			},
			"evm": {
				"assembly": "    /* \"contracts/crowdfunding.sol\":73:3272  contract CrowdFunding{\r... */\n  mstore(0x40, 0x80)\n    /* \"contracts/crowdfunding.sol\":1310:1585  constructor(uint _goal, uint _deadline){\r... */\n  callvalue\n  dup1\n  iszero\n  tag_1\n  jumpi\n  0x00\n  dup1\n  revert\ntag_1:\n  pop\n  mload(0x40)\n  sub(codesize, bytecodeSize)\n  dup1\n  bytecodeSize\n  dup4\n  codecopy\n  dup2\n  dup2\n  add\n  0x40\n  mstore\n  dup2\n  add\n  swap1\n  tag_2\n  swap2\n  swap1\n  tag_3\n  jump\t// in\ntag_2:\n    /* \"contracts/crowdfunding.sol\":1367:1372  _goal */\n  dup2\n    /* \"contracts/crowdfunding.sol\":1360:1364  goal */\n  0x05\n    /* \"contracts/crowdfunding.sol\":1360:1372  goal = _goal */\n  dup2\n  swap1\n  sstore\n  pop\n    /* \"contracts/crowdfunding.sol\":1434:1443  _deadline */\n  dup1\n    /* \"contracts/crowdfunding.sol\":1416:1431  block.timestamp */\n  timestamp\n    /* \"contracts/crowdfunding.sol\":1416:1443  block.timestamp + _deadline */\n  tag_6\n  swap2\n  swap1\n  tag_7\n  jump\t// in\ntag_6:\n    /* \"contracts/crowdfunding.sol\":1405:1413  deadline */\n  0x04\n    /* \"contracts/crowdfunding.sol\":1405:1443  deadline = block.timestamp + _deadline */\n  dup2\n  swap1\n  sstore\n  pop\n    /* \"contracts/crowdfunding.sol\":1508:1515  100 wei */\n  0x64\n    /* \"contracts/crowdfunding.sol\":1486:1505  minimumContribution */\n  0x03\n    /* \"contracts/crowdfunding.sol\":1486:1515  minimumContribution = 100 wei */\n  dup2\n  swap1\n  sstore\n  pop\n    /* \"contracts/crowdfunding.sol\":1554:1564  msg.sender */\n  caller\n    /* \"contracts/crowdfunding.sol\":1546:1551  admin */\n  0x01\n  0x00\n    /* \"contracts/crowdfunding.sol\":1546:1564  admin = msg.sender */\n  0x0100\n  exp\n  dup2\n  sload\n  dup2\n  0xffffffffffffffffffffffffffffffffffffffff\n  mul\n  not\n  and\n  swap1\n  dup4\n  0xffffffffffffffffffffffffffffffffffffffff\n  and\n  mul\n  or\n  swap1\n  sstore\n  pop\n    /* \"contracts/crowdfunding.sol\":1310:1585  constructor(uint _goal, uint _deadline){\r... */\n  pop\n  pop\n    /* \"contracts/crowdfunding.sol\":73:3272  contract CrowdFunding{\r... */\n  jump(tag_8)\n    /* \"#utility.yul\":7:150   */\ntag_10:\n    /* \"#utility.yul\":64:69   */\n  0x00\n    /* \"#utility.yul\":95:101   */\n  dup2\n    /* \"#utility.yul\":89:102   */\n  mload\n    /* \"#utility.yul\":80:102   */\n  swap1\n  pop\n    /* \"#utility.yul\":111:144   */\n  tag_12\n    /* \"#utility.yul\":138:143   */\n  dup2\n    /* \"#utility.yul\":111:144   */\n  tag_13\n  jump\t// in\ntag_12:\n    /* \"#utility.yul\":7:150   */\n  swap3\n  swap2\n  pop\n  pop\n  jump\t// out\n    /* \"#utility.yul\":156:663   */\ntag_3:\n    /* \"#utility.yul\":235:241   */\n  0x00\n    /* \"#utility.yul\":243:249   */\n  dup1\n    /* \"#utility.yul\":292:294   */\n  0x40\n    /* \"#utility.yul\":280:289   */\n  dup4\n    /* \"#utility.yul\":271:278   */\n  dup6\n    /* \"#utility.yul\":267:290   */\n  sub\n    /* \"#utility.yul\":263:295   */\n  slt\n    /* \"#utility.yul\":260:379   */\n  iszero\n  tag_15\n  jumpi\n    /* \"#utility.yul\":298:377   */\n  tag_16\n  tag_17\n  jump\t// in\ntag_16:\n    /* \"#utility.yul\":260:379   */\ntag_15:\n    /* \"#utility.yul\":418:419   */\n  0x00\n    /* \"#utility.yul\":443:507   */\n  tag_18\n    /* \"#utility.yul\":499:506   */\n  dup6\n    /* \"#utility.yul\":490:496   */\n  dup3\n    /* \"#utility.yul\":479:488   */\n  dup7\n    /* \"#utility.yul\":475:497   */\n  add\n    /* \"#utility.yul\":443:507   */\n  tag_10\n  jump\t// in\ntag_18:\n    /* \"#utility.yul\":433:507   */\n  swap3\n  pop\n    /* \"#utility.yul\":389:517   */\n  pop\n    /* \"#utility.yul\":556:558   */\n  0x20\n    /* \"#utility.yul\":582:646   */\n  tag_19\n    /* \"#utility.yul\":638:645   */\n  dup6\n    /* \"#utility.yul\":629:635   */\n  dup3\n    /* \"#utility.yul\":618:627   */\n  dup7\n    /* \"#utility.yul\":614:636   */\n  add\n    /* \"#utility.yul\":582:646   */\n  tag_10\n  jump\t// in\ntag_19:\n    /* \"#utility.yul\":572:646   */\n  swap2\n  pop\n    /* \"#utility.yul\":527:656   */\n  pop\n    /* \"#utility.yul\":156:663   */\n  swap3\n  pop\n  swap3\n  swap1\n  pop\n  jump\t// out\n    /* \"#utility.yul\":750:1055   */\ntag_7:\n    /* \"#utility.yul\":790:793   */\n  0x00\n    /* \"#utility.yul\":809:829   */\n  tag_23\n    /* \"#utility.yul\":827:828   */\n  dup3\n    /* \"#utility.yul\":809:829   */\n  tag_24\n  jump\t// in\ntag_23:\n    /* \"#utility.yul\":804:829   */\n  swap2\n  pop\n    /* \"#utility.yul\":843:863   */\n  tag_25\n    /* \"#utility.yul\":861:862   */\n  dup4\n    /* \"#utility.yul\":843:863   */\n  tag_24\n  jump\t// in\ntag_25:\n    /* \"#utility.yul\":838:863   */\n  swap3\n  pop\n    /* \"#utility.yul\":997:998   */\n  dup3\n    /* \"#utility.yul\":929:995   */\n  0xffffffffffffffffffffffffffffffffffffffffffffffffffffffffffffffff\n    /* \"#utility.yul\":925:999   */\n  sub\n    /* \"#utility.yul\":922:923   */\n  dup3\n    /* \"#utility.yul\":919:1000   */\n  gt\n    /* \"#utility.yul\":916:1023   */\n  iszero\n  tag_26\n  jumpi\n    /* \"#utility.yul\":1003:1021   */\n  tag_27\n  tag_28\n  jump\t// in\ntag_27:\n    /* \"#utility.yul\":916:1023   */\ntag_26:\n    /* \"#utility.yul\":1047:1048   */\n  dup3\n    /* \"#utility.yul\":1044:1045   */\n  dup3\n    /* \"#utility.yul\":1040:1049   */\n  add\n    /* \"#utility.yul\":1033:1049   */\n  swap1\n  pop\n    /* \"#utility.yul\":750:1055   */\n  swap3\n  swap2\n  pop\n  pop\n  jump\t// out\n    /* \"#utility.yul\":1061:1138   */\ntag_24:\n    /* \"#utility.yul\":1098:1105   */\n  0x00\n    /* \"#utility.yul\":1127:1132   */\n  dup2\n    /* \"#utility.yul\":1116:1132   */\n  swap1\n  pop\n    /* \"#utility.yul\":1061:1138   */\n  swap2\n  swap1\n  pop\n  jump\t// out\n    /* \"#utility.yul\":1144:1324   */\ntag_28:\n    /* \"#utility.yul\":1192:1269   */\n  0x4e487b7100000000000000000000000000000000000000000000000000000000\n    /* \"#utility.yul\":1189:1190   */\n  0x00\n    /* \"#utility.yul\":1182:1270   */\n  mstore\n    /* \"#utility.yul\":1289:1293   */\n  0x11\n    /* \"#utility.yul\":1286:1287   */\n  0x04\n    /* \"#utility.yul\":1279:1294   */\n  mstore\n    /* \"#utility.yul\":1313:1317   */\n  0x24\n    /* \"#utility.yul\":1310:1311   */\n  0x00\n    /* \"#utility.yul\":1303:1318   */\n  revert\n    /* \"#utility.yul\":1453:1570   */\ntag_17:\n    /* \"#utility.yul\":1562:1563   */\n  0x00\n    /* \"#utility.yul\":1559:1560   */\n  dup1\n    /* \"#utility.yul\":1552:1564   */\n  revert\n    /* \"#utility.yul\":1576:1698   */\ntag_13:\n    /* \"#utility.yul\":1649:1673   */\n  tag_35\n    /* \"#utility.yul\":1667:1672   */\n  dup2\n    /* \"#utility.yul\":1649:1673   */\n  tag_24\n  jump\t// in\ntag_35:\n    /* \"#utility.yul\":1642:1647   */\n  dup2\n    /* \"#utility.yul\":1639:1674   */\n  eq\n    /* \"#utility.yul\":1629:1692   */\n  tag_36\n  jumpi\n    /* \"#utility.yul\":1688:1689   */\n  0x00\n    /* \"#utility.yul\":1685:1686   */\n  dup1\n    /* \"#utility.yul\":1678:1690   */\n  revert\n    /* \"#utility.yul\":1629:1692   */\ntag_36:\n    /* \"#utility.yul\":1576:1698   */\n  pop\n  jump\t// out\n    /* \"contracts/crowdfunding.sol\":73:3272  contract CrowdFunding{\r... */\ntag_8:\n  dataSize(sub_0)\n  dup1\n  dataOffset(sub_0)\n  0x00\n  codecopy\n  0x00\n  return\nstop\n\nsub_0: assembly {\n        /* \"contracts/crowdfunding.sol\":73:3272  contract CrowdFunding{\r... */\n      mstore(0x40, 0x80)\n      jumpi(tag_1, lt(calldatasize, 0x04))\n      shr(0xe0, calldataload(0x00))\n      dup1\n      0x937e09b1\n      gt\n      tag_14\n      jumpi\n      dup1\n      0x937e09b1\n      eq\n      tag_8\n      jumpi\n      dup1\n      0xb2d5ae44\n      eq\n      tag_9\n      jumpi\n      dup1\n      0xc59ee1dc\n      eq\n      tag_10\n      jumpi\n      dup1\n      0xd7bb99ba\n      eq\n      tag_11\n      jumpi\n      dup1\n      0xf3740daf\n      eq\n      tag_12\n      jumpi\n      dup1\n      0xf851a440\n      eq\n      tag_13\n      jumpi\n      jump(tag_2)\n    tag_14:\n      dup1\n      0x12065fe0\n      eq\n      tag_3\n      jumpi\n      dup1\n      0x1f6d4942\n      eq\n      tag_4\n      jumpi\n      dup1\n      0x29dcb0cf\n      eq\n      tag_5\n      jumpi\n      dup1\n      0x40193883\n      eq\n      tag_6\n      jumpi\n      dup1\n      0x81d12c58\n      eq\n      tag_7\n      jumpi\n      jump(tag_2)\n    tag_1:\n      jumpi(tag_2, calldatasize)\n        /* \"contracts/crowdfunding.sol\":2447:2459  contribute() */\n      tag_17\n        /* \"contracts/crowdfunding.sol\":2447:2457  contribute */\n      tag_18\n        /* \"contracts/crowdfunding.sol\":2447:2459  contribute() */\n      jump\t// in\n    tag_17:\n        /* \"contracts/crowdfunding.sol\":73:3272  contract CrowdFunding{\r... */\n      stop\n    tag_2:\n      0x00\n      dup1\n      revert\n        /* \"contracts/crowdfunding.sol\":2518:2616  function getBalance() public view returns(uint){\r... */\n    tag_3:\n      callvalue\n      dup1\n      iszero\n      tag_19\n      jumpi\n      0x00\n      dup1\n      revert\n    tag_19:\n      pop\n      tag_20\n      tag_21\n      jump\t// in\n    tag_20:\n      mload(0x40)\n      tag_22\n      swap2\n      swap1\n      tag_23\n      jump\t// in\n    tag_22:\n      mload(0x40)\n      dup1\n      swap2\n      sub\n      swap1\n      return\n        /* \"contracts/crowdfunding.sol\":161:205  mapping(address => uint) public contributors */\n    tag_4:\n      callvalue\n      dup1\n      iszero\n      tag_24\n      jumpi\n      0x00\n      dup1\n      revert\n    tag_24:\n      pop\n      tag_25\n      0x04\n      dup1\n      calldatasize\n      sub\n      dup2\n      add\n      swap1\n      tag_26\n      swap2\n      swap1\n      tag_27\n      jump\t// in\n    tag_26:\n      tag_28\n      jump\t// in\n    tag_25:\n      mload(0x40)\n      tag_29\n      swap2\n      swap1\n      tag_23\n      jump\t// in\n    tag_29:\n      mload(0x40)\n      dup1\n      swap2\n      sub\n      swap1\n      return\n        /* \"contracts/crowdfunding.sol\":465:485  uint public deadline */\n    tag_5:\n      callvalue\n      dup1\n      iszero\n      tag_30\n      jumpi\n      0x00\n      dup1\n      revert\n    tag_30:\n      pop\n      tag_31\n      tag_32\n      jump\t// in\n    tag_31:\n      mload(0x40)\n      tag_33\n      swap2\n      swap1\n      tag_23\n      jump\t// in\n    tag_33:\n      mload(0x40)\n      dup1\n      swap2\n      sub\n      swap1\n      return\n        /* \"contracts/crowdfunding.sol\":505:521  uint public goal */\n    tag_6:\n      callvalue\n      dup1\n      iszero\n      tag_34\n      jumpi\n      0x00\n      dup1\n      revert\n    tag_34:\n      pop\n      tag_35\n      tag_36\n      jump\t// in\n    tag_35:\n      mload(0x40)\n      tag_37\n      swap2\n      swap1\n      tag_23\n      jump\t// in\n    tag_37:\n      mload(0x40)\n      dup1\n      swap2\n      sub\n      swap1\n      return\n        /* \"contracts/crowdfunding.sol\":1215:1255  mapping(uint => Request) public requests */\n    tag_7:\n      callvalue\n      dup1\n      iszero\n      tag_38\n      jumpi\n      0x00\n      dup1\n      revert\n    tag_38:\n      pop\n      tag_39\n      0x04\n      dup1\n      calldatasize\n      sub\n      dup2\n      add\n      swap1\n      tag_40\n      swap2\n      swap1\n      tag_41\n      jump\t// in\n    tag_40:\n      tag_42\n      jump\t// in\n    tag_39:\n      mload(0x40)\n      tag_43\n      swap6\n      swap5\n      swap4\n      swap3\n      swap2\n      swap1\n      tag_44\n      jump\t// in\n    tag_43:\n      mload(0x40)\n      dup1\n      swap2\n      sub\n      swap1\n      return\n        /* \"contracts/crowdfunding.sol\":399:430  uint public minimumContribution */\n    tag_8:\n      callvalue\n      dup1\n      iszero\n      tag_45\n      jumpi\n      0x00\n      dup1\n      revert\n    tag_45:\n      pop\n      tag_46\n      tag_47\n      jump\t// in\n    tag_46:\n      mload(0x40)\n      tag_48\n      swap2\n      swap1\n      tag_23\n      jump\t// in\n    tag_48:\n      mload(0x40)\n      dup1\n      swap2\n      sub\n      swap1\n      return\n        /* \"contracts/crowdfunding.sol\":2665:3261  function getRefund() public{\r... */\n    tag_9:\n      callvalue\n      dup1\n      iszero\n      tag_49\n      jumpi\n      0x00\n      dup1\n      revert\n    tag_49:\n      pop\n      tag_50\n      tag_51\n      jump\t// in\n    tag_50:\n      stop\n        /* \"contracts/crowdfunding.sol\":544:568  uint public raisedAmount */\n    tag_10:\n      callvalue\n      dup1\n      iszero\n      tag_52\n      jumpi\n      0x00\n      dup1\n      revert\n    tag_52:\n      pop\n      tag_53\n      tag_54\n      jump\t// in\n    tag_53:\n      mload(0x40)\n      tag_55\n      swap2\n      swap1\n      tag_23\n      jump\t// in\n    tag_55:\n      mload(0x40)\n      dup1\n      swap2\n      sub\n      swap1\n      return\n        /* \"contracts/crowdfunding.sol\":1628:2290  function contribute() public payable{\r... */\n    tag_11:\n      tag_56\n      tag_18\n      jump\t// in\n    tag_56:\n      stop\n        /* \"contracts/crowdfunding.sol\":360:390  uint public numberContributors */\n    tag_12:\n      callvalue\n      dup1\n      iszero\n      tag_57\n      jumpi\n      0x00\n      dup1\n      revert\n    tag_57:\n      pop\n      tag_58\n      tag_59\n      jump\t// in\n    tag_58:\n      mload(0x40)\n      tag_60\n      swap2\n      swap1\n      tag_23\n      jump\t// in\n    tag_60:\n      mload(0x40)\n      dup1\n      swap2\n      sub\n      swap1\n      return\n        /* \"contracts/crowdfunding.sol\":275:295  address public admin */\n    tag_13:\n      callvalue\n      dup1\n      iszero\n      tag_61\n      jumpi\n      0x00\n      dup1\n      revert\n    tag_61:\n      pop\n      tag_62\n      tag_63\n      jump\t// in\n    tag_62:\n      mload(0x40)\n      tag_64\n      swap2\n      swap1\n      tag_65\n      jump\t// in\n    tag_64:\n      mload(0x40)\n      dup1\n      swap2\n      sub\n      swap1\n      return\n        /* \"contracts/crowdfunding.sol\":1628:2290  function contribute() public payable{\r... */\n    tag_18:\n        /* \"contracts/crowdfunding.sol\":1746:1754  deadline */\n      sload(0x04)\n        /* \"contracts/crowdfunding.sol\":1728:1743  block.timestamp */\n      timestamp\n        /* \"contracts/crowdfunding.sol\":1728:1754  block.timestamp < deadline */\n      lt\n        /* \"contracts/crowdfunding.sol\":1720:1779  require(block.timestamp < deadline, \"Deadline has passed.\") */\n      tag_67\n      jumpi\n      mload(0x40)\n      0x08c379a000000000000000000000000000000000000000000000000000000000\n      dup2\n      mstore\n      0x04\n      add\n      tag_68\n      swap1\n      tag_69\n      jump\t// in\n    tag_68:\n      mload(0x40)\n      dup1\n      swap2\n      sub\n      swap1\n      revert\n    tag_67:\n        /* \"contracts/crowdfunding.sol\":1876:1895  minimumContribution */\n      sload(0x03)\n        /* \"contracts/crowdfunding.sol\":1863:1872  msg.value */\n      callvalue\n        /* \"contracts/crowdfunding.sol\":1863:1895  msg.value >= minimumContribution */\n      lt\n      iszero\n        /* \"contracts/crowdfunding.sol\":1855:1929  require(msg.value >= minimumContribution, \"Minimum contribution not met.\") */\n      tag_70\n      jumpi\n      mload(0x40)\n      0x08c379a000000000000000000000000000000000000000000000000000000000\n      dup2\n      mstore\n      0x04\n      add\n      tag_71\n      swap1\n      tag_72\n      jump\t// in\n    tag_71:\n      mload(0x40)\n      dup1\n      swap2\n      sub\n      swap1\n      revert\n    tag_70:\n        /* \"contracts/crowdfunding.sol\":2069:2070  0 */\n      0x00\n        /* \"contracts/crowdfunding.sol\":2041:2053  contributors */\n      dup1\n        /* \"contracts/crowdfunding.sol\":2041:2065  contributors[msg.sender] */\n      0x00\n        /* \"contracts/crowdfunding.sol\":2054:2064  msg.sender */\n      caller\n        /* \"contracts/crowdfunding.sol\":2041:2065  contributors[msg.sender] */\n      0xffffffffffffffffffffffffffffffffffffffff\n      and\n      0xffffffffffffffffffffffffffffffffffffffff\n      and\n      dup2\n      mstore\n      0x20\n      add\n      swap1\n      dup2\n      mstore\n      0x20\n      add\n      0x00\n      keccak256\n      sload\n        /* \"contracts/crowdfunding.sol\":2041:2070  contributors[msg.sender] == 0 */\n      eq\n        /* \"contracts/crowdfunding.sol\":2037:2118  if (contributors[msg.sender] == 0){\r... */\n      iszero\n      tag_73\n      jumpi\n        /* \"contracts/crowdfunding.sol\":2086:2104  numberContributors */\n      0x02\n      0x00\n        /* \"contracts/crowdfunding.sol\":2086:2106  numberContributors++ */\n      dup2\n      sload\n      dup1\n      swap3\n      swap2\n      swap1\n      tag_74\n      swap1\n      tag_75\n      jump\t// in\n    tag_74:\n      swap2\n      swap1\n      pop\n      sstore\n      pop\n        /* \"contracts/crowdfunding.sol\":2037:2118  if (contributors[msg.sender] == 0){\r... */\n    tag_73:\n        /* \"contracts/crowdfunding.sol\":2195:2204  msg.value */\n      callvalue\n        /* \"contracts/crowdfunding.sol\":2167:2179  contributors */\n      0x00\n        /* \"contracts/crowdfunding.sol\":2167:2191  contributors[msg.sender] */\n      dup1\n        /* \"contracts/crowdfunding.sol\":2180:2190  msg.sender */\n      caller\n        /* \"contracts/crowdfunding.sol\":2167:2191  contributors[msg.sender] */\n      0xffffffffffffffffffffffffffffffffffffffff\n      and\n      0xffffffffffffffffffffffffffffffffffffffff\n      and\n      dup2\n      mstore\n      0x20\n      add\n      swap1\n      dup2\n      mstore\n      0x20\n      add\n      0x00\n      keccak256\n      0x00\n        /* \"contracts/crowdfunding.sol\":2167:2204  contributors[msg.sender] += msg.value */\n      dup3\n      dup3\n      sload\n      tag_76\n      swap2\n      swap1\n      tag_77\n      jump\t// in\n    tag_76:\n      swap3\n      pop\n      pop\n      dup2\n      swap1\n      sstore\n      pop\n        /* \"contracts/crowdfunding.sol\":2271:2280  msg.value */\n      callvalue\n        /* \"contracts/crowdfunding.sol\":2255:2267  raisedAmount */\n      0x06\n      0x00\n        /* \"contracts/crowdfunding.sol\":2255:2280  raisedAmount += msg.value */\n      dup3\n      dup3\n      sload\n      tag_78\n      swap2\n      swap1\n      tag_77\n      jump\t// in\n    tag_78:\n      swap3\n      pop\n      pop\n      dup2\n      swap1\n      sstore\n      pop\n        /* \"contracts/crowdfunding.sol\":1628:2290  function contribute() public payable{\r... */\n      jump\t// out\n        /* \"contracts/crowdfunding.sol\":2518:2616  function getBalance() public view returns(uint){\r... */\n    tag_21:\n        /* \"contracts/crowdfunding.sol\":2560:2564  uint */\n      0x00\n        /* \"contracts/crowdfunding.sol\":2585:2606  address(this).balance */\n      selfbalance\n        /* \"contracts/crowdfunding.sol\":2578:2606  return address(this).balance */\n      swap1\n      pop\n        /* \"contracts/crowdfunding.sol\":2518:2616  function getBalance() public view returns(uint){\r... */\n      swap1\n      jump\t// out\n        /* \"contracts/crowdfunding.sol\":161:205  mapping(address => uint) public contributors */\n    tag_28:\n      mstore(0x20, 0x00)\n      dup1\n      0x00\n      mstore\n      keccak256(0x00, 0x40)\n      0x00\n      swap2\n      pop\n      swap1\n      pop\n      sload\n      dup2\n      jump\t// out\n        /* \"contracts/crowdfunding.sol\":465:485  uint public deadline */\n    tag_32:\n      sload(0x04)\n      dup2\n      jump\t// out\n        /* \"contracts/crowdfunding.sol\":505:521  uint public goal */\n    tag_36:\n      sload(0x05)\n      dup2\n      jump\t// out\n        /* \"contracts/crowdfunding.sol\":1215:1255  mapping(uint => Request) public requests */\n    tag_42:\n      mstore(0x20, 0x07)\n      dup1\n      0x00\n      mstore\n      keccak256(0x00, 0x40)\n      0x00\n      swap2\n      pop\n      swap1\n      pop\n      dup1\n      0x00\n      add\n      dup1\n      sload\n      tag_80\n      swap1\n      tag_81\n      jump\t// in\n    tag_80:\n      dup1\n      0x1f\n      add\n      0x20\n      dup1\n      swap2\n      div\n      mul\n      0x20\n      add\n      mload(0x40)\n      swap1\n      dup2\n      add\n      0x40\n      mstore\n      dup1\n      swap3\n      swap2\n      swap1\n      dup2\n      dup2\n      mstore\n      0x20\n      add\n      dup3\n      dup1\n      sload\n      tag_82\n      swap1\n      tag_81\n      jump\t// in\n    tag_82:\n      dup1\n      iszero\n      tag_83\n      jumpi\n      dup1\n      0x1f\n      lt\n      tag_84\n      jumpi\n      0x0100\n      dup1\n      dup4\n      sload\n      div\n      mul\n      dup4\n      mstore\n      swap2\n      0x20\n      add\n      swap2\n      jump(tag_83)\n    tag_84:\n      dup3\n      add\n      swap2\n      swap1\n      0x00\n      mstore\n      keccak256(0x00, 0x20)\n      swap1\n    tag_85:\n      dup2\n      sload\n      dup2\n      mstore\n      swap1\n      0x01\n      add\n      swap1\n      0x20\n      add\n      dup1\n      dup4\n      gt\n      tag_85\n      jumpi\n      dup3\n      swap1\n      sub\n      0x1f\n      and\n      dup3\n      add\n      swap2\n    tag_83:\n      pop\n      pop\n      pop\n      pop\n      pop\n      swap1\n      dup1\n      0x01\n      add\n      0x00\n      swap1\n      sload\n      swap1\n      0x0100\n      exp\n      swap1\n      div\n      0xffffffffffffffffffffffffffffffffffffffff\n      and\n      swap1\n      dup1\n      0x02\n      add\n      sload\n      swap1\n      dup1\n      0x03\n      add\n      0x00\n      swap1\n      sload\n      swap1\n      0x0100\n      exp\n      swap1\n      div\n      0xff\n      and\n      swap1\n      dup1\n      0x04\n      add\n      sload\n      swap1\n      pop\n      dup6\n      jump\t// out\n        /* \"contracts/crowdfunding.sol\":399:430  uint public minimumContribution */\n    tag_47:\n      sload(0x03)\n      dup2\n      jump\t// out\n        /* \"contracts/crowdfunding.sol\":2665:3261  function getRefund() public{\r... */\n    tag_51:\n        /* \"contracts/crowdfunding.sol\":2787:2795  deadline */\n      sload(0x04)\n        /* \"contracts/crowdfunding.sol\":2769:2784  block.timestamp */\n      timestamp\n        /* \"contracts/crowdfunding.sol\":2769:2795  block.timestamp > deadline */\n      gt\n        /* \"contracts/crowdfunding.sol\":2769:2818  block.timestamp > deadline && raisedAmount < goal */\n      dup1\n      iszero\n      tag_87\n      jumpi\n      pop\n        /* \"contracts/crowdfunding.sol\":2814:2818  goal */\n      sload(0x05)\n        /* \"contracts/crowdfunding.sol\":2799:2811  raisedAmount */\n      sload(0x06)\n        /* \"contracts/crowdfunding.sol\":2799:2818  raisedAmount < goal */\n      lt\n        /* \"contracts/crowdfunding.sol\":2769:2818  block.timestamp > deadline && raisedAmount < goal */\n    tag_87:\n        /* \"contracts/crowdfunding.sol\":2761:2819  require(block.timestamp > deadline && raisedAmount < goal) */\n      tag_88\n      jumpi\n      0x00\n      dup1\n      revert\n    tag_88:\n        /* \"contracts/crowdfunding.sol\":2909:2910  0 */\n      0x00\n        /* \"contracts/crowdfunding.sol\":2882:2894  contributors */\n      dup1\n        /* \"contracts/crowdfunding.sol\":2882:2906  contributors[msg.sender] */\n      0x00\n        /* \"contracts/crowdfunding.sol\":2895:2905  msg.sender */\n      caller\n        /* \"contracts/crowdfunding.sol\":2882:2906  contributors[msg.sender] */\n      0xffffffffffffffffffffffffffffffffffffffff\n      and\n      0xffffffffffffffffffffffffffffffffffffffff\n      and\n      dup2\n      mstore\n      0x20\n      add\n      swap1\n      dup2\n      mstore\n      0x20\n      add\n      0x00\n      keccak256\n      sload\n        /* \"contracts/crowdfunding.sol\":2882:2910  contributors[msg.sender] > 0 */\n      gt\n        /* \"contracts/crowdfunding.sol\":2874:2911  require(contributors[msg.sender] > 0) */\n      tag_89\n      jumpi\n      0x00\n      dup1\n      revert\n    tag_89:\n        /* \"contracts/crowdfunding.sol\":2953:2978  address payable recipient */\n      0x00\n        /* \"contracts/crowdfunding.sol\":2989:2999  msg.sender */\n      caller\n        /* \"contracts/crowdfunding.sol\":2953:3000  address payable recipient = payable(msg.sender) */\n      swap1\n      pop\n        /* \"contracts/crowdfunding.sol\":3047:3057  uint value */\n      0x00\n        /* \"contracts/crowdfunding.sol\":3060:3072  contributors */\n      dup1\n        /* \"contracts/crowdfunding.sol\":3060:3084  contributors[msg.sender] */\n      0x00\n        /* \"contracts/crowdfunding.sol\":3073:3083  msg.sender */\n      caller\n        /* \"contracts/crowdfunding.sol\":3060:3084  contributors[msg.sender] */\n      0xffffffffffffffffffffffffffffffffffffffff\n      and\n      0xffffffffffffffffffffffffffffffffffffffff\n      and\n      dup2\n      mstore\n      0x20\n      add\n      swap1\n      dup2\n      mstore\n      0x20\n      add\n      0x00\n      keccak256\n      sload\n        /* \"contracts/crowdfunding.sol\":3047:3084  uint value = contributors[msg.sender] */\n      swap1\n      pop\n        /* \"contracts/crowdfunding.sol\":3143:3152  recipient */\n      dup2\n        /* \"contracts/crowdfunding.sol\":3143:3161  recipient.transfer */\n      0xffffffffffffffffffffffffffffffffffffffff\n      and\n        /* \"contracts/crowdfunding.sol\":3143:3168  recipient.transfer(value) */\n      0x08fc\n        /* \"contracts/crowdfunding.sol\":3162:3167  value */\n      dup3\n        /* \"contracts/crowdfunding.sol\":3143:3168  recipient.transfer(value) */\n      swap1\n      dup2\n      iszero\n      mul\n      swap1\n      mload(0x40)\n      0x00\n      mload(0x40)\n      dup1\n      dup4\n      sub\n      dup2\n      dup6\n      dup9\n      dup9\n      call\n      swap4\n      pop\n      pop\n      pop\n      pop\n      iszero\n      dup1\n      iszero\n      tag_91\n      jumpi\n      returndatasize\n      0x00\n      dup1\n      returndatacopy\n      revert(0x00, returndatasize)\n    tag_91:\n      pop\n        /* \"contracts/crowdfunding.sol\":3250:3251  0 */\n      0x00\n        /* \"contracts/crowdfunding.sol\":3223:3235  contributors */\n      dup1\n        /* \"contracts/crowdfunding.sol\":3223:3247  contributors[msg.sender] */\n      0x00\n        /* \"contracts/crowdfunding.sol\":3236:3246  msg.sender */\n      caller\n        /* \"contracts/crowdfunding.sol\":3223:3247  contributors[msg.sender] */\n      0xffffffffffffffffffffffffffffffffffffffff\n      and\n      0xffffffffffffffffffffffffffffffffffffffff\n      and\n      dup2\n      mstore\n      0x20\n      add\n      swap1\n      dup2\n      mstore\n      0x20\n      add\n      0x00\n      keccak256\n        /* \"contracts/crowdfunding.sol\":3223:3251  contributors[msg.sender] = 0 */\n      dup2\n      swap1\n      sstore\n      pop\n        /* \"contracts/crowdfunding.sol\":2692:3261  {\r... */\n      pop\n      pop\n        /* \"contracts/crowdfunding.sol\":2665:3261  function getRefund() public{\r... */\n      jump\t// out\n        /* \"contracts/crowdfunding.sol\":544:568  uint public raisedAmount */\n    tag_54:\n      sload(0x06)\n      dup2\n      jump\t// out\n        /* \"contracts/crowdfunding.sol\":360:390  uint public numberContributors */\n    tag_59:\n      sload(0x02)\n      dup2\n      jump\t// out\n        /* \"contracts/crowdfunding.sol\":275:295  address public admin */\n    tag_63:\n      0x01\n      0x00\n      swap1\n      sload\n      swap1\n      0x0100\n      exp\n      swap1\n      div\n      0xffffffffffffffffffffffffffffffffffffffff\n      and\n      dup2\n      jump\t// out\n        /* \"#utility.yul\":7:146   */\n    tag_93:\n        /* \"#utility.yul\":53:58   */\n      0x00\n        /* \"#utility.yul\":91:97   */\n      dup2\n        /* \"#utility.yul\":78:98   */\n      calldataload\n        /* \"#utility.yul\":69:98   */\n      swap1\n      pop\n        /* \"#utility.yul\":107:140   */\n      tag_95\n        /* \"#utility.yul\":134:139   */\n      dup2\n        /* \"#utility.yul\":107:140   */\n      tag_96\n      jump\t// in\n    tag_95:\n        /* \"#utility.yul\":7:146   */\n      swap3\n      swap2\n      pop\n      pop\n      jump\t// out\n        /* \"#utility.yul\":152:291   */\n    tag_97:\n        /* \"#utility.yul\":198:203   */\n      0x00\n        /* \"#utility.yul\":236:242   */\n      dup2\n        /* \"#utility.yul\":223:243   */\n      calldataload\n        /* \"#utility.yul\":214:243   */\n      swap1\n      pop\n        /* \"#utility.yul\":252:285   */\n      tag_99\n        /* \"#utility.yul\":279:284   */\n      dup2\n        /* \"#utility.yul\":252:285   */\n      tag_100\n      jump\t// in\n    tag_99:\n        /* \"#utility.yul\":152:291   */\n      swap3\n      swap2\n      pop\n      pop\n      jump\t// out\n        /* \"#utility.yul\":297:626   */\n    tag_27:\n        /* \"#utility.yul\":356:362   */\n      0x00\n        /* \"#utility.yul\":405:407   */\n      0x20\n        /* \"#utility.yul\":393:402   */\n      dup3\n        /* \"#utility.yul\":384:391   */\n      dup5\n        /* \"#utility.yul\":380:403   */\n      sub\n        /* \"#utility.yul\":376:408   */\n      slt\n        /* \"#utility.yul\":373:492   */\n      iszero\n      tag_102\n      jumpi\n        /* \"#utility.yul\":411:490   */\n      tag_103\n      tag_104\n      jump\t// in\n    tag_103:\n        /* \"#utility.yul\":373:492   */\n    tag_102:\n        /* \"#utility.yul\":531:532   */\n      0x00\n        /* \"#utility.yul\":556:609   */\n      tag_105\n        /* \"#utility.yul\":601:608   */\n      dup5\n        /* \"#utility.yul\":592:598   */\n      dup3\n        /* \"#utility.yul\":581:590   */\n      dup6\n        /* \"#utility.yul\":577:599   */\n      add\n        /* \"#utility.yul\":556:609   */\n      tag_93\n      jump\t// in\n    tag_105:\n        /* \"#utility.yul\":546:609   */\n      swap2\n      pop\n        /* \"#utility.yul\":502:619   */\n      pop\n        /* \"#utility.yul\":297:626   */\n      swap3\n      swap2\n      pop\n      pop\n      jump\t// out\n        /* \"#utility.yul\":632:961   */\n    tag_41:\n        /* \"#utility.yul\":691:697   */\n      0x00\n        /* \"#utility.yul\":740:742   */\n      0x20\n        /* \"#utility.yul\":728:737   */\n      dup3\n        /* \"#utility.yul\":719:726   */\n      dup5\n        /* \"#utility.yul\":715:738   */\n      sub\n        /* \"#utility.yul\":711:743   */\n      slt\n        /* \"#utility.yul\":708:827   */\n      iszero\n      tag_107\n      jumpi\n        /* \"#utility.yul\":746:825   */\n      tag_108\n      tag_104\n      jump\t// in\n    tag_108:\n        /* \"#utility.yul\":708:827   */\n    tag_107:\n        /* \"#utility.yul\":866:867   */\n      0x00\n        /* \"#utility.yul\":891:944   */\n      tag_109\n        /* \"#utility.yul\":936:943   */\n      dup5\n        /* \"#utility.yul\":927:933   */\n      dup3\n        /* \"#utility.yul\":916:925   */\n      dup6\n        /* \"#utility.yul\":912:934   */\n      add\n        /* \"#utility.yul\":891:944   */\n      tag_97\n      jump\t// in\n    tag_109:\n        /* \"#utility.yul\":881:944   */\n      swap2\n      pop\n        /* \"#utility.yul\":837:954   */\n      pop\n        /* \"#utility.yul\":632:961   */\n      swap3\n      swap2\n      pop\n      pop\n      jump\t// out\n        /* \"#utility.yul\":967:1109   */\n    tag_110:\n        /* \"#utility.yul\":1070:1102   */\n      tag_112\n        /* \"#utility.yul\":1096:1101   */\n      dup2\n        /* \"#utility.yul\":1070:1102   */\n      tag_113\n      jump\t// in\n    tag_112:\n        /* \"#utility.yul\":1065:1068   */\n      dup3\n        /* \"#utility.yul\":1058:1103   */\n      mstore\n        /* \"#utility.yul\":967:1109   */\n      pop\n      pop\n      jump\t// out\n        /* \"#utility.yul\":1115:1233   */\n    tag_114:\n        /* \"#utility.yul\":1202:1226   */\n      tag_116\n        /* \"#utility.yul\":1220:1225   */\n      dup2\n        /* \"#utility.yul\":1202:1226   */\n      tag_117\n      jump\t// in\n    tag_116:\n        /* \"#utility.yul\":1197:1200   */\n      dup3\n        /* \"#utility.yul\":1190:1227   */\n      mstore\n        /* \"#utility.yul\":1115:1233   */\n      pop\n      pop\n      jump\t// out\n        /* \"#utility.yul\":1239:1348   */\n    tag_118:\n        /* \"#utility.yul\":1320:1341   */\n      tag_120\n        /* \"#utility.yul\":1335:1340   */\n      dup2\n        /* \"#utility.yul\":1320:1341   */\n      tag_121\n      jump\t// in\n    tag_120:\n        /* \"#utility.yul\":1315:1318   */\n      dup3\n        /* \"#utility.yul\":1308:1342   */\n      mstore\n        /* \"#utility.yul\":1239:1348   */\n      pop\n      pop\n      jump\t// out\n        /* \"#utility.yul\":1354:1718   */\n    tag_122:\n        /* \"#utility.yul\":1442:1445   */\n      0x00\n        /* \"#utility.yul\":1470:1509   */\n      tag_124\n        /* \"#utility.yul\":1503:1508   */\n      dup3\n        /* \"#utility.yul\":1470:1509   */\n      tag_125\n      jump\t// in\n    tag_124:\n        /* \"#utility.yul\":1525:1596   */\n      tag_126\n        /* \"#utility.yul\":1589:1595   */\n      dup2\n        /* \"#utility.yul\":1584:1587   */\n      dup6\n        /* \"#utility.yul\":1525:1596   */\n      tag_127\n      jump\t// in\n    tag_126:\n        /* \"#utility.yul\":1518:1596   */\n      swap4\n      pop\n        /* \"#utility.yul\":1605:1657   */\n      tag_128\n        /* \"#utility.yul\":1650:1656   */\n      dup2\n        /* \"#utility.yul\":1645:1648   */\n      dup6\n        /* \"#utility.yul\":1638:1642   */\n      0x20\n        /* \"#utility.yul\":1631:1636   */\n      dup7\n        /* \"#utility.yul\":1627:1643   */\n      add\n        /* \"#utility.yul\":1605:1657   */\n      tag_129\n      jump\t// in\n    tag_128:\n        /* \"#utility.yul\":1682:1711   */\n      tag_130\n        /* \"#utility.yul\":1704:1710   */\n      dup2\n        /* \"#utility.yul\":1682:1711   */\n      tag_131\n      jump\t// in\n    tag_130:\n        /* \"#utility.yul\":1677:1680   */\n      dup5\n        /* \"#utility.yul\":1673:1712   */\n      add\n        /* \"#utility.yul\":1666:1712   */\n      swap2\n      pop\n        /* \"#utility.yul\":1446:1718   */\n      pop\n        /* \"#utility.yul\":1354:1718   */\n      swap3\n      swap2\n      pop\n      pop\n      jump\t// out\n        /* \"#utility.yul\":1724:2090   */\n    tag_132:\n        /* \"#utility.yul\":1866:1869   */\n      0x00\n        /* \"#utility.yul\":1887:1954   */\n      tag_134\n        /* \"#utility.yul\":1951:1953   */\n      0x14\n        /* \"#utility.yul\":1946:1949   */\n      dup4\n        /* \"#utility.yul\":1887:1954   */\n      tag_127\n      jump\t// in\n    tag_134:\n        /* \"#utility.yul\":1880:1954   */\n      swap2\n      pop\n        /* \"#utility.yul\":1963:2056   */\n      tag_135\n        /* \"#utility.yul\":2052:2055   */\n      dup3\n        /* \"#utility.yul\":1963:2056   */\n      tag_136\n      jump\t// in\n    tag_135:\n        /* \"#utility.yul\":2081:2083   */\n      0x20\n        /* \"#utility.yul\":2076:2079   */\n      dup3\n        /* \"#utility.yul\":2072:2084   */\n      add\n        /* \"#utility.yul\":2065:2084   */\n      swap1\n      pop\n        /* \"#utility.yul\":1724:2090   */\n      swap2\n      swap1\n      pop\n      jump\t// out\n        /* \"#utility.yul\":2096:2462   */\n    tag_137:\n        /* \"#utility.yul\":2238:2241   */\n      0x00\n        /* \"#utility.yul\":2259:2326   */\n      tag_139\n        /* \"#utility.yul\":2323:2325   */\n      0x1d\n        /* \"#utility.yul\":2318:2321   */\n      dup4\n        /* \"#utility.yul\":2259:2326   */\n      tag_127\n      jump\t// in\n    tag_139:\n        /* \"#utility.yul\":2252:2326   */\n      swap2\n      pop\n        /* \"#utility.yul\":2335:2428   */\n      tag_140\n        /* \"#utility.yul\":2424:2427   */\n      dup3\n        /* \"#utility.yul\":2335:2428   */\n      tag_141\n      jump\t// in\n    tag_140:\n        /* \"#utility.yul\":2453:2455   */\n      0x20\n        /* \"#utility.yul\":2448:2451   */\n      dup3\n        /* \"#utility.yul\":2444:2456   */\n      add\n        /* \"#utility.yul\":2437:2456   */\n      swap1\n      pop\n        /* \"#utility.yul\":2096:2462   */\n      swap2\n      swap1\n      pop\n      jump\t// out\n        /* \"#utility.yul\":2468:2586   */\n    tag_142:\n        /* \"#utility.yul\":2555:2579   */\n      tag_144\n        /* \"#utility.yul\":2573:2578   */\n      dup2\n        /* \"#utility.yul\":2555:2579   */\n      tag_145\n      jump\t// in\n    tag_144:\n        /* \"#utility.yul\":2550:2553   */\n      dup3\n        /* \"#utility.yul\":2543:2580   */\n      mstore\n        /* \"#utility.yul\":2468:2586   */\n      pop\n      pop\n      jump\t// out\n        /* \"#utility.yul\":2592:2814   */\n    tag_65:\n        /* \"#utility.yul\":2685:2689   */\n      0x00\n        /* \"#utility.yul\":2723:2725   */\n      0x20\n        /* \"#utility.yul\":2712:2721   */\n      dup3\n        /* \"#utility.yul\":2708:2726   */\n      add\n        /* \"#utility.yul\":2700:2726   */\n      swap1\n      pop\n        /* \"#utility.yul\":2736:2807   */\n      tag_147\n        /* \"#utility.yul\":2804:2805   */\n      0x00\n        /* \"#utility.yul\":2793:2802   */\n      dup4\n        /* \"#utility.yul\":2789:2806   */\n      add\n        /* \"#utility.yul\":2780:2786   */\n      dup5\n        /* \"#utility.yul\":2736:2807   */\n      tag_114\n      jump\t// in\n    tag_147:\n        /* \"#utility.yul\":2592:2814   */\n      swap3\n      swap2\n      pop\n      pop\n      jump\t// out\n        /* \"#utility.yul\":2820:3595   */\n    tag_44:\n        /* \"#utility.yul\":3055:3059   */\n      0x00\n        /* \"#utility.yul\":3093:3096   */\n      0xa0\n        /* \"#utility.yul\":3082:3091   */\n      dup3\n        /* \"#utility.yul\":3078:3097   */\n      add\n        /* \"#utility.yul\":3070:3097   */\n      swap1\n      pop\n        /* \"#utility.yul\":3143:3152   */\n      dup2\n        /* \"#utility.yul\":3137:3141   */\n      dup2\n        /* \"#utility.yul\":3133:3153   */\n      sub\n        /* \"#utility.yul\":3129:3130   */\n      0x00\n        /* \"#utility.yul\":3118:3127   */\n      dup4\n        /* \"#utility.yul\":3114:3131   */\n      add\n        /* \"#utility.yul\":3107:3154   */\n      mstore\n        /* \"#utility.yul\":3171:3249   */\n      tag_149\n        /* \"#utility.yul\":3244:3248   */\n      dup2\n        /* \"#utility.yul\":3235:3241   */\n      dup9\n        /* \"#utility.yul\":3171:3249   */\n      tag_122\n      jump\t// in\n    tag_149:\n        /* \"#utility.yul\":3163:3249   */\n      swap1\n      pop\n        /* \"#utility.yul\":3259:3347   */\n      tag_150\n        /* \"#utility.yul\":3343:3345   */\n      0x20\n        /* \"#utility.yul\":3332:3341   */\n      dup4\n        /* \"#utility.yul\":3328:3346   */\n      add\n        /* \"#utility.yul\":3319:3325   */\n      dup8\n        /* \"#utility.yul\":3259:3347   */\n      tag_110\n      jump\t// in\n    tag_150:\n        /* \"#utility.yul\":3357:3429   */\n      tag_151\n        /* \"#utility.yul\":3425:3427   */\n      0x40\n        /* \"#utility.yul\":3414:3423   */\n      dup4\n        /* \"#utility.yul\":3410:3428   */\n      add\n        /* \"#utility.yul\":3401:3407   */\n      dup7\n        /* \"#utility.yul\":3357:3429   */\n      tag_142\n      jump\t// in\n    tag_151:\n        /* \"#utility.yul\":3439:3505   */\n      tag_152\n        /* \"#utility.yul\":3501:3503   */\n      0x60\n        /* \"#utility.yul\":3490:3499   */\n      dup4\n        /* \"#utility.yul\":3486:3504   */\n      add\n        /* \"#utility.yul\":3477:3483   */\n      dup6\n        /* \"#utility.yul\":3439:3505   */\n      tag_118\n      jump\t// in\n    tag_152:\n        /* \"#utility.yul\":3515:3588   */\n      tag_153\n        /* \"#utility.yul\":3583:3586   */\n      0x80\n        /* \"#utility.yul\":3572:3581   */\n      dup4\n        /* \"#utility.yul\":3568:3587   */\n      add\n        /* \"#utility.yul\":3559:3565   */\n      dup5\n        /* \"#utility.yul\":3515:3588   */\n      tag_142\n      jump\t// in\n    tag_153:\n        /* \"#utility.yul\":2820:3595   */\n      swap7\n      swap6\n      pop\n      pop\n      pop\n      pop\n      pop\n      pop\n      jump\t// out\n        /* \"#utility.yul\":3601:4020   */\n    tag_69:\n        /* \"#utility.yul\":3767:3771   */\n      0x00\n        /* \"#utility.yul\":3805:3807   */\n      0x20\n        /* \"#utility.yul\":3794:3803   */\n      dup3\n        /* \"#utility.yul\":3790:3808   */\n      add\n        /* \"#utility.yul\":3782:3808   */\n      swap1\n      pop\n        /* \"#utility.yul\":3854:3863   */\n      dup2\n        /* \"#utility.yul\":3848:3852   */\n      dup2\n        /* \"#utility.yul\":3844:3864   */\n      sub\n        /* \"#utility.yul\":3840:3841   */\n      0x00\n        /* \"#utility.yul\":3829:3838   */\n      dup4\n        /* \"#utility.yul\":3825:3842   */\n      add\n        /* \"#utility.yul\":3818:3865   */\n      mstore\n        /* \"#utility.yul\":3882:4013   */\n      tag_155\n        /* \"#utility.yul\":4008:4012   */\n      dup2\n        /* \"#utility.yul\":3882:4013   */\n      tag_132\n      jump\t// in\n    tag_155:\n        /* \"#utility.yul\":3874:4013   */\n      swap1\n      pop\n        /* \"#utility.yul\":3601:4020   */\n      swap2\n      swap1\n      pop\n      jump\t// out\n        /* \"#utility.yul\":4026:4445   */\n    tag_72:\n        /* \"#utility.yul\":4192:4196   */\n      0x00\n        /* \"#utility.yul\":4230:4232   */\n      0x20\n        /* \"#utility.yul\":4219:4228   */\n      dup3\n        /* \"#utility.yul\":4215:4233   */\n      add\n        /* \"#utility.yul\":4207:4233   */\n      swap1\n      pop\n        /* \"#utility.yul\":4279:4288   */\n      dup2\n        /* \"#utility.yul\":4273:4277   */\n      dup2\n        /* \"#utility.yul\":4269:4289   */\n      sub\n        /* \"#utility.yul\":4265:4266   */\n      0x00\n        /* \"#utility.yul\":4254:4263   */\n      dup4\n        /* \"#utility.yul\":4250:4267   */\n      add\n        /* \"#utility.yul\":4243:4290   */\n      mstore\n        /* \"#utility.yul\":4307:4438   */\n      tag_157\n        /* \"#utility.yul\":4433:4437   */\n      dup2\n        /* \"#utility.yul\":4307:4438   */\n      tag_137\n      jump\t// in\n    tag_157:\n        /* \"#utility.yul\":4299:4438   */\n      swap1\n      pop\n        /* \"#utility.yul\":4026:4445   */\n      swap2\n      swap1\n      pop\n      jump\t// out\n        /* \"#utility.yul\":4451:4673   */\n    tag_23:\n        /* \"#utility.yul\":4544:4548   */\n      0x00\n        /* \"#utility.yul\":4582:4584   */\n      0x20\n        /* \"#utility.yul\":4571:4580   */\n      dup3\n        /* \"#utility.yul\":4567:4585   */\n      add\n        /* \"#utility.yul\":4559:4585   */\n      swap1\n      pop\n        /* \"#utility.yul\":4595:4666   */\n      tag_159\n        /* \"#utility.yul\":4663:4664   */\n      0x00\n        /* \"#utility.yul\":4652:4661   */\n      dup4\n        /* \"#utility.yul\":4648:4665   */\n      add\n        /* \"#utility.yul\":4639:4645   */\n      dup5\n        /* \"#utility.yul\":4595:4666   */\n      tag_142\n      jump\t// in\n    tag_159:\n        /* \"#utility.yul\":4451:4673   */\n      swap3\n      swap2\n      pop\n      pop\n      jump\t// out\n        /* \"#utility.yul\":4760:4859   */\n    tag_125:\n        /* \"#utility.yul\":4812:4818   */\n      0x00\n        /* \"#utility.yul\":4846:4851   */\n      dup2\n        /* \"#utility.yul\":4840:4852   */\n      mload\n        /* \"#utility.yul\":4830:4852   */\n      swap1\n      pop\n        /* \"#utility.yul\":4760:4859   */\n      swap2\n      swap1\n      pop\n      jump\t// out\n        /* \"#utility.yul\":4865:5034   */\n    tag_127:\n        /* \"#utility.yul\":4949:4960   */\n      0x00\n        /* \"#utility.yul\":4983:4989   */\n      dup3\n        /* \"#utility.yul\":4978:4981   */\n      dup3\n        /* \"#utility.yul\":4971:4990   */\n      mstore\n        /* \"#utility.yul\":5023:5027   */\n      0x20\n        /* \"#utility.yul\":5018:5021   */\n      dup3\n        /* \"#utility.yul\":5014:5028   */\n      add\n        /* \"#utility.yul\":4999:5028   */\n      swap1\n      pop\n        /* \"#utility.yul\":4865:5034   */\n      swap3\n      swap2\n      pop\n      pop\n      jump\t// out\n        /* \"#utility.yul\":5040:5345   */\n    tag_77:\n        /* \"#utility.yul\":5080:5083   */\n      0x00\n        /* \"#utility.yul\":5099:5119   */\n      tag_165\n        /* \"#utility.yul\":5117:5118   */\n      dup3\n        /* \"#utility.yul\":5099:5119   */\n      tag_145\n      jump\t// in\n    tag_165:\n        /* \"#utility.yul\":5094:5119   */\n      swap2\n      pop\n        /* \"#utility.yul\":5133:5153   */\n      tag_166\n        /* \"#utility.yul\":5151:5152   */\n      dup4\n        /* \"#utility.yul\":5133:5153   */\n      tag_145\n      jump\t// in\n    tag_166:\n        /* \"#utility.yul\":5128:5153   */\n      swap3\n      pop\n        /* \"#utility.yul\":5287:5288   */\n      dup3\n        /* \"#utility.yul\":5219:5285   */\n      0xffffffffffffffffffffffffffffffffffffffffffffffffffffffffffffffff\n        /* \"#utility.yul\":5215:5289   */\n      sub\n        /* \"#utility.yul\":5212:5213   */\n      dup3\n        /* \"#utility.yul\":5209:5290   */\n      gt\n        /* \"#utility.yul\":5206:5313   */\n      iszero\n      tag_167\n      jumpi\n        /* \"#utility.yul\":5293:5311   */\n      tag_168\n      tag_169\n      jump\t// in\n    tag_168:\n        /* \"#utility.yul\":5206:5313   */\n    tag_167:\n        /* \"#utility.yul\":5337:5338   */\n      dup3\n        /* \"#utility.yul\":5334:5335   */\n      dup3\n        /* \"#utility.yul\":5330:5339   */\n      add\n        /* \"#utility.yul\":5323:5339   */\n      swap1\n      pop\n        /* \"#utility.yul\":5040:5345   */\n      swap3\n      swap2\n      pop\n      pop\n      jump\t// out\n        /* \"#utility.yul\":5351:5447   */\n    tag_117:\n        /* \"#utility.yul\":5388:5395   */\n      0x00\n        /* \"#utility.yul\":5417:5441   */\n      tag_171\n        /* \"#utility.yul\":5435:5440   */\n      dup3\n        /* \"#utility.yul\":5417:5441   */\n      tag_172\n      jump\t// in\n    tag_171:\n        /* \"#utility.yul\":5406:5441   */\n      swap1\n      pop\n        /* \"#utility.yul\":5351:5447   */\n      swap2\n      swap1\n      pop\n      jump\t// out\n        /* \"#utility.yul\":5453:5557   */\n    tag_113:\n        /* \"#utility.yul\":5498:5505   */\n      0x00\n        /* \"#utility.yul\":5527:5551   */\n      tag_174\n        /* \"#utility.yul\":5545:5550   */\n      dup3\n        /* \"#utility.yul\":5527:5551   */\n      tag_172\n      jump\t// in\n    tag_174:\n        /* \"#utility.yul\":5516:5551   */\n      swap1\n      pop\n        /* \"#utility.yul\":5453:5557   */\n      swap2\n      swap1\n      pop\n      jump\t// out\n        /* \"#utility.yul\":5563:5653   */\n    tag_121:\n        /* \"#utility.yul\":5597:5604   */\n      0x00\n        /* \"#utility.yul\":5640:5645   */\n      dup2\n        /* \"#utility.yul\":5633:5646   */\n      iszero\n        /* \"#utility.yul\":5626:5647   */\n      iszero\n        /* \"#utility.yul\":5615:5647   */\n      swap1\n      pop\n        /* \"#utility.yul\":5563:5653   */\n      swap2\n      swap1\n      pop\n      jump\t// out\n        /* \"#utility.yul\":5659:5785   */\n    tag_172:\n        /* \"#utility.yul\":5696:5703   */\n      0x00\n        /* \"#utility.yul\":5736:5778   */\n      0xffffffffffffffffffffffffffffffffffffffff\n        /* \"#utility.yul\":5729:5734   */\n      dup3\n        /* \"#utility.yul\":5725:5779   */\n      and\n        /* \"#utility.yul\":5714:5779   */\n      swap1\n      pop\n        /* \"#utility.yul\":5659:5785   */\n      swap2\n      swap1\n      pop\n      jump\t// out\n        /* \"#utility.yul\":5791:5868   */\n    tag_145:\n        /* \"#utility.yul\":5828:5835   */\n      0x00\n        /* \"#utility.yul\":5857:5862   */\n      dup2\n        /* \"#utility.yul\":5846:5862   */\n      swap1\n      pop\n        /* \"#utility.yul\":5791:5868   */\n      swap2\n      swap1\n      pop\n      jump\t// out\n        /* \"#utility.yul\":5874:6181   */\n    tag_129:\n        /* \"#utility.yul\":5942:5943   */\n      0x00\n        /* \"#utility.yul\":5952:6065   */\n    tag_179:\n        /* \"#utility.yul\":5966:5972   */\n      dup4\n        /* \"#utility.yul\":5963:5964   */\n      dup2\n        /* \"#utility.yul\":5960:5973   */\n      lt\n        /* \"#utility.yul\":5952:6065   */\n      iszero\n      tag_181\n      jumpi\n        /* \"#utility.yul\":6051:6052   */\n      dup1\n        /* \"#utility.yul\":6046:6049   */\n      dup3\n        /* \"#utility.yul\":6042:6053   */\n      add\n        /* \"#utility.yul\":6036:6054   */\n      mload\n        /* \"#utility.yul\":6032:6033   */\n      dup2\n        /* \"#utility.yul\":6027:6030   */\n      dup5\n        /* \"#utility.yul\":6023:6034   */\n      add\n        /* \"#utility.yul\":6016:6055   */\n      mstore\n        /* \"#utility.yul\":5988:5990   */\n      0x20\n        /* \"#utility.yul\":5985:5986   */\n      dup2\n        /* \"#utility.yul\":5981:5991   */\n      add\n        /* \"#utility.yul\":5976:5991   */\n      swap1\n      pop\n        /* \"#utility.yul\":5952:6065   */\n      jump(tag_179)\n    tag_181:\n        /* \"#utility.yul\":6083:6089   */\n      dup4\n        /* \"#utility.yul\":6080:6081   */\n      dup2\n        /* \"#utility.yul\":6077:6090   */\n      gt\n        /* \"#utility.yul\":6074:6175   */\n      iszero\n      tag_182\n      jumpi\n        /* \"#utility.yul\":6163:6164   */\n      0x00\n        /* \"#utility.yul\":6154:6160   */\n      dup5\n        /* \"#utility.yul\":6149:6152   */\n      dup5\n        /* \"#utility.yul\":6145:6161   */\n      add\n        /* \"#utility.yul\":6138:6165   */\n      mstore\n        /* \"#utility.yul\":6074:6175   */\n    tag_182:\n        /* \"#utility.yul\":5923:6181   */\n      pop\n        /* \"#utility.yul\":5874:6181   */\n      pop\n      pop\n      pop\n      jump\t// out\n        /* \"#utility.yul\":6187:6507   */\n    tag_81:\n        /* \"#utility.yul\":6231:6237   */\n      0x00\n        /* \"#utility.yul\":6268:6269   */\n      0x02\n        /* \"#utility.yul\":6262:6266   */\n      dup3\n        /* \"#utility.yul\":6258:6270   */\n      div\n        /* \"#utility.yul\":6248:6270   */\n      swap1\n      pop\n        /* \"#utility.yul\":6315:6316   */\n      0x01\n        /* \"#utility.yul\":6309:6313   */\n      dup3\n        /* \"#utility.yul\":6305:6317   */\n      and\n        /* \"#utility.yul\":6336:6354   */\n      dup1\n        /* \"#utility.yul\":6326:6407   */\n      tag_184\n      jumpi\n        /* \"#utility.yul\":6392:6396   */\n      0x7f\n        /* \"#utility.yul\":6384:6390   */\n      dup3\n        /* \"#utility.yul\":6380:6397   */\n      and\n        /* \"#utility.yul\":6370:6397   */\n      swap2\n      pop\n        /* \"#utility.yul\":6326:6407   */\n    tag_184:\n        /* \"#utility.yul\":6454:6456   */\n      0x20\n        /* \"#utility.yul\":6446:6452   */\n      dup3\n        /* \"#utility.yul\":6443:6457   */\n      lt\n        /* \"#utility.yul\":6423:6441   */\n      dup2\n        /* \"#utility.yul\":6420:6458   */\n      eq\n        /* \"#utility.yul\":6417:6501   */\n      iszero\n      tag_185\n      jumpi\n        /* \"#utility.yul\":6473:6491   */\n      tag_186\n      tag_187\n      jump\t// in\n    tag_186:\n        /* \"#utility.yul\":6417:6501   */\n    tag_185:\n        /* \"#utility.yul\":6238:6507   */\n      pop\n        /* \"#utility.yul\":6187:6507   */\n      swap2\n      swap1\n      pop\n      jump\t// out\n        /* \"#utility.yul\":6513:6746   */\n    tag_75:\n        /* \"#utility.yul\":6552:6555   */\n      0x00\n        /* \"#utility.yul\":6575:6599   */\n      tag_189\n        /* \"#utility.yul\":6593:6598   */\n      dup3\n        /* \"#utility.yul\":6575:6599   */\n      tag_145\n      jump\t// in\n    tag_189:\n        /* \"#utility.yul\":6566:6599   */\n      swap2\n      pop\n        /* \"#utility.yul\":6621:6687   */\n      0xffffffffffffffffffffffffffffffffffffffffffffffffffffffffffffffff\n        /* \"#utility.yul\":6614:6619   */\n      dup3\n        /* \"#utility.yul\":6611:6688   */\n      eq\n        /* \"#utility.yul\":6608:6711   */\n      iszero\n      tag_190\n      jumpi\n        /* \"#utility.yul\":6691:6709   */\n      tag_191\n      tag_169\n      jump\t// in\n    tag_191:\n        /* \"#utility.yul\":6608:6711   */\n    tag_190:\n        /* \"#utility.yul\":6738:6739   */\n      0x01\n        /* \"#utility.yul\":6731:6736   */\n      dup3\n        /* \"#utility.yul\":6727:6740   */\n      add\n        /* \"#utility.yul\":6720:6740   */\n      swap1\n      pop\n        /* \"#utility.yul\":6513:6746   */\n      swap2\n      swap1\n      pop\n      jump\t// out\n        /* \"#utility.yul\":6752:6932   */\n    tag_169:\n        /* \"#utility.yul\":6800:6877   */\n      0x4e487b7100000000000000000000000000000000000000000000000000000000\n        /* \"#utility.yul\":6797:6798   */\n      0x00\n        /* \"#utility.yul\":6790:6878   */\n      mstore\n        /* \"#utility.yul\":6897:6901   */\n      0x11\n        /* \"#utility.yul\":6894:6895   */\n      0x04\n        /* \"#utility.yul\":6887:6902   */\n      mstore\n        /* \"#utility.yul\":6921:6925   */\n      0x24\n        /* \"#utility.yul\":6918:6919   */\n      0x00\n        /* \"#utility.yul\":6911:6926   */\n      revert\n        /* \"#utility.yul\":6938:7118   */\n    tag_187:\n        /* \"#utility.yul\":6986:7063   */\n      0x4e487b7100000000000000000000000000000000000000000000000000000000\n        /* \"#utility.yul\":6983:6984   */\n      0x00\n        /* \"#utility.yul\":6976:7064   */\n      mstore\n        /* \"#utility.yul\":7083:7087   */\n      0x22\n        /* \"#utility.yul\":7080:7081   */\n      0x04\n        /* \"#utility.yul\":7073:7088   */\n      mstore\n        /* \"#utility.yul\":7107:7111   */\n      0x24\n        /* \"#utility.yul\":7104:7105   */\n      0x00\n        /* \"#utility.yul\":7097:7112   */\n      revert\n        /* \"#utility.yul\":7247:7364   */\n    tag_104:\n        /* \"#utility.yul\":7356:7357   */\n      0x00\n        /* \"#utility.yul\":7353:7354   */\n      dup1\n        /* \"#utility.yul\":7346:7358   */\n      revert\n        /* \"#utility.yul\":7370:7472   */\n    tag_131:\n        /* \"#utility.yul\":7411:7417   */\n      0x00\n        /* \"#utility.yul\":7462:7464   */\n      0x1f\n        /* \"#utility.yul\":7458:7465   */\n      not\n        /* \"#utility.yul\":7453:7455   */\n      0x1f\n        /* \"#utility.yul\":7446:7451   */\n      dup4\n        /* \"#utility.yul\":7442:7456   */\n      add\n        /* \"#utility.yul\":7438:7466   */\n      and\n        /* \"#utility.yul\":7428:7466   */\n      swap1\n      pop\n        /* \"#utility.yul\":7370:7472   */\n      swap2\n      swap1\n      pop\n      jump\t// out\n        /* \"#utility.yul\":7478:7648   */\n    tag_136:\n        /* \"#utility.yul\":7618:7640   */\n      0x446561646c696e6520686173207061737365642e000000000000000000000000\n        /* \"#utility.yul\":7614:7615   */\n      0x00\n        /* \"#utility.yul\":7606:7612   */\n      dup3\n        /* \"#utility.yul\":7602:7616   */\n      add\n        /* \"#utility.yul\":7595:7641   */\n      mstore\n        /* \"#utility.yul\":7478:7648   */\n      pop\n      jump\t// out\n        /* \"#utility.yul\":7654:7833   */\n    tag_141:\n        /* \"#utility.yul\":7794:7825   */\n      0x4d696e696d756d20636f6e747269627574696f6e206e6f74206d65742e000000\n        /* \"#utility.yul\":7790:7791   */\n      0x00\n        /* \"#utility.yul\":7782:7788   */\n      dup3\n        /* \"#utility.yul\":7778:7792   */\n      add\n        /* \"#utility.yul\":7771:7826   */\n      mstore\n        /* \"#utility.yul\":7654:7833   */\n      pop\n      jump\t// out\n        /* \"#utility.yul\":7839:7961   */\n    tag_96:\n        /* \"#utility.yul\":7912:7936   */\n      tag_201\n        /* \"#utility.yul\":7930:7935   */\n      dup2\n        /* \"#utility.yul\":7912:7936   */\n      tag_117\n      jump\t// in\n    tag_201:\n        /* \"#utility.yul\":7905:7910   */\n      dup2\n        /* \"#utility.yul\":7902:7937   */\n      eq\n        /* \"#utility.yul\":7892:7955   */\n      tag_202\n      jumpi\n        /* \"#utility.yul\":7951:7952   */\n      0x00\n        /* \"#utility.yul\":7948:7949   */\n      dup1\n        /* \"#utility.yul\":7941:7953   */\n      revert\n        /* \"#utility.yul\":7892:7955   */\n    tag_202:\n        /* \"#utility.yul\":7839:7961   */\n      pop\n      jump\t// out\n        /* \"#utility.yul\":7967:8089   */\n    tag_100:\n        /* \"#utility.yul\":8040:8064   */\n      tag_204\n        /* \"#utility.yul\":8058:8063   */\n      dup2\n        /* \"#utility.yul\":8040:8064   */\n      tag_145\n      jump\t// in\n    tag_204:\n        /* \"#utility.yul\":8033:8038   */\n      dup2\n        /* \"#utility.yul\":8030:8065   */\n      eq\n        /* \"#utility.yul\":8020:8083   */\n      tag_205\n      jumpi\n        /* \"#utility.yul\":8079:8080   */\n      0x00\n        /* \"#utility.yul\":8076:8077   */\n      dup1\n        /* \"#utility.yul\":8069:8081   */\n      revert\n        /* \"#utility.yul\":8020:8083   */\n    tag_205:\n        /* \"#utility.yul\":7967:8089   */\n      pop\n      jump\t// out\n\n    auxdata: 0xa2646970667358221220696eff70f3c88ca81a01215a2b492af799558f0ee3e15cc286b8468648fcf19e64736f6c63430008070033\n}\n",
				"bytecode": {
					"linkReferences": {},
					"object": "60806040523480156200001157600080fd5b5060405162000ce038038062000ce08339818101604052810190620000379190620000ba565b8160058190555080426200004c919062000101565b600481905550606460038190555033600160006101000a81548173ffffffffffffffffffffffffffffffffffffffff021916908373ffffffffffffffffffffffffffffffffffffffff1602179055505050620001b6565b600081519050620000b4816200019c565b92915050565b60008060408385031215620000d457620000d362000197565b5b6000620000e485828601620000a3565b9250506020620000f785828601620000a3565b9150509250929050565b60006200010e826200015e565b91506200011b836200015e565b9250827fffffffffffffffffffffffffffffffffffffffffffffffffffffffffffffffff0382111562000153576200015262000168565b5b828201905092915050565b6000819050919050565b7f4e487b7100000000000000000000000000000000000000000000000000000000600052601160045260246000fd5b600080fd5b620001a7816200015e565b8114620001b357600080fd5b50565b610b1a80620001c66000396000f3fe6080604052600436106100a05760003560e01c8063937e09b111610064578063937e09b1146101b3578063b2d5ae44146101de578063c59ee1dc146101f5578063d7bb99ba14610220578063f3740daf1461022a578063f851a44014610255576100af565b806312065fe0146100b45780631f6d4942146100df57806329dcb0cf1461011c578063401938831461014757806381d12c5814610172576100af565b366100af576100ad610280565b005b600080fd5b3480156100c057600080fd5b506100c96103d9565b6040516100d6919061085b565b60405180910390f35b3480156100eb57600080fd5b5061010660048036038101906101019190610691565b6103e1565b604051610113919061085b565b60405180910390f35b34801561012857600080fd5b506101316103f9565b60405161013e919061085b565b60405180910390f35b34801561015357600080fd5b5061015c6103ff565b604051610169919061085b565b60405180910390f35b34801561017e57600080fd5b50610199600480360381019061019491906106be565b610405565b6040516101aa9594939291906107c1565b60405180910390f35b3480156101bf57600080fd5b506101c86104f0565b6040516101d5919061085b565b60405180910390f35b3480156101ea57600080fd5b506101f36104f6565b005b34801561020157600080fd5b5061020a610635565b604051610217919061085b565b60405180910390f35b610228610280565b005b34801561023657600080fd5b5061023f61063b565b60405161024c919061085b565b60405180910390f35b34801561026157600080fd5b5061026a610641565b60405161027791906107a6565b60405180910390f35b60045442106102c4576040517f08c379a00000000000000000000000000000000000000000000000000000000081526004016102bb9061081b565b60405180910390fd5b600354341015610309576040517f08c379a00000000000000000000000000000000000000000000000000000000081526004016103009061083b565b60405180910390fd5b60008060003373ffffffffffffffffffffffffffffffffffffffff1673ffffffffffffffffffffffffffffffffffffffff1681526020019081526020016000205414156103695760026000815480929190610363906109a7565b91905055505b346000803373ffffffffffffffffffffffffffffffffffffffff1673ffffffffffffffffffffffffffffffffffffffff16815260200190815260200160002060008282546103b79190610892565b9250508190555034600660008282546103d09190610892565b92505081905550565b600047905090565b60006020528060005260406000206000915090505481565b60045481565b60055481565b600760205280600052604060002060009150905080600001805461042890610975565b80601f016020809104026020016040519081016040528092919081815260200182805461045490610975565b80156104a15780601f10610476576101008083540402835291602001916104a1565b820191906000526020600020905b81548152906001019060200180831161048457829003601f168201915b5050505050908060010160009054906101000a900473ffffffffffffffffffffffffffffffffffffffff16908060020154908060030160009054906101000a900460ff16908060040154905085565b60035481565b6004544211801561050a5750600554600654105b61051357600080fd5b60008060003373ffffffffffffffffffffffffffffffffffffffff1673ffffffffffffffffffffffffffffffffffffffff168152602001908152602001600020541161055e57600080fd5b600033905060008060003373ffffffffffffffffffffffffffffffffffffffff1673ffffffffffffffffffffffffffffffffffffffff1681526020019081526020016000205490508173ffffffffffffffffffffffffffffffffffffffff166108fc829081150290604051600060405180830381858888f193505050501580156105ec573d6000803e3d6000fd5b5060008060003373ffffffffffffffffffffffffffffffffffffffff1673ffffffffffffffffffffffffffffffffffffffff168152602001908152602001600020819055505050565b60065481565b60025481565b600160009054906101000a900473ffffffffffffffffffffffffffffffffffffffff1681565b60008135905061067681610ab6565b92915050565b60008135905061068b81610acd565b92915050565b6000602082840312156106a7576106a6610a4e565b5b60006106b584828501610667565b91505092915050565b6000602082840312156106d4576106d3610a4e565b5b60006106e28482850161067c565b91505092915050565b6106f4816108fa565b82525050565b610703816108e8565b82525050565b6107128161090c565b82525050565b600061072382610876565b61072d8185610881565b935061073d818560208601610942565b61074681610a53565b840191505092915050565b600061075e601483610881565b915061076982610a64565b602082019050919050565b6000610781601d83610881565b915061078c82610a8d565b602082019050919050565b6107a081610938565b82525050565b60006020820190506107bb60008301846106fa565b92915050565b600060a08201905081810360008301526107db8188610718565b90506107ea60208301876106eb565b6107f76040830186610797565b6108046060830185610709565b6108116080830184610797565b9695505050505050565b6000602082019050818103600083015261083481610751565b9050919050565b6000602082019050818103600083015261085481610774565b9050919050565b60006020820190506108706000830184610797565b92915050565b600081519050919050565b600082825260208201905092915050565b600061089d82610938565b91506108a883610938565b9250827fffffffffffffffffffffffffffffffffffffffffffffffffffffffffffffffff038211156108dd576108dc6109f0565b5b828201905092915050565b60006108f382610918565b9050919050565b600061090582610918565b9050919050565b60008115159050919050565b600073ffffffffffffffffffffffffffffffffffffffff82169050919050565b6000819050919050565b60005b83811015610960578082015181840152602081019050610945565b8381111561096f576000848401525b50505050565b6000600282049050600182168061098d57607f821691505b602082108114156109a1576109a0610a1f565b5b50919050565b60006109b282610938565b91507fffffffffffffffffffffffffffffffffffffffffffffffffffffffffffffffff8214156109e5576109e46109f0565b5b600182019050919050565b7f4e487b7100000000000000000000000000000000000000000000000000000000600052601160045260246000fd5b7f4e487b7100000000000000000000000000000000000000000000000000000000600052602260045260246000fd5b600080fd5b6000601f19601f8301169050919050565b7f446561646c696e6520686173207061737365642e000000000000000000000000600082015250565b7f4d696e696d756d20636f6e747269627574696f6e206e6f74206d65742e000000600082015250565b610abf816108e8565b8114610aca57600080fd5b50565b610ad681610938565b8114610ae157600080fd5b5056fea2646970667358221220696eff70f3c88ca81a01215a2b492af799558f0ee3e15cc286b8468648fcf19e64736f6c63430008070033",
					"opcodes": "PUSH1 0x80 PUSH1 0x40 MSTORE CALLVALUE DUP1 ISZERO PUSH3 0x11 JUMPI PUSH1 0x0 DUP1 REVERT JUMPDEST POP PUSH1 0x40 MLOAD PUSH3 0xCE0 CODESIZE SUB DUP1 PUSH3 0xCE0 DUP4 CODECOPY DUP2 DUP2 ADD PUSH1 0x40 MSTORE DUP2 ADD SWAP1 PUSH3 0x37 SWAP2 SWAP1 PUSH3 0xBA JUMP JUMPDEST DUP2 PUSH1 0x5 DUP2 SWAP1 SSTORE POP DUP1 TIMESTAMP PUSH3 0x4C SWAP2 SWAP1 PUSH3 0x101 JUMP JUMPDEST PUSH1 0x4 DUP2 SWAP1 SSTORE POP PUSH1 0x64 PUSH1 0x3 DUP2 SWAP1 SSTORE POP CALLER PUSH1 0x1 PUSH1 0x0 PUSH2 0x100 EXP DUP2 SLOAD DUP2 PUSH20 0xFFFFFFFFFFFFFFFFFFFFFFFFFFFFFFFFFFFFFFFF MUL NOT AND SWAP1 DUP4 PUSH20 0xFFFFFFFFFFFFFFFFFFFFFFFFFFFFFFFFFFFFFFFF AND MUL OR SWAP1 SSTORE POP POP POP PUSH3 0x1B6 JUMP JUMPDEST PUSH1 0x0 DUP2 MLOAD SWAP1 POP PUSH3 0xB4 DUP2 PUSH3 0x19C JUMP JUMPDEST SWAP3 SWAP2 POP POP JUMP JUMPDEST PUSH1 0x0 DUP1 PUSH1 0x40 DUP4 DUP6 SUB SLT ISZERO PUSH3 0xD4 JUMPI PUSH3 0xD3 PUSH3 0x197 JUMP JUMPDEST JUMPDEST PUSH1 0x0 PUSH3 0xE4 DUP6 DUP3 DUP7 ADD PUSH3 0xA3 JUMP JUMPDEST SWAP3 POP POP PUSH1 0x20 PUSH3 0xF7 DUP6 DUP3 DUP7 ADD PUSH3 0xA3 JUMP JUMPDEST SWAP2 POP POP SWAP3 POP SWAP3 SWAP1 POP JUMP JUMPDEST PUSH1 0x0 PUSH3 0x10E DUP3 PUSH3 0x15E JUMP JUMPDEST SWAP2 POP PUSH3 0x11B DUP4 PUSH3 0x15E JUMP JUMPDEST SWAP3 POP DUP3 PUSH32 0xFFFFFFFFFFFFFFFFFFFFFFFFFFFFFFFFFFFFFFFFFFFFFFFFFFFFFFFFFFFFFFFF SUB DUP3 GT ISZERO PUSH3 0x153 JUMPI PUSH3 0x152 PUSH3 0x168 JUMP JUMPDEST JUMPDEST DUP3 DUP3 ADD SWAP1 POP SWAP3 SWAP2 POP POP JUMP JUMPDEST PUSH1 0x0 DUP2 SWAP1 POP SWAP2 SWAP1 POP JUMP JUMPDEST PUSH32 0x4E487B7100000000000000000000000000000000000000000000000000000000 PUSH1 0x0 MSTORE PUSH1 0x11 PUSH1 0x4 MSTORE PUSH1 0x24 PUSH1 0x0 REVERT JUMPDEST PUSH1 0x0 DUP1 REVERT JUMPDEST PUSH3 0x1A7 DUP2 PUSH3 0x15E JUMP JUMPDEST DUP2 EQ PUSH3 0x1B3 JUMPI PUSH1 0x0 DUP1 REVERT JUMPDEST POP JUMP JUMPDEST PUSH2 0xB1A DUP1 PUSH3 0x1C6 PUSH1 0x0 CODECOPY PUSH1 0x0 RETURN INVALID PUSH1 0x80 PUSH1 0x40 MSTORE PUSH1 0x4 CALLDATASIZE LT PUSH2 0xA0 JUMPI PUSH1 0x0 CALLDATALOAD PUSH1 0xE0 SHR DUP1 PUSH4 0x937E09B1 GT PUSH2 0x64 JUMPI DUP1 PUSH4 0x937E09B1 EQ PUSH2 0x1B3 JUMPI DUP1 PUSH4 0xB2D5AE44 EQ PUSH2 0x1DE JUMPI DUP1 PUSH4 0xC59EE1DC EQ PUSH2 0x1F5 JUMPI DUP1 PUSH4 0xD7BB99BA EQ PUSH2 0x220 JUMPI DUP1 PUSH4 0xF3740DAF EQ PUSH2 0x22A JUMPI DUP1 PUSH4 0xF851A440 EQ PUSH2 0x255 JUMPI PUSH2 0xAF JUMP JUMPDEST DUP1 PUSH4 0x12065FE0 EQ PUSH2 0xB4 JUMPI DUP1 PUSH4 0x1F6D4942 EQ PUSH2 0xDF JUMPI DUP1 PUSH4 0x29DCB0CF EQ PUSH2 0x11C JUMPI DUP1 PUSH4 0x40193883 EQ PUSH2 0x147 JUMPI DUP1 PUSH4 0x81D12C58 EQ PUSH2 0x172 JUMPI PUSH2 0xAF JUMP JUMPDEST CALLDATASIZE PUSH2 0xAF JUMPI PUSH2 0xAD PUSH2 0x280 JUMP JUMPDEST STOP JUMPDEST PUSH1 0x0 DUP1 REVERT JUMPDEST CALLVALUE DUP1 ISZERO PUSH2 0xC0 JUMPI PUSH1 0x0 DUP1 REVERT JUMPDEST POP PUSH2 0xC9 PUSH2 0x3D9 JUMP JUMPDEST PUSH1 0x40 MLOAD PUSH2 0xD6 SWAP2 SWAP1 PUSH2 0x85B JUMP JUMPDEST PUSH1 0x40 MLOAD DUP1 SWAP2 SUB SWAP1 RETURN JUMPDEST CALLVALUE DUP1 ISZERO PUSH2 0xEB JUMPI PUSH1 0x0 DUP1 REVERT JUMPDEST POP PUSH2 0x106 PUSH1 0x4 DUP1 CALLDATASIZE SUB DUP2 ADD SWAP1 PUSH2 0x101 SWAP2 SWAP1 PUSH2 0x691 JUMP JUMPDEST PUSH2 0x3E1 JUMP JUMPDEST PUSH1 0x40 MLOAD PUSH2 0x113 SWAP2 SWAP1 PUSH2 0x85B JUMP JUMPDEST PUSH1 0x40 MLOAD DUP1 SWAP2 SUB SWAP1 RETURN JUMPDEST CALLVALUE DUP1 ISZERO PUSH2 0x128 JUMPI PUSH1 0x0 DUP1 REVERT JUMPDEST POP PUSH2 0x131 PUSH2 0x3F9 JUMP JUMPDEST PUSH1 0x40 MLOAD PUSH2 0x13E SWAP2 SWAP1 PUSH2 0x85B JUMP JUMPDEST PUSH1 0x40 MLOAD DUP1 SWAP2 SUB SWAP1 RETURN JUMPDEST CALLVALUE DUP1 ISZERO PUSH2 0x153 JUMPI PUSH1 0x0 DUP1 REVERT JUMPDEST POP PUSH2 0x15C PUSH2 0x3FF JUMP JUMPDEST PUSH1 0x40 MLOAD PUSH2 0x169 SWAP2 SWAP1 PUSH2 0x85B JUMP JUMPDEST PUSH1 0x40 MLOAD DUP1 SWAP2 SUB SWAP1 RETURN JUMPDEST CALLVALUE DUP1 ISZERO PUSH2 0x17E JUMPI PUSH1 0x0 DUP1 REVERT JUMPDEST POP PUSH2 0x199 PUSH1 0x4 DUP1 CALLDATASIZE SUB DUP2 ADD SWAP1 PUSH2 0x194 SWAP2 SWAP1 PUSH2 0x6BE JUMP JUMPDEST PUSH2 0x405 JUMP JUMPDEST PUSH1 0x40 MLOAD PUSH2 0x1AA SWAP6 SWAP5 SWAP4 SWAP3 SWAP2 SWAP1 PUSH2 0x7C1 JUMP JUMPDEST PUSH1 0x40 MLOAD DUP1 SWAP2 SUB SWAP1 RETURN JUMPDEST CALLVALUE DUP1 ISZERO PUSH2 0x1BF JUMPI PUSH1 0x0 DUP1 REVERT JUMPDEST POP PUSH2 0x1C8 PUSH2 0x4F0 JUMP JUMPDEST PUSH1 0x40 MLOAD PUSH2 0x1D5 SWAP2 SWAP1 PUSH2 0x85B JUMP JUMPDEST PUSH1 0x40 MLOAD DUP1 SWAP2 SUB SWAP1 RETURN JUMPDEST CALLVALUE DUP1 ISZERO PUSH2 0x1EA JUMPI PUSH1 0x0 DUP1 REVERT JUMPDEST POP PUSH2 0x1F3 PUSH2 0x4F6 JUMP JUMPDEST STOP JUMPDEST CALLVALUE DUP1 ISZERO PUSH2 0x201 JUMPI PUSH1 0x0 DUP1 REVERT JUMPDEST POP PUSH2 0x20A PUSH2 0x635 JUMP JUMPDEST PUSH1 0x40 MLOAD PUSH2 0x217 SWAP2 SWAP1 PUSH2 0x85B JUMP JUMPDEST PUSH1 0x40 MLOAD DUP1 SWAP2 SUB SWAP1 RETURN JUMPDEST PUSH2 0x228 PUSH2 0x280 JUMP JUMPDEST STOP JUMPDEST CALLVALUE DUP1 ISZERO PUSH2 0x236 JUMPI PUSH1 0x0 DUP1 REVERT JUMPDEST POP PUSH2 0x23F PUSH2 0x63B JUMP JUMPDEST PUSH1 0x40 MLOAD PUSH2 0x24C SWAP2 SWAP1 PUSH2 0x85B JUMP JUMPDEST PUSH1 0x40 MLOAD DUP1 SWAP2 SUB SWAP1 RETURN JUMPDEST CALLVALUE DUP1 ISZERO PUSH2 0x261 JUMPI PUSH1 0x0 DUP1 REVERT JUMPDEST POP PUSH2 0x26A PUSH2 0x641 JUMP JUMPDEST PUSH1 0x40 MLOAD PUSH2 0x277 SWAP2 SWAP1 PUSH2 0x7A6 JUMP JUMPDEST PUSH1 0x40 MLOAD DUP1 SWAP2 SUB SWAP1 RETURN JUMPDEST PUSH1 0x4 SLOAD TIMESTAMP LT PUSH2 0x2C4 JUMPI PUSH1 0x40 MLOAD PUSH32 0x8C379A000000000000000000000000000000000000000000000000000000000 DUP2 MSTORE PUSH1 0x4 ADD PUSH2 0x2BB SWAP1 PUSH2 0x81B JUMP JUMPDEST PUSH1 0x40 MLOAD DUP1 SWAP2 SUB SWAP1 REVERT JUMPDEST PUSH1 0x3 SLOAD CALLVALUE LT ISZERO PUSH2 0x309 JUMPI PUSH1 0x40 MLOAD PUSH32 0x8C379A000000000000000000000000000000000000000000000000000000000 DUP2 MSTORE PUSH1 0x4 ADD PUSH2 0x300 SWAP1 PUSH2 0x83B JUMP JUMPDEST PUSH1 0x40 MLOAD DUP1 SWAP2 SUB SWAP1 REVERT JUMPDEST PUSH1 0x0 DUP1 PUSH1 0x0 CALLER PUSH20 0xFFFFFFFFFFFFFFFFFFFFFFFFFFFFFFFFFFFFFFFF AND PUSH20 0xFFFFFFFFFFFFFFFFFFFFFFFFFFFFFFFFFFFFFFFF AND DUP2 MSTORE PUSH1 0x20 ADD SWAP1 DUP2 MSTORE PUSH1 0x20 ADD PUSH1 0x0 KECCAK256 SLOAD EQ ISZERO PUSH2 0x369 JUMPI PUSH1 0x2 PUSH1 0x0 DUP2 SLOAD DUP1 SWAP3 SWAP2 SWAP1 PUSH2 0x363 SWAP1 PUSH2 0x9A7 JUMP JUMPDEST SWAP2 SWAP1 POP SSTORE POP JUMPDEST CALLVALUE PUSH1 0x0 DUP1 CALLER PUSH20 0xFFFFFFFFFFFFFFFFFFFFFFFFFFFFFFFFFFFFFFFF AND PUSH20 0xFFFFFFFFFFFFFFFFFFFFFFFFFFFFFFFFFFFFFFFF AND DUP2 MSTORE PUSH1 0x20 ADD SWAP1 DUP2 MSTORE PUSH1 0x20 ADD PUSH1 0x0 KECCAK256 PUSH1 0x0 DUP3 DUP3 SLOAD PUSH2 0x3B7 SWAP2 SWAP1 PUSH2 0x892 JUMP JUMPDEST SWAP3 POP POP DUP2 SWAP1 SSTORE POP CALLVALUE PUSH1 0x6 PUSH1 0x0 DUP3 DUP3 SLOAD PUSH2 0x3D0 SWAP2 SWAP1 PUSH2 0x892 JUMP JUMPDEST SWAP3 POP POP DUP2 SWAP1 SSTORE POP JUMP JUMPDEST PUSH1 0x0 SELFBALANCE SWAP1 POP SWAP1 JUMP JUMPDEST PUSH1 0x0 PUSH1 0x20 MSTORE DUP1 PUSH1 0x0 MSTORE PUSH1 0x40 PUSH1 0x0 KECCAK256 PUSH1 0x0 SWAP2 POP SWAP1 POP SLOAD DUP2 JUMP JUMPDEST PUSH1 0x4 SLOAD DUP2 JUMP JUMPDEST PUSH1 0x5 SLOAD DUP2 JUMP JUMPDEST PUSH1 0x7 PUSH1 0x20 MSTORE DUP1 PUSH1 0x0 MSTORE PUSH1 0x40 PUSH1 0x0 KECCAK256 PUSH1 0x0 SWAP2 POP SWAP1 POP DUP1 PUSH1 0x0 ADD DUP1 SLOAD PUSH2 0x428 SWAP1 PUSH2 0x975 JUMP JUMPDEST DUP1 PUSH1 0x1F ADD PUSH1 0x20 DUP1 SWAP2 DIV MUL PUSH1 0x20 ADD PUSH1 0x40 MLOAD SWAP1 DUP2 ADD PUSH1 0x40 MSTORE DUP1 SWAP3 SWAP2 SWAP1 DUP2 DUP2 MSTORE PUSH1 0x20 ADD DUP3 DUP1 SLOAD PUSH2 0x454 SWAP1 PUSH2 0x975 JUMP JUMPDEST DUP1 ISZERO PUSH2 0x4A1 JUMPI DUP1 PUSH1 0x1F LT PUSH2 0x476 JUMPI PUSH2 0x100 DUP1 DUP4 SLOAD DIV MUL DUP4 MSTORE SWAP2 PUSH1 0x20 ADD SWAP2 PUSH2 0x4A1 JUMP JUMPDEST DUP3 ADD SWAP2 SWAP1 PUSH1 0x0 MSTORE PUSH1 0x20 PUSH1 0x0 KECCAK256 SWAP1 JUMPDEST DUP2 SLOAD DUP2 MSTORE SWAP1 PUSH1 0x1 ADD SWAP1 PUSH1 0x20 ADD DUP1 DUP4 GT PUSH2 0x484 JUMPI DUP3 SWAP1 SUB PUSH1 0x1F AND DUP3 ADD SWAP2 JUMPDEST POP POP POP POP POP SWAP1 DUP1 PUSH1 0x1 ADD PUSH1 0x0 SWAP1 SLOAD SWAP1 PUSH2 0x100 EXP SWAP1 DIV PUSH20 0xFFFFFFFFFFFFFFFFFFFFFFFFFFFFFFFFFFFFFFFF AND SWAP1 DUP1 PUSH1 0x2 ADD SLOAD SWAP1 DUP1 PUSH1 0x3 ADD PUSH1 0x0 SWAP1 SLOAD SWAP1 PUSH2 0x100 EXP SWAP1 DIV PUSH1 0xFF AND SWAP1 DUP1 PUSH1 0x4 ADD SLOAD SWAP1 POP DUP6 JUMP JUMPDEST PUSH1 0x3 SLOAD DUP2 JUMP JUMPDEST PUSH1 0x4 SLOAD TIMESTAMP GT DUP1 ISZERO PUSH2 0x50A JUMPI POP PUSH1 0x5 SLOAD PUSH1 0x6 SLOAD LT JUMPDEST PUSH2 0x513 JUMPI PUSH1 0x0 DUP1 REVERT JUMPDEST PUSH1 0x0 DUP1 PUSH1 0x0 CALLER PUSH20 0xFFFFFFFFFFFFFFFFFFFFFFFFFFFFFFFFFFFFFFFF AND PUSH20 0xFFFFFFFFFFFFFFFFFFFFFFFFFFFFFFFFFFFFFFFF AND DUP2 MSTORE PUSH1 0x20 ADD SWAP1 DUP2 MSTORE PUSH1 0x20 ADD PUSH1 0x0 KECCAK256 SLOAD GT PUSH2 0x55E JUMPI PUSH1 0x0 DUP1 REVERT JUMPDEST PUSH1 0x0 CALLER SWAP1 POP PUSH1 0x0 DUP1 PUSH1 0x0 CALLER PUSH20 0xFFFFFFFFFFFFFFFFFFFFFFFFFFFFFFFFFFFFFFFF AND PUSH20 0xFFFFFFFFFFFFFFFFFFFFFFFFFFFFFFFFFFFFFFFF AND DUP2 MSTORE PUSH1 0x20 ADD SWAP1 DUP2 MSTORE PUSH1 0x20 ADD PUSH1 0x0 KECCAK256 SLOAD SWAP1 POP DUP2 PUSH20 0xFFFFFFFFFFFFFFFFFFFFFFFFFFFFFFFFFFFFFFFF AND PUSH2 0x8FC DUP3 SWAP1 DUP2 ISZERO MUL SWAP1 PUSH1 0x40 MLOAD PUSH1 0x0 PUSH1 0x40 MLOAD DUP1 DUP4 SUB DUP2 DUP6 DUP9 DUP9 CALL SWAP4 POP POP POP POP ISZERO DUP1 ISZERO PUSH2 0x5EC JUMPI RETURNDATASIZE PUSH1 0x0 DUP1 RETURNDATACOPY RETURNDATASIZE PUSH1 0x0 REVERT JUMPDEST POP PUSH1 0x0 DUP1 PUSH1 0x0 CALLER PUSH20 0xFFFFFFFFFFFFFFFFFFFFFFFFFFFFFFFFFFFFFFFF AND PUSH20 0xFFFFFFFFFFFFFFFFFFFFFFFFFFFFFFFFFFFFFFFF AND DUP2 MSTORE PUSH1 0x20 ADD SWAP1 DUP2 MSTORE PUSH1 0x20 ADD PUSH1 0x0 KECCAK256 DUP2 SWAP1 SSTORE POP POP POP JUMP JUMPDEST PUSH1 0x6 SLOAD DUP2 JUMP JUMPDEST PUSH1 0x2 SLOAD DUP2 JUMP JUMPDEST PUSH1 0x1 PUSH1 0x0 SWAP1 SLOAD SWAP1 PUSH2 0x100 EXP SWAP1 DIV PUSH20 0xFFFFFFFFFFFFFFFFFFFFFFFFFFFFFFFFFFFFFFFF AND DUP2 JUMP JUMPDEST PUSH1 0x0 DUP2 CALLDATALOAD SWAP1 POP PUSH2 0x676 DUP2 PUSH2 0xAB6 JUMP JUMPDEST SWAP3 SWAP2 POP POP JUMP JUMPDEST PUSH1 0x0 DUP2 CALLDATALOAD SWAP1 POP PUSH2 0x68B DUP2 PUSH2 0xACD JUMP JUMPDEST SWAP3 SWAP2 POP POP JUMP JUMPDEST PUSH1 0x0 PUSH1 0x20 DUP3 DUP5 SUB SLT ISZERO PUSH2 0x6A7 JUMPI PUSH2 0x6A6 PUSH2 0xA4E JUMP JUMPDEST JUMPDEST PUSH1 0x0 PUSH2 0x6B5 DUP5 DUP3 DUP6 ADD PUSH2 0x667 JUMP JUMPDEST SWAP2 POP POP SWAP3 SWAP2 POP POP JUMP JUMPDEST PUSH1 0x0 PUSH1 0x20 DUP3 DUP5 SUB SLT ISZERO PUSH2 0x6D4 JUMPI PUSH2 0x6D3 PUSH2 0xA4E JUMP JUMPDEST JUMPDEST PUSH1 0x0 PUSH2 0x6E2 DUP5 DUP3 DUP6 ADD PUSH2 0x67C JUMP JUMPDEST SWAP2 POP POP SWAP3 SWAP2 POP POP JUMP JUMPDEST PUSH2 0x6F4 DUP2 PUSH2 0x8FA JUMP JUMPDEST DUP3 MSTORE POP POP JUMP JUMPDEST PUSH2 0x703 DUP2 PUSH2 0x8E8 JUMP JUMPDEST DUP3 MSTORE POP POP JUMP JUMPDEST PUSH2 0x712 DUP2 PUSH2 0x90C JUMP JUMPDEST DUP3 MSTORE POP POP JUMP JUMPDEST PUSH1 0x0 PUSH2 0x723 DUP3 PUSH2 0x876 JUMP JUMPDEST PUSH2 0x72D DUP2 DUP6 PUSH2 0x881 JUMP JUMPDEST SWAP4 POP PUSH2 0x73D DUP2 DUP6 PUSH1 0x20 DUP7 ADD PUSH2 0x942 JUMP JUMPDEST PUSH2 0x746 DUP2 PUSH2 0xA53 JUMP JUMPDEST DUP5 ADD SWAP2 POP POP SWAP3 SWAP2 POP POP JUMP JUMPDEST PUSH1 0x0 PUSH2 0x75E PUSH1 0x14 DUP4 PUSH2 0x881 JUMP JUMPDEST SWAP2 POP PUSH2 0x769 DUP3 PUSH2 0xA64 JUMP JUMPDEST PUSH1 0x20 DUP3 ADD SWAP1 POP SWAP2 SWAP1 POP JUMP JUMPDEST PUSH1 0x0 PUSH2 0x781 PUSH1 0x1D DUP4 PUSH2 0x881 JUMP JUMPDEST SWAP2 POP PUSH2 0x78C DUP3 PUSH2 0xA8D JUMP JUMPDEST PUSH1 0x20 DUP3 ADD SWAP1 POP SWAP2 SWAP1 POP JUMP JUMPDEST PUSH2 0x7A0 DUP2 PUSH2 0x938 JUMP JUMPDEST DUP3 MSTORE POP POP JUMP JUMPDEST PUSH1 0x0 PUSH1 0x20 DUP3 ADD SWAP1 POP PUSH2 0x7BB PUSH1 0x0 DUP4 ADD DUP5 PUSH2 0x6FA JUMP JUMPDEST SWAP3 SWAP2 POP POP JUMP JUMPDEST PUSH1 0x0 PUSH1 0xA0 DUP3 ADD SWAP1 POP DUP2 DUP2 SUB PUSH1 0x0 DUP4 ADD MSTORE PUSH2 0x7DB DUP2 DUP9 PUSH2 0x718 JUMP JUMPDEST SWAP1 POP PUSH2 0x7EA PUSH1 0x20 DUP4 ADD DUP8 PUSH2 0x6EB JUMP JUMPDEST PUSH2 0x7F7 PUSH1 0x40 DUP4 ADD DUP7 PUSH2 0x797 JUMP JUMPDEST PUSH2 0x804 PUSH1 0x60 DUP4 ADD DUP6 PUSH2 0x709 JUMP JUMPDEST PUSH2 0x811 PUSH1 0x80 DUP4 ADD DUP5 PUSH2 0x797 JUMP JUMPDEST SWAP7 SWAP6 POP POP POP POP POP POP JUMP JUMPDEST PUSH1 0x0 PUSH1 0x20 DUP3 ADD SWAP1 POP DUP2 DUP2 SUB PUSH1 0x0 DUP4 ADD MSTORE PUSH2 0x834 DUP2 PUSH2 0x751 JUMP JUMPDEST SWAP1 POP SWAP2 SWAP1 POP JUMP JUMPDEST PUSH1 0x0 PUSH1 0x20 DUP3 ADD SWAP1 POP DUP2 DUP2 SUB PUSH1 0x0 DUP4 ADD MSTORE PUSH2 0x854 DUP2 PUSH2 0x774 JUMP JUMPDEST SWAP1 POP SWAP2 SWAP1 POP JUMP JUMPDEST PUSH1 0x0 PUSH1 0x20 DUP3 ADD SWAP1 POP PUSH2 0x870 PUSH1 0x0 DUP4 ADD DUP5 PUSH2 0x797 JUMP JUMPDEST SWAP3 SWAP2 POP POP JUMP JUMPDEST PUSH1 0x0 DUP2 MLOAD SWAP1 POP SWAP2 SWAP1 POP JUMP JUMPDEST PUSH1 0x0 DUP3 DUP3 MSTORE PUSH1 0x20 DUP3 ADD SWAP1 POP SWAP3 SWAP2 POP POP JUMP JUMPDEST PUSH1 0x0 PUSH2 0x89D DUP3 PUSH2 0x938 JUMP JUMPDEST SWAP2 POP PUSH2 0x8A8 DUP4 PUSH2 0x938 JUMP JUMPDEST SWAP3 POP DUP3 PUSH32 0xFFFFFFFFFFFFFFFFFFFFFFFFFFFFFFFFFFFFFFFFFFFFFFFFFFFFFFFFFFFFFFFF SUB DUP3 GT ISZERO PUSH2 0x8DD JUMPI PUSH2 0x8DC PUSH2 0x9F0 JUMP JUMPDEST JUMPDEST DUP3 DUP3 ADD SWAP1 POP SWAP3 SWAP2 POP POP JUMP JUMPDEST PUSH1 0x0 PUSH2 0x8F3 DUP3 PUSH2 0x918 JUMP JUMPDEST SWAP1 POP SWAP2 SWAP1 POP JUMP JUMPDEST PUSH1 0x0 PUSH2 0x905 DUP3 PUSH2 0x918 JUMP JUMPDEST SWAP1 POP SWAP2 SWAP1 POP JUMP JUMPDEST PUSH1 0x0 DUP2 ISZERO ISZERO SWAP1 POP SWAP2 SWAP1 POP JUMP JUMPDEST PUSH1 0x0 PUSH20 0xFFFFFFFFFFFFFFFFFFFFFFFFFFFFFFFFFFFFFFFF DUP3 AND SWAP1 POP SWAP2 SWAP1 POP JUMP JUMPDEST PUSH1 0x0 DUP2 SWAP1 POP SWAP2 SWAP1 POP JUMP JUMPDEST PUSH1 0x0 JUMPDEST DUP4 DUP2 LT ISZERO PUSH2 0x960 JUMPI DUP1 DUP3 ADD MLOAD DUP2 DUP5 ADD MSTORE PUSH1 0x20 DUP2 ADD SWAP1 POP PUSH2 0x945 JUMP JUMPDEST DUP4 DUP2 GT ISZERO PUSH2 0x96F JUMPI PUSH1 0x0 DUP5 DUP5 ADD MSTORE JUMPDEST POP POP POP POP JUMP JUMPDEST PUSH1 0x0 PUSH1 0x2 DUP3 DIV SWAP1 POP PUSH1 0x1 DUP3 AND DUP1 PUSH2 0x98D JUMPI PUSH1 0x7F DUP3 AND SWAP2 POP JUMPDEST PUSH1 0x20 DUP3 LT DUP2 EQ ISZERO PUSH2 0x9A1 JUMPI PUSH2 0x9A0 PUSH2 0xA1F JUMP JUMPDEST JUMPDEST POP SWAP2 SWAP1 POP JUMP JUMPDEST PUSH1 0x0 PUSH2 0x9B2 DUP3 PUSH2 0x938 JUMP JUMPDEST SWAP2 POP PUSH32 0xFFFFFFFFFFFFFFFFFFFFFFFFFFFFFFFFFFFFFFFFFFFFFFFFFFFFFFFFFFFFFFFF DUP3 EQ ISZERO PUSH2 0x9E5 JUMPI PUSH2 0x9E4 PUSH2 0x9F0 JUMP JUMPDEST JUMPDEST PUSH1 0x1 DUP3 ADD SWAP1 POP SWAP2 SWAP1 POP JUMP JUMPDEST PUSH32 0x4E487B7100000000000000000000000000000000000000000000000000000000 PUSH1 0x0 MSTORE PUSH1 0x11 PUSH1 0x4 MSTORE PUSH1 0x24 PUSH1 0x0 REVERT JUMPDEST PUSH32 0x4E487B7100000000000000000000000000000000000000000000000000000000 PUSH1 0x0 MSTORE PUSH1 0x22 PUSH1 0x4 MSTORE PUSH1 0x24 PUSH1 0x0 REVERT JUMPDEST PUSH1 0x0 DUP1 REVERT JUMPDEST PUSH1 0x0 PUSH1 0x1F NOT PUSH1 0x1F DUP4 ADD AND SWAP1 POP SWAP2 SWAP1 POP JUMP JUMPDEST PUSH32 0x446561646C696E6520686173207061737365642E000000000000000000000000 PUSH1 0x0 DUP3 ADD MSTORE POP JUMP JUMPDEST PUSH32 0x4D696E696D756D20636F6E747269627574696F6E206E6F74206D65742E000000 PUSH1 0x0 DUP3 ADD MSTORE POP JUMP JUMPDEST PUSH2 0xABF DUP2 PUSH2 0x8E8 JUMP JUMPDEST DUP2 EQ PUSH2 0xACA JUMPI PUSH1 0x0 DUP1 REVERT JUMPDEST POP JUMP JUMPDEST PUSH2 0xAD6 DUP2 PUSH2 0x938 JUMP JUMPDEST DUP2 EQ PUSH2 0xAE1 JUMPI PUSH1 0x0 DUP1 REVERT JUMPDEST POP JUMP INVALID LOG2 PUSH5 0x6970667358 0x22 SLT KECCAK256 PUSH10 0x6EFF70F3C88CA81A0121 GAS 0x2B 0x49 0x2A 0xF7 SWAP10 SSTORE DUP16 0xE 0xE3 0xE1 0x5C 0xC2 DUP7 0xB8 CHAINID DUP7 BASEFEE 0xFC CALL SWAP15 PUSH5 0x736F6C6343 STOP ADDMOD SMOD STOP CALLER "
				},
				"gasEstimates": {
					"creation": {
						"codeDepositCost": "568400",
						"executionCost": "infinite",
						"totalCost": "infinite"
					},
					"external": {
						"admin()": "2624",
						"contribute()": "infinite",
						"contributors(address)": "2837",
						"deadline()": "2474",
						"getBalance()": "340",
						"getRefund()": "infinite",
						"goal()": "2496",
						"minimumContribution()": "2429",
						"numberContributors()": "2517",
						"raisedAmount()": "2473",
						"requests(uint256)": "infinite"
					}
				},
				"methodIdentifiers": {
					"admin()": "f851a440",
					"contribute()": "d7bb99ba",
					"contributors(address)": "1f6d4942",
					"deadline()": "29dcb0cf",
					"getBalance()": "12065fe0",
					"getRefund()": "b2d5ae44",
					"goal()": "40193883",
					"minimumContribution()": "937e09b1",
					"numberContributors()": "f3740daf",
					"raisedAmount()": "c59ee1dc",
					"requests(uint256)": "81d12c58"
				}
			},
			"storageLayout": {
				"storage": [
					{
						"astId": 5,
						"contract": "contracts/crowdfunding.sol:CrowdFunding",
						"label": "contributors",
						"offset": 0,
						"slot": "0",
						"type": "t_mapping(t_address,t_uint256)"
					},
					{
						"astId": 7,
						"contract": "contracts/crowdfunding.sol:CrowdFunding",
						"label": "admin",
						"offset": 0,
						"slot": "1",
						"type": "t_address"
					},
					{
						"astId": 9,
						"contract": "contracts/crowdfunding.sol:CrowdFunding",
						"label": "numberContributors",
						"offset": 0,
						"slot": "2",
						"type": "t_uint256"
					},
					{
						"astId": 11,
						"contract": "contracts/crowdfunding.sol:CrowdFunding",
						"label": "minimumContribution",
						"offset": 0,
						"slot": "3",
						"type": "t_uint256"
					},
					{
						"astId": 13,
						"contract": "contracts/crowdfunding.sol:CrowdFunding",
						"label": "deadline",
						"offset": 0,
						"slot": "4",
						"type": "t_uint256"
					},
					{
						"astId": 15,
						"contract": "contracts/crowdfunding.sol:CrowdFunding",
						"label": "goal",
						"offset": 0,
						"slot": "5",
						"type": "t_uint256"
					},
					{
						"astId": 17,
						"contract": "contracts/crowdfunding.sol:CrowdFunding",
						"label": "raisedAmount",
						"offset": 0,
						"slot": "6",
						"type": "t_uint256"
					},
					{
						"astId": 37,
						"contract": "contracts/crowdfunding.sol:CrowdFunding",
						"label": "requests",
						"offset": 0,
						"slot": "7",
						"type": "t_mapping(t_uint256,t_struct(Request)32_storage)"
					}
				],
				"types": {
					"t_address": {
						"encoding": "inplace",
						"label": "address",
						"numberOfBytes": "20"
					},
					"t_address_payable": {
						"encoding": "inplace",
						"label": "address payable",
						"numberOfBytes": "20"
					},
					"t_bool": {
						"encoding": "inplace",
						"label": "bool",
						"numberOfBytes": "1"
					},
					"t_mapping(t_address,t_bool)": {
						"encoding": "mapping",
						"key": "t_address",
						"label": "mapping(address => bool)",
						"numberOfBytes": "32",
						"value": "t_bool"
					},
					"t_mapping(t_address,t_uint256)": {
						"encoding": "mapping",
						"key": "t_address",
						"label": "mapping(address => uint256)",
						"numberOfBytes": "32",
						"value": "t_uint256"
					},
					"t_mapping(t_uint256,t_struct(Request)32_storage)": {
						"encoding": "mapping",
						"key": "t_uint256",
						"label": "mapping(uint256 => struct CrowdFunding.Request)",
						"numberOfBytes": "32",
						"value": "t_struct(Request)32_storage"
					},
					"t_string_storage": {
						"encoding": "bytes",
						"label": "string",
						"numberOfBytes": "32"
					},
					"t_struct(Request)32_storage": {
						"encoding": "inplace",
						"label": "struct CrowdFunding.Request",
						"members": [
							{
								"astId": 19,
								"contract": "contracts/crowdfunding.sol:CrowdFunding",
								"label": "description",
								"offset": 0,
								"slot": "0",
								"type": "t_string_storage"
							},
							{
								"astId": 21,
								"contract": "contracts/crowdfunding.sol:CrowdFunding",
								"label": "recipient",
								"offset": 0,
								"slot": "1",
								"type": "t_address_payable"
							},
							{
								"astId": 23,
								"contract": "contracts/crowdfunding.sol:CrowdFunding",
								"label": "value",
								"offset": 0,
								"slot": "2",
								"type": "t_uint256"
							},
							{
								"astId": 25,
								"contract": "contracts/crowdfunding.sol:CrowdFunding",
								"label": "completed",
								"offset": 0,
								"slot": "3",
								"type": "t_bool"
							},
							{
								"astId": 27,
								"contract": "contracts/crowdfunding.sol:CrowdFunding",
								"label": "numberVoters",
								"offset": 0,
								"slot": "4",
								"type": "t_uint256"
							},
							{
								"astId": 31,
								"contract": "contracts/crowdfunding.sol:CrowdFunding",
								"label": "voters",
								"offset": 0,
								"slot": "5",
								"type": "t_mapping(t_address,t_bool)"
							}
						],
						"numberOfBytes": "192"
					},
					"t_uint256": {
						"encoding": "inplace",
						"label": "uint256",
						"numberOfBytes": "32"
					}
				}
			},
			"userdoc": {
				"kind": "user",
				"methods": {},
				"version": 1
			}
		}
	}
}