{
	"contracts/newContract.sol": {
		"Property": {
			"abi": [
				{
					"inputs": [],
					"name": "price",
					"outputs": [
						{
							"internalType": "int256",
							"name": "",
							"type": "int256"
						}
					],
					"stateMutability": "view",
					"type": "function"
				},
				{
					"inputs": [
						{
							"internalType": "int256",
							"name": "_value",
							"type": "int256"
						}
					],
					"name": "setValue",
					"outputs": [],
					"stateMutability": "nonpayable",
					"type": "function"
				},
				{
					"inputs": [],
					"name": "value",
					"outputs": [
						{
							"internalType": "int256",
							"name": "",
							"type": "int256"
						}
					],
					"stateMutability": "view",
					"type": "function"
				}
			],
			"devdoc": {
				"kind": "dev",
				"methods": {},
				"version": 1
			},
			"evm": {
				"assembly": "    /* \"contracts/newContract.sol\":63:210  contract Property {\r... */\n  mstore(0x40, 0x80)\n  callvalue\n  dup1\n  iszero\n  tag_1\n  jumpi\n  0x00\n  dup1\n  revert\ntag_1:\n  pop\n  dataSize(sub_0)\n  dup1\n  dataOffset(sub_0)\n  0x00\n  codecopy\n  0x00\n  return\nstop\n\nsub_0: assembly {\n        /* \"contracts/newContract.sol\":63:210  contract Property {\r... */\n      mstore(0x40, 0x80)\n      callvalue\n      dup1\n      iszero\n      tag_1\n      jumpi\n      0x00\n      dup1\n      revert\n    tag_1:\n      pop\n      jumpi(tag_2, lt(calldatasize, 0x04))\n      shr(0xe0, calldataload(0x00))\n      dup1\n      0x3fa4f245\n      eq\n      tag_3\n      jumpi\n      dup1\n      0x5093dc7d\n      eq\n      tag_4\n      jumpi\n      dup1\n      0xa035b1fe\n      eq\n      tag_5\n      jumpi\n    tag_2:\n      0x00\n      dup1\n      revert\n        /* \"contracts/newContract.sol\":88:104  int public value */\n    tag_3:\n      tag_6\n      tag_7\n      jump\t// in\n    tag_6:\n      mload(0x40)\n      tag_8\n      swap2\n      swap1\n      tag_9\n      jump\t// in\n    tag_8:\n      mload(0x40)\n      dup1\n      swap2\n      sub\n      swap1\n      return\n        /* \"contracts/newContract.sol\":136:207  function setValue(int _value) public{\r... */\n    tag_4:\n      tag_10\n      0x04\n      dup1\n      calldatasize\n      sub\n      dup2\n      add\n      swap1\n      tag_11\n      swap2\n      swap1\n      tag_12\n      jump\t// in\n    tag_11:\n      tag_13\n      jump\t// in\n    tag_10:\n      stop\n        /* \"contracts/newContract.sol\":111:127  int public price */\n    tag_5:\n      tag_14\n      tag_15\n      jump\t// in\n    tag_14:\n      mload(0x40)\n      tag_16\n      swap2\n      swap1\n      tag_9\n      jump\t// in\n    tag_16:\n      mload(0x40)\n      dup1\n      swap2\n      sub\n      swap1\n      return\n        /* \"contracts/newContract.sol\":88:104  int public value */\n    tag_7:\n      sload(0x00)\n      dup2\n      jump\t// out\n        /* \"contracts/newContract.sol\":136:207  function setValue(int _value) public{\r... */\n    tag_13:\n        /* \"contracts/newContract.sol\":191:197  _value */\n      dup1\n        /* \"contracts/newContract.sol\":183:188  value */\n      0x00\n        /* \"contracts/newContract.sol\":183:197  value = _value */\n      dup2\n      swap1\n      sstore\n      pop\n        /* \"contracts/newContract.sol\":136:207  function setValue(int _value) public{\r... */\n      pop\n      jump\t// out\n        /* \"contracts/newContract.sol\":111:127  int public price */\n    tag_15:\n      sload(0x01)\n      dup2\n      jump\t// out\n        /* \"#utility.yul\":7:144   */\n    tag_19:\n      0x00\n        /* \"#utility.yul\":90:96   */\n      dup2\n        /* \"#utility.yul\":77:97   */\n      calldataload\n        /* \"#utility.yul\":68:97   */\n      swap1\n      pop\n        /* \"#utility.yul\":106:138   */\n      tag_21\n        /* \"#utility.yul\":132:137   */\n      dup2\n        /* \"#utility.yul\":106:138   */\n      tag_22\n      jump\t// in\n    tag_21:\n        /* \"#utility.yul\":58:144   */\n      swap3\n      swap2\n      pop\n      pop\n      jump\t// out\n        /* \"#utility.yul\":150:410   */\n    tag_12:\n      0x00\n        /* \"#utility.yul\":257:259   */\n      0x20\n        /* \"#utility.yul\":245:254   */\n      dup3\n        /* \"#utility.yul\":236:243   */\n      dup5\n        /* \"#utility.yul\":232:255   */\n      sub\n        /* \"#utility.yul\":228:260   */\n      slt\n        /* \"#utility.yul\":225:227   */\n      iszero\n      tag_24\n      jumpi\n        /* \"#utility.yul\":273:274   */\n      0x00\n        /* \"#utility.yul\":270:271   */\n      dup1\n        /* \"#utility.yul\":263:275   */\n      revert\n        /* \"#utility.yul\":225:227   */\n    tag_24:\n        /* \"#utility.yul\":316:317   */\n      0x00\n        /* \"#utility.yul\":341:393   */\n      tag_25\n        /* \"#utility.yul\":385:392   */\n      dup5\n        /* \"#utility.yul\":376:382   */\n      dup3\n        /* \"#utility.yul\":365:374   */\n      dup6\n        /* \"#utility.yul\":361:383   */\n      add\n        /* \"#utility.yul\":341:393   */\n      tag_19\n      jump\t// in\n    tag_25:\n        /* \"#utility.yul\":331:393   */\n      swap2\n      pop\n        /* \"#utility.yul\":287:403   */\n      pop\n        /* \"#utility.yul\":215:410   */\n      swap3\n      swap2\n      pop\n      pop\n      jump\t// out\n        /* \"#utility.yul\":416:531   */\n    tag_26:\n        /* \"#utility.yul\":501:524   */\n      tag_28\n        /* \"#utility.yul\":518:523   */\n      dup2\n        /* \"#utility.yul\":501:524   */\n      tag_29\n      jump\t// in\n    tag_28:\n        /* \"#utility.yul\":496:499   */\n      dup3\n        /* \"#utility.yul\":489:525   */\n      mstore\n        /* \"#utility.yul\":479:531   */\n      pop\n      pop\n      jump\t// out\n        /* \"#utility.yul\":537:755   */\n    tag_9:\n      0x00\n        /* \"#utility.yul\":666:668   */\n      0x20\n        /* \"#utility.yul\":655:664   */\n      dup3\n        /* \"#utility.yul\":651:669   */\n      add\n        /* \"#utility.yul\":643:669   */\n      swap1\n      pop\n        /* \"#utility.yul\":679:748   */\n      tag_31\n        /* \"#utility.yul\":745:746   */\n      0x00\n        /* \"#utility.yul\":734:743   */\n      dup4\n        /* \"#utility.yul\":730:747   */\n      add\n        /* \"#utility.yul\":721:727   */\n      dup5\n        /* \"#utility.yul\":679:748   */\n      tag_26\n      jump\t// in\n    tag_31:\n        /* \"#utility.yul\":633:755   */\n      swap3\n      swap2\n      pop\n      pop\n      jump\t// out\n        /* \"#utility.yul\":761:837   */\n    tag_29:\n      0x00\n        /* \"#utility.yul\":826:831   */\n      dup2\n        /* \"#utility.yul\":815:831   */\n      swap1\n      pop\n        /* \"#utility.yul\":805:837   */\n      swap2\n      swap1\n      pop\n      jump\t// out\n        /* \"#utility.yul\":843:963   */\n    tag_22:\n        /* \"#utility.yul\":915:938   */\n      tag_34\n        /* \"#utility.yul\":932:937   */\n      dup2\n        /* \"#utility.yul\":915:938   */\n      tag_29\n      jump\t// in\n    tag_34:\n        /* \"#utility.yul\":908:913   */\n      dup2\n        /* \"#utility.yul\":905:939   */\n      eq\n        /* \"#utility.yul\":895:897   */\n      tag_35\n      jumpi\n        /* \"#utility.yul\":953:954   */\n      0x00\n        /* \"#utility.yul\":950:951   */\n      dup1\n        /* \"#utility.yul\":943:955   */\n      revert\n        /* \"#utility.yul\":895:897   */\n    tag_35:\n        /* \"#utility.yul\":885:963   */\n      pop\n      jump\t// out\n\n    auxdata: 0xa2646970667358221220c6a67c598dbd4859efd6964bf84ee049c186238d0c122bb4785a94558dc3b24464736f6c63430008000033\n}\n",
				"bytecode": {
					"linkReferences": {},
					"object": "608060405234801561001057600080fd5b50610173806100206000396000f3fe608060405234801561001057600080fd5b50600436106100415760003560e01c80633fa4f245146100465780635093dc7d14610064578063a035b1fe14610080575b600080fd5b61004e61009e565b60405161005b9190610101565b60405180910390f35b61007e600480360381019061007991906100c9565b6100a4565b005b6100886100ae565b6040516100959190610101565b60405180910390f35b60005481565b8060008190555050565b60015481565b6000813590506100c381610126565b92915050565b6000602082840312156100db57600080fd5b60006100e9848285016100b4565b91505092915050565b6100fb8161011c565b82525050565b600060208201905061011660008301846100f2565b92915050565b6000819050919050565b61012f8161011c565b811461013a57600080fd5b5056fea2646970667358221220c6a67c598dbd4859efd6964bf84ee049c186238d0c122bb4785a94558dc3b24464736f6c63430008000033",
					"opcodes": "PUSH1 0x80 PUSH1 0x40 MSTORE CALLVALUE DUP1 ISZERO PUSH2 0x10 JUMPI PUSH1 0x0 DUP1 REVERT JUMPDEST POP PUSH2 0x173 DUP1 PUSH2 0x20 PUSH1 0x0 CODECOPY PUSH1 0x0 RETURN INVALID PUSH1 0x80 PUSH1 0x40 MSTORE CALLVALUE DUP1 ISZERO PUSH2 0x10 JUMPI PUSH1 0x0 DUP1 REVERT JUMPDEST POP PUSH1 0x4 CALLDATASIZE LT PUSH2 0x41 JUMPI PUSH1 0x0 CALLDATALOAD PUSH1 0xE0 SHR DUP1 PUSH4 0x3FA4F245 EQ PUSH2 0x46 JUMPI DUP1 PUSH4 0x5093DC7D EQ PUSH2 0x64 JUMPI DUP1 PUSH4 0xA035B1FE EQ PUSH2 0x80 JUMPI JUMPDEST PUSH1 0x0 DUP1 REVERT JUMPDEST PUSH2 0x4E PUSH2 0x9E JUMP JUMPDEST PUSH1 0x40 MLOAD PUSH2 0x5B SWAP2 SWAP1 PUSH2 0x101 JUMP JUMPDEST PUSH1 0x40 MLOAD DUP1 SWAP2 SUB SWAP1 RETURN JUMPDEST PUSH2 0x7E PUSH1 0x4 DUP1 CALLDATASIZE SUB DUP2 ADD SWAP1 PUSH2 0x79 SWAP2 SWAP1 PUSH2 0xC9 JUMP JUMPDEST PUSH2 0xA4 JUMP JUMPDEST STOP JUMPDEST PUSH2 0x88 PUSH2 0xAE JUMP JUMPDEST PUSH1 0x40 MLOAD PUSH2 0x95 SWAP2 SWAP1 PUSH2 0x101 JUMP JUMPDEST PUSH1 0x40 MLOAD DUP1 SWAP2 SUB SWAP1 RETURN JUMPDEST PUSH1 0x0 SLOAD DUP2 JUMP JUMPDEST DUP1 PUSH1 0x0 DUP2 SWAP1 SSTORE POP POP JUMP JUMPDEST PUSH1 0x1 SLOAD DUP2 JUMP JUMPDEST PUSH1 0x0 DUP2 CALLDATALOAD SWAP1 POP PUSH2 0xC3 DUP2 PUSH2 0x126 JUMP JUMPDEST SWAP3 SWAP2 POP POP JUMP JUMPDEST PUSH1 0x0 PUSH1 0x20 DUP3 DUP5 SUB SLT ISZERO PUSH2 0xDB JUMPI PUSH1 0x0 DUP1 REVERT JUMPDEST PUSH1 0x0 PUSH2 0xE9 DUP5 DUP3 DUP6 ADD PUSH2 0xB4 JUMP JUMPDEST SWAP2 POP POP SWAP3 SWAP2 POP POP JUMP JUMPDEST PUSH2 0xFB DUP2 PUSH2 0x11C JUMP JUMPDEST DUP3 MSTORE POP POP JUMP JUMPDEST PUSH1 0x0 PUSH1 0x20 DUP3 ADD SWAP1 POP PUSH2 0x116 PUSH1 0x0 DUP4 ADD DUP5 PUSH2 0xF2 JUMP JUMPDEST SWAP3 SWAP2 POP POP JUMP JUMPDEST PUSH1 0x0 DUP2 SWAP1 POP SWAP2 SWAP1 POP JUMP JUMPDEST PUSH2 0x12F DUP2 PUSH2 0x11C JUMP JUMPDEST DUP2 EQ PUSH2 0x13A JUMPI PUSH1 0x0 DUP1 REVERT JUMPDEST POP JUMP INVALID LOG2 PUSH5 0x6970667358 0x22 SLT KECCAK256 0xC6 0xA6 PUSH29 0x598DBD4859EFD6964BF84EE049C186238D0C122BB4785A94558DC3B244 PUSH5 0x736F6C6343 STOP ADDMOD STOP STOP CALLER "
				},
				"gasEstimates": {
					"creation": {
						"codeDepositCost": "74200",
						"executionCost": "123",
						"totalCost": "74323"
					},
					"external": {
						"price()": "1151",
						"setValue(int256)": "20420",
						"value()": "1107"
					}
				},
				"methodIdentifiers": {
					"price()": "a035b1fe",
					"setValue(int256)": "5093dc7d",
					"value()": "3fa4f245"
				}
			},
			"storageLayout": {
				"storage": [
					{
						"astId": 3,
						"contract": "contracts/newContract.sol:Property",
						"label": "value",
						"offset": 0,
						"slot": "0",
						"type": "t_int256"
					},
					{
						"astId": 5,
						"contract": "contracts/newContract.sol:Property",
						"label": "price",
						"offset": 0,
						"slot": "1",
						"type": "t_int256"
					}
				],
				"types": {
					"t_int256": {
						"encoding": "inplace",
						"label": "int256",
						"numberOfBytes": "32"
					}
				}
			},
			"userdoc": {
				"kind": "user",
				"methods": {},
				"version": 1
			}
		}
	}
}