{
	"contracts/auction1.sol": {
		"Auction": {
			"abi": [
				{
					"inputs": [],
					"name": "auctionState",
					"outputs": [
						{
							"internalType": "enum Auction.State",
							"name": "",
							"type": "uint8"
						}
					],
					"stateMutability": "view",
					"type": "function"
				},
				{
					"inputs": [],
					"name": "endBlock",
					"outputs": [
						{
							"internalType": "uint256",
							"name": "",
							"type": "uint256"
						}
					],
					"stateMutability": "view",
					"type": "function"
				},
				{
					"inputs": [],
					"name": "highestBindingBid",
					"outputs": [
						{
							"internalType": "uint256",
							"name": "",
							"type": "uint256"
						}
					],
					"stateMutability": "view",
					"type": "function"
				},
				{
					"inputs": [],
					"name": "ipfsHash",
					"outputs": [
						{
							"internalType": "string",
							"name": "",
							"type": "string"
						}
					],
					"stateMutability": "view",
					"type": "function"
				},
				{
					"inputs": [],
					"name": "owner",
					"outputs": [
						{
							"internalType": "address payable",
							"name": "",
							"type": "address"
						}
					],
					"stateMutability": "view",
					"type": "function"
				},
				{
					"inputs": [],
					"name": "startBlock",
					"outputs": [
						{
							"internalType": "uint256",
							"name": "",
							"type": "uint256"
						}
					],
					"stateMutability": "view",
					"type": "function"
				}
			],
			"devdoc": {
				"kind": "dev",
				"methods": {},
				"version": 1
			},
			"evm": {
				"assembly": "    /* \"contracts/auction1.sol\":73:705  contract Auction{\r... */\n  mstore(0x40, 0x80)\n  callvalue\n  dup1\n  iszero\n  tag_1\n  jumpi\n  0x00\n  dup1\n  revert\ntag_1:\n  pop\n  dataSize(sub_0)\n  dup1\n  dataOffset(sub_0)\n  0x00\n  codecopy\n  0x00\n  return\nstop\n\nsub_0: assembly {\n        /* \"contracts/auction1.sol\":73:705  contract Auction{\r... */\n      mstore(0x40, 0x80)\n      callvalue\n      dup1\n      iszero\n      tag_1\n      jumpi\n      0x00\n      dup1\n      revert\n    tag_1:\n      pop\n      jumpi(tag_2, lt(calldatasize, 0x04))\n      shr(0xe0, calldataload(0x00))\n      dup1\n      0x083c6323\n      eq\n      tag_3\n      jumpi\n      dup1\n      0x48cd4cb1\n      eq\n      tag_4\n      jumpi\n      dup1\n      0x7fb45099\n      eq\n      tag_5\n      jumpi\n      dup1\n      0x8da5cb5b\n      eq\n      tag_6\n      jumpi\n      dup1\n      0xc623674f\n      eq\n      tag_7\n      jumpi\n      dup1\n      0xf5b56c56\n      eq\n      tag_8\n      jumpi\n    tag_2:\n      0x00\n      dup1\n      revert\n        /* \"contracts/auction1.sol\":262:282  uint public endBlock */\n    tag_3:\n      tag_9\n      tag_10\n      jump\t// in\n    tag_9:\n      mload(0x40)\n      tag_11\n      swap2\n      swap1\n      tag_12\n      jump\t// in\n    tag_11:\n      mload(0x40)\n      dup1\n      swap2\n      sub\n      swap1\n      return\n        /* \"contracts/auction1.sol\":233:255  uint public startBlock */\n    tag_4:\n      tag_13\n      tag_14\n      jump\t// in\n    tag_13:\n      mload(0x40)\n      tag_15\n      swap2\n      swap1\n      tag_12\n      jump\t// in\n    tag_15:\n      mload(0x40)\n      dup1\n      swap2\n      sub\n      swap1\n      return\n        /* \"contracts/auction1.sol\":576:601  State public auctionState */\n    tag_5:\n      tag_16\n      tag_17\n      jump\t// in\n    tag_16:\n      mload(0x40)\n      tag_18\n      swap2\n      swap1\n      tag_19\n      jump\t// in\n    tag_18:\n      mload(0x40)\n      dup1\n      swap2\n      sub\n      swap1\n      return\n        /* \"contracts/auction1.sol\":140:168  address payable public owner */\n    tag_6:\n      tag_20\n      tag_21\n      jump\t// in\n    tag_20:\n      mload(0x40)\n      tag_22\n      swap2\n      swap1\n      tag_23\n      jump\t// in\n    tag_22:\n      mload(0x40)\n      dup1\n      swap2\n      sub\n      swap1\n      return\n        /* \"contracts/auction1.sol\":353:375  string public ipfsHash */\n    tag_7:\n      tag_24\n      tag_25\n      jump\t// in\n    tag_24:\n      mload(0x40)\n      tag_26\n      swap2\n      swap1\n      tag_27\n      jump\t// in\n    tag_26:\n      mload(0x40)\n      dup1\n      swap2\n      sub\n      swap1\n      return\n        /* \"contracts/auction1.sol\":660:689  uint public highestBindingBid */\n    tag_8:\n      tag_28\n      tag_29\n      jump\t// in\n    tag_28:\n      mload(0x40)\n      tag_30\n      swap2\n      swap1\n      tag_12\n      jump\t// in\n    tag_30:\n      mload(0x40)\n      dup1\n      swap2\n      sub\n      swap1\n      return\n        /* \"contracts/auction1.sol\":262:282  uint public endBlock */\n    tag_10:\n      sload(0x02)\n      dup2\n      jump\t// out\n        /* \"contracts/auction1.sol\":233:255  uint public startBlock */\n    tag_14:\n      sload(0x01)\n      dup2\n      jump\t// out\n        /* \"contracts/auction1.sol\":576:601  State public auctionState */\n    tag_17:\n      0x04\n      0x00\n      swap1\n      sload\n      swap1\n      0x0100\n      exp\n      swap1\n      div\n      0xff\n      and\n      dup2\n      jump\t// out\n        /* \"contracts/auction1.sol\":140:168  address payable public owner */\n    tag_21:\n      0x00\n      dup1\n      sload\n      swap1\n      0x0100\n      exp\n      swap1\n      div\n      0xffffffffffffffffffffffffffffffffffffffff\n      and\n      dup2\n      jump\t// out\n        /* \"contracts/auction1.sol\":353:375  string public ipfsHash */\n    tag_25:\n      0x03\n      dup1\n      sload\n      tag_31\n      swap1\n      tag_32\n      jump\t// in\n    tag_31:\n      dup1\n      0x1f\n      add\n      0x20\n      dup1\n      swap2\n      div\n      mul\n      0x20\n      add\n      mload(0x40)\n      swap1\n      dup2\n      add\n      0x40\n      mstore\n      dup1\n      swap3\n      swap2\n      swap1\n      dup2\n      dup2\n      mstore\n      0x20\n      add\n      dup3\n      dup1\n      sload\n      tag_33\n      swap1\n      tag_32\n      jump\t// in\n    tag_33:\n      dup1\n      iszero\n      tag_34\n      jumpi\n      dup1\n      0x1f\n      lt\n      tag_35\n      jumpi\n      0x0100\n      dup1\n      dup4\n      sload\n      div\n      mul\n      dup4\n      mstore\n      swap2\n      0x20\n      add\n      swap2\n      jump(tag_34)\n    tag_35:\n      dup3\n      add\n      swap2\n      swap1\n      0x00\n      mstore\n      keccak256(0x00, 0x20)\n      swap1\n    tag_36:\n      dup2\n      sload\n      dup2\n      mstore\n      swap1\n      0x01\n      add\n      swap1\n      0x20\n      add\n      dup1\n      dup4\n      gt\n      tag_36\n      jumpi\n      dup3\n      swap1\n      sub\n      0x1f\n      and\n      dup3\n      add\n      swap2\n    tag_34:\n      pop\n      pop\n      pop\n      pop\n      pop\n      dup2\n      jump\t// out\n        /* \"contracts/auction1.sol\":660:689  uint public highestBindingBid */\n    tag_29:\n      sload(0x05)\n      dup2\n      jump\t// out\n        /* \"#utility.yul\":7:149   */\n    tag_38:\n        /* \"#utility.yul\":110:142   */\n      tag_40\n        /* \"#utility.yul\":136:141   */\n      dup2\n        /* \"#utility.yul\":110:142   */\n      tag_41\n      jump\t// in\n    tag_40:\n        /* \"#utility.yul\":105:108   */\n      dup3\n        /* \"#utility.yul\":98:143   */\n      mstore\n        /* \"#utility.yul\":7:149   */\n      pop\n      pop\n      jump\t// out\n        /* \"#utility.yul\":155:298   */\n    tag_42:\n        /* \"#utility.yul\":248:291   */\n      tag_44\n        /* \"#utility.yul\":285:290   */\n      dup2\n        /* \"#utility.yul\":248:291   */\n      tag_45\n      jump\t// in\n    tag_44:\n        /* \"#utility.yul\":243:246   */\n      dup3\n        /* \"#utility.yul\":236:292   */\n      mstore\n        /* \"#utility.yul\":155:298   */\n      pop\n      pop\n      jump\t// out\n        /* \"#utility.yul\":304:668   */\n    tag_46:\n        /* \"#utility.yul\":392:395   */\n      0x00\n        /* \"#utility.yul\":420:459   */\n      tag_48\n        /* \"#utility.yul\":453:458   */\n      dup3\n        /* \"#utility.yul\":420:459   */\n      tag_49\n      jump\t// in\n    tag_48:\n        /* \"#utility.yul\":475:546   */\n      tag_50\n        /* \"#utility.yul\":539:545   */\n      dup2\n        /* \"#utility.yul\":534:537   */\n      dup6\n        /* \"#utility.yul\":475:546   */\n      tag_51\n      jump\t// in\n    tag_50:\n        /* \"#utility.yul\":468:546   */\n      swap4\n      pop\n        /* \"#utility.yul\":555:607   */\n      tag_52\n        /* \"#utility.yul\":600:606   */\n      dup2\n        /* \"#utility.yul\":595:598   */\n      dup6\n        /* \"#utility.yul\":588:592   */\n      0x20\n        /* \"#utility.yul\":581:586   */\n      dup7\n        /* \"#utility.yul\":577:593   */\n      add\n        /* \"#utility.yul\":555:607   */\n      tag_53\n      jump\t// in\n    tag_52:\n        /* \"#utility.yul\":632:661   */\n      tag_54\n        /* \"#utility.yul\":654:660   */\n      dup2\n        /* \"#utility.yul\":632:661   */\n      tag_55\n      jump\t// in\n    tag_54:\n        /* \"#utility.yul\":627:630   */\n      dup5\n        /* \"#utility.yul\":623:662   */\n      add\n        /* \"#utility.yul\":616:662   */\n      swap2\n      pop\n        /* \"#utility.yul\":396:668   */\n      pop\n        /* \"#utility.yul\":304:668   */\n      swap3\n      swap2\n      pop\n      pop\n      jump\t// out\n        /* \"#utility.yul\":674:792   */\n    tag_56:\n        /* \"#utility.yul\":761:785   */\n      tag_58\n        /* \"#utility.yul\":779:784   */\n      dup2\n        /* \"#utility.yul\":761:785   */\n      tag_59\n      jump\t// in\n    tag_58:\n        /* \"#utility.yul\":756:759   */\n      dup3\n        /* \"#utility.yul\":749:786   */\n      mstore\n        /* \"#utility.yul\":674:792   */\n      pop\n      pop\n      jump\t// out\n        /* \"#utility.yul\":798:1052   */\n    tag_23:\n        /* \"#utility.yul\":907:911   */\n      0x00\n        /* \"#utility.yul\":945:947   */\n      0x20\n        /* \"#utility.yul\":934:943   */\n      dup3\n        /* \"#utility.yul\":930:948   */\n      add\n        /* \"#utility.yul\":922:948   */\n      swap1\n      pop\n        /* \"#utility.yul\":958:1045   */\n      tag_61\n        /* \"#utility.yul\":1042:1043   */\n      0x00\n        /* \"#utility.yul\":1031:1040   */\n      dup4\n        /* \"#utility.yul\":1027:1044   */\n      add\n        /* \"#utility.yul\":1018:1024   */\n      dup5\n        /* \"#utility.yul\":958:1045   */\n      tag_38\n      jump\t// in\n    tag_61:\n        /* \"#utility.yul\":798:1052   */\n      swap3\n      swap2\n      pop\n      pop\n      jump\t// out\n        /* \"#utility.yul\":1058:1292   */\n    tag_19:\n        /* \"#utility.yul\":1157:1161   */\n      0x00\n        /* \"#utility.yul\":1195:1197   */\n      0x20\n        /* \"#utility.yul\":1184:1193   */\n      dup3\n        /* \"#utility.yul\":1180:1198   */\n      add\n        /* \"#utility.yul\":1172:1198   */\n      swap1\n      pop\n        /* \"#utility.yul\":1208:1285   */\n      tag_63\n        /* \"#utility.yul\":1282:1283   */\n      0x00\n        /* \"#utility.yul\":1271:1280   */\n      dup4\n        /* \"#utility.yul\":1267:1284   */\n      add\n        /* \"#utility.yul\":1258:1264   */\n      dup5\n        /* \"#utility.yul\":1208:1285   */\n      tag_42\n      jump\t// in\n    tag_63:\n        /* \"#utility.yul\":1058:1292   */\n      swap3\n      swap2\n      pop\n      pop\n      jump\t// out\n        /* \"#utility.yul\":1298:1611   */\n    tag_27:\n        /* \"#utility.yul\":1411:1415   */\n      0x00\n        /* \"#utility.yul\":1449:1451   */\n      0x20\n        /* \"#utility.yul\":1438:1447   */\n      dup3\n        /* \"#utility.yul\":1434:1452   */\n      add\n        /* \"#utility.yul\":1426:1452   */\n      swap1\n      pop\n        /* \"#utility.yul\":1498:1507   */\n      dup2\n        /* \"#utility.yul\":1492:1496   */\n      dup2\n        /* \"#utility.yul\":1488:1508   */\n      sub\n        /* \"#utility.yul\":1484:1485   */\n      0x00\n        /* \"#utility.yul\":1473:1482   */\n      dup4\n        /* \"#utility.yul\":1469:1486   */\n      add\n        /* \"#utility.yul\":1462:1509   */\n      mstore\n        /* \"#utility.yul\":1526:1604   */\n      tag_65\n        /* \"#utility.yul\":1599:1603   */\n      dup2\n        /* \"#utility.yul\":1590:1596   */\n      dup5\n        /* \"#utility.yul\":1526:1604   */\n      tag_46\n      jump\t// in\n    tag_65:\n        /* \"#utility.yul\":1518:1604   */\n      swap1\n      pop\n        /* \"#utility.yul\":1298:1611   */\n      swap3\n      swap2\n      pop\n      pop\n      jump\t// out\n        /* \"#utility.yul\":1617:1839   */\n    tag_12:\n        /* \"#utility.yul\":1710:1714   */\n      0x00\n        /* \"#utility.yul\":1748:1750   */\n      0x20\n        /* \"#utility.yul\":1737:1746   */\n      dup3\n        /* \"#utility.yul\":1733:1751   */\n      add\n        /* \"#utility.yul\":1725:1751   */\n      swap1\n      pop\n        /* \"#utility.yul\":1761:1832   */\n      tag_67\n        /* \"#utility.yul\":1829:1830   */\n      0x00\n        /* \"#utility.yul\":1818:1827   */\n      dup4\n        /* \"#utility.yul\":1814:1831   */\n      add\n        /* \"#utility.yul\":1805:1811   */\n      dup5\n        /* \"#utility.yul\":1761:1832   */\n      tag_56\n      jump\t// in\n    tag_67:\n        /* \"#utility.yul\":1617:1839   */\n      swap3\n      swap2\n      pop\n      pop\n      jump\t// out\n        /* \"#utility.yul\":1845:1944   */\n    tag_49:\n        /* \"#utility.yul\":1897:1903   */\n      0x00\n        /* \"#utility.yul\":1931:1936   */\n      dup2\n        /* \"#utility.yul\":1925:1937   */\n      mload\n        /* \"#utility.yul\":1915:1937   */\n      swap1\n      pop\n        /* \"#utility.yul\":1845:1944   */\n      swap2\n      swap1\n      pop\n      jump\t// out\n        /* \"#utility.yul\":1950:2119   */\n    tag_51:\n        /* \"#utility.yul\":2034:2045   */\n      0x00\n        /* \"#utility.yul\":2068:2074   */\n      dup3\n        /* \"#utility.yul\":2063:2066   */\n      dup3\n        /* \"#utility.yul\":2056:2075   */\n      mstore\n        /* \"#utility.yul\":2108:2112   */\n      0x20\n        /* \"#utility.yul\":2103:2106   */\n      dup3\n        /* \"#utility.yul\":2099:2113   */\n      add\n        /* \"#utility.yul\":2084:2113   */\n      swap1\n      pop\n        /* \"#utility.yul\":1950:2119   */\n      swap3\n      swap2\n      pop\n      pop\n      jump\t// out\n        /* \"#utility.yul\":2125:2229   */\n    tag_41:\n        /* \"#utility.yul\":2170:2177   */\n      0x00\n        /* \"#utility.yul\":2199:2223   */\n      tag_71\n        /* \"#utility.yul\":2217:2222   */\n      dup3\n        /* \"#utility.yul\":2199:2223   */\n      tag_72\n      jump\t// in\n    tag_71:\n        /* \"#utility.yul\":2188:2223   */\n      swap1\n      pop\n        /* \"#utility.yul\":2125:2229   */\n      swap2\n      swap1\n      pop\n      jump\t// out\n        /* \"#utility.yul\":2235:2362   */\n    tag_73:\n        /* \"#utility.yul\":2280:2287   */\n      0x00\n        /* \"#utility.yul\":2309:2314   */\n      dup2\n        /* \"#utility.yul\":2298:2314   */\n      swap1\n      pop\n        /* \"#utility.yul\":2315:2356   */\n      tag_75\n        /* \"#utility.yul\":2350:2355   */\n      dup3\n        /* \"#utility.yul\":2315:2356   */\n      tag_76\n      jump\t// in\n    tag_75:\n        /* \"#utility.yul\":2235:2362   */\n      swap2\n      swap1\n      pop\n      jump\t// out\n        /* \"#utility.yul\":2368:2494   */\n    tag_72:\n        /* \"#utility.yul\":2405:2412   */\n      0x00\n        /* \"#utility.yul\":2445:2487   */\n      0xffffffffffffffffffffffffffffffffffffffff\n        /* \"#utility.yul\":2438:2443   */\n      dup3\n        /* \"#utility.yul\":2434:2488   */\n      and\n        /* \"#utility.yul\":2423:2488   */\n      swap1\n      pop\n        /* \"#utility.yul\":2368:2494   */\n      swap2\n      swap1\n      pop\n      jump\t// out\n        /* \"#utility.yul\":2500:2577   */\n    tag_59:\n        /* \"#utility.yul\":2537:2544   */\n      0x00\n        /* \"#utility.yul\":2566:2571   */\n      dup2\n        /* \"#utility.yul\":2555:2571   */\n      swap1\n      pop\n        /* \"#utility.yul\":2500:2577   */\n      swap2\n      swap1\n      pop\n      jump\t// out\n        /* \"#utility.yul\":2583:2710   */\n    tag_45:\n        /* \"#utility.yul\":2639:2648   */\n      0x00\n        /* \"#utility.yul\":2672:2704   */\n      tag_80\n        /* \"#utility.yul\":2698:2703   */\n      dup3\n        /* \"#utility.yul\":2672:2704   */\n      tag_73\n      jump\t// in\n    tag_80:\n        /* \"#utility.yul\":2659:2704   */\n      swap1\n      pop\n        /* \"#utility.yul\":2583:2710   */\n      swap2\n      swap1\n      pop\n      jump\t// out\n        /* \"#utility.yul\":2716:3023   */\n    tag_53:\n        /* \"#utility.yul\":2784:2785   */\n      0x00\n        /* \"#utility.yul\":2794:2907   */\n    tag_82:\n        /* \"#utility.yul\":2808:2814   */\n      dup4\n        /* \"#utility.yul\":2805:2806   */\n      dup2\n        /* \"#utility.yul\":2802:2815   */\n      lt\n        /* \"#utility.yul\":2794:2907   */\n      iszero\n      tag_84\n      jumpi\n        /* \"#utility.yul\":2893:2894   */\n      dup1\n        /* \"#utility.yul\":2888:2891   */\n      dup3\n        /* \"#utility.yul\":2884:2895   */\n      add\n        /* \"#utility.yul\":2878:2896   */\n      mload\n        /* \"#utility.yul\":2874:2875   */\n      dup2\n        /* \"#utility.yul\":2869:2872   */\n      dup5\n        /* \"#utility.yul\":2865:2876   */\n      add\n        /* \"#utility.yul\":2858:2897   */\n      mstore\n        /* \"#utility.yul\":2830:2832   */\n      0x20\n        /* \"#utility.yul\":2827:2828   */\n      dup2\n        /* \"#utility.yul\":2823:2833   */\n      add\n        /* \"#utility.yul\":2818:2833   */\n      swap1\n      pop\n        /* \"#utility.yul\":2794:2907   */\n      jump(tag_82)\n    tag_84:\n        /* \"#utility.yul\":2925:2931   */\n      dup4\n        /* \"#utility.yul\":2922:2923   */\n      dup2\n        /* \"#utility.yul\":2919:2932   */\n      gt\n        /* \"#utility.yul\":2916:3017   */\n      iszero\n      tag_85\n      jumpi\n        /* \"#utility.yul\":3005:3006   */\n      0x00\n        /* \"#utility.yul\":2996:3002   */\n      dup5\n        /* \"#utility.yul\":2991:2994   */\n      dup5\n        /* \"#utility.yul\":2987:3003   */\n      add\n        /* \"#utility.yul\":2980:3007   */\n      mstore\n        /* \"#utility.yul\":2916:3017   */\n    tag_85:\n        /* \"#utility.yul\":2765:3023   */\n      pop\n        /* \"#utility.yul\":2716:3023   */\n      pop\n      pop\n      pop\n      jump\t// out\n        /* \"#utility.yul\":3029:3349   */\n    tag_32:\n        /* \"#utility.yul\":3073:3079   */\n      0x00\n        /* \"#utility.yul\":3110:3111   */\n      0x02\n        /* \"#utility.yul\":3104:3108   */\n      dup3\n        /* \"#utility.yul\":3100:3112   */\n      div\n        /* \"#utility.yul\":3090:3112   */\n      swap1\n      pop\n        /* \"#utility.yul\":3157:3158   */\n      0x01\n        /* \"#utility.yul\":3151:3155   */\n      dup3\n        /* \"#utility.yul\":3147:3159   */\n      and\n        /* \"#utility.yul\":3178:3196   */\n      dup1\n        /* \"#utility.yul\":3168:3249   */\n      tag_87\n      jumpi\n        /* \"#utility.yul\":3234:3238   */\n      0x7f\n        /* \"#utility.yul\":3226:3232   */\n      dup3\n        /* \"#utility.yul\":3222:3239   */\n      and\n        /* \"#utility.yul\":3212:3239   */\n      swap2\n      pop\n        /* \"#utility.yul\":3168:3249   */\n    tag_87:\n        /* \"#utility.yul\":3296:3298   */\n      0x20\n        /* \"#utility.yul\":3288:3294   */\n      dup3\n        /* \"#utility.yul\":3285:3299   */\n      lt\n        /* \"#utility.yul\":3265:3283   */\n      dup2\n        /* \"#utility.yul\":3262:3300   */\n      eq\n        /* \"#utility.yul\":3259:3343   */\n      iszero\n      tag_88\n      jumpi\n        /* \"#utility.yul\":3315:3333   */\n      tag_89\n      tag_90\n      jump\t// in\n    tag_89:\n        /* \"#utility.yul\":3259:3343   */\n    tag_88:\n        /* \"#utility.yul\":3080:3349   */\n      pop\n        /* \"#utility.yul\":3029:3349   */\n      swap2\n      swap1\n      pop\n      jump\t// out\n        /* \"#utility.yul\":3355:3535   */\n    tag_91:\n        /* \"#utility.yul\":3403:3480   */\n      0x4e487b7100000000000000000000000000000000000000000000000000000000\n        /* \"#utility.yul\":3400:3401   */\n      0x00\n        /* \"#utility.yul\":3393:3481   */\n      mstore\n        /* \"#utility.yul\":3500:3504   */\n      0x21\n        /* \"#utility.yul\":3497:3498   */\n      0x04\n        /* \"#utility.yul\":3490:3505   */\n      mstore\n        /* \"#utility.yul\":3524:3528   */\n      0x24\n        /* \"#utility.yul\":3521:3522   */\n      0x00\n        /* \"#utility.yul\":3514:3529   */\n      revert\n        /* \"#utility.yul\":3541:3721   */\n    tag_90:\n        /* \"#utility.yul\":3589:3666   */\n      0x4e487b7100000000000000000000000000000000000000000000000000000000\n        /* \"#utility.yul\":3586:3587   */\n      0x00\n        /* \"#utility.yul\":3579:3667   */\n      mstore\n        /* \"#utility.yul\":3686:3690   */\n      0x22\n        /* \"#utility.yul\":3683:3684   */\n      0x04\n        /* \"#utility.yul\":3676:3691   */\n      mstore\n        /* \"#utility.yul\":3710:3714   */\n      0x24\n        /* \"#utility.yul\":3707:3708   */\n      0x00\n        /* \"#utility.yul\":3700:3715   */\n      revert\n        /* \"#utility.yul\":3727:3829   */\n    tag_55:\n        /* \"#utility.yul\":3768:3774   */\n      0x00\n        /* \"#utility.yul\":3819:3821   */\n      0x1f\n        /* \"#utility.yul\":3815:3822   */\n      not\n        /* \"#utility.yul\":3810:3812   */\n      0x1f\n        /* \"#utility.yul\":3803:3808   */\n      dup4\n        /* \"#utility.yul\":3799:3813   */\n      add\n        /* \"#utility.yul\":3795:3823   */\n      and\n        /* \"#utility.yul\":3785:3823   */\n      swap1\n      pop\n        /* \"#utility.yul\":3727:3829   */\n      swap2\n      swap1\n      pop\n      jump\t// out\n        /* \"#utility.yul\":3835:3948   */\n    tag_76:\n        /* \"#utility.yul\":3916:3917   */\n      0x04\n        /* \"#utility.yul\":3909:3914   */\n      dup2\n        /* \"#utility.yul\":3906:3918   */\n      lt\n        /* \"#utility.yul\":3896:3942   */\n      tag_96\n      jumpi\n        /* \"#utility.yul\":3922:3940   */\n      tag_97\n      tag_91\n      jump\t// in\n    tag_97:\n        /* \"#utility.yul\":3896:3942   */\n    tag_96:\n        /* \"#utility.yul\":3835:3948   */\n      pop\n      jump\t// out\n\n    auxdata: 0xa264697066735822122069428bf6683eca365d40160d5160884d4a9b879de8b429d634b7d8e9879ed93664736f6c63430008070033\n}\n",
				"bytecode": {
					"linkReferences": {},
					"object": "608060405234801561001057600080fd5b50610466806100206000396000f3fe608060405234801561001057600080fd5b50600436106100625760003560e01c8063083c63231461006757806348cd4cb1146100855780637fb45099146100a35780638da5cb5b146100c1578063c623674f146100df578063f5b56c56146100fd575b600080fd5b61006f61011b565b60405161007c91906102b0565b60405180910390f35b61008d610121565b60405161009a91906102b0565b60405180910390f35b6100ab610127565b6040516100b89190610273565b60405180910390f35b6100c961013a565b6040516100d69190610258565b60405180910390f35b6100e761015e565b6040516100f4919061028e565b60405180910390f35b6101056101ec565b60405161011291906102b0565b60405180910390f35b60025481565b60015481565b600460009054906101000a900460ff1681565b60008054906101000a900473ffffffffffffffffffffffffffffffffffffffff1681565b6003805461016b9061037b565b80601f01602080910402602001604051908101604052809291908181526020018280546101979061037b565b80156101e45780601f106101b9576101008083540402835291602001916101e4565b820191906000526020600020905b8154815290600101906020018083116101c757829003601f168201915b505050505081565b60055481565b6101fb816102e7565b82525050565b61020a81610336565b82525050565b600061021b826102cb565b61022581856102d6565b9350610235818560208601610348565b61023e8161040b565b840191505092915050565b6102528161032c565b82525050565b600060208201905061026d60008301846101f2565b92915050565b60006020820190506102886000830184610201565b92915050565b600060208201905081810360008301526102a88184610210565b905092915050565b60006020820190506102c56000830184610249565b92915050565b600081519050919050565b600082825260208201905092915050565b60006102f28261030c565b9050919050565b60008190506103078261041c565b919050565b600073ffffffffffffffffffffffffffffffffffffffff82169050919050565b6000819050919050565b6000610341826102f9565b9050919050565b60005b8381101561036657808201518184015260208101905061034b565b83811115610375576000848401525b50505050565b6000600282049050600182168061039357607f821691505b602082108114156103a7576103a66103dc565b5b50919050565b7f4e487b7100000000000000000000000000000000000000000000000000000000600052602160045260246000fd5b7f4e487b7100000000000000000000000000000000000000000000000000000000600052602260045260246000fd5b6000601f19601f8301169050919050565b6004811061042d5761042c6103ad565b5b5056fea264697066735822122069428bf6683eca365d40160d5160884d4a9b879de8b429d634b7d8e9879ed93664736f6c63430008070033",
					"opcodes": "PUSH1 0x80 PUSH1 0x40 MSTORE CALLVALUE DUP1 ISZERO PUSH2 0x10 JUMPI PUSH1 0x0 DUP1 REVERT JUMPDEST POP PUSH2 0x466 DUP1 PUSH2 0x20 PUSH1 0x0 CODECOPY PUSH1 0x0 RETURN INVALID PUSH1 0x80 PUSH1 0x40 MSTORE CALLVALUE DUP1 ISZERO PUSH2 0x10 JUMPI PUSH1 0x0 DUP1 REVERT JUMPDEST POP PUSH1 0x4 CALLDATASIZE LT PUSH2 0x62 JUMPI PUSH1 0x0 CALLDATALOAD PUSH1 0xE0 SHR DUP1 PUSH4 0x83C6323 EQ PUSH2 0x67 JUMPI DUP1 PUSH4 0x48CD4CB1 EQ PUSH2 0x85 JUMPI DUP1 PUSH4 0x7FB45099 EQ PUSH2 0xA3 JUMPI DUP1 PUSH4 0x8DA5CB5B EQ PUSH2 0xC1 JUMPI DUP1 PUSH4 0xC623674F EQ PUSH2 0xDF JUMPI DUP1 PUSH4 0xF5B56C56 EQ PUSH2 0xFD JUMPI JUMPDEST PUSH1 0x0 DUP1 REVERT JUMPDEST PUSH2 0x6F PUSH2 0x11B JUMP JUMPDEST PUSH1 0x40 MLOAD PUSH2 0x7C SWAP2 SWAP1 PUSH2 0x2B0 JUMP JUMPDEST PUSH1 0x40 MLOAD DUP1 SWAP2 SUB SWAP1 RETURN JUMPDEST PUSH2 0x8D PUSH2 0x121 JUMP JUMPDEST PUSH1 0x40 MLOAD PUSH2 0x9A SWAP2 SWAP1 PUSH2 0x2B0 JUMP JUMPDEST PUSH1 0x40 MLOAD DUP1 SWAP2 SUB SWAP1 RETURN JUMPDEST PUSH2 0xAB PUSH2 0x127 JUMP JUMPDEST PUSH1 0x40 MLOAD PUSH2 0xB8 SWAP2 SWAP1 PUSH2 0x273 JUMP JUMPDEST PUSH1 0x40 MLOAD DUP1 SWAP2 SUB SWAP1 RETURN JUMPDEST PUSH2 0xC9 PUSH2 0x13A JUMP JUMPDEST PUSH1 0x40 MLOAD PUSH2 0xD6 SWAP2 SWAP1 PUSH2 0x258 JUMP JUMPDEST PUSH1 0x40 MLOAD DUP1 SWAP2 SUB SWAP1 RETURN JUMPDEST PUSH2 0xE7 PUSH2 0x15E JUMP JUMPDEST PUSH1 0x40 MLOAD PUSH2 0xF4 SWAP2 SWAP1 PUSH2 0x28E JUMP JUMPDEST PUSH1 0x40 MLOAD DUP1 SWAP2 SUB SWAP1 RETURN JUMPDEST PUSH2 0x105 PUSH2 0x1EC JUMP JUMPDEST PUSH1 0x40 MLOAD PUSH2 0x112 SWAP2 SWAP1 PUSH2 0x2B0 JUMP JUMPDEST PUSH1 0x40 MLOAD DUP1 SWAP2 SUB SWAP1 RETURN JUMPDEST PUSH1 0x2 SLOAD DUP2 JUMP JUMPDEST PUSH1 0x1 SLOAD DUP2 JUMP JUMPDEST PUSH1 0x4 PUSH1 0x0 SWAP1 SLOAD SWAP1 PUSH2 0x100 EXP SWAP1 DIV PUSH1 0xFF AND DUP2 JUMP JUMPDEST PUSH1 0x0 DUP1 SLOAD SWAP1 PUSH2 0x100 EXP SWAP1 DIV PUSH20 0xFFFFFFFFFFFFFFFFFFFFFFFFFFFFFFFFFFFFFFFF AND DUP2 JUMP JUMPDEST PUSH1 0x3 DUP1 SLOAD PUSH2 0x16B SWAP1 PUSH2 0x37B JUMP JUMPDEST DUP1 PUSH1 0x1F ADD PUSH1 0x20 DUP1 SWAP2 DIV MUL PUSH1 0x20 ADD PUSH1 0x40 MLOAD SWAP1 DUP2 ADD PUSH1 0x40 MSTORE DUP1 SWAP3 SWAP2 SWAP1 DUP2 DUP2 MSTORE PUSH1 0x20 ADD DUP3 DUP1 SLOAD PUSH2 0x197 SWAP1 PUSH2 0x37B JUMP JUMPDEST DUP1 ISZERO PUSH2 0x1E4 JUMPI DUP1 PUSH1 0x1F LT PUSH2 0x1B9 JUMPI PUSH2 0x100 DUP1 DUP4 SLOAD DIV MUL DUP4 MSTORE SWAP2 PUSH1 0x20 ADD SWAP2 PUSH2 0x1E4 JUMP JUMPDEST DUP3 ADD SWAP2 SWAP1 PUSH1 0x0 MSTORE PUSH1 0x20 PUSH1 0x0 KECCAK256 SWAP1 JUMPDEST DUP2 SLOAD DUP2 MSTORE SWAP1 PUSH1 0x1 ADD SWAP1 PUSH1 0x20 ADD DUP1 DUP4 GT PUSH2 0x1C7 JUMPI DUP3 SWAP1 SUB PUSH1 0x1F AND DUP3 ADD SWAP2 JUMPDEST POP POP POP POP POP DUP2 JUMP JUMPDEST PUSH1 0x5 SLOAD DUP2 JUMP JUMPDEST PUSH2 0x1FB DUP2 PUSH2 0x2E7 JUMP JUMPDEST DUP3 MSTORE POP POP JUMP JUMPDEST PUSH2 0x20A DUP2 PUSH2 0x336 JUMP JUMPDEST DUP3 MSTORE POP POP JUMP JUMPDEST PUSH1 0x0 PUSH2 0x21B DUP3 PUSH2 0x2CB JUMP JUMPDEST PUSH2 0x225 DUP2 DUP6 PUSH2 0x2D6 JUMP JUMPDEST SWAP4 POP PUSH2 0x235 DUP2 DUP6 PUSH1 0x20 DUP7 ADD PUSH2 0x348 JUMP JUMPDEST PUSH2 0x23E DUP2 PUSH2 0x40B JUMP JUMPDEST DUP5 ADD SWAP2 POP POP SWAP3 SWAP2 POP POP JUMP JUMPDEST PUSH2 0x252 DUP2 PUSH2 0x32C JUMP JUMPDEST DUP3 MSTORE POP POP JUMP JUMPDEST PUSH1 0x0 PUSH1 0x20 DUP3 ADD SWAP1 POP PUSH2 0x26D PUSH1 0x0 DUP4 ADD DUP5 PUSH2 0x1F2 JUMP JUMPDEST SWAP3 SWAP2 POP POP JUMP JUMPDEST PUSH1 0x0 PUSH1 0x20 DUP3 ADD SWAP1 POP PUSH2 0x288 PUSH1 0x0 DUP4 ADD DUP5 PUSH2 0x201 JUMP JUMPDEST SWAP3 SWAP2 POP POP JUMP JUMPDEST PUSH1 0x0 PUSH1 0x20 DUP3 ADD SWAP1 POP DUP2 DUP2 SUB PUSH1 0x0 DUP4 ADD MSTORE PUSH2 0x2A8 DUP2 DUP5 PUSH2 0x210 JUMP JUMPDEST SWAP1 POP SWAP3 SWAP2 POP POP JUMP JUMPDEST PUSH1 0x0 PUSH1 0x20 DUP3 ADD SWAP1 POP PUSH2 0x2C5 PUSH1 0x0 DUP4 ADD DUP5 PUSH2 0x249 JUMP JUMPDEST SWAP3 SWAP2 POP POP JUMP JUMPDEST PUSH1 0x0 DUP2 MLOAD SWAP1 POP SWAP2 SWAP1 POP JUMP JUMPDEST PUSH1 0x0 DUP3 DUP3 MSTORE PUSH1 0x20 DUP3 ADD SWAP1 POP SWAP3 SWAP2 POP POP JUMP JUMPDEST PUSH1 0x0 PUSH2 0x2F2 DUP3 PUSH2 0x30C JUMP JUMPDEST SWAP1 POP SWAP2 SWAP1 POP JUMP JUMPDEST PUSH1 0x0 DUP2 SWAP1 POP PUSH2 0x307 DUP3 PUSH2 0x41C JUMP JUMPDEST SWAP2 SWAP1 POP JUMP JUMPDEST PUSH1 0x0 PUSH20 0xFFFFFFFFFFFFFFFFFFFFFFFFFFFFFFFFFFFFFFFF DUP3 AND SWAP1 POP SWAP2 SWAP1 POP JUMP JUMPDEST PUSH1 0x0 DUP2 SWAP1 POP SWAP2 SWAP1 POP JUMP JUMPDEST PUSH1 0x0 PUSH2 0x341 DUP3 PUSH2 0x2F9 JUMP JUMPDEST SWAP1 POP SWAP2 SWAP1 POP JUMP JUMPDEST PUSH1 0x0 JUMPDEST DUP4 DUP2 LT ISZERO PUSH2 0x366 JUMPI DUP1 DUP3 ADD MLOAD DUP2 DUP5 ADD MSTORE PUSH1 0x20 DUP2 ADD SWAP1 POP PUSH2 0x34B JUMP JUMPDEST DUP4 DUP2 GT ISZERO PUSH2 0x375 JUMPI PUSH1 0x0 DUP5 DUP5 ADD MSTORE JUMPDEST POP POP POP POP JUMP JUMPDEST PUSH1 0x0 PUSH1 0x2 DUP3 DIV SWAP1 POP PUSH1 0x1 DUP3 AND DUP1 PUSH2 0x393 JUMPI PUSH1 0x7F DUP3 AND SWAP2 POP JUMPDEST PUSH1 0x20 DUP3 LT DUP2 EQ ISZERO PUSH2 0x3A7 JUMPI PUSH2 0x3A6 PUSH2 0x3DC JUMP JUMPDEST JUMPDEST POP SWAP2 SWAP1 POP JUMP JUMPDEST PUSH32 0x4E487B7100000000000000000000000000000000000000000000000000000000 PUSH1 0x0 MSTORE PUSH1 0x21 PUSH1 0x4 MSTORE PUSH1 0x24 PUSH1 0x0 REVERT JUMPDEST PUSH32 0x4E487B7100000000000000000000000000000000000000000000000000000000 PUSH1 0x0 MSTORE PUSH1 0x22 PUSH1 0x4 MSTORE PUSH1 0x24 PUSH1 0x0 REVERT JUMPDEST PUSH1 0x0 PUSH1 0x1F NOT PUSH1 0x1F DUP4 ADD AND SWAP1 POP SWAP2 SWAP1 POP JUMP JUMPDEST PUSH1 0x4 DUP2 LT PUSH2 0x42D JUMPI PUSH2 0x42C PUSH2 0x3AD JUMP JUMPDEST JUMPDEST POP JUMP INVALID LOG2 PUSH5 0x6970667358 0x22 SLT KECCAK256 PUSH10 0x428BF6683ECA365D4016 0xD MLOAD PUSH1 0x88 0x4D 0x4A SWAP12 DUP8 SWAP14 0xE8 0xB4 0x29 0xD6 CALLVALUE 0xB7 0xD8 0xE9 DUP8 SWAP15 0xD9 CALLDATASIZE PUSH5 0x736F6C6343 STOP ADDMOD SMOD STOP CALLER "
				},
				"gasEstimates": {
					"creation": {
						"codeDepositCost": "225200",
						"executionCost": "269",
						"totalCost": "225469"
					},
					"external": {
						"auctionState()": "2582",
						"endBlock()": "2407",
						"highestBindingBid()": "2517",
						"ipfsHash()": "infinite",
						"owner()": "2555",
						"startBlock()": "2429"
					}
				},
				"methodIdentifiers": {
					"auctionState()": "7fb45099",
					"endBlock()": "083c6323",
					"highestBindingBid()": "f5b56c56",
					"ipfsHash()": "c623674f",
					"owner()": "8da5cb5b",
					"startBlock()": "48cd4cb1"
				}
			},
			"storageLayout": {
				"storage": [
					{
						"astId": 3,
						"contract": "contracts/auction1.sol:Auction",
						"label": "owner",
						"offset": 0,
						"slot": "0",
						"type": "t_address_payable"
					},
					{
						"astId": 5,
						"contract": "contracts/auction1.sol:Auction",
						"label": "startBlock",
						"offset": 0,
						"slot": "1",
						"type": "t_uint256"
					},
					{
						"astId": 7,
						"contract": "contracts/auction1.sol:Auction",
						"label": "endBlock",
						"offset": 0,
						"slot": "2",
						"type": "t_uint256"
					},
					{
						"astId": 9,
						"contract": "contracts/auction1.sol:Auction",
						"label": "ipfsHash",
						"offset": 0,
						"slot": "3",
						"type": "t_string_storage"
					},
					{
						"astId": 17,
						"contract": "contracts/auction1.sol:Auction",
						"label": "auctionState",
						"offset": 0,
						"slot": "4",
						"type": "t_enum(State)14"
					},
					{
						"astId": 19,
						"contract": "contracts/auction1.sol:Auction",
						"label": "highestBindingBid",
						"offset": 0,
						"slot": "5",
						"type": "t_uint256"
					}
				],
				"types": {
					"t_address_payable": {
						"encoding": "inplace",
						"label": "address payable",
						"numberOfBytes": "20"
					},
					"t_enum(State)14": {
						"encoding": "inplace",
						"label": "enum Auction.State",
						"numberOfBytes": "1"
					},
					"t_string_storage": {
						"encoding": "bytes",
						"label": "string",
						"numberOfBytes": "32"
					},
					"t_uint256": {
						"encoding": "inplace",
						"label": "uint256",
						"numberOfBytes": "32"
					}
				}
			},
			"userdoc": {
				"kind": "user",
				"methods": {},
				"version": 1
			}
		}
	}
}