{
	"contracts/newContract.sol": {
		"Property": {
			"abi": [
				{
					"inputs": [],
					"name": "getPrice",
					"outputs": [
						{
							"internalType": "int256",
							"name": "",
							"type": "int256"
						}
					],
					"stateMutability": "view",
					"type": "function"
				},
				{
					"inputs": [],
					"name": "location",
					"outputs": [
						{
							"internalType": "string",
							"name": "",
							"type": "string"
						}
					],
					"stateMutability": "view",
					"type": "function"
				},
				{
					"inputs": [],
					"name": "price",
					"outputs": [
						{
							"internalType": "int256",
							"name": "",
							"type": "int256"
						}
					],
					"stateMutability": "view",
					"type": "function"
				},
				{
					"inputs": [
						{
							"internalType": "int256",
							"name": "_price",
							"type": "int256"
						}
					],
					"name": "setPrice",
					"outputs": [],
					"stateMutability": "nonpayable",
					"type": "function"
				}
			],
			"devdoc": {
				"kind": "dev",
				"methods": {},
				"version": 1
			},
			"evm": {
				"assembly": "    /* \"contracts/newContract.sol\":63:340  contract Property {\r... */\n  mstore(0x40, 0x80)\n    /* \"contracts/newContract.sol\":113:116  100 */\n  0x64\n    /* \"contracts/newContract.sol\":94:116  int public price = 100 */\n  0x00\n  sstore\n    /* \"contracts/newContract.sol\":63:340  contract Property {\r... */\n  callvalue\n  dup1\n  iszero\n  tag_1\n  jumpi\n  0x00\n  dup1\n  revert\ntag_1:\n  pop\n  dataSize(sub_0)\n  dup1\n  dataOffset(sub_0)\n  0x00\n  codecopy\n  0x00\n  return\nstop\n\nsub_0: assembly {\n        /* \"contracts/newContract.sol\":63:340  contract Property {\r... */\n      mstore(0x40, 0x80)\n      callvalue\n      dup1\n      iszero\n      tag_1\n      jumpi\n      0x00\n      dup1\n      revert\n    tag_1:\n      pop\n      jumpi(tag_2, lt(calldatasize, 0x04))\n      shr(0xe0, calldataload(0x00))\n      dup1\n      0x516f279e\n      eq\n      tag_3\n      jumpi\n      dup1\n      0x98d5fdca\n      eq\n      tag_4\n      jumpi\n      dup1\n      0xa035b1fe\n      eq\n      tag_5\n      jumpi\n      dup1\n      0xf7a30806\n      eq\n      tag_6\n      jumpi\n    tag_2:\n      0x00\n      dup1\n      revert\n        /* \"contracts/newContract.sol\":123:165  string constant public location = \"London\" */\n    tag_3:\n      tag_7\n      tag_8\n      jump\t// in\n    tag_7:\n      mload(0x40)\n      tag_9\n      swap2\n      swap1\n      tag_10\n      jump\t// in\n    tag_9:\n      mload(0x40)\n      dup1\n      swap2\n      sub\n      swap1\n      return\n        /* \"contracts/newContract.sol\":259:335  function getPrice() public view returns(int) {\r... */\n    tag_4:\n      tag_11\n      tag_12\n      jump\t// in\n    tag_11:\n      mload(0x40)\n      tag_13\n      swap2\n      swap1\n      tag_14\n      jump\t// in\n    tag_13:\n      mload(0x40)\n      dup1\n      swap2\n      sub\n      swap1\n      return\n        /* \"contracts/newContract.sol\":94:116  int public price = 100 */\n    tag_5:\n      tag_15\n      tag_16\n      jump\t// in\n    tag_15:\n      mload(0x40)\n      tag_17\n      swap2\n      swap1\n      tag_14\n      jump\t// in\n    tag_17:\n      mload(0x40)\n      dup1\n      swap2\n      sub\n      swap1\n      return\n        /* \"contracts/newContract.sol\":182:251  function setPrice(int _price) public{\r... */\n    tag_6:\n      tag_18\n      0x04\n      dup1\n      calldatasize\n      sub\n      dup2\n      add\n      swap1\n      tag_19\n      swap2\n      swap1\n      tag_20\n      jump\t// in\n    tag_19:\n      tag_21\n      jump\t// in\n    tag_18:\n      stop\n        /* \"contracts/newContract.sol\":123:165  string constant public location = \"London\" */\n    tag_8:\n      mload(0x40)\n      dup1\n      0x40\n      add\n      0x40\n      mstore\n      dup1\n      0x06\n      dup2\n      mstore\n      0x20\n      add\n      0x4c6f6e646f6e0000000000000000000000000000000000000000000000000000\n      dup2\n      mstore\n      pop\n      dup2\n      jump\t// out\n        /* \"contracts/newContract.sol\":259:335  function getPrice() public view returns(int) {\r... */\n    tag_12:\n        /* \"contracts/newContract.sol\":299:302  int */\n      0x00\n        /* \"contracts/newContract.sol\":322:327  price */\n      dup1\n      sload\n        /* \"contracts/newContract.sol\":315:327  return price */\n      swap1\n      pop\n        /* \"contracts/newContract.sol\":259:335  function getPrice() public view returns(int) {\r... */\n      swap1\n      jump\t// out\n        /* \"contracts/newContract.sol\":94:116  int public price = 100 */\n    tag_16:\n      sload(0x00)\n      dup2\n      jump\t// out\n        /* \"contracts/newContract.sol\":182:251  function setPrice(int _price) public{\r... */\n    tag_21:\n        /* \"contracts/newContract.sol\":237:243  _price */\n      dup1\n        /* \"contracts/newContract.sol\":229:234  price */\n      0x00\n        /* \"contracts/newContract.sol\":229:243  price = _price */\n      dup2\n      swap1\n      sstore\n      pop\n        /* \"contracts/newContract.sol\":182:251  function setPrice(int _price) public{\r... */\n      pop\n      jump\t// out\n        /* \"#utility.yul\":7:144   */\n    tag_25:\n      0x00\n        /* \"#utility.yul\":90:96   */\n      dup2\n        /* \"#utility.yul\":77:97   */\n      calldataload\n        /* \"#utility.yul\":68:97   */\n      swap1\n      pop\n        /* \"#utility.yul\":106:138   */\n      tag_27\n        /* \"#utility.yul\":132:137   */\n      dup2\n        /* \"#utility.yul\":106:138   */\n      tag_28\n      jump\t// in\n    tag_27:\n        /* \"#utility.yul\":58:144   */\n      swap3\n      swap2\n      pop\n      pop\n      jump\t// out\n        /* \"#utility.yul\":150:410   */\n    tag_20:\n      0x00\n        /* \"#utility.yul\":257:259   */\n      0x20\n        /* \"#utility.yul\":245:254   */\n      dup3\n        /* \"#utility.yul\":236:243   */\n      dup5\n        /* \"#utility.yul\":232:255   */\n      sub\n        /* \"#utility.yul\":228:260   */\n      slt\n        /* \"#utility.yul\":225:227   */\n      iszero\n      tag_30\n      jumpi\n        /* \"#utility.yul\":273:274   */\n      0x00\n        /* \"#utility.yul\":270:271   */\n      dup1\n        /* \"#utility.yul\":263:275   */\n      revert\n        /* \"#utility.yul\":225:227   */\n    tag_30:\n        /* \"#utility.yul\":316:317   */\n      0x00\n        /* \"#utility.yul\":341:393   */\n      tag_31\n        /* \"#utility.yul\":385:392   */\n      dup5\n        /* \"#utility.yul\":376:382   */\n      dup3\n        /* \"#utility.yul\":365:374   */\n      dup6\n        /* \"#utility.yul\":361:383   */\n      add\n        /* \"#utility.yul\":341:393   */\n      tag_25\n      jump\t// in\n    tag_31:\n        /* \"#utility.yul\":331:393   */\n      swap2\n      pop\n        /* \"#utility.yul\":287:403   */\n      pop\n        /* \"#utility.yul\":215:410   */\n      swap3\n      swap2\n      pop\n      pop\n      jump\t// out\n        /* \"#utility.yul\":416:531   */\n    tag_32:\n        /* \"#utility.yul\":501:524   */\n      tag_34\n        /* \"#utility.yul\":518:523   */\n      dup2\n        /* \"#utility.yul\":501:524   */\n      tag_35\n      jump\t// in\n    tag_34:\n        /* \"#utility.yul\":496:499   */\n      dup3\n        /* \"#utility.yul\":489:525   */\n      mstore\n        /* \"#utility.yul\":479:531   */\n      pop\n      pop\n      jump\t// out\n        /* \"#utility.yul\":537:901   */\n    tag_36:\n      0x00\n        /* \"#utility.yul\":653:692   */\n      tag_38\n        /* \"#utility.yul\":686:691   */\n      dup3\n        /* \"#utility.yul\":653:692   */\n      tag_39\n      jump\t// in\n    tag_38:\n        /* \"#utility.yul\":708:779   */\n      tag_40\n        /* \"#utility.yul\":772:778   */\n      dup2\n        /* \"#utility.yul\":767:770   */\n      dup6\n        /* \"#utility.yul\":708:779   */\n      tag_41\n      jump\t// in\n    tag_40:\n        /* \"#utility.yul\":701:779   */\n      swap4\n      pop\n        /* \"#utility.yul\":788:840   */\n      tag_42\n        /* \"#utility.yul\":833:839   */\n      dup2\n        /* \"#utility.yul\":828:831   */\n      dup6\n        /* \"#utility.yul\":821:825   */\n      0x20\n        /* \"#utility.yul\":814:819   */\n      dup7\n        /* \"#utility.yul\":810:826   */\n      add\n        /* \"#utility.yul\":788:840   */\n      tag_43\n      jump\t// in\n    tag_42:\n        /* \"#utility.yul\":865:894   */\n      tag_44\n        /* \"#utility.yul\":887:893   */\n      dup2\n        /* \"#utility.yul\":865:894   */\n      tag_45\n      jump\t// in\n    tag_44:\n        /* \"#utility.yul\":860:863   */\n      dup5\n        /* \"#utility.yul\":856:895   */\n      add\n        /* \"#utility.yul\":849:895   */\n      swap2\n      pop\n        /* \"#utility.yul\":629:901   */\n      pop\n      swap3\n      swap2\n      pop\n      pop\n      jump\t// out\n        /* \"#utility.yul\":907:1125   */\n    tag_14:\n      0x00\n        /* \"#utility.yul\":1036:1038   */\n      0x20\n        /* \"#utility.yul\":1025:1034   */\n      dup3\n        /* \"#utility.yul\":1021:1039   */\n      add\n        /* \"#utility.yul\":1013:1039   */\n      swap1\n      pop\n        /* \"#utility.yul\":1049:1118   */\n      tag_47\n        /* \"#utility.yul\":1115:1116   */\n      0x00\n        /* \"#utility.yul\":1104:1113   */\n      dup4\n        /* \"#utility.yul\":1100:1117   */\n      add\n        /* \"#utility.yul\":1091:1097   */\n      dup5\n        /* \"#utility.yul\":1049:1118   */\n      tag_32\n      jump\t// in\n    tag_47:\n        /* \"#utility.yul\":1003:1125   */\n      swap3\n      swap2\n      pop\n      pop\n      jump\t// out\n        /* \"#utility.yul\":1131:1444   */\n    tag_10:\n      0x00\n        /* \"#utility.yul\":1282:1284   */\n      0x20\n        /* \"#utility.yul\":1271:1280   */\n      dup3\n        /* \"#utility.yul\":1267:1285   */\n      add\n        /* \"#utility.yul\":1259:1285   */\n      swap1\n      pop\n        /* \"#utility.yul\":1331:1340   */\n      dup2\n        /* \"#utility.yul\":1325:1329   */\n      dup2\n        /* \"#utility.yul\":1321:1341   */\n      sub\n        /* \"#utility.yul\":1317:1318   */\n      0x00\n        /* \"#utility.yul\":1306:1315   */\n      dup4\n        /* \"#utility.yul\":1302:1319   */\n      add\n        /* \"#utility.yul\":1295:1342   */\n      mstore\n        /* \"#utility.yul\":1359:1437   */\n      tag_49\n        /* \"#utility.yul\":1432:1436   */\n      dup2\n        /* \"#utility.yul\":1423:1429   */\n      dup5\n        /* \"#utility.yul\":1359:1437   */\n      tag_36\n      jump\t// in\n    tag_49:\n        /* \"#utility.yul\":1351:1437   */\n      swap1\n      pop\n        /* \"#utility.yul\":1249:1444   */\n      swap3\n      swap2\n      pop\n      pop\n      jump\t// out\n        /* \"#utility.yul\":1450:1549   */\n    tag_39:\n      0x00\n        /* \"#utility.yul\":1536:1541   */\n      dup2\n        /* \"#utility.yul\":1530:1542   */\n      mload\n        /* \"#utility.yul\":1520:1542   */\n      swap1\n      pop\n        /* \"#utility.yul\":1509:1549   */\n      swap2\n      swap1\n      pop\n      jump\t// out\n        /* \"#utility.yul\":1555:1724   */\n    tag_41:\n      0x00\n        /* \"#utility.yul\":1673:1679   */\n      dup3\n        /* \"#utility.yul\":1668:1671   */\n      dup3\n        /* \"#utility.yul\":1661:1680   */\n      mstore\n        /* \"#utility.yul\":1713:1717   */\n      0x20\n        /* \"#utility.yul\":1708:1711   */\n      dup3\n        /* \"#utility.yul\":1704:1718   */\n      add\n        /* \"#utility.yul\":1689:1718   */\n      swap1\n      pop\n        /* \"#utility.yul\":1651:1724   */\n      swap3\n      swap2\n      pop\n      pop\n      jump\t// out\n        /* \"#utility.yul\":1730:1806   */\n    tag_35:\n      0x00\n        /* \"#utility.yul\":1795:1800   */\n      dup2\n        /* \"#utility.yul\":1784:1800   */\n      swap1\n      pop\n        /* \"#utility.yul\":1774:1806   */\n      swap2\n      swap1\n      pop\n      jump\t// out\n        /* \"#utility.yul\":1812:2119   */\n    tag_43:\n        /* \"#utility.yul\":1880:1881   */\n      0x00\n        /* \"#utility.yul\":1890:2003   */\n    tag_54:\n        /* \"#utility.yul\":1904:1910   */\n      dup4\n        /* \"#utility.yul\":1901:1902   */\n      dup2\n        /* \"#utility.yul\":1898:1911   */\n      lt\n        /* \"#utility.yul\":1890:2003   */\n      iszero\n      tag_56\n      jumpi\n        /* \"#utility.yul\":1989:1990   */\n      dup1\n        /* \"#utility.yul\":1984:1987   */\n      dup3\n        /* \"#utility.yul\":1980:1991   */\n      add\n        /* \"#utility.yul\":1974:1992   */\n      mload\n        /* \"#utility.yul\":1970:1971   */\n      dup2\n        /* \"#utility.yul\":1965:1968   */\n      dup5\n        /* \"#utility.yul\":1961:1972   */\n      add\n        /* \"#utility.yul\":1954:1993   */\n      mstore\n        /* \"#utility.yul\":1926:1928   */\n      0x20\n        /* \"#utility.yul\":1923:1924   */\n      dup2\n        /* \"#utility.yul\":1919:1929   */\n      add\n        /* \"#utility.yul\":1914:1929   */\n      swap1\n      pop\n        /* \"#utility.yul\":1890:2003   */\n      jump(tag_54)\n    tag_56:\n        /* \"#utility.yul\":2021:2027   */\n      dup4\n        /* \"#utility.yul\":2018:2019   */\n      dup2\n        /* \"#utility.yul\":2015:2028   */\n      gt\n        /* \"#utility.yul\":2012:2014   */\n      iszero\n      tag_57\n      jumpi\n        /* \"#utility.yul\":2101:2102   */\n      0x00\n        /* \"#utility.yul\":2092:2098   */\n      dup5\n        /* \"#utility.yul\":2087:2090   */\n      dup5\n        /* \"#utility.yul\":2083:2099   */\n      add\n        /* \"#utility.yul\":2076:2103   */\n      mstore\n        /* \"#utility.yul\":2012:2014   */\n    tag_57:\n        /* \"#utility.yul\":1861:2119   */\n      pop\n      pop\n      pop\n      pop\n      jump\t// out\n        /* \"#utility.yul\":2125:2227   */\n    tag_45:\n      0x00\n        /* \"#utility.yul\":2217:2219   */\n      0x1f\n        /* \"#utility.yul\":2213:2220   */\n      not\n        /* \"#utility.yul\":2208:2210   */\n      0x1f\n        /* \"#utility.yul\":2201:2206   */\n      dup4\n        /* \"#utility.yul\":2197:2211   */\n      add\n        /* \"#utility.yul\":2193:2221   */\n      and\n        /* \"#utility.yul\":2183:2221   */\n      swap1\n      pop\n        /* \"#utility.yul\":2173:2227   */\n      swap2\n      swap1\n      pop\n      jump\t// out\n        /* \"#utility.yul\":2233:2353   */\n    tag_28:\n        /* \"#utility.yul\":2305:2328   */\n      tag_60\n        /* \"#utility.yul\":2322:2327   */\n      dup2\n        /* \"#utility.yul\":2305:2328   */\n      tag_35\n      jump\t// in\n    tag_60:\n        /* \"#utility.yul\":2298:2303   */\n      dup2\n        /* \"#utility.yul\":2295:2329   */\n      eq\n        /* \"#utility.yul\":2285:2287   */\n      tag_61\n      jumpi\n        /* \"#utility.yul\":2343:2344   */\n      0x00\n        /* \"#utility.yul\":2340:2341   */\n      dup1\n        /* \"#utility.yul\":2333:2345   */\n      revert\n        /* \"#utility.yul\":2285:2287   */\n    tag_61:\n        /* \"#utility.yul\":2275:2353   */\n      pop\n      jump\t// out\n\n    auxdata: 0xa26469706673582212202aa5836c9ef7501c82b846e00b2ea85babb0a955e5869896ba7958cec95b236a64736f6c63430008000033\n}\n",
				"bytecode": {
					"linkReferences": {},
					"object": "6080604052606460005534801561001557600080fd5b50610293806100256000396000f3fe608060405234801561001057600080fd5b506004361061004c5760003560e01c8063516f279e1461005157806398d5fdca1461006f578063a035b1fe1461008d578063f7a30806146100ab575b600080fd5b6100596100c7565b60405161006691906101ba565b60405180910390f35b610077610100565b604051610084919061019f565b60405180910390f35b610095610109565b6040516100a2919061019f565b60405180910390f35b6100c560048036038101906100c0919061012e565b61010f565b005b6040518060400160405280600681526020017f4c6f6e646f6e000000000000000000000000000000000000000000000000000081525081565b60008054905090565b60005481565b8060008190555050565b60008135905061012881610246565b92915050565b60006020828403121561014057600080fd5b600061014e84828501610119565b91505092915050565b610160816101f8565b82525050565b6000610171826101dc565b61017b81856101e7565b935061018b818560208601610202565b61019481610235565b840191505092915050565b60006020820190506101b46000830184610157565b92915050565b600060208201905081810360008301526101d48184610166565b905092915050565b600081519050919050565b600082825260208201905092915050565b6000819050919050565b60005b83811015610220578082015181840152602081019050610205565b8381111561022f576000848401525b50505050565b6000601f19601f8301169050919050565b61024f816101f8565b811461025a57600080fd5b5056fea26469706673582212202aa5836c9ef7501c82b846e00b2ea85babb0a955e5869896ba7958cec95b236a64736f6c63430008000033",
					"opcodes": "PUSH1 0x80 PUSH1 0x40 MSTORE PUSH1 0x64 PUSH1 0x0 SSTORE CALLVALUE DUP1 ISZERO PUSH2 0x15 JUMPI PUSH1 0x0 DUP1 REVERT JUMPDEST POP PUSH2 0x293 DUP1 PUSH2 0x25 PUSH1 0x0 CODECOPY PUSH1 0x0 RETURN INVALID PUSH1 0x80 PUSH1 0x40 MSTORE CALLVALUE DUP1 ISZERO PUSH2 0x10 JUMPI PUSH1 0x0 DUP1 REVERT JUMPDEST POP PUSH1 0x4 CALLDATASIZE LT PUSH2 0x4C JUMPI PUSH1 0x0 CALLDATALOAD PUSH1 0xE0 SHR DUP1 PUSH4 0x516F279E EQ PUSH2 0x51 JUMPI DUP1 PUSH4 0x98D5FDCA EQ PUSH2 0x6F JUMPI DUP1 PUSH4 0xA035B1FE EQ PUSH2 0x8D JUMPI DUP1 PUSH4 0xF7A30806 EQ PUSH2 0xAB JUMPI JUMPDEST PUSH1 0x0 DUP1 REVERT JUMPDEST PUSH2 0x59 PUSH2 0xC7 JUMP JUMPDEST PUSH1 0x40 MLOAD PUSH2 0x66 SWAP2 SWAP1 PUSH2 0x1BA JUMP JUMPDEST PUSH1 0x40 MLOAD DUP1 SWAP2 SUB SWAP1 RETURN JUMPDEST PUSH2 0x77 PUSH2 0x100 JUMP JUMPDEST PUSH1 0x40 MLOAD PUSH2 0x84 SWAP2 SWAP1 PUSH2 0x19F JUMP JUMPDEST PUSH1 0x40 MLOAD DUP1 SWAP2 SUB SWAP1 RETURN JUMPDEST PUSH2 0x95 PUSH2 0x109 JUMP JUMPDEST PUSH1 0x40 MLOAD PUSH2 0xA2 SWAP2 SWAP1 PUSH2 0x19F JUMP JUMPDEST PUSH1 0x40 MLOAD DUP1 SWAP2 SUB SWAP1 RETURN JUMPDEST PUSH2 0xC5 PUSH1 0x4 DUP1 CALLDATASIZE SUB DUP2 ADD SWAP1 PUSH2 0xC0 SWAP2 SWAP1 PUSH2 0x12E JUMP JUMPDEST PUSH2 0x10F JUMP JUMPDEST STOP JUMPDEST PUSH1 0x40 MLOAD DUP1 PUSH1 0x40 ADD PUSH1 0x40 MSTORE DUP1 PUSH1 0x6 DUP2 MSTORE PUSH1 0x20 ADD PUSH32 0x4C6F6E646F6E0000000000000000000000000000000000000000000000000000 DUP2 MSTORE POP DUP2 JUMP JUMPDEST PUSH1 0x0 DUP1 SLOAD SWAP1 POP SWAP1 JUMP JUMPDEST PUSH1 0x0 SLOAD DUP2 JUMP JUMPDEST DUP1 PUSH1 0x0 DUP2 SWAP1 SSTORE POP POP JUMP JUMPDEST PUSH1 0x0 DUP2 CALLDATALOAD SWAP1 POP PUSH2 0x128 DUP2 PUSH2 0x246 JUMP JUMPDEST SWAP3 SWAP2 POP POP JUMP JUMPDEST PUSH1 0x0 PUSH1 0x20 DUP3 DUP5 SUB SLT ISZERO PUSH2 0x140 JUMPI PUSH1 0x0 DUP1 REVERT JUMPDEST PUSH1 0x0 PUSH2 0x14E DUP5 DUP3 DUP6 ADD PUSH2 0x119 JUMP JUMPDEST SWAP2 POP POP SWAP3 SWAP2 POP POP JUMP JUMPDEST PUSH2 0x160 DUP2 PUSH2 0x1F8 JUMP JUMPDEST DUP3 MSTORE POP POP JUMP JUMPDEST PUSH1 0x0 PUSH2 0x171 DUP3 PUSH2 0x1DC JUMP JUMPDEST PUSH2 0x17B DUP2 DUP6 PUSH2 0x1E7 JUMP JUMPDEST SWAP4 POP PUSH2 0x18B DUP2 DUP6 PUSH1 0x20 DUP7 ADD PUSH2 0x202 JUMP JUMPDEST PUSH2 0x194 DUP2 PUSH2 0x235 JUMP JUMPDEST DUP5 ADD SWAP2 POP POP SWAP3 SWAP2 POP POP JUMP JUMPDEST PUSH1 0x0 PUSH1 0x20 DUP3 ADD SWAP1 POP PUSH2 0x1B4 PUSH1 0x0 DUP4 ADD DUP5 PUSH2 0x157 JUMP JUMPDEST SWAP3 SWAP2 POP POP JUMP JUMPDEST PUSH1 0x0 PUSH1 0x20 DUP3 ADD SWAP1 POP DUP2 DUP2 SUB PUSH1 0x0 DUP4 ADD MSTORE PUSH2 0x1D4 DUP2 DUP5 PUSH2 0x166 JUMP JUMPDEST SWAP1 POP SWAP3 SWAP2 POP POP JUMP JUMPDEST PUSH1 0x0 DUP2 MLOAD SWAP1 POP SWAP2 SWAP1 POP JUMP JUMPDEST PUSH1 0x0 DUP3 DUP3 MSTORE PUSH1 0x20 DUP3 ADD SWAP1 POP SWAP3 SWAP2 POP POP JUMP JUMPDEST PUSH1 0x0 DUP2 SWAP1 POP SWAP2 SWAP1 POP JUMP JUMPDEST PUSH1 0x0 JUMPDEST DUP4 DUP2 LT ISZERO PUSH2 0x220 JUMPI DUP1 DUP3 ADD MLOAD DUP2 DUP5 ADD MSTORE PUSH1 0x20 DUP2 ADD SWAP1 POP PUSH2 0x205 JUMP JUMPDEST DUP4 DUP2 GT ISZERO PUSH2 0x22F JUMPI PUSH1 0x0 DUP5 DUP5 ADD MSTORE JUMPDEST POP POP POP POP JUMP JUMPDEST PUSH1 0x0 PUSH1 0x1F NOT PUSH1 0x1F DUP4 ADD AND SWAP1 POP SWAP2 SWAP1 POP JUMP JUMPDEST PUSH2 0x24F DUP2 PUSH2 0x1F8 JUMP JUMPDEST DUP2 EQ PUSH2 0x25A JUMPI PUSH1 0x0 DUP1 REVERT JUMPDEST POP JUMP INVALID LOG2 PUSH5 0x6970667358 0x22 SLT KECCAK256 0x2A 0xA5 DUP4 PUSH13 0x9EF7501C82B846E00B2EA85BAB 0xB0 0xA9 SSTORE 0xE5 DUP7 SWAP9 SWAP7 0xBA PUSH26 0x58CEC95B236A64736F6C63430008000033000000000000000000 "
				},
				"gasEstimates": {
					"creation": {
						"codeDepositCost": "131800",
						"executionCost": "20183",
						"totalCost": "151983"
					},
					"external": {
						"getPrice()": "1137",
						"location()": "infinite",
						"price()": "1151",
						"setPrice(int256)": "20464"
					}
				},
				"methodIdentifiers": {
					"getPrice()": "98d5fdca",
					"location()": "516f279e",
					"price()": "a035b1fe",
					"setPrice(int256)": "f7a30806"
				}
			},
			"storageLayout": {
				"storage": [
					{
						"astId": 4,
						"contract": "contracts/newContract.sol:Property",
						"label": "price",
						"offset": 0,
						"slot": "0",
						"type": "t_int256"
					}
				],
				"types": {
					"t_int256": {
						"encoding": "inplace",
						"label": "int256",
						"numberOfBytes": "32"
					}
				}
			},
			"userdoc": {
				"kind": "user",
				"methods": {},
				"version": 1
			}
		}
	}
}