{
	"contracts/contract_address_balance.sol": {
		"Deposit": {
			"abi": [
				{
					"stateMutability": "payable",
					"type": "fallback"
				},
				{
					"inputs": [],
					"name": "getBalance",
					"outputs": [
						{
							"internalType": "uint256",
							"name": "",
							"type": "uint256"
						}
					],
					"stateMutability": "view",
					"type": "function"
				},
				{
					"inputs": [],
					"name": "owner",
					"outputs": [
						{
							"internalType": "address",
							"name": "",
							"type": "address"
						}
					],
					"stateMutability": "view",
					"type": "function"
				},
				{
					"inputs": [],
					"name": "sendEther",
					"outputs": [],
					"stateMutability": "payable",
					"type": "function"
				},
				{
					"inputs": [
						{
							"internalType": "address payable",
							"name": "recipient",
							"type": "address"
						},
						{
							"internalType": "uint256",
							"name": "amount",
							"type": "uint256"
						}
					],
					"name": "transferEther",
					"outputs": [
						{
							"internalType": "bool",
							"name": "",
							"type": "bool"
						}
					],
					"stateMutability": "nonpayable",
					"type": "function"
				},
				{
					"stateMutability": "payable",
					"type": "receive"
				}
			],
			"devdoc": {
				"kind": "dev",
				"methods": {},
				"version": 1
			},
			"evm": {
				"assembly": "    /* \"contracts/contract_address_balance.sol\":197:1322  contract Deposit{\r... */\n  mstore(0x40, 0x80)\n  callvalue\n  dup1\n  iszero\n  tag_1\n  jumpi\n  0x00\n  dup1\n  revert\ntag_1:\n  pop\n  dataSize(sub_0)\n  dup1\n  dataOffset(sub_0)\n  0x00\n  codecopy\n  0x00\n  return\nstop\n\nsub_0: assembly {\n        /* \"contracts/contract_address_balance.sol\":197:1322  contract Deposit{\r... */\n      mstore(0x40, 0x80)\n      jumpi(tag_1, lt(calldatasize, 0x04))\n      shr(0xe0, calldataload(0x00))\n      dup1\n      0x05b1137b\n      eq\n      tag_3\n      jumpi\n      dup1\n      0x0e29df22\n      eq\n      tag_4\n      jumpi\n      dup1\n      0x12065fe0\n      eq\n      tag_5\n      jumpi\n      dup1\n      0x8da5cb5b\n      eq\n      tag_6\n      jumpi\n      jump(tag_2)\n    tag_1:\n      jumpi(tag_2, calldatasize)\n      stop\n    tag_2:\n      stop\n        /* \"contracts/contract_address_balance.sol\":913:1319  function transferEther(address payable recipient, uint amount) public returns(bool){\r... */\n    tag_3:\n      callvalue\n      dup1\n      iszero\n      tag_11\n      jumpi\n      0x00\n      dup1\n      revert\n    tag_11:\n      pop\n      tag_12\n      0x04\n      dup1\n      calldatasize\n      sub\n      dup2\n      add\n      swap1\n      tag_13\n      swap2\n      swap1\n      tag_14\n      jump\t// in\n    tag_13:\n      tag_15\n      jump\t// in\n    tag_12:\n      mload(0x40)\n      tag_16\n      swap2\n      swap1\n      tag_17\n      jump\t// in\n    tag_16:\n      mload(0x40)\n      dup1\n      swap2\n      sub\n      swap1\n      return\n        /* \"contracts/contract_address_balance.sol\":719:793  function sendEther() public payable{\r... */\n    tag_4:\n      tag_18\n      tag_19\n      jump\t// in\n    tag_18:\n      stop\n        /* \"contracts/contract_address_balance.sol\":617:711  function getBalance() public view returns(uint){\r... */\n    tag_5:\n      callvalue\n      dup1\n      iszero\n      tag_20\n      jumpi\n      0x00\n      dup1\n      revert\n    tag_20:\n      pop\n      tag_21\n      tag_22\n      jump\t// in\n    tag_21:\n      mload(0x40)\n      tag_23\n      swap2\n      swap1\n      tag_24\n      jump\t// in\n    tag_23:\n      mload(0x40)\n      dup1\n      swap2\n      sub\n      swap1\n      return\n        /* \"contracts/contract_address_balance.sol\":279:299  address public owner */\n    tag_6:\n      callvalue\n      dup1\n      iszero\n      tag_25\n      jumpi\n      0x00\n      dup1\n      revert\n    tag_25:\n      pop\n      tag_26\n      tag_27\n      jump\t// in\n    tag_26:\n      mload(0x40)\n      tag_28\n      swap2\n      swap1\n      tag_29\n      jump\t// in\n    tag_28:\n      mload(0x40)\n      dup1\n      swap2\n      sub\n      swap1\n      return\n        /* \"contracts/contract_address_balance.sol\":913:1319  function transferEther(address payable recipient, uint amount) public returns(bool){\r... */\n    tag_15:\n        /* \"contracts/contract_address_balance.sol\":991:995  bool */\n      0x00\n        /* \"contracts/contract_address_balance.sol\":1089:1101  getBalance() */\n      tag_31\n        /* \"contracts/contract_address_balance.sol\":1089:1099  getBalance */\n      tag_22\n        /* \"contracts/contract_address_balance.sol\":1089:1101  getBalance() */\n      jump\t// in\n    tag_31:\n        /* \"contracts/contract_address_balance.sol\":1079:1085  amount */\n      dup3\n        /* \"contracts/contract_address_balance.sol\":1079:1101  amount <= getBalance() */\n      gt\n        /* \"contracts/contract_address_balance.sol\":1075:1312  if (amount <= getBalance()){\r... */\n      tag_32\n      jumpi\n        /* \"contracts/contract_address_balance.sol\":1205:1214  recipient */\n      dup3\n        /* \"contracts/contract_address_balance.sol\":1205:1223  recipient.transfer */\n      0xffffffffffffffffffffffffffffffffffffffff\n      and\n        /* \"contracts/contract_address_balance.sol\":1205:1231  recipient.transfer(amount) */\n      0x08fc\n        /* \"contracts/contract_address_balance.sol\":1224:1230  amount */\n      dup4\n        /* \"contracts/contract_address_balance.sol\":1205:1231  recipient.transfer(amount) */\n      swap1\n      dup2\n      iszero\n      mul\n      swap1\n      mload(0x40)\n      0x00\n      mload(0x40)\n      dup1\n      dup4\n      sub\n      dup2\n      dup6\n      dup9\n      dup9\n      call\n      swap4\n      pop\n      pop\n      pop\n      pop\n      iszero\n      dup1\n      iszero\n      tag_34\n      jumpi\n      returndatasize\n      0x00\n      dup1\n      returndatacopy\n      revert(0x00, returndatasize)\n    tag_34:\n      pop\n        /* \"contracts/contract_address_balance.sol\":1253:1257  true */\n      0x01\n        /* \"contracts/contract_address_balance.sol\":1246:1257  return true */\n      swap1\n      pop\n      jump(tag_30)\n        /* \"contracts/contract_address_balance.sol\":1075:1312  if (amount <= getBalance()){\r... */\n    tag_32:\n        /* \"contracts/contract_address_balance.sol\":1295:1300  false */\n      0x00\n        /* \"contracts/contract_address_balance.sol\":1288:1300  return false */\n      swap1\n      pop\n        /* \"contracts/contract_address_balance.sol\":913:1319  function transferEther(address payable recipient, uint amount) public returns(bool){\r... */\n    tag_30:\n      swap3\n      swap2\n      pop\n      pop\n      jump\t// out\n        /* \"contracts/contract_address_balance.sol\":719:793  function sendEther() public payable{\r... */\n    tag_19:\n        /* \"contracts/contract_address_balance.sol\":765:771  uint x */\n      0x00\n        /* \"contracts/contract_address_balance.sol\":782:785  x++ */\n      dup1\n      dup1\n      tag_37\n      swap1\n      tag_38\n      jump\t// in\n    tag_37:\n      swap2\n      pop\n      pop\n        /* \"contracts/contract_address_balance.sol\":754:793  {\r... */\n      pop\n        /* \"contracts/contract_address_balance.sol\":719:793  function sendEther() public payable{\r... */\n      jump\t// out\n        /* \"contracts/contract_address_balance.sol\":617:711  function getBalance() public view returns(uint){\r... */\n    tag_22:\n        /* \"contracts/contract_address_balance.sol\":659:663  uint */\n      0x00\n        /* \"contracts/contract_address_balance.sol\":682:703  address(this).balance */\n      selfbalance\n        /* \"contracts/contract_address_balance.sol\":675:703  return address(this).balance */\n      swap1\n      pop\n        /* \"contracts/contract_address_balance.sol\":617:711  function getBalance() public view returns(uint){\r... */\n      swap1\n      jump\t// out\n        /* \"contracts/contract_address_balance.sol\":279:299  address public owner */\n    tag_27:\n      0x00\n      dup1\n      sload\n      swap1\n      0x0100\n      exp\n      swap1\n      div\n      0xffffffffffffffffffffffffffffffffffffffff\n      and\n      dup2\n      jump\t// out\n        /* \"#utility.yul\":7:162   */\n    tag_41:\n        /* \"#utility.yul\":61:66   */\n      0x00\n        /* \"#utility.yul\":99:105   */\n      dup2\n        /* \"#utility.yul\":86:106   */\n      calldataload\n        /* \"#utility.yul\":77:106   */\n      swap1\n      pop\n        /* \"#utility.yul\":115:156   */\n      tag_43\n        /* \"#utility.yul\":150:155   */\n      dup2\n        /* \"#utility.yul\":115:156   */\n      tag_44\n      jump\t// in\n    tag_43:\n        /* \"#utility.yul\":7:162   */\n      swap3\n      swap2\n      pop\n      pop\n      jump\t// out\n        /* \"#utility.yul\":168:307   */\n    tag_45:\n        /* \"#utility.yul\":214:219   */\n      0x00\n        /* \"#utility.yul\":252:258   */\n      dup2\n        /* \"#utility.yul\":239:259   */\n      calldataload\n        /* \"#utility.yul\":230:259   */\n      swap1\n      pop\n        /* \"#utility.yul\":268:301   */\n      tag_47\n        /* \"#utility.yul\":295:300   */\n      dup2\n        /* \"#utility.yul\":268:301   */\n      tag_48\n      jump\t// in\n    tag_47:\n        /* \"#utility.yul\":168:307   */\n      swap3\n      swap2\n      pop\n      pop\n      jump\t// out\n        /* \"#utility.yul\":313:803   */\n    tag_14:\n        /* \"#utility.yul\":389:395   */\n      0x00\n        /* \"#utility.yul\":397:403   */\n      dup1\n        /* \"#utility.yul\":446:448   */\n      0x40\n        /* \"#utility.yul\":434:443   */\n      dup4\n        /* \"#utility.yul\":425:432   */\n      dup6\n        /* \"#utility.yul\":421:444   */\n      sub\n        /* \"#utility.yul\":417:449   */\n      slt\n        /* \"#utility.yul\":414:533   */\n      iszero\n      tag_50\n      jumpi\n        /* \"#utility.yul\":452:531   */\n      tag_51\n      tag_52\n      jump\t// in\n    tag_51:\n        /* \"#utility.yul\":414:533   */\n    tag_50:\n        /* \"#utility.yul\":572:573   */\n      0x00\n        /* \"#utility.yul\":597:658   */\n      tag_53\n        /* \"#utility.yul\":650:657   */\n      dup6\n        /* \"#utility.yul\":641:647   */\n      dup3\n        /* \"#utility.yul\":630:639   */\n      dup7\n        /* \"#utility.yul\":626:648   */\n      add\n        /* \"#utility.yul\":597:658   */\n      tag_41\n      jump\t// in\n    tag_53:\n        /* \"#utility.yul\":587:658   */\n      swap3\n      pop\n        /* \"#utility.yul\":543:668   */\n      pop\n        /* \"#utility.yul\":707:709   */\n      0x20\n        /* \"#utility.yul\":733:786   */\n      tag_54\n        /* \"#utility.yul\":778:785   */\n      dup6\n        /* \"#utility.yul\":769:775   */\n      dup3\n        /* \"#utility.yul\":758:767   */\n      dup7\n        /* \"#utility.yul\":754:776   */\n      add\n        /* \"#utility.yul\":733:786   */\n      tag_45\n      jump\t// in\n    tag_54:\n        /* \"#utility.yul\":723:786   */\n      swap2\n      pop\n        /* \"#utility.yul\":678:796   */\n      pop\n        /* \"#utility.yul\":313:803   */\n      swap3\n      pop\n      swap3\n      swap1\n      pop\n      jump\t// out\n        /* \"#utility.yul\":809:927   */\n    tag_55:\n        /* \"#utility.yul\":896:920   */\n      tag_57\n        /* \"#utility.yul\":914:919   */\n      dup2\n        /* \"#utility.yul\":896:920   */\n      tag_58\n      jump\t// in\n    tag_57:\n        /* \"#utility.yul\":891:894   */\n      dup3\n        /* \"#utility.yul\":884:921   */\n      mstore\n        /* \"#utility.yul\":809:927   */\n      pop\n      pop\n      jump\t// out\n        /* \"#utility.yul\":933:1042   */\n    tag_59:\n        /* \"#utility.yul\":1014:1035   */\n      tag_61\n        /* \"#utility.yul\":1029:1034   */\n      dup2\n        /* \"#utility.yul\":1014:1035   */\n      tag_62\n      jump\t// in\n    tag_61:\n        /* \"#utility.yul\":1009:1012   */\n      dup3\n        /* \"#utility.yul\":1002:1036   */\n      mstore\n        /* \"#utility.yul\":933:1042   */\n      pop\n      pop\n      jump\t// out\n        /* \"#utility.yul\":1048:1166   */\n    tag_63:\n        /* \"#utility.yul\":1135:1159   */\n      tag_65\n        /* \"#utility.yul\":1153:1158   */\n      dup2\n        /* \"#utility.yul\":1135:1159   */\n      tag_66\n      jump\t// in\n    tag_65:\n        /* \"#utility.yul\":1130:1133   */\n      dup3\n        /* \"#utility.yul\":1123:1160   */\n      mstore\n        /* \"#utility.yul\":1048:1166   */\n      pop\n      pop\n      jump\t// out\n        /* \"#utility.yul\":1172:1394   */\n    tag_29:\n        /* \"#utility.yul\":1265:1269   */\n      0x00\n        /* \"#utility.yul\":1303:1305   */\n      0x20\n        /* \"#utility.yul\":1292:1301   */\n      dup3\n        /* \"#utility.yul\":1288:1306   */\n      add\n        /* \"#utility.yul\":1280:1306   */\n      swap1\n      pop\n        /* \"#utility.yul\":1316:1387   */\n      tag_68\n        /* \"#utility.yul\":1384:1385   */\n      0x00\n        /* \"#utility.yul\":1373:1382   */\n      dup4\n        /* \"#utility.yul\":1369:1386   */\n      add\n        /* \"#utility.yul\":1360:1366   */\n      dup5\n        /* \"#utility.yul\":1316:1387   */\n      tag_55\n      jump\t// in\n    tag_68:\n        /* \"#utility.yul\":1172:1394   */\n      swap3\n      swap2\n      pop\n      pop\n      jump\t// out\n        /* \"#utility.yul\":1400:1610   */\n    tag_17:\n        /* \"#utility.yul\":1487:1491   */\n      0x00\n        /* \"#utility.yul\":1525:1527   */\n      0x20\n        /* \"#utility.yul\":1514:1523   */\n      dup3\n        /* \"#utility.yul\":1510:1528   */\n      add\n        /* \"#utility.yul\":1502:1528   */\n      swap1\n      pop\n        /* \"#utility.yul\":1538:1603   */\n      tag_70\n        /* \"#utility.yul\":1600:1601   */\n      0x00\n        /* \"#utility.yul\":1589:1598   */\n      dup4\n        /* \"#utility.yul\":1585:1602   */\n      add\n        /* \"#utility.yul\":1576:1582   */\n      dup5\n        /* \"#utility.yul\":1538:1603   */\n      tag_59\n      jump\t// in\n    tag_70:\n        /* \"#utility.yul\":1400:1610   */\n      swap3\n      swap2\n      pop\n      pop\n      jump\t// out\n        /* \"#utility.yul\":1616:1838   */\n    tag_24:\n        /* \"#utility.yul\":1709:1713   */\n      0x00\n        /* \"#utility.yul\":1747:1749   */\n      0x20\n        /* \"#utility.yul\":1736:1745   */\n      dup3\n        /* \"#utility.yul\":1732:1750   */\n      add\n        /* \"#utility.yul\":1724:1750   */\n      swap1\n      pop\n        /* \"#utility.yul\":1760:1831   */\n      tag_72\n        /* \"#utility.yul\":1828:1829   */\n      0x00\n        /* \"#utility.yul\":1817:1826   */\n      dup4\n        /* \"#utility.yul\":1813:1830   */\n      add\n        /* \"#utility.yul\":1804:1810   */\n      dup5\n        /* \"#utility.yul\":1760:1831   */\n      tag_63\n      jump\t// in\n    tag_72:\n        /* \"#utility.yul\":1616:1838   */\n      swap3\n      swap2\n      pop\n      pop\n      jump\t// out\n        /* \"#utility.yul\":1925:2021   */\n    tag_58:\n        /* \"#utility.yul\":1962:1969   */\n      0x00\n        /* \"#utility.yul\":1991:2015   */\n      tag_76\n        /* \"#utility.yul\":2009:2014   */\n      dup3\n        /* \"#utility.yul\":1991:2015   */\n      tag_77\n      jump\t// in\n    tag_76:\n        /* \"#utility.yul\":1980:2015   */\n      swap1\n      pop\n        /* \"#utility.yul\":1925:2021   */\n      swap2\n      swap1\n      pop\n      jump\t// out\n        /* \"#utility.yul\":2027:2131   */\n    tag_78:\n        /* \"#utility.yul\":2072:2079   */\n      0x00\n        /* \"#utility.yul\":2101:2125   */\n      tag_80\n        /* \"#utility.yul\":2119:2124   */\n      dup3\n        /* \"#utility.yul\":2101:2125   */\n      tag_77\n      jump\t// in\n    tag_80:\n        /* \"#utility.yul\":2090:2125   */\n      swap1\n      pop\n        /* \"#utility.yul\":2027:2131   */\n      swap2\n      swap1\n      pop\n      jump\t// out\n        /* \"#utility.yul\":2137:2227   */\n    tag_62:\n        /* \"#utility.yul\":2171:2178   */\n      0x00\n        /* \"#utility.yul\":2214:2219   */\n      dup2\n        /* \"#utility.yul\":2207:2220   */\n      iszero\n        /* \"#utility.yul\":2200:2221   */\n      iszero\n        /* \"#utility.yul\":2189:2221   */\n      swap1\n      pop\n        /* \"#utility.yul\":2137:2227   */\n      swap2\n      swap1\n      pop\n      jump\t// out\n        /* \"#utility.yul\":2233:2359   */\n    tag_77:\n        /* \"#utility.yul\":2270:2277   */\n      0x00\n        /* \"#utility.yul\":2310:2352   */\n      0xffffffffffffffffffffffffffffffffffffffff\n        /* \"#utility.yul\":2303:2308   */\n      dup3\n        /* \"#utility.yul\":2299:2353   */\n      and\n        /* \"#utility.yul\":2288:2353   */\n      swap1\n      pop\n        /* \"#utility.yul\":2233:2359   */\n      swap2\n      swap1\n      pop\n      jump\t// out\n        /* \"#utility.yul\":2365:2442   */\n    tag_66:\n        /* \"#utility.yul\":2402:2409   */\n      0x00\n        /* \"#utility.yul\":2431:2436   */\n      dup2\n        /* \"#utility.yul\":2420:2436   */\n      swap1\n      pop\n        /* \"#utility.yul\":2365:2442   */\n      swap2\n      swap1\n      pop\n      jump\t// out\n        /* \"#utility.yul\":2448:2681   */\n    tag_38:\n        /* \"#utility.yul\":2487:2490   */\n      0x00\n        /* \"#utility.yul\":2510:2534   */\n      tag_85\n        /* \"#utility.yul\":2528:2533   */\n      dup3\n        /* \"#utility.yul\":2510:2534   */\n      tag_66\n      jump\t// in\n    tag_85:\n        /* \"#utility.yul\":2501:2534   */\n      swap2\n      pop\n        /* \"#utility.yul\":2556:2622   */\n      0xffffffffffffffffffffffffffffffffffffffffffffffffffffffffffffffff\n        /* \"#utility.yul\":2549:2554   */\n      dup3\n        /* \"#utility.yul\":2546:2623   */\n      eq\n        /* \"#utility.yul\":2543:2646   */\n      iszero\n      tag_86\n      jumpi\n        /* \"#utility.yul\":2626:2644   */\n      tag_87\n      tag_88\n      jump\t// in\n    tag_87:\n        /* \"#utility.yul\":2543:2646   */\n    tag_86:\n        /* \"#utility.yul\":2673:2674   */\n      0x01\n        /* \"#utility.yul\":2666:2671   */\n      dup3\n        /* \"#utility.yul\":2662:2675   */\n      add\n        /* \"#utility.yul\":2655:2675   */\n      swap1\n      pop\n        /* \"#utility.yul\":2448:2681   */\n      swap2\n      swap1\n      pop\n      jump\t// out\n        /* \"#utility.yul\":2687:2867   */\n    tag_88:\n        /* \"#utility.yul\":2735:2812   */\n      0x4e487b7100000000000000000000000000000000000000000000000000000000\n        /* \"#utility.yul\":2732:2733   */\n      0x00\n        /* \"#utility.yul\":2725:2813   */\n      mstore\n        /* \"#utility.yul\":2832:2836   */\n      0x11\n        /* \"#utility.yul\":2829:2830   */\n      0x04\n        /* \"#utility.yul\":2822:2837   */\n      mstore\n        /* \"#utility.yul\":2856:2860   */\n      0x24\n        /* \"#utility.yul\":2853:2854   */\n      0x00\n        /* \"#utility.yul\":2846:2861   */\n      revert\n        /* \"#utility.yul\":2996:3113   */\n    tag_52:\n        /* \"#utility.yul\":3105:3106   */\n      0x00\n        /* \"#utility.yul\":3102:3103   */\n      dup1\n        /* \"#utility.yul\":3095:3107   */\n      revert\n        /* \"#utility.yul\":3119:3257   */\n    tag_44:\n        /* \"#utility.yul\":3200:3232   */\n      tag_94\n        /* \"#utility.yul\":3226:3231   */\n      dup2\n        /* \"#utility.yul\":3200:3232   */\n      tag_78\n      jump\t// in\n    tag_94:\n        /* \"#utility.yul\":3193:3198   */\n      dup2\n        /* \"#utility.yul\":3190:3233   */\n      eq\n        /* \"#utility.yul\":3180:3251   */\n      tag_95\n      jumpi\n        /* \"#utility.yul\":3247:3248   */\n      0x00\n        /* \"#utility.yul\":3244:3245   */\n      dup1\n        /* \"#utility.yul\":3237:3249   */\n      revert\n        /* \"#utility.yul\":3180:3251   */\n    tag_95:\n        /* \"#utility.yul\":3119:3257   */\n      pop\n      jump\t// out\n        /* \"#utility.yul\":3263:3385   */\n    tag_48:\n        /* \"#utility.yul\":3336:3360   */\n      tag_97\n        /* \"#utility.yul\":3354:3359   */\n      dup2\n        /* \"#utility.yul\":3336:3360   */\n      tag_66\n      jump\t// in\n    tag_97:\n        /* \"#utility.yul\":3329:3334   */\n      dup2\n        /* \"#utility.yul\":3326:3361   */\n      eq\n        /* \"#utility.yul\":3316:3379   */\n      tag_98\n      jumpi\n        /* \"#utility.yul\":3375:3376   */\n      0x00\n        /* \"#utility.yul\":3372:3373   */\n      dup1\n        /* \"#utility.yul\":3365:3377   */\n      revert\n        /* \"#utility.yul\":3316:3379   */\n    tag_98:\n        /* \"#utility.yul\":3263:3385   */\n      pop\n      jump\t// out\n\n    auxdata: 0xa26469706673582212206dddc7bcae98fb7bd75f29c0a359d95d31749a0529a7cf8e8967ba7e4126999164736f6c63430008070033\n}\n",
				"bytecode": {
					"linkReferences": {},
					"object": "608060405234801561001057600080fd5b506103b6806100206000396000f3fe6080604052600436106100435760003560e01c806305b1137b1461004c5780630e29df221461008957806312065fe0146100935780638da5cb5b146100be5761004a565b3661004a57005b005b34801561005857600080fd5b50610073600480360381019061006e91906101bd565b6100e9565b6040516100809190610245565b60405180910390f35b610091610154565b005b34801561009f57600080fd5b506100a8610167565b6040516100b59190610260565b60405180910390f35b3480156100ca57600080fd5b506100d361016f565b6040516100e0919061022a565b60405180910390f35b60006100f3610167565b8211610149578273ffffffffffffffffffffffffffffffffffffffff166108fc839081150290604051600060405180830381858888f1935050505015801561013f573d6000803e3d6000fd5b506001905061014e565b600090505b92915050565b60008080610161906102d5565b91505050565b600047905090565b60008054906101000a900473ffffffffffffffffffffffffffffffffffffffff1681565b6000813590506101a281610352565b92915050565b6000813590506101b781610369565b92915050565b600080604083850312156101d4576101d361034d565b5b60006101e285828601610193565b92505060206101f3858286016101a8565b9150509250929050565b6102068161027b565b82525050565b6102158161029f565b82525050565b610224816102cb565b82525050565b600060208201905061023f60008301846101fd565b92915050565b600060208201905061025a600083018461020c565b92915050565b6000602082019050610275600083018461021b565b92915050565b6000610286826102ab565b9050919050565b6000610298826102ab565b9050919050565b60008115159050919050565b600073ffffffffffffffffffffffffffffffffffffffff82169050919050565b6000819050919050565b60006102e0826102cb565b91507fffffffffffffffffffffffffffffffffffffffffffffffffffffffffffffffff8214156103135761031261031e565b5b600182019050919050565b7f4e487b7100000000000000000000000000000000000000000000000000000000600052601160045260246000fd5b600080fd5b61035b8161028d565b811461036657600080fd5b50565b610372816102cb565b811461037d57600080fd5b5056fea26469706673582212206dddc7bcae98fb7bd75f29c0a359d95d31749a0529a7cf8e8967ba7e4126999164736f6c63430008070033",
					"opcodes": "PUSH1 0x80 PUSH1 0x40 MSTORE CALLVALUE DUP1 ISZERO PUSH2 0x10 JUMPI PUSH1 0x0 DUP1 REVERT JUMPDEST POP PUSH2 0x3B6 DUP1 PUSH2 0x20 PUSH1 0x0 CODECOPY PUSH1 0x0 RETURN INVALID PUSH1 0x80 PUSH1 0x40 MSTORE PUSH1 0x4 CALLDATASIZE LT PUSH2 0x43 JUMPI PUSH1 0x0 CALLDATALOAD PUSH1 0xE0 SHR DUP1 PUSH4 0x5B1137B EQ PUSH2 0x4C JUMPI DUP1 PUSH4 0xE29DF22 EQ PUSH2 0x89 JUMPI DUP1 PUSH4 0x12065FE0 EQ PUSH2 0x93 JUMPI DUP1 PUSH4 0x8DA5CB5B EQ PUSH2 0xBE JUMPI PUSH2 0x4A JUMP JUMPDEST CALLDATASIZE PUSH2 0x4A JUMPI STOP JUMPDEST STOP JUMPDEST CALLVALUE DUP1 ISZERO PUSH2 0x58 JUMPI PUSH1 0x0 DUP1 REVERT JUMPDEST POP PUSH2 0x73 PUSH1 0x4 DUP1 CALLDATASIZE SUB DUP2 ADD SWAP1 PUSH2 0x6E SWAP2 SWAP1 PUSH2 0x1BD JUMP JUMPDEST PUSH2 0xE9 JUMP JUMPDEST PUSH1 0x40 MLOAD PUSH2 0x80 SWAP2 SWAP1 PUSH2 0x245 JUMP JUMPDEST PUSH1 0x40 MLOAD DUP1 SWAP2 SUB SWAP1 RETURN JUMPDEST PUSH2 0x91 PUSH2 0x154 JUMP JUMPDEST STOP JUMPDEST CALLVALUE DUP1 ISZERO PUSH2 0x9F JUMPI PUSH1 0x0 DUP1 REVERT JUMPDEST POP PUSH2 0xA8 PUSH2 0x167 JUMP JUMPDEST PUSH1 0x40 MLOAD PUSH2 0xB5 SWAP2 SWAP1 PUSH2 0x260 JUMP JUMPDEST PUSH1 0x40 MLOAD DUP1 SWAP2 SUB SWAP1 RETURN JUMPDEST CALLVALUE DUP1 ISZERO PUSH2 0xCA JUMPI PUSH1 0x0 DUP1 REVERT JUMPDEST POP PUSH2 0xD3 PUSH2 0x16F JUMP JUMPDEST PUSH1 0x40 MLOAD PUSH2 0xE0 SWAP2 SWAP1 PUSH2 0x22A JUMP JUMPDEST PUSH1 0x40 MLOAD DUP1 SWAP2 SUB SWAP1 RETURN JUMPDEST PUSH1 0x0 PUSH2 0xF3 PUSH2 0x167 JUMP JUMPDEST DUP3 GT PUSH2 0x149 JUMPI DUP3 PUSH20 0xFFFFFFFFFFFFFFFFFFFFFFFFFFFFFFFFFFFFFFFF AND PUSH2 0x8FC DUP4 SWAP1 DUP2 ISZERO MUL SWAP1 PUSH1 0x40 MLOAD PUSH1 0x0 PUSH1 0x40 MLOAD DUP1 DUP4 SUB DUP2 DUP6 DUP9 DUP9 CALL SWAP4 POP POP POP POP ISZERO DUP1 ISZERO PUSH2 0x13F JUMPI RETURNDATASIZE PUSH1 0x0 DUP1 RETURNDATACOPY RETURNDATASIZE PUSH1 0x0 REVERT JUMPDEST POP PUSH1 0x1 SWAP1 POP PUSH2 0x14E JUMP JUMPDEST PUSH1 0x0 SWAP1 POP JUMPDEST SWAP3 SWAP2 POP POP JUMP JUMPDEST PUSH1 0x0 DUP1 DUP1 PUSH2 0x161 SWAP1 PUSH2 0x2D5 JUMP JUMPDEST SWAP2 POP POP POP JUMP JUMPDEST PUSH1 0x0 SELFBALANCE SWAP1 POP SWAP1 JUMP JUMPDEST PUSH1 0x0 DUP1 SLOAD SWAP1 PUSH2 0x100 EXP SWAP1 DIV PUSH20 0xFFFFFFFFFFFFFFFFFFFFFFFFFFFFFFFFFFFFFFFF AND DUP2 JUMP JUMPDEST PUSH1 0x0 DUP2 CALLDATALOAD SWAP1 POP PUSH2 0x1A2 DUP2 PUSH2 0x352 JUMP JUMPDEST SWAP3 SWAP2 POP POP JUMP JUMPDEST PUSH1 0x0 DUP2 CALLDATALOAD SWAP1 POP PUSH2 0x1B7 DUP2 PUSH2 0x369 JUMP JUMPDEST SWAP3 SWAP2 POP POP JUMP JUMPDEST PUSH1 0x0 DUP1 PUSH1 0x40 DUP4 DUP6 SUB SLT ISZERO PUSH2 0x1D4 JUMPI PUSH2 0x1D3 PUSH2 0x34D JUMP JUMPDEST JUMPDEST PUSH1 0x0 PUSH2 0x1E2 DUP6 DUP3 DUP7 ADD PUSH2 0x193 JUMP JUMPDEST SWAP3 POP POP PUSH1 0x20 PUSH2 0x1F3 DUP6 DUP3 DUP7 ADD PUSH2 0x1A8 JUMP JUMPDEST SWAP2 POP POP SWAP3 POP SWAP3 SWAP1 POP JUMP JUMPDEST PUSH2 0x206 DUP2 PUSH2 0x27B JUMP JUMPDEST DUP3 MSTORE POP POP JUMP JUMPDEST PUSH2 0x215 DUP2 PUSH2 0x29F JUMP JUMPDEST DUP3 MSTORE POP POP JUMP JUMPDEST PUSH2 0x224 DUP2 PUSH2 0x2CB JUMP JUMPDEST DUP3 MSTORE POP POP JUMP JUMPDEST PUSH1 0x0 PUSH1 0x20 DUP3 ADD SWAP1 POP PUSH2 0x23F PUSH1 0x0 DUP4 ADD DUP5 PUSH2 0x1FD JUMP JUMPDEST SWAP3 SWAP2 POP POP JUMP JUMPDEST PUSH1 0x0 PUSH1 0x20 DUP3 ADD SWAP1 POP PUSH2 0x25A PUSH1 0x0 DUP4 ADD DUP5 PUSH2 0x20C JUMP JUMPDEST SWAP3 SWAP2 POP POP JUMP JUMPDEST PUSH1 0x0 PUSH1 0x20 DUP3 ADD SWAP1 POP PUSH2 0x275 PUSH1 0x0 DUP4 ADD DUP5 PUSH2 0x21B JUMP JUMPDEST SWAP3 SWAP2 POP POP JUMP JUMPDEST PUSH1 0x0 PUSH2 0x286 DUP3 PUSH2 0x2AB JUMP JUMPDEST SWAP1 POP SWAP2 SWAP1 POP JUMP JUMPDEST PUSH1 0x0 PUSH2 0x298 DUP3 PUSH2 0x2AB JUMP JUMPDEST SWAP1 POP SWAP2 SWAP1 POP JUMP JUMPDEST PUSH1 0x0 DUP2 ISZERO ISZERO SWAP1 POP SWAP2 SWAP1 POP JUMP JUMPDEST PUSH1 0x0 PUSH20 0xFFFFFFFFFFFFFFFFFFFFFFFFFFFFFFFFFFFFFFFF DUP3 AND SWAP1 POP SWAP2 SWAP1 POP JUMP JUMPDEST PUSH1 0x0 DUP2 SWAP1 POP SWAP2 SWAP1 POP JUMP JUMPDEST PUSH1 0x0 PUSH2 0x2E0 DUP3 PUSH2 0x2CB JUMP JUMPDEST SWAP2 POP PUSH32 0xFFFFFFFFFFFFFFFFFFFFFFFFFFFFFFFFFFFFFFFFFFFFFFFFFFFFFFFFFFFFFFFF DUP3 EQ ISZERO PUSH2 0x313 JUMPI PUSH2 0x312 PUSH2 0x31E JUMP JUMPDEST JUMPDEST PUSH1 0x1 DUP3 ADD SWAP1 POP SWAP2 SWAP1 POP JUMP JUMPDEST PUSH32 0x4E487B7100000000000000000000000000000000000000000000000000000000 PUSH1 0x0 MSTORE PUSH1 0x11 PUSH1 0x4 MSTORE PUSH1 0x24 PUSH1 0x0 REVERT JUMPDEST PUSH1 0x0 DUP1 REVERT JUMPDEST PUSH2 0x35B DUP2 PUSH2 0x28D JUMP JUMPDEST DUP2 EQ PUSH2 0x366 JUMPI PUSH1 0x0 DUP1 REVERT JUMPDEST POP JUMP JUMPDEST PUSH2 0x372 DUP2 PUSH2 0x2CB JUMP JUMPDEST DUP2 EQ PUSH2 0x37D JUMPI PUSH1 0x0 DUP1 REVERT JUMPDEST POP JUMP INVALID LOG2 PUSH5 0x6970667358 0x22 SLT KECCAK256 PUSH14 0xDDC7BCAE98FB7BD75F29C0A359D9 0x5D BALANCE PUSH21 0x9A0529A7CF8E8967BA7E4126999164736F6C634300 ADDMOD SMOD STOP CALLER "
				},
				"gasEstimates": {
					"creation": {
						"codeDepositCost": "190000",
						"executionCost": "232",
						"totalCost": "190232"
					},
					"external": {
						"": "151",
						"getBalance()": "361",
						"owner()": "2555",
						"sendEther()": "267",
						"transferEther(address,uint256)": "infinite"
					}
				},
				"methodIdentifiers": {
					"getBalance()": "12065fe0",
					"owner()": "8da5cb5b",
					"sendEther()": "0e29df22",
					"transferEther(address,uint256)": "05b1137b"
				}
			},
			"storageLayout": {
				"storage": [
					{
						"astId": 3,
						"contract": "contracts/contract_address_balance.sol:Deposit",
						"label": "owner",
						"offset": 0,
						"slot": "0",
						"type": "t_address"
					}
				],
				"types": {
					"t_address": {
						"encoding": "inplace",
						"label": "address",
						"numberOfBytes": "20"
					}
				}
			},
			"userdoc": {
				"kind": "user",
				"methods": {},
				"version": 1
			}
		}
	}
}