{
	"contracts/challenge1.sol": {
		"CryptosToken2": {
			"abi": [
				{
					"inputs": [
						{
							"internalType": "string",
							"name": "_name",
							"type": "string"
						},
						{
							"internalType": "uint256",
							"name": "_supply",
							"type": "uint256"
						}
					],
					"stateMutability": "nonpayable",
					"type": "constructor"
				},
				{
					"inputs": [],
					"name": "getSupply",
					"outputs": [
						{
							"internalType": "uint256",
							"name": "",
							"type": "uint256"
						}
					],
					"stateMutability": "view",
					"type": "function"
				},
				{
					"inputs": [],
					"name": "name",
					"outputs": [
						{
							"internalType": "string",
							"name": "",
							"type": "string"
						}
					],
					"stateMutability": "view",
					"type": "function"
				},
				{
					"inputs": [],
					"name": "owner",
					"outputs": [
						{
							"internalType": "address",
							"name": "",
							"type": "address"
						}
					],
					"stateMutability": "view",
					"type": "function"
				},
				{
					"inputs": [
						{
							"internalType": "uint256",
							"name": "_supply",
							"type": "uint256"
						}
					],
					"name": "setSupply",
					"outputs": [],
					"stateMutability": "nonpayable",
					"type": "function"
				}
			],
			"devdoc": {
				"kind": "dev",
				"methods": {},
				"version": 1
			},
			"evm": {
				"assembly": "    /* \"contracts/challenge1.sol\":248:868  contract CryptosToken2{\r... */\n  mstore(0x40, 0x80)\n    /* \"contracts/challenge1.sol\":531:641  constructor(string memory _name, uint _supply){\r... */\n  callvalue\n  dup1\n  iszero\n  tag_1\n  jumpi\n  0x00\n  dup1\n  revert\ntag_1:\n  pop\n  mload(0x40)\n  sub(codesize, bytecodeSize)\n  dup1\n  bytecodeSize\n  dup4\n  codecopy\n  dup2\n  dup2\n  add\n  0x40\n  mstore\n  dup2\n  add\n  swap1\n  tag_2\n  swap2\n  swap1\n  tag_3\n  jump\t// in\ntag_2:\n    /* \"contracts/challenge1.sol\":596:606  msg.sender */\n  caller\n    /* \"contracts/challenge1.sol\":588:593  owner */\n  0x00\n  dup1\n    /* \"contracts/challenge1.sol\":588:606  owner = msg.sender */\n  0x0100\n  exp\n  dup2\n  sload\n  dup2\n  0xffffffffffffffffffffffffffffffffffffffff\n  mul\n  not\n  and\n  swap1\n  dup4\n  0xffffffffffffffffffffffffffffffffffffffff\n  and\n  mul\n  or\n  swap1\n  sstore\n  pop\n    /* \"contracts/challenge1.sol\":626:633  _supply */\n  dup1\n    /* \"contracts/challenge1.sol\":617:623  supply */\n  0x01\n    /* \"contracts/challenge1.sol\":617:633  supply = _supply */\n  dup2\n  swap1\n  sstore\n  pop\n    /* \"contracts/challenge1.sol\":531:641  constructor(string memory _name, uint _supply){\r... */\n  pop\n  pop\n    /* \"contracts/challenge1.sol\":248:868  contract CryptosToken2{\r... */\n  jump(tag_6)\n    /* \"#utility.yul\":7:360   */\ntag_8:\n  0x00\n    /* \"#utility.yul\":121:186   */\n  tag_10\n    /* \"#utility.yul\":136:185   */\n  tag_11\n    /* \"#utility.yul\":178:184   */\n  dup5\n    /* \"#utility.yul\":136:185   */\n  tag_12\n  jump\t// in\ntag_11:\n    /* \"#utility.yul\":121:186   */\n  tag_13\n  jump\t// in\ntag_10:\n    /* \"#utility.yul\":112:186   */\n  swap1\n  pop\n    /* \"#utility.yul\":209:215   */\n  dup3\n    /* \"#utility.yul\":202:207   */\n  dup2\n    /* \"#utility.yul\":195:216   */\n  mstore\n    /* \"#utility.yul\":247:251   */\n  0x20\n    /* \"#utility.yul\":240:245   */\n  dup2\n    /* \"#utility.yul\":236:252   */\n  add\n    /* \"#utility.yul\":285:288   */\n  dup5\n    /* \"#utility.yul\":276:282   */\n  dup5\n    /* \"#utility.yul\":271:274   */\n  dup5\n    /* \"#utility.yul\":267:283   */\n  add\n    /* \"#utility.yul\":264:289   */\n  gt\n    /* \"#utility.yul\":261:263   */\n  iszero\n  tag_14\n  jumpi\n    /* \"#utility.yul\":302:303   */\n  0x00\n    /* \"#utility.yul\":299:300   */\n  dup1\n    /* \"#utility.yul\":292:304   */\n  revert\n    /* \"#utility.yul\":261:263   */\ntag_14:\n    /* \"#utility.yul\":315:354   */\n  tag_15\n    /* \"#utility.yul\":347:353   */\n  dup5\n    /* \"#utility.yul\":342:345   */\n  dup3\n    /* \"#utility.yul\":337:340   */\n  dup6\n    /* \"#utility.yul\":315:354   */\n  tag_16\n  jump\t// in\ntag_15:\n    /* \"#utility.yul\":102:360   */\n  pop\n  swap4\n  swap3\n  pop\n  pop\n  pop\n  jump\t// out\n    /* \"#utility.yul\":380:668   */\ntag_17:\n  0x00\n    /* \"#utility.yul\":496:499   */\n  dup3\n    /* \"#utility.yul\":489:493   */\n  0x1f\n    /* \"#utility.yul\":481:487   */\n  dup4\n    /* \"#utility.yul\":477:494   */\n  add\n    /* \"#utility.yul\":473:500   */\n  slt\n    /* \"#utility.yul\":463:465   */\n  tag_19\n  jumpi\n    /* \"#utility.yul\":514:515   */\n  0x00\n    /* \"#utility.yul\":511:512   */\n  dup1\n    /* \"#utility.yul\":504:516   */\n  revert\n    /* \"#utility.yul\":463:465   */\ntag_19:\n    /* \"#utility.yul\":547:553   */\n  dup2\n    /* \"#utility.yul\":541:554   */\n  mload\n    /* \"#utility.yul\":572:662   */\n  tag_20\n    /* \"#utility.yul\":658:661   */\n  dup5\n    /* \"#utility.yul\":650:656   */\n  dup3\n    /* \"#utility.yul\":643:647   */\n  0x20\n    /* \"#utility.yul\":635:641   */\n  dup7\n    /* \"#utility.yul\":631:648   */\n  add\n    /* \"#utility.yul\":572:662   */\n  tag_8\n  jump\t// in\ntag_20:\n    /* \"#utility.yul\":563:662   */\n  swap2\n  pop\n    /* \"#utility.yul\":453:668   */\n  pop\n  swap3\n  swap2\n  pop\n  pop\n  jump\t// out\n    /* \"#utility.yul\":674:817   */\ntag_21:\n  0x00\n    /* \"#utility.yul\":762:768   */\n  dup2\n    /* \"#utility.yul\":756:769   */\n  mload\n    /* \"#utility.yul\":747:769   */\n  swap1\n  pop\n    /* \"#utility.yul\":778:811   */\n  tag_23\n    /* \"#utility.yul\":805:810   */\n  dup2\n    /* \"#utility.yul\":778:811   */\n  tag_24\n  jump\t// in\ntag_23:\n    /* \"#utility.yul\":737:817   */\n  swap3\n  swap2\n  pop\n  pop\n  jump\t// out\n    /* \"#utility.yul\":823:1369   */\ntag_3:\n  0x00\n  dup1\n    /* \"#utility.yul\":969:971   */\n  0x40\n    /* \"#utility.yul\":957:966   */\n  dup4\n    /* \"#utility.yul\":948:955   */\n  dup6\n    /* \"#utility.yul\":944:967   */\n  sub\n    /* \"#utility.yul\":940:972   */\n  slt\n    /* \"#utility.yul\":937:939   */\n  iszero\n  tag_26\n  jumpi\n    /* \"#utility.yul\":985:986   */\n  0x00\n    /* \"#utility.yul\":982:983   */\n  dup1\n    /* \"#utility.yul\":975:987   */\n  revert\n    /* \"#utility.yul\":937:939   */\ntag_26:\n    /* \"#utility.yul\":1049:1050   */\n  0x00\n    /* \"#utility.yul\":1038:1047   */\n  dup4\n    /* \"#utility.yul\":1034:1051   */\n  add\n    /* \"#utility.yul\":1028:1052   */\n  mload\n    /* \"#utility.yul\":1079:1097   */\n  0xffffffffffffffff\n    /* \"#utility.yul\":1071:1077   */\n  dup2\n    /* \"#utility.yul\":1068:1098   */\n  gt\n    /* \"#utility.yul\":1065:1067   */\n  iszero\n  tag_27\n  jumpi\n    /* \"#utility.yul\":1111:1112   */\n  0x00\n    /* \"#utility.yul\":1108:1109   */\n  dup1\n    /* \"#utility.yul\":1101:1113   */\n  revert\n    /* \"#utility.yul\":1065:1067   */\ntag_27:\n    /* \"#utility.yul\":1139:1213   */\n  tag_28\n    /* \"#utility.yul\":1205:1212   */\n  dup6\n    /* \"#utility.yul\":1196:1202   */\n  dup3\n    /* \"#utility.yul\":1185:1194   */\n  dup7\n    /* \"#utility.yul\":1181:1203   */\n  add\n    /* \"#utility.yul\":1139:1213   */\n  tag_17\n  jump\t// in\ntag_28:\n    /* \"#utility.yul\":1129:1213   */\n  swap3\n  pop\n    /* \"#utility.yul\":999:1223   */\n  pop\n    /* \"#utility.yul\":1262:1264   */\n  0x20\n    /* \"#utility.yul\":1288:1352   */\n  tag_29\n    /* \"#utility.yul\":1344:1351   */\n  dup6\n    /* \"#utility.yul\":1335:1341   */\n  dup3\n    /* \"#utility.yul\":1324:1333   */\n  dup7\n    /* \"#utility.yul\":1320:1342   */\n  add\n    /* \"#utility.yul\":1288:1352   */\n  tag_21\n  jump\t// in\ntag_29:\n    /* \"#utility.yul\":1278:1352   */\n  swap2\n  pop\n    /* \"#utility.yul\":1233:1362   */\n  pop\n    /* \"#utility.yul\":927:1369   */\n  swap3\n  pop\n  swap3\n  swap1\n  pop\n  jump\t// out\n    /* \"#utility.yul\":1375:1658   */\ntag_13:\n  0x00\n    /* \"#utility.yul\":1441:1443   */\n  0x40\n    /* \"#utility.yul\":1435:1444   */\n  mload\n    /* \"#utility.yul\":1425:1444   */\n  swap1\n  pop\n    /* \"#utility.yul\":1483:1487   */\n  dup2\n    /* \"#utility.yul\":1475:1481   */\n  dup2\n    /* \"#utility.yul\":1471:1488   */\n  add\n    /* \"#utility.yul\":1590:1596   */\n  dup2\n    /* \"#utility.yul\":1578:1588   */\n  dup2\n    /* \"#utility.yul\":1575:1597   */\n  lt\n    /* \"#utility.yul\":1554:1572   */\n  0xffffffffffffffff\n    /* \"#utility.yul\":1542:1552   */\n  dup3\n    /* \"#utility.yul\":1539:1573   */\n  gt\n    /* \"#utility.yul\":1536:1598   */\n  or\n    /* \"#utility.yul\":1533:1535   */\n  iszero\n  tag_31\n  jumpi\n    /* \"#utility.yul\":1601:1619   */\n  tag_32\n  tag_33\n  jump\t// in\ntag_32:\n    /* \"#utility.yul\":1533:1535   */\ntag_31:\n    /* \"#utility.yul\":1641:1651   */\n  dup1\n    /* \"#utility.yul\":1637:1639   */\n  0x40\n    /* \"#utility.yul\":1630:1652   */\n  mstore\n    /* \"#utility.yul\":1415:1658   */\n  pop\n  swap2\n  swap1\n  pop\n  jump\t// out\n    /* \"#utility.yul\":1664:1996   */\ntag_12:\n  0x00\n    /* \"#utility.yul\":1816:1834   */\n  0xffffffffffffffff\n    /* \"#utility.yul\":1808:1814   */\n  dup3\n    /* \"#utility.yul\":1805:1835   */\n  gt\n    /* \"#utility.yul\":1802:1804   */\n  iszero\n  tag_35\n  jumpi\n    /* \"#utility.yul\":1838:1856   */\n  tag_36\n  tag_33\n  jump\t// in\ntag_36:\n    /* \"#utility.yul\":1802:1804   */\ntag_35:\n    /* \"#utility.yul\":1923:1927   */\n  0x1f\n    /* \"#utility.yul\":1919:1928   */\n  not\n    /* \"#utility.yul\":1912:1916   */\n  0x1f\n    /* \"#utility.yul\":1904:1910   */\n  dup4\n    /* \"#utility.yul\":1900:1917   */\n  add\n    /* \"#utility.yul\":1896:1929   */\n  and\n    /* \"#utility.yul\":1888:1929   */\n  swap1\n  pop\n    /* \"#utility.yul\":1984:1988   */\n  0x20\n    /* \"#utility.yul\":1978:1982   */\n  dup2\n    /* \"#utility.yul\":1974:1989   */\n  add\n    /* \"#utility.yul\":1966:1989   */\n  swap1\n  pop\n    /* \"#utility.yul\":1731:1996   */\n  swap2\n  swap1\n  pop\n  jump\t// out\n    /* \"#utility.yul\":2002:2079   */\ntag_37:\n  0x00\n    /* \"#utility.yul\":2068:2073   */\n  dup2\n    /* \"#utility.yul\":2057:2073   */\n  swap1\n  pop\n    /* \"#utility.yul\":2047:2079   */\n  swap2\n  swap1\n  pop\n  jump\t// out\n    /* \"#utility.yul\":2085:2392   */\ntag_16:\n    /* \"#utility.yul\":2153:2154   */\n  0x00\n    /* \"#utility.yul\":2163:2276   */\ntag_40:\n    /* \"#utility.yul\":2177:2183   */\n  dup4\n    /* \"#utility.yul\":2174:2175   */\n  dup2\n    /* \"#utility.yul\":2171:2184   */\n  lt\n    /* \"#utility.yul\":2163:2276   */\n  iszero\n  tag_42\n  jumpi\n    /* \"#utility.yul\":2262:2263   */\n  dup1\n    /* \"#utility.yul\":2257:2260   */\n  dup3\n    /* \"#utility.yul\":2253:2264   */\n  add\n    /* \"#utility.yul\":2247:2265   */\n  mload\n    /* \"#utility.yul\":2243:2244   */\n  dup2\n    /* \"#utility.yul\":2238:2241   */\n  dup5\n    /* \"#utility.yul\":2234:2245   */\n  add\n    /* \"#utility.yul\":2227:2266   */\n  mstore\n    /* \"#utility.yul\":2199:2201   */\n  0x20\n    /* \"#utility.yul\":2196:2197   */\n  dup2\n    /* \"#utility.yul\":2192:2202   */\n  add\n    /* \"#utility.yul\":2187:2202   */\n  swap1\n  pop\n    /* \"#utility.yul\":2163:2276   */\n  jump(tag_40)\ntag_42:\n    /* \"#utility.yul\":2294:2300   */\n  dup4\n    /* \"#utility.yul\":2291:2292   */\n  dup2\n    /* \"#utility.yul\":2288:2301   */\n  gt\n    /* \"#utility.yul\":2285:2287   */\n  iszero\n  tag_43\n  jumpi\n    /* \"#utility.yul\":2374:2375   */\n  0x00\n    /* \"#utility.yul\":2365:2371   */\n  dup5\n    /* \"#utility.yul\":2360:2363   */\n  dup5\n    /* \"#utility.yul\":2356:2372   */\n  add\n    /* \"#utility.yul\":2349:2376   */\n  mstore\n    /* \"#utility.yul\":2285:2287   */\ntag_43:\n    /* \"#utility.yul\":2134:2392   */\n  pop\n  pop\n  pop\n  pop\n  jump\t// out\n    /* \"#utility.yul\":2398:2578   */\ntag_33:\n    /* \"#utility.yul\":2446:2523   */\n  0x4e487b7100000000000000000000000000000000000000000000000000000000\n    /* \"#utility.yul\":2443:2444   */\n  0x00\n    /* \"#utility.yul\":2436:2524   */\n  mstore\n    /* \"#utility.yul\":2543:2547   */\n  0x41\n    /* \"#utility.yul\":2540:2541   */\n  0x04\n    /* \"#utility.yul\":2533:2548   */\n  mstore\n    /* \"#utility.yul\":2567:2571   */\n  0x24\n    /* \"#utility.yul\":2564:2565   */\n  0x00\n    /* \"#utility.yul\":2557:2572   */\n  revert\n    /* \"#utility.yul\":2584:2706   */\ntag_24:\n    /* \"#utility.yul\":2657:2681   */\n  tag_46\n    /* \"#utility.yul\":2675:2680   */\n  dup2\n    /* \"#utility.yul\":2657:2681   */\n  tag_37\n  jump\t// in\ntag_46:\n    /* \"#utility.yul\":2650:2655   */\n  dup2\n    /* \"#utility.yul\":2647:2682   */\n  eq\n    /* \"#utility.yul\":2637:2639   */\n  tag_47\n  jumpi\n    /* \"#utility.yul\":2696:2697   */\n  0x00\n    /* \"#utility.yul\":2693:2694   */\n  dup1\n    /* \"#utility.yul\":2686:2698   */\n  revert\n    /* \"#utility.yul\":2637:2639   */\ntag_47:\n    /* \"#utility.yul\":2627:2706   */\n  pop\n  jump\t// out\n    /* \"contracts/challenge1.sol\":248:868  contract CryptosToken2{\r... */\ntag_6:\n  dataSize(sub_0)\n  dup1\n  dataOffset(sub_0)\n  0x00\n  codecopy\n  0x00\n  return\nstop\n\nsub_0: assembly {\n        /* \"contracts/challenge1.sol\":248:868  contract CryptosToken2{\r... */\n      mstore(0x40, 0x80)\n      callvalue\n      dup1\n      iszero\n      tag_1\n      jumpi\n      0x00\n      dup1\n      revert\n    tag_1:\n      pop\n      jumpi(tag_2, lt(calldatasize, 0x04))\n      shr(0xe0, calldataload(0x00))\n      dup1\n      0x06fdde03\n      eq\n      tag_3\n      jumpi\n      dup1\n      0x3b4c4b25\n      eq\n      tag_4\n      jumpi\n      dup1\n      0x6c9c2faf\n      eq\n      tag_5\n      jumpi\n      dup1\n      0x8da5cb5b\n      eq\n      tag_6\n      jumpi\n    tag_2:\n      0x00\n      dup1\n      revert\n        /* \"contracts/challenge1.sol\":375:414  string public constant name = \"Cryptos\" */\n    tag_3:\n      tag_7\n      tag_8\n      jump\t// in\n    tag_7:\n      mload(0x40)\n      tag_9\n      swap2\n      swap1\n      tag_10\n      jump\t// in\n    tag_9:\n      mload(0x40)\n      dup1\n      swap2\n      sub\n      swap1\n      return\n        /* \"contracts/challenge1.sol\":680:758  function setSupply(uint _supply) public{\r... */\n    tag_4:\n      tag_11\n      0x04\n      dup1\n      calldatasize\n      sub\n      dup2\n      add\n      swap1\n      tag_12\n      swap2\n      swap1\n      tag_13\n      jump\t// in\n    tag_12:\n      tag_14\n      jump\t// in\n    tag_11:\n      stop\n        /* \"contracts/challenge1.sol\":793:863  function getSupply() public view returns(uint){\r... */\n    tag_5:\n      tag_15\n      tag_16\n      jump\t// in\n    tag_15:\n      mload(0x40)\n      tag_17\n      swap2\n      swap1\n      tag_18\n      jump\t// in\n    tag_17:\n      mload(0x40)\n      dup1\n      swap2\n      sub\n      swap1\n      return\n        /* \"contracts/challenge1.sol\":348:368  address public owner */\n    tag_6:\n      tag_19\n      tag_20\n      jump\t// in\n    tag_19:\n      mload(0x40)\n      tag_21\n      swap2\n      swap1\n      tag_22\n      jump\t// in\n    tag_21:\n      mload(0x40)\n      dup1\n      swap2\n      sub\n      swap1\n      return\n        /* \"contracts/challenge1.sol\":375:414  string public constant name = \"Cryptos\" */\n    tag_8:\n      mload(0x40)\n      dup1\n      0x40\n      add\n      0x40\n      mstore\n      dup1\n      0x07\n      dup2\n      mstore\n      0x20\n      add\n      0x43727970746f7300000000000000000000000000000000000000000000000000\n      dup2\n      mstore\n      pop\n      dup2\n      jump\t// out\n        /* \"contracts/challenge1.sol\":680:758  function setSupply(uint _supply) public{\r... */\n    tag_14:\n        /* \"contracts/challenge1.sol\":741:748  _supply */\n      dup1\n        /* \"contracts/challenge1.sol\":732:738  supply */\n      0x01\n        /* \"contracts/challenge1.sol\":732:748  supply = _supply */\n      dup2\n      swap1\n      sstore\n      pop\n        /* \"contracts/challenge1.sol\":680:758  function setSupply(uint _supply) public{\r... */\n      pop\n      jump\t// out\n        /* \"contracts/challenge1.sol\":793:863  function getSupply() public view returns(uint){\r... */\n    tag_16:\n        /* \"contracts/challenge1.sol\":834:838  uint */\n      0x00\n        /* \"contracts/challenge1.sol\":853:859  supply */\n      sload(0x01)\n        /* \"contracts/challenge1.sol\":846:859  return supply */\n      swap1\n      pop\n        /* \"contracts/challenge1.sol\":793:863  function getSupply() public view returns(uint){\r... */\n      swap1\n      jump\t// out\n        /* \"contracts/challenge1.sol\":348:368  address public owner */\n    tag_20:\n      0x00\n      dup1\n      sload\n      swap1\n      0x0100\n      exp\n      swap1\n      div\n      0xffffffffffffffffffffffffffffffffffffffff\n      and\n      dup2\n      jump\t// out\n        /* \"#utility.yul\":7:146   */\n    tag_26:\n      0x00\n        /* \"#utility.yul\":91:97   */\n      dup2\n        /* \"#utility.yul\":78:98   */\n      calldataload\n        /* \"#utility.yul\":69:98   */\n      swap1\n      pop\n        /* \"#utility.yul\":107:140   */\n      tag_28\n        /* \"#utility.yul\":134:139   */\n      dup2\n        /* \"#utility.yul\":107:140   */\n      tag_29\n      jump\t// in\n    tag_28:\n        /* \"#utility.yul\":59:146   */\n      swap3\n      swap2\n      pop\n      pop\n      jump\t// out\n        /* \"#utility.yul\":152:414   */\n    tag_13:\n      0x00\n        /* \"#utility.yul\":260:262   */\n      0x20\n        /* \"#utility.yul\":248:257   */\n      dup3\n        /* \"#utility.yul\":239:246   */\n      dup5\n        /* \"#utility.yul\":235:258   */\n      sub\n        /* \"#utility.yul\":231:263   */\n      slt\n        /* \"#utility.yul\":228:230   */\n      iszero\n      tag_31\n      jumpi\n        /* \"#utility.yul\":276:277   */\n      0x00\n        /* \"#utility.yul\":273:274   */\n      dup1\n        /* \"#utility.yul\":266:278   */\n      revert\n        /* \"#utility.yul\":228:230   */\n    tag_31:\n        /* \"#utility.yul\":319:320   */\n      0x00\n        /* \"#utility.yul\":344:397   */\n      tag_32\n        /* \"#utility.yul\":389:396   */\n      dup5\n        /* \"#utility.yul\":380:386   */\n      dup3\n        /* \"#utility.yul\":369:378   */\n      dup6\n        /* \"#utility.yul\":365:387   */\n      add\n        /* \"#utility.yul\":344:397   */\n      tag_26\n      jump\t// in\n    tag_32:\n        /* \"#utility.yul\":334:397   */\n      swap2\n      pop\n        /* \"#utility.yul\":290:407   */\n      pop\n        /* \"#utility.yul\":218:414   */\n      swap3\n      swap2\n      pop\n      pop\n      jump\t// out\n        /* \"#utility.yul\":420:538   */\n    tag_33:\n        /* \"#utility.yul\":507:531   */\n      tag_35\n        /* \"#utility.yul\":525:530   */\n      dup2\n        /* \"#utility.yul\":507:531   */\n      tag_36\n      jump\t// in\n    tag_35:\n        /* \"#utility.yul\":502:505   */\n      dup3\n        /* \"#utility.yul\":495:532   */\n      mstore\n        /* \"#utility.yul\":485:538   */\n      pop\n      pop\n      jump\t// out\n        /* \"#utility.yul\":544:908   */\n    tag_37:\n      0x00\n        /* \"#utility.yul\":660:699   */\n      tag_39\n        /* \"#utility.yul\":693:698   */\n      dup3\n        /* \"#utility.yul\":660:699   */\n      tag_40\n      jump\t// in\n    tag_39:\n        /* \"#utility.yul\":715:786   */\n      tag_41\n        /* \"#utility.yul\":779:785   */\n      dup2\n        /* \"#utility.yul\":774:777   */\n      dup6\n        /* \"#utility.yul\":715:786   */\n      tag_42\n      jump\t// in\n    tag_41:\n        /* \"#utility.yul\":708:786   */\n      swap4\n      pop\n        /* \"#utility.yul\":795:847   */\n      tag_43\n        /* \"#utility.yul\":840:846   */\n      dup2\n        /* \"#utility.yul\":835:838   */\n      dup6\n        /* \"#utility.yul\":828:832   */\n      0x20\n        /* \"#utility.yul\":821:826   */\n      dup7\n        /* \"#utility.yul\":817:833   */\n      add\n        /* \"#utility.yul\":795:847   */\n      tag_44\n      jump\t// in\n    tag_43:\n        /* \"#utility.yul\":872:901   */\n      tag_45\n        /* \"#utility.yul\":894:900   */\n      dup2\n        /* \"#utility.yul\":872:901   */\n      tag_46\n      jump\t// in\n    tag_45:\n        /* \"#utility.yul\":867:870   */\n      dup5\n        /* \"#utility.yul\":863:902   */\n      add\n        /* \"#utility.yul\":856:902   */\n      swap2\n      pop\n        /* \"#utility.yul\":636:908   */\n      pop\n      swap3\n      swap2\n      pop\n      pop\n      jump\t// out\n        /* \"#utility.yul\":914:1032   */\n    tag_47:\n        /* \"#utility.yul\":1001:1025   */\n      tag_49\n        /* \"#utility.yul\":1019:1024   */\n      dup2\n        /* \"#utility.yul\":1001:1025   */\n      tag_50\n      jump\t// in\n    tag_49:\n        /* \"#utility.yul\":996:999   */\n      dup3\n        /* \"#utility.yul\":989:1026   */\n      mstore\n        /* \"#utility.yul\":979:1032   */\n      pop\n      pop\n      jump\t// out\n        /* \"#utility.yul\":1038:1260   */\n    tag_22:\n      0x00\n        /* \"#utility.yul\":1169:1171   */\n      0x20\n        /* \"#utility.yul\":1158:1167   */\n      dup3\n        /* \"#utility.yul\":1154:1172   */\n      add\n        /* \"#utility.yul\":1146:1172   */\n      swap1\n      pop\n        /* \"#utility.yul\":1182:1253   */\n      tag_52\n        /* \"#utility.yul\":1250:1251   */\n      0x00\n        /* \"#utility.yul\":1239:1248   */\n      dup4\n        /* \"#utility.yul\":1235:1252   */\n      add\n        /* \"#utility.yul\":1226:1232   */\n      dup5\n        /* \"#utility.yul\":1182:1253   */\n      tag_33\n      jump\t// in\n    tag_52:\n        /* \"#utility.yul\":1136:1260   */\n      swap3\n      swap2\n      pop\n      pop\n      jump\t// out\n        /* \"#utility.yul\":1266:1579   */\n    tag_10:\n      0x00\n        /* \"#utility.yul\":1417:1419   */\n      0x20\n        /* \"#utility.yul\":1406:1415   */\n      dup3\n        /* \"#utility.yul\":1402:1420   */\n      add\n        /* \"#utility.yul\":1394:1420   */\n      swap1\n      pop\n        /* \"#utility.yul\":1466:1475   */\n      dup2\n        /* \"#utility.yul\":1460:1464   */\n      dup2\n        /* \"#utility.yul\":1456:1476   */\n      sub\n        /* \"#utility.yul\":1452:1453   */\n      0x00\n        /* \"#utility.yul\":1441:1450   */\n      dup4\n        /* \"#utility.yul\":1437:1454   */\n      add\n        /* \"#utility.yul\":1430:1477   */\n      mstore\n        /* \"#utility.yul\":1494:1572   */\n      tag_54\n        /* \"#utility.yul\":1567:1571   */\n      dup2\n        /* \"#utility.yul\":1558:1564   */\n      dup5\n        /* \"#utility.yul\":1494:1572   */\n      tag_37\n      jump\t// in\n    tag_54:\n        /* \"#utility.yul\":1486:1572   */\n      swap1\n      pop\n        /* \"#utility.yul\":1384:1579   */\n      swap3\n      swap2\n      pop\n      pop\n      jump\t// out\n        /* \"#utility.yul\":1585:1807   */\n    tag_18:\n      0x00\n        /* \"#utility.yul\":1716:1718   */\n      0x20\n        /* \"#utility.yul\":1705:1714   */\n      dup3\n        /* \"#utility.yul\":1701:1719   */\n      add\n        /* \"#utility.yul\":1693:1719   */\n      swap1\n      pop\n        /* \"#utility.yul\":1729:1800   */\n      tag_56\n        /* \"#utility.yul\":1797:1798   */\n      0x00\n        /* \"#utility.yul\":1786:1795   */\n      dup4\n        /* \"#utility.yul\":1782:1799   */\n      add\n        /* \"#utility.yul\":1773:1779   */\n      dup5\n        /* \"#utility.yul\":1729:1800   */\n      tag_47\n      jump\t// in\n    tag_56:\n        /* \"#utility.yul\":1683:1807   */\n      swap3\n      swap2\n      pop\n      pop\n      jump\t// out\n        /* \"#utility.yul\":1813:1912   */\n    tag_40:\n      0x00\n        /* \"#utility.yul\":1899:1904   */\n      dup2\n        /* \"#utility.yul\":1893:1905   */\n      mload\n        /* \"#utility.yul\":1883:1905   */\n      swap1\n      pop\n        /* \"#utility.yul\":1872:1912   */\n      swap2\n      swap1\n      pop\n      jump\t// out\n        /* \"#utility.yul\":1918:2087   */\n    tag_42:\n      0x00\n        /* \"#utility.yul\":2036:2042   */\n      dup3\n        /* \"#utility.yul\":2031:2034   */\n      dup3\n        /* \"#utility.yul\":2024:2043   */\n      mstore\n        /* \"#utility.yul\":2076:2080   */\n      0x20\n        /* \"#utility.yul\":2071:2074   */\n      dup3\n        /* \"#utility.yul\":2067:2081   */\n      add\n        /* \"#utility.yul\":2052:2081   */\n      swap1\n      pop\n        /* \"#utility.yul\":2014:2087   */\n      swap3\n      swap2\n      pop\n      pop\n      jump\t// out\n        /* \"#utility.yul\":2093:2189   */\n    tag_36:\n      0x00\n        /* \"#utility.yul\":2159:2183   */\n      tag_60\n        /* \"#utility.yul\":2177:2182   */\n      dup3\n        /* \"#utility.yul\":2159:2183   */\n      tag_61\n      jump\t// in\n    tag_60:\n        /* \"#utility.yul\":2148:2183   */\n      swap1\n      pop\n        /* \"#utility.yul\":2138:2189   */\n      swap2\n      swap1\n      pop\n      jump\t// out\n        /* \"#utility.yul\":2195:2321   */\n    tag_61:\n      0x00\n        /* \"#utility.yul\":2272:2314   */\n      0xffffffffffffffffffffffffffffffffffffffff\n        /* \"#utility.yul\":2265:2270   */\n      dup3\n        /* \"#utility.yul\":2261:2315   */\n      and\n        /* \"#utility.yul\":2250:2315   */\n      swap1\n      pop\n        /* \"#utility.yul\":2240:2321   */\n      swap2\n      swap1\n      pop\n      jump\t// out\n        /* \"#utility.yul\":2327:2404   */\n    tag_50:\n      0x00\n        /* \"#utility.yul\":2393:2398   */\n      dup2\n        /* \"#utility.yul\":2382:2398   */\n      swap1\n      pop\n        /* \"#utility.yul\":2372:2404   */\n      swap2\n      swap1\n      pop\n      jump\t// out\n        /* \"#utility.yul\":2410:2717   */\n    tag_44:\n        /* \"#utility.yul\":2478:2479   */\n      0x00\n        /* \"#utility.yul\":2488:2601   */\n    tag_65:\n        /* \"#utility.yul\":2502:2508   */\n      dup4\n        /* \"#utility.yul\":2499:2500   */\n      dup2\n        /* \"#utility.yul\":2496:2509   */\n      lt\n        /* \"#utility.yul\":2488:2601   */\n      iszero\n      tag_67\n      jumpi\n        /* \"#utility.yul\":2587:2588   */\n      dup1\n        /* \"#utility.yul\":2582:2585   */\n      dup3\n        /* \"#utility.yul\":2578:2589   */\n      add\n        /* \"#utility.yul\":2572:2590   */\n      mload\n        /* \"#utility.yul\":2568:2569   */\n      dup2\n        /* \"#utility.yul\":2563:2566   */\n      dup5\n        /* \"#utility.yul\":2559:2570   */\n      add\n        /* \"#utility.yul\":2552:2591   */\n      mstore\n        /* \"#utility.yul\":2524:2526   */\n      0x20\n        /* \"#utility.yul\":2521:2522   */\n      dup2\n        /* \"#utility.yul\":2517:2527   */\n      add\n        /* \"#utility.yul\":2512:2527   */\n      swap1\n      pop\n        /* \"#utility.yul\":2488:2601   */\n      jump(tag_65)\n    tag_67:\n        /* \"#utility.yul\":2619:2625   */\n      dup4\n        /* \"#utility.yul\":2616:2617   */\n      dup2\n        /* \"#utility.yul\":2613:2626   */\n      gt\n        /* \"#utility.yul\":2610:2612   */\n      iszero\n      tag_68\n      jumpi\n        /* \"#utility.yul\":2699:2700   */\n      0x00\n        /* \"#utility.yul\":2690:2696   */\n      dup5\n        /* \"#utility.yul\":2685:2688   */\n      dup5\n        /* \"#utility.yul\":2681:2697   */\n      add\n        /* \"#utility.yul\":2674:2701   */\n      mstore\n        /* \"#utility.yul\":2610:2612   */\n    tag_68:\n        /* \"#utility.yul\":2459:2717   */\n      pop\n      pop\n      pop\n      pop\n      jump\t// out\n        /* \"#utility.yul\":2723:2825   */\n    tag_46:\n      0x00\n        /* \"#utility.yul\":2815:2817   */\n      0x1f\n        /* \"#utility.yul\":2811:2818   */\n      not\n        /* \"#utility.yul\":2806:2808   */\n      0x1f\n        /* \"#utility.yul\":2799:2804   */\n      dup4\n        /* \"#utility.yul\":2795:2809   */\n      add\n        /* \"#utility.yul\":2791:2819   */\n      and\n        /* \"#utility.yul\":2781:2819   */\n      swap1\n      pop\n        /* \"#utility.yul\":2771:2825   */\n      swap2\n      swap1\n      pop\n      jump\t// out\n        /* \"#utility.yul\":2831:2953   */\n    tag_29:\n        /* \"#utility.yul\":2904:2928   */\n      tag_71\n        /* \"#utility.yul\":2922:2927   */\n      dup2\n        /* \"#utility.yul\":2904:2928   */\n      tag_50\n      jump\t// in\n    tag_71:\n        /* \"#utility.yul\":2897:2902   */\n      dup2\n        /* \"#utility.yul\":2894:2929   */\n      eq\n        /* \"#utility.yul\":2884:2886   */\n      tag_72\n      jumpi\n        /* \"#utility.yul\":2943:2944   */\n      0x00\n        /* \"#utility.yul\":2940:2941   */\n      dup1\n        /* \"#utility.yul\":2933:2945   */\n      revert\n        /* \"#utility.yul\":2884:2886   */\n    tag_72:\n        /* \"#utility.yul\":2874:2953   */\n      pop\n      jump\t// out\n\n    auxdata: 0xa264697066735822122017a4c3707a9bd13e9d4f086ffdb6fd8062867a4a971cdbf66b54d9e9378cb6b664736f6c63430008000033\n}\n",
				"bytecode": {
					"linkReferences": {},
					"object": "608060405234801561001057600080fd5b50604051610552380380610552833981810160405281019061003291906100fd565b336000806101000a81548173ffffffffffffffffffffffffffffffffffffffff021916908373ffffffffffffffffffffffffffffffffffffffff160217905550806001819055505050610235565b600061009361008e84610182565b610151565b9050828152602081018484840111156100ab57600080fd5b6100b68482856101bc565b509392505050565b600082601f8301126100cf57600080fd5b81516100df848260208601610080565b91505092915050565b6000815190506100f78161021e565b92915050565b6000806040838503121561011057600080fd5b600083015167ffffffffffffffff81111561012a57600080fd5b610136858286016100be565b9250506020610147858286016100e8565b9150509250929050565b6000604051905081810181811067ffffffffffffffff82111715610178576101776101ef565b5b8060405250919050565b600067ffffffffffffffff82111561019d5761019c6101ef565b5b601f19601f8301169050602081019050919050565b6000819050919050565b60005b838110156101da5780820151818401526020810190506101bf565b838111156101e9576000848401525b50505050565b7f4e487b7100000000000000000000000000000000000000000000000000000000600052604160045260246000fd5b610227816101b2565b811461023257600080fd5b50565b61030e806102446000396000f3fe608060405234801561001057600080fd5b506004361061004c5760003560e01c806306fdde03146100515780633b4c4b251461006f5780636c9c2faf1461008b5780638da5cb5b146100a9575b600080fd5b6100596100c7565b60405161006691906101e8565b60405180910390f35b6100896004803603810190610084919061014d565b610100565b005b61009361010a565b6040516100a0919061020a565b60405180910390f35b6100b1610114565b6040516100be91906101cd565b60405180910390f35b6040518060400160405280600781526020017f43727970746f730000000000000000000000000000000000000000000000000081525081565b8060018190555050565b6000600154905090565b60008054906101000a900473ffffffffffffffffffffffffffffffffffffffff1681565b600081359050610147816102c1565b92915050565b60006020828403121561015f57600080fd5b600061016d84828501610138565b91505092915050565b61017f81610241565b82525050565b600061019082610225565b61019a8185610230565b93506101aa81856020860161027d565b6101b3816102b0565b840191505092915050565b6101c781610273565b82525050565b60006020820190506101e26000830184610176565b92915050565b600060208201905081810360008301526102028184610185565b905092915050565b600060208201905061021f60008301846101be565b92915050565b600081519050919050565b600082825260208201905092915050565b600061024c82610253565b9050919050565b600073ffffffffffffffffffffffffffffffffffffffff82169050919050565b6000819050919050565b60005b8381101561029b578082015181840152602081019050610280565b838111156102aa576000848401525b50505050565b6000601f19601f8301169050919050565b6102ca81610273565b81146102d557600080fd5b5056fea264697066735822122017a4c3707a9bd13e9d4f086ffdb6fd8062867a4a971cdbf66b54d9e9378cb6b664736f6c63430008000033",
					"opcodes": "PUSH1 0x80 PUSH1 0x40 MSTORE CALLVALUE DUP1 ISZERO PUSH2 0x10 JUMPI PUSH1 0x0 DUP1 REVERT JUMPDEST POP PUSH1 0x40 MLOAD PUSH2 0x552 CODESIZE SUB DUP1 PUSH2 0x552 DUP4 CODECOPY DUP2 DUP2 ADD PUSH1 0x40 MSTORE DUP2 ADD SWAP1 PUSH2 0x32 SWAP2 SWAP1 PUSH2 0xFD JUMP JUMPDEST CALLER PUSH1 0x0 DUP1 PUSH2 0x100 EXP DUP2 SLOAD DUP2 PUSH20 0xFFFFFFFFFFFFFFFFFFFFFFFFFFFFFFFFFFFFFFFF MUL NOT AND SWAP1 DUP4 PUSH20 0xFFFFFFFFFFFFFFFFFFFFFFFFFFFFFFFFFFFFFFFF AND MUL OR SWAP1 SSTORE POP DUP1 PUSH1 0x1 DUP2 SWAP1 SSTORE POP POP POP PUSH2 0x235 JUMP JUMPDEST PUSH1 0x0 PUSH2 0x93 PUSH2 0x8E DUP5 PUSH2 0x182 JUMP JUMPDEST PUSH2 0x151 JUMP JUMPDEST SWAP1 POP DUP3 DUP2 MSTORE PUSH1 0x20 DUP2 ADD DUP5 DUP5 DUP5 ADD GT ISZERO PUSH2 0xAB JUMPI PUSH1 0x0 DUP1 REVERT JUMPDEST PUSH2 0xB6 DUP5 DUP3 DUP6 PUSH2 0x1BC JUMP JUMPDEST POP SWAP4 SWAP3 POP POP POP JUMP JUMPDEST PUSH1 0x0 DUP3 PUSH1 0x1F DUP4 ADD SLT PUSH2 0xCF JUMPI PUSH1 0x0 DUP1 REVERT JUMPDEST DUP2 MLOAD PUSH2 0xDF DUP5 DUP3 PUSH1 0x20 DUP7 ADD PUSH2 0x80 JUMP JUMPDEST SWAP2 POP POP SWAP3 SWAP2 POP POP JUMP JUMPDEST PUSH1 0x0 DUP2 MLOAD SWAP1 POP PUSH2 0xF7 DUP2 PUSH2 0x21E JUMP JUMPDEST SWAP3 SWAP2 POP POP JUMP JUMPDEST PUSH1 0x0 DUP1 PUSH1 0x40 DUP4 DUP6 SUB SLT ISZERO PUSH2 0x110 JUMPI PUSH1 0x0 DUP1 REVERT JUMPDEST PUSH1 0x0 DUP4 ADD MLOAD PUSH8 0xFFFFFFFFFFFFFFFF DUP2 GT ISZERO PUSH2 0x12A JUMPI PUSH1 0x0 DUP1 REVERT JUMPDEST PUSH2 0x136 DUP6 DUP3 DUP7 ADD PUSH2 0xBE JUMP JUMPDEST SWAP3 POP POP PUSH1 0x20 PUSH2 0x147 DUP6 DUP3 DUP7 ADD PUSH2 0xE8 JUMP JUMPDEST SWAP2 POP POP SWAP3 POP SWAP3 SWAP1 POP JUMP JUMPDEST PUSH1 0x0 PUSH1 0x40 MLOAD SWAP1 POP DUP2 DUP2 ADD DUP2 DUP2 LT PUSH8 0xFFFFFFFFFFFFFFFF DUP3 GT OR ISZERO PUSH2 0x178 JUMPI PUSH2 0x177 PUSH2 0x1EF JUMP JUMPDEST JUMPDEST DUP1 PUSH1 0x40 MSTORE POP SWAP2 SWAP1 POP JUMP JUMPDEST PUSH1 0x0 PUSH8 0xFFFFFFFFFFFFFFFF DUP3 GT ISZERO PUSH2 0x19D JUMPI PUSH2 0x19C PUSH2 0x1EF JUMP JUMPDEST JUMPDEST PUSH1 0x1F NOT PUSH1 0x1F DUP4 ADD AND SWAP1 POP PUSH1 0x20 DUP2 ADD SWAP1 POP SWAP2 SWAP1 POP JUMP JUMPDEST PUSH1 0x0 DUP2 SWAP1 POP SWAP2 SWAP1 POP JUMP JUMPDEST PUSH1 0x0 JUMPDEST DUP4 DUP2 LT ISZERO PUSH2 0x1DA JUMPI DUP1 DUP3 ADD MLOAD DUP2 DUP5 ADD MSTORE PUSH1 0x20 DUP2 ADD SWAP1 POP PUSH2 0x1BF JUMP JUMPDEST DUP4 DUP2 GT ISZERO PUSH2 0x1E9 JUMPI PUSH1 0x0 DUP5 DUP5 ADD MSTORE JUMPDEST POP POP POP POP JUMP JUMPDEST PUSH32 0x4E487B7100000000000000000000000000000000000000000000000000000000 PUSH1 0x0 MSTORE PUSH1 0x41 PUSH1 0x4 MSTORE PUSH1 0x24 PUSH1 0x0 REVERT JUMPDEST PUSH2 0x227 DUP2 PUSH2 0x1B2 JUMP JUMPDEST DUP2 EQ PUSH2 0x232 JUMPI PUSH1 0x0 DUP1 REVERT JUMPDEST POP JUMP JUMPDEST PUSH2 0x30E DUP1 PUSH2 0x244 PUSH1 0x0 CODECOPY PUSH1 0x0 RETURN INVALID PUSH1 0x80 PUSH1 0x40 MSTORE CALLVALUE DUP1 ISZERO PUSH2 0x10 JUMPI PUSH1 0x0 DUP1 REVERT JUMPDEST POP PUSH1 0x4 CALLDATASIZE LT PUSH2 0x4C JUMPI PUSH1 0x0 CALLDATALOAD PUSH1 0xE0 SHR DUP1 PUSH4 0x6FDDE03 EQ PUSH2 0x51 JUMPI DUP1 PUSH4 0x3B4C4B25 EQ PUSH2 0x6F JUMPI DUP1 PUSH4 0x6C9C2FAF EQ PUSH2 0x8B JUMPI DUP1 PUSH4 0x8DA5CB5B EQ PUSH2 0xA9 JUMPI JUMPDEST PUSH1 0x0 DUP1 REVERT JUMPDEST PUSH2 0x59 PUSH2 0xC7 JUMP JUMPDEST PUSH1 0x40 MLOAD PUSH2 0x66 SWAP2 SWAP1 PUSH2 0x1E8 JUMP JUMPDEST PUSH1 0x40 MLOAD DUP1 SWAP2 SUB SWAP1 RETURN JUMPDEST PUSH2 0x89 PUSH1 0x4 DUP1 CALLDATASIZE SUB DUP2 ADD SWAP1 PUSH2 0x84 SWAP2 SWAP1 PUSH2 0x14D JUMP JUMPDEST PUSH2 0x100 JUMP JUMPDEST STOP JUMPDEST PUSH2 0x93 PUSH2 0x10A JUMP JUMPDEST PUSH1 0x40 MLOAD PUSH2 0xA0 SWAP2 SWAP1 PUSH2 0x20A JUMP JUMPDEST PUSH1 0x40 MLOAD DUP1 SWAP2 SUB SWAP1 RETURN JUMPDEST PUSH2 0xB1 PUSH2 0x114 JUMP JUMPDEST PUSH1 0x40 MLOAD PUSH2 0xBE SWAP2 SWAP1 PUSH2 0x1CD JUMP JUMPDEST PUSH1 0x40 MLOAD DUP1 SWAP2 SUB SWAP1 RETURN JUMPDEST PUSH1 0x40 MLOAD DUP1 PUSH1 0x40 ADD PUSH1 0x40 MSTORE DUP1 PUSH1 0x7 DUP2 MSTORE PUSH1 0x20 ADD PUSH32 0x43727970746F7300000000000000000000000000000000000000000000000000 DUP2 MSTORE POP DUP2 JUMP JUMPDEST DUP1 PUSH1 0x1 DUP2 SWAP1 SSTORE POP POP JUMP JUMPDEST PUSH1 0x0 PUSH1 0x1 SLOAD SWAP1 POP SWAP1 JUMP JUMPDEST PUSH1 0x0 DUP1 SLOAD SWAP1 PUSH2 0x100 EXP SWAP1 DIV PUSH20 0xFFFFFFFFFFFFFFFFFFFFFFFFFFFFFFFFFFFFFFFF AND DUP2 JUMP JUMPDEST PUSH1 0x0 DUP2 CALLDATALOAD SWAP1 POP PUSH2 0x147 DUP2 PUSH2 0x2C1 JUMP JUMPDEST SWAP3 SWAP2 POP POP JUMP JUMPDEST PUSH1 0x0 PUSH1 0x20 DUP3 DUP5 SUB SLT ISZERO PUSH2 0x15F JUMPI PUSH1 0x0 DUP1 REVERT JUMPDEST PUSH1 0x0 PUSH2 0x16D DUP5 DUP3 DUP6 ADD PUSH2 0x138 JUMP JUMPDEST SWAP2 POP POP SWAP3 SWAP2 POP POP JUMP JUMPDEST PUSH2 0x17F DUP2 PUSH2 0x241 JUMP JUMPDEST DUP3 MSTORE POP POP JUMP JUMPDEST PUSH1 0x0 PUSH2 0x190 DUP3 PUSH2 0x225 JUMP JUMPDEST PUSH2 0x19A DUP2 DUP6 PUSH2 0x230 JUMP JUMPDEST SWAP4 POP PUSH2 0x1AA DUP2 DUP6 PUSH1 0x20 DUP7 ADD PUSH2 0x27D JUMP JUMPDEST PUSH2 0x1B3 DUP2 PUSH2 0x2B0 JUMP JUMPDEST DUP5 ADD SWAP2 POP POP SWAP3 SWAP2 POP POP JUMP JUMPDEST PUSH2 0x1C7 DUP2 PUSH2 0x273 JUMP JUMPDEST DUP3 MSTORE POP POP JUMP JUMPDEST PUSH1 0x0 PUSH1 0x20 DUP3 ADD SWAP1 POP PUSH2 0x1E2 PUSH1 0x0 DUP4 ADD DUP5 PUSH2 0x176 JUMP JUMPDEST SWAP3 SWAP2 POP POP JUMP JUMPDEST PUSH1 0x0 PUSH1 0x20 DUP3 ADD SWAP1 POP DUP2 DUP2 SUB PUSH1 0x0 DUP4 ADD MSTORE PUSH2 0x202 DUP2 DUP5 PUSH2 0x185 JUMP JUMPDEST SWAP1 POP SWAP3 SWAP2 POP POP JUMP JUMPDEST PUSH1 0x0 PUSH1 0x20 DUP3 ADD SWAP1 POP PUSH2 0x21F PUSH1 0x0 DUP4 ADD DUP5 PUSH2 0x1BE JUMP JUMPDEST SWAP3 SWAP2 POP POP JUMP JUMPDEST PUSH1 0x0 DUP2 MLOAD SWAP1 POP SWAP2 SWAP1 POP JUMP JUMPDEST PUSH1 0x0 DUP3 DUP3 MSTORE PUSH1 0x20 DUP3 ADD SWAP1 POP SWAP3 SWAP2 POP POP JUMP JUMPDEST PUSH1 0x0 PUSH2 0x24C DUP3 PUSH2 0x253 JUMP JUMPDEST SWAP1 POP SWAP2 SWAP1 POP JUMP JUMPDEST PUSH1 0x0 PUSH20 0xFFFFFFFFFFFFFFFFFFFFFFFFFFFFFFFFFFFFFFFF DUP3 AND SWAP1 POP SWAP2 SWAP1 POP JUMP JUMPDEST PUSH1 0x0 DUP2 SWAP1 POP SWAP2 SWAP1 POP JUMP JUMPDEST PUSH1 0x0 JUMPDEST DUP4 DUP2 LT ISZERO PUSH2 0x29B JUMPI DUP1 DUP3 ADD MLOAD DUP2 DUP5 ADD MSTORE PUSH1 0x20 DUP2 ADD SWAP1 POP PUSH2 0x280 JUMP JUMPDEST DUP4 DUP2 GT ISZERO PUSH2 0x2AA JUMPI PUSH1 0x0 DUP5 DUP5 ADD MSTORE JUMPDEST POP POP POP POP JUMP JUMPDEST PUSH1 0x0 PUSH1 0x1F NOT PUSH1 0x1F DUP4 ADD AND SWAP1 POP SWAP2 SWAP1 POP JUMP JUMPDEST PUSH2 0x2CA DUP2 PUSH2 0x273 JUMP JUMPDEST DUP2 EQ PUSH2 0x2D5 JUMPI PUSH1 0x0 DUP1 REVERT JUMPDEST POP JUMP INVALID LOG2 PUSH5 0x6970667358 0x22 SLT KECCAK256 OR LOG4 0xC3 PUSH17 0x7A9BD13E9D4F086FFDB6FD8062867A4A97 SHR 0xDB 0xF6 PUSH12 0x54D9E9378CB6B664736F6C63 NUMBER STOP ADDMOD STOP STOP CALLER "
				},
				"gasEstimates": {
					"creation": {
						"codeDepositCost": "156400",
						"executionCost": "infinite",
						"totalCost": "infinite"
					},
					"external": {
						"getSupply()": "1159",
						"name()": "infinite",
						"owner()": "1255",
						"setSupply(uint256)": "20420"
					}
				},
				"methodIdentifiers": {
					"getSupply()": "6c9c2faf",
					"name()": "06fdde03",
					"owner()": "8da5cb5b",
					"setSupply(uint256)": "3b4c4b25"
				}
			},
			"storageLayout": {
				"storage": [
					{
						"astId": 9,
						"contract": "contracts/challenge1.sol:CryptosToken2",
						"label": "owner",
						"offset": 0,
						"slot": "0",
						"type": "t_address"
					},
					{
						"astId": 14,
						"contract": "contracts/challenge1.sol:CryptosToken2",
						"label": "supply",
						"offset": 0,
						"slot": "1",
						"type": "t_uint256"
					}
				],
				"types": {
					"t_address": {
						"encoding": "inplace",
						"label": "address",
						"numberOfBytes": "20"
					},
					"t_uint256": {
						"encoding": "inplace",
						"label": "uint256",
						"numberOfBytes": "32"
					}
				}
			},
			"userdoc": {
				"kind": "user",
				"methods": {},
				"version": 1
			}
		}
	}
}