{
	"contracts/challenge1.sol": {
		"CryptosToken2": {
			"abi": [
				{
					"inputs": [],
					"name": "getSupply",
					"outputs": [
						{
							"internalType": "uint256",
							"name": "",
							"type": "uint256"
						}
					],
					"stateMutability": "view",
					"type": "function"
				},
				{
					"inputs": [],
					"name": "name",
					"outputs": [
						{
							"internalType": "string",
							"name": "",
							"type": "string"
						}
					],
					"stateMutability": "view",
					"type": "function"
				},
				{
					"inputs": [
						{
							"internalType": "uint256",
							"name": "_supply",
							"type": "uint256"
						}
					],
					"name": "setSupply",
					"outputs": [],
					"stateMutability": "nonpayable",
					"type": "function"
				}
			],
			"devdoc": {
				"kind": "dev",
				"methods": {},
				"version": 1
			},
			"evm": {
				"assembly": "    /* \"contracts/challenge1.sol\":248:574  contract CryptosToken2{\r... */\n  mstore(0x40, 0x80)\n  callvalue\n  dup1\n  iszero\n  tag_1\n  jumpi\n  0x00\n  dup1\n  revert\ntag_1:\n  pop\n  dataSize(sub_0)\n  dup1\n  dataOffset(sub_0)\n  0x00\n  codecopy\n  0x00\n  return\nstop\n\nsub_0: assembly {\n        /* \"contracts/challenge1.sol\":248:574  contract CryptosToken2{\r... */\n      mstore(0x40, 0x80)\n      callvalue\n      dup1\n      iszero\n      tag_1\n      jumpi\n      0x00\n      dup1\n      revert\n    tag_1:\n      pop\n      jumpi(tag_2, lt(calldatasize, 0x04))\n      shr(0xe0, calldataload(0x00))\n      dup1\n      0x06fdde03\n      eq\n      tag_3\n      jumpi\n      dup1\n      0x3b4c4b25\n      eq\n      tag_4\n      jumpi\n      dup1\n      0x6c9c2faf\n      eq\n      tag_5\n      jumpi\n    tag_2:\n      0x00\n      dup1\n      revert\n        /* \"contracts/challenge1.sol\":289:328  string public constant name = \"Cryptos\" */\n    tag_3:\n      tag_6\n      tag_7\n      jump\t// in\n    tag_6:\n      mload(0x40)\n      tag_8\n      swap2\n      swap1\n      tag_9\n      jump\t// in\n    tag_8:\n      mload(0x40)\n      dup1\n      swap2\n      sub\n      swap1\n      return\n        /* \"contracts/challenge1.sol\":386:464  function setSupply(uint _supply) public{\r... */\n    tag_4:\n      tag_10\n      0x04\n      dup1\n      calldatasize\n      sub\n      dup2\n      add\n      swap1\n      tag_11\n      swap2\n      swap1\n      tag_12\n      jump\t// in\n    tag_11:\n      tag_13\n      jump\t// in\n    tag_10:\n      stop\n        /* \"contracts/challenge1.sol\":499:569  function getSupply() public view returns(uint){\r... */\n    tag_5:\n      tag_14\n      tag_15\n      jump\t// in\n    tag_14:\n      mload(0x40)\n      tag_16\n      swap2\n      swap1\n      tag_17\n      jump\t// in\n    tag_16:\n      mload(0x40)\n      dup1\n      swap2\n      sub\n      swap1\n      return\n        /* \"contracts/challenge1.sol\":289:328  string public constant name = \"Cryptos\" */\n    tag_7:\n      mload(0x40)\n      dup1\n      0x40\n      add\n      0x40\n      mstore\n      dup1\n      0x07\n      dup2\n      mstore\n      0x20\n      add\n      0x43727970746f7300000000000000000000000000000000000000000000000000\n      dup2\n      mstore\n      pop\n      dup2\n      jump\t// out\n        /* \"contracts/challenge1.sol\":386:464  function setSupply(uint _supply) public{\r... */\n    tag_13:\n        /* \"contracts/challenge1.sol\":447:454  _supply */\n      dup1\n        /* \"contracts/challenge1.sol\":438:444  supply */\n      0x00\n        /* \"contracts/challenge1.sol\":438:454  supply = _supply */\n      dup2\n      swap1\n      sstore\n      pop\n        /* \"contracts/challenge1.sol\":386:464  function setSupply(uint _supply) public{\r... */\n      pop\n      jump\t// out\n        /* \"contracts/challenge1.sol\":499:569  function getSupply() public view returns(uint){\r... */\n    tag_15:\n        /* \"contracts/challenge1.sol\":540:544  uint */\n      0x00\n        /* \"contracts/challenge1.sol\":559:565  supply */\n      dup1\n      sload\n        /* \"contracts/challenge1.sol\":552:565  return supply */\n      swap1\n      pop\n        /* \"contracts/challenge1.sol\":499:569  function getSupply() public view returns(uint){\r... */\n      swap1\n      jump\t// out\n        /* \"#utility.yul\":7:146   */\n    tag_21:\n      0x00\n        /* \"#utility.yul\":91:97   */\n      dup2\n        /* \"#utility.yul\":78:98   */\n      calldataload\n        /* \"#utility.yul\":69:98   */\n      swap1\n      pop\n        /* \"#utility.yul\":107:140   */\n      tag_23\n        /* \"#utility.yul\":134:139   */\n      dup2\n        /* \"#utility.yul\":107:140   */\n      tag_24\n      jump\t// in\n    tag_23:\n        /* \"#utility.yul\":59:146   */\n      swap3\n      swap2\n      pop\n      pop\n      jump\t// out\n        /* \"#utility.yul\":152:414   */\n    tag_12:\n      0x00\n        /* \"#utility.yul\":260:262   */\n      0x20\n        /* \"#utility.yul\":248:257   */\n      dup3\n        /* \"#utility.yul\":239:246   */\n      dup5\n        /* \"#utility.yul\":235:258   */\n      sub\n        /* \"#utility.yul\":231:263   */\n      slt\n        /* \"#utility.yul\":228:230   */\n      iszero\n      tag_26\n      jumpi\n        /* \"#utility.yul\":276:277   */\n      0x00\n        /* \"#utility.yul\":273:274   */\n      dup1\n        /* \"#utility.yul\":266:278   */\n      revert\n        /* \"#utility.yul\":228:230   */\n    tag_26:\n        /* \"#utility.yul\":319:320   */\n      0x00\n        /* \"#utility.yul\":344:397   */\n      tag_27\n        /* \"#utility.yul\":389:396   */\n      dup5\n        /* \"#utility.yul\":380:386   */\n      dup3\n        /* \"#utility.yul\":369:378   */\n      dup6\n        /* \"#utility.yul\":365:387   */\n      add\n        /* \"#utility.yul\":344:397   */\n      tag_21\n      jump\t// in\n    tag_27:\n        /* \"#utility.yul\":334:397   */\n      swap2\n      pop\n        /* \"#utility.yul\":290:407   */\n      pop\n        /* \"#utility.yul\":218:414   */\n      swap3\n      swap2\n      pop\n      pop\n      jump\t// out\n        /* \"#utility.yul\":420:784   */\n    tag_28:\n      0x00\n        /* \"#utility.yul\":536:575   */\n      tag_30\n        /* \"#utility.yul\":569:574   */\n      dup3\n        /* \"#utility.yul\":536:575   */\n      tag_31\n      jump\t// in\n    tag_30:\n        /* \"#utility.yul\":591:662   */\n      tag_32\n        /* \"#utility.yul\":655:661   */\n      dup2\n        /* \"#utility.yul\":650:653   */\n      dup6\n        /* \"#utility.yul\":591:662   */\n      tag_33\n      jump\t// in\n    tag_32:\n        /* \"#utility.yul\":584:662   */\n      swap4\n      pop\n        /* \"#utility.yul\":671:723   */\n      tag_34\n        /* \"#utility.yul\":716:722   */\n      dup2\n        /* \"#utility.yul\":711:714   */\n      dup6\n        /* \"#utility.yul\":704:708   */\n      0x20\n        /* \"#utility.yul\":697:702   */\n      dup7\n        /* \"#utility.yul\":693:709   */\n      add\n        /* \"#utility.yul\":671:723   */\n      tag_35\n      jump\t// in\n    tag_34:\n        /* \"#utility.yul\":748:777   */\n      tag_36\n        /* \"#utility.yul\":770:776   */\n      dup2\n        /* \"#utility.yul\":748:777   */\n      tag_37\n      jump\t// in\n    tag_36:\n        /* \"#utility.yul\":743:746   */\n      dup5\n        /* \"#utility.yul\":739:778   */\n      add\n        /* \"#utility.yul\":732:778   */\n      swap2\n      pop\n        /* \"#utility.yul\":512:784   */\n      pop\n      swap3\n      swap2\n      pop\n      pop\n      jump\t// out\n        /* \"#utility.yul\":790:908   */\n    tag_38:\n        /* \"#utility.yul\":877:901   */\n      tag_40\n        /* \"#utility.yul\":895:900   */\n      dup2\n        /* \"#utility.yul\":877:901   */\n      tag_41\n      jump\t// in\n    tag_40:\n        /* \"#utility.yul\":872:875   */\n      dup3\n        /* \"#utility.yul\":865:902   */\n      mstore\n        /* \"#utility.yul\":855:908   */\n      pop\n      pop\n      jump\t// out\n        /* \"#utility.yul\":914:1227   */\n    tag_9:\n      0x00\n        /* \"#utility.yul\":1065:1067   */\n      0x20\n        /* \"#utility.yul\":1054:1063   */\n      dup3\n        /* \"#utility.yul\":1050:1068   */\n      add\n        /* \"#utility.yul\":1042:1068   */\n      swap1\n      pop\n        /* \"#utility.yul\":1114:1123   */\n      dup2\n        /* \"#utility.yul\":1108:1112   */\n      dup2\n        /* \"#utility.yul\":1104:1124   */\n      sub\n        /* \"#utility.yul\":1100:1101   */\n      0x00\n        /* \"#utility.yul\":1089:1098   */\n      dup4\n        /* \"#utility.yul\":1085:1102   */\n      add\n        /* \"#utility.yul\":1078:1125   */\n      mstore\n        /* \"#utility.yul\":1142:1220   */\n      tag_43\n        /* \"#utility.yul\":1215:1219   */\n      dup2\n        /* \"#utility.yul\":1206:1212   */\n      dup5\n        /* \"#utility.yul\":1142:1220   */\n      tag_28\n      jump\t// in\n    tag_43:\n        /* \"#utility.yul\":1134:1220   */\n      swap1\n      pop\n        /* \"#utility.yul\":1032:1227   */\n      swap3\n      swap2\n      pop\n      pop\n      jump\t// out\n        /* \"#utility.yul\":1233:1455   */\n    tag_17:\n      0x00\n        /* \"#utility.yul\":1364:1366   */\n      0x20\n        /* \"#utility.yul\":1353:1362   */\n      dup3\n        /* \"#utility.yul\":1349:1367   */\n      add\n        /* \"#utility.yul\":1341:1367   */\n      swap1\n      pop\n        /* \"#utility.yul\":1377:1448   */\n      tag_45\n        /* \"#utility.yul\":1445:1446   */\n      0x00\n        /* \"#utility.yul\":1434:1443   */\n      dup4\n        /* \"#utility.yul\":1430:1447   */\n      add\n        /* \"#utility.yul\":1421:1427   */\n      dup5\n        /* \"#utility.yul\":1377:1448   */\n      tag_38\n      jump\t// in\n    tag_45:\n        /* \"#utility.yul\":1331:1455   */\n      swap3\n      swap2\n      pop\n      pop\n      jump\t// out\n        /* \"#utility.yul\":1461:1560   */\n    tag_31:\n      0x00\n        /* \"#utility.yul\":1547:1552   */\n      dup2\n        /* \"#utility.yul\":1541:1553   */\n      mload\n        /* \"#utility.yul\":1531:1553   */\n      swap1\n      pop\n        /* \"#utility.yul\":1520:1560   */\n      swap2\n      swap1\n      pop\n      jump\t// out\n        /* \"#utility.yul\":1566:1735   */\n    tag_33:\n      0x00\n        /* \"#utility.yul\":1684:1690   */\n      dup3\n        /* \"#utility.yul\":1679:1682   */\n      dup3\n        /* \"#utility.yul\":1672:1691   */\n      mstore\n        /* \"#utility.yul\":1724:1728   */\n      0x20\n        /* \"#utility.yul\":1719:1722   */\n      dup3\n        /* \"#utility.yul\":1715:1729   */\n      add\n        /* \"#utility.yul\":1700:1729   */\n      swap1\n      pop\n        /* \"#utility.yul\":1662:1735   */\n      swap3\n      swap2\n      pop\n      pop\n      jump\t// out\n        /* \"#utility.yul\":1741:1818   */\n    tag_41:\n      0x00\n        /* \"#utility.yul\":1807:1812   */\n      dup2\n        /* \"#utility.yul\":1796:1812   */\n      swap1\n      pop\n        /* \"#utility.yul\":1786:1818   */\n      swap2\n      swap1\n      pop\n      jump\t// out\n        /* \"#utility.yul\":1824:2131   */\n    tag_35:\n        /* \"#utility.yul\":1892:1893   */\n      0x00\n        /* \"#utility.yul\":1902:2015   */\n    tag_50:\n        /* \"#utility.yul\":1916:1922   */\n      dup4\n        /* \"#utility.yul\":1913:1914   */\n      dup2\n        /* \"#utility.yul\":1910:1923   */\n      lt\n        /* \"#utility.yul\":1902:2015   */\n      iszero\n      tag_52\n      jumpi\n        /* \"#utility.yul\":2001:2002   */\n      dup1\n        /* \"#utility.yul\":1996:1999   */\n      dup3\n        /* \"#utility.yul\":1992:2003   */\n      add\n        /* \"#utility.yul\":1986:2004   */\n      mload\n        /* \"#utility.yul\":1982:1983   */\n      dup2\n        /* \"#utility.yul\":1977:1980   */\n      dup5\n        /* \"#utility.yul\":1973:1984   */\n      add\n        /* \"#utility.yul\":1966:2005   */\n      mstore\n        /* \"#utility.yul\":1938:1940   */\n      0x20\n        /* \"#utility.yul\":1935:1936   */\n      dup2\n        /* \"#utility.yul\":1931:1941   */\n      add\n        /* \"#utility.yul\":1926:1941   */\n      swap1\n      pop\n        /* \"#utility.yul\":1902:2015   */\n      jump(tag_50)\n    tag_52:\n        /* \"#utility.yul\":2033:2039   */\n      dup4\n        /* \"#utility.yul\":2030:2031   */\n      dup2\n        /* \"#utility.yul\":2027:2040   */\n      gt\n        /* \"#utility.yul\":2024:2026   */\n      iszero\n      tag_53\n      jumpi\n        /* \"#utility.yul\":2113:2114   */\n      0x00\n        /* \"#utility.yul\":2104:2110   */\n      dup5\n        /* \"#utility.yul\":2099:2102   */\n      dup5\n        /* \"#utility.yul\":2095:2111   */\n      add\n        /* \"#utility.yul\":2088:2115   */\n      mstore\n        /* \"#utility.yul\":2024:2026   */\n    tag_53:\n        /* \"#utility.yul\":1873:2131   */\n      pop\n      pop\n      pop\n      pop\n      jump\t// out\n        /* \"#utility.yul\":2137:2239   */\n    tag_37:\n      0x00\n        /* \"#utility.yul\":2229:2231   */\n      0x1f\n        /* \"#utility.yul\":2225:2232   */\n      not\n        /* \"#utility.yul\":2220:2222   */\n      0x1f\n        /* \"#utility.yul\":2213:2218   */\n      dup4\n        /* \"#utility.yul\":2209:2223   */\n      add\n        /* \"#utility.yul\":2205:2233   */\n      and\n        /* \"#utility.yul\":2195:2233   */\n      swap1\n      pop\n        /* \"#utility.yul\":2185:2239   */\n      swap2\n      swap1\n      pop\n      jump\t// out\n        /* \"#utility.yul\":2245:2367   */\n    tag_24:\n        /* \"#utility.yul\":2318:2342   */\n      tag_56\n        /* \"#utility.yul\":2336:2341   */\n      dup2\n        /* \"#utility.yul\":2318:2342   */\n      tag_41\n      jump\t// in\n    tag_56:\n        /* \"#utility.yul\":2311:2316   */\n      dup2\n        /* \"#utility.yul\":2308:2343   */\n      eq\n        /* \"#utility.yul\":2298:2300   */\n      tag_57\n      jumpi\n        /* \"#utility.yul\":2357:2358   */\n      0x00\n        /* \"#utility.yul\":2354:2355   */\n      dup1\n        /* \"#utility.yul\":2347:2359   */\n      revert\n        /* \"#utility.yul\":2298:2300   */\n    tag_57:\n        /* \"#utility.yul\":2288:2367   */\n      pop\n      jump\t// out\n\n    auxdata: 0xa26469706673582212203401f41e58f907a948ceabdca654115e6bb04315f900164860ff63b7557bb1b464736f6c63430008000033\n}\n",
				"bytecode": {
					"linkReferences": {},
					"object": "608060405234801561001057600080fd5b50610264806100206000396000f3fe608060405234801561001057600080fd5b50600436106100415760003560e01c806306fdde03146100465780633b4c4b25146100645780636c9c2faf14610080575b600080fd5b61004e61009e565b60405161005b9190610170565b60405180910390f35b61007e600480360381019061007991906100ff565b6100d7565b005b6100886100e1565b6040516100959190610192565b60405180910390f35b6040518060400160405280600781526020017f43727970746f730000000000000000000000000000000000000000000000000081525081565b8060008190555050565b60008054905090565b6000813590506100f981610217565b92915050565b60006020828403121561011157600080fd5b600061011f848285016100ea565b91505092915050565b6000610133826101ad565b61013d81856101b8565b935061014d8185602086016101d3565b61015681610206565b840191505092915050565b61016a816101c9565b82525050565b6000602082019050818103600083015261018a8184610128565b905092915050565b60006020820190506101a76000830184610161565b92915050565b600081519050919050565b600082825260208201905092915050565b6000819050919050565b60005b838110156101f15780820151818401526020810190506101d6565b83811115610200576000848401525b50505050565b6000601f19601f8301169050919050565b610220816101c9565b811461022b57600080fd5b5056fea26469706673582212203401f41e58f907a948ceabdca654115e6bb04315f900164860ff63b7557bb1b464736f6c63430008000033",
					"opcodes": "PUSH1 0x80 PUSH1 0x40 MSTORE CALLVALUE DUP1 ISZERO PUSH2 0x10 JUMPI PUSH1 0x0 DUP1 REVERT JUMPDEST POP PUSH2 0x264 DUP1 PUSH2 0x20 PUSH1 0x0 CODECOPY PUSH1 0x0 RETURN INVALID PUSH1 0x80 PUSH1 0x40 MSTORE CALLVALUE DUP1 ISZERO PUSH2 0x10 JUMPI PUSH1 0x0 DUP1 REVERT JUMPDEST POP PUSH1 0x4 CALLDATASIZE LT PUSH2 0x41 JUMPI PUSH1 0x0 CALLDATALOAD PUSH1 0xE0 SHR DUP1 PUSH4 0x6FDDE03 EQ PUSH2 0x46 JUMPI DUP1 PUSH4 0x3B4C4B25 EQ PUSH2 0x64 JUMPI DUP1 PUSH4 0x6C9C2FAF EQ PUSH2 0x80 JUMPI JUMPDEST PUSH1 0x0 DUP1 REVERT JUMPDEST PUSH2 0x4E PUSH2 0x9E JUMP JUMPDEST PUSH1 0x40 MLOAD PUSH2 0x5B SWAP2 SWAP1 PUSH2 0x170 JUMP JUMPDEST PUSH1 0x40 MLOAD DUP1 SWAP2 SUB SWAP1 RETURN JUMPDEST PUSH2 0x7E PUSH1 0x4 DUP1 CALLDATASIZE SUB DUP2 ADD SWAP1 PUSH2 0x79 SWAP2 SWAP1 PUSH2 0xFF JUMP JUMPDEST PUSH2 0xD7 JUMP JUMPDEST STOP JUMPDEST PUSH2 0x88 PUSH2 0xE1 JUMP JUMPDEST PUSH1 0x40 MLOAD PUSH2 0x95 SWAP2 SWAP1 PUSH2 0x192 JUMP JUMPDEST PUSH1 0x40 MLOAD DUP1 SWAP2 SUB SWAP1 RETURN JUMPDEST PUSH1 0x40 MLOAD DUP1 PUSH1 0x40 ADD PUSH1 0x40 MSTORE DUP1 PUSH1 0x7 DUP2 MSTORE PUSH1 0x20 ADD PUSH32 0x43727970746F7300000000000000000000000000000000000000000000000000 DUP2 MSTORE POP DUP2 JUMP JUMPDEST DUP1 PUSH1 0x0 DUP2 SWAP1 SSTORE POP POP JUMP JUMPDEST PUSH1 0x0 DUP1 SLOAD SWAP1 POP SWAP1 JUMP JUMPDEST PUSH1 0x0 DUP2 CALLDATALOAD SWAP1 POP PUSH2 0xF9 DUP2 PUSH2 0x217 JUMP JUMPDEST SWAP3 SWAP2 POP POP JUMP JUMPDEST PUSH1 0x0 PUSH1 0x20 DUP3 DUP5 SUB SLT ISZERO PUSH2 0x111 JUMPI PUSH1 0x0 DUP1 REVERT JUMPDEST PUSH1 0x0 PUSH2 0x11F DUP5 DUP3 DUP6 ADD PUSH2 0xEA JUMP JUMPDEST SWAP2 POP POP SWAP3 SWAP2 POP POP JUMP JUMPDEST PUSH1 0x0 PUSH2 0x133 DUP3 PUSH2 0x1AD JUMP JUMPDEST PUSH2 0x13D DUP2 DUP6 PUSH2 0x1B8 JUMP JUMPDEST SWAP4 POP PUSH2 0x14D DUP2 DUP6 PUSH1 0x20 DUP7 ADD PUSH2 0x1D3 JUMP JUMPDEST PUSH2 0x156 DUP2 PUSH2 0x206 JUMP JUMPDEST DUP5 ADD SWAP2 POP POP SWAP3 SWAP2 POP POP JUMP JUMPDEST PUSH2 0x16A DUP2 PUSH2 0x1C9 JUMP JUMPDEST DUP3 MSTORE POP POP JUMP JUMPDEST PUSH1 0x0 PUSH1 0x20 DUP3 ADD SWAP1 POP DUP2 DUP2 SUB PUSH1 0x0 DUP4 ADD MSTORE PUSH2 0x18A DUP2 DUP5 PUSH2 0x128 JUMP JUMPDEST SWAP1 POP SWAP3 SWAP2 POP POP JUMP JUMPDEST PUSH1 0x0 PUSH1 0x20 DUP3 ADD SWAP1 POP PUSH2 0x1A7 PUSH1 0x0 DUP4 ADD DUP5 PUSH2 0x161 JUMP JUMPDEST SWAP3 SWAP2 POP POP JUMP JUMPDEST PUSH1 0x0 DUP2 MLOAD SWAP1 POP SWAP2 SWAP1 POP JUMP JUMPDEST PUSH1 0x0 DUP3 DUP3 MSTORE PUSH1 0x20 DUP3 ADD SWAP1 POP SWAP3 SWAP2 POP POP JUMP JUMPDEST PUSH1 0x0 DUP2 SWAP1 POP SWAP2 SWAP1 POP JUMP JUMPDEST PUSH1 0x0 JUMPDEST DUP4 DUP2 LT ISZERO PUSH2 0x1F1 JUMPI DUP1 DUP3 ADD MLOAD DUP2 DUP5 ADD MSTORE PUSH1 0x20 DUP2 ADD SWAP1 POP PUSH2 0x1D6 JUMP JUMPDEST DUP4 DUP2 GT ISZERO PUSH2 0x200 JUMPI PUSH1 0x0 DUP5 DUP5 ADD MSTORE JUMPDEST POP POP POP POP JUMP JUMPDEST PUSH1 0x0 PUSH1 0x1F NOT PUSH1 0x1F DUP4 ADD AND SWAP1 POP SWAP2 SWAP1 POP JUMP JUMPDEST PUSH2 0x220 DUP2 PUSH2 0x1C9 JUMP JUMPDEST DUP2 EQ PUSH2 0x22B JUMPI PUSH1 0x0 DUP1 REVERT JUMPDEST POP JUMP INVALID LOG2 PUSH5 0x6970667358 0x22 SLT KECCAK256 CALLVALUE ADD DELEGATECALL 0x1E PC 0xF9 SMOD 0xA9 0x48 0xCE 0xAB 0xDC 0xA6 SLOAD GT 0x5E PUSH12 0xB04315F900164860FF63B755 PUSH28 0xB1B464736F6C63430008000033000000000000000000000000000000 "
				},
				"gasEstimates": {
					"creation": {
						"codeDepositCost": "122400",
						"executionCost": "171",
						"totalCost": "122571"
					},
					"external": {
						"getSupply()": "1159",
						"name()": "infinite",
						"setSupply(uint256)": "20420"
					}
				},
				"methodIdentifiers": {
					"getSupply()": "6c9c2faf",
					"name()": "06fdde03",
					"setSupply(uint256)": "3b4c4b25"
				}
			},
			"storageLayout": {
				"storage": [
					{
						"astId": 12,
						"contract": "contracts/challenge1.sol:CryptosToken2",
						"label": "supply",
						"offset": 0,
						"slot": "0",
						"type": "t_uint256"
					}
				],
				"types": {
					"t_uint256": {
						"encoding": "inplace",
						"label": "uint256",
						"numberOfBytes": "32"
					}
				}
			},
			"userdoc": {
				"kind": "user",
				"methods": {},
				"version": 1
			}
		}
	}
}