{
	"contracts/structs_guide.sol": {
		"Academy": {
			"abi": [
				{
					"inputs": [
						{
							"internalType": "uint256",
							"name": "_age",
							"type": "uint256"
						},
						{
							"internalType": "string",
							"name": "_name",
							"type": "string"
						}
					],
					"stateMutability": "nonpayable",
					"type": "constructor"
				},
				{
					"inputs": [],
					"name": "academyInstructor",
					"outputs": [
						{
							"internalType": "uint256",
							"name": "age",
							"type": "uint256"
						},
						{
							"internalType": "string",
							"name": "name",
							"type": "string"
						},
						{
							"internalType": "address",
							"name": "addr",
							"type": "address"
						}
					],
					"stateMutability": "view",
					"type": "function"
				},
				{
					"inputs": [],
					"name": "academyState",
					"outputs": [
						{
							"internalType": "enum Academy.State",
							"name": "",
							"type": "uint8"
						}
					],
					"stateMutability": "view",
					"type": "function"
				},
				{
					"inputs": [
						{
							"internalType": "uint256",
							"name": "_age",
							"type": "uint256"
						},
						{
							"internalType": "string",
							"name": "_name",
							"type": "string"
						},
						{
							"internalType": "address",
							"name": "_addr",
							"type": "address"
						}
					],
					"name": "changeInstructor",
					"outputs": [],
					"stateMutability": "nonpayable",
					"type": "function"
				}
			],
			"devdoc": {
				"kind": "dev",
				"methods": {},
				"version": 1
			},
			"evm": {
				"assembly": "    /* \"contracts/structs_guide.sol\":200:1154  contract Academy{\r... */\n  mstore(0x40, 0x80)\n    /* \"contracts/structs_guide.sol\":365:375  State.Open */\n  0x00\n    /* \"contracts/structs_guide.sol\":337:375  State public academyState = State.Open */\n  0x03\n  exp(0x0100, 0x00)\n  dup2\n  sload\n  dup2\n  0xff\n  mul\n  not\n  and\n  swap1\n  dup4\n  0x02\n  dup2\n  gt\n  iszero\n  tag_1\n  jumpi\n  tag_2\n  tag_3\n  jump\t// in\ntag_2:\ntag_1:\n  mul\n  or\n  swap1\n  sstore\n  pop\n    /* \"contracts/structs_guide.sol\":445:622  constructor(uint _age, string memory _name){\r... */\n  callvalue\n  dup1\n  iszero\n  tag_4\n  jumpi\n  0x00\n  dup1\n  revert\ntag_4:\n  pop\n  mload(0x40)\n  sub(codesize, bytecodeSize)\n  dup1\n  bytecodeSize\n  dup4\n  codecopy\n  dup2\n  dup2\n  add\n  0x40\n  mstore\n  dup2\n  add\n  swap1\n  tag_5\n  swap2\n  swap1\n  tag_6\n  jump\t// in\ntag_5:\n    /* \"contracts/structs_guide.sol\":523:527  _age */\n  dup2\n    /* \"contracts/structs_guide.sol\":499:516  academyInstructor */\n  0x00\n    /* \"contracts/structs_guide.sol\":499:520  academyInstructor.age */\n  dup1\n  add\n    /* \"contracts/structs_guide.sol\":499:527  academyInstructor.age = _age */\n  dup2\n  swap1\n  sstore\n  pop\n    /* \"contracts/structs_guide.sol\":563:568  _name */\n  dup1\n    /* \"contracts/structs_guide.sol\":538:555  academyInstructor */\n  0x00\n    /* \"contracts/structs_guide.sol\":538:560  academyInstructor.name */\n  0x01\n  add\n    /* \"contracts/structs_guide.sol\":538:568  academyInstructor.name = _name */\n  swap1\n  dup1\n  mload\n  swap1\n  0x20\n  add\n  swap1\n  tag_9\n  swap3\n  swap2\n  swap1\n  tag_10\n  jump\t// in\ntag_9:\n  pop\n    /* \"contracts/structs_guide.sol\":604:614  msg.sender */\n  caller\n    /* \"contracts/structs_guide.sol\":579:596  academyInstructor */\n  0x00\n    /* \"contracts/structs_guide.sol\":579:601  academyInstructor.addr */\n  0x02\n  add\n  0x00\n    /* \"contracts/structs_guide.sol\":579:614  academyInstructor.addr = msg.sender */\n  0x0100\n  exp\n  dup2\n  sload\n  dup2\n  0xffffffffffffffffffffffffffffffffffffffff\n  mul\n  not\n  and\n  swap1\n  dup4\n  0xffffffffffffffffffffffffffffffffffffffff\n  and\n  mul\n  or\n  swap1\n  sstore\n  pop\n    /* \"contracts/structs_guide.sol\":445:622  constructor(uint _age, string memory _name){\r... */\n  pop\n  pop\n    /* \"contracts/structs_guide.sol\":200:1154  contract Academy{\r... */\n  jump(tag_11)\ntag_10:\n  dup3\n  dup1\n  sload\n  tag_12\n  swap1\n  tag_13\n  jump\t// in\ntag_12:\n  swap1\n  0x00\n  mstore\n  keccak256(0x00, 0x20)\n  swap1\n  0x1f\n  add\n  0x20\n  swap1\n  div\n  dup2\n  add\n  swap3\n  dup3\n  tag_15\n  jumpi\n  0x00\n  dup6\n  sstore\n  jump(tag_14)\ntag_15:\n  dup3\n  0x1f\n  lt\n  tag_16\n  jumpi\n  dup1\n  mload\n  not(0xff)\n  and\n  dup4\n  dup1\n  add\n  or\n  dup6\n  sstore\n  jump(tag_14)\ntag_16:\n  dup3\n  dup1\n  add\n  0x01\n  add\n  dup6\n  sstore\n  dup3\n  iszero\n  tag_14\n  jumpi\n  swap2\n  dup3\n  add\ntag_17:\n  dup3\n  dup2\n  gt\n  iszero\n  tag_18\n  jumpi\n  dup3\n  mload\n  dup3\n  sstore\n  swap2\n  0x20\n  add\n  swap2\n  swap1\n  0x01\n  add\n  swap1\n  jump(tag_17)\ntag_18:\ntag_14:\n  pop\n  swap1\n  pop\n  tag_19\n  swap2\n  swap1\n  tag_20\n  jump\t// in\ntag_19:\n  pop\n  swap1\n  jump\t// out\ntag_20:\ntag_21:\n  dup1\n  dup3\n  gt\n  iszero\n  tag_22\n  jumpi\n  0x00\n  dup2\n  0x00\n  swap1\n  sstore\n  pop\n  0x01\n  add\n  jump(tag_21)\ntag_22:\n  pop\n  swap1\n  jump\t// out\n    /* \"#utility.yul\":7:428   */\ntag_24:\n    /* \"#utility.yul\":96:101   */\n  0x00\n    /* \"#utility.yul\":121:187   */\n  tag_26\n    /* \"#utility.yul\":137:186   */\n  tag_27\n    /* \"#utility.yul\":179:185   */\n  dup5\n    /* \"#utility.yul\":137:186   */\n  tag_28\n  jump\t// in\ntag_27:\n    /* \"#utility.yul\":121:187   */\n  tag_29\n  jump\t// in\ntag_26:\n    /* \"#utility.yul\":112:187   */\n  swap1\n  pop\n    /* \"#utility.yul\":210:216   */\n  dup3\n    /* \"#utility.yul\":203:208   */\n  dup2\n    /* \"#utility.yul\":196:217   */\n  mstore\n    /* \"#utility.yul\":248:252   */\n  0x20\n    /* \"#utility.yul\":241:246   */\n  dup2\n    /* \"#utility.yul\":237:253   */\n  add\n    /* \"#utility.yul\":286:289   */\n  dup5\n    /* \"#utility.yul\":277:283   */\n  dup5\n    /* \"#utility.yul\":272:275   */\n  dup5\n    /* \"#utility.yul\":268:284   */\n  add\n    /* \"#utility.yul\":265:290   */\n  gt\n    /* \"#utility.yul\":262:374   */\n  iszero\n  tag_30\n  jumpi\n    /* \"#utility.yul\":293:372   */\n  tag_31\n  tag_32\n  jump\t// in\ntag_31:\n    /* \"#utility.yul\":262:374   */\ntag_30:\n    /* \"#utility.yul\":383:422   */\n  tag_33\n    /* \"#utility.yul\":415:421   */\n  dup5\n    /* \"#utility.yul\":410:413   */\n  dup3\n    /* \"#utility.yul\":405:408   */\n  dup6\n    /* \"#utility.yul\":383:422   */\n  tag_34\n  jump\t// in\ntag_33:\n    /* \"#utility.yul\":102:428   */\n  pop\n    /* \"#utility.yul\":7:428   */\n  swap4\n  swap3\n  pop\n  pop\n  pop\n  jump\t// out\n    /* \"#utility.yul\":448:803   */\ntag_35:\n    /* \"#utility.yul\":515:520   */\n  0x00\n    /* \"#utility.yul\":564:567   */\n  dup3\n    /* \"#utility.yul\":557:561   */\n  0x1f\n    /* \"#utility.yul\":549:555   */\n  dup4\n    /* \"#utility.yul\":545:562   */\n  add\n    /* \"#utility.yul\":541:568   */\n  slt\n    /* \"#utility.yul\":531:653   */\n  tag_37\n  jumpi\n    /* \"#utility.yul\":572:651   */\n  tag_38\n  tag_39\n  jump\t// in\ntag_38:\n    /* \"#utility.yul\":531:653   */\ntag_37:\n    /* \"#utility.yul\":682:688   */\n  dup2\n    /* \"#utility.yul\":676:689   */\n  mload\n    /* \"#utility.yul\":707:797   */\n  tag_40\n    /* \"#utility.yul\":793:796   */\n  dup5\n    /* \"#utility.yul\":785:791   */\n  dup3\n    /* \"#utility.yul\":778:782   */\n  0x20\n    /* \"#utility.yul\":770:776   */\n  dup7\n    /* \"#utility.yul\":766:783   */\n  add\n    /* \"#utility.yul\":707:797   */\n  tag_24\n  jump\t// in\ntag_40:\n    /* \"#utility.yul\":698:797   */\n  swap2\n  pop\n    /* \"#utility.yul\":521:803   */\n  pop\n    /* \"#utility.yul\":448:803   */\n  swap3\n  swap2\n  pop\n  pop\n  jump\t// out\n    /* \"#utility.yul\":809:952   */\ntag_41:\n    /* \"#utility.yul\":866:871   */\n  0x00\n    /* \"#utility.yul\":897:903   */\n  dup2\n    /* \"#utility.yul\":891:904   */\n  mload\n    /* \"#utility.yul\":882:904   */\n  swap1\n  pop\n    /* \"#utility.yul\":913:946   */\n  tag_43\n    /* \"#utility.yul\":940:945   */\n  dup2\n    /* \"#utility.yul\":913:946   */\n  tag_44\n  jump\t// in\ntag_43:\n    /* \"#utility.yul\":809:952   */\n  swap3\n  swap2\n  pop\n  pop\n  jump\t// out\n    /* \"#utility.yul\":958:1638   */\ntag_6:\n    /* \"#utility.yul\":1047:1053   */\n  0x00\n    /* \"#utility.yul\":1055:1061   */\n  dup1\n    /* \"#utility.yul\":1104:1106   */\n  0x40\n    /* \"#utility.yul\":1092:1101   */\n  dup4\n    /* \"#utility.yul\":1083:1090   */\n  dup6\n    /* \"#utility.yul\":1079:1102   */\n  sub\n    /* \"#utility.yul\":1075:1107   */\n  slt\n    /* \"#utility.yul\":1072:1191   */\n  iszero\n  tag_46\n  jumpi\n    /* \"#utility.yul\":1110:1189   */\n  tag_47\n  tag_48\n  jump\t// in\ntag_47:\n    /* \"#utility.yul\":1072:1191   */\ntag_46:\n    /* \"#utility.yul\":1230:1231   */\n  0x00\n    /* \"#utility.yul\":1255:1319   */\n  tag_49\n    /* \"#utility.yul\":1311:1318   */\n  dup6\n    /* \"#utility.yul\":1302:1308   */\n  dup3\n    /* \"#utility.yul\":1291:1300   */\n  dup7\n    /* \"#utility.yul\":1287:1309   */\n  add\n    /* \"#utility.yul\":1255:1319   */\n  tag_41\n  jump\t// in\ntag_49:\n    /* \"#utility.yul\":1245:1319   */\n  swap3\n  pop\n    /* \"#utility.yul\":1201:1329   */\n  pop\n    /* \"#utility.yul\":1389:1391   */\n  0x20\n    /* \"#utility.yul\":1378:1387   */\n  dup4\n    /* \"#utility.yul\":1374:1392   */\n  add\n    /* \"#utility.yul\":1368:1393   */\n  mload\n    /* \"#utility.yul\":1420:1438   */\n  0xffffffffffffffff\n    /* \"#utility.yul\":1412:1418   */\n  dup2\n    /* \"#utility.yul\":1409:1439   */\n  gt\n    /* \"#utility.yul\":1406:1523   */\n  iszero\n  tag_50\n  jumpi\n    /* \"#utility.yul\":1442:1521   */\n  tag_51\n  tag_52\n  jump\t// in\ntag_51:\n    /* \"#utility.yul\":1406:1523   */\ntag_50:\n    /* \"#utility.yul\":1547:1621   */\n  tag_53\n    /* \"#utility.yul\":1613:1620   */\n  dup6\n    /* \"#utility.yul\":1604:1610   */\n  dup3\n    /* \"#utility.yul\":1593:1602   */\n  dup7\n    /* \"#utility.yul\":1589:1611   */\n  add\n    /* \"#utility.yul\":1547:1621   */\n  tag_35\n  jump\t// in\ntag_53:\n    /* \"#utility.yul\":1537:1621   */\n  swap2\n  pop\n    /* \"#utility.yul\":1339:1631   */\n  pop\n    /* \"#utility.yul\":958:1638   */\n  swap3\n  pop\n  swap3\n  swap1\n  pop\n  jump\t// out\n    /* \"#utility.yul\":1644:1773   */\ntag_29:\n    /* \"#utility.yul\":1678:1684   */\n  0x00\n    /* \"#utility.yul\":1705:1725   */\n  tag_55\n  tag_56\n  jump\t// in\ntag_55:\n    /* \"#utility.yul\":1695:1725   */\n  swap1\n  pop\n    /* \"#utility.yul\":1734:1767   */\n  tag_57\n    /* \"#utility.yul\":1762:1766   */\n  dup3\n    /* \"#utility.yul\":1754:1760   */\n  dup3\n    /* \"#utility.yul\":1734:1767   */\n  tag_58\n  jump\t// in\ntag_57:\n    /* \"#utility.yul\":1644:1773   */\n  swap2\n  swap1\n  pop\n  jump\t// out\n    /* \"#utility.yul\":1779:1854   */\ntag_56:\n    /* \"#utility.yul\":1812:1818   */\n  0x00\n    /* \"#utility.yul\":1845:1847   */\n  0x40\n    /* \"#utility.yul\":1839:1848   */\n  mload\n    /* \"#utility.yul\":1829:1848   */\n  swap1\n  pop\n    /* \"#utility.yul\":1779:1854   */\n  swap1\n  jump\t// out\n    /* \"#utility.yul\":1860:2168   */\ntag_28:\n    /* \"#utility.yul\":1922:1926   */\n  0x00\n    /* \"#utility.yul\":2012:2030   */\n  0xffffffffffffffff\n    /* \"#utility.yul\":2004:2010   */\n  dup3\n    /* \"#utility.yul\":2001:2031   */\n  gt\n    /* \"#utility.yul\":1998:2054   */\n  iszero\n  tag_61\n  jumpi\n    /* \"#utility.yul\":2034:2052   */\n  tag_62\n  tag_63\n  jump\t// in\ntag_62:\n    /* \"#utility.yul\":1998:2054   */\ntag_61:\n    /* \"#utility.yul\":2072:2101   */\n  tag_64\n    /* \"#utility.yul\":2094:2100   */\n  dup3\n    /* \"#utility.yul\":2072:2101   */\n  tag_65\n  jump\t// in\ntag_64:\n    /* \"#utility.yul\":2064:2101   */\n  swap1\n  pop\n    /* \"#utility.yul\":2156:2160   */\n  0x20\n    /* \"#utility.yul\":2150:2154   */\n  dup2\n    /* \"#utility.yul\":2146:2161   */\n  add\n    /* \"#utility.yul\":2138:2161   */\n  swap1\n  pop\n    /* \"#utility.yul\":1860:2168   */\n  swap2\n  swap1\n  pop\n  jump\t// out\n    /* \"#utility.yul\":2174:2251   */\ntag_66:\n    /* \"#utility.yul\":2211:2218   */\n  0x00\n    /* \"#utility.yul\":2240:2245   */\n  dup2\n    /* \"#utility.yul\":2229:2245   */\n  swap1\n  pop\n    /* \"#utility.yul\":2174:2251   */\n  swap2\n  swap1\n  pop\n  jump\t// out\n    /* \"#utility.yul\":2257:2564   */\ntag_34:\n    /* \"#utility.yul\":2325:2326   */\n  0x00\n    /* \"#utility.yul\":2335:2448   */\ntag_69:\n    /* \"#utility.yul\":2349:2355   */\n  dup4\n    /* \"#utility.yul\":2346:2347   */\n  dup2\n    /* \"#utility.yul\":2343:2356   */\n  lt\n    /* \"#utility.yul\":2335:2448   */\n  iszero\n  tag_71\n  jumpi\n    /* \"#utility.yul\":2434:2435   */\n  dup1\n    /* \"#utility.yul\":2429:2432   */\n  dup3\n    /* \"#utility.yul\":2425:2436   */\n  add\n    /* \"#utility.yul\":2419:2437   */\n  mload\n    /* \"#utility.yul\":2415:2416   */\n  dup2\n    /* \"#utility.yul\":2410:2413   */\n  dup5\n    /* \"#utility.yul\":2406:2417   */\n  add\n    /* \"#utility.yul\":2399:2438   */\n  mstore\n    /* \"#utility.yul\":2371:2373   */\n  0x20\n    /* \"#utility.yul\":2368:2369   */\n  dup2\n    /* \"#utility.yul\":2364:2374   */\n  add\n    /* \"#utility.yul\":2359:2374   */\n  swap1\n  pop\n    /* \"#utility.yul\":2335:2448   */\n  jump(tag_69)\ntag_71:\n    /* \"#utility.yul\":2466:2472   */\n  dup4\n    /* \"#utility.yul\":2463:2464   */\n  dup2\n    /* \"#utility.yul\":2460:2473   */\n  gt\n    /* \"#utility.yul\":2457:2558   */\n  iszero\n  tag_72\n  jumpi\n    /* \"#utility.yul\":2546:2547   */\n  0x00\n    /* \"#utility.yul\":2537:2543   */\n  dup5\n    /* \"#utility.yul\":2532:2535   */\n  dup5\n    /* \"#utility.yul\":2528:2544   */\n  add\n    /* \"#utility.yul\":2521:2548   */\n  mstore\n    /* \"#utility.yul\":2457:2558   */\ntag_72:\n    /* \"#utility.yul\":2306:2564   */\n  pop\n    /* \"#utility.yul\":2257:2564   */\n  pop\n  pop\n  pop\n  jump\t// out\n    /* \"#utility.yul\":2570:2890   */\ntag_13:\n    /* \"#utility.yul\":2614:2620   */\n  0x00\n    /* \"#utility.yul\":2651:2652   */\n  0x02\n    /* \"#utility.yul\":2645:2649   */\n  dup3\n    /* \"#utility.yul\":2641:2653   */\n  div\n    /* \"#utility.yul\":2631:2653   */\n  swap1\n  pop\n    /* \"#utility.yul\":2698:2699   */\n  0x01\n    /* \"#utility.yul\":2692:2696   */\n  dup3\n    /* \"#utility.yul\":2688:2700   */\n  and\n    /* \"#utility.yul\":2719:2737   */\n  dup1\n    /* \"#utility.yul\":2709:2790   */\n  tag_74\n  jumpi\n    /* \"#utility.yul\":2775:2779   */\n  0x7f\n    /* \"#utility.yul\":2767:2773   */\n  dup3\n    /* \"#utility.yul\":2763:2780   */\n  and\n    /* \"#utility.yul\":2753:2780   */\n  swap2\n  pop\n    /* \"#utility.yul\":2709:2790   */\ntag_74:\n    /* \"#utility.yul\":2837:2839   */\n  0x20\n    /* \"#utility.yul\":2829:2835   */\n  dup3\n    /* \"#utility.yul\":2826:2840   */\n  lt\n    /* \"#utility.yul\":2806:2824   */\n  dup2\n    /* \"#utility.yul\":2803:2841   */\n  eq\n    /* \"#utility.yul\":2800:2884   */\n  iszero\n  tag_75\n  jumpi\n    /* \"#utility.yul\":2856:2874   */\n  tag_76\n  tag_77\n  jump\t// in\ntag_76:\n    /* \"#utility.yul\":2800:2884   */\ntag_75:\n    /* \"#utility.yul\":2621:2890   */\n  pop\n    /* \"#utility.yul\":2570:2890   */\n  swap2\n  swap1\n  pop\n  jump\t// out\n    /* \"#utility.yul\":2896:3177   */\ntag_58:\n    /* \"#utility.yul\":2979:3006   */\n  tag_79\n    /* \"#utility.yul\":3001:3005   */\n  dup3\n    /* \"#utility.yul\":2979:3006   */\n  tag_65\n  jump\t// in\ntag_79:\n    /* \"#utility.yul\":2971:2977   */\n  dup2\n    /* \"#utility.yul\":2967:3007   */\n  add\n    /* \"#utility.yul\":3109:3115   */\n  dup2\n    /* \"#utility.yul\":3097:3107   */\n  dup2\n    /* \"#utility.yul\":3094:3116   */\n  lt\n    /* \"#utility.yul\":3073:3091   */\n  0xffffffffffffffff\n    /* \"#utility.yul\":3061:3071   */\n  dup3\n    /* \"#utility.yul\":3058:3092   */\n  gt\n    /* \"#utility.yul\":3055:3117   */\n  or\n    /* \"#utility.yul\":3052:3140   */\n  iszero\n  tag_80\n  jumpi\n    /* \"#utility.yul\":3120:3138   */\n  tag_81\n  tag_63\n  jump\t// in\ntag_81:\n    /* \"#utility.yul\":3052:3140   */\ntag_80:\n    /* \"#utility.yul\":3160:3170   */\n  dup1\n    /* \"#utility.yul\":3156:3158   */\n  0x40\n    /* \"#utility.yul\":3149:3171   */\n  mstore\n    /* \"#utility.yul\":2939:3177   */\n  pop\n    /* \"#utility.yul\":2896:3177   */\n  pop\n  pop\n  jump\t// out\n    /* \"#utility.yul\":3183:3363   */\ntag_3:\n    /* \"#utility.yul\":3231:3308   */\n  0x4e487b7100000000000000000000000000000000000000000000000000000000\n    /* \"#utility.yul\":3228:3229   */\n  0x00\n    /* \"#utility.yul\":3221:3309   */\n  mstore\n    /* \"#utility.yul\":3328:3332   */\n  0x21\n    /* \"#utility.yul\":3325:3326   */\n  0x04\n    /* \"#utility.yul\":3318:3333   */\n  mstore\n    /* \"#utility.yul\":3352:3356   */\n  0x24\n    /* \"#utility.yul\":3349:3350   */\n  0x00\n    /* \"#utility.yul\":3342:3357   */\n  revert\n    /* \"#utility.yul\":3369:3549   */\ntag_77:\n    /* \"#utility.yul\":3417:3494   */\n  0x4e487b7100000000000000000000000000000000000000000000000000000000\n    /* \"#utility.yul\":3414:3415   */\n  0x00\n    /* \"#utility.yul\":3407:3495   */\n  mstore\n    /* \"#utility.yul\":3514:3518   */\n  0x22\n    /* \"#utility.yul\":3511:3512   */\n  0x04\n    /* \"#utility.yul\":3504:3519   */\n  mstore\n    /* \"#utility.yul\":3538:3542   */\n  0x24\n    /* \"#utility.yul\":3535:3536   */\n  0x00\n    /* \"#utility.yul\":3528:3543   */\n  revert\n    /* \"#utility.yul\":3555:3735   */\ntag_63:\n    /* \"#utility.yul\":3603:3680   */\n  0x4e487b7100000000000000000000000000000000000000000000000000000000\n    /* \"#utility.yul\":3600:3601   */\n  0x00\n    /* \"#utility.yul\":3593:3681   */\n  mstore\n    /* \"#utility.yul\":3700:3704   */\n  0x41\n    /* \"#utility.yul\":3697:3698   */\n  0x04\n    /* \"#utility.yul\":3690:3705   */\n  mstore\n    /* \"#utility.yul\":3724:3728   */\n  0x24\n    /* \"#utility.yul\":3721:3722   */\n  0x00\n    /* \"#utility.yul\":3714:3729   */\n  revert\n    /* \"#utility.yul\":3741:3858   */\ntag_39:\n    /* \"#utility.yul\":3850:3851   */\n  0x00\n    /* \"#utility.yul\":3847:3848   */\n  dup1\n    /* \"#utility.yul\":3840:3852   */\n  revert\n    /* \"#utility.yul\":3864:3981   */\ntag_32:\n    /* \"#utility.yul\":3973:3974   */\n  0x00\n    /* \"#utility.yul\":3970:3971   */\n  dup1\n    /* \"#utility.yul\":3963:3975   */\n  revert\n    /* \"#utility.yul\":3987:4104   */\ntag_52:\n    /* \"#utility.yul\":4096:4097   */\n  0x00\n    /* \"#utility.yul\":4093:4094   */\n  dup1\n    /* \"#utility.yul\":4086:4098   */\n  revert\n    /* \"#utility.yul\":4110:4227   */\ntag_48:\n    /* \"#utility.yul\":4219:4220   */\n  0x00\n    /* \"#utility.yul\":4216:4217   */\n  dup1\n    /* \"#utility.yul\":4209:4221   */\n  revert\n    /* \"#utility.yul\":4233:4335   */\ntag_65:\n    /* \"#utility.yul\":4274:4280   */\n  0x00\n    /* \"#utility.yul\":4325:4327   */\n  0x1f\n    /* \"#utility.yul\":4321:4328   */\n  not\n    /* \"#utility.yul\":4316:4318   */\n  0x1f\n    /* \"#utility.yul\":4309:4314   */\n  dup4\n    /* \"#utility.yul\":4305:4319   */\n  add\n    /* \"#utility.yul\":4301:4329   */\n  and\n    /* \"#utility.yul\":4291:4329   */\n  swap1\n  pop\n    /* \"#utility.yul\":4233:4335   */\n  swap2\n  swap1\n  pop\n  jump\t// out\n    /* \"#utility.yul\":4341:4463   */\ntag_44:\n    /* \"#utility.yul\":4414:4438   */\n  tag_91\n    /* \"#utility.yul\":4432:4437   */\n  dup2\n    /* \"#utility.yul\":4414:4438   */\n  tag_66\n  jump\t// in\ntag_91:\n    /* \"#utility.yul\":4407:4412   */\n  dup2\n    /* \"#utility.yul\":4404:4439   */\n  eq\n    /* \"#utility.yul\":4394:4457   */\n  tag_92\n  jumpi\n    /* \"#utility.yul\":4453:4454   */\n  0x00\n    /* \"#utility.yul\":4450:4451   */\n  dup1\n    /* \"#utility.yul\":4443:4455   */\n  revert\n    /* \"#utility.yul\":4394:4457   */\ntag_92:\n    /* \"#utility.yul\":4341:4463   */\n  pop\n  jump\t// out\n    /* \"contracts/structs_guide.sol\":200:1154  contract Academy{\r... */\ntag_11:\n  dataSize(sub_0)\n  dup1\n  dataOffset(sub_0)\n  0x00\n  codecopy\n  0x00\n  return\nstop\n\nsub_0: assembly {\n        /* \"contracts/structs_guide.sol\":200:1154  contract Academy{\r... */\n      mstore(0x40, 0x80)\n      callvalue\n      dup1\n      iszero\n      tag_1\n      jumpi\n      0x00\n      dup1\n      revert\n    tag_1:\n      pop\n      jumpi(tag_2, lt(calldatasize, 0x04))\n      shr(0xe0, calldataload(0x00))\n      dup1\n      0x23b8ca9f\n      eq\n      tag_3\n      jumpi\n      dup1\n      0x54248841\n      eq\n      tag_4\n      jumpi\n      dup1\n      0xa46878fb\n      eq\n      tag_5\n      jumpi\n    tag_2:\n      0x00\n      dup1\n      revert\n        /* \"contracts/structs_guide.sol\":337:375  State public academyState = State.Open */\n    tag_3:\n      tag_6\n      tag_7\n      jump\t// in\n    tag_6:\n      mload(0x40)\n      tag_8\n      swap2\n      swap1\n      tag_9\n      jump\t// in\n    tag_8:\n      mload(0x40)\n      dup1\n      swap2\n      sub\n      swap1\n      return\n        /* \"contracts/structs_guide.sol\":223:258  Instructor public academyInstructor */\n    tag_4:\n      tag_10\n      tag_11\n      jump\t// in\n    tag_10:\n      mload(0x40)\n      tag_12\n      swap4\n      swap3\n      swap2\n      swap1\n      tag_13\n      jump\t// in\n    tag_12:\n      mload(0x40)\n      dup1\n      swap2\n      sub\n      swap1\n      return\n        /* \"contracts/structs_guide.sol\":693:1151  function changeInstructor(uint _age, string memory _name, address _addr) public{\r... */\n    tag_5:\n      tag_14\n      0x04\n      dup1\n      calldatasize\n      sub\n      dup2\n      add\n      swap1\n      tag_15\n      swap2\n      swap1\n      tag_16\n      jump\t// in\n    tag_15:\n      tag_17\n      jump\t// in\n    tag_14:\n      stop\n        /* \"contracts/structs_guide.sol\":337:375  State public academyState = State.Open */\n    tag_7:\n      0x03\n      0x00\n      swap1\n      sload\n      swap1\n      0x0100\n      exp\n      swap1\n      div\n      0xff\n      and\n      dup2\n      jump\t// out\n        /* \"contracts/structs_guide.sol\":223:258  Instructor public academyInstructor */\n    tag_11:\n      0x00\n      dup1\n      0x00\n      add\n      sload\n      swap1\n      dup1\n      0x01\n      add\n      dup1\n      sload\n      tag_18\n      swap1\n      tag_19\n      jump\t// in\n    tag_18:\n      dup1\n      0x1f\n      add\n      0x20\n      dup1\n      swap2\n      div\n      mul\n      0x20\n      add\n      mload(0x40)\n      swap1\n      dup2\n      add\n      0x40\n      mstore\n      dup1\n      swap3\n      swap2\n      swap1\n      dup2\n      dup2\n      mstore\n      0x20\n      add\n      dup3\n      dup1\n      sload\n      tag_20\n      swap1\n      tag_19\n      jump\t// in\n    tag_20:\n      dup1\n      iszero\n      tag_21\n      jumpi\n      dup1\n      0x1f\n      lt\n      tag_22\n      jumpi\n      0x0100\n      dup1\n      dup4\n      sload\n      div\n      mul\n      dup4\n      mstore\n      swap2\n      0x20\n      add\n      swap2\n      jump(tag_21)\n    tag_22:\n      dup3\n      add\n      swap2\n      swap1\n      0x00\n      mstore\n      keccak256(0x00, 0x20)\n      swap1\n    tag_23:\n      dup2\n      sload\n      dup2\n      mstore\n      swap1\n      0x01\n      add\n      swap1\n      0x20\n      add\n      dup1\n      dup4\n      gt\n      tag_23\n      jumpi\n      dup3\n      swap1\n      sub\n      0x1f\n      and\n      dup3\n      add\n      swap2\n    tag_21:\n      pop\n      pop\n      pop\n      pop\n      pop\n      swap1\n      dup1\n      0x02\n      add\n      0x00\n      swap1\n      sload\n      swap1\n      0x0100\n      exp\n      swap1\n      div\n      0xffffffffffffffffffffffffffffffffffffffff\n      and\n      swap1\n      pop\n      dup4\n      jump\t// out\n        /* \"contracts/structs_guide.sol\":693:1151  function changeInstructor(uint _age, string memory _name, address _addr) public{\r... */\n    tag_17:\n        /* \"contracts/structs_guide.sol\":813:823  State.Open */\n      0x00\n        /* \"contracts/structs_guide.sol\":797:823  academyState == State.Open */\n      0x02\n      dup2\n      gt\n      iszero\n      tag_25\n      jumpi\n      tag_26\n      tag_27\n      jump\t// in\n    tag_26:\n    tag_25:\n        /* \"contracts/structs_guide.sol\":797:809  academyState */\n      0x03\n      0x00\n      swap1\n      sload\n      swap1\n      0x0100\n      exp\n      swap1\n      div\n      0xff\n      and\n        /* \"contracts/structs_guide.sol\":797:823  academyState == State.Open */\n      0x02\n      dup2\n      gt\n      iszero\n      tag_28\n      jumpi\n      tag_29\n      tag_27\n      jump\t// in\n    tag_29:\n    tag_28:\n      pop\n      pop\n        /* \"contracts/structs_guide.sol\":913:943  Instructor memory myInstructor */\n      0x00\n        /* \"contracts/structs_guide.sol\":946:1059  Instructor({\r... */\n      mload(0x40)\n      dup1\n      0x60\n      add\n      0x40\n      mstore\n      dup1\n        /* \"contracts/structs_guide.sol\":977:981  _age */\n      dup6\n        /* \"contracts/structs_guide.sol\":946:1059  Instructor({\r... */\n      dup2\n      mstore\n      0x20\n      add\n        /* \"contracts/structs_guide.sol\":1002:1007  _name */\n      dup5\n        /* \"contracts/structs_guide.sol\":946:1059  Instructor({\r... */\n      dup2\n      mstore\n      0x20\n      add\n        /* \"contracts/structs_guide.sol\":1028:1033  _addr */\n      dup4\n        /* \"contracts/structs_guide.sol\":946:1059  Instructor({\r... */\n      0xffffffffffffffffffffffffffffffffffffffff\n      and\n      dup2\n      mstore\n      pop\n        /* \"contracts/structs_guide.sol\":913:1059  Instructor memory myInstructor = Instructor({\r... */\n      swap1\n      pop\n        /* \"contracts/structs_guide.sol\":1131:1143  myInstructor */\n      dup1\n        /* \"contracts/structs_guide.sol\":1111:1128  academyInstructor */\n      0x00\n        /* \"contracts/structs_guide.sol\":1111:1143  academyInstructor = myInstructor */\n      dup1\n      dup3\n      add\n      mload\n      dup2\n      0x00\n      add\n      sstore\n      0x20\n      dup3\n      add\n      mload\n      dup2\n      0x01\n      add\n      swap1\n      dup1\n      mload\n      swap1\n      0x20\n      add\n      swap1\n      tag_31\n      swap3\n      swap2\n      swap1\n      tag_32\n      jump\t// in\n    tag_31:\n      pop\n      0x40\n      dup3\n      add\n      mload\n      dup2\n      0x02\n      add\n      exp(0x0100, 0x00)\n      dup2\n      sload\n      dup2\n      0xffffffffffffffffffffffffffffffffffffffff\n      mul\n      not\n      and\n      swap1\n      dup4\n      0xffffffffffffffffffffffffffffffffffffffff\n      and\n      mul\n      or\n      swap1\n      sstore\n      pop\n      swap1\n      pop\n      pop\n        /* \"contracts/structs_guide.sol\":772:1151  {\r... */\n      pop\n        /* \"contracts/structs_guide.sol\":693:1151  function changeInstructor(uint _age, string memory _name, address _addr) public{\r... */\n      pop\n      pop\n      pop\n      jump\t// out\n    tag_32:\n      dup3\n      dup1\n      sload\n      tag_33\n      swap1\n      tag_19\n      jump\t// in\n    tag_33:\n      swap1\n      0x00\n      mstore\n      keccak256(0x00, 0x20)\n      swap1\n      0x1f\n      add\n      0x20\n      swap1\n      div\n      dup2\n      add\n      swap3\n      dup3\n      tag_35\n      jumpi\n      0x00\n      dup6\n      sstore\n      jump(tag_34)\n    tag_35:\n      dup3\n      0x1f\n      lt\n      tag_36\n      jumpi\n      dup1\n      mload\n      not(0xff)\n      and\n      dup4\n      dup1\n      add\n      or\n      dup6\n      sstore\n      jump(tag_34)\n    tag_36:\n      dup3\n      dup1\n      add\n      0x01\n      add\n      dup6\n      sstore\n      dup3\n      iszero\n      tag_34\n      jumpi\n      swap2\n      dup3\n      add\n    tag_37:\n      dup3\n      dup2\n      gt\n      iszero\n      tag_38\n      jumpi\n      dup3\n      mload\n      dup3\n      sstore\n      swap2\n      0x20\n      add\n      swap2\n      swap1\n      0x01\n      add\n      swap1\n      jump(tag_37)\n    tag_38:\n    tag_34:\n      pop\n      swap1\n      pop\n      tag_39\n      swap2\n      swap1\n      tag_40\n      jump\t// in\n    tag_39:\n      pop\n      swap1\n      jump\t// out\n    tag_40:\n    tag_41:\n      dup1\n      dup3\n      gt\n      iszero\n      tag_42\n      jumpi\n      0x00\n      dup2\n      0x00\n      swap1\n      sstore\n      pop\n      0x01\n      add\n      jump(tag_41)\n    tag_42:\n      pop\n      swap1\n      jump\t// out\n        /* \"#utility.yul\":7:419   */\n    tag_44:\n        /* \"#utility.yul\":85:90   */\n      0x00\n        /* \"#utility.yul\":110:176   */\n      tag_46\n        /* \"#utility.yul\":126:175   */\n      tag_47\n        /* \"#utility.yul\":168:174   */\n      dup5\n        /* \"#utility.yul\":126:175   */\n      tag_48\n      jump\t// in\n    tag_47:\n        /* \"#utility.yul\":110:176   */\n      tag_49\n      jump\t// in\n    tag_46:\n        /* \"#utility.yul\":101:176   */\n      swap1\n      pop\n        /* \"#utility.yul\":199:205   */\n      dup3\n        /* \"#utility.yul\":192:197   */\n      dup2\n        /* \"#utility.yul\":185:206   */\n      mstore\n        /* \"#utility.yul\":237:241   */\n      0x20\n        /* \"#utility.yul\":230:235   */\n      dup2\n        /* \"#utility.yul\":226:242   */\n      add\n        /* \"#utility.yul\":275:278   */\n      dup5\n        /* \"#utility.yul\":266:272   */\n      dup5\n        /* \"#utility.yul\":261:264   */\n      dup5\n        /* \"#utility.yul\":257:273   */\n      add\n        /* \"#utility.yul\":254:279   */\n      gt\n        /* \"#utility.yul\":251:363   */\n      iszero\n      tag_50\n      jumpi\n        /* \"#utility.yul\":282:361   */\n      tag_51\n      tag_52\n      jump\t// in\n    tag_51:\n        /* \"#utility.yul\":251:363   */\n    tag_50:\n        /* \"#utility.yul\":372:413   */\n      tag_53\n        /* \"#utility.yul\":406:412   */\n      dup5\n        /* \"#utility.yul\":401:404   */\n      dup3\n        /* \"#utility.yul\":396:399   */\n      dup6\n        /* \"#utility.yul\":372:413   */\n      tag_54\n      jump\t// in\n    tag_53:\n        /* \"#utility.yul\":91:419   */\n      pop\n        /* \"#utility.yul\":7:419   */\n      swap4\n      swap3\n      pop\n      pop\n      pop\n      jump\t// out\n        /* \"#utility.yul\":425:564   */\n    tag_55:\n        /* \"#utility.yul\":471:476   */\n      0x00\n        /* \"#utility.yul\":509:515   */\n      dup2\n        /* \"#utility.yul\":496:516   */\n      calldataload\n        /* \"#utility.yul\":487:516   */\n      swap1\n      pop\n        /* \"#utility.yul\":525:558   */\n      tag_57\n        /* \"#utility.yul\":552:557   */\n      dup2\n        /* \"#utility.yul\":525:558   */\n      tag_58\n      jump\t// in\n    tag_57:\n        /* \"#utility.yul\":425:564   */\n      swap3\n      swap2\n      pop\n      pop\n      jump\t// out\n        /* \"#utility.yul\":584:924   */\n    tag_59:\n        /* \"#utility.yul\":640:645   */\n      0x00\n        /* \"#utility.yul\":689:692   */\n      dup3\n        /* \"#utility.yul\":682:686   */\n      0x1f\n        /* \"#utility.yul\":674:680   */\n      dup4\n        /* \"#utility.yul\":670:687   */\n      add\n        /* \"#utility.yul\":666:693   */\n      slt\n        /* \"#utility.yul\":656:778   */\n      tag_61\n      jumpi\n        /* \"#utility.yul\":697:776   */\n      tag_62\n      tag_63\n      jump\t// in\n    tag_62:\n        /* \"#utility.yul\":656:778   */\n    tag_61:\n        /* \"#utility.yul\":814:820   */\n      dup2\n        /* \"#utility.yul\":801:821   */\n      calldataload\n        /* \"#utility.yul\":839:918   */\n      tag_64\n        /* \"#utility.yul\":914:917   */\n      dup5\n        /* \"#utility.yul\":906:912   */\n      dup3\n        /* \"#utility.yul\":899:903   */\n      0x20\n        /* \"#utility.yul\":891:897   */\n      dup7\n        /* \"#utility.yul\":887:904   */\n      add\n        /* \"#utility.yul\":839:918   */\n      tag_44\n      jump\t// in\n    tag_64:\n        /* \"#utility.yul\":830:918   */\n      swap2\n      pop\n        /* \"#utility.yul\":646:924   */\n      pop\n        /* \"#utility.yul\":584:924   */\n      swap3\n      swap2\n      pop\n      pop\n      jump\t// out\n        /* \"#utility.yul\":930:1069   */\n    tag_65:\n        /* \"#utility.yul\":976:981   */\n      0x00\n        /* \"#utility.yul\":1014:1020   */\n      dup2\n        /* \"#utility.yul\":1001:1021   */\n      calldataload\n        /* \"#utility.yul\":992:1021   */\n      swap1\n      pop\n        /* \"#utility.yul\":1030:1063   */\n      tag_67\n        /* \"#utility.yul\":1057:1062   */\n      dup2\n        /* \"#utility.yul\":1030:1063   */\n      tag_68\n      jump\t// in\n    tag_67:\n        /* \"#utility.yul\":930:1069   */\n      swap3\n      swap2\n      pop\n      pop\n      jump\t// out\n        /* \"#utility.yul\":1075:1874   */\n    tag_16:\n        /* \"#utility.yul\":1162:1168   */\n      0x00\n        /* \"#utility.yul\":1170:1176   */\n      dup1\n        /* \"#utility.yul\":1178:1184   */\n      0x00\n        /* \"#utility.yul\":1227:1229   */\n      0x60\n        /* \"#utility.yul\":1215:1224   */\n      dup5\n        /* \"#utility.yul\":1206:1213   */\n      dup7\n        /* \"#utility.yul\":1202:1225   */\n      sub\n        /* \"#utility.yul\":1198:1230   */\n      slt\n        /* \"#utility.yul\":1195:1314   */\n      iszero\n      tag_70\n      jumpi\n        /* \"#utility.yul\":1233:1312   */\n      tag_71\n      tag_72\n      jump\t// in\n    tag_71:\n        /* \"#utility.yul\":1195:1314   */\n    tag_70:\n        /* \"#utility.yul\":1353:1354   */\n      0x00\n        /* \"#utility.yul\":1378:1431   */\n      tag_73\n        /* \"#utility.yul\":1423:1430   */\n      dup7\n        /* \"#utility.yul\":1414:1420   */\n      dup3\n        /* \"#utility.yul\":1403:1412   */\n      dup8\n        /* \"#utility.yul\":1399:1421   */\n      add\n        /* \"#utility.yul\":1378:1431   */\n      tag_65\n      jump\t// in\n    tag_73:\n        /* \"#utility.yul\":1368:1431   */\n      swap4\n      pop\n        /* \"#utility.yul\":1324:1441   */\n      pop\n        /* \"#utility.yul\":1508:1510   */\n      0x20\n        /* \"#utility.yul\":1497:1506   */\n      dup5\n        /* \"#utility.yul\":1493:1511   */\n      add\n        /* \"#utility.yul\":1480:1512   */\n      calldataload\n        /* \"#utility.yul\":1539:1557   */\n      0xffffffffffffffff\n        /* \"#utility.yul\":1531:1537   */\n      dup2\n        /* \"#utility.yul\":1528:1558   */\n      gt\n        /* \"#utility.yul\":1525:1642   */\n      iszero\n      tag_74\n      jumpi\n        /* \"#utility.yul\":1561:1640   */\n      tag_75\n      tag_76\n      jump\t// in\n    tag_75:\n        /* \"#utility.yul\":1525:1642   */\n    tag_74:\n        /* \"#utility.yul\":1666:1729   */\n      tag_77\n        /* \"#utility.yul\":1721:1728   */\n      dup7\n        /* \"#utility.yul\":1712:1718   */\n      dup3\n        /* \"#utility.yul\":1701:1710   */\n      dup8\n        /* \"#utility.yul\":1697:1719   */\n      add\n        /* \"#utility.yul\":1666:1729   */\n      tag_59\n      jump\t// in\n    tag_77:\n        /* \"#utility.yul\":1656:1729   */\n      swap3\n      pop\n        /* \"#utility.yul\":1451:1739   */\n      pop\n        /* \"#utility.yul\":1778:1780   */\n      0x40\n        /* \"#utility.yul\":1804:1857   */\n      tag_78\n        /* \"#utility.yul\":1849:1856   */\n      dup7\n        /* \"#utility.yul\":1840:1846   */\n      dup3\n        /* \"#utility.yul\":1829:1838   */\n      dup8\n        /* \"#utility.yul\":1825:1847   */\n      add\n        /* \"#utility.yul\":1804:1857   */\n      tag_55\n      jump\t// in\n    tag_78:\n        /* \"#utility.yul\":1794:1857   */\n      swap2\n      pop\n        /* \"#utility.yul\":1749:1867   */\n      pop\n        /* \"#utility.yul\":1075:1874   */\n      swap3\n      pop\n      swap3\n      pop\n      swap3\n      jump\t// out\n        /* \"#utility.yul\":1880:1998   */\n    tag_79:\n        /* \"#utility.yul\":1967:1991   */\n      tag_81\n        /* \"#utility.yul\":1985:1990   */\n      dup2\n        /* \"#utility.yul\":1967:1991   */\n      tag_82\n      jump\t// in\n    tag_81:\n        /* \"#utility.yul\":1962:1965   */\n      dup3\n        /* \"#utility.yul\":1955:1992   */\n      mstore\n        /* \"#utility.yul\":1880:1998   */\n      pop\n      pop\n      jump\t// out\n        /* \"#utility.yul\":2004:2147   */\n    tag_83:\n        /* \"#utility.yul\":2097:2140   */\n      tag_85\n        /* \"#utility.yul\":2134:2139   */\n      dup2\n        /* \"#utility.yul\":2097:2140   */\n      tag_86\n      jump\t// in\n    tag_85:\n        /* \"#utility.yul\":2092:2095   */\n      dup3\n        /* \"#utility.yul\":2085:2141   */\n      mstore\n        /* \"#utility.yul\":2004:2147   */\n      pop\n      pop\n      jump\t// out\n        /* \"#utility.yul\":2153:2517   */\n    tag_87:\n        /* \"#utility.yul\":2241:2244   */\n      0x00\n        /* \"#utility.yul\":2269:2308   */\n      tag_89\n        /* \"#utility.yul\":2302:2307   */\n      dup3\n        /* \"#utility.yul\":2269:2308   */\n      tag_90\n      jump\t// in\n    tag_89:\n        /* \"#utility.yul\":2324:2395   */\n      tag_91\n        /* \"#utility.yul\":2388:2394   */\n      dup2\n        /* \"#utility.yul\":2383:2386   */\n      dup6\n        /* \"#utility.yul\":2324:2395   */\n      tag_92\n      jump\t// in\n    tag_91:\n        /* \"#utility.yul\":2317:2395   */\n      swap4\n      pop\n        /* \"#utility.yul\":2404:2456   */\n      tag_93\n        /* \"#utility.yul\":2449:2455   */\n      dup2\n        /* \"#utility.yul\":2444:2447   */\n      dup6\n        /* \"#utility.yul\":2437:2441   */\n      0x20\n        /* \"#utility.yul\":2430:2435   */\n      dup7\n        /* \"#utility.yul\":2426:2442   */\n      add\n        /* \"#utility.yul\":2404:2456   */\n      tag_94\n      jump\t// in\n    tag_93:\n        /* \"#utility.yul\":2481:2510   */\n      tag_95\n        /* \"#utility.yul\":2503:2509   */\n      dup2\n        /* \"#utility.yul\":2481:2510   */\n      tag_96\n      jump\t// in\n    tag_95:\n        /* \"#utility.yul\":2476:2479   */\n      dup5\n        /* \"#utility.yul\":2472:2511   */\n      add\n        /* \"#utility.yul\":2465:2511   */\n      swap2\n      pop\n        /* \"#utility.yul\":2245:2517   */\n      pop\n        /* \"#utility.yul\":2153:2517   */\n      swap3\n      swap2\n      pop\n      pop\n      jump\t// out\n        /* \"#utility.yul\":2523:2641   */\n    tag_97:\n        /* \"#utility.yul\":2610:2634   */\n      tag_99\n        /* \"#utility.yul\":2628:2633   */\n      dup2\n        /* \"#utility.yul\":2610:2634   */\n      tag_100\n      jump\t// in\n    tag_99:\n        /* \"#utility.yul\":2605:2608   */\n      dup3\n        /* \"#utility.yul\":2598:2635   */\n      mstore\n        /* \"#utility.yul\":2523:2641   */\n      pop\n      pop\n      jump\t// out\n        /* \"#utility.yul\":2647:2881   */\n    tag_9:\n        /* \"#utility.yul\":2746:2750   */\n      0x00\n        /* \"#utility.yul\":2784:2786   */\n      0x20\n        /* \"#utility.yul\":2773:2782   */\n      dup3\n        /* \"#utility.yul\":2769:2787   */\n      add\n        /* \"#utility.yul\":2761:2787   */\n      swap1\n      pop\n        /* \"#utility.yul\":2797:2874   */\n      tag_102\n        /* \"#utility.yul\":2871:2872   */\n      0x00\n        /* \"#utility.yul\":2860:2869   */\n      dup4\n        /* \"#utility.yul\":2856:2873   */\n      add\n        /* \"#utility.yul\":2847:2853   */\n      dup5\n        /* \"#utility.yul\":2797:2874   */\n      tag_83\n      jump\t// in\n    tag_102:\n        /* \"#utility.yul\":2647:2881   */\n      swap3\n      swap2\n      pop\n      pop\n      jump\t// out\n        /* \"#utility.yul\":2887:3420   */\n    tag_13:\n        /* \"#utility.yul\":3056:3060   */\n      0x00\n        /* \"#utility.yul\":3094:3096   */\n      0x60\n        /* \"#utility.yul\":3083:3092   */\n      dup3\n        /* \"#utility.yul\":3079:3097   */\n      add\n        /* \"#utility.yul\":3071:3097   */\n      swap1\n      pop\n        /* \"#utility.yul\":3107:3178   */\n      tag_104\n        /* \"#utility.yul\":3175:3176   */\n      0x00\n        /* \"#utility.yul\":3164:3173   */\n      dup4\n        /* \"#utility.yul\":3160:3177   */\n      add\n        /* \"#utility.yul\":3151:3157   */\n      dup7\n        /* \"#utility.yul\":3107:3178   */\n      tag_97\n      jump\t// in\n    tag_104:\n        /* \"#utility.yul\":3225:3234   */\n      dup2\n        /* \"#utility.yul\":3219:3223   */\n      dup2\n        /* \"#utility.yul\":3215:3235   */\n      sub\n        /* \"#utility.yul\":3210:3212   */\n      0x20\n        /* \"#utility.yul\":3199:3208   */\n      dup4\n        /* \"#utility.yul\":3195:3213   */\n      add\n        /* \"#utility.yul\":3188:3236   */\n      mstore\n        /* \"#utility.yul\":3253:3331   */\n      tag_105\n        /* \"#utility.yul\":3326:3330   */\n      dup2\n        /* \"#utility.yul\":3317:3323   */\n      dup6\n        /* \"#utility.yul\":3253:3331   */\n      tag_87\n      jump\t// in\n    tag_105:\n        /* \"#utility.yul\":3245:3331   */\n      swap1\n      pop\n        /* \"#utility.yul\":3341:3413   */\n      tag_106\n        /* \"#utility.yul\":3409:3411   */\n      0x40\n        /* \"#utility.yul\":3398:3407   */\n      dup4\n        /* \"#utility.yul\":3394:3412   */\n      add\n        /* \"#utility.yul\":3385:3391   */\n      dup5\n        /* \"#utility.yul\":3341:3413   */\n      tag_79\n      jump\t// in\n    tag_106:\n        /* \"#utility.yul\":2887:3420   */\n      swap5\n      swap4\n      pop\n      pop\n      pop\n      pop\n      jump\t// out\n        /* \"#utility.yul\":3426:3555   */\n    tag_49:\n        /* \"#utility.yul\":3460:3466   */\n      0x00\n        /* \"#utility.yul\":3487:3507   */\n      tag_108\n      tag_109\n      jump\t// in\n    tag_108:\n        /* \"#utility.yul\":3477:3507   */\n      swap1\n      pop\n        /* \"#utility.yul\":3516:3549   */\n      tag_110\n        /* \"#utility.yul\":3544:3548   */\n      dup3\n        /* \"#utility.yul\":3536:3542   */\n      dup3\n        /* \"#utility.yul\":3516:3549   */\n      tag_111\n      jump\t// in\n    tag_110:\n        /* \"#utility.yul\":3426:3555   */\n      swap2\n      swap1\n      pop\n      jump\t// out\n        /* \"#utility.yul\":3561:3636   */\n    tag_109:\n        /* \"#utility.yul\":3594:3600   */\n      0x00\n        /* \"#utility.yul\":3627:3629   */\n      0x40\n        /* \"#utility.yul\":3621:3630   */\n      mload\n        /* \"#utility.yul\":3611:3630   */\n      swap1\n      pop\n        /* \"#utility.yul\":3561:3636   */\n      swap1\n      jump\t// out\n        /* \"#utility.yul\":3642:3950   */\n    tag_48:\n        /* \"#utility.yul\":3704:3708   */\n      0x00\n        /* \"#utility.yul\":3794:3812   */\n      0xffffffffffffffff\n        /* \"#utility.yul\":3786:3792   */\n      dup3\n        /* \"#utility.yul\":3783:3813   */\n      gt\n        /* \"#utility.yul\":3780:3836   */\n      iszero\n      tag_114\n      jumpi\n        /* \"#utility.yul\":3816:3834   */\n      tag_115\n      tag_116\n      jump\t// in\n    tag_115:\n        /* \"#utility.yul\":3780:3836   */\n    tag_114:\n        /* \"#utility.yul\":3854:3883   */\n      tag_117\n        /* \"#utility.yul\":3876:3882   */\n      dup3\n        /* \"#utility.yul\":3854:3883   */\n      tag_96\n      jump\t// in\n    tag_117:\n        /* \"#utility.yul\":3846:3883   */\n      swap1\n      pop\n        /* \"#utility.yul\":3938:3942   */\n      0x20\n        /* \"#utility.yul\":3932:3936   */\n      dup2\n        /* \"#utility.yul\":3928:3943   */\n      add\n        /* \"#utility.yul\":3920:3943   */\n      swap1\n      pop\n        /* \"#utility.yul\":3642:3950   */\n      swap2\n      swap1\n      pop\n      jump\t// out\n        /* \"#utility.yul\":3956:4055   */\n    tag_90:\n        /* \"#utility.yul\":4008:4014   */\n      0x00\n        /* \"#utility.yul\":4042:4047   */\n      dup2\n        /* \"#utility.yul\":4036:4048   */\n      mload\n        /* \"#utility.yul\":4026:4048   */\n      swap1\n      pop\n        /* \"#utility.yul\":3956:4055   */\n      swap2\n      swap1\n      pop\n      jump\t// out\n        /* \"#utility.yul\":4061:4230   */\n    tag_92:\n        /* \"#utility.yul\":4145:4156   */\n      0x00\n        /* \"#utility.yul\":4179:4185   */\n      dup3\n        /* \"#utility.yul\":4174:4177   */\n      dup3\n        /* \"#utility.yul\":4167:4186   */\n      mstore\n        /* \"#utility.yul\":4219:4223   */\n      0x20\n        /* \"#utility.yul\":4214:4217   */\n      dup3\n        /* \"#utility.yul\":4210:4224   */\n      add\n        /* \"#utility.yul\":4195:4224   */\n      swap1\n      pop\n        /* \"#utility.yul\":4061:4230   */\n      swap3\n      swap2\n      pop\n      pop\n      jump\t// out\n        /* \"#utility.yul\":4236:4332   */\n    tag_82:\n        /* \"#utility.yul\":4273:4280   */\n      0x00\n        /* \"#utility.yul\":4302:4326   */\n      tag_121\n        /* \"#utility.yul\":4320:4325   */\n      dup3\n        /* \"#utility.yul\":4302:4326   */\n      tag_122\n      jump\t// in\n    tag_121:\n        /* \"#utility.yul\":4291:4326   */\n      swap1\n      pop\n        /* \"#utility.yul\":4236:4332   */\n      swap2\n      swap1\n      pop\n      jump\t// out\n        /* \"#utility.yul\":4338:4465   */\n    tag_123:\n        /* \"#utility.yul\":4383:4390   */\n      0x00\n        /* \"#utility.yul\":4412:4417   */\n      dup2\n        /* \"#utility.yul\":4401:4417   */\n      swap1\n      pop\n        /* \"#utility.yul\":4418:4459   */\n      tag_125\n        /* \"#utility.yul\":4453:4458   */\n      dup3\n        /* \"#utility.yul\":4418:4459   */\n      tag_126\n      jump\t// in\n    tag_125:\n        /* \"#utility.yul\":4338:4465   */\n      swap2\n      swap1\n      pop\n      jump\t// out\n        /* \"#utility.yul\":4471:4597   */\n    tag_122:\n        /* \"#utility.yul\":4508:4515   */\n      0x00\n        /* \"#utility.yul\":4548:4590   */\n      0xffffffffffffffffffffffffffffffffffffffff\n        /* \"#utility.yul\":4541:4546   */\n      dup3\n        /* \"#utility.yul\":4537:4591   */\n      and\n        /* \"#utility.yul\":4526:4591   */\n      swap1\n      pop\n        /* \"#utility.yul\":4471:4597   */\n      swap2\n      swap1\n      pop\n      jump\t// out\n        /* \"#utility.yul\":4603:4680   */\n    tag_100:\n        /* \"#utility.yul\":4640:4647   */\n      0x00\n        /* \"#utility.yul\":4669:4674   */\n      dup2\n        /* \"#utility.yul\":4658:4674   */\n      swap1\n      pop\n        /* \"#utility.yul\":4603:4680   */\n      swap2\n      swap1\n      pop\n      jump\t// out\n        /* \"#utility.yul\":4686:4813   */\n    tag_86:\n        /* \"#utility.yul\":4742:4751   */\n      0x00\n        /* \"#utility.yul\":4775:4807   */\n      tag_130\n        /* \"#utility.yul\":4801:4806   */\n      dup3\n        /* \"#utility.yul\":4775:4807   */\n      tag_123\n      jump\t// in\n    tag_130:\n        /* \"#utility.yul\":4762:4807   */\n      swap1\n      pop\n        /* \"#utility.yul\":4686:4813   */\n      swap2\n      swap1\n      pop\n      jump\t// out\n        /* \"#utility.yul\":4819:4973   */\n    tag_54:\n        /* \"#utility.yul\":4903:4909   */\n      dup3\n        /* \"#utility.yul\":4898:4901   */\n      dup2\n        /* \"#utility.yul\":4893:4896   */\n      dup4\n        /* \"#utility.yul\":4880:4910   */\n      calldatacopy\n        /* \"#utility.yul\":4965:4966   */\n      0x00\n        /* \"#utility.yul\":4956:4962   */\n      dup4\n        /* \"#utility.yul\":4951:4954   */\n      dup4\n        /* \"#utility.yul\":4947:4963   */\n      add\n        /* \"#utility.yul\":4940:4967   */\n      mstore\n        /* \"#utility.yul\":4819:4973   */\n      pop\n      pop\n      pop\n      jump\t// out\n        /* \"#utility.yul\":4979:5286   */\n    tag_94:\n        /* \"#utility.yul\":5047:5048   */\n      0x00\n        /* \"#utility.yul\":5057:5170   */\n    tag_133:\n        /* \"#utility.yul\":5071:5077   */\n      dup4\n        /* \"#utility.yul\":5068:5069   */\n      dup2\n        /* \"#utility.yul\":5065:5078   */\n      lt\n        /* \"#utility.yul\":5057:5170   */\n      iszero\n      tag_135\n      jumpi\n        /* \"#utility.yul\":5156:5157   */\n      dup1\n        /* \"#utility.yul\":5151:5154   */\n      dup3\n        /* \"#utility.yul\":5147:5158   */\n      add\n        /* \"#utility.yul\":5141:5159   */\n      mload\n        /* \"#utility.yul\":5137:5138   */\n      dup2\n        /* \"#utility.yul\":5132:5135   */\n      dup5\n        /* \"#utility.yul\":5128:5139   */\n      add\n        /* \"#utility.yul\":5121:5160   */\n      mstore\n        /* \"#utility.yul\":5093:5095   */\n      0x20\n        /* \"#utility.yul\":5090:5091   */\n      dup2\n        /* \"#utility.yul\":5086:5096   */\n      add\n        /* \"#utility.yul\":5081:5096   */\n      swap1\n      pop\n        /* \"#utility.yul\":5057:5170   */\n      jump(tag_133)\n    tag_135:\n        /* \"#utility.yul\":5188:5194   */\n      dup4\n        /* \"#utility.yul\":5185:5186   */\n      dup2\n        /* \"#utility.yul\":5182:5195   */\n      gt\n        /* \"#utility.yul\":5179:5280   */\n      iszero\n      tag_136\n      jumpi\n        /* \"#utility.yul\":5268:5269   */\n      0x00\n        /* \"#utility.yul\":5259:5265   */\n      dup5\n        /* \"#utility.yul\":5254:5257   */\n      dup5\n        /* \"#utility.yul\":5250:5266   */\n      add\n        /* \"#utility.yul\":5243:5270   */\n      mstore\n        /* \"#utility.yul\":5179:5280   */\n    tag_136:\n        /* \"#utility.yul\":5028:5286   */\n      pop\n        /* \"#utility.yul\":4979:5286   */\n      pop\n      pop\n      pop\n      jump\t// out\n        /* \"#utility.yul\":5292:5612   */\n    tag_19:\n        /* \"#utility.yul\":5336:5342   */\n      0x00\n        /* \"#utility.yul\":5373:5374   */\n      0x02\n        /* \"#utility.yul\":5367:5371   */\n      dup3\n        /* \"#utility.yul\":5363:5375   */\n      div\n        /* \"#utility.yul\":5353:5375   */\n      swap1\n      pop\n        /* \"#utility.yul\":5420:5421   */\n      0x01\n        /* \"#utility.yul\":5414:5418   */\n      dup3\n        /* \"#utility.yul\":5410:5422   */\n      and\n        /* \"#utility.yul\":5441:5459   */\n      dup1\n        /* \"#utility.yul\":5431:5512   */\n      tag_138\n      jumpi\n        /* \"#utility.yul\":5497:5501   */\n      0x7f\n        /* \"#utility.yul\":5489:5495   */\n      dup3\n        /* \"#utility.yul\":5485:5502   */\n      and\n        /* \"#utility.yul\":5475:5502   */\n      swap2\n      pop\n        /* \"#utility.yul\":5431:5512   */\n    tag_138:\n        /* \"#utility.yul\":5559:5561   */\n      0x20\n        /* \"#utility.yul\":5551:5557   */\n      dup3\n        /* \"#utility.yul\":5548:5562   */\n      lt\n        /* \"#utility.yul\":5528:5546   */\n      dup2\n        /* \"#utility.yul\":5525:5563   */\n      eq\n        /* \"#utility.yul\":5522:5606   */\n      iszero\n      tag_139\n      jumpi\n        /* \"#utility.yul\":5578:5596   */\n      tag_140\n      tag_141\n      jump\t// in\n    tag_140:\n        /* \"#utility.yul\":5522:5606   */\n    tag_139:\n        /* \"#utility.yul\":5343:5612   */\n      pop\n        /* \"#utility.yul\":5292:5612   */\n      swap2\n      swap1\n      pop\n      jump\t// out\n        /* \"#utility.yul\":5618:5899   */\n    tag_111:\n        /* \"#utility.yul\":5701:5728   */\n      tag_143\n        /* \"#utility.yul\":5723:5727   */\n      dup3\n        /* \"#utility.yul\":5701:5728   */\n      tag_96\n      jump\t// in\n    tag_143:\n        /* \"#utility.yul\":5693:5699   */\n      dup2\n        /* \"#utility.yul\":5689:5729   */\n      add\n        /* \"#utility.yul\":5831:5837   */\n      dup2\n        /* \"#utility.yul\":5819:5829   */\n      dup2\n        /* \"#utility.yul\":5816:5838   */\n      lt\n        /* \"#utility.yul\":5795:5813   */\n      0xffffffffffffffff\n        /* \"#utility.yul\":5783:5793   */\n      dup3\n        /* \"#utility.yul\":5780:5814   */\n      gt\n        /* \"#utility.yul\":5777:5839   */\n      or\n        /* \"#utility.yul\":5774:5862   */\n      iszero\n      tag_144\n      jumpi\n        /* \"#utility.yul\":5842:5860   */\n      tag_145\n      tag_116\n      jump\t// in\n    tag_145:\n        /* \"#utility.yul\":5774:5862   */\n    tag_144:\n        /* \"#utility.yul\":5882:5892   */\n      dup1\n        /* \"#utility.yul\":5878:5880   */\n      0x40\n        /* \"#utility.yul\":5871:5893   */\n      mstore\n        /* \"#utility.yul\":5661:5899   */\n      pop\n        /* \"#utility.yul\":5618:5899   */\n      pop\n      pop\n      jump\t// out\n        /* \"#utility.yul\":5905:6085   */\n    tag_27:\n        /* \"#utility.yul\":5953:6030   */\n      0x4e487b7100000000000000000000000000000000000000000000000000000000\n        /* \"#utility.yul\":5950:5951   */\n      0x00\n        /* \"#utility.yul\":5943:6031   */\n      mstore\n        /* \"#utility.yul\":6050:6054   */\n      0x21\n        /* \"#utility.yul\":6047:6048   */\n      0x04\n        /* \"#utility.yul\":6040:6055   */\n      mstore\n        /* \"#utility.yul\":6074:6078   */\n      0x24\n        /* \"#utility.yul\":6071:6072   */\n      0x00\n        /* \"#utility.yul\":6064:6079   */\n      revert\n        /* \"#utility.yul\":6091:6271   */\n    tag_141:\n        /* \"#utility.yul\":6139:6216   */\n      0x4e487b7100000000000000000000000000000000000000000000000000000000\n        /* \"#utility.yul\":6136:6137   */\n      0x00\n        /* \"#utility.yul\":6129:6217   */\n      mstore\n        /* \"#utility.yul\":6236:6240   */\n      0x22\n        /* \"#utility.yul\":6233:6234   */\n      0x04\n        /* \"#utility.yul\":6226:6241   */\n      mstore\n        /* \"#utility.yul\":6260:6264   */\n      0x24\n        /* \"#utility.yul\":6257:6258   */\n      0x00\n        /* \"#utility.yul\":6250:6265   */\n      revert\n        /* \"#utility.yul\":6277:6457   */\n    tag_116:\n        /* \"#utility.yul\":6325:6402   */\n      0x4e487b7100000000000000000000000000000000000000000000000000000000\n        /* \"#utility.yul\":6322:6323   */\n      0x00\n        /* \"#utility.yul\":6315:6403   */\n      mstore\n        /* \"#utility.yul\":6422:6426   */\n      0x41\n        /* \"#utility.yul\":6419:6420   */\n      0x04\n        /* \"#utility.yul\":6412:6427   */\n      mstore\n        /* \"#utility.yul\":6446:6450   */\n      0x24\n        /* \"#utility.yul\":6443:6444   */\n      0x00\n        /* \"#utility.yul\":6436:6451   */\n      revert\n        /* \"#utility.yul\":6463:6580   */\n    tag_63:\n        /* \"#utility.yul\":6572:6573   */\n      0x00\n        /* \"#utility.yul\":6569:6570   */\n      dup1\n        /* \"#utility.yul\":6562:6574   */\n      revert\n        /* \"#utility.yul\":6586:6703   */\n    tag_52:\n        /* \"#utility.yul\":6695:6696   */\n      0x00\n        /* \"#utility.yul\":6692:6693   */\n      dup1\n        /* \"#utility.yul\":6685:6697   */\n      revert\n        /* \"#utility.yul\":6709:6826   */\n    tag_76:\n        /* \"#utility.yul\":6818:6819   */\n      0x00\n        /* \"#utility.yul\":6815:6816   */\n      dup1\n        /* \"#utility.yul\":6808:6820   */\n      revert\n        /* \"#utility.yul\":6832:6949   */\n    tag_72:\n        /* \"#utility.yul\":6941:6942   */\n      0x00\n        /* \"#utility.yul\":6938:6939   */\n      dup1\n        /* \"#utility.yul\":6931:6943   */\n      revert\n        /* \"#utility.yul\":6955:7057   */\n    tag_96:\n        /* \"#utility.yul\":6996:7002   */\n      0x00\n        /* \"#utility.yul\":7047:7049   */\n      0x1f\n        /* \"#utility.yul\":7043:7050   */\n      not\n        /* \"#utility.yul\":7038:7040   */\n      0x1f\n        /* \"#utility.yul\":7031:7036   */\n      dup4\n        /* \"#utility.yul\":7027:7041   */\n      add\n        /* \"#utility.yul\":7023:7051   */\n      and\n        /* \"#utility.yul\":7013:7051   */\n      swap1\n      pop\n        /* \"#utility.yul\":6955:7057   */\n      swap2\n      swap1\n      pop\n      jump\t// out\n        /* \"#utility.yul\":7063:7176   */\n    tag_126:\n        /* \"#utility.yul\":7144:7145   */\n      0x03\n        /* \"#utility.yul\":7137:7142   */\n      dup2\n        /* \"#utility.yul\":7134:7146   */\n      lt\n        /* \"#utility.yul\":7124:7170   */\n      tag_155\n      jumpi\n        /* \"#utility.yul\":7150:7168   */\n      tag_156\n      tag_27\n      jump\t// in\n    tag_156:\n        /* \"#utility.yul\":7124:7170   */\n    tag_155:\n        /* \"#utility.yul\":7063:7176   */\n      pop\n      jump\t// out\n        /* \"#utility.yul\":7182:7304   */\n    tag_58:\n        /* \"#utility.yul\":7255:7279   */\n      tag_158\n        /* \"#utility.yul\":7273:7278   */\n      dup2\n        /* \"#utility.yul\":7255:7279   */\n      tag_82\n      jump\t// in\n    tag_158:\n        /* \"#utility.yul\":7248:7253   */\n      dup2\n        /* \"#utility.yul\":7245:7280   */\n      eq\n        /* \"#utility.yul\":7235:7298   */\n      tag_159\n      jumpi\n        /* \"#utility.yul\":7294:7295   */\n      0x00\n        /* \"#utility.yul\":7291:7292   */\n      dup1\n        /* \"#utility.yul\":7284:7296   */\n      revert\n        /* \"#utility.yul\":7235:7298   */\n    tag_159:\n        /* \"#utility.yul\":7182:7304   */\n      pop\n      jump\t// out\n        /* \"#utility.yul\":7310:7432   */\n    tag_68:\n        /* \"#utility.yul\":7383:7407   */\n      tag_161\n        /* \"#utility.yul\":7401:7406   */\n      dup2\n        /* \"#utility.yul\":7383:7407   */\n      tag_100\n      jump\t// in\n    tag_161:\n        /* \"#utility.yul\":7376:7381   */\n      dup2\n        /* \"#utility.yul\":7373:7408   */\n      eq\n        /* \"#utility.yul\":7363:7426   */\n      tag_162\n      jumpi\n        /* \"#utility.yul\":7422:7423   */\n      0x00\n        /* \"#utility.yul\":7419:7420   */\n      dup1\n        /* \"#utility.yul\":7412:7424   */\n      revert\n        /* \"#utility.yul\":7363:7426   */\n    tag_162:\n        /* \"#utility.yul\":7310:7432   */\n      pop\n      jump\t// out\n\n    auxdata: 0xa264697066735822122053a5846c72f68f683fbbb7e8d8c80b8160dc3b5d2133d7e3d0f3268d5cac160b64736f6c63430008070033\n}\n",
				"bytecode": {
					"linkReferences": {},
					"object": "60806040526000600360006101000a81548160ff021916908360028111156200002d576200002c6200038c565b5b02179055503480156200003f57600080fd5b5060405162000bce38038062000bce83398181016040528101906200006591906200021b565b816000800181905550806000600101908051906020019062000089929190620000d6565b5033600060020160006101000a81548173ffffffffffffffffffffffffffffffffffffffff021916908373ffffffffffffffffffffffffffffffffffffffff160217905550505062000458565b828054620000e49062000320565b90600052602060002090601f01602090048101928262000108576000855562000154565b82601f106200012357805160ff191683800117855562000154565b8280016001018555821562000154579182015b828111156200015357825182559160200191906001019062000136565b5b50905062000163919062000167565b5090565b5b808211156200018257600081600090555060010162000168565b5090565b60006200019d6200019784620002aa565b62000281565b905082815260208101848484011115620001bc57620001bb6200041e565b5b620001c9848285620002ea565b509392505050565b600082601f830112620001e957620001e862000419565b5b8151620001fb84826020860162000186565b91505092915050565b60008151905062000215816200043e565b92915050565b6000806040838503121562000235576200023462000428565b5b6000620002458582860162000204565b925050602083015167ffffffffffffffff81111562000269576200026862000423565b5b6200027785828601620001d1565b9150509250929050565b60006200028d620002a0565b90506200029b828262000356565b919050565b6000604051905090565b600067ffffffffffffffff821115620002c857620002c7620003ea565b5b620002d3826200042d565b9050602081019050919050565b6000819050919050565b60005b838110156200030a578082015181840152602081019050620002ed565b838111156200031a576000848401525b50505050565b600060028204905060018216806200033957607f821691505b6020821081141562000350576200034f620003bb565b5b50919050565b62000361826200042d565b810181811067ffffffffffffffff82111715620003835762000382620003ea565b5b80604052505050565b7f4e487b7100000000000000000000000000000000000000000000000000000000600052602160045260246000fd5b7f4e487b7100000000000000000000000000000000000000000000000000000000600052602260045260246000fd5b7f4e487b7100000000000000000000000000000000000000000000000000000000600052604160045260246000fd5b600080fd5b600080fd5b600080fd5b600080fd5b6000601f19601f8301169050919050565b6200044981620002e0565b81146200045557600080fd5b50565b61076680620004686000396000f3fe608060405234801561001057600080fd5b50600436106100415760003560e01c806323b8ca9f146100465780635424884114610064578063a46878fb14610084575b600080fd5b61004e6100a0565b60405161005b919061046b565b60405180910390f35b61006c6100b3565b60405161007b93929190610486565b60405180910390f35b61009e60048036038101906100999190610396565b610173565b005b600360009054906101000a900460ff1681565b60008060000154908060010180546100ca906105d9565b80601f01602080910402602001604051908101604052809291908181526020018280546100f6906105d9565b80156101435780601f1061011857610100808354040283529160200191610143565b820191906000526020600020905b81548152906001019060200180831161012657829003601f168201915b5050505050908060020160009054906101000a900473ffffffffffffffffffffffffffffffffffffffff16905083565b600060028111156101875761018661063c565b5b600360009054906101000a900460ff1660028111156101a9576101a861063c565b5b5050600060405180606001604052808581526020018481526020018373ffffffffffffffffffffffffffffffffffffffff1681525090508060008082015181600001556020820151816001019080519060200190610208929190610259565b5060408201518160020160006101000a81548173ffffffffffffffffffffffffffffffffffffffff021916908373ffffffffffffffffffffffffffffffffffffffff16021790555090505050505050565b828054610265906105d9565b90600052602060002090601f01602090048101928261028757600085556102ce565b82601f106102a057805160ff19168380011785556102ce565b828001600101855582156102ce579182015b828111156102cd5782518255916020019190600101906102b2565b5b5090506102db91906102df565b5090565b5b808211156102f85760008160009055506001016102e0565b5090565b600061030f61030a846104e9565b6104c4565b90508281526020810184848401111561032b5761032a6106ce565b5b610336848285610597565b509392505050565b60008135905061034d81610702565b92915050565b600082601f830112610368576103676106c9565b5b81356103788482602086016102fc565b91505092915050565b60008135905061039081610719565b92915050565b6000806000606084860312156103af576103ae6106d8565b5b60006103bd86828701610381565b935050602084013567ffffffffffffffff8111156103de576103dd6106d3565b5b6103ea86828701610353565b92505060406103fb8682870161033e565b9150509250925092565b61040e81610536565b82525050565b61041d81610585565b82525050565b600061042e8261051a565b6104388185610525565b93506104488185602086016105a6565b610451816106dd565b840191505092915050565b6104658161057b565b82525050565b60006020820190506104806000830184610414565b92915050565b600060608201905061049b600083018661045c565b81810360208301526104ad8185610423565b90506104bc6040830184610405565b949350505050565b60006104ce6104df565b90506104da828261060b565b919050565b6000604051905090565b600067ffffffffffffffff8211156105045761050361069a565b5b61050d826106dd565b9050602081019050919050565b600081519050919050565b600082825260208201905092915050565b60006105418261055b565b9050919050565b6000819050610556826106ee565b919050565b600073ffffffffffffffffffffffffffffffffffffffff82169050919050565b6000819050919050565b600061059082610548565b9050919050565b82818337600083830152505050565b60005b838110156105c45780820151818401526020810190506105a9565b838111156105d3576000848401525b50505050565b600060028204905060018216806105f157607f821691505b602082108114156106055761060461066b565b5b50919050565b610614826106dd565b810181811067ffffffffffffffff821117156106335761063261069a565b5b80604052505050565b7f4e487b7100000000000000000000000000000000000000000000000000000000600052602160045260246000fd5b7f4e487b7100000000000000000000000000000000000000000000000000000000600052602260045260246000fd5b7f4e487b7100000000000000000000000000000000000000000000000000000000600052604160045260246000fd5b600080fd5b600080fd5b600080fd5b600080fd5b6000601f19601f8301169050919050565b600381106106ff576106fe61063c565b5b50565b61070b81610536565b811461071657600080fd5b50565b6107228161057b565b811461072d57600080fd5b5056fea264697066735822122053a5846c72f68f683fbbb7e8d8c80b8160dc3b5d2133d7e3d0f3268d5cac160b64736f6c63430008070033",
					"opcodes": "PUSH1 0x80 PUSH1 0x40 MSTORE PUSH1 0x0 PUSH1 0x3 PUSH1 0x0 PUSH2 0x100 EXP DUP2 SLOAD DUP2 PUSH1 0xFF MUL NOT AND SWAP1 DUP4 PUSH1 0x2 DUP2 GT ISZERO PUSH3 0x2D JUMPI PUSH3 0x2C PUSH3 0x38C JUMP JUMPDEST JUMPDEST MUL OR SWAP1 SSTORE POP CALLVALUE DUP1 ISZERO PUSH3 0x3F JUMPI PUSH1 0x0 DUP1 REVERT JUMPDEST POP PUSH1 0x40 MLOAD PUSH3 0xBCE CODESIZE SUB DUP1 PUSH3 0xBCE DUP4 CODECOPY DUP2 DUP2 ADD PUSH1 0x40 MSTORE DUP2 ADD SWAP1 PUSH3 0x65 SWAP2 SWAP1 PUSH3 0x21B JUMP JUMPDEST DUP2 PUSH1 0x0 DUP1 ADD DUP2 SWAP1 SSTORE POP DUP1 PUSH1 0x0 PUSH1 0x1 ADD SWAP1 DUP1 MLOAD SWAP1 PUSH1 0x20 ADD SWAP1 PUSH3 0x89 SWAP3 SWAP2 SWAP1 PUSH3 0xD6 JUMP JUMPDEST POP CALLER PUSH1 0x0 PUSH1 0x2 ADD PUSH1 0x0 PUSH2 0x100 EXP DUP2 SLOAD DUP2 PUSH20 0xFFFFFFFFFFFFFFFFFFFFFFFFFFFFFFFFFFFFFFFF MUL NOT AND SWAP1 DUP4 PUSH20 0xFFFFFFFFFFFFFFFFFFFFFFFFFFFFFFFFFFFFFFFF AND MUL OR SWAP1 SSTORE POP POP POP PUSH3 0x458 JUMP JUMPDEST DUP3 DUP1 SLOAD PUSH3 0xE4 SWAP1 PUSH3 0x320 JUMP JUMPDEST SWAP1 PUSH1 0x0 MSTORE PUSH1 0x20 PUSH1 0x0 KECCAK256 SWAP1 PUSH1 0x1F ADD PUSH1 0x20 SWAP1 DIV DUP2 ADD SWAP3 DUP3 PUSH3 0x108 JUMPI PUSH1 0x0 DUP6 SSTORE PUSH3 0x154 JUMP JUMPDEST DUP3 PUSH1 0x1F LT PUSH3 0x123 JUMPI DUP1 MLOAD PUSH1 0xFF NOT AND DUP4 DUP1 ADD OR DUP6 SSTORE PUSH3 0x154 JUMP JUMPDEST DUP3 DUP1 ADD PUSH1 0x1 ADD DUP6 SSTORE DUP3 ISZERO PUSH3 0x154 JUMPI SWAP2 DUP3 ADD JUMPDEST DUP3 DUP2 GT ISZERO PUSH3 0x153 JUMPI DUP3 MLOAD DUP3 SSTORE SWAP2 PUSH1 0x20 ADD SWAP2 SWAP1 PUSH1 0x1 ADD SWAP1 PUSH3 0x136 JUMP JUMPDEST JUMPDEST POP SWAP1 POP PUSH3 0x163 SWAP2 SWAP1 PUSH3 0x167 JUMP JUMPDEST POP SWAP1 JUMP JUMPDEST JUMPDEST DUP1 DUP3 GT ISZERO PUSH3 0x182 JUMPI PUSH1 0x0 DUP2 PUSH1 0x0 SWAP1 SSTORE POP PUSH1 0x1 ADD PUSH3 0x168 JUMP JUMPDEST POP SWAP1 JUMP JUMPDEST PUSH1 0x0 PUSH3 0x19D PUSH3 0x197 DUP5 PUSH3 0x2AA JUMP JUMPDEST PUSH3 0x281 JUMP JUMPDEST SWAP1 POP DUP3 DUP2 MSTORE PUSH1 0x20 DUP2 ADD DUP5 DUP5 DUP5 ADD GT ISZERO PUSH3 0x1BC JUMPI PUSH3 0x1BB PUSH3 0x41E JUMP JUMPDEST JUMPDEST PUSH3 0x1C9 DUP5 DUP3 DUP6 PUSH3 0x2EA JUMP JUMPDEST POP SWAP4 SWAP3 POP POP POP JUMP JUMPDEST PUSH1 0x0 DUP3 PUSH1 0x1F DUP4 ADD SLT PUSH3 0x1E9 JUMPI PUSH3 0x1E8 PUSH3 0x419 JUMP JUMPDEST JUMPDEST DUP2 MLOAD PUSH3 0x1FB DUP5 DUP3 PUSH1 0x20 DUP7 ADD PUSH3 0x186 JUMP JUMPDEST SWAP2 POP POP SWAP3 SWAP2 POP POP JUMP JUMPDEST PUSH1 0x0 DUP2 MLOAD SWAP1 POP PUSH3 0x215 DUP2 PUSH3 0x43E JUMP JUMPDEST SWAP3 SWAP2 POP POP JUMP JUMPDEST PUSH1 0x0 DUP1 PUSH1 0x40 DUP4 DUP6 SUB SLT ISZERO PUSH3 0x235 JUMPI PUSH3 0x234 PUSH3 0x428 JUMP JUMPDEST JUMPDEST PUSH1 0x0 PUSH3 0x245 DUP6 DUP3 DUP7 ADD PUSH3 0x204 JUMP JUMPDEST SWAP3 POP POP PUSH1 0x20 DUP4 ADD MLOAD PUSH8 0xFFFFFFFFFFFFFFFF DUP2 GT ISZERO PUSH3 0x269 JUMPI PUSH3 0x268 PUSH3 0x423 JUMP JUMPDEST JUMPDEST PUSH3 0x277 DUP6 DUP3 DUP7 ADD PUSH3 0x1D1 JUMP JUMPDEST SWAP2 POP POP SWAP3 POP SWAP3 SWAP1 POP JUMP JUMPDEST PUSH1 0x0 PUSH3 0x28D PUSH3 0x2A0 JUMP JUMPDEST SWAP1 POP PUSH3 0x29B DUP3 DUP3 PUSH3 0x356 JUMP JUMPDEST SWAP2 SWAP1 POP JUMP JUMPDEST PUSH1 0x0 PUSH1 0x40 MLOAD SWAP1 POP SWAP1 JUMP JUMPDEST PUSH1 0x0 PUSH8 0xFFFFFFFFFFFFFFFF DUP3 GT ISZERO PUSH3 0x2C8 JUMPI PUSH3 0x2C7 PUSH3 0x3EA JUMP JUMPDEST JUMPDEST PUSH3 0x2D3 DUP3 PUSH3 0x42D JUMP JUMPDEST SWAP1 POP PUSH1 0x20 DUP2 ADD SWAP1 POP SWAP2 SWAP1 POP JUMP JUMPDEST PUSH1 0x0 DUP2 SWAP1 POP SWAP2 SWAP1 POP JUMP JUMPDEST PUSH1 0x0 JUMPDEST DUP4 DUP2 LT ISZERO PUSH3 0x30A JUMPI DUP1 DUP3 ADD MLOAD DUP2 DUP5 ADD MSTORE PUSH1 0x20 DUP2 ADD SWAP1 POP PUSH3 0x2ED JUMP JUMPDEST DUP4 DUP2 GT ISZERO PUSH3 0x31A JUMPI PUSH1 0x0 DUP5 DUP5 ADD MSTORE JUMPDEST POP POP POP POP JUMP JUMPDEST PUSH1 0x0 PUSH1 0x2 DUP3 DIV SWAP1 POP PUSH1 0x1 DUP3 AND DUP1 PUSH3 0x339 JUMPI PUSH1 0x7F DUP3 AND SWAP2 POP JUMPDEST PUSH1 0x20 DUP3 LT DUP2 EQ ISZERO PUSH3 0x350 JUMPI PUSH3 0x34F PUSH3 0x3BB JUMP JUMPDEST JUMPDEST POP SWAP2 SWAP1 POP JUMP JUMPDEST PUSH3 0x361 DUP3 PUSH3 0x42D JUMP JUMPDEST DUP2 ADD DUP2 DUP2 LT PUSH8 0xFFFFFFFFFFFFFFFF DUP3 GT OR ISZERO PUSH3 0x383 JUMPI PUSH3 0x382 PUSH3 0x3EA JUMP JUMPDEST JUMPDEST DUP1 PUSH1 0x40 MSTORE POP POP POP JUMP JUMPDEST PUSH32 0x4E487B7100000000000000000000000000000000000000000000000000000000 PUSH1 0x0 MSTORE PUSH1 0x21 PUSH1 0x4 MSTORE PUSH1 0x24 PUSH1 0x0 REVERT JUMPDEST PUSH32 0x4E487B7100000000000000000000000000000000000000000000000000000000 PUSH1 0x0 MSTORE PUSH1 0x22 PUSH1 0x4 MSTORE PUSH1 0x24 PUSH1 0x0 REVERT JUMPDEST PUSH32 0x4E487B7100000000000000000000000000000000000000000000000000000000 PUSH1 0x0 MSTORE PUSH1 0x41 PUSH1 0x4 MSTORE PUSH1 0x24 PUSH1 0x0 REVERT JUMPDEST PUSH1 0x0 DUP1 REVERT JUMPDEST PUSH1 0x0 DUP1 REVERT JUMPDEST PUSH1 0x0 DUP1 REVERT JUMPDEST PUSH1 0x0 DUP1 REVERT JUMPDEST PUSH1 0x0 PUSH1 0x1F NOT PUSH1 0x1F DUP4 ADD AND SWAP1 POP SWAP2 SWAP1 POP JUMP JUMPDEST PUSH3 0x449 DUP2 PUSH3 0x2E0 JUMP JUMPDEST DUP2 EQ PUSH3 0x455 JUMPI PUSH1 0x0 DUP1 REVERT JUMPDEST POP JUMP JUMPDEST PUSH2 0x766 DUP1 PUSH3 0x468 PUSH1 0x0 CODECOPY PUSH1 0x0 RETURN INVALID PUSH1 0x80 PUSH1 0x40 MSTORE CALLVALUE DUP1 ISZERO PUSH2 0x10 JUMPI PUSH1 0x0 DUP1 REVERT JUMPDEST POP PUSH1 0x4 CALLDATASIZE LT PUSH2 0x41 JUMPI PUSH1 0x0 CALLDATALOAD PUSH1 0xE0 SHR DUP1 PUSH4 0x23B8CA9F EQ PUSH2 0x46 JUMPI DUP1 PUSH4 0x54248841 EQ PUSH2 0x64 JUMPI DUP1 PUSH4 0xA46878FB EQ PUSH2 0x84 JUMPI JUMPDEST PUSH1 0x0 DUP1 REVERT JUMPDEST PUSH2 0x4E PUSH2 0xA0 JUMP JUMPDEST PUSH1 0x40 MLOAD PUSH2 0x5B SWAP2 SWAP1 PUSH2 0x46B JUMP JUMPDEST PUSH1 0x40 MLOAD DUP1 SWAP2 SUB SWAP1 RETURN JUMPDEST PUSH2 0x6C PUSH2 0xB3 JUMP JUMPDEST PUSH1 0x40 MLOAD PUSH2 0x7B SWAP4 SWAP3 SWAP2 SWAP1 PUSH2 0x486 JUMP JUMPDEST PUSH1 0x40 MLOAD DUP1 SWAP2 SUB SWAP1 RETURN JUMPDEST PUSH2 0x9E PUSH1 0x4 DUP1 CALLDATASIZE SUB DUP2 ADD SWAP1 PUSH2 0x99 SWAP2 SWAP1 PUSH2 0x396 JUMP JUMPDEST PUSH2 0x173 JUMP JUMPDEST STOP JUMPDEST PUSH1 0x3 PUSH1 0x0 SWAP1 SLOAD SWAP1 PUSH2 0x100 EXP SWAP1 DIV PUSH1 0xFF AND DUP2 JUMP JUMPDEST PUSH1 0x0 DUP1 PUSH1 0x0 ADD SLOAD SWAP1 DUP1 PUSH1 0x1 ADD DUP1 SLOAD PUSH2 0xCA SWAP1 PUSH2 0x5D9 JUMP JUMPDEST DUP1 PUSH1 0x1F ADD PUSH1 0x20 DUP1 SWAP2 DIV MUL PUSH1 0x20 ADD PUSH1 0x40 MLOAD SWAP1 DUP2 ADD PUSH1 0x40 MSTORE DUP1 SWAP3 SWAP2 SWAP1 DUP2 DUP2 MSTORE PUSH1 0x20 ADD DUP3 DUP1 SLOAD PUSH2 0xF6 SWAP1 PUSH2 0x5D9 JUMP JUMPDEST DUP1 ISZERO PUSH2 0x143 JUMPI DUP1 PUSH1 0x1F LT PUSH2 0x118 JUMPI PUSH2 0x100 DUP1 DUP4 SLOAD DIV MUL DUP4 MSTORE SWAP2 PUSH1 0x20 ADD SWAP2 PUSH2 0x143 JUMP JUMPDEST DUP3 ADD SWAP2 SWAP1 PUSH1 0x0 MSTORE PUSH1 0x20 PUSH1 0x0 KECCAK256 SWAP1 JUMPDEST DUP2 SLOAD DUP2 MSTORE SWAP1 PUSH1 0x1 ADD SWAP1 PUSH1 0x20 ADD DUP1 DUP4 GT PUSH2 0x126 JUMPI DUP3 SWAP1 SUB PUSH1 0x1F AND DUP3 ADD SWAP2 JUMPDEST POP POP POP POP POP SWAP1 DUP1 PUSH1 0x2 ADD PUSH1 0x0 SWAP1 SLOAD SWAP1 PUSH2 0x100 EXP SWAP1 DIV PUSH20 0xFFFFFFFFFFFFFFFFFFFFFFFFFFFFFFFFFFFFFFFF AND SWAP1 POP DUP4 JUMP JUMPDEST PUSH1 0x0 PUSH1 0x2 DUP2 GT ISZERO PUSH2 0x187 JUMPI PUSH2 0x186 PUSH2 0x63C JUMP JUMPDEST JUMPDEST PUSH1 0x3 PUSH1 0x0 SWAP1 SLOAD SWAP1 PUSH2 0x100 EXP SWAP1 DIV PUSH1 0xFF AND PUSH1 0x2 DUP2 GT ISZERO PUSH2 0x1A9 JUMPI PUSH2 0x1A8 PUSH2 0x63C JUMP JUMPDEST JUMPDEST POP POP PUSH1 0x0 PUSH1 0x40 MLOAD DUP1 PUSH1 0x60 ADD PUSH1 0x40 MSTORE DUP1 DUP6 DUP2 MSTORE PUSH1 0x20 ADD DUP5 DUP2 MSTORE PUSH1 0x20 ADD DUP4 PUSH20 0xFFFFFFFFFFFFFFFFFFFFFFFFFFFFFFFFFFFFFFFF AND DUP2 MSTORE POP SWAP1 POP DUP1 PUSH1 0x0 DUP1 DUP3 ADD MLOAD DUP2 PUSH1 0x0 ADD SSTORE PUSH1 0x20 DUP3 ADD MLOAD DUP2 PUSH1 0x1 ADD SWAP1 DUP1 MLOAD SWAP1 PUSH1 0x20 ADD SWAP1 PUSH2 0x208 SWAP3 SWAP2 SWAP1 PUSH2 0x259 JUMP JUMPDEST POP PUSH1 0x40 DUP3 ADD MLOAD DUP2 PUSH1 0x2 ADD PUSH1 0x0 PUSH2 0x100 EXP DUP2 SLOAD DUP2 PUSH20 0xFFFFFFFFFFFFFFFFFFFFFFFFFFFFFFFFFFFFFFFF MUL NOT AND SWAP1 DUP4 PUSH20 0xFFFFFFFFFFFFFFFFFFFFFFFFFFFFFFFFFFFFFFFF AND MUL OR SWAP1 SSTORE POP SWAP1 POP POP POP POP POP POP JUMP JUMPDEST DUP3 DUP1 SLOAD PUSH2 0x265 SWAP1 PUSH2 0x5D9 JUMP JUMPDEST SWAP1 PUSH1 0x0 MSTORE PUSH1 0x20 PUSH1 0x0 KECCAK256 SWAP1 PUSH1 0x1F ADD PUSH1 0x20 SWAP1 DIV DUP2 ADD SWAP3 DUP3 PUSH2 0x287 JUMPI PUSH1 0x0 DUP6 SSTORE PUSH2 0x2CE JUMP JUMPDEST DUP3 PUSH1 0x1F LT PUSH2 0x2A0 JUMPI DUP1 MLOAD PUSH1 0xFF NOT AND DUP4 DUP1 ADD OR DUP6 SSTORE PUSH2 0x2CE JUMP JUMPDEST DUP3 DUP1 ADD PUSH1 0x1 ADD DUP6 SSTORE DUP3 ISZERO PUSH2 0x2CE JUMPI SWAP2 DUP3 ADD JUMPDEST DUP3 DUP2 GT ISZERO PUSH2 0x2CD JUMPI DUP3 MLOAD DUP3 SSTORE SWAP2 PUSH1 0x20 ADD SWAP2 SWAP1 PUSH1 0x1 ADD SWAP1 PUSH2 0x2B2 JUMP JUMPDEST JUMPDEST POP SWAP1 POP PUSH2 0x2DB SWAP2 SWAP1 PUSH2 0x2DF JUMP JUMPDEST POP SWAP1 JUMP JUMPDEST JUMPDEST DUP1 DUP3 GT ISZERO PUSH2 0x2F8 JUMPI PUSH1 0x0 DUP2 PUSH1 0x0 SWAP1 SSTORE POP PUSH1 0x1 ADD PUSH2 0x2E0 JUMP JUMPDEST POP SWAP1 JUMP JUMPDEST PUSH1 0x0 PUSH2 0x30F PUSH2 0x30A DUP5 PUSH2 0x4E9 JUMP JUMPDEST PUSH2 0x4C4 JUMP JUMPDEST SWAP1 POP DUP3 DUP2 MSTORE PUSH1 0x20 DUP2 ADD DUP5 DUP5 DUP5 ADD GT ISZERO PUSH2 0x32B JUMPI PUSH2 0x32A PUSH2 0x6CE JUMP JUMPDEST JUMPDEST PUSH2 0x336 DUP5 DUP3 DUP6 PUSH2 0x597 JUMP JUMPDEST POP SWAP4 SWAP3 POP POP POP JUMP JUMPDEST PUSH1 0x0 DUP2 CALLDATALOAD SWAP1 POP PUSH2 0x34D DUP2 PUSH2 0x702 JUMP JUMPDEST SWAP3 SWAP2 POP POP JUMP JUMPDEST PUSH1 0x0 DUP3 PUSH1 0x1F DUP4 ADD SLT PUSH2 0x368 JUMPI PUSH2 0x367 PUSH2 0x6C9 JUMP JUMPDEST JUMPDEST DUP2 CALLDATALOAD PUSH2 0x378 DUP5 DUP3 PUSH1 0x20 DUP7 ADD PUSH2 0x2FC JUMP JUMPDEST SWAP2 POP POP SWAP3 SWAP2 POP POP JUMP JUMPDEST PUSH1 0x0 DUP2 CALLDATALOAD SWAP1 POP PUSH2 0x390 DUP2 PUSH2 0x719 JUMP JUMPDEST SWAP3 SWAP2 POP POP JUMP JUMPDEST PUSH1 0x0 DUP1 PUSH1 0x0 PUSH1 0x60 DUP5 DUP7 SUB SLT ISZERO PUSH2 0x3AF JUMPI PUSH2 0x3AE PUSH2 0x6D8 JUMP JUMPDEST JUMPDEST PUSH1 0x0 PUSH2 0x3BD DUP7 DUP3 DUP8 ADD PUSH2 0x381 JUMP JUMPDEST SWAP4 POP POP PUSH1 0x20 DUP5 ADD CALLDATALOAD PUSH8 0xFFFFFFFFFFFFFFFF DUP2 GT ISZERO PUSH2 0x3DE JUMPI PUSH2 0x3DD PUSH2 0x6D3 JUMP JUMPDEST JUMPDEST PUSH2 0x3EA DUP7 DUP3 DUP8 ADD PUSH2 0x353 JUMP JUMPDEST SWAP3 POP POP PUSH1 0x40 PUSH2 0x3FB DUP7 DUP3 DUP8 ADD PUSH2 0x33E JUMP JUMPDEST SWAP2 POP POP SWAP3 POP SWAP3 POP SWAP3 JUMP JUMPDEST PUSH2 0x40E DUP2 PUSH2 0x536 JUMP JUMPDEST DUP3 MSTORE POP POP JUMP JUMPDEST PUSH2 0x41D DUP2 PUSH2 0x585 JUMP JUMPDEST DUP3 MSTORE POP POP JUMP JUMPDEST PUSH1 0x0 PUSH2 0x42E DUP3 PUSH2 0x51A JUMP JUMPDEST PUSH2 0x438 DUP2 DUP6 PUSH2 0x525 JUMP JUMPDEST SWAP4 POP PUSH2 0x448 DUP2 DUP6 PUSH1 0x20 DUP7 ADD PUSH2 0x5A6 JUMP JUMPDEST PUSH2 0x451 DUP2 PUSH2 0x6DD JUMP JUMPDEST DUP5 ADD SWAP2 POP POP SWAP3 SWAP2 POP POP JUMP JUMPDEST PUSH2 0x465 DUP2 PUSH2 0x57B JUMP JUMPDEST DUP3 MSTORE POP POP JUMP JUMPDEST PUSH1 0x0 PUSH1 0x20 DUP3 ADD SWAP1 POP PUSH2 0x480 PUSH1 0x0 DUP4 ADD DUP5 PUSH2 0x414 JUMP JUMPDEST SWAP3 SWAP2 POP POP JUMP JUMPDEST PUSH1 0x0 PUSH1 0x60 DUP3 ADD SWAP1 POP PUSH2 0x49B PUSH1 0x0 DUP4 ADD DUP7 PUSH2 0x45C JUMP JUMPDEST DUP2 DUP2 SUB PUSH1 0x20 DUP4 ADD MSTORE PUSH2 0x4AD DUP2 DUP6 PUSH2 0x423 JUMP JUMPDEST SWAP1 POP PUSH2 0x4BC PUSH1 0x40 DUP4 ADD DUP5 PUSH2 0x405 JUMP JUMPDEST SWAP5 SWAP4 POP POP POP POP JUMP JUMPDEST PUSH1 0x0 PUSH2 0x4CE PUSH2 0x4DF JUMP JUMPDEST SWAP1 POP PUSH2 0x4DA DUP3 DUP3 PUSH2 0x60B JUMP JUMPDEST SWAP2 SWAP1 POP JUMP JUMPDEST PUSH1 0x0 PUSH1 0x40 MLOAD SWAP1 POP SWAP1 JUMP JUMPDEST PUSH1 0x0 PUSH8 0xFFFFFFFFFFFFFFFF DUP3 GT ISZERO PUSH2 0x504 JUMPI PUSH2 0x503 PUSH2 0x69A JUMP JUMPDEST JUMPDEST PUSH2 0x50D DUP3 PUSH2 0x6DD JUMP JUMPDEST SWAP1 POP PUSH1 0x20 DUP2 ADD SWAP1 POP SWAP2 SWAP1 POP JUMP JUMPDEST PUSH1 0x0 DUP2 MLOAD SWAP1 POP SWAP2 SWAP1 POP JUMP JUMPDEST PUSH1 0x0 DUP3 DUP3 MSTORE PUSH1 0x20 DUP3 ADD SWAP1 POP SWAP3 SWAP2 POP POP JUMP JUMPDEST PUSH1 0x0 PUSH2 0x541 DUP3 PUSH2 0x55B JUMP JUMPDEST SWAP1 POP SWAP2 SWAP1 POP JUMP JUMPDEST PUSH1 0x0 DUP2 SWAP1 POP PUSH2 0x556 DUP3 PUSH2 0x6EE JUMP JUMPDEST SWAP2 SWAP1 POP JUMP JUMPDEST PUSH1 0x0 PUSH20 0xFFFFFFFFFFFFFFFFFFFFFFFFFFFFFFFFFFFFFFFF DUP3 AND SWAP1 POP SWAP2 SWAP1 POP JUMP JUMPDEST PUSH1 0x0 DUP2 SWAP1 POP SWAP2 SWAP1 POP JUMP JUMPDEST PUSH1 0x0 PUSH2 0x590 DUP3 PUSH2 0x548 JUMP JUMPDEST SWAP1 POP SWAP2 SWAP1 POP JUMP JUMPDEST DUP3 DUP2 DUP4 CALLDATACOPY PUSH1 0x0 DUP4 DUP4 ADD MSTORE POP POP POP JUMP JUMPDEST PUSH1 0x0 JUMPDEST DUP4 DUP2 LT ISZERO PUSH2 0x5C4 JUMPI DUP1 DUP3 ADD MLOAD DUP2 DUP5 ADD MSTORE PUSH1 0x20 DUP2 ADD SWAP1 POP PUSH2 0x5A9 JUMP JUMPDEST DUP4 DUP2 GT ISZERO PUSH2 0x5D3 JUMPI PUSH1 0x0 DUP5 DUP5 ADD MSTORE JUMPDEST POP POP POP POP JUMP JUMPDEST PUSH1 0x0 PUSH1 0x2 DUP3 DIV SWAP1 POP PUSH1 0x1 DUP3 AND DUP1 PUSH2 0x5F1 JUMPI PUSH1 0x7F DUP3 AND SWAP2 POP JUMPDEST PUSH1 0x20 DUP3 LT DUP2 EQ ISZERO PUSH2 0x605 JUMPI PUSH2 0x604 PUSH2 0x66B JUMP JUMPDEST JUMPDEST POP SWAP2 SWAP1 POP JUMP JUMPDEST PUSH2 0x614 DUP3 PUSH2 0x6DD JUMP JUMPDEST DUP2 ADD DUP2 DUP2 LT PUSH8 0xFFFFFFFFFFFFFFFF DUP3 GT OR ISZERO PUSH2 0x633 JUMPI PUSH2 0x632 PUSH2 0x69A JUMP JUMPDEST JUMPDEST DUP1 PUSH1 0x40 MSTORE POP POP POP JUMP JUMPDEST PUSH32 0x4E487B7100000000000000000000000000000000000000000000000000000000 PUSH1 0x0 MSTORE PUSH1 0x21 PUSH1 0x4 MSTORE PUSH1 0x24 PUSH1 0x0 REVERT JUMPDEST PUSH32 0x4E487B7100000000000000000000000000000000000000000000000000000000 PUSH1 0x0 MSTORE PUSH1 0x22 PUSH1 0x4 MSTORE PUSH1 0x24 PUSH1 0x0 REVERT JUMPDEST PUSH32 0x4E487B7100000000000000000000000000000000000000000000000000000000 PUSH1 0x0 MSTORE PUSH1 0x41 PUSH1 0x4 MSTORE PUSH1 0x24 PUSH1 0x0 REVERT JUMPDEST PUSH1 0x0 DUP1 REVERT JUMPDEST PUSH1 0x0 DUP1 REVERT JUMPDEST PUSH1 0x0 DUP1 REVERT JUMPDEST PUSH1 0x0 DUP1 REVERT JUMPDEST PUSH1 0x0 PUSH1 0x1F NOT PUSH1 0x1F DUP4 ADD AND SWAP1 POP SWAP2 SWAP1 POP JUMP JUMPDEST PUSH1 0x3 DUP2 LT PUSH2 0x6FF JUMPI PUSH2 0x6FE PUSH2 0x63C JUMP JUMPDEST JUMPDEST POP JUMP JUMPDEST PUSH2 0x70B DUP2 PUSH2 0x536 JUMP JUMPDEST DUP2 EQ PUSH2 0x716 JUMPI PUSH1 0x0 DUP1 REVERT JUMPDEST POP JUMP JUMPDEST PUSH2 0x722 DUP2 PUSH2 0x57B JUMP JUMPDEST DUP2 EQ PUSH2 0x72D JUMPI PUSH1 0x0 DUP1 REVERT JUMPDEST POP JUMP INVALID LOG2 PUSH5 0x6970667358 0x22 SLT KECCAK256 MSTORE8 0xA5 DUP5 PUSH13 0x72F68F683FBBB7E8D8C80B8160 0xDC EXTCODESIZE 0x5D 0x21 CALLER 0xD7 0xE3 0xD0 RETURN 0x26 DUP14 0x5C 0xAC AND SIGNEXTEND PUSH5 0x736F6C6343 STOP ADDMOD SMOD STOP CALLER "
				},
				"gasEstimates": {
					"creation": {
						"codeDepositCost": "378800",
						"executionCost": "infinite",
						"totalCost": "infinite"
					},
					"external": {
						"academyInstructor()": "infinite",
						"academyState()": "2538",
						"changeInstructor(uint256,string,address)": "infinite"
					}
				},
				"methodIdentifiers": {
					"academyInstructor()": "54248841",
					"academyState()": "23b8ca9f",
					"changeInstructor(uint256,string,address)": "a46878fb"
				}
			},
			"storageLayout": {
				"storage": [
					{
						"astId": 11,
						"contract": "contracts/structs_guide.sol:Academy",
						"label": "academyInstructor",
						"offset": 0,
						"slot": "0",
						"type": "t_struct(Instructor)8_storage"
					},
					{
						"astId": 20,
						"contract": "contracts/structs_guide.sol:Academy",
						"label": "academyState",
						"offset": 0,
						"slot": "3",
						"type": "t_enum(State)15"
					}
				],
				"types": {
					"t_address": {
						"encoding": "inplace",
						"label": "address",
						"numberOfBytes": "20"
					},
					"t_enum(State)15": {
						"encoding": "inplace",
						"label": "enum Academy.State",
						"numberOfBytes": "1"
					},
					"t_string_storage": {
						"encoding": "bytes",
						"label": "string",
						"numberOfBytes": "32"
					},
					"t_struct(Instructor)8_storage": {
						"encoding": "inplace",
						"label": "struct Instructor",
						"members": [
							{
								"astId": 3,
								"contract": "contracts/structs_guide.sol:Academy",
								"label": "age",
								"offset": 0,
								"slot": "0",
								"type": "t_uint256"
							},
							{
								"astId": 5,
								"contract": "contracts/structs_guide.sol:Academy",
								"label": "name",
								"offset": 0,
								"slot": "1",
								"type": "t_string_storage"
							},
							{
								"astId": 7,
								"contract": "contracts/structs_guide.sol:Academy",
								"label": "addr",
								"offset": 0,
								"slot": "2",
								"type": "t_address"
							}
						],
						"numberOfBytes": "96"
					},
					"t_uint256": {
						"encoding": "inplace",
						"label": "uint256",
						"numberOfBytes": "32"
					}
				}
			},
			"userdoc": {
				"kind": "user",
				"methods": {},
				"version": 1
			}
		}
	}
}