{
	"contracts/newContract.sol": {
		"Property": {
			"abi": [
				{
					"inputs": [
						{
							"internalType": "int256",
							"name": "_price",
							"type": "int256"
						},
						{
							"internalType": "string",
							"name": "_location",
							"type": "string"
						},
						{
							"internalType": "address",
							"name": "owner",
							"type": "address"
						}
					],
					"stateMutability": "nonpayable",
					"type": "constructor"
				},
				{
					"inputs": [],
					"name": "location",
					"outputs": [
						{
							"internalType": "string",
							"name": "",
							"type": "string"
						}
					],
					"stateMutability": "view",
					"type": "function"
				},
				{
					"inputs": [],
					"name": "price",
					"outputs": [
						{
							"internalType": "int256",
							"name": "",
							"type": "int256"
						}
					],
					"stateMutability": "view",
					"type": "function"
				},
				{
					"inputs": [
						{
							"internalType": "string",
							"name": "_location",
							"type": "string"
						}
					],
					"name": "setLocation",
					"outputs": [],
					"stateMutability": "nonpayable",
					"type": "function"
				},
				{
					"inputs": [
						{
							"internalType": "int256",
							"name": "_price",
							"type": "int256"
						}
					],
					"name": "setPrice",
					"outputs": [],
					"stateMutability": "nonpayable",
					"type": "function"
				}
			],
			"devdoc": {
				"kind": "dev",
				"methods": {},
				"version": 1
			},
			"evm": {
				"assembly": "    /* \"contracts/newContract.sol\":63:570  contract Property {\r... */\n  mstore(0x40, 0x80)\n    /* \"contracts/newContract.sol\":113:116  100 */\n  0x64\n    /* \"contracts/newContract.sol\":94:116  int public price = 100 */\n  0x00\n  sstore\n    /* \"contracts/newContract.sol\":123:156  string public location = \"London\" */\n  mload(0x40)\n  dup1\n  0x40\n  add\n  0x40\n  mstore\n  dup1\n  0x06\n  dup2\n  mstore\n  0x20\n  add\n  0x4c6f6e646f6e0000000000000000000000000000000000000000000000000000\n  dup2\n  mstore\n  pop\n  0x01\n  swap1\n  dup1\n  mload\n  swap1\n  0x20\n  add\n  swap1\n  tag_1\n  swap3\n  swap2\n  swap1\n  tag_2\n  jump\t// in\ntag_1:\n  pop\n    /* \"contracts/newContract.sol\":233:389  constructor(int _price, string memory _location, address owner){\r... */\n  callvalue\n  dup1\n  iszero\n  tag_3\n  jumpi\n  0x00\n  dup1\n  revert\ntag_3:\n  pop\n  mload(0x40)\n  sub(codesize, bytecodeSize)\n  dup1\n  bytecodeSize\n  dup4\n  codecopy\n  dup2\n  dup2\n  add\n  0x40\n  mstore\n  dup2\n  add\n  swap1\n  tag_4\n  swap2\n  swap1\n  tag_5\n  jump\t// in\ntag_4:\n    /* \"contracts/newContract.sol\":315:321  _price */\n  dup3\n    /* \"contracts/newContract.sol\":307:312  price */\n  0x00\n    /* \"contracts/newContract.sol\":307:321  price = _price */\n  dup2\n  swap1\n  sstore\n  pop\n    /* \"contracts/newContract.sol\":343:352  _location */\n  dup2\n    /* \"contracts/newContract.sol\":332:340  location */\n  0x01\n    /* \"contracts/newContract.sol\":332:352  location = _location */\n  swap1\n  dup1\n  mload\n  swap1\n  0x20\n  add\n  swap1\n  tag_8\n  swap3\n  swap2\n  swap1\n  tag_2\n  jump\t// in\ntag_8:\n  pop\n    /* \"contracts/newContract.sol\":371:381  msg.sender */\n  caller\n    /* \"contracts/newContract.sol\":363:381  owner = msg.sender */\n  swap1\n  pop\n    /* \"contracts/newContract.sol\":233:389  constructor(int _price, string memory _location, address owner){\r... */\n  pop\n  pop\n  pop\n    /* \"contracts/newContract.sol\":63:570  contract Property {\r... */\n  jump(tag_9)\ntag_2:\n  dup3\n  dup1\n  sload\n  tag_10\n  swap1\n  tag_11\n  jump\t// in\ntag_10:\n  swap1\n  0x00\n  mstore\n  keccak256(0x00, 0x20)\n  swap1\n  0x1f\n  add\n  0x20\n  swap1\n  div\n  dup2\n  add\n  swap3\n  dup3\n  tag_13\n  jumpi\n  0x00\n  dup6\n  sstore\n  jump(tag_12)\ntag_13:\n  dup3\n  0x1f\n  lt\n  tag_14\n  jumpi\n  dup1\n  mload\n  not(0xff)\n  and\n  dup4\n  dup1\n  add\n  or\n  dup6\n  sstore\n  jump(tag_12)\ntag_14:\n  dup3\n  dup1\n  add\n  0x01\n  add\n  dup6\n  sstore\n  dup3\n  iszero\n  tag_12\n  jumpi\n  swap2\n  dup3\n  add\ntag_15:\n  dup3\n  dup2\n  gt\n  iszero\n  tag_16\n  jumpi\n  dup3\n  mload\n  dup3\n  sstore\n  swap2\n  0x20\n  add\n  swap2\n  swap1\n  0x01\n  add\n  swap1\n  jump(tag_15)\ntag_16:\ntag_12:\n  pop\n  swap1\n  pop\n  tag_17\n  swap2\n  swap1\n  tag_18\n  jump\t// in\ntag_17:\n  pop\n  swap1\n  jump\t// out\ntag_18:\ntag_19:\n  dup1\n  dup3\n  gt\n  iszero\n  tag_20\n  jumpi\n  0x00\n  dup2\n  0x00\n  swap1\n  sstore\n  pop\n  0x01\n  add\n  jump(tag_19)\ntag_20:\n  pop\n  swap1\n  jump\t// out\n    /* \"#utility.yul\":7:360   */\ntag_22:\n  0x00\n    /* \"#utility.yul\":121:186   */\n  tag_24\n    /* \"#utility.yul\":136:185   */\n  tag_25\n    /* \"#utility.yul\":178:184   */\n  dup5\n    /* \"#utility.yul\":136:185   */\n  tag_26\n  jump\t// in\ntag_25:\n    /* \"#utility.yul\":121:186   */\n  tag_27\n  jump\t// in\ntag_24:\n    /* \"#utility.yul\":112:186   */\n  swap1\n  pop\n    /* \"#utility.yul\":209:215   */\n  dup3\n    /* \"#utility.yul\":202:207   */\n  dup2\n    /* \"#utility.yul\":195:216   */\n  mstore\n    /* \"#utility.yul\":247:251   */\n  0x20\n    /* \"#utility.yul\":240:245   */\n  dup2\n    /* \"#utility.yul\":236:252   */\n  add\n    /* \"#utility.yul\":285:288   */\n  dup5\n    /* \"#utility.yul\":276:282   */\n  dup5\n    /* \"#utility.yul\":271:274   */\n  dup5\n    /* \"#utility.yul\":267:283   */\n  add\n    /* \"#utility.yul\":264:289   */\n  gt\n    /* \"#utility.yul\":261:263   */\n  iszero\n  tag_28\n  jumpi\n    /* \"#utility.yul\":302:303   */\n  0x00\n    /* \"#utility.yul\":299:300   */\n  dup1\n    /* \"#utility.yul\":292:304   */\n  revert\n    /* \"#utility.yul\":261:263   */\ntag_28:\n    /* \"#utility.yul\":315:354   */\n  tag_29\n    /* \"#utility.yul\":347:353   */\n  dup5\n    /* \"#utility.yul\":342:345   */\n  dup3\n    /* \"#utility.yul\":337:340   */\n  dup6\n    /* \"#utility.yul\":315:354   */\n  tag_30\n  jump\t// in\ntag_29:\n    /* \"#utility.yul\":102:360   */\n  pop\n  swap4\n  swap3\n  pop\n  pop\n  pop\n  jump\t// out\n    /* \"#utility.yul\":366:509   */\ntag_31:\n  0x00\n    /* \"#utility.yul\":454:460   */\n  dup2\n    /* \"#utility.yul\":448:461   */\n  mload\n    /* \"#utility.yul\":439:461   */\n  swap1\n  pop\n    /* \"#utility.yul\":470:503   */\n  tag_33\n    /* \"#utility.yul\":497:502   */\n  dup2\n    /* \"#utility.yul\":470:503   */\n  tag_34\n  jump\t// in\ntag_33:\n    /* \"#utility.yul\":429:509   */\n  swap3\n  swap2\n  pop\n  pop\n  jump\t// out\n    /* \"#utility.yul\":515:656   */\ntag_35:\n  0x00\n    /* \"#utility.yul\":602:608   */\n  dup2\n    /* \"#utility.yul\":596:609   */\n  mload\n    /* \"#utility.yul\":587:609   */\n  swap1\n  pop\n    /* \"#utility.yul\":618:650   */\n  tag_37\n    /* \"#utility.yul\":644:649   */\n  dup2\n    /* \"#utility.yul\":618:650   */\n  tag_38\n  jump\t// in\ntag_37:\n    /* \"#utility.yul\":577:656   */\n  swap3\n  swap2\n  pop\n  pop\n  jump\t// out\n    /* \"#utility.yul\":676:964   */\ntag_39:\n  0x00\n    /* \"#utility.yul\":792:795   */\n  dup3\n    /* \"#utility.yul\":785:789   */\n  0x1f\n    /* \"#utility.yul\":777:783   */\n  dup4\n    /* \"#utility.yul\":773:790   */\n  add\n    /* \"#utility.yul\":769:796   */\n  slt\n    /* \"#utility.yul\":759:761   */\n  tag_41\n  jumpi\n    /* \"#utility.yul\":810:811   */\n  0x00\n    /* \"#utility.yul\":807:808   */\n  dup1\n    /* \"#utility.yul\":800:812   */\n  revert\n    /* \"#utility.yul\":759:761   */\ntag_41:\n    /* \"#utility.yul\":843:849   */\n  dup2\n    /* \"#utility.yul\":837:850   */\n  mload\n    /* \"#utility.yul\":868:958   */\n  tag_42\n    /* \"#utility.yul\":954:957   */\n  dup5\n    /* \"#utility.yul\":946:952   */\n  dup3\n    /* \"#utility.yul\":939:943   */\n  0x20\n    /* \"#utility.yul\":931:937   */\n  dup7\n    /* \"#utility.yul\":927:944   */\n  add\n    /* \"#utility.yul\":868:958   */\n  tag_22\n  jump\t// in\ntag_42:\n    /* \"#utility.yul\":859:958   */\n  swap2\n  pop\n    /* \"#utility.yul\":749:964   */\n  pop\n  swap3\n  swap2\n  pop\n  pop\n  jump\t// out\n    /* \"#utility.yul\":970:1670   */\ntag_5:\n  0x00\n  dup1\n  0x00\n    /* \"#utility.yul\":1132:1134   */\n  0x60\n    /* \"#utility.yul\":1120:1129   */\n  dup5\n    /* \"#utility.yul\":1111:1118   */\n  dup7\n    /* \"#utility.yul\":1107:1130   */\n  sub\n    /* \"#utility.yul\":1103:1135   */\n  slt\n    /* \"#utility.yul\":1100:1102   */\n  iszero\n  tag_44\n  jumpi\n    /* \"#utility.yul\":1148:1149   */\n  0x00\n    /* \"#utility.yul\":1145:1146   */\n  dup1\n    /* \"#utility.yul\":1138:1150   */\n  revert\n    /* \"#utility.yul\":1100:1102   */\ntag_44:\n    /* \"#utility.yul\":1191:1192   */\n  0x00\n    /* \"#utility.yul\":1216:1279   */\n  tag_45\n    /* \"#utility.yul\":1271:1278   */\n  dup7\n    /* \"#utility.yul\":1262:1268   */\n  dup3\n    /* \"#utility.yul\":1251:1260   */\n  dup8\n    /* \"#utility.yul\":1247:1269   */\n  add\n    /* \"#utility.yul\":1216:1279   */\n  tag_35\n  jump\t// in\ntag_45:\n    /* \"#utility.yul\":1206:1279   */\n  swap4\n  pop\n    /* \"#utility.yul\":1162:1289   */\n  pop\n    /* \"#utility.yul\":1349:1351   */\n  0x20\n    /* \"#utility.yul\":1338:1347   */\n  dup5\n    /* \"#utility.yul\":1334:1352   */\n  add\n    /* \"#utility.yul\":1328:1353   */\n  mload\n    /* \"#utility.yul\":1380:1398   */\n  0xffffffffffffffff\n    /* \"#utility.yul\":1372:1378   */\n  dup2\n    /* \"#utility.yul\":1369:1399   */\n  gt\n    /* \"#utility.yul\":1366:1368   */\n  iszero\n  tag_46\n  jumpi\n    /* \"#utility.yul\":1412:1413   */\n  0x00\n    /* \"#utility.yul\":1409:1410   */\n  dup1\n    /* \"#utility.yul\":1402:1414   */\n  revert\n    /* \"#utility.yul\":1366:1368   */\ntag_46:\n    /* \"#utility.yul\":1440:1514   */\n  tag_47\n    /* \"#utility.yul\":1506:1513   */\n  dup7\n    /* \"#utility.yul\":1497:1503   */\n  dup3\n    /* \"#utility.yul\":1486:1495   */\n  dup8\n    /* \"#utility.yul\":1482:1504   */\n  add\n    /* \"#utility.yul\":1440:1514   */\n  tag_39\n  jump\t// in\ntag_47:\n    /* \"#utility.yul\":1430:1514   */\n  swap3\n  pop\n    /* \"#utility.yul\":1299:1524   */\n  pop\n    /* \"#utility.yul\":1563:1565   */\n  0x40\n    /* \"#utility.yul\":1589:1653   */\n  tag_48\n    /* \"#utility.yul\":1645:1652   */\n  dup7\n    /* \"#utility.yul\":1636:1642   */\n  dup3\n    /* \"#utility.yul\":1625:1634   */\n  dup8\n    /* \"#utility.yul\":1621:1643   */\n  add\n    /* \"#utility.yul\":1589:1653   */\n  tag_31\n  jump\t// in\ntag_48:\n    /* \"#utility.yul\":1579:1653   */\n  swap2\n  pop\n    /* \"#utility.yul\":1534:1663   */\n  pop\n    /* \"#utility.yul\":1090:1670   */\n  swap3\n  pop\n  swap3\n  pop\n  swap3\n  jump\t// out\n    /* \"#utility.yul\":1676:1959   */\ntag_27:\n  0x00\n    /* \"#utility.yul\":1742:1744   */\n  0x40\n    /* \"#utility.yul\":1736:1745   */\n  mload\n    /* \"#utility.yul\":1726:1745   */\n  swap1\n  pop\n    /* \"#utility.yul\":1784:1788   */\n  dup2\n    /* \"#utility.yul\":1776:1782   */\n  dup2\n    /* \"#utility.yul\":1772:1789   */\n  add\n    /* \"#utility.yul\":1891:1897   */\n  dup2\n    /* \"#utility.yul\":1879:1889   */\n  dup2\n    /* \"#utility.yul\":1876:1898   */\n  lt\n    /* \"#utility.yul\":1855:1873   */\n  0xffffffffffffffff\n    /* \"#utility.yul\":1843:1853   */\n  dup3\n    /* \"#utility.yul\":1840:1874   */\n  gt\n    /* \"#utility.yul\":1837:1899   */\n  or\n    /* \"#utility.yul\":1834:1836   */\n  iszero\n  tag_50\n  jumpi\n    /* \"#utility.yul\":1902:1920   */\n  tag_51\n  tag_52\n  jump\t// in\ntag_51:\n    /* \"#utility.yul\":1834:1836   */\ntag_50:\n    /* \"#utility.yul\":1942:1952   */\n  dup1\n    /* \"#utility.yul\":1938:1940   */\n  0x40\n    /* \"#utility.yul\":1931:1953   */\n  mstore\n    /* \"#utility.yul\":1716:1959   */\n  pop\n  swap2\n  swap1\n  pop\n  jump\t// out\n    /* \"#utility.yul\":1965:2297   */\ntag_26:\n  0x00\n    /* \"#utility.yul\":2117:2135   */\n  0xffffffffffffffff\n    /* \"#utility.yul\":2109:2115   */\n  dup3\n    /* \"#utility.yul\":2106:2136   */\n  gt\n    /* \"#utility.yul\":2103:2105   */\n  iszero\n  tag_54\n  jumpi\n    /* \"#utility.yul\":2139:2157   */\n  tag_55\n  tag_52\n  jump\t// in\ntag_55:\n    /* \"#utility.yul\":2103:2105   */\ntag_54:\n    /* \"#utility.yul\":2224:2228   */\n  0x1f\n    /* \"#utility.yul\":2220:2229   */\n  not\n    /* \"#utility.yul\":2213:2217   */\n  0x1f\n    /* \"#utility.yul\":2205:2211   */\n  dup4\n    /* \"#utility.yul\":2201:2218   */\n  add\n    /* \"#utility.yul\":2197:2230   */\n  and\n    /* \"#utility.yul\":2189:2230   */\n  swap1\n  pop\n    /* \"#utility.yul\":2285:2289   */\n  0x20\n    /* \"#utility.yul\":2279:2283   */\n  dup2\n    /* \"#utility.yul\":2275:2290   */\n  add\n    /* \"#utility.yul\":2267:2290   */\n  swap1\n  pop\n    /* \"#utility.yul\":2032:2297   */\n  swap2\n  swap1\n  pop\n  jump\t// out\n    /* \"#utility.yul\":2303:2399   */\ntag_56:\n  0x00\n    /* \"#utility.yul\":2369:2393   */\n  tag_58\n    /* \"#utility.yul\":2387:2392   */\n  dup3\n    /* \"#utility.yul\":2369:2393   */\n  tag_59\n  jump\t// in\ntag_58:\n    /* \"#utility.yul\":2358:2393   */\n  swap1\n  pop\n    /* \"#utility.yul\":2348:2399   */\n  swap2\n  swap1\n  pop\n  jump\t// out\n    /* \"#utility.yul\":2405:2481   */\ntag_60:\n  0x00\n    /* \"#utility.yul\":2470:2475   */\n  dup2\n    /* \"#utility.yul\":2459:2475   */\n  swap1\n  pop\n    /* \"#utility.yul\":2449:2481   */\n  swap2\n  swap1\n  pop\n  jump\t// out\n    /* \"#utility.yul\":2487:2613   */\ntag_59:\n  0x00\n    /* \"#utility.yul\":2564:2606   */\n  0xffffffffffffffffffffffffffffffffffffffff\n    /* \"#utility.yul\":2557:2562   */\n  dup3\n    /* \"#utility.yul\":2553:2607   */\n  and\n    /* \"#utility.yul\":2542:2607   */\n  swap1\n  pop\n    /* \"#utility.yul\":2532:2613   */\n  swap2\n  swap1\n  pop\n  jump\t// out\n    /* \"#utility.yul\":2619:2926   */\ntag_30:\n    /* \"#utility.yul\":2687:2688   */\n  0x00\n    /* \"#utility.yul\":2697:2810   */\ntag_64:\n    /* \"#utility.yul\":2711:2717   */\n  dup4\n    /* \"#utility.yul\":2708:2709   */\n  dup2\n    /* \"#utility.yul\":2705:2718   */\n  lt\n    /* \"#utility.yul\":2697:2810   */\n  iszero\n  tag_66\n  jumpi\n    /* \"#utility.yul\":2796:2797   */\n  dup1\n    /* \"#utility.yul\":2791:2794   */\n  dup3\n    /* \"#utility.yul\":2787:2798   */\n  add\n    /* \"#utility.yul\":2781:2799   */\n  mload\n    /* \"#utility.yul\":2777:2778   */\n  dup2\n    /* \"#utility.yul\":2772:2775   */\n  dup5\n    /* \"#utility.yul\":2768:2779   */\n  add\n    /* \"#utility.yul\":2761:2800   */\n  mstore\n    /* \"#utility.yul\":2733:2735   */\n  0x20\n    /* \"#utility.yul\":2730:2731   */\n  dup2\n    /* \"#utility.yul\":2726:2736   */\n  add\n    /* \"#utility.yul\":2721:2736   */\n  swap1\n  pop\n    /* \"#utility.yul\":2697:2810   */\n  jump(tag_64)\ntag_66:\n    /* \"#utility.yul\":2828:2834   */\n  dup4\n    /* \"#utility.yul\":2825:2826   */\n  dup2\n    /* \"#utility.yul\":2822:2835   */\n  gt\n    /* \"#utility.yul\":2819:2821   */\n  iszero\n  tag_67\n  jumpi\n    /* \"#utility.yul\":2908:2909   */\n  0x00\n    /* \"#utility.yul\":2899:2905   */\n  dup5\n    /* \"#utility.yul\":2894:2897   */\n  dup5\n    /* \"#utility.yul\":2890:2906   */\n  add\n    /* \"#utility.yul\":2883:2910   */\n  mstore\n    /* \"#utility.yul\":2819:2821   */\ntag_67:\n    /* \"#utility.yul\":2668:2926   */\n  pop\n  pop\n  pop\n  pop\n  jump\t// out\n    /* \"#utility.yul\":2932:3252   */\ntag_11:\n  0x00\n    /* \"#utility.yul\":3013:3014   */\n  0x02\n    /* \"#utility.yul\":3007:3011   */\n  dup3\n    /* \"#utility.yul\":3003:3015   */\n  div\n    /* \"#utility.yul\":2993:3015   */\n  swap1\n  pop\n    /* \"#utility.yul\":3060:3061   */\n  0x01\n    /* \"#utility.yul\":3054:3058   */\n  dup3\n    /* \"#utility.yul\":3050:3062   */\n  and\n    /* \"#utility.yul\":3081:3099   */\n  dup1\n    /* \"#utility.yul\":3071:3073   */\n  tag_69\n  jumpi\n    /* \"#utility.yul\":3137:3141   */\n  0x7f\n    /* \"#utility.yul\":3129:3135   */\n  dup3\n    /* \"#utility.yul\":3125:3142   */\n  and\n    /* \"#utility.yul\":3115:3142   */\n  swap2\n  pop\n    /* \"#utility.yul\":3071:3073   */\ntag_69:\n    /* \"#utility.yul\":3199:3201   */\n  0x20\n    /* \"#utility.yul\":3191:3197   */\n  dup3\n    /* \"#utility.yul\":3188:3202   */\n  lt\n    /* \"#utility.yul\":3168:3186   */\n  dup2\n    /* \"#utility.yul\":3165:3203   */\n  eq\n    /* \"#utility.yul\":3162:3164   */\n  iszero\n  tag_70\n  jumpi\n    /* \"#utility.yul\":3218:3236   */\n  tag_71\n  tag_72\n  jump\t// in\ntag_71:\n    /* \"#utility.yul\":3162:3164   */\ntag_70:\n    /* \"#utility.yul\":2983:3252   */\n  pop\n  swap2\n  swap1\n  pop\n  jump\t// out\n    /* \"#utility.yul\":3258:3438   */\ntag_72:\n    /* \"#utility.yul\":3306:3383   */\n  0x4e487b7100000000000000000000000000000000000000000000000000000000\n    /* \"#utility.yul\":3303:3304   */\n  0x00\n    /* \"#utility.yul\":3296:3384   */\n  mstore\n    /* \"#utility.yul\":3403:3407   */\n  0x22\n    /* \"#utility.yul\":3400:3401   */\n  0x04\n    /* \"#utility.yul\":3393:3408   */\n  mstore\n    /* \"#utility.yul\":3427:3431   */\n  0x24\n    /* \"#utility.yul\":3424:3425   */\n  0x00\n    /* \"#utility.yul\":3417:3432   */\n  revert\n    /* \"#utility.yul\":3444:3624   */\ntag_52:\n    /* \"#utility.yul\":3492:3569   */\n  0x4e487b7100000000000000000000000000000000000000000000000000000000\n    /* \"#utility.yul\":3489:3490   */\n  0x00\n    /* \"#utility.yul\":3482:3570   */\n  mstore\n    /* \"#utility.yul\":3589:3593   */\n  0x41\n    /* \"#utility.yul\":3586:3587   */\n  0x04\n    /* \"#utility.yul\":3579:3594   */\n  mstore\n    /* \"#utility.yul\":3613:3617   */\n  0x24\n    /* \"#utility.yul\":3610:3611   */\n  0x00\n    /* \"#utility.yul\":3603:3618   */\n  revert\n    /* \"#utility.yul\":3630:3752   */\ntag_34:\n    /* \"#utility.yul\":3703:3727   */\n  tag_76\n    /* \"#utility.yul\":3721:3726   */\n  dup2\n    /* \"#utility.yul\":3703:3727   */\n  tag_56\n  jump\t// in\ntag_76:\n    /* \"#utility.yul\":3696:3701   */\n  dup2\n    /* \"#utility.yul\":3693:3728   */\n  eq\n    /* \"#utility.yul\":3683:3685   */\n  tag_77\n  jumpi\n    /* \"#utility.yul\":3742:3743   */\n  0x00\n    /* \"#utility.yul\":3739:3740   */\n  dup1\n    /* \"#utility.yul\":3732:3744   */\n  revert\n    /* \"#utility.yul\":3683:3685   */\ntag_77:\n    /* \"#utility.yul\":3673:3752   */\n  pop\n  jump\t// out\n    /* \"#utility.yul\":3758:3878   */\ntag_38:\n    /* \"#utility.yul\":3830:3853   */\n  tag_79\n    /* \"#utility.yul\":3847:3852   */\n  dup2\n    /* \"#utility.yul\":3830:3853   */\n  tag_60\n  jump\t// in\ntag_79:\n    /* \"#utility.yul\":3823:3828   */\n  dup2\n    /* \"#utility.yul\":3820:3854   */\n  eq\n    /* \"#utility.yul\":3810:3812   */\n  tag_80\n  jumpi\n    /* \"#utility.yul\":3868:3869   */\n  0x00\n    /* \"#utility.yul\":3865:3866   */\n  dup1\n    /* \"#utility.yul\":3858:3870   */\n  revert\n    /* \"#utility.yul\":3810:3812   */\ntag_80:\n    /* \"#utility.yul\":3800:3878   */\n  pop\n  jump\t// out\n    /* \"contracts/newContract.sol\":63:570  contract Property {\r... */\ntag_9:\n  dataSize(sub_0)\n  dup1\n  dataOffset(sub_0)\n  0x00\n  codecopy\n  0x00\n  return\nstop\n\nsub_0: assembly {\n        /* \"contracts/newContract.sol\":63:570  contract Property {\r... */\n      mstore(0x40, 0x80)\n      callvalue\n      dup1\n      iszero\n      tag_1\n      jumpi\n      0x00\n      dup1\n      revert\n    tag_1:\n      pop\n      jumpi(tag_2, lt(calldatasize, 0x04))\n      shr(0xe0, calldataload(0x00))\n      dup1\n      0x516f279e\n      eq\n      tag_3\n      jumpi\n      dup1\n      0x827bfbdf\n      eq\n      tag_4\n      jumpi\n      dup1\n      0xa035b1fe\n      eq\n      tag_5\n      jumpi\n      dup1\n      0xf7a30806\n      eq\n      tag_6\n      jumpi\n    tag_2:\n      0x00\n      dup1\n      revert\n        /* \"contracts/newContract.sol\":123:156  string public location = \"London\" */\n    tag_3:\n      tag_7\n      tag_8\n      jump\t// in\n    tag_7:\n      mload(0x40)\n      tag_9\n      swap2\n      swap1\n      tag_10\n      jump\t// in\n    tag_9:\n      mload(0x40)\n      dup1\n      swap2\n      sub\n      swap1\n      return\n        /* \"contracts/newContract.sol\":474:565  function setLocation(string memory _location) public{\r... */\n    tag_4:\n      tag_11\n      0x04\n      dup1\n      calldatasize\n      sub\n      dup2\n      add\n      swap1\n      tag_12\n      swap2\n      swap1\n      tag_13\n      jump\t// in\n    tag_12:\n      tag_14\n      jump\t// in\n    tag_11:\n      stop\n        /* \"contracts/newContract.sol\":94:116  int public price = 100 */\n    tag_5:\n      tag_15\n      tag_16\n      jump\t// in\n    tag_15:\n      mload(0x40)\n      tag_17\n      swap2\n      swap1\n      tag_18\n      jump\t// in\n    tag_17:\n      mload(0x40)\n      dup1\n      swap2\n      sub\n      swap1\n      return\n        /* \"contracts/newContract.sol\":397:466  function setPrice(int _price) public{\r... */\n    tag_6:\n      tag_19\n      0x04\n      dup1\n      calldatasize\n      sub\n      dup2\n      add\n      swap1\n      tag_20\n      swap2\n      swap1\n      tag_21\n      jump\t// in\n    tag_20:\n      tag_22\n      jump\t// in\n    tag_19:\n      stop\n        /* \"contracts/newContract.sol\":123:156  string public location = \"London\" */\n    tag_8:\n      0x01\n      dup1\n      sload\n      tag_23\n      swap1\n      tag_24\n      jump\t// in\n    tag_23:\n      dup1\n      0x1f\n      add\n      0x20\n      dup1\n      swap2\n      div\n      mul\n      0x20\n      add\n      mload(0x40)\n      swap1\n      dup2\n      add\n      0x40\n      mstore\n      dup1\n      swap3\n      swap2\n      swap1\n      dup2\n      dup2\n      mstore\n      0x20\n      add\n      dup3\n      dup1\n      sload\n      tag_25\n      swap1\n      tag_24\n      jump\t// in\n    tag_25:\n      dup1\n      iszero\n      tag_26\n      jumpi\n      dup1\n      0x1f\n      lt\n      tag_27\n      jumpi\n      0x0100\n      dup1\n      dup4\n      sload\n      div\n      mul\n      dup4\n      mstore\n      swap2\n      0x20\n      add\n      swap2\n      jump(tag_26)\n    tag_27:\n      dup3\n      add\n      swap2\n      swap1\n      0x00\n      mstore\n      keccak256(0x00, 0x20)\n      swap1\n    tag_28:\n      dup2\n      sload\n      dup2\n      mstore\n      swap1\n      0x01\n      add\n      swap1\n      0x20\n      add\n      dup1\n      dup4\n      gt\n      tag_28\n      jumpi\n      dup3\n      swap1\n      sub\n      0x1f\n      and\n      dup3\n      add\n      swap2\n    tag_26:\n      pop\n      pop\n      pop\n      pop\n      pop\n      dup2\n      jump\t// out\n        /* \"contracts/newContract.sol\":474:565  function setLocation(string memory _location) public{\r... */\n    tag_14:\n        /* \"contracts/newContract.sol\":548:557  _location */\n      dup1\n        /* \"contracts/newContract.sol\":537:545  location */\n      0x01\n        /* \"contracts/newContract.sol\":537:557  location = _location */\n      swap1\n      dup1\n      mload\n      swap1\n      0x20\n      add\n      swap1\n      tag_30\n      swap3\n      swap2\n      swap1\n      tag_31\n      jump\t// in\n    tag_30:\n      pop\n        /* \"contracts/newContract.sol\":474:565  function setLocation(string memory _location) public{\r... */\n      pop\n      jump\t// out\n        /* \"contracts/newContract.sol\":94:116  int public price = 100 */\n    tag_16:\n      sload(0x00)\n      dup2\n      jump\t// out\n        /* \"contracts/newContract.sol\":397:466  function setPrice(int _price) public{\r... */\n    tag_22:\n        /* \"contracts/newContract.sol\":452:458  _price */\n      dup1\n        /* \"contracts/newContract.sol\":444:449  price */\n      0x00\n        /* \"contracts/newContract.sol\":444:458  price = _price */\n      dup2\n      swap1\n      sstore\n      pop\n        /* \"contracts/newContract.sol\":397:466  function setPrice(int _price) public{\r... */\n      pop\n      jump\t// out\n    tag_31:\n      dup3\n      dup1\n      sload\n      tag_33\n      swap1\n      tag_24\n      jump\t// in\n    tag_33:\n      swap1\n      0x00\n      mstore\n      keccak256(0x00, 0x20)\n      swap1\n      0x1f\n      add\n      0x20\n      swap1\n      div\n      dup2\n      add\n      swap3\n      dup3\n      tag_35\n      jumpi\n      0x00\n      dup6\n      sstore\n      jump(tag_34)\n    tag_35:\n      dup3\n      0x1f\n      lt\n      tag_36\n      jumpi\n      dup1\n      mload\n      not(0xff)\n      and\n      dup4\n      dup1\n      add\n      or\n      dup6\n      sstore\n      jump(tag_34)\n    tag_36:\n      dup3\n      dup1\n      add\n      0x01\n      add\n      dup6\n      sstore\n      dup3\n      iszero\n      tag_34\n      jumpi\n      swap2\n      dup3\n      add\n    tag_37:\n      dup3\n      dup2\n      gt\n      iszero\n      tag_38\n      jumpi\n      dup3\n      mload\n      dup3\n      sstore\n      swap2\n      0x20\n      add\n      swap2\n      swap1\n      0x01\n      add\n      swap1\n      jump(tag_37)\n    tag_38:\n    tag_34:\n      pop\n      swap1\n      pop\n      tag_39\n      swap2\n      swap1\n      tag_40\n      jump\t// in\n    tag_39:\n      pop\n      swap1\n      jump\t// out\n    tag_40:\n    tag_41:\n      dup1\n      dup3\n      gt\n      iszero\n      tag_42\n      jumpi\n      0x00\n      dup2\n      0x00\n      swap1\n      sstore\n      pop\n      0x01\n      add\n      jump(tag_41)\n    tag_42:\n      pop\n      swap1\n      jump\t// out\n        /* \"#utility.yul\":7:351   */\n    tag_44:\n      0x00\n        /* \"#utility.yul\":110:175   */\n      tag_46\n        /* \"#utility.yul\":125:174   */\n      tag_47\n        /* \"#utility.yul\":167:173   */\n      dup5\n        /* \"#utility.yul\":125:174   */\n      tag_48\n      jump\t// in\n    tag_47:\n        /* \"#utility.yul\":110:175   */\n      tag_49\n      jump\t// in\n    tag_46:\n        /* \"#utility.yul\":101:175   */\n      swap1\n      pop\n        /* \"#utility.yul\":198:204   */\n      dup3\n        /* \"#utility.yul\":191:196   */\n      dup2\n        /* \"#utility.yul\":184:205   */\n      mstore\n        /* \"#utility.yul\":236:240   */\n      0x20\n        /* \"#utility.yul\":229:234   */\n      dup2\n        /* \"#utility.yul\":225:241   */\n      add\n        /* \"#utility.yul\":274:277   */\n      dup5\n        /* \"#utility.yul\":265:271   */\n      dup5\n        /* \"#utility.yul\":260:263   */\n      dup5\n        /* \"#utility.yul\":256:272   */\n      add\n        /* \"#utility.yul\":253:278   */\n      gt\n        /* \"#utility.yul\":250:252   */\n      iszero\n      tag_50\n      jumpi\n        /* \"#utility.yul\":291:292   */\n      0x00\n        /* \"#utility.yul\":288:289   */\n      dup1\n        /* \"#utility.yul\":281:293   */\n      revert\n        /* \"#utility.yul\":250:252   */\n    tag_50:\n        /* \"#utility.yul\":304:345   */\n      tag_51\n        /* \"#utility.yul\":338:344   */\n      dup5\n        /* \"#utility.yul\":333:336   */\n      dup3\n        /* \"#utility.yul\":328:331   */\n      dup6\n        /* \"#utility.yul\":304:345   */\n      tag_52\n      jump\t// in\n    tag_51:\n        /* \"#utility.yul\":91:351   */\n      pop\n      swap4\n      swap3\n      pop\n      pop\n      pop\n      jump\t// out\n        /* \"#utility.yul\":357:494   */\n    tag_53:\n      0x00\n        /* \"#utility.yul\":440:446   */\n      dup2\n        /* \"#utility.yul\":427:447   */\n      calldataload\n        /* \"#utility.yul\":418:447   */\n      swap1\n      pop\n        /* \"#utility.yul\":456:488   */\n      tag_55\n        /* \"#utility.yul\":482:487   */\n      dup2\n        /* \"#utility.yul\":456:488   */\n      tag_56\n      jump\t// in\n    tag_55:\n        /* \"#utility.yul\":408:494   */\n      swap3\n      swap2\n      pop\n      pop\n      jump\t// out\n        /* \"#utility.yul\":514:787   */\n    tag_57:\n      0x00\n        /* \"#utility.yul\":619:622   */\n      dup3\n        /* \"#utility.yul\":612:616   */\n      0x1f\n        /* \"#utility.yul\":604:610   */\n      dup4\n        /* \"#utility.yul\":600:617   */\n      add\n        /* \"#utility.yul\":596:623   */\n      slt\n        /* \"#utility.yul\":586:588   */\n      tag_59\n      jumpi\n        /* \"#utility.yul\":637:638   */\n      0x00\n        /* \"#utility.yul\":634:635   */\n      dup1\n        /* \"#utility.yul\":627:639   */\n      revert\n        /* \"#utility.yul\":586:588   */\n    tag_59:\n        /* \"#utility.yul\":677:683   */\n      dup2\n        /* \"#utility.yul\":664:684   */\n      calldataload\n        /* \"#utility.yul\":702:781   */\n      tag_60\n        /* \"#utility.yul\":777:780   */\n      dup5\n        /* \"#utility.yul\":769:775   */\n      dup3\n        /* \"#utility.yul\":762:766   */\n      0x20\n        /* \"#utility.yul\":754:760   */\n      dup7\n        /* \"#utility.yul\":750:767   */\n      add\n        /* \"#utility.yul\":702:781   */\n      tag_44\n      jump\t// in\n    tag_60:\n        /* \"#utility.yul\":693:781   */\n      swap2\n      pop\n        /* \"#utility.yul\":576:787   */\n      pop\n      swap3\n      swap2\n      pop\n      pop\n      jump\t// out\n        /* \"#utility.yul\":793:1053   */\n    tag_21:\n      0x00\n        /* \"#utility.yul\":900:902   */\n      0x20\n        /* \"#utility.yul\":888:897   */\n      dup3\n        /* \"#utility.yul\":879:886   */\n      dup5\n        /* \"#utility.yul\":875:898   */\n      sub\n        /* \"#utility.yul\":871:903   */\n      slt\n        /* \"#utility.yul\":868:870   */\n      iszero\n      tag_62\n      jumpi\n        /* \"#utility.yul\":916:917   */\n      0x00\n        /* \"#utility.yul\":913:914   */\n      dup1\n        /* \"#utility.yul\":906:918   */\n      revert\n        /* \"#utility.yul\":868:870   */\n    tag_62:\n        /* \"#utility.yul\":959:960   */\n      0x00\n        /* \"#utility.yul\":984:1036   */\n      tag_63\n        /* \"#utility.yul\":1028:1035   */\n      dup5\n        /* \"#utility.yul\":1019:1025   */\n      dup3\n        /* \"#utility.yul\":1008:1017   */\n      dup6\n        /* \"#utility.yul\":1004:1026   */\n      add\n        /* \"#utility.yul\":984:1036   */\n      tag_53\n      jump\t// in\n    tag_63:\n        /* \"#utility.yul\":974:1036   */\n      swap2\n      pop\n        /* \"#utility.yul\":930:1046   */\n      pop\n        /* \"#utility.yul\":858:1053   */\n      swap3\n      swap2\n      pop\n      pop\n      jump\t// out\n        /* \"#utility.yul\":1059:1434   */\n    tag_13:\n      0x00\n        /* \"#utility.yul\":1177:1179   */\n      0x20\n        /* \"#utility.yul\":1165:1174   */\n      dup3\n        /* \"#utility.yul\":1156:1163   */\n      dup5\n        /* \"#utility.yul\":1152:1175   */\n      sub\n        /* \"#utility.yul\":1148:1180   */\n      slt\n        /* \"#utility.yul\":1145:1147   */\n      iszero\n      tag_65\n      jumpi\n        /* \"#utility.yul\":1193:1194   */\n      0x00\n        /* \"#utility.yul\":1190:1191   */\n      dup1\n        /* \"#utility.yul\":1183:1195   */\n      revert\n        /* \"#utility.yul\":1145:1147   */\n    tag_65:\n        /* \"#utility.yul\":1264:1265   */\n      0x00\n        /* \"#utility.yul\":1253:1262   */\n      dup3\n        /* \"#utility.yul\":1249:1266   */\n      add\n        /* \"#utility.yul\":1236:1267   */\n      calldataload\n        /* \"#utility.yul\":1294:1312   */\n      0xffffffffffffffff\n        /* \"#utility.yul\":1286:1292   */\n      dup2\n        /* \"#utility.yul\":1283:1313   */\n      gt\n        /* \"#utility.yul\":1280:1282   */\n      iszero\n      tag_66\n      jumpi\n        /* \"#utility.yul\":1326:1327   */\n      0x00\n        /* \"#utility.yul\":1323:1324   */\n      dup1\n        /* \"#utility.yul\":1316:1328   */\n      revert\n        /* \"#utility.yul\":1280:1282   */\n    tag_66:\n        /* \"#utility.yul\":1354:1417   */\n      tag_67\n        /* \"#utility.yul\":1409:1416   */\n      dup5\n        /* \"#utility.yul\":1400:1406   */\n      dup3\n        /* \"#utility.yul\":1389:1398   */\n      dup6\n        /* \"#utility.yul\":1385:1407   */\n      add\n        /* \"#utility.yul\":1354:1417   */\n      tag_57\n      jump\t// in\n    tag_67:\n        /* \"#utility.yul\":1344:1417   */\n      swap2\n      pop\n        /* \"#utility.yul\":1207:1427   */\n      pop\n        /* \"#utility.yul\":1135:1434   */\n      swap3\n      swap2\n      pop\n      pop\n      jump\t// out\n        /* \"#utility.yul\":1440:1555   */\n    tag_68:\n        /* \"#utility.yul\":1525:1548   */\n      tag_70\n        /* \"#utility.yul\":1542:1547   */\n      dup2\n        /* \"#utility.yul\":1525:1548   */\n      tag_71\n      jump\t// in\n    tag_70:\n        /* \"#utility.yul\":1520:1523   */\n      dup3\n        /* \"#utility.yul\":1513:1549   */\n      mstore\n        /* \"#utility.yul\":1503:1555   */\n      pop\n      pop\n      jump\t// out\n        /* \"#utility.yul\":1561:1925   */\n    tag_72:\n      0x00\n        /* \"#utility.yul\":1677:1716   */\n      tag_74\n        /* \"#utility.yul\":1710:1715   */\n      dup3\n        /* \"#utility.yul\":1677:1716   */\n      tag_75\n      jump\t// in\n    tag_74:\n        /* \"#utility.yul\":1732:1803   */\n      tag_76\n        /* \"#utility.yul\":1796:1802   */\n      dup2\n        /* \"#utility.yul\":1791:1794   */\n      dup6\n        /* \"#utility.yul\":1732:1803   */\n      tag_77\n      jump\t// in\n    tag_76:\n        /* \"#utility.yul\":1725:1803   */\n      swap4\n      pop\n        /* \"#utility.yul\":1812:1864   */\n      tag_78\n        /* \"#utility.yul\":1857:1863   */\n      dup2\n        /* \"#utility.yul\":1852:1855   */\n      dup6\n        /* \"#utility.yul\":1845:1849   */\n      0x20\n        /* \"#utility.yul\":1838:1843   */\n      dup7\n        /* \"#utility.yul\":1834:1850   */\n      add\n        /* \"#utility.yul\":1812:1864   */\n      tag_79\n      jump\t// in\n    tag_78:\n        /* \"#utility.yul\":1889:1918   */\n      tag_80\n        /* \"#utility.yul\":1911:1917   */\n      dup2\n        /* \"#utility.yul\":1889:1918   */\n      tag_81\n      jump\t// in\n    tag_80:\n        /* \"#utility.yul\":1884:1887   */\n      dup5\n        /* \"#utility.yul\":1880:1919   */\n      add\n        /* \"#utility.yul\":1873:1919   */\n      swap2\n      pop\n        /* \"#utility.yul\":1653:1925   */\n      pop\n      swap3\n      swap2\n      pop\n      pop\n      jump\t// out\n        /* \"#utility.yul\":1931:2149   */\n    tag_18:\n      0x00\n        /* \"#utility.yul\":2060:2062   */\n      0x20\n        /* \"#utility.yul\":2049:2058   */\n      dup3\n        /* \"#utility.yul\":2045:2063   */\n      add\n        /* \"#utility.yul\":2037:2063   */\n      swap1\n      pop\n        /* \"#utility.yul\":2073:2142   */\n      tag_83\n        /* \"#utility.yul\":2139:2140   */\n      0x00\n        /* \"#utility.yul\":2128:2137   */\n      dup4\n        /* \"#utility.yul\":2124:2141   */\n      add\n        /* \"#utility.yul\":2115:2121   */\n      dup5\n        /* \"#utility.yul\":2073:2142   */\n      tag_68\n      jump\t// in\n    tag_83:\n        /* \"#utility.yul\":2027:2149   */\n      swap3\n      swap2\n      pop\n      pop\n      jump\t// out\n        /* \"#utility.yul\":2155:2468   */\n    tag_10:\n      0x00\n        /* \"#utility.yul\":2306:2308   */\n      0x20\n        /* \"#utility.yul\":2295:2304   */\n      dup3\n        /* \"#utility.yul\":2291:2309   */\n      add\n        /* \"#utility.yul\":2283:2309   */\n      swap1\n      pop\n        /* \"#utility.yul\":2355:2364   */\n      dup2\n        /* \"#utility.yul\":2349:2353   */\n      dup2\n        /* \"#utility.yul\":2345:2365   */\n      sub\n        /* \"#utility.yul\":2341:2342   */\n      0x00\n        /* \"#utility.yul\":2330:2339   */\n      dup4\n        /* \"#utility.yul\":2326:2343   */\n      add\n        /* \"#utility.yul\":2319:2366   */\n      mstore\n        /* \"#utility.yul\":2383:2461   */\n      tag_85\n        /* \"#utility.yul\":2456:2460   */\n      dup2\n        /* \"#utility.yul\":2447:2453   */\n      dup5\n        /* \"#utility.yul\":2383:2461   */\n      tag_72\n      jump\t// in\n    tag_85:\n        /* \"#utility.yul\":2375:2461   */\n      swap1\n      pop\n        /* \"#utility.yul\":2273:2468   */\n      swap3\n      swap2\n      pop\n      pop\n      jump\t// out\n        /* \"#utility.yul\":2474:2757   */\n    tag_49:\n      0x00\n        /* \"#utility.yul\":2540:2542   */\n      0x40\n        /* \"#utility.yul\":2534:2543   */\n      mload\n        /* \"#utility.yul\":2524:2543   */\n      swap1\n      pop\n        /* \"#utility.yul\":2582:2586   */\n      dup2\n        /* \"#utility.yul\":2574:2580   */\n      dup2\n        /* \"#utility.yul\":2570:2587   */\n      add\n        /* \"#utility.yul\":2689:2695   */\n      dup2\n        /* \"#utility.yul\":2677:2687   */\n      dup2\n        /* \"#utility.yul\":2674:2696   */\n      lt\n        /* \"#utility.yul\":2653:2671   */\n      0xffffffffffffffff\n        /* \"#utility.yul\":2641:2651   */\n      dup3\n        /* \"#utility.yul\":2638:2672   */\n      gt\n        /* \"#utility.yul\":2635:2697   */\n      or\n        /* \"#utility.yul\":2632:2634   */\n      iszero\n      tag_87\n      jumpi\n        /* \"#utility.yul\":2700:2718   */\n      tag_88\n      tag_89\n      jump\t// in\n    tag_88:\n        /* \"#utility.yul\":2632:2634   */\n    tag_87:\n        /* \"#utility.yul\":2740:2750   */\n      dup1\n        /* \"#utility.yul\":2736:2738   */\n      0x40\n        /* \"#utility.yul\":2729:2751   */\n      mstore\n        /* \"#utility.yul\":2514:2757   */\n      pop\n      swap2\n      swap1\n      pop\n      jump\t// out\n        /* \"#utility.yul\":2763:3095   */\n    tag_48:\n      0x00\n        /* \"#utility.yul\":2915:2933   */\n      0xffffffffffffffff\n        /* \"#utility.yul\":2907:2913   */\n      dup3\n        /* \"#utility.yul\":2904:2934   */\n      gt\n        /* \"#utility.yul\":2901:2903   */\n      iszero\n      tag_91\n      jumpi\n        /* \"#utility.yul\":2937:2955   */\n      tag_92\n      tag_89\n      jump\t// in\n    tag_92:\n        /* \"#utility.yul\":2901:2903   */\n    tag_91:\n        /* \"#utility.yul\":3022:3026   */\n      0x1f\n        /* \"#utility.yul\":3018:3027   */\n      not\n        /* \"#utility.yul\":3011:3015   */\n      0x1f\n        /* \"#utility.yul\":3003:3009   */\n      dup4\n        /* \"#utility.yul\":2999:3016   */\n      add\n        /* \"#utility.yul\":2995:3028   */\n      and\n        /* \"#utility.yul\":2987:3028   */\n      swap1\n      pop\n        /* \"#utility.yul\":3083:3087   */\n      0x20\n        /* \"#utility.yul\":3077:3081   */\n      dup2\n        /* \"#utility.yul\":3073:3088   */\n      add\n        /* \"#utility.yul\":3065:3088   */\n      swap1\n      pop\n        /* \"#utility.yul\":2830:3095   */\n      swap2\n      swap1\n      pop\n      jump\t// out\n        /* \"#utility.yul\":3101:3200   */\n    tag_75:\n      0x00\n        /* \"#utility.yul\":3187:3192   */\n      dup2\n        /* \"#utility.yul\":3181:3193   */\n      mload\n        /* \"#utility.yul\":3171:3193   */\n      swap1\n      pop\n        /* \"#utility.yul\":3160:3200   */\n      swap2\n      swap1\n      pop\n      jump\t// out\n        /* \"#utility.yul\":3206:3375   */\n    tag_77:\n      0x00\n        /* \"#utility.yul\":3324:3330   */\n      dup3\n        /* \"#utility.yul\":3319:3322   */\n      dup3\n        /* \"#utility.yul\":3312:3331   */\n      mstore\n        /* \"#utility.yul\":3364:3368   */\n      0x20\n        /* \"#utility.yul\":3359:3362   */\n      dup3\n        /* \"#utility.yul\":3355:3369   */\n      add\n        /* \"#utility.yul\":3340:3369   */\n      swap1\n      pop\n        /* \"#utility.yul\":3302:3375   */\n      swap3\n      swap2\n      pop\n      pop\n      jump\t// out\n        /* \"#utility.yul\":3381:3457   */\n    tag_71:\n      0x00\n        /* \"#utility.yul\":3446:3451   */\n      dup2\n        /* \"#utility.yul\":3435:3451   */\n      swap1\n      pop\n        /* \"#utility.yul\":3425:3457   */\n      swap2\n      swap1\n      pop\n      jump\t// out\n        /* \"#utility.yul\":3463:3617   */\n    tag_52:\n        /* \"#utility.yul\":3547:3553   */\n      dup3\n        /* \"#utility.yul\":3542:3545   */\n      dup2\n        /* \"#utility.yul\":3537:3540   */\n      dup4\n        /* \"#utility.yul\":3524:3554   */\n      calldatacopy\n        /* \"#utility.yul\":3609:3610   */\n      0x00\n        /* \"#utility.yul\":3600:3606   */\n      dup4\n        /* \"#utility.yul\":3595:3598   */\n      dup4\n        /* \"#utility.yul\":3591:3607   */\n      add\n        /* \"#utility.yul\":3584:3611   */\n      mstore\n        /* \"#utility.yul\":3514:3617   */\n      pop\n      pop\n      pop\n      jump\t// out\n        /* \"#utility.yul\":3623:3930   */\n    tag_79:\n        /* \"#utility.yul\":3691:3692   */\n      0x00\n        /* \"#utility.yul\":3701:3814   */\n    tag_98:\n        /* \"#utility.yul\":3715:3721   */\n      dup4\n        /* \"#utility.yul\":3712:3713   */\n      dup2\n        /* \"#utility.yul\":3709:3722   */\n      lt\n        /* \"#utility.yul\":3701:3814   */\n      iszero\n      tag_100\n      jumpi\n        /* \"#utility.yul\":3800:3801   */\n      dup1\n        /* \"#utility.yul\":3795:3798   */\n      dup3\n        /* \"#utility.yul\":3791:3802   */\n      add\n        /* \"#utility.yul\":3785:3803   */\n      mload\n        /* \"#utility.yul\":3781:3782   */\n      dup2\n        /* \"#utility.yul\":3776:3779   */\n      dup5\n        /* \"#utility.yul\":3772:3783   */\n      add\n        /* \"#utility.yul\":3765:3804   */\n      mstore\n        /* \"#utility.yul\":3737:3739   */\n      0x20\n        /* \"#utility.yul\":3734:3735   */\n      dup2\n        /* \"#utility.yul\":3730:3740   */\n      add\n        /* \"#utility.yul\":3725:3740   */\n      swap1\n      pop\n        /* \"#utility.yul\":3701:3814   */\n      jump(tag_98)\n    tag_100:\n        /* \"#utility.yul\":3832:3838   */\n      dup4\n        /* \"#utility.yul\":3829:3830   */\n      dup2\n        /* \"#utility.yul\":3826:3839   */\n      gt\n        /* \"#utility.yul\":3823:3825   */\n      iszero\n      tag_101\n      jumpi\n        /* \"#utility.yul\":3912:3913   */\n      0x00\n        /* \"#utility.yul\":3903:3909   */\n      dup5\n        /* \"#utility.yul\":3898:3901   */\n      dup5\n        /* \"#utility.yul\":3894:3910   */\n      add\n        /* \"#utility.yul\":3887:3914   */\n      mstore\n        /* \"#utility.yul\":3823:3825   */\n    tag_101:\n        /* \"#utility.yul\":3672:3930   */\n      pop\n      pop\n      pop\n      pop\n      jump\t// out\n        /* \"#utility.yul\":3936:4256   */\n    tag_24:\n      0x00\n        /* \"#utility.yul\":4017:4018   */\n      0x02\n        /* \"#utility.yul\":4011:4015   */\n      dup3\n        /* \"#utility.yul\":4007:4019   */\n      div\n        /* \"#utility.yul\":3997:4019   */\n      swap1\n      pop\n        /* \"#utility.yul\":4064:4065   */\n      0x01\n        /* \"#utility.yul\":4058:4062   */\n      dup3\n        /* \"#utility.yul\":4054:4066   */\n      and\n        /* \"#utility.yul\":4085:4103   */\n      dup1\n        /* \"#utility.yul\":4075:4077   */\n      tag_103\n      jumpi\n        /* \"#utility.yul\":4141:4145   */\n      0x7f\n        /* \"#utility.yul\":4133:4139   */\n      dup3\n        /* \"#utility.yul\":4129:4146   */\n      and\n        /* \"#utility.yul\":4119:4146   */\n      swap2\n      pop\n        /* \"#utility.yul\":4075:4077   */\n    tag_103:\n        /* \"#utility.yul\":4203:4205   */\n      0x20\n        /* \"#utility.yul\":4195:4201   */\n      dup3\n        /* \"#utility.yul\":4192:4206   */\n      lt\n        /* \"#utility.yul\":4172:4190   */\n      dup2\n        /* \"#utility.yul\":4169:4207   */\n      eq\n        /* \"#utility.yul\":4166:4168   */\n      iszero\n      tag_104\n      jumpi\n        /* \"#utility.yul\":4222:4240   */\n      tag_105\n      tag_106\n      jump\t// in\n    tag_105:\n        /* \"#utility.yul\":4166:4168   */\n    tag_104:\n        /* \"#utility.yul\":3987:4256   */\n      pop\n      swap2\n      swap1\n      pop\n      jump\t// out\n        /* \"#utility.yul\":4262:4442   */\n    tag_106:\n        /* \"#utility.yul\":4310:4387   */\n      0x4e487b7100000000000000000000000000000000000000000000000000000000\n        /* \"#utility.yul\":4307:4308   */\n      0x00\n        /* \"#utility.yul\":4300:4388   */\n      mstore\n        /* \"#utility.yul\":4407:4411   */\n      0x22\n        /* \"#utility.yul\":4404:4405   */\n      0x04\n        /* \"#utility.yul\":4397:4412   */\n      mstore\n        /* \"#utility.yul\":4431:4435   */\n      0x24\n        /* \"#utility.yul\":4428:4429   */\n      0x00\n        /* \"#utility.yul\":4421:4436   */\n      revert\n        /* \"#utility.yul\":4448:4628   */\n    tag_89:\n        /* \"#utility.yul\":4496:4573   */\n      0x4e487b7100000000000000000000000000000000000000000000000000000000\n        /* \"#utility.yul\":4493:4494   */\n      0x00\n        /* \"#utility.yul\":4486:4574   */\n      mstore\n        /* \"#utility.yul\":4593:4597   */\n      0x41\n        /* \"#utility.yul\":4590:4591   */\n      0x04\n        /* \"#utility.yul\":4583:4598   */\n      mstore\n        /* \"#utility.yul\":4617:4621   */\n      0x24\n        /* \"#utility.yul\":4614:4615   */\n      0x00\n        /* \"#utility.yul\":4607:4622   */\n      revert\n        /* \"#utility.yul\":4634:4736   */\n    tag_81:\n      0x00\n        /* \"#utility.yul\":4726:4728   */\n      0x1f\n        /* \"#utility.yul\":4722:4729   */\n      not\n        /* \"#utility.yul\":4717:4719   */\n      0x1f\n        /* \"#utility.yul\":4710:4715   */\n      dup4\n        /* \"#utility.yul\":4706:4720   */\n      add\n        /* \"#utility.yul\":4702:4730   */\n      and\n        /* \"#utility.yul\":4692:4730   */\n      swap1\n      pop\n        /* \"#utility.yul\":4682:4736   */\n      swap2\n      swap1\n      pop\n      jump\t// out\n        /* \"#utility.yul\":4742:4862   */\n    tag_56:\n        /* \"#utility.yul\":4814:4837   */\n      tag_111\n        /* \"#utility.yul\":4831:4836   */\n      dup2\n        /* \"#utility.yul\":4814:4837   */\n      tag_71\n      jump\t// in\n    tag_111:\n        /* \"#utility.yul\":4807:4812   */\n      dup2\n        /* \"#utility.yul\":4804:4838   */\n      eq\n        /* \"#utility.yul\":4794:4796   */\n      tag_112\n      jumpi\n        /* \"#utility.yul\":4852:4853   */\n      0x00\n        /* \"#utility.yul\":4849:4850   */\n      dup1\n        /* \"#utility.yul\":4842:4854   */\n      revert\n        /* \"#utility.yul\":4794:4796   */\n    tag_112:\n        /* \"#utility.yul\":4784:4862   */\n      pop\n      jump\t// out\n\n    auxdata: 0xa26469706673582212204a8b5bb1e15314f64243d2e217549e32e9d5590a8e3a448cf74d704b444b545f64736f6c63430008000033\n}\n",
				"bytecode": {
					"linkReferences": {},
					"object": "608060405260646000556040518060400160405280600681526020017f4c6f6e646f6e00000000000000000000000000000000000000000000000000008152506001908051906020019062000056929190620000b6565b503480156200006457600080fd5b506040516200096b3803806200096b83398181016040528101906200008a919062000206565b826000819055508160019080519060200190620000a9929190620000b6565b5033905050505062000418565b828054620000c49062000350565b90600052602060002090601f016020900481019282620000e8576000855562000134565b82601f106200010357805160ff191683800117855562000134565b8280016001018555821562000134579182015b828111156200013357825182559160200191906001019062000116565b5b50905062000143919062000147565b5090565b5b808211156200016257600081600090555060010162000148565b5090565b60006200017d6200017784620002a9565b62000275565b9050828152602081018484840111156200019657600080fd5b620001a38482856200031a565b509392505050565b600081519050620001bc81620003e4565b92915050565b600081519050620001d381620003fe565b92915050565b600082601f830112620001eb57600080fd5b8151620001fd84826020860162000166565b91505092915050565b6000806000606084860312156200021c57600080fd5b60006200022c86828701620001c2565b935050602084015167ffffffffffffffff8111156200024a57600080fd5b6200025886828701620001d9565b92505060406200026b86828701620001ab565b9150509250925092565b6000604051905081810181811067ffffffffffffffff821117156200029f576200029e620003b5565b5b8060405250919050565b600067ffffffffffffffff821115620002c757620002c6620003b5565b5b601f19601f8301169050602081019050919050565b6000620002e982620002fa565b9050919050565b6000819050919050565b600073ffffffffffffffffffffffffffffffffffffffff82169050919050565b60005b838110156200033a5780820151818401526020810190506200031d565b838111156200034a576000848401525b50505050565b600060028204905060018216806200036957607f821691505b6020821081141562000380576200037f62000386565b5b50919050565b7f4e487b7100000000000000000000000000000000000000000000000000000000600052602260045260246000fd5b7f4e487b7100000000000000000000000000000000000000000000000000000000600052604160045260246000fd5b620003ef81620002dc565b8114620003fb57600080fd5b50565b6200040981620002f0565b81146200041557600080fd5b50565b61054380620004286000396000f3fe608060405234801561001057600080fd5b506004361061004c5760003560e01c8063516f279e14610051578063827bfbdf1461006f578063a035b1fe1461008b578063f7a30806146100a9575b600080fd5b6100596100c5565b604051610066919061036a565b60405180910390f35b610089600480360381019061008491906102c6565b610153565b005b61009361016d565b6040516100a0919061034f565b60405180910390f35b6100c360048036038101906100be919061029d565b610173565b005b600180546100d290610455565b80601f01602080910402602001604051908101604052809291908181526020018280546100fe90610455565b801561014b5780601f106101205761010080835404028352916020019161014b565b820191906000526020600020905b81548152906001019060200180831161012e57829003601f168201915b505050505081565b806001908051906020019061016992919061017d565b5050565b60005481565b8060008190555050565b82805461018990610455565b90600052602060002090601f0160209004810192826101ab57600085556101f2565b82601f106101c457805160ff19168380011785556101f2565b828001600101855582156101f2579182015b828111156101f15782518255916020019190600101906101d6565b5b5090506101ff9190610203565b5090565b5b8082111561021c576000816000905550600101610204565b5090565b600061023361022e846103bd565b61038c565b90508281526020810184848401111561024b57600080fd5b610256848285610413565b509392505050565b60008135905061026d816104f6565b92915050565b600082601f83011261028457600080fd5b8135610294848260208601610220565b91505092915050565b6000602082840312156102af57600080fd5b60006102bd8482850161025e565b91505092915050565b6000602082840312156102d857600080fd5b600082013567ffffffffffffffff8111156102f257600080fd5b6102fe84828501610273565b91505092915050565b61031081610409565b82525050565b6000610321826103ed565b61032b81856103f8565b935061033b818560208601610422565b610344816104e5565b840191505092915050565b60006020820190506103646000830184610307565b92915050565b600060208201905081810360008301526103848184610316565b905092915050565b6000604051905081810181811067ffffffffffffffff821117156103b3576103b26104b6565b5b8060405250919050565b600067ffffffffffffffff8211156103d8576103d76104b6565b5b601f19601f8301169050602081019050919050565b600081519050919050565b600082825260208201905092915050565b6000819050919050565b82818337600083830152505050565b60005b83811015610440578082015181840152602081019050610425565b8381111561044f576000848401525b50505050565b6000600282049050600182168061046d57607f821691505b6020821081141561048157610480610487565b5b50919050565b7f4e487b7100000000000000000000000000000000000000000000000000000000600052602260045260246000fd5b7f4e487b7100000000000000000000000000000000000000000000000000000000600052604160045260246000fd5b6000601f19601f8301169050919050565b6104ff81610409565b811461050a57600080fd5b5056fea26469706673582212204a8b5bb1e15314f64243d2e217549e32e9d5590a8e3a448cf74d704b444b545f64736f6c63430008000033",
					"opcodes": "PUSH1 0x80 PUSH1 0x40 MSTORE PUSH1 0x64 PUSH1 0x0 SSTORE PUSH1 0x40 MLOAD DUP1 PUSH1 0x40 ADD PUSH1 0x40 MSTORE DUP1 PUSH1 0x6 DUP2 MSTORE PUSH1 0x20 ADD PUSH32 0x4C6F6E646F6E0000000000000000000000000000000000000000000000000000 DUP2 MSTORE POP PUSH1 0x1 SWAP1 DUP1 MLOAD SWAP1 PUSH1 0x20 ADD SWAP1 PUSH3 0x56 SWAP3 SWAP2 SWAP1 PUSH3 0xB6 JUMP JUMPDEST POP CALLVALUE DUP1 ISZERO PUSH3 0x64 JUMPI PUSH1 0x0 DUP1 REVERT JUMPDEST POP PUSH1 0x40 MLOAD PUSH3 0x96B CODESIZE SUB DUP1 PUSH3 0x96B DUP4 CODECOPY DUP2 DUP2 ADD PUSH1 0x40 MSTORE DUP2 ADD SWAP1 PUSH3 0x8A SWAP2 SWAP1 PUSH3 0x206 JUMP JUMPDEST DUP3 PUSH1 0x0 DUP2 SWAP1 SSTORE POP DUP2 PUSH1 0x1 SWAP1 DUP1 MLOAD SWAP1 PUSH1 0x20 ADD SWAP1 PUSH3 0xA9 SWAP3 SWAP2 SWAP1 PUSH3 0xB6 JUMP JUMPDEST POP CALLER SWAP1 POP POP POP POP PUSH3 0x418 JUMP JUMPDEST DUP3 DUP1 SLOAD PUSH3 0xC4 SWAP1 PUSH3 0x350 JUMP JUMPDEST SWAP1 PUSH1 0x0 MSTORE PUSH1 0x20 PUSH1 0x0 KECCAK256 SWAP1 PUSH1 0x1F ADD PUSH1 0x20 SWAP1 DIV DUP2 ADD SWAP3 DUP3 PUSH3 0xE8 JUMPI PUSH1 0x0 DUP6 SSTORE PUSH3 0x134 JUMP JUMPDEST DUP3 PUSH1 0x1F LT PUSH3 0x103 JUMPI DUP1 MLOAD PUSH1 0xFF NOT AND DUP4 DUP1 ADD OR DUP6 SSTORE PUSH3 0x134 JUMP JUMPDEST DUP3 DUP1 ADD PUSH1 0x1 ADD DUP6 SSTORE DUP3 ISZERO PUSH3 0x134 JUMPI SWAP2 DUP3 ADD JUMPDEST DUP3 DUP2 GT ISZERO PUSH3 0x133 JUMPI DUP3 MLOAD DUP3 SSTORE SWAP2 PUSH1 0x20 ADD SWAP2 SWAP1 PUSH1 0x1 ADD SWAP1 PUSH3 0x116 JUMP JUMPDEST JUMPDEST POP SWAP1 POP PUSH3 0x143 SWAP2 SWAP1 PUSH3 0x147 JUMP JUMPDEST POP SWAP1 JUMP JUMPDEST JUMPDEST DUP1 DUP3 GT ISZERO PUSH3 0x162 JUMPI PUSH1 0x0 DUP2 PUSH1 0x0 SWAP1 SSTORE POP PUSH1 0x1 ADD PUSH3 0x148 JUMP JUMPDEST POP SWAP1 JUMP JUMPDEST PUSH1 0x0 PUSH3 0x17D PUSH3 0x177 DUP5 PUSH3 0x2A9 JUMP JUMPDEST PUSH3 0x275 JUMP JUMPDEST SWAP1 POP DUP3 DUP2 MSTORE PUSH1 0x20 DUP2 ADD DUP5 DUP5 DUP5 ADD GT ISZERO PUSH3 0x196 JUMPI PUSH1 0x0 DUP1 REVERT JUMPDEST PUSH3 0x1A3 DUP5 DUP3 DUP6 PUSH3 0x31A JUMP JUMPDEST POP SWAP4 SWAP3 POP POP POP JUMP JUMPDEST PUSH1 0x0 DUP2 MLOAD SWAP1 POP PUSH3 0x1BC DUP2 PUSH3 0x3E4 JUMP JUMPDEST SWAP3 SWAP2 POP POP JUMP JUMPDEST PUSH1 0x0 DUP2 MLOAD SWAP1 POP PUSH3 0x1D3 DUP2 PUSH3 0x3FE JUMP JUMPDEST SWAP3 SWAP2 POP POP JUMP JUMPDEST PUSH1 0x0 DUP3 PUSH1 0x1F DUP4 ADD SLT PUSH3 0x1EB JUMPI PUSH1 0x0 DUP1 REVERT JUMPDEST DUP2 MLOAD PUSH3 0x1FD DUP5 DUP3 PUSH1 0x20 DUP7 ADD PUSH3 0x166 JUMP JUMPDEST SWAP2 POP POP SWAP3 SWAP2 POP POP JUMP JUMPDEST PUSH1 0x0 DUP1 PUSH1 0x0 PUSH1 0x60 DUP5 DUP7 SUB SLT ISZERO PUSH3 0x21C JUMPI PUSH1 0x0 DUP1 REVERT JUMPDEST PUSH1 0x0 PUSH3 0x22C DUP7 DUP3 DUP8 ADD PUSH3 0x1C2 JUMP JUMPDEST SWAP4 POP POP PUSH1 0x20 DUP5 ADD MLOAD PUSH8 0xFFFFFFFFFFFFFFFF DUP2 GT ISZERO PUSH3 0x24A JUMPI PUSH1 0x0 DUP1 REVERT JUMPDEST PUSH3 0x258 DUP7 DUP3 DUP8 ADD PUSH3 0x1D9 JUMP JUMPDEST SWAP3 POP POP PUSH1 0x40 PUSH3 0x26B DUP7 DUP3 DUP8 ADD PUSH3 0x1AB JUMP JUMPDEST SWAP2 POP POP SWAP3 POP SWAP3 POP SWAP3 JUMP JUMPDEST PUSH1 0x0 PUSH1 0x40 MLOAD SWAP1 POP DUP2 DUP2 ADD DUP2 DUP2 LT PUSH8 0xFFFFFFFFFFFFFFFF DUP3 GT OR ISZERO PUSH3 0x29F JUMPI PUSH3 0x29E PUSH3 0x3B5 JUMP JUMPDEST JUMPDEST DUP1 PUSH1 0x40 MSTORE POP SWAP2 SWAP1 POP JUMP JUMPDEST PUSH1 0x0 PUSH8 0xFFFFFFFFFFFFFFFF DUP3 GT ISZERO PUSH3 0x2C7 JUMPI PUSH3 0x2C6 PUSH3 0x3B5 JUMP JUMPDEST JUMPDEST PUSH1 0x1F NOT PUSH1 0x1F DUP4 ADD AND SWAP1 POP PUSH1 0x20 DUP2 ADD SWAP1 POP SWAP2 SWAP1 POP JUMP JUMPDEST PUSH1 0x0 PUSH3 0x2E9 DUP3 PUSH3 0x2FA JUMP JUMPDEST SWAP1 POP SWAP2 SWAP1 POP JUMP JUMPDEST PUSH1 0x0 DUP2 SWAP1 POP SWAP2 SWAP1 POP JUMP JUMPDEST PUSH1 0x0 PUSH20 0xFFFFFFFFFFFFFFFFFFFFFFFFFFFFFFFFFFFFFFFF DUP3 AND SWAP1 POP SWAP2 SWAP1 POP JUMP JUMPDEST PUSH1 0x0 JUMPDEST DUP4 DUP2 LT ISZERO PUSH3 0x33A JUMPI DUP1 DUP3 ADD MLOAD DUP2 DUP5 ADD MSTORE PUSH1 0x20 DUP2 ADD SWAP1 POP PUSH3 0x31D JUMP JUMPDEST DUP4 DUP2 GT ISZERO PUSH3 0x34A JUMPI PUSH1 0x0 DUP5 DUP5 ADD MSTORE JUMPDEST POP POP POP POP JUMP JUMPDEST PUSH1 0x0 PUSH1 0x2 DUP3 DIV SWAP1 POP PUSH1 0x1 DUP3 AND DUP1 PUSH3 0x369 JUMPI PUSH1 0x7F DUP3 AND SWAP2 POP JUMPDEST PUSH1 0x20 DUP3 LT DUP2 EQ ISZERO PUSH3 0x380 JUMPI PUSH3 0x37F PUSH3 0x386 JUMP JUMPDEST JUMPDEST POP SWAP2 SWAP1 POP JUMP JUMPDEST PUSH32 0x4E487B7100000000000000000000000000000000000000000000000000000000 PUSH1 0x0 MSTORE PUSH1 0x22 PUSH1 0x4 MSTORE PUSH1 0x24 PUSH1 0x0 REVERT JUMPDEST PUSH32 0x4E487B7100000000000000000000000000000000000000000000000000000000 PUSH1 0x0 MSTORE PUSH1 0x41 PUSH1 0x4 MSTORE PUSH1 0x24 PUSH1 0x0 REVERT JUMPDEST PUSH3 0x3EF DUP2 PUSH3 0x2DC JUMP JUMPDEST DUP2 EQ PUSH3 0x3FB JUMPI PUSH1 0x0 DUP1 REVERT JUMPDEST POP JUMP JUMPDEST PUSH3 0x409 DUP2 PUSH3 0x2F0 JUMP JUMPDEST DUP2 EQ PUSH3 0x415 JUMPI PUSH1 0x0 DUP1 REVERT JUMPDEST POP JUMP JUMPDEST PUSH2 0x543 DUP1 PUSH3 0x428 PUSH1 0x0 CODECOPY PUSH1 0x0 RETURN INVALID PUSH1 0x80 PUSH1 0x40 MSTORE CALLVALUE DUP1 ISZERO PUSH2 0x10 JUMPI PUSH1 0x0 DUP1 REVERT JUMPDEST POP PUSH1 0x4 CALLDATASIZE LT PUSH2 0x4C JUMPI PUSH1 0x0 CALLDATALOAD PUSH1 0xE0 SHR DUP1 PUSH4 0x516F279E EQ PUSH2 0x51 JUMPI DUP1 PUSH4 0x827BFBDF EQ PUSH2 0x6F JUMPI DUP1 PUSH4 0xA035B1FE EQ PUSH2 0x8B JUMPI DUP1 PUSH4 0xF7A30806 EQ PUSH2 0xA9 JUMPI JUMPDEST PUSH1 0x0 DUP1 REVERT JUMPDEST PUSH2 0x59 PUSH2 0xC5 JUMP JUMPDEST PUSH1 0x40 MLOAD PUSH2 0x66 SWAP2 SWAP1 PUSH2 0x36A JUMP JUMPDEST PUSH1 0x40 MLOAD DUP1 SWAP2 SUB SWAP1 RETURN JUMPDEST PUSH2 0x89 PUSH1 0x4 DUP1 CALLDATASIZE SUB DUP2 ADD SWAP1 PUSH2 0x84 SWAP2 SWAP1 PUSH2 0x2C6 JUMP JUMPDEST PUSH2 0x153 JUMP JUMPDEST STOP JUMPDEST PUSH2 0x93 PUSH2 0x16D JUMP JUMPDEST PUSH1 0x40 MLOAD PUSH2 0xA0 SWAP2 SWAP1 PUSH2 0x34F JUMP JUMPDEST PUSH1 0x40 MLOAD DUP1 SWAP2 SUB SWAP1 RETURN JUMPDEST PUSH2 0xC3 PUSH1 0x4 DUP1 CALLDATASIZE SUB DUP2 ADD SWAP1 PUSH2 0xBE SWAP2 SWAP1 PUSH2 0x29D JUMP JUMPDEST PUSH2 0x173 JUMP JUMPDEST STOP JUMPDEST PUSH1 0x1 DUP1 SLOAD PUSH2 0xD2 SWAP1 PUSH2 0x455 JUMP JUMPDEST DUP1 PUSH1 0x1F ADD PUSH1 0x20 DUP1 SWAP2 DIV MUL PUSH1 0x20 ADD PUSH1 0x40 MLOAD SWAP1 DUP2 ADD PUSH1 0x40 MSTORE DUP1 SWAP3 SWAP2 SWAP1 DUP2 DUP2 MSTORE PUSH1 0x20 ADD DUP3 DUP1 SLOAD PUSH2 0xFE SWAP1 PUSH2 0x455 JUMP JUMPDEST DUP1 ISZERO PUSH2 0x14B JUMPI DUP1 PUSH1 0x1F LT PUSH2 0x120 JUMPI PUSH2 0x100 DUP1 DUP4 SLOAD DIV MUL DUP4 MSTORE SWAP2 PUSH1 0x20 ADD SWAP2 PUSH2 0x14B JUMP JUMPDEST DUP3 ADD SWAP2 SWAP1 PUSH1 0x0 MSTORE PUSH1 0x20 PUSH1 0x0 KECCAK256 SWAP1 JUMPDEST DUP2 SLOAD DUP2 MSTORE SWAP1 PUSH1 0x1 ADD SWAP1 PUSH1 0x20 ADD DUP1 DUP4 GT PUSH2 0x12E JUMPI DUP3 SWAP1 SUB PUSH1 0x1F AND DUP3 ADD SWAP2 JUMPDEST POP POP POP POP POP DUP2 JUMP JUMPDEST DUP1 PUSH1 0x1 SWAP1 DUP1 MLOAD SWAP1 PUSH1 0x20 ADD SWAP1 PUSH2 0x169 SWAP3 SWAP2 SWAP1 PUSH2 0x17D JUMP JUMPDEST POP POP JUMP JUMPDEST PUSH1 0x0 SLOAD DUP2 JUMP JUMPDEST DUP1 PUSH1 0x0 DUP2 SWAP1 SSTORE POP POP JUMP JUMPDEST DUP3 DUP1 SLOAD PUSH2 0x189 SWAP1 PUSH2 0x455 JUMP JUMPDEST SWAP1 PUSH1 0x0 MSTORE PUSH1 0x20 PUSH1 0x0 KECCAK256 SWAP1 PUSH1 0x1F ADD PUSH1 0x20 SWAP1 DIV DUP2 ADD SWAP3 DUP3 PUSH2 0x1AB JUMPI PUSH1 0x0 DUP6 SSTORE PUSH2 0x1F2 JUMP JUMPDEST DUP3 PUSH1 0x1F LT PUSH2 0x1C4 JUMPI DUP1 MLOAD PUSH1 0xFF NOT AND DUP4 DUP1 ADD OR DUP6 SSTORE PUSH2 0x1F2 JUMP JUMPDEST DUP3 DUP1 ADD PUSH1 0x1 ADD DUP6 SSTORE DUP3 ISZERO PUSH2 0x1F2 JUMPI SWAP2 DUP3 ADD JUMPDEST DUP3 DUP2 GT ISZERO PUSH2 0x1F1 JUMPI DUP3 MLOAD DUP3 SSTORE SWAP2 PUSH1 0x20 ADD SWAP2 SWAP1 PUSH1 0x1 ADD SWAP1 PUSH2 0x1D6 JUMP JUMPDEST JUMPDEST POP SWAP1 POP PUSH2 0x1FF SWAP2 SWAP1 PUSH2 0x203 JUMP JUMPDEST POP SWAP1 JUMP JUMPDEST JUMPDEST DUP1 DUP3 GT ISZERO PUSH2 0x21C JUMPI PUSH1 0x0 DUP2 PUSH1 0x0 SWAP1 SSTORE POP PUSH1 0x1 ADD PUSH2 0x204 JUMP JUMPDEST POP SWAP1 JUMP JUMPDEST PUSH1 0x0 PUSH2 0x233 PUSH2 0x22E DUP5 PUSH2 0x3BD JUMP JUMPDEST PUSH2 0x38C JUMP JUMPDEST SWAP1 POP DUP3 DUP2 MSTORE PUSH1 0x20 DUP2 ADD DUP5 DUP5 DUP5 ADD GT ISZERO PUSH2 0x24B JUMPI PUSH1 0x0 DUP1 REVERT JUMPDEST PUSH2 0x256 DUP5 DUP3 DUP6 PUSH2 0x413 JUMP JUMPDEST POP SWAP4 SWAP3 POP POP POP JUMP JUMPDEST PUSH1 0x0 DUP2 CALLDATALOAD SWAP1 POP PUSH2 0x26D DUP2 PUSH2 0x4F6 JUMP JUMPDEST SWAP3 SWAP2 POP POP JUMP JUMPDEST PUSH1 0x0 DUP3 PUSH1 0x1F DUP4 ADD SLT PUSH2 0x284 JUMPI PUSH1 0x0 DUP1 REVERT JUMPDEST DUP2 CALLDATALOAD PUSH2 0x294 DUP5 DUP3 PUSH1 0x20 DUP7 ADD PUSH2 0x220 JUMP JUMPDEST SWAP2 POP POP SWAP3 SWAP2 POP POP JUMP JUMPDEST PUSH1 0x0 PUSH1 0x20 DUP3 DUP5 SUB SLT ISZERO PUSH2 0x2AF JUMPI PUSH1 0x0 DUP1 REVERT JUMPDEST PUSH1 0x0 PUSH2 0x2BD DUP5 DUP3 DUP6 ADD PUSH2 0x25E JUMP JUMPDEST SWAP2 POP POP SWAP3 SWAP2 POP POP JUMP JUMPDEST PUSH1 0x0 PUSH1 0x20 DUP3 DUP5 SUB SLT ISZERO PUSH2 0x2D8 JUMPI PUSH1 0x0 DUP1 REVERT JUMPDEST PUSH1 0x0 DUP3 ADD CALLDATALOAD PUSH8 0xFFFFFFFFFFFFFFFF DUP2 GT ISZERO PUSH2 0x2F2 JUMPI PUSH1 0x0 DUP1 REVERT JUMPDEST PUSH2 0x2FE DUP5 DUP3 DUP6 ADD PUSH2 0x273 JUMP JUMPDEST SWAP2 POP POP SWAP3 SWAP2 POP POP JUMP JUMPDEST PUSH2 0x310 DUP2 PUSH2 0x409 JUMP JUMPDEST DUP3 MSTORE POP POP JUMP JUMPDEST PUSH1 0x0 PUSH2 0x321 DUP3 PUSH2 0x3ED JUMP JUMPDEST PUSH2 0x32B DUP2 DUP6 PUSH2 0x3F8 JUMP JUMPDEST SWAP4 POP PUSH2 0x33B DUP2 DUP6 PUSH1 0x20 DUP7 ADD PUSH2 0x422 JUMP JUMPDEST PUSH2 0x344 DUP2 PUSH2 0x4E5 JUMP JUMPDEST DUP5 ADD SWAP2 POP POP SWAP3 SWAP2 POP POP JUMP JUMPDEST PUSH1 0x0 PUSH1 0x20 DUP3 ADD SWAP1 POP PUSH2 0x364 PUSH1 0x0 DUP4 ADD DUP5 PUSH2 0x307 JUMP JUMPDEST SWAP3 SWAP2 POP POP JUMP JUMPDEST PUSH1 0x0 PUSH1 0x20 DUP3 ADD SWAP1 POP DUP2 DUP2 SUB PUSH1 0x0 DUP4 ADD MSTORE PUSH2 0x384 DUP2 DUP5 PUSH2 0x316 JUMP JUMPDEST SWAP1 POP SWAP3 SWAP2 POP POP JUMP JUMPDEST PUSH1 0x0 PUSH1 0x40 MLOAD SWAP1 POP DUP2 DUP2 ADD DUP2 DUP2 LT PUSH8 0xFFFFFFFFFFFFFFFF DUP3 GT OR ISZERO PUSH2 0x3B3 JUMPI PUSH2 0x3B2 PUSH2 0x4B6 JUMP JUMPDEST JUMPDEST DUP1 PUSH1 0x40 MSTORE POP SWAP2 SWAP1 POP JUMP JUMPDEST PUSH1 0x0 PUSH8 0xFFFFFFFFFFFFFFFF DUP3 GT ISZERO PUSH2 0x3D8 JUMPI PUSH2 0x3D7 PUSH2 0x4B6 JUMP JUMPDEST JUMPDEST PUSH1 0x1F NOT PUSH1 0x1F DUP4 ADD AND SWAP1 POP PUSH1 0x20 DUP2 ADD SWAP1 POP SWAP2 SWAP1 POP JUMP JUMPDEST PUSH1 0x0 DUP2 MLOAD SWAP1 POP SWAP2 SWAP1 POP JUMP JUMPDEST PUSH1 0x0 DUP3 DUP3 MSTORE PUSH1 0x20 DUP3 ADD SWAP1 POP SWAP3 SWAP2 POP POP JUMP JUMPDEST PUSH1 0x0 DUP2 SWAP1 POP SWAP2 SWAP1 POP JUMP JUMPDEST DUP3 DUP2 DUP4 CALLDATACOPY PUSH1 0x0 DUP4 DUP4 ADD MSTORE POP POP POP JUMP JUMPDEST PUSH1 0x0 JUMPDEST DUP4 DUP2 LT ISZERO PUSH2 0x440 JUMPI DUP1 DUP3 ADD MLOAD DUP2 DUP5 ADD MSTORE PUSH1 0x20 DUP2 ADD SWAP1 POP PUSH2 0x425 JUMP JUMPDEST DUP4 DUP2 GT ISZERO PUSH2 0x44F JUMPI PUSH1 0x0 DUP5 DUP5 ADD MSTORE JUMPDEST POP POP POP POP JUMP JUMPDEST PUSH1 0x0 PUSH1 0x2 DUP3 DIV SWAP1 POP PUSH1 0x1 DUP3 AND DUP1 PUSH2 0x46D JUMPI PUSH1 0x7F DUP3 AND SWAP2 POP JUMPDEST PUSH1 0x20 DUP3 LT DUP2 EQ ISZERO PUSH2 0x481 JUMPI PUSH2 0x480 PUSH2 0x487 JUMP JUMPDEST JUMPDEST POP SWAP2 SWAP1 POP JUMP JUMPDEST PUSH32 0x4E487B7100000000000000000000000000000000000000000000000000000000 PUSH1 0x0 MSTORE PUSH1 0x22 PUSH1 0x4 MSTORE PUSH1 0x24 PUSH1 0x0 REVERT JUMPDEST PUSH32 0x4E487B7100000000000000000000000000000000000000000000000000000000 PUSH1 0x0 MSTORE PUSH1 0x41 PUSH1 0x4 MSTORE PUSH1 0x24 PUSH1 0x0 REVERT JUMPDEST PUSH1 0x0 PUSH1 0x1F NOT PUSH1 0x1F DUP4 ADD AND SWAP1 POP SWAP2 SWAP1 POP JUMP JUMPDEST PUSH2 0x4FF DUP2 PUSH2 0x409 JUMP JUMPDEST DUP2 EQ PUSH2 0x50A JUMPI PUSH1 0x0 DUP1 REVERT JUMPDEST POP JUMP INVALID LOG2 PUSH5 0x6970667358 0x22 SLT KECCAK256 0x4A DUP12 JUMPDEST 0xB1 0xE1 MSTORE8 EQ 0xF6 TIMESTAMP NUMBER 0xD2 0xE2 OR SLOAD SWAP15 ORIGIN 0xE9 0xD5 MSIZE EXP DUP15 GASPRICE DIFFICULTY DUP13 0xF7 0x4D PUSH17 0x4B444B545F64736F6C6343000800003300 "
				},
				"gasEstimates": {
					"creation": {
						"codeDepositCost": "269400",
						"executionCost": "infinite",
						"totalCost": "infinite"
					},
					"external": {
						"location()": "infinite",
						"price()": "1151",
						"setLocation(string)": "infinite",
						"setPrice(int256)": "20464"
					}
				},
				"methodIdentifiers": {
					"location()": "516f279e",
					"price()": "a035b1fe",
					"setLocation(string)": "827bfbdf",
					"setPrice(int256)": "f7a30806"
				}
			},
			"storageLayout": {
				"storage": [
					{
						"astId": 4,
						"contract": "contracts/newContract.sol:Property",
						"label": "price",
						"offset": 0,
						"slot": "0",
						"type": "t_int256"
					},
					{
						"astId": 7,
						"contract": "contracts/newContract.sol:Property",
						"label": "location",
						"offset": 0,
						"slot": "1",
						"type": "t_string_storage"
					}
				],
				"types": {
					"t_int256": {
						"encoding": "inplace",
						"label": "int256",
						"numberOfBytes": "32"
					},
					"t_string_storage": {
						"encoding": "bytes",
						"label": "string",
						"numberOfBytes": "32"
					}
				}
			},
			"userdoc": {
				"kind": "user",
				"methods": {},
				"version": 1
			}
		}
	}
}