{
	"contracts/deploy_auction.sol": {
		"Creator": {
			"abi": [
				{
					"inputs": [],
					"stateMutability": "nonpayable",
					"type": "constructor"
				},
				{
					"inputs": [],
					"name": "deployA",
					"outputs": [],
					"stateMutability": "nonpayable",
					"type": "function"
				},
				{
					"inputs": [
						{
							"internalType": "uint256",
							"name": "",
							"type": "uint256"
						}
					],
					"name": "deployedA",
					"outputs": [
						{
							"internalType": "contract A",
							"name": "",
							"type": "address"
						}
					],
					"stateMutability": "view",
					"type": "function"
				},
				{
					"inputs": [],
					"name": "ownerCreator",
					"outputs": [
						{
							"internalType": "address",
							"name": "",
							"type": "address"
						}
					],
					"stateMutability": "view",
					"type": "function"
				}
			],
			"devdoc": {
				"kind": "dev",
				"methods": {},
				"version": 1
			},
			"evm": {
				"assembly": "    /* \"contracts/deploy_auction.sol\":186:617  contract Creator{\r... */\n  mstore(0x40, 0x80)\n    /* \"contracts/deploy_auction.sol\":301:358  constructor(){\r... */\n  callvalue\n  dup1\n  iszero\n  tag_1\n  jumpi\n  0x00\n  dup1\n  revert\ntag_1:\n  pop\n    /* \"contracts/deploy_auction.sol\":340:350  msg.sender */\n  caller\n    /* \"contracts/deploy_auction.sol\":325:337  ownerCreator */\n  0x00\n  dup1\n    /* \"contracts/deploy_auction.sol\":325:350  ownerCreator = msg.sender */\n  0x0100\n  exp\n  dup2\n  sload\n  dup2\n  0xffffffffffffffffffffffffffffffffffffffff\n  mul\n  not\n  and\n  swap1\n  dup4\n  0xffffffffffffffffffffffffffffffffffffffff\n  and\n  mul\n  or\n  swap1\n  sstore\n  pop\n    /* \"contracts/deploy_auction.sol\":186:617  contract Creator{\r... */\n  dataSize(sub_0)\n  dup1\n  dataOffset(sub_0)\n  0x00\n  codecopy\n  0x00\n  return\nstop\n\nsub_0: assembly {\n        /* \"contracts/deploy_auction.sol\":186:617  contract Creator{\r... */\n      mstore(0x40, 0x80)\n      callvalue\n      dup1\n      iszero\n      tag_1\n      jumpi\n      0x00\n      dup1\n      revert\n    tag_1:\n      pop\n      jumpi(tag_2, lt(calldatasize, 0x04))\n      shr(0xe0, calldataload(0x00))\n      dup1\n      0x94fa4198\n      eq\n      tag_3\n      jumpi\n      dup1\n      0xf0a31d26\n      eq\n      tag_4\n      jumpi\n      dup1\n      0xf4baaa61\n      eq\n      tag_5\n      jumpi\n    tag_2:\n      0x00\n      dup1\n      revert\n        /* \"contracts/deploy_auction.sol\":209:236  address public ownerCreator */\n    tag_3:\n      tag_6\n      tag_7\n      jump\t// in\n    tag_6:\n      mload(0x40)\n      tag_8\n      swap2\n      swap1\n      tag_9\n      jump\t// in\n    tag_8:\n      mload(0x40)\n      dup1\n      swap2\n      sub\n      swap1\n      return\n        /* \"contracts/deploy_auction.sol\":272:292  A[] public deployedA */\n    tag_4:\n      tag_10\n      0x04\n      dup1\n      calldatasize\n      sub\n      dup2\n      add\n      swap1\n      tag_11\n      swap2\n      swap1\n      tag_12\n      jump\t// in\n    tag_11:\n      tag_13\n      jump\t// in\n    tag_10:\n      mload(0x40)\n      tag_14\n      swap2\n      swap1\n      tag_15\n      jump\t// in\n    tag_14:\n      mload(0x40)\n      dup1\n      swap2\n      sub\n      swap1\n      return\n        /* \"contracts/deploy_auction.sol\":366:614  function deployA() public{\r... */\n    tag_5:\n      tag_16\n      tag_17\n      jump\t// in\n    tag_16:\n      stop\n        /* \"contracts/deploy_auction.sol\":209:236  address public ownerCreator */\n    tag_7:\n      0x00\n      dup1\n      sload\n      swap1\n      0x0100\n      exp\n      swap1\n      div\n      0xffffffffffffffffffffffffffffffffffffffff\n      and\n      dup2\n      jump\t// out\n        /* \"contracts/deploy_auction.sol\":272:292  A[] public deployedA */\n    tag_13:\n      0x01\n      dup2\n      dup2\n      sload\n      dup2\n      lt\n      tag_18\n      jumpi\n      0x00\n      dup1\n      revert\n    tag_18:\n      swap1\n      0x00\n      mstore\n      keccak256(0x00, 0x20)\n      add\n      0x00\n      swap2\n      pop\n      sload\n      swap1\n      0x0100\n      exp\n      swap1\n      div\n      0xffffffffffffffffffffffffffffffffffffffff\n      and\n      dup2\n      jump\t// out\n        /* \"contracts/deploy_auction.sol\":366:614  function deployA() public{\r... */\n    tag_17:\n        /* \"contracts/deploy_auction.sol\":465:480  A new_A_address */\n      0x00\n        /* \"contracts/deploy_auction.sol\":489:499  msg.sender */\n      caller\n        /* \"contracts/deploy_auction.sol\":483:500  new A(msg.sender) */\n      mload(0x40)\n      tag_21\n      swap1\n      tag_22\n      jump\t// in\n    tag_21:\n      tag_23\n      swap2\n      swap1\n      tag_9\n      jump\t// in\n    tag_23:\n      mload(0x40)\n      dup1\n      swap2\n      sub\n      swap1\n      0x00\n      create\n      dup1\n      iszero\n      dup1\n      iszero\n      tag_24\n      jumpi\n      returndatasize\n      0x00\n      dup1\n      returndatacopy\n      revert(0x00, returndatasize)\n    tag_24:\n      pop\n        /* \"contracts/deploy_auction.sol\":465:500  A new_A_address = new A(msg.sender) */\n      swap1\n      pop\n        /* \"contracts/deploy_auction.sol\":567:576  deployedA */\n      0x01\n        /* \"contracts/deploy_auction.sol\":582:595  new_A_address */\n      dup2\n        /* \"contracts/deploy_auction.sol\":567:596  deployedA.push(new_A_address) */\n      swap1\n      dup1\n      0x01\n      dup2\n      sload\n      add\n      dup1\n      dup3\n      sstore\n      dup1\n      swap2\n      pop\n      pop\n      0x01\n      swap1\n      sub\n      swap1\n      0x00\n      mstore\n      keccak256(0x00, 0x20)\n      add\n      0x00\n      swap1\n      swap2\n      swap1\n      swap2\n      swap1\n      swap2\n      0x0100\n      exp\n      dup2\n      sload\n      dup2\n      0xffffffffffffffffffffffffffffffffffffffff\n      mul\n      not\n      and\n      swap1\n      dup4\n      0xffffffffffffffffffffffffffffffffffffffff\n      and\n      mul\n      or\n      swap1\n      sstore\n      pop\n        /* \"contracts/deploy_auction.sol\":391:614  {\r... */\n      pop\n        /* \"contracts/deploy_auction.sol\":366:614  function deployA() public{\r... */\n      jump\t// out\n    tag_22:\n      dataSize(sub_0)\n      dup1\n      dataOffset(sub_0)\n      dup4\n      codecopy\n      add\n      swap1\n      jump\t// out\n        /* \"#utility.yul\":7:146   */\n    tag_27:\n        /* \"#utility.yul\":53:58   */\n      0x00\n        /* \"#utility.yul\":91:97   */\n      dup2\n        /* \"#utility.yul\":78:98   */\n      calldataload\n        /* \"#utility.yul\":69:98   */\n      swap1\n      pop\n        /* \"#utility.yul\":107:140   */\n      tag_29\n        /* \"#utility.yul\":134:139   */\n      dup2\n        /* \"#utility.yul\":107:140   */\n      tag_30\n      jump\t// in\n    tag_29:\n        /* \"#utility.yul\":7:146   */\n      swap3\n      swap2\n      pop\n      pop\n      jump\t// out\n        /* \"#utility.yul\":152:481   */\n    tag_12:\n        /* \"#utility.yul\":211:217   */\n      0x00\n        /* \"#utility.yul\":260:262   */\n      0x20\n        /* \"#utility.yul\":248:257   */\n      dup3\n        /* \"#utility.yul\":239:246   */\n      dup5\n        /* \"#utility.yul\":235:258   */\n      sub\n        /* \"#utility.yul\":231:263   */\n      slt\n        /* \"#utility.yul\":228:347   */\n      iszero\n      tag_32\n      jumpi\n        /* \"#utility.yul\":266:345   */\n      tag_33\n      tag_34\n      jump\t// in\n    tag_33:\n        /* \"#utility.yul\":228:347   */\n    tag_32:\n        /* \"#utility.yul\":386:387   */\n      0x00\n        /* \"#utility.yul\":411:464   */\n      tag_35\n        /* \"#utility.yul\":456:463   */\n      dup5\n        /* \"#utility.yul\":447:453   */\n      dup3\n        /* \"#utility.yul\":436:445   */\n      dup6\n        /* \"#utility.yul\":432:454   */\n      add\n        /* \"#utility.yul\":411:464   */\n      tag_27\n      jump\t// in\n    tag_35:\n        /* \"#utility.yul\":401:464   */\n      swap2\n      pop\n        /* \"#utility.yul\":357:474   */\n      pop\n        /* \"#utility.yul\":152:481   */\n      swap3\n      swap2\n      pop\n      pop\n      jump\t// out\n        /* \"#utility.yul\":487:605   */\n    tag_36:\n        /* \"#utility.yul\":574:598   */\n      tag_38\n        /* \"#utility.yul\":592:597   */\n      dup2\n        /* \"#utility.yul\":574:598   */\n      tag_39\n      jump\t// in\n    tag_38:\n        /* \"#utility.yul\":569:572   */\n      dup3\n        /* \"#utility.yul\":562:599   */\n      mstore\n        /* \"#utility.yul\":487:605   */\n      pop\n      pop\n      jump\t// out\n        /* \"#utility.yul\":611:758   */\n    tag_40:\n        /* \"#utility.yul\":706:751   */\n      tag_42\n        /* \"#utility.yul\":745:750   */\n      dup2\n        /* \"#utility.yul\":706:751   */\n      tag_43\n      jump\t// in\n    tag_42:\n        /* \"#utility.yul\":701:704   */\n      dup3\n        /* \"#utility.yul\":694:752   */\n      mstore\n        /* \"#utility.yul\":611:758   */\n      pop\n      pop\n      jump\t// out\n        /* \"#utility.yul\":764:986   */\n    tag_9:\n        /* \"#utility.yul\":857:861   */\n      0x00\n        /* \"#utility.yul\":895:897   */\n      0x20\n        /* \"#utility.yul\":884:893   */\n      dup3\n        /* \"#utility.yul\":880:898   */\n      add\n        /* \"#utility.yul\":872:898   */\n      swap1\n      pop\n        /* \"#utility.yul\":908:979   */\n      tag_45\n        /* \"#utility.yul\":976:977   */\n      0x00\n        /* \"#utility.yul\":965:974   */\n      dup4\n        /* \"#utility.yul\":961:978   */\n      add\n        /* \"#utility.yul\":952:958   */\n      dup5\n        /* \"#utility.yul\":908:979   */\n      tag_36\n      jump\t// in\n    tag_45:\n        /* \"#utility.yul\":764:986   */\n      swap3\n      swap2\n      pop\n      pop\n      jump\t// out\n        /* \"#utility.yul\":992:1230   */\n    tag_15:\n        /* \"#utility.yul\":1093:1097   */\n      0x00\n        /* \"#utility.yul\":1131:1133   */\n      0x20\n        /* \"#utility.yul\":1120:1129   */\n      dup3\n        /* \"#utility.yul\":1116:1134   */\n      add\n        /* \"#utility.yul\":1108:1134   */\n      swap1\n      pop\n        /* \"#utility.yul\":1144:1223   */\n      tag_47\n        /* \"#utility.yul\":1220:1221   */\n      0x00\n        /* \"#utility.yul\":1209:1218   */\n      dup4\n        /* \"#utility.yul\":1205:1222   */\n      add\n        /* \"#utility.yul\":1196:1202   */\n      dup5\n        /* \"#utility.yul\":1144:1223   */\n      tag_40\n      jump\t// in\n    tag_47:\n        /* \"#utility.yul\":992:1230   */\n      swap3\n      swap2\n      pop\n      pop\n      jump\t// out\n        /* \"#utility.yul\":1317:1413   */\n    tag_39:\n        /* \"#utility.yul\":1354:1361   */\n      0x00\n        /* \"#utility.yul\":1383:1407   */\n      tag_51\n        /* \"#utility.yul\":1401:1406   */\n      dup3\n        /* \"#utility.yul\":1383:1407   */\n      tag_52\n      jump\t// in\n    tag_51:\n        /* \"#utility.yul\":1372:1407   */\n      swap1\n      pop\n        /* \"#utility.yul\":1317:1413   */\n      swap2\n      swap1\n      pop\n      jump\t// out\n        /* \"#utility.yul\":1419:1545   */\n    tag_52:\n        /* \"#utility.yul\":1456:1463   */\n      0x00\n        /* \"#utility.yul\":1496:1538   */\n      0xffffffffffffffffffffffffffffffffffffffff\n        /* \"#utility.yul\":1489:1494   */\n      dup3\n        /* \"#utility.yul\":1485:1539   */\n      and\n        /* \"#utility.yul\":1474:1539   */\n      swap1\n      pop\n        /* \"#utility.yul\":1419:1545   */\n      swap2\n      swap1\n      pop\n      jump\t// out\n        /* \"#utility.yul\":1551:1628   */\n    tag_54:\n        /* \"#utility.yul\":1588:1595   */\n      0x00\n        /* \"#utility.yul\":1617:1622   */\n      dup2\n        /* \"#utility.yul\":1606:1622   */\n      swap1\n      pop\n        /* \"#utility.yul\":1551:1628   */\n      swap2\n      swap1\n      pop\n      jump\t// out\n        /* \"#utility.yul\":1634:1768   */\n    tag_43:\n        /* \"#utility.yul\":1692:1701   */\n      0x00\n        /* \"#utility.yul\":1725:1762   */\n      tag_57\n        /* \"#utility.yul\":1756:1761   */\n      dup3\n        /* \"#utility.yul\":1725:1762   */\n      tag_58\n      jump\t// in\n    tag_57:\n        /* \"#utility.yul\":1712:1762   */\n      swap1\n      pop\n        /* \"#utility.yul\":1634:1768   */\n      swap2\n      swap1\n      pop\n      jump\t// out\n        /* \"#utility.yul\":1774:1900   */\n    tag_58:\n        /* \"#utility.yul\":1824:1833   */\n      0x00\n        /* \"#utility.yul\":1857:1894   */\n      tag_60\n        /* \"#utility.yul\":1888:1893   */\n      dup3\n        /* \"#utility.yul\":1857:1894   */\n      tag_61\n      jump\t// in\n    tag_60:\n        /* \"#utility.yul\":1844:1894   */\n      swap1\n      pop\n        /* \"#utility.yul\":1774:1900   */\n      swap2\n      swap1\n      pop\n      jump\t// out\n        /* \"#utility.yul\":1906:2019   */\n    tag_61:\n        /* \"#utility.yul\":1956:1965   */\n      0x00\n        /* \"#utility.yul\":1989:2013   */\n      tag_63\n        /* \"#utility.yul\":2007:2012   */\n      dup3\n        /* \"#utility.yul\":1989:2013   */\n      tag_52\n      jump\t// in\n    tag_63:\n        /* \"#utility.yul\":1976:2013   */\n      swap1\n      pop\n        /* \"#utility.yul\":1906:2019   */\n      swap2\n      swap1\n      pop\n      jump\t// out\n        /* \"#utility.yul\":2148:2265   */\n    tag_34:\n        /* \"#utility.yul\":2257:2258   */\n      0x00\n        /* \"#utility.yul\":2254:2255   */\n      dup1\n        /* \"#utility.yul\":2247:2259   */\n      revert\n        /* \"#utility.yul\":2271:2393   */\n    tag_30:\n        /* \"#utility.yul\":2344:2368   */\n      tag_68\n        /* \"#utility.yul\":2362:2367   */\n      dup2\n        /* \"#utility.yul\":2344:2368   */\n      tag_54\n      jump\t// in\n    tag_68:\n        /* \"#utility.yul\":2337:2342   */\n      dup2\n        /* \"#utility.yul\":2334:2369   */\n      eq\n        /* \"#utility.yul\":2324:2387   */\n      tag_69\n      jumpi\n        /* \"#utility.yul\":2383:2384   */\n      0x00\n        /* \"#utility.yul\":2380:2381   */\n      dup1\n        /* \"#utility.yul\":2373:2385   */\n      revert\n        /* \"#utility.yul\":2324:2387   */\n    tag_69:\n        /* \"#utility.yul\":2271:2393   */\n      pop\n      jump\t// out\n    stop\n\n    sub_0: assembly {\n            /* \"contracts/deploy_auction.sol\":73:182  contract A{\r... */\n          mstore(0x40, 0x80)\n            /* \"contracts/deploy_auction.sol\":120:179  constructor(address) {\r... */\n          callvalue\n          dup1\n          iszero\n          tag_1\n          jumpi\n          0x00\n          dup1\n          revert\n        tag_1:\n          pop\n          mload(0x40)\n          sub(codesize, bytecodeSize)\n          dup1\n          bytecodeSize\n          dup4\n          codecopy\n          dup2\n          dup2\n          add\n          0x40\n          mstore\n          dup2\n          add\n          swap1\n          tag_2\n          swap2\n          swap1\n          tag_3\n          jump\t// in\n        tag_2:\n            /* \"contracts/deploy_auction.sol\":161:171  msg.sender */\n          caller\n            /* \"contracts/deploy_auction.sol\":152:158  ownerA */\n          0x00\n          dup1\n            /* \"contracts/deploy_auction.sol\":152:171  ownerA = msg.sender */\n          0x0100\n          exp\n          dup2\n          sload\n          dup2\n          0xffffffffffffffffffffffffffffffffffffffff\n          mul\n          not\n          and\n          swap1\n          dup4\n          0xffffffffffffffffffffffffffffffffffffffff\n          and\n          mul\n          or\n          swap1\n          sstore\n          pop\n            /* \"contracts/deploy_auction.sol\":120:179  constructor(address) {\r... */\n          pop\n            /* \"contracts/deploy_auction.sol\":73:182  contract A{\r... */\n          jump(tag_6)\n            /* \"#utility.yul\":7:150   */\n        tag_8:\n            /* \"#utility.yul\":64:69   */\n          0x00\n            /* \"#utility.yul\":95:101   */\n          dup2\n            /* \"#utility.yul\":89:102   */\n          mload\n            /* \"#utility.yul\":80:102   */\n          swap1\n          pop\n            /* \"#utility.yul\":111:144   */\n          tag_10\n            /* \"#utility.yul\":138:143   */\n          dup2\n            /* \"#utility.yul\":111:144   */\n          tag_11\n          jump\t// in\n        tag_10:\n            /* \"#utility.yul\":7:150   */\n          swap3\n          swap2\n          pop\n          pop\n          jump\t// out\n            /* \"#utility.yul\":156:507   */\n        tag_3:\n            /* \"#utility.yul\":226:232   */\n          0x00\n            /* \"#utility.yul\":275:277   */\n          0x20\n            /* \"#utility.yul\":263:272   */\n          dup3\n            /* \"#utility.yul\":254:261   */\n          dup5\n            /* \"#utility.yul\":250:273   */\n          sub\n            /* \"#utility.yul\":246:278   */\n          slt\n            /* \"#utility.yul\":243:362   */\n          iszero\n          tag_13\n          jumpi\n            /* \"#utility.yul\":281:360   */\n          tag_14\n          tag_15\n          jump\t// in\n        tag_14:\n            /* \"#utility.yul\":243:362   */\n        tag_13:\n            /* \"#utility.yul\":401:402   */\n          0x00\n            /* \"#utility.yul\":426:490   */\n          tag_16\n            /* \"#utility.yul\":482:489   */\n          dup5\n            /* \"#utility.yul\":473:479   */\n          dup3\n            /* \"#utility.yul\":462:471   */\n          dup6\n            /* \"#utility.yul\":458:480   */\n          add\n            /* \"#utility.yul\":426:490   */\n          tag_8\n          jump\t// in\n        tag_16:\n            /* \"#utility.yul\":416:490   */\n          swap2\n          pop\n            /* \"#utility.yul\":372:500   */\n          pop\n            /* \"#utility.yul\":156:507   */\n          swap3\n          swap2\n          pop\n          pop\n          jump\t// out\n            /* \"#utility.yul\":594:690   */\n        tag_19:\n            /* \"#utility.yul\":631:638   */\n          0x00\n            /* \"#utility.yul\":660:684   */\n          tag_21\n            /* \"#utility.yul\":678:683   */\n          dup3\n            /* \"#utility.yul\":660:684   */\n          tag_22\n          jump\t// in\n        tag_21:\n            /* \"#utility.yul\":649:684   */\n          swap1\n          pop\n            /* \"#utility.yul\":594:690   */\n          swap2\n          swap1\n          pop\n          jump\t// out\n            /* \"#utility.yul\":696:822   */\n        tag_22:\n            /* \"#utility.yul\":733:740   */\n          0x00\n            /* \"#utility.yul\":773:815   */\n          0xffffffffffffffffffffffffffffffffffffffff\n            /* \"#utility.yul\":766:771   */\n          dup3\n            /* \"#utility.yul\":762:816   */\n          and\n            /* \"#utility.yul\":751:816   */\n          swap1\n          pop\n            /* \"#utility.yul\":696:822   */\n          swap2\n          swap1\n          pop\n          jump\t// out\n            /* \"#utility.yul\":951:1068   */\n        tag_15:\n            /* \"#utility.yul\":1060:1061   */\n          0x00\n            /* \"#utility.yul\":1057:1058   */\n          dup1\n            /* \"#utility.yul\":1050:1062   */\n          revert\n            /* \"#utility.yul\":1074:1196   */\n        tag_11:\n            /* \"#utility.yul\":1147:1171   */\n          tag_28\n            /* \"#utility.yul\":1165:1170   */\n          dup2\n            /* \"#utility.yul\":1147:1171   */\n          tag_19\n          jump\t// in\n        tag_28:\n            /* \"#utility.yul\":1140:1145   */\n          dup2\n            /* \"#utility.yul\":1137:1172   */\n          eq\n            /* \"#utility.yul\":1127:1190   */\n          tag_29\n          jumpi\n            /* \"#utility.yul\":1186:1187   */\n          0x00\n            /* \"#utility.yul\":1183:1184   */\n          dup1\n            /* \"#utility.yul\":1176:1188   */\n          revert\n            /* \"#utility.yul\":1127:1190   */\n        tag_29:\n            /* \"#utility.yul\":1074:1196   */\n          pop\n          jump\t// out\n            /* \"contracts/deploy_auction.sol\":73:182  contract A{\r... */\n        tag_6:\n          dataSize(sub_0)\n          dup1\n          dataOffset(sub_0)\n          0x00\n          codecopy\n          0x00\n          return\n        stop\n\n        sub_0: assembly {\n                /* \"contracts/deploy_auction.sol\":73:182  contract A{\r... */\n              mstore(0x40, 0x80)\n              callvalue\n              dup1\n              iszero\n              tag_1\n              jumpi\n              0x00\n              dup1\n              revert\n            tag_1:\n              pop\n              jumpi(tag_2, lt(calldatasize, 0x04))\n              shr(0xe0, calldataload(0x00))\n              dup1\n              0xe06f3d38\n              eq\n              tag_3\n              jumpi\n            tag_2:\n              0x00\n              dup1\n              revert\n                /* \"contracts/deploy_auction.sol\":90:111  address public ownerA */\n            tag_3:\n              tag_4\n              tag_5\n              jump\t// in\n            tag_4:\n              mload(0x40)\n              tag_6\n              swap2\n              swap1\n              tag_7\n              jump\t// in\n            tag_6:\n              mload(0x40)\n              dup1\n              swap2\n              sub\n              swap1\n              return\n            tag_5:\n              0x00\n              dup1\n              sload\n              swap1\n              0x0100\n              exp\n              swap1\n              div\n              0xffffffffffffffffffffffffffffffffffffffff\n              and\n              dup2\n              jump\t// out\n                /* \"#utility.yul\":7:125   */\n            tag_9:\n                /* \"#utility.yul\":94:118   */\n              tag_11\n                /* \"#utility.yul\":112:117   */\n              dup2\n                /* \"#utility.yul\":94:118   */\n              tag_12\n              jump\t// in\n            tag_11:\n                /* \"#utility.yul\":89:92   */\n              dup3\n                /* \"#utility.yul\":82:119   */\n              mstore\n                /* \"#utility.yul\":7:125   */\n              pop\n              pop\n              jump\t// out\n                /* \"#utility.yul\":131:353   */\n            tag_7:\n                /* \"#utility.yul\":224:228   */\n              0x00\n                /* \"#utility.yul\":262:264   */\n              0x20\n                /* \"#utility.yul\":251:260   */\n              dup3\n                /* \"#utility.yul\":247:265   */\n              add\n                /* \"#utility.yul\":239:265   */\n              swap1\n              pop\n                /* \"#utility.yul\":275:346   */\n              tag_14\n                /* \"#utility.yul\":343:344   */\n              0x00\n                /* \"#utility.yul\":332:341   */\n              dup4\n                /* \"#utility.yul\":328:345   */\n              add\n                /* \"#utility.yul\":319:325   */\n              dup5\n                /* \"#utility.yul\":275:346   */\n              tag_9\n              jump\t// in\n            tag_14:\n                /* \"#utility.yul\":131:353   */\n              swap3\n              swap2\n              pop\n              pop\n              jump\t// out\n                /* \"#utility.yul\":359:455   */\n            tag_12:\n                /* \"#utility.yul\":396:403   */\n              0x00\n                /* \"#utility.yul\":425:449   */\n              tag_16\n                /* \"#utility.yul\":443:448   */\n              dup3\n                /* \"#utility.yul\":425:449   */\n              tag_17\n              jump\t// in\n            tag_16:\n                /* \"#utility.yul\":414:449   */\n              swap1\n              pop\n                /* \"#utility.yul\":359:455   */\n              swap2\n              swap1\n              pop\n              jump\t// out\n                /* \"#utility.yul\":461:587   */\n            tag_17:\n                /* \"#utility.yul\":498:505   */\n              0x00\n                /* \"#utility.yul\":538:580   */\n              0xffffffffffffffffffffffffffffffffffffffff\n                /* \"#utility.yul\":531:536   */\n              dup3\n                /* \"#utility.yul\":527:581   */\n              and\n                /* \"#utility.yul\":516:581   */\n              swap1\n              pop\n                /* \"#utility.yul\":461:587   */\n              swap2\n              swap1\n              pop\n              jump\t// out\n\n            auxdata: 0xa2646970667358221220c96e1638257693aa3e748d4d7224bb1deaa54845b2a92980ee36e0651eac043e64736f6c63430008070033\n        }\n    }\n\n    auxdata: 0xa264697066735822122027daf24fa65e4eea880e428da38ee06777ef453ba8b42b56a1644064a10dbc7164736f6c63430008070033\n}\n",
				"bytecode": {
					"linkReferences": {},
					"object": "608060405234801561001057600080fd5b50336000806101000a81548173ffffffffffffffffffffffffffffffffffffffff021916908373ffffffffffffffffffffffffffffffffffffffff160217905550610513806100606000396000f3fe608060405234801561001057600080fd5b50600436106100415760003560e01c806394fa419814610046578063f0a31d2614610064578063f4baaa6114610094575b600080fd5b61004e61009e565b60405161005b919061020c565b60405180910390f35b61007e600480360381019061007991906101c1565b6100c2565b60405161008b9190610227565b60405180910390f35b61009c610101565b005b60008054906101000a900473ffffffffffffffffffffffffffffffffffffffff1681565b600181815481106100d257600080fd5b906000526020600020016000915054906101000a900473ffffffffffffffffffffffffffffffffffffffff1681565b6000336040516101109061019f565b61011a919061020c565b604051809103906000f080158015610136573d6000803e3d6000fd5b5090506001819080600181540180825580915050600190039060005260206000200160009091909190916101000a81548173ffffffffffffffffffffffffffffffffffffffff021916908373ffffffffffffffffffffffffffffffffffffffff16021790555050565b61020d806102d183390190565b6000813590506101bb816102b9565b92915050565b6000602082840312156101d7576101d66102b4565b5b60006101e5848285016101ac565b91505092915050565b6101f781610242565b82525050565b6102068161027e565b82525050565b600060208201905061022160008301846101ee565b92915050565b600060208201905061023c60008301846101fd565b92915050565b600061024d82610254565b9050919050565b600073ffffffffffffffffffffffffffffffffffffffff82169050919050565b6000819050919050565b600061028982610290565b9050919050565b600061029b826102a2565b9050919050565b60006102ad82610254565b9050919050565b600080fd5b6102c281610274565b81146102cd57600080fd5b5056fe608060405234801561001057600080fd5b5060405161020d38038061020d8339818101604052810190610032919061008d565b336000806101000a81548173ffffffffffffffffffffffffffffffffffffffff021916908373ffffffffffffffffffffffffffffffffffffffff16021790555050610108565b600081519050610087816100f1565b92915050565b6000602082840312156100a3576100a26100ec565b5b60006100b184828501610078565b91505092915050565b60006100c5826100cc565b9050919050565b600073ffffffffffffffffffffffffffffffffffffffff82169050919050565b600080fd5b6100fa816100ba565b811461010557600080fd5b50565b60f7806101166000396000f3fe6080604052348015600f57600080fd5b506004361060285760003560e01c8063e06f3d3814602d575b600080fd5b60336047565b604051603e91906078565b60405180910390f35b60008054906101000a900473ffffffffffffffffffffffffffffffffffffffff1681565b6072816091565b82525050565b6000602082019050608b6000830184606b565b92915050565b6000609a8260a1565b9050919050565b600073ffffffffffffffffffffffffffffffffffffffff8216905091905056fea2646970667358221220c96e1638257693aa3e748d4d7224bb1deaa54845b2a92980ee36e0651eac043e64736f6c63430008070033a264697066735822122027daf24fa65e4eea880e428da38ee06777ef453ba8b42b56a1644064a10dbc7164736f6c63430008070033",
					"opcodes": "PUSH1 0x80 PUSH1 0x40 MSTORE CALLVALUE DUP1 ISZERO PUSH2 0x10 JUMPI PUSH1 0x0 DUP1 REVERT JUMPDEST POP CALLER PUSH1 0x0 DUP1 PUSH2 0x100 EXP DUP2 SLOAD DUP2 PUSH20 0xFFFFFFFFFFFFFFFFFFFFFFFFFFFFFFFFFFFFFFFF MUL NOT AND SWAP1 DUP4 PUSH20 0xFFFFFFFFFFFFFFFFFFFFFFFFFFFFFFFFFFFFFFFF AND MUL OR SWAP1 SSTORE POP PUSH2 0x513 DUP1 PUSH2 0x60 PUSH1 0x0 CODECOPY PUSH1 0x0 RETURN INVALID PUSH1 0x80 PUSH1 0x40 MSTORE CALLVALUE DUP1 ISZERO PUSH2 0x10 JUMPI PUSH1 0x0 DUP1 REVERT JUMPDEST POP PUSH1 0x4 CALLDATASIZE LT PUSH2 0x41 JUMPI PUSH1 0x0 CALLDATALOAD PUSH1 0xE0 SHR DUP1 PUSH4 0x94FA4198 EQ PUSH2 0x46 JUMPI DUP1 PUSH4 0xF0A31D26 EQ PUSH2 0x64 JUMPI DUP1 PUSH4 0xF4BAAA61 EQ PUSH2 0x94 JUMPI JUMPDEST PUSH1 0x0 DUP1 REVERT JUMPDEST PUSH2 0x4E PUSH2 0x9E JUMP JUMPDEST PUSH1 0x40 MLOAD PUSH2 0x5B SWAP2 SWAP1 PUSH2 0x20C JUMP JUMPDEST PUSH1 0x40 MLOAD DUP1 SWAP2 SUB SWAP1 RETURN JUMPDEST PUSH2 0x7E PUSH1 0x4 DUP1 CALLDATASIZE SUB DUP2 ADD SWAP1 PUSH2 0x79 SWAP2 SWAP1 PUSH2 0x1C1 JUMP JUMPDEST PUSH2 0xC2 JUMP JUMPDEST PUSH1 0x40 MLOAD PUSH2 0x8B SWAP2 SWAP1 PUSH2 0x227 JUMP JUMPDEST PUSH1 0x40 MLOAD DUP1 SWAP2 SUB SWAP1 RETURN JUMPDEST PUSH2 0x9C PUSH2 0x101 JUMP JUMPDEST STOP JUMPDEST PUSH1 0x0 DUP1 SLOAD SWAP1 PUSH2 0x100 EXP SWAP1 DIV PUSH20 0xFFFFFFFFFFFFFFFFFFFFFFFFFFFFFFFFFFFFFFFF AND DUP2 JUMP JUMPDEST PUSH1 0x1 DUP2 DUP2 SLOAD DUP2 LT PUSH2 0xD2 JUMPI PUSH1 0x0 DUP1 REVERT JUMPDEST SWAP1 PUSH1 0x0 MSTORE PUSH1 0x20 PUSH1 0x0 KECCAK256 ADD PUSH1 0x0 SWAP2 POP SLOAD SWAP1 PUSH2 0x100 EXP SWAP1 DIV PUSH20 0xFFFFFFFFFFFFFFFFFFFFFFFFFFFFFFFFFFFFFFFF AND DUP2 JUMP JUMPDEST PUSH1 0x0 CALLER PUSH1 0x40 MLOAD PUSH2 0x110 SWAP1 PUSH2 0x19F JUMP JUMPDEST PUSH2 0x11A SWAP2 SWAP1 PUSH2 0x20C JUMP JUMPDEST PUSH1 0x40 MLOAD DUP1 SWAP2 SUB SWAP1 PUSH1 0x0 CREATE DUP1 ISZERO DUP1 ISZERO PUSH2 0x136 JUMPI RETURNDATASIZE PUSH1 0x0 DUP1 RETURNDATACOPY RETURNDATASIZE PUSH1 0x0 REVERT JUMPDEST POP SWAP1 POP PUSH1 0x1 DUP2 SWAP1 DUP1 PUSH1 0x1 DUP2 SLOAD ADD DUP1 DUP3 SSTORE DUP1 SWAP2 POP POP PUSH1 0x1 SWAP1 SUB SWAP1 PUSH1 0x0 MSTORE PUSH1 0x20 PUSH1 0x0 KECCAK256 ADD PUSH1 0x0 SWAP1 SWAP2 SWAP1 SWAP2 SWAP1 SWAP2 PUSH2 0x100 EXP DUP2 SLOAD DUP2 PUSH20 0xFFFFFFFFFFFFFFFFFFFFFFFFFFFFFFFFFFFFFFFF MUL NOT AND SWAP1 DUP4 PUSH20 0xFFFFFFFFFFFFFFFFFFFFFFFFFFFFFFFFFFFFFFFF AND MUL OR SWAP1 SSTORE POP POP JUMP JUMPDEST PUSH2 0x20D DUP1 PUSH2 0x2D1 DUP4 CODECOPY ADD SWAP1 JUMP JUMPDEST PUSH1 0x0 DUP2 CALLDATALOAD SWAP1 POP PUSH2 0x1BB DUP2 PUSH2 0x2B9 JUMP JUMPDEST SWAP3 SWAP2 POP POP JUMP JUMPDEST PUSH1 0x0 PUSH1 0x20 DUP3 DUP5 SUB SLT ISZERO PUSH2 0x1D7 JUMPI PUSH2 0x1D6 PUSH2 0x2B4 JUMP JUMPDEST JUMPDEST PUSH1 0x0 PUSH2 0x1E5 DUP5 DUP3 DUP6 ADD PUSH2 0x1AC JUMP JUMPDEST SWAP2 POP POP SWAP3 SWAP2 POP POP JUMP JUMPDEST PUSH2 0x1F7 DUP2 PUSH2 0x242 JUMP JUMPDEST DUP3 MSTORE POP POP JUMP JUMPDEST PUSH2 0x206 DUP2 PUSH2 0x27E JUMP JUMPDEST DUP3 MSTORE POP POP JUMP JUMPDEST PUSH1 0x0 PUSH1 0x20 DUP3 ADD SWAP1 POP PUSH2 0x221 PUSH1 0x0 DUP4 ADD DUP5 PUSH2 0x1EE JUMP JUMPDEST SWAP3 SWAP2 POP POP JUMP JUMPDEST PUSH1 0x0 PUSH1 0x20 DUP3 ADD SWAP1 POP PUSH2 0x23C PUSH1 0x0 DUP4 ADD DUP5 PUSH2 0x1FD JUMP JUMPDEST SWAP3 SWAP2 POP POP JUMP JUMPDEST PUSH1 0x0 PUSH2 0x24D DUP3 PUSH2 0x254 JUMP JUMPDEST SWAP1 POP SWAP2 SWAP1 POP JUMP JUMPDEST PUSH1 0x0 PUSH20 0xFFFFFFFFFFFFFFFFFFFFFFFFFFFFFFFFFFFFFFFF DUP3 AND SWAP1 POP SWAP2 SWAP1 POP JUMP JUMPDEST PUSH1 0x0 DUP2 SWAP1 POP SWAP2 SWAP1 POP JUMP JUMPDEST PUSH1 0x0 PUSH2 0x289 DUP3 PUSH2 0x290 JUMP JUMPDEST SWAP1 POP SWAP2 SWAP1 POP JUMP JUMPDEST PUSH1 0x0 PUSH2 0x29B DUP3 PUSH2 0x2A2 JUMP JUMPDEST SWAP1 POP SWAP2 SWAP1 POP JUMP JUMPDEST PUSH1 0x0 PUSH2 0x2AD DUP3 PUSH2 0x254 JUMP JUMPDEST SWAP1 POP SWAP2 SWAP1 POP JUMP JUMPDEST PUSH1 0x0 DUP1 REVERT JUMPDEST PUSH2 0x2C2 DUP2 PUSH2 0x274 JUMP JUMPDEST DUP2 EQ PUSH2 0x2CD JUMPI PUSH1 0x0 DUP1 REVERT JUMPDEST POP JUMP INVALID PUSH1 0x80 PUSH1 0x40 MSTORE CALLVALUE DUP1 ISZERO PUSH2 0x10 JUMPI PUSH1 0x0 DUP1 REVERT JUMPDEST POP PUSH1 0x40 MLOAD PUSH2 0x20D CODESIZE SUB DUP1 PUSH2 0x20D DUP4 CODECOPY DUP2 DUP2 ADD PUSH1 0x40 MSTORE DUP2 ADD SWAP1 PUSH2 0x32 SWAP2 SWAP1 PUSH2 0x8D JUMP JUMPDEST CALLER PUSH1 0x0 DUP1 PUSH2 0x100 EXP DUP2 SLOAD DUP2 PUSH20 0xFFFFFFFFFFFFFFFFFFFFFFFFFFFFFFFFFFFFFFFF MUL NOT AND SWAP1 DUP4 PUSH20 0xFFFFFFFFFFFFFFFFFFFFFFFFFFFFFFFFFFFFFFFF AND MUL OR SWAP1 SSTORE POP POP PUSH2 0x108 JUMP JUMPDEST PUSH1 0x0 DUP2 MLOAD SWAP1 POP PUSH2 0x87 DUP2 PUSH2 0xF1 JUMP JUMPDEST SWAP3 SWAP2 POP POP JUMP JUMPDEST PUSH1 0x0 PUSH1 0x20 DUP3 DUP5 SUB SLT ISZERO PUSH2 0xA3 JUMPI PUSH2 0xA2 PUSH2 0xEC JUMP JUMPDEST JUMPDEST PUSH1 0x0 PUSH2 0xB1 DUP5 DUP3 DUP6 ADD PUSH2 0x78 JUMP JUMPDEST SWAP2 POP POP SWAP3 SWAP2 POP POP JUMP JUMPDEST PUSH1 0x0 PUSH2 0xC5 DUP3 PUSH2 0xCC JUMP JUMPDEST SWAP1 POP SWAP2 SWAP1 POP JUMP JUMPDEST PUSH1 0x0 PUSH20 0xFFFFFFFFFFFFFFFFFFFFFFFFFFFFFFFFFFFFFFFF DUP3 AND SWAP1 POP SWAP2 SWAP1 POP JUMP JUMPDEST PUSH1 0x0 DUP1 REVERT JUMPDEST PUSH2 0xFA DUP2 PUSH2 0xBA JUMP JUMPDEST DUP2 EQ PUSH2 0x105 JUMPI PUSH1 0x0 DUP1 REVERT JUMPDEST POP JUMP JUMPDEST PUSH1 0xF7 DUP1 PUSH2 0x116 PUSH1 0x0 CODECOPY PUSH1 0x0 RETURN INVALID PUSH1 0x80 PUSH1 0x40 MSTORE CALLVALUE DUP1 ISZERO PUSH1 0xF JUMPI PUSH1 0x0 DUP1 REVERT JUMPDEST POP PUSH1 0x4 CALLDATASIZE LT PUSH1 0x28 JUMPI PUSH1 0x0 CALLDATALOAD PUSH1 0xE0 SHR DUP1 PUSH4 0xE06F3D38 EQ PUSH1 0x2D JUMPI JUMPDEST PUSH1 0x0 DUP1 REVERT JUMPDEST PUSH1 0x33 PUSH1 0x47 JUMP JUMPDEST PUSH1 0x40 MLOAD PUSH1 0x3E SWAP2 SWAP1 PUSH1 0x78 JUMP JUMPDEST PUSH1 0x40 MLOAD DUP1 SWAP2 SUB SWAP1 RETURN JUMPDEST PUSH1 0x0 DUP1 SLOAD SWAP1 PUSH2 0x100 EXP SWAP1 DIV PUSH20 0xFFFFFFFFFFFFFFFFFFFFFFFFFFFFFFFFFFFFFFFF AND DUP2 JUMP JUMPDEST PUSH1 0x72 DUP2 PUSH1 0x91 JUMP JUMPDEST DUP3 MSTORE POP POP JUMP JUMPDEST PUSH1 0x0 PUSH1 0x20 DUP3 ADD SWAP1 POP PUSH1 0x8B PUSH1 0x0 DUP4 ADD DUP5 PUSH1 0x6B JUMP JUMPDEST SWAP3 SWAP2 POP POP JUMP JUMPDEST PUSH1 0x0 PUSH1 0x9A DUP3 PUSH1 0xA1 JUMP JUMPDEST SWAP1 POP SWAP2 SWAP1 POP JUMP JUMPDEST PUSH1 0x0 PUSH20 0xFFFFFFFFFFFFFFFFFFFFFFFFFFFFFFFFFFFFFFFF DUP3 AND SWAP1 POP SWAP2 SWAP1 POP JUMP INVALID LOG2 PUSH5 0x6970667358 0x22 SLT KECCAK256 0xC9 PUSH15 0x1638257693AA3E748D4D7224BB1DEA 0xA5 BASEFEE GASLIMIT 0xB2 0xA9 0x29 DUP1 0xEE CALLDATASIZE 0xE0 PUSH6 0x1EAC043E6473 PUSH16 0x6C63430008070033A264697066735822 SLT KECCAK256 0x27 0xDA CALLCODE 0x4F 0xA6 0x5E 0x4E 0xEA DUP9 0xE TIMESTAMP DUP14 LOG3 DUP15 0xE0 PUSH8 0x77EF453BA8B42B56 LOG1 PUSH5 0x4064A10DBC PUSH18 0x64736F6C6343000807003300000000000000 "
				},
				"gasEstimates": {
					"creation": {
						"codeDepositCost": "259800",
						"executionCost": "24566",
						"totalCost": "284366"
					},
					"external": {
						"deployA()": "infinite",
						"deployedA(uint256)": "5042",
						"ownerCreator()": "2489"
					}
				},
				"methodIdentifiers": {
					"deployA()": "f4baaa61",
					"deployedA(uint256)": "f0a31d26",
					"ownerCreator()": "94fa4198"
				}
			},
			"storageLayout": {
				"storage": [
					{
						"astId": 17,
						"contract": "contracts/deploy_auction.sol:Creator",
						"label": "ownerCreator",
						"offset": 0,
						"slot": "0",
						"type": "t_address"
					},
					{
						"astId": 21,
						"contract": "contracts/deploy_auction.sol:Creator",
						"label": "deployedA",
						"offset": 0,
						"slot": "1",
						"type": "t_array(t_contract(A)15)dyn_storage"
					}
				],
				"types": {
					"t_address": {
						"encoding": "inplace",
						"label": "address",
						"numberOfBytes": "20"
					},
					"t_array(t_contract(A)15)dyn_storage": {
						"base": "t_contract(A)15",
						"encoding": "dynamic_array",
						"label": "contract A[]",
						"numberOfBytes": "32"
					},
					"t_contract(A)15": {
						"encoding": "inplace",
						"label": "contract A",
						"numberOfBytes": "20"
					}
				}
			},
			"userdoc": {
				"kind": "user",
				"methods": {},
				"version": 1
			}
		}
	}
}